{
  "contractName": "Boost",
  "abi": [
    {
      "inputs": [
        {
          "internalType": "contract UME",
          "name": "_umeToken",
          "type": "address"
        },
        {
          "internalType": "contract MemeStorage",
          "name": "_memeStorage",
          "type": "address"
        }
      ],
      "stateMutability": "nonpayable",
      "type": "constructor"
    },
    {
      "anonymous": false,
      "inputs": [
        {
          "indexed": false,
          "internalType": "address",
          "name": "from",
          "type": "address"
        },
        {
          "indexed": false,
          "internalType": "address",
          "name": "to",
          "type": "address"
        }
      ],
      "name": "InterfaceSignerChanged",
      "type": "event"
    },
    {
      "inputs": [],
      "name": "interfaceSigner",
      "outputs": [
        {
          "internalType": "address",
          "name": "",
          "type": "address"
        }
      ],
      "stateMutability": "view",
      "type": "function",
      "constant": true
    },
    {
      "inputs": [
        {
          "internalType": "address",
          "name": "_account",
          "type": "address"
        },
        {
          "internalType": "bytes32",
          "name": "_memeId",
          "type": "bytes32"
        },
        {
          "internalType": "uint256",
          "name": "_boostNumber",
          "type": "uint256"
        }
      ],
      "name": "boostCall",
      "outputs": [],
      "stateMutability": "nonpayable",
      "type": "function"
    },
    {
      "inputs": [
        {
          "internalType": "address",
          "name": "_account",
          "type": "address"
        },
        {
          "internalType": "bytes32",
          "name": "_memeId",
          "type": "bytes32"
        },
        {
          "internalType": "uint256",
          "name": "_boostNumber",
          "type": "uint256"
        }
      ],
      "name": "unBoostCall",
      "outputs": [],
      "stateMutability": "nonpayable",
      "type": "function"
    },
    {
      "inputs": [
        {
          "internalType": "address",
          "name": "_userInterface",
          "type": "address"
        }
      ],
      "name": "passInterfaceSigner",
      "outputs": [
        {
          "internalType": "bool",
          "name": "",
          "type": "bool"
        }
      ],
      "stateMutability": "nonpayable",
      "type": "function"
    }
  ],
  "bytecode": "0x60806040523480156200001157600080fd5b5060405162000beb38038062000beb83398181016040528101906200003791906200012f565b816000806101000a81548173ffffffffffffffffffffffffffffffffffffffff021916908373ffffffffffffffffffffffffffffffffffffffff16021790555080600160006101000a81548173ffffffffffffffffffffffffffffffffffffffff021916908373ffffffffffffffffffffffffffffffffffffffff16021790555033600260006101000a81548173ffffffffffffffffffffffffffffffffffffffff021916908373ffffffffffffffffffffffffffffffffffffffff16021790555050506200020b565b6000815190506200011281620001d7565b92915050565b6000815190506200012981620001f1565b92915050565b60008060408385031215620001495762000148620001d2565b5b6000620001598582860162000118565b92505060206200016c8582860162000101565b9150509250929050565b60006200018382620001b2565b9050919050565b6000620001978262000176565b9050919050565b6000620001ab8262000176565b9050919050565b600073ffffffffffffffffffffffffffffffffffffffff82169050919050565b600080fd5b620001e2816200018a565b8114620001ee57600080fd5b50565b620001fc816200019e565b81146200020857600080fd5b50565b6109d0806200021b6000396000f3fe608060405234801561001057600080fd5b506004361061004c5760003560e01c80635d177c1c146100515780636da307c81461006d578063af5dffde14610089578063c4e172da146100a7575b600080fd5b61006b600480360381019061006691906106d3565b6100d7565b005b610087600480360381019061008291906106d3565b610344565b005b6100916104f5565b60405161009e91906107b2565b60405180910390f35b6100c160048036038101906100bc91906106a6565b61051b565b6040516100ce919061081f565b60405180910390f35b600260009054906101000a900473ffffffffffffffffffffffffffffffffffffffff1673ffffffffffffffffffffffffffffffffffffffff163373ffffffffffffffffffffffffffffffffffffffff1614610167576040517f08c379a000000000000000000000000000000000000000000000000000000000815260040161015e9061087e565b60405180910390fd5b6000600160009054906101000a900473ffffffffffffffffffffffffffffffffffffffff1673ffffffffffffffffffffffffffffffffffffffff166385188f3c846040518263ffffffff1660e01b81526004016101c4919061083a565b60206040518083038186803b1580156101dc57600080fd5b505afa1580156101f0573d6000803e3d6000fd5b505050506040513d601f19601f820116820180604052508101906102149190610726565b905080821115610222578091505b60008054906101000a900473ffffffffffffffffffffffffffffffffffffffff1673ffffffffffffffffffffffffffffffffffffffff16639dc29fac85846040518363ffffffff1660e01b815260040161027d9291906107f6565b600060405180830381600087803b15801561029757600080fd5b505af11580156102ab573d6000803e3d6000fd5b50505050600160009054906101000a900473ffffffffffffffffffffffffffffffffffffffff1673ffffffffffffffffffffffffffffffffffffffff16633a93c5fa84846040518363ffffffff1660e01b815260040161030c929190610855565b600060405180830381600087803b15801561032657600080fd5b505af115801561033a573d6000803e3d6000fd5b5050505050505050565b600260009054906101000a900473ffffffffffffffffffffffffffffffffffffffff1673ffffffffffffffffffffffffffffffffffffffff163373ffffffffffffffffffffffffffffffffffffffff16146103d4576040517f08c379a00000000000000000000000000000000000000000000000000000000081526004016103cb9061087e565b60405180910390fd5b60008054906101000a900473ffffffffffffffffffffffffffffffffffffffff1673ffffffffffffffffffffffffffffffffffffffff16639dc29fac84836040518363ffffffff1660e01b815260040161042f9291906107f6565b600060405180830381600087803b15801561044957600080fd5b505af115801561045d573d6000803e3d6000fd5b50505050600160009054906101000a900473ffffffffffffffffffffffffffffffffffffffff1673ffffffffffffffffffffffffffffffffffffffff166370d2c46b83836040518363ffffffff1660e01b81526004016104be929190610855565b600060405180830381600087803b1580156104d857600080fd5b505af11580156104ec573d6000803e3d6000fd5b50505050505050565b600260009054906101000a900473ffffffffffffffffffffffffffffffffffffffff1681565b6000600260009054906101000a900473ffffffffffffffffffffffffffffffffffffffff1673ffffffffffffffffffffffffffffffffffffffff163373ffffffffffffffffffffffffffffffffffffffff16146105ad576040517f08c379a00000000000000000000000000000000000000000000000000000000081526004016105a49061087e565b60405180910390fd5b81600260006101000a81548173ffffffffffffffffffffffffffffffffffffffff021916908373ffffffffffffffffffffffffffffffffffffffff1602179055507fdf570d582e474b2d7915b12f6f773eb74e4bc78a660caeeccf19491c8578507b33600260009054906101000a900473ffffffffffffffffffffffffffffffffffffffff166040516106419291906107cd565b60405180910390a160019050919050565b60008135905061066181610955565b92915050565b6000813590506106768161096c565b92915050565b60008135905061068b81610983565b92915050565b6000815190506106a081610983565b92915050565b6000602082840312156106bc576106bb610901565b5b60006106ca84828501610652565b91505092915050565b6000806000606084860312156106ec576106eb610901565b5b60006106fa86828701610652565b935050602061070b86828701610667565b925050604061071c8682870161067c565b9150509250925092565b60006020828403121561073c5761073b610901565b5b600061074a84828501610691565b91505092915050565b61075c816108af565b82525050565b61076b816108c1565b82525050565b61077a816108cd565b82525050565b600061078d60298361089e565b915061079882610906565b604082019050919050565b6107ac816108f7565b82525050565b60006020820190506107c76000830184610753565b92915050565b60006040820190506107e26000830185610753565b6107ef6020830184610753565b9392505050565b600060408201905061080b6000830185610753565b61081860208301846107a3565b9392505050565b60006020820190506108346000830184610762565b92915050565b600060208201905061084f6000830184610771565b92915050565b600060408201905061086a6000830185610771565b61087760208301846107a3565b9392505050565b6000602082019050818103600083015261089781610780565b9050919050565b600082825260208201905092915050565b60006108ba826108d7565b9050919050565b60008115159050919050565b6000819050919050565b600073ffffffffffffffffffffffffffffffffffffffff82169050919050565b6000819050919050565b600080fd5b7f4572726f723a206d73672e73656e646572206d75737420626520696e7465726660008201527f6163655369676e65720000000000000000000000000000000000000000000000602082015250565b61095e816108af565b811461096957600080fd5b50565b610975816108cd565b811461098057600080fd5b50565b61098c816108f7565b811461099757600080fd5b5056fea26469706673582212209b3458dc9a16599a7f57f3ac940c35124a0a8853a60742e800a62f894ee9131064736f6c63430008070033",
  "immutableReferences": {},
  "source": "// SPDX-License-Identifier: MIT\n\npragma solidity >=0.8.0 <0.9.0;\n\nimport \"./MemeStorage.sol\";\nimport \"./UME.sol\";\n\ncontract Boost {\n  UME private umeToken;\n  MemeStorage private memeStorage;\n\n  address public interfaceSigner;\n\n  event InterfaceSignerChanged(address from, address to);\n\n  constructor(UME _umeToken, MemeStorage _memeStorage) public {\n    umeToken = _umeToken;\n    memeStorage = _memeStorage;\n    interfaceSigner = msg.sender;\n  }\n\n  function boostCall(\n    address _account,\n    bytes32 _memeId,\n    uint _boostNumber\n  ) public {\n    require(\n      msg.sender==interfaceSigner,\n      'Error: msg.sender must be interfaceSigner');\n    umeToken.burn(_account, _boostNumber);\n    memeStorage.addBoost(_memeId, _boostNumber);\n  }\n  function unBoostCall(\n    address _account,\n    bytes32 _memeId,\n    uint _boostNumber\n  ) public {\n    require(\n      msg.sender==interfaceSigner,\n      'Error: msg.sender must be interfaceSigner');\n    uint _currentBoost = memeStorage.getBoost(_memeId);\n    if(_boostNumber>_currentBoost) _boostNumber=_currentBoost;\n    umeToken.burn(_account, _boostNumber);\n    memeStorage.subtractBoost(_memeId, _boostNumber);\n  }\n\n  function passInterfaceSigner(address _userInterface) public returns (bool) {\n    require(\n      msg.sender == interfaceSigner,\n      'Error: msg.sender must be interfaceSigner');\n    interfaceSigner = _userInterface;\n    emit InterfaceSignerChanged(msg.sender, interfaceSigner);\n    return true;\n  }\n}\n",
  "sourcePath": "/Users/jaiq/Documents/000 BLOCKCHAIN/ETH/uMe/src/contracts/Boost.sol",
  "compiler": {
    "name": "solc",
    "version": "0.8.7+commit.e28d00a7.Emscripten.clang"
  },
  "schemaVersion": "3.4.3",
  "updatedAt": "2021-08-30T20:47:39.077Z",
  "networkType": "ethereum",
  "devdoc": {
    "kind": "dev",
    "methods": {},
    "version": 1
  },
  "userdoc": {
    "kind": "user",
    "methods": {},
    "version": 1
  }
}