{
  "contractName": "Boost",
  "abi": [
    {
      "inputs": [
        {
          "internalType": "contract UME",
          "name": "_umeToken",
          "type": "address"
        },
        {
          "internalType": "contract MemeStorage",
          "name": "_memeStorage",
          "type": "address"
        }
      ],
      "stateMutability": "nonpayable",
      "type": "constructor"
    },
    {
      "anonymous": false,
      "inputs": [
        {
          "indexed": false,
          "internalType": "address",
          "name": "from",
          "type": "address"
        },
        {
          "indexed": false,
          "internalType": "address",
          "name": "to",
          "type": "address"
        }
      ],
      "name": "InterfaceSignerChanged",
      "type": "event"
    },
    {
      "inputs": [],
      "name": "interfaceSigner",
      "outputs": [
        {
          "internalType": "address",
          "name": "",
          "type": "address"
        }
      ],
      "stateMutability": "view",
      "type": "function"
    },
    {
      "inputs": [
        {
          "internalType": "address",
          "name": "_account",
          "type": "address"
        },
        {
          "internalType": "bytes32",
          "name": "_memeId",
          "type": "bytes32"
        },
        {
          "internalType": "uint256",
          "name": "_boostNumber",
          "type": "uint256"
        }
      ],
      "name": "boostCall",
      "outputs": [],
      "stateMutability": "nonpayable",
      "type": "function"
    },
    {
      "inputs": [
        {
          "internalType": "address",
          "name": "_account",
          "type": "address"
        },
        {
          "internalType": "bytes32",
          "name": "_memeId",
          "type": "bytes32"
        },
        {
          "internalType": "uint256",
          "name": "_boostNumber",
          "type": "uint256"
        }
      ],
      "name": "unBoostCall",
      "outputs": [],
      "stateMutability": "nonpayable",
      "type": "function"
    },
    {
      "inputs": [
        {
          "internalType": "address",
          "name": "_userInterface",
          "type": "address"
        }
      ],
      "name": "passInterfaceSigner",
      "outputs": [
        {
          "internalType": "bool",
          "name": "",
          "type": "bool"
        }
      ],
      "stateMutability": "nonpayable",
      "type": "function"
    }
  ],
  "bytecode": "0x60806040523480156200001157600080fd5b5060405162000beb38038062000beb8339818101604052810190620000379190620001c4565b816000806101000a81548173ffffffffffffffffffffffffffffffffffffffff021916908373ffffffffffffffffffffffffffffffffffffffff16021790555080600160006101000a81548173ffffffffffffffffffffffffffffffffffffffff021916908373ffffffffffffffffffffffffffffffffffffffff16021790555033600260006101000a81548173ffffffffffffffffffffffffffffffffffffffff021916908373ffffffffffffffffffffffffffffffffffffffff16021790555050506200020b565b600080fd5b600073ffffffffffffffffffffffffffffffffffffffff82169050919050565b6000620001338262000106565b9050919050565b6000620001478262000126565b9050919050565b62000159816200013a565b81146200016557600080fd5b50565b60008151905062000179816200014e565b92915050565b60006200018c8262000126565b9050919050565b6200019e816200017f565b8114620001aa57600080fd5b50565b600081519050620001be8162000193565b92915050565b60008060408385031215620001de57620001dd62000101565b5b6000620001ee8582860162000168565b92505060206200020185828601620001ad565b9150509250929050565b6109d0806200021b6000396000f3fe608060405234801561001057600080fd5b506004361061004c5760003560e01c80635d177c1c146100515780636da307c81461006d578063af5dffde14610089578063c4e172da146100a7575b600080fd5b61006b60048036038101906100669190610721565b6100d7565b005b61008760048036038101906100829190610721565b610344565b005b6100916104f5565b60405161009e9190610783565b60405180910390f35b6100c160048036038101906100bc919061079e565b61051b565b6040516100ce91906107e6565b60405180910390f35b600260009054906101000a900473ffffffffffffffffffffffffffffffffffffffff1673ffffffffffffffffffffffffffffffffffffffff163373ffffffffffffffffffffffffffffffffffffffff1614610167576040517f08c379a000000000000000000000000000000000000000000000000000000000815260040161015e90610884565b60405180910390fd5b6000600160009054906101000a900473ffffffffffffffffffffffffffffffffffffffff1673ffffffffffffffffffffffffffffffffffffffff166385188f3c846040518263ffffffff1660e01b81526004016101c491906108b3565b60206040518083038186803b1580156101dc57600080fd5b505afa1580156101f0573d6000803e3d6000fd5b505050506040513d601f19601f8201168201806040525081019061021491906108e3565b905080821115610222578091505b60008054906101000a900473ffffffffffffffffffffffffffffffffffffffff1673ffffffffffffffffffffffffffffffffffffffff16639dc29fac85846040518363ffffffff1660e01b815260040161027d92919061091f565b600060405180830381600087803b15801561029757600080fd5b505af11580156102ab573d6000803e3d6000fd5b50505050600160009054906101000a900473ffffffffffffffffffffffffffffffffffffffff1673ffffffffffffffffffffffffffffffffffffffff16633a93c5fa84846040518363ffffffff1660e01b815260040161030c929190610948565b600060405180830381600087803b15801561032657600080fd5b505af115801561033a573d6000803e3d6000fd5b5050505050505050565b600260009054906101000a900473ffffffffffffffffffffffffffffffffffffffff1673ffffffffffffffffffffffffffffffffffffffff163373ffffffffffffffffffffffffffffffffffffffff16146103d4576040517f08c379a00000000000000000000000000000000000000000000000000000000081526004016103cb90610884565b60405180910390fd5b60008054906101000a900473ffffffffffffffffffffffffffffffffffffffff1673ffffffffffffffffffffffffffffffffffffffff16639dc29fac84836040518363ffffffff1660e01b815260040161042f92919061091f565b600060405180830381600087803b15801561044957600080fd5b505af115801561045d573d6000803e3d6000fd5b50505050600160009054906101000a900473ffffffffffffffffffffffffffffffffffffffff1673ffffffffffffffffffffffffffffffffffffffff166370d2c46b83836040518363ffffffff1660e01b81526004016104be929190610948565b600060405180830381600087803b1580156104d857600080fd5b505af11580156104ec573d6000803e3d6000fd5b50505050505050565b600260009054906101000a900473ffffffffffffffffffffffffffffffffffffffff1681565b6000600260009054906101000a900473ffffffffffffffffffffffffffffffffffffffff1673ffffffffffffffffffffffffffffffffffffffff163373ffffffffffffffffffffffffffffffffffffffff16146105ad576040517f08c379a00000000000000000000000000000000000000000000000000000000081526004016105a490610884565b60405180910390fd5b81600260006101000a81548173ffffffffffffffffffffffffffffffffffffffff021916908373ffffffffffffffffffffffffffffffffffffffff1602179055507fdf570d582e474b2d7915b12f6f773eb74e4bc78a660caeeccf19491c8578507b33600260009054906101000a900473ffffffffffffffffffffffffffffffffffffffff16604051610641929190610971565b60405180910390a160019050919050565b600080fd5b600073ffffffffffffffffffffffffffffffffffffffff82169050919050565b600061068282610657565b9050919050565b61069281610677565b811461069d57600080fd5b50565b6000813590506106af81610689565b92915050565b6000819050919050565b6106c8816106b5565b81146106d357600080fd5b50565b6000813590506106e5816106bf565b92915050565b6000819050919050565b6106fe816106eb565b811461070957600080fd5b50565b60008135905061071b816106f5565b92915050565b60008060006060848603121561073a57610739610652565b5b6000610748868287016106a0565b9350506020610759868287016106d6565b925050604061076a8682870161070c565b9150509250925092565b61077d81610677565b82525050565b60006020820190506107986000830184610774565b92915050565b6000602082840312156107b4576107b3610652565b5b60006107c2848285016106a0565b91505092915050565b60008115159050919050565b6107e0816107cb565b82525050565b60006020820190506107fb60008301846107d7565b92915050565b600082825260208201905092915050565b7f4572726f723a206d73672e73656e646572206d75737420626520696e7465726660008201527f6163655369676e65720000000000000000000000000000000000000000000000602082015250565b600061086e602983610801565b915061087982610812565b604082019050919050565b6000602082019050818103600083015261089d81610861565b9050919050565b6108ad816106b5565b82525050565b60006020820190506108c860008301846108a4565b92915050565b6000815190506108dd816106f5565b92915050565b6000602082840312156108f9576108f8610652565b5b6000610907848285016108ce565b91505092915050565b610919816106eb565b82525050565b60006040820190506109346000830185610774565b6109416020830184610910565b9392505050565b600060408201905061095d60008301856108a4565b61096a6020830184610910565b9392505050565b60006040820190506109866000830185610774565b6109936020830184610774565b939250505056fea264697066735822122074cc0f585073646e48d1f9f2bee192e9b80cf19221f249e8973eb5bf9bc3f86664736f6c63430008090033",
  "immutableReferences": {},
  "source": "// SPDX-License-Identifier: MIT\n\npragma solidity >=0.8.0 <0.9.0;\n\nimport \"./MemeStorage.sol\";\nimport \"./UME.sol\";\n\ncontract Boost {\n  UME private umeToken;\n  MemeStorage private memeStorage;\n\n  address public interfaceSigner;\n\n  event InterfaceSignerChanged(address from, address to);\n\n  constructor(UME _umeToken, MemeStorage _memeStorage) public {\n    umeToken = _umeToken;\n    memeStorage = _memeStorage;\n    interfaceSigner = msg.sender;\n  }\n\n  function boostCall(\n    address _account,\n    bytes32 _memeId,\n    uint _boostNumber\n  ) public {\n    require(\n      msg.sender==interfaceSigner,\n      'Error: msg.sender must be interfaceSigner');\n    umeToken.burn(_account, _boostNumber);\n    memeStorage.addBoost(_memeId, _boostNumber);\n  }\n  function unBoostCall(\n    address _account,\n    bytes32 _memeId,\n    uint _boostNumber\n  ) public {\n    require(\n      msg.sender==interfaceSigner,\n      'Error: msg.sender must be interfaceSigner');\n    uint _currentBoost = memeStorage.getBoost(_memeId);\n    if(_boostNumber>_currentBoost) _boostNumber=_currentBoost;\n    umeToken.burn(_account, _boostNumber);\n    memeStorage.subtractBoost(_memeId, _boostNumber);\n  }\n\n  function passInterfaceSigner(address _userInterface) public returns (bool) {\n    require(\n      msg.sender == interfaceSigner,\n      'Error: msg.sender must be interfaceSigner');\n    interfaceSigner = _userInterface;\n    emit InterfaceSignerChanged(msg.sender, interfaceSigner);\n    return true;\n  }\n}\n",
  "sourcePath": "/Users/jaiq/Documents/000 BLOCKCHAIN/ETH/uMe/src/contracts/Boost.sol",
  "compiler": {
    "name": "solc",
    "version": "0.8.9+commit.e5eed63a.Emscripten.clang"
  },
  "schemaVersion": "3.4.3",
  "updatedAt": "2021-10-29T07:30:37.137Z",
  "devdoc": {
    "kind": "dev",
    "methods": {},
    "version": 1
  },
  "userdoc": {
    "kind": "user",
    "methods": {},
    "version": 1
  }
}