{
  "contractName": "Boost",
  "abi": [
    {
      "inputs": [
        {
          "internalType": "contract UME",
          "name": "_umeToken",
          "type": "address"
        },
        {
          "internalType": "contract MemeStorage",
          "name": "_memeStorage",
          "type": "address"
        }
      ],
      "stateMutability": "nonpayable",
      "type": "constructor"
    },
    {
      "anonymous": false,
      "inputs": [
        {
          "indexed": true,
          "internalType": "address",
          "name": "demoter",
          "type": "address"
        },
        {
          "indexed": true,
          "internalType": "bytes32",
          "name": "memeId",
          "type": "bytes32"
        },
        {
          "indexed": false,
          "internalType": "uint256",
          "name": "amount",
          "type": "uint256"
        }
      ],
      "name": "Demote",
      "type": "event"
    },
    {
      "anonymous": false,
      "inputs": [
        {
          "indexed": true,
          "internalType": "address",
          "name": "from",
          "type": "address"
        },
        {
          "indexed": true,
          "internalType": "address",
          "name": "to",
          "type": "address"
        }
      ],
      "name": "FactorySignerChanged",
      "type": "event"
    },
    {
      "anonymous": false,
      "inputs": [
        {
          "indexed": true,
          "internalType": "address",
          "name": "from",
          "type": "address"
        },
        {
          "indexed": true,
          "internalType": "address",
          "name": "to",
          "type": "address"
        }
      ],
      "name": "InterfaceSignerChanged",
      "type": "event"
    },
    {
      "anonymous": false,
      "inputs": [
        {
          "indexed": true,
          "internalType": "address",
          "name": "from",
          "type": "address"
        },
        {
          "indexed": true,
          "internalType": "address",
          "name": "to",
          "type": "address"
        }
      ],
      "name": "LikeSignerChanged",
      "type": "event"
    },
    {
      "anonymous": false,
      "inputs": [
        {
          "indexed": true,
          "internalType": "address",
          "name": "promoter",
          "type": "address"
        },
        {
          "indexed": true,
          "internalType": "bytes32",
          "name": "memeId",
          "type": "bytes32"
        },
        {
          "indexed": false,
          "internalType": "uint256",
          "name": "amount",
          "type": "uint256"
        }
      ],
      "name": "Promote",
      "type": "event"
    },
    {
      "anonymous": false,
      "inputs": [
        {
          "indexed": true,
          "internalType": "address",
          "name": "from",
          "type": "address"
        },
        {
          "indexed": true,
          "internalType": "address",
          "name": "to",
          "type": "address"
        }
      ],
      "name": "ValueSignerChanged",
      "type": "event"
    },
    {
      "inputs": [],
      "name": "curateBoostValue",
      "outputs": [
        {
          "internalType": "uint256",
          "name": "",
          "type": "uint256"
        }
      ],
      "stateMutability": "view",
      "type": "function"
    },
    {
      "inputs": [],
      "name": "factorySigner",
      "outputs": [
        {
          "internalType": "address",
          "name": "",
          "type": "address"
        }
      ],
      "stateMutability": "view",
      "type": "function"
    },
    {
      "inputs": [],
      "name": "interfaceSigner",
      "outputs": [
        {
          "internalType": "address",
          "name": "",
          "type": "address"
        }
      ],
      "stateMutability": "view",
      "type": "function"
    },
    {
      "inputs": [],
      "name": "likeBoostValue",
      "outputs": [
        {
          "internalType": "uint256",
          "name": "",
          "type": "uint256"
        }
      ],
      "stateMutability": "view",
      "type": "function"
    },
    {
      "inputs": [],
      "name": "likeSigner",
      "outputs": [
        {
          "internalType": "address",
          "name": "",
          "type": "address"
        }
      ],
      "stateMutability": "view",
      "type": "function"
    },
    {
      "inputs": [],
      "name": "postBoostValue",
      "outputs": [
        {
          "internalType": "uint256",
          "name": "",
          "type": "uint256"
        }
      ],
      "stateMutability": "view",
      "type": "function"
    },
    {
      "inputs": [],
      "name": "repostBoostValue",
      "outputs": [
        {
          "internalType": "uint256",
          "name": "",
          "type": "uint256"
        }
      ],
      "stateMutability": "view",
      "type": "function"
    },
    {
      "inputs": [],
      "name": "respondBoostValue",
      "outputs": [
        {
          "internalType": "uint256",
          "name": "",
          "type": "uint256"
        }
      ],
      "stateMutability": "view",
      "type": "function"
    },
    {
      "inputs": [],
      "name": "tagBoostValue",
      "outputs": [
        {
          "internalType": "uint256",
          "name": "",
          "type": "uint256"
        }
      ],
      "stateMutability": "view",
      "type": "function"
    },
    {
      "inputs": [],
      "name": "valueSigner",
      "outputs": [
        {
          "internalType": "address",
          "name": "",
          "type": "address"
        }
      ],
      "stateMutability": "view",
      "type": "function"
    },
    {
      "inputs": [
        {
          "internalType": "address",
          "name": "_account",
          "type": "address"
        },
        {
          "internalType": "bytes32",
          "name": "_memeId",
          "type": "bytes32"
        },
        {
          "internalType": "uint256",
          "name": "_boostNumber",
          "type": "uint256"
        }
      ],
      "name": "boostCall",
      "outputs": [],
      "stateMutability": "nonpayable",
      "type": "function"
    },
    {
      "inputs": [
        {
          "internalType": "address",
          "name": "_account",
          "type": "address"
        },
        {
          "internalType": "bytes32",
          "name": "_memeId",
          "type": "bytes32"
        },
        {
          "internalType": "uint256",
          "name": "_boostNumber",
          "type": "uint256"
        }
      ],
      "name": "unBoostCall",
      "outputs": [],
      "stateMutability": "nonpayable",
      "type": "function"
    },
    {
      "inputs": [
        {
          "internalType": "bytes32",
          "name": "_memeId",
          "type": "bytes32"
        }
      ],
      "name": "postBoost",
      "outputs": [],
      "stateMutability": "nonpayable",
      "type": "function"
    },
    {
      "inputs": [
        {
          "internalType": "bytes32",
          "name": "_memeId",
          "type": "bytes32"
        }
      ],
      "name": "likeBoost",
      "outputs": [],
      "stateMutability": "nonpayable",
      "type": "function"
    },
    {
      "inputs": [
        {
          "internalType": "bytes32",
          "name": "_memeId",
          "type": "bytes32"
        }
      ],
      "name": "tagBoost",
      "outputs": [],
      "stateMutability": "nonpayable",
      "type": "function"
    },
    {
      "inputs": [
        {
          "internalType": "bytes32",
          "name": "_memeId",
          "type": "bytes32"
        }
      ],
      "name": "respondBoost",
      "outputs": [],
      "stateMutability": "nonpayable",
      "type": "function"
    },
    {
      "inputs": [
        {
          "internalType": "bytes32",
          "name": "_memeId",
          "type": "bytes32"
        }
      ],
      "name": "curateBoost",
      "outputs": [],
      "stateMutability": "nonpayable",
      "type": "function"
    },
    {
      "inputs": [
        {
          "internalType": "bytes32",
          "name": "_memeId",
          "type": "bytes32"
        }
      ],
      "name": "repostBoost",
      "outputs": [],
      "stateMutability": "nonpayable",
      "type": "function"
    },
    {
      "inputs": [
        {
          "internalType": "uint256",
          "name": "_value",
          "type": "uint256"
        }
      ],
      "name": "setPostBoost",
      "outputs": [],
      "stateMutability": "nonpayable",
      "type": "function"
    },
    {
      "inputs": [
        {
          "internalType": "uint256",
          "name": "_value",
          "type": "uint256"
        }
      ],
      "name": "setLikeBoost",
      "outputs": [],
      "stateMutability": "nonpayable",
      "type": "function"
    },
    {
      "inputs": [
        {
          "internalType": "uint256",
          "name": "_value",
          "type": "uint256"
        }
      ],
      "name": "setTagBoost",
      "outputs": [],
      "stateMutability": "nonpayable",
      "type": "function"
    },
    {
      "inputs": [
        {
          "internalType": "uint256",
          "name": "_value",
          "type": "uint256"
        }
      ],
      "name": "setRespondBoost",
      "outputs": [],
      "stateMutability": "nonpayable",
      "type": "function"
    },
    {
      "inputs": [
        {
          "internalType": "uint256",
          "name": "_value",
          "type": "uint256"
        }
      ],
      "name": "setCurateBoost",
      "outputs": [],
      "stateMutability": "nonpayable",
      "type": "function"
    },
    {
      "inputs": [
        {
          "internalType": "uint256",
          "name": "_value",
          "type": "uint256"
        }
      ],
      "name": "setRepostBoost",
      "outputs": [],
      "stateMutability": "nonpayable",
      "type": "function"
    },
    {
      "inputs": [
        {
          "internalType": "address",
          "name": "_userInterface",
          "type": "address"
        }
      ],
      "name": "passInterfaceSigner",
      "outputs": [
        {
          "internalType": "bool",
          "name": "",
          "type": "bool"
        }
      ],
      "stateMutability": "nonpayable",
      "type": "function"
    },
    {
      "inputs": [
        {
          "internalType": "address",
          "name": "_userLike",
          "type": "address"
        }
      ],
      "name": "passLikeSigner",
      "outputs": [
        {
          "internalType": "bool",
          "name": "",
          "type": "bool"
        }
      ],
      "stateMutability": "nonpayable",
      "type": "function"
    },
    {
      "inputs": [
        {
          "internalType": "address",
          "name": "_userFactory",
          "type": "address"
        }
      ],
      "name": "passFactorySigner",
      "outputs": [
        {
          "internalType": "bool",
          "name": "",
          "type": "bool"
        }
      ],
      "stateMutability": "nonpayable",
      "type": "function"
    },
    {
      "inputs": [
        {
          "internalType": "address",
          "name": "_userValue",
          "type": "address"
        }
      ],
      "name": "passValueSigner",
      "outputs": [
        {
          "internalType": "bool",
          "name": "",
          "type": "bool"
        }
      ],
      "stateMutability": "nonpayable",
      "type": "function"
    }
  ],
  "bytecode": "0x608060405260086006556005600755600060085560046009556004600a556004600b553480156200002f57600080fd5b5060405162002305380380620023058339818101604052810190620000559190620002a5565b816000806101000a81548173ffffffffffffffffffffffffffffffffffffffff021916908373ffffffffffffffffffffffffffffffffffffffff16021790555080600160006101000a81548173ffffffffffffffffffffffffffffffffffffffff021916908373ffffffffffffffffffffffffffffffffffffffff16021790555033600260006101000a81548173ffffffffffffffffffffffffffffffffffffffff021916908373ffffffffffffffffffffffffffffffffffffffff16021790555033600460006101000a81548173ffffffffffffffffffffffffffffffffffffffff021916908373ffffffffffffffffffffffffffffffffffffffff16021790555033600360006101000a81548173ffffffffffffffffffffffffffffffffffffffff021916908373ffffffffffffffffffffffffffffffffffffffff16021790555033600560006101000a81548173ffffffffffffffffffffffffffffffffffffffff021916908373ffffffffffffffffffffffffffffffffffffffff1602179055505050620002ec565b600080fd5b600073ffffffffffffffffffffffffffffffffffffffff82169050919050565b60006200021482620001e7565b9050919050565b6000620002288262000207565b9050919050565b6200023a816200021b565b81146200024657600080fd5b50565b6000815190506200025a816200022f565b92915050565b60006200026d8262000207565b9050919050565b6200027f8162000260565b81146200028b57600080fd5b50565b6000815190506200029f8162000274565b92915050565b60008060408385031215620002bf57620002be620001e2565b5b6000620002cf8582860162000249565b9250506020620002e2858286016200028e565b9150509250929050565b61200980620002fc6000396000f3fe608060405234801561001057600080fd5b50600436106101c45760003560e01c80636bf9b5b5116100f9578063b13126e211610097578063c4e172da11610071578063c4e172da146104a5578063de96d8f7146104d5578063e6d7b017146104f1578063e8d1ad941461050d576101c4565b8063b13126e21461044d578063b787c66214610469578063b85bba3414610487576101c4565b8063829a262c116100d3578063829a262c146103d7578063893e061a146103f55780638fb2532114610413578063af5dffde1461042f576101c4565b80636bf9b5b5146103815780636da307c81461039d5780637e2541e5146103b9576101c4565b80632c2051d4116101665780635aa64413116101405780635aa644131461030d5780635d177c1c1461032b5780635d875b681461034757806366afca1914610363576101c4565b80632c2051d4146102b957806347b08fb8146102d55780634920baff146102f1576101c4565b80630f202efe116101a25780630f202efe146102335780631694b4dd1461025157806317dcaab61461026d5780631f6f34b41461029d576101c4565b8063026e4332146101c957806306e6a770146101e7578063079e5c9514610217575b600080fd5b6101d161053d565b6040516101de9190611aa2565b60405180910390f35b61020160048036038101906101fc9190611b20565b610543565b60405161020e9190611b68565b60405180910390f35b610231600480360381019061022c9190611baf565b61069b565b005b61023b610735565b6040516102489190611aa2565b60405180910390f35b61026b60048036038101906102669190611c12565b61073b565b005b61028760048036038101906102829190611b20565b61085f565b6040516102949190611b68565b60405180910390f35b6102b760048036038101906102b29190611baf565b6109b7565b005b6102d360048036038101906102ce9190611baf565b610a51565b005b6102ef60048036038101906102ea9190611baf565b610aeb565b005b61030b60048036038101906103069190611c12565b610b85565b005b610315610ca9565b6040516103229190611c4e565b60405180910390f35b61034560048036038101906103409190611c69565b610ccf565b005b610361600480360381019061035c9190611c12565b610f8b565b005b61036b6110af565b6040516103789190611aa2565b60405180910390f35b61039b60048036038101906103969190611baf565b6110b5565b005b6103b760048036038101906103b29190611c69565b61114f565b005b6103c161134f565b6040516103ce9190611aa2565b60405180910390f35b6103df611355565b6040516103ec9190611c4e565b60405180910390f35b6103fd61137b565b60405161040a9190611aa2565b60405180910390f35b61042d60048036038101906104289190611c12565b611381565b005b6104376114a5565b6040516104449190611c4e565b60405180910390f35b61046760048036038101906104629190611c12565b6114cb565b005b6104716115ef565b60405161047e9190611aa2565b60405180910390f35b61048f6115f5565b60405161049c9190611c4e565b60405180910390f35b6104bf60048036038101906104ba9190611b20565b61161b565b6040516104cc9190611b68565b60405180910390f35b6104ef60048036038101906104ea9190611baf565b611773565b005b61050b60048036038101906105069190611c12565b61180d565b005b61052760048036038101906105229190611b20565b611931565b6040516105349190611b68565b60405180910390f35b60095481565b6000600360009054906101000a900473ffffffffffffffffffffffffffffffffffffffff1673ffffffffffffffffffffffffffffffffffffffff163373ffffffffffffffffffffffffffffffffffffffff16146105d5576040517f08c379a00000000000000000000000000000000000000000000000000000000081526004016105cc90611d3f565b60405180910390fd5b81600360006101000a81548173ffffffffffffffffffffffffffffffffffffffff021916908373ffffffffffffffffffffffffffffffffffffffff160217905550600360009054906101000a900473ffffffffffffffffffffffffffffffffffffffff1673ffffffffffffffffffffffffffffffffffffffff163373ffffffffffffffffffffffffffffffffffffffff167f2364065f519eb2e0ac13040d65b1d1140f6677de0518b6dee6954e49f7f7a5b660405160405180910390a360019050919050565b600560009054906101000a900473ffffffffffffffffffffffffffffffffffffffff1673ffffffffffffffffffffffffffffffffffffffff163373ffffffffffffffffffffffffffffffffffffffff161461072b576040517f08c379a000000000000000000000000000000000000000000000000000000000815260040161072290611dd1565b60405180910390fd5b8060078190555050565b600b5481565b600360009054906101000a900473ffffffffffffffffffffffffffffffffffffffff1673ffffffffffffffffffffffffffffffffffffffff163373ffffffffffffffffffffffffffffffffffffffff16146107cb576040517f08c379a00000000000000000000000000000000000000000000000000000000081526004016107c290611d3f565b60405180910390fd5b600160009054906101000a900473ffffffffffffffffffffffffffffffffffffffff1673ffffffffffffffffffffffffffffffffffffffff166370d2c46b826007546040518363ffffffff1660e01b815260040161082a929190611e00565b600060405180830381600087803b15801561084457600080fd5b505af1158015610858573d6000803e3d6000fd5b5050505050565b6000600460009054906101000a900473ffffffffffffffffffffffffffffffffffffffff1673ffffffffffffffffffffffffffffffffffffffff163373ffffffffffffffffffffffffffffffffffffffff16146108f1576040517f08c379a00000000000000000000000000000000000000000000000000000000081526004016108e890611e9b565b60405180910390fd5b81600460006101000a81548173ffffffffffffffffffffffffffffffffffffffff021916908373ffffffffffffffffffffffffffffffffffffffff160217905550600460009054906101000a900473ffffffffffffffffffffffffffffffffffffffff1673ffffffffffffffffffffffffffffffffffffffff163373ffffffffffffffffffffffffffffffffffffffff167f5f8b18be53cdf9843c4263461966fc46896a2d372d3fa87fc22f6cfed024186260405160405180910390a360019050919050565b600560009054906101000a900473ffffffffffffffffffffffffffffffffffffffff1673ffffffffffffffffffffffffffffffffffffffff163373ffffffffffffffffffffffffffffffffffffffff1614610a47576040517f08c379a0000000000000000000000000000000000000000000000000000000008152600401610a3e90611dd1565b60405180910390fd5b8060098190555050565b600560009054906101000a900473ffffffffffffffffffffffffffffffffffffffff1673ffffffffffffffffffffffffffffffffffffffff163373ffffffffffffffffffffffffffffffffffffffff1614610ae1576040517f08c379a0000000000000000000000000000000000000000000000000000000008152600401610ad890611dd1565b60405180910390fd5b80600a8190555050565b600560009054906101000a900473ffffffffffffffffffffffffffffffffffffffff1673ffffffffffffffffffffffffffffffffffffffff163373ffffffffffffffffffffffffffffffffffffffff1614610b7b576040517f08c379a0000000000000000000000000000000000000000000000000000000008152600401610b7290611dd1565b60405180910390fd5b8060088190555050565b600460009054906101000a900473ffffffffffffffffffffffffffffffffffffffff1673ffffffffffffffffffffffffffffffffffffffff163373ffffffffffffffffffffffffffffffffffffffff1614610c15576040517f08c379a0000000000000000000000000000000000000000000000000000000008152600401610c0c90611e9b565b60405180910390fd5b600160009054906101000a900473ffffffffffffffffffffffffffffffffffffffff1673ffffffffffffffffffffffffffffffffffffffff166370d2c46b826009546040518363ffffffff1660e01b8152600401610c74929190611e00565b600060405180830381600087803b158015610c8e57600080fd5b505af1158015610ca2573d6000803e3d6000fd5b5050505050565b600460009054906101000a900473ffffffffffffffffffffffffffffffffffffffff1681565b600260009054906101000a900473ffffffffffffffffffffffffffffffffffffffff1673ffffffffffffffffffffffffffffffffffffffff163373ffffffffffffffffffffffffffffffffffffffff1614610d5f576040517f08c379a0000000000000000000000000000000000000000000000000000000008152600401610d5690611f2d565b60405180910390fd5b6000600160009054906101000a900473ffffffffffffffffffffffffffffffffffffffff1673ffffffffffffffffffffffffffffffffffffffff166385188f3c846040518263ffffffff1660e01b8152600401610dbc9190611f4d565b60206040518083038186803b158015610dd457600080fd5b505afa158015610de8573d6000803e3d6000fd5b505050506040513d601f19601f82011682018060405250810190610e0c9190611f7d565b905080821115610e1a578091505b60008054906101000a900473ffffffffffffffffffffffffffffffffffffffff1673ffffffffffffffffffffffffffffffffffffffff16639dc29fac85846040518363ffffffff1660e01b8152600401610e75929190611faa565b600060405180830381600087803b158015610e8f57600080fd5b505af1158015610ea3573d6000803e3d6000fd5b50505050600160009054906101000a900473ffffffffffffffffffffffffffffffffffffffff1673ffffffffffffffffffffffffffffffffffffffff16633a93c5fa84846040518363ffffffff1660e01b8152600401610f04929190611e00565b600060405180830381600087803b158015610f1e57600080fd5b505af1158015610f32573d6000803e3d6000fd5b50505050828473ffffffffffffffffffffffffffffffffffffffff167f053020ef2153302ab1b8d538cea2a0b592dadeb160f4ddc3ecc39536f3416d6684604051610f7d9190611aa2565b60405180910390a350505050565b600460009054906101000a900473ffffffffffffffffffffffffffffffffffffffff1673ffffffffffffffffffffffffffffffffffffffff163373ffffffffffffffffffffffffffffffffffffffff161461101b576040517f08c379a000000000000000000000000000000000000000000000000000000000815260040161101290611e9b565b60405180910390fd5b600160009054906101000a900473ffffffffffffffffffffffffffffffffffffffff1673ffffffffffffffffffffffffffffffffffffffff166370d2c46b826006546040518363ffffffff1660e01b815260040161107a929190611e00565b600060405180830381600087803b15801561109457600080fd5b505af11580156110a8573d6000803e3d6000fd5b5050505050565b60065481565b600560009054906101000a900473ffffffffffffffffffffffffffffffffffffffff1673ffffffffffffffffffffffffffffffffffffffff163373ffffffffffffffffffffffffffffffffffffffff1614611145576040517f08c379a000000000000000000000000000000000000000000000000000000000815260040161113c90611dd1565b60405180910390fd5b80600b8190555050565b600260009054906101000a900473ffffffffffffffffffffffffffffffffffffffff1673ffffffffffffffffffffffffffffffffffffffff163373ffffffffffffffffffffffffffffffffffffffff16146111df576040517f08c379a00000000000000000000000000000000000000000000000000000000081526004016111d690611f2d565b60405180910390fd5b60008054906101000a900473ffffffffffffffffffffffffffffffffffffffff1673ffffffffffffffffffffffffffffffffffffffff16639dc29fac84836040518363ffffffff1660e01b815260040161123a929190611faa565b600060405180830381600087803b15801561125457600080fd5b505af1158015611268573d6000803e3d6000fd5b50505050600160009054906101000a900473ffffffffffffffffffffffffffffffffffffffff1673ffffffffffffffffffffffffffffffffffffffff166370d2c46b83836040518363ffffffff1660e01b81526004016112c9929190611e00565b600060405180830381600087803b1580156112e357600080fd5b505af11580156112f7573d6000803e3d6000fd5b50505050818373ffffffffffffffffffffffffffffffffffffffff167faf3129821ba0980fd100074f6d610c2003b00e3ae4053f07fc752e5085275818836040516113429190611aa2565b60405180910390a3505050565b600a5481565b600360009054906101000a900473ffffffffffffffffffffffffffffffffffffffff1681565b60085481565b600460009054906101000a900473ffffffffffffffffffffffffffffffffffffffff1673ffffffffffffffffffffffffffffffffffffffff163373ffffffffffffffffffffffffffffffffffffffff1614611411576040517f08c379a000000000000000000000000000000000000000000000000000000000815260040161140890611e9b565b60405180910390fd5b600160009054906101000a900473ffffffffffffffffffffffffffffffffffffffff1673ffffffffffffffffffffffffffffffffffffffff166370d2c46b82600b546040518363ffffffff1660e01b8152600401611470929190611e00565b600060405180830381600087803b15801561148a57600080fd5b505af115801561149e573d6000803e3d6000fd5b5050505050565b600260009054906101000a900473ffffffffffffffffffffffffffffffffffffffff1681565b600460009054906101000a900473ffffffffffffffffffffffffffffffffffffffff1673ffffffffffffffffffffffffffffffffffffffff163373ffffffffffffffffffffffffffffffffffffffff161461155b576040517f08c379a000000000000000000000000000000000000000000000000000000000815260040161155290611e9b565b60405180910390fd5b600160009054906101000a900473ffffffffffffffffffffffffffffffffffffffff1673ffffffffffffffffffffffffffffffffffffffff166370d2c46b82600a546040518363ffffffff1660e01b81526004016115ba929190611e00565b600060405180830381600087803b1580156115d457600080fd5b505af11580156115e8573d6000803e3d6000fd5b5050505050565b60075481565b600560009054906101000a900473ffffffffffffffffffffffffffffffffffffffff1681565b6000600260009054906101000a900473ffffffffffffffffffffffffffffffffffffffff1673ffffffffffffffffffffffffffffffffffffffff163373ffffffffffffffffffffffffffffffffffffffff16146116ad576040517f08c379a00000000000000000000000000000000000000000000000000000000081526004016116a490611f2d565b60405180910390fd5b81600260006101000a81548173ffffffffffffffffffffffffffffffffffffffff021916908373ffffffffffffffffffffffffffffffffffffffff160217905550600260009054906101000a900473ffffffffffffffffffffffffffffffffffffffff1673ffffffffffffffffffffffffffffffffffffffff163373ffffffffffffffffffffffffffffffffffffffff167fdf570d582e474b2d7915b12f6f773eb74e4bc78a660caeeccf19491c8578507b60405160405180910390a360019050919050565b600560009054906101000a900473ffffffffffffffffffffffffffffffffffffffff1673ffffffffffffffffffffffffffffffffffffffff163373ffffffffffffffffffffffffffffffffffffffff1614611803576040517f08c379a00000000000000000000000000000000000000000000000000000000081526004016117fa90611dd1565b60405180910390fd5b8060068190555050565b600460009054906101000a900473ffffffffffffffffffffffffffffffffffffffff1673ffffffffffffffffffffffffffffffffffffffff163373ffffffffffffffffffffffffffffffffffffffff161461189d576040517f08c379a000000000000000000000000000000000000000000000000000000000815260040161189490611e9b565b60405180910390fd5b600160009054906101000a900473ffffffffffffffffffffffffffffffffffffffff1673ffffffffffffffffffffffffffffffffffffffff166370d2c46b826008546040518363ffffffff1660e01b81526004016118fc929190611e00565b600060405180830381600087803b15801561191657600080fd5b505af115801561192a573d6000803e3d6000fd5b5050505050565b6000600560009054906101000a900473ffffffffffffffffffffffffffffffffffffffff1673ffffffffffffffffffffffffffffffffffffffff163373ffffffffffffffffffffffffffffffffffffffff16146119c3576040517f08c379a00000000000000000000000000000000000000000000000000000000081526004016119ba90611dd1565b60405180910390fd5b81600560006101000a81548173ffffffffffffffffffffffffffffffffffffffff021916908373ffffffffffffffffffffffffffffffffffffffff160217905550600560009054906101000a900473ffffffffffffffffffffffffffffffffffffffff1673ffffffffffffffffffffffffffffffffffffffff163373ffffffffffffffffffffffffffffffffffffffff167ff1511333f5f2fb77f74ba02751546dcae093e522147abff4f4ceadf9992ef7d560405160405180910390a360019050919050565b6000819050919050565b611a9c81611a89565b82525050565b6000602082019050611ab76000830184611a93565b92915050565b600080fd5b600073ffffffffffffffffffffffffffffffffffffffff82169050919050565b6000611aed82611ac2565b9050919050565b611afd81611ae2565b8114611b0857600080fd5b50565b600081359050611b1a81611af4565b92915050565b600060208284031215611b3657611b35611abd565b5b6000611b4484828501611b0b565b91505092915050565b60008115159050919050565b611b6281611b4d565b82525050565b6000602082019050611b7d6000830184611b59565b92915050565b611b8c81611a89565b8114611b9757600080fd5b50565b600081359050611ba981611b83565b92915050565b600060208284031215611bc557611bc4611abd565b5b6000611bd384828501611b9a565b91505092915050565b6000819050919050565b611bef81611bdc565b8114611bfa57600080fd5b50565b600081359050611c0c81611be6565b92915050565b600060208284031215611c2857611c27611abd565b5b6000611c3684828501611bfd565b91505092915050565b611c4881611ae2565b82525050565b6000602082019050611c636000830184611c3f565b92915050565b600080600060608486031215611c8257611c81611abd565b5b6000611c9086828701611b0b565b9350506020611ca186828701611bfd565b9250506040611cb286828701611b9a565b9150509250925092565b600082825260208201905092915050565b7f4572726f723a206d73672e73656e646572206d757374206265206c696b65536960008201527f676e657200000000000000000000000000000000000000000000000000000000602082015250565b6000611d29602483611cbc565b9150611d3482611ccd565b604082019050919050565b60006020820190508181036000830152611d5881611d1c565b9050919050565b7f4572726f723a206d73672e73656e646572206d7573742062652076616c75655360008201527f69676e6572000000000000000000000000000000000000000000000000000000602082015250565b6000611dbb602583611cbc565b9150611dc682611d5f565b604082019050919050565b60006020820190508181036000830152611dea81611dae565b9050919050565b611dfa81611bdc565b82525050565b6000604082019050611e156000830185611df1565b611e226020830184611a93565b9392505050565b7f4572726f723a206d73672e73656e646572206d75737420626520666163746f7260008201527f795369676e657200000000000000000000000000000000000000000000000000602082015250565b6000611e85602783611cbc565b9150611e9082611e29565b604082019050919050565b60006020820190508181036000830152611eb481611e78565b9050919050565b7f4572726f723a206d73672e73656e646572206d75737420626520696e7465726660008201527f6163655369676e65720000000000000000000000000000000000000000000000602082015250565b6000611f17602983611cbc565b9150611f2282611ebb565b604082019050919050565b60006020820190508181036000830152611f4681611f0a565b9050919050565b6000602082019050611f626000830184611df1565b92915050565b600081519050611f7781611b83565b92915050565b600060208284031215611f9357611f92611abd565b5b6000611fa184828501611f68565b91505092915050565b6000604082019050611fbf6000830185611c3f565b611fcc6020830184611a93565b939250505056fea2646970667358221220850b003f85165957f2277c08af0026704097ce5b4a7f27df34a3d1a6da38c56864736f6c63430008090033",
  "immutableReferences": {},
  "source": "// SPDX-License-Identifier: MIT\n\npragma solidity >=0.8.0 <0.9.0;\n\nimport \"./MemeStorage.sol\";\nimport \"./UME.sol\";\n\ncontract Boost {\n  UME private umeToken;\n  MemeStorage private memeStorage;\n\n  address public interfaceSigner;\n  address public likeSigner;\n  address public factorySigner;\n  address public valueSigner;\n\n  // boost values\n  uint public postBoostValue = 8;\n  uint public likeBoostValue = 5;\n  uint public tagBoostValue = 0;\n  uint public respondBoostValue = 4;\n  uint public curateBoostValue = 4;\n  uint public repostBoostValue = 4;\n\n  event InterfaceSignerChanged(\n        address indexed from,\n        address indexed to);\n  event LikeSignerChanged(\n        address indexed from,\n        address indexed to);\n  event FactorySignerChanged(\n        address indexed from,\n        address indexed to);\n  event ValueSignerChanged(\n        address indexed from,\n        address indexed to);\n  event Promote(\n        address indexed promoter,\n        bytes32 indexed memeId,\n        uint amount);\n  event Demote(\n        address indexed demoter,\n        bytes32 indexed memeId,\n        uint amount);\n\n  constructor(UME _umeToken,\n              MemeStorage _memeStorage)\n              public {\n    umeToken = _umeToken;\n    memeStorage = _memeStorage;\n    interfaceSigner = msg.sender;\n    factorySigner = msg.sender;\n    likeSigner = msg.sender;\n    valueSigner = msg.sender;\n  }\n\n  function boostCall(\n            address _account,\n            bytes32 _memeId,\n            uint _boostNumber)\n            public {\n    require(\n      msg.sender==interfaceSigner,\n      'Error: msg.sender must be interfaceSigner');\n    umeToken.burn(_account, _boostNumber);\n    memeStorage.addBoost(_memeId, _boostNumber);\n    emit Promote(_account, _memeId, _boostNumber);\n  }\n  function unBoostCall(\n            address _account,\n            bytes32 _memeId,\n            uint _boostNumber)\n            public {\n    require(\n      msg.sender==interfaceSigner,\n      'Error: msg.sender must be interfaceSigner');\n    uint _currentBoost = memeStorage.getBoost(_memeId);\n    if(_boostNumber>_currentBoost) _boostNumber=_currentBoost;\n    umeToken.burn(_account, _boostNumber);\n    memeStorage.subtractBoost(_memeId, _boostNumber);\n    emit Demote(_account, _memeId, _boostNumber);\n  }\n\n  function postBoost(\n            bytes32 _memeId)\n            public {\n    require(\n      msg.sender==factorySigner,\n      'Error: msg.sender must be factorySigner');\n    memeStorage.addBoost(_memeId, postBoostValue);\n  }\n  function likeBoost(\n            bytes32 _memeId)\n            public {\n    require(\n      msg.sender==likeSigner,\n      'Error: msg.sender must be likeSigner');\n    memeStorage.addBoost(_memeId, likeBoostValue);\n  }\n  function tagBoost(\n            bytes32 _memeId)\n            public {\n    require(\n      msg.sender==factorySigner,\n      'Error: msg.sender must be factorySigner');\n    memeStorage.addBoost(_memeId, tagBoostValue);\n  }\n  function respondBoost(\n            bytes32 _memeId)\n            public {\n    require(\n      msg.sender==factorySigner,\n      'Error: msg.sender must be factorySigner');\n    memeStorage.addBoost(_memeId, respondBoostValue);\n  }\n  function curateBoost(\n            bytes32 _memeId)\n            public {\n    require(\n      msg.sender==factorySigner,\n      'Error: msg.sender must be factorySigner');\n    memeStorage.addBoost(_memeId, curateBoostValue);\n  }\n  function repostBoost(\n            bytes32 _memeId)\n            public {\n    require(\n      msg.sender==factorySigner,\n      'Error: msg.sender must be factorySigner');\n    memeStorage.addBoost(_memeId, repostBoostValue);\n  }\n\n  // set new values\n  function setPostBoost(uint _value)\n            public {\n    require(\n      msg.sender==valueSigner,\n      'Error: msg.sender must be valueSigner');\n    postBoostValue = _value;\n  }\n  function setLikeBoost(uint _value)\n            public {\n    require(\n      msg.sender==valueSigner,\n      'Error: msg.sender must be valueSigner');\n    likeBoostValue = _value;\n  }\n  function setTagBoost(uint _value)\n            public {\n    require(\n      msg.sender==valueSigner,\n      'Error: msg.sender must be valueSigner');\n    tagBoostValue = _value;\n  }\n  function setRespondBoost(uint _value)\n            public {\n    require(\n      msg.sender==valueSigner,\n      'Error: msg.sender must be valueSigner');\n    respondBoostValue = _value;\n  }\n  function setCurateBoost(uint _value)\n            public {\n    require(\n      msg.sender==valueSigner,\n      'Error: msg.sender must be valueSigner');\n    curateBoostValue = _value;\n  }\n  function setRepostBoost(uint _value)\n            public {\n    require(\n      msg.sender==valueSigner,\n      'Error: msg.sender must be valueSigner');\n    repostBoostValue = _value;\n  }\n\n  function passInterfaceSigner(address _userInterface) public returns (bool) {\n    require(\n      msg.sender == interfaceSigner,\n      'Error: msg.sender must be interfaceSigner');\n    interfaceSigner = _userInterface;\n    emit InterfaceSignerChanged(msg.sender, interfaceSigner);\n    return true;\n  }\n  function passLikeSigner(address _userLike) public returns (bool) {\n    require(\n      msg.sender == likeSigner,\n      'Error: msg.sender must be likeSigner');\n    likeSigner = _userLike;\n    emit LikeSignerChanged(msg.sender, likeSigner);\n    return true;\n  }\n  function passFactorySigner(address _userFactory) public returns (bool) {\n    require(\n      msg.sender == factorySigner,\n      'Error: msg.sender must be factorySigner');\n    factorySigner = _userFactory;\n    emit FactorySignerChanged(msg.sender, factorySigner);\n    return true;\n  }\n  function passValueSigner(address _userValue) public returns (bool) {\n    require(\n      msg.sender == valueSigner,\n      'Error: msg.sender must be valueSigner');\n    valueSigner = _userValue;\n    emit ValueSignerChanged(msg.sender, valueSigner);\n    return true;\n  }\n}\n",
  "sourcePath": "/Users/jaiq/Documents/000 BLOCKCHAIN/ETH/uMe/src/contracts/Boost.sol",
  "compiler": {
    "name": "solc",
    "version": "0.8.9+commit.e5eed63a.Emscripten.clang"
  },
  "schemaVersion": "3.4.3",
  "updatedAt": "2021-11-01T06:47:09.073Z",
  "devdoc": {
    "kind": "dev",
    "methods": {},
    "version": 1
  },
  "userdoc": {
    "kind": "user",
    "methods": {},
    "version": 1
  }
}