{
  "contractName": "Follow",
  "abi": [
    {
      "inputs": [
        {
          "internalType": "contract UME",
          "name": "_umeToken",
          "type": "address"
        },
        {
          "internalType": "contract UserStorage",
          "name": "_userStorage",
          "type": "address"
        }
      ],
      "stateMutability": "nonpayable",
      "type": "constructor"
    },
    {
      "anonymous": false,
      "inputs": [
        {
          "indexed": true,
          "internalType": "address",
          "name": "from",
          "type": "address"
        },
        {
          "indexed": true,
          "internalType": "address",
          "name": "to",
          "type": "address"
        }
      ],
      "name": "FollowSignerChanged",
      "type": "event"
    },
    {
      "anonymous": false,
      "inputs": [
        {
          "indexed": true,
          "internalType": "address",
          "name": "following",
          "type": "address"
        },
        {
          "indexed": true,
          "internalType": "address",
          "name": "followed",
          "type": "address"
        }
      ],
      "name": "Followed",
      "type": "event"
    },
    {
      "inputs": [],
      "name": "interfaceSigner",
      "outputs": [
        {
          "internalType": "address",
          "name": "",
          "type": "address"
        }
      ],
      "stateMutability": "view",
      "type": "function"
    },
    {
      "inputs": [
        {
          "internalType": "address",
          "name": "_from",
          "type": "address"
        },
        {
          "internalType": "address",
          "name": "_to",
          "type": "address"
        }
      ],
      "name": "follow",
      "outputs": [],
      "stateMutability": "nonpayable",
      "type": "function"
    },
    {
      "inputs": [
        {
          "internalType": "address",
          "name": "_userInterface",
          "type": "address"
        }
      ],
      "name": "passInterfaceSigner",
      "outputs": [
        {
          "internalType": "bool",
          "name": "",
          "type": "bool"
        }
      ],
      "stateMutability": "nonpayable",
      "type": "function"
    }
  ],
  "bytecode": "0x60806040523480156200001157600080fd5b506040516200288a3803806200288a8339818101604052810190620000379190620001c4565b816000806101000a81548173ffffffffffffffffffffffffffffffffffffffff021916908373ffffffffffffffffffffffffffffffffffffffff16021790555080600160006101000a81548173ffffffffffffffffffffffffffffffffffffffff021916908373ffffffffffffffffffffffffffffffffffffffff16021790555033600260006101000a81548173ffffffffffffffffffffffffffffffffffffffff021916908373ffffffffffffffffffffffffffffffffffffffff16021790555050506200020b565b600080fd5b600073ffffffffffffffffffffffffffffffffffffffff82169050919050565b6000620001338262000106565b9050919050565b6000620001478262000126565b9050919050565b62000159816200013a565b81146200016557600080fd5b50565b60008151905062000179816200014e565b92915050565b60006200018c8262000126565b9050919050565b6200019e816200017f565b8114620001aa57600080fd5b50565b600081519050620001be8162000193565b92915050565b60008060408385031215620001de57620001dd62000101565b5b6000620001ee8582860162000168565b92505060206200020185828601620001ad565b9150509250929050565b61266f806200021b6000396000f3fe608060405234801561001057600080fd5b50600436106100415760003560e01c806399d147c214610046578063af5dffde14610062578063c4e172da14610080575b600080fd5b610060600480360381019061005b9190611dda565b6100b0565b005b61006a6101b2565b6040516100779190611e29565b60405180910390f35b61009a60048036038101906100959190611e44565b6101d8565b6040516100a79190611e8c565b60405180910390f35b600260009054906101000a900473ffffffffffffffffffffffffffffffffffffffff1673ffffffffffffffffffffffffffffffffffffffff163373ffffffffffffffffffffffffffffffffffffffff1614610140576040517f08c379a000000000000000000000000000000000000000000000000000000000815260040161013790611f2a565b60405180910390fd5b61014a8282610330565b6101548282610ba7565b8073ffffffffffffffffffffffffffffffffffffffff168273ffffffffffffffffffffffffffffffffffffffff167f6178e95c138f06036cdc07a49ed6a3d23008969fa143baeceb037ebae22e8d1460405160405180910390a35050565b600260009054906101000a900473ffffffffffffffffffffffffffffffffffffffff1681565b60003373ffffffffffffffffffffffffffffffffffffffff16600260009054906101000a900473ffffffffffffffffffffffffffffffffffffffff1673ffffffffffffffffffffffffffffffffffffffff161461026a576040517f08c379a000000000000000000000000000000000000000000000000000000000815260040161026190611fbc565b60405180910390fd5b81600260006101000a81548173ffffffffffffffffffffffffffffffffffffffff021916908373ffffffffffffffffffffffffffffffffffffffff160217905550600260009054906101000a900473ffffffffffffffffffffffffffffffffffffffff1673ffffffffffffffffffffffffffffffffffffffff163373ffffffffffffffffffffffffffffffffffffffff167f317b209d0dca6ddb6667f7c47d488a9708cc0e7befa4cde41a104b125a1d9ef660405160405180910390a360019050919050565b6000600160009054906101000a900473ffffffffffffffffffffffffffffffffffffffff1673ffffffffffffffffffffffffffffffffffffffff16634ffda9d184846040518363ffffffff1660e01b815260040161038f929190611fdc565b60206040518083038186803b1580156103a757600080fd5b505afa1580156103bb573d6000803e3d6000fd5b505050506040513d601f19601f820116820180604052508101906103df9190612031565b90506000600160009054906101000a900473ffffffffffffffffffffffffffffffffffffffff1673ffffffffffffffffffffffffffffffffffffffff16634ffda9d185856040518363ffffffff1660e01b8152600401610440929190611fdc565b60206040518083038186803b15801561045857600080fd5b505afa15801561046c573d6000803e3d6000fd5b505050506040513d601f19601f820116820180604052508101906104909190612031565b9050600080600160009054906101000a900473ffffffffffffffffffffffffffffffffffffffff1673ffffffffffffffffffffffffffffffffffffffff1663c2fe2022866040518263ffffffff1660e01b81526004016104f09190611e29565b60006040518083038186803b15801561050857600080fd5b505afa15801561051c573d6000803e3d6000fd5b505050506040513d6000823e3d601f19601f8201168201806040525081019061054591906121cc565b9050600081519050600060018261055c919061224e565b67ffffffffffffffff81111561057557610574612074565b5b6040519080825280602002602001820160405280156105a35781602001602082028036833780820191505090505b50905060005b8281101561071f578873ffffffffffffffffffffffffffffffffffffffff168482815181106105db576105da6122a4565b5b602002602001015173ffffffffffffffffffffffffffffffffffffffff1614156106a45761060c898986848a611119565b60019450600160009054906101000a900473ffffffffffffffffffffffffffffffffffffffff1673ffffffffffffffffffffffffffffffffffffffff1663475a185d8a8a6040518363ffffffff1660e01b815260040161066d929190611fdc565b600060405180830381600087803b15801561068757600080fd5b505af115801561069b573d6000803e3d6000fd5b5050505061071f565b8381815181106106b7576106b66122a4565b5b60200260200101518282815181106106d2576106d16122a4565b5b602002602001019073ffffffffffffffffffffffffffffffffffffffff16908173ffffffffffffffffffffffffffffffffffffffff16815250508080610717906122d3565b9150506105a9565b506000600160009054906101000a900473ffffffffffffffffffffffffffffffffffffffff1673ffffffffffffffffffffffffffffffffffffffff1663a1c54a21896040518263ffffffff1660e01b815260040161077d9190611e29565b60006040518083038186803b15801561079557600080fd5b505afa1580156107a9573d6000803e3d6000fd5b505050506040513d6000823e3d601f19601f820116820180604052508101906107d291906121cc565b905060008151905060005b81811015610982578281815181106107f8576107f76122a4565b5b602002602001015173ffffffffffffffffffffffffffffffffffffffff168a73ffffffffffffffffffffffffffffffffffffffff1614801561083e575060001515871515145b1561096f57600160009054906101000a900473ffffffffffffffffffffffffffffffffffffffff1673ffffffffffffffffffffffffffffffffffffffff16634b69ae788b866040518363ffffffff1660e01b81526004016108a09291906123da565b600060405180830381600087803b1580156108ba57600080fd5b505af11580156108ce573d6000803e3d6000fd5b50505050600160009054906101000a900473ffffffffffffffffffffffffffffffffffffffff1673ffffffffffffffffffffffffffffffffffffffff1663542fc7aa8b61091b86856117df565b6040518363ffffffff1660e01b81526004016109389291906123da565b600060405180830381600087803b15801561095257600080fd5b505af1158015610966573d6000803e3d6000fd5b50505050610982565b808061097a906122d3565b9150506107dd565b50600115158815151415801561099c575060001515861515145b15610b9b57898385815181106109b5576109b46122a4565b5b602002602001019073ffffffffffffffffffffffffffffffffffffffff16908173ffffffffffffffffffffffffffffffffffffffff1681525050600160009054906101000a900473ffffffffffffffffffffffffffffffffffffffff1673ffffffffffffffffffffffffffffffffffffffff16634b69ae788a856040518363ffffffff1660e01b8152600401610a4c9291906123da565b600060405180830381600087803b158015610a6657600080fd5b505af1158015610a7a573d6000803e3d6000fd5b50505050600160009054906101000a900473ffffffffffffffffffffffffffffffffffffffff1673ffffffffffffffffffffffffffffffffffffffff1663ae3427e58b8b6040518363ffffffff1660e01b8152600401610adb929190611fdc565b600060405180830381600087803b158015610af557600080fd5b505af1158015610b09573d6000803e3d6000fd5b5050505060008054906101000a900473ffffffffffffffffffffffffffffffffffffffff1673ffffffffffffffffffffffffffffffffffffffff16632d599ba58b8b6040518363ffffffff1660e01b8152600401610b68929190611fdc565b600060405180830381600087803b158015610b8257600080fd5b505af1158015610b96573d6000803e3d6000fd5b505050505b50505050505050505050565b6000806000600160009054906101000a900473ffffffffffffffffffffffffffffffffffffffff1673ffffffffffffffffffffffffffffffffffffffff1663d8236dff866040518263ffffffff1660e01b8152600401610c079190611e29565b60006040518083038186803b158015610c1f57600080fd5b505afa158015610c33573d6000803e3d6000fd5b505050506040513d6000823e3d601f19601f82011682018060405250810190610c5c91906121cc565b90506000815190506000600182610c73919061224e565b67ffffffffffffffff811115610c8c57610c8b612074565b5b604051908082528060200260200182016040528015610cba5781602001602082028036833780820191505090505b50905060005b82811015610daa578673ffffffffffffffffffffffffffffffffffffffff16848281518110610cf257610cf16122a4565b5b602002602001015173ffffffffffffffffffffffffffffffffffffffff161415610d2f5760019550610d2688888684611963565b60019450610daa565b838181518110610d4257610d416122a4565b5b6020026020010151828281518110610d5d57610d5c6122a4565b5b602002602001019073ffffffffffffffffffffffffffffffffffffffff16908173ffffffffffffffffffffffffffffffffffffffff16815250508080610da2906122d3565b915050610cc0565b506000600160009054906101000a900473ffffffffffffffffffffffffffffffffffffffff1673ffffffffffffffffffffffffffffffffffffffff1663e587f0dc896040518263ffffffff1660e01b8152600401610e089190611e29565b60006040518083038186803b158015610e2057600080fd5b505afa158015610e34573d6000803e3d6000fd5b505050506040513d6000823e3d601f19601f82011682018060405250810190610e5d91906121cc565b905060008151905060005b8181101561101157828181518110610e8357610e826122a4565b5b602002602001015173ffffffffffffffffffffffffffffffffffffffff168a73ffffffffffffffffffffffffffffffffffffffff16148015610ec9575060001515871515145b15610ffe5760019750600160009054906101000a900473ffffffffffffffffffffffffffffffffffffffff1673ffffffffffffffffffffffffffffffffffffffff1663144ffed38b866040518363ffffffff1660e01b8152600401610f2f9291906123da565b600060405180830381600087803b158015610f4957600080fd5b505af1158015610f5d573d6000803e3d6000fd5b50505050600160009054906101000a900473ffffffffffffffffffffffffffffffffffffffff1673ffffffffffffffffffffffffffffffffffffffff16630a5681118b610faa86856117df565b6040518363ffffffff1660e01b8152600401610fc79291906123da565b600060405180830381600087803b158015610fe157600080fd5b505af1158015610ff5573d6000803e3d6000fd5b50505050611011565b8080611009906122d3565b915050610e68565b50600115158715151415801561102b575060001515861515145b1561110e5787838581518110611044576110436122a4565b5b602002602001019073ffffffffffffffffffffffffffffffffffffffff16908173ffffffffffffffffffffffffffffffffffffffff1681525050600160009054906101000a900473ffffffffffffffffffffffffffffffffffffffff1673ffffffffffffffffffffffffffffffffffffffff1663144ffed38a856040518363ffffffff1660e01b81526004016110db9291906123da565b600060405180830381600087803b1580156110f557600080fd5b505af1158015611109573d6000803e3d6000fd5b505050505b505050505050505050565b6000600160009054906101000a900473ffffffffffffffffffffffffffffffffffffffff1673ffffffffffffffffffffffffffffffffffffffff1663cb04c970866040518263ffffffff1660e01b81526004016111769190611e29565b60206040518083038186803b15801561118e57600080fd5b505afa1580156111a2573d6000803e3d6000fd5b505050506040513d601f19601f820116820180604052508101906111c69190612436565b11611206576040517f08c379a00000000000000000000000000000000000000000000000000000000081526004016111fd906124af565b60405180910390fd5b6000151581151514156114c65760008054906101000a900473ffffffffffffffffffffffffffffffffffffffff1673ffffffffffffffffffffffffffffffffffffffff166327dc278f6040518163ffffffff1660e01b815260040160206040518083038186803b15801561127957600080fd5b505afa15801561128d573d6000803e3d6000fd5b505050506040513d601f19601f820116820180604052508101906112b19190612436565b60008054906101000a900473ffffffffffffffffffffffffffffffffffffffff1673ffffffffffffffffffffffffffffffffffffffff166370a08231876040518263ffffffff1660e01b815260040161130a9190611e29565b60206040518083038186803b15801561132257600080fd5b505afa158015611336573d6000803e3d6000fd5b505050506040513d601f19601f8201168201806040525081019061135a9190612436565b101561139b576040517f08c379a000000000000000000000000000000000000000000000000000000000815260040161139290612541565b60405180910390fd5b60008054906101000a900473ffffffffffffffffffffffffffffffffffffffff1673ffffffffffffffffffffffffffffffffffffffff16639dc29fac8660008054906101000a900473ffffffffffffffffffffffffffffffffffffffff1673ffffffffffffffffffffffffffffffffffffffff166327dc278f6040518163ffffffff1660e01b815260040160206040518083038186803b15801561143e57600080fd5b505afa158015611452573d6000803e3d6000fd5b505050506040513d601f19601f820116820180604052508101906114769190612436565b6040518363ffffffff1660e01b8152600401611493929190612570565b600060405180830381600087803b1580156114ad57600080fd5b505af11580156114c1573d6000803e3d6000fd5b505050505b6000600160009054906101000a900473ffffffffffffffffffffffffffffffffffffffff1673ffffffffffffffffffffffffffffffffffffffff1663a1c54a21866040518263ffffffff1660e01b81526004016115239190611e29565b60006040518083038186803b15801561153b57600080fd5b505afa15801561154f573d6000803e3d6000fd5b505050506040513d6000823e3d601f19601f8201168201806040525081019061157891906121cc565b9050600160009054906101000a900473ffffffffffffffffffffffffffffffffffffffff1673ffffffffffffffffffffffffffffffffffffffff16634b69ae78866115c387876117df565b6040518363ffffffff1660e01b81526004016115e09291906123da565b600060405180830381600087803b1580156115fa57600080fd5b505af115801561160e573d6000803e3d6000fd5b505050506000815190506000600182611627919061224e565b67ffffffffffffffff8111156116405761163f612074565b5b60405190808252806020026020018201604052801561166e5781602001602082028036833780820191505090505b50905060005b828110156116f75783818151811061168f5761168e6122a4565b5b60200260200101518282815181106116aa576116a96122a4565b5b602002602001019073ffffffffffffffffffffffffffffffffffffffff16908173ffffffffffffffffffffffffffffffffffffffff168152505080806116ef906122d3565b915050611674565b508781838151811061170c5761170b6122a4565b5b602002602001019073ffffffffffffffffffffffffffffffffffffffff16908173ffffffffffffffffffffffffffffffffffffffff1681525050600160009054906101000a900473ffffffffffffffffffffffffffffffffffffffff1673ffffffffffffffffffffffffffffffffffffffff1663542fc7aa88836040518363ffffffff1660e01b81526004016117a39291906123da565b600060405180830381600087803b1580156117bd57600080fd5b505af11580156117d1573d6000803e3d6000fd5b505050505050505050505050565b60606000600184516117f19190612599565b67ffffffffffffffff81111561180a57611809612074565b5b6040519080825280602002602001820160405280156118385781602001602082028036833780820191505090505b50905060005b838110156118c157848181518110611859576118586122a4565b5b6020026020010151828281518110611874576118736122a4565b5b602002602001019073ffffffffffffffffffffffffffffffffffffffff16908173ffffffffffffffffffffffffffffffffffffffff168152505080806118b9906122d3565b91505061183e565b5060008390505b815181101561195857846001826118df919061224e565b815181106118f0576118ef6122a4565b5b602002602001015182828151811061190b5761190a6122a4565b5b602002602001019073ffffffffffffffffffffffffffffffffffffffff16908173ffffffffffffffffffffffffffffffffffffffff16815250508080611950906122d3565b9150506118c8565b508091505092915050565b6000600160009054906101000a900473ffffffffffffffffffffffffffffffffffffffff1673ffffffffffffffffffffffffffffffffffffffff1663fab7d536866040518263ffffffff1660e01b81526004016119c09190611e29565b60206040518083038186803b1580156119d857600080fd5b505afa1580156119ec573d6000803e3d6000fd5b505050506040513d601f19601f82011682018060405250810190611a109190612436565b11611a50576040517f08c379a0000000000000000000000000000000000000000000000000000000008152600401611a4790612619565b60405180910390fd5b6000600160009054906101000a900473ffffffffffffffffffffffffffffffffffffffff1673ffffffffffffffffffffffffffffffffffffffff1663e587f0dc866040518263ffffffff1660e01b8152600401611aad9190611e29565b60006040518083038186803b158015611ac557600080fd5b505afa158015611ad9573d6000803e3d6000fd5b505050506040513d6000823e3d601f19601f82011682018060405250810190611b0291906121cc565b9050600160009054906101000a900473ffffffffffffffffffffffffffffffffffffffff1673ffffffffffffffffffffffffffffffffffffffff1663144ffed386611b4d86866117df565b6040518363ffffffff1660e01b8152600401611b6a9291906123da565b600060405180830381600087803b158015611b8457600080fd5b505af1158015611b98573d6000803e3d6000fd5b505050506000815190506000600182611bb1919061224e565b67ffffffffffffffff811115611bca57611bc9612074565b5b604051908082528060200260200182016040528015611bf85781602001602082028036833780820191505090505b50905060005b82811015611c8157838181518110611c1957611c186122a4565b5b6020026020010151828281518110611c3457611c336122a4565b5b602002602001019073ffffffffffffffffffffffffffffffffffffffff16908173ffffffffffffffffffffffffffffffffffffffff16815250508080611c79906122d3565b915050611bfe565b5085818381518110611c9657611c956122a4565b5b602002602001019073ffffffffffffffffffffffffffffffffffffffff16908173ffffffffffffffffffffffffffffffffffffffff1681525050600160009054906101000a900473ffffffffffffffffffffffffffffffffffffffff1673ffffffffffffffffffffffffffffffffffffffff16630a56811188836040518363ffffffff1660e01b8152600401611d2d9291906123da565b600060405180830381600087803b158015611d4757600080fd5b505af1158015611d5b573d6000803e3d6000fd5b5050505050505050505050565b6000604051905090565b600080fd5b600080fd5b600073ffffffffffffffffffffffffffffffffffffffff82169050919050565b6000611da782611d7c565b9050919050565b611db781611d9c565b8114611dc257600080fd5b50565b600081359050611dd481611dae565b92915050565b60008060408385031215611df157611df0611d72565b5b6000611dff85828601611dc5565b9250506020611e1085828601611dc5565b9150509250929050565b611e2381611d9c565b82525050565b6000602082019050611e3e6000830184611e1a565b92915050565b600060208284031215611e5a57611e59611d72565b5b6000611e6884828501611dc5565b91505092915050565b60008115159050919050565b611e8681611e71565b82525050565b6000602082019050611ea16000830184611e7d565b92915050565b600082825260208201905092915050565b7f4572726f723a206f70657261746f72206d757374206265207573657220696e7460008201527f6572666163650000000000000000000000000000000000000000000000000000602082015250565b6000611f14602683611ea7565b9150611f1f82611eb8565b604082019050919050565b60006020820190508181036000830152611f4381611f07565b9050919050565b7f4572726f723a206d73672e73656e646572206d75737420626520696e7465726660008201527f6163655369676e65720000000000000000000000000000000000000000000000602082015250565b6000611fa6602983611ea7565b9150611fb182611f4a565b604082019050919050565b60006020820190508181036000830152611fd581611f99565b9050919050565b6000604082019050611ff16000830185611e1a565b611ffe6020830184611e1a565b9392505050565b61200e81611e71565b811461201957600080fd5b50565b60008151905061202b81612005565b92915050565b60006020828403121561204757612046611d72565b5b60006120558482850161201c565b91505092915050565b600080fd5b6000601f19601f8301169050919050565b7f4e487b7100000000000000000000000000000000000000000000000000000000600052604160045260246000fd5b6120ac82612063565b810181811067ffffffffffffffff821117156120cb576120ca612074565b5b80604052505050565b60006120de611d68565b90506120ea82826120a3565b919050565b600067ffffffffffffffff82111561210a57612109612074565b5b602082029050602081019050919050565b600080fd5b60008151905061212f81611dae565b92915050565b6000612148612143846120ef565b6120d4565b9050808382526020820190506020840283018581111561216b5761216a61211b565b5b835b8181101561219457806121808882612120565b84526020840193505060208101905061216d565b5050509392505050565b600082601f8301126121b3576121b261205e565b5b81516121c3848260208601612135565b91505092915050565b6000602082840312156121e2576121e1611d72565b5b600082015167ffffffffffffffff811115612200576121ff611d77565b5b61220c8482850161219e565b91505092915050565b6000819050919050565b7f4e487b7100000000000000000000000000000000000000000000000000000000600052601160045260246000fd5b600061225982612215565b915061226483612215565b9250827fffffffffffffffffffffffffffffffffffffffffffffffffffffffffffffffff038211156122995761229861221f565b5b828201905092915050565b7f4e487b7100000000000000000000000000000000000000000000000000000000600052603260045260246000fd5b60006122de82612215565b91507fffffffffffffffffffffffffffffffffffffffffffffffffffffffffffffffff8214156123115761231061221f565b5b600182019050919050565b600081519050919050565b600082825260208201905092915050565b6000819050602082019050919050565b61235181611d9c565b82525050565b60006123638383612348565b60208301905092915050565b6000602082019050919050565b60006123878261231c565b6123918185612327565b935061239c83612338565b8060005b838110156123cd5781516123b48882612357565b97506123bf8361236f565b9250506001810190506123a0565b5085935050505092915050565b60006040820190506123ef6000830185611e1a565b8181036020830152612401818461237c565b90509392505050565b61241381612215565b811461241e57600080fd5b50565b6000815190506124308161240a565b92915050565b60006020828403121561244c5761244b611d72565b5b600061245a84828501612421565b91505092915050565b7f4572726f723a206e6f20666f6c6c6f7765727300000000000000000000000000600082015250565b6000612499601383611ea7565b91506124a482612463565b602082019050919050565b600060208201905081810360008301526124c88161248c565b9050919050565b7f4572726f723a206e6f7420656e6f75676820554d4520746f20756e666f6c6c6f60008201527f7700000000000000000000000000000000000000000000000000000000000000602082015250565b600061252b602183611ea7565b9150612536826124cf565b604082019050919050565b6000602082019050818103600083015261255a8161251e565b9050919050565b61256a81612215565b82525050565b60006040820190506125856000830185611e1a565b6125926020830184612561565b9392505050565b60006125a482612215565b91506125af83612215565b9250828210156125c2576125c161221f565b5b828203905092915050565b7f4572726f723a206e6f20666f6c6c6f77696e6700000000000000000000000000600082015250565b6000612603601383611ea7565b915061260e826125cd565b602082019050919050565b60006020820190508181036000830152612632816125f6565b905091905056fea2646970667358221220da64efdb71c15660581c228ec239d815299b8b972614bd1c86a099d85e49bfd564736f6c63430008090033",
  "immutableReferences": {},
  "source": "// SPDX-License-Identifier: MIT\n\npragma solidity >=0.8.0 <0.9.0;\n\nimport \"./UME.sol\";\nimport \"./UserStorage.sol\";\n\ncontract Follow {\n  UME private umeToken;\n  UserStorage private userStorage;\n\n  address public interfaceSigner;\n\n  event FollowSignerChanged(\n        address indexed from,\n        address indexed to);\n  event Followed(\n        address indexed following,\n        address indexed followed);\n\n  constructor(UME _umeToken,\n              UserStorage _userStorage)\n              public {\n    umeToken = _umeToken;\n    userStorage = _userStorage;\n\n    interfaceSigner = msg.sender;\n  }\n\n  function follow(\n            address _from,\n            address _to)\n            public {\n    require(\n      msg.sender==interfaceSigner,\n      'Error: operator must be user interface');\n    _addFollower(_from, _to);\n    _addFollowing(_from, _to);\n    emit Followed(_from, _to);\n  }\n\n  function _addFollower(\n            address _from,\n            address _to)\n            private {\n    // create new memory instance of an array one larger than current follower count\n    bool _alreadyFollower = userStorage.hasUnfollowed(_from, _to);\n    bool _alreadyUnfollower = userStorage.hasUnfollowed(_from, _to);\n    bool _isUnfollower = false;\n    address[] memory _oldFollowers = userStorage.getFollowers(_to);\n    uint _followerCount = _oldFollowers.length;\n    address[] memory _newFollowers = new address[](_followerCount+1);\n    for (uint i = 0; i < _followerCount; i++) {\n      if(_oldFollowers[i]==_from) {\n        _unFollower(_from, _to, _oldFollowers, i, _alreadyUnfollower);\n        _isUnfollower = true;\n        userStorage.setHasUnfollowed(_from, _to);\n        break;\n      }\n      _newFollowers[i] = _oldFollowers[i];\n    }\n    address[] memory _unfollowers = userStorage.getUnfollowers(_to);\n    uint _unfollowCount = _unfollowers.length;\n    for(uint i = 0; i < _unfollowCount; i++) {\n      if(_to==_unfollowers[i] && _isUnfollower==false) {\n        userStorage.setFollowers(_to, _newFollowers);\n        userStorage.setUnfollowers(_to, _deleteAddress(_unfollowers, i));\n        break;\n      }\n    }\n    if(_alreadyFollower!=true && _isUnfollower==false) {\n      // set last element in new array to _from\n      _newFollowers[_followerCount] = _from;\n      // update followers to storage\n      userStorage.setFollowers(_to, _newFollowers);\n      userStorage.setHasFollowed(_from, _to);\n      umeToken.mintFollow(_from, _to);\n    }\n  }\n  function _addFollowing(\n            address _from,\n            address _to)\n            private {\n    // create new memory instance of an array one larger than current following count\n    bool _alreadyFollowing=false;\n    bool _isUnfollowing=false;\n    address[] memory _oldFollowing = userStorage.getFollowing(_from);\n    uint _followingCount = _oldFollowing.length;\n    address[] memory _newFollowing = new address[](_followingCount+1);\n    for (uint i = 0; i < _followingCount; i++) {\n      if(_oldFollowing[i]==_to) {\n        _alreadyFollowing = true;\n        _unFollowing(_from, _to, _oldFollowing, i);\n        _isUnfollowing = true;\n        break;\n      }\n      _newFollowing[i] = _oldFollowing[i];\n    }\n    address[] memory _unfollowing = userStorage.getUnfollowing(_from);\n    uint _unfollowCount = _unfollowing.length;\n    for(uint i = 0; i < _unfollowCount; i++) {\n      if(_from==_unfollowing[i] && _isUnfollowing==false) {\n        _alreadyFollowing = true;\n        userStorage.setFollowing(_from, _newFollowing);\n        userStorage.setUnfollowing(_from, _deleteAddress(_unfollowing, i));\n        break;\n      }\n    }\n    if(_alreadyFollowing!=true && _isUnfollowing==false) {\n      // set last element in new array to _from\n      _newFollowing[_followingCount] = _to;\n      // update followings to storage\n      userStorage.setFollowing(_from, _newFollowing);\n    }\n  }\n\n  function _unFollower(\n            address _from,\n            address _to,\n            address[] memory _oldFollowers,\n            uint index,\n            bool _alreadyUnfollower)\n            private {\n    require(\n      userStorage.getFollowerCount(_to)>0,\n      'Error: no followers');\n    if(_alreadyUnfollower==false) {\n      require(\n        umeToken.balanceOf(_from)>=umeToken.followFromValue(),\n        'Error: not enough UME to unfollow');\n      umeToken.burn(_from, umeToken.followFromValue());\n    }\n    address[] memory _oldUnfollowers = userStorage.getUnfollowers(_to);\n    userStorage.setFollowers(_to, _deleteAddress(_oldFollowers, index));\n    uint _oldUnfollowCount = _oldUnfollowers.length;\n    address[] memory _newUnfollowers = new address[](_oldUnfollowCount+1);\n\n    for(uint i = 0; i < _oldUnfollowCount; i++) {\n      _newUnfollowers[i] = _oldUnfollowers[i];\n    }\n    _newUnfollowers[_oldUnfollowCount] = _from;\n    userStorage.setUnfollowers(_to, _newUnfollowers);\n  }\n  function _unFollowing(\n            address _from,\n            address _to,\n            address[] memory _oldFollowing,\n            uint index)\n            private {\n    require(\n      userStorage.getFollowingCount(_from)>0,\n      'Error: no following');\n    address[] memory _oldUnfollowing = userStorage.getUnfollowing(_from);\n    userStorage.setFollowing(_from, _deleteAddress(_oldFollowing, index));\n    uint _oldUnfollowCount = _oldUnfollowing.length;\n    address[] memory _newUnfollowing = new address[](_oldUnfollowCount+1);\n\n    for(uint i = 0; i < _oldUnfollowCount; i++) {\n      _newUnfollowing[i] = _oldUnfollowing[i];\n    }\n    _newUnfollowing[_oldUnfollowCount] = _to;\n    userStorage.setUnfollowing(_from, _newUnfollowing);\n  }\n\n  function _deleteAddress(\n            address[] memory array,\n            uint index)\n            private pure returns(address[] memory) {\n    address[] memory _array = new address[](array.length-1);\n    for(uint i = 0; i < index; i++) {\n      _array[i] = array[i];\n    }\n    for(uint i = index; i < _array.length; i++) {\n      _array[i] = array[i+1];\n    }\n    return _array;\n  }\n\n  function passInterfaceSigner(address _userInterface)\n            public returns(bool){\n    require(\n      interfaceSigner==msg.sender,\n      'Error: msg.sender must be interfaceSigner');\n    interfaceSigner = _userInterface;\n    emit FollowSignerChanged(msg.sender, interfaceSigner);\n    return true;\n  }\n}\n",
  "sourcePath": "/Users/jaiq/Documents/000 BLOCKCHAIN/ETH/uMe/src/contracts/Follow.sol",
  "compiler": {
    "name": "solc",
    "version": "0.8.9+commit.e5eed63a.Emscripten.clang"
  },
  "schemaVersion": "3.4.3",
  "updatedAt": "2021-11-01T06:47:09.095Z",
  "devdoc": {
    "kind": "dev",
    "methods": {},
    "version": 1
  },
  "userdoc": {
    "kind": "user",
    "methods": {},
    "version": 1
  }
}