{
  "contractName": "Follow",
  "abi": [
    {
      "inputs": [
        {
          "internalType": "contract UME",
          "name": "_umeToken",
          "type": "address"
        },
        {
          "internalType": "contract UserStorage",
          "name": "_userStorage",
          "type": "address"
        }
      ],
      "stateMutability": "nonpayable",
      "type": "constructor"
    },
    {
      "anonymous": false,
      "inputs": [
        {
          "indexed": true,
          "internalType": "address",
          "name": "from",
          "type": "address"
        },
        {
          "indexed": true,
          "internalType": "address",
          "name": "to",
          "type": "address"
        }
      ],
      "name": "FollowSignerChanged",
      "type": "event"
    },
    {
      "inputs": [],
      "name": "interfaceSigner",
      "outputs": [
        {
          "internalType": "address",
          "name": "",
          "type": "address"
        }
      ],
      "stateMutability": "view",
      "type": "function",
      "constant": true
    },
    {
      "inputs": [
        {
          "internalType": "address",
          "name": "_from",
          "type": "address"
        },
        {
          "internalType": "address",
          "name": "_to",
          "type": "address"
        }
      ],
      "name": "follow",
      "outputs": [],
      "stateMutability": "nonpayable",
      "type": "function"
    },
    {
      "inputs": [
        {
          "internalType": "address",
          "name": "_userInterface",
          "type": "address"
        }
      ],
      "name": "passInterfaceSigner",
      "outputs": [
        {
          "internalType": "bool",
          "name": "",
          "type": "bool"
        }
      ],
      "stateMutability": "nonpayable",
      "type": "function"
    }
  ],
  "bytecode": "0x60806040523480156200001157600080fd5b50604051620021d4380380620021d48339818101604052810190620000379190620001c4565b816000806101000a81548173ffffffffffffffffffffffffffffffffffffffff021916908373ffffffffffffffffffffffffffffffffffffffff16021790555080600160006101000a81548173ffffffffffffffffffffffffffffffffffffffff021916908373ffffffffffffffffffffffffffffffffffffffff16021790555033600260006101000a81548173ffffffffffffffffffffffffffffffffffffffff021916908373ffffffffffffffffffffffffffffffffffffffff16021790555050506200020b565b600080fd5b600073ffffffffffffffffffffffffffffffffffffffff82169050919050565b6000620001338262000106565b9050919050565b6000620001478262000126565b9050919050565b62000159816200013a565b81146200016557600080fd5b50565b60008151905062000179816200014e565b92915050565b60006200018c8262000126565b9050919050565b6200019e816200017f565b8114620001aa57600080fd5b50565b600081519050620001be8162000193565b92915050565b60008060408385031215620001de57620001dd62000101565b5b6000620001ee8582860162000168565b92505060206200020185828601620001ad565b9150509250929050565b611fb9806200021b6000396000f3fe608060405234801561001057600080fd5b50600436106100415760003560e01c806399d147c214610046578063af5dffde14610062578063c4e172da14610080575b600080fd5b610060600480360381019061005b9190611847565b6100b0565b005b61006a610158565b6040516100779190611896565b60405180910390f35b61009a600480360381019061009591906118b1565b61017e565b6040516100a791906118f9565b60405180910390f35b600260009054906101000a900473ffffffffffffffffffffffffffffffffffffffff1673ffffffffffffffffffffffffffffffffffffffff163373ffffffffffffffffffffffffffffffffffffffff1614610140576040517f08c379a000000000000000000000000000000000000000000000000000000000815260040161013790611997565b60405180910390fd5b61014a82826102d6565b61015482826108d5565b5050565b600260009054906101000a900473ffffffffffffffffffffffffffffffffffffffff1681565b60003373ffffffffffffffffffffffffffffffffffffffff16600260009054906101000a900473ffffffffffffffffffffffffffffffffffffffff1673ffffffffffffffffffffffffffffffffffffffff1614610210576040517f08c379a000000000000000000000000000000000000000000000000000000000815260040161020790611a29565b60405180910390fd5b81600260006101000a81548173ffffffffffffffffffffffffffffffffffffffff021916908373ffffffffffffffffffffffffffffffffffffffff160217905550600260009054906101000a900473ffffffffffffffffffffffffffffffffffffffff1673ffffffffffffffffffffffffffffffffffffffff163373ffffffffffffffffffffffffffffffffffffffff167f317b209d0dca6ddb6667f7c47d488a9708cc0e7befa4cde41a104b125a1d9ef660405160405180910390a360019050919050565b6000806000600160009054906101000a900473ffffffffffffffffffffffffffffffffffffffff1673ffffffffffffffffffffffffffffffffffffffff1663c2fe2022856040518263ffffffff1660e01b81526004016103369190611896565b60006040518083038186803b15801561034e57600080fd5b505afa158015610362573d6000803e3d6000fd5b505050506040513d6000823e3d601f19601f8201168201806040525081019061038b9190611bb7565b905060008151905060006001826103a29190611c39565b67ffffffffffffffff8111156103bb576103ba611a5f565b5b6040519080825280602002602001820160405280156103e95781602001602082028036833780820191505090505b50905060005b828110156104d9578773ffffffffffffffffffffffffffffffffffffffff1684828151811061042157610420611c8f565b5b602002602001015173ffffffffffffffffffffffffffffffffffffffff16141561045e576001955061045588888684610e47565b600194506104d9565b83818151811061047157610470611c8f565b5b602002602001015182828151811061048c5761048b611c8f565b5b602002602001019073ffffffffffffffffffffffffffffffffffffffff16908173ffffffffffffffffffffffffffffffffffffffff168152505080806104d190611cbe565b9150506103ef565b506000600160009054906101000a900473ffffffffffffffffffffffffffffffffffffffff1673ffffffffffffffffffffffffffffffffffffffff1663a1c54a21886040518263ffffffff1660e01b81526004016105379190611896565b60006040518083038186803b15801561054f57600080fd5b505afa158015610563573d6000803e3d6000fd5b505050506040513d6000823e3d601f19601f8201168201806040525081019061058c9190611bb7565b905060008151905060005b81811015610740578281815181106105b2576105b1611c8f565b5b602002602001015173ffffffffffffffffffffffffffffffffffffffff168973ffffffffffffffffffffffffffffffffffffffff161480156105f8575060001515871515145b1561072d5760019750600160009054906101000a900473ffffffffffffffffffffffffffffffffffffffff1673ffffffffffffffffffffffffffffffffffffffff16634b69ae788a866040518363ffffffff1660e01b815260040161065e929190611dc5565b600060405180830381600087803b15801561067857600080fd5b505af115801561068c573d6000803e3d6000fd5b50505050600160009054906101000a900473ffffffffffffffffffffffffffffffffffffffff1673ffffffffffffffffffffffffffffffffffffffff1663542fc7aa8a6106d9868561124c565b6040518363ffffffff1660e01b81526004016106f6929190611dc5565b600060405180830381600087803b15801561071057600080fd5b505af1158015610724573d6000803e3d6000fd5b50505050610740565b808061073890611cbe565b915050610597565b50600115158715151415801561075a575060001515861515145b156108ca578883858151811061077357610772611c8f565b5b602002602001019073ffffffffffffffffffffffffffffffffffffffff16908173ffffffffffffffffffffffffffffffffffffffff1681525050600160009054906101000a900473ffffffffffffffffffffffffffffffffffffffff1673ffffffffffffffffffffffffffffffffffffffff16634b69ae7889856040518363ffffffff1660e01b815260040161080a929190611dc5565b600060405180830381600087803b15801561082457600080fd5b505af1158015610838573d6000803e3d6000fd5b5050505060008054906101000a900473ffffffffffffffffffffffffffffffffffffffff1673ffffffffffffffffffffffffffffffffffffffff16632d599ba58a8a6040518363ffffffff1660e01b8152600401610897929190611df5565b600060405180830381600087803b1580156108b157600080fd5b505af11580156108c5573d6000803e3d6000fd5b505050505b505050505050505050565b6000806000600160009054906101000a900473ffffffffffffffffffffffffffffffffffffffff1673ffffffffffffffffffffffffffffffffffffffff1663d8236dff866040518263ffffffff1660e01b81526004016109359190611896565b60006040518083038186803b15801561094d57600080fd5b505afa158015610961573d6000803e3d6000fd5b505050506040513d6000823e3d601f19601f8201168201806040525081019061098a9190611bb7565b905060008151905060006001826109a19190611c39565b67ffffffffffffffff8111156109ba576109b9611a5f565b5b6040519080825280602002602001820160405280156109e85781602001602082028036833780820191505090505b50905060005b82811015610ad8578673ffffffffffffffffffffffffffffffffffffffff16848281518110610a2057610a1f611c8f565b5b602002602001015173ffffffffffffffffffffffffffffffffffffffff161415610a5d5760019550610a54888886846113d0565b60019450610ad8565b838181518110610a7057610a6f611c8f565b5b6020026020010151828281518110610a8b57610a8a611c8f565b5b602002602001019073ffffffffffffffffffffffffffffffffffffffff16908173ffffffffffffffffffffffffffffffffffffffff16815250508080610ad090611cbe565b9150506109ee565b506000600160009054906101000a900473ffffffffffffffffffffffffffffffffffffffff1673ffffffffffffffffffffffffffffffffffffffff1663e587f0dc896040518263ffffffff1660e01b8152600401610b369190611896565b60006040518083038186803b158015610b4e57600080fd5b505afa158015610b62573d6000803e3d6000fd5b505050506040513d6000823e3d601f19601f82011682018060405250810190610b8b9190611bb7565b905060008151905060005b81811015610d3f57828181518110610bb157610bb0611c8f565b5b602002602001015173ffffffffffffffffffffffffffffffffffffffff168a73ffffffffffffffffffffffffffffffffffffffff16148015610bf7575060001515871515145b15610d2c5760019750600160009054906101000a900473ffffffffffffffffffffffffffffffffffffffff1673ffffffffffffffffffffffffffffffffffffffff1663144ffed38b866040518363ffffffff1660e01b8152600401610c5d929190611dc5565b600060405180830381600087803b158015610c7757600080fd5b505af1158015610c8b573d6000803e3d6000fd5b50505050600160009054906101000a900473ffffffffffffffffffffffffffffffffffffffff1673ffffffffffffffffffffffffffffffffffffffff16630a5681118b610cd8868561124c565b6040518363ffffffff1660e01b8152600401610cf5929190611dc5565b600060405180830381600087803b158015610d0f57600080fd5b505af1158015610d23573d6000803e3d6000fd5b50505050610d3f565b8080610d3790611cbe565b915050610b96565b506001151587151514158015610d59575060001515861515145b15610e3c5787838581518110610d7257610d71611c8f565b5b602002602001019073ffffffffffffffffffffffffffffffffffffffff16908173ffffffffffffffffffffffffffffffffffffffff1681525050600160009054906101000a900473ffffffffffffffffffffffffffffffffffffffff1673ffffffffffffffffffffffffffffffffffffffff1663144ffed38a856040518363ffffffff1660e01b8152600401610e09929190611dc5565b600060405180830381600087803b158015610e2357600080fd5b505af1158015610e37573d6000803e3d6000fd5b505050505b505050505050505050565b6000600160009054906101000a900473ffffffffffffffffffffffffffffffffffffffff1673ffffffffffffffffffffffffffffffffffffffff1663cb04c970856040518263ffffffff1660e01b8152600401610ea49190611896565b60206040518083038186803b158015610ebc57600080fd5b505afa158015610ed0573d6000803e3d6000fd5b505050506040513d601f19601f82011682018060405250810190610ef49190611e4a565b11610f34576040517f08c379a0000000000000000000000000000000000000000000000000000000008152600401610f2b90611ec3565b60405180910390fd5b6000600160009054906101000a900473ffffffffffffffffffffffffffffffffffffffff1673ffffffffffffffffffffffffffffffffffffffff1663a1c54a21856040518263ffffffff1660e01b8152600401610f919190611896565b60006040518083038186803b158015610fa957600080fd5b505afa158015610fbd573d6000803e3d6000fd5b505050506040513d6000823e3d601f19601f82011682018060405250810190610fe69190611bb7565b9050600160009054906101000a900473ffffffffffffffffffffffffffffffffffffffff1673ffffffffffffffffffffffffffffffffffffffff16634b69ae7885611031868661124c565b6040518363ffffffff1660e01b815260040161104e929190611dc5565b600060405180830381600087803b15801561106857600080fd5b505af115801561107c573d6000803e3d6000fd5b5050505060008151905060006001826110959190611c39565b67ffffffffffffffff8111156110ae576110ad611a5f565b5b6040519080825280602002602001820160405280156110dc5781602001602082028036833780820191505090505b50905060005b82811015611165578381815181106110fd576110fc611c8f565b5b602002602001015182828151811061111857611117611c8f565b5b602002602001019073ffffffffffffffffffffffffffffffffffffffff16908173ffffffffffffffffffffffffffffffffffffffff1681525050808061115d90611cbe565b9150506110e2565b508681838151811061117a57611179611c8f565b5b602002602001019073ffffffffffffffffffffffffffffffffffffffff16908173ffffffffffffffffffffffffffffffffffffffff1681525050600160009054906101000a900473ffffffffffffffffffffffffffffffffffffffff1673ffffffffffffffffffffffffffffffffffffffff1663542fc7aa87836040518363ffffffff1660e01b8152600401611211929190611dc5565b600060405180830381600087803b15801561122b57600080fd5b505af115801561123f573d6000803e3d6000fd5b5050505050505050505050565b606060006001845161125e9190611ee3565b67ffffffffffffffff81111561127757611276611a5f565b5b6040519080825280602002602001820160405280156112a55781602001602082028036833780820191505090505b50905060005b8381101561132e578481815181106112c6576112c5611c8f565b5b60200260200101518282815181106112e1576112e0611c8f565b5b602002602001019073ffffffffffffffffffffffffffffffffffffffff16908173ffffffffffffffffffffffffffffffffffffffff1681525050808061132690611cbe565b9150506112ab565b5060008390505b81518110156113c5578460018261134c9190611c39565b8151811061135d5761135c611c8f565b5b602002602001015182828151811061137857611377611c8f565b5b602002602001019073ffffffffffffffffffffffffffffffffffffffff16908173ffffffffffffffffffffffffffffffffffffffff168152505080806113bd90611cbe565b915050611335565b508091505092915050565b6000600160009054906101000a900473ffffffffffffffffffffffffffffffffffffffff1673ffffffffffffffffffffffffffffffffffffffff1663fab7d536866040518263ffffffff1660e01b815260040161142d9190611896565b60206040518083038186803b15801561144557600080fd5b505afa158015611459573d6000803e3d6000fd5b505050506040513d601f19601f8201168201806040525081019061147d9190611e4a565b116114bd576040517f08c379a00000000000000000000000000000000000000000000000000000000081526004016114b490611f63565b60405180910390fd5b6000600160009054906101000a900473ffffffffffffffffffffffffffffffffffffffff1673ffffffffffffffffffffffffffffffffffffffff1663e587f0dc866040518263ffffffff1660e01b815260040161151a9190611896565b60006040518083038186803b15801561153257600080fd5b505afa158015611546573d6000803e3d6000fd5b505050506040513d6000823e3d601f19601f8201168201806040525081019061156f9190611bb7565b9050600160009054906101000a900473ffffffffffffffffffffffffffffffffffffffff1673ffffffffffffffffffffffffffffffffffffffff1663144ffed3866115ba868661124c565b6040518363ffffffff1660e01b81526004016115d7929190611dc5565b600060405180830381600087803b1580156115f157600080fd5b505af1158015611605573d6000803e3d6000fd5b50505050600081519050600060018261161e9190611c39565b67ffffffffffffffff81111561163757611636611a5f565b5b6040519080825280602002602001820160405280156116655781602001602082028036833780820191505090505b50905060005b828110156116ee5783818151811061168657611685611c8f565b5b60200260200101518282815181106116a1576116a0611c8f565b5b602002602001019073ffffffffffffffffffffffffffffffffffffffff16908173ffffffffffffffffffffffffffffffffffffffff168152505080806116e690611cbe565b91505061166b565b508581838151811061170357611702611c8f565b5b602002602001019073ffffffffffffffffffffffffffffffffffffffff16908173ffffffffffffffffffffffffffffffffffffffff1681525050600160009054906101000a900473ffffffffffffffffffffffffffffffffffffffff1673ffffffffffffffffffffffffffffffffffffffff16630a56811188836040518363ffffffff1660e01b815260040161179a929190611dc5565b600060405180830381600087803b1580156117b457600080fd5b505af11580156117c8573d6000803e3d6000fd5b5050505050505050505050565b6000604051905090565b600080fd5b600080fd5b600073ffffffffffffffffffffffffffffffffffffffff82169050919050565b6000611814826117e9565b9050919050565b61182481611809565b811461182f57600080fd5b50565b6000813590506118418161181b565b92915050565b6000806040838503121561185e5761185d6117df565b5b600061186c85828601611832565b925050602061187d85828601611832565b9150509250929050565b61189081611809565b82525050565b60006020820190506118ab6000830184611887565b92915050565b6000602082840312156118c7576118c66117df565b5b60006118d584828501611832565b91505092915050565b60008115159050919050565b6118f3816118de565b82525050565b600060208201905061190e60008301846118ea565b92915050565b600082825260208201905092915050565b7f4572726f723a206f70657261746f72206d757374206265207573657220696e7460008201527f6572666163650000000000000000000000000000000000000000000000000000602082015250565b6000611981602683611914565b915061198c82611925565b604082019050919050565b600060208201905081810360008301526119b081611974565b9050919050565b7f4572726f723a206d73672e73656e646572206d75737420626520696e7465726660008201527f6163655369676e65720000000000000000000000000000000000000000000000602082015250565b6000611a13602983611914565b9150611a1e826119b7565b604082019050919050565b60006020820190508181036000830152611a4281611a06565b9050919050565b600080fd5b6000601f19601f8301169050919050565b7f4e487b7100000000000000000000000000000000000000000000000000000000600052604160045260246000fd5b611a9782611a4e565b810181811067ffffffffffffffff82111715611ab657611ab5611a5f565b5b80604052505050565b6000611ac96117d5565b9050611ad58282611a8e565b919050565b600067ffffffffffffffff821115611af557611af4611a5f565b5b602082029050602081019050919050565b600080fd5b600081519050611b1a8161181b565b92915050565b6000611b33611b2e84611ada565b611abf565b90508083825260208201905060208402830185811115611b5657611b55611b06565b5b835b81811015611b7f5780611b6b8882611b0b565b845260208401935050602081019050611b58565b5050509392505050565b600082601f830112611b9e57611b9d611a49565b5b8151611bae848260208601611b20565b91505092915050565b600060208284031215611bcd57611bcc6117df565b5b600082015167ffffffffffffffff811115611beb57611bea6117e4565b5b611bf784828501611b89565b91505092915050565b6000819050919050565b7f4e487b7100000000000000000000000000000000000000000000000000000000600052601160045260246000fd5b6000611c4482611c00565b9150611c4f83611c00565b9250827fffffffffffffffffffffffffffffffffffffffffffffffffffffffffffffffff03821115611c8457611c83611c0a565b5b828201905092915050565b7f4e487b7100000000000000000000000000000000000000000000000000000000600052603260045260246000fd5b6000611cc982611c00565b91507fffffffffffffffffffffffffffffffffffffffffffffffffffffffffffffffff821415611cfc57611cfb611c0a565b5b600182019050919050565b600081519050919050565b600082825260208201905092915050565b6000819050602082019050919050565b611d3c81611809565b82525050565b6000611d4e8383611d33565b60208301905092915050565b6000602082019050919050565b6000611d7282611d07565b611d7c8185611d12565b9350611d8783611d23565b8060005b83811015611db8578151611d9f8882611d42565b9750611daa83611d5a565b925050600181019050611d8b565b5085935050505092915050565b6000604082019050611dda6000830185611887565b8181036020830152611dec8184611d67565b90509392505050565b6000604082019050611e0a6000830185611887565b611e176020830184611887565b9392505050565b611e2781611c00565b8114611e3257600080fd5b50565b600081519050611e4481611e1e565b92915050565b600060208284031215611e6057611e5f6117df565b5b6000611e6e84828501611e35565b91505092915050565b7f4572726f723a206e6f20666f6c6c6f7765727300000000000000000000000000600082015250565b6000611ead601383611914565b9150611eb882611e77565b602082019050919050565b60006020820190508181036000830152611edc81611ea0565b9050919050565b6000611eee82611c00565b9150611ef983611c00565b925082821015611f0c57611f0b611c0a565b5b828203905092915050565b7f4572726f723a206e6f20666f6c6c6f77696e6700000000000000000000000000600082015250565b6000611f4d601383611914565b9150611f5882611f17565b602082019050919050565b60006020820190508181036000830152611f7c81611f40565b905091905056fea26469706673582212204e10609e1c5864e155d038b3d684bfc472f11f0ca2794b4a8d891e19d4dfff2a64736f6c63430008090033",
  "immutableReferences": {},
  "source": "// SPDX-License-Identifier: MIT\n\npragma solidity >=0.8.0 <0.9.0;\n\nimport \"./UME.sol\";\nimport \"./UserStorage.sol\";\n\ncontract Follow {\n  UME private umeToken;\n  UserStorage private userStorage;\n\n  address public interfaceSigner;\n\n  event FollowSignerChanged(address indexed from, address indexed to);\n\n  constructor (UME _umeToken, UserStorage _userStorage) public {\n    umeToken = _umeToken;\n    userStorage = _userStorage;\n\n    interfaceSigner = msg.sender;\n  }\n\n  function follow(\n    address _from,\n    address _to\n  ) public {\n    require(\n      msg.sender==interfaceSigner,\n      'Error: operator must be user interface');\n    _addFollower(_from, _to);\n    _addFollowing(_from, _to);\n  }\n\n  function _addFollower(\n    address _from,\n    address _to\n  ) private {\n    // create new memory instance of an array one larger than current follower count\n    bool _alreadyFollower=false;\n    bool _isUnfollower = false;\n    address[] memory _oldFollowers = userStorage.getFollowers(_to);\n    uint _followerCount = _oldFollowers.length;\n    address[] memory _newFollowers = new address[](_followerCount+1);\n    for (uint i = 0; i < _followerCount; i++) {\n      if(_oldFollowers[i]==_from) {\n        _alreadyFollower = true;\n        _unFollower(_from, _to, _oldFollowers, i);\n        _isUnfollower = true;\n        break;\n      }\n      _newFollowers[i] = _oldFollowers[i];\n    }\n    address[] memory _unfollowers = userStorage.getUnfollowers(_to);\n    uint _unfollowCount = _unfollowers.length;\n    for(uint i = 0; i < _unfollowCount; i++) {\n      if(_to==_unfollowers[i] && _isUnfollower==false) {\n        _alreadyFollower = true;\n        userStorage.setFollowers(_to, _newFollowers);\n        userStorage.setUnfollowers(_to, _deleteAddress(_unfollowers, i));\n        break;\n      }\n    }\n    if(_alreadyFollower!=true && _isUnfollower==false) {\n      // set last element in new array to _from\n      _newFollowers[_followerCount] = _from;\n      // update followers to storage\n      userStorage.setFollowers(_to, _newFollowers);\n      umeToken.mintFollow(_from, _to);\n    }\n  }\n  function _addFollowing(\n    address _from,\n    address _to\n  ) private {\n    // create new memory instance of an array one larger than current following count\n    bool _alreadyFollowing=false;\n    bool _isUnfollowing = false;\n    address[] memory _oldFollowing = userStorage.getFollowing(_from);\n    uint _followingCount = _oldFollowing.length;\n    address[] memory _newFollowing = new address[](_followingCount+1);\n    for (uint i = 0; i < _followingCount; i++) {\n      if(_oldFollowing[i]==_to) {\n        _alreadyFollowing = true;\n        _unFollowing(_from, _to, _oldFollowing, i);\n        _isUnfollowing = true;\n        break;\n      }\n      _newFollowing[i] = _oldFollowing[i];\n    }\n    address[] memory _unfollowing = userStorage.getUnfollowing(_from);\n    uint _unfollowCount = _unfollowing.length;\n    for(uint i = 0; i < _unfollowCount; i++) {\n      if(_from==_unfollowing[i] && _isUnfollowing==false) {\n        _alreadyFollowing = true;\n        userStorage.setFollowing(_from, _newFollowing);\n        userStorage.setUnfollowing(_from, _deleteAddress(_unfollowing, i));\n        break;\n      }\n    }\n    if(_alreadyFollowing!=true && _isUnfollowing==false) {\n      // set last element in new array to _from\n      _newFollowing[_followingCount] = _to;\n      // update followings to storage\n      userStorage.setFollowing(_from, _newFollowing);\n    }\n  }\n\n  function _unFollower(\n    address _from,\n    address _to,\n    address[] memory _oldFollowers,\n    uint index\n  ) private {\n    require(\n      userStorage.getFollowerCount(_to)>0,\n      'Error: no followers');\n    address[] memory _oldUnfollowers = userStorage.getUnfollowers(_to);\n    userStorage.setFollowers(_to, _deleteAddress(_oldFollowers, index));\n    uint _oldUnfollowCount = _oldUnfollowers.length;\n    address[] memory _newUnfollowers = new address[](_oldUnfollowCount+1);\n\n    for(uint i = 0; i < _oldUnfollowCount; i++) {\n      _newUnfollowers[i] = _oldUnfollowers[i];\n    }\n    _newUnfollowers[_oldUnfollowCount] = _from;\n    userStorage.setUnfollowers(_to, _newUnfollowers);\n  }\n  function _unFollowing(\n    address _from,\n    address _to,\n    address[] memory _oldFollowing,\n    uint index\n  ) private {\n    require(\n      userStorage.getFollowingCount(_from)>0,\n      'Error: no following');\n    address[] memory _oldUnfollowing = userStorage.getUnfollowing(_from);\n    userStorage.setFollowing(_from, _deleteAddress(_oldFollowing, index));\n    uint _oldUnfollowCount = _oldUnfollowing.length;\n    address[] memory _newUnfollowing = new address[](_oldUnfollowCount+1);\n\n    for(uint i = 0; i < _oldUnfollowCount; i++) {\n      _newUnfollowing[i] = _oldUnfollowing[i];\n    }\n    _newUnfollowing[_oldUnfollowCount] = _to;\n    userStorage.setUnfollowing(_from, _newUnfollowing);\n  }\n\n  function _deleteAddress(\n    address[] memory array,\n    uint index\n  ) private pure returns(address[] memory) {\n    address[] memory _array = new address[](array.length-1);\n    for(uint i = 0; i < index; i++) {\n      _array[i] = array[i];\n    }\n    for(uint i = index; i < _array.length; i++) {\n      _array[i] = array[i+1];\n    }\n    return _array;\n  }\n\n  function passInterfaceSigner(address _userInterface) public returns(bool){\n    require(\n      interfaceSigner==msg.sender,\n      'Error: msg.sender must be interfaceSigner');\n    interfaceSigner = _userInterface;\n    emit FollowSignerChanged(msg.sender, interfaceSigner);\n    return true;\n  }\n}\n",
  "sourcePath": "/Users/jaiq/Documents/000 BLOCKCHAIN/ETH/uMe/src/contracts/Follow.sol",
  "compiler": {
    "name": "solc",
    "version": "0.8.9+commit.e5eed63a.Emscripten.clang"
  },
  "schemaVersion": "3.4.3",
  "updatedAt": "2021-10-10T22:38:01.753Z",
  "networkType": "ethereum",
  "devdoc": {
    "kind": "dev",
    "methods": {},
    "version": 1
  },
  "userdoc": {
    "kind": "user",
    "methods": {},
    "version": 1
  }
}