{
  "contractName": "Follow",
  "abi": [
    {
      "inputs": [
        {
          "internalType": "contract UME",
          "name": "_umeToken",
          "type": "address"
        },
        {
          "internalType": "contract UserStorage",
          "name": "_userStorage",
          "type": "address"
        }
      ],
      "stateMutability": "nonpayable",
      "type": "constructor"
    },
    {
      "anonymous": false,
      "inputs": [
        {
          "indexed": true,
          "internalType": "address",
          "name": "from",
          "type": "address"
        },
        {
          "indexed": true,
          "internalType": "address",
          "name": "to",
          "type": "address"
        }
      ],
      "name": "FollowSignerChanged",
      "type": "event"
    },
    {
      "inputs": [
        {
          "internalType": "address",
          "name": "_from",
          "type": "address"
        },
        {
          "internalType": "address",
          "name": "_to",
          "type": "address"
        }
      ],
      "name": "follow",
      "outputs": [],
      "stateMutability": "nonpayable",
      "type": "function"
    },
    {
      "inputs": [
        {
          "internalType": "address",
          "name": "_userInterface",
          "type": "address"
        }
      ],
      "name": "passInterfaceSigner",
      "outputs": [
        {
          "internalType": "bool",
          "name": "",
          "type": "bool"
        }
      ],
      "stateMutability": "nonpayable",
      "type": "function"
    }
  ],
  "bytecode": "0x60806040523480156200001157600080fd5b50604051620012e7380380620012e783398181016040528101906200003791906200012f565b816000806101000a81548173ffffffffffffffffffffffffffffffffffffffff021916908373ffffffffffffffffffffffffffffffffffffffff16021790555080600160006101000a81548173ffffffffffffffffffffffffffffffffffffffff021916908373ffffffffffffffffffffffffffffffffffffffff16021790555033600260006101000a81548173ffffffffffffffffffffffffffffffffffffffff021916908373ffffffffffffffffffffffffffffffffffffffff16021790555050506200020b565b6000815190506200011281620001d7565b92915050565b6000815190506200012981620001f1565b92915050565b60008060408385031215620001495762000148620001d2565b5b6000620001598582860162000101565b92505060206200016c8582860162000118565b9150509250929050565b60006200018382620001b2565b9050919050565b6000620001978262000176565b9050919050565b6000620001ab8262000176565b9050919050565b600073ffffffffffffffffffffffffffffffffffffffff82169050919050565b600080fd5b620001e2816200018a565b8114620001ee57600080fd5b50565b620001fc816200019e565b81146200020857600080fd5b50565b6110cc806200021b6000396000f3fe608060405234801561001057600080fd5b50600436106100365760003560e01c806399d147c21461003b578063c4e172da14610057575b600080fd5b61005560048036038101906100509190610a17565b610087565b005b610071600480360381019061006c91906109ea565b6101bc565b60405161007e9190610c43565b60405180910390f35b600260009054906101000a900473ffffffffffffffffffffffffffffffffffffffff1673ffffffffffffffffffffffffffffffffffffffff163373ffffffffffffffffffffffffffffffffffffffff1614610117576040517f08c379a000000000000000000000000000000000000000000000000000000000815260040161010e90610c9e565b60405180910390fd5b6101218282610314565b61012b828261061b565b60008054906101000a900473ffffffffffffffffffffffffffffffffffffffff1673ffffffffffffffffffffffffffffffffffffffff16632d599ba583836040518363ffffffff1660e01b8152600401610186929190610bea565b600060405180830381600087803b1580156101a057600080fd5b505af11580156101b4573d6000803e3d6000fd5b505050505050565b60003373ffffffffffffffffffffffffffffffffffffffff16600260009054906101000a900473ffffffffffffffffffffffffffffffffffffffff1673ffffffffffffffffffffffffffffffffffffffff161461024e576040517f08c379a000000000000000000000000000000000000000000000000000000000815260040161024590610cbe565b60405180910390fd5b81600260006101000a81548173ffffffffffffffffffffffffffffffffffffffff021916908373ffffffffffffffffffffffffffffffffffffffff160217905550600260009054906101000a900473ffffffffffffffffffffffffffffffffffffffff1673ffffffffffffffffffffffffffffffffffffffff163373ffffffffffffffffffffffffffffffffffffffff167f317b209d0dca6ddb6667f7c47d488a9708cc0e7befa4cde41a104b125a1d9ef660405160405180910390a360019050919050565b6000600160009054906101000a900473ffffffffffffffffffffffffffffffffffffffff1673ffffffffffffffffffffffffffffffffffffffff1663c2fe2022836040518263ffffffff1660e01b81526004016103719190610bcf565b60006040518083038186803b15801561038957600080fd5b505afa15801561039d573d6000803e3d6000fd5b505050506040513d6000823e3d601f19601f820116820180604052508101906103c69190610a57565b905060008151905060006001826103dd9190610d79565b67ffffffffffffffff8111156103f6576103f5610eef565b5b6040519080825280602002602001820160405280156104245781602001602082028036833780820191505090505b50905060005b82811015610536578573ffffffffffffffffffffffffffffffffffffffff1684828151811061045c5761045b610ec0565b5b602002602001015173ffffffffffffffffffffffffffffffffffffffff1614156104bb576040517f08c379a00000000000000000000000000000000000000000000000000000000081526004016104b290610c7e565b60405180910390fd5b8381815181106104ce576104cd610ec0565b5b60200260200101518282815181106104e9576104e8610ec0565b5b602002602001019073ffffffffffffffffffffffffffffffffffffffff16908173ffffffffffffffffffffffffffffffffffffffff1681525050808061052e90610e48565b91505061042a565b508481838151811061054b5761054a610ec0565b5b602002602001019073ffffffffffffffffffffffffffffffffffffffff16908173ffffffffffffffffffffffffffffffffffffffff1681525050600160009054906101000a900473ffffffffffffffffffffffffffffffffffffffff1673ffffffffffffffffffffffffffffffffffffffff16634b69ae7885836040518363ffffffff1660e01b81526004016105e2929190610c13565b600060405180830381600087803b1580156105fc57600080fd5b505af1158015610610573d6000803e3d6000fd5b505050505050505050565b6000600160009054906101000a900473ffffffffffffffffffffffffffffffffffffffff1673ffffffffffffffffffffffffffffffffffffffff1663d8236dff846040518263ffffffff1660e01b81526004016106789190610bcf565b60006040518083038186803b15801561069057600080fd5b505afa1580156106a4573d6000803e3d6000fd5b505050506040513d6000823e3d601f19601f820116820180604052508101906106cd9190610a57565b905060008151905060006001826106e49190610d79565b67ffffffffffffffff8111156106fd576106fc610eef565b5b60405190808252806020026020018201604052801561072b5781602001602082028036833780820191505090505b50905060005b8281101561083d578473ffffffffffffffffffffffffffffffffffffffff1684828151811061076357610762610ec0565b5b602002602001015173ffffffffffffffffffffffffffffffffffffffff1614156107c2576040517f08c379a00000000000000000000000000000000000000000000000000000000081526004016107b990610c5e565b60405180910390fd5b8381815181106107d5576107d4610ec0565b5b60200260200101518282815181106107f0576107ef610ec0565b5b602002602001019073ffffffffffffffffffffffffffffffffffffffff16908173ffffffffffffffffffffffffffffffffffffffff1681525050808061083590610e48565b915050610731565b508381838151811061085257610851610ec0565b5b602002602001019073ffffffffffffffffffffffffffffffffffffffff16908173ffffffffffffffffffffffffffffffffffffffff1681525050600160009054906101000a900473ffffffffffffffffffffffffffffffffffffffff1673ffffffffffffffffffffffffffffffffffffffff1663144ffed386836040518363ffffffff1660e01b81526004016108e9929190610c13565b600060405180830381600087803b15801561090357600080fd5b505af1158015610917573d6000803e3d6000fd5b505050505050505050565b600061093561093084610d03565b610cde565b9050808382526020820190508285602086028201111561095857610957610f23565b5b60005b85811015610988578161096e88826109a7565b84526020840193506020830192505060018101905061095b565b5050509392505050565b6000813590506109a18161107f565b92915050565b6000815190506109b68161107f565b92915050565b600082601f8301126109d1576109d0610f1e565b5b81516109e1848260208601610922565b91505092915050565b600060208284031215610a00576109ff610f2d565b5b6000610a0e84828501610992565b91505092915050565b60008060408385031215610a2e57610a2d610f2d565b5b6000610a3c85828601610992565b9250506020610a4d85828601610992565b9150509250929050565b600060208284031215610a6d57610a6c610f2d565b5b600082015167ffffffffffffffff811115610a8b57610a8a610f28565b5b610a97848285016109bc565b91505092915050565b6000610aac8383610ab8565b60208301905092915050565b610ac181610dcf565b82525050565b610ad081610dcf565b82525050565b6000610ae182610d3f565b610aeb8185610d57565b9350610af683610d2f565b8060005b83811015610b27578151610b0e8882610aa0565b9750610b1983610d4a565b925050600181019050610afa565b5085935050505092915050565b610b3d81610de1565b82525050565b6000610b50602283610d68565b9150610b5b82610f43565b604082019050919050565b6000610b73602183610d68565b9150610b7e82610f92565b604082019050919050565b6000610b96602683610d68565b9150610ba182610fe1565b604082019050919050565b6000610bb9602983610d68565b9150610bc482611030565b604082019050919050565b6000602082019050610be46000830184610ac7565b92915050565b6000604082019050610bff6000830185610ac7565b610c0c6020830184610ac7565b9392505050565b6000604082019050610c286000830185610ac7565b8181036020830152610c3a8184610ad6565b90509392505050565b6000602082019050610c586000830184610b34565b92915050565b60006020820190508181036000830152610c7781610b43565b9050919050565b60006020820190508181036000830152610c9781610b66565b9050919050565b60006020820190508181036000830152610cb781610b89565b9050919050565b60006020820190508181036000830152610cd781610bac565b9050919050565b6000610ce8610cf9565b9050610cf48282610e17565b919050565b6000604051905090565b600067ffffffffffffffff821115610d1e57610d1d610eef565b5b602082029050602081019050919050565b6000819050602082019050919050565b600081519050919050565b6000602082019050919050565b600082825260208201905092915050565b600082825260208201905092915050565b6000610d8482610e0d565b9150610d8f83610e0d565b9250827fffffffffffffffffffffffffffffffffffffffffffffffffffffffffffffffff03821115610dc457610dc3610e91565b5b828201905092915050565b6000610dda82610ded565b9050919050565b60008115159050919050565b600073ffffffffffffffffffffffffffffffffffffffff82169050919050565b6000819050919050565b610e2082610f32565b810181811067ffffffffffffffff82111715610e3f57610e3e610eef565b5b80604052505050565b6000610e5382610e0d565b91507fffffffffffffffffffffffffffffffffffffffffffffffffffffffffffffffff821415610e8657610e85610e91565b5b600182019050919050565b7f4e487b7100000000000000000000000000000000000000000000000000000000600052601160045260246000fd5b7f4e487b7100000000000000000000000000000000000000000000000000000000600052603260045260246000fd5b7f4e487b7100000000000000000000000000000000000000000000000000000000600052604160045260246000fd5b600080fd5b600080fd5b600080fd5b600080fd5b6000601f19601f8301169050919050565b7f4572726f723a206163636f756e7420616c7265616479206120666f6c6c6f776960008201527f6e67000000000000000000000000000000000000000000000000000000000000602082015250565b7f4572726f723a206163636f756e7420616c7265616479206120666f6c6c6f776560008201527f7200000000000000000000000000000000000000000000000000000000000000602082015250565b7f4572726f723a206f70657261746f72206d757374206265207573657220696e7460008201527f6572666163650000000000000000000000000000000000000000000000000000602082015250565b7f4572726f723a206d73672e73656e646572206d75737420626520696e7465726660008201527f6163655369676e65720000000000000000000000000000000000000000000000602082015250565b61108881610dcf565b811461109357600080fd5b5056fea2646970667358221220500154ec6f49cab78f87c1d8735341bb77340bf5d95a8c9c3c2acaac783c72dc64736f6c63430008070033",
  "immutableReferences": {},
  "source": "// SPDX-License-Identifier: MIT\n\npragma solidity >=0.8.0 <0.9.0;\n\nimport \"./UME.sol\";\nimport \"./UserStorage.sol\";\n\ncontract Follow {\n  UME private umeToken;\n  UserStorage private userStorage;\n\n  address private interfaceSigner;\n\n  event FollowSignerChanged(address indexed from, address indexed to);\n\n  constructor (UME _umeToken, UserStorage _userStorage) public {\n    umeToken = _umeToken;\n    userStorage = _userStorage;\n\n    interfaceSigner = msg.sender;\n  }\n\n  function follow(\n    address _from,\n    address _to\n  ) public {\n    require(\n      msg.sender==interfaceSigner,\n      'Error: operator must be user interface');\n    _addFollower(_from, _to);\n    _addFollowing(_from, _to);\n    umeToken.mintFollow(_from, _to);\n  }\n\n  function _addFollower(\n    address _from,\n    address _to\n  ) private {\n    // create new memory instance of an array one larger than current follower count\n    address[] memory _oldFollowers = userStorage.getFollowers(_to);\n    uint _followerCount = _oldFollowers.length;\n    address[] memory _newFollowers = new address[](_followerCount+1);\n    for (uint i = 0; i < _followerCount; i++) {\n      require(_oldFollowers[i]!=_from, 'Error: account already a follower');\n      _newFollowers[i] = _oldFollowers[i];\n    }\n    // set last element in new array to _from\n    _newFollowers[_followerCount] = _from;\n    // update followers to storage\n    userStorage.setFollowers(_to, _newFollowers);\n  }\n  function _addFollowing(\n    address _from,\n    address _to\n  ) private {\n    // create new memory instance of an array one larger than current following count\n    address[] memory _oldFollowing = userStorage.getFollowing(_from);\n    uint _followingCount = _oldFollowing.length;\n    address[] memory _newFollowing = new address[](_followingCount+1);\n    for (uint i = 0; i < _followingCount; i++) {\n      require(_oldFollowing[i]!=_to, 'Error: account already a following');\n      _newFollowing[i] = _oldFollowing[i];\n    }\n    // set last element in new array to _from\n    _newFollowing[_followingCount] = _to;\n    // update followings to storage\n    userStorage.setFollowing(_from, _newFollowing);\n  }\n\n  function passInterfaceSigner(address _userInterface) public returns(bool){\n    require(\n      interfaceSigner==msg.sender,\n      'Error: msg.sender must be interfaceSigner');\n    interfaceSigner = _userInterface;\n    emit FollowSignerChanged(msg.sender, interfaceSigner);\n    return true;\n  }\n}\n",
  "sourcePath": "/Users/jaiq/Documents/000 BLOCKCHAIN/ETH/uMe/src/contracts/Follow.sol",
  "compiler": {
    "name": "solc",
    "version": "0.8.7+commit.e28d00a7.Emscripten.clang"
  },
  "schemaVersion": "3.4.3",
  "updatedAt": "2021-08-25T09:08:10.498Z",
  "networkType": "ethereum",
  "devdoc": {
    "kind": "dev",
    "methods": {},
    "version": 1
  },
  "userdoc": {
    "kind": "user",
    "methods": {},
    "version": 1
  }
}