{
  "contractName": "Like",
  "abi": [
    {
      "inputs": [
        {
          "internalType": "contract UME",
          "name": "_umeToken",
          "type": "address"
        },
        {
          "internalType": "contract MemeStorage",
          "name": "_memeStorage",
          "type": "address"
        }
      ],
      "stateMutability": "nonpayable",
      "type": "constructor"
    },
    {
      "anonymous": false,
      "inputs": [
        {
          "indexed": true,
          "internalType": "address",
          "name": "from",
          "type": "address"
        },
        {
          "indexed": true,
          "internalType": "address",
          "name": "to",
          "type": "address"
        }
      ],
      "name": "InterfaceSignerChanged",
      "type": "event"
    },
    {
      "inputs": [],
      "name": "interfaceSigner",
      "outputs": [
        {
          "internalType": "address",
          "name": "",
          "type": "address"
        }
      ],
      "stateMutability": "view",
      "type": "function",
      "constant": true
    },
    {
      "inputs": [
        {
          "internalType": "address",
          "name": "_account",
          "type": "address"
        },
        {
          "internalType": "bytes32",
          "name": "_memeId",
          "type": "bytes32"
        }
      ],
      "name": "likeMeme",
      "outputs": [],
      "stateMutability": "nonpayable",
      "type": "function"
    },
    {
      "inputs": [
        {
          "internalType": "address",
          "name": "_userInterface",
          "type": "address"
        }
      ],
      "name": "passInterfaceSigner",
      "outputs": [
        {
          "internalType": "bool",
          "name": "",
          "type": "bool"
        }
      ],
      "stateMutability": "nonpayable",
      "type": "function"
    }
  ],
  "bytecode": "0x60806040523480156200001157600080fd5b5060405162001a7638038062001a7683398181016040528101906200003791906200012f565b816000806101000a81548173ffffffffffffffffffffffffffffffffffffffff021916908373ffffffffffffffffffffffffffffffffffffffff16021790555080600160006101000a81548173ffffffffffffffffffffffffffffffffffffffff021916908373ffffffffffffffffffffffffffffffffffffffff16021790555033600260006101000a81548173ffffffffffffffffffffffffffffffffffffffff021916908373ffffffffffffffffffffffffffffffffffffffff16021790555050506200020b565b6000815190506200011281620001d7565b92915050565b6000815190506200012981620001f1565b92915050565b60008060408385031215620001495762000148620001d2565b5b6000620001598582860162000118565b92505060206200016c8582860162000101565b9150509250929050565b60006200018382620001b2565b9050919050565b6000620001978262000176565b9050919050565b6000620001ab8262000176565b9050919050565b600073ffffffffffffffffffffffffffffffffffffffff82169050919050565b600080fd5b620001e2816200018a565b8114620001ee57600080fd5b50565b620001fc816200019e565b81146200020857600080fd5b50565b61185b806200021b6000396000f3fe608060405234801561001057600080fd5b50600436106100415760003560e01c8063af5dffde14610046578063be4641e114610064578063c4e172da14610080575b600080fd5b61004e6100b0565b60405161005b9190611331565b60405180910390f35b61007e60048036038101906100799190611151565b6100d6565b005b61009a600480360381019061009591906110f7565b6106d3565b6040516100a79190611375565b60405180910390f35b600260009054906101000a900473ffffffffffffffffffffffffffffffffffffffff1681565b600260009054906101000a900473ffffffffffffffffffffffffffffffffffffffff1673ffffffffffffffffffffffffffffffffffffffff163373ffffffffffffffffffffffffffffffffffffffff1614610166576040517f08c379a000000000000000000000000000000000000000000000000000000000815260040161015d90611404565b60405180910390fd5b6000600160009054906101000a900473ffffffffffffffffffffffffffffffffffffffff1673ffffffffffffffffffffffffffffffffffffffff1663213059dd836040518263ffffffff1660e01b81526004016101c39190611390565b60006040518083038186803b1580156101db57600080fd5b505afa1580156101ef573d6000803e3d6000fd5b505050506040513d6000823e3d601f19601f820116820180604052508101906102189190611191565b905060008151905060008060005b838110156102a85784818151811061024157610240611696565b5b602002602001015173ffffffffffffffffffffffffffffffffffffffff168773ffffffffffffffffffffffffffffffffffffffff161415610295576001925061028c87878784610809565b600191506102a8565b80806102a09061161e565b915050610226565b506000600160009054906101000a900473ffffffffffffffffffffffffffffffffffffffff1673ffffffffffffffffffffffffffffffffffffffff16634fd5d474876040518263ffffffff1660e01b81526004016103069190611390565b60006040518083038186803b15801561031e57600080fd5b505afa158015610332573d6000803e3d6000fd5b505050506040513d6000823e3d601f19601f8201168201806040525081019061035b9190611191565b905060008151905060005b818110156103f65782818151811061038157610380611696565b5b602002602001015173ffffffffffffffffffffffffffffffffffffffff168973ffffffffffffffffffffffffffffffffffffffff161480156103c7575060001515841515145b156103e357600194506103de89898986858a610c0e565b6103f6565b80806103ee9061161e565b915050610366565b506000151584151514801561040f575060001515831515145b156106c95761042388888885600089610c0e565b600160009054906101000a900473ffffffffffffffffffffffffffffffffffffffff1673ffffffffffffffffffffffffffffffffffffffff1663691d1c28886040518263ffffffff1660e01b815260040161047e9190611390565b60206040518083038186803b15801561049657600080fd5b505afa1580156104aa573d6000803e3d6000fd5b505050506040513d601f19601f820116820180604052508101906104ce9190611124565b73ffffffffffffffffffffffffffffffffffffffff168873ffffffffffffffffffffffffffffffffffffffff16146106c85760008054906101000a900473ffffffffffffffffffffffffffffffffffffffff1673ffffffffffffffffffffffffffffffffffffffff1663d044958989600160009054906101000a900473ffffffffffffffffffffffffffffffffffffffff1673ffffffffffffffffffffffffffffffffffffffff1663691d1c288b6040518263ffffffff1660e01b81526004016105989190611390565b60206040518083038186803b1580156105b057600080fd5b505afa1580156105c4573d6000803e3d6000fd5b505050506040513d601f19601f820116820180604052508101906105e89190611124565b6040518363ffffffff1660e01b815260040161060592919061134c565b600060405180830381600087803b15801561061f57600080fd5b505af1158015610633573d6000803e3d6000fd5b50505050600160009054906101000a900473ffffffffffffffffffffffffffffffffffffffff1673ffffffffffffffffffffffffffffffffffffffff166370d2c46b8860056040518363ffffffff1660e01b81526004016106959291906113db565b600060405180830381600087803b1580156106af57600080fd5b505af11580156106c3573d6000803e3d6000fd5b505050505b5b5050505050505050565b6000600260009054906101000a900473ffffffffffffffffffffffffffffffffffffffff1673ffffffffffffffffffffffffffffffffffffffff163373ffffffffffffffffffffffffffffffffffffffff1614610765576040517f08c379a000000000000000000000000000000000000000000000000000000000815260040161075c90611444565b60405180910390fd5b81600260006101000a81548173ffffffffffffffffffffffffffffffffffffffff021916908373ffffffffffffffffffffffffffffffffffffffff1602179055508173ffffffffffffffffffffffffffffffffffffffff163373ffffffffffffffffffffffffffffffffffffffff167fdf570d582e474b2d7915b12f6f773eb74e4bc78a660caeeccf19491c8578507b60405160405180910390a360019050919050565b6000600160009054906101000a900473ffffffffffffffffffffffffffffffffffffffff1673ffffffffffffffffffffffffffffffffffffffff166398316938856040518263ffffffff1660e01b81526004016108669190611390565b60206040518083038186803b15801561087e57600080fd5b505afa158015610892573d6000803e3d6000fd5b505050506040513d601f19601f820116820180604052508101906108b691906111da565b116108f6576040517f08c379a00000000000000000000000000000000000000000000000000000000081526004016108ed90611424565b60405180910390fd5b6000600160009054906101000a900473ffffffffffffffffffffffffffffffffffffffff1673ffffffffffffffffffffffffffffffffffffffff16634fd5d474856040518263ffffffff1660e01b81526004016109539190611390565b60006040518083038186803b15801561096b57600080fd5b505afa15801561097f573d6000803e3d6000fd5b505050506040513d6000823e3d601f19601f820116820180604052508101906109a89190611191565b9050600160009054906101000a900473ffffffffffffffffffffffffffffffffffffffff1673ffffffffffffffffffffffffffffffffffffffff1663e9bdf976856109f38686610e81565b6040518363ffffffff1660e01b8152600401610a109291906113ab565b600060405180830381600087803b158015610a2a57600080fd5b505af1158015610a3e573d6000803e3d6000fd5b505050506000815190506000600182610a5791906114ff565b67ffffffffffffffff811115610a7057610a6f6116c5565b5b604051908082528060200260200182016040528015610a9e5781602001602082028036833780820191505090505b50905060005b82811015610b2757838181518110610abf57610abe611696565b5b6020026020010151828281518110610ada57610ad9611696565b5b602002602001019073ffffffffffffffffffffffffffffffffffffffff16908173ffffffffffffffffffffffffffffffffffffffff16815250508080610b1f9061161e565b915050610aa4565b5086818381518110610b3c57610b3b611696565b5b602002602001019073ffffffffffffffffffffffffffffffffffffffff16908173ffffffffffffffffffffffffffffffffffffffff1681525050600160009054906101000a900473ffffffffffffffffffffffffffffffffffffffff1673ffffffffffffffffffffffffffffffffffffffff16637135cc1087836040518363ffffffff1660e01b8152600401610bd39291906113ab565b600060405180830381600087803b158015610bed57600080fd5b505af1158015610c01573d6000803e3d6000fd5b5050505050505050505050565b600115158115151415610cb457600160009054906101000a900473ffffffffffffffffffffffffffffffffffffffff1673ffffffffffffffffffffffffffffffffffffffff16637135cc1086610c648686610e81565b6040518363ffffffff1660e01b8152600401610c819291906113ab565b600060405180830381600087803b158015610c9b57600080fd5b505af1158015610caf573d6000803e3d6000fd5b505050505b6000845190506000600182610cc991906114ff565b67ffffffffffffffff811115610ce257610ce16116c5565b5b604051908082528060200260200182016040528015610d105781602001602082028036833780820191505090505b50905060005b82811015610d9957868181518110610d3157610d30611696565b5b6020026020010151828281518110610d4c57610d4b611696565b5b602002602001019073ffffffffffffffffffffffffffffffffffffffff16908173ffffffffffffffffffffffffffffffffffffffff16815250508080610d919061161e565b915050610d16565b5087818381518110610dae57610dad611696565b5b602002602001019073ffffffffffffffffffffffffffffffffffffffff16908173ffffffffffffffffffffffffffffffffffffffff1681525050600160009054906101000a900473ffffffffffffffffffffffffffffffffffffffff1673ffffffffffffffffffffffffffffffffffffffff1663e9bdf97688836040518363ffffffff1660e01b8152600401610e459291906113ab565b600060405180830381600087803b158015610e5f57600080fd5b505af1158015610e73573d6000803e3d6000fd5b505050505050505050505050565b6060600060018451610e939190611555565b67ffffffffffffffff811115610eac57610eab6116c5565b5b604051908082528060200260200182016040528015610eda5781602001602082028036833780820191505090505b50905060005b83811015610f6357848181518110610efb57610efa611696565b5b6020026020010151828281518110610f1657610f15611696565b5b602002602001019073ffffffffffffffffffffffffffffffffffffffff16908173ffffffffffffffffffffffffffffffffffffffff16815250508080610f5b9061161e565b915050610ee0565b5060008390505b8151811015610ffa5784600182610f8191906114ff565b81518110610f9257610f91611696565b5b6020026020010151828281518110610fad57610fac611696565b5b602002602001019073ffffffffffffffffffffffffffffffffffffffff16908173ffffffffffffffffffffffffffffffffffffffff16815250508080610ff29061161e565b915050610f6a565b508091505092915050565b600061101861101384611489565b611464565b9050808382526020820190508285602086028201111561103b5761103a6116f9565b5b60005b8581101561106b5781611051888261108a565b84526020840193506020830192505060018101905061103e565b5050509392505050565b600081359050611084816117e0565b92915050565b600081519050611099816117e0565b92915050565b600082601f8301126110b4576110b36116f4565b5b81516110c4848260208601611005565b91505092915050565b6000813590506110dc816117f7565b92915050565b6000815190506110f18161180e565b92915050565b60006020828403121561110d5761110c611703565b5b600061111b84828501611075565b91505092915050565b60006020828403121561113a57611139611703565b5b60006111488482850161108a565b91505092915050565b6000806040838503121561116857611167611703565b5b600061117685828601611075565b9250506020611187858286016110cd565b9150509250929050565b6000602082840312156111a7576111a6611703565b5b600082015167ffffffffffffffff8111156111c5576111c46116fe565b5b6111d18482850161109f565b91505092915050565b6000602082840312156111f0576111ef611703565b5b60006111fe848285016110e2565b91505092915050565b6000611213838361121f565b60208301905092915050565b61122881611589565b82525050565b61123781611589565b82525050565b6000611248826114c5565b61125281856114dd565b935061125d836114b5565b8060005b8381101561128e5781516112758882611207565b9750611280836114d0565b925050600181019050611261565b5085935050505092915050565b6112a48161159b565b82525050565b6112b3816115a7565b82525050565b6112c2816115db565b82525050565b60006112d56026836114ee565b91506112e082611719565b604082019050919050565b60006112f86018836114ee565b915061130382611768565b602082019050919050565b600061131b6029836114ee565b915061132682611791565b604082019050919050565b6000602082019050611346600083018461122e565b92915050565b6000604082019050611361600083018561122e565b61136e602083018461122e565b9392505050565b600060208201905061138a600083018461129b565b92915050565b60006020820190506113a560008301846112aa565b92915050565b60006040820190506113c060008301856112aa565b81810360208301526113d2818461123d565b90509392505050565b60006040820190506113f060008301856112aa565b6113fd60208301846112b9565b9392505050565b6000602082019050818103600083015261141d816112c8565b9050919050565b6000602082019050818103600083015261143d816112eb565b9050919050565b6000602082019050818103600083015261145d8161130e565b9050919050565b600061146e61147f565b905061147a82826115ed565b919050565b6000604051905090565b600067ffffffffffffffff8211156114a4576114a36116c5565b5b602082029050602081019050919050565b6000819050602082019050919050565b600081519050919050565b6000602082019050919050565b600082825260208201905092915050565b600082825260208201905092915050565b600061150a826115d1565b9150611515836115d1565b9250827fffffffffffffffffffffffffffffffffffffffffffffffffffffffffffffffff0382111561154a57611549611667565b5b828201905092915050565b6000611560826115d1565b915061156b836115d1565b92508282101561157e5761157d611667565b5b828203905092915050565b6000611594826115b1565b9050919050565b60008115159050919050565b6000819050919050565b600073ffffffffffffffffffffffffffffffffffffffff82169050919050565b6000819050919050565b60006115e6826115d1565b9050919050565b6115f682611708565b810181811067ffffffffffffffff82111715611615576116146116c5565b5b80604052505050565b6000611629826115d1565b91507fffffffffffffffffffffffffffffffffffffffffffffffffffffffffffffffff82141561165c5761165b611667565b5b600182019050919050565b7f4e487b7100000000000000000000000000000000000000000000000000000000600052601160045260246000fd5b7f4e487b7100000000000000000000000000000000000000000000000000000000600052603260045260246000fd5b7f4e487b7100000000000000000000000000000000000000000000000000000000600052604160045260246000fd5b600080fd5b600080fd5b600080fd5b600080fd5b6000601f19601f8301169050919050565b7f4572726f723a206c696b6572206d757374206265206f7065726174696e67206160008201527f63636f756e740000000000000000000000000000000000000000000000000000602082015250565b7f4572726f723a206e6f206c696b65727320696e206d656d650000000000000000600082015250565b7f4572726f723a206f6e6c79206465706c6f7965722063616e207061737320736960008201527f676e657220726f6c650000000000000000000000000000000000000000000000602082015250565b6117e981611589565b81146117f457600080fd5b50565b611800816115a7565b811461180b57600080fd5b50565b611817816115d1565b811461182257600080fd5b5056fea26469706673582212209d4c77875691fe3e0d2706e43af9a0263d056d16c0ddcbc4508b9b1b25f3122064736f6c63430008070033",
  "immutableReferences": {},
  "source": "// SPDX-License-Identifier: MIT\n\npragma solidity >=0.8.0 <0.9.0;\n\nimport \"./UME.sol\";\nimport \"./MemeStorage.sol\";\n\ncontract Like {\n\n  UME private umeToken;\n  MemeStorage private memeStorage;\n\n  address public interfaceSigner;\n\n  event InterfaceSignerChanged(address indexed from, address indexed to);\n\n  constructor(\n    UME _umeToken,\n    MemeStorage _memeStorage\n  ) public {\n    umeToken = _umeToken;\n    memeStorage = _memeStorage;\n    interfaceSigner = msg.sender;\n  }\n\n  // like functions\n  function likeMeme(\n    address _account,\n    bytes32 _memeId\n  ) public {\n    require(\n      msg.sender==interfaceSigner,\n      'Error: liker must be operating account');\n    address[] memory _likers = memeStorage.getLikers(_memeId);\n    uint _likeCount = _likers.length;\n    bool _alreadyLiked = false;\n    bool _unliked = false;\n    // remove like if already liked\n    for(uint i = 0; i < _likeCount; i++) {\n      if(_account==_likers[i]) {\n        _alreadyLiked = true;\n        _unLike(_account, _memeId, _likers, i);\n        _unliked = true;\n        break;\n      }\n    } // check for double like minting\n    address[] memory _unlikers = memeStorage.getUnlikers(_memeId);\n    uint _unlikeCount = _unlikers.length;\n    for(uint i = 0; i < _unlikeCount; i++) {\n      if(_account==_unlikers[i] && _unliked==false) {\n        _alreadyLiked = true;\n        _addLike(_account, _memeId, _likers, _unlikers, i, _alreadyLiked);\n        break;\n      }\n    }\n    if(_alreadyLiked==false && _unliked==false) {\n      // might have to set new address[](0) for likers & unlikers\n      _addLike(_account, _memeId, _likers, _unlikers, 0, _alreadyLiked);\n      // mint like token\n      if(_account!=memeStorage.getAuthor(_memeId)) {\n        umeToken.mintLike(_account, memeStorage.getAuthor(_memeId));\n        memeStorage.addBoost(_memeId, 5);\n      }\n    }\n  }\n  // setter functions for Meme\n  function _addLike(\n    address _account,\n    bytes32 _memeId,\n    address[] memory _oldLikers,\n    address[] memory _unlikers,\n    uint _index,\n    bool _alreadyLiked\n  ) private {\n    if(_alreadyLiked==true) {\n      memeStorage.setUnlikers(_memeId, _deleteAddress(_unlikers, _index));\n    }\n    uint _oldLikeCount = _oldLikers.length;\n    // set memory to _meme.likers length plus one\n    address[] memory _newLikers = new address[](_oldLikeCount+1);\n\n    // populate address array with existing _meme.likers\n    for(uint i = 0; i < _oldLikeCount; i++) {\n      //require(account!=_meme.likers[i], 'Error: liker has already liked account');\n      _newLikers[i] = _oldLikers[i];\n    }\n    // set _likers value to msg.sender at last slot of array\n    _newLikers[_oldLikeCount] = _account;\n    // set likers field of _meme.likers to _likers\n    memeStorage.setLikers(_memeId, _newLikers);\n  }\n  function _unLike(\n    address _account,\n    bytes32 _memeId,\n    address[] memory _oldLikers,\n    uint _index\n  ) private {\n    require(\n      memeStorage.getLikeCount(_memeId)>0,\n      'Error: no likers in meme');\n    address[] memory _oldUnlikers = memeStorage.getUnlikers(_memeId);\n    // delete liked index, moving all successive elements\n    memeStorage.setLikers(_memeId, _deleteAddress(_oldLikers, _index));\n    uint _oldUnlikeCount = _oldUnlikers.length;\n    // set memory to _meme.unlikers length plus one\n    address[] memory _newUnlikers = new address[](_oldUnlikeCount+1);\n\n    // populate address array with existing _meme.unlikers\n    for(uint i = 0; i < _oldUnlikeCount; i++) {\n      _newUnlikers[i] = _oldUnlikers[i];\n    }\n    // set _unlikers value to msg.sender at last slot of array\n    _newUnlikers[_oldUnlikeCount] = _account;\n    // set unlikers field of _meme.likers to _unlikers\n    memeStorage.setUnlikers(_memeId, _newUnlikers);\n  }\n\n  // helper functions\n  function _deleteAddress(\n    address[] memory array,\n    uint index\n  ) private pure returns(address[] memory) {\n    address[] memory _array = new address[](array.length-1);\n    for(uint i = 0; i < index; i++) {\n      _array[i] = array[i];\n    }\n    for(uint i = index; i < _array.length; i++) {\n      _array[i] = array[i+1];\n    }\n    return _array;\n  }\n\n  // set interfaceSigner role to User upon deployment\n  function passInterfaceSigner(address _userInterface) public returns (bool) {\n    require(\n      msg.sender == interfaceSigner,\n      'Error: only deployer can pass signer role');\n    interfaceSigner = _userInterface;\n    emit InterfaceSignerChanged(msg.sender, _userInterface);\n    return true;\n  }\n}\n",
  "sourcePath": "/Users/jaiq/Documents/000 BLOCKCHAIN/ETH/uMe/src/contracts/Like.sol",
  "compiler": {
    "name": "solc",
    "version": "0.8.7+commit.e28d00a7.Emscripten.clang"
  },
  "schemaVersion": "3.4.3",
  "updatedAt": "2021-10-02T22:00:22.255Z",
  "networkType": "ethereum",
  "devdoc": {
    "kind": "dev",
    "methods": {},
    "version": 1
  },
  "userdoc": {
    "kind": "user",
    "methods": {},
    "version": 1
  }
}