{
  "contractName": "Like",
  "abi": [
    {
      "inputs": [
        {
          "internalType": "contract UME",
          "name": "_umeToken",
          "type": "address"
        },
        {
          "internalType": "contract MemeStorage",
          "name": "_memeStorage",
          "type": "address"
        }
      ],
      "stateMutability": "nonpayable",
      "type": "constructor"
    },
    {
      "anonymous": false,
      "inputs": [
        {
          "indexed": true,
          "internalType": "address",
          "name": "from",
          "type": "address"
        },
        {
          "indexed": true,
          "internalType": "address",
          "name": "to",
          "type": "address"
        }
      ],
      "name": "InterfaceSignerChanged",
      "type": "event"
    },
    {
      "inputs": [],
      "name": "interfaceSigner",
      "outputs": [
        {
          "internalType": "address",
          "name": "",
          "type": "address"
        }
      ],
      "stateMutability": "view",
      "type": "function",
      "constant": true
    },
    {
      "inputs": [
        {
          "internalType": "address",
          "name": "_account",
          "type": "address"
        },
        {
          "internalType": "bytes32",
          "name": "_memeId",
          "type": "bytes32"
        }
      ],
      "name": "likeMeme",
      "outputs": [],
      "stateMutability": "nonpayable",
      "type": "function"
    },
    {
      "inputs": [
        {
          "internalType": "address",
          "name": "_userInterface",
          "type": "address"
        }
      ],
      "name": "passInterfaceSigner",
      "outputs": [
        {
          "internalType": "bool",
          "name": "",
          "type": "bool"
        }
      ],
      "stateMutability": "nonpayable",
      "type": "function"
    }
  ],
  "bytecode": "0x60806040523480156200001157600080fd5b5060405162001b0838038062001b0883398181016040528101906200003791906200012f565b816000806101000a81548173ffffffffffffffffffffffffffffffffffffffff021916908373ffffffffffffffffffffffffffffffffffffffff16021790555080600160006101000a81548173ffffffffffffffffffffffffffffffffffffffff021916908373ffffffffffffffffffffffffffffffffffffffff16021790555033600260006101000a81548173ffffffffffffffffffffffffffffffffffffffff021916908373ffffffffffffffffffffffffffffffffffffffff16021790555050506200020b565b6000815190506200011281620001d7565b92915050565b6000815190506200012981620001f1565b92915050565b60008060408385031215620001495762000148620001d2565b5b6000620001598582860162000118565b92505060206200016c8582860162000101565b9150509250929050565b60006200018382620001b2565b9050919050565b6000620001978262000176565b9050919050565b6000620001ab8262000176565b9050919050565b600073ffffffffffffffffffffffffffffffffffffffff82169050919050565b600080fd5b620001e2816200018a565b8114620001ee57600080fd5b50565b620001fc816200019e565b81146200020857600080fd5b50565b6118ed806200021b6000396000f3fe608060405234801561001057600080fd5b50600436106100415760003560e01c8063af5dffde14610046578063be4641e114610064578063c4e172da14610080575b600080fd5b61004e6100b0565b60405161005b91906113c3565b60405180910390f35b61007e600480360381019061007991906111e3565b6100d6565b005b61009a60048036038101906100959190611189565b610765565b6040516100a79190611407565b60405180910390f35b600260009054906101000a900473ffffffffffffffffffffffffffffffffffffffff1681565b600260009054906101000a900473ffffffffffffffffffffffffffffffffffffffff1673ffffffffffffffffffffffffffffffffffffffff163373ffffffffffffffffffffffffffffffffffffffff1614610166576040517f08c379a000000000000000000000000000000000000000000000000000000000815260040161015d90611496565b60405180910390fd5b6000600160009054906101000a900473ffffffffffffffffffffffffffffffffffffffff1673ffffffffffffffffffffffffffffffffffffffff1663213059dd836040518263ffffffff1660e01b81526004016101c39190611422565b60006040518083038186803b1580156101db57600080fd5b505afa1580156101ef573d6000803e3d6000fd5b505050506040513d6000823e3d601f19601f820116820180604052508101906102189190611223565b905060008151905060008060005b838110156102a85784818151811061024157610240611728565b5b602002602001015173ffffffffffffffffffffffffffffffffffffffff168773ffffffffffffffffffffffffffffffffffffffff161415610295576001925061028c8787878461089b565b600191506102a8565b80806102a0906116b0565b915050610226565b506000600160009054906101000a900473ffffffffffffffffffffffffffffffffffffffff1673ffffffffffffffffffffffffffffffffffffffff16634fd5d474876040518263ffffffff1660e01b81526004016103069190611422565b60006040518083038186803b15801561031e57600080fd5b505afa158015610332573d6000803e3d6000fd5b505050506040513d6000823e3d601f19601f8201168201806040525081019061035b9190611223565b905060008151905060005b818110156103f65782818151811061038157610380611728565b5b602002602001015173ffffffffffffffffffffffffffffffffffffffff168973ffffffffffffffffffffffffffffffffffffffff161480156103c7575060001515841515145b156103e357600194506103de89898986858a610ca0565b6103f6565b80806103ee906116b0565b915050610366565b506000151584151514801561040f575060001515831515145b1561075b576104b58888600067ffffffffffffffff81111561043457610433611757565b5b6040519080825280602002602001820160405280156104625781602001602082028036833780820191505090505b50600067ffffffffffffffff81111561047e5761047d611757565b5b6040519080825280602002602001820160405280156104ac5781602001602082028036833780820191505090505b50600089610ca0565b600160009054906101000a900473ffffffffffffffffffffffffffffffffffffffff1673ffffffffffffffffffffffffffffffffffffffff1663691d1c28886040518263ffffffff1660e01b81526004016105109190611422565b60206040518083038186803b15801561052857600080fd5b505afa15801561053c573d6000803e3d6000fd5b505050506040513d601f19601f8201168201806040525081019061056091906111b6565b73ffffffffffffffffffffffffffffffffffffffff168873ffffffffffffffffffffffffffffffffffffffff161461075a5760008054906101000a900473ffffffffffffffffffffffffffffffffffffffff1673ffffffffffffffffffffffffffffffffffffffff1663d044958989600160009054906101000a900473ffffffffffffffffffffffffffffffffffffffff1673ffffffffffffffffffffffffffffffffffffffff1663691d1c288b6040518263ffffffff1660e01b815260040161062a9190611422565b60206040518083038186803b15801561064257600080fd5b505afa158015610656573d6000803e3d6000fd5b505050506040513d601f19601f8201168201806040525081019061067a91906111b6565b6040518363ffffffff1660e01b81526004016106979291906113de565b600060405180830381600087803b1580156106b157600080fd5b505af11580156106c5573d6000803e3d6000fd5b50505050600160009054906101000a900473ffffffffffffffffffffffffffffffffffffffff1673ffffffffffffffffffffffffffffffffffffffff166370d2c46b8860056040518363ffffffff1660e01b815260040161072792919061146d565b600060405180830381600087803b15801561074157600080fd5b505af1158015610755573d6000803e3d6000fd5b505050505b5b5050505050505050565b6000600260009054906101000a900473ffffffffffffffffffffffffffffffffffffffff1673ffffffffffffffffffffffffffffffffffffffff163373ffffffffffffffffffffffffffffffffffffffff16146107f7576040517f08c379a00000000000000000000000000000000000000000000000000000000081526004016107ee906114d6565b60405180910390fd5b81600260006101000a81548173ffffffffffffffffffffffffffffffffffffffff021916908373ffffffffffffffffffffffffffffffffffffffff1602179055508173ffffffffffffffffffffffffffffffffffffffff163373ffffffffffffffffffffffffffffffffffffffff167fdf570d582e474b2d7915b12f6f773eb74e4bc78a660caeeccf19491c8578507b60405160405180910390a360019050919050565b6000600160009054906101000a900473ffffffffffffffffffffffffffffffffffffffff1673ffffffffffffffffffffffffffffffffffffffff166398316938856040518263ffffffff1660e01b81526004016108f89190611422565b60206040518083038186803b15801561091057600080fd5b505afa158015610924573d6000803e3d6000fd5b505050506040513d601f19601f82011682018060405250810190610948919061126c565b11610988576040517f08c379a000000000000000000000000000000000000000000000000000000000815260040161097f906114b6565b60405180910390fd5b6000600160009054906101000a900473ffffffffffffffffffffffffffffffffffffffff1673ffffffffffffffffffffffffffffffffffffffff16634fd5d474856040518263ffffffff1660e01b81526004016109e59190611422565b60006040518083038186803b1580156109fd57600080fd5b505afa158015610a11573d6000803e3d6000fd5b505050506040513d6000823e3d601f19601f82011682018060405250810190610a3a9190611223565b9050600160009054906101000a900473ffffffffffffffffffffffffffffffffffffffff1673ffffffffffffffffffffffffffffffffffffffff1663e9bdf97685610a858686610f13565b6040518363ffffffff1660e01b8152600401610aa292919061143d565b600060405180830381600087803b158015610abc57600080fd5b505af1158015610ad0573d6000803e3d6000fd5b505050506000815190506000600182610ae99190611591565b67ffffffffffffffff811115610b0257610b01611757565b5b604051908082528060200260200182016040528015610b305781602001602082028036833780820191505090505b50905060005b82811015610bb957838181518110610b5157610b50611728565b5b6020026020010151828281518110610b6c57610b6b611728565b5b602002602001019073ffffffffffffffffffffffffffffffffffffffff16908173ffffffffffffffffffffffffffffffffffffffff16815250508080610bb1906116b0565b915050610b36565b5086818381518110610bce57610bcd611728565b5b602002602001019073ffffffffffffffffffffffffffffffffffffffff16908173ffffffffffffffffffffffffffffffffffffffff1681525050600160009054906101000a900473ffffffffffffffffffffffffffffffffffffffff1673ffffffffffffffffffffffffffffffffffffffff16637135cc1087836040518363ffffffff1660e01b8152600401610c6592919061143d565b600060405180830381600087803b158015610c7f57600080fd5b505af1158015610c93573d6000803e3d6000fd5b5050505050505050505050565b600115158115151415610d4657600160009054906101000a900473ffffffffffffffffffffffffffffffffffffffff1673ffffffffffffffffffffffffffffffffffffffff16637135cc1086610cf68686610f13565b6040518363ffffffff1660e01b8152600401610d1392919061143d565b600060405180830381600087803b158015610d2d57600080fd5b505af1158015610d41573d6000803e3d6000fd5b505050505b6000845190506000600182610d5b9190611591565b67ffffffffffffffff811115610d7457610d73611757565b5b604051908082528060200260200182016040528015610da25781602001602082028036833780820191505090505b50905060005b82811015610e2b57868181518110610dc357610dc2611728565b5b6020026020010151828281518110610dde57610ddd611728565b5b602002602001019073ffffffffffffffffffffffffffffffffffffffff16908173ffffffffffffffffffffffffffffffffffffffff16815250508080610e23906116b0565b915050610da8565b5087818381518110610e4057610e3f611728565b5b602002602001019073ffffffffffffffffffffffffffffffffffffffff16908173ffffffffffffffffffffffffffffffffffffffff1681525050600160009054906101000a900473ffffffffffffffffffffffffffffffffffffffff1673ffffffffffffffffffffffffffffffffffffffff1663e9bdf97688836040518363ffffffff1660e01b8152600401610ed792919061143d565b600060405180830381600087803b158015610ef157600080fd5b505af1158015610f05573d6000803e3d6000fd5b505050505050505050505050565b6060600060018451610f2591906115e7565b67ffffffffffffffff811115610f3e57610f3d611757565b5b604051908082528060200260200182016040528015610f6c5781602001602082028036833780820191505090505b50905060005b83811015610ff557848181518110610f8d57610f8c611728565b5b6020026020010151828281518110610fa857610fa7611728565b5b602002602001019073ffffffffffffffffffffffffffffffffffffffff16908173ffffffffffffffffffffffffffffffffffffffff16815250508080610fed906116b0565b915050610f72565b5060008390505b815181101561108c57846001826110139190611591565b8151811061102457611023611728565b5b602002602001015182828151811061103f5761103e611728565b5b602002602001019073ffffffffffffffffffffffffffffffffffffffff16908173ffffffffffffffffffffffffffffffffffffffff16815250508080611084906116b0565b915050610ffc565b508091505092915050565b60006110aa6110a58461151b565b6114f6565b905080838252602082019050828560208602820111156110cd576110cc61178b565b5b60005b858110156110fd57816110e3888261111c565b8452602084019350602083019250506001810190506110d0565b5050509392505050565b60008135905061111681611872565b92915050565b60008151905061112b81611872565b92915050565b600082601f83011261114657611145611786565b5b8151611156848260208601611097565b91505092915050565b60008135905061116e81611889565b92915050565b600081519050611183816118a0565b92915050565b60006020828403121561119f5761119e611795565b5b60006111ad84828501611107565b91505092915050565b6000602082840312156111cc576111cb611795565b5b60006111da8482850161111c565b91505092915050565b600080604083850312156111fa576111f9611795565b5b600061120885828601611107565b92505060206112198582860161115f565b9150509250929050565b60006020828403121561123957611238611795565b5b600082015167ffffffffffffffff81111561125757611256611790565b5b61126384828501611131565b91505092915050565b60006020828403121561128257611281611795565b5b600061129084828501611174565b91505092915050565b60006112a583836112b1565b60208301905092915050565b6112ba8161161b565b82525050565b6112c98161161b565b82525050565b60006112da82611557565b6112e4818561156f565b93506112ef83611547565b8060005b838110156113205781516113078882611299565b975061131283611562565b9250506001810190506112f3565b5085935050505092915050565b6113368161162d565b82525050565b61134581611639565b82525050565b6113548161166d565b82525050565b6000611367602683611580565b9150611372826117ab565b604082019050919050565b600061138a601883611580565b9150611395826117fa565b602082019050919050565b60006113ad602983611580565b91506113b882611823565b604082019050919050565b60006020820190506113d860008301846112c0565b92915050565b60006040820190506113f360008301856112c0565b61140060208301846112c0565b9392505050565b600060208201905061141c600083018461132d565b92915050565b6000602082019050611437600083018461133c565b92915050565b6000604082019050611452600083018561133c565b818103602083015261146481846112cf565b90509392505050565b6000604082019050611482600083018561133c565b61148f602083018461134b565b9392505050565b600060208201905081810360008301526114af8161135a565b9050919050565b600060208201905081810360008301526114cf8161137d565b9050919050565b600060208201905081810360008301526114ef816113a0565b9050919050565b6000611500611511565b905061150c828261167f565b919050565b6000604051905090565b600067ffffffffffffffff82111561153657611535611757565b5b602082029050602081019050919050565b6000819050602082019050919050565b600081519050919050565b6000602082019050919050565b600082825260208201905092915050565b600082825260208201905092915050565b600061159c82611663565b91506115a783611663565b9250827fffffffffffffffffffffffffffffffffffffffffffffffffffffffffffffffff038211156115dc576115db6116f9565b5b828201905092915050565b60006115f282611663565b91506115fd83611663565b9250828210156116105761160f6116f9565b5b828203905092915050565b600061162682611643565b9050919050565b60008115159050919050565b6000819050919050565b600073ffffffffffffffffffffffffffffffffffffffff82169050919050565b6000819050919050565b600061167882611663565b9050919050565b6116888261179a565b810181811067ffffffffffffffff821117156116a7576116a6611757565b5b80604052505050565b60006116bb82611663565b91507fffffffffffffffffffffffffffffffffffffffffffffffffffffffffffffffff8214156116ee576116ed6116f9565b5b600182019050919050565b7f4e487b7100000000000000000000000000000000000000000000000000000000600052601160045260246000fd5b7f4e487b7100000000000000000000000000000000000000000000000000000000600052603260045260246000fd5b7f4e487b7100000000000000000000000000000000000000000000000000000000600052604160045260246000fd5b600080fd5b600080fd5b600080fd5b600080fd5b6000601f19601f8301169050919050565b7f4572726f723a206c696b6572206d757374206265206f7065726174696e67206160008201527f63636f756e740000000000000000000000000000000000000000000000000000602082015250565b7f4572726f723a206e6f206c696b65727320696e206d656d650000000000000000600082015250565b7f4572726f723a206f6e6c79206465706c6f7965722063616e207061737320736960008201527f676e657220726f6c650000000000000000000000000000000000000000000000602082015250565b61187b8161161b565b811461188657600080fd5b50565b61189281611639565b811461189d57600080fd5b50565b6118a981611663565b81146118b457600080fd5b5056fea2646970667358221220c7624267d4fedafb7039fb4225180ab59976fc6b366dbd46a5d4062c5836e7f364736f6c63430008070033",
  "immutableReferences": {},
  "source": "// SPDX-License-Identifier: MIT\n\npragma solidity >=0.8.0 <0.9.0;\n\nimport \"./UME.sol\";\nimport \"./MemeStorage.sol\";\n\ncontract Like {\n\n  UME private umeToken;\n  MemeStorage private memeStorage;\n\n  address public interfaceSigner;\n\n  event InterfaceSignerChanged(address indexed from, address indexed to);\n\n  constructor(\n    UME _umeToken,\n    MemeStorage _memeStorage\n  ) public {\n    umeToken = _umeToken;\n    memeStorage = _memeStorage;\n    interfaceSigner = msg.sender;\n  }\n\n  // like functions\n  function likeMeme(\n    address _account,\n    bytes32 _memeId\n  ) public {\n    require(\n      msg.sender==interfaceSigner,\n      'Error: liker must be operating account');\n    address[] memory _likers = memeStorage.getLikers(_memeId);\n    uint _likeCount = _likers.length;\n    bool _alreadyLiked = false;\n    bool _unliked = false;\n    // remove like if already liked\n    for(uint i = 0; i < _likeCount; i++) {\n      if(_account==_likers[i]) {\n        _alreadyLiked = true;\n        _unLike(_account, _memeId, _likers, i);\n        _unliked = true;\n        break;\n      }\n    } // check for double like minting\n    address[] memory _unlikers = memeStorage.getUnlikers(_memeId);\n    uint _unlikeCount = _unlikers.length;\n    for(uint i = 0; i < _unlikeCount; i++) {\n      if(_account==_unlikers[i] && _unliked==false) {\n        _alreadyLiked = true;\n        _addLike(_account, _memeId, _likers, _unlikers, i, _alreadyLiked);\n        break;\n      }\n    }\n    if(_alreadyLiked==false && _unliked==false) {\n      _addLike(_account, _memeId, new address[](0), new address[](0), 0, _alreadyLiked);\n      // mint like token\n      if(_account!=memeStorage.getAuthor(_memeId)) {\n        umeToken.mintLike(_account, memeStorage.getAuthor(_memeId));\n        memeStorage.addBoost(_memeId, 5);\n      }\n    }\n  }\n  // setter functions for Meme\n  function _addLike(\n    address _account,\n    bytes32 _memeId,\n    address[] memory _oldLikers,\n    address[] memory _unlikers,\n    uint _index,\n    bool _alreadyLiked\n  ) private {\n    if(_alreadyLiked==true) {\n      memeStorage.setUnlikers(_memeId, _deleteAddress(_unlikers, _index));\n    }\n    uint _oldLikeCount = _oldLikers.length;\n    // set memory to _meme.likers length plus one\n    address[] memory _newLikers = new address[](_oldLikeCount+1);\n\n    // populate address array with existing _meme.likers\n    for(uint i = 0; i < _oldLikeCount; i++) {\n      //require(account!=_meme.likers[i], 'Error: liker has already liked account');\n      _newLikers[i] = _oldLikers[i];\n    }\n    // set _likers value to msg.sender at last slot of array\n    _newLikers[_oldLikeCount] = _account;\n    // set likers field of _meme.likers to _likers\n    memeStorage.setLikers(_memeId, _newLikers);\n  }\n  function _unLike(\n    address _account,\n    bytes32 _memeId,\n    address[] memory _oldLikers,\n    uint _index\n  ) private {\n    require(\n      memeStorage.getLikeCount(_memeId)>0,\n      'Error: no likers in meme');\n    address[] memory _oldUnlikers = memeStorage.getUnlikers(_memeId);\n    // delete liked index, moving all successive elements\n    memeStorage.setLikers(_memeId, _deleteAddress(_oldLikers, _index));\n    uint _oldUnlikeCount = _oldUnlikers.length;\n    // set memory to _meme.unlikers length plus one\n    address[] memory _newUnlikers = new address[](_oldUnlikeCount+1);\n\n    // populate address array with existing _meme.unlikers\n    for(uint i = 0; i < _oldUnlikeCount; i++) {\n      _newUnlikers[i] = _oldUnlikers[i];\n    }\n    // set _unlikers value to msg.sender at last slot of array\n    _newUnlikers[_oldUnlikeCount] = _account;\n    // set unlikers field of _meme.likers to _unlikers\n    memeStorage.setUnlikers(_memeId, _newUnlikers);\n  }\n\n  // helper functions\n  function _deleteAddress(\n    address[] memory array,\n    uint index\n  ) private pure returns(address[] memory) {\n    address[] memory _array = new address[](array.length-1);\n    for(uint i = 0; i < index; i++) {\n      _array[i] = array[i];\n    }\n    for(uint i = index; i < _array.length; i++) {\n      _array[i] = array[i+1];\n    }\n    return _array;\n  }\n\n  // set interfaceSigner role to User upon deployment\n  function passInterfaceSigner(address _userInterface) public returns (bool) {\n    require(\n      msg.sender == interfaceSigner,\n      'Error: only deployer can pass signer role');\n    interfaceSigner = _userInterface;\n    emit InterfaceSignerChanged(msg.sender, _userInterface);\n    return true;\n  }\n}\n",
  "sourcePath": "/Users/jaiq/Documents/000 BLOCKCHAIN/ETH/uMe/src/contracts/Like.sol",
  "compiler": {
    "name": "solc",
    "version": "0.8.7+commit.e28d00a7.Emscripten.clang"
  },
  "schemaVersion": "3.4.3",
  "updatedAt": "2021-09-02T07:10:27.926Z",
  "networkType": "ethereum",
  "devdoc": {
    "kind": "dev",
    "methods": {},
    "version": 1
  },
  "userdoc": {
    "kind": "user",
    "methods": {},
    "version": 1
  }
}