{
  "contractName": "ME",
  "abi": [
    {
      "inputs": [],
      "stateMutability": "payable",
      "type": "constructor"
    },
    {
      "anonymous": false,
      "inputs": [
        {
          "indexed": true,
          "internalType": "address",
          "name": "account",
          "type": "address"
        },
        {
          "indexed": true,
          "internalType": "address",
          "name": "operator",
          "type": "address"
        },
        {
          "indexed": false,
          "internalType": "bool",
          "name": "approved",
          "type": "bool"
        }
      ],
      "name": "ApprovalForAll",
      "type": "event"
    },
    {
      "anonymous": false,
      "inputs": [
        {
          "indexed": false,
          "internalType": "address",
          "name": "account",
          "type": "address"
        },
        {
          "indexed": false,
          "internalType": "uint256",
          "name": "mintTime",
          "type": "uint256"
        },
        {
          "indexed": false,
          "internalType": "string",
          "name": "postHash",
          "type": "string"
        },
        {
          "indexed": false,
          "internalType": "string",
          "name": "originHash",
          "type": "string"
        }
      ],
      "name": "MintCurate",
      "type": "event"
    },
    {
      "anonymous": false,
      "inputs": [
        {
          "indexed": false,
          "internalType": "address",
          "name": "account",
          "type": "address"
        },
        {
          "indexed": false,
          "internalType": "uint256",
          "name": "mintTime",
          "type": "uint256"
        }
      ],
      "name": "MintFollow",
      "type": "event"
    },
    {
      "anonymous": false,
      "inputs": [
        {
          "indexed": false,
          "internalType": "address",
          "name": "account",
          "type": "address"
        },
        {
          "indexed": false,
          "internalType": "uint256",
          "name": "mintTime",
          "type": "uint256"
        },
        {
          "indexed": false,
          "internalType": "string",
          "name": "postHash",
          "type": "string"
        }
      ],
      "name": "MintJury",
      "type": "event"
    },
    {
      "anonymous": false,
      "inputs": [
        {
          "indexed": false,
          "internalType": "address",
          "name": "account",
          "type": "address"
        },
        {
          "indexed": false,
          "internalType": "uint256",
          "name": "mintTime",
          "type": "uint256"
        },
        {
          "indexed": false,
          "internalType": "string",
          "name": "postHash",
          "type": "string"
        }
      ],
      "name": "MintLike",
      "type": "event"
    },
    {
      "anonymous": false,
      "inputs": [
        {
          "indexed": false,
          "internalType": "address",
          "name": "account",
          "type": "address"
        },
        {
          "indexed": false,
          "internalType": "uint256",
          "name": "mintTime",
          "type": "uint256"
        },
        {
          "indexed": false,
          "internalType": "string",
          "name": "postHash",
          "type": "string"
        }
      ],
      "name": "MintPost",
      "type": "event"
    },
    {
      "anonymous": false,
      "inputs": [
        {
          "indexed": false,
          "internalType": "address",
          "name": "account",
          "type": "address"
        },
        {
          "indexed": false,
          "internalType": "uint256",
          "name": "mintTime",
          "type": "uint256"
        },
        {
          "indexed": false,
          "internalType": "string",
          "name": "postHash",
          "type": "string"
        },
        {
          "indexed": false,
          "internalType": "string",
          "name": "originHash",
          "type": "string"
        }
      ],
      "name": "MintRespond",
      "type": "event"
    },
    {
      "anonymous": false,
      "inputs": [
        {
          "indexed": false,
          "internalType": "address",
          "name": "account",
          "type": "address"
        },
        {
          "indexed": false,
          "internalType": "uint256",
          "name": "mintTime",
          "type": "uint256"
        }
      ],
      "name": "MintTag",
      "type": "event"
    },
    {
      "anonymous": false,
      "inputs": [
        {
          "indexed": true,
          "internalType": "address",
          "name": "operator",
          "type": "address"
        },
        {
          "indexed": true,
          "internalType": "address",
          "name": "from",
          "type": "address"
        },
        {
          "indexed": true,
          "internalType": "address",
          "name": "to",
          "type": "address"
        },
        {
          "indexed": false,
          "internalType": "uint256[]",
          "name": "ids",
          "type": "uint256[]"
        },
        {
          "indexed": false,
          "internalType": "uint256[]",
          "name": "values",
          "type": "uint256[]"
        }
      ],
      "name": "TransferBatch",
      "type": "event"
    },
    {
      "anonymous": false,
      "inputs": [
        {
          "indexed": true,
          "internalType": "address",
          "name": "operator",
          "type": "address"
        },
        {
          "indexed": true,
          "internalType": "address",
          "name": "from",
          "type": "address"
        },
        {
          "indexed": true,
          "internalType": "address",
          "name": "to",
          "type": "address"
        },
        {
          "indexed": false,
          "internalType": "uint256",
          "name": "id",
          "type": "uint256"
        },
        {
          "indexed": false,
          "internalType": "uint256",
          "name": "value",
          "type": "uint256"
        }
      ],
      "name": "TransferSingle",
      "type": "event"
    },
    {
      "anonymous": false,
      "inputs": [
        {
          "indexed": false,
          "internalType": "string",
          "name": "value",
          "type": "string"
        },
        {
          "indexed": true,
          "internalType": "uint256",
          "name": "id",
          "type": "uint256"
        }
      ],
      "name": "URI",
      "type": "event"
    },
    {
      "inputs": [],
      "name": "CURATE",
      "outputs": [
        {
          "internalType": "uint256",
          "name": "",
          "type": "uint256"
        }
      ],
      "stateMutability": "view",
      "type": "function"
    },
    {
      "inputs": [],
      "name": "FOLLOW",
      "outputs": [
        {
          "internalType": "uint256",
          "name": "",
          "type": "uint256"
        }
      ],
      "stateMutability": "view",
      "type": "function"
    },
    {
      "inputs": [],
      "name": "JURY",
      "outputs": [
        {
          "internalType": "uint256",
          "name": "",
          "type": "uint256"
        }
      ],
      "stateMutability": "view",
      "type": "function"
    },
    {
      "inputs": [],
      "name": "LIKE",
      "outputs": [
        {
          "internalType": "uint256",
          "name": "",
          "type": "uint256"
        }
      ],
      "stateMutability": "view",
      "type": "function"
    },
    {
      "inputs": [],
      "name": "POST",
      "outputs": [
        {
          "internalType": "uint256",
          "name": "",
          "type": "uint256"
        }
      ],
      "stateMutability": "view",
      "type": "function"
    },
    {
      "inputs": [],
      "name": "RESPOND",
      "outputs": [
        {
          "internalType": "uint256",
          "name": "",
          "type": "uint256"
        }
      ],
      "stateMutability": "view",
      "type": "function"
    },
    {
      "inputs": [],
      "name": "TAG",
      "outputs": [
        {
          "internalType": "uint256",
          "name": "",
          "type": "uint256"
        }
      ],
      "stateMutability": "view",
      "type": "function"
    },
    {
      "inputs": [
        {
          "internalType": "address",
          "name": "account",
          "type": "address"
        },
        {
          "internalType": "uint256",
          "name": "id",
          "type": "uint256"
        }
      ],
      "name": "balanceOf",
      "outputs": [
        {
          "internalType": "uint256",
          "name": "",
          "type": "uint256"
        }
      ],
      "stateMutability": "view",
      "type": "function"
    },
    {
      "inputs": [
        {
          "internalType": "address[]",
          "name": "accounts",
          "type": "address[]"
        },
        {
          "internalType": "uint256[]",
          "name": "ids",
          "type": "uint256[]"
        }
      ],
      "name": "balanceOfBatch",
      "outputs": [
        {
          "internalType": "uint256[]",
          "name": "",
          "type": "uint256[]"
        }
      ],
      "stateMutability": "view",
      "type": "function"
    },
    {
      "inputs": [
        {
          "internalType": "address",
          "name": "account",
          "type": "address"
        },
        {
          "internalType": "address",
          "name": "operator",
          "type": "address"
        }
      ],
      "name": "isApprovedForAll",
      "outputs": [
        {
          "internalType": "bool",
          "name": "",
          "type": "bool"
        }
      ],
      "stateMutability": "view",
      "type": "function"
    },
    {
      "inputs": [
        {
          "internalType": "address",
          "name": "from",
          "type": "address"
        },
        {
          "internalType": "address",
          "name": "to",
          "type": "address"
        },
        {
          "internalType": "uint256[]",
          "name": "ids",
          "type": "uint256[]"
        },
        {
          "internalType": "uint256[]",
          "name": "amounts",
          "type": "uint256[]"
        },
        {
          "internalType": "bytes",
          "name": "data",
          "type": "bytes"
        }
      ],
      "name": "safeBatchTransferFrom",
      "outputs": [],
      "stateMutability": "nonpayable",
      "type": "function"
    },
    {
      "inputs": [
        {
          "internalType": "address",
          "name": "from",
          "type": "address"
        },
        {
          "internalType": "address",
          "name": "to",
          "type": "address"
        },
        {
          "internalType": "uint256",
          "name": "id",
          "type": "uint256"
        },
        {
          "internalType": "uint256",
          "name": "amount",
          "type": "uint256"
        },
        {
          "internalType": "bytes",
          "name": "data",
          "type": "bytes"
        }
      ],
      "name": "safeTransferFrom",
      "outputs": [],
      "stateMutability": "nonpayable",
      "type": "function"
    },
    {
      "inputs": [
        {
          "internalType": "address",
          "name": "operator",
          "type": "address"
        },
        {
          "internalType": "bool",
          "name": "approved",
          "type": "bool"
        }
      ],
      "name": "setApprovalForAll",
      "outputs": [],
      "stateMutability": "nonpayable",
      "type": "function"
    },
    {
      "inputs": [
        {
          "internalType": "bytes4",
          "name": "interfaceId",
          "type": "bytes4"
        }
      ],
      "name": "supportsInterface",
      "outputs": [
        {
          "internalType": "bool",
          "name": "",
          "type": "bool"
        }
      ],
      "stateMutability": "view",
      "type": "function"
    },
    {
      "inputs": [
        {
          "internalType": "uint256",
          "name": "",
          "type": "uint256"
        }
      ],
      "name": "uri",
      "outputs": [
        {
          "internalType": "string",
          "name": "",
          "type": "string"
        }
      ],
      "stateMutability": "view",
      "type": "function"
    },
    {
      "inputs": [],
      "name": "user",
      "outputs": [
        {
          "internalType": "address",
          "name": "",
          "type": "address"
        }
      ],
      "stateMutability": "view",
      "type": "function"
    },
    {
      "inputs": [
        {
          "internalType": "address",
          "name": "account",
          "type": "address"
        },
        {
          "internalType": "string",
          "name": "_postHash",
          "type": "string"
        },
        {
          "internalType": "string",
          "name": "_postText",
          "type": "string"
        }
      ],
      "name": "mintPost",
      "outputs": [],
      "stateMutability": "nonpayable",
      "type": "function"
    },
    {
      "inputs": [
        {
          "internalType": "address",
          "name": "accountFrom",
          "type": "address"
        },
        {
          "internalType": "address",
          "name": "accountTo",
          "type": "address"
        },
        {
          "internalType": "string",
          "name": "_postHash",
          "type": "string"
        }
      ],
      "name": "mintLike",
      "outputs": [],
      "stateMutability": "nonpayable",
      "type": "function"
    },
    {
      "inputs": [
        {
          "internalType": "address",
          "name": "accountFrom",
          "type": "address"
        },
        {
          "internalType": "address",
          "name": "accountTo",
          "type": "address"
        },
        {
          "internalType": "string",
          "name": "_postHash",
          "type": "string"
        }
      ],
      "name": "mintTag",
      "outputs": [],
      "stateMutability": "nonpayable",
      "type": "function"
    },
    {
      "inputs": [
        {
          "internalType": "address",
          "name": "accountFrom",
          "type": "address"
        },
        {
          "internalType": "address",
          "name": "accountTo",
          "type": "address"
        }
      ],
      "name": "mintFollow",
      "outputs": [],
      "stateMutability": "nonpayable",
      "type": "function"
    },
    {
      "inputs": [
        {
          "internalType": "address",
          "name": "accountFrom",
          "type": "address"
        },
        {
          "internalType": "address",
          "name": "accountTo",
          "type": "address"
        },
        {
          "internalType": "string",
          "name": "_postHash",
          "type": "string"
        },
        {
          "internalType": "string",
          "name": "_originHash",
          "type": "string"
        }
      ],
      "name": "mintRespond",
      "outputs": [],
      "stateMutability": "nonpayable",
      "type": "function"
    },
    {
      "inputs": [
        {
          "internalType": "address",
          "name": "accountFrom",
          "type": "address"
        },
        {
          "internalType": "address",
          "name": "accountTo",
          "type": "address"
        },
        {
          "internalType": "string",
          "name": "_postHash",
          "type": "string"
        },
        {
          "internalType": "string",
          "name": "_originHash",
          "type": "string"
        }
      ],
      "name": "mintCurate",
      "outputs": [],
      "stateMutability": "nonpayable",
      "type": "function"
    },
    {
      "inputs": [
        {
          "internalType": "address",
          "name": "account",
          "type": "address"
        },
        {
          "internalType": "string",
          "name": "_postHash",
          "type": "string"
        },
        {
          "internalType": "bool",
          "name": "consensusReached",
          "type": "bool"
        }
      ],
      "name": "mintJury",
      "outputs": [],
      "stateMutability": "nonpayable",
      "type": "function"
    }
  ],
  "bytecode": "0x60806040526040518060400160405280600481526020017f7b69647d000000000000000000000000000000000000000000000000000000008152506200004b816200015460201b60201c565b506200007033600080604051806020016040528060008152506200017060201b60201c565b620000953360016000604051806020016040528060008152506200017060201b60201c565b620000ba3360026000604051806020016040528060008152506200017060201b60201c565b620000df3360036000604051806020016040528060008152506200017060201b60201c565b620001043360046000604051806020016040528060008152506200017060201b60201c565b620001293360056000604051806020016040528060008152506200017060201b60201c565b6200014e3360066000604051806020016040528060008152506200017060201b60201c565b62000d68565b80600290805190602001906200016c929190620005e3565b5050565b600073ffffffffffffffffffffffffffffffffffffffff168473ffffffffffffffffffffffffffffffffffffffff161415620001e3576040517f08c379a0000000000000000000000000000000000000000000000000000000008152600401620001da90620008c1565b60405180910390fd5b6000620001f56200033560201b60201c565b90506200022e8160008762000210886200033d60201b60201c565b62000221886200033d60201b60201c565b87620003be60201b60201c565b8260008086815260200190815260200160002060008773ffffffffffffffffffffffffffffffffffffffff1673ffffffffffffffffffffffffffffffffffffffff16815260200190815260200160002060008282546200028f919062000952565b925050819055508473ffffffffffffffffffffffffffffffffffffffff16600073ffffffffffffffffffffffffffffffffffffffff168273ffffffffffffffffffffffffffffffffffffffff167fc3d58168c5ae7397731d063d5bbf3d657854427343f4c083240f7aacaa2d0f6287876040516200030f929190620008e3565b60405180910390a46200032e81600087878787620003c660201b60201c565b5050505050565b600033905090565b60606000600167ffffffffffffffff8111156200035f576200035e62000b48565b5b6040519080825280602002602001820160405280156200038e5781602001602082028036833780820191505090505b5090508281600081518110620003a957620003a862000b19565b5b60200260200101818152505080915050919050565b505050505050565b620003f28473ffffffffffffffffffffffffffffffffffffffff16620005d060201b620016521760201c565b15620005c8578373ffffffffffffffffffffffffffffffffffffffff1663f23a6e6187878686866040518663ffffffff1660e01b81526004016200043b959493929190620007f5565b602060405180830381600087803b1580156200045657600080fd5b505af19250505080156200048a57506040513d601f19601f82011682018060405250810190620004879190620006aa565b60015b6200053c576200049962000b77565b806308c379a01415620004fd5750620004b162000cac565b80620004be5750620004ff565b806040517f08c379a0000000000000000000000000000000000000000000000000000000008152600401620004f4919062000859565b60405180910390fd5b505b6040517f08c379a000000000000000000000000000000000000000000000000000000000815260040162000533906200087d565b60405180910390fd5b63f23a6e6160e01b7bffffffffffffffffffffffffffffffffffffffffffffffffffffffff1916817bffffffffffffffffffffffffffffffffffffffffffffffffffffffff191614620005c6576040517f08c379a0000000000000000000000000000000000000000000000000000000008152600401620005bd906200089f565b60405180910390fd5b505b505050505050565b600080823b905060008111915050919050565b828054620005f19062000a4f565b90600052602060002090601f01602090048101928262000615576000855562000661565b82601f106200063057805160ff191683800117855562000661565b8280016001018555821562000661579182015b828111156200066057825182559160200191906001019062000643565b5b50905062000670919062000674565b5090565b5b808211156200068f57600081600090555060010162000675565b5090565b600081519050620006a48162000d4e565b92915050565b600060208284031215620006c357620006c262000b9c565b5b6000620006d38482850162000693565b91505092915050565b620006e781620009af565b82525050565b6000620006fa826200091a565b62000706818562000930565b93506200071881856020860162000a19565b620007238162000ba1565b840191505092915050565b60006200073b8262000925565b62000747818562000941565b93506200075981856020860162000a19565b620007648162000ba1565b840191505092915050565b60006200077e60348362000941565b91506200078b8262000bbf565b604082019050919050565b6000620007a560288362000941565b9150620007b28262000c0e565b604082019050919050565b6000620007cc60218362000941565b9150620007d98262000c5d565b604082019050919050565b620007ef8162000a0f565b82525050565b600060a0820190506200080c6000830188620006dc565b6200081b6020830187620006dc565b6200082a6040830186620007e4565b620008396060830185620007e4565b81810360808301526200084d8184620006ed565b90509695505050505050565b600060208201905081810360008301526200087581846200072e565b905092915050565b6000602082019050818103600083015262000898816200076f565b9050919050565b60006020820190508181036000830152620008ba8162000796565b9050919050565b60006020820190508181036000830152620008dc81620007bd565b9050919050565b6000604082019050620008fa6000830185620007e4565b620009096020830184620007e4565b9392505050565b6000604051905090565b600081519050919050565b600081519050919050565b600082825260208201905092915050565b600082825260208201905092915050565b60006200095f8262000a0f565b91506200096c8362000a0f565b9250827fffffffffffffffffffffffffffffffffffffffffffffffffffffffffffffffff03821115620009a457620009a362000abb565b5b828201905092915050565b6000620009bc82620009ef565b9050919050565b60007fffffffff0000000000000000000000000000000000000000000000000000000082169050919050565b600073ffffffffffffffffffffffffffffffffffffffff82169050919050565b6000819050919050565b60005b8381101562000a3957808201518184015260208101905062000a1c565b8381111562000a49576000848401525b50505050565b6000600282049050600182168062000a6857607f821691505b6020821081141562000a7f5762000a7e62000aea565b5b50919050565b62000a908262000ba1565b810181811067ffffffffffffffff8211171562000ab25762000ab162000b48565b5b80604052505050565b7f4e487b7100000000000000000000000000000000000000000000000000000000600052601160045260246000fd5b7f4e487b7100000000000000000000000000000000000000000000000000000000600052602260045260246000fd5b7f4e487b7100000000000000000000000000000000000000000000000000000000600052603260045260246000fd5b7f4e487b7100000000000000000000000000000000000000000000000000000000600052604160045260246000fd5b600060033d111562000b995760046000803e62000b9660005162000bb2565b90505b90565b600080fd5b6000601f19601f8301169050919050565b60008160e01c9050919050565b7f455243313135353a207472616e7366657220746f206e6f6e204552433131353560008201527f526563656976657220696d706c656d656e746572000000000000000000000000602082015250565b7f455243313135353a204552433131353552656365697665722072656a6563746560008201527f6420746f6b656e73000000000000000000000000000000000000000000000000602082015250565b7f455243313135353a206d696e7420746f20746865207a65726f2061646472657360008201527f7300000000000000000000000000000000000000000000000000000000000000602082015250565b600060443d101562000cbe5762000d4b565b62000cc862000910565b60043d036004823e80513d602482011167ffffffffffffffff8211171562000cf257505062000d4b565b808201805167ffffffffffffffff81111562000d12575050505062000d4b565b80602083010160043d03850181111562000d3157505050505062000d4b565b62000d428260200185018662000a85565b82955050505050505b90565b62000d5981620009c3565b811462000d6557600080fd5b50565b613ad58062000d786000396000f3fe608060405234801561001057600080fd5b506004361061014c5760003560e01c806351ef37b0116100c3578063c2107d021161007c578063c2107d0214610387578063db7895e2146103a5578063e792a39c146103c3578063e96428a7146103e1578063e985e9c5146103fd578063f242432a1461042d5761014c565b806351ef37b0146102db578063639bee54146102f95780637f49d9741461031557806393a3855714610333578063a22cb4651461034f578063a272624a1461036b5761014c565b80632eb2c2d6116101155780632eb2c2d6146102195780633481c8bd1461023557806347221ac7146102515780634880008d1461026f5780634e1273f41461028d5780634f8632ba146102bd5761014c565b8062fdd58e1461015157806301ffc9a7146101815780630e89341c146101b157806312142150146101e15780632d599ba5146101fd575b600080fd5b61016b600480360381019061016691906128c6565b610449565b6040516101789190613143565b60405180910390f35b61019b6004803603810190610196919061297e565b610512565b6040516101a89190612f26565b60405180910390f35b6101cb60048036038101906101c691906129d8565b6105f4565b6040516101d89190612f41565b60405180910390f35b6101fb60048036038101906101f691906127cc565b610688565b005b610217600480360381019061021291906124d8565b6107e4565b005b610233600480360381019061022e9190612518565b610970565b005b61024f600480360381019061024a9190612656565b610a11565b005b610259610bce565b6040516102669190613143565b60405180910390f35b610277610bd3565b6040516102849190613143565b60405180910390f35b6102a760048036038101906102a29190612906565b610bd8565b6040516102b49190612ecd565b60405180910390f35b6102c5610cf1565b6040516102d29190612d36565b60405180910390f35b6102e3610d17565b6040516102f09190613143565b60405180910390f35b610313600480360381019061030e919061283b565b610d1c565b005b61031d610e60565b60405161032a9190613143565b60405180910390f35b61034d60048036038101906103489190612656565b610e65565b005b6103696004803603810190610364919061278c565b611022565b005b610385600480360381019061038091906125e7565b6111a3565b005b61038f611357565b60405161039c9190613143565b60405180910390f35b6103ad61135c565b6040516103ba9190613143565b60405180910390f35b6103cb611361565b6040516103d89190613143565b60405180910390f35b6103fb60048036038101906103f691906125e7565b611366565b005b610417600480360381019061041291906124d8565b61151d565b6040516104249190612f26565b60405180910390f35b610447600480360381019061044291906126f5565b6115b1565b005b60008073ffffffffffffffffffffffffffffffffffffffff168373ffffffffffffffffffffffffffffffffffffffff1614156104ba576040517f08c379a00000000000000000000000000000000000000000000000000000000081526004016104b190612fa3565b60405180910390fd5b60008083815260200190815260200160002060008473ffffffffffffffffffffffffffffffffffffffff1673ffffffffffffffffffffffffffffffffffffffff16815260200190815260200160002054905092915050565b60007fd9b67a26000000000000000000000000000000000000000000000000000000007bffffffffffffffffffffffffffffffffffffffffffffffffffffffff1916827bffffffffffffffffffffffffffffffffffffffffffffffffffffffff191614806105dd57507f0e89341c000000000000000000000000000000000000000000000000000000007bffffffffffffffffffffffffffffffffffffffffffffffffffffffff1916827bffffffffffffffffffffffffffffffffffffffffffffffffffffffff1916145b806105ed57506105ec82611665565b5b9050919050565b606060028054610603906133e3565b80601f016020809104026020016040519081016040528092919081815260200182805461062f906133e3565b801561067c5780601f106106515761010080835404028352916020019161067c565b820191906000526020600020905b81548152906001019060200180831161065f57829003601f168201915b50505050509050919050565b8273ffffffffffffffffffffffffffffffffffffffff163373ffffffffffffffffffffffffffffffffffffffff16146106f6576040517f08c379a00000000000000000000000000000000000000000000000000000000081526004016106ed906130e3565b60405180910390fd5b600082511161073a576040517f08c379a000000000000000000000000000000000000000000000000000000000815260040161073190613043565b60405180910390fd5b600115158115151415610795576107558360066005856116cf565b7f76e82f07cc2db7496e9c618ccb86fc154fb6ef0bf201e3843eda82bef6fdfe4a83428460405161078893929190612e3c565b60405180910390a16107df565b6107a38360066001856116cf565b7f76e82f07cc2db7496e9c618ccb86fc154fb6ef0bf201e3843eda82bef6fdfe4a8342846040516107d693929190612e3c565b60405180910390a15b505050565b8173ffffffffffffffffffffffffffffffffffffffff163373ffffffffffffffffffffffffffffffffffffffff1614610852576040517f08c379a0000000000000000000000000000000000000000000000000000000008152600401610849906130e3565b60405180910390fd5b8073ffffffffffffffffffffffffffffffffffffffff168273ffffffffffffffffffffffffffffffffffffffff1614156108c1576040517f08c379a00000000000000000000000000000000000000000000000000000000081526004016108b890613083565b60405180910390fd5b6108de8260036001604051806020016040528060008152506116cf565b7f014d3cc46c6fb8a9e0083dde8a8ca93f702141fcb5223e658833757513a49e94824260405161090f929190612e13565b60405180910390a161093381600380604051806020016040528060008152506116cf565b7f014d3cc46c6fb8a9e0083dde8a8ca93f702141fcb5223e658833757513a49e948142604051610964929190612e13565b60405180910390a15050565b610978611865565b73ffffffffffffffffffffffffffffffffffffffff168573ffffffffffffffffffffffffffffffffffffffff1614806109be57506109bd856109b8611865565b61151d565b5b6109fd576040517f08c379a00000000000000000000000000000000000000000000000000000000081526004016109f490613003565b60405180910390fd5b610a0a858585858561186d565b5050505050565b8373ffffffffffffffffffffffffffffffffffffffff163373ffffffffffffffffffffffffffffffffffffffff1614610a7f576040517f08c379a0000000000000000000000000000000000000000000000000000000008152600401610a76906130e3565b60405180910390fd5b8273ffffffffffffffffffffffffffffffffffffffff168473ffffffffffffffffffffffffffffffffffffffff161415610aee576040517f08c379a0000000000000000000000000000000000000000000000000000000008152600401610ae590613083565b60405180910390fd5b6000825111610b32576040517f08c379a0000000000000000000000000000000000000000000000000000000008152600401610b2990613043565b60405180910390fd5b610b408460056001856116cf565b7f70fee18b365e1ff69a83a39d12f41dcc2c0b9069b95d2ee310cd0bf87a7db04884428484604051610b759493929190612e7a565b60405180910390a1610b8b8360056002856116cf565b7f70fee18b365e1ff69a83a39d12f41dcc2c0b9069b95d2ee310cd0bf87a7db04883428484604051610bc09493929190612e7a565b60405180910390a150505050565b600281565b600381565b60608151835114610c1e576040517f08c379a0000000000000000000000000000000000000000000000000000000008152600401610c15906130c3565b60405180910390fd5b6000835167ffffffffffffffff811115610c3b57610c3a61351c565b5b604051908082528060200260200182016040528015610c695781602001602082028036833780820191505090505b50905060005b8451811015610ce657610cb6858281518110610c8e57610c8d6134ed565b5b6020026020010151858381518110610ca957610ca86134ed565b5b6020026020010151610449565b828281518110610cc957610cc86134ed565b5b60200260200101818152505080610cdf90613446565b9050610c6f565b508091505092915050565b600360009054906101000a900473ffffffffffffffffffffffffffffffffffffffff1681565b600581565b8273ffffffffffffffffffffffffffffffffffffffff163373ffffffffffffffffffffffffffffffffffffffff1614610d8a576040517f08c379a0000000000000000000000000000000000000000000000000000000008152600401610d81906130e3565b60405180910390fd5b6000825111610dce576040517f08c379a0000000000000000000000000000000000000000000000000000000008152600401610dc590613043565b60405180910390fd5b6000815111610e12576040517f08c379a0000000000000000000000000000000000000000000000000000000008152600401610e0990613023565b60405180910390fd5b610e208360006001856116cf565b7fcf6ddac72cc8dc67f435a5ce8400a69049326b04f32a57d5e7fdb4bcbb9563df834284604051610e5393929190612e3c565b60405180910390a1505050565b600181565b8373ffffffffffffffffffffffffffffffffffffffff163373ffffffffffffffffffffffffffffffffffffffff1614610ed3576040517f08c379a0000000000000000000000000000000000000000000000000000000008152600401610eca906130e3565b60405180910390fd5b8273ffffffffffffffffffffffffffffffffffffffff168473ffffffffffffffffffffffffffffffffffffffff161415610f42576040517f08c379a0000000000000000000000000000000000000000000000000000000008152600401610f3990613083565b60405180910390fd5b6000825111610f86576040517f08c379a0000000000000000000000000000000000000000000000000000000008152600401610f7d90613043565b60405180910390fd5b610f948460046001856116cf565b7fa097846f4061c36583ab51b57f3c5747cb180642c7d21af89c4ce8c40e18ef8484428484604051610fc99493929190612e7a565b60405180910390a1610fdf8360046002856116cf565b7fa097846f4061c36583ab51b57f3c5747cb180642c7d21af89c4ce8c40e18ef84834284846040516110149493929190612e7a565b60405180910390a150505050565b8173ffffffffffffffffffffffffffffffffffffffff16611041611865565b73ffffffffffffffffffffffffffffffffffffffff161415611098576040517f08c379a000000000000000000000000000000000000000000000000000000000815260040161108f906130a3565b60405180910390fd5b80600160006110a5611865565b73ffffffffffffffffffffffffffffffffffffffff1673ffffffffffffffffffffffffffffffffffffffff16815260200190815260200160002060008473ffffffffffffffffffffffffffffffffffffffff1673ffffffffffffffffffffffffffffffffffffffff16815260200190815260200160002060006101000a81548160ff0219169083151502179055508173ffffffffffffffffffffffffffffffffffffffff16611152611865565b73ffffffffffffffffffffffffffffffffffffffff167f17307eab39ab6107e8899845ad3d59bd9653f200f220920489ca2b5937696c31836040516111979190612f26565b60405180910390a35050565b8273ffffffffffffffffffffffffffffffffffffffff163373ffffffffffffffffffffffffffffffffffffffff1614611211576040517f08c379a0000000000000000000000000000000000000000000000000000000008152600401611208906130e3565b60405180910390fd5b8173ffffffffffffffffffffffffffffffffffffffff168373ffffffffffffffffffffffffffffffffffffffff161415611280576040517f08c379a000000000000000000000000000000000000000000000000000000000815260040161127790613083565b60405180910390fd5b60008151116112c4576040517f08c379a00000000000000000000000000000000000000000000000000000000081526004016112bb90613043565b60405180910390fd5b6112d28360026001846116cf565b7feba44b8896873bc070d9380fc706cab9237e61d47d01b473ffe02fd8bc4c6af28342604051611303929190612e13565b60405180910390a16113198260026003846116cf565b7feba44b8896873bc070d9380fc706cab9237e61d47d01b473ffe02fd8bc4c6af2824260405161134a929190612e13565b60405180910390a1505050565b600081565b600681565b600481565b8273ffffffffffffffffffffffffffffffffffffffff163373ffffffffffffffffffffffffffffffffffffffff16146113d4576040517f08c379a00000000000000000000000000000000000000000000000000000000081526004016113cb906130e3565b60405180910390fd5b8173ffffffffffffffffffffffffffffffffffffffff168373ffffffffffffffffffffffffffffffffffffffff161415611443576040517f08c379a000000000000000000000000000000000000000000000000000000000815260040161143a90613083565b60405180910390fd5b6000815111611487576040517f08c379a000000000000000000000000000000000000000000000000000000000815260040161147e90613043565b60405180910390fd5b61149483600180846116cf565b7f7403f64244a118a79538ef663453e5bbf8ea9f02209957f5b23e82c220d511368342836040516114c793929190612e3c565b60405180910390a16114dd8260016003846116cf565b7f7403f64244a118a79538ef663453e5bbf8ea9f02209957f5b23e82c220d5113682428360405161151093929190612e3c565b60405180910390a1505050565b6000600160008473ffffffffffffffffffffffffffffffffffffffff1673ffffffffffffffffffffffffffffffffffffffff16815260200190815260200160002060008373ffffffffffffffffffffffffffffffffffffffff1673ffffffffffffffffffffffffffffffffffffffff16815260200190815260200160002060009054906101000a900460ff16905092915050565b6115b9611865565b73ffffffffffffffffffffffffffffffffffffffff168573ffffffffffffffffffffffffffffffffffffffff1614806115ff57506115fe856115f9611865565b61151d565b5b61163e576040517f08c379a000000000000000000000000000000000000000000000000000000000815260040161163590612fc3565b60405180910390fd5b61164b8585858585611b81565b5050505050565b600080823b905060008111915050919050565b60007f01ffc9a7000000000000000000000000000000000000000000000000000000007bffffffffffffffffffffffffffffffffffffffffffffffffffffffff1916827bffffffffffffffffffffffffffffffffffffffffffffffffffffffff1916149050919050565b600073ffffffffffffffffffffffffffffffffffffffff168473ffffffffffffffffffffffffffffffffffffffff16141561173f576040517f08c379a000000000000000000000000000000000000000000000000000000000815260040161173690613123565b60405180910390fd5b6000611749611865565b905061176a8160008761175b88611e03565b61176488611e03565b87611e7d565b8260008086815260200190815260200160002060008773ffffffffffffffffffffffffffffffffffffffff1673ffffffffffffffffffffffffffffffffffffffff16815260200190815260200160002060008282546117c991906132d7565b925050819055508473ffffffffffffffffffffffffffffffffffffffff16600073ffffffffffffffffffffffffffffffffffffffff168273ffffffffffffffffffffffffffffffffffffffff167fc3d58168c5ae7397731d063d5bbf3d657854427343f4c083240f7aacaa2d0f62878760405161184792919061315e565b60405180910390a461185e81600087878787611e85565b5050505050565b600033905090565b81518351146118b1576040517f08c379a00000000000000000000000000000000000000000000000000000000081526004016118a890613103565b60405180910390fd5b600073ffffffffffffffffffffffffffffffffffffffff168473ffffffffffffffffffffffffffffffffffffffff161415611921576040517f08c379a000000000000000000000000000000000000000000000000000000000815260040161191890612fe3565b60405180910390fd5b600061192b611865565b905061193b818787878787611e7d565b60005b8451811015611aec57600085828151811061195c5761195b6134ed565b5b60200260200101519050600085838151811061197b5761197a6134ed565b5b60200260200101519050600080600084815260200190815260200160002060008b73ffffffffffffffffffffffffffffffffffffffff1673ffffffffffffffffffffffffffffffffffffffff16815260200190815260200160002054905081811015611a1c576040517f08c379a0000000000000000000000000000000000000000000000000000000008152600401611a1390613063565b60405180910390fd5b81810360008085815260200190815260200160002060008c73ffffffffffffffffffffffffffffffffffffffff1673ffffffffffffffffffffffffffffffffffffffff168152602001908152602001600020819055508160008085815260200190815260200160002060008b73ffffffffffffffffffffffffffffffffffffffff1673ffffffffffffffffffffffffffffffffffffffff1681526020019081526020016000206000828254611ad191906132d7565b9250508190555050505080611ae590613446565b905061193e565b508473ffffffffffffffffffffffffffffffffffffffff168673ffffffffffffffffffffffffffffffffffffffff168273ffffffffffffffffffffffffffffffffffffffff167f4a39dc06d4c0dbc64b70af90fd698a233a518aa5d07e595d983b8c0526c8f7fb8787604051611b63929190612eef565b60405180910390a4611b7981878787878761206c565b505050505050565b600073ffffffffffffffffffffffffffffffffffffffff168473ffffffffffffffffffffffffffffffffffffffff161415611bf1576040517f08c379a0000000000000000000000000000000000000000000000000000000008152600401611be890612fe3565b60405180910390fd5b6000611bfb611865565b9050611c1b818787611c0c88611e03565b611c1588611e03565b87611e7d565b600080600086815260200190815260200160002060008873ffffffffffffffffffffffffffffffffffffffff1673ffffffffffffffffffffffffffffffffffffffff16815260200190815260200160002054905083811015611cb2576040517f08c379a0000000000000000000000000000000000000000000000000000000008152600401611ca990613063565b60405180910390fd5b83810360008087815260200190815260200160002060008973ffffffffffffffffffffffffffffffffffffffff1673ffffffffffffffffffffffffffffffffffffffff168152602001908152602001600020819055508360008087815260200190815260200160002060008873ffffffffffffffffffffffffffffffffffffffff1673ffffffffffffffffffffffffffffffffffffffff1681526020019081526020016000206000828254611d6791906132d7565b925050819055508573ffffffffffffffffffffffffffffffffffffffff168773ffffffffffffffffffffffffffffffffffffffff168373ffffffffffffffffffffffffffffffffffffffff167fc3d58168c5ae7397731d063d5bbf3d657854427343f4c083240f7aacaa2d0f628888604051611de492919061315e565b60405180910390a4611dfa828888888888611e85565b50505050505050565b60606000600167ffffffffffffffff811115611e2257611e2161351c565b5b604051908082528060200260200182016040528015611e505781602001602082028036833780820191505090505b5090508281600081518110611e6857611e676134ed565b5b60200260200101818152505080915050919050565b505050505050565b611ea48473ffffffffffffffffffffffffffffffffffffffff16611652565b15612064578373ffffffffffffffffffffffffffffffffffffffff1663f23a6e6187878686866040518663ffffffff1660e01b8152600401611eea959493929190612db9565b602060405180830381600087803b158015611f0457600080fd5b505af1925050508015611f3557506040513d601f19601f82011682018060405250810190611f3291906129ab565b60015b611fdb57611f4161354b565b806308c379a01415611f9e5750611f566139ad565b80611f615750611fa0565b806040517f08c379a0000000000000000000000000000000000000000000000000000000008152600401611f959190612f41565b60405180910390fd5b505b6040517f08c379a0000000000000000000000000000000000000000000000000000000008152600401611fd290612f63565b60405180910390fd5b63f23a6e6160e01b7bffffffffffffffffffffffffffffffffffffffffffffffffffffffff1916817bffffffffffffffffffffffffffffffffffffffffffffffffffffffff191614612062576040517f08c379a000000000000000000000000000000000000000000000000000000000815260040161205990612f83565b60405180910390fd5b505b505050505050565b61208b8473ffffffffffffffffffffffffffffffffffffffff16611652565b1561224b578373ffffffffffffffffffffffffffffffffffffffff1663bc197c8187878686866040518663ffffffff1660e01b81526004016120d1959493929190612d51565b602060405180830381600087803b1580156120eb57600080fd5b505af192505050801561211c57506040513d601f19601f8201168201806040525081019061211991906129ab565b60015b6121c25761212861354b565b806308c379a01415612185575061213d6139ad565b806121485750612187565b806040517f08c379a000000000000000000000000000000000000000000000000000000000815260040161217c9190612f41565b60405180910390fd5b505b6040517f08c379a00000000000000000000000000000000000000000000000000000000081526004016121b990612f63565b60405180910390fd5b63bc197c8160e01b7bffffffffffffffffffffffffffffffffffffffffffffffffffffffff1916817bffffffffffffffffffffffffffffffffffffffffffffffffffffffff191614612249576040517f08c379a000000000000000000000000000000000000000000000000000000000815260040161224090612f83565b60405180910390fd5b505b505050505050565b6000612266612261846131ac565b613187565b9050808382526020820190508285602086028201111561228957612288613572565b5b60005b858110156122b9578161229f88826123b7565b84526020840193506020830192505060018101905061228c565b5050509392505050565b60006122d66122d1846131d8565b613187565b905080838252602082019050828560208602820111156122f9576122f8613572565b5b60005b85811015612329578161230f88826124c3565b8452602084019350602083019250506001810190506122fc565b5050509392505050565b600061234661234184613204565b613187565b90508281526020810184848401111561236257612361613577565b5b61236d8482856133a1565b509392505050565b600061238861238384613235565b613187565b9050828152602081018484840111156123a4576123a3613577565b5b6123af8482856133a1565b509392505050565b6000813590506123c681613a43565b92915050565b600082601f8301126123e1576123e061356d565b5b81356123f1848260208601612253565b91505092915050565b600082601f83011261240f5761240e61356d565b5b813561241f8482602086016122c3565b91505092915050565b60008135905061243781613a5a565b92915050565b60008135905061244c81613a71565b92915050565b60008151905061246181613a71565b92915050565b600082601f83011261247c5761247b61356d565b5b813561248c848260208601612333565b91505092915050565b600082601f8301126124aa576124a961356d565b5b81356124ba848260208601612375565b91505092915050565b6000813590506124d281613a88565b92915050565b600080604083850312156124ef576124ee613581565b5b60006124fd858286016123b7565b925050602061250e858286016123b7565b9150509250929050565b600080600080600060a0868803121561253457612533613581565b5b6000612542888289016123b7565b9550506020612553888289016123b7565b945050604086013567ffffffffffffffff8111156125745761257361357c565b5b612580888289016123fa565b935050606086013567ffffffffffffffff8111156125a1576125a061357c565b5b6125ad888289016123fa565b925050608086013567ffffffffffffffff8111156125ce576125cd61357c565b5b6125da88828901612467565b9150509295509295909350565b600080600060608486031215612600576125ff613581565b5b600061260e868287016123b7565b935050602061261f868287016123b7565b925050604084013567ffffffffffffffff8111156126405761263f61357c565b5b61264c86828701612495565b9150509250925092565b600080600080608085870312156126705761266f613581565b5b600061267e878288016123b7565b945050602061268f878288016123b7565b935050604085013567ffffffffffffffff8111156126b0576126af61357c565b5b6126bc87828801612495565b925050606085013567ffffffffffffffff8111156126dd576126dc61357c565b5b6126e987828801612495565b91505092959194509250565b600080600080600060a0868803121561271157612710613581565b5b600061271f888289016123b7565b9550506020612730888289016123b7565b9450506040612741888289016124c3565b9350506060612752888289016124c3565b925050608086013567ffffffffffffffff8111156127735761277261357c565b5b61277f88828901612467565b9150509295509295909350565b600080604083850312156127a3576127a2613581565b5b60006127b1858286016123b7565b92505060206127c285828601612428565b9150509250929050565b6000806000606084860312156127e5576127e4613581565b5b60006127f3868287016123b7565b935050602084013567ffffffffffffffff8111156128145761281361357c565b5b61282086828701612495565b925050604061283186828701612428565b9150509250925092565b60008060006060848603121561285457612853613581565b5b6000612862868287016123b7565b935050602084013567ffffffffffffffff8111156128835761288261357c565b5b61288f86828701612495565b925050604084013567ffffffffffffffff8111156128b0576128af61357c565b5b6128bc86828701612495565b9150509250925092565b600080604083850312156128dd576128dc613581565b5b60006128eb858286016123b7565b92505060206128fc858286016124c3565b9150509250929050565b6000806040838503121561291d5761291c613581565b5b600083013567ffffffffffffffff81111561293b5761293a61357c565b5b612947858286016123cc565b925050602083013567ffffffffffffffff8111156129685761296761357c565b5b612974858286016123fa565b9150509250929050565b60006020828403121561299457612993613581565b5b60006129a28482850161243d565b91505092915050565b6000602082840312156129c1576129c0613581565b5b60006129cf84828501612452565b91505092915050565b6000602082840312156129ee576129ed613581565b5b60006129fc848285016124c3565b91505092915050565b6000612a118383612d18565b60208301905092915050565b612a268161332d565b82525050565b6000612a3782613276565b612a4181856132a4565b9350612a4c83613266565b8060005b83811015612a7d578151612a648882612a05565b9750612a6f83613297565b925050600181019050612a50565b5085935050505092915050565b612a938161333f565b82525050565b6000612aa482613281565b612aae81856132b5565b9350612abe8185602086016133b0565b612ac781613586565b840191505092915050565b6000612add8261328c565b612ae781856132c6565b9350612af78185602086016133b0565b612b0081613586565b840191505092915050565b6000612b186034836132c6565b9150612b23826135a4565b604082019050919050565b6000612b3b6028836132c6565b9150612b46826135f3565b604082019050919050565b6000612b5e602b836132c6565b9150612b6982613642565b604082019050919050565b6000612b816029836132c6565b9150612b8c82613691565b604082019050919050565b6000612ba46025836132c6565b9150612baf826136e0565b604082019050919050565b6000612bc76032836132c6565b9150612bd28261372f565b604082019050919050565b6000612bea6016836132c6565b9150612bf58261377e565b602082019050919050565b6000612c0d6015836132c6565b9150612c18826137a7565b602082019050919050565b6000612c30602a836132c6565b9150612c3b826137d0565b604082019050919050565b6000612c536013836132c6565b9150612c5e8261381f565b602082019050919050565b6000612c766029836132c6565b9150612c8182613848565b604082019050919050565b6000612c996029836132c6565b9150612ca482613897565b604082019050919050565b6000612cbc6018836132c6565b9150612cc7826138e6565b602082019050919050565b6000612cdf6028836132c6565b9150612cea8261390f565b604082019050919050565b6000612d026021836132c6565b9150612d0d8261395e565b604082019050919050565b612d2181613397565b82525050565b612d3081613397565b82525050565b6000602082019050612d4b6000830184612a1d565b92915050565b600060a082019050612d666000830188612a1d565b612d736020830187612a1d565b8181036040830152612d858186612a2c565b90508181036060830152612d998185612a2c565b90508181036080830152612dad8184612a99565b90509695505050505050565b600060a082019050612dce6000830188612a1d565b612ddb6020830187612a1d565b612de86040830186612d27565b612df56060830185612d27565b8181036080830152612e078184612a99565b90509695505050505050565b6000604082019050612e286000830185612a1d565b612e356020830184612d27565b9392505050565b6000606082019050612e516000830186612a1d565b612e5e6020830185612d27565b8181036040830152612e708184612ad2565b9050949350505050565b6000608082019050612e8f6000830187612a1d565b612e9c6020830186612d27565b8181036040830152612eae8185612ad2565b90508181036060830152612ec28184612ad2565b905095945050505050565b60006020820190508181036000830152612ee78184612a2c565b905092915050565b60006040820190508181036000830152612f098185612a2c565b90508181036020830152612f1d8184612a2c565b90509392505050565b6000602082019050612f3b6000830184612a8a565b92915050565b60006020820190508181036000830152612f5b8184612ad2565b905092915050565b60006020820190508181036000830152612f7c81612b0b565b9050919050565b60006020820190508181036000830152612f9c81612b2e565b9050919050565b60006020820190508181036000830152612fbc81612b51565b9050919050565b60006020820190508181036000830152612fdc81612b74565b9050919050565b60006020820190508181036000830152612ffc81612b97565b9050919050565b6000602082019050818103600083015261301c81612bba565b9050919050565b6000602082019050818103600083015261303c81612bdd565b9050919050565b6000602082019050818103600083015261305c81612c00565b9050919050565b6000602082019050818103600083015261307c81612c23565b9050919050565b6000602082019050818103600083015261309c81612c46565b9050919050565b600060208201905081810360008301526130bc81612c69565b9050919050565b600060208201905081810360008301526130dc81612c8c565b9050919050565b600060208201905081810360008301526130fc81612caf565b9050919050565b6000602082019050818103600083015261311c81612cd2565b9050919050565b6000602082019050818103600083015261313c81612cf5565b9050919050565b60006020820190506131586000830184612d27565b92915050565b60006040820190506131736000830185612d27565b6131806020830184612d27565b9392505050565b60006131916131a2565b905061319d8282613415565b919050565b6000604051905090565b600067ffffffffffffffff8211156131c7576131c661351c565b5b602082029050602081019050919050565b600067ffffffffffffffff8211156131f3576131f261351c565b5b602082029050602081019050919050565b600067ffffffffffffffff82111561321f5761321e61351c565b5b61322882613586565b9050602081019050919050565b600067ffffffffffffffff8211156132505761324f61351c565b5b61325982613586565b9050602081019050919050565b6000819050602082019050919050565b600081519050919050565b600081519050919050565b600081519050919050565b6000602082019050919050565b600082825260208201905092915050565b600082825260208201905092915050565b600082825260208201905092915050565b60006132e282613397565b91506132ed83613397565b9250827fffffffffffffffffffffffffffffffffffffffffffffffffffffffffffffffff038211156133225761332161348f565b5b828201905092915050565b600061333882613377565b9050919050565b60008115159050919050565b60007fffffffff0000000000000000000000000000000000000000000000000000000082169050919050565b600073ffffffffffffffffffffffffffffffffffffffff82169050919050565b6000819050919050565b82818337600083830152505050565b60005b838110156133ce5780820151818401526020810190506133b3565b838111156133dd576000848401525b50505050565b600060028204905060018216806133fb57607f821691505b6020821081141561340f5761340e6134be565b5b50919050565b61341e82613586565b810181811067ffffffffffffffff8211171561343d5761343c61351c565b5b80604052505050565b600061345182613397565b91507fffffffffffffffffffffffffffffffffffffffffffffffffffffffffffffffff8214156134845761348361348f565b5b600182019050919050565b7f4e487b7100000000000000000000000000000000000000000000000000000000600052601160045260246000fd5b7f4e487b7100000000000000000000000000000000000000000000000000000000600052602260045260246000fd5b7f4e487b7100000000000000000000000000000000000000000000000000000000600052603260045260246000fd5b7f4e487b7100000000000000000000000000000000000000000000000000000000600052604160045260246000fd5b600060033d111561356a5760046000803e613567600051613597565b90505b90565b600080fd5b600080fd5b600080fd5b600080fd5b600080fd5b6000601f19601f8301169050919050565b60008160e01c9050919050565b7f455243313135353a207472616e7366657220746f206e6f6e204552433131353560008201527f526563656976657220696d706c656d656e746572000000000000000000000000602082015250565b7f455243313135353a204552433131353552656365697665722072656a6563746560008201527f6420746f6b656e73000000000000000000000000000000000000000000000000602082015250565b7f455243313135353a2062616c616e636520717565727920666f7220746865207a60008201527f65726f2061646472657373000000000000000000000000000000000000000000602082015250565b7f455243313135353a2063616c6c6572206973206e6f74206f776e6572206e6f7260008201527f20617070726f7665640000000000000000000000000000000000000000000000602082015250565b7f455243313135353a207472616e7366657220746f20746865207a65726f20616460008201527f6472657373000000000000000000000000000000000000000000000000000000602082015250565b7f455243313135353a207472616e736665722063616c6c6572206973206e6f742060008201527f6f776e6572206e6f7220617070726f7665640000000000000000000000000000602082015250565b7f4572726f723a206e6f207465787420696e20706f737400000000000000000000600082015250565b7f4572726f723a206e6f20706f7374206578697374730000000000000000000000600082015250565b7f455243313135353a20696e73756666696369656e742062616c616e636520666f60008201527f72207472616e7366657200000000000000000000000000000000000000000000602082015250565b7f4572726f723a2073616d65206163636f756e7400000000000000000000000000600082015250565b7f455243313135353a2073657474696e6720617070726f76616c2073746174757360008201527f20666f722073656c660000000000000000000000000000000000000000000000602082015250565b7f455243313135353a206163636f756e747320616e6420696473206c656e67746860008201527f206d69736d617463680000000000000000000000000000000000000000000000602082015250565b7f4572726f723a206e6f204d452063726561746564207965740000000000000000600082015250565b7f455243313135353a2069647320616e6420616d6f756e7473206c656e6774682060008201527f6d69736d61746368000000000000000000000000000000000000000000000000602082015250565b7f455243313135353a206d696e7420746f20746865207a65726f2061646472657360008201527f7300000000000000000000000000000000000000000000000000000000000000602082015250565b600060443d10156139bd57613a40565b6139c56131a2565b60043d036004823e80513d602482011167ffffffffffffffff821117156139ed575050613a40565b808201805167ffffffffffffffff811115613a0b5750505050613a40565b80602083010160043d038501811115613a28575050505050613a40565b613a3782602001850186613415565b82955050505050505b90565b613a4c8161332d565b8114613a5757600080fd5b50565b613a638161333f565b8114613a6e57600080fd5b50565b613a7a8161334b565b8114613a8557600080fd5b50565b613a9181613397565b8114613a9c57600080fd5b5056fea264697066735822122073dee126c4b1735846ca6a6c66dde620eba9ac9dbaddf89d605dfd6f9c01221964736f6c63430008070033",
  "immutableReferences": {},
  "source": "// SPDX-License-Identifier: MIT\n\npragma solidity >=0.8.0 <0.9.0;\n\nimport \"@openzeppelin/contracts/token/ERC1155/ERC1155.sol\";\n\n// contract for ME (User Token) with tokenized metadata from engagement\n\ncontract ME is ERC1155 {\n  // user variable\n  address public user;\n\n  // ID's for ME's metadata tokens\n  uint256 public constant POST = 0;\n  uint256 public constant LIKE = 1;\n  uint256 public constant TAG = 2;\n  uint256 public constant FOLLOW = 3;\n  uint256 public constant RESPOND = 4;\n  uint256 public constant CURATE = 5;\n  uint256 public constant JURY = 6;\n\n  // minting events\n  event MintPost(address account, uint mintTime, string postHash);\n  event MintLike(address account, uint mintTime, string postHash);\n  event MintTag(address account, uint mintTime);\n  event MintFollow(address account, uint mintTime);\n  event MintRespond(address account, uint mintTime, string postHash, string originHash);\n  event MintCurate(address account, uint mintTime, string postHash, string originHash);\n  event MintJury(address account, uint mintTime, string postHash);\n\n  constructor() public payable ERC1155(\"{id}\") {\n    _mint(msg.sender, POST, 0, \"\");\n    _mint(msg.sender, LIKE, 0, \"\");\n    _mint(msg.sender, TAG, 0, \"\");\n    _mint(msg.sender, FOLLOW, 0, \"\");\n    _mint(msg.sender, RESPOND, 0, \"\");\n    _mint(msg.sender, CURATE, 0, \"\");\n    _mint(msg.sender, JURY, 0, \"\");\n  }\n\n  function mintPost(address account, string memory _postHash, string memory _postText) public {\n    // make sure user is same as sender, which they would be if they've set up a ME token\n    require(msg.sender==account, 'Error: no ME created yet');\n    require(bytes(_postHash).length > 0, 'Error: no post exists'); // check if post hash exists\n    require(bytes(_postText).length > 0, 'Error: no text in post'); // check if there's text in post\n    // mint a POSTED token\n    _mint(address(account), POST, 1, bytes(_postHash));\n    // set event for minted POSTED token\n    emit MintPost(account, block.timestamp, _postHash);\n  }\n\n  function mintLike(address accountFrom, address accountTo, string memory _postHash) public { // 1:3 Liker:Liked\n    require(msg.sender==accountFrom, 'Error: no ME created yet'); // makes sure accounts exist\n    require(accountFrom!=accountTo, 'Error: same account'); // doesn't mint tokens if liked one's own post\n    require(bytes(_postHash).length > 0, 'Error: no post exists');\n    // mint a LIKE token for liker\n    _mint(address(accountFrom), LIKE, 1, bytes(_postHash));\n    // set event for LIKE token FROM\n    emit MintLike(accountFrom, block.timestamp, _postHash);\n    // mint LIKE tokens for likee\n    _mint(address(accountTo), LIKE, 3, bytes(_postHash));\n    // set event for LIKE token TO\n    emit MintLike(accountTo, block.timestamp, _postHash);\n  }\n\n  function mintTag(address accountFrom, address accountTo, string memory _postHash) public { // 1:3 Tagger:Tagged\n    require(msg.sender==accountFrom, 'Error: no ME created yet'); // makes sure accounts exist\n    require(accountFrom!=accountTo, 'Error: same account'); // doesn't mint tokens if tagged oneself\n    require(bytes(_postHash).length > 0, 'Error: no post exists');\n    //increase like count\n    //tagCount++;\n    // mint a TAG token for tagger\n    _mint(address(accountFrom), TAG, 1, bytes(_postHash));\n    // set event for TAG token FROM\n    emit MintTag(accountFrom, block.timestamp);\n    // mint TAG tokens for taggee\n    _mint(address(accountTo), TAG, 3, bytes(_postHash));\n    // set event for TAG token TO\n    emit MintTag(accountTo, block.timestamp);\n  }\n\n  function mintFollow(address accountFrom, address accountTo) public { // 1:3 Follower:Followed\n    require(msg.sender==accountFrom, 'Error: no ME created yet'); // makes sure accounts exist\n    require(accountFrom!=accountTo, 'Error: same account'); // doesn't mint tokens if tagged oneself\n    //increase like count\n    //tagCount++;\n    // mint a FOLLOW token for follower\n    _mint(accountFrom, FOLLOW, 1, \"\");\n    // set event for FOLLOW token FROM\n    emit MintFollow(accountFrom, block.timestamp);\n    // mint FOLLOW tokens for followed\n    _mint(accountTo, FOLLOW, 3, \"\");\n    // set event for FOLLOW token TO\n    emit MintFollow(accountTo, block.timestamp);\n  }\n\n  function mintRespond(address accountFrom, address accountTo, string memory _postHash, string memory _originHash) public { // 1:2 Responder:Responded\n    require(msg.sender==accountFrom, 'Error: no ME created yet'); // makes sure accounts exist\n    require(accountFrom!=accountTo, 'Error: same account'); // doesn't mint tokens if tagged oneself\n    require(bytes(_postHash).length > 0, 'Error: no post exists');\n    // mint a RESPOND token for responder\n    _mint(accountFrom, RESPOND, 1, bytes(_postHash));\n    // set event for RESPOND token FROM\n    emit MintRespond(accountFrom, block.timestamp, _postHash, _originHash);\n    // mint RESPOND tokens for responded\n    _mint(accountTo, RESPOND, 2, bytes(_postHash));\n    // set event for RESPOND token TO\n    emit MintRespond(accountTo, block.timestamp, _postHash, _originHash);\n  }\n\n  function mintCurate(address accountFrom, address accountTo, string memory _postHash, string memory _originHash) public { // 1:4 Responder:Responded\n    require(msg.sender==accountFrom, 'Error: no ME created yet'); // makes sure accounts exist\n    require(accountFrom!=accountTo, 'Error: same account'); // doesn't mint tokens if tagged oneself\n    require(bytes(_postHash).length > 0, 'Error: no post exists');\n    // mint a CURATE token for curatee\n    _mint(accountFrom, CURATE, 1, bytes(_postHash));\n    // set event for CURATE token FROM\n    emit MintCurate(accountFrom, block.timestamp, _postHash, _originHash);\n    // mint CURATE tokens for curator\n    _mint(accountTo, CURATE, 2, bytes(_postHash));\n    // set event for CURATE token TO\n    emit MintCurate(accountTo, block.timestamp, _postHash, _originHash);\n  }\n\n  function mintJury(address account, string memory _postHash, bool consensusReached) public { // 1 Juror token if no consensus reached, 5if consensus reached\n    require(msg.sender==account, 'Error: no ME created yet'); // makes sure accounts exist\n    require(bytes(_postHash).length > 0, 'Error: no post exists');\n    if(consensusReached==true){\n      // mint 10 JURY token for juror\n      _mint(account, JURY, 5, bytes(_postHash));\n      // set event for JURY token consensus reached\n      emit MintJury(account, block.timestamp, _postHash);\n    } else {\n      // mint a JURY token for juror\n      _mint(account, JURY, 1, bytes(_postHash));\n      // set event for JURY no consensus reached\n      emit MintJury(account, block.timestamp, _postHash);\n    }\n  }\n}\n",
  "sourcePath": "/Users/jaiq/Documents/000 BLOCKCHAIN/ETH/uMe/src/contracts/ME.sol",
  "compiler": {
    "name": "solc",
    "version": "0.8.7+commit.e28d00a7.Emscripten.clang"
  },
  "schemaVersion": "3.4.3",
  "updatedAt": "2021-08-17T06:40:42.251Z",
  "devdoc": {
    "kind": "dev",
    "methods": {
      "balanceOf(address,uint256)": {
        "details": "See {IERC1155-balanceOf}. Requirements: - `account` cannot be the zero address."
      },
      "balanceOfBatch(address[],uint256[])": {
        "details": "See {IERC1155-balanceOfBatch}. Requirements: - `accounts` and `ids` must have the same length."
      },
      "isApprovedForAll(address,address)": {
        "details": "See {IERC1155-isApprovedForAll}."
      },
      "safeBatchTransferFrom(address,address,uint256[],uint256[],bytes)": {
        "details": "See {IERC1155-safeBatchTransferFrom}."
      },
      "safeTransferFrom(address,address,uint256,uint256,bytes)": {
        "details": "See {IERC1155-safeTransferFrom}."
      },
      "setApprovalForAll(address,bool)": {
        "details": "See {IERC1155-setApprovalForAll}."
      },
      "supportsInterface(bytes4)": {
        "details": "See {IERC165-supportsInterface}."
      },
      "uri(uint256)": {
        "details": "See {IERC1155MetadataURI-uri}. This implementation returns the same URI for *all* token types. It relies on the token type ID substitution mechanism https://eips.ethereum.org/EIPS/eip-1155#metadata[defined in the EIP]. Clients calling this function must replace the `\\{id\\}` substring with the actual token type ID."
      }
    },
    "version": 1
  },
  "userdoc": {
    "kind": "user",
    "methods": {},
    "version": 1
  }
}