{
  "contractName": "ME",
  "abi": [
    {
      "inputs": [],
      "stateMutability": "payable",
      "type": "constructor",
      "payable": true
    },
    {
      "anonymous": false,
      "inputs": [
        {
          "indexed": true,
          "internalType": "address",
          "name": "account",
          "type": "address"
        },
        {
          "indexed": true,
          "internalType": "address",
          "name": "operator",
          "type": "address"
        },
        {
          "indexed": false,
          "internalType": "bool",
          "name": "approved",
          "type": "bool"
        }
      ],
      "name": "ApprovalForAll",
      "type": "event"
    },
    {
      "anonymous": false,
      "inputs": [
        {
          "indexed": false,
          "internalType": "address",
          "name": "account",
          "type": "address"
        },
        {
          "indexed": false,
          "internalType": "uint256",
          "name": "mintTime",
          "type": "uint256"
        },
        {
          "indexed": false,
          "internalType": "string",
          "name": "postHash",
          "type": "string"
        },
        {
          "indexed": false,
          "internalType": "string",
          "name": "originHash",
          "type": "string"
        }
      ],
      "name": "MintCurate",
      "type": "event"
    },
    {
      "anonymous": false,
      "inputs": [
        {
          "indexed": false,
          "internalType": "address",
          "name": "account",
          "type": "address"
        },
        {
          "indexed": false,
          "internalType": "uint256",
          "name": "mintTime",
          "type": "uint256"
        }
      ],
      "name": "MintFollow",
      "type": "event"
    },
    {
      "anonymous": false,
      "inputs": [
        {
          "indexed": false,
          "internalType": "address",
          "name": "account",
          "type": "address"
        },
        {
          "indexed": false,
          "internalType": "uint256",
          "name": "mintTime",
          "type": "uint256"
        },
        {
          "indexed": false,
          "internalType": "string",
          "name": "postHash",
          "type": "string"
        }
      ],
      "name": "MintJury",
      "type": "event"
    },
    {
      "anonymous": false,
      "inputs": [
        {
          "indexed": false,
          "internalType": "address",
          "name": "account",
          "type": "address"
        },
        {
          "indexed": false,
          "internalType": "uint256",
          "name": "mintTime",
          "type": "uint256"
        },
        {
          "indexed": false,
          "internalType": "string",
          "name": "postHash",
          "type": "string"
        }
      ],
      "name": "MintLike",
      "type": "event"
    },
    {
      "anonymous": false,
      "inputs": [
        {
          "indexed": false,
          "internalType": "address",
          "name": "account",
          "type": "address"
        },
        {
          "indexed": false,
          "internalType": "uint256",
          "name": "mintTime",
          "type": "uint256"
        },
        {
          "indexed": false,
          "internalType": "string",
          "name": "postHash",
          "type": "string"
        }
      ],
      "name": "MintPost",
      "type": "event"
    },
    {
      "anonymous": false,
      "inputs": [
        {
          "indexed": false,
          "internalType": "address",
          "name": "account",
          "type": "address"
        },
        {
          "indexed": false,
          "internalType": "uint256",
          "name": "mintTime",
          "type": "uint256"
        },
        {
          "indexed": false,
          "internalType": "string",
          "name": "postHash",
          "type": "string"
        },
        {
          "indexed": false,
          "internalType": "string",
          "name": "originHash",
          "type": "string"
        }
      ],
      "name": "MintRespond",
      "type": "event"
    },
    {
      "anonymous": false,
      "inputs": [
        {
          "indexed": false,
          "internalType": "address",
          "name": "account",
          "type": "address"
        },
        {
          "indexed": false,
          "internalType": "uint256",
          "name": "mintTime",
          "type": "uint256"
        }
      ],
      "name": "MintTag",
      "type": "event"
    },
    {
      "anonymous": false,
      "inputs": [
        {
          "indexed": false,
          "internalType": "address",
          "name": "accountFrom",
          "type": "address"
        },
        {
          "indexed": false,
          "internalType": "address",
          "name": "accountTo",
          "type": "address"
        }
      ],
      "name": "MinterChanged",
      "type": "event"
    },
    {
      "anonymous": false,
      "inputs": [
        {
          "indexed": true,
          "internalType": "address",
          "name": "operator",
          "type": "address"
        },
        {
          "indexed": true,
          "internalType": "address",
          "name": "from",
          "type": "address"
        },
        {
          "indexed": true,
          "internalType": "address",
          "name": "to",
          "type": "address"
        },
        {
          "indexed": false,
          "internalType": "uint256[]",
          "name": "ids",
          "type": "uint256[]"
        },
        {
          "indexed": false,
          "internalType": "uint256[]",
          "name": "values",
          "type": "uint256[]"
        }
      ],
      "name": "TransferBatch",
      "type": "event"
    },
    {
      "anonymous": false,
      "inputs": [
        {
          "indexed": true,
          "internalType": "address",
          "name": "operator",
          "type": "address"
        },
        {
          "indexed": true,
          "internalType": "address",
          "name": "from",
          "type": "address"
        },
        {
          "indexed": true,
          "internalType": "address",
          "name": "to",
          "type": "address"
        },
        {
          "indexed": false,
          "internalType": "uint256",
          "name": "id",
          "type": "uint256"
        },
        {
          "indexed": false,
          "internalType": "uint256",
          "name": "value",
          "type": "uint256"
        }
      ],
      "name": "TransferSingle",
      "type": "event"
    },
    {
      "anonymous": false,
      "inputs": [
        {
          "indexed": false,
          "internalType": "string",
          "name": "value",
          "type": "string"
        },
        {
          "indexed": true,
          "internalType": "uint256",
          "name": "id",
          "type": "uint256"
        }
      ],
      "name": "URI",
      "type": "event"
    },
    {
      "inputs": [],
      "name": "CURATE",
      "outputs": [
        {
          "internalType": "uint256",
          "name": "",
          "type": "uint256"
        }
      ],
      "stateMutability": "view",
      "type": "function",
      "constant": true
    },
    {
      "inputs": [],
      "name": "FOLLOW",
      "outputs": [
        {
          "internalType": "uint256",
          "name": "",
          "type": "uint256"
        }
      ],
      "stateMutability": "view",
      "type": "function",
      "constant": true
    },
    {
      "inputs": [],
      "name": "JURY",
      "outputs": [
        {
          "internalType": "uint256",
          "name": "",
          "type": "uint256"
        }
      ],
      "stateMutability": "view",
      "type": "function",
      "constant": true
    },
    {
      "inputs": [],
      "name": "LIKE",
      "outputs": [
        {
          "internalType": "uint256",
          "name": "",
          "type": "uint256"
        }
      ],
      "stateMutability": "view",
      "type": "function",
      "constant": true
    },
    {
      "inputs": [],
      "name": "POST",
      "outputs": [
        {
          "internalType": "uint256",
          "name": "",
          "type": "uint256"
        }
      ],
      "stateMutability": "view",
      "type": "function",
      "constant": true
    },
    {
      "inputs": [],
      "name": "RESPOND",
      "outputs": [
        {
          "internalType": "uint256",
          "name": "",
          "type": "uint256"
        }
      ],
      "stateMutability": "view",
      "type": "function",
      "constant": true
    },
    {
      "inputs": [],
      "name": "TAG",
      "outputs": [
        {
          "internalType": "uint256",
          "name": "",
          "type": "uint256"
        }
      ],
      "stateMutability": "view",
      "type": "function",
      "constant": true
    },
    {
      "inputs": [
        {
          "internalType": "address",
          "name": "account",
          "type": "address"
        },
        {
          "internalType": "uint256",
          "name": "id",
          "type": "uint256"
        }
      ],
      "name": "balanceOf",
      "outputs": [
        {
          "internalType": "uint256",
          "name": "",
          "type": "uint256"
        }
      ],
      "stateMutability": "view",
      "type": "function",
      "constant": true
    },
    {
      "inputs": [
        {
          "internalType": "address[]",
          "name": "accounts",
          "type": "address[]"
        },
        {
          "internalType": "uint256[]",
          "name": "ids",
          "type": "uint256[]"
        }
      ],
      "name": "balanceOfBatch",
      "outputs": [
        {
          "internalType": "uint256[]",
          "name": "",
          "type": "uint256[]"
        }
      ],
      "stateMutability": "view",
      "type": "function",
      "constant": true
    },
    {
      "inputs": [
        {
          "internalType": "address",
          "name": "account",
          "type": "address"
        },
        {
          "internalType": "address",
          "name": "operator",
          "type": "address"
        }
      ],
      "name": "isApprovedForAll",
      "outputs": [
        {
          "internalType": "bool",
          "name": "",
          "type": "bool"
        }
      ],
      "stateMutability": "view",
      "type": "function",
      "constant": true
    },
    {
      "inputs": [],
      "name": "minter",
      "outputs": [
        {
          "internalType": "address",
          "name": "",
          "type": "address"
        }
      ],
      "stateMutability": "view",
      "type": "function",
      "constant": true
    },
    {
      "inputs": [
        {
          "internalType": "address",
          "name": "from",
          "type": "address"
        },
        {
          "internalType": "address",
          "name": "to",
          "type": "address"
        },
        {
          "internalType": "uint256[]",
          "name": "ids",
          "type": "uint256[]"
        },
        {
          "internalType": "uint256[]",
          "name": "amounts",
          "type": "uint256[]"
        },
        {
          "internalType": "bytes",
          "name": "data",
          "type": "bytes"
        }
      ],
      "name": "safeBatchTransferFrom",
      "outputs": [],
      "stateMutability": "nonpayable",
      "type": "function"
    },
    {
      "inputs": [
        {
          "internalType": "address",
          "name": "from",
          "type": "address"
        },
        {
          "internalType": "address",
          "name": "to",
          "type": "address"
        },
        {
          "internalType": "uint256",
          "name": "id",
          "type": "uint256"
        },
        {
          "internalType": "uint256",
          "name": "amount",
          "type": "uint256"
        },
        {
          "internalType": "bytes",
          "name": "data",
          "type": "bytes"
        }
      ],
      "name": "safeTransferFrom",
      "outputs": [],
      "stateMutability": "nonpayable",
      "type": "function"
    },
    {
      "inputs": [
        {
          "internalType": "address",
          "name": "operator",
          "type": "address"
        },
        {
          "internalType": "bool",
          "name": "approved",
          "type": "bool"
        }
      ],
      "name": "setApprovalForAll",
      "outputs": [],
      "stateMutability": "nonpayable",
      "type": "function"
    },
    {
      "inputs": [
        {
          "internalType": "bytes4",
          "name": "interfaceId",
          "type": "bytes4"
        }
      ],
      "name": "supportsInterface",
      "outputs": [
        {
          "internalType": "bool",
          "name": "",
          "type": "bool"
        }
      ],
      "stateMutability": "view",
      "type": "function",
      "constant": true
    },
    {
      "inputs": [
        {
          "internalType": "uint256",
          "name": "",
          "type": "uint256"
        }
      ],
      "name": "uri",
      "outputs": [
        {
          "internalType": "string",
          "name": "",
          "type": "string"
        }
      ],
      "stateMutability": "view",
      "type": "function",
      "constant": true
    },
    {
      "inputs": [
        {
          "internalType": "address",
          "name": "account",
          "type": "address"
        },
        {
          "internalType": "string",
          "name": "_postHash",
          "type": "string"
        },
        {
          "internalType": "string",
          "name": "_postText",
          "type": "string"
        }
      ],
      "name": "mintPost",
      "outputs": [],
      "stateMutability": "nonpayable",
      "type": "function"
    },
    {
      "inputs": [
        {
          "internalType": "address",
          "name": "accountFrom",
          "type": "address"
        },
        {
          "internalType": "address",
          "name": "accountTo",
          "type": "address"
        },
        {
          "internalType": "string",
          "name": "_postHash",
          "type": "string"
        }
      ],
      "name": "mintLike",
      "outputs": [],
      "stateMutability": "nonpayable",
      "type": "function"
    },
    {
      "inputs": [
        {
          "internalType": "address",
          "name": "accountFrom",
          "type": "address"
        },
        {
          "internalType": "address",
          "name": "accountTo",
          "type": "address"
        },
        {
          "internalType": "string",
          "name": "_postHash",
          "type": "string"
        }
      ],
      "name": "mintTag",
      "outputs": [],
      "stateMutability": "nonpayable",
      "type": "function"
    },
    {
      "inputs": [
        {
          "internalType": "address",
          "name": "accountFrom",
          "type": "address"
        },
        {
          "internalType": "address",
          "name": "accountTo",
          "type": "address"
        }
      ],
      "name": "mintFollow",
      "outputs": [],
      "stateMutability": "nonpayable",
      "type": "function"
    },
    {
      "inputs": [
        {
          "internalType": "address",
          "name": "accountFrom",
          "type": "address"
        },
        {
          "internalType": "address",
          "name": "accountTo",
          "type": "address"
        },
        {
          "internalType": "string",
          "name": "_postHash",
          "type": "string"
        },
        {
          "internalType": "string",
          "name": "_originHash",
          "type": "string"
        }
      ],
      "name": "mintRespond",
      "outputs": [],
      "stateMutability": "nonpayable",
      "type": "function"
    },
    {
      "inputs": [
        {
          "internalType": "address",
          "name": "accountFrom",
          "type": "address"
        },
        {
          "internalType": "address",
          "name": "accountTo",
          "type": "address"
        },
        {
          "internalType": "string",
          "name": "_postHash",
          "type": "string"
        },
        {
          "internalType": "string",
          "name": "_originHash",
          "type": "string"
        }
      ],
      "name": "mintCurate",
      "outputs": [],
      "stateMutability": "nonpayable",
      "type": "function"
    },
    {
      "inputs": [
        {
          "internalType": "address",
          "name": "account",
          "type": "address"
        },
        {
          "internalType": "string",
          "name": "_postHash",
          "type": "string"
        },
        {
          "internalType": "bool",
          "name": "consensusReached",
          "type": "bool"
        }
      ],
      "name": "mintJury",
      "outputs": [],
      "stateMutability": "nonpayable",
      "type": "function"
    },
    {
      "inputs": [
        {
          "internalType": "address",
          "name": "we",
          "type": "address"
        }
      ],
      "name": "passMinterRole",
      "outputs": [
        {
          "internalType": "bool",
          "name": "",
          "type": "bool"
        }
      ],
      "stateMutability": "nonpayable",
      "type": "function"
    }
  ],
  "bytecode": "0x60806040526040518060400160405280600481526020017f7b69647d000000000000000000000000000000000000000000000000000000008152506200004b816200009360201b60201c565b5033600360006101000a81548173ffffffffffffffffffffffffffffffffffffffff021916908373ffffffffffffffffffffffffffffffffffffffff160217905550620001c4565b8060029080519060200190620000ab929190620000af565b5050565b828054620000bd906200015f565b90600052602060002090601f016020900481019282620000e157600085556200012d565b82601f10620000fc57805160ff19168380011785556200012d565b828001600101855582156200012d579182015b828111156200012c5782518255916020019190600101906200010f565b5b5090506200013c919062000140565b5090565b5b808211156200015b57600081600090555060010162000141565b5090565b600060028204905060018216806200017857607f821691505b602082108114156200018f576200018e62000195565b5b50919050565b7f4e487b7100000000000000000000000000000000000000000000000000000000600052602260045260246000fd5b613f7e80620001d46000396000f3fe608060405234801561001057600080fd5b50600436106101575760003560e01c8063639bee54116100c3578063d7fc5b151161007c578063d7fc5b15146103b0578063db7895e2146103e0578063e792a39c146103fe578063e96428a71461041c578063e985e9c514610438578063f242432a1461046857610157565b8063639bee54146103045780637f49d9741461032057806393a385571461033e578063a22cb4651461035a578063a272624a14610376578063c2107d021461039257610157565b80632eb2c2d6116101155780632eb2c2d6146102425780633481c8bd1461025e57806347221ac71461027a5780634880008d146102985780634e1273f4146102b657806351ef37b0146102e657610157565b8062fdd58e1461015c57806301ffc9a71461018c57806307546172146101bc5780630e89341c146101da578063121421501461020a5780632d599ba514610226575b600080fd5b61017660048036038101906101719190612cda565b610484565b60405161018391906135c3565b60405180910390f35b6101a660048036038101906101a19190612d92565b61054d565b6040516101b39190613386565b60405180910390f35b6101c461062f565b6040516101d1919061316d565b60405180910390f35b6101f460048036038101906101ef9190612dec565b610655565b60405161020191906133a1565b60405180910390f35b610224600480360381019061021f9190612be0565b6106e9565b005b610240600480360381019061023b91906128ec565b6108e4565b005b61025c6004803603810190610257919061292c565b610b01565b005b61027860048036038101906102739190612a6a565b610ba2565b005b610282610df0565b60405161028f91906135c3565b60405180910390f35b6102a0610df5565b6040516102ad91906135c3565b60405180910390f35b6102d060048036038101906102cb9190612d1a565b610dfa565b6040516102dd919061332d565b60405180910390f35b6102ee610f13565b6040516102fb91906135c3565b60405180910390f35b61031e60048036038101906103199190612c4f565b610f18565b005b6103286110ed565b60405161033591906135c3565b60405180910390f35b61035860048036038101906103539190612a6a565b6110f2565b005b610374600480360381019061036f9190612ba0565b6112d1565b005b610390600480360381019061038b91906129fb565b611452565b005b61039a611697565b6040516103a791906135c3565b60405180910390f35b6103ca60048036038101906103c591906128bf565b61169c565b6040516103d79190613386565b60405180910390f35b6103e8611721565b6040516103f591906135c3565b60405180910390f35b610406611726565b60405161041391906135c3565b60405180910390f35b610436600480360381019061043191906129fb565b61172b565b005b610452600480360381019061044d91906128ec565b611904565b60405161045f9190613386565b60405180910390f35b610482600480360381019061047d9190612b09565b611998565b005b60008073ffffffffffffffffffffffffffffffffffffffff168373ffffffffffffffffffffffffffffffffffffffff1614156104f5576040517f08c379a00000000000000000000000000000000000000000000000000000000081526004016104ec90613403565b60405180910390fd5b60008083815260200190815260200160002060008473ffffffffffffffffffffffffffffffffffffffff1673ffffffffffffffffffffffffffffffffffffffff16815260200190815260200160002054905092915050565b60007fd9b67a26000000000000000000000000000000000000000000000000000000007bffffffffffffffffffffffffffffffffffffffffffffffffffffffff1916827bffffffffffffffffffffffffffffffffffffffffffffffffffffffff1916148061061857507f0e89341c000000000000000000000000000000000000000000000000000000007bffffffffffffffffffffffffffffffffffffffffffffffffffffffff1916827bffffffffffffffffffffffffffffffffffffffffffffffffffffffff1916145b80610628575061062782611a39565b5b9050919050565b600360009054906101000a900473ffffffffffffffffffffffffffffffffffffffff1681565b60606002805461066490613863565b80601f016020809104026020016040519081016040528092919081815260200182805461069090613863565b80156106dd5780601f106106b2576101008083540402835291602001916106dd565b820191906000526020600020905b8154815290600101906020018083116106c057829003601f168201915b50505050509050919050565b3373ffffffffffffffffffffffffffffffffffffffff168373ffffffffffffffffffffffffffffffffffffffff1614610757576040517f08c379a000000000000000000000000000000000000000000000000000000000815260040161074e906134e3565b60405180910390fd5b3373ffffffffffffffffffffffffffffffffffffffff16600360009054906101000a900473ffffffffffffffffffffffffffffffffffffffff1673ffffffffffffffffffffffffffffffffffffffff1614156107e8576040517f08c379a00000000000000000000000000000000000000000000000000000000081526004016107df90613523565b60405180910390fd5b600082511161082c576040517f08c379a0000000000000000000000000000000000000000000000000000000008152600401610823906134a3565b60405180910390fd5b60011515811515141561088757610847836006600585611aa3565b7f76e82f07cc2db7496e9c618ccb86fc154fb6ef0bf201e3843eda82bef6fdfe4a83428460405161087a9392919061329c565b60405180910390a16108df565b6000151581151514156108de576108a2836006600185611aa3565b7f76e82f07cc2db7496e9c618ccb86fc154fb6ef0bf201e3843eda82bef6fdfe4a8342846040516108d59392919061329c565b60405180910390a15b5b505050565b3373ffffffffffffffffffffffffffffffffffffffff168273ffffffffffffffffffffffffffffffffffffffff1614610952576040517f08c379a0000000000000000000000000000000000000000000000000000000008152600401610949906134e3565b60405180910390fd5b3373ffffffffffffffffffffffffffffffffffffffff16600360009054906101000a900473ffffffffffffffffffffffffffffffffffffffff1673ffffffffffffffffffffffffffffffffffffffff1614156109e3576040517f08c379a00000000000000000000000000000000000000000000000000000000081526004016109da90613523565b60405180910390fd5b8073ffffffffffffffffffffffffffffffffffffffff168273ffffffffffffffffffffffffffffffffffffffff161415610a52576040517f08c379a0000000000000000000000000000000000000000000000000000000008152600401610a4990613503565b60405180910390fd5b610a6f826003600160405180602001604052806000815250611aa3565b7f014d3cc46c6fb8a9e0083dde8a8ca93f702141fcb5223e658833757513a49e948242604051610aa0929190613273565b60405180910390a1610ac48160038060405180602001604052806000815250611aa3565b7f014d3cc46c6fb8a9e0083dde8a8ca93f702141fcb5223e658833757513a49e948142604051610af5929190613273565b60405180910390a15050565b610b09611c39565b73ffffffffffffffffffffffffffffffffffffffff168573ffffffffffffffffffffffffffffffffffffffff161480610b4f5750610b4e85610b49611c39565b611904565b5b610b8e576040517f08c379a0000000000000000000000000000000000000000000000000000000008152600401610b8590613463565b60405180910390fd5b610b9b8585858585611c41565b5050505050565b3373ffffffffffffffffffffffffffffffffffffffff168473ffffffffffffffffffffffffffffffffffffffff1614610c10576040517f08c379a0000000000000000000000000000000000000000000000000000000008152600401610c07906134e3565b60405180910390fd5b3373ffffffffffffffffffffffffffffffffffffffff16600360009054906101000a900473ffffffffffffffffffffffffffffffffffffffff1673ffffffffffffffffffffffffffffffffffffffff161415610ca1576040517f08c379a0000000000000000000000000000000000000000000000000000000008152600401610c9890613523565b60405180910390fd5b8273ffffffffffffffffffffffffffffffffffffffff168473ffffffffffffffffffffffffffffffffffffffff161415610d10576040517f08c379a0000000000000000000000000000000000000000000000000000000008152600401610d0790613503565b60405180910390fd5b6000825111610d54576040517f08c379a0000000000000000000000000000000000000000000000000000000008152600401610d4b906134a3565b60405180910390fd5b610d62846005600485611aa3565b7f70fee18b365e1ff69a83a39d12f41dcc2c0b9069b95d2ee310cd0bf87a7db04884428484604051610d9794939291906132da565b60405180910390a1610dad836005600185611aa3565b7f70fee18b365e1ff69a83a39d12f41dcc2c0b9069b95d2ee310cd0bf87a7db04883428484604051610de294939291906132da565b60405180910390a150505050565b600281565b600381565b60608151835114610e40576040517f08c379a0000000000000000000000000000000000000000000000000000000008152600401610e3790613563565b60405180910390fd5b6000835167ffffffffffffffff811115610e5d57610e5c61399c565b5b604051908082528060200260200182016040528015610e8b5781602001602082028036833780820191505090505b50905060005b8451811015610f0857610ed8858281518110610eb057610eaf61396d565b5b6020026020010151858381518110610ecb57610eca61396d565b5b6020026020010151610484565b828281518110610eeb57610eea61396d565b5b60200260200101818152505080610f01906138c6565b9050610e91565b508091505092915050565b600581565b3373ffffffffffffffffffffffffffffffffffffffff168373ffffffffffffffffffffffffffffffffffffffff1614610f86576040517f08c379a0000000000000000000000000000000000000000000000000000000008152600401610f7d906134e3565b60405180910390fd5b3373ffffffffffffffffffffffffffffffffffffffff16600360009054906101000a900473ffffffffffffffffffffffffffffffffffffffff1673ffffffffffffffffffffffffffffffffffffffff161415611017576040517f08c379a000000000000000000000000000000000000000000000000000000000815260040161100e90613523565b60405180910390fd5b600082511161105b576040517f08c379a0000000000000000000000000000000000000000000000000000000008152600401611052906134a3565b60405180910390fd5b600081511161109f576040517f08c379a000000000000000000000000000000000000000000000000000000000815260040161109690613483565b60405180910390fd5b6110ad836000600185611aa3565b7fcf6ddac72cc8dc67f435a5ce8400a69049326b04f32a57d5e7fdb4bcbb9563df8342846040516110e09392919061329c565b60405180910390a1505050565b600181565b3373ffffffffffffffffffffffffffffffffffffffff168473ffffffffffffffffffffffffffffffffffffffff1614611160576040517f08c379a0000000000000000000000000000000000000000000000000000000008152600401611157906134e3565b60405180910390fd5b3373ffffffffffffffffffffffffffffffffffffffff16600360009054906101000a900473ffffffffffffffffffffffffffffffffffffffff1673ffffffffffffffffffffffffffffffffffffffff1614156111f1576040517f08c379a00000000000000000000000000000000000000000000000000000000081526004016111e890613523565b60405180910390fd5b6000825111611235576040517f08c379a000000000000000000000000000000000000000000000000000000000815260040161122c906134a3565b60405180910390fd5b611243846004600285611aa3565b7fa097846f4061c36583ab51b57f3c5747cb180642c7d21af89c4ce8c40e18ef848442848460405161127894939291906132da565b60405180910390a161128e836004600185611aa3565b7fa097846f4061c36583ab51b57f3c5747cb180642c7d21af89c4ce8c40e18ef84834284846040516112c394939291906132da565b60405180910390a150505050565b8173ffffffffffffffffffffffffffffffffffffffff166112f0611c39565b73ffffffffffffffffffffffffffffffffffffffff161415611347576040517f08c379a000000000000000000000000000000000000000000000000000000000815260040161133e90613543565b60405180910390fd5b8060016000611354611c39565b73ffffffffffffffffffffffffffffffffffffffff1673ffffffffffffffffffffffffffffffffffffffff16815260200190815260200160002060008473ffffffffffffffffffffffffffffffffffffffff1673ffffffffffffffffffffffffffffffffffffffff16815260200190815260200160002060006101000a81548160ff0219169083151502179055508173ffffffffffffffffffffffffffffffffffffffff16611401611c39565b73ffffffffffffffffffffffffffffffffffffffff167f17307eab39ab6107e8899845ad3d59bd9653f200f220920489ca2b5937696c31836040516114469190613386565b60405180910390a35050565b3373ffffffffffffffffffffffffffffffffffffffff168373ffffffffffffffffffffffffffffffffffffffff16146114c0576040517f08c379a00000000000000000000000000000000000000000000000000000000081526004016114b7906134e3565b60405180910390fd5b3373ffffffffffffffffffffffffffffffffffffffff16600360009054906101000a900473ffffffffffffffffffffffffffffffffffffffff1673ffffffffffffffffffffffffffffffffffffffff161415611551576040517f08c379a000000000000000000000000000000000000000000000000000000000815260040161154890613523565b60405180910390fd5b8173ffffffffffffffffffffffffffffffffffffffff168373ffffffffffffffffffffffffffffffffffffffff1614156115c0576040517f08c379a00000000000000000000000000000000000000000000000000000000081526004016115b790613503565b60405180910390fd5b6000815111611604576040517f08c379a00000000000000000000000000000000000000000000000000000000081526004016115fb906134a3565b60405180910390fd5b611612836002600184611aa3565b7feba44b8896873bc070d9380fc706cab9237e61d47d01b473ffe02fd8bc4c6af28342604051611643929190613273565b60405180910390a1611659826002600384611aa3565b7feba44b8896873bc070d9380fc706cab9237e61d47d01b473ffe02fd8bc4c6af2824260405161168a929190613273565b60405180910390a1505050565b600081565b600081600360006101000a81548173ffffffffffffffffffffffffffffffffffffffff021916908373ffffffffffffffffffffffffffffffffffffffff1602179055507f3b0007eb941cf645526cbb3a4fdaecda9d28ce4843167d9263b536a1f1edc0f63383604051611710929190613188565b60405180910390a160019050919050565b600681565b600481565b3373ffffffffffffffffffffffffffffffffffffffff168373ffffffffffffffffffffffffffffffffffffffff1614611799576040517f08c379a0000000000000000000000000000000000000000000000000000000008152600401611790906134e3565b60405180910390fd5b3373ffffffffffffffffffffffffffffffffffffffff16600360009054906101000a900473ffffffffffffffffffffffffffffffffffffffff1673ffffffffffffffffffffffffffffffffffffffff16141561182a576040517f08c379a000000000000000000000000000000000000000000000000000000000815260040161182190613523565b60405180910390fd5b600081511161186e576040517f08c379a0000000000000000000000000000000000000000000000000000000008152600401611865906134a3565b60405180910390fd5b61187b8360018084611aa3565b7f7403f64244a118a79538ef663453e5bbf8ea9f02209957f5b23e82c220d511368342836040516118ae9392919061329c565b60405180910390a16118c4826001600384611aa3565b7f7403f64244a118a79538ef663453e5bbf8ea9f02209957f5b23e82c220d511368242836040516118f79392919061329c565b60405180910390a1505050565b6000600160008473ffffffffffffffffffffffffffffffffffffffff1673ffffffffffffffffffffffffffffffffffffffff16815260200190815260200160002060008373ffffffffffffffffffffffffffffffffffffffff1673ffffffffffffffffffffffffffffffffffffffff16815260200190815260200160002060009054906101000a900460ff16905092915050565b6119a0611c39565b73ffffffffffffffffffffffffffffffffffffffff168573ffffffffffffffffffffffffffffffffffffffff1614806119e657506119e5856119e0611c39565b611904565b5b611a25576040517f08c379a0000000000000000000000000000000000000000000000000000000008152600401611a1c90613423565b60405180910390fd5b611a328585858585611f55565b5050505050565b60007f01ffc9a7000000000000000000000000000000000000000000000000000000007bffffffffffffffffffffffffffffffffffffffffffffffffffffffff1916827bffffffffffffffffffffffffffffffffffffffffffffffffffffffff1916149050919050565b600073ffffffffffffffffffffffffffffffffffffffff168473ffffffffffffffffffffffffffffffffffffffff161415611b13576040517f08c379a0000000000000000000000000000000000000000000000000000000008152600401611b0a906135a3565b60405180910390fd5b6000611b1d611c39565b9050611b3e81600087611b2f886121d7565b611b38886121d7565b87612251565b8260008086815260200190815260200160002060008773ffffffffffffffffffffffffffffffffffffffff1673ffffffffffffffffffffffffffffffffffffffff1681526020019081526020016000206000828254611b9d9190613757565b925050819055508473ffffffffffffffffffffffffffffffffffffffff16600073ffffffffffffffffffffffffffffffffffffffff168273ffffffffffffffffffffffffffffffffffffffff167fc3d58168c5ae7397731d063d5bbf3d657854427343f4c083240f7aacaa2d0f628787604051611c1b9291906135de565b60405180910390a4611c3281600087878787612259565b5050505050565b600033905090565b8151835114611c85576040517f08c379a0000000000000000000000000000000000000000000000000000000008152600401611c7c90613583565b60405180910390fd5b600073ffffffffffffffffffffffffffffffffffffffff168473ffffffffffffffffffffffffffffffffffffffff161415611cf5576040517f08c379a0000000000000000000000000000000000000000000000000000000008152600401611cec90613443565b60405180910390fd5b6000611cff611c39565b9050611d0f818787878787612251565b60005b8451811015611ec0576000858281518110611d3057611d2f61396d565b5b602002602001015190506000858381518110611d4f57611d4e61396d565b5b60200260200101519050600080600084815260200190815260200160002060008b73ffffffffffffffffffffffffffffffffffffffff1673ffffffffffffffffffffffffffffffffffffffff16815260200190815260200160002054905081811015611df0576040517f08c379a0000000000000000000000000000000000000000000000000000000008152600401611de7906134c3565b60405180910390fd5b81810360008085815260200190815260200160002060008c73ffffffffffffffffffffffffffffffffffffffff1673ffffffffffffffffffffffffffffffffffffffff168152602001908152602001600020819055508160008085815260200190815260200160002060008b73ffffffffffffffffffffffffffffffffffffffff1673ffffffffffffffffffffffffffffffffffffffff1681526020019081526020016000206000828254611ea59190613757565b9250508190555050505080611eb9906138c6565b9050611d12565b508473ffffffffffffffffffffffffffffffffffffffff168673ffffffffffffffffffffffffffffffffffffffff168273ffffffffffffffffffffffffffffffffffffffff167f4a39dc06d4c0dbc64b70af90fd698a233a518aa5d07e595d983b8c0526c8f7fb8787604051611f3792919061334f565b60405180910390a4611f4d818787878787612440565b505050505050565b600073ffffffffffffffffffffffffffffffffffffffff168473ffffffffffffffffffffffffffffffffffffffff161415611fc5576040517f08c379a0000000000000000000000000000000000000000000000000000000008152600401611fbc90613443565b60405180910390fd5b6000611fcf611c39565b9050611fef818787611fe0886121d7565b611fe9886121d7565b87612251565b600080600086815260200190815260200160002060008873ffffffffffffffffffffffffffffffffffffffff1673ffffffffffffffffffffffffffffffffffffffff16815260200190815260200160002054905083811015612086576040517f08c379a000000000000000000000000000000000000000000000000000000000815260040161207d906134c3565b60405180910390fd5b83810360008087815260200190815260200160002060008973ffffffffffffffffffffffffffffffffffffffff1673ffffffffffffffffffffffffffffffffffffffff168152602001908152602001600020819055508360008087815260200190815260200160002060008873ffffffffffffffffffffffffffffffffffffffff1673ffffffffffffffffffffffffffffffffffffffff168152602001908152602001600020600082825461213b9190613757565b925050819055508573ffffffffffffffffffffffffffffffffffffffff168773ffffffffffffffffffffffffffffffffffffffff168373ffffffffffffffffffffffffffffffffffffffff167fc3d58168c5ae7397731d063d5bbf3d657854427343f4c083240f7aacaa2d0f6288886040516121b89291906135de565b60405180910390a46121ce828888888888612259565b50505050505050565b60606000600167ffffffffffffffff8111156121f6576121f561399c565b5b6040519080825280602002602001820160405280156122245781602001602082028036833780820191505090505b509050828160008151811061223c5761223b61396d565b5b60200260200101818152505080915050919050565b505050505050565b6122788473ffffffffffffffffffffffffffffffffffffffff16612627565b15612438578373ffffffffffffffffffffffffffffffffffffffff1663f23a6e6187878686866040518663ffffffff1660e01b81526004016122be959493929190613219565b602060405180830381600087803b1580156122d857600080fd5b505af192505050801561230957506040513d601f19601f820116820180604052508101906123069190612dbf565b60015b6123af576123156139cb565b806308c379a01415612372575061232a613e56565b806123355750612374565b806040517f08c379a000000000000000000000000000000000000000000000000000000000815260040161236991906133a1565b60405180910390fd5b505b6040517f08c379a00000000000000000000000000000000000000000000000000000000081526004016123a6906133c3565b60405180910390fd5b63f23a6e6160e01b7bffffffffffffffffffffffffffffffffffffffffffffffffffffffff1916817bffffffffffffffffffffffffffffffffffffffffffffffffffffffff191614612436576040517f08c379a000000000000000000000000000000000000000000000000000000000815260040161242d906133e3565b60405180910390fd5b505b505050505050565b61245f8473ffffffffffffffffffffffffffffffffffffffff16612627565b1561261f578373ffffffffffffffffffffffffffffffffffffffff1663bc197c8187878686866040518663ffffffff1660e01b81526004016124a59594939291906131b1565b602060405180830381600087803b1580156124bf57600080fd5b505af19250505080156124f057506040513d601f19601f820116820180604052508101906124ed9190612dbf565b60015b612596576124fc6139cb565b806308c379a014156125595750612511613e56565b8061251c575061255b565b806040517f08c379a000000000000000000000000000000000000000000000000000000000815260040161255091906133a1565b60405180910390fd5b505b6040517f08c379a000000000000000000000000000000000000000000000000000000000815260040161258d906133c3565b60405180910390fd5b63bc197c8160e01b7bffffffffffffffffffffffffffffffffffffffffffffffffffffffff1916817bffffffffffffffffffffffffffffffffffffffffffffffffffffffff19161461261d576040517f08c379a0000000000000000000000000000000000000000000000000000000008152600401612614906133e3565b60405180910390fd5b505b505050505050565b600080823b905060008111915050919050565b600061264d6126488461362c565b613607565b905080838252602082019050828560208602820111156126705761266f6139f2565b5b60005b858110156126a05781612686888261279e565b845260208401935060208301925050600181019050612673565b5050509392505050565b60006126bd6126b884613658565b613607565b905080838252602082019050828560208602820111156126e0576126df6139f2565b5b60005b8581101561271057816126f688826128aa565b8452602084019350602083019250506001810190506126e3565b5050509392505050565b600061272d61272884613684565b613607565b905082815260208101848484011115612749576127486139f7565b5b612754848285613821565b509392505050565b600061276f61276a846136b5565b613607565b90508281526020810184848401111561278b5761278a6139f7565b5b612796848285613821565b509392505050565b6000813590506127ad81613eec565b92915050565b600082601f8301126127c8576127c76139ed565b5b81356127d884826020860161263a565b91505092915050565b600082601f8301126127f6576127f56139ed565b5b81356128068482602086016126aa565b91505092915050565b60008135905061281e81613f03565b92915050565b60008135905061283381613f1a565b92915050565b60008151905061284881613f1a565b92915050565b600082601f830112612863576128626139ed565b5b813561287384826020860161271a565b91505092915050565b600082601f830112612891576128906139ed565b5b81356128a184826020860161275c565b91505092915050565b6000813590506128b981613f31565b92915050565b6000602082840312156128d5576128d4613a01565b5b60006128e38482850161279e565b91505092915050565b6000806040838503121561290357612902613a01565b5b60006129118582860161279e565b92505060206129228582860161279e565b9150509250929050565b600080600080600060a0868803121561294857612947613a01565b5b60006129568882890161279e565b95505060206129678882890161279e565b945050604086013567ffffffffffffffff811115612988576129876139fc565b5b612994888289016127e1565b935050606086013567ffffffffffffffff8111156129b5576129b46139fc565b5b6129c1888289016127e1565b925050608086013567ffffffffffffffff8111156129e2576129e16139fc565b5b6129ee8882890161284e565b9150509295509295909350565b600080600060608486031215612a1457612a13613a01565b5b6000612a228682870161279e565b9350506020612a338682870161279e565b925050604084013567ffffffffffffffff811115612a5457612a536139fc565b5b612a608682870161287c565b9150509250925092565b60008060008060808587031215612a8457612a83613a01565b5b6000612a928782880161279e565b9450506020612aa38782880161279e565b935050604085013567ffffffffffffffff811115612ac457612ac36139fc565b5b612ad08782880161287c565b925050606085013567ffffffffffffffff811115612af157612af06139fc565b5b612afd8782880161287c565b91505092959194509250565b600080600080600060a08688031215612b2557612b24613a01565b5b6000612b338882890161279e565b9550506020612b448882890161279e565b9450506040612b55888289016128aa565b9350506060612b66888289016128aa565b925050608086013567ffffffffffffffff811115612b8757612b866139fc565b5b612b938882890161284e565b9150509295509295909350565b60008060408385031215612bb757612bb6613a01565b5b6000612bc58582860161279e565b9250506020612bd68582860161280f565b9150509250929050565b600080600060608486031215612bf957612bf8613a01565b5b6000612c078682870161279e565b935050602084013567ffffffffffffffff811115612c2857612c276139fc565b5b612c348682870161287c565b9250506040612c458682870161280f565b9150509250925092565b600080600060608486031215612c6857612c67613a01565b5b6000612c768682870161279e565b935050602084013567ffffffffffffffff811115612c9757612c966139fc565b5b612ca38682870161287c565b925050604084013567ffffffffffffffff811115612cc457612cc36139fc565b5b612cd08682870161287c565b9150509250925092565b60008060408385031215612cf157612cf0613a01565b5b6000612cff8582860161279e565b9250506020612d10858286016128aa565b9150509250929050565b60008060408385031215612d3157612d30613a01565b5b600083013567ffffffffffffffff811115612d4f57612d4e6139fc565b5b612d5b858286016127b3565b925050602083013567ffffffffffffffff811115612d7c57612d7b6139fc565b5b612d88858286016127e1565b9150509250929050565b600060208284031215612da857612da7613a01565b5b6000612db684828501612824565b91505092915050565b600060208284031215612dd557612dd4613a01565b5b6000612de384828501612839565b91505092915050565b600060208284031215612e0257612e01613a01565b5b6000612e10848285016128aa565b91505092915050565b6000612e25838361314f565b60208301905092915050565b612e3a816137ad565b82525050565b6000612e4b826136f6565b612e558185613724565b9350612e60836136e6565b8060005b83811015612e91578151612e788882612e19565b9750612e8383613717565b925050600181019050612e64565b5085935050505092915050565b612ea7816137bf565b82525050565b6000612eb882613701565b612ec28185613735565b9350612ed2818560208601613830565b612edb81613a06565b840191505092915050565b6000612ef18261370c565b612efb8185613746565b9350612f0b818560208601613830565b612f1481613a06565b840191505092915050565b6000612f2c603483613746565b9150612f3782613a24565b604082019050919050565b6000612f4f602883613746565b9150612f5a82613a73565b604082019050919050565b6000612f72602b83613746565b9150612f7d82613ac2565b604082019050919050565b6000612f95602983613746565b9150612fa082613b11565b604082019050919050565b6000612fb8602583613746565b9150612fc382613b60565b604082019050919050565b6000612fdb603283613746565b9150612fe682613baf565b604082019050919050565b6000612ffe601683613746565b915061300982613bfe565b602082019050919050565b6000613021601583613746565b915061302c82613c27565b602082019050919050565b6000613044602a83613746565b915061304f82613c50565b604082019050919050565b6000613067601483613746565b915061307282613c9f565b602082019050919050565b600061308a601383613746565b915061309582613cc8565b602082019050919050565b60006130ad601783613746565b91506130b882613cf1565b602082019050919050565b60006130d0602983613746565b91506130db82613d1a565b604082019050919050565b60006130f3602983613746565b91506130fe82613d69565b604082019050919050565b6000613116602883613746565b915061312182613db8565b604082019050919050565b6000613139602183613746565b915061314482613e07565b604082019050919050565b61315881613817565b82525050565b61316781613817565b82525050565b60006020820190506131826000830184612e31565b92915050565b600060408201905061319d6000830185612e31565b6131aa6020830184612e31565b9392505050565b600060a0820190506131c66000830188612e31565b6131d36020830187612e31565b81810360408301526131e58186612e40565b905081810360608301526131f98185612e40565b9050818103608083015261320d8184612ead565b90509695505050505050565b600060a08201905061322e6000830188612e31565b61323b6020830187612e31565b613248604083018661315e565b613255606083018561315e565b81810360808301526132678184612ead565b90509695505050505050565b60006040820190506132886000830185612e31565b613295602083018461315e565b9392505050565b60006060820190506132b16000830186612e31565b6132be602083018561315e565b81810360408301526132d08184612ee6565b9050949350505050565b60006080820190506132ef6000830187612e31565b6132fc602083018661315e565b818103604083015261330e8185612ee6565b905081810360608301526133228184612ee6565b905095945050505050565b600060208201905081810360008301526133478184612e40565b905092915050565b600060408201905081810360008301526133698185612e40565b9050818103602083015261337d8184612e40565b90509392505050565b600060208201905061339b6000830184612e9e565b92915050565b600060208201905081810360008301526133bb8184612ee6565b905092915050565b600060208201905081810360008301526133dc81612f1f565b9050919050565b600060208201905081810360008301526133fc81612f42565b9050919050565b6000602082019050818103600083015261341c81612f65565b9050919050565b6000602082019050818103600083015261343c81612f88565b9050919050565b6000602082019050818103600083015261345c81612fab565b9050919050565b6000602082019050818103600083015261347c81612fce565b9050919050565b6000602082019050818103600083015261349c81612ff1565b9050919050565b600060208201905081810360008301526134bc81613014565b9050919050565b600060208201905081810360008301526134dc81613037565b9050919050565b600060208201905081810360008301526134fc8161305a565b9050919050565b6000602082019050818103600083015261351c8161307d565b9050919050565b6000602082019050818103600083015261353c816130a0565b9050919050565b6000602082019050818103600083015261355c816130c3565b9050919050565b6000602082019050818103600083015261357c816130e6565b9050919050565b6000602082019050818103600083015261359c81613109565b9050919050565b600060208201905081810360008301526135bc8161312c565b9050919050565b60006020820190506135d8600083018461315e565b92915050565b60006040820190506135f3600083018561315e565b613600602083018461315e565b9392505050565b6000613611613622565b905061361d8282613895565b919050565b6000604051905090565b600067ffffffffffffffff8211156136475761364661399c565b5b602082029050602081019050919050565b600067ffffffffffffffff8211156136735761367261399c565b5b602082029050602081019050919050565b600067ffffffffffffffff82111561369f5761369e61399c565b5b6136a882613a06565b9050602081019050919050565b600067ffffffffffffffff8211156136d0576136cf61399c565b5b6136d982613a06565b9050602081019050919050565b6000819050602082019050919050565b600081519050919050565b600081519050919050565b600081519050919050565b6000602082019050919050565b600082825260208201905092915050565b600082825260208201905092915050565b600082825260208201905092915050565b600061376282613817565b915061376d83613817565b9250827fffffffffffffffffffffffffffffffffffffffffffffffffffffffffffffffff038211156137a2576137a161390f565b5b828201905092915050565b60006137b8826137f7565b9050919050565b60008115159050919050565b60007fffffffff0000000000000000000000000000000000000000000000000000000082169050919050565b600073ffffffffffffffffffffffffffffffffffffffff82169050919050565b6000819050919050565b82818337600083830152505050565b60005b8381101561384e578082015181840152602081019050613833565b8381111561385d576000848401525b50505050565b6000600282049050600182168061387b57607f821691505b6020821081141561388f5761388e61393e565b5b50919050565b61389e82613a06565b810181811067ffffffffffffffff821117156138bd576138bc61399c565b5b80604052505050565b60006138d182613817565b91507fffffffffffffffffffffffffffffffffffffffffffffffffffffffffffffffff8214156139045761390361390f565b5b600182019050919050565b7f4e487b7100000000000000000000000000000000000000000000000000000000600052601160045260246000fd5b7f4e487b7100000000000000000000000000000000000000000000000000000000600052602260045260246000fd5b7f4e487b7100000000000000000000000000000000000000000000000000000000600052603260045260246000fd5b7f4e487b7100000000000000000000000000000000000000000000000000000000600052604160045260246000fd5b600060033d11156139ea5760046000803e6139e7600051613a17565b90505b90565b600080fd5b600080fd5b600080fd5b600080fd5b600080fd5b6000601f19601f8301169050919050565b60008160e01c9050919050565b7f455243313135353a207472616e7366657220746f206e6f6e204552433131353560008201527f526563656976657220696d706c656d656e746572000000000000000000000000602082015250565b7f455243313135353a204552433131353552656365697665722072656a6563746560008201527f6420746f6b656e73000000000000000000000000000000000000000000000000602082015250565b7f455243313135353a2062616c616e636520717565727920666f7220746865207a60008201527f65726f2061646472657373000000000000000000000000000000000000000000602082015250565b7f455243313135353a2063616c6c6572206973206e6f74206f776e6572206e6f7260008201527f20617070726f7665640000000000000000000000000000000000000000000000602082015250565b7f455243313135353a207472616e7366657220746f20746865207a65726f20616460008201527f6472657373000000000000000000000000000000000000000000000000000000602082015250565b7f455243313135353a207472616e736665722063616c6c6572206973206e6f742060008201527f6f776e6572206e6f7220617070726f7665640000000000000000000000000000602082015250565b7f4572726f723a206e6f207465787420696e20706f737400000000000000000000600082015250565b7f4572726f723a206e6f20706f7374206578697374730000000000000000000000600082015250565b7f455243313135353a20696e73756666696369656e742062616c616e636520666f60008201527f72207472616e7366657200000000000000000000000000000000000000000000602082015250565b7f4572726f723a2077726f6e67206163636f756e74000000000000000000000000600082015250565b7f4572726f723a2073616d65206163636f756e7400000000000000000000000000600082015250565b7f4572726f723a20227765222063616e6e6f74206d696e74000000000000000000600082015250565b7f455243313135353a2073657474696e6720617070726f76616c2073746174757360008201527f20666f722073656c660000000000000000000000000000000000000000000000602082015250565b7f455243313135353a206163636f756e747320616e6420696473206c656e67746860008201527f206d69736d617463680000000000000000000000000000000000000000000000602082015250565b7f455243313135353a2069647320616e6420616d6f756e7473206c656e6774682060008201527f6d69736d61746368000000000000000000000000000000000000000000000000602082015250565b7f455243313135353a206d696e7420746f20746865207a65726f2061646472657360008201527f7300000000000000000000000000000000000000000000000000000000000000602082015250565b600060443d1015613e6657613ee9565b613e6e613622565b60043d036004823e80513d602482011167ffffffffffffffff82111715613e96575050613ee9565b808201805167ffffffffffffffff811115613eb45750505050613ee9565b80602083010160043d038501811115613ed1575050505050613ee9565b613ee082602001850186613895565b82955050505050505b90565b613ef5816137ad565b8114613f0057600080fd5b50565b613f0c816137bf565b8114613f1757600080fd5b50565b613f23816137cb565b8114613f2e57600080fd5b50565b613f3a81613817565b8114613f4557600080fd5b5056fea26469706673582212205e043e7a51d7cfb265989f8bb8e495207ee3fa02567ba91d030c587bc2d0cde464736f6c63430008070033",
  "immutableReferences": {},
  "source": "// SPDX-License-Identifier: MIT\n\npragma solidity >=0.8.0 <0.9.0;\n\nimport \"@openzeppelin/contracts/token/ERC1155/ERC1155.sol\";\n\n// contract for ME (User Token) with tokenized metadata from engagement\n\ncontract ME is ERC1155 {\n  // minter variable\n  address public minter;\n\n  // ID's for ME's metadata tokens\n  uint256 public constant POST = 0;\n  uint256 public constant LIKE = 1;\n  uint256 public constant TAG = 2;\n  uint256 public constant FOLLOW = 3;\n  uint256 public constant RESPOND = 4;\n  uint256 public constant CURATE = 5;\n  uint256 public constant JURY = 6;\n\n  // minting events\n  event MintPost(address account, uint mintTime, string postHash);\n  event MintLike(address account, uint mintTime, string postHash);\n  event MintTag(address account, uint mintTime);\n  event MintFollow(address account, uint mintTime);\n  event MintRespond(address account, uint mintTime, string postHash, string originHash);\n  event MintCurate(address account, uint mintTime, string postHash, string originHash);\n  event MintJury(address account, uint mintTime, string postHash);\n\n  event MinterChanged(address accountFrom, address accountTo);\n  constructor() public payable ERC1155(\"{id}\") {\n    minter = msg.sender;\n    /*\n    _mint(msg.sender, POST, 0, \"\");\n    _mint(msg.sender, LIKE, 0, \"\");\n    _mint(msg.sender, TAG, 0, \"\");\n    _mint(msg.sender, FOLLOW, 0, \"\");\n    _mint(msg.sender, RESPOND, 0, \"\");\n    _mint(msg.sender, CURATE, 0, \"\");\n    _mint(msg.sender, JURY, 0, \"\");\n    */\n  }\n\n  function mintPost(address account, string memory _postHash, string memory _postText) public {\n    // make sure minter is same as sender, which they would be if they've set up a ME token\n    require(account==msg.sender, 'Error: wrong account');\n    require(minter!=msg.sender, 'Error: \"we\" cannot mint');\n    require(bytes(_postHash).length > 0, 'Error: no post exists'); // check if post hash exists\n    require(bytes(_postText).length > 0, 'Error: no text in post'); // check if there's text in post\n    // mint a POSTED token\n    _mint(address(account), POST, 1, bytes(_postHash));\n    // set event for minted POSTED token\n    emit MintPost(account, block.timestamp, _postHash);\n  }\n\n  function mintLike(address accountFrom, address accountTo, string memory _postHash) public { // 1:3 Liker:Liked\n    require(accountFrom==msg.sender, 'Error: wrong account');\n    require(minter!=msg.sender, 'Error: \"we\" cannot mint');\n    require(bytes(_postHash).length > 0, 'Error: no post exists');\n    // mint a LIKE token for liker\n    _mint(address(accountFrom), LIKE, 1, bytes(_postHash));\n    // set event for LIKE token FROM\n    emit MintLike(accountFrom, block.timestamp, _postHash);\n    // mint LIKE tokens for likee\n    _mint(address(accountTo), LIKE, 3, bytes(_postHash));\n    // set event for LIKE token TO\n    emit MintLike(accountTo, block.timestamp, _postHash);\n  }\n\n  function mintTag(address accountFrom, address accountTo, string memory _postHash) public { // 1:3 Tagger:Tagged\n    require(accountFrom==msg.sender, 'Error: wrong account');\n    require(minter!=msg.sender, 'Error: \"we\" cannot mint');\n    require(accountFrom!=accountTo, 'Error: same account');\n    require(bytes(_postHash).length > 0, 'Error: no post exists');\n    //increase like count\n    //tagCount++;\n    // mint a TAG token for tagger\n    _mint(address(accountFrom), TAG, 1, bytes(_postHash));\n    // set event for TAG token FROM\n    emit MintTag(accountFrom, block.timestamp);\n    // mint TAG tokens for taggee\n    _mint(address(accountTo), TAG, 3, bytes(_postHash));\n    // set event for TAG token TO\n    emit MintTag(accountTo, block.timestamp);\n  }\n\n  function mintFollow(address accountFrom, address accountTo) public { // 1:3 Follower:Followed\n    require(accountFrom==msg.sender, 'Error: wrong account');\n    require(minter!=msg.sender, 'Error: \"we\" cannot mint');\n    require(accountFrom!=accountTo, 'Error: same account'); // doesn't mint tokens if tagged oneself\n    //increase like count\n    //tagCount++;\n    // mint a FOLLOW token for follower\n    _mint(accountFrom, FOLLOW, 1, bytes(\"\"));\n    // set event for FOLLOW token FROM\n    emit MintFollow(accountFrom, block.timestamp);\n    // mint FOLLOW tokens for followed\n    _mint(accountTo, FOLLOW, 3, bytes(\"\"));\n    // set event for FOLLOW token TO\n    emit MintFollow(accountTo, block.timestamp);\n  }\n\n  function mintRespond(address accountFrom, address accountTo, string memory _postHash, string memory _originHash) public { // 2:1 Responder:Responded\n    require(accountFrom==msg.sender, 'Error: wrong account');\n    require(minter!=msg.sender, 'Error: \"we\" cannot mint');\n    //require(minter==msg.sender, 'Error: wrong account '); // makes sure accounts exist\n    require(bytes(_postHash).length > 0, 'Error: no post exists');\n    // mint a RESPOND token for responder\n    _mint(accountFrom, RESPOND, 2, bytes(_postHash));\n    // set event for RESPOND token FROM\n    emit MintRespond(accountFrom, block.timestamp, _postHash, _originHash);\n    // mint RESPOND tokens for responded\n    _mint(accountTo, RESPOND, 1, bytes(_postHash));\n    // set event for RESPOND token TO\n    emit MintRespond(accountTo, block.timestamp, _postHash, _originHash);\n  }\n\n  function mintCurate(address accountFrom, address accountTo, string memory _postHash, string memory _originHash) public { // 4:1 Responder:Responded\n    require(accountFrom==msg.sender, 'Error: wrong account');\n    require(minter!=msg.sender, 'Error: \"we\" cannot mint');\n    require(accountFrom!=accountTo, 'Error: same account'); // doesn't mint tokens if tagged oneself\n    require(bytes(_postHash).length > 0, 'Error: no post exists');\n    // mint a CURATE token for curatee\n    _mint(accountFrom, CURATE, 4, bytes(_postHash));\n    // set event for CURATE token FROM\n    emit MintCurate(accountFrom, block.timestamp, _postHash, _originHash);\n    // mint CURATE tokens for curator\n    _mint(accountTo, CURATE, 1, bytes(_postHash));\n    // set event for CURATE token TO\n    emit MintCurate(accountTo, block.timestamp, _postHash, _originHash);\n  }\n\n  function mintJury(address account, string memory _postHash, bool consensusReached) public { // 1 Juror token if no consensus reached, 5if consensus reached\n    require(account==msg.sender, 'Error: wrong account');\n    require(minter!=msg.sender, 'Error: \"we\" cannot mint');\n    require(bytes(_postHash).length > 0, 'Error: no post exists');\n    if(consensusReached==true){\n      // mint 10 JURY token for juror\n      _mint(account, JURY, 5, bytes(_postHash));\n      // set event for JURY token consensus reached\n      emit MintJury(account, block.timestamp, _postHash);\n    } else if(consensusReached==false){\n      // mint a JURY token for juror\n      _mint(account, JURY, 1, bytes(_postHash));\n      // set event for JURY no consensus reached\n      emit MintJury(account, block.timestamp, _postHash);\n    }\n  }\n  function passMinterRole(address we) public returns (bool) {\n    //require(msg.sender == minter, 'Error, only owner can change pass minter role');\n    minter = we;\n\n    emit MinterChanged(msg.sender, we);\n    return true;\n  }\n}\n",
  "sourcePath": "/Users/jaiq/Documents/000 BLOCKCHAIN/ETH/uMe/src/contracts/ME.sol",
  "compiler": {
    "name": "solc",
    "version": "0.8.7+commit.e28d00a7.Emscripten.clang"
  },
  "schemaVersion": "3.4.3",
  "updatedAt": "2021-08-18T20:02:28.776Z",
  "networkType": "ethereum",
  "devdoc": {
    "kind": "dev",
    "methods": {
      "balanceOf(address,uint256)": {
        "details": "See {IERC1155-balanceOf}. Requirements: - `account` cannot be the zero address."
      },
      "balanceOfBatch(address[],uint256[])": {
        "details": "See {IERC1155-balanceOfBatch}. Requirements: - `accounts` and `ids` must have the same length."
      },
      "isApprovedForAll(address,address)": {
        "details": "See {IERC1155-isApprovedForAll}."
      },
      "safeBatchTransferFrom(address,address,uint256[],uint256[],bytes)": {
        "details": "See {IERC1155-safeBatchTransferFrom}."
      },
      "safeTransferFrom(address,address,uint256,uint256,bytes)": {
        "details": "See {IERC1155-safeTransferFrom}."
      },
      "setApprovalForAll(address,bool)": {
        "details": "See {IERC1155-setApprovalForAll}."
      },
      "supportsInterface(bytes4)": {
        "details": "See {IERC165-supportsInterface}."
      },
      "uri(uint256)": {
        "details": "See {IERC1155MetadataURI-uri}. This implementation returns the same URI for *all* token types. It relies on the token type ID substitution mechanism https://eips.ethereum.org/EIPS/eip-1155#metadata[defined in the EIP]. Clients calling this function must replace the `\\{id\\}` substring with the actual token type ID."
      }
    },
    "version": 1
  },
  "userdoc": {
    "kind": "user",
    "methods": {},
    "version": 1
  }
}