{
  "contractName": "MemeStorage",
  "abi": [
    {
      "inputs": [],
      "stateMutability": "nonpayable",
      "type": "constructor"
    },
    {
      "anonymous": false,
      "inputs": [
        {
          "indexed": true,
          "internalType": "address",
          "name": "from",
          "type": "address"
        },
        {
          "indexed": true,
          "internalType": "address",
          "name": "to",
          "type": "address"
        }
      ],
      "name": "BoostSignerChanged",
      "type": "event"
    },
    {
      "anonymous": false,
      "inputs": [
        {
          "indexed": true,
          "internalType": "address",
          "name": "from",
          "type": "address"
        },
        {
          "indexed": true,
          "internalType": "address",
          "name": "to",
          "type": "address"
        }
      ],
      "name": "FactorySignerChanged",
      "type": "event"
    },
    {
      "anonymous": false,
      "inputs": [
        {
          "indexed": true,
          "internalType": "address",
          "name": "from",
          "type": "address"
        },
        {
          "indexed": true,
          "internalType": "address",
          "name": "to",
          "type": "address"
        }
      ],
      "name": "InterfaceSignerChanged",
      "type": "event"
    },
    {
      "anonymous": false,
      "inputs": [
        {
          "indexed": true,
          "internalType": "address",
          "name": "from",
          "type": "address"
        },
        {
          "indexed": true,
          "internalType": "address",
          "name": "to",
          "type": "address"
        }
      ],
      "name": "LikeSignerChanged",
      "type": "event"
    },
    {
      "anonymous": false,
      "inputs": [
        {
          "indexed": true,
          "internalType": "address",
          "name": "from",
          "type": "address"
        },
        {
          "indexed": true,
          "internalType": "address",
          "name": "to",
          "type": "address"
        }
      ],
      "name": "PostSignerChanged",
      "type": "event"
    },
    {
      "inputs": [],
      "name": "boostSigner",
      "outputs": [
        {
          "internalType": "address",
          "name": "",
          "type": "address"
        }
      ],
      "stateMutability": "view",
      "type": "function",
      "constant": true
    },
    {
      "inputs": [],
      "name": "factorySigner",
      "outputs": [
        {
          "internalType": "address",
          "name": "",
          "type": "address"
        }
      ],
      "stateMutability": "view",
      "type": "function",
      "constant": true
    },
    {
      "inputs": [],
      "name": "interfaceSigner",
      "outputs": [
        {
          "internalType": "address",
          "name": "",
          "type": "address"
        }
      ],
      "stateMutability": "view",
      "type": "function",
      "constant": true
    },
    {
      "inputs": [],
      "name": "likeSigner",
      "outputs": [
        {
          "internalType": "address",
          "name": "",
          "type": "address"
        }
      ],
      "stateMutability": "view",
      "type": "function",
      "constant": true
    },
    {
      "inputs": [],
      "name": "memeCount",
      "outputs": [
        {
          "internalType": "uint256",
          "name": "",
          "type": "uint256"
        }
      ],
      "stateMutability": "view",
      "type": "function",
      "constant": true
    },
    {
      "inputs": [
        {
          "internalType": "bytes32",
          "name": "",
          "type": "bytes32"
        }
      ],
      "name": "memes",
      "outputs": [
        {
          "internalType": "bytes32",
          "name": "id",
          "type": "bytes32"
        },
        {
          "internalType": "uint256",
          "name": "time",
          "type": "uint256"
        },
        {
          "internalType": "string",
          "name": "text",
          "type": "string"
        },
        {
          "internalType": "uint256",
          "name": "boosts",
          "type": "uint256"
        },
        {
          "internalType": "bytes32",
          "name": "repostId",
          "type": "bytes32"
        },
        {
          "internalType": "bytes32",
          "name": "parentId",
          "type": "bytes32"
        },
        {
          "internalType": "bytes32",
          "name": "originId",
          "type": "bytes32"
        },
        {
          "internalType": "address",
          "name": "author",
          "type": "address"
        },
        {
          "internalType": "bool",
          "name": "isVisible",
          "type": "bool"
        }
      ],
      "stateMutability": "view",
      "type": "function",
      "constant": true
    },
    {
      "inputs": [],
      "name": "postSigner",
      "outputs": [
        {
          "internalType": "address",
          "name": "",
          "type": "address"
        }
      ],
      "stateMutability": "view",
      "type": "function",
      "constant": true
    },
    {
      "inputs": [
        {
          "internalType": "bytes32",
          "name": "_memeId",
          "type": "bytes32"
        },
        {
          "components": [
            {
              "internalType": "bytes32",
              "name": "id",
              "type": "bytes32"
            },
            {
              "internalType": "uint256",
              "name": "time",
              "type": "uint256"
            },
            {
              "internalType": "string",
              "name": "text",
              "type": "string"
            },
            {
              "internalType": "uint256",
              "name": "boosts",
              "type": "uint256"
            },
            {
              "internalType": "address[]",
              "name": "likers",
              "type": "address[]"
            },
            {
              "internalType": "address[]",
              "name": "unlikers",
              "type": "address[]"
            },
            {
              "internalType": "bytes32[]",
              "name": "reposts",
              "type": "bytes32[]"
            },
            {
              "internalType": "bytes32[]",
              "name": "quotePosts",
              "type": "bytes32[]"
            },
            {
              "internalType": "bytes32",
              "name": "repostId",
              "type": "bytes32"
            },
            {
              "internalType": "address[]",
              "name": "tags",
              "type": "address[]"
            },
            {
              "internalType": "bytes32[]",
              "name": "responses",
              "type": "bytes32[]"
            },
            {
              "internalType": "bytes32",
              "name": "parentId",
              "type": "bytes32"
            },
            {
              "internalType": "bytes32",
              "name": "originId",
              "type": "bytes32"
            },
            {
              "internalType": "address",
              "name": "author",
              "type": "address"
            },
            {
              "internalType": "bool",
              "name": "isVisible",
              "type": "bool"
            }
          ],
          "internalType": "struct MemeStorage.Meme",
          "name": "_meme",
          "type": "tuple"
        }
      ],
      "name": "setMeme",
      "outputs": [],
      "stateMutability": "nonpayable",
      "type": "function"
    },
    {
      "inputs": [
        {
          "internalType": "bytes32",
          "name": "_memeId",
          "type": "bytes32"
        }
      ],
      "name": "deleteMeme",
      "outputs": [],
      "stateMutability": "nonpayable",
      "type": "function"
    },
    {
      "inputs": [],
      "name": "increaseMemeCount",
      "outputs": [],
      "stateMutability": "nonpayable",
      "type": "function"
    },
    {
      "inputs": [
        {
          "internalType": "bytes32",
          "name": "_memeId",
          "type": "bytes32"
        },
        {
          "internalType": "bytes32[]",
          "name": "_responses",
          "type": "bytes32[]"
        }
      ],
      "name": "setResponses",
      "outputs": [],
      "stateMutability": "nonpayable",
      "type": "function"
    },
    {
      "inputs": [
        {
          "internalType": "bytes32",
          "name": "_memeId",
          "type": "bytes32"
        },
        {
          "internalType": "bytes32[]",
          "name": "_reposts",
          "type": "bytes32[]"
        }
      ],
      "name": "setReposts",
      "outputs": [],
      "stateMutability": "nonpayable",
      "type": "function"
    },
    {
      "inputs": [
        {
          "internalType": "bytes32",
          "name": "_memeId",
          "type": "bytes32"
        },
        {
          "internalType": "bytes32[]",
          "name": "_quotePosts",
          "type": "bytes32[]"
        }
      ],
      "name": "setQuotePosts",
      "outputs": [],
      "stateMutability": "nonpayable",
      "type": "function"
    },
    {
      "inputs": [
        {
          "internalType": "bytes32",
          "name": "_memeId",
          "type": "bytes32"
        },
        {
          "internalType": "address[]",
          "name": "_likers",
          "type": "address[]"
        }
      ],
      "name": "setLikers",
      "outputs": [],
      "stateMutability": "nonpayable",
      "type": "function"
    },
    {
      "inputs": [
        {
          "internalType": "bytes32",
          "name": "_memeId",
          "type": "bytes32"
        },
        {
          "internalType": "address[]",
          "name": "_unlikers",
          "type": "address[]"
        }
      ],
      "name": "setUnlikers",
      "outputs": [],
      "stateMutability": "nonpayable",
      "type": "function"
    },
    {
      "inputs": [
        {
          "internalType": "bytes32",
          "name": "_memeId",
          "type": "bytes32"
        },
        {
          "internalType": "uint256",
          "name": "_boosts",
          "type": "uint256"
        }
      ],
      "name": "addBoost",
      "outputs": [],
      "stateMutability": "nonpayable",
      "type": "function"
    },
    {
      "inputs": [
        {
          "internalType": "bytes32",
          "name": "_memeId",
          "type": "bytes32"
        },
        {
          "internalType": "uint256",
          "name": "_boosts",
          "type": "uint256"
        }
      ],
      "name": "subtractBoost",
      "outputs": [],
      "stateMutability": "nonpayable",
      "type": "function"
    },
    {
      "inputs": [],
      "name": "getMemeCount",
      "outputs": [
        {
          "internalType": "uint256",
          "name": "",
          "type": "uint256"
        }
      ],
      "stateMutability": "view",
      "type": "function",
      "constant": true
    },
    {
      "inputs": [
        {
          "internalType": "bytes32",
          "name": "_memeId",
          "type": "bytes32"
        }
      ],
      "name": "getText",
      "outputs": [
        {
          "internalType": "string",
          "name": "",
          "type": "string"
        }
      ],
      "stateMutability": "view",
      "type": "function",
      "constant": true
    },
    {
      "inputs": [
        {
          "internalType": "bytes32",
          "name": "_memeId",
          "type": "bytes32"
        }
      ],
      "name": "getLikeCount",
      "outputs": [
        {
          "internalType": "uint256",
          "name": "",
          "type": "uint256"
        }
      ],
      "stateMutability": "view",
      "type": "function",
      "constant": true
    },
    {
      "inputs": [
        {
          "internalType": "bytes32",
          "name": "_memeId",
          "type": "bytes32"
        }
      ],
      "name": "getBoost",
      "outputs": [
        {
          "internalType": "uint256",
          "name": "",
          "type": "uint256"
        }
      ],
      "stateMutability": "view",
      "type": "function",
      "constant": true
    },
    {
      "inputs": [
        {
          "internalType": "bytes32",
          "name": "_memeId",
          "type": "bytes32"
        }
      ],
      "name": "getLikers",
      "outputs": [
        {
          "internalType": "address[]",
          "name": "",
          "type": "address[]"
        }
      ],
      "stateMutability": "view",
      "type": "function",
      "constant": true
    },
    {
      "inputs": [
        {
          "internalType": "bytes32",
          "name": "_memeId",
          "type": "bytes32"
        }
      ],
      "name": "getUnlikers",
      "outputs": [
        {
          "internalType": "address[]",
          "name": "",
          "type": "address[]"
        }
      ],
      "stateMutability": "view",
      "type": "function",
      "constant": true
    },
    {
      "inputs": [
        {
          "internalType": "bytes32",
          "name": "_memeId",
          "type": "bytes32"
        }
      ],
      "name": "getRepostCount",
      "outputs": [
        {
          "internalType": "uint256",
          "name": "",
          "type": "uint256"
        }
      ],
      "stateMutability": "view",
      "type": "function",
      "constant": true
    },
    {
      "inputs": [
        {
          "internalType": "bytes32",
          "name": "_memeId",
          "type": "bytes32"
        }
      ],
      "name": "getReposts",
      "outputs": [
        {
          "internalType": "bytes32[]",
          "name": "",
          "type": "bytes32[]"
        }
      ],
      "stateMutability": "view",
      "type": "function",
      "constant": true
    },
    {
      "inputs": [
        {
          "internalType": "bytes32",
          "name": "_memeId",
          "type": "bytes32"
        }
      ],
      "name": "getQuotePostCount",
      "outputs": [
        {
          "internalType": "uint256",
          "name": "",
          "type": "uint256"
        }
      ],
      "stateMutability": "view",
      "type": "function",
      "constant": true
    },
    {
      "inputs": [
        {
          "internalType": "bytes32",
          "name": "_memeId",
          "type": "bytes32"
        }
      ],
      "name": "getQuotePosts",
      "outputs": [
        {
          "internalType": "bytes32[]",
          "name": "",
          "type": "bytes32[]"
        }
      ],
      "stateMutability": "view",
      "type": "function",
      "constant": true
    },
    {
      "inputs": [
        {
          "internalType": "bytes32",
          "name": "_memeId",
          "type": "bytes32"
        }
      ],
      "name": "getTags",
      "outputs": [
        {
          "internalType": "address[]",
          "name": "",
          "type": "address[]"
        }
      ],
      "stateMutability": "view",
      "type": "function",
      "constant": true
    },
    {
      "inputs": [
        {
          "internalType": "bytes32",
          "name": "_memeId",
          "type": "bytes32"
        }
      ],
      "name": "getResponseCount",
      "outputs": [
        {
          "internalType": "uint256",
          "name": "",
          "type": "uint256"
        }
      ],
      "stateMutability": "view",
      "type": "function",
      "constant": true
    },
    {
      "inputs": [
        {
          "internalType": "bytes32",
          "name": "_memeId",
          "type": "bytes32"
        }
      ],
      "name": "getResponses",
      "outputs": [
        {
          "internalType": "bytes32[]",
          "name": "",
          "type": "bytes32[]"
        }
      ],
      "stateMutability": "view",
      "type": "function",
      "constant": true
    },
    {
      "inputs": [
        {
          "internalType": "bytes32",
          "name": "_memeId",
          "type": "bytes32"
        }
      ],
      "name": "getParentId",
      "outputs": [
        {
          "internalType": "bytes32",
          "name": "",
          "type": "bytes32"
        }
      ],
      "stateMutability": "view",
      "type": "function",
      "constant": true
    },
    {
      "inputs": [
        {
          "internalType": "bytes32",
          "name": "_memeId",
          "type": "bytes32"
        }
      ],
      "name": "getOriginId",
      "outputs": [
        {
          "internalType": "bytes32",
          "name": "",
          "type": "bytes32"
        }
      ],
      "stateMutability": "view",
      "type": "function",
      "constant": true
    },
    {
      "inputs": [
        {
          "internalType": "bytes32",
          "name": "_memeId",
          "type": "bytes32"
        }
      ],
      "name": "getRepostId",
      "outputs": [
        {
          "internalType": "bytes32",
          "name": "",
          "type": "bytes32"
        }
      ],
      "stateMutability": "view",
      "type": "function",
      "constant": true
    },
    {
      "inputs": [
        {
          "internalType": "bytes32",
          "name": "_memeId",
          "type": "bytes32"
        }
      ],
      "name": "getAuthor",
      "outputs": [
        {
          "internalType": "address",
          "name": "",
          "type": "address"
        }
      ],
      "stateMutability": "view",
      "type": "function",
      "constant": true
    },
    {
      "inputs": [
        {
          "internalType": "bytes32",
          "name": "_memeId",
          "type": "bytes32"
        }
      ],
      "name": "getVisibility",
      "outputs": [
        {
          "internalType": "bool",
          "name": "",
          "type": "bool"
        }
      ],
      "stateMutability": "view",
      "type": "function",
      "constant": true
    },
    {
      "inputs": [
        {
          "internalType": "uint256",
          "name": "_memeId",
          "type": "uint256"
        }
      ],
      "name": "getEncodeId",
      "outputs": [
        {
          "internalType": "bytes32",
          "name": "",
          "type": "bytes32"
        }
      ],
      "stateMutability": "view",
      "type": "function",
      "constant": true
    },
    {
      "inputs": [
        {
          "internalType": "uint256",
          "name": "_memeId",
          "type": "uint256"
        }
      ],
      "name": "getEncodeLikeCount",
      "outputs": [
        {
          "internalType": "uint256",
          "name": "",
          "type": "uint256"
        }
      ],
      "stateMutability": "view",
      "type": "function",
      "constant": true
    },
    {
      "inputs": [
        {
          "internalType": "uint256",
          "name": "_memeId",
          "type": "uint256"
        }
      ],
      "name": "getEncodeLikers",
      "outputs": [
        {
          "internalType": "address[]",
          "name": "",
          "type": "address[]"
        }
      ],
      "stateMutability": "view",
      "type": "function",
      "constant": true
    },
    {
      "inputs": [
        {
          "internalType": "uint256",
          "name": "_memeId",
          "type": "uint256"
        }
      ],
      "name": "getEncodeUnlikers",
      "outputs": [
        {
          "internalType": "address[]",
          "name": "",
          "type": "address[]"
        }
      ],
      "stateMutability": "view",
      "type": "function",
      "constant": true
    },
    {
      "inputs": [
        {
          "internalType": "uint256",
          "name": "_memeId",
          "type": "uint256"
        }
      ],
      "name": "getEncodeRepostCount",
      "outputs": [
        {
          "internalType": "uint256",
          "name": "",
          "type": "uint256"
        }
      ],
      "stateMutability": "view",
      "type": "function",
      "constant": true
    },
    {
      "inputs": [
        {
          "internalType": "uint256",
          "name": "_memeId",
          "type": "uint256"
        }
      ],
      "name": "getEncodeReposts",
      "outputs": [
        {
          "internalType": "bytes32[]",
          "name": "",
          "type": "bytes32[]"
        }
      ],
      "stateMutability": "view",
      "type": "function",
      "constant": true
    },
    {
      "inputs": [
        {
          "internalType": "uint256",
          "name": "_memeId",
          "type": "uint256"
        }
      ],
      "name": "getEncodeQuotePostCount",
      "outputs": [
        {
          "internalType": "uint256",
          "name": "",
          "type": "uint256"
        }
      ],
      "stateMutability": "view",
      "type": "function",
      "constant": true
    },
    {
      "inputs": [
        {
          "internalType": "uint256",
          "name": "_memeId",
          "type": "uint256"
        }
      ],
      "name": "getEncodeQuotePosts",
      "outputs": [
        {
          "internalType": "bytes32[]",
          "name": "",
          "type": "bytes32[]"
        }
      ],
      "stateMutability": "view",
      "type": "function",
      "constant": true
    },
    {
      "inputs": [
        {
          "internalType": "uint256",
          "name": "_memeId",
          "type": "uint256"
        }
      ],
      "name": "getEncodeTags",
      "outputs": [
        {
          "internalType": "address[]",
          "name": "",
          "type": "address[]"
        }
      ],
      "stateMutability": "view",
      "type": "function",
      "constant": true
    },
    {
      "inputs": [
        {
          "internalType": "uint256",
          "name": "_memeId",
          "type": "uint256"
        }
      ],
      "name": "getEncodeResponseCount",
      "outputs": [
        {
          "internalType": "uint256",
          "name": "",
          "type": "uint256"
        }
      ],
      "stateMutability": "view",
      "type": "function",
      "constant": true
    },
    {
      "inputs": [
        {
          "internalType": "uint256",
          "name": "_memeId",
          "type": "uint256"
        }
      ],
      "name": "getEncodeResponses",
      "outputs": [
        {
          "internalType": "bytes32[]",
          "name": "",
          "type": "bytes32[]"
        }
      ],
      "stateMutability": "view",
      "type": "function",
      "constant": true
    },
    {
      "inputs": [
        {
          "internalType": "uint256",
          "name": "_memeId",
          "type": "uint256"
        }
      ],
      "name": "getEncodeParentId",
      "outputs": [
        {
          "internalType": "bytes32",
          "name": "",
          "type": "bytes32"
        }
      ],
      "stateMutability": "view",
      "type": "function",
      "constant": true
    },
    {
      "inputs": [
        {
          "internalType": "uint256",
          "name": "_memeId",
          "type": "uint256"
        }
      ],
      "name": "getEncodeOriginId",
      "outputs": [
        {
          "internalType": "bytes32",
          "name": "",
          "type": "bytes32"
        }
      ],
      "stateMutability": "view",
      "type": "function",
      "constant": true
    },
    {
      "inputs": [
        {
          "internalType": "uint256",
          "name": "_memeId",
          "type": "uint256"
        }
      ],
      "name": "getEncodeAuthor",
      "outputs": [
        {
          "internalType": "address",
          "name": "",
          "type": "address"
        }
      ],
      "stateMutability": "view",
      "type": "function",
      "constant": true
    },
    {
      "inputs": [
        {
          "internalType": "uint256",
          "name": "_memeId",
          "type": "uint256"
        }
      ],
      "name": "getEncodeVisibility",
      "outputs": [
        {
          "internalType": "bool",
          "name": "",
          "type": "bool"
        }
      ],
      "stateMutability": "view",
      "type": "function",
      "constant": true
    },
    {
      "inputs": [
        {
          "internalType": "address",
          "name": "_memeFactory",
          "type": "address"
        }
      ],
      "name": "passFactorySigner",
      "outputs": [
        {
          "internalType": "bool",
          "name": "",
          "type": "bool"
        }
      ],
      "stateMutability": "nonpayable",
      "type": "function"
    },
    {
      "inputs": [
        {
          "internalType": "address",
          "name": "_userInterface",
          "type": "address"
        }
      ],
      "name": "passInterfaceSigner",
      "outputs": [
        {
          "internalType": "bool",
          "name": "",
          "type": "bool"
        }
      ],
      "stateMutability": "nonpayable",
      "type": "function"
    },
    {
      "inputs": [
        {
          "internalType": "address",
          "name": "_post",
          "type": "address"
        }
      ],
      "name": "passPostSigner",
      "outputs": [
        {
          "internalType": "bool",
          "name": "",
          "type": "bool"
        }
      ],
      "stateMutability": "nonpayable",
      "type": "function"
    },
    {
      "inputs": [
        {
          "internalType": "address",
          "name": "_like",
          "type": "address"
        }
      ],
      "name": "passLikeSigner",
      "outputs": [
        {
          "internalType": "bool",
          "name": "",
          "type": "bool"
        }
      ],
      "stateMutability": "nonpayable",
      "type": "function"
    },
    {
      "inputs": [
        {
          "internalType": "address",
          "name": "_boost",
          "type": "address"
        }
      ],
      "name": "passBoostSigner",
      "outputs": [
        {
          "internalType": "bool",
          "name": "",
          "type": "bool"
        }
      ],
      "stateMutability": "nonpayable",
      "type": "function"
    }
  ],
  "bytecode": "0x6080604052600060055534801561001557600080fd5b50336000806101000a81548173ffffffffffffffffffffffffffffffffffffffff021916908373ffffffffffffffffffffffffffffffffffffffff16021790555033600160006101000a81548173ffffffffffffffffffffffffffffffffffffffff021916908373ffffffffffffffffffffffffffffffffffffffff16021790555033600260006101000a81548173ffffffffffffffffffffffffffffffffffffffff021916908373ffffffffffffffffffffffffffffffffffffffff16021790555033600360006101000a81548173ffffffffffffffffffffffffffffffffffffffff021916908373ffffffffffffffffffffffffffffffffffffffff16021790555033600460006101000a81548173ffffffffffffffffffffffffffffffffffffffff021916908373ffffffffffffffffffffffffffffffffffffffff160217905550613f1e806101696000396000f3fe608060405234801561001057600080fd5b506004361061035d5760003560e01c806391fe1a8f116101d3578063d092b7b311610104578063edcd526a116100a2578063f64458bd1161007c578063f64458bd14610bc8578063f8f1be2214610bf8578063f8f3d03714610c28578063fae6066414610c325761035d565b8063edcd526a14610b38578063f00c970414610b68578063f1e25e8514610b985761035d565b8063ddf60c93116100de578063ddf60c9314610aa0578063e2975f0914610abc578063e83a8fdd14610aec578063e9bdf97614610b1c5761035d565b8063d092b7b314610a08578063d4b8df2214610a38578063ddeeeed514610a685761035d565b8063af82e19211610171578063bd0a4e9e1161014b578063bd0a4e9e1461095c578063c4e172da14610978578063c627f1ee146109a8578063c6ede8bb146109d85761035d565b8063af82e192146108e0578063b5b421e114610910578063bacd910c146109405761035d565b80639ca9dcab116101ad5780639ca9dcab14610858578063a6838c7b14610876578063aaf837c5146108a6578063af5dffde146108c25761035d565b806391fe1a8f146107c857806393d2c854146107f857806398316938146108285761035d565b8063563f4f65116102ad57806370d2c46b1161024b5780637b2124d2116102255780637b2124d21461073e578063829a262c1461075c57806385188f3c1461077a5780638c98876f146107aa5761035d565b806370d2c46b146106d65780637135cc10146106f257806372d9fe5d1461070e5761035d565b80635bba8fef116102875780635bba8fef1461062857806369171f5c14610646578063691d1c28146106765780637071af84146106a65761035d565b8063563f4f65146105aa5780635713663c146105da5780635aa644131461060a5761035d565b8063261837171161031a5780633331cb33116102f45780633331cb33146105125780633a93c5fa146105425780634fd5d4741461055e57806350de13f91461058e5761035d565b8063261837171461048257806326cecfcf146104b25780632ecf6401146104e25761035d565b806306e6a7701461036257806316fb584e1461039257806317dcaab6146103c257806318a01aac146103f25780631956fbc914610422578063213059dd14610452575b600080fd5b61037c600480360381019061037791906131cb565b610c62565b60405161038991906136ab565b60405180910390f35b6103ac60048036038101906103a79190613379565b610dba565b6040516103b9919061364c565b60405180910390f35b6103dc60048036038101906103d791906131cb565b610e20565b6040516103e991906136ab565b60405180910390f35b61040c60048036038101906104079190613379565b610f74565b60405161041991906136ab565b60405180910390f35b61043c60048036038101906104379190613379565b610fc7565b6040516104499190613689565b60405180910390f35b61046c600480360381019061046791906131f8565b61105b565b6040516104799190613667565b60405180910390f35b61049c60048036038101906104979190613379565b6110ff565b6040516104a99190613689565b60405180910390f35b6104cc60048036038101906104c79190613379565b611193565b6040516104d991906136c6565b60405180910390f35b6104fc60048036038101906104f79190613379565b6111d9565b60405161050991906136c6565b60405180910390f35b61052c60048036038101906105279190613379565b61121f565b6040516105399190613689565b60405180910390f35b61055c60048036038101906105579190613339565b6112b3565b005b610578600480360381019061057391906131f8565b611374565b6040516105859190613667565b60405180910390f35b6105a860048036038101906105a39190613281565b611418565b005b6105c460048036038101906105bf9190613379565b6114d5565b6040516105d19190613667565b60405180910390f35b6105f460048036038101906105ef91906131f8565b61159f565b6040516106019190613877565b60405180910390f35b6106126115c2565b60405161061f919061364c565b60405180910390f35b6106306115e6565b60405161063d919061364c565b60405180910390f35b610660600480360381019061065b91906131f8565b61160c565b60405161066d9190613689565b60405180910390f35b610690600480360381019061068b91906131f8565b61167a565b60405161069d919061364c565b60405180910390f35b6106c060048036038101906106bb91906131f8565b6116ba565b6040516106cd91906136c6565b60405180910390f35b6106f060048036038101906106eb9190613339565b6116da565b005b61070c60048036038101906107079190613225565b6118a1565b005b610728600480360381019061072391906131f8565b611960565b6040516107359190613689565b60405180910390f35b6107466119ce565b6040516107539190613877565b60405180910390f35b6107646119d4565b604051610771919061364c565b60405180910390f35b610794600480360381019061078f91906131f8565b6119fa565b6040516107a19190613877565b60405180910390f35b6107b2611a1a565b6040516107bf919061364c565b60405180910390f35b6107e260048036038101906107dd91906131cb565b611a40565b6040516107ef91906136ab565b60405180910390f35b610812600480360381019061080d9190613379565b611b98565b60405161081f9190613667565b60405180910390f35b610842600480360381019061083d91906131f8565b611c62565b60405161084f9190613877565b60405180910390f35b610860611c85565b60405161086d9190613877565b60405180910390f35b610890600480360381019061088b91906131cb565b611c8f565b60405161089d91906136ab565b60405180910390f35b6108c060048036038101906108bb91906131f8565b611de7565b005b6108ca611f69565b6040516108d7919061364c565b60405180910390f35b6108fa60048036038101906108f59190613379565b611f8f565b60405161090791906136c6565b60405180910390f35b61092a60048036038101906109259190613379565b611fd5565b6040516109379190613667565b60405180910390f35b61095a60048036038101906109559190613281565b61209f565b005b61097660048036038101906109719190613281565b61215c565b005b610992600480360381019061098d91906131cb565b612219565b60405161099f91906136ab565b60405180910390f35b6109c260048036038101906109bd91906131f8565b612371565b6040516109cf91906136ab565b60405180910390f35b6109f260048036038101906109ed9190613379565b61239e565b6040516109ff9190613877565b60405180910390f35b610a226004803603810190610a1d9190613379565b6123e7565b604051610a2f9190613877565b60405180910390f35b610a526004803603810190610a4d91906131f8565b612430565b604051610a5f9190613689565b60405180910390f35b610a826004803603810190610a7d91906131f8565b61249e565b604051610a97999897969594939291906136e1565b60405180910390f35b610aba6004803603810190610ab591906132dd565b6125a1565b005b610ad66004803603810190610ad191906131f8565b6127bf565b604051610ae391906136c6565b60405180910390f35b610b066004803603810190610b019190613379565b6127df565b604051610b139190613877565b60405180910390f35b610b366004803603810190610b319190613225565b612828565b005b610b526004803603810190610b4d91906131f8565b6128e7565b604051610b5f9190613667565b60405180910390f35b610b826004803603810190610b7d9190613379565b61298b565b604051610b8f9190613877565b60405180910390f35b610bb26004803603810190610bad91906131f8565b6129d4565b604051610bbf91906136c6565b60405180910390f35b610be26004803603810190610bdd91906131f8565b6129f4565b604051610bef9190613775565b60405180910390f35b610c126004803603810190610c0d91906131f8565b612a9c565b604051610c1f9190613877565b60405180910390f35b610c30612abf565b005b610c4c6004803603810190610c4791906131f8565b612b67565b604051610c599190613877565b60405180910390f35b6000600360009054906101000a900473ffffffffffffffffffffffffffffffffffffffff1673ffffffffffffffffffffffffffffffffffffffff163373ffffffffffffffffffffffffffffffffffffffff1614610cf4576040517f08c379a0000000000000000000000000000000000000000000000000000000008152600401610ceb90613817565b60405180910390fd5b81600360006101000a81548173ffffffffffffffffffffffffffffffffffffffff021916908373ffffffffffffffffffffffffffffffffffffffff160217905550600360009054906101000a900473ffffffffffffffffffffffffffffffffffffffff1673ffffffffffffffffffffffffffffffffffffffff163373ffffffffffffffffffffffffffffffffffffffff167f2364065f519eb2e0ac13040d65b1d1140f6677de0518b6dee6954e49f7f7a5b660405160405180910390a360019050919050565b60006006600083604051602001610dd19190613631565b604051602081830303815290604052805190602001208152602001908152602001600020600d0160009054906101000a900473ffffffffffffffffffffffffffffffffffffffff169050919050565b60008060009054906101000a900473ffffffffffffffffffffffffffffffffffffffff1673ffffffffffffffffffffffffffffffffffffffff163373ffffffffffffffffffffffffffffffffffffffff1614610eb1576040517f08c379a0000000000000000000000000000000000000000000000000000000008152600401610ea8906137d7565b60405180910390fd5b816000806101000a81548173ffffffffffffffffffffffffffffffffffffffff021916908373ffffffffffffffffffffffffffffffffffffffff16021790555060008054906101000a900473ffffffffffffffffffffffffffffffffffffffff1673ffffffffffffffffffffffffffffffffffffffff163373ffffffffffffffffffffffffffffffffffffffff167f5f8b18be53cdf9843c4263461966fc46896a2d372d3fa87fc22f6cfed024186260405160405180910390a360019050919050565b60006006600083604051602001610f8b9190613631565b604051602081830303815290604052805190602001208152602001908152602001600020600d0160149054906101000a900460ff169050919050565b60606006600083604051602001610fde9190613631565b60405160208183030381529060405280519060200120815260200190815260200160002060070180548060200260200160405190810160405280929190818152602001828054801561104f57602002820191906000526020600020905b81548152602001906001019080831161103b575b50505050509050919050565b6060600660008381526020019081526020016000206004018054806020026020016040519081016040528092919081815260200182805480156110f357602002820191906000526020600020905b8160009054906101000a900473ffffffffffffffffffffffffffffffffffffffff1673ffffffffffffffffffffffffffffffffffffffff16815260200190600101908083116110a9575b50505050509050919050565b606060066000836040516020016111169190613631565b604051602081830303815290604052805190602001208152602001908152602001600020600a0180548060200260200160405190810160405280929190818152602001828054801561118757602002820191906000526020600020905b815481526020019060010190808311611173575b50505050509050919050565b600060066000836040516020016111aa9190613631565b604051602081830303815290604052805190602001208152602001908152602001600020600b01549050919050565b600060066000836040516020016111f09190613631565b604051602081830303815290604052805190602001208152602001908152602001600020600c01549050919050565b606060066000836040516020016112369190613631565b6040516020818303038152906040528051906020012081526020019081526020016000206006018054806020026020016040519081016040528092919081815260200182805480156112a757602002820191906000526020600020905b815481526020019060010190808311611293575b50505050509050919050565b600460009054906101000a900473ffffffffffffffffffffffffffffffffffffffff1673ffffffffffffffffffffffffffffffffffffffff163373ffffffffffffffffffffffffffffffffffffffff1614611343576040517f08c379a000000000000000000000000000000000000000000000000000000000815260040161133a90613837565b60405180910390fd5b806006600084815260200190815260200160002060030160008282546113699190613a24565b925050819055505050565b60606006600083815260200190815260200160002060050180548060200260200160405190810160405280929190818152602001828054801561140c57602002820191906000526020600020905b8160009054906101000a900473ffffffffffffffffffffffffffffffffffffffff1673ffffffffffffffffffffffffffffffffffffffff16815260200190600101908083116113c2575b50505050509050919050565b60008054906101000a900473ffffffffffffffffffffffffffffffffffffffff1673ffffffffffffffffffffffffffffffffffffffff163373ffffffffffffffffffffffffffffffffffffffff16146114a6576040517f08c379a000000000000000000000000000000000000000000000000000000000815260040161149d906137d7565b60405180910390fd5b806006600084815260200190815260200160002060060190805190602001906114d0929190612b8a565b505050565b606060066000836040516020016114ec9190613631565b60405160208183030381529060405280519060200120815260200190815260200160002060040180548060200260200160405190810160405280929190818152602001828054801561159357602002820191906000526020600020905b8160009054906101000a900473ffffffffffffffffffffffffffffffffffffffff1673ffffffffffffffffffffffffffffffffffffffff1681526020019060010190808311611549575b50505050509050919050565b600060066000838152602001908152602001600020600701805490509050919050565b60008054906101000a900473ffffffffffffffffffffffffffffffffffffffff1681565b600460009054906101000a900473ffffffffffffffffffffffffffffffffffffffff1681565b60606006600083815260200190815260200160002060070180548060200260200160405190810160405280929190818152602001828054801561166e57602002820191906000526020600020905b81548152602001906001019080831161165a575b50505050509050919050565b600060066000838152602001908152602001600020600d0160009054906101000a900473ffffffffffffffffffffffffffffffffffffffff169050919050565b600060066000838152602001908152602001600020600b01549050919050565b600460009054906101000a900473ffffffffffffffffffffffffffffffffffffffff1673ffffffffffffffffffffffffffffffffffffffff163373ffffffffffffffffffffffffffffffffffffffff1614806117835750600360009054906101000a900473ffffffffffffffffffffffffffffffffffffffff1673ffffffffffffffffffffffffffffffffffffffff163373ffffffffffffffffffffffffffffffffffffffff16145b806117db5750600260009054906101000a900473ffffffffffffffffffffffffffffffffffffffff1673ffffffffffffffffffffffffffffffffffffffff163373ffffffffffffffffffffffffffffffffffffffff16145b80611831575060008054906101000a900473ffffffffffffffffffffffffffffffffffffffff1673ffffffffffffffffffffffffffffffffffffffff163373ffffffffffffffffffffffffffffffffffffffff16145b611870576040517f08c379a000000000000000000000000000000000000000000000000000000000815260040161186790613837565b60405180910390fd5b8060066000848152602001908152602001600020600301600082825461189691906139ce565b925050819055505050565b600360009054906101000a900473ffffffffffffffffffffffffffffffffffffffff1673ffffffffffffffffffffffffffffffffffffffff163373ffffffffffffffffffffffffffffffffffffffff1614611931576040517f08c379a000000000000000000000000000000000000000000000000000000000815260040161192890613817565b60405180910390fd5b8060066000848152602001908152602001600020600501908051906020019061195b929190612bd7565b505050565b6060600660008381526020019081526020016000206006018054806020026020016040519081016040528092919081815260200182805480156119c257602002820191906000526020600020905b8154815260200190600101908083116119ae575b50505050509050919050565b60055481565b600360009054906101000a900473ffffffffffffffffffffffffffffffffffffffff1681565b600060066000838152602001908152602001600020600301549050919050565b600260009054906101000a900473ffffffffffffffffffffffffffffffffffffffff1681565b6000600460009054906101000a900473ffffffffffffffffffffffffffffffffffffffff1673ffffffffffffffffffffffffffffffffffffffff163373ffffffffffffffffffffffffffffffffffffffff1614611ad2576040517f08c379a0000000000000000000000000000000000000000000000000000000008152600401611ac990613817565b60405180910390fd5b81600460006101000a81548173ffffffffffffffffffffffffffffffffffffffff021916908373ffffffffffffffffffffffffffffffffffffffff160217905550600460009054906101000a900473ffffffffffffffffffffffffffffffffffffffff1673ffffffffffffffffffffffffffffffffffffffff163373ffffffffffffffffffffffffffffffffffffffff167f6892a8923ec61e89beaa10370e660884074b3bec292be12802599cf655bba75260405160405180910390a360019050919050565b60606006600083604051602001611baf9190613631565b604051602081830303815290604052805190602001208152602001908152602001600020600901805480602002602001604051908101604052809291908181526020018280548015611c5657602002820191906000526020600020905b8160009054906101000a900473ffffffffffffffffffffffffffffffffffffffff1673ffffffffffffffffffffffffffffffffffffffff1681526020019060010190808311611c0c575b50505050509050919050565b600060066000838152602001908152602001600020600401805490509050919050565b6000600554905090565b6000600260009054906101000a900473ffffffffffffffffffffffffffffffffffffffff1673ffffffffffffffffffffffffffffffffffffffff163373ffffffffffffffffffffffffffffffffffffffff1614611d21576040517f08c379a0000000000000000000000000000000000000000000000000000000008152600401611d18906137f7565b60405180910390fd5b81600260006101000a81548173ffffffffffffffffffffffffffffffffffffffff021916908373ffffffffffffffffffffffffffffffffffffffff160217905550600260009054906101000a900473ffffffffffffffffffffffffffffffffffffffff1673ffffffffffffffffffffffffffffffffffffffff163373ffffffffffffffffffffffffffffffffffffffff167f76ce921e20c471c95deae34d20d53706ec4378ecab394e517f73aef912ae6cdd60405160405180910390a360019050919050565b60008054906101000a900473ffffffffffffffffffffffffffffffffffffffff1673ffffffffffffffffffffffffffffffffffffffff163373ffffffffffffffffffffffffffffffffffffffff1614611e75576040517f08c379a0000000000000000000000000000000000000000000000000000000008152600401611e6c906137b7565b60405180910390fd5b600660008281526020019081526020016000206000808201600090556001820160009055600282016000611ea99190612c61565b6003820160009055600482016000611ec19190612ca1565b600582016000611ed19190612ca1565b600682016000611ee19190612cc2565b600782016000611ef19190612cc2565b6008820160009055600982016000611f099190612ca1565b600a82016000611f199190612cc2565b600b820160009055600c820160009055600d820160006101000a81549073ffffffffffffffffffffffffffffffffffffffff0219169055600d820160146101000a81549060ff0219169055505050565b600160009054906101000a900473ffffffffffffffffffffffffffffffffffffffff1681565b60006006600083604051602001611fa69190613631565b604051602081830303815290604052805190602001208152602001908152602001600020600001549050919050565b60606006600083604051602001611fec9190613631565b60405160208183030381529060405280519060200120815260200190815260200160002060050180548060200260200160405190810160405280929190818152602001828054801561209357602002820191906000526020600020905b8160009054906101000a900473ffffffffffffffffffffffffffffffffffffffff1673ffffffffffffffffffffffffffffffffffffffff1681526020019060010190808311612049575b50505050509050919050565b60008054906101000a900473ffffffffffffffffffffffffffffffffffffffff1673ffffffffffffffffffffffffffffffffffffffff163373ffffffffffffffffffffffffffffffffffffffff161461212d576040517f08c379a0000000000000000000000000000000000000000000000000000000008152600401612124906137d7565b60405180910390fd5b8060066000848152602001908152602001600020600a019080519060200190612157929190612b8a565b505050565b60008054906101000a900473ffffffffffffffffffffffffffffffffffffffff1673ffffffffffffffffffffffffffffffffffffffff163373ffffffffffffffffffffffffffffffffffffffff16146121ea576040517f08c379a00000000000000000000000000000000000000000000000000000000081526004016121e1906137d7565b60405180910390fd5b80600660008481526020019081526020016000206007019080519060200190612214929190612b8a565b505050565b6000600160009054906101000a900473ffffffffffffffffffffffffffffffffffffffff1673ffffffffffffffffffffffffffffffffffffffff163373ffffffffffffffffffffffffffffffffffffffff16146122ab576040517f08c379a00000000000000000000000000000000000000000000000000000000081526004016122a2906137d7565b60405180910390fd5b81600160006101000a81548173ffffffffffffffffffffffffffffffffffffffff021916908373ffffffffffffffffffffffffffffffffffffffff160217905550600160009054906101000a900473ffffffffffffffffffffffffffffffffffffffff1673ffffffffffffffffffffffffffffffffffffffff163373ffffffffffffffffffffffffffffffffffffffff167fdf570d582e474b2d7915b12f6f773eb74e4bc78a660caeeccf19491c8578507b60405160405180910390a360019050919050565b600060066000838152602001908152602001600020600d0160149054906101000a900460ff169050919050565b600060066000836040516020016123b59190613631565b604051602081830303815290604052805190602001208152602001908152602001600020600401805490509050919050565b600060066000836040516020016123fe9190613631565b604051602081830303815290604052805190602001208152602001908152602001600020600a01805490509050919050565b606060066000838152602001908152602001600020600a0180548060200260200160405190810160405280929190818152602001828054801561249257602002820191906000526020600020905b81548152602001906001019080831161247e575b50505050509050919050565b60066020528060005260406000206000915090508060000154908060010154908060020180546124cd90613aec565b80601f01602080910402602001604051908101604052809291908181526020018280546124f990613aec565b80156125465780601f1061251b57610100808354040283529160200191612546565b820191906000526020600020905b81548152906001019060200180831161252957829003601f168201915b50505050509080600301549080600801549080600b01549080600c01549080600d0160009054906101000a900473ffffffffffffffffffffffffffffffffffffffff169080600d0160149054906101000a900460ff16905089565b60008054906101000a900473ffffffffffffffffffffffffffffffffffffffff1673ffffffffffffffffffffffffffffffffffffffff163373ffffffffffffffffffffffffffffffffffffffff161461262f576040517f08c379a000000000000000000000000000000000000000000000000000000000815260040161262690613797565b60405180910390fd5b806006600084815260200190815260200160002060008201518160000155602082015181600101556040820151816002019080519060200190612673929190612ce3565b5060608201518160030155608082015181600401908051906020019061269a929190612bd7565b5060a08201518160050190805190602001906126b7929190612bd7565b5060c08201518160060190805190602001906126d4929190612b8a565b5060e08201518160070190805190602001906126f1929190612b8a565b50610100820151816008015561012082015181600901908051906020019061271a929190612bd7565b5061014082015181600a019080519060200190612738929190612b8a565b5061016082015181600b015561018082015181600c01556101a082015181600d0160006101000a81548173ffffffffffffffffffffffffffffffffffffffff021916908373ffffffffffffffffffffffffffffffffffffffff1602179055506101c082015181600d0160146101000a81548160ff0219169083151502179055509050505050565b600060066000838152602001908152602001600020600801549050919050565b600060066000836040516020016127f69190613631565b604051602081830303815290604052805190602001208152602001908152602001600020600701805490509050919050565b600360009054906101000a900473ffffffffffffffffffffffffffffffffffffffff1673ffffffffffffffffffffffffffffffffffffffff163373ffffffffffffffffffffffffffffffffffffffff16146128b8576040517f08c379a00000000000000000000000000000000000000000000000000000000081526004016128af90613817565b60405180910390fd5b806006600084815260200190815260200160002060040190805190602001906128e2929190612bd7565b505050565b60606006600083815260200190815260200160002060090180548060200260200160405190810160405280929190818152602001828054801561297f57602002820191906000526020600020905b8160009054906101000a900473ffffffffffffffffffffffffffffffffffffffff1673ffffffffffffffffffffffffffffffffffffffff1681526020019060010190808311612935575b50505050509050919050565b600060066000836040516020016129a29190613631565b604051602081830303815290604052805190602001208152602001908152602001600020600601805490509050919050565b600060066000838152602001908152602001600020600c01549050919050565b6060600660008381526020019081526020016000206002018054612a1790613aec565b80601f0160208091040260200160405190810160405280929190818152602001828054612a4390613aec565b8015612a905780601f10612a6557610100808354040283529160200191612a90565b820191906000526020600020905b815481529060010190602001808311612a7357829003601f168201915b50505050509050919050565b600060066000838152602001908152602001600020600601805490509050919050565b60008054906101000a900473ffffffffffffffffffffffffffffffffffffffff1673ffffffffffffffffffffffffffffffffffffffff163373ffffffffffffffffffffffffffffffffffffffff1614612b4d576040517f08c379a0000000000000000000000000000000000000000000000000000000008152600401612b4490613857565b60405180910390fd5b60056000815480929190612b6090613b4f565b9190505550565b600060066000838152602001908152602001600020600a01805490509050919050565b828054828255906000526020600020908101928215612bc6579160200282015b82811115612bc5578251825591602001919060010190612baa565b5b509050612bd39190612d69565b5090565b828054828255906000526020600020908101928215612c50579160200282015b82811115612c4f5782518260006101000a81548173ffffffffffffffffffffffffffffffffffffffff021916908373ffffffffffffffffffffffffffffffffffffffff16021790555091602001919060010190612bf7565b5b509050612c5d9190612d86565b5090565b508054612c6d90613aec565b6000825580601f10612c7f5750612c9e565b601f016020900490600052602060002090810190612c9d9190612d86565b5b50565b5080546000825590600052602060002090810190612cbf9190612d86565b50565b5080546000825590600052602060002090810190612ce09190612d69565b50565b828054612cef90613aec565b90600052602060002090601f016020900481019282612d115760008555612d58565b82601f10612d2a57805160ff1916838001178555612d58565b82800160010185558215612d58579182015b82811115612d57578251825591602001919060010190612d3c565b5b509050612d659190612d86565b5090565b5b80821115612d82576000816000905550600101612d6a565b5090565b5b80821115612d9f576000816000905550600101612d87565b5090565b6000612db6612db1846138b7565b613892565b90508083825260208201905082856020860282011115612dd957612dd8613c3e565b5b60005b85811015612e095781612def8882612ec5565b845260208401935060208301925050600181019050612ddc565b5050509392505050565b6000612e26612e21846138e3565b613892565b90508083825260208201905082856020860282011115612e4957612e48613c3e565b5b60005b85811015612e795781612e5f8882612f4b565b845260208401935060208301925050600181019050612e4c565b5050509392505050565b6000612e96612e918461390f565b613892565b905082815260208101848484011115612eb257612eb1613c43565b5b612ebd848285613aaa565b509392505050565b600081359050612ed481613e8c565b92915050565b600082601f830112612eef57612eee613c2f565b5b8135612eff848260208601612da3565b91505092915050565b600082601f830112612f1d57612f1c613c2f565b5b8135612f2d848260208601612e13565b91505092915050565b600081359050612f4581613ea3565b92915050565b600081359050612f5a81613eba565b92915050565b600082601f830112612f7557612f74613c2f565b5b8135612f85848260208601612e83565b91505092915050565b60006101e08284031215612fa557612fa4613c34565b5b612fb06101e0613892565b90506000612fc084828501612f4b565b6000830152506020612fd4848285016131b6565b602083015250604082013567ffffffffffffffff811115612ff857612ff7613c39565b5b61300484828501612f60565b6040830152506060613018848285016131b6565b606083015250608082013567ffffffffffffffff81111561303c5761303b613c39565b5b61304884828501612eda565b60808301525060a082013567ffffffffffffffff81111561306c5761306b613c39565b5b61307884828501612eda565b60a08301525060c082013567ffffffffffffffff81111561309c5761309b613c39565b5b6130a884828501612f08565b60c08301525060e082013567ffffffffffffffff8111156130cc576130cb613c39565b5b6130d884828501612f08565b60e0830152506101006130ed84828501612f4b565b6101008301525061012082013567ffffffffffffffff81111561311357613112613c39565b5b61311f84828501612eda565b6101208301525061014082013567ffffffffffffffff81111561314557613144613c39565b5b61315184828501612f08565b6101408301525061016061316784828501612f4b565b6101608301525061018061317d84828501612f4b565b610180830152506101a061319384828501612ec5565b6101a0830152506101c06131a984828501612f36565b6101c08301525092915050565b6000813590506131c581613ed1565b92915050565b6000602082840312156131e1576131e0613c4d565b5b60006131ef84828501612ec5565b91505092915050565b60006020828403121561320e5761320d613c4d565b5b600061321c84828501612f4b565b91505092915050565b6000806040838503121561323c5761323b613c4d565b5b600061324a85828601612f4b565b925050602083013567ffffffffffffffff81111561326b5761326a613c48565b5b61327785828601612eda565b9150509250929050565b6000806040838503121561329857613297613c4d565b5b60006132a685828601612f4b565b925050602083013567ffffffffffffffff8111156132c7576132c6613c48565b5b6132d385828601612f08565b9150509250929050565b600080604083850312156132f4576132f3613c4d565b5b600061330285828601612f4b565b925050602083013567ffffffffffffffff81111561332357613322613c48565b5b61332f85828601612f8e565b9150509250929050565b600080604083850312156133505761334f613c4d565b5b600061335e85828601612f4b565b925050602061336f858286016131b6565b9150509250929050565b60006020828403121561338f5761338e613c4d565b5b600061339d848285016131b6565b91505092915050565b60006133b283836133d6565b60208301905092915050565b60006133ca83836134bf565b60208301905092915050565b6133df81613a58565b82525050565b6133ee81613a58565b82525050565b60006133ff82613960565b613409818561399b565b935061341483613940565b8060005b8381101561344557815161342c88826133a6565b975061343783613981565b925050600181019050613418565b5085935050505092915050565b600061345d8261396b565b61346781856139ac565b935061347283613950565b8060005b838110156134a357815161348a88826133be565b97506134958361398e565b925050600181019050613476565b5085935050505092915050565b6134b981613a6a565b82525050565b6134c881613a76565b82525050565b6134d781613a76565b82525050565b60006134e882613976565b6134f281856139bd565b9350613502818560208601613ab9565b61350b81613c52565b840191505092915050565b60006135236034836139bd565b915061352e82613c63565b604082019050919050565b60006135466024836139bd565b915061355182613cb2565b604082019050919050565b60006135696027836139bd565b915061357482613d01565b604082019050919050565b600061358c6024836139bd565b915061359782613d50565b604082019050919050565b60006135af6024836139bd565b91506135ba82613d9f565b604082019050919050565b60006135d26035836139bd565b91506135dd82613dee565b604082019050919050565b60006135f5602c836139bd565b915061360082613e3d565b604082019050919050565b61361481613aa0565b82525050565b61362b61362682613aa0565b613b98565b82525050565b600061363d828461361a565b60208201915081905092915050565b600060208201905061366160008301846133e5565b92915050565b6000602082019050818103600083015261368181846133f4565b905092915050565b600060208201905081810360008301526136a38184613452565b905092915050565b60006020820190506136c060008301846134b0565b92915050565b60006020820190506136db60008301846134ce565b92915050565b6000610120820190506136f7600083018c6134ce565b613704602083018b61360b565b8181036040830152613716818a6134dd565b9050613725606083018961360b565b61373260808301886134ce565b61373f60a08301876134ce565b61374c60c08301866134ce565b61375960e08301856133e5565b6137676101008301846134b0565b9a9950505050505050505050565b6000602082019050818103600083015261378f81846134dd565b905092915050565b600060208201905081810360008301526137b081613516565b9050919050565b600060208201905081810360008301526137d081613539565b9050919050565b600060208201905081810360008301526137f08161355c565b9050919050565b600060208201905081810360008301526138108161357f565b9050919050565b60006020820190508181036000830152613830816135a2565b9050919050565b60006020820190508181036000830152613850816135c5565b9050919050565b60006020820190508181036000830152613870816135e8565b9050919050565b600060208201905061388c600083018461360b565b92915050565b600061389c6138ad565b90506138a88282613b1e565b919050565b6000604051905090565b600067ffffffffffffffff8211156138d2576138d1613c00565b5b602082029050602081019050919050565b600067ffffffffffffffff8211156138fe576138fd613c00565b5b602082029050602081019050919050565b600067ffffffffffffffff82111561392a57613929613c00565b5b61393382613c52565b9050602081019050919050565b6000819050602082019050919050565b6000819050602082019050919050565b600081519050919050565b600081519050919050565b600081519050919050565b6000602082019050919050565b6000602082019050919050565b600082825260208201905092915050565b600082825260208201905092915050565b600082825260208201905092915050565b60006139d982613aa0565b91506139e483613aa0565b9250827fffffffffffffffffffffffffffffffffffffffffffffffffffffffffffffffff03821115613a1957613a18613ba2565b5b828201905092915050565b6000613a2f82613aa0565b9150613a3a83613aa0565b925082821015613a4d57613a4c613ba2565b5b828203905092915050565b6000613a6382613a80565b9050919050565b60008115159050919050565b6000819050919050565b600073ffffffffffffffffffffffffffffffffffffffff82169050919050565b6000819050919050565b82818337600083830152505050565b60005b83811015613ad7578082015181840152602081019050613abc565b83811115613ae6576000848401525b50505050565b60006002820490506001821680613b0457607f821691505b60208210811415613b1857613b17613bd1565b5b50919050565b613b2782613c52565b810181811067ffffffffffffffff82111715613b4657613b45613c00565b5b80604052505050565b6000613b5a82613aa0565b91507fffffffffffffffffffffffffffffffffffffffffffffffffffffffffffffffff821415613b8d57613b8c613ba2565b5b600182019050919050565b6000819050919050565b7f4e487b7100000000000000000000000000000000000000000000000000000000600052601160045260246000fd5b7f4e487b7100000000000000000000000000000000000000000000000000000000600052602260045260246000fd5b7f4e487b7100000000000000000000000000000000000000000000000000000000600052604160045260246000fd5b600080fd5b600080fd5b600080fd5b600080fd5b600080fd5b600080fd5b600080fd5b6000601f19601f8301169050919050565b7f4572726f723a206d73672e73656e646572206d757374206265206d656d65466160008201527f63746f727920746f20637265617465206d656d65000000000000000000000000602082015250565b7f4572726f723a206f6e6c7920666163746f72795369676e65722063616e20646560008201527f6c65746500000000000000000000000000000000000000000000000000000000602082015250565b7f4572726f723a206d73672e73656e646572206d75737420626520666163746f7260008201527f795369676e657200000000000000000000000000000000000000000000000000602082015250565b7f4572726f723a206d73672e73656e646572206d75737420626520706f7374536960008201527f676e657200000000000000000000000000000000000000000000000000000000602082015250565b7f4572726f723a206d73672e73656e646572206d757374206265206c696b65536960008201527f676e657200000000000000000000000000000000000000000000000000000000602082015250565b7f4572726f723a206d73672e73656e646572206d757374206265206c696b652c2060008201527f706f73742c206f7220626f6f7374207369676e65720000000000000000000000602082015250565b7f4572726f723a206f6e6c7920666163746f72795369676e65722063616e20696e60008201527f63726561736520436f756e740000000000000000000000000000000000000000602082015250565b613e9581613a58565b8114613ea057600080fd5b50565b613eac81613a6a565b8114613eb757600080fd5b50565b613ec381613a76565b8114613ece57600080fd5b50565b613eda81613aa0565b8114613ee557600080fd5b5056fea26469706673582212203b7b3acbd7281c40dd16cf17bffbb8696c8600394de61449da6cbec1777c442e64736f6c63430008070033",
  "immutableReferences": {},
  "source": "// SPDX-License-Identifier: MIT\n\npragma solidity >=0.8.0 <0.9.0;\n\ncontract MemeStorage {\n  address public factorySigner;\n  address public interfaceSigner;\n  address public postSigner;\n  address public likeSigner;\n  address public boostSigner;\n\n  uint public memeCount = 0;\n\n\n  // mapping of Memes\n  mapping(bytes32 => Meme) public memes; // memeId to meme map\n\n  // Meme structure\n  struct Meme {\n    bytes32 id; // number in all of timeline\n    uint time; // time of post\n    string text; // text of Meme\n    uint boosts; // boost value\n    address[] likers; // list of addresses of likers\n    address[] unlikers; // list of addresses that have unliked\n    bytes32[] reposts; // list of ids that have reposted\n    bytes32[] quotePosts; // list of ids that have quotePosted\n    bytes32 repostId;// repost id\n    address[] tags; // list of id's of tagged\n    bytes32[] responses; // collection of id's of responses\n    bytes32 parentId; // memeId of parent (can be self)\n    bytes32 originId; // memeId of origin (can be self)\n    address author; // address of author\n    bool isVisible; // is visible\n  }\n\n  event FactorySignerChanged(address indexed from, address indexed to);\n  event InterfaceSignerChanged(address indexed from, address indexed to);\n  event PostSignerChanged(address indexed from, address indexed to);\n  event LikeSignerChanged(address indexed from, address indexed to);\n  event BoostSignerChanged(address indexed from, address indexed to);\n\n  constructor() public {\n    factorySigner = msg.sender;\n    interfaceSigner = msg.sender;\n    postSigner = msg.sender;\n    likeSigner = msg.sender;\n    boostSigner = msg.sender;\n  }\n\n  // Factory-Specific setters\n  function setMeme(\n    bytes32 _memeId,\n    Meme memory _meme\n  ) public {\n    require(\n      msg.sender==factorySigner,\n      'Error: msg.sender must be memeFactory to create meme');\n    memes[_memeId] = _meme;\n  }\n  function deleteMeme(bytes32 _memeId) public {\n    require(\n      msg.sender==factorySigner,\n      'Error: only factorySigner can delete');\n    // create empty Meme instance\n    delete memes[_memeId];\n  }\n  function increaseMemeCount() public {\n    require(\n      msg.sender==factorySigner,\n      'Error: only factorySigner can increase Count'\n    );\n    memeCount++;\n  }\n\n  function setResponses(\n    bytes32 _memeId,\n    bytes32[] memory _responses\n  ) public {\n    require(\n      msg.sender==factorySigner,\n      'Error: msg.sender must be factorySigner');\n    memes[_memeId].responses = _responses;\n  }\n\n  function setReposts(\n    bytes32 _memeId,\n    bytes32[] memory _reposts\n  ) public {\n    require(\n      msg.sender==factorySigner,\n      'Error: msg.sender must be factorySigner');\n    memes[_memeId].reposts = _reposts;\n  }\n  function setQuotePosts(\n    bytes32 _memeId,\n    bytes32[] memory _quotePosts\n  ) public {\n    require(\n      msg.sender==factorySigner,\n      'Error: msg.sender must be factorySigner');\n    memes[_memeId].quotePosts = _quotePosts;\n  }\n\n  function setLikers(\n    bytes32 _memeId,\n    address[] memory _likers\n  ) public {\n    require(\n      msg.sender==likeSigner,\n      'Error: msg.sender must be likeSigner');\n    memes[_memeId].likers = _likers;\n  }\n  function setUnlikers(\n    bytes32 _memeId,\n    address[] memory _unlikers\n  ) public {\n    require(\n      msg.sender==likeSigner,\n      'Error: msg.sender must be likeSigner');\n    memes[_memeId].unlikers = _unlikers;\n  }\n\n  function addBoost(\n    bytes32 _memeId,\n    uint _boosts\n  ) public {\n    require(\n      msg.sender==boostSigner ||\n      msg.sender==likeSigner ||\n      msg.sender==postSigner ||\n      msg.sender==factorySigner,\n      'Error: msg.sender must be like, post, or boost signer');\n    memes[_memeId].boosts += _boosts;\n  }\n  function subtractBoost(\n    bytes32 _memeId,\n    uint _boosts\n  ) public {\n    require(\n      msg.sender==boostSigner,\n      'Error: msg.sender must be like, post, or boost signer');\n    memes[_memeId].boosts -= _boosts;\n  }\n\n  // getter functions for Meme\n  function getMemeCount() public view returns(uint) {\n    return memeCount;\n  }\n\n  function getText(bytes32 _memeId) public view returns(string memory) {\n    return memes[_memeId].text;\n  }\n  function getLikeCount(bytes32 _memeId) public view returns(uint) {\n    return memes[_memeId].likers.length;\n  }\n  function getBoost(bytes32 _memeId) public view returns(uint) {\n    return memes[_memeId].boosts;\n  }\n  function getLikers(bytes32 _memeId) public view returns(address[] memory) {\n    return memes[_memeId].likers;\n  }\n  function getUnlikers(bytes32 _memeId) public view returns(address[] memory) {\n    return memes[_memeId].unlikers;\n  }\n  function getRepostCount(bytes32 _memeId) public view returns(uint) {\n    return memes[_memeId].reposts.length;\n  }\n  function getReposts(bytes32 _memeId) public view returns(bytes32[] memory) {\n    return memes[_memeId].reposts;\n  }\n  function getQuotePostCount(bytes32 _memeId) public view returns(uint) {\n    return memes[_memeId].quotePosts.length;\n  }\n  function getQuotePosts(bytes32 _memeId) public view returns(bytes32[] memory) {\n    return memes[_memeId].quotePosts;\n  }\n  function getTags(bytes32 _memeId) public view returns(address[] memory) {\n    return memes[_memeId].tags;\n  }\n  function getResponseCount(bytes32 _memeId) public view returns(uint) {\n    return memes[_memeId].responses.length;\n  }\n  function getResponses(bytes32 _memeId) public view returns(bytes32[] memory) {\n    return memes[_memeId].responses;\n  }\n  function getParentId(bytes32 _memeId) public view returns(bytes32) {\n    return memes[_memeId].parentId;\n  }\n  function getOriginId(bytes32 _memeId) public view returns(bytes32) {\n    return memes[_memeId].originId;\n  }\n  function getRepostId(bytes32 _memeId) public view returns(bytes32) {\n    return memes[_memeId].repostId;\n  }\n  function getAuthor(bytes32 _memeId) public view returns(address) {\n    return memes[_memeId].author;\n  }\n  function getVisibility(bytes32 _memeId) public view returns(bool) {\n    return memes[_memeId].isVisible;\n  }\n\n// encode uint for testing\n  function getEncodeId(uint _memeId) public view returns(bytes32) {\n    return memes[keccak256(abi.encodePacked(_memeId))].id;\n  }\n  function getEncodeLikeCount(uint _memeId) public view returns(uint) {\n    return memes[keccak256(abi.encodePacked(_memeId))].likers.length;\n  }\n  function getEncodeLikers(uint _memeId) public view returns(address[] memory) {\n    return memes[keccak256(abi.encodePacked(_memeId))].likers;\n  }\n  function getEncodeUnlikers(uint _memeId) public view returns(address[] memory) {\n    return memes[keccak256(abi.encodePacked(_memeId))].unlikers;\n  }\n  function getEncodeRepostCount(uint _memeId) public view returns(uint) {\n    return memes[keccak256(abi.encodePacked(_memeId))].reposts.length;\n  }\n  function getEncodeReposts(uint _memeId) public view returns(bytes32[] memory) {\n    return memes[keccak256(abi.encodePacked(_memeId))].reposts;\n  }\n  function getEncodeQuotePostCount(uint _memeId) public view returns(uint) {\n    return memes[keccak256(abi.encodePacked(_memeId))].quotePosts.length;\n  }\n  function getEncodeQuotePosts(uint _memeId) public view returns(bytes32[] memory) {\n    return memes[keccak256(abi.encodePacked(_memeId))].quotePosts;\n  }\n  function getEncodeTags(uint _memeId) public view returns(address[] memory) {\n    return memes[keccak256(abi.encodePacked(_memeId))].tags;\n  }\n  function getEncodeResponseCount(uint _memeId) public view returns(uint) {\n    return memes[keccak256(abi.encodePacked(_memeId))].responses.length;\n  }\n  function getEncodeResponses(uint _memeId) public view returns(bytes32[] memory) {\n    return memes[keccak256(abi.encodePacked(_memeId))].responses;\n  }\n  function getEncodeParentId(uint _memeId) public view returns(bytes32) {\n    return memes[keccak256(abi.encodePacked(_memeId))].parentId;\n  }\n  function getEncodeOriginId(uint _memeId) public view returns(bytes32) {\n    return memes[keccak256(abi.encodePacked(_memeId))].originId;\n  }\n  function getEncodeAuthor(uint _memeId) public view returns(address) {\n    return memes[keccak256(abi.encodePacked(_memeId))].author;\n  }\n  function getEncodeVisibility(uint _memeId) public view returns(bool) {\n    return memes[keccak256(abi.encodePacked(_memeId))].isVisible;\n  }\n\n  // set caller role to User upon deployment\n  function passFactorySigner(address _memeFactory) public returns (bool) {\n    require(\n      msg.sender == factorySigner,\n      'Error: msg.sender must be factorySigner');\n\n    factorySigner = _memeFactory;\n    emit FactorySignerChanged(msg.sender, factorySigner);\n    return true;\n  }\n  function passInterfaceSigner(address _userInterface) public returns (bool) {\n    require(\n      msg.sender == interfaceSigner,\n      'Error: msg.sender must be factorySigner');\n\n    interfaceSigner = _userInterface;\n    emit InterfaceSignerChanged(msg.sender, interfaceSigner);\n    return true;\n  }\n  function passPostSigner(address _post) public returns (bool) {\n    require(\n      msg.sender == postSigner,\n      'Error: msg.sender must be postSigner');\n\n    postSigner = _post;\n    emit PostSignerChanged(msg.sender, postSigner);\n    return true;\n  }\n  function passLikeSigner(address _like) public returns (bool) {\n    require(\n      msg.sender == likeSigner,\n      'Error: msg.sender must be likeSigner');\n\n    likeSigner = _like;\n    emit LikeSignerChanged(msg.sender, likeSigner);\n    return true;\n  }\n  function passBoostSigner(address _boost) public returns (bool) {\n    require(\n      msg.sender == boostSigner,\n      'Error: msg.sender must be likeSigner');\n\n    boostSigner = _boost;\n    emit BoostSignerChanged(msg.sender, boostSigner);\n    return true;\n  }\n}\n",
  "sourcePath": "/Users/jaiq/Documents/000 BLOCKCHAIN/ETH/uMe/src/contracts/MemeStorage.sol",
  "compiler": {
    "name": "solc",
    "version": "0.8.7+commit.e28d00a7.Emscripten.clang"
  },
  "schemaVersion": "3.4.3",
  "updatedAt": "2021-09-08T20:01:58.259Z",
  "networkType": "ethereum",
  "devdoc": {
    "kind": "dev",
    "methods": {},
    "version": 1
  },
  "userdoc": {
    "kind": "user",
    "methods": {},
    "version": 1
  }
}