{
  "contractName": "MemeStorage",
  "abi": [
    {
      "inputs": [],
      "stateMutability": "nonpayable",
      "type": "constructor"
    },
    {
      "anonymous": false,
      "inputs": [
        {
          "indexed": true,
          "internalType": "address",
          "name": "from",
          "type": "address"
        },
        {
          "indexed": true,
          "internalType": "address",
          "name": "to",
          "type": "address"
        }
      ],
      "name": "BoostSignerChanged",
      "type": "event"
    },
    {
      "anonymous": false,
      "inputs": [
        {
          "indexed": true,
          "internalType": "address",
          "name": "from",
          "type": "address"
        },
        {
          "indexed": true,
          "internalType": "address",
          "name": "to",
          "type": "address"
        }
      ],
      "name": "FactorySignerChanged",
      "type": "event"
    },
    {
      "anonymous": false,
      "inputs": [
        {
          "indexed": true,
          "internalType": "address",
          "name": "from",
          "type": "address"
        },
        {
          "indexed": true,
          "internalType": "address",
          "name": "to",
          "type": "address"
        }
      ],
      "name": "InterfaceSignerChanged",
      "type": "event"
    },
    {
      "anonymous": false,
      "inputs": [
        {
          "indexed": true,
          "internalType": "address",
          "name": "from",
          "type": "address"
        },
        {
          "indexed": true,
          "internalType": "address",
          "name": "to",
          "type": "address"
        }
      ],
      "name": "LikeSignerChanged",
      "type": "event"
    },
    {
      "anonymous": false,
      "inputs": [
        {
          "indexed": true,
          "internalType": "address",
          "name": "from",
          "type": "address"
        },
        {
          "indexed": true,
          "internalType": "address",
          "name": "to",
          "type": "address"
        }
      ],
      "name": "PostSignerChanged",
      "type": "event"
    },
    {
      "inputs": [],
      "name": "boostSigner",
      "outputs": [
        {
          "internalType": "address",
          "name": "",
          "type": "address"
        }
      ],
      "stateMutability": "view",
      "type": "function",
      "constant": true
    },
    {
      "inputs": [],
      "name": "factorySigner",
      "outputs": [
        {
          "internalType": "address",
          "name": "",
          "type": "address"
        }
      ],
      "stateMutability": "view",
      "type": "function",
      "constant": true
    },
    {
      "inputs": [
        {
          "internalType": "bytes32",
          "name": "",
          "type": "bytes32"
        },
        {
          "internalType": "address",
          "name": "",
          "type": "address"
        }
      ],
      "name": "hasLiked",
      "outputs": [
        {
          "internalType": "bool",
          "name": "",
          "type": "bool"
        }
      ],
      "stateMutability": "view",
      "type": "function",
      "constant": true
    },
    {
      "inputs": [
        {
          "internalType": "bytes32",
          "name": "",
          "type": "bytes32"
        },
        {
          "internalType": "address",
          "name": "",
          "type": "address"
        }
      ],
      "name": "hasUnliked",
      "outputs": [
        {
          "internalType": "bool",
          "name": "",
          "type": "bool"
        }
      ],
      "stateMutability": "view",
      "type": "function",
      "constant": true
    },
    {
      "inputs": [],
      "name": "interfaceSigner",
      "outputs": [
        {
          "internalType": "address",
          "name": "",
          "type": "address"
        }
      ],
      "stateMutability": "view",
      "type": "function",
      "constant": true
    },
    {
      "inputs": [],
      "name": "likeSigner",
      "outputs": [
        {
          "internalType": "address",
          "name": "",
          "type": "address"
        }
      ],
      "stateMutability": "view",
      "type": "function",
      "constant": true
    },
    {
      "inputs": [],
      "name": "memeCount",
      "outputs": [
        {
          "internalType": "uint256",
          "name": "",
          "type": "uint256"
        }
      ],
      "stateMutability": "view",
      "type": "function",
      "constant": true
    },
    {
      "inputs": [
        {
          "internalType": "bytes32",
          "name": "",
          "type": "bytes32"
        }
      ],
      "name": "memes",
      "outputs": [
        {
          "internalType": "bytes32",
          "name": "id",
          "type": "bytes32"
        },
        {
          "internalType": "uint256",
          "name": "time",
          "type": "uint256"
        },
        {
          "internalType": "string",
          "name": "text",
          "type": "string"
        },
        {
          "internalType": "uint256",
          "name": "boosts",
          "type": "uint256"
        },
        {
          "internalType": "bytes32",
          "name": "repostId",
          "type": "bytes32"
        },
        {
          "internalType": "bytes32",
          "name": "parentId",
          "type": "bytes32"
        },
        {
          "internalType": "bytes32",
          "name": "originId",
          "type": "bytes32"
        },
        {
          "internalType": "address",
          "name": "author",
          "type": "address"
        },
        {
          "internalType": "bool",
          "name": "isVisible",
          "type": "bool"
        }
      ],
      "stateMutability": "view",
      "type": "function",
      "constant": true
    },
    {
      "inputs": [],
      "name": "postSigner",
      "outputs": [
        {
          "internalType": "address",
          "name": "",
          "type": "address"
        }
      ],
      "stateMutability": "view",
      "type": "function",
      "constant": true
    },
    {
      "inputs": [
        {
          "internalType": "bytes32",
          "name": "_memeId",
          "type": "bytes32"
        },
        {
          "components": [
            {
              "internalType": "bytes32",
              "name": "id",
              "type": "bytes32"
            },
            {
              "internalType": "uint256",
              "name": "time",
              "type": "uint256"
            },
            {
              "internalType": "string",
              "name": "text",
              "type": "string"
            },
            {
              "internalType": "uint256",
              "name": "boosts",
              "type": "uint256"
            },
            {
              "internalType": "address[]",
              "name": "likers",
              "type": "address[]"
            },
            {
              "internalType": "address[]",
              "name": "unlikers",
              "type": "address[]"
            },
            {
              "internalType": "bytes32[]",
              "name": "reposts",
              "type": "bytes32[]"
            },
            {
              "internalType": "bytes32[]",
              "name": "quotePosts",
              "type": "bytes32[]"
            },
            {
              "internalType": "bytes32",
              "name": "repostId",
              "type": "bytes32"
            },
            {
              "internalType": "address[]",
              "name": "tags",
              "type": "address[]"
            },
            {
              "internalType": "bytes32[]",
              "name": "responses",
              "type": "bytes32[]"
            },
            {
              "internalType": "bytes32",
              "name": "parentId",
              "type": "bytes32"
            },
            {
              "internalType": "bytes32",
              "name": "originId",
              "type": "bytes32"
            },
            {
              "internalType": "address",
              "name": "author",
              "type": "address"
            },
            {
              "internalType": "bool",
              "name": "isVisible",
              "type": "bool"
            }
          ],
          "internalType": "struct MemeStorage.Meme",
          "name": "_meme",
          "type": "tuple"
        }
      ],
      "name": "setMeme",
      "outputs": [],
      "stateMutability": "nonpayable",
      "type": "function"
    },
    {
      "inputs": [
        {
          "internalType": "bytes32",
          "name": "_memeId",
          "type": "bytes32"
        }
      ],
      "name": "deleteMeme",
      "outputs": [],
      "stateMutability": "nonpayable",
      "type": "function"
    },
    {
      "inputs": [],
      "name": "increaseMemeCount",
      "outputs": [],
      "stateMutability": "nonpayable",
      "type": "function"
    },
    {
      "inputs": [
        {
          "internalType": "bytes32",
          "name": "_memeId",
          "type": "bytes32"
        },
        {
          "internalType": "bytes32[]",
          "name": "_responses",
          "type": "bytes32[]"
        }
      ],
      "name": "setResponses",
      "outputs": [],
      "stateMutability": "nonpayable",
      "type": "function"
    },
    {
      "inputs": [
        {
          "internalType": "bytes32",
          "name": "_memeId",
          "type": "bytes32"
        },
        {
          "internalType": "bytes32[]",
          "name": "_reposts",
          "type": "bytes32[]"
        }
      ],
      "name": "setReposts",
      "outputs": [],
      "stateMutability": "nonpayable",
      "type": "function"
    },
    {
      "inputs": [
        {
          "internalType": "bytes32",
          "name": "_memeId",
          "type": "bytes32"
        },
        {
          "internalType": "bytes32[]",
          "name": "_quotePosts",
          "type": "bytes32[]"
        }
      ],
      "name": "setQuotePosts",
      "outputs": [],
      "stateMutability": "nonpayable",
      "type": "function"
    },
    {
      "inputs": [
        {
          "internalType": "bytes32",
          "name": "_memeId",
          "type": "bytes32"
        },
        {
          "internalType": "address[]",
          "name": "_likers",
          "type": "address[]"
        }
      ],
      "name": "setLikers",
      "outputs": [],
      "stateMutability": "nonpayable",
      "type": "function"
    },
    {
      "inputs": [
        {
          "internalType": "bytes32",
          "name": "_memeId",
          "type": "bytes32"
        },
        {
          "internalType": "address[]",
          "name": "_unlikers",
          "type": "address[]"
        }
      ],
      "name": "setUnlikers",
      "outputs": [],
      "stateMutability": "nonpayable",
      "type": "function"
    },
    {
      "inputs": [
        {
          "internalType": "bytes32",
          "name": "_memeId",
          "type": "bytes32"
        },
        {
          "internalType": "address",
          "name": "_account",
          "type": "address"
        }
      ],
      "name": "getHasLiked",
      "outputs": [
        {
          "internalType": "bool",
          "name": "",
          "type": "bool"
        }
      ],
      "stateMutability": "view",
      "type": "function",
      "constant": true
    },
    {
      "inputs": [
        {
          "internalType": "bytes32",
          "name": "_memeId",
          "type": "bytes32"
        },
        {
          "internalType": "address",
          "name": "_account",
          "type": "address"
        }
      ],
      "name": "getHasUnliked",
      "outputs": [
        {
          "internalType": "bool",
          "name": "",
          "type": "bool"
        }
      ],
      "stateMutability": "view",
      "type": "function",
      "constant": true
    },
    {
      "inputs": [
        {
          "internalType": "bytes32",
          "name": "_memeId",
          "type": "bytes32"
        },
        {
          "internalType": "address",
          "name": "_account",
          "type": "address"
        }
      ],
      "name": "setHasLiked",
      "outputs": [],
      "stateMutability": "nonpayable",
      "type": "function"
    },
    {
      "inputs": [
        {
          "internalType": "bytes32",
          "name": "_memeId",
          "type": "bytes32"
        },
        {
          "internalType": "address",
          "name": "_account",
          "type": "address"
        }
      ],
      "name": "setHasUnliked",
      "outputs": [],
      "stateMutability": "nonpayable",
      "type": "function"
    },
    {
      "inputs": [
        {
          "internalType": "bytes32",
          "name": "_memeId",
          "type": "bytes32"
        },
        {
          "internalType": "uint256",
          "name": "_boosts",
          "type": "uint256"
        }
      ],
      "name": "addBoost",
      "outputs": [],
      "stateMutability": "nonpayable",
      "type": "function"
    },
    {
      "inputs": [
        {
          "internalType": "bytes32",
          "name": "_memeId",
          "type": "bytes32"
        },
        {
          "internalType": "uint256",
          "name": "_boosts",
          "type": "uint256"
        }
      ],
      "name": "subtractBoost",
      "outputs": [],
      "stateMutability": "nonpayable",
      "type": "function"
    },
    {
      "inputs": [],
      "name": "getMemeCount",
      "outputs": [
        {
          "internalType": "uint256",
          "name": "",
          "type": "uint256"
        }
      ],
      "stateMutability": "view",
      "type": "function",
      "constant": true
    },
    {
      "inputs": [
        {
          "internalType": "bytes32",
          "name": "_memeId",
          "type": "bytes32"
        }
      ],
      "name": "getText",
      "outputs": [
        {
          "internalType": "string",
          "name": "",
          "type": "string"
        }
      ],
      "stateMutability": "view",
      "type": "function",
      "constant": true
    },
    {
      "inputs": [
        {
          "internalType": "bytes32",
          "name": "_memeId",
          "type": "bytes32"
        }
      ],
      "name": "getLikeCount",
      "outputs": [
        {
          "internalType": "uint256",
          "name": "",
          "type": "uint256"
        }
      ],
      "stateMutability": "view",
      "type": "function",
      "constant": true
    },
    {
      "inputs": [
        {
          "internalType": "bytes32",
          "name": "_memeId",
          "type": "bytes32"
        }
      ],
      "name": "getBoost",
      "outputs": [
        {
          "internalType": "uint256",
          "name": "",
          "type": "uint256"
        }
      ],
      "stateMutability": "view",
      "type": "function",
      "constant": true
    },
    {
      "inputs": [
        {
          "internalType": "bytes32",
          "name": "_memeId",
          "type": "bytes32"
        }
      ],
      "name": "getLikers",
      "outputs": [
        {
          "internalType": "address[]",
          "name": "",
          "type": "address[]"
        }
      ],
      "stateMutability": "view",
      "type": "function",
      "constant": true
    },
    {
      "inputs": [
        {
          "internalType": "bytes32",
          "name": "_memeId",
          "type": "bytes32"
        }
      ],
      "name": "getUnlikers",
      "outputs": [
        {
          "internalType": "address[]",
          "name": "",
          "type": "address[]"
        }
      ],
      "stateMutability": "view",
      "type": "function",
      "constant": true
    },
    {
      "inputs": [
        {
          "internalType": "bytes32",
          "name": "_memeId",
          "type": "bytes32"
        }
      ],
      "name": "getRepostCount",
      "outputs": [
        {
          "internalType": "uint256",
          "name": "",
          "type": "uint256"
        }
      ],
      "stateMutability": "view",
      "type": "function",
      "constant": true
    },
    {
      "inputs": [
        {
          "internalType": "bytes32",
          "name": "_memeId",
          "type": "bytes32"
        }
      ],
      "name": "getReposts",
      "outputs": [
        {
          "internalType": "bytes32[]",
          "name": "",
          "type": "bytes32[]"
        }
      ],
      "stateMutability": "view",
      "type": "function",
      "constant": true
    },
    {
      "inputs": [
        {
          "internalType": "bytes32",
          "name": "_memeId",
          "type": "bytes32"
        }
      ],
      "name": "getQuotePostCount",
      "outputs": [
        {
          "internalType": "uint256",
          "name": "",
          "type": "uint256"
        }
      ],
      "stateMutability": "view",
      "type": "function",
      "constant": true
    },
    {
      "inputs": [
        {
          "internalType": "bytes32",
          "name": "_memeId",
          "type": "bytes32"
        }
      ],
      "name": "getQuotePosts",
      "outputs": [
        {
          "internalType": "bytes32[]",
          "name": "",
          "type": "bytes32[]"
        }
      ],
      "stateMutability": "view",
      "type": "function",
      "constant": true
    },
    {
      "inputs": [
        {
          "internalType": "bytes32",
          "name": "_memeId",
          "type": "bytes32"
        }
      ],
      "name": "getTags",
      "outputs": [
        {
          "internalType": "address[]",
          "name": "",
          "type": "address[]"
        }
      ],
      "stateMutability": "view",
      "type": "function",
      "constant": true
    },
    {
      "inputs": [
        {
          "internalType": "bytes32",
          "name": "_memeId",
          "type": "bytes32"
        }
      ],
      "name": "getResponseCount",
      "outputs": [
        {
          "internalType": "uint256",
          "name": "",
          "type": "uint256"
        }
      ],
      "stateMutability": "view",
      "type": "function",
      "constant": true
    },
    {
      "inputs": [
        {
          "internalType": "bytes32",
          "name": "_memeId",
          "type": "bytes32"
        }
      ],
      "name": "getResponses",
      "outputs": [
        {
          "internalType": "bytes32[]",
          "name": "",
          "type": "bytes32[]"
        }
      ],
      "stateMutability": "view",
      "type": "function",
      "constant": true
    },
    {
      "inputs": [
        {
          "internalType": "bytes32",
          "name": "_memeId",
          "type": "bytes32"
        }
      ],
      "name": "getParentId",
      "outputs": [
        {
          "internalType": "bytes32",
          "name": "",
          "type": "bytes32"
        }
      ],
      "stateMutability": "view",
      "type": "function",
      "constant": true
    },
    {
      "inputs": [
        {
          "internalType": "bytes32",
          "name": "_memeId",
          "type": "bytes32"
        }
      ],
      "name": "getOriginId",
      "outputs": [
        {
          "internalType": "bytes32",
          "name": "",
          "type": "bytes32"
        }
      ],
      "stateMutability": "view",
      "type": "function",
      "constant": true
    },
    {
      "inputs": [
        {
          "internalType": "bytes32",
          "name": "_memeId",
          "type": "bytes32"
        }
      ],
      "name": "getRepostId",
      "outputs": [
        {
          "internalType": "bytes32",
          "name": "",
          "type": "bytes32"
        }
      ],
      "stateMutability": "view",
      "type": "function",
      "constant": true
    },
    {
      "inputs": [
        {
          "internalType": "bytes32",
          "name": "_memeId",
          "type": "bytes32"
        }
      ],
      "name": "getAuthor",
      "outputs": [
        {
          "internalType": "address",
          "name": "",
          "type": "address"
        }
      ],
      "stateMutability": "view",
      "type": "function",
      "constant": true
    },
    {
      "inputs": [
        {
          "internalType": "bytes32",
          "name": "_memeId",
          "type": "bytes32"
        }
      ],
      "name": "getVisibility",
      "outputs": [
        {
          "internalType": "bool",
          "name": "",
          "type": "bool"
        }
      ],
      "stateMutability": "view",
      "type": "function",
      "constant": true
    },
    {
      "inputs": [],
      "name": "getEncodedIds",
      "outputs": [
        {
          "internalType": "bytes32[]",
          "name": "",
          "type": "bytes32[]"
        }
      ],
      "stateMutability": "view",
      "type": "function",
      "constant": true
    },
    {
      "inputs": [
        {
          "internalType": "uint256",
          "name": "_memeId",
          "type": "uint256"
        }
      ],
      "name": "getEncodeId",
      "outputs": [
        {
          "internalType": "bytes32",
          "name": "",
          "type": "bytes32"
        }
      ],
      "stateMutability": "view",
      "type": "function",
      "constant": true
    },
    {
      "inputs": [
        {
          "internalType": "uint256",
          "name": "_memeId",
          "type": "uint256"
        }
      ],
      "name": "getEncodeLikeCount",
      "outputs": [
        {
          "internalType": "uint256",
          "name": "",
          "type": "uint256"
        }
      ],
      "stateMutability": "view",
      "type": "function",
      "constant": true
    },
    {
      "inputs": [
        {
          "internalType": "uint256",
          "name": "_memeId",
          "type": "uint256"
        }
      ],
      "name": "getEncodeLikers",
      "outputs": [
        {
          "internalType": "address[]",
          "name": "",
          "type": "address[]"
        }
      ],
      "stateMutability": "view",
      "type": "function",
      "constant": true
    },
    {
      "inputs": [
        {
          "internalType": "uint256",
          "name": "_memeId",
          "type": "uint256"
        }
      ],
      "name": "getEncodeUnlikers",
      "outputs": [
        {
          "internalType": "address[]",
          "name": "",
          "type": "address[]"
        }
      ],
      "stateMutability": "view",
      "type": "function",
      "constant": true
    },
    {
      "inputs": [
        {
          "internalType": "uint256",
          "name": "_memeId",
          "type": "uint256"
        }
      ],
      "name": "getEncodeRepostCount",
      "outputs": [
        {
          "internalType": "uint256",
          "name": "",
          "type": "uint256"
        }
      ],
      "stateMutability": "view",
      "type": "function",
      "constant": true
    },
    {
      "inputs": [
        {
          "internalType": "uint256",
          "name": "_memeId",
          "type": "uint256"
        }
      ],
      "name": "getEncodeReposts",
      "outputs": [
        {
          "internalType": "bytes32[]",
          "name": "",
          "type": "bytes32[]"
        }
      ],
      "stateMutability": "view",
      "type": "function",
      "constant": true
    },
    {
      "inputs": [
        {
          "internalType": "uint256",
          "name": "_memeId",
          "type": "uint256"
        }
      ],
      "name": "getEncodeQuotePostCount",
      "outputs": [
        {
          "internalType": "uint256",
          "name": "",
          "type": "uint256"
        }
      ],
      "stateMutability": "view",
      "type": "function",
      "constant": true
    },
    {
      "inputs": [
        {
          "internalType": "uint256",
          "name": "_memeId",
          "type": "uint256"
        }
      ],
      "name": "getEncodeQuotePosts",
      "outputs": [
        {
          "internalType": "bytes32[]",
          "name": "",
          "type": "bytes32[]"
        }
      ],
      "stateMutability": "view",
      "type": "function",
      "constant": true
    },
    {
      "inputs": [
        {
          "internalType": "uint256",
          "name": "_memeId",
          "type": "uint256"
        }
      ],
      "name": "getEncodeTags",
      "outputs": [
        {
          "internalType": "address[]",
          "name": "",
          "type": "address[]"
        }
      ],
      "stateMutability": "view",
      "type": "function",
      "constant": true
    },
    {
      "inputs": [
        {
          "internalType": "uint256",
          "name": "_memeId",
          "type": "uint256"
        }
      ],
      "name": "getEncodeResponseCount",
      "outputs": [
        {
          "internalType": "uint256",
          "name": "",
          "type": "uint256"
        }
      ],
      "stateMutability": "view",
      "type": "function",
      "constant": true
    },
    {
      "inputs": [
        {
          "internalType": "uint256",
          "name": "_memeId",
          "type": "uint256"
        }
      ],
      "name": "getEncodeResponses",
      "outputs": [
        {
          "internalType": "bytes32[]",
          "name": "",
          "type": "bytes32[]"
        }
      ],
      "stateMutability": "view",
      "type": "function",
      "constant": true
    },
    {
      "inputs": [
        {
          "internalType": "uint256",
          "name": "_memeId",
          "type": "uint256"
        }
      ],
      "name": "getEncodeParentId",
      "outputs": [
        {
          "internalType": "bytes32",
          "name": "",
          "type": "bytes32"
        }
      ],
      "stateMutability": "view",
      "type": "function",
      "constant": true
    },
    {
      "inputs": [
        {
          "internalType": "uint256",
          "name": "_memeId",
          "type": "uint256"
        }
      ],
      "name": "getEncodeOriginId",
      "outputs": [
        {
          "internalType": "bytes32",
          "name": "",
          "type": "bytes32"
        }
      ],
      "stateMutability": "view",
      "type": "function",
      "constant": true
    },
    {
      "inputs": [
        {
          "internalType": "uint256",
          "name": "_memeId",
          "type": "uint256"
        }
      ],
      "name": "getEncodeAuthor",
      "outputs": [
        {
          "internalType": "address",
          "name": "",
          "type": "address"
        }
      ],
      "stateMutability": "view",
      "type": "function",
      "constant": true
    },
    {
      "inputs": [
        {
          "internalType": "uint256",
          "name": "_memeId",
          "type": "uint256"
        }
      ],
      "name": "getEncodeVisibility",
      "outputs": [
        {
          "internalType": "bool",
          "name": "",
          "type": "bool"
        }
      ],
      "stateMutability": "view",
      "type": "function",
      "constant": true
    },
    {
      "inputs": [
        {
          "internalType": "address",
          "name": "_memeFactory",
          "type": "address"
        }
      ],
      "name": "passFactorySigner",
      "outputs": [
        {
          "internalType": "bool",
          "name": "",
          "type": "bool"
        }
      ],
      "stateMutability": "nonpayable",
      "type": "function"
    },
    {
      "inputs": [
        {
          "internalType": "address",
          "name": "_userInterface",
          "type": "address"
        }
      ],
      "name": "passInterfaceSigner",
      "outputs": [
        {
          "internalType": "bool",
          "name": "",
          "type": "bool"
        }
      ],
      "stateMutability": "nonpayable",
      "type": "function"
    },
    {
      "inputs": [
        {
          "internalType": "address",
          "name": "_post",
          "type": "address"
        }
      ],
      "name": "passPostSigner",
      "outputs": [
        {
          "internalType": "bool",
          "name": "",
          "type": "bool"
        }
      ],
      "stateMutability": "nonpayable",
      "type": "function"
    },
    {
      "inputs": [
        {
          "internalType": "address",
          "name": "_like",
          "type": "address"
        }
      ],
      "name": "passLikeSigner",
      "outputs": [
        {
          "internalType": "bool",
          "name": "",
          "type": "bool"
        }
      ],
      "stateMutability": "nonpayable",
      "type": "function"
    },
    {
      "inputs": [
        {
          "internalType": "address",
          "name": "_boost",
          "type": "address"
        }
      ],
      "name": "passBoostSigner",
      "outputs": [
        {
          "internalType": "bool",
          "name": "",
          "type": "bool"
        }
      ],
      "stateMutability": "nonpayable",
      "type": "function"
    }
  ],
  "bytecode": "0x6080604052600060055534801561001557600080fd5b50336000806101000a81548173ffffffffffffffffffffffffffffffffffffffff021916908373ffffffffffffffffffffffffffffffffffffffff16021790555033600160006101000a81548173ffffffffffffffffffffffffffffffffffffffff021916908373ffffffffffffffffffffffffffffffffffffffff16021790555033600260006101000a81548173ffffffffffffffffffffffffffffffffffffffff021916908373ffffffffffffffffffffffffffffffffffffffff16021790555033600360006101000a81548173ffffffffffffffffffffffffffffffffffffffff021916908373ffffffffffffffffffffffffffffffffffffffff16021790555033600460006101000a81548173ffffffffffffffffffffffffffffffffffffffff021916908373ffffffffffffffffffffffffffffffffffffffff160217905550614737806101696000396000f3fe608060405234801561001057600080fd5b50600436106103ba5760003560e01c806391fe1a8f116101f4578063c6ede8bb1161011a578063e9bdf976116100ad578063f64458bd1161007c578063f64458bd14610d3b578063f8f1be2214610d6b578063f8f3d03714610d9b578063fae6066414610da5576103ba565b8063e9bdf97614610c8f578063edcd526a14610cab578063f00c970414610cdb578063f1e25e8514610d0b576103ba565b8063ddf60c93116100e9578063ddf60c9314610bf5578063debf068214610c11578063e2975f0914610c2f578063e83a8fdd14610c5f576103ba565b8063c6ede8bb14610b2d578063d092b7b314610b5d578063d4b8df2214610b8d578063ddeeeed514610bbd576103ba565b8063af5dffde11610192578063bacd910c11610161578063bacd910c14610a95578063bd0a4e9e14610ab1578063c4e172da14610acd578063c627f1ee14610afd576103ba565b8063af5dffde146109e7578063af82e19214610a05578063b2afb6c814610a35578063b5b421e114610a65576103ba565b806398316938116101ce578063983169381461094d5780639ca9dcab1461097d578063a6838c7b1461099b578063aaf837c5146109cb576103ba565b806391fe1a8f146108d157806393d2c8541461090157806397d397f114610931576103ba565b8063563f4f65116102e457806370d2c46b11610277578063829a262c11610246578063829a262c1461083557806385188f3c146108535780638bc4443e146108835780638c98876f146108b3576103ba565b806370d2c46b146107af5780637135cc10146107cb57806372d9fe5d146107e75780637b2124d214610817576103ba565b806369171f5c116102b357806369171f5c146106ef578063691d1c281461071f5780636c3320851461074f5780637071af841461077f576103ba565b8063563f4f65146106535780635713663c146106835780635aa64413146106b35780635bba8fef146106d1576103ba565b8063261837171161035c5780633a93c5fa1161032b5780633a93c5fa146105bb5780634fd5d474146105d757806350de13f9146106075780635283c48014610623576103ba565b806326183717146104fb57806326cecfcf1461052b5780632ecf64011461055b5780633331cb331461058b576103ba565b806317dcaab61161039857806317dcaab61461043b57806318a01aac1461046b5780631956fbc91461049b578063213059dd146104cb576103ba565b806306e6a770146103bf5780631268d42a146103ef57806316fb584e1461040b575b600080fd5b6103d960048036038101906103d491906134d8565b610dd5565b6040516103e69190613520565b60405180910390f35b61040960048036038101906104049190613571565b610f2d565b005b610425600480360381019061042091906135e7565b61102a565b6040516104329190613623565b60405180910390f35b610455600480360381019061045091906134d8565b611090565b6040516104629190613520565b60405180910390f35b610485600480360381019061048091906135e7565b6111e4565b6040516104929190613520565b60405180910390f35b6104b560048036038101906104b091906135e7565b611237565b6040516104c291906136fc565b60405180910390f35b6104e560048036038101906104e0919061371e565b6112cb565b6040516104f29190613809565b60405180910390f35b610515600480360381019061051091906135e7565b61136f565b60405161052291906136fc565b60405180910390f35b610545600480360381019061054091906135e7565b611403565b604051610552919061383a565b60405180910390f35b610575600480360381019061057091906135e7565b611449565b604051610582919061383a565b60405180910390f35b6105a560048036038101906105a091906135e7565b61148f565b6040516105b291906136fc565b60405180910390f35b6105d560048036038101906105d09190613855565b611523565b005b6105f160048036038101906105ec919061371e565b6115e4565b6040516105fe9190613809565b60405180910390f35b610621600480360381019061061c91906139ee565b611688565b005b61063d60048036038101906106389190613571565b611745565b60405161064a9190613520565b60405180910390f35b61066d600480360381019061066891906135e7565b611774565b60405161067a9190613809565b60405180910390f35b61069d6004803603810190610698919061371e565b61183e565b6040516106aa9190613a59565b60405180910390f35b6106bb611861565b6040516106c89190613623565b60405180910390f35b6106d9611885565b6040516106e69190613623565b60405180910390f35b6107096004803603810190610704919061371e565b6118ab565b60405161071691906136fc565b60405180910390f35b6107396004803603810190610734919061371e565b611919565b6040516107469190613623565b60405180910390f35b61076960048036038101906107649190613571565b611959565b6040516107769190613520565b60405180910390f35b6107996004803603810190610794919061371e565b6119c1565b6040516107a6919061383a565b60405180910390f35b6107c960048036038101906107c49190613855565b6119e1565b005b6107e560048036038101906107e09190613b37565b611aa2565b005b61080160048036038101906107fc919061371e565b611b61565b60405161080e91906136fc565b60405180910390f35b61081f611bcf565b60405161082c9190613a59565b60405180910390f35b61083d611bd5565b60405161084a9190613623565b60405180910390f35b61086d6004803603810190610868919061371e565b611bfb565b60405161087a9190613a59565b60405180910390f35b61089d60048036038101906108989190613571565b611c1b565b6040516108aa9190613520565b60405180910390f35b6108bb611c4a565b6040516108c89190613623565b60405180910390f35b6108eb60048036038101906108e691906134d8565b611c70565b6040516108f89190613520565b60405180910390f35b61091b600480360381019061091691906135e7565b611dc8565b6040516109289190613809565b60405180910390f35b61094b60048036038101906109469190613571565b611e92565b005b6109676004803603810190610962919061371e565b611f8f565b6040516109749190613a59565b60405180910390f35b610985611fb2565b6040516109929190613a59565b60405180910390f35b6109b560048036038101906109b091906134d8565b611fbc565b6040516109c29190613520565b60405180910390f35b6109e560048036038101906109e0919061371e565b612114565b005b6109ef6125c5565b6040516109fc9190613623565b60405180910390f35b610a1f6004803603810190610a1a91906135e7565b6125eb565b604051610a2c919061383a565b60405180910390f35b610a4f6004803603810190610a4a9190613571565b612631565b604051610a5c9190613520565b60405180910390f35b610a7f6004803603810190610a7a91906135e7565b612699565b604051610a8c9190613809565b60405180910390f35b610aaf6004803603810190610aaa91906139ee565b612763565b005b610acb6004803603810190610ac691906139ee565b612820565b005b610ae76004803603810190610ae291906134d8565b6128dd565b604051610af49190613520565b60405180910390f35b610b176004803603810190610b12919061371e565b612a35565b604051610b249190613520565b60405180910390f35b610b476004803603810190610b4291906135e7565b612a62565b604051610b549190613a59565b60405180910390f35b610b776004803603810190610b7291906135e7565b612aab565b604051610b849190613a59565b60405180910390f35b610ba76004803603810190610ba2919061371e565b612af4565b604051610bb491906136fc565b60405180910390f35b610bd76004803603810190610bd2919061371e565b612b62565b604051610bec99989796959493929190613c1b565b60405180910390f35b610c0f6004803603810190610c0a9190613fc2565b612c65565b005b610c19612eac565b604051610c2691906136fc565b60405180910390f35b610c496004803603810190610c44919061371e565b612f04565b604051610c56919061383a565b60405180910390f35b610c796004803603810190610c7491906135e7565b612f24565b604051610c869190613a59565b60405180910390f35b610ca96004803603810190610ca49190613b37565b612f6d565b005b610cc56004803603810190610cc0919061371e565b61302c565b604051610cd29190613809565b60405180910390f35b610cf56004803603810190610cf091906135e7565b6130d0565b604051610d029190613a59565b60405180910390f35b610d256004803603810190610d20919061371e565b613119565b604051610d32919061383a565b60405180910390f35b610d556004803603810190610d50919061371e565b613139565b604051610d62919061401e565b60405180910390f35b610d856004803603810190610d80919061371e565b6131e1565b604051610d929190613a59565b60405180910390f35b610da3613204565b005b610dbf6004803603810190610dba919061371e565b6132ac565b604051610dcc9190613a59565b60405180910390f35b6000600360009054906101000a900473ffffffffffffffffffffffffffffffffffffffff1673ffffffffffffffffffffffffffffffffffffffff163373ffffffffffffffffffffffffffffffffffffffff1614610e67576040517f08c379a0000000000000000000000000000000000000000000000000000000008152600401610e5e906140b2565b60405180910390fd5b81600360006101000a81548173ffffffffffffffffffffffffffffffffffffffff021916908373ffffffffffffffffffffffffffffffffffffffff160217905550600360009054906101000a900473ffffffffffffffffffffffffffffffffffffffff1673ffffffffffffffffffffffffffffffffffffffff163373ffffffffffffffffffffffffffffffffffffffff167f2364065f519eb2e0ac13040d65b1d1140f6677de0518b6dee6954e49f7f7a5b660405160405180910390a360019050919050565b600360009054906101000a900473ffffffffffffffffffffffffffffffffffffffff1673ffffffffffffffffffffffffffffffffffffffff163373ffffffffffffffffffffffffffffffffffffffff1614610fbd576040517f08c379a0000000000000000000000000000000000000000000000000000000008152600401610fb4906140b2565b60405180910390fd5b60016009600084815260200190815260200160002060008373ffffffffffffffffffffffffffffffffffffffff1673ffffffffffffffffffffffffffffffffffffffff16815260200190815260200160002060006101000a81548160ff0219169083151502179055505050565b6000600760008360405160200161104191906140f3565b604051602081830303815290604052805190602001208152602001908152602001600020600d0160009054906101000a900473ffffffffffffffffffffffffffffffffffffffff169050919050565b60008060009054906101000a900473ffffffffffffffffffffffffffffffffffffffff1673ffffffffffffffffffffffffffffffffffffffff163373ffffffffffffffffffffffffffffffffffffffff1614611121576040517f08c379a000000000000000000000000000000000000000000000000000000000815260040161111890614180565b60405180910390fd5b816000806101000a81548173ffffffffffffffffffffffffffffffffffffffff021916908373ffffffffffffffffffffffffffffffffffffffff16021790555060008054906101000a900473ffffffffffffffffffffffffffffffffffffffff1673ffffffffffffffffffffffffffffffffffffffff163373ffffffffffffffffffffffffffffffffffffffff167f5f8b18be53cdf9843c4263461966fc46896a2d372d3fa87fc22f6cfed024186260405160405180910390a360019050919050565b600060076000836040516020016111fb91906140f3565b604051602081830303815290604052805190602001208152602001908152602001600020600d0160149054906101000a900460ff169050919050565b6060600760008360405160200161124e91906140f3565b6040516020818303038152906040528051906020012081526020019081526020016000206007018054806020026020016040519081016040528092919081815260200182805480156112bf57602002820191906000526020600020905b8154815260200190600101908083116112ab575b50505050509050919050565b60606007600083815260200190815260200160002060040180548060200260200160405190810160405280929190818152602001828054801561136357602002820191906000526020600020905b8160009054906101000a900473ffffffffffffffffffffffffffffffffffffffff1673ffffffffffffffffffffffffffffffffffffffff1681526020019060010190808311611319575b50505050509050919050565b6060600760008360405160200161138691906140f3565b604051602081830303815290604052805190602001208152602001908152602001600020600a018054806020026020016040519081016040528092919081815260200182805480156113f757602002820191906000526020600020905b8154815260200190600101908083116113e3575b50505050509050919050565b6000600760008360405160200161141a91906140f3565b604051602081830303815290604052805190602001208152602001908152602001600020600b01549050919050565b6000600760008360405160200161146091906140f3565b604051602081830303815290604052805190602001208152602001908152602001600020600c01549050919050565b606060076000836040516020016114a691906140f3565b60405160208183030381529060405280519060200120815260200190815260200160002060060180548060200260200160405190810160405280929190818152602001828054801561151757602002820191906000526020600020905b815481526020019060010190808311611503575b50505050509050919050565b600460009054906101000a900473ffffffffffffffffffffffffffffffffffffffff1673ffffffffffffffffffffffffffffffffffffffff163373ffffffffffffffffffffffffffffffffffffffff16146115b3576040517f08c379a00000000000000000000000000000000000000000000000000000000081526004016115aa90614212565b60405180910390fd5b806007600084815260200190815260200160002060030160008282546115d99190614261565b925050819055505050565b60606007600083815260200190815260200160002060050180548060200260200160405190810160405280929190818152602001828054801561167c57602002820191906000526020600020905b8160009054906101000a900473ffffffffffffffffffffffffffffffffffffffff1673ffffffffffffffffffffffffffffffffffffffff1681526020019060010190808311611632575b50505050509050919050565b60008054906101000a900473ffffffffffffffffffffffffffffffffffffffff1673ffffffffffffffffffffffffffffffffffffffff163373ffffffffffffffffffffffffffffffffffffffff1614611716576040517f08c379a000000000000000000000000000000000000000000000000000000000815260040161170d90614180565b60405180910390fd5b806007600084815260200190815260200160002060060190805190602001906117409291906132cf565b505050565b60086020528160005260406000206020528060005260406000206000915091509054906101000a900460ff1681565b6060600760008360405160200161178b91906140f3565b60405160208183030381529060405280519060200120815260200190815260200160002060040180548060200260200160405190810160405280929190818152602001828054801561183257602002820191906000526020600020905b8160009054906101000a900473ffffffffffffffffffffffffffffffffffffffff1673ffffffffffffffffffffffffffffffffffffffff16815260200190600101908083116117e8575b50505050509050919050565b600060076000838152602001908152602001600020600701805490509050919050565b60008054906101000a900473ffffffffffffffffffffffffffffffffffffffff1681565b600460009054906101000a900473ffffffffffffffffffffffffffffffffffffffff1681565b60606007600083815260200190815260200160002060070180548060200260200160405190810160405280929190818152602001828054801561190d57602002820191906000526020600020905b8154815260200190600101908083116118f9575b50505050509050919050565b600060076000838152602001908152602001600020600d0160009054906101000a900473ffffffffffffffffffffffffffffffffffffffff169050919050565b60006008600084815260200190815260200160002060008373ffffffffffffffffffffffffffffffffffffffff1673ffffffffffffffffffffffffffffffffffffffff16815260200190815260200160002060009054906101000a900460ff16905092915050565b600060076000838152602001908152602001600020600b01549050919050565b600460009054906101000a900473ffffffffffffffffffffffffffffffffffffffff1673ffffffffffffffffffffffffffffffffffffffff163373ffffffffffffffffffffffffffffffffffffffff1614611a71576040517f08c379a0000000000000000000000000000000000000000000000000000000008152600401611a6890614307565b60405180910390fd5b80600760008481526020019081526020016000206003016000828254611a979190614327565b925050819055505050565b600360009054906101000a900473ffffffffffffffffffffffffffffffffffffffff1673ffffffffffffffffffffffffffffffffffffffff163373ffffffffffffffffffffffffffffffffffffffff1614611b32576040517f08c379a0000000000000000000000000000000000000000000000000000000008152600401611b29906140b2565b60405180910390fd5b80600760008481526020019081526020016000206005019080519060200190611b5c92919061331c565b505050565b606060076000838152602001908152602001600020600601805480602002602001604051908101604052809291908181526020018280548015611bc357602002820191906000526020600020905b815481526020019060010190808311611baf575b50505050509050919050565b60055481565b600360009054906101000a900473ffffffffffffffffffffffffffffffffffffffff1681565b600060076000838152602001908152602001600020600301549050919050565b60096020528160005260406000206020528060005260406000206000915091509054906101000a900460ff1681565b600260009054906101000a900473ffffffffffffffffffffffffffffffffffffffff1681565b6000600460009054906101000a900473ffffffffffffffffffffffffffffffffffffffff1673ffffffffffffffffffffffffffffffffffffffff163373ffffffffffffffffffffffffffffffffffffffff1614611d02576040517f08c379a0000000000000000000000000000000000000000000000000000000008152600401611cf9906143ef565b60405180910390fd5b81600460006101000a81548173ffffffffffffffffffffffffffffffffffffffff021916908373ffffffffffffffffffffffffffffffffffffffff160217905550600460009054906101000a900473ffffffffffffffffffffffffffffffffffffffff1673ffffffffffffffffffffffffffffffffffffffff163373ffffffffffffffffffffffffffffffffffffffff167f6892a8923ec61e89beaa10370e660884074b3bec292be12802599cf655bba75260405160405180910390a360019050919050565b60606007600083604051602001611ddf91906140f3565b604051602081830303815290604052805190602001208152602001908152602001600020600901805480602002602001604051908101604052809291908181526020018280548015611e8657602002820191906000526020600020905b8160009054906101000a900473ffffffffffffffffffffffffffffffffffffffff1673ffffffffffffffffffffffffffffffffffffffff1681526020019060010190808311611e3c575b50505050509050919050565b600360009054906101000a900473ffffffffffffffffffffffffffffffffffffffff1673ffffffffffffffffffffffffffffffffffffffff163373ffffffffffffffffffffffffffffffffffffffff1614611f22576040517f08c379a0000000000000000000000000000000000000000000000000000000008152600401611f19906140b2565b60405180910390fd5b60016008600084815260200190815260200160002060008373ffffffffffffffffffffffffffffffffffffffff1673ffffffffffffffffffffffffffffffffffffffff16815260200190815260200160002060006101000a81548160ff0219169083151502179055505050565b600060076000838152602001908152602001600020600401805490509050919050565b6000600554905090565b6000600260009054906101000a900473ffffffffffffffffffffffffffffffffffffffff1673ffffffffffffffffffffffffffffffffffffffff163373ffffffffffffffffffffffffffffffffffffffff161461204e576040517f08c379a000000000000000000000000000000000000000000000000000000000815260040161204590614481565b60405180910390fd5b81600260006101000a81548173ffffffffffffffffffffffffffffffffffffffff021916908373ffffffffffffffffffffffffffffffffffffffff160217905550600260009054906101000a900473ffffffffffffffffffffffffffffffffffffffff1673ffffffffffffffffffffffffffffffffffffffff163373ffffffffffffffffffffffffffffffffffffffff167f76ce921e20c471c95deae34d20d53706ec4378ecab394e517f73aef912ae6cdd60405160405180910390a360019050919050565b60008054906101000a900473ffffffffffffffffffffffffffffffffffffffff1673ffffffffffffffffffffffffffffffffffffffff163373ffffffffffffffffffffffffffffffffffffffff16146121a2576040517f08c379a000000000000000000000000000000000000000000000000000000000815260040161219990614513565b60405180910390fd5b6000604051806101e001604052808381526020016000815260200160405180602001604052806000815250815260200160008152602001600067ffffffffffffffff8111156121f4576121f36138ab565b5b6040519080825280602002602001820160405280156122225781602001602082028036833780820191505090505b508152602001600067ffffffffffffffff811115612243576122426138ab565b5b6040519080825280602002602001820160405280156122715781602001602082028036833780820191505090505b508152602001600067ffffffffffffffff811115612292576122916138ab565b5b6040519080825280602002602001820160405280156122c05781602001602082028036833780820191505090505b508152602001600067ffffffffffffffff8111156122e1576122e06138ab565b5b60405190808252806020026020018201604052801561230f5781602001602082028036833780820191505090505b5081526020016000801b8152602001600067ffffffffffffffff811115612339576123386138ab565b5b6040519080825280602002602001820160405280156123675781602001602082028036833780820191505090505b50815260200160076000858152602001908152602001600020600a018054806020026020016040519081016040528092919081815260200182805480156123cd57602002820191906000526020600020905b8154815260200190600101908083116123b9575b5050505050815260200160076000858152602001908152602001600020600b0154815260200160076000858152602001908152602001600020600c01548152602001600073ffffffffffffffffffffffffffffffffffffffff1681526020016000151581525090508060076000848152602001908152602001600020600082015181600001556020820151816001015560408201518160020190805190602001906124799291906133a6565b506060820151816003015560808201518160040190805190602001906124a092919061331c565b5060a08201518160050190805190602001906124bd92919061331c565b5060c08201518160060190805190602001906124da9291906132cf565b5060e08201518160070190805190602001906124f79291906132cf565b50610100820151816008015561012082015181600901908051906020019061252092919061331c565b5061014082015181600a01908051906020019061253e9291906132cf565b5061016082015181600b015561018082015181600c01556101a082015181600d0160006101000a81548173ffffffffffffffffffffffffffffffffffffffff021916908373ffffffffffffffffffffffffffffffffffffffff1602179055506101c082015181600d0160146101000a81548160ff0219169083151502179055509050505050565b600160009054906101000a900473ffffffffffffffffffffffffffffffffffffffff1681565b6000600760008360405160200161260291906140f3565b604051602081830303815290604052805190602001208152602001908152602001600020600001549050919050565b60006009600084815260200190815260200160002060008373ffffffffffffffffffffffffffffffffffffffff1673ffffffffffffffffffffffffffffffffffffffff16815260200190815260200160002060009054906101000a900460ff16905092915050565b606060076000836040516020016126b091906140f3565b60405160208183030381529060405280519060200120815260200190815260200160002060050180548060200260200160405190810160405280929190818152602001828054801561275757602002820191906000526020600020905b8160009054906101000a900473ffffffffffffffffffffffffffffffffffffffff1673ffffffffffffffffffffffffffffffffffffffff168152602001906001019080831161270d575b50505050509050919050565b60008054906101000a900473ffffffffffffffffffffffffffffffffffffffff1673ffffffffffffffffffffffffffffffffffffffff163373ffffffffffffffffffffffffffffffffffffffff16146127f1576040517f08c379a00000000000000000000000000000000000000000000000000000000081526004016127e890614180565b60405180910390fd5b8060076000848152602001908152602001600020600a01908051906020019061281b9291906132cf565b505050565b60008054906101000a900473ffffffffffffffffffffffffffffffffffffffff1673ffffffffffffffffffffffffffffffffffffffff163373ffffffffffffffffffffffffffffffffffffffff16146128ae576040517f08c379a00000000000000000000000000000000000000000000000000000000081526004016128a590614180565b60405180910390fd5b806007600084815260200190815260200160002060070190805190602001906128d89291906132cf565b505050565b6000600160009054906101000a900473ffffffffffffffffffffffffffffffffffffffff1673ffffffffffffffffffffffffffffffffffffffff163373ffffffffffffffffffffffffffffffffffffffff161461296f576040517f08c379a000000000000000000000000000000000000000000000000000000000815260040161296690614180565b60405180910390fd5b81600160006101000a81548173ffffffffffffffffffffffffffffffffffffffff021916908373ffffffffffffffffffffffffffffffffffffffff160217905550600160009054906101000a900473ffffffffffffffffffffffffffffffffffffffff1673ffffffffffffffffffffffffffffffffffffffff163373ffffffffffffffffffffffffffffffffffffffff167fdf570d582e474b2d7915b12f6f773eb74e4bc78a660caeeccf19491c8578507b60405160405180910390a360019050919050565b600060076000838152602001908152602001600020600d0160149054906101000a900460ff169050919050565b60006007600083604051602001612a7991906140f3565b604051602081830303815290604052805190602001208152602001908152602001600020600401805490509050919050565b60006007600083604051602001612ac291906140f3565b604051602081830303815290604052805190602001208152602001908152602001600020600a01805490509050919050565b606060076000838152602001908152602001600020600a01805480602002602001604051908101604052809291908181526020018280548015612b5657602002820191906000526020600020905b815481526020019060010190808311612b42575b50505050509050919050565b6007602052806000526040600020600091509050806000015490806001015490806002018054612b9190614562565b80601f0160208091040260200160405190810160405280929190818152602001828054612bbd90614562565b8015612c0a5780601f10612bdf57610100808354040283529160200191612c0a565b820191906000526020600020905b815481529060010190602001808311612bed57829003601f168201915b50505050509080600301549080600801549080600b01549080600c01549080600d0160009054906101000a900473ffffffffffffffffffffffffffffffffffffffff169080600d0160149054906101000a900460ff16905089565b60008054906101000a900473ffffffffffffffffffffffffffffffffffffffff1673ffffffffffffffffffffffffffffffffffffffff163373ffffffffffffffffffffffffffffffffffffffff1614612cf3576040517f08c379a0000000000000000000000000000000000000000000000000000000008152600401612cea90614606565b60405180910390fd5b806007600084815260200190815260200160002060008201518160000155602082015181600101556040820151816002019080519060200190612d379291906133a6565b50606082015181600301556080820151816004019080519060200190612d5e92919061331c565b5060a0820151816005019080519060200190612d7b92919061331c565b5060c0820151816006019080519060200190612d989291906132cf565b5060e0820151816007019080519060200190612db59291906132cf565b506101008201518160080155610120820151816009019080519060200190612dde92919061331c565b5061014082015181600a019080519060200190612dfc9291906132cf565b5061016082015181600b015561018082015181600c01556101a082015181600d0160006101000a81548173ffffffffffffffffffffffffffffffffffffffff021916908373ffffffffffffffffffffffffffffffffffffffff1602179055506101c082015181600d0160146101000a81548160ff02191690831515021790555090505060068290806001815401808255809150506001900390600052602060002001600090919091909150555050565b60606006805480602002602001604051908101604052809291908181526020018280548015612efa57602002820191906000526020600020905b815481526020019060010190808311612ee6575b5050505050905090565b600060076000838152602001908152602001600020600801549050919050565b60006007600083604051602001612f3b91906140f3565b604051602081830303815290604052805190602001208152602001908152602001600020600701805490509050919050565b600360009054906101000a900473ffffffffffffffffffffffffffffffffffffffff1673ffffffffffffffffffffffffffffffffffffffff163373ffffffffffffffffffffffffffffffffffffffff1614612ffd576040517f08c379a0000000000000000000000000000000000000000000000000000000008152600401612ff4906140b2565b60405180910390fd5b8060076000848152602001908152602001600020600401908051906020019061302792919061331c565b505050565b6060600760008381526020019081526020016000206009018054806020026020016040519081016040528092919081815260200182805480156130c457602002820191906000526020600020905b8160009054906101000a900473ffffffffffffffffffffffffffffffffffffffff1673ffffffffffffffffffffffffffffffffffffffff168152602001906001019080831161307a575b50505050509050919050565b600060076000836040516020016130e791906140f3565b604051602081830303815290604052805190602001208152602001908152602001600020600601805490509050919050565b600060076000838152602001908152602001600020600c01549050919050565b606060076000838152602001908152602001600020600201805461315c90614562565b80601f016020809104026020016040519081016040528092919081815260200182805461318890614562565b80156131d55780601f106131aa576101008083540402835291602001916131d5565b820191906000526020600020905b8154815290600101906020018083116131b857829003601f168201915b50505050509050919050565b600060076000838152602001908152602001600020600601805490509050919050565b60008054906101000a900473ffffffffffffffffffffffffffffffffffffffff1673ffffffffffffffffffffffffffffffffffffffff163373ffffffffffffffffffffffffffffffffffffffff1614613292576040517f08c379a000000000000000000000000000000000000000000000000000000000815260040161328990614698565b60405180910390fd5b600560008154809291906132a5906146b8565b9190505550565b600060076000838152602001908152602001600020600a01805490509050919050565b82805482825590600052602060002090810192821561330b579160200282015b8281111561330a5782518255916020019190600101906132ef565b5b509050613318919061342c565b5090565b828054828255906000526020600020908101928215613395579160200282015b828111156133945782518260006101000a81548173ffffffffffffffffffffffffffffffffffffffff021916908373ffffffffffffffffffffffffffffffffffffffff1602179055509160200191906001019061333c565b5b5090506133a29190613449565b5090565b8280546133b290614562565b90600052602060002090601f0160209004810192826133d4576000855561341b565b82601f106133ed57805160ff191683800117855561341b565b8280016001018555821561341b579182015b8281111561341a5782518255916020019190600101906133ff565b5b5090506134289190613449565b5090565b5b8082111561344557600081600090555060010161342d565b5090565b5b8082111561346257600081600090555060010161344a565b5090565b6000604051905090565b600080fd5b600080fd5b600073ffffffffffffffffffffffffffffffffffffffff82169050919050565b60006134a58261347a565b9050919050565b6134b58161349a565b81146134c057600080fd5b50565b6000813590506134d2816134ac565b92915050565b6000602082840312156134ee576134ed613470565b5b60006134fc848285016134c3565b91505092915050565b60008115159050919050565b61351a81613505565b82525050565b60006020820190506135356000830184613511565b92915050565b6000819050919050565b61354e8161353b565b811461355957600080fd5b50565b60008135905061356b81613545565b92915050565b6000806040838503121561358857613587613470565b5b60006135968582860161355c565b92505060206135a7858286016134c3565b9150509250929050565b6000819050919050565b6135c4816135b1565b81146135cf57600080fd5b50565b6000813590506135e1816135bb565b92915050565b6000602082840312156135fd576135fc613470565b5b600061360b848285016135d2565b91505092915050565b61361d8161349a565b82525050565b60006020820190506136386000830184613614565b92915050565b600081519050919050565b600082825260208201905092915050565b6000819050602082019050919050565b6136738161353b565b82525050565b6000613685838361366a565b60208301905092915050565b6000602082019050919050565b60006136a98261363e565b6136b38185613649565b93506136be8361365a565b8060005b838110156136ef5781516136d68882613679565b97506136e183613691565b9250506001810190506136c2565b5085935050505092915050565b60006020820190508181036000830152613716818461369e565b905092915050565b60006020828403121561373457613733613470565b5b60006137428482850161355c565b91505092915050565b600081519050919050565b600082825260208201905092915050565b6000819050602082019050919050565b6137808161349a565b82525050565b60006137928383613777565b60208301905092915050565b6000602082019050919050565b60006137b68261374b565b6137c08185613756565b93506137cb83613767565b8060005b838110156137fc5781516137e38882613786565b97506137ee8361379e565b9250506001810190506137cf565b5085935050505092915050565b6000602082019050818103600083015261382381846137ab565b905092915050565b6138348161353b565b82525050565b600060208201905061384f600083018461382b565b92915050565b6000806040838503121561386c5761386b613470565b5b600061387a8582860161355c565b925050602061388b858286016135d2565b9150509250929050565b600080fd5b6000601f19601f8301169050919050565b7f4e487b7100000000000000000000000000000000000000000000000000000000600052604160045260246000fd5b6138e38261389a565b810181811067ffffffffffffffff82111715613902576139016138ab565b5b80604052505050565b6000613915613466565b905061392182826138da565b919050565b600067ffffffffffffffff821115613941576139406138ab565b5b602082029050602081019050919050565b600080fd5b600061396a61396584613926565b61390b565b9050808382526020820190506020840283018581111561398d5761398c613952565b5b835b818110156139b657806139a2888261355c565b84526020840193505060208101905061398f565b5050509392505050565b600082601f8301126139d5576139d4613895565b5b81356139e5848260208601613957565b91505092915050565b60008060408385031215613a0557613a04613470565b5b6000613a138582860161355c565b925050602083013567ffffffffffffffff811115613a3457613a33613475565b5b613a40858286016139c0565b9150509250929050565b613a53816135b1565b82525050565b6000602082019050613a6e6000830184613a4a565b92915050565b600067ffffffffffffffff821115613a8f57613a8e6138ab565b5b602082029050602081019050919050565b6000613ab3613aae84613a74565b61390b565b90508083825260208201905060208402830185811115613ad657613ad5613952565b5b835b81811015613aff5780613aeb88826134c3565b845260208401935050602081019050613ad8565b5050509392505050565b600082601f830112613b1e57613b1d613895565b5b8135613b2e848260208601613aa0565b91505092915050565b60008060408385031215613b4e57613b4d613470565b5b6000613b5c8582860161355c565b925050602083013567ffffffffffffffff811115613b7d57613b7c613475565b5b613b8985828601613b09565b9150509250929050565b600081519050919050565b600082825260208201905092915050565b60005b83811015613bcd578082015181840152602081019050613bb2565b83811115613bdc576000848401525b50505050565b6000613bed82613b93565b613bf78185613b9e565b9350613c07818560208601613baf565b613c108161389a565b840191505092915050565b600061012082019050613c31600083018c61382b565b613c3e602083018b613a4a565b8181036040830152613c50818a613be2565b9050613c5f6060830189613a4a565b613c6c608083018861382b565b613c7960a083018761382b565b613c8660c083018661382b565b613c9360e0830185613614565b613ca1610100830184613511565b9a9950505050505050505050565b600080fd5b600080fd5b600080fd5b600067ffffffffffffffff821115613cd957613cd86138ab565b5b613ce28261389a565b9050602081019050919050565b82818337600083830152505050565b6000613d11613d0c84613cbe565b61390b565b905082815260208101848484011115613d2d57613d2c613cb9565b5b613d38848285613cef565b509392505050565b600082601f830112613d5557613d54613895565b5b8135613d65848260208601613cfe565b91505092915050565b613d7781613505565b8114613d8257600080fd5b50565b600081359050613d9481613d6e565b92915050565b60006101e08284031215613db157613db0613caf565b5b613dbc6101e061390b565b90506000613dcc8482850161355c565b6000830152506020613de0848285016135d2565b602083015250604082013567ffffffffffffffff811115613e0457613e03613cb4565b5b613e1084828501613d40565b6040830152506060613e24848285016135d2565b606083015250608082013567ffffffffffffffff811115613e4857613e47613cb4565b5b613e5484828501613b09565b60808301525060a082013567ffffffffffffffff811115613e7857613e77613cb4565b5b613e8484828501613b09565b60a08301525060c082013567ffffffffffffffff811115613ea857613ea7613cb4565b5b613eb4848285016139c0565b60c08301525060e082013567ffffffffffffffff811115613ed857613ed7613cb4565b5b613ee4848285016139c0565b60e083015250610100613ef98482850161355c565b6101008301525061012082013567ffffffffffffffff811115613f1f57613f1e613cb4565b5b613f2b84828501613b09565b6101208301525061014082013567ffffffffffffffff811115613f5157613f50613cb4565b5b613f5d848285016139c0565b61014083015250610160613f738482850161355c565b61016083015250610180613f898482850161355c565b610180830152506101a0613f9f848285016134c3565b6101a0830152506101c0613fb584828501613d85565b6101c08301525092915050565b60008060408385031215613fd957613fd8613470565b5b6000613fe78582860161355c565b925050602083013567ffffffffffffffff81111561400857614007613475565b5b61401485828601613d9a565b9150509250929050565b600060208201905081810360008301526140388184613be2565b905092915050565b7f4572726f723a206d73672e73656e646572206d757374206265206c696b65536960008201527f676e657200000000000000000000000000000000000000000000000000000000602082015250565b600061409c602483613b9e565b91506140a782614040565b604082019050919050565b600060208201905081810360008301526140cb8161408f565b9050919050565b6000819050919050565b6140ed6140e8826135b1565b6140d2565b82525050565b60006140ff82846140dc565b60208201915081905092915050565b7f4572726f723a206d73672e73656e646572206d75737420626520666163746f7260008201527f795369676e657200000000000000000000000000000000000000000000000000602082015250565b600061416a602783613b9e565b91506141758261410e565b604082019050919050565b600060208201905081810360008301526141998161415d565b9050919050565b7f4572726f723a206d73672e73656e646572206d757374206265206c696b652c2060008201527f706f73742c206f7220626f6f7374207369676e65720000000000000000000000602082015250565b60006141fc603583613b9e565b9150614207826141a0565b604082019050919050565b6000602082019050818103600083015261422b816141ef565b9050919050565b7f4e487b7100000000000000000000000000000000000000000000000000000000600052601160045260246000fd5b600061426c826135b1565b9150614277836135b1565b92508282101561428a57614289614232565b5b828203905092915050565b7f4572726f723a206d73672e73656e646572206d75737420626520626f6f73742060008201527f7369676e65720000000000000000000000000000000000000000000000000000602082015250565b60006142f1602683613b9e565b91506142fc82614295565b604082019050919050565b60006020820190508181036000830152614320816142e4565b9050919050565b6000614332826135b1565b915061433d836135b1565b9250827fffffffffffffffffffffffffffffffffffffffffffffffffffffffffffffffff0382111561437257614371614232565b5b828201905092915050565b7f4572726f723a206d73672e73656e646572206d75737420626520626f6f73745360008201527f69676e6572000000000000000000000000000000000000000000000000000000602082015250565b60006143d9602583613b9e565b91506143e48261437d565b604082019050919050565b60006020820190508181036000830152614408816143cc565b9050919050565b7f4572726f723a206d73672e73656e646572206d75737420626520706f7374536960008201527f676e657200000000000000000000000000000000000000000000000000000000602082015250565b600061446b602483613b9e565b91506144768261440f565b604082019050919050565b6000602082019050818103600083015261449a8161445e565b9050919050565b7f4572726f723a206f6e6c7920666163746f72795369676e65722063616e20646560008201527f6c65746500000000000000000000000000000000000000000000000000000000602082015250565b60006144fd602483613b9e565b9150614508826144a1565b604082019050919050565b6000602082019050818103600083015261452c816144f0565b9050919050565b7f4e487b7100000000000000000000000000000000000000000000000000000000600052602260045260246000fd5b6000600282049050600182168061457a57607f821691505b6020821081141561458e5761458d614533565b5b50919050565b7f4572726f723a206d73672e73656e646572206d757374206265206d656d65466160008201527f63746f727920746f20637265617465206d656d65000000000000000000000000602082015250565b60006145f0603483613b9e565b91506145fb82614594565b604082019050919050565b6000602082019050818103600083015261461f816145e3565b9050919050565b7f4572726f723a206f6e6c7920666163746f72795369676e65722063616e20696e60008201527f63726561736520436f756e740000000000000000000000000000000000000000602082015250565b6000614682602c83613b9e565b915061468d82614626565b604082019050919050565b600060208201905081810360008301526146b181614675565b9050919050565b60006146c3826135b1565b91507fffffffffffffffffffffffffffffffffffffffffffffffffffffffffffffffff8214156146f6576146f5614232565b5b60018201905091905056fea2646970667358221220fa3d67e07cc89008c33afe3ff7271bb38b893937e50c8a0fe904af8ea907e7a664736f6c63430008090033",
  "immutableReferences": {},
  "source": "// SPDX-License-Identifier: MIT\n\npragma solidity >=0.8.0 <0.9.0;\n\ncontract MemeStorage {\n  address public factorySigner;\n  address public interfaceSigner;\n  address public postSigner;\n  address public likeSigner;\n  address public boostSigner;\n\n  uint public memeCount = 0;\n  bytes32[] memeIds;\n\n  // mapping of Memes\n  mapping(bytes32 => Meme) public memes; // memeId to meme map\n  mapping(bytes32 => mapping(address => bool)) public hasLiked;\n  mapping(bytes32 => mapping(address => bool)) public hasUnliked;\n\n  // Meme structure\n  struct Meme {\n    bytes32 id; // number in all of timeline\n    uint time; // time of post\n    string text; // text of Meme\n    uint boosts; // boost value\n    address[] likers; // list of addresses of likers\n    address[] unlikers; // list of addresses that have unliked\n    bytes32[] reposts; // list of ids that have reposted\n    bytes32[] quotePosts; // list of ids that have quotePosted\n    bytes32 repostId;// repost id\n    address[] tags; // list of id's of tagged\n    bytes32[] responses; // collection of id's of responses\n    bytes32 parentId; // memeId of parent (can be self)\n    bytes32 originId; // memeId of origin (can be self)\n    address author; // address of author\n    bool isVisible; // is visible\n  }\n\n  event FactorySignerChanged(\n        address indexed from,\n        address indexed to);\n  event InterfaceSignerChanged(\n        address indexed from,\n        address indexed to);\n  event PostSignerChanged(\n        address indexed from,\n        address indexed to);\n  event LikeSignerChanged(\n        address indexed from,\n        address indexed to);\n  event BoostSignerChanged(\n        address indexed from,\n        address indexed to);\n\n  constructor() public {\n    factorySigner = msg.sender;\n    interfaceSigner = msg.sender;\n    postSigner = msg.sender;\n    likeSigner = msg.sender;\n    boostSigner = msg.sender;\n  }\n\n  // Factory-Specific setters\n  function setMeme(\n            bytes32 _memeId,\n            Meme memory _meme)\n            public {\n    require(\n      msg.sender==factorySigner,\n      'Error: msg.sender must be memeFactory to create meme');\n    memes[_memeId] = _meme;\n    memeIds.push(_memeId);\n  }\n  function deleteMeme(bytes32 _memeId)\n            public {\n    require(\n      msg.sender==factorySigner,\n      'Error: only factorySigner can delete');\n    // create empty Meme instance\n    Meme memory _meme = Meme(\n      _memeId,\n      0,\n      '',\n      0,\n      new address[](0),\n      new address[](0),\n      new bytes32[](0),\n      new bytes32[](0),\n      0x0,\n      new address[](0),\n      memes[_memeId].responses,\n      memes[_memeId].parentId,\n      memes[_memeId].originId,\n      address(0x0),\n      false\n    );\n    memes[_memeId] = _meme;\n  }\n  function increaseMemeCount()\n            public {\n    require(\n      msg.sender==factorySigner,\n      'Error: only factorySigner can increase Count'\n    );\n    memeCount++;\n  }\n\n  function setResponses(\n            bytes32 _memeId,\n            bytes32[] memory _responses)\n            public {\n    require(\n      msg.sender==factorySigner,\n      'Error: msg.sender must be factorySigner');\n    memes[_memeId].responses = _responses;\n  }\n\n  function setReposts(\n            bytes32 _memeId,\n            bytes32[] memory _reposts)\n            public {\n    require(\n      msg.sender==factorySigner,\n      'Error: msg.sender must be factorySigner');\n    memes[_memeId].reposts = _reposts;\n  }\n  function setQuotePosts(\n            bytes32 _memeId,\n            bytes32[] memory _quotePosts)\n            public {\n    require(\n      msg.sender==factorySigner,\n      'Error: msg.sender must be factorySigner');\n    memes[_memeId].quotePosts = _quotePosts;\n  }\n\n  function setLikers(\n            bytes32 _memeId,\n            address[] memory _likers)\n            public {\n    require(\n      msg.sender==likeSigner,\n      'Error: msg.sender must be likeSigner');\n    memes[_memeId].likers = _likers;\n  }\n  function setUnlikers(\n            bytes32 _memeId,\n            address[] memory _unlikers)\n            public {\n    require(\n      msg.sender==likeSigner,\n      'Error: msg.sender must be likeSigner');\n    memes[_memeId].unlikers = _unlikers;\n  }\n  function getHasLiked(\n            bytes32 _memeId,\n            address _account)\n            public view returns (bool){\n    return hasLiked[_memeId][_account];\n  }\n  function getHasUnliked(\n            bytes32 _memeId,\n            address _account)\n            public view returns (bool){\n    return hasUnliked[_memeId][_account];\n  }\n\n  function setHasLiked(\n            bytes32 _memeId,\n            address _account)\n            public {\n    require(\n      msg.sender==likeSigner,\n      'Error: msg.sender must be likeSigner');\n    hasLiked[_memeId][_account] = true;\n  }\n  function setHasUnliked(\n            bytes32 _memeId,\n            address _account)\n            public {\n    require(\n      msg.sender==likeSigner,\n      'Error: msg.sender must be likeSigner');\n    hasUnliked[_memeId][_account] = true;\n  }\n\n  function addBoost(\n            bytes32 _memeId,\n            uint _boosts)\n            public {\n    require(\n      msg.sender==boostSigner,\n      'Error: msg.sender must be boost signer');\n    memes[_memeId].boosts += _boosts;\n  }\n  function subtractBoost(\n            bytes32 _memeId,\n            uint _boosts)\n            public {\n    require(\n      msg.sender==boostSigner,\n      'Error: msg.sender must be like, post, or boost signer');\n    memes[_memeId].boosts -= _boosts;\n  }\n\n  // getter functions for Meme\n  function getMemeCount()\n            public view returns(uint) {\n    return memeCount;\n  }\n\n  function getText(bytes32 _memeId)\n            public view returns(string memory) {\n    return memes[_memeId].text;\n  }\n  function getLikeCount(bytes32 _memeId)\n            public view returns(uint) {\n    return memes[_memeId].likers.length;\n  }\n  function getBoost(bytes32 _memeId)\n            public view returns(uint) {\n    return memes[_memeId].boosts;\n  }\n  function getLikers(bytes32 _memeId)\n            public view returns(address[] memory) {\n    return memes[_memeId].likers;\n  }\n  function getUnlikers(bytes32 _memeId)\n            public view returns(address[] memory) {\n    return memes[_memeId].unlikers;\n  }\n  function getRepostCount(bytes32 _memeId)\n            public view returns(uint) {\n    return memes[_memeId].reposts.length;\n  }\n  function getReposts(bytes32 _memeId)\n            public view returns(bytes32[] memory) {\n    return memes[_memeId].reposts;\n  }\n  function getQuotePostCount(bytes32 _memeId)\n            public view returns(uint) {\n    return memes[_memeId].quotePosts.length;\n  }\n  function getQuotePosts(bytes32 _memeId)\n            public view returns(bytes32[] memory) {\n    return memes[_memeId].quotePosts;\n  }\n  function getTags(bytes32 _memeId)\n            public view returns(address[] memory) {\n    return memes[_memeId].tags;\n  }\n  function getResponseCount(bytes32 _memeId)\n            public view returns(uint) {\n    return memes[_memeId].responses.length;\n  }\n  function getResponses(bytes32 _memeId)\n            public view returns(bytes32[] memory) {\n    return memes[_memeId].responses;\n  }\n  function getParentId(bytes32 _memeId)\n            public view returns(bytes32) {\n    return memes[_memeId].parentId;\n  }\n  function getOriginId(bytes32 _memeId)\n            public view returns(bytes32) {\n    return memes[_memeId].originId;\n  }\n  function getRepostId(bytes32 _memeId)\n            public view returns(bytes32) {\n    return memes[_memeId].repostId;\n  }\n  function getAuthor(bytes32 _memeId)\n            public view returns(address) {\n    return memes[_memeId].author;\n  }\n  function getVisibility(bytes32 _memeId)\n            public view returns(bool) {\n    return memes[_memeId].isVisible;\n  }\n  function getEncodedIds()\n            public view returns(bytes32[] memory) {\n    return memeIds;\n  }\n\n// encode uint for testing\n  function getEncodeId(uint _memeId)\n            public view returns(bytes32) {\n    return memes[keccak256(abi.encodePacked(_memeId))].id;\n  }\n  function getEncodeLikeCount(uint _memeId)\n            public view returns(uint) {\n    return memes[keccak256(abi.encodePacked(_memeId))].likers.length;\n  }\n  function getEncodeLikers(uint _memeId)\n            public view returns(address[] memory) {\n    return memes[keccak256(abi.encodePacked(_memeId))].likers;\n  }\n  function getEncodeUnlikers(uint _memeId)\n            public view returns(address[] memory) {\n    return memes[keccak256(abi.encodePacked(_memeId))].unlikers;\n  }\n  function getEncodeRepostCount(uint _memeId)\n            public view returns(uint) {\n    return memes[keccak256(abi.encodePacked(_memeId))].reposts.length;\n  }\n  function getEncodeReposts(uint _memeId)\n            public view returns(bytes32[] memory) {\n    return memes[keccak256(abi.encodePacked(_memeId))].reposts;\n  }\n  function getEncodeQuotePostCount(uint _memeId)\n            public view returns(uint) {\n    return memes[keccak256(abi.encodePacked(_memeId))].quotePosts.length;\n  }\n  function getEncodeQuotePosts(uint _memeId)\n            public view returns(bytes32[] memory) {\n    return memes[keccak256(abi.encodePacked(_memeId))].quotePosts;\n  }\n  function getEncodeTags(uint _memeId)\n            public view returns(address[] memory) {\n    return memes[keccak256(abi.encodePacked(_memeId))].tags;\n  }\n  function getEncodeResponseCount(uint _memeId)\n            public view returns(uint) {\n    return memes[keccak256(abi.encodePacked(_memeId))].responses.length;\n  }\n  function getEncodeResponses(uint _memeId)\n            public view returns(bytes32[] memory) {\n    return memes[keccak256(abi.encodePacked(_memeId))].responses;\n  }\n  function getEncodeParentId(uint _memeId)\n            public view returns(bytes32) {\n    return memes[keccak256(abi.encodePacked(_memeId))].parentId;\n  }\n  function getEncodeOriginId(uint _memeId)\n            public view returns(bytes32) {\n    return memes[keccak256(abi.encodePacked(_memeId))].originId;\n  }\n  function getEncodeAuthor(uint _memeId)\n            public view returns(address) {\n    return memes[keccak256(abi.encodePacked(_memeId))].author;\n  }\n  function getEncodeVisibility(uint _memeId)\n            public view returns(bool) {\n    return memes[keccak256(abi.encodePacked(_memeId))].isVisible;\n  }\n\n  // set caller role to User upon deployment\n  function passFactorySigner(address _memeFactory)\n            public returns (bool) {\n    require(\n      msg.sender == factorySigner,\n      'Error: msg.sender must be factorySigner');\n\n    factorySigner = _memeFactory;\n    emit FactorySignerChanged(msg.sender, factorySigner);\n    return true;\n  }\n  function passInterfaceSigner(address _userInterface)\n            public returns (bool) {\n    require(\n      msg.sender == interfaceSigner,\n      'Error: msg.sender must be factorySigner');\n\n    interfaceSigner = _userInterface;\n    emit InterfaceSignerChanged(msg.sender, interfaceSigner);\n    return true;\n  }\n  function passPostSigner(address _post)\n            public returns (bool) {\n    require(\n      msg.sender == postSigner,\n      'Error: msg.sender must be postSigner');\n\n    postSigner = _post;\n    emit PostSignerChanged(msg.sender, postSigner);\n    return true;\n  }\n  function passLikeSigner(address _like)\n            public returns (bool) {\n    require(\n      msg.sender == likeSigner,\n      'Error: msg.sender must be likeSigner');\n\n    likeSigner = _like;\n    emit LikeSignerChanged(msg.sender, likeSigner);\n    return true;\n  }\n  function passBoostSigner(address _boost)\n            public returns (bool) {\n    require(\n      msg.sender == boostSigner,\n      'Error: msg.sender must be boostSigner');\n\n    boostSigner = _boost;\n    emit BoostSignerChanged(msg.sender, boostSigner);\n    return true;\n  }\n}\n",
  "sourcePath": "/Users/jaiq/Documents/000 BLOCKCHAIN/ETH/uMe/src/contracts/MemeStorage.sol",
  "compiler": {
    "name": "solc",
    "version": "0.8.9+commit.e5eed63a.Emscripten.clang"
  },
  "schemaVersion": "3.4.3",
  "updatedAt": "2021-11-03T08:44:39.343Z",
  "networkType": "ethereum",
  "devdoc": {
    "kind": "dev",
    "methods": {},
    "version": 1
  },
  "userdoc": {
    "kind": "user",
    "methods": {},
    "version": 1
  }
}