{
  "contractName": "MemeFactory",
  "abi": [
    {
      "inputs": [
        {
          "internalType": "contract UME",
          "name": "_umeToken",
          "type": "address"
        },
        {
          "internalType": "contract MemeStorage",
          "name": "_memeStorage",
          "type": "address"
        },
        {
          "internalType": "contract UserStorage",
          "name": "_userStorage",
          "type": "address"
        },
        {
          "internalType": "contract Boost",
          "name": "_boost",
          "type": "address"
        }
      ],
      "stateMutability": "nonpayable",
      "type": "constructor"
    },
    {
      "anonymous": false,
      "inputs": [
        {
          "indexed": true,
          "internalType": "bytes32",
          "name": "memeId",
          "type": "bytes32"
        },
        {
          "indexed": false,
          "internalType": "uint256",
          "name": "time",
          "type": "uint256"
        },
        {
          "indexed": true,
          "internalType": "address",
          "name": "account",
          "type": "address"
        }
      ],
      "name": "MemeCreated",
      "type": "event"
    },
    {
      "anonymous": false,
      "inputs": [
        {
          "indexed": true,
          "internalType": "bytes32",
          "name": "memeId",
          "type": "bytes32"
        },
        {
          "indexed": false,
          "internalType": "uint256",
          "name": "time",
          "type": "uint256"
        },
        {
          "indexed": true,
          "internalType": "address",
          "name": "account",
          "type": "address"
        }
      ],
      "name": "MemeDeleted",
      "type": "event"
    },
    {
      "anonymous": false,
      "inputs": [
        {
          "indexed": true,
          "internalType": "address",
          "name": "from",
          "type": "address"
        },
        {
          "indexed": true,
          "internalType": "address",
          "name": "to",
          "type": "address"
        }
      ],
      "name": "PostSignerChanged",
      "type": "event"
    },
    {
      "anonymous": false,
      "inputs": [
        {
          "indexed": true,
          "internalType": "address",
          "name": "from",
          "type": "address"
        },
        {
          "indexed": true,
          "internalType": "address",
          "name": "to",
          "type": "address"
        }
      ],
      "name": "Tagged",
      "type": "event"
    },
    {
      "inputs": [],
      "name": "postSigner",
      "outputs": [
        {
          "internalType": "address",
          "name": "",
          "type": "address"
        }
      ],
      "stateMutability": "view",
      "type": "function",
      "constant": true
    },
    {
      "inputs": [
        {
          "internalType": "address",
          "name": "_account",
          "type": "address"
        },
        {
          "internalType": "string",
          "name": "_memeText",
          "type": "string"
        },
        {
          "internalType": "address[]",
          "name": "_tags",
          "type": "address[]"
        },
        {
          "internalType": "bytes32",
          "name": "_parentId",
          "type": "bytes32"
        },
        {
          "internalType": "bytes32",
          "name": "_originId",
          "type": "bytes32"
        },
        {
          "internalType": "bytes32",
          "name": "_repostId",
          "type": "bytes32"
        }
      ],
      "name": "newMeme",
      "outputs": [],
      "stateMutability": "nonpayable",
      "type": "function"
    },
    {
      "inputs": [
        {
          "internalType": "address",
          "name": "_author",
          "type": "address"
        },
        {
          "internalType": "bytes32",
          "name": "_memeId",
          "type": "bytes32"
        }
      ],
      "name": "deleteMeme",
      "outputs": [],
      "stateMutability": "nonpayable",
      "type": "function"
    },
    {
      "inputs": [
        {
          "internalType": "bytes",
          "name": "source",
          "type": "bytes"
        }
      ],
      "name": "_bytesToBytes32",
      "outputs": [
        {
          "internalType": "bytes32",
          "name": "result",
          "type": "bytes32"
        }
      ],
      "stateMutability": "pure",
      "type": "function",
      "constant": true
    },
    {
      "inputs": [
        {
          "internalType": "address",
          "name": "_post",
          "type": "address"
        }
      ],
      "name": "passPostSigner",
      "outputs": [
        {
          "internalType": "bool",
          "name": "",
          "type": "bool"
        }
      ],
      "stateMutability": "nonpayable",
      "type": "function"
    }
  ],
  "bytecode": "0x60806040523480156200001157600080fd5b5060405162003775380380620037758339818101604052810190620000379190620002d2565b836000806101000a81548173ffffffffffffffffffffffffffffffffffffffff021916908373ffffffffffffffffffffffffffffffffffffffff16021790555082600160006101000a81548173ffffffffffffffffffffffffffffffffffffffff021916908373ffffffffffffffffffffffffffffffffffffffff16021790555081600260006101000a81548173ffffffffffffffffffffffffffffffffffffffff021916908373ffffffffffffffffffffffffffffffffffffffff16021790555080600360006101000a81548173ffffffffffffffffffffffffffffffffffffffff021916908373ffffffffffffffffffffffffffffffffffffffff16021790555033600560006101000a81548173ffffffffffffffffffffffffffffffffffffffff021916908373ffffffffffffffffffffffffffffffffffffffff1602179055505050505062000344565b600080fd5b600073ffffffffffffffffffffffffffffffffffffffff82169050919050565b6000620001b7826200018a565b9050919050565b6000620001cb82620001aa565b9050919050565b620001dd81620001be565b8114620001e957600080fd5b50565b600081519050620001fd81620001d2565b92915050565b60006200021082620001aa565b9050919050565b620002228162000203565b81146200022e57600080fd5b50565b600081519050620002428162000217565b92915050565b60006200025582620001aa565b9050919050565b620002678162000248565b81146200027357600080fd5b50565b60008151905062000287816200025c565b92915050565b60006200029a82620001aa565b9050919050565b620002ac816200028d565b8114620002b857600080fd5b50565b600081519050620002cc81620002a1565b92915050565b60008060008060808587031215620002ef57620002ee62000185565b5b6000620002ff87828801620001ec565b9450506020620003128782880162000231565b9350506040620003258782880162000276565b92505060606200033887828801620002bb565b91505092959194509250565b61342180620003546000396000f3fe608060405234801561001057600080fd5b50600436106100575760003560e01c80631867b9371461005c578063648c59eb1461008c5780637527e624146100a85780638c98876f146100c4578063a6838c7b146100e2575b600080fd5b610076600480360381019061007191906124ff565b610112565b6040516100839190612561565b60405180910390f35b6100a660048036038101906100a19190612606565b610135565b005b6100c260048036038101906100bd91906127af565b6104c4565b005b6100cc6117fe565b6040516100d99190612883565b60405180910390f35b6100fc60048036038101906100f7919061289e565b611824565b60405161010991906128e6565b60405180910390f35b60008082511415610128576000801b9050610130565b602082015190505b919050565b3373ffffffffffffffffffffffffffffffffffffffff16600560009054906101000a900473ffffffffffffffffffffffffffffffffffffffff1673ffffffffffffffffffffffffffffffffffffffff16146101c5576040517f08c379a00000000000000000000000000000000000000000000000000000000081526004016101bc90612984565b60405180910390fd5b6000600160009054906101000a900473ffffffffffffffffffffffffffffffffffffffff1673ffffffffffffffffffffffffffffffffffffffff16637071af84836040518263ffffffff1660e01b81526004016102229190612561565b60206040518083038186803b15801561023a57600080fd5b505afa15801561024e573d6000803e3d6000fd5b505050506040513d601f19601f8201168201806040525081019061027291906129b9565b90506000600160009054906101000a900473ffffffffffffffffffffffffffffffffffffffff1673ffffffffffffffffffffffffffffffffffffffff1663e2975f09846040518263ffffffff1660e01b81526004016102d19190612561565b60206040518083038186803b1580156102e957600080fd5b505afa1580156102fd573d6000803e3d6000fd5b505050506040513d601f19601f8201168201806040525081019061032191906129b9565b90506000600160009054906101000a900473ffffffffffffffffffffffffffffffffffffffff1673ffffffffffffffffffffffffffffffffffffffff1663f64458bd836040518263ffffffff1660e01b81526004016103809190612561565b60006040518083038186803b15801561039857600080fd5b505afa1580156103ac573d6000803e3d6000fd5b505050506040513d6000823e3d601f19601f820116820180604052508101906103d59190612a89565b90506103e1858561197c565b600160009054906101000a900473ffffffffffffffffffffffffffffffffffffffff1673ffffffffffffffffffffffffffffffffffffffff1663aaf837c5856040518263ffffffff1660e01b815260040161043c9190612561565b600060405180830381600087803b15801561045657600080fd5b505af115801561046a573d6000803e3d6000fd5b505050508473ffffffffffffffffffffffffffffffffffffffff16847f31a29f3d549b51b33c10acca465864df60975bf964406b8289c210ecea130faa426040516104b59190612aeb565b60405180910390a35050505050565b600560009054906101000a900473ffffffffffffffffffffffffffffffffffffffff1673ffffffffffffffffffffffffffffffffffffffff163373ffffffffffffffffffffffffffffffffffffffff1614610554576040517f08c379a000000000000000000000000000000000000000000000000000000000815260040161054b90612b78565b60405180910390fd5b600160009054906101000a900473ffffffffffffffffffffffffffffffffffffffff1673ffffffffffffffffffffffffffffffffffffffff1663f8f3d0376040518163ffffffff1660e01b8152600401600060405180830381600087803b1580156105be57600080fd5b505af11580156105d2573d6000803e3d6000fd5b505050506000600160009054906101000a900473ffffffffffffffffffffffffffffffffffffffff1673ffffffffffffffffffffffffffffffffffffffff16637b2124d26040518163ffffffff1660e01b815260040160206040518083038186803b15801561064057600080fd5b505afa158015610654573d6000803e3d6000fd5b505050506040513d601f19601f820116820180604052508101906106789190612bc4565b6040516020016106889190612c12565b6040516020818303038152906040528051906020012090506004548414156106ae578093505b6004548314156106bc578092505b600160009054906101000a900473ffffffffffffffffffffffffffffffffffffffff1673ffffffffffffffffffffffffffffffffffffffff1663ddf60c9382604051806101e001604052808581526020014281526020018a815260200160008152602001600067ffffffffffffffff81111561073b5761073a6123d4565b5b6040519080825280602002602001820160405280156107695781602001602082028036833780820191505090505b508152602001600067ffffffffffffffff81111561078a576107896123d4565b5b6040519080825280602002602001820160405280156107b85781602001602082028036833780820191505090505b508152602001600067ffffffffffffffff8111156107d9576107d86123d4565b5b6040519080825280602002602001820160405280156108075781602001602082028036833780820191505090505b508152602001600067ffffffffffffffff811115610828576108276123d4565b5b6040519080825280602002602001820160405280156108565781602001602082028036833780820191505090505b508152602001868152602001898152602001600067ffffffffffffffff811115610883576108826123d4565b5b6040519080825280602002602001820160405280156108b15781602001602082028036833780820191505090505b5081526020018881526020018781526020018b73ffffffffffffffffffffffffffffffffffffffff168152602001600115158152506040518363ffffffff1660e01b8152600401610903929190612f89565b600060405180830381600087803b15801561091d57600080fd5b505af1158015610931573d6000803e3d6000fd5b5050505083811415801561094457508284145b15610bfa578673ffffffffffffffffffffffffffffffffffffffff16600160009054906101000a900473ffffffffffffffffffffffffffffffffffffffff1673ffffffffffffffffffffffffffffffffffffffff1663691d1c28866040518263ffffffff1660e01b81526004016109bb9190612561565b60206040518083038186803b1580156109d357600080fd5b505afa1580156109e7573d6000803e3d6000fd5b505050506040513d601f19601f82011682018060405250810190610a0b9190612fce565b73ffffffffffffffffffffffffffffffffffffffff1614610b5e5760008054906101000a900473ffffffffffffffffffffffffffffffffffffffff1673ffffffffffffffffffffffffffffffffffffffff1663bc83419588600160009054906101000a900473ffffffffffffffffffffffffffffffffffffffff1673ffffffffffffffffffffffffffffffffffffffff1663691d1c28886040518263ffffffff1660e01b8152600401610abe9190612561565b60206040518083038186803b158015610ad657600080fd5b505afa158015610aea573d6000803e3d6000fd5b505050506040513d601f19601f82011682018060405250810190610b0e9190612fce565b6040518363ffffffff1660e01b8152600401610b2b929190612ffb565b600060405180830381600087803b158015610b4557600080fd5b505af1158015610b59573d6000803e3d6000fd5b505050505b610b688185611c11565b600360009054906101000a900473ffffffffffffffffffffffffffffffffffffffff1673ffffffffffffffffffffffffffffffffffffffff16634920baff856040518263ffffffff1660e01b8152600401610bc39190612561565b600060405180830381600087803b158015610bdd57600080fd5b505af1158015610bf1573d6000803e3d6000fd5b5050505061115f565b838114158015610c0a5750828414155b1561115e578673ffffffffffffffffffffffffffffffffffffffff16600160009054906101000a900473ffffffffffffffffffffffffffffffffffffffff1673ffffffffffffffffffffffffffffffffffffffff1663691d1c28866040518263ffffffff1660e01b8152600401610c819190612561565b60206040518083038186803b158015610c9957600080fd5b505afa158015610cad573d6000803e3d6000fd5b505050506040513d601f19601f82011682018060405250810190610cd19190612fce565b73ffffffffffffffffffffffffffffffffffffffff1614610e245760008054906101000a900473ffffffffffffffffffffffffffffffffffffffff1673ffffffffffffffffffffffffffffffffffffffff1663bc83419588600160009054906101000a900473ffffffffffffffffffffffffffffffffffffffff1673ffffffffffffffffffffffffffffffffffffffff1663691d1c28886040518263ffffffff1660e01b8152600401610d849190612561565b60206040518083038186803b158015610d9c57600080fd5b505afa158015610db0573d6000803e3d6000fd5b505050506040513d601f19601f82011682018060405250810190610dd49190612fce565b6040518363ffffffff1660e01b8152600401610df1929190612ffb565b600060405180830381600087803b158015610e0b57600080fd5b505af1158015610e1f573d6000803e3d6000fd5b505050505b600360009054906101000a900473ffffffffffffffffffffffffffffffffffffffff1673ffffffffffffffffffffffffffffffffffffffff16634920baff856040518263ffffffff1660e01b8152600401610e7f9190612561565b600060405180830381600087803b158015610e9957600080fd5b505af1158015610ead573d6000803e3d6000fd5b505050508673ffffffffffffffffffffffffffffffffffffffff16600160009054906101000a900473ffffffffffffffffffffffffffffffffffffffff1673ffffffffffffffffffffffffffffffffffffffff1663691d1c28856040518263ffffffff1660e01b8152600401610f239190612561565b60206040518083038186803b158015610f3b57600080fd5b505afa158015610f4f573d6000803e3d6000fd5b505050506040513d601f19601f82011682018060405250810190610f739190612fce565b73ffffffffffffffffffffffffffffffffffffffff16146110c65760008054906101000a900473ffffffffffffffffffffffffffffffffffffffff1673ffffffffffffffffffffffffffffffffffffffff1663e981dc8f88600160009054906101000a900473ffffffffffffffffffffffffffffffffffffffff1673ffffffffffffffffffffffffffffffffffffffff1663691d1c28876040518263ffffffff1660e01b81526004016110269190612561565b60206040518083038186803b15801561103e57600080fd5b505afa158015611052573d6000803e3d6000fd5b505050506040513d601f19601f820116820180604052508101906110769190612fce565b6040518363ffffffff1660e01b8152600401611093929190612ffb565b600060405180830381600087803b1580156110ad57600080fd5b505af11580156110c1573d6000803e3d6000fd5b505050505b6110d08185611c11565b600360009054906101000a900473ffffffffffffffffffffffffffffffffffffffff1673ffffffffffffffffffffffffffffffffffffffff1663b13126e2846040518263ffffffff1660e01b815260040161112b9190612561565b600060405180830381600087803b15801561114557600080fd5b505af1158015611159573d6000803e3d6000fd5b505050505b5b60005b85518110156113c95785818151811061117e5761117d613024565b5b602002602001015173ffffffffffffffffffffffffffffffffffffffff168873ffffffffffffffffffffffffffffffffffffffff16141580156112085750600073ffffffffffffffffffffffffffffffffffffffff168682815181106111e7576111e6613024565b5b602002602001015173ffffffffffffffffffffffffffffffffffffffff1614155b156113b657600360009054906101000a900473ffffffffffffffffffffffffffffffffffffffff1673ffffffffffffffffffffffffffffffffffffffff1663e6d7b017836040518263ffffffff1660e01b81526004016112689190612561565b600060405180830381600087803b15801561128257600080fd5b505af1158015611296573d6000803e3d6000fd5b5050505060008054906101000a900473ffffffffffffffffffffffffffffffffffffffff1673ffffffffffffffffffffffffffffffffffffffff16632cc67a7c898884815181106112ea576112e9613024565b5b60200260200101516040518363ffffffff1660e01b815260040161130f929190612ffb565b600060405180830381600087803b15801561132957600080fd5b505af115801561133d573d6000803e3d6000fd5b5050505085818151811061135457611353613024565b5b602002602001015173ffffffffffffffffffffffffffffffffffffffff168873ffffffffffffffffffffffffffffffffffffffff167f069de1c7afdaba4b7727994f755c1584584ca12fdedef1eded797865d094c0e260405160405180910390a35b80806113c190613082565b915050611162565b50600454821461168057600086511415611530576000600160009054906101000a900473ffffffffffffffffffffffffffffffffffffffff1673ffffffffffffffffffffffffffffffffffffffff166372d9fe5d846040518263ffffffff1660e01b815260040161143a9190612561565b60006040518083038186803b15801561145257600080fd5b505afa158015611466573d6000803e3d6000fd5b505050506040513d6000823e3d601f19601f8201168201806040525081019061148f919061318e565b9050600360009054906101000a900473ffffffffffffffffffffffffffffffffffffffff1673ffffffffffffffffffffffffffffffffffffffff16638fb25321846040518263ffffffff1660e01b81526004016114ec9190612561565b600060405180830381600087803b15801561150657600080fd5b505af115801561151a573d6000803e3d6000fd5b5050505061152a82888584611e40565b5061167f565b6000600160009054906101000a900473ffffffffffffffffffffffffffffffffffffffff1673ffffffffffffffffffffffffffffffffffffffff166369171f5c846040518263ffffffff1660e01b815260040161158d9190612561565b60006040518083038186803b1580156115a557600080fd5b505afa1580156115b9573d6000803e3d6000fd5b505050506040513d6000823e3d601f19601f820116820180604052508101906115e2919061318e565b90506115f082888584611e40565b600360009054906101000a900473ffffffffffffffffffffffffffffffffffffffff1673ffffffffffffffffffffffffffffffffffffffff16638fb25321846040518263ffffffff1660e01b815260040161164b9190612561565b600060405180830381600087803b15801561166557600080fd5b505af1158015611679573d6000803e3d6000fd5b50505050505b5b61168a878261205b565b600260009054906101000a900473ffffffffffffffffffffffffffffffffffffffff1673ffffffffffffffffffffffffffffffffffffffff1663e07dbb1082896040518363ffffffff1660e01b81526004016116e79291906131d7565b600060405180830381600087803b15801561170157600080fd5b505af1158015611715573d6000803e3d6000fd5b50505050600360009054906101000a900473ffffffffffffffffffffffffffffffffffffffff1673ffffffffffffffffffffffffffffffffffffffff16635d875b68826040518263ffffffff1660e01b81526004016117749190612561565b600060405180830381600087803b15801561178e57600080fd5b505af11580156117a2573d6000803e3d6000fd5b505050508673ffffffffffffffffffffffffffffffffffffffff16817f1838922b4eb20492c478bbdc44a1f4e1cb49bc4702a0af8f4448a412bb5769e4426040516117ed9190612aeb565b60405180910390a350505050505050565b600560009054906101000a900473ffffffffffffffffffffffffffffffffffffffff1681565b6000600560009054906101000a900473ffffffffffffffffffffffffffffffffffffffff1673ffffffffffffffffffffffffffffffffffffffff163373ffffffffffffffffffffffffffffffffffffffff16146118b6576040517f08c379a00000000000000000000000000000000000000000000000000000000081526004016118ad90613272565b60405180910390fd5b81600560006101000a81548173ffffffffffffffffffffffffffffffffffffffff021916908373ffffffffffffffffffffffffffffffffffffffff160217905550600560009054906101000a900473ffffffffffffffffffffffffffffffffffffffff1673ffffffffffffffffffffffffffffffffffffffff163373ffffffffffffffffffffffffffffffffffffffff167f76ce921e20c471c95deae34d20d53706ec4378ecab394e517f73aef912ae6cdd60405160405180910390a360019050919050565b6000600260009054906101000a900473ffffffffffffffffffffffffffffffffffffffff1673ffffffffffffffffffffffffffffffffffffffff16634caf9d0b846040518263ffffffff1660e01b81526004016119d99190612883565b60006040518083038186803b1580156119f157600080fd5b505afa158015611a05573d6000803e3d6000fd5b505050506040513d6000823e3d601f19601f82011682018060405250810190611a2e919061318e565b90506000815190506000600182611a459190613292565b67ffffffffffffffff811115611a5e57611a5d6123d4565b5b604051908082528060200260200182016040528015611a8c5781602001602082028036833780820191505090505b509050600080600090505b8451811015611add5785858281518110611ab457611ab3613024565b5b60200260200101511415611aca57809150611add565b8080611ad590613082565b915050611a97565b50611ae8848261227d565b9150600260009054906101000a900473ffffffffffffffffffffffffffffffffffffffff1673ffffffffffffffffffffffffffffffffffffffff1663bb58f85d87846040518363ffffffff1660e01b8152600401611b47929190613335565b600060405180830381600087803b158015611b6157600080fd5b505af1158015611b75573d6000803e3d6000fd5b50505050600260009054906101000a900473ffffffffffffffffffffffffffffffffffffffff1673ffffffffffffffffffffffffffffffffffffffff1663e07dbb108660006040518363ffffffff1660e01b8152600401611bd79291906131d7565b600060405180830381600087803b158015611bf157600080fd5b505af1158015611c05573d6000803e3d6000fd5b50505050505050505050565b6000600160009054906101000a900473ffffffffffffffffffffffffffffffffffffffff1673ffffffffffffffffffffffffffffffffffffffff1663d4b8df22836040518263ffffffff1660e01b8152600401611c6e9190612561565b60006040518083038186803b158015611c8657600080fd5b505afa158015611c9a573d6000803e3d6000fd5b505050506040513d6000823e3d601f19601f82011682018060405250810190611cc3919061318e565b90506000815190506000600182611cda9190613365565b67ffffffffffffffff811115611cf357611cf26123d4565b5b604051908082528060200260200182016040528015611d215781602001602082028036833780820191505090505b50905060005b82811015611d7c57838181518110611d4257611d41613024565b5b6020026020010151828281518110611d5d57611d5c613024565b5b6020026020010181815250508080611d7490613082565b915050611d27565b50848160018351611d8d9190613292565b81518110611d9e57611d9d613024565b5b602002602001018181525050600160009054906101000a900473ffffffffffffffffffffffffffffffffffffffff1673ffffffffffffffffffffffffffffffffffffffff1663bacd910c85836040518363ffffffff1660e01b8152600401611e079291906133bb565b600060405180830381600087803b158015611e2157600080fd5b505af1158015611e35573d6000803e3d6000fd5b505050505050505050565b6000815190506000600182611e559190613365565b67ffffffffffffffff811115611e6e57611e6d6123d4565b5b604051908082528060200260200182016040528015611e9c5781602001602082028036833780820191505090505b50905060005b82811015611ef757838181518110611ebd57611ebc613024565b5b6020026020010151828281518110611ed857611ed7613024565b5b6020026020010181815250508080611eef90613082565b915050611ea2565b50858160018351611f089190613292565b81518110611f1957611f18613024565b5b602002602001018181525050600085511415611fc357600160009054906101000a900473ffffffffffffffffffffffffffffffffffffffff1673ffffffffffffffffffffffffffffffffffffffff166350de13f985836040518363ffffffff1660e01b8152600401611f8c9291906133bb565b600060405180830381600087803b158015611fa657600080fd5b505af1158015611fba573d6000803e3d6000fd5b50505050612053565b600160009054906101000a900473ffffffffffffffffffffffffffffffffffffffff1673ffffffffffffffffffffffffffffffffffffffff1663bd0a4e9e85836040518363ffffffff1660e01b81526004016120209291906133bb565b600060405180830381600087803b15801561203a57600080fd5b505af115801561204e573d6000803e3d6000fd5b505050505b505050505050565b6000600260009054906101000a900473ffffffffffffffffffffffffffffffffffffffff1673ffffffffffffffffffffffffffffffffffffffff16634caf9d0b846040518263ffffffff1660e01b81526004016120b89190612883565b60006040518083038186803b1580156120d057600080fd5b505afa1580156120e4573d6000803e3d6000fd5b505050506040513d6000823e3d601f19601f8201168201806040525081019061210d919061318e565b905060008151905060006001826121249190613365565b67ffffffffffffffff81111561213d5761213c6123d4565b5b60405190808252806020026020018201604052801561216b5781602001602082028036833780820191505090505b50905060005b828110156121c65783818151811061218c5761218b613024565b5b60200260200101518282815181106121a7576121a6613024565b5b60200260200101818152505080806121be90613082565b915050612171565b50838183815181106121db576121da613024565b5b602002602001018181525050600260009054906101000a900473ffffffffffffffffffffffffffffffffffffffff1673ffffffffffffffffffffffffffffffffffffffff1663bb58f85d86836040518363ffffffff1660e01b8152600401612244929190613335565b600060405180830381600087803b15801561225e57600080fd5b505af1158015612272573d6000803e3d6000fd5b505050505050505050565b606060006001845161228f9190613292565b67ffffffffffffffff8111156122a8576122a76123d4565b5b6040519080825280602002602001820160405280156122d65781602001602082028036833780820191505090505b50905060005b83811015612331578481815181106122f7576122f6613024565b5b602002602001015182828151811061231257612311613024565b5b602002602001018181525050808061232990613082565b9150506122dc565b5060008390505b815181101561239a578460018261234f9190613365565b815181106123605761235f613024565b5b602002602001015182828151811061237b5761237a613024565b5b602002602001018181525050808061239290613082565b915050612338565b508091505092915050565b6000604051905090565b600080fd5b600080fd5b600080fd5b600080fd5b6000601f19601f8301169050919050565b7f4e487b7100000000000000000000000000000000000000000000000000000000600052604160045260246000fd5b61240c826123c3565b810181811067ffffffffffffffff8211171561242b5761242a6123d4565b5b80604052505050565b600061243e6123a5565b905061244a8282612403565b919050565b600067ffffffffffffffff82111561246a576124696123d4565b5b612473826123c3565b9050602081019050919050565b82818337600083830152505050565b60006124a261249d8461244f565b612434565b9050828152602081018484840111156124be576124bd6123be565b5b6124c9848285612480565b509392505050565b600082601f8301126124e6576124e56123b9565b5b81356124f684826020860161248f565b91505092915050565b600060208284031215612515576125146123af565b5b600082013567ffffffffffffffff811115612533576125326123b4565b5b61253f848285016124d1565b91505092915050565b6000819050919050565b61255b81612548565b82525050565b60006020820190506125766000830184612552565b92915050565b600073ffffffffffffffffffffffffffffffffffffffff82169050919050565b60006125a78261257c565b9050919050565b6125b78161259c565b81146125c257600080fd5b50565b6000813590506125d4816125ae565b92915050565b6125e381612548565b81146125ee57600080fd5b50565b600081359050612600816125da565b92915050565b6000806040838503121561261d5761261c6123af565b5b600061262b858286016125c5565b925050602061263c858286016125f1565b9150509250929050565b600067ffffffffffffffff821115612661576126606123d4565b5b61266a826123c3565b9050602081019050919050565b600061268a61268584612646565b612434565b9050828152602081018484840111156126a6576126a56123be565b5b6126b1848285612480565b509392505050565b600082601f8301126126ce576126cd6123b9565b5b81356126de848260208601612677565b91505092915050565b600067ffffffffffffffff821115612702576127016123d4565b5b602082029050602081019050919050565b600080fd5b600061272b612726846126e7565b612434565b9050808382526020820190506020840283018581111561274e5761274d612713565b5b835b81811015612777578061276388826125c5565b845260208401935050602081019050612750565b5050509392505050565b600082601f830112612796576127956123b9565b5b81356127a6848260208601612718565b91505092915050565b60008060008060008060c087890312156127cc576127cb6123af565b5b60006127da89828a016125c5565b965050602087013567ffffffffffffffff8111156127fb576127fa6123b4565b5b61280789828a016126b9565b955050604087013567ffffffffffffffff811115612828576128276123b4565b5b61283489828a01612781565b945050606061284589828a016125f1565b935050608061285689828a016125f1565b92505060a061286789828a016125f1565b9150509295509295509295565b61287d8161259c565b82525050565b60006020820190506128986000830184612874565b92915050565b6000602082840312156128b4576128b36123af565b5b60006128c2848285016125c5565b91505092915050565b60008115159050919050565b6128e0816128cb565b82525050565b60006020820190506128fb60008301846128d7565b92915050565b600082825260208201905092915050565b7f4572726f723a206f6e6c79207369676e65722063616e2064656c657465206d6560008201527f6d65000000000000000000000000000000000000000000000000000000000000602082015250565b600061296e602283612901565b915061297982612912565b604082019050919050565b6000602082019050818103600083015261299d81612961565b9050919050565b6000815190506129b3816125da565b92915050565b6000602082840312156129cf576129ce6123af565b5b60006129dd848285016129a4565b91505092915050565b60005b83811015612a045780820151818401526020810190506129e9565b83811115612a13576000848401525b50505050565b6000612a2c612a2784612646565b612434565b905082815260208101848484011115612a4857612a476123be565b5b612a538482856129e6565b509392505050565b600082601f830112612a7057612a6f6123b9565b5b8151612a80848260208601612a19565b91505092915050565b600060208284031215612a9f57612a9e6123af565b5b600082015167ffffffffffffffff811115612abd57612abc6123b4565b5b612ac984828501612a5b565b91505092915050565b6000819050919050565b612ae581612ad2565b82525050565b6000602082019050612b006000830184612adc565b92915050565b7f4572726f723a206d73672e73656e646572206d75737420626520696e7465726660008201527f616365287369676e657229000000000000000000000000000000000000000000602082015250565b6000612b62602b83612901565b9150612b6d82612b06565b604082019050919050565b60006020820190508181036000830152612b9181612b55565b9050919050565b612ba181612ad2565b8114612bac57600080fd5b50565b600081519050612bbe81612b98565b92915050565b600060208284031215612bda57612bd96123af565b5b6000612be884828501612baf565b91505092915050565b6000819050919050565b612c0c612c0782612ad2565b612bf1565b82525050565b6000612c1e8284612bfb565b60208201915081905092915050565b612c3681612548565b82525050565b612c4581612ad2565b82525050565b600081519050919050565b600082825260208201905092915050565b6000612c7282612c4b565b612c7c8185612c56565b9350612c8c8185602086016129e6565b612c95816123c3565b840191505092915050565b600081519050919050565b600082825260208201905092915050565b6000819050602082019050919050565b612cd58161259c565b82525050565b6000612ce78383612ccc565b60208301905092915050565b6000602082019050919050565b6000612d0b82612ca0565b612d158185612cab565b9350612d2083612cbc565b8060005b83811015612d51578151612d388882612cdb565b9750612d4383612cf3565b925050600181019050612d24565b5085935050505092915050565b600081519050919050565b600082825260208201905092915050565b6000819050602082019050919050565b6000612d968383612c2d565b60208301905092915050565b6000602082019050919050565b6000612dba82612d5e565b612dc48185612d69565b9350612dcf83612d7a565b8060005b83811015612e00578151612de78882612d8a565b9750612df283612da2565b925050600181019050612dd3565b5085935050505092915050565b612e16816128cb565b82525050565b60006101e083016000830151612e356000860182612c2d565b506020830151612e486020860182612c3c565b5060408301518482036040860152612e608282612c67565b9150506060830151612e756060860182612c3c565b5060808301518482036080860152612e8d8282612d00565b91505060a083015184820360a0860152612ea78282612d00565b91505060c083015184820360c0860152612ec18282612daf565b91505060e083015184820360e0860152612edb8282612daf565b915050610100830151612ef2610100860182612c2d565b50610120830151848203610120860152612f0c8282612d00565b915050610140830151848203610140860152612f288282612daf565b915050610160830151612f3f610160860182612c2d565b50610180830151612f54610180860182612c2d565b506101a0830151612f696101a0860182612ccc565b506101c0830151612f7e6101c0860182612e0d565b508091505092915050565b6000604082019050612f9e6000830185612552565b8181036020830152612fb08184612e1c565b90509392505050565b600081519050612fc8816125ae565b92915050565b600060208284031215612fe457612fe36123af565b5b6000612ff284828501612fb9565b91505092915050565b60006040820190506130106000830185612874565b61301d6020830184612874565b9392505050565b7f4e487b7100000000000000000000000000000000000000000000000000000000600052603260045260246000fd5b7f4e487b7100000000000000000000000000000000000000000000000000000000600052601160045260246000fd5b600061308d82612ad2565b91507fffffffffffffffffffffffffffffffffffffffffffffffffffffffffffffffff8214156130c0576130bf613053565b5b600182019050919050565b600067ffffffffffffffff8211156130e6576130e56123d4565b5b602082029050602081019050919050565b600061310a613105846130cb565b612434565b9050808382526020820190506020840283018581111561312d5761312c612713565b5b835b81811015613156578061314288826129a4565b84526020840193505060208101905061312f565b5050509392505050565b600082601f830112613175576131746123b9565b5b81516131858482602086016130f7565b91505092915050565b6000602082840312156131a4576131a36123af565b5b600082015167ffffffffffffffff8111156131c2576131c16123b4565b5b6131ce84828501613160565b91505092915050565b60006040820190506131ec6000830185612552565b6131f96020830184612874565b9392505050565b7f4572726f723a206f6e6c79206465706c6f7965722063616e207061737320706f60008201527f7374207369676e657220726f6c65000000000000000000000000000000000000602082015250565b600061325c602e83612901565b915061326782613200565b604082019050919050565b6000602082019050818103600083015261328b8161324f565b9050919050565b600061329d82612ad2565b91506132a883612ad2565b9250828210156132bb576132ba613053565b5b828203905092915050565b600082825260208201905092915050565b60006132e282612d5e565b6132ec81856132c6565b93506132f783612d7a565b8060005b8381101561332857815161330f8882612d8a565b975061331a83612da2565b9250506001810190506132fb565b5085935050505092915050565b600060408201905061334a6000830185612874565b818103602083015261335c81846132d7565b90509392505050565b600061337082612ad2565b915061337b83612ad2565b9250827fffffffffffffffffffffffffffffffffffffffffffffffffffffffffffffffff038211156133b0576133af613053565b5b828201905092915050565b60006040820190506133d06000830185612552565b81810360208301526133e281846132d7565b9050939250505056fea26469706673582212208dc55aeb38c7ee3107be649e49a0303e9409ffd9e3b9c295e27efb032aa4705364736f6c63430008090033",
  "immutableReferences": {},
  "source": "// SPDX-License-Identifier: MIT\n\npragma solidity >=0.8.0 <0.9.0;\n\nimport \"./UME.sol\";\nimport \"./Boost.sol\";\nimport \"./MemeStorage.sol\";\nimport \"./UserStorage.sol\";\n\ncontract MemeFactory {\n  // public variables\n  UME private umeToken;\n  MemeStorage private memeStorage;\n  UserStorage private userStorage;\n  Boost private boost;\n\n  bytes32 zeroBytes;\n\n  address public postSigner;\n\n  event PostSignerChanged(\n        address indexed from,\n        address indexed to);\n  event MemeCreated(\n        bytes32 indexed memeId,\n        uint time,\n        address indexed account);\n  event MemeDeleted(\n        bytes32 indexed memeId,\n        uint time,\n        address indexed account);\n  event Tagged(\n        address indexed from,\n        address indexed to);\n\n  constructor(UME _umeToken,\n              MemeStorage _memeStorage,\n              UserStorage _userStorage,\n              Boost _boost)\n              public {\n    umeToken = _umeToken;\n    memeStorage = _memeStorage;\n    userStorage = _userStorage;\n    boost = _boost;\n\n    postSigner = msg.sender;\n  }\n\n  // posting meme functions\n  function newMeme(\n            address _account,\n            string memory _memeText,\n            address[] memory _tags,\n            bytes32 _parentId,\n            bytes32 _originId,\n            bytes32 _repostId)\n            public {\n    require(\n      msg.sender==postSigner,\n      'Error: msg.sender must be interface(signer)');\n    // increment meme id\n    memeStorage.increaseMemeCount();\n    bytes32 _memeId = keccak256(abi.encodePacked(memeStorage.memeCount()));\n    // set parent & origin id's to memeId if\n    if (_parentId == zeroBytes) {\n      _parentId = _memeId;\n    }\n    if (_originId == zeroBytes) {\n      _originId = _memeId;\n    }\n    // map memeId to new meme\n    memeStorage.setMeme(_memeId, MemeStorage.Meme(\n      _memeId, // meme id\n      block.timestamp, // meme time\n      _memeText, // meme text\n      0, // boost value\n      new address[](0), // likers\n      new address[](0), // unlikers\n      new bytes32[](0), // reposts\n      new bytes32[](0), // quotePosts\n      _repostId, // repost id\n      _tags, // tagged\n      new bytes32[](0), // response array\n      _parentId, // parent\n      _originId, // origin\n      _account, // author\n      true // isVisible\n    ));\n    // if responding to a single post, then mint respond token\n    if(_memeId!=_parentId && _parentId==_originId) {\n      if(memeStorage.getAuthor(_parentId)!=_account)\n        umeToken.mintRespond(_account, memeStorage.getAuthor(_parentId));\n        _addResponse(_memeId, _parentId);\n        boost.respondBoost(_parentId);\n    } // if responding to a thread, mint respond token for parent, curate token for original\n    else if(_memeId!=_parentId && _parentId!=_originId) {\n      if(memeStorage.getAuthor(_parentId)!=_account)\n        umeToken.mintRespond(_account, memeStorage.getAuthor(_parentId));\n        boost.respondBoost(_parentId);\n      if(memeStorage.getAuthor(_originId)!=_account)\n        umeToken.mintCurate(_account, memeStorage.getAuthor(_originId));\n        _addResponse(_memeId, _parentId);\n        boost.curateBoost(_originId);\n    }\n    // mint tags\n    for(uint i = 0; i < _tags.length; i++) {\n      if(_account!=_tags[i] && _tags[i]!=address(0x0)){\n        boost.tagBoost(_memeId);\n        umeToken.mintTag(_account, _tags[i]);\n        emit Tagged(_account, _tags[i]);\n      }\n    }\n    if(_repostId!=zeroBytes) {\n      if(bytes(_memeText).length==0) {\n        bytes32[] memory _oldReposts = memeStorage.getReposts(_repostId);\n        boost.repostBoost(_repostId);\n        _addRepost(_memeId, _memeText, _repostId, _oldReposts);\n      } else {\n        bytes32[] memory _oldReposts = memeStorage.getQuotePosts(_repostId);\n        _addRepost(_memeId, _memeText, _repostId, _oldReposts);\n        boost.repostBoost(_repostId);\n      }\n    }\n    _addPostToUser(_account, _memeId);\n    userStorage.setUsersByMeme(_memeId, _account);\n    boost.postBoost(_memeId);\n    emit MemeCreated(_memeId, block.timestamp, _account);\n  }\n  function deleteMeme(\n            address _author,\n            bytes32 _memeId)\n            public {\n    require(\n      postSigner==msg.sender,\n      'Error: only signer can delete meme');\n    // create empty Meme instance\n    bytes32 _parentId = memeStorage.getParentId(_memeId);\n    bytes32 _repostId = memeStorage.getRepostId(_memeId);\n    string memory _repostText = memeStorage.getText(_repostId);\n    _deletePostFromUser(_author, _memeId);\n    memeStorage.deleteMeme(_memeId);\n    emit MemeDeleted(_memeId, block.timestamp, _author);\n  }\n\n  function _addResponse(\n            bytes32 _memeId,\n            bytes32 _parentId)\n            private {\n    bytes32[] memory _oldResponses = memeStorage.getResponses(_parentId);\n    uint _oldResponseCount = _oldResponses.length;\n    bytes32[] memory _newResponses = new bytes32[](_oldResponseCount+1);\n    for(uint i = 0; i < _oldResponseCount; i++)\n      _newResponses[i] = _oldResponses[i];\n    _newResponses[_newResponses.length-1] = _memeId;\n    memeStorage.setResponses(_parentId, _newResponses);\n  }\n  function _addRepost(\n            bytes32 _memeId,\n            string memory _memeText,\n            bytes32 _repostId,\n            bytes32[] memory _oldReposts)\n            private {\n\n    uint _oldRepostCount = _oldReposts.length;\n    bytes32[] memory _newReposts = new bytes32[](_oldRepostCount+1);\n    for(uint i = 0; i < _oldRepostCount; i++)\n      _newReposts[i] = _oldReposts[i];\n    _newReposts[_newReposts.length-1] = _memeId;\n\n    if(bytes(_memeText).length==0) memeStorage.setReposts(_repostId, _newReposts);\n    else memeStorage.setQuotePosts(_repostId, _newReposts);\n  }\n  function _addPostToUser(\n            address _account,\n            bytes32 _memeId)\n            private {\n     // create memory array with length one greater than _user.posts length\n     bytes32[] memory _oldPosts = userStorage.getPosts(_account);\n     uint _oldPostCount = _oldPosts.length;\n     bytes32[] memory _newPosts = new bytes32[](_oldPostCount+1);\n     for(uint i = 0; i < _oldPostCount; i++)\n       _newPosts[i] = _oldPosts[i];\n     _newPosts[_oldPostCount] = _memeId;\n     userStorage.setPosts(_account, _newPosts);\n  }\n  function _deletePostFromUser(\n            address _account,\n            bytes32 _memeId)\n            private {\n     bytes32[] memory _oldPosts = userStorage.getPosts(_account);\n     uint _oldPostCount = _oldPosts.length;\n     bytes32[] memory _newPosts = new bytes32[](_oldPostCount-1);\n     uint _index;\n     for(uint i = 0; i < _oldPosts.length; i++) {\n       if(_oldPosts[i]==_memeId) {\n         _index = i;\n         break;\n       }\n     }\n     _newPosts = _deleteBytes32(_oldPosts, _index);\n     userStorage.setPosts(_account, _newPosts);\n     // clears mapping of deleted meme, reroutes to 0x0 address instead of deleter\n     userStorage.setUsersByMeme(_memeId, address(0x0));\n  }\n\n  // helper functions\n  function _deleteBytes32(\n            bytes32[] memory array,\n            uint index)\n            private pure returns(bytes32[] memory) {\n    bytes32[] memory _array = new bytes32[](array.length-1);\n    for(uint i = 0; i < index; i++)\n      _array[i] = array[i];\n    for(uint i = index; i < _array.length; i++)\n      _array[i] = array[i+1];\n    return _array;\n  }\n\n  function _bytesToBytes32(bytes memory source)\n            public pure returns(bytes32 result) {\n    if(source.length==0) return 0x0;\n    assembly {\n      result := mload(add(source, 32))\n    }\n  }\n  // set signer roles\n  function passPostSigner(address _post) public returns (bool) {\n    require(\n      msg.sender == postSigner,\n      'Error: only deployer can pass post signer role');\n\n    postSigner = _post;\n    emit PostSignerChanged(msg.sender, postSigner);\n    return true;\n  }\n}\n",
  "sourcePath": "/Users/jaiq/Documents/000 BLOCKCHAIN/ETH/uMe/src/contracts/MemeFactory.sol",
  "compiler": {
    "name": "solc",
    "version": "0.8.9+commit.e5eed63a.Emscripten.clang"
  },
  "schemaVersion": "3.4.3",
  "updatedAt": "2021-11-02T20:15:27.743Z",
  "networkType": "ethereum",
  "devdoc": {
    "kind": "dev",
    "methods": {},
    "version": 1
  },
  "userdoc": {
    "kind": "user",
    "methods": {},
    "version": 1
  }
}