{
  "contractName": "MemeStorage",
  "abi": [
    {
      "inputs": [],
      "stateMutability": "nonpayable",
      "type": "constructor"
    },
    {
      "anonymous": false,
      "inputs": [
        {
          "indexed": true,
          "internalType": "address",
          "name": "from",
          "type": "address"
        },
        {
          "indexed": true,
          "internalType": "address",
          "name": "to",
          "type": "address"
        }
      ],
      "name": "BoostSignerChanged",
      "type": "event"
    },
    {
      "anonymous": false,
      "inputs": [
        {
          "indexed": true,
          "internalType": "address",
          "name": "from",
          "type": "address"
        },
        {
          "indexed": true,
          "internalType": "address",
          "name": "to",
          "type": "address"
        }
      ],
      "name": "FactorySignerChanged",
      "type": "event"
    },
    {
      "anonymous": false,
      "inputs": [
        {
          "indexed": true,
          "internalType": "address",
          "name": "from",
          "type": "address"
        },
        {
          "indexed": true,
          "internalType": "address",
          "name": "to",
          "type": "address"
        }
      ],
      "name": "InterfaceSignerChanged",
      "type": "event"
    },
    {
      "anonymous": false,
      "inputs": [
        {
          "indexed": true,
          "internalType": "address",
          "name": "from",
          "type": "address"
        },
        {
          "indexed": true,
          "internalType": "address",
          "name": "to",
          "type": "address"
        }
      ],
      "name": "LikeSignerChanged",
      "type": "event"
    },
    {
      "anonymous": false,
      "inputs": [
        {
          "indexed": true,
          "internalType": "address",
          "name": "from",
          "type": "address"
        },
        {
          "indexed": true,
          "internalType": "address",
          "name": "to",
          "type": "address"
        }
      ],
      "name": "PostSignerChanged",
      "type": "event"
    },
    {
      "inputs": [],
      "name": "boostSigner",
      "outputs": [
        {
          "internalType": "address",
          "name": "",
          "type": "address"
        }
      ],
      "stateMutability": "view",
      "type": "function",
      "constant": true
    },
    {
      "inputs": [],
      "name": "factorySigner",
      "outputs": [
        {
          "internalType": "address",
          "name": "",
          "type": "address"
        }
      ],
      "stateMutability": "view",
      "type": "function",
      "constant": true
    },
    {
      "inputs": [],
      "name": "interfaceSigner",
      "outputs": [
        {
          "internalType": "address",
          "name": "",
          "type": "address"
        }
      ],
      "stateMutability": "view",
      "type": "function",
      "constant": true
    },
    {
      "inputs": [],
      "name": "likeSigner",
      "outputs": [
        {
          "internalType": "address",
          "name": "",
          "type": "address"
        }
      ],
      "stateMutability": "view",
      "type": "function",
      "constant": true
    },
    {
      "inputs": [],
      "name": "memeCount",
      "outputs": [
        {
          "internalType": "uint256",
          "name": "",
          "type": "uint256"
        }
      ],
      "stateMutability": "view",
      "type": "function",
      "constant": true
    },
    {
      "inputs": [
        {
          "internalType": "bytes32",
          "name": "",
          "type": "bytes32"
        }
      ],
      "name": "memes",
      "outputs": [
        {
          "internalType": "bytes32",
          "name": "id",
          "type": "bytes32"
        },
        {
          "internalType": "uint256",
          "name": "time",
          "type": "uint256"
        },
        {
          "internalType": "string",
          "name": "text",
          "type": "string"
        },
        {
          "internalType": "uint256",
          "name": "boosts",
          "type": "uint256"
        },
        {
          "internalType": "bytes32",
          "name": "repostId",
          "type": "bytes32"
        },
        {
          "internalType": "bytes32",
          "name": "parentId",
          "type": "bytes32"
        },
        {
          "internalType": "bytes32",
          "name": "originId",
          "type": "bytes32"
        },
        {
          "internalType": "address",
          "name": "author",
          "type": "address"
        },
        {
          "internalType": "bool",
          "name": "isVisible",
          "type": "bool"
        }
      ],
      "stateMutability": "view",
      "type": "function",
      "constant": true
    },
    {
      "inputs": [],
      "name": "postSigner",
      "outputs": [
        {
          "internalType": "address",
          "name": "",
          "type": "address"
        }
      ],
      "stateMutability": "view",
      "type": "function",
      "constant": true
    },
    {
      "inputs": [
        {
          "internalType": "bytes32",
          "name": "_memeId",
          "type": "bytes32"
        },
        {
          "components": [
            {
              "internalType": "bytes32",
              "name": "id",
              "type": "bytes32"
            },
            {
              "internalType": "uint256",
              "name": "time",
              "type": "uint256"
            },
            {
              "internalType": "string",
              "name": "text",
              "type": "string"
            },
            {
              "internalType": "uint256",
              "name": "boosts",
              "type": "uint256"
            },
            {
              "internalType": "address[]",
              "name": "likers",
              "type": "address[]"
            },
            {
              "internalType": "address[]",
              "name": "unlikers",
              "type": "address[]"
            },
            {
              "internalType": "bytes32[]",
              "name": "reposts",
              "type": "bytes32[]"
            },
            {
              "internalType": "bytes32[]",
              "name": "quotePosts",
              "type": "bytes32[]"
            },
            {
              "internalType": "bytes32",
              "name": "repostId",
              "type": "bytes32"
            },
            {
              "internalType": "address[]",
              "name": "tags",
              "type": "address[]"
            },
            {
              "internalType": "bytes32[]",
              "name": "responses",
              "type": "bytes32[]"
            },
            {
              "internalType": "bytes32",
              "name": "parentId",
              "type": "bytes32"
            },
            {
              "internalType": "bytes32",
              "name": "originId",
              "type": "bytes32"
            },
            {
              "internalType": "address",
              "name": "author",
              "type": "address"
            },
            {
              "internalType": "bool",
              "name": "isVisible",
              "type": "bool"
            }
          ],
          "internalType": "struct MemeStorage.Meme",
          "name": "_meme",
          "type": "tuple"
        }
      ],
      "name": "setMeme",
      "outputs": [],
      "stateMutability": "nonpayable",
      "type": "function"
    },
    {
      "inputs": [
        {
          "internalType": "bytes32",
          "name": "_memeId",
          "type": "bytes32"
        }
      ],
      "name": "deleteMeme",
      "outputs": [],
      "stateMutability": "nonpayable",
      "type": "function"
    },
    {
      "inputs": [],
      "name": "increaseMemeCount",
      "outputs": [],
      "stateMutability": "nonpayable",
      "type": "function"
    },
    {
      "inputs": [
        {
          "internalType": "bytes32",
          "name": "_memeId",
          "type": "bytes32"
        },
        {
          "internalType": "bytes32[]",
          "name": "_responses",
          "type": "bytes32[]"
        }
      ],
      "name": "setResponses",
      "outputs": [],
      "stateMutability": "nonpayable",
      "type": "function"
    },
    {
      "inputs": [
        {
          "internalType": "bytes32",
          "name": "_memeId",
          "type": "bytes32"
        },
        {
          "internalType": "bytes32[]",
          "name": "_reposts",
          "type": "bytes32[]"
        }
      ],
      "name": "setReposts",
      "outputs": [],
      "stateMutability": "nonpayable",
      "type": "function"
    },
    {
      "inputs": [
        {
          "internalType": "bytes32",
          "name": "_memeId",
          "type": "bytes32"
        },
        {
          "internalType": "bytes32[]",
          "name": "_quotePosts",
          "type": "bytes32[]"
        }
      ],
      "name": "setQuotePosts",
      "outputs": [],
      "stateMutability": "nonpayable",
      "type": "function"
    },
    {
      "inputs": [
        {
          "internalType": "bytes32",
          "name": "_memeId",
          "type": "bytes32"
        },
        {
          "internalType": "address[]",
          "name": "_likers",
          "type": "address[]"
        }
      ],
      "name": "setLikers",
      "outputs": [],
      "stateMutability": "nonpayable",
      "type": "function"
    },
    {
      "inputs": [
        {
          "internalType": "bytes32",
          "name": "_memeId",
          "type": "bytes32"
        },
        {
          "internalType": "address[]",
          "name": "_unlikers",
          "type": "address[]"
        }
      ],
      "name": "setUnlikers",
      "outputs": [],
      "stateMutability": "nonpayable",
      "type": "function"
    },
    {
      "inputs": [
        {
          "internalType": "bytes32",
          "name": "_memeId",
          "type": "bytes32"
        },
        {
          "internalType": "uint256",
          "name": "_boosts",
          "type": "uint256"
        }
      ],
      "name": "addBoost",
      "outputs": [],
      "stateMutability": "nonpayable",
      "type": "function"
    },
    {
      "inputs": [
        {
          "internalType": "bytes32",
          "name": "_memeId",
          "type": "bytes32"
        },
        {
          "internalType": "uint256",
          "name": "_boosts",
          "type": "uint256"
        }
      ],
      "name": "subtractBoost",
      "outputs": [],
      "stateMutability": "nonpayable",
      "type": "function"
    },
    {
      "inputs": [],
      "name": "getMemeCount",
      "outputs": [
        {
          "internalType": "uint256",
          "name": "",
          "type": "uint256"
        }
      ],
      "stateMutability": "view",
      "type": "function",
      "constant": true
    },
    {
      "inputs": [
        {
          "internalType": "bytes32",
          "name": "_memeId",
          "type": "bytes32"
        }
      ],
      "name": "getText",
      "outputs": [
        {
          "internalType": "string",
          "name": "",
          "type": "string"
        }
      ],
      "stateMutability": "view",
      "type": "function",
      "constant": true
    },
    {
      "inputs": [
        {
          "internalType": "bytes32",
          "name": "_memeId",
          "type": "bytes32"
        }
      ],
      "name": "getLikeCount",
      "outputs": [
        {
          "internalType": "uint256",
          "name": "",
          "type": "uint256"
        }
      ],
      "stateMutability": "view",
      "type": "function",
      "constant": true
    },
    {
      "inputs": [
        {
          "internalType": "bytes32",
          "name": "_memeId",
          "type": "bytes32"
        }
      ],
      "name": "getBoost",
      "outputs": [
        {
          "internalType": "uint256",
          "name": "",
          "type": "uint256"
        }
      ],
      "stateMutability": "view",
      "type": "function",
      "constant": true
    },
    {
      "inputs": [
        {
          "internalType": "bytes32",
          "name": "_memeId",
          "type": "bytes32"
        }
      ],
      "name": "getLikers",
      "outputs": [
        {
          "internalType": "address[]",
          "name": "",
          "type": "address[]"
        }
      ],
      "stateMutability": "view",
      "type": "function",
      "constant": true
    },
    {
      "inputs": [
        {
          "internalType": "bytes32",
          "name": "_memeId",
          "type": "bytes32"
        }
      ],
      "name": "getUnlikers",
      "outputs": [
        {
          "internalType": "address[]",
          "name": "",
          "type": "address[]"
        }
      ],
      "stateMutability": "view",
      "type": "function",
      "constant": true
    },
    {
      "inputs": [
        {
          "internalType": "bytes32",
          "name": "_memeId",
          "type": "bytes32"
        }
      ],
      "name": "getRepostCount",
      "outputs": [
        {
          "internalType": "uint256",
          "name": "",
          "type": "uint256"
        }
      ],
      "stateMutability": "view",
      "type": "function",
      "constant": true
    },
    {
      "inputs": [
        {
          "internalType": "bytes32",
          "name": "_memeId",
          "type": "bytes32"
        }
      ],
      "name": "getReposts",
      "outputs": [
        {
          "internalType": "bytes32[]",
          "name": "",
          "type": "bytes32[]"
        }
      ],
      "stateMutability": "view",
      "type": "function",
      "constant": true
    },
    {
      "inputs": [
        {
          "internalType": "bytes32",
          "name": "_memeId",
          "type": "bytes32"
        }
      ],
      "name": "getQuotePostCount",
      "outputs": [
        {
          "internalType": "uint256",
          "name": "",
          "type": "uint256"
        }
      ],
      "stateMutability": "view",
      "type": "function",
      "constant": true
    },
    {
      "inputs": [
        {
          "internalType": "bytes32",
          "name": "_memeId",
          "type": "bytes32"
        }
      ],
      "name": "getQuotePosts",
      "outputs": [
        {
          "internalType": "bytes32[]",
          "name": "",
          "type": "bytes32[]"
        }
      ],
      "stateMutability": "view",
      "type": "function",
      "constant": true
    },
    {
      "inputs": [
        {
          "internalType": "bytes32",
          "name": "_memeId",
          "type": "bytes32"
        }
      ],
      "name": "getTags",
      "outputs": [
        {
          "internalType": "address[]",
          "name": "",
          "type": "address[]"
        }
      ],
      "stateMutability": "view",
      "type": "function",
      "constant": true
    },
    {
      "inputs": [
        {
          "internalType": "bytes32",
          "name": "_memeId",
          "type": "bytes32"
        }
      ],
      "name": "getResponseCount",
      "outputs": [
        {
          "internalType": "uint256",
          "name": "",
          "type": "uint256"
        }
      ],
      "stateMutability": "view",
      "type": "function",
      "constant": true
    },
    {
      "inputs": [
        {
          "internalType": "bytes32",
          "name": "_memeId",
          "type": "bytes32"
        }
      ],
      "name": "getResponses",
      "outputs": [
        {
          "internalType": "bytes32[]",
          "name": "",
          "type": "bytes32[]"
        }
      ],
      "stateMutability": "view",
      "type": "function",
      "constant": true
    },
    {
      "inputs": [
        {
          "internalType": "bytes32",
          "name": "_memeId",
          "type": "bytes32"
        }
      ],
      "name": "getParentId",
      "outputs": [
        {
          "internalType": "bytes32",
          "name": "",
          "type": "bytes32"
        }
      ],
      "stateMutability": "view",
      "type": "function",
      "constant": true
    },
    {
      "inputs": [
        {
          "internalType": "bytes32",
          "name": "_memeId",
          "type": "bytes32"
        }
      ],
      "name": "getOriginId",
      "outputs": [
        {
          "internalType": "bytes32",
          "name": "",
          "type": "bytes32"
        }
      ],
      "stateMutability": "view",
      "type": "function",
      "constant": true
    },
    {
      "inputs": [
        {
          "internalType": "bytes32",
          "name": "_memeId",
          "type": "bytes32"
        }
      ],
      "name": "getRepostId",
      "outputs": [
        {
          "internalType": "bytes32",
          "name": "",
          "type": "bytes32"
        }
      ],
      "stateMutability": "view",
      "type": "function",
      "constant": true
    },
    {
      "inputs": [
        {
          "internalType": "bytes32",
          "name": "_memeId",
          "type": "bytes32"
        }
      ],
      "name": "getAuthor",
      "outputs": [
        {
          "internalType": "address",
          "name": "",
          "type": "address"
        }
      ],
      "stateMutability": "view",
      "type": "function",
      "constant": true
    },
    {
      "inputs": [
        {
          "internalType": "bytes32",
          "name": "_memeId",
          "type": "bytes32"
        }
      ],
      "name": "getVisibility",
      "outputs": [
        {
          "internalType": "bool",
          "name": "",
          "type": "bool"
        }
      ],
      "stateMutability": "view",
      "type": "function",
      "constant": true
    },
    {
      "inputs": [
        {
          "internalType": "uint256",
          "name": "_memeId",
          "type": "uint256"
        }
      ],
      "name": "getEncodeId",
      "outputs": [
        {
          "internalType": "bytes32",
          "name": "",
          "type": "bytes32"
        }
      ],
      "stateMutability": "view",
      "type": "function",
      "constant": true
    },
    {
      "inputs": [
        {
          "internalType": "uint256",
          "name": "_memeId",
          "type": "uint256"
        }
      ],
      "name": "getEncodeLikeCount",
      "outputs": [
        {
          "internalType": "uint256",
          "name": "",
          "type": "uint256"
        }
      ],
      "stateMutability": "view",
      "type": "function",
      "constant": true
    },
    {
      "inputs": [
        {
          "internalType": "uint256",
          "name": "_memeId",
          "type": "uint256"
        }
      ],
      "name": "getEncodeLikers",
      "outputs": [
        {
          "internalType": "address[]",
          "name": "",
          "type": "address[]"
        }
      ],
      "stateMutability": "view",
      "type": "function",
      "constant": true
    },
    {
      "inputs": [
        {
          "internalType": "uint256",
          "name": "_memeId",
          "type": "uint256"
        }
      ],
      "name": "getEncodeUnlikers",
      "outputs": [
        {
          "internalType": "address[]",
          "name": "",
          "type": "address[]"
        }
      ],
      "stateMutability": "view",
      "type": "function",
      "constant": true
    },
    {
      "inputs": [
        {
          "internalType": "uint256",
          "name": "_memeId",
          "type": "uint256"
        }
      ],
      "name": "getEncodeRepostCount",
      "outputs": [
        {
          "internalType": "uint256",
          "name": "",
          "type": "uint256"
        }
      ],
      "stateMutability": "view",
      "type": "function",
      "constant": true
    },
    {
      "inputs": [
        {
          "internalType": "uint256",
          "name": "_memeId",
          "type": "uint256"
        }
      ],
      "name": "getEncodeReposts",
      "outputs": [
        {
          "internalType": "bytes32[]",
          "name": "",
          "type": "bytes32[]"
        }
      ],
      "stateMutability": "view",
      "type": "function",
      "constant": true
    },
    {
      "inputs": [
        {
          "internalType": "uint256",
          "name": "_memeId",
          "type": "uint256"
        }
      ],
      "name": "getEncodeQuotePostCount",
      "outputs": [
        {
          "internalType": "uint256",
          "name": "",
          "type": "uint256"
        }
      ],
      "stateMutability": "view",
      "type": "function",
      "constant": true
    },
    {
      "inputs": [
        {
          "internalType": "uint256",
          "name": "_memeId",
          "type": "uint256"
        }
      ],
      "name": "getEncodeQuotePosts",
      "outputs": [
        {
          "internalType": "bytes32[]",
          "name": "",
          "type": "bytes32[]"
        }
      ],
      "stateMutability": "view",
      "type": "function",
      "constant": true
    },
    {
      "inputs": [
        {
          "internalType": "uint256",
          "name": "_memeId",
          "type": "uint256"
        }
      ],
      "name": "getEncodeTags",
      "outputs": [
        {
          "internalType": "address[]",
          "name": "",
          "type": "address[]"
        }
      ],
      "stateMutability": "view",
      "type": "function",
      "constant": true
    },
    {
      "inputs": [
        {
          "internalType": "uint256",
          "name": "_memeId",
          "type": "uint256"
        }
      ],
      "name": "getEncodeResponseCount",
      "outputs": [
        {
          "internalType": "uint256",
          "name": "",
          "type": "uint256"
        }
      ],
      "stateMutability": "view",
      "type": "function",
      "constant": true
    },
    {
      "inputs": [
        {
          "internalType": "uint256",
          "name": "_memeId",
          "type": "uint256"
        }
      ],
      "name": "getEncodeResponses",
      "outputs": [
        {
          "internalType": "bytes32[]",
          "name": "",
          "type": "bytes32[]"
        }
      ],
      "stateMutability": "view",
      "type": "function",
      "constant": true
    },
    {
      "inputs": [
        {
          "internalType": "uint256",
          "name": "_memeId",
          "type": "uint256"
        }
      ],
      "name": "getEncodeParentId",
      "outputs": [
        {
          "internalType": "bytes32",
          "name": "",
          "type": "bytes32"
        }
      ],
      "stateMutability": "view",
      "type": "function",
      "constant": true
    },
    {
      "inputs": [
        {
          "internalType": "uint256",
          "name": "_memeId",
          "type": "uint256"
        }
      ],
      "name": "getEncodeOriginId",
      "outputs": [
        {
          "internalType": "bytes32",
          "name": "",
          "type": "bytes32"
        }
      ],
      "stateMutability": "view",
      "type": "function",
      "constant": true
    },
    {
      "inputs": [
        {
          "internalType": "uint256",
          "name": "_memeId",
          "type": "uint256"
        }
      ],
      "name": "getEncodeAuthor",
      "outputs": [
        {
          "internalType": "address",
          "name": "",
          "type": "address"
        }
      ],
      "stateMutability": "view",
      "type": "function",
      "constant": true
    },
    {
      "inputs": [
        {
          "internalType": "uint256",
          "name": "_memeId",
          "type": "uint256"
        }
      ],
      "name": "getEncodeVisibility",
      "outputs": [
        {
          "internalType": "bool",
          "name": "",
          "type": "bool"
        }
      ],
      "stateMutability": "view",
      "type": "function",
      "constant": true
    },
    {
      "inputs": [],
      "name": "getEncodedIds",
      "outputs": [
        {
          "internalType": "bytes32[]",
          "name": "",
          "type": "bytes32[]"
        }
      ],
      "stateMutability": "view",
      "type": "function",
      "constant": true
    },
    {
      "inputs": [
        {
          "internalType": "address",
          "name": "_memeFactory",
          "type": "address"
        }
      ],
      "name": "passFactorySigner",
      "outputs": [
        {
          "internalType": "bool",
          "name": "",
          "type": "bool"
        }
      ],
      "stateMutability": "nonpayable",
      "type": "function"
    },
    {
      "inputs": [
        {
          "internalType": "address",
          "name": "_userInterface",
          "type": "address"
        }
      ],
      "name": "passInterfaceSigner",
      "outputs": [
        {
          "internalType": "bool",
          "name": "",
          "type": "bool"
        }
      ],
      "stateMutability": "nonpayable",
      "type": "function"
    },
    {
      "inputs": [
        {
          "internalType": "address",
          "name": "_post",
          "type": "address"
        }
      ],
      "name": "passPostSigner",
      "outputs": [
        {
          "internalType": "bool",
          "name": "",
          "type": "bool"
        }
      ],
      "stateMutability": "nonpayable",
      "type": "function"
    },
    {
      "inputs": [
        {
          "internalType": "address",
          "name": "_like",
          "type": "address"
        }
      ],
      "name": "passLikeSigner",
      "outputs": [
        {
          "internalType": "bool",
          "name": "",
          "type": "bool"
        }
      ],
      "stateMutability": "nonpayable",
      "type": "function"
    },
    {
      "inputs": [
        {
          "internalType": "address",
          "name": "_boost",
          "type": "address"
        }
      ],
      "name": "passBoostSigner",
      "outputs": [
        {
          "internalType": "bool",
          "name": "",
          "type": "bool"
        }
      ],
      "stateMutability": "nonpayable",
      "type": "function"
    }
  ],
  "bytecode": "0x6080604052600060055534801561001557600080fd5b50336000806101000a81548173ffffffffffffffffffffffffffffffffffffffff021916908373ffffffffffffffffffffffffffffffffffffffff16021790555033600160006101000a81548173ffffffffffffffffffffffffffffffffffffffff021916908373ffffffffffffffffffffffffffffffffffffffff16021790555033600260006101000a81548173ffffffffffffffffffffffffffffffffffffffff021916908373ffffffffffffffffffffffffffffffffffffffff16021790555033600360006101000a81548173ffffffffffffffffffffffffffffffffffffffff021916908373ffffffffffffffffffffffffffffffffffffffff16021790555033600460006101000a81548173ffffffffffffffffffffffffffffffffffffffff021916908373ffffffffffffffffffffffffffffffffffffffff160217905550613fd8806101696000396000f3fe608060405234801561001057600080fd5b50600436106103785760003560e01c806393d2c854116101d3578063d4b8df2211610104578063edcd526a116100a2578063f64458bd1161007c578063f64458bd14610c01578063f8f1be2214610c31578063f8f3d03714610c61578063fae6066414610c6b57610378565b8063edcd526a14610b71578063f00c970414610ba1578063f1e25e8514610bd157610378565b8063debf0682116100de578063debf068214610ad7578063e2975f0914610af5578063e83a8fdd14610b25578063e9bdf97614610b5557610378565b8063d4b8df2214610a53578063ddeeeed514610a83578063ddf60c9314610abb57610378565b8063b5b421e111610171578063c4e172da1161014b578063c4e172da14610993578063c627f1ee146109c3578063c6ede8bb146109f3578063d092b7b314610a2357610378565b8063b5b421e11461092b578063bacd910c1461095b578063bd0a4e9e1461097757610378565b8063a6838c7b116101ad578063a6838c7b14610891578063aaf837c5146108c1578063af5dffde146108dd578063af82e192146108fb57610378565b806393d2c8541461081357806398316938146108435780639ca9dcab1461087357610378565b80635713663c116102ad5780637135cc101161024b578063829a262c11610225578063829a262c1461077757806385188f3c146107955780638c98876f146107c557806391fe1a8f146107e357610378565b80637135cc101461070d57806372d9fe5d146107295780637b2124d21461075957610378565b806369171f5c1161028757806369171f5c14610661578063691d1c28146106915780637071af84146106c157806370d2c46b146106f157610378565b80635713663c146105f55780635aa64413146106255780635bba8fef1461064357610378565b806326cecfcf1161031a5780633a93c5fa116102f45780633a93c5fa1461055d5780634fd5d4741461057957806350de13f9146105a9578063563f4f65146105c557610378565b806326cecfcf146104cd5780632ecf6401146104fd5780633331cb331461052d57610378565b806318a01aac1161035657806318a01aac1461040d5780631956fbc91461043d578063213059dd1461046d578063261837171461049d57610378565b806306e6a7701461037d57806316fb584e146103ad57806317dcaab6146103dd575b600080fd5b61039760048036038101906103929190613285565b610c9b565b6040516103a49190613765565b60405180910390f35b6103c760048036038101906103c29190613433565b610df3565b6040516103d49190613706565b60405180910390f35b6103f760048036038101906103f29190613285565b610e59565b6040516104049190613765565b60405180910390f35b61042760048036038101906104229190613433565b610fad565b6040516104349190613765565b60405180910390f35b61045760048036038101906104529190613433565b611000565b6040516104649190613743565b60405180910390f35b610487600480360381019061048291906132b2565b611094565b6040516104949190613721565b60405180910390f35b6104b760048036038101906104b29190613433565b611138565b6040516104c49190613743565b60405180910390f35b6104e760048036038101906104e29190613433565b6111cc565b6040516104f49190613780565b60405180910390f35b61051760048036038101906105129190613433565b611212565b6040516105249190613780565b60405180910390f35b61054760048036038101906105429190613433565b611258565b6040516105549190613743565b60405180910390f35b610577600480360381019061057291906133f3565b6112ec565b005b610593600480360381019061058e91906132b2565b6113ad565b6040516105a09190613721565b60405180910390f35b6105c360048036038101906105be919061333b565b611451565b005b6105df60048036038101906105da9190613433565b61150e565b6040516105ec9190613721565b60405180910390f35b61060f600480360381019061060a91906132b2565b6115d8565b60405161061c9190613931565b60405180910390f35b61062d6115fb565b60405161063a9190613706565b60405180910390f35b61064b61161f565b6040516106589190613706565b60405180910390f35b61067b600480360381019061067691906132b2565b611645565b6040516106889190613743565b60405180910390f35b6106ab60048036038101906106a691906132b2565b6116b3565b6040516106b89190613706565b60405180910390f35b6106db60048036038101906106d691906132b2565b6116f3565b6040516106e89190613780565b60405180910390f35b61070b600480360381019061070691906133f3565b611713565b005b610727600480360381019061072291906132df565b6118da565b005b610743600480360381019061073e91906132b2565b611999565b6040516107509190613743565b60405180910390f35b610761611a07565b60405161076e9190613931565b60405180910390f35b61077f611a0d565b60405161078c9190613706565b60405180910390f35b6107af60048036038101906107aa91906132b2565b611a33565b6040516107bc9190613931565b60405180910390f35b6107cd611a53565b6040516107da9190613706565b60405180910390f35b6107fd60048036038101906107f89190613285565b611a79565b60405161080a9190613765565b60405180910390f35b61082d60048036038101906108289190613433565b611bd1565b60405161083a9190613721565b60405180910390f35b61085d600480360381019061085891906132b2565b611c9b565b60405161086a9190613931565b60405180910390f35b61087b611cbe565b6040516108889190613931565b60405180910390f35b6108ab60048036038101906108a69190613285565b611cc8565b6040516108b89190613765565b60405180910390f35b6108db60048036038101906108d691906132b2565b611e20565b005b6108e5611fa2565b6040516108f29190613706565b60405180910390f35b61091560048036038101906109109190613433565b611fc8565b6040516109229190613780565b60405180910390f35b61094560048036038101906109409190613433565b61200e565b6040516109529190613721565b60405180910390f35b6109756004803603810190610970919061333b565b6120d8565b005b610991600480360381019061098c919061333b565b612195565b005b6109ad60048036038101906109a89190613285565b612252565b6040516109ba9190613765565b60405180910390f35b6109dd60048036038101906109d891906132b2565b6123aa565b6040516109ea9190613765565b60405180910390f35b610a0d6004803603810190610a089190613433565b6123d7565b604051610a1a9190613931565b60405180910390f35b610a3d6004803603810190610a389190613433565b612420565b604051610a4a9190613931565b60405180910390f35b610a6d6004803603810190610a6891906132b2565b612469565b604051610a7a9190613743565b60405180910390f35b610a9d6004803603810190610a9891906132b2565b6124d7565b604051610ab29998979695949392919061379b565b60405180910390f35b610ad56004803603810190610ad09190613397565b6125da565b005b610adf612821565b604051610aec9190613743565b60405180910390f35b610b0f6004803603810190610b0a91906132b2565b612879565b604051610b1c9190613780565b60405180910390f35b610b3f6004803603810190610b3a9190613433565b612899565b604051610b4c9190613931565b60405180910390f35b610b6f6004803603810190610b6a91906132df565b6128e2565b005b610b8b6004803603810190610b8691906132b2565b6129a1565b604051610b989190613721565b60405180910390f35b610bbb6004803603810190610bb69190613433565b612a45565b604051610bc89190613931565b60405180910390f35b610beb6004803603810190610be691906132b2565b612a8e565b604051610bf89190613780565b60405180910390f35b610c1b6004803603810190610c1691906132b2565b612aae565b604051610c28919061382f565b60405180910390f35b610c4b6004803603810190610c4691906132b2565b612b56565b604051610c589190613931565b60405180910390f35b610c69612b79565b005b610c856004803603810190610c8091906132b2565b612c21565b604051610c929190613931565b60405180910390f35b6000600360009054906101000a900473ffffffffffffffffffffffffffffffffffffffff1673ffffffffffffffffffffffffffffffffffffffff163373ffffffffffffffffffffffffffffffffffffffff1614610d2d576040517f08c379a0000000000000000000000000000000000000000000000000000000008152600401610d24906138d1565b60405180910390fd5b81600360006101000a81548173ffffffffffffffffffffffffffffffffffffffff021916908373ffffffffffffffffffffffffffffffffffffffff160217905550600360009054906101000a900473ffffffffffffffffffffffffffffffffffffffff1673ffffffffffffffffffffffffffffffffffffffff163373ffffffffffffffffffffffffffffffffffffffff167f2364065f519eb2e0ac13040d65b1d1140f6677de0518b6dee6954e49f7f7a5b660405160405180910390a360019050919050565b60006007600083604051602001610e0a91906136eb565b604051602081830303815290604052805190602001208152602001908152602001600020600d0160009054906101000a900473ffffffffffffffffffffffffffffffffffffffff169050919050565b60008060009054906101000a900473ffffffffffffffffffffffffffffffffffffffff1673ffffffffffffffffffffffffffffffffffffffff163373ffffffffffffffffffffffffffffffffffffffff1614610eea576040517f08c379a0000000000000000000000000000000000000000000000000000000008152600401610ee190613891565b60405180910390fd5b816000806101000a81548173ffffffffffffffffffffffffffffffffffffffff021916908373ffffffffffffffffffffffffffffffffffffffff16021790555060008054906101000a900473ffffffffffffffffffffffffffffffffffffffff1673ffffffffffffffffffffffffffffffffffffffff163373ffffffffffffffffffffffffffffffffffffffff167f5f8b18be53cdf9843c4263461966fc46896a2d372d3fa87fc22f6cfed024186260405160405180910390a360019050919050565b60006007600083604051602001610fc491906136eb565b604051602081830303815290604052805190602001208152602001908152602001600020600d0160149054906101000a900460ff169050919050565b6060600760008360405160200161101791906136eb565b60405160208183030381529060405280519060200120815260200190815260200160002060070180548060200260200160405190810160405280929190818152602001828054801561108857602002820191906000526020600020905b815481526020019060010190808311611074575b50505050509050919050565b60606007600083815260200190815260200160002060040180548060200260200160405190810160405280929190818152602001828054801561112c57602002820191906000526020600020905b8160009054906101000a900473ffffffffffffffffffffffffffffffffffffffff1673ffffffffffffffffffffffffffffffffffffffff16815260200190600101908083116110e2575b50505050509050919050565b6060600760008360405160200161114f91906136eb565b604051602081830303815290604052805190602001208152602001908152602001600020600a018054806020026020016040519081016040528092919081815260200182805480156111c057602002820191906000526020600020905b8154815260200190600101908083116111ac575b50505050509050919050565b600060076000836040516020016111e391906136eb565b604051602081830303815290604052805190602001208152602001908152602001600020600b01549050919050565b6000600760008360405160200161122991906136eb565b604051602081830303815290604052805190602001208152602001908152602001600020600c01549050919050565b6060600760008360405160200161126f91906136eb565b6040516020818303038152906040528051906020012081526020019081526020016000206006018054806020026020016040519081016040528092919081815260200182805480156112e057602002820191906000526020600020905b8154815260200190600101908083116112cc575b50505050509050919050565b600460009054906101000a900473ffffffffffffffffffffffffffffffffffffffff1673ffffffffffffffffffffffffffffffffffffffff163373ffffffffffffffffffffffffffffffffffffffff161461137c576040517f08c379a0000000000000000000000000000000000000000000000000000000008152600401611373906138f1565b60405180910390fd5b806007600084815260200190815260200160002060030160008282546113a29190613ade565b925050819055505050565b60606007600083815260200190815260200160002060050180548060200260200160405190810160405280929190818152602001828054801561144557602002820191906000526020600020905b8160009054906101000a900473ffffffffffffffffffffffffffffffffffffffff1673ffffffffffffffffffffffffffffffffffffffff16815260200190600101908083116113fb575b50505050509050919050565b60008054906101000a900473ffffffffffffffffffffffffffffffffffffffff1673ffffffffffffffffffffffffffffffffffffffff163373ffffffffffffffffffffffffffffffffffffffff16146114df576040517f08c379a00000000000000000000000000000000000000000000000000000000081526004016114d690613891565b60405180910390fd5b80600760008481526020019081526020016000206006019080519060200190611509929190612c44565b505050565b6060600760008360405160200161152591906136eb565b6040516020818303038152906040528051906020012081526020019081526020016000206004018054806020026020016040519081016040528092919081815260200182805480156115cc57602002820191906000526020600020905b8160009054906101000a900473ffffffffffffffffffffffffffffffffffffffff1673ffffffffffffffffffffffffffffffffffffffff1681526020019060010190808311611582575b50505050509050919050565b600060076000838152602001908152602001600020600701805490509050919050565b60008054906101000a900473ffffffffffffffffffffffffffffffffffffffff1681565b600460009054906101000a900473ffffffffffffffffffffffffffffffffffffffff1681565b6060600760008381526020019081526020016000206007018054806020026020016040519081016040528092919081815260200182805480156116a757602002820191906000526020600020905b815481526020019060010190808311611693575b50505050509050919050565b600060076000838152602001908152602001600020600d0160009054906101000a900473ffffffffffffffffffffffffffffffffffffffff169050919050565b600060076000838152602001908152602001600020600b01549050919050565b600460009054906101000a900473ffffffffffffffffffffffffffffffffffffffff1673ffffffffffffffffffffffffffffffffffffffff163373ffffffffffffffffffffffffffffffffffffffff1614806117bc5750600360009054906101000a900473ffffffffffffffffffffffffffffffffffffffff1673ffffffffffffffffffffffffffffffffffffffff163373ffffffffffffffffffffffffffffffffffffffff16145b806118145750600260009054906101000a900473ffffffffffffffffffffffffffffffffffffffff1673ffffffffffffffffffffffffffffffffffffffff163373ffffffffffffffffffffffffffffffffffffffff16145b8061186a575060008054906101000a900473ffffffffffffffffffffffffffffffffffffffff1673ffffffffffffffffffffffffffffffffffffffff163373ffffffffffffffffffffffffffffffffffffffff16145b6118a9576040517f08c379a00000000000000000000000000000000000000000000000000000000081526004016118a0906138f1565b60405180910390fd5b806007600084815260200190815260200160002060030160008282546118cf9190613a88565b925050819055505050565b600360009054906101000a900473ffffffffffffffffffffffffffffffffffffffff1673ffffffffffffffffffffffffffffffffffffffff163373ffffffffffffffffffffffffffffffffffffffff161461196a576040517f08c379a0000000000000000000000000000000000000000000000000000000008152600401611961906138d1565b60405180910390fd5b80600760008481526020019081526020016000206005019080519060200190611994929190612c91565b505050565b6060600760008381526020019081526020016000206006018054806020026020016040519081016040528092919081815260200182805480156119fb57602002820191906000526020600020905b8154815260200190600101908083116119e7575b50505050509050919050565b60055481565b600360009054906101000a900473ffffffffffffffffffffffffffffffffffffffff1681565b600060076000838152602001908152602001600020600301549050919050565b600260009054906101000a900473ffffffffffffffffffffffffffffffffffffffff1681565b6000600460009054906101000a900473ffffffffffffffffffffffffffffffffffffffff1673ffffffffffffffffffffffffffffffffffffffff163373ffffffffffffffffffffffffffffffffffffffff1614611b0b576040517f08c379a0000000000000000000000000000000000000000000000000000000008152600401611b02906138d1565b60405180910390fd5b81600460006101000a81548173ffffffffffffffffffffffffffffffffffffffff021916908373ffffffffffffffffffffffffffffffffffffffff160217905550600460009054906101000a900473ffffffffffffffffffffffffffffffffffffffff1673ffffffffffffffffffffffffffffffffffffffff163373ffffffffffffffffffffffffffffffffffffffff167f6892a8923ec61e89beaa10370e660884074b3bec292be12802599cf655bba75260405160405180910390a360019050919050565b60606007600083604051602001611be891906136eb565b604051602081830303815290604052805190602001208152602001908152602001600020600901805480602002602001604051908101604052809291908181526020018280548015611c8f57602002820191906000526020600020905b8160009054906101000a900473ffffffffffffffffffffffffffffffffffffffff1673ffffffffffffffffffffffffffffffffffffffff1681526020019060010190808311611c45575b50505050509050919050565b600060076000838152602001908152602001600020600401805490509050919050565b6000600554905090565b6000600260009054906101000a900473ffffffffffffffffffffffffffffffffffffffff1673ffffffffffffffffffffffffffffffffffffffff163373ffffffffffffffffffffffffffffffffffffffff1614611d5a576040517f08c379a0000000000000000000000000000000000000000000000000000000008152600401611d51906138b1565b60405180910390fd5b81600260006101000a81548173ffffffffffffffffffffffffffffffffffffffff021916908373ffffffffffffffffffffffffffffffffffffffff160217905550600260009054906101000a900473ffffffffffffffffffffffffffffffffffffffff1673ffffffffffffffffffffffffffffffffffffffff163373ffffffffffffffffffffffffffffffffffffffff167f76ce921e20c471c95deae34d20d53706ec4378ecab394e517f73aef912ae6cdd60405160405180910390a360019050919050565b60008054906101000a900473ffffffffffffffffffffffffffffffffffffffff1673ffffffffffffffffffffffffffffffffffffffff163373ffffffffffffffffffffffffffffffffffffffff1614611eae576040517f08c379a0000000000000000000000000000000000000000000000000000000008152600401611ea590613871565b60405180910390fd5b600760008281526020019081526020016000206000808201600090556001820160009055600282016000611ee29190612d1b565b6003820160009055600482016000611efa9190612d5b565b600582016000611f0a9190612d5b565b600682016000611f1a9190612d7c565b600782016000611f2a9190612d7c565b6008820160009055600982016000611f429190612d5b565b600a82016000611f529190612d7c565b600b820160009055600c820160009055600d820160006101000a81549073ffffffffffffffffffffffffffffffffffffffff0219169055600d820160146101000a81549060ff0219169055505050565b600160009054906101000a900473ffffffffffffffffffffffffffffffffffffffff1681565b60006007600083604051602001611fdf91906136eb565b604051602081830303815290604052805190602001208152602001908152602001600020600001549050919050565b6060600760008360405160200161202591906136eb565b6040516020818303038152906040528051906020012081526020019081526020016000206005018054806020026020016040519081016040528092919081815260200182805480156120cc57602002820191906000526020600020905b8160009054906101000a900473ffffffffffffffffffffffffffffffffffffffff1673ffffffffffffffffffffffffffffffffffffffff1681526020019060010190808311612082575b50505050509050919050565b60008054906101000a900473ffffffffffffffffffffffffffffffffffffffff1673ffffffffffffffffffffffffffffffffffffffff163373ffffffffffffffffffffffffffffffffffffffff1614612166576040517f08c379a000000000000000000000000000000000000000000000000000000000815260040161215d90613891565b60405180910390fd5b8060076000848152602001908152602001600020600a019080519060200190612190929190612c44565b505050565b60008054906101000a900473ffffffffffffffffffffffffffffffffffffffff1673ffffffffffffffffffffffffffffffffffffffff163373ffffffffffffffffffffffffffffffffffffffff1614612223576040517f08c379a000000000000000000000000000000000000000000000000000000000815260040161221a90613891565b60405180910390fd5b8060076000848152602001908152602001600020600701908051906020019061224d929190612c44565b505050565b6000600160009054906101000a900473ffffffffffffffffffffffffffffffffffffffff1673ffffffffffffffffffffffffffffffffffffffff163373ffffffffffffffffffffffffffffffffffffffff16146122e4576040517f08c379a00000000000000000000000000000000000000000000000000000000081526004016122db90613891565b60405180910390fd5b81600160006101000a81548173ffffffffffffffffffffffffffffffffffffffff021916908373ffffffffffffffffffffffffffffffffffffffff160217905550600160009054906101000a900473ffffffffffffffffffffffffffffffffffffffff1673ffffffffffffffffffffffffffffffffffffffff163373ffffffffffffffffffffffffffffffffffffffff167fdf570d582e474b2d7915b12f6f773eb74e4bc78a660caeeccf19491c8578507b60405160405180910390a360019050919050565b600060076000838152602001908152602001600020600d0160149054906101000a900460ff169050919050565b600060076000836040516020016123ee91906136eb565b604051602081830303815290604052805190602001208152602001908152602001600020600401805490509050919050565b6000600760008360405160200161243791906136eb565b604051602081830303815290604052805190602001208152602001908152602001600020600a01805490509050919050565b606060076000838152602001908152602001600020600a018054806020026020016040519081016040528092919081815260200182805480156124cb57602002820191906000526020600020905b8154815260200190600101908083116124b7575b50505050509050919050565b600760205280600052604060002060009150905080600001549080600101549080600201805461250690613ba6565b80601f016020809104026020016040519081016040528092919081815260200182805461253290613ba6565b801561257f5780601f106125545761010080835404028352916020019161257f565b820191906000526020600020905b81548152906001019060200180831161256257829003601f168201915b50505050509080600301549080600801549080600b01549080600c01549080600d0160009054906101000a900473ffffffffffffffffffffffffffffffffffffffff169080600d0160149054906101000a900460ff16905089565b60008054906101000a900473ffffffffffffffffffffffffffffffffffffffff1673ffffffffffffffffffffffffffffffffffffffff163373ffffffffffffffffffffffffffffffffffffffff1614612668576040517f08c379a000000000000000000000000000000000000000000000000000000000815260040161265f90613851565b60405180910390fd5b8060076000848152602001908152602001600020600082015181600001556020820151816001015560408201518160020190805190602001906126ac929190612d9d565b506060820151816003015560808201518160040190805190602001906126d3929190612c91565b5060a08201518160050190805190602001906126f0929190612c91565b5060c082015181600601908051906020019061270d929190612c44565b5060e082015181600701908051906020019061272a929190612c44565b506101008201518160080155610120820151816009019080519060200190612753929190612c91565b5061014082015181600a019080519060200190612771929190612c44565b5061016082015181600b015561018082015181600c01556101a082015181600d0160006101000a81548173ffffffffffffffffffffffffffffffffffffffff021916908373ffffffffffffffffffffffffffffffffffffffff1602179055506101c082015181600d0160146101000a81548160ff02191690831515021790555090505060068290806001815401808255809150506001900390600052602060002001600090919091909150555050565b6060600680548060200260200160405190810160405280929190818152602001828054801561286f57602002820191906000526020600020905b81548152602001906001019080831161285b575b5050505050905090565b600060076000838152602001908152602001600020600801549050919050565b600060076000836040516020016128b091906136eb565b604051602081830303815290604052805190602001208152602001908152602001600020600701805490509050919050565b600360009054906101000a900473ffffffffffffffffffffffffffffffffffffffff1673ffffffffffffffffffffffffffffffffffffffff163373ffffffffffffffffffffffffffffffffffffffff1614612972576040517f08c379a0000000000000000000000000000000000000000000000000000000008152600401612969906138d1565b60405180910390fd5b8060076000848152602001908152602001600020600401908051906020019061299c929190612c91565b505050565b606060076000838152602001908152602001600020600901805480602002602001604051908101604052809291908181526020018280548015612a3957602002820191906000526020600020905b8160009054906101000a900473ffffffffffffffffffffffffffffffffffffffff1673ffffffffffffffffffffffffffffffffffffffff16815260200190600101908083116129ef575b50505050509050919050565b60006007600083604051602001612a5c91906136eb565b604051602081830303815290604052805190602001208152602001908152602001600020600601805490509050919050565b600060076000838152602001908152602001600020600c01549050919050565b6060600760008381526020019081526020016000206002018054612ad190613ba6565b80601f0160208091040260200160405190810160405280929190818152602001828054612afd90613ba6565b8015612b4a5780601f10612b1f57610100808354040283529160200191612b4a565b820191906000526020600020905b815481529060010190602001808311612b2d57829003601f168201915b50505050509050919050565b600060076000838152602001908152602001600020600601805490509050919050565b60008054906101000a900473ffffffffffffffffffffffffffffffffffffffff1673ffffffffffffffffffffffffffffffffffffffff163373ffffffffffffffffffffffffffffffffffffffff1614612c07576040517f08c379a0000000000000000000000000000000000000000000000000000000008152600401612bfe90613911565b60405180910390fd5b60056000815480929190612c1a90613c09565b9190505550565b600060076000838152602001908152602001600020600a01805490509050919050565b828054828255906000526020600020908101928215612c80579160200282015b82811115612c7f578251825591602001919060010190612c64565b5b509050612c8d9190612e23565b5090565b828054828255906000526020600020908101928215612d0a579160200282015b82811115612d095782518260006101000a81548173ffffffffffffffffffffffffffffffffffffffff021916908373ffffffffffffffffffffffffffffffffffffffff16021790555091602001919060010190612cb1565b5b509050612d179190612e40565b5090565b508054612d2790613ba6565b6000825580601f10612d395750612d58565b601f016020900490600052602060002090810190612d579190612e40565b5b50565b5080546000825590600052602060002090810190612d799190612e40565b50565b5080546000825590600052602060002090810190612d9a9190612e23565b50565b828054612da990613ba6565b90600052602060002090601f016020900481019282612dcb5760008555612e12565b82601f10612de457805160ff1916838001178555612e12565b82800160010185558215612e12579182015b82811115612e11578251825591602001919060010190612df6565b5b509050612e1f9190612e40565b5090565b5b80821115612e3c576000816000905550600101612e24565b5090565b5b80821115612e59576000816000905550600101612e41565b5090565b6000612e70612e6b84613971565b61394c565b90508083825260208201905082856020860282011115612e9357612e92613cf8565b5b60005b85811015612ec35781612ea98882612f7f565b845260208401935060208301925050600181019050612e96565b5050509392505050565b6000612ee0612edb8461399d565b61394c565b90508083825260208201905082856020860282011115612f0357612f02613cf8565b5b60005b85811015612f335781612f198882613005565b845260208401935060208301925050600181019050612f06565b5050509392505050565b6000612f50612f4b846139c9565b61394c565b905082815260208101848484011115612f6c57612f6b613cfd565b5b612f77848285613b64565b509392505050565b600081359050612f8e81613f46565b92915050565b600082601f830112612fa957612fa8613ce9565b5b8135612fb9848260208601612e5d565b91505092915050565b600082601f830112612fd757612fd6613ce9565b5b8135612fe7848260208601612ecd565b91505092915050565b600081359050612fff81613f5d565b92915050565b60008135905061301481613f74565b92915050565b600082601f83011261302f5761302e613ce9565b5b813561303f848260208601612f3d565b91505092915050565b60006101e0828403121561305f5761305e613cee565b5b61306a6101e061394c565b9050600061307a84828501613005565b600083015250602061308e84828501613270565b602083015250604082013567ffffffffffffffff8111156130b2576130b1613cf3565b5b6130be8482850161301a565b60408301525060606130d284828501613270565b606083015250608082013567ffffffffffffffff8111156130f6576130f5613cf3565b5b61310284828501612f94565b60808301525060a082013567ffffffffffffffff81111561312657613125613cf3565b5b61313284828501612f94565b60a08301525060c082013567ffffffffffffffff81111561315657613155613cf3565b5b61316284828501612fc2565b60c08301525060e082013567ffffffffffffffff81111561318657613185613cf3565b5b61319284828501612fc2565b60e0830152506101006131a784828501613005565b6101008301525061012082013567ffffffffffffffff8111156131cd576131cc613cf3565b5b6131d984828501612f94565b6101208301525061014082013567ffffffffffffffff8111156131ff576131fe613cf3565b5b61320b84828501612fc2565b6101408301525061016061322184828501613005565b6101608301525061018061323784828501613005565b610180830152506101a061324d84828501612f7f565b6101a0830152506101c061326384828501612ff0565b6101c08301525092915050565b60008135905061327f81613f8b565b92915050565b60006020828403121561329b5761329a613d07565b5b60006132a984828501612f7f565b91505092915050565b6000602082840312156132c8576132c7613d07565b5b60006132d684828501613005565b91505092915050565b600080604083850312156132f6576132f5613d07565b5b600061330485828601613005565b925050602083013567ffffffffffffffff81111561332557613324613d02565b5b61333185828601612f94565b9150509250929050565b6000806040838503121561335257613351613d07565b5b600061336085828601613005565b925050602083013567ffffffffffffffff81111561338157613380613d02565b5b61338d85828601612fc2565b9150509250929050565b600080604083850312156133ae576133ad613d07565b5b60006133bc85828601613005565b925050602083013567ffffffffffffffff8111156133dd576133dc613d02565b5b6133e985828601613048565b9150509250929050565b6000806040838503121561340a57613409613d07565b5b600061341885828601613005565b925050602061342985828601613270565b9150509250929050565b60006020828403121561344957613448613d07565b5b600061345784828501613270565b91505092915050565b600061346c8383613490565b60208301905092915050565b60006134848383613579565b60208301905092915050565b61349981613b12565b82525050565b6134a881613b12565b82525050565b60006134b982613a1a565b6134c38185613a55565b93506134ce836139fa565b8060005b838110156134ff5781516134e68882613460565b97506134f183613a3b565b9250506001810190506134d2565b5085935050505092915050565b600061351782613a25565b6135218185613a66565b935061352c83613a0a565b8060005b8381101561355d5781516135448882613478565b975061354f83613a48565b925050600181019050613530565b5085935050505092915050565b61357381613b24565b82525050565b61358281613b30565b82525050565b61359181613b30565b82525050565b60006135a282613a30565b6135ac8185613a77565b93506135bc818560208601613b73565b6135c581613d0c565b840191505092915050565b60006135dd603483613a77565b91506135e882613d1d565b604082019050919050565b6000613600602483613a77565b915061360b82613d6c565b604082019050919050565b6000613623602783613a77565b915061362e82613dbb565b604082019050919050565b6000613646602483613a77565b915061365182613e0a565b604082019050919050565b6000613669602483613a77565b915061367482613e59565b604082019050919050565b600061368c603583613a77565b915061369782613ea8565b604082019050919050565b60006136af602c83613a77565b91506136ba82613ef7565b604082019050919050565b6136ce81613b5a565b82525050565b6136e56136e082613b5a565b613c52565b82525050565b60006136f782846136d4565b60208201915081905092915050565b600060208201905061371b600083018461349f565b92915050565b6000602082019050818103600083015261373b81846134ae565b905092915050565b6000602082019050818103600083015261375d818461350c565b905092915050565b600060208201905061377a600083018461356a565b92915050565b60006020820190506137956000830184613588565b92915050565b6000610120820190506137b1600083018c613588565b6137be602083018b6136c5565b81810360408301526137d0818a613597565b90506137df60608301896136c5565b6137ec6080830188613588565b6137f960a0830187613588565b61380660c0830186613588565b61381360e083018561349f565b61382161010083018461356a565b9a9950505050505050505050565b600060208201905081810360008301526138498184613597565b905092915050565b6000602082019050818103600083015261386a816135d0565b9050919050565b6000602082019050818103600083015261388a816135f3565b9050919050565b600060208201905081810360008301526138aa81613616565b9050919050565b600060208201905081810360008301526138ca81613639565b9050919050565b600060208201905081810360008301526138ea8161365c565b9050919050565b6000602082019050818103600083015261390a8161367f565b9050919050565b6000602082019050818103600083015261392a816136a2565b9050919050565b600060208201905061394660008301846136c5565b92915050565b6000613956613967565b90506139628282613bd8565b919050565b6000604051905090565b600067ffffffffffffffff82111561398c5761398b613cba565b5b602082029050602081019050919050565b600067ffffffffffffffff8211156139b8576139b7613cba565b5b602082029050602081019050919050565b600067ffffffffffffffff8211156139e4576139e3613cba565b5b6139ed82613d0c565b9050602081019050919050565b6000819050602082019050919050565b6000819050602082019050919050565b600081519050919050565b600081519050919050565b600081519050919050565b6000602082019050919050565b6000602082019050919050565b600082825260208201905092915050565b600082825260208201905092915050565b600082825260208201905092915050565b6000613a9382613b5a565b9150613a9e83613b5a565b9250827fffffffffffffffffffffffffffffffffffffffffffffffffffffffffffffffff03821115613ad357613ad2613c5c565b5b828201905092915050565b6000613ae982613b5a565b9150613af483613b5a565b925082821015613b0757613b06613c5c565b5b828203905092915050565b6000613b1d82613b3a565b9050919050565b60008115159050919050565b6000819050919050565b600073ffffffffffffffffffffffffffffffffffffffff82169050919050565b6000819050919050565b82818337600083830152505050565b60005b83811015613b91578082015181840152602081019050613b76565b83811115613ba0576000848401525b50505050565b60006002820490506001821680613bbe57607f821691505b60208210811415613bd257613bd1613c8b565b5b50919050565b613be182613d0c565b810181811067ffffffffffffffff82111715613c0057613bff613cba565b5b80604052505050565b6000613c1482613b5a565b91507fffffffffffffffffffffffffffffffffffffffffffffffffffffffffffffffff821415613c4757613c46613c5c565b5b600182019050919050565b6000819050919050565b7f4e487b7100000000000000000000000000000000000000000000000000000000600052601160045260246000fd5b7f4e487b7100000000000000000000000000000000000000000000000000000000600052602260045260246000fd5b7f4e487b7100000000000000000000000000000000000000000000000000000000600052604160045260246000fd5b600080fd5b600080fd5b600080fd5b600080fd5b600080fd5b600080fd5b600080fd5b6000601f19601f8301169050919050565b7f4572726f723a206d73672e73656e646572206d757374206265206d656d65466160008201527f63746f727920746f20637265617465206d656d65000000000000000000000000602082015250565b7f4572726f723a206f6e6c7920666163746f72795369676e65722063616e20646560008201527f6c65746500000000000000000000000000000000000000000000000000000000602082015250565b7f4572726f723a206d73672e73656e646572206d75737420626520666163746f7260008201527f795369676e657200000000000000000000000000000000000000000000000000602082015250565b7f4572726f723a206d73672e73656e646572206d75737420626520706f7374536960008201527f676e657200000000000000000000000000000000000000000000000000000000602082015250565b7f4572726f723a206d73672e73656e646572206d757374206265206c696b65536960008201527f676e657200000000000000000000000000000000000000000000000000000000602082015250565b7f4572726f723a206d73672e73656e646572206d757374206265206c696b652c2060008201527f706f73742c206f7220626f6f7374207369676e65720000000000000000000000602082015250565b7f4572726f723a206f6e6c7920666163746f72795369676e65722063616e20696e60008201527f63726561736520436f756e740000000000000000000000000000000000000000602082015250565b613f4f81613b12565b8114613f5a57600080fd5b50565b613f6681613b24565b8114613f7157600080fd5b50565b613f7d81613b30565b8114613f8857600080fd5b50565b613f9481613b5a565b8114613f9f57600080fd5b5056fea2646970667358221220111398f5a47a1ceba1f5a4f3077c59a7920c7138c88400cd860bb9bad5d1385d64736f6c63430008070033",
  "immutableReferences": {},
  "source": "// SPDX-License-Identifier: MIT\n\npragma solidity >=0.8.0 <0.9.0;\n\ncontract MemeStorage {\n  address public factorySigner;\n  address public interfaceSigner;\n  address public postSigner;\n  address public likeSigner;\n  address public boostSigner;\n\n  uint public memeCount = 0;\n  bytes32[] memeIds;\n\n  // mapping of Memes\n  mapping(bytes32 => Meme) public memes; // memeId to meme map\n\n  // Meme structure\n  struct Meme {\n    bytes32 id; // number in all of timeline\n    uint time; // time of post\n    string text; // text of Meme\n    uint boosts; // boost value\n    address[] likers; // list of addresses of likers\n    address[] unlikers; // list of addresses that have unliked\n    bytes32[] reposts; // list of ids that have reposted\n    bytes32[] quotePosts; // list of ids that have quotePosted\n    bytes32 repostId;// repost id\n    address[] tags; // list of id's of tagged\n    bytes32[] responses; // collection of id's of responses\n    bytes32 parentId; // memeId of parent (can be self)\n    bytes32 originId; // memeId of origin (can be self)\n    address author; // address of author\n    bool isVisible; // is visible\n  }\n\n  event FactorySignerChanged(address indexed from, address indexed to);\n  event InterfaceSignerChanged(address indexed from, address indexed to);\n  event PostSignerChanged(address indexed from, address indexed to);\n  event LikeSignerChanged(address indexed from, address indexed to);\n  event BoostSignerChanged(address indexed from, address indexed to);\n\n  constructor() public {\n    factorySigner = msg.sender;\n    interfaceSigner = msg.sender;\n    postSigner = msg.sender;\n    likeSigner = msg.sender;\n    boostSigner = msg.sender;\n  }\n\n  // Factory-Specific setters\n  function setMeme(\n    bytes32 _memeId,\n    Meme memory _meme\n  ) public {\n    require(\n      msg.sender==factorySigner,\n      'Error: msg.sender must be memeFactory to create meme');\n    memes[_memeId] = _meme;\n    memeIds.push(_memeId);\n  }\n  function deleteMeme(bytes32 _memeId) public {\n    require(\n      msg.sender==factorySigner,\n      'Error: only factorySigner can delete');\n    // create empty Meme instance\n    delete memes[_memeId];\n  }\n  function increaseMemeCount() public {\n    require(\n      msg.sender==factorySigner,\n      'Error: only factorySigner can increase Count'\n    );\n    memeCount++;\n  }\n\n  function setResponses(\n    bytes32 _memeId,\n    bytes32[] memory _responses\n  ) public {\n    require(\n      msg.sender==factorySigner,\n      'Error: msg.sender must be factorySigner');\n    memes[_memeId].responses = _responses;\n  }\n\n  function setReposts(\n    bytes32 _memeId,\n    bytes32[] memory _reposts\n  ) public {\n    require(\n      msg.sender==factorySigner,\n      'Error: msg.sender must be factorySigner');\n    memes[_memeId].reposts = _reposts;\n  }\n  function setQuotePosts(\n    bytes32 _memeId,\n    bytes32[] memory _quotePosts\n  ) public {\n    require(\n      msg.sender==factorySigner,\n      'Error: msg.sender must be factorySigner');\n    memes[_memeId].quotePosts = _quotePosts;\n  }\n\n  function setLikers(\n    bytes32 _memeId,\n    address[] memory _likers\n  ) public {\n    require(\n      msg.sender==likeSigner,\n      'Error: msg.sender must be likeSigner');\n    memes[_memeId].likers = _likers;\n  }\n  function setUnlikers(\n    bytes32 _memeId,\n    address[] memory _unlikers\n  ) public {\n    require(\n      msg.sender==likeSigner,\n      'Error: msg.sender must be likeSigner');\n    memes[_memeId].unlikers = _unlikers;\n  }\n\n  function addBoost(\n    bytes32 _memeId,\n    uint _boosts\n  ) public {\n    require(\n      msg.sender==boostSigner ||\n      msg.sender==likeSigner ||\n      msg.sender==postSigner ||\n      msg.sender==factorySigner,\n      'Error: msg.sender must be like, post, or boost signer');\n    memes[_memeId].boosts += _boosts;\n  }\n  function subtractBoost(\n    bytes32 _memeId,\n    uint _boosts\n  ) public {\n    require(\n      msg.sender==boostSigner,\n      'Error: msg.sender must be like, post, or boost signer');\n    memes[_memeId].boosts -= _boosts;\n  }\n\n  // getter functions for Meme\n  function getMemeCount() public view returns(uint) {\n    return memeCount;\n  }\n\n  function getText(bytes32 _memeId) public view returns(string memory) {\n    return memes[_memeId].text;\n  }\n  function getLikeCount(bytes32 _memeId) public view returns(uint) {\n    return memes[_memeId].likers.length;\n  }\n  function getBoost(bytes32 _memeId) public view returns(uint) {\n    return memes[_memeId].boosts;\n  }\n  function getLikers(bytes32 _memeId) public view returns(address[] memory) {\n    return memes[_memeId].likers;\n  }\n  function getUnlikers(bytes32 _memeId) public view returns(address[] memory) {\n    return memes[_memeId].unlikers;\n  }\n  function getRepostCount(bytes32 _memeId) public view returns(uint) {\n    return memes[_memeId].reposts.length;\n  }\n  function getReposts(bytes32 _memeId) public view returns(bytes32[] memory) {\n    return memes[_memeId].reposts;\n  }\n  function getQuotePostCount(bytes32 _memeId) public view returns(uint) {\n    return memes[_memeId].quotePosts.length;\n  }\n  function getQuotePosts(bytes32 _memeId) public view returns(bytes32[] memory) {\n    return memes[_memeId].quotePosts;\n  }\n  function getTags(bytes32 _memeId) public view returns(address[] memory) {\n    return memes[_memeId].tags;\n  }\n  function getResponseCount(bytes32 _memeId) public view returns(uint) {\n    return memes[_memeId].responses.length;\n  }\n  function getResponses(bytes32 _memeId) public view returns(bytes32[] memory) {\n    return memes[_memeId].responses;\n  }\n  function getParentId(bytes32 _memeId) public view returns(bytes32) {\n    return memes[_memeId].parentId;\n  }\n  function getOriginId(bytes32 _memeId) public view returns(bytes32) {\n    return memes[_memeId].originId;\n  }\n  function getRepostId(bytes32 _memeId) public view returns(bytes32) {\n    return memes[_memeId].repostId;\n  }\n  function getAuthor(bytes32 _memeId) public view returns(address) {\n    return memes[_memeId].author;\n  }\n  function getVisibility(bytes32 _memeId) public view returns(bool) {\n    return memes[_memeId].isVisible;\n  }\n\n// encode uint for testing\n  function getEncodeId(uint _memeId) public view returns(bytes32) {\n    return memes[keccak256(abi.encodePacked(_memeId))].id;\n  }\n  function getEncodeLikeCount(uint _memeId) public view returns(uint) {\n    return memes[keccak256(abi.encodePacked(_memeId))].likers.length;\n  }\n  function getEncodeLikers(uint _memeId) public view returns(address[] memory) {\n    return memes[keccak256(abi.encodePacked(_memeId))].likers;\n  }\n  function getEncodeUnlikers(uint _memeId) public view returns(address[] memory) {\n    return memes[keccak256(abi.encodePacked(_memeId))].unlikers;\n  }\n  function getEncodeRepostCount(uint _memeId) public view returns(uint) {\n    return memes[keccak256(abi.encodePacked(_memeId))].reposts.length;\n  }\n  function getEncodeReposts(uint _memeId) public view returns(bytes32[] memory) {\n    return memes[keccak256(abi.encodePacked(_memeId))].reposts;\n  }\n  function getEncodeQuotePostCount(uint _memeId) public view returns(uint) {\n    return memes[keccak256(abi.encodePacked(_memeId))].quotePosts.length;\n  }\n  function getEncodeQuotePosts(uint _memeId) public view returns(bytes32[] memory) {\n    return memes[keccak256(abi.encodePacked(_memeId))].quotePosts;\n  }\n  function getEncodeTags(uint _memeId) public view returns(address[] memory) {\n    return memes[keccak256(abi.encodePacked(_memeId))].tags;\n  }\n  function getEncodeResponseCount(uint _memeId) public view returns(uint) {\n    return memes[keccak256(abi.encodePacked(_memeId))].responses.length;\n  }\n  function getEncodeResponses(uint _memeId) public view returns(bytes32[] memory) {\n    return memes[keccak256(abi.encodePacked(_memeId))].responses;\n  }\n  function getEncodeParentId(uint _memeId) public view returns(bytes32) {\n    return memes[keccak256(abi.encodePacked(_memeId))].parentId;\n  }\n  function getEncodeOriginId(uint _memeId) public view returns(bytes32) {\n    return memes[keccak256(abi.encodePacked(_memeId))].originId;\n  }\n  function getEncodeAuthor(uint _memeId) public view returns(address) {\n    return memes[keccak256(abi.encodePacked(_memeId))].author;\n  }\n  function getEncodeVisibility(uint _memeId) public view returns(bool) {\n    return memes[keccak256(abi.encodePacked(_memeId))].isVisible;\n  }\n  function getEncodedIds() public view returns(bytes32[] memory) {\n    return memeIds;\n  }\n\n  // set caller role to User upon deployment\n  function passFactorySigner(address _memeFactory) public returns (bool) {\n    require(\n      msg.sender == factorySigner,\n      'Error: msg.sender must be factorySigner');\n\n    factorySigner = _memeFactory;\n    emit FactorySignerChanged(msg.sender, factorySigner);\n    return true;\n  }\n  function passInterfaceSigner(address _userInterface) public returns (bool) {\n    require(\n      msg.sender == interfaceSigner,\n      'Error: msg.sender must be factorySigner');\n\n    interfaceSigner = _userInterface;\n    emit InterfaceSignerChanged(msg.sender, interfaceSigner);\n    return true;\n  }\n  function passPostSigner(address _post) public returns (bool) {\n    require(\n      msg.sender == postSigner,\n      'Error: msg.sender must be postSigner');\n\n    postSigner = _post;\n    emit PostSignerChanged(msg.sender, postSigner);\n    return true;\n  }\n  function passLikeSigner(address _like) public returns (bool) {\n    require(\n      msg.sender == likeSigner,\n      'Error: msg.sender must be likeSigner');\n\n    likeSigner = _like;\n    emit LikeSignerChanged(msg.sender, likeSigner);\n    return true;\n  }\n  function passBoostSigner(address _boost) public returns (bool) {\n    require(\n      msg.sender == boostSigner,\n      'Error: msg.sender must be likeSigner');\n\n    boostSigner = _boost;\n    emit BoostSignerChanged(msg.sender, boostSigner);\n    return true;\n  }\n}\n",
  "sourcePath": "/Users/jaiq/Documents/000 BLOCKCHAIN/ETH/uMe/src/contracts/MemeStorage.sol",
  "compiler": {
    "name": "solc",
    "version": "0.8.7+commit.e28d00a7.Emscripten.clang"
  },
  "schemaVersion": "3.4.3",
  "updatedAt": "2021-10-06T00:40:46.985Z",
  "networkType": "ethereum",
  "devdoc": {
    "kind": "dev",
    "methods": {},
    "version": 1
  },
  "userdoc": {
    "kind": "user",
    "methods": {},
    "version": 1
  }
}