{
  "contractName": "MemeFactory",
  "abi": [
    {
      "inputs": [
        {
          "internalType": "contract UME",
          "name": "_umeToken",
          "type": "address"
        },
        {
          "internalType": "contract MemeStorage",
          "name": "_memeStorage",
          "type": "address"
        },
        {
          "internalType": "contract UserStorage",
          "name": "_userStorage",
          "type": "address"
        }
      ],
      "stateMutability": "nonpayable",
      "type": "constructor"
    },
    {
      "anonymous": false,
      "inputs": [
        {
          "indexed": false,
          "internalType": "bytes32",
          "name": "memeId",
          "type": "bytes32"
        },
        {
          "indexed": false,
          "internalType": "uint256",
          "name": "time",
          "type": "uint256"
        },
        {
          "indexed": true,
          "internalType": "address",
          "name": "account",
          "type": "address"
        }
      ],
      "name": "MemeCreated",
      "type": "event"
    },
    {
      "anonymous": false,
      "inputs": [
        {
          "indexed": false,
          "internalType": "bytes32",
          "name": "memeId",
          "type": "bytes32"
        },
        {
          "indexed": false,
          "internalType": "uint256",
          "name": "time",
          "type": "uint256"
        },
        {
          "indexed": true,
          "internalType": "address",
          "name": "account",
          "type": "address"
        }
      ],
      "name": "MemeDeleted",
      "type": "event"
    },
    {
      "anonymous": false,
      "inputs": [
        {
          "indexed": true,
          "internalType": "address",
          "name": "from",
          "type": "address"
        },
        {
          "indexed": true,
          "internalType": "address",
          "name": "to",
          "type": "address"
        }
      ],
      "name": "PostSignerChanged",
      "type": "event"
    },
    {
      "inputs": [
        {
          "internalType": "address",
          "name": "_account",
          "type": "address"
        },
        {
          "internalType": "string",
          "name": "_memeText",
          "type": "string"
        },
        {
          "internalType": "address[]",
          "name": "_tags",
          "type": "address[]"
        },
        {
          "internalType": "bytes32",
          "name": "_parentId",
          "type": "bytes32"
        },
        {
          "internalType": "bytes32",
          "name": "_originId",
          "type": "bytes32"
        },
        {
          "internalType": "bytes32",
          "name": "_repostId",
          "type": "bytes32"
        }
      ],
      "name": "newMeme",
      "outputs": [],
      "stateMutability": "nonpayable",
      "type": "function"
    },
    {
      "inputs": [
        {
          "internalType": "address",
          "name": "_account",
          "type": "address"
        },
        {
          "internalType": "bytes32",
          "name": "_memeId",
          "type": "bytes32"
        }
      ],
      "name": "deleteMeme",
      "outputs": [],
      "stateMutability": "nonpayable",
      "type": "function"
    },
    {
      "inputs": [
        {
          "internalType": "address",
          "name": "_post",
          "type": "address"
        }
      ],
      "name": "passPostSigner",
      "outputs": [
        {
          "internalType": "bool",
          "name": "",
          "type": "bool"
        }
      ],
      "stateMutability": "nonpayable",
      "type": "function"
    }
  ],
  "bytecode": "0x60806040523480156200001157600080fd5b5060405162002a5138038062002a51833981810160405281019062000037919062000188565b826000806101000a81548173ffffffffffffffffffffffffffffffffffffffff021916908373ffffffffffffffffffffffffffffffffffffffff16021790555081600160006101000a81548173ffffffffffffffffffffffffffffffffffffffff021916908373ffffffffffffffffffffffffffffffffffffffff16021790555080600260006101000a81548173ffffffffffffffffffffffffffffffffffffffff021916908373ffffffffffffffffffffffffffffffffffffffff16021790555033600460006101000a81548173ffffffffffffffffffffffffffffffffffffffff021916908373ffffffffffffffffffffffffffffffffffffffff160217905550505050620002a7565b600081519050620001548162000259565b92915050565b6000815190506200016b8162000273565b92915050565b60008151905062000182816200028d565b92915050565b600080600060608486031215620001a457620001a362000254565b5b6000620001b4868287016200015a565b9350506020620001c78682870162000143565b9250506040620001da8682870162000171565b9150509250925092565b6000620001f18262000234565b9050919050565b60006200020582620001e4565b9050919050565b60006200021982620001e4565b9050919050565b60006200022d82620001e4565b9050919050565b600073ffffffffffffffffffffffffffffffffffffffff82169050919050565b600080fd5b6200026481620001f8565b81146200027057600080fd5b50565b6200027e816200020c565b81146200028a57600080fd5b50565b620002988162000220565b8114620002a457600080fd5b50565b61279a80620002b76000396000f3fe608060405234801561001057600080fd5b50600436106100415760003560e01c8063648c59eb146100465780637527e62414610062578063a6838c7b1461007e575b600080fd5b610060600480360381019061005b9190611b14565b6100ae565b005b61007c60048036038101906100779190611b54565b61043d565b005b61009860048036038101906100939190611aba565b611062565b6040516100a59190612133565b60405180910390f35b3373ffffffffffffffffffffffffffffffffffffffff16600460009054906101000a900473ffffffffffffffffffffffffffffffffffffffff1673ffffffffffffffffffffffffffffffffffffffff161461013e576040517f08c379a00000000000000000000000000000000000000000000000000000000081526004016101359061223b565b60405180910390fd5b6000600160009054906101000a900473ffffffffffffffffffffffffffffffffffffffff1673ffffffffffffffffffffffffffffffffffffffff16637071af84836040518263ffffffff1660e01b815260040161019b919061214e565b60206040518083038186803b1580156101b357600080fd5b505afa1580156101c7573d6000803e3d6000fd5b505050506040513d601f19601f820116820180604052508101906101eb9190611c62565b90506000600160009054906101000a900473ffffffffffffffffffffffffffffffffffffffff1673ffffffffffffffffffffffffffffffffffffffff1663fae60664836040518263ffffffff1660e01b815260040161024a919061214e565b60206040518083038186803b15801561026257600080fd5b505afa158015610276573d6000803e3d6000fd5b505050506040513d601f19601f8201168201806040525081019061029a9190611c8f565b111561035b5761035a8282600160009054906101000a900473ffffffffffffffffffffffffffffffffffffffff1673ffffffffffffffffffffffffffffffffffffffff1663d4b8df22866040518263ffffffff1660e01b8152600401610300919061214e565b60006040518083038186803b15801561031857600080fd5b505afa15801561032c573d6000803e3d6000fd5b505050506040513d6000823e3d601f19601f820116820180604052508101906103559190611c19565b6111ba565b5b600160009054906101000a900473ffffffffffffffffffffffffffffffffffffffff1673ffffffffffffffffffffffffffffffffffffffff1663aaf837c5836040518263ffffffff1660e01b81526004016103b6919061214e565b600060405180830381600087803b1580156103d057600080fd5b505af11580156103e4573d6000803e3d6000fd5b505050508273ffffffffffffffffffffffffffffffffffffffff167f31a29f3d549b51b33c10acca465864df60975bf964406b8289c210ecea130faa83426040516104309291906121f2565b60405180910390a2505050565b600460009054906101000a900473ffffffffffffffffffffffffffffffffffffffff1673ffffffffffffffffffffffffffffffffffffffff163373ffffffffffffffffffffffffffffffffffffffff16146104cd576040517f08c379a00000000000000000000000000000000000000000000000000000000081526004016104c49061221b565b60405180910390fd5b600160009054906101000a900473ffffffffffffffffffffffffffffffffffffffff1673ffffffffffffffffffffffffffffffffffffffff1663f8f3d0376040518163ffffffff1660e01b8152600401600060405180830381600087803b15801561053757600080fd5b505af115801561054b573d6000803e3d6000fd5b505050506000600160009054906101000a900473ffffffffffffffffffffffffffffffffffffffff1673ffffffffffffffffffffffffffffffffffffffff16637b2124d26040518163ffffffff1660e01b815260040160206040518083038186803b1580156105b957600080fd5b505afa1580156105cd573d6000803e3d6000fd5b505050506040513d601f19601f820116820180604052508101906105f19190611c8f565b60405160200161060191906120a4565b604051602081830303815290604052805190602001209050600354841415610627578093505b600354831415610635578092505b600160009054906101000a900473ffffffffffffffffffffffffffffffffffffffff1673ffffffffffffffffffffffffffffffffffffffff1663ddf60c9382604051806101e001604052808581526020014281526020018a815260200160008152602001600067ffffffffffffffff8111156106b4576106b36125d9565b5b6040519080825280602002602001820160405280156106e25781602001602082028036833780820191505090505b508152602001600067ffffffffffffffff811115610703576107026125d9565b5b6040519080825280602002602001820160405280156107315781602001602082028036833780820191505090505b508152602001600067ffffffffffffffff811115610752576107516125d9565b5b6040519080825280602002602001820160405280156107805781602001602082028036833780820191505090505b508152602001600067ffffffffffffffff8111156107a1576107a06125d9565b5b6040519080825280602002602001820160405280156107cf5781602001602082028036833780820191505090505b508152602001868152602001898152602001600067ffffffffffffffff8111156107fc576107fb6125d9565b5b60405190808252806020026020018201604052801561082a5781602001602082028036833780820191505090505b5081526020018881526020018781526020018b73ffffffffffffffffffffffffffffffffffffffff168152602001600115158152506040518363ffffffff1660e01b815260040161087c9291906121c2565b600060405180830381600087803b15801561089657600080fd5b505af11580156108aa573d6000803e3d6000fd5b505050508381141580156108bd57508284145b801561099f57508673ffffffffffffffffffffffffffffffffffffffff16600160009054906101000a900473ffffffffffffffffffffffffffffffffffffffff1673ffffffffffffffffffffffffffffffffffffffff1663691d1c28866040518263ffffffff1660e01b8152600401610936919061214e565b60206040518083038186803b15801561094e57600080fd5b505afa158015610962573d6000803e3d6000fd5b505050506040513d601f19601f820116820180604052508101906109869190611ae7565b73ffffffffffffffffffffffffffffffffffffffff1614155b15610aea5760008054906101000a900473ffffffffffffffffffffffffffffffffffffffff1673ffffffffffffffffffffffffffffffffffffffff1663bc83419588600160009054906101000a900473ffffffffffffffffffffffffffffffffffffffff1673ffffffffffffffffffffffffffffffffffffffff1663691d1c28886040518263ffffffff1660e01b8152600401610a3c919061214e565b60206040518083038186803b158015610a5457600080fd5b505afa158015610a68573d6000803e3d6000fd5b505050506040513d601f19601f82011682018060405250810190610a8c9190611ae7565b6040518363ffffffff1660e01b8152600401610aa99291906120da565b600060405180830381600087803b158015610ac357600080fd5b505af1158015610ad7573d6000803e3d6000fd5b50505050610ae5818561132c565b610e5b565b838114158015610afa5750828414155b8015610bdc57508673ffffffffffffffffffffffffffffffffffffffff16600160009054906101000a900473ffffffffffffffffffffffffffffffffffffffff1673ffffffffffffffffffffffffffffffffffffffff1663691d1c28856040518263ffffffff1660e01b8152600401610b73919061214e565b60206040518083038186803b158015610b8b57600080fd5b505afa158015610b9f573d6000803e3d6000fd5b505050506040513d601f19601f82011682018060405250810190610bc39190611ae7565b73ffffffffffffffffffffffffffffffffffffffff1614155b15610e5a5760008054906101000a900473ffffffffffffffffffffffffffffffffffffffff1673ffffffffffffffffffffffffffffffffffffffff1663bc83419588600160009054906101000a900473ffffffffffffffffffffffffffffffffffffffff1673ffffffffffffffffffffffffffffffffffffffff1663691d1c28876040518263ffffffff1660e01b8152600401610c79919061214e565b60206040518083038186803b158015610c9157600080fd5b505afa158015610ca5573d6000803e3d6000fd5b505050506040513d601f19601f82011682018060405250810190610cc99190611ae7565b6040518363ffffffff1660e01b8152600401610ce69291906120da565b600060405180830381600087803b158015610d0057600080fd5b505af1158015610d14573d6000803e3d6000fd5b5050505060008054906101000a900473ffffffffffffffffffffffffffffffffffffffff1673ffffffffffffffffffffffffffffffffffffffff1663e981dc8f88600160009054906101000a900473ffffffffffffffffffffffffffffffffffffffff1673ffffffffffffffffffffffffffffffffffffffff1663691d1c28876040518263ffffffff1660e01b8152600401610db0919061214e565b60206040518083038186803b158015610dc857600080fd5b505afa158015610ddc573d6000803e3d6000fd5b505050506040513d601f19601f82011682018060405250810190610e009190611ae7565b6040518363ffffffff1660e01b8152600401610e1d9291906120da565b600060405180830381600087803b158015610e3757600080fd5b505af1158015610e4b573d6000803e3d6000fd5b50505050610e59818561132c565b5b5b60005b8551811015610f6f57858181518110610e7a57610e796125aa565b5b602002602001015173ffffffffffffffffffffffffffffffffffffffff168873ffffffffffffffffffffffffffffffffffffffff1614610f5c5760008054906101000a900473ffffffffffffffffffffffffffffffffffffffff1673ffffffffffffffffffffffffffffffffffffffff16632cc67a7c89888481518110610f0457610f036125aa565b5b60200260200101516040518363ffffffff1660e01b8152600401610f299291906120da565b600060405180830381600087803b158015610f4357600080fd5b505af1158015610f57573d6000803e3d6000fd5b505050505b8080610f6790612528565b915050610e5e565b50610f7a878261155b565b600260009054906101000a900473ffffffffffffffffffffffffffffffffffffffff1673ffffffffffffffffffffffffffffffffffffffff1663e07dbb1082896040518363ffffffff1660e01b8152600401610fd7929190612169565b600060405180830381600087803b158015610ff157600080fd5b505af1158015611005573d6000803e3d6000fd5b505050508673ffffffffffffffffffffffffffffffffffffffff167f1838922b4eb20492c478bbdc44a1f4e1cb49bc4702a0af8f4448a412bb5769e482426040516110519291906121f2565b60405180910390a250505050505050565b6000600460009054906101000a900473ffffffffffffffffffffffffffffffffffffffff1673ffffffffffffffffffffffffffffffffffffffff163373ffffffffffffffffffffffffffffffffffffffff16146110f4576040517f08c379a00000000000000000000000000000000000000000000000000000000081526004016110eb9061225b565b60405180910390fd5b81600460006101000a81548173ffffffffffffffffffffffffffffffffffffffff021916908373ffffffffffffffffffffffffffffffffffffffff160217905550600460009054906101000a900473ffffffffffffffffffffffffffffffffffffffff1673ffffffffffffffffffffffffffffffffffffffff163373ffffffffffffffffffffffffffffffffffffffff167f76ce921e20c471c95deae34d20d53706ec4378ecab394e517f73aef912ae6cdd60405160405180910390a360019050919050565b60008151905060006001826111cf919061242f565b67ffffffffffffffff8111156111e8576111e76125d9565b5b6040519080825280602002602001820160405280156112165781602001602082028036833780820191505090505b509050600182111561129657600080600090505b838110156112875786858281518110611246576112456125aa565b5b60200260200101511480156112675750600184611263919061242f565b8114155b1561127457809150611287565b808061127f90612528565b91505061122a565b50611292848261177d565b9150505b600160009054906101000a900473ffffffffffffffffffffffffffffffffffffffff1673ffffffffffffffffffffffffffffffffffffffff1663bacd910c85836040518363ffffffff1660e01b81526004016112f3929190612192565b600060405180830381600087803b15801561130d57600080fd5b505af1158015611321573d6000803e3d6000fd5b505050505050505050565b6000600160009054906101000a900473ffffffffffffffffffffffffffffffffffffffff1673ffffffffffffffffffffffffffffffffffffffff1663d4b8df22846040518263ffffffff1660e01b8152600401611389919061214e565b60006040518083038186803b1580156113a157600080fd5b505afa1580156113b5573d6000803e3d6000fd5b505050506040513d6000823e3d601f19601f820116820180604052508101906113de9190611c19565b905060008151905060006001826113f591906123d9565b67ffffffffffffffff81111561140e5761140d6125d9565b5b60405190808252806020026020018201604052801561143c5781602001602082028036833780820191505090505b50905060005b828110156114975783818151811061145d5761145c6125aa565b5b6020026020010151828281518110611478576114776125aa565b5b602002602001018181525050808061148f90612528565b915050611442565b508481600183516114a8919061242f565b815181106114b9576114b86125aa565b5b602002602001018181525050600160009054906101000a900473ffffffffffffffffffffffffffffffffffffffff1673ffffffffffffffffffffffffffffffffffffffff1663bacd910c85836040518363ffffffff1660e01b8152600401611522929190612192565b600060405180830381600087803b15801561153c57600080fd5b505af1158015611550573d6000803e3d6000fd5b505050505050505050565b6000600260009054906101000a900473ffffffffffffffffffffffffffffffffffffffff1673ffffffffffffffffffffffffffffffffffffffff16634caf9d0b846040518263ffffffff1660e01b81526004016115b891906120bf565b60006040518083038186803b1580156115d057600080fd5b505afa1580156115e4573d6000803e3d6000fd5b505050506040513d6000823e3d601f19601f8201168201806040525081019061160d9190611c19565b9050600081519050600060018261162491906123d9565b67ffffffffffffffff81111561163d5761163c6125d9565b5b60405190808252806020026020018201604052801561166b5781602001602082028036833780820191505090505b50905060005b828110156116c65783818151811061168c5761168b6125aa565b5b60200260200101518282815181106116a7576116a66125aa565b5b60200260200101818152505080806116be90612528565b915050611671565b50838183815181106116db576116da6125aa565b5b602002602001018181525050600260009054906101000a900473ffffffffffffffffffffffffffffffffffffffff1673ffffffffffffffffffffffffffffffffffffffff1663bb58f85d86836040518363ffffffff1660e01b8152600401611744929190612103565b600060405180830381600087803b15801561175e57600080fd5b505af1158015611772573d6000803e3d6000fd5b505050505050505050565b606060006001845161178f919061242f565b67ffffffffffffffff8111156117a8576117a76125d9565b5b6040519080825280602002602001820160405280156117d65781602001602082028036833780820191505090505b50905060005b83811015611831578481815181106117f7576117f66125aa565b5b6020026020010151828281518110611812576118116125aa565b5b602002602001018181525050808061182990612528565b9150506117dc565b5060008390505b815181101561189a578460018261184f91906123d9565b815181106118605761185f6125aa565b5b602002602001015182828151811061187b5761187a6125aa565b5b602002602001018181525050808061189290612528565b915050611838565b508091505092915050565b60006118b86118b3846122a0565b61227b565b905080838252602082019050828560208602820111156118db576118da61260d565b5b60005b8581101561190b57816118f188826119c7565b8452602084019350602083019250506001810190506118de565b5050509392505050565b6000611928611923846122cc565b61227b565b9050808382526020820190508285602086028201111561194b5761194a61260d565b5b60005b8581101561197b57816119618882611a62565b84526020840193506020830192505060018101905061194e565b5050509392505050565b6000611998611993846122f8565b61227b565b9050828152602081018484840111156119b4576119b3612612565b5b6119bf8482856124b5565b509392505050565b6000813590506119d68161271f565b92915050565b6000815190506119eb8161271f565b92915050565b600082601f830112611a0657611a05612608565b5b8135611a168482602086016118a5565b91505092915050565b600082601f830112611a3457611a33612608565b5b8151611a44848260208601611915565b91505092915050565b600081359050611a5c81612736565b92915050565b600081519050611a7181612736565b92915050565b600082601f830112611a8c57611a8b612608565b5b8135611a9c848260208601611985565b91505092915050565b600081519050611ab48161274d565b92915050565b600060208284031215611ad057611acf61261c565b5b6000611ade848285016119c7565b91505092915050565b600060208284031215611afd57611afc61261c565b5b6000611b0b848285016119dc565b91505092915050565b60008060408385031215611b2b57611b2a61261c565b5b6000611b39858286016119c7565b9250506020611b4a85828601611a4d565b9150509250929050565b60008060008060008060c08789031215611b7157611b7061261c565b5b6000611b7f89828a016119c7565b965050602087013567ffffffffffffffff811115611ba057611b9f612617565b5b611bac89828a01611a77565b955050604087013567ffffffffffffffff811115611bcd57611bcc612617565b5b611bd989828a016119f1565b9450506060611bea89828a01611a4d565b9350506080611bfb89828a01611a4d565b92505060a0611c0c89828a01611a4d565b9150509295509295509295565b600060208284031215611c2f57611c2e61261c565b5b600082015167ffffffffffffffff811115611c4d57611c4c612617565b5b611c5984828501611a1f565b91505092915050565b600060208284031215611c7857611c7761261c565b5b6000611c8684828501611a62565b91505092915050565b600060208284031215611ca557611ca461261c565b5b6000611cb384828501611aa5565b91505092915050565b6000611cc88383611cec565b60208301905092915050565b6000611ce08383611e42565b60208301905092915050565b611cf581612463565b82525050565b611d0481612463565b82525050565b6000611d1582612349565b611d1f8185612384565b9350611d2a83612329565b8060005b83811015611d5b578151611d428882611cbc565b9750611d4d8361236a565b925050600181019050611d2e565b5085935050505092915050565b6000611d7382612354565b611d7d8185612395565b9350611d8883612339565b8060005b83811015611db9578151611da08882611cd4565b9750611dab83612377565b925050600181019050611d8c565b5085935050505092915050565b6000611dd182612354565b611ddb81856123a6565b9350611de683612339565b8060005b83811015611e17578151611dfe8882611cd4565b9750611e0983612377565b925050600181019050611dea565b5085935050505092915050565b611e2d81612475565b82525050565b611e3c81612475565b82525050565b611e4b81612481565b82525050565b611e5a81612481565b82525050565b6000611e6b8261235f565b611e7581856123b7565b9350611e858185602086016124c4565b611e8e81612621565b840191505092915050565b6000611ea6602b836123c8565b9150611eb182612632565b604082019050919050565b6000611ec96022836123c8565b9150611ed482612681565b604082019050919050565b6000611eec602e836123c8565b9150611ef7826126d0565b604082019050919050565b60006101e083016000830151611f1b6000860182611e42565b506020830151611f2e602086018261206f565b5060408301518482036040860152611f468282611e60565b9150506060830151611f5b606086018261206f565b5060808301518482036080860152611f738282611d0a565b91505060a083015184820360a0860152611f8d8282611d0a565b91505060c083015184820360c0860152611fa78282611d68565b91505060e083015184820360e0860152611fc18282611d68565b915050610100830151611fd8610100860182611e42565b50610120830151848203610120860152611ff28282611d0a565b91505061014083015184820361014086015261200e8282611d68565b915050610160830151612025610160860182611e42565b5061018083015161203a610180860182611e42565b506101a083015161204f6101a0860182611cec565b506101c08301516120646101c0860182611e24565b508091505092915050565b612078816124ab565b82525050565b612087816124ab565b82525050565b61209e612099826124ab565b612571565b82525050565b60006120b0828461208d565b60208201915081905092915050565b60006020820190506120d46000830184611cfb565b92915050565b60006040820190506120ef6000830185611cfb565b6120fc6020830184611cfb565b9392505050565b60006040820190506121186000830185611cfb565b818103602083015261212a8184611dc6565b90509392505050565b60006020820190506121486000830184611e33565b92915050565b60006020820190506121636000830184611e51565b92915050565b600060408201905061217e6000830185611e51565b61218b6020830184611cfb565b9392505050565b60006040820190506121a76000830185611e51565b81810360208301526121b98184611dc6565b90509392505050565b60006040820190506121d76000830185611e51565b81810360208301526121e98184611f02565b90509392505050565b60006040820190506122076000830185611e51565b612214602083018461207e565b9392505050565b6000602082019050818103600083015261223481611e99565b9050919050565b6000602082019050818103600083015261225481611ebc565b9050919050565b6000602082019050818103600083015261227481611edf565b9050919050565b6000612285612296565b905061229182826124f7565b919050565b6000604051905090565b600067ffffffffffffffff8211156122bb576122ba6125d9565b5b602082029050602081019050919050565b600067ffffffffffffffff8211156122e7576122e66125d9565b5b602082029050602081019050919050565b600067ffffffffffffffff821115612313576123126125d9565b5b61231c82612621565b9050602081019050919050565b6000819050602082019050919050565b6000819050602082019050919050565b600081519050919050565b600081519050919050565b600081519050919050565b6000602082019050919050565b6000602082019050919050565b600082825260208201905092915050565b600082825260208201905092915050565b600082825260208201905092915050565b600082825260208201905092915050565b600082825260208201905092915050565b60006123e4826124ab565b91506123ef836124ab565b9250827fffffffffffffffffffffffffffffffffffffffffffffffffffffffffffffffff038211156124245761242361257b565b5b828201905092915050565b600061243a826124ab565b9150612445836124ab565b9250828210156124585761245761257b565b5b828203905092915050565b600061246e8261248b565b9050919050565b60008115159050919050565b6000819050919050565b600073ffffffffffffffffffffffffffffffffffffffff82169050919050565b6000819050919050565b82818337600083830152505050565b60005b838110156124e25780820151818401526020810190506124c7565b838111156124f1576000848401525b50505050565b61250082612621565b810181811067ffffffffffffffff8211171561251f5761251e6125d9565b5b80604052505050565b6000612533826124ab565b91507fffffffffffffffffffffffffffffffffffffffffffffffffffffffffffffffff8214156125665761256561257b565b5b600182019050919050565b6000819050919050565b7f4e487b7100000000000000000000000000000000000000000000000000000000600052601160045260246000fd5b7f4e487b7100000000000000000000000000000000000000000000000000000000600052603260045260246000fd5b7f4e487b7100000000000000000000000000000000000000000000000000000000600052604160045260246000fd5b600080fd5b600080fd5b600080fd5b600080fd5b600080fd5b6000601f19601f8301169050919050565b7f4572726f723a206d73672e73656e646572206d75737420626520696e7465726660008201527f616365287369676e657229000000000000000000000000000000000000000000602082015250565b7f4572726f723a206f6e6c79207369676e65722063616e2064656c657465206d6560008201527f6d65000000000000000000000000000000000000000000000000000000000000602082015250565b7f4572726f723a206f6e6c79206465706c6f7965722063616e207061737320706f60008201527f7374207369676e657220726f6c65000000000000000000000000000000000000602082015250565b61272881612463565b811461273357600080fd5b50565b61273f81612481565b811461274a57600080fd5b50565b612756816124ab565b811461276157600080fd5b5056fea2646970667358221220d360c252e6eaf9b0b8a00ca8be7ab830ec31d64f3245fa5f5b258d5769692e3564736f6c63430008070033",
  "immutableReferences": {},
  "source": "// SPDX-License-Identifier: MIT\n\npragma solidity >=0.8.0 <0.9.0;\n\nimport \"./UME.sol\";\nimport \"./MemeStorage.sol\";\nimport \"./UserStorage.sol\";\n\ncontract MemeFactory {\n  // public variables\n  UME private umeToken;\n  MemeStorage private memeStorage;\n  UserStorage private userStorage;\n  bytes32 zeroBytes;\n\n  address private postSigner;\n/*\n  // Meme structure\n  struct Meme {\n    bytes32 id; // number in all of timeline\n    uint time; // time of post\n    string text; // test of Meme\n    uint boost; // boost value\n    address[] likers; // list of addresses of likers\n    address[] unlikers; // list of addresses that have unliked\n    bytes32[] reposts; // list of addresses that have reposted\n    bytes32[] quotePosts; // list of addresses that have quotePosted\n    bytes32 repostId;// repost id\n    address[] tags; // list of id's of tagged\n    bytes32[] responses; // collection of id's of responses\n    bytes32 parentId; // memeId of parent (can be self)\n    bytes32 originId; // memeId of origin (can be self)\n    address author; // address of author\n    bool isVisible; // is visible\n  }\n*/\n  event PostSignerChanged(\n    address indexed from,\n    address indexed to);\n  event MemeCreated(\n    bytes32 memeId,\n    uint time,\n    address indexed account);\n  event MemeDeleted(\n    bytes32 memeId,\n    uint time,\n    address indexed account);\n\n  constructor(\n    UME _umeToken,\n    MemeStorage _memeStorage,\n    UserStorage _userStorage\n  ) public {\n    umeToken = _umeToken;\n    memeStorage = _memeStorage;\n    userStorage = _userStorage;\n\n    postSigner = msg.sender;\n  }\n\n  // posting meme functions\n  function newMeme(\n    address _account,\n    string memory _memeText,\n    address[] memory _tags,\n    bytes32 _parentId,\n    bytes32 _originId,\n    bytes32 _repostId\n  ) public {\n    require(\n      msg.sender==postSigner,\n      'Error: msg.sender must be interface(signer)');\n    // increment meme id\n    memeStorage.increaseMemeCount();\n    bytes32 _memeId = keccak256(abi.encodePacked(memeStorage.memeCount()));\n    // set parent & origin id's to memeId if\n    if (_parentId == zeroBytes) {\n      _parentId = _memeId;\n    }\n    if (_originId == zeroBytes) {\n      _originId = _memeId;\n    }\n    // map memeId to new meme\n    memeStorage.setMeme(_memeId, MemeStorage.Meme(\n      _memeId, // meme id\n      block.timestamp, // meme time\n      _memeText, // meme text\n      0, // boost value\n      new address[](0), // likers\n      new address[](0), // unlikers\n      new bytes32[](0), // reposts\n      new bytes32[](0), // quotePosts\n      _repostId, // repost id\n      _tags, // tagged\n      new bytes32[](0), // response array\n      _parentId, // parent\n      _originId, // origin\n      _account, // author\n      true // isVisible\n    ));\n    // if responding to a single post, then mint respond token\n    if(_memeId!=_parentId && _parentId==_originId && memeStorage.getAuthor(_parentId)!=_account) {\n      umeToken.mintRespond(_account, memeStorage.getAuthor(_parentId));\n      _addResponse(_memeId, _parentId);\n    } // if responding to a thread, mint respond token for parent, curate token for original\n    else if(_memeId!=_parentId && _parentId!=_originId && memeStorage.getAuthor(_originId)!=_account) {\n      umeToken.mintRespond(_account, memeStorage.getAuthor(_originId));\n      umeToken.mintCurate(_account, memeStorage.getAuthor(_originId));\n      _addResponse(_memeId, _parentId);\n    }\n    // mint tags\n    for(uint i = 0; i < _tags.length; i++) {\n      if(_account!=_tags[i]){\n        umeToken.mintTag(_account, _tags[i]);\n      }\n    }\n    _addPostToUser(_account, _memeId);\n    userStorage.setUsersByMeme(_memeId, _account);\n    emit MemeCreated(_memeId, block.timestamp, _account);\n  }\n  function deleteMeme(\n    address _account,\n    bytes32 _memeId\n  ) public {\n    require(\n      postSigner==msg.sender,\n      'Error: only signer can delete meme');\n    // create empty Meme instance\n    bytes32 _parentId = memeStorage.getParentId(_memeId);\n    if(memeStorage.getResponseCount(_parentId)>0)\n      _deleteResponse(_memeId, _parentId, memeStorage.getResponses(_memeId));\n    memeStorage.deleteMeme(_memeId);\n    emit MemeDeleted(_memeId, block.timestamp, _account);\n  }\n\n  function _addResponse(\n    bytes32 _memeId,\n    bytes32 _parentId\n  ) private {\n    bytes32[] memory _oldResponses = memeStorage.getResponses(_memeId);\n    uint _oldResponseCount = _oldResponses.length;\n    bytes32[] memory _newResponses = new bytes32[](_oldResponseCount+1);\n    for(uint i = 0; i < _oldResponseCount; i++)\n      _newResponses[i] = _oldResponses[i];\n    _newResponses[_newResponses.length-1] = _memeId;\n    memeStorage.setResponses(_parentId, _newResponses);\n  }\n\n  function _deleteResponse(\n    bytes32 _memeId,\n    bytes32 _parentId,\n    bytes32[] memory _oldResponses\n  ) private {\n    // delete liked index, moving all successive elements\n    uint _oldResponseCount = _oldResponses.length;\n    bytes32[] memory _newResponses = new bytes32[](_oldResponseCount-1);\n    if(_oldResponseCount > 1) {\n      uint _index;\n      for(uint i = 0; i < _oldResponseCount; i++) {\n        if (_oldResponses[i]==_memeId && i!=_oldResponseCount-1) {\n          _index = i;\n          break;\n        }\n      }\n      _newResponses = _deleteBytes32(_oldResponses, _index);\n    }\n    memeStorage.setResponses(_parentId, _newResponses);\n  }\n  function _addPostToUser(\n    address _account,\n    bytes32 _memeId\n  ) private {\n     // create memory array with length one greater than _user.posts length\n     bytes32[] memory _oldPosts = userStorage.getPosts(_account);\n     uint _oldPostCount = _oldPosts.length;\n     bytes32[] memory _newPosts = new bytes32[](_oldPostCount+1);\n     for(uint i = 0; i < _oldPostCount; i++)\n       _newPosts[i] = _oldPosts[i];\n     _newPosts[_oldPostCount] = _memeId;\n     userStorage.setPosts(_account, _newPosts);\n  }\n  function _deletePostFromUser(\n    address _account,\n    bytes32 _memeId\n  ) private {\n     bytes32[] memory _oldPosts = userStorage.getPosts(_account);\n     uint _oldPostCount = _oldPosts.length;\n     bytes32[] memory _newPosts = new bytes32[](_oldPostCount-1);\n     uint _index;\n     for(uint i = 0; i < _oldPosts.length; i++) {\n       if(_oldPosts[i]==_memeId) {\n         _index = i;\n         break;\n       }\n     }\n     _newPosts = _deleteBytes32(_oldPosts, _index);\n     userStorage.setPosts(_account, _newPosts);\n     // clears mapping of deleted meme, reroutes to 0x0 address instead of deleter\n     userStorage.setUsersByMeme(_memeId, address(0x0));\n  }\n\n  // helper functions\n  function _deleteBytes32(\n    bytes32[] memory array,\n    uint index\n  ) private pure returns(bytes32[] memory) {\n    bytes32[] memory _array = new bytes32[](array.length-1);\n    for(uint i = 0; i < index; i++)\n      _array[i] = array[i];\n    for(uint i = index; i < _array.length; i++)\n      _array[i] = array[i+1];\n    return _array;\n  }\n\n\n  // set signer roles\n  function passPostSigner(address _post) public returns (bool) {\n    require(\n      msg.sender == postSigner,\n      'Error: only deployer can pass post signer role');\n\n    postSigner = _post;\n    emit PostSignerChanged(msg.sender, postSigner);\n    return true;\n  }\n}\n",
  "sourcePath": "/Users/jaiq/Documents/000 BLOCKCHAIN/ETH/uMe/src/contracts/MemeFactory.sol",
  "compiler": {
    "name": "solc",
    "version": "0.8.7+commit.e28d00a7.Emscripten.clang"
  },
  "schemaVersion": "3.4.3",
  "updatedAt": "2021-08-25T09:08:10.513Z",
  "networkType": "ethereum",
  "devdoc": {
    "kind": "dev",
    "methods": {},
    "version": 1
  },
  "userdoc": {
    "kind": "user",
    "methods": {},
    "version": 1
  }
}