{
  "contractName": "MemeStorage",
  "abi": [
    {
      "inputs": [],
      "stateMutability": "nonpayable",
      "type": "constructor"
    },
    {
      "anonymous": false,
      "inputs": [
        {
          "indexed": true,
          "internalType": "address",
          "name": "from",
          "type": "address"
        },
        {
          "indexed": true,
          "internalType": "address",
          "name": "to",
          "type": "address"
        }
      ],
      "name": "BoostSignerChanged",
      "type": "event"
    },
    {
      "anonymous": false,
      "inputs": [
        {
          "indexed": true,
          "internalType": "address",
          "name": "from",
          "type": "address"
        },
        {
          "indexed": true,
          "internalType": "address",
          "name": "to",
          "type": "address"
        }
      ],
      "name": "FactorySignerChanged",
      "type": "event"
    },
    {
      "anonymous": false,
      "inputs": [
        {
          "indexed": true,
          "internalType": "address",
          "name": "from",
          "type": "address"
        },
        {
          "indexed": true,
          "internalType": "address",
          "name": "to",
          "type": "address"
        }
      ],
      "name": "InterfaceSignerChanged",
      "type": "event"
    },
    {
      "anonymous": false,
      "inputs": [
        {
          "indexed": true,
          "internalType": "address",
          "name": "from",
          "type": "address"
        },
        {
          "indexed": true,
          "internalType": "address",
          "name": "to",
          "type": "address"
        }
      ],
      "name": "LikeSignerChanged",
      "type": "event"
    },
    {
      "anonymous": false,
      "inputs": [
        {
          "indexed": true,
          "internalType": "address",
          "name": "from",
          "type": "address"
        },
        {
          "indexed": true,
          "internalType": "address",
          "name": "to",
          "type": "address"
        }
      ],
      "name": "PostSignerChanged",
      "type": "event"
    },
    {
      "inputs": [],
      "name": "boostSigner",
      "outputs": [
        {
          "internalType": "address",
          "name": "",
          "type": "address"
        }
      ],
      "stateMutability": "view",
      "type": "function",
      "constant": true
    },
    {
      "inputs": [],
      "name": "factorySigner",
      "outputs": [
        {
          "internalType": "address",
          "name": "",
          "type": "address"
        }
      ],
      "stateMutability": "view",
      "type": "function",
      "constant": true
    },
    {
      "inputs": [],
      "name": "interfaceSigner",
      "outputs": [
        {
          "internalType": "address",
          "name": "",
          "type": "address"
        }
      ],
      "stateMutability": "view",
      "type": "function",
      "constant": true
    },
    {
      "inputs": [],
      "name": "likeSigner",
      "outputs": [
        {
          "internalType": "address",
          "name": "",
          "type": "address"
        }
      ],
      "stateMutability": "view",
      "type": "function",
      "constant": true
    },
    {
      "inputs": [],
      "name": "memeCount",
      "outputs": [
        {
          "internalType": "uint256",
          "name": "",
          "type": "uint256"
        }
      ],
      "stateMutability": "view",
      "type": "function",
      "constant": true
    },
    {
      "inputs": [
        {
          "internalType": "bytes32",
          "name": "",
          "type": "bytes32"
        }
      ],
      "name": "memes",
      "outputs": [
        {
          "internalType": "bytes32",
          "name": "id",
          "type": "bytes32"
        },
        {
          "internalType": "uint256",
          "name": "time",
          "type": "uint256"
        },
        {
          "internalType": "string",
          "name": "text",
          "type": "string"
        },
        {
          "internalType": "uint256",
          "name": "boosts",
          "type": "uint256"
        },
        {
          "internalType": "bytes32",
          "name": "repostId",
          "type": "bytes32"
        },
        {
          "internalType": "bytes32",
          "name": "parentId",
          "type": "bytes32"
        },
        {
          "internalType": "bytes32",
          "name": "originId",
          "type": "bytes32"
        },
        {
          "internalType": "address",
          "name": "author",
          "type": "address"
        },
        {
          "internalType": "bool",
          "name": "isVisible",
          "type": "bool"
        }
      ],
      "stateMutability": "view",
      "type": "function",
      "constant": true
    },
    {
      "inputs": [],
      "name": "postSigner",
      "outputs": [
        {
          "internalType": "address",
          "name": "",
          "type": "address"
        }
      ],
      "stateMutability": "view",
      "type": "function",
      "constant": true
    },
    {
      "inputs": [
        {
          "internalType": "bytes32",
          "name": "_memeId",
          "type": "bytes32"
        },
        {
          "components": [
            {
              "internalType": "bytes32",
              "name": "id",
              "type": "bytes32"
            },
            {
              "internalType": "uint256",
              "name": "time",
              "type": "uint256"
            },
            {
              "internalType": "string",
              "name": "text",
              "type": "string"
            },
            {
              "internalType": "uint256",
              "name": "boosts",
              "type": "uint256"
            },
            {
              "internalType": "address[]",
              "name": "likers",
              "type": "address[]"
            },
            {
              "internalType": "address[]",
              "name": "unlikers",
              "type": "address[]"
            },
            {
              "internalType": "bytes32[]",
              "name": "reposts",
              "type": "bytes32[]"
            },
            {
              "internalType": "bytes32[]",
              "name": "quotePosts",
              "type": "bytes32[]"
            },
            {
              "internalType": "bytes32",
              "name": "repostId",
              "type": "bytes32"
            },
            {
              "internalType": "address[]",
              "name": "tags",
              "type": "address[]"
            },
            {
              "internalType": "bytes32[]",
              "name": "responses",
              "type": "bytes32[]"
            },
            {
              "internalType": "bytes32",
              "name": "parentId",
              "type": "bytes32"
            },
            {
              "internalType": "bytes32",
              "name": "originId",
              "type": "bytes32"
            },
            {
              "internalType": "address",
              "name": "author",
              "type": "address"
            },
            {
              "internalType": "bool",
              "name": "isVisible",
              "type": "bool"
            }
          ],
          "internalType": "struct MemeStorage.Meme",
          "name": "_meme",
          "type": "tuple"
        }
      ],
      "name": "setMeme",
      "outputs": [],
      "stateMutability": "nonpayable",
      "type": "function"
    },
    {
      "inputs": [
        {
          "internalType": "bytes32",
          "name": "_memeId",
          "type": "bytes32"
        }
      ],
      "name": "deleteMeme",
      "outputs": [],
      "stateMutability": "nonpayable",
      "type": "function"
    },
    {
      "inputs": [],
      "name": "increaseMemeCount",
      "outputs": [],
      "stateMutability": "nonpayable",
      "type": "function"
    },
    {
      "inputs": [
        {
          "internalType": "bytes32",
          "name": "_memeId",
          "type": "bytes32"
        },
        {
          "internalType": "bytes32[]",
          "name": "_responses",
          "type": "bytes32[]"
        }
      ],
      "name": "setResponses",
      "outputs": [],
      "stateMutability": "nonpayable",
      "type": "function"
    },
    {
      "inputs": [
        {
          "internalType": "bytes32",
          "name": "_memeId",
          "type": "bytes32"
        },
        {
          "internalType": "bytes32[]",
          "name": "_reposts",
          "type": "bytes32[]"
        }
      ],
      "name": "setReposts",
      "outputs": [],
      "stateMutability": "nonpayable",
      "type": "function"
    },
    {
      "inputs": [
        {
          "internalType": "bytes32",
          "name": "_memeId",
          "type": "bytes32"
        },
        {
          "internalType": "bytes32[]",
          "name": "_quotePosts",
          "type": "bytes32[]"
        }
      ],
      "name": "setQuotePosts",
      "outputs": [],
      "stateMutability": "nonpayable",
      "type": "function"
    },
    {
      "inputs": [
        {
          "internalType": "bytes32",
          "name": "_memeId",
          "type": "bytes32"
        },
        {
          "internalType": "address[]",
          "name": "_likers",
          "type": "address[]"
        }
      ],
      "name": "setLikers",
      "outputs": [],
      "stateMutability": "nonpayable",
      "type": "function"
    },
    {
      "inputs": [
        {
          "internalType": "bytes32",
          "name": "_memeId",
          "type": "bytes32"
        },
        {
          "internalType": "address[]",
          "name": "_unlikers",
          "type": "address[]"
        }
      ],
      "name": "setUnlikers",
      "outputs": [],
      "stateMutability": "nonpayable",
      "type": "function"
    },
    {
      "inputs": [
        {
          "internalType": "bytes32",
          "name": "_memeId",
          "type": "bytes32"
        },
        {
          "internalType": "uint256",
          "name": "_boosts",
          "type": "uint256"
        }
      ],
      "name": "addBoost",
      "outputs": [],
      "stateMutability": "nonpayable",
      "type": "function"
    },
    {
      "inputs": [
        {
          "internalType": "bytes32",
          "name": "_memeId",
          "type": "bytes32"
        },
        {
          "internalType": "uint256",
          "name": "_boosts",
          "type": "uint256"
        }
      ],
      "name": "subtractBoost",
      "outputs": [],
      "stateMutability": "nonpayable",
      "type": "function"
    },
    {
      "inputs": [],
      "name": "getMemeCount",
      "outputs": [
        {
          "internalType": "uint256",
          "name": "",
          "type": "uint256"
        }
      ],
      "stateMutability": "view",
      "type": "function",
      "constant": true
    },
    {
      "inputs": [
        {
          "internalType": "bytes32",
          "name": "_memeId",
          "type": "bytes32"
        }
      ],
      "name": "getText",
      "outputs": [
        {
          "internalType": "string",
          "name": "",
          "type": "string"
        }
      ],
      "stateMutability": "view",
      "type": "function",
      "constant": true
    },
    {
      "inputs": [
        {
          "internalType": "bytes32",
          "name": "_memeId",
          "type": "bytes32"
        }
      ],
      "name": "getLikeCount",
      "outputs": [
        {
          "internalType": "uint256",
          "name": "",
          "type": "uint256"
        }
      ],
      "stateMutability": "view",
      "type": "function",
      "constant": true
    },
    {
      "inputs": [
        {
          "internalType": "bytes32",
          "name": "_memeId",
          "type": "bytes32"
        }
      ],
      "name": "getBoost",
      "outputs": [
        {
          "internalType": "uint256",
          "name": "",
          "type": "uint256"
        }
      ],
      "stateMutability": "view",
      "type": "function",
      "constant": true
    },
    {
      "inputs": [
        {
          "internalType": "bytes32",
          "name": "_memeId",
          "type": "bytes32"
        }
      ],
      "name": "getLikers",
      "outputs": [
        {
          "internalType": "address[]",
          "name": "",
          "type": "address[]"
        }
      ],
      "stateMutability": "view",
      "type": "function",
      "constant": true
    },
    {
      "inputs": [
        {
          "internalType": "bytes32",
          "name": "_memeId",
          "type": "bytes32"
        }
      ],
      "name": "getUnlikers",
      "outputs": [
        {
          "internalType": "address[]",
          "name": "",
          "type": "address[]"
        }
      ],
      "stateMutability": "view",
      "type": "function",
      "constant": true
    },
    {
      "inputs": [
        {
          "internalType": "bytes32",
          "name": "_memeId",
          "type": "bytes32"
        }
      ],
      "name": "getRepostCount",
      "outputs": [
        {
          "internalType": "uint256",
          "name": "",
          "type": "uint256"
        }
      ],
      "stateMutability": "view",
      "type": "function",
      "constant": true
    },
    {
      "inputs": [
        {
          "internalType": "bytes32",
          "name": "_memeId",
          "type": "bytes32"
        }
      ],
      "name": "getReposts",
      "outputs": [
        {
          "internalType": "bytes32[]",
          "name": "",
          "type": "bytes32[]"
        }
      ],
      "stateMutability": "view",
      "type": "function",
      "constant": true
    },
    {
      "inputs": [
        {
          "internalType": "bytes32",
          "name": "_memeId",
          "type": "bytes32"
        }
      ],
      "name": "getQuotePostCount",
      "outputs": [
        {
          "internalType": "uint256",
          "name": "",
          "type": "uint256"
        }
      ],
      "stateMutability": "view",
      "type": "function",
      "constant": true
    },
    {
      "inputs": [
        {
          "internalType": "bytes32",
          "name": "_memeId",
          "type": "bytes32"
        }
      ],
      "name": "getQuotePosts",
      "outputs": [
        {
          "internalType": "bytes32[]",
          "name": "",
          "type": "bytes32[]"
        }
      ],
      "stateMutability": "view",
      "type": "function",
      "constant": true
    },
    {
      "inputs": [
        {
          "internalType": "bytes32",
          "name": "_memeId",
          "type": "bytes32"
        }
      ],
      "name": "getTags",
      "outputs": [
        {
          "internalType": "address[]",
          "name": "",
          "type": "address[]"
        }
      ],
      "stateMutability": "view",
      "type": "function",
      "constant": true
    },
    {
      "inputs": [
        {
          "internalType": "bytes32",
          "name": "_memeId",
          "type": "bytes32"
        }
      ],
      "name": "getResponseCount",
      "outputs": [
        {
          "internalType": "uint256",
          "name": "",
          "type": "uint256"
        }
      ],
      "stateMutability": "view",
      "type": "function",
      "constant": true
    },
    {
      "inputs": [
        {
          "internalType": "bytes32",
          "name": "_memeId",
          "type": "bytes32"
        }
      ],
      "name": "getResponses",
      "outputs": [
        {
          "internalType": "bytes32[]",
          "name": "",
          "type": "bytes32[]"
        }
      ],
      "stateMutability": "view",
      "type": "function",
      "constant": true
    },
    {
      "inputs": [
        {
          "internalType": "bytes32",
          "name": "_memeId",
          "type": "bytes32"
        }
      ],
      "name": "getParentId",
      "outputs": [
        {
          "internalType": "bytes32",
          "name": "",
          "type": "bytes32"
        }
      ],
      "stateMutability": "view",
      "type": "function",
      "constant": true
    },
    {
      "inputs": [
        {
          "internalType": "bytes32",
          "name": "_memeId",
          "type": "bytes32"
        }
      ],
      "name": "getOriginId",
      "outputs": [
        {
          "internalType": "bytes32",
          "name": "",
          "type": "bytes32"
        }
      ],
      "stateMutability": "view",
      "type": "function",
      "constant": true
    },
    {
      "inputs": [
        {
          "internalType": "bytes32",
          "name": "_memeId",
          "type": "bytes32"
        }
      ],
      "name": "getRepostId",
      "outputs": [
        {
          "internalType": "bytes32",
          "name": "",
          "type": "bytes32"
        }
      ],
      "stateMutability": "view",
      "type": "function",
      "constant": true
    },
    {
      "inputs": [
        {
          "internalType": "bytes32",
          "name": "_memeId",
          "type": "bytes32"
        }
      ],
      "name": "getAuthor",
      "outputs": [
        {
          "internalType": "address",
          "name": "",
          "type": "address"
        }
      ],
      "stateMutability": "view",
      "type": "function",
      "constant": true
    },
    {
      "inputs": [
        {
          "internalType": "bytes32",
          "name": "_memeId",
          "type": "bytes32"
        }
      ],
      "name": "getVisibility",
      "outputs": [
        {
          "internalType": "bool",
          "name": "",
          "type": "bool"
        }
      ],
      "stateMutability": "view",
      "type": "function",
      "constant": true
    },
    {
      "inputs": [
        {
          "internalType": "uint256",
          "name": "_memeId",
          "type": "uint256"
        }
      ],
      "name": "getEncodeId",
      "outputs": [
        {
          "internalType": "bytes32",
          "name": "",
          "type": "bytes32"
        }
      ],
      "stateMutability": "view",
      "type": "function",
      "constant": true
    },
    {
      "inputs": [
        {
          "internalType": "uint256",
          "name": "_memeId",
          "type": "uint256"
        }
      ],
      "name": "getEncodeLikeCount",
      "outputs": [
        {
          "internalType": "uint256",
          "name": "",
          "type": "uint256"
        }
      ],
      "stateMutability": "view",
      "type": "function",
      "constant": true
    },
    {
      "inputs": [
        {
          "internalType": "uint256",
          "name": "_memeId",
          "type": "uint256"
        }
      ],
      "name": "getEncodeLikers",
      "outputs": [
        {
          "internalType": "address[]",
          "name": "",
          "type": "address[]"
        }
      ],
      "stateMutability": "view",
      "type": "function",
      "constant": true
    },
    {
      "inputs": [
        {
          "internalType": "uint256",
          "name": "_memeId",
          "type": "uint256"
        }
      ],
      "name": "getEncodeUnlikers",
      "outputs": [
        {
          "internalType": "address[]",
          "name": "",
          "type": "address[]"
        }
      ],
      "stateMutability": "view",
      "type": "function",
      "constant": true
    },
    {
      "inputs": [
        {
          "internalType": "uint256",
          "name": "_memeId",
          "type": "uint256"
        }
      ],
      "name": "getEncodeRepostCount",
      "outputs": [
        {
          "internalType": "uint256",
          "name": "",
          "type": "uint256"
        }
      ],
      "stateMutability": "view",
      "type": "function",
      "constant": true
    },
    {
      "inputs": [
        {
          "internalType": "uint256",
          "name": "_memeId",
          "type": "uint256"
        }
      ],
      "name": "getEncodeReposts",
      "outputs": [
        {
          "internalType": "bytes32[]",
          "name": "",
          "type": "bytes32[]"
        }
      ],
      "stateMutability": "view",
      "type": "function",
      "constant": true
    },
    {
      "inputs": [
        {
          "internalType": "uint256",
          "name": "_memeId",
          "type": "uint256"
        }
      ],
      "name": "getEncodeQuotePostCount",
      "outputs": [
        {
          "internalType": "uint256",
          "name": "",
          "type": "uint256"
        }
      ],
      "stateMutability": "view",
      "type": "function",
      "constant": true
    },
    {
      "inputs": [
        {
          "internalType": "uint256",
          "name": "_memeId",
          "type": "uint256"
        }
      ],
      "name": "getEncodeQuotePosts",
      "outputs": [
        {
          "internalType": "bytes32[]",
          "name": "",
          "type": "bytes32[]"
        }
      ],
      "stateMutability": "view",
      "type": "function",
      "constant": true
    },
    {
      "inputs": [
        {
          "internalType": "uint256",
          "name": "_memeId",
          "type": "uint256"
        }
      ],
      "name": "getEncodeTags",
      "outputs": [
        {
          "internalType": "address[]",
          "name": "",
          "type": "address[]"
        }
      ],
      "stateMutability": "view",
      "type": "function",
      "constant": true
    },
    {
      "inputs": [
        {
          "internalType": "uint256",
          "name": "_memeId",
          "type": "uint256"
        }
      ],
      "name": "getEncodeResponseCount",
      "outputs": [
        {
          "internalType": "uint256",
          "name": "",
          "type": "uint256"
        }
      ],
      "stateMutability": "view",
      "type": "function",
      "constant": true
    },
    {
      "inputs": [
        {
          "internalType": "uint256",
          "name": "_memeId",
          "type": "uint256"
        }
      ],
      "name": "getEncodeResponses",
      "outputs": [
        {
          "internalType": "bytes32[]",
          "name": "",
          "type": "bytes32[]"
        }
      ],
      "stateMutability": "view",
      "type": "function",
      "constant": true
    },
    {
      "inputs": [
        {
          "internalType": "uint256",
          "name": "_memeId",
          "type": "uint256"
        }
      ],
      "name": "getEncodeParentId",
      "outputs": [
        {
          "internalType": "bytes32",
          "name": "",
          "type": "bytes32"
        }
      ],
      "stateMutability": "view",
      "type": "function",
      "constant": true
    },
    {
      "inputs": [
        {
          "internalType": "uint256",
          "name": "_memeId",
          "type": "uint256"
        }
      ],
      "name": "getEncodeOriginId",
      "outputs": [
        {
          "internalType": "bytes32",
          "name": "",
          "type": "bytes32"
        }
      ],
      "stateMutability": "view",
      "type": "function",
      "constant": true
    },
    {
      "inputs": [
        {
          "internalType": "uint256",
          "name": "_memeId",
          "type": "uint256"
        }
      ],
      "name": "getEncodeAuthor",
      "outputs": [
        {
          "internalType": "address",
          "name": "",
          "type": "address"
        }
      ],
      "stateMutability": "view",
      "type": "function",
      "constant": true
    },
    {
      "inputs": [
        {
          "internalType": "uint256",
          "name": "_memeId",
          "type": "uint256"
        }
      ],
      "name": "getEncodeVisibility",
      "outputs": [
        {
          "internalType": "bool",
          "name": "",
          "type": "bool"
        }
      ],
      "stateMutability": "view",
      "type": "function",
      "constant": true
    },
    {
      "inputs": [],
      "name": "getEncodedIds",
      "outputs": [
        {
          "internalType": "bytes32[]",
          "name": "",
          "type": "bytes32[]"
        }
      ],
      "stateMutability": "view",
      "type": "function",
      "constant": true
    },
    {
      "inputs": [
        {
          "internalType": "address",
          "name": "_memeFactory",
          "type": "address"
        }
      ],
      "name": "passFactorySigner",
      "outputs": [
        {
          "internalType": "bool",
          "name": "",
          "type": "bool"
        }
      ],
      "stateMutability": "nonpayable",
      "type": "function"
    },
    {
      "inputs": [
        {
          "internalType": "address",
          "name": "_userInterface",
          "type": "address"
        }
      ],
      "name": "passInterfaceSigner",
      "outputs": [
        {
          "internalType": "bool",
          "name": "",
          "type": "bool"
        }
      ],
      "stateMutability": "nonpayable",
      "type": "function"
    },
    {
      "inputs": [
        {
          "internalType": "address",
          "name": "_post",
          "type": "address"
        }
      ],
      "name": "passPostSigner",
      "outputs": [
        {
          "internalType": "bool",
          "name": "",
          "type": "bool"
        }
      ],
      "stateMutability": "nonpayable",
      "type": "function"
    },
    {
      "inputs": [
        {
          "internalType": "address",
          "name": "_like",
          "type": "address"
        }
      ],
      "name": "passLikeSigner",
      "outputs": [
        {
          "internalType": "bool",
          "name": "",
          "type": "bool"
        }
      ],
      "stateMutability": "nonpayable",
      "type": "function"
    },
    {
      "inputs": [
        {
          "internalType": "address",
          "name": "_boost",
          "type": "address"
        }
      ],
      "name": "passBoostSigner",
      "outputs": [
        {
          "internalType": "bool",
          "name": "",
          "type": "bool"
        }
      ],
      "stateMutability": "nonpayable",
      "type": "function"
    }
  ],
  "bytecode": "0x6080604052600060055534801561001557600080fd5b50336000806101000a81548173ffffffffffffffffffffffffffffffffffffffff021916908373ffffffffffffffffffffffffffffffffffffffff16021790555033600160006101000a81548173ffffffffffffffffffffffffffffffffffffffff021916908373ffffffffffffffffffffffffffffffffffffffff16021790555033600260006101000a81548173ffffffffffffffffffffffffffffffffffffffff021916908373ffffffffffffffffffffffffffffffffffffffff16021790555033600360006101000a81548173ffffffffffffffffffffffffffffffffffffffff021916908373ffffffffffffffffffffffffffffffffffffffff16021790555033600460006101000a81548173ffffffffffffffffffffffffffffffffffffffff021916908373ffffffffffffffffffffffffffffffffffffffff160217905550614277806101696000396000f3fe608060405234801561001057600080fd5b50600436106103785760003560e01c806393d2c854116101d3578063d4b8df2211610104578063edcd526a116100a2578063f64458bd1161007c578063f64458bd14610c01578063f8f1be2214610c31578063f8f3d03714610c61578063fae6066414610c6b57610378565b8063edcd526a14610b71578063f00c970414610ba1578063f1e25e8514610bd157610378565b8063debf0682116100de578063debf068214610ad7578063e2975f0914610af5578063e83a8fdd14610b25578063e9bdf97614610b5557610378565b8063d4b8df2214610a53578063ddeeeed514610a83578063ddf60c9314610abb57610378565b8063b5b421e111610171578063c4e172da1161014b578063c4e172da14610993578063c627f1ee146109c3578063c6ede8bb146109f3578063d092b7b314610a2357610378565b8063b5b421e11461092b578063bacd910c1461095b578063bd0a4e9e1461097757610378565b8063a6838c7b116101ad578063a6838c7b14610891578063aaf837c5146108c1578063af5dffde146108dd578063af82e192146108fb57610378565b806393d2c8541461081357806398316938146108435780639ca9dcab1461087357610378565b80635713663c116102ad5780637135cc101161024b578063829a262c11610225578063829a262c1461077757806385188f3c146107955780638c98876f146107c557806391fe1a8f146107e357610378565b80637135cc101461070d57806372d9fe5d146107295780637b2124d21461075957610378565b806369171f5c1161028757806369171f5c14610661578063691d1c28146106915780637071af84146106c157806370d2c46b146106f157610378565b80635713663c146105f55780635aa64413146106255780635bba8fef1461064357610378565b806326cecfcf1161031a5780633a93c5fa116102f45780633a93c5fa1461055d5780634fd5d4741461057957806350de13f9146105a9578063563f4f65146105c557610378565b806326cecfcf146104cd5780632ecf6401146104fd5780633331cb331461052d57610378565b806318a01aac1161035657806318a01aac1461040d5780631956fbc91461043d578063213059dd1461046d578063261837171461049d57610378565b806306e6a7701461037d57806316fb584e146103ad57806317dcaab6146103dd575b600080fd5b6103976004803603810190610392919061317c565b610c9b565b6040516103a491906131c4565b60405180910390f35b6103c760048036038101906103c29190613215565b610df3565b6040516103d49190613251565b60405180910390f35b6103f760048036038101906103f2919061317c565b610e59565b60405161040491906131c4565b60405180910390f35b61042760048036038101906104229190613215565b610fad565b60405161043491906131c4565b60405180910390f35b61045760048036038101906104529190613215565b611000565b6040516104649190613334565b60405180910390f35b61048760048036038101906104829190613382565b611094565b604051610494919061346d565b60405180910390f35b6104b760048036038101906104b29190613215565b611138565b6040516104c49190613334565b60405180910390f35b6104e760048036038101906104e29190613215565b6111cc565b6040516104f4919061349e565b60405180910390f35b61051760048036038101906105129190613215565b611212565b604051610524919061349e565b60405180910390f35b61054760048036038101906105429190613215565b611258565b6040516105549190613334565b60405180910390f35b610577600480360381019061057291906134b9565b6112ec565b005b610593600480360381019061058e9190613382565b6113ad565b6040516105a0919061346d565b60405180910390f35b6105c360048036038101906105be9190613652565b611451565b005b6105df60048036038101906105da9190613215565b61150e565b6040516105ec919061346d565b60405180910390f35b61060f600480360381019061060a9190613382565b6115d8565b60405161061c91906136bd565b60405180910390f35b61062d6115fb565b60405161063a9190613251565b60405180910390f35b61064b61161f565b6040516106589190613251565b60405180910390f35b61067b60048036038101906106769190613382565b611645565b6040516106889190613334565b60405180910390f35b6106ab60048036038101906106a69190613382565b6116b3565b6040516106b89190613251565b60405180910390f35b6106db60048036038101906106d69190613382565b6116f3565b6040516106e8919061349e565b60405180910390f35b61070b600480360381019061070691906134b9565b611713565b005b6107276004803603810190610722919061379b565b6118da565b005b610743600480360381019061073e9190613382565b611999565b6040516107509190613334565b60405180910390f35b610761611a07565b60405161076e91906136bd565b60405180910390f35b61077f611a0d565b60405161078c9190613251565b60405180910390f35b6107af60048036038101906107aa9190613382565b611a33565b6040516107bc91906136bd565b60405180910390f35b6107cd611a53565b6040516107da9190613251565b60405180910390f35b6107fd60048036038101906107f8919061317c565b611a79565b60405161080a91906131c4565b60405180910390f35b61082d60048036038101906108289190613215565b611bd1565b60405161083a919061346d565b60405180910390f35b61085d60048036038101906108589190613382565b611c9b565b60405161086a91906136bd565b60405180910390f35b61087b611cbe565b60405161088891906136bd565b60405180910390f35b6108ab60048036038101906108a6919061317c565b611cc8565b6040516108b891906131c4565b60405180910390f35b6108db60048036038101906108d69190613382565b611e20565b005b6108e56122d1565b6040516108f29190613251565b60405180910390f35b61091560048036038101906109109190613215565b6122f7565b604051610922919061349e565b60405180910390f35b61094560048036038101906109409190613215565b61233d565b604051610952919061346d565b60405180910390f35b61097560048036038101906109709190613652565b612407565b005b610991600480360381019061098c9190613652565b6124c4565b005b6109ad60048036038101906109a8919061317c565b612581565b6040516109ba91906131c4565b60405180910390f35b6109dd60048036038101906109d89190613382565b6126d9565b6040516109ea91906131c4565b60405180910390f35b610a0d6004803603810190610a089190613215565b612706565b604051610a1a91906136bd565b60405180910390f35b610a3d6004803603810190610a389190613215565b61274f565b604051610a4a91906136bd565b60405180910390f35b610a6d6004803603810190610a689190613382565b612798565b604051610a7a9190613334565b60405180910390f35b610a9d6004803603810190610a989190613382565b612806565b604051610ab29998979695949392919061387f565b60405180910390f35b610ad56004803603810190610ad09190613c26565b612909565b005b610adf612b50565b604051610aec9190613334565b60405180910390f35b610b0f6004803603810190610b0a9190613382565b612ba8565b604051610b1c919061349e565b60405180910390f35b610b3f6004803603810190610b3a9190613215565b612bc8565b604051610b4c91906136bd565b60405180910390f35b610b6f6004803603810190610b6a919061379b565b612c11565b005b610b8b6004803603810190610b869190613382565b612cd0565b604051610b98919061346d565b60405180910390f35b610bbb6004803603810190610bb69190613215565b612d74565b604051610bc891906136bd565b60405180910390f35b610beb6004803603810190610be69190613382565b612dbd565b604051610bf8919061349e565b60405180910390f35b610c1b6004803603810190610c169190613382565b612ddd565b604051610c289190613c82565b60405180910390f35b610c4b6004803603810190610c469190613382565b612e85565b604051610c5891906136bd565b60405180910390f35b610c69612ea8565b005b610c856004803603810190610c809190613382565b612f50565b604051610c9291906136bd565b60405180910390f35b6000600360009054906101000a900473ffffffffffffffffffffffffffffffffffffffff1673ffffffffffffffffffffffffffffffffffffffff163373ffffffffffffffffffffffffffffffffffffffff1614610d2d576040517f08c379a0000000000000000000000000000000000000000000000000000000008152600401610d2490613d16565b60405180910390fd5b81600360006101000a81548173ffffffffffffffffffffffffffffffffffffffff021916908373ffffffffffffffffffffffffffffffffffffffff160217905550600360009054906101000a900473ffffffffffffffffffffffffffffffffffffffff1673ffffffffffffffffffffffffffffffffffffffff163373ffffffffffffffffffffffffffffffffffffffff167f2364065f519eb2e0ac13040d65b1d1140f6677de0518b6dee6954e49f7f7a5b660405160405180910390a360019050919050565b60006007600083604051602001610e0a9190613d57565b604051602081830303815290604052805190602001208152602001908152602001600020600d0160009054906101000a900473ffffffffffffffffffffffffffffffffffffffff169050919050565b60008060009054906101000a900473ffffffffffffffffffffffffffffffffffffffff1673ffffffffffffffffffffffffffffffffffffffff163373ffffffffffffffffffffffffffffffffffffffff1614610eea576040517f08c379a0000000000000000000000000000000000000000000000000000000008152600401610ee190613de4565b60405180910390fd5b816000806101000a81548173ffffffffffffffffffffffffffffffffffffffff021916908373ffffffffffffffffffffffffffffffffffffffff16021790555060008054906101000a900473ffffffffffffffffffffffffffffffffffffffff1673ffffffffffffffffffffffffffffffffffffffff163373ffffffffffffffffffffffffffffffffffffffff167f5f8b18be53cdf9843c4263461966fc46896a2d372d3fa87fc22f6cfed024186260405160405180910390a360019050919050565b60006007600083604051602001610fc49190613d57565b604051602081830303815290604052805190602001208152602001908152602001600020600d0160149054906101000a900460ff169050919050565b606060076000836040516020016110179190613d57565b60405160208183030381529060405280519060200120815260200190815260200160002060070180548060200260200160405190810160405280929190818152602001828054801561108857602002820191906000526020600020905b815481526020019060010190808311611074575b50505050509050919050565b60606007600083815260200190815260200160002060040180548060200260200160405190810160405280929190818152602001828054801561112c57602002820191906000526020600020905b8160009054906101000a900473ffffffffffffffffffffffffffffffffffffffff1673ffffffffffffffffffffffffffffffffffffffff16815260200190600101908083116110e2575b50505050509050919050565b6060600760008360405160200161114f9190613d57565b604051602081830303815290604052805190602001208152602001908152602001600020600a018054806020026020016040519081016040528092919081815260200182805480156111c057602002820191906000526020600020905b8154815260200190600101908083116111ac575b50505050509050919050565b600060076000836040516020016111e39190613d57565b604051602081830303815290604052805190602001208152602001908152602001600020600b01549050919050565b600060076000836040516020016112299190613d57565b604051602081830303815290604052805190602001208152602001908152602001600020600c01549050919050565b6060600760008360405160200161126f9190613d57565b6040516020818303038152906040528051906020012081526020019081526020016000206006018054806020026020016040519081016040528092919081815260200182805480156112e057602002820191906000526020600020905b8154815260200190600101908083116112cc575b50505050509050919050565b600460009054906101000a900473ffffffffffffffffffffffffffffffffffffffff1673ffffffffffffffffffffffffffffffffffffffff163373ffffffffffffffffffffffffffffffffffffffff161461137c576040517f08c379a000000000000000000000000000000000000000000000000000000000815260040161137390613e76565b60405180910390fd5b806007600084815260200190815260200160002060030160008282546113a29190613ec5565b925050819055505050565b60606007600083815260200190815260200160002060050180548060200260200160405190810160405280929190818152602001828054801561144557602002820191906000526020600020905b8160009054906101000a900473ffffffffffffffffffffffffffffffffffffffff1673ffffffffffffffffffffffffffffffffffffffff16815260200190600101908083116113fb575b50505050509050919050565b60008054906101000a900473ffffffffffffffffffffffffffffffffffffffff1673ffffffffffffffffffffffffffffffffffffffff163373ffffffffffffffffffffffffffffffffffffffff16146114df576040517f08c379a00000000000000000000000000000000000000000000000000000000081526004016114d690613de4565b60405180910390fd5b80600760008481526020019081526020016000206006019080519060200190611509929190612f73565b505050565b606060076000836040516020016115259190613d57565b6040516020818303038152906040528051906020012081526020019081526020016000206004018054806020026020016040519081016040528092919081815260200182805480156115cc57602002820191906000526020600020905b8160009054906101000a900473ffffffffffffffffffffffffffffffffffffffff1673ffffffffffffffffffffffffffffffffffffffff1681526020019060010190808311611582575b50505050509050919050565b600060076000838152602001908152602001600020600701805490509050919050565b60008054906101000a900473ffffffffffffffffffffffffffffffffffffffff1681565b600460009054906101000a900473ffffffffffffffffffffffffffffffffffffffff1681565b6060600760008381526020019081526020016000206007018054806020026020016040519081016040528092919081815260200182805480156116a757602002820191906000526020600020905b815481526020019060010190808311611693575b50505050509050919050565b600060076000838152602001908152602001600020600d0160009054906101000a900473ffffffffffffffffffffffffffffffffffffffff169050919050565b600060076000838152602001908152602001600020600b01549050919050565b600460009054906101000a900473ffffffffffffffffffffffffffffffffffffffff1673ffffffffffffffffffffffffffffffffffffffff163373ffffffffffffffffffffffffffffffffffffffff1614806117bc5750600360009054906101000a900473ffffffffffffffffffffffffffffffffffffffff1673ffffffffffffffffffffffffffffffffffffffff163373ffffffffffffffffffffffffffffffffffffffff16145b806118145750600260009054906101000a900473ffffffffffffffffffffffffffffffffffffffff1673ffffffffffffffffffffffffffffffffffffffff163373ffffffffffffffffffffffffffffffffffffffff16145b8061186a575060008054906101000a900473ffffffffffffffffffffffffffffffffffffffff1673ffffffffffffffffffffffffffffffffffffffff163373ffffffffffffffffffffffffffffffffffffffff16145b6118a9576040517f08c379a00000000000000000000000000000000000000000000000000000000081526004016118a090613e76565b60405180910390fd5b806007600084815260200190815260200160002060030160008282546118cf9190613ef9565b925050819055505050565b600360009054906101000a900473ffffffffffffffffffffffffffffffffffffffff1673ffffffffffffffffffffffffffffffffffffffff163373ffffffffffffffffffffffffffffffffffffffff161461196a576040517f08c379a000000000000000000000000000000000000000000000000000000000815260040161196190613d16565b60405180910390fd5b80600760008481526020019081526020016000206005019080519060200190611994929190612fc0565b505050565b6060600760008381526020019081526020016000206006018054806020026020016040519081016040528092919081815260200182805480156119fb57602002820191906000526020600020905b8154815260200190600101908083116119e7575b50505050509050919050565b60055481565b600360009054906101000a900473ffffffffffffffffffffffffffffffffffffffff1681565b600060076000838152602001908152602001600020600301549050919050565b600260009054906101000a900473ffffffffffffffffffffffffffffffffffffffff1681565b6000600460009054906101000a900473ffffffffffffffffffffffffffffffffffffffff1673ffffffffffffffffffffffffffffffffffffffff163373ffffffffffffffffffffffffffffffffffffffff1614611b0b576040517f08c379a0000000000000000000000000000000000000000000000000000000008152600401611b0290613d16565b60405180910390fd5b81600460006101000a81548173ffffffffffffffffffffffffffffffffffffffff021916908373ffffffffffffffffffffffffffffffffffffffff160217905550600460009054906101000a900473ffffffffffffffffffffffffffffffffffffffff1673ffffffffffffffffffffffffffffffffffffffff163373ffffffffffffffffffffffffffffffffffffffff167f6892a8923ec61e89beaa10370e660884074b3bec292be12802599cf655bba75260405160405180910390a360019050919050565b60606007600083604051602001611be89190613d57565b604051602081830303815290604052805190602001208152602001908152602001600020600901805480602002602001604051908101604052809291908181526020018280548015611c8f57602002820191906000526020600020905b8160009054906101000a900473ffffffffffffffffffffffffffffffffffffffff1673ffffffffffffffffffffffffffffffffffffffff1681526020019060010190808311611c45575b50505050509050919050565b600060076000838152602001908152602001600020600401805490509050919050565b6000600554905090565b6000600260009054906101000a900473ffffffffffffffffffffffffffffffffffffffff1673ffffffffffffffffffffffffffffffffffffffff163373ffffffffffffffffffffffffffffffffffffffff1614611d5a576040517f08c379a0000000000000000000000000000000000000000000000000000000008152600401611d5190613fc1565b60405180910390fd5b81600260006101000a81548173ffffffffffffffffffffffffffffffffffffffff021916908373ffffffffffffffffffffffffffffffffffffffff160217905550600260009054906101000a900473ffffffffffffffffffffffffffffffffffffffff1673ffffffffffffffffffffffffffffffffffffffff163373ffffffffffffffffffffffffffffffffffffffff167f76ce921e20c471c95deae34d20d53706ec4378ecab394e517f73aef912ae6cdd60405160405180910390a360019050919050565b60008054906101000a900473ffffffffffffffffffffffffffffffffffffffff1673ffffffffffffffffffffffffffffffffffffffff163373ffffffffffffffffffffffffffffffffffffffff1614611eae576040517f08c379a0000000000000000000000000000000000000000000000000000000008152600401611ea590614053565b60405180910390fd5b6000604051806101e001604052808381526020016000815260200160405180602001604052806000815250815260200160008152602001600067ffffffffffffffff811115611f0057611eff61350f565b5b604051908082528060200260200182016040528015611f2e5781602001602082028036833780820191505090505b508152602001600067ffffffffffffffff811115611f4f57611f4e61350f565b5b604051908082528060200260200182016040528015611f7d5781602001602082028036833780820191505090505b508152602001600067ffffffffffffffff811115611f9e57611f9d61350f565b5b604051908082528060200260200182016040528015611fcc5781602001602082028036833780820191505090505b508152602001600067ffffffffffffffff811115611fed57611fec61350f565b5b60405190808252806020026020018201604052801561201b5781602001602082028036833780820191505090505b5081526020016000801b8152602001600067ffffffffffffffff8111156120455761204461350f565b5b6040519080825280602002602001820160405280156120735781602001602082028036833780820191505090505b50815260200160076000858152602001908152602001600020600a018054806020026020016040519081016040528092919081815260200182805480156120d957602002820191906000526020600020905b8154815260200190600101908083116120c5575b5050505050815260200160076000858152602001908152602001600020600b0154815260200160076000858152602001908152602001600020600c01548152602001600073ffffffffffffffffffffffffffffffffffffffff16815260200160001515815250905080600760008481526020019081526020016000206000820151816000015560208201518160010155604082015181600201908051906020019061218592919061304a565b506060820151816003015560808201518160040190805190602001906121ac929190612fc0565b5060a08201518160050190805190602001906121c9929190612fc0565b5060c08201518160060190805190602001906121e6929190612f73565b5060e0820151816007019080519060200190612203929190612f73565b50610100820151816008015561012082015181600901908051906020019061222c929190612fc0565b5061014082015181600a01908051906020019061224a929190612f73565b5061016082015181600b015561018082015181600c01556101a082015181600d0160006101000a81548173ffffffffffffffffffffffffffffffffffffffff021916908373ffffffffffffffffffffffffffffffffffffffff1602179055506101c082015181600d0160146101000a81548160ff0219169083151502179055509050505050565b600160009054906101000a900473ffffffffffffffffffffffffffffffffffffffff1681565b6000600760008360405160200161230e9190613d57565b604051602081830303815290604052805190602001208152602001908152602001600020600001549050919050565b606060076000836040516020016123549190613d57565b6040516020818303038152906040528051906020012081526020019081526020016000206005018054806020026020016040519081016040528092919081815260200182805480156123fb57602002820191906000526020600020905b8160009054906101000a900473ffffffffffffffffffffffffffffffffffffffff1673ffffffffffffffffffffffffffffffffffffffff16815260200190600101908083116123b1575b50505050509050919050565b60008054906101000a900473ffffffffffffffffffffffffffffffffffffffff1673ffffffffffffffffffffffffffffffffffffffff163373ffffffffffffffffffffffffffffffffffffffff1614612495576040517f08c379a000000000000000000000000000000000000000000000000000000000815260040161248c90613de4565b60405180910390fd5b8060076000848152602001908152602001600020600a0190805190602001906124bf929190612f73565b505050565b60008054906101000a900473ffffffffffffffffffffffffffffffffffffffff1673ffffffffffffffffffffffffffffffffffffffff163373ffffffffffffffffffffffffffffffffffffffff1614612552576040517f08c379a000000000000000000000000000000000000000000000000000000000815260040161254990613de4565b60405180910390fd5b8060076000848152602001908152602001600020600701908051906020019061257c929190612f73565b505050565b6000600160009054906101000a900473ffffffffffffffffffffffffffffffffffffffff1673ffffffffffffffffffffffffffffffffffffffff163373ffffffffffffffffffffffffffffffffffffffff1614612613576040517f08c379a000000000000000000000000000000000000000000000000000000000815260040161260a90613de4565b60405180910390fd5b81600160006101000a81548173ffffffffffffffffffffffffffffffffffffffff021916908373ffffffffffffffffffffffffffffffffffffffff160217905550600160009054906101000a900473ffffffffffffffffffffffffffffffffffffffff1673ffffffffffffffffffffffffffffffffffffffff163373ffffffffffffffffffffffffffffffffffffffff167fdf570d582e474b2d7915b12f6f773eb74e4bc78a660caeeccf19491c8578507b60405160405180910390a360019050919050565b600060076000838152602001908152602001600020600d0160149054906101000a900460ff169050919050565b6000600760008360405160200161271d9190613d57565b604051602081830303815290604052805190602001208152602001908152602001600020600401805490509050919050565b600060076000836040516020016127669190613d57565b604051602081830303815290604052805190602001208152602001908152602001600020600a01805490509050919050565b606060076000838152602001908152602001600020600a018054806020026020016040519081016040528092919081815260200182805480156127fa57602002820191906000526020600020905b8154815260200190600101908083116127e6575b50505050509050919050565b6007602052806000526040600020600091509050806000015490806001015490806002018054612835906140a2565b80601f0160208091040260200160405190810160405280929190818152602001828054612861906140a2565b80156128ae5780601f10612883576101008083540402835291602001916128ae565b820191906000526020600020905b81548152906001019060200180831161289157829003601f168201915b50505050509080600301549080600801549080600b01549080600c01549080600d0160009054906101000a900473ffffffffffffffffffffffffffffffffffffffff169080600d0160149054906101000a900460ff16905089565b60008054906101000a900473ffffffffffffffffffffffffffffffffffffffff1673ffffffffffffffffffffffffffffffffffffffff163373ffffffffffffffffffffffffffffffffffffffff1614612997576040517f08c379a000000000000000000000000000000000000000000000000000000000815260040161298e90614146565b60405180910390fd5b8060076000848152602001908152602001600020600082015181600001556020820151816001015560408201518160020190805190602001906129db92919061304a565b50606082015181600301556080820151816004019080519060200190612a02929190612fc0565b5060a0820151816005019080519060200190612a1f929190612fc0565b5060c0820151816006019080519060200190612a3c929190612f73565b5060e0820151816007019080519060200190612a59929190612f73565b506101008201518160080155610120820151816009019080519060200190612a82929190612fc0565b5061014082015181600a019080519060200190612aa0929190612f73565b5061016082015181600b015561018082015181600c01556101a082015181600d0160006101000a81548173ffffffffffffffffffffffffffffffffffffffff021916908373ffffffffffffffffffffffffffffffffffffffff1602179055506101c082015181600d0160146101000a81548160ff02191690831515021790555090505060068290806001815401808255809150506001900390600052602060002001600090919091909150555050565b60606006805480602002602001604051908101604052809291908181526020018280548015612b9e57602002820191906000526020600020905b815481526020019060010190808311612b8a575b5050505050905090565b600060076000838152602001908152602001600020600801549050919050565b60006007600083604051602001612bdf9190613d57565b604051602081830303815290604052805190602001208152602001908152602001600020600701805490509050919050565b600360009054906101000a900473ffffffffffffffffffffffffffffffffffffffff1673ffffffffffffffffffffffffffffffffffffffff163373ffffffffffffffffffffffffffffffffffffffff1614612ca1576040517f08c379a0000000000000000000000000000000000000000000000000000000008152600401612c9890613d16565b60405180910390fd5b80600760008481526020019081526020016000206004019080519060200190612ccb929190612fc0565b505050565b606060076000838152602001908152602001600020600901805480602002602001604051908101604052809291908181526020018280548015612d6857602002820191906000526020600020905b8160009054906101000a900473ffffffffffffffffffffffffffffffffffffffff1673ffffffffffffffffffffffffffffffffffffffff1681526020019060010190808311612d1e575b50505050509050919050565b60006007600083604051602001612d8b9190613d57565b604051602081830303815290604052805190602001208152602001908152602001600020600601805490509050919050565b600060076000838152602001908152602001600020600c01549050919050565b6060600760008381526020019081526020016000206002018054612e00906140a2565b80601f0160208091040260200160405190810160405280929190818152602001828054612e2c906140a2565b8015612e795780601f10612e4e57610100808354040283529160200191612e79565b820191906000526020600020905b815481529060010190602001808311612e5c57829003601f168201915b50505050509050919050565b600060076000838152602001908152602001600020600601805490509050919050565b60008054906101000a900473ffffffffffffffffffffffffffffffffffffffff1673ffffffffffffffffffffffffffffffffffffffff163373ffffffffffffffffffffffffffffffffffffffff1614612f36576040517f08c379a0000000000000000000000000000000000000000000000000000000008152600401612f2d906141d8565b60405180910390fd5b60056000815480929190612f49906141f8565b9190505550565b600060076000838152602001908152602001600020600a01805490509050919050565b828054828255906000526020600020908101928215612faf579160200282015b82811115612fae578251825591602001919060010190612f93565b5b509050612fbc91906130d0565b5090565b828054828255906000526020600020908101928215613039579160200282015b828111156130385782518260006101000a81548173ffffffffffffffffffffffffffffffffffffffff021916908373ffffffffffffffffffffffffffffffffffffffff16021790555091602001919060010190612fe0565b5b50905061304691906130ed565b5090565b828054613056906140a2565b90600052602060002090601f01602090048101928261307857600085556130bf565b82601f1061309157805160ff19168380011785556130bf565b828001600101855582156130bf579182015b828111156130be5782518255916020019190600101906130a3565b5b5090506130cc91906130ed565b5090565b5b808211156130e95760008160009055506001016130d1565b5090565b5b808211156131065760008160009055506001016130ee565b5090565b6000604051905090565b600080fd5b600080fd5b600073ffffffffffffffffffffffffffffffffffffffff82169050919050565b60006131498261311e565b9050919050565b6131598161313e565b811461316457600080fd5b50565b60008135905061317681613150565b92915050565b60006020828403121561319257613191613114565b5b60006131a084828501613167565b91505092915050565b60008115159050919050565b6131be816131a9565b82525050565b60006020820190506131d960008301846131b5565b92915050565b6000819050919050565b6131f2816131df565b81146131fd57600080fd5b50565b60008135905061320f816131e9565b92915050565b60006020828403121561322b5761322a613114565b5b600061323984828501613200565b91505092915050565b61324b8161313e565b82525050565b60006020820190506132666000830184613242565b92915050565b600081519050919050565b600082825260208201905092915050565b6000819050602082019050919050565b6000819050919050565b6132ab81613298565b82525050565b60006132bd83836132a2565b60208301905092915050565b6000602082019050919050565b60006132e18261326c565b6132eb8185613277565b93506132f683613288565b8060005b8381101561332757815161330e88826132b1565b9750613319836132c9565b9250506001810190506132fa565b5085935050505092915050565b6000602082019050818103600083015261334e81846132d6565b905092915050565b61335f81613298565b811461336a57600080fd5b50565b60008135905061337c81613356565b92915050565b60006020828403121561339857613397613114565b5b60006133a68482850161336d565b91505092915050565b600081519050919050565b600082825260208201905092915050565b6000819050602082019050919050565b6133e48161313e565b82525050565b60006133f683836133db565b60208301905092915050565b6000602082019050919050565b600061341a826133af565b61342481856133ba565b935061342f836133cb565b8060005b8381101561346057815161344788826133ea565b975061345283613402565b925050600181019050613433565b5085935050505092915050565b60006020820190508181036000830152613487818461340f565b905092915050565b61349881613298565b82525050565b60006020820190506134b3600083018461348f565b92915050565b600080604083850312156134d0576134cf613114565b5b60006134de8582860161336d565b92505060206134ef85828601613200565b9150509250929050565b600080fd5b6000601f19601f8301169050919050565b7f4e487b7100000000000000000000000000000000000000000000000000000000600052604160045260246000fd5b613547826134fe565b810181811067ffffffffffffffff821117156135665761356561350f565b5b80604052505050565b600061357961310a565b9050613585828261353e565b919050565b600067ffffffffffffffff8211156135a5576135a461350f565b5b602082029050602081019050919050565b600080fd5b60006135ce6135c98461358a565b61356f565b905080838252602082019050602084028301858111156135f1576135f06135b6565b5b835b8181101561361a5780613606888261336d565b8452602084019350506020810190506135f3565b5050509392505050565b600082601f830112613639576136386134f9565b5b81356136498482602086016135bb565b91505092915050565b6000806040838503121561366957613668613114565b5b60006136778582860161336d565b925050602083013567ffffffffffffffff81111561369857613697613119565b5b6136a485828601613624565b9150509250929050565b6136b7816131df565b82525050565b60006020820190506136d260008301846136ae565b92915050565b600067ffffffffffffffff8211156136f3576136f261350f565b5b602082029050602081019050919050565b6000613717613712846136d8565b61356f565b9050808382526020820190506020840283018581111561373a576137396135b6565b5b835b81811015613763578061374f8882613167565b84526020840193505060208101905061373c565b5050509392505050565b600082601f830112613782576137816134f9565b5b8135613792848260208601613704565b91505092915050565b600080604083850312156137b2576137b1613114565b5b60006137c08582860161336d565b925050602083013567ffffffffffffffff8111156137e1576137e0613119565b5b6137ed8582860161376d565b9150509250929050565b600081519050919050565b600082825260208201905092915050565b60005b83811015613831578082015181840152602081019050613816565b83811115613840576000848401525b50505050565b6000613851826137f7565b61385b8185613802565b935061386b818560208601613813565b613874816134fe565b840191505092915050565b600061012082019050613895600083018c61348f565b6138a2602083018b6136ae565b81810360408301526138b4818a613846565b90506138c360608301896136ae565b6138d0608083018861348f565b6138dd60a083018761348f565b6138ea60c083018661348f565b6138f760e0830185613242565b6139056101008301846131b5565b9a9950505050505050505050565b600080fd5b600080fd5b600080fd5b600067ffffffffffffffff82111561393d5761393c61350f565b5b613946826134fe565b9050602081019050919050565b82818337600083830152505050565b600061397561397084613922565b61356f565b9050828152602081018484840111156139915761399061391d565b5b61399c848285613953565b509392505050565b600082601f8301126139b9576139b86134f9565b5b81356139c9848260208601613962565b91505092915050565b6139db816131a9565b81146139e657600080fd5b50565b6000813590506139f8816139d2565b92915050565b60006101e08284031215613a1557613a14613913565b5b613a206101e061356f565b90506000613a308482850161336d565b6000830152506020613a4484828501613200565b602083015250604082013567ffffffffffffffff811115613a6857613a67613918565b5b613a74848285016139a4565b6040830152506060613a8884828501613200565b606083015250608082013567ffffffffffffffff811115613aac57613aab613918565b5b613ab88482850161376d565b60808301525060a082013567ffffffffffffffff811115613adc57613adb613918565b5b613ae88482850161376d565b60a08301525060c082013567ffffffffffffffff811115613b0c57613b0b613918565b5b613b1884828501613624565b60c08301525060e082013567ffffffffffffffff811115613b3c57613b3b613918565b5b613b4884828501613624565b60e083015250610100613b5d8482850161336d565b6101008301525061012082013567ffffffffffffffff811115613b8357613b82613918565b5b613b8f8482850161376d565b6101208301525061014082013567ffffffffffffffff811115613bb557613bb4613918565b5b613bc184828501613624565b61014083015250610160613bd78482850161336d565b61016083015250610180613bed8482850161336d565b610180830152506101a0613c0384828501613167565b6101a0830152506101c0613c19848285016139e9565b6101c08301525092915050565b60008060408385031215613c3d57613c3c613114565b5b6000613c4b8582860161336d565b925050602083013567ffffffffffffffff811115613c6c57613c6b613119565b5b613c78858286016139fe565b9150509250929050565b60006020820190508181036000830152613c9c8184613846565b905092915050565b7f4572726f723a206d73672e73656e646572206d757374206265206c696b65536960008201527f676e657200000000000000000000000000000000000000000000000000000000602082015250565b6000613d00602483613802565b9150613d0b82613ca4565b604082019050919050565b60006020820190508181036000830152613d2f81613cf3565b9050919050565b6000819050919050565b613d51613d4c826131df565b613d36565b82525050565b6000613d638284613d40565b60208201915081905092915050565b7f4572726f723a206d73672e73656e646572206d75737420626520666163746f7260008201527f795369676e657200000000000000000000000000000000000000000000000000602082015250565b6000613dce602783613802565b9150613dd982613d72565b604082019050919050565b60006020820190508181036000830152613dfd81613dc1565b9050919050565b7f4572726f723a206d73672e73656e646572206d757374206265206c696b652c2060008201527f706f73742c206f7220626f6f7374207369676e65720000000000000000000000602082015250565b6000613e60603583613802565b9150613e6b82613e04565b604082019050919050565b60006020820190508181036000830152613e8f81613e53565b9050919050565b7f4e487b7100000000000000000000000000000000000000000000000000000000600052601160045260246000fd5b6000613ed0826131df565b9150613edb836131df565b925082821015613eee57613eed613e96565b5b828203905092915050565b6000613f04826131df565b9150613f0f836131df565b9250827fffffffffffffffffffffffffffffffffffffffffffffffffffffffffffffffff03821115613f4457613f43613e96565b5b828201905092915050565b7f4572726f723a206d73672e73656e646572206d75737420626520706f7374536960008201527f676e657200000000000000000000000000000000000000000000000000000000602082015250565b6000613fab602483613802565b9150613fb682613f4f565b604082019050919050565b60006020820190508181036000830152613fda81613f9e565b9050919050565b7f4572726f723a206f6e6c7920666163746f72795369676e65722063616e20646560008201527f6c65746500000000000000000000000000000000000000000000000000000000602082015250565b600061403d602483613802565b915061404882613fe1565b604082019050919050565b6000602082019050818103600083015261406c81614030565b9050919050565b7f4e487b7100000000000000000000000000000000000000000000000000000000600052602260045260246000fd5b600060028204905060018216806140ba57607f821691505b602082108114156140ce576140cd614073565b5b50919050565b7f4572726f723a206d73672e73656e646572206d757374206265206d656d65466160008201527f63746f727920746f20637265617465206d656d65000000000000000000000000602082015250565b6000614130603483613802565b915061413b826140d4565b604082019050919050565b6000602082019050818103600083015261415f81614123565b9050919050565b7f4572726f723a206f6e6c7920666163746f72795369676e65722063616e20696e60008201527f63726561736520436f756e740000000000000000000000000000000000000000602082015250565b60006141c2602c83613802565b91506141cd82614166565b604082019050919050565b600060208201905081810360008301526141f1816141b5565b9050919050565b6000614203826131df565b91507fffffffffffffffffffffffffffffffffffffffffffffffffffffffffffffffff82141561423657614235613e96565b5b60018201905091905056fea2646970667358221220f012096d68da976782d2a9fb2b10512790df737ca743a404e95b4304171e647564736f6c63430008090033",
  "immutableReferences": {},
  "source": "// SPDX-License-Identifier: MIT\n\npragma solidity >=0.8.0 <0.9.0;\n\ncontract MemeStorage {\n  address public factorySigner;\n  address public interfaceSigner;\n  address public postSigner;\n  address public likeSigner;\n  address public boostSigner;\n\n  uint public memeCount = 0;\n  bytes32[] memeIds;\n\n  // mapping of Memes\n  mapping(bytes32 => Meme) public memes; // memeId to meme map\n\n  // Meme structure\n  struct Meme {\n    bytes32 id; // number in all of timeline\n    uint time; // time of post\n    string text; // text of Meme\n    uint boosts; // boost value\n    address[] likers; // list of addresses of likers\n    address[] unlikers; // list of addresses that have unliked\n    bytes32[] reposts; // list of ids that have reposted\n    bytes32[] quotePosts; // list of ids that have quotePosted\n    bytes32 repostId;// repost id\n    address[] tags; // list of id's of tagged\n    bytes32[] responses; // collection of id's of responses\n    bytes32 parentId; // memeId of parent (can be self)\n    bytes32 originId; // memeId of origin (can be self)\n    address author; // address of author\n    bool isVisible; // is visible\n  }\n\n  event FactorySignerChanged(address indexed from, address indexed to);\n  event InterfaceSignerChanged(address indexed from, address indexed to);\n  event PostSignerChanged(address indexed from, address indexed to);\n  event LikeSignerChanged(address indexed from, address indexed to);\n  event BoostSignerChanged(address indexed from, address indexed to);\n\n  constructor() public {\n    factorySigner = msg.sender;\n    interfaceSigner = msg.sender;\n    postSigner = msg.sender;\n    likeSigner = msg.sender;\n    boostSigner = msg.sender;\n  }\n\n  // Factory-Specific setters\n  function setMeme(\n    bytes32 _memeId,\n    Meme memory _meme\n  ) public {\n    require(\n      msg.sender==factorySigner,\n      'Error: msg.sender must be memeFactory to create meme');\n    memes[_memeId] = _meme;\n    memeIds.push(_memeId);\n  }\n  function deleteMeme(bytes32 _memeId) public {\n    require(\n      msg.sender==factorySigner,\n      'Error: only factorySigner can delete');\n    // create empty Meme instance\n    //delete memes[_memeId];\n    Meme memory _meme = Meme(\n      _memeId,\n      0,\n      '',\n      0,\n      new address[](0),\n      new address[](0),\n      new bytes32[](0),\n      new bytes32[](0),\n      0x0,\n      new address[](0),\n      memes[_memeId].responses,\n      memes[_memeId].parentId,\n      memes[_memeId].originId,\n      address(0x0),\n      false\n    );\n    memes[_memeId] = _meme;\n  }\n  function increaseMemeCount() public {\n    require(\n      msg.sender==factorySigner,\n      'Error: only factorySigner can increase Count'\n    );\n    memeCount++;\n  }\n\n  function setResponses(\n    bytes32 _memeId,\n    bytes32[] memory _responses\n  ) public {\n    require(\n      msg.sender==factorySigner,\n      'Error: msg.sender must be factorySigner');\n    memes[_memeId].responses = _responses;\n  }\n\n  function setReposts(\n    bytes32 _memeId,\n    bytes32[] memory _reposts\n  ) public {\n    require(\n      msg.sender==factorySigner,\n      'Error: msg.sender must be factorySigner');\n    memes[_memeId].reposts = _reposts;\n  }\n  function setQuotePosts(\n    bytes32 _memeId,\n    bytes32[] memory _quotePosts\n  ) public {\n    require(\n      msg.sender==factorySigner,\n      'Error: msg.sender must be factorySigner');\n    memes[_memeId].quotePosts = _quotePosts;\n  }\n\n  function setLikers(\n    bytes32 _memeId,\n    address[] memory _likers\n  ) public {\n    require(\n      msg.sender==likeSigner,\n      'Error: msg.sender must be likeSigner');\n    memes[_memeId].likers = _likers;\n  }\n  function setUnlikers(\n    bytes32 _memeId,\n    address[] memory _unlikers\n  ) public {\n    require(\n      msg.sender==likeSigner,\n      'Error: msg.sender must be likeSigner');\n    memes[_memeId].unlikers = _unlikers;\n  }\n\n  function addBoost(\n    bytes32 _memeId,\n    uint _boosts\n  ) public {\n    require(\n      msg.sender==boostSigner ||\n      msg.sender==likeSigner ||\n      msg.sender==postSigner ||\n      msg.sender==factorySigner,\n      'Error: msg.sender must be like, post, or boost signer');\n    memes[_memeId].boosts += _boosts;\n  }\n  function subtractBoost(\n    bytes32 _memeId,\n    uint _boosts\n  ) public {\n    require(\n      msg.sender==boostSigner,\n      'Error: msg.sender must be like, post, or boost signer');\n    memes[_memeId].boosts -= _boosts;\n  }\n\n  // getter functions for Meme\n  function getMemeCount() public view returns(uint) {\n    return memeCount;\n  }\n\n  function getText(bytes32 _memeId) public view returns(string memory) {\n    return memes[_memeId].text;\n  }\n  function getLikeCount(bytes32 _memeId) public view returns(uint) {\n    return memes[_memeId].likers.length;\n  }\n  function getBoost(bytes32 _memeId) public view returns(uint) {\n    return memes[_memeId].boosts;\n  }\n  function getLikers(bytes32 _memeId) public view returns(address[] memory) {\n    return memes[_memeId].likers;\n  }\n  function getUnlikers(bytes32 _memeId) public view returns(address[] memory) {\n    return memes[_memeId].unlikers;\n  }\n  function getRepostCount(bytes32 _memeId) public view returns(uint) {\n    return memes[_memeId].reposts.length;\n  }\n  function getReposts(bytes32 _memeId) public view returns(bytes32[] memory) {\n    return memes[_memeId].reposts;\n  }\n  function getQuotePostCount(bytes32 _memeId) public view returns(uint) {\n    return memes[_memeId].quotePosts.length;\n  }\n  function getQuotePosts(bytes32 _memeId) public view returns(bytes32[] memory) {\n    return memes[_memeId].quotePosts;\n  }\n  function getTags(bytes32 _memeId) public view returns(address[] memory) {\n    return memes[_memeId].tags;\n  }\n  function getResponseCount(bytes32 _memeId) public view returns(uint) {\n    return memes[_memeId].responses.length;\n  }\n  function getResponses(bytes32 _memeId) public view returns(bytes32[] memory) {\n    return memes[_memeId].responses;\n  }\n  function getParentId(bytes32 _memeId) public view returns(bytes32) {\n    return memes[_memeId].parentId;\n  }\n  function getOriginId(bytes32 _memeId) public view returns(bytes32) {\n    return memes[_memeId].originId;\n  }\n  function getRepostId(bytes32 _memeId) public view returns(bytes32) {\n    return memes[_memeId].repostId;\n  }\n  function getAuthor(bytes32 _memeId) public view returns(address) {\n    return memes[_memeId].author;\n  }\n  function getVisibility(bytes32 _memeId) public view returns(bool) {\n    return memes[_memeId].isVisible;\n  }\n\n// encode uint for testing\n  function getEncodeId(uint _memeId) public view returns(bytes32) {\n    return memes[keccak256(abi.encodePacked(_memeId))].id;\n  }\n  function getEncodeLikeCount(uint _memeId) public view returns(uint) {\n    return memes[keccak256(abi.encodePacked(_memeId))].likers.length;\n  }\n  function getEncodeLikers(uint _memeId) public view returns(address[] memory) {\n    return memes[keccak256(abi.encodePacked(_memeId))].likers;\n  }\n  function getEncodeUnlikers(uint _memeId) public view returns(address[] memory) {\n    return memes[keccak256(abi.encodePacked(_memeId))].unlikers;\n  }\n  function getEncodeRepostCount(uint _memeId) public view returns(uint) {\n    return memes[keccak256(abi.encodePacked(_memeId))].reposts.length;\n  }\n  function getEncodeReposts(uint _memeId) public view returns(bytes32[] memory) {\n    return memes[keccak256(abi.encodePacked(_memeId))].reposts;\n  }\n  function getEncodeQuotePostCount(uint _memeId) public view returns(uint) {\n    return memes[keccak256(abi.encodePacked(_memeId))].quotePosts.length;\n  }\n  function getEncodeQuotePosts(uint _memeId) public view returns(bytes32[] memory) {\n    return memes[keccak256(abi.encodePacked(_memeId))].quotePosts;\n  }\n  function getEncodeTags(uint _memeId) public view returns(address[] memory) {\n    return memes[keccak256(abi.encodePacked(_memeId))].tags;\n  }\n  function getEncodeResponseCount(uint _memeId) public view returns(uint) {\n    return memes[keccak256(abi.encodePacked(_memeId))].responses.length;\n  }\n  function getEncodeResponses(uint _memeId) public view returns(bytes32[] memory) {\n    return memes[keccak256(abi.encodePacked(_memeId))].responses;\n  }\n  function getEncodeParentId(uint _memeId) public view returns(bytes32) {\n    return memes[keccak256(abi.encodePacked(_memeId))].parentId;\n  }\n  function getEncodeOriginId(uint _memeId) public view returns(bytes32) {\n    return memes[keccak256(abi.encodePacked(_memeId))].originId;\n  }\n  function getEncodeAuthor(uint _memeId) public view returns(address) {\n    return memes[keccak256(abi.encodePacked(_memeId))].author;\n  }\n  function getEncodeVisibility(uint _memeId) public view returns(bool) {\n    return memes[keccak256(abi.encodePacked(_memeId))].isVisible;\n  }\n  function getEncodedIds() public view returns(bytes32[] memory) {\n    return memeIds;\n  }\n\n  // set caller role to User upon deployment\n  function passFactorySigner(address _memeFactory) public returns (bool) {\n    require(\n      msg.sender == factorySigner,\n      'Error: msg.sender must be factorySigner');\n\n    factorySigner = _memeFactory;\n    emit FactorySignerChanged(msg.sender, factorySigner);\n    return true;\n  }\n  function passInterfaceSigner(address _userInterface) public returns (bool) {\n    require(\n      msg.sender == interfaceSigner,\n      'Error: msg.sender must be factorySigner');\n\n    interfaceSigner = _userInterface;\n    emit InterfaceSignerChanged(msg.sender, interfaceSigner);\n    return true;\n  }\n  function passPostSigner(address _post) public returns (bool) {\n    require(\n      msg.sender == postSigner,\n      'Error: msg.sender must be postSigner');\n\n    postSigner = _post;\n    emit PostSignerChanged(msg.sender, postSigner);\n    return true;\n  }\n  function passLikeSigner(address _like) public returns (bool) {\n    require(\n      msg.sender == likeSigner,\n      'Error: msg.sender must be likeSigner');\n\n    likeSigner = _like;\n    emit LikeSignerChanged(msg.sender, likeSigner);\n    return true;\n  }\n  function passBoostSigner(address _boost) public returns (bool) {\n    require(\n      msg.sender == boostSigner,\n      'Error: msg.sender must be likeSigner');\n\n    boostSigner = _boost;\n    emit BoostSignerChanged(msg.sender, boostSigner);\n    return true;\n  }\n}\n",
  "sourcePath": "/Users/jaiq/Documents/000 BLOCKCHAIN/ETH/uMe/src/contracts/MemeStorage.sol",
  "compiler": {
    "name": "solc",
    "version": "0.8.9+commit.e5eed63a.Emscripten.clang"
  },
  "schemaVersion": "3.4.3",
  "updatedAt": "2021-10-29T07:28:42.219Z",
  "networkType": "ethereum",
  "devdoc": {
    "kind": "dev",
    "methods": {},
    "version": 1
  },
  "userdoc": {
    "kind": "user",
    "methods": {},
    "version": 1
  }
}