{
  "contractName": "MemeFactory",
  "abi": [
    {
      "inputs": [
        {
          "internalType": "contract UME",
          "name": "_umeToken",
          "type": "address"
        },
        {
          "internalType": "contract MemeStorage",
          "name": "_memeStorage",
          "type": "address"
        },
        {
          "internalType": "contract UserStorage",
          "name": "_userStorage",
          "type": "address"
        },
        {
          "internalType": "contract Boost",
          "name": "_boost",
          "type": "address"
        }
      ],
      "stateMutability": "nonpayable",
      "type": "constructor"
    },
    {
      "anonymous": false,
      "inputs": [
        {
          "indexed": true,
          "internalType": "bytes32",
          "name": "memeId",
          "type": "bytes32"
        },
        {
          "indexed": false,
          "internalType": "uint256",
          "name": "time",
          "type": "uint256"
        },
        {
          "indexed": true,
          "internalType": "address",
          "name": "account",
          "type": "address"
        }
      ],
      "name": "MemeCreated",
      "type": "event"
    },
    {
      "anonymous": false,
      "inputs": [
        {
          "indexed": true,
          "internalType": "bytes32",
          "name": "memeId",
          "type": "bytes32"
        },
        {
          "indexed": false,
          "internalType": "uint256",
          "name": "time",
          "type": "uint256"
        },
        {
          "indexed": true,
          "internalType": "address",
          "name": "account",
          "type": "address"
        }
      ],
      "name": "MemeDeleted",
      "type": "event"
    },
    {
      "anonymous": false,
      "inputs": [
        {
          "indexed": true,
          "internalType": "address",
          "name": "from",
          "type": "address"
        },
        {
          "indexed": true,
          "internalType": "address",
          "name": "to",
          "type": "address"
        }
      ],
      "name": "PostSignerChanged",
      "type": "event"
    },
    {
      "anonymous": false,
      "inputs": [
        {
          "indexed": true,
          "internalType": "address",
          "name": "from",
          "type": "address"
        },
        {
          "indexed": true,
          "internalType": "address",
          "name": "to",
          "type": "address"
        }
      ],
      "name": "Tagged",
      "type": "event"
    },
    {
      "inputs": [],
      "name": "postSigner",
      "outputs": [
        {
          "internalType": "address",
          "name": "",
          "type": "address"
        }
      ],
      "stateMutability": "view",
      "type": "function"
    },
    {
      "inputs": [
        {
          "internalType": "address",
          "name": "_account",
          "type": "address"
        },
        {
          "internalType": "string",
          "name": "_memeText",
          "type": "string"
        },
        {
          "internalType": "address[]",
          "name": "_tags",
          "type": "address[]"
        },
        {
          "internalType": "bytes32",
          "name": "_parentId",
          "type": "bytes32"
        },
        {
          "internalType": "bytes32",
          "name": "_originId",
          "type": "bytes32"
        },
        {
          "internalType": "bytes32",
          "name": "_repostId",
          "type": "bytes32"
        }
      ],
      "name": "newMeme",
      "outputs": [],
      "stateMutability": "nonpayable",
      "type": "function"
    },
    {
      "inputs": [
        {
          "internalType": "address",
          "name": "_author",
          "type": "address"
        },
        {
          "internalType": "bytes32",
          "name": "_memeId",
          "type": "bytes32"
        }
      ],
      "name": "deleteMeme",
      "outputs": [],
      "stateMutability": "nonpayable",
      "type": "function"
    },
    {
      "inputs": [
        {
          "internalType": "bytes",
          "name": "source",
          "type": "bytes"
        }
      ],
      "name": "_bytesToBytes32",
      "outputs": [
        {
          "internalType": "bytes32",
          "name": "result",
          "type": "bytes32"
        }
      ],
      "stateMutability": "pure",
      "type": "function"
    },
    {
      "inputs": [
        {
          "internalType": "address",
          "name": "_post",
          "type": "address"
        }
      ],
      "name": "passPostSigner",
      "outputs": [
        {
          "internalType": "bool",
          "name": "",
          "type": "bool"
        }
      ],
      "stateMutability": "nonpayable",
      "type": "function"
    }
  ],
  "bytecode": "0x60806040523480156200001157600080fd5b5060405162003873380380620038738339818101604052810190620000379190620002d2565b836000806101000a81548173ffffffffffffffffffffffffffffffffffffffff021916908373ffffffffffffffffffffffffffffffffffffffff16021790555082600160006101000a81548173ffffffffffffffffffffffffffffffffffffffff021916908373ffffffffffffffffffffffffffffffffffffffff16021790555081600260006101000a81548173ffffffffffffffffffffffffffffffffffffffff021916908373ffffffffffffffffffffffffffffffffffffffff16021790555080600360006101000a81548173ffffffffffffffffffffffffffffffffffffffff021916908373ffffffffffffffffffffffffffffffffffffffff16021790555033600560006101000a81548173ffffffffffffffffffffffffffffffffffffffff021916908373ffffffffffffffffffffffffffffffffffffffff1602179055505050505062000344565b600080fd5b600073ffffffffffffffffffffffffffffffffffffffff82169050919050565b6000620001b7826200018a565b9050919050565b6000620001cb82620001aa565b9050919050565b620001dd81620001be565b8114620001e957600080fd5b50565b600081519050620001fd81620001d2565b92915050565b60006200021082620001aa565b9050919050565b620002228162000203565b81146200022e57600080fd5b50565b600081519050620002428162000217565b92915050565b60006200025582620001aa565b9050919050565b620002678162000248565b81146200027357600080fd5b50565b60008151905062000287816200025c565b92915050565b60006200029a82620001aa565b9050919050565b620002ac816200028d565b8114620002b857600080fd5b50565b600081519050620002cc81620002a1565b92915050565b60008060008060808587031215620002ef57620002ee62000185565b5b6000620002ff87828801620001ec565b9450506020620003128782880162000231565b9350506040620003258782880162000276565b92505060606200033887828801620002bb565b91505092959194509250565b61351f80620003546000396000f3fe608060405234801561001057600080fd5b50600436106100575760003560e01c80631867b9371461005c578063648c59eb1461008c5780637527e624146100a85780638c98876f146100c4578063a6838c7b146100e2575b600080fd5b6100766004803603810190610071919061258f565b610112565b60405161008391906125f1565b60405180910390f35b6100a660048036038101906100a19190612696565b610135565b005b6100c260048036038101906100bd919061283f565b6104c4565b005b6100cc61188e565b6040516100d99190612913565b60405180910390f35b6100fc60048036038101906100f7919061292e565b6118b4565b6040516101099190612976565b60405180910390f35b60008082511415610128576000801b9050610130565b602082015190505b919050565b3373ffffffffffffffffffffffffffffffffffffffff16600560009054906101000a900473ffffffffffffffffffffffffffffffffffffffff1673ffffffffffffffffffffffffffffffffffffffff16146101c5576040517f08c379a00000000000000000000000000000000000000000000000000000000081526004016101bc90612a14565b60405180910390fd5b6000600160009054906101000a900473ffffffffffffffffffffffffffffffffffffffff1673ffffffffffffffffffffffffffffffffffffffff16637071af84836040518263ffffffff1660e01b815260040161022291906125f1565b60206040518083038186803b15801561023a57600080fd5b505afa15801561024e573d6000803e3d6000fd5b505050506040513d601f19601f820116820180604052508101906102729190612a49565b90506000600160009054906101000a900473ffffffffffffffffffffffffffffffffffffffff1673ffffffffffffffffffffffffffffffffffffffff1663e2975f09846040518263ffffffff1660e01b81526004016102d191906125f1565b60206040518083038186803b1580156102e957600080fd5b505afa1580156102fd573d6000803e3d6000fd5b505050506040513d601f19601f820116820180604052508101906103219190612a49565b90506000600160009054906101000a900473ffffffffffffffffffffffffffffffffffffffff1673ffffffffffffffffffffffffffffffffffffffff1663f64458bd836040518263ffffffff1660e01b815260040161038091906125f1565b60006040518083038186803b15801561039857600080fd5b505afa1580156103ac573d6000803e3d6000fd5b505050506040513d6000823e3d601f19601f820116820180604052508101906103d59190612b19565b90506103e18585611a0c565b600160009054906101000a900473ffffffffffffffffffffffffffffffffffffffff1673ffffffffffffffffffffffffffffffffffffffff1663aaf837c5856040518263ffffffff1660e01b815260040161043c91906125f1565b600060405180830381600087803b15801561045657600080fd5b505af115801561046a573d6000803e3d6000fd5b505050508473ffffffffffffffffffffffffffffffffffffffff16847f31a29f3d549b51b33c10acca465864df60975bf964406b8289c210ecea130faa426040516104b59190612b7b565b60405180910390a35050505050565b600560009054906101000a900473ffffffffffffffffffffffffffffffffffffffff1673ffffffffffffffffffffffffffffffffffffffff163373ffffffffffffffffffffffffffffffffffffffff1614610554576040517f08c379a000000000000000000000000000000000000000000000000000000000815260040161054b90612c08565b60405180910390fd5b600160009054906101000a900473ffffffffffffffffffffffffffffffffffffffff1673ffffffffffffffffffffffffffffffffffffffff1663f8f3d0376040518163ffffffff1660e01b8152600401600060405180830381600087803b1580156105be57600080fd5b505af11580156105d2573d6000803e3d6000fd5b505050506000600160009054906101000a900473ffffffffffffffffffffffffffffffffffffffff1673ffffffffffffffffffffffffffffffffffffffff16637b2124d26040518163ffffffff1660e01b815260040160206040518083038186803b15801561064057600080fd5b505afa158015610654573d6000803e3d6000fd5b505050506040513d601f19601f820116820180604052508101906106789190612c54565b6040516020016106889190612ca2565b6040516020818303038152906040528051906020012090506004548414156106ae578093505b6004548314156106bc578092505b600160009054906101000a900473ffffffffffffffffffffffffffffffffffffffff1673ffffffffffffffffffffffffffffffffffffffff1663ddf60c9382604051806101e001604052808581526020014281526020018a815260200160008152602001600067ffffffffffffffff81111561073b5761073a612464565b5b6040519080825280602002602001820160405280156107695781602001602082028036833780820191505090505b508152602001600067ffffffffffffffff81111561078a57610789612464565b5b6040519080825280602002602001820160405280156107b85781602001602082028036833780820191505090505b508152602001600067ffffffffffffffff8111156107d9576107d8612464565b5b6040519080825280602002602001820160405280156108075781602001602082028036833780820191505090505b508152602001600067ffffffffffffffff81111561082857610827612464565b5b6040519080825280602002602001820160405280156108565781602001602082028036833780820191505090505b508152602001868152602001898152602001600067ffffffffffffffff81111561088357610882612464565b5b6040519080825280602002602001820160405280156108b15781602001602082028036833780820191505090505b5081526020018881526020018781526020018b73ffffffffffffffffffffffffffffffffffffffff168152602001600115158152506040518363ffffffff1660e01b8152600401610903929190613019565b600060405180830381600087803b15801561091d57600080fd5b505af1158015610931573d6000803e3d6000fd5b5050505083811415801561094457508284145b15610bfa578673ffffffffffffffffffffffffffffffffffffffff16600160009054906101000a900473ffffffffffffffffffffffffffffffffffffffff1673ffffffffffffffffffffffffffffffffffffffff1663691d1c28866040518263ffffffff1660e01b81526004016109bb91906125f1565b60206040518083038186803b1580156109d357600080fd5b505afa1580156109e7573d6000803e3d6000fd5b505050506040513d601f19601f82011682018060405250810190610a0b919061305e565b73ffffffffffffffffffffffffffffffffffffffff1614610b5e5760008054906101000a900473ffffffffffffffffffffffffffffffffffffffff1673ffffffffffffffffffffffffffffffffffffffff1663bc83419588600160009054906101000a900473ffffffffffffffffffffffffffffffffffffffff1673ffffffffffffffffffffffffffffffffffffffff1663691d1c28886040518263ffffffff1660e01b8152600401610abe91906125f1565b60206040518083038186803b158015610ad657600080fd5b505afa158015610aea573d6000803e3d6000fd5b505050506040513d601f19601f82011682018060405250810190610b0e919061305e565b6040518363ffffffff1660e01b8152600401610b2b92919061308b565b600060405180830381600087803b158015610b4557600080fd5b505af1158015610b59573d6000803e3d6000fd5b505050505b610b688185611ca1565b600360009054906101000a900473ffffffffffffffffffffffffffffffffffffffff1673ffffffffffffffffffffffffffffffffffffffff16634920baff826040518263ffffffff1660e01b8152600401610bc391906125f1565b600060405180830381600087803b158015610bdd57600080fd5b505af1158015610bf1573d6000803e3d6000fd5b5050505061115f565b838114158015610c0a5750828414155b1561115e578673ffffffffffffffffffffffffffffffffffffffff16600160009054906101000a900473ffffffffffffffffffffffffffffffffffffffff1673ffffffffffffffffffffffffffffffffffffffff1663691d1c28866040518263ffffffff1660e01b8152600401610c8191906125f1565b60206040518083038186803b158015610c9957600080fd5b505afa158015610cad573d6000803e3d6000fd5b505050506040513d601f19601f82011682018060405250810190610cd1919061305e565b73ffffffffffffffffffffffffffffffffffffffff1614610e245760008054906101000a900473ffffffffffffffffffffffffffffffffffffffff1673ffffffffffffffffffffffffffffffffffffffff1663bc83419588600160009054906101000a900473ffffffffffffffffffffffffffffffffffffffff1673ffffffffffffffffffffffffffffffffffffffff1663691d1c28886040518263ffffffff1660e01b8152600401610d8491906125f1565b60206040518083038186803b158015610d9c57600080fd5b505afa158015610db0573d6000803e3d6000fd5b505050506040513d601f19601f82011682018060405250810190610dd4919061305e565b6040518363ffffffff1660e01b8152600401610df192919061308b565b600060405180830381600087803b158015610e0b57600080fd5b505af1158015610e1f573d6000803e3d6000fd5b505050505b600360009054906101000a900473ffffffffffffffffffffffffffffffffffffffff1673ffffffffffffffffffffffffffffffffffffffff16634920baff826040518263ffffffff1660e01b8152600401610e7f91906125f1565b600060405180830381600087803b158015610e9957600080fd5b505af1158015610ead573d6000803e3d6000fd5b505050508673ffffffffffffffffffffffffffffffffffffffff16600160009054906101000a900473ffffffffffffffffffffffffffffffffffffffff1673ffffffffffffffffffffffffffffffffffffffff1663691d1c28856040518263ffffffff1660e01b8152600401610f2391906125f1565b60206040518083038186803b158015610f3b57600080fd5b505afa158015610f4f573d6000803e3d6000fd5b505050506040513d601f19601f82011682018060405250810190610f73919061305e565b73ffffffffffffffffffffffffffffffffffffffff16146110c65760008054906101000a900473ffffffffffffffffffffffffffffffffffffffff1673ffffffffffffffffffffffffffffffffffffffff1663e981dc8f88600160009054906101000a900473ffffffffffffffffffffffffffffffffffffffff1673ffffffffffffffffffffffffffffffffffffffff1663691d1c28876040518263ffffffff1660e01b815260040161102691906125f1565b60206040518083038186803b15801561103e57600080fd5b505afa158015611052573d6000803e3d6000fd5b505050506040513d601f19601f82011682018060405250810190611076919061305e565b6040518363ffffffff1660e01b815260040161109392919061308b565b600060405180830381600087803b1580156110ad57600080fd5b505af11580156110c1573d6000803e3d6000fd5b505050505b6110d08185611ca1565b600360009054906101000a900473ffffffffffffffffffffffffffffffffffffffff1673ffffffffffffffffffffffffffffffffffffffff1663b13126e2826040518263ffffffff1660e01b815260040161112b91906125f1565b600060405180830381600087803b15801561114557600080fd5b505af1158015611159573d6000803e3d6000fd5b505050505b5b60005b85518110156113c95785818151811061117e5761117d6130b4565b5b602002602001015173ffffffffffffffffffffffffffffffffffffffff168873ffffffffffffffffffffffffffffffffffffffff16141580156112085750600073ffffffffffffffffffffffffffffffffffffffff168682815181106111e7576111e66130b4565b5b602002602001015173ffffffffffffffffffffffffffffffffffffffff1614155b156113b65760008054906101000a900473ffffffffffffffffffffffffffffffffffffffff1673ffffffffffffffffffffffffffffffffffffffff16632cc67a7c8988848151811061125d5761125c6130b4565b5b60200260200101516040518363ffffffff1660e01b815260040161128292919061308b565b600060405180830381600087803b15801561129c57600080fd5b505af11580156112b0573d6000803e3d6000fd5b50505050600360009054906101000a900473ffffffffffffffffffffffffffffffffffffffff1673ffffffffffffffffffffffffffffffffffffffff1663e6d7b017836040518263ffffffff1660e01b815260040161130f91906125f1565b600060405180830381600087803b15801561132957600080fd5b505af115801561133d573d6000803e3d6000fd5b50505050858181518110611354576113536130b4565b5b602002602001015173ffffffffffffffffffffffffffffffffffffffff168873ffffffffffffffffffffffffffffffffffffffff167f069de1c7afdaba4b7727994f755c1584584ca12fdedef1eded797865d094c0e260405160405180910390a35b80806113c190613112565b915050611162565b506004548214611710576000865114156115c0576000600160009054906101000a900473ffffffffffffffffffffffffffffffffffffffff1673ffffffffffffffffffffffffffffffffffffffff166372d9fe5d846040518263ffffffff1660e01b815260040161143a91906125f1565b60006040518083038186803b15801561145257600080fd5b505afa158015611466573d6000803e3d6000fd5b505050506040513d6000823e3d601f19601f8201168201806040525081019061148f919061321e565b905061149d82888584611ed0565b600160009054906101000a900473ffffffffffffffffffffffffffffffffffffffff1673ffffffffffffffffffffffffffffffffffffffff166370d2c46b8360046040518363ffffffff1660e01b81526004016114fb9291906132ac565b600060405180830381600087803b15801561151557600080fd5b505af1158015611529573d6000803e3d6000fd5b50505050600360009054906101000a900473ffffffffffffffffffffffffffffffffffffffff1673ffffffffffffffffffffffffffffffffffffffff16638fb25321846040518263ffffffff1660e01b815260040161158891906125f1565b600060405180830381600087803b1580156115a257600080fd5b505af11580156115b6573d6000803e3d6000fd5b505050505061170f565b6000600160009054906101000a900473ffffffffffffffffffffffffffffffffffffffff1673ffffffffffffffffffffffffffffffffffffffff166369171f5c846040518263ffffffff1660e01b815260040161161d91906125f1565b60006040518083038186803b15801561163557600080fd5b505afa158015611649573d6000803e3d6000fd5b505050506040513d6000823e3d601f19601f82011682018060405250810190611672919061321e565b905061168082888584611ed0565b600360009054906101000a900473ffffffffffffffffffffffffffffffffffffffff1673ffffffffffffffffffffffffffffffffffffffff16638fb25321846040518263ffffffff1660e01b81526004016116db91906125f1565b600060405180830381600087803b1580156116f557600080fd5b505af1158015611709573d6000803e3d6000fd5b50505050505b5b61171a87826120eb565b600260009054906101000a900473ffffffffffffffffffffffffffffffffffffffff1673ffffffffffffffffffffffffffffffffffffffff1663e07dbb1082896040518363ffffffff1660e01b81526004016117779291906132d5565b600060405180830381600087803b15801561179157600080fd5b505af11580156117a5573d6000803e3d6000fd5b50505050600360009054906101000a900473ffffffffffffffffffffffffffffffffffffffff1673ffffffffffffffffffffffffffffffffffffffff16635d875b68826040518263ffffffff1660e01b815260040161180491906125f1565b600060405180830381600087803b15801561181e57600080fd5b505af1158015611832573d6000803e3d6000fd5b505050508673ffffffffffffffffffffffffffffffffffffffff16817f1838922b4eb20492c478bbdc44a1f4e1cb49bc4702a0af8f4448a412bb5769e44260405161187d9190612b7b565b60405180910390a350505050505050565b600560009054906101000a900473ffffffffffffffffffffffffffffffffffffffff1681565b6000600560009054906101000a900473ffffffffffffffffffffffffffffffffffffffff1673ffffffffffffffffffffffffffffffffffffffff163373ffffffffffffffffffffffffffffffffffffffff1614611946576040517f08c379a000000000000000000000000000000000000000000000000000000000815260040161193d90613370565b60405180910390fd5b81600560006101000a81548173ffffffffffffffffffffffffffffffffffffffff021916908373ffffffffffffffffffffffffffffffffffffffff160217905550600560009054906101000a900473ffffffffffffffffffffffffffffffffffffffff1673ffffffffffffffffffffffffffffffffffffffff163373ffffffffffffffffffffffffffffffffffffffff167f76ce921e20c471c95deae34d20d53706ec4378ecab394e517f73aef912ae6cdd60405160405180910390a360019050919050565b6000600260009054906101000a900473ffffffffffffffffffffffffffffffffffffffff1673ffffffffffffffffffffffffffffffffffffffff16634caf9d0b846040518263ffffffff1660e01b8152600401611a699190612913565b60006040518083038186803b158015611a8157600080fd5b505afa158015611a95573d6000803e3d6000fd5b505050506040513d6000823e3d601f19601f82011682018060405250810190611abe919061321e565b90506000815190506000600182611ad59190613390565b67ffffffffffffffff811115611aee57611aed612464565b5b604051908082528060200260200182016040528015611b1c5781602001602082028036833780820191505090505b509050600080600090505b8451811015611b6d5785858281518110611b4457611b436130b4565b5b60200260200101511415611b5a57809150611b6d565b8080611b6590613112565b915050611b27565b50611b78848261230d565b9150600260009054906101000a900473ffffffffffffffffffffffffffffffffffffffff1673ffffffffffffffffffffffffffffffffffffffff1663bb58f85d87846040518363ffffffff1660e01b8152600401611bd7929190613433565b600060405180830381600087803b158015611bf157600080fd5b505af1158015611c05573d6000803e3d6000fd5b50505050600260009054906101000a900473ffffffffffffffffffffffffffffffffffffffff1673ffffffffffffffffffffffffffffffffffffffff1663e07dbb108660006040518363ffffffff1660e01b8152600401611c679291906132d5565b600060405180830381600087803b158015611c8157600080fd5b505af1158015611c95573d6000803e3d6000fd5b50505050505050505050565b6000600160009054906101000a900473ffffffffffffffffffffffffffffffffffffffff1673ffffffffffffffffffffffffffffffffffffffff1663d4b8df22836040518263ffffffff1660e01b8152600401611cfe91906125f1565b60006040518083038186803b158015611d1657600080fd5b505afa158015611d2a573d6000803e3d6000fd5b505050506040513d6000823e3d601f19601f82011682018060405250810190611d53919061321e565b90506000815190506000600182611d6a9190613463565b67ffffffffffffffff811115611d8357611d82612464565b5b604051908082528060200260200182016040528015611db15781602001602082028036833780820191505090505b50905060005b82811015611e0c57838181518110611dd257611dd16130b4565b5b6020026020010151828281518110611ded57611dec6130b4565b5b6020026020010181815250508080611e0490613112565b915050611db7565b50848160018351611e1d9190613390565b81518110611e2e57611e2d6130b4565b5b602002602001018181525050600160009054906101000a900473ffffffffffffffffffffffffffffffffffffffff1673ffffffffffffffffffffffffffffffffffffffff1663bacd910c85836040518363ffffffff1660e01b8152600401611e979291906134b9565b600060405180830381600087803b158015611eb157600080fd5b505af1158015611ec5573d6000803e3d6000fd5b505050505050505050565b6000815190506000600182611ee59190613463565b67ffffffffffffffff811115611efe57611efd612464565b5b604051908082528060200260200182016040528015611f2c5781602001602082028036833780820191505090505b50905060005b82811015611f8757838181518110611f4d57611f4c6130b4565b5b6020026020010151828281518110611f6857611f676130b4565b5b6020026020010181815250508080611f7f90613112565b915050611f32565b50858160018351611f989190613390565b81518110611fa957611fa86130b4565b5b60200260200101818152505060008551141561205357600160009054906101000a900473ffffffffffffffffffffffffffffffffffffffff1673ffffffffffffffffffffffffffffffffffffffff166350de13f985836040518363ffffffff1660e01b815260040161201c9291906134b9565b600060405180830381600087803b15801561203657600080fd5b505af115801561204a573d6000803e3d6000fd5b505050506120e3565b600160009054906101000a900473ffffffffffffffffffffffffffffffffffffffff1673ffffffffffffffffffffffffffffffffffffffff1663bd0a4e9e85836040518363ffffffff1660e01b81526004016120b09291906134b9565b600060405180830381600087803b1580156120ca57600080fd5b505af11580156120de573d6000803e3d6000fd5b505050505b505050505050565b6000600260009054906101000a900473ffffffffffffffffffffffffffffffffffffffff1673ffffffffffffffffffffffffffffffffffffffff16634caf9d0b846040518263ffffffff1660e01b81526004016121489190612913565b60006040518083038186803b15801561216057600080fd5b505afa158015612174573d6000803e3d6000fd5b505050506040513d6000823e3d601f19601f8201168201806040525081019061219d919061321e565b905060008151905060006001826121b49190613463565b67ffffffffffffffff8111156121cd576121cc612464565b5b6040519080825280602002602001820160405280156121fb5781602001602082028036833780820191505090505b50905060005b828110156122565783818151811061221c5761221b6130b4565b5b6020026020010151828281518110612237576122366130b4565b5b602002602001018181525050808061224e90613112565b915050612201565b508381838151811061226b5761226a6130b4565b5b602002602001018181525050600260009054906101000a900473ffffffffffffffffffffffffffffffffffffffff1673ffffffffffffffffffffffffffffffffffffffff1663bb58f85d86836040518363ffffffff1660e01b81526004016122d4929190613433565b600060405180830381600087803b1580156122ee57600080fd5b505af1158015612302573d6000803e3d6000fd5b505050505050505050565b606060006001845161231f9190613390565b67ffffffffffffffff81111561233857612337612464565b5b6040519080825280602002602001820160405280156123665781602001602082028036833780820191505090505b50905060005b838110156123c157848181518110612387576123866130b4565b5b60200260200101518282815181106123a2576123a16130b4565b5b60200260200101818152505080806123b990613112565b91505061236c565b5060008390505b815181101561242a57846001826123df9190613463565b815181106123f0576123ef6130b4565b5b602002602001015182828151811061240b5761240a6130b4565b5b602002602001018181525050808061242290613112565b9150506123c8565b508091505092915050565b6000604051905090565b600080fd5b600080fd5b600080fd5b600080fd5b6000601f19601f8301169050919050565b7f4e487b7100000000000000000000000000000000000000000000000000000000600052604160045260246000fd5b61249c82612453565b810181811067ffffffffffffffff821117156124bb576124ba612464565b5b80604052505050565b60006124ce612435565b90506124da8282612493565b919050565b600067ffffffffffffffff8211156124fa576124f9612464565b5b61250382612453565b9050602081019050919050565b82818337600083830152505050565b600061253261252d846124df565b6124c4565b90508281526020810184848401111561254e5761254d61244e565b5b612559848285612510565b509392505050565b600082601f83011261257657612575612449565b5b813561258684826020860161251f565b91505092915050565b6000602082840312156125a5576125a461243f565b5b600082013567ffffffffffffffff8111156125c3576125c2612444565b5b6125cf84828501612561565b91505092915050565b6000819050919050565b6125eb816125d8565b82525050565b600060208201905061260660008301846125e2565b92915050565b600073ffffffffffffffffffffffffffffffffffffffff82169050919050565b60006126378261260c565b9050919050565b6126478161262c565b811461265257600080fd5b50565b6000813590506126648161263e565b92915050565b612673816125d8565b811461267e57600080fd5b50565b6000813590506126908161266a565b92915050565b600080604083850312156126ad576126ac61243f565b5b60006126bb85828601612655565b92505060206126cc85828601612681565b9150509250929050565b600067ffffffffffffffff8211156126f1576126f0612464565b5b6126fa82612453565b9050602081019050919050565b600061271a612715846126d6565b6124c4565b9050828152602081018484840111156127365761273561244e565b5b612741848285612510565b509392505050565b600082601f83011261275e5761275d612449565b5b813561276e848260208601612707565b91505092915050565b600067ffffffffffffffff82111561279257612791612464565b5b602082029050602081019050919050565b600080fd5b60006127bb6127b684612777565b6124c4565b905080838252602082019050602084028301858111156127de576127dd6127a3565b5b835b8181101561280757806127f38882612655565b8452602084019350506020810190506127e0565b5050509392505050565b600082601f83011261282657612825612449565b5b81356128368482602086016127a8565b91505092915050565b60008060008060008060c0878903121561285c5761285b61243f565b5b600061286a89828a01612655565b965050602087013567ffffffffffffffff81111561288b5761288a612444565b5b61289789828a01612749565b955050604087013567ffffffffffffffff8111156128b8576128b7612444565b5b6128c489828a01612811565b94505060606128d589828a01612681565b93505060806128e689828a01612681565b92505060a06128f789828a01612681565b9150509295509295509295565b61290d8161262c565b82525050565b60006020820190506129286000830184612904565b92915050565b6000602082840312156129445761294361243f565b5b600061295284828501612655565b91505092915050565b60008115159050919050565b6129708161295b565b82525050565b600060208201905061298b6000830184612967565b92915050565b600082825260208201905092915050565b7f4572726f723a206f6e6c79207369676e65722063616e2064656c657465206d6560008201527f6d65000000000000000000000000000000000000000000000000000000000000602082015250565b60006129fe602283612991565b9150612a09826129a2565b604082019050919050565b60006020820190508181036000830152612a2d816129f1565b9050919050565b600081519050612a438161266a565b92915050565b600060208284031215612a5f57612a5e61243f565b5b6000612a6d84828501612a34565b91505092915050565b60005b83811015612a94578082015181840152602081019050612a79565b83811115612aa3576000848401525b50505050565b6000612abc612ab7846126d6565b6124c4565b905082815260208101848484011115612ad857612ad761244e565b5b612ae3848285612a76565b509392505050565b600082601f830112612b0057612aff612449565b5b8151612b10848260208601612aa9565b91505092915050565b600060208284031215612b2f57612b2e61243f565b5b600082015167ffffffffffffffff811115612b4d57612b4c612444565b5b612b5984828501612aeb565b91505092915050565b6000819050919050565b612b7581612b62565b82525050565b6000602082019050612b906000830184612b6c565b92915050565b7f4572726f723a206d73672e73656e646572206d75737420626520696e7465726660008201527f616365287369676e657229000000000000000000000000000000000000000000602082015250565b6000612bf2602b83612991565b9150612bfd82612b96565b604082019050919050565b60006020820190508181036000830152612c2181612be5565b9050919050565b612c3181612b62565b8114612c3c57600080fd5b50565b600081519050612c4e81612c28565b92915050565b600060208284031215612c6a57612c6961243f565b5b6000612c7884828501612c3f565b91505092915050565b6000819050919050565b612c9c612c9782612b62565b612c81565b82525050565b6000612cae8284612c8b565b60208201915081905092915050565b612cc6816125d8565b82525050565b612cd581612b62565b82525050565b600081519050919050565b600082825260208201905092915050565b6000612d0282612cdb565b612d0c8185612ce6565b9350612d1c818560208601612a76565b612d2581612453565b840191505092915050565b600081519050919050565b600082825260208201905092915050565b6000819050602082019050919050565b612d658161262c565b82525050565b6000612d778383612d5c565b60208301905092915050565b6000602082019050919050565b6000612d9b82612d30565b612da58185612d3b565b9350612db083612d4c565b8060005b83811015612de1578151612dc88882612d6b565b9750612dd383612d83565b925050600181019050612db4565b5085935050505092915050565b600081519050919050565b600082825260208201905092915050565b6000819050602082019050919050565b6000612e268383612cbd565b60208301905092915050565b6000602082019050919050565b6000612e4a82612dee565b612e548185612df9565b9350612e5f83612e0a565b8060005b83811015612e90578151612e778882612e1a565b9750612e8283612e32565b925050600181019050612e63565b5085935050505092915050565b612ea68161295b565b82525050565b60006101e083016000830151612ec56000860182612cbd565b506020830151612ed86020860182612ccc565b5060408301518482036040860152612ef08282612cf7565b9150506060830151612f056060860182612ccc565b5060808301518482036080860152612f1d8282612d90565b91505060a083015184820360a0860152612f378282612d90565b91505060c083015184820360c0860152612f518282612e3f565b91505060e083015184820360e0860152612f6b8282612e3f565b915050610100830151612f82610100860182612cbd565b50610120830151848203610120860152612f9c8282612d90565b915050610140830151848203610140860152612fb88282612e3f565b915050610160830151612fcf610160860182612cbd565b50610180830151612fe4610180860182612cbd565b506101a0830151612ff96101a0860182612d5c565b506101c083015161300e6101c0860182612e9d565b508091505092915050565b600060408201905061302e60008301856125e2565b81810360208301526130408184612eac565b90509392505050565b6000815190506130588161263e565b92915050565b6000602082840312156130745761307361243f565b5b600061308284828501613049565b91505092915050565b60006040820190506130a06000830185612904565b6130ad6020830184612904565b9392505050565b7f4e487b7100000000000000000000000000000000000000000000000000000000600052603260045260246000fd5b7f4e487b7100000000000000000000000000000000000000000000000000000000600052601160045260246000fd5b600061311d82612b62565b91507fffffffffffffffffffffffffffffffffffffffffffffffffffffffffffffffff8214156131505761314f6130e3565b5b600182019050919050565b600067ffffffffffffffff82111561317657613175612464565b5b602082029050602081019050919050565b600061319a6131958461315b565b6124c4565b905080838252602082019050602084028301858111156131bd576131bc6127a3565b5b835b818110156131e657806131d28882612a34565b8452602084019350506020810190506131bf565b5050509392505050565b600082601f83011261320557613204612449565b5b8151613215848260208601613187565b91505092915050565b6000602082840312156132345761323361243f565b5b600082015167ffffffffffffffff81111561325257613251612444565b5b61325e848285016131f0565b91505092915050565b6000819050919050565b6000819050919050565b600061329661329161328c84613267565b613271565b612b62565b9050919050565b6132a68161327b565b82525050565b60006040820190506132c160008301856125e2565b6132ce602083018461329d565b9392505050565b60006040820190506132ea60008301856125e2565b6132f76020830184612904565b9392505050565b7f4572726f723a206f6e6c79206465706c6f7965722063616e207061737320706f60008201527f7374207369676e657220726f6c65000000000000000000000000000000000000602082015250565b600061335a602e83612991565b9150613365826132fe565b604082019050919050565b600060208201905081810360008301526133898161334d565b9050919050565b600061339b82612b62565b91506133a683612b62565b9250828210156133b9576133b86130e3565b5b828203905092915050565b600082825260208201905092915050565b60006133e082612dee565b6133ea81856133c4565b93506133f583612e0a565b8060005b8381101561342657815161340d8882612e1a565b975061341883612e32565b9250506001810190506133f9565b5085935050505092915050565b60006040820190506134486000830185612904565b818103602083015261345a81846133d5565b90509392505050565b600061346e82612b62565b915061347983612b62565b9250827fffffffffffffffffffffffffffffffffffffffffffffffffffffffffffffffff038211156134ae576134ad6130e3565b5b828201905092915050565b60006040820190506134ce60008301856125e2565b81810360208301526134e081846133d5565b9050939250505056fea26469706673582212203261b5fb71b7c588a9bbf9c11950fb4cfb56099c76337c7c21a8b4a96074ac0864736f6c63430008090033",
  "immutableReferences": {},
  "source": "// SPDX-License-Identifier: MIT\n\npragma solidity >=0.8.0 <0.9.0;\n\nimport \"./UME.sol\";\nimport \"./Boost.sol\";\nimport \"./MemeStorage.sol\";\nimport \"./UserStorage.sol\";\n\ncontract MemeFactory {\n  // public variables\n  UME private umeToken;\n  MemeStorage private memeStorage;\n  UserStorage private userStorage;\n  Boost private boost;\n\n  bytes32 zeroBytes;\n\n  address public postSigner;\n\n  event PostSignerChanged(\n        address indexed from,\n        address indexed to);\n  event MemeCreated(\n        bytes32 indexed memeId,\n        uint time,\n        address indexed account);\n  event MemeDeleted(\n        bytes32 indexed memeId,\n        uint time,\n        address indexed account);\n  event Tagged(\n        address indexed from,\n        address indexed to);\n\n  constructor(UME _umeToken,\n              MemeStorage _memeStorage,\n              UserStorage _userStorage,\n              Boost _boost)\n              public {\n    umeToken = _umeToken;\n    memeStorage = _memeStorage;\n    userStorage = _userStorage;\n    boost = _boost;\n\n    postSigner = msg.sender;\n  }\n\n  // posting meme functions\n  function newMeme(\n            address _account,\n            string memory _memeText,\n            address[] memory _tags,\n            bytes32 _parentId,\n            bytes32 _originId,\n            bytes32 _repostId)\n            public {\n    require(\n      msg.sender==postSigner,\n      'Error: msg.sender must be interface(signer)');\n    // increment meme id\n    memeStorage.increaseMemeCount();\n    bytes32 _memeId = keccak256(abi.encodePacked(memeStorage.memeCount()));\n    // set parent & origin id's to memeId if\n    if (_parentId == zeroBytes) {\n      _parentId = _memeId;\n    }\n    if (_originId == zeroBytes) {\n      _originId = _memeId;\n    }\n    // map memeId to new meme\n    memeStorage.setMeme(_memeId, MemeStorage.Meme(\n      _memeId, // meme id\n      block.timestamp, // meme time\n      _memeText, // meme text\n      0, // boost value\n      new address[](0), // likers\n      new address[](0), // unlikers\n      new bytes32[](0), // reposts\n      new bytes32[](0), // quotePosts\n      _repostId, // repost id\n      _tags, // tagged\n      new bytes32[](0), // response array\n      _parentId, // parent\n      _originId, // origin\n      _account, // author\n      true // isVisible\n    ));\n    // if responding to a single post, then mint respond token\n    if(_memeId!=_parentId && _parentId==_originId) {\n      if(memeStorage.getAuthor(_parentId)!=_account)\n        umeToken.mintRespond(_account, memeStorage.getAuthor(_parentId));\n        _addResponse(_memeId, _parentId);\n        boost.respondBoost(_memeId);\n    } // if responding to a thread, mint respond token for parent, curate token for original\n    else if(_memeId!=_parentId && _parentId!=_originId) {\n      if(memeStorage.getAuthor(_parentId)!=_account)\n        umeToken.mintRespond(_account, memeStorage.getAuthor(_parentId));\n        boost.respondBoost(_memeId);\n      if(memeStorage.getAuthor(_originId)!=_account)\n        umeToken.mintCurate(_account, memeStorage.getAuthor(_originId));\n        _addResponse(_memeId, _parentId);\n        boost.curateBoost(_memeId);\n    }\n    // mint tags\n    for(uint i = 0; i < _tags.length; i++) {\n      if(_account!=_tags[i] && _tags[i]!=address(0x0)){\n        umeToken.mintTag(_account, _tags[i]);\n        boost.tagBoost(_memeId);\n        emit Tagged(_account, _tags[i]);\n      }\n    }\n    if(_repostId!=zeroBytes) {\n      if(bytes(_memeText).length==0) {\n        bytes32[] memory _oldReposts = memeStorage.getReposts(_repostId);\n        _addRepost(_memeId, _memeText, _repostId, _oldReposts);\n        memeStorage.addBoost(_memeId, 4);\n        boost.repostBoost(_repostId);\n      } else {\n        bytes32[] memory _oldReposts = memeStorage.getQuotePosts(_repostId);\n        _addRepost(_memeId, _memeText, _repostId, _oldReposts);\n        boost.repostBoost(_repostId);\n      }\n    }\n    _addPostToUser(_account, _memeId);\n    userStorage.setUsersByMeme(_memeId, _account);\n    boost.postBoost(_memeId);\n    emit MemeCreated(_memeId, block.timestamp, _account);\n  }\n  function deleteMeme(\n            address _author,\n            bytes32 _memeId)\n            public {\n    require(\n      postSigner==msg.sender,\n      'Error: only signer can delete meme');\n    // create empty Meme instance\n    bytes32 _parentId = memeStorage.getParentId(_memeId);\n    bytes32 _repostId = memeStorage.getRepostId(_memeId);\n    string memory _repostText = memeStorage.getText(_repostId);\n    _deletePostFromUser(_author, _memeId);\n    memeStorage.deleteMeme(_memeId);\n    emit MemeDeleted(_memeId, block.timestamp, _author);\n  }\n\n  function _addResponse(\n            bytes32 _memeId,\n            bytes32 _parentId)\n            private {\n    bytes32[] memory _oldResponses = memeStorage.getResponses(_parentId);\n    uint _oldResponseCount = _oldResponses.length;\n    bytes32[] memory _newResponses = new bytes32[](_oldResponseCount+1);\n    for(uint i = 0; i < _oldResponseCount; i++)\n      _newResponses[i] = _oldResponses[i];\n    _newResponses[_newResponses.length-1] = _memeId;\n    memeStorage.setResponses(_parentId, _newResponses);\n  }\n  function _addRepost(\n            bytes32 _memeId,\n            string memory _memeText,\n            bytes32 _repostId,\n            bytes32[] memory _oldReposts)\n            private {\n\n    uint _oldRepostCount = _oldReposts.length;\n    bytes32[] memory _newReposts = new bytes32[](_oldRepostCount+1);\n    for(uint i = 0; i < _oldRepostCount; i++)\n      _newReposts[i] = _oldReposts[i];\n    _newReposts[_newReposts.length-1] = _memeId;\n\n    if(bytes(_memeText).length==0) memeStorage.setReposts(_repostId, _newReposts);\n    else memeStorage.setQuotePosts(_repostId, _newReposts);\n  }\n  function _addPostToUser(\n            address _account,\n            bytes32 _memeId)\n            private {\n     // create memory array with length one greater than _user.posts length\n     bytes32[] memory _oldPosts = userStorage.getPosts(_account);\n     uint _oldPostCount = _oldPosts.length;\n     bytes32[] memory _newPosts = new bytes32[](_oldPostCount+1);\n     for(uint i = 0; i < _oldPostCount; i++)\n       _newPosts[i] = _oldPosts[i];\n     _newPosts[_oldPostCount] = _memeId;\n     userStorage.setPosts(_account, _newPosts);\n  }\n  function _deletePostFromUser(\n            address _account,\n            bytes32 _memeId)\n            private {\n     bytes32[] memory _oldPosts = userStorage.getPosts(_account);\n     uint _oldPostCount = _oldPosts.length;\n     bytes32[] memory _newPosts = new bytes32[](_oldPostCount-1);\n     uint _index;\n     for(uint i = 0; i < _oldPosts.length; i++) {\n       if(_oldPosts[i]==_memeId) {\n         _index = i;\n         break;\n       }\n     }\n     _newPosts = _deleteBytes32(_oldPosts, _index);\n     userStorage.setPosts(_account, _newPosts);\n     // clears mapping of deleted meme, reroutes to 0x0 address instead of deleter\n     userStorage.setUsersByMeme(_memeId, address(0x0));\n  }\n\n  // helper functions\n  function _deleteBytes32(\n            bytes32[] memory array,\n            uint index)\n            private pure returns(bytes32[] memory) {\n    bytes32[] memory _array = new bytes32[](array.length-1);\n    for(uint i = 0; i < index; i++)\n      _array[i] = array[i];\n    for(uint i = index; i < _array.length; i++)\n      _array[i] = array[i+1];\n    return _array;\n  }\n\n  function _bytesToBytes32(bytes memory source)\n            public pure returns(bytes32 result) {\n    if(source.length==0) return 0x0;\n    assembly {\n      result := mload(add(source, 32))\n    }\n  }\n  // set signer roles\n  function passPostSigner(address _post) public returns (bool) {\n    require(\n      msg.sender == postSigner,\n      'Error: only deployer can pass post signer role');\n\n    postSigner = _post;\n    emit PostSignerChanged(msg.sender, postSigner);\n    return true;\n  }\n}\n",
  "sourcePath": "/Users/jaiq/Documents/000 BLOCKCHAIN/ETH/uMe/src/contracts/MemeFactory.sol",
  "compiler": {
    "name": "solc",
    "version": "0.8.9+commit.e5eed63a.Emscripten.clang"
  },
  "schemaVersion": "3.4.3",
  "updatedAt": "2021-11-01T06:47:09.146Z",
  "devdoc": {
    "kind": "dev",
    "methods": {},
    "version": 1
  },
  "userdoc": {
    "kind": "user",
    "methods": {},
    "version": 1
  }
}