{
  "contractName": "MemeFactory",
  "abi": [
    {
      "inputs": [
        {
          "internalType": "contract UME",
          "name": "_umeToken",
          "type": "address"
        },
        {
          "internalType": "contract MemeStorage",
          "name": "_memeStorage",
          "type": "address"
        },
        {
          "internalType": "contract UserStorage",
          "name": "_userStorage",
          "type": "address"
        }
      ],
      "stateMutability": "nonpayable",
      "type": "constructor"
    },
    {
      "anonymous": false,
      "inputs": [
        {
          "indexed": false,
          "internalType": "bytes32",
          "name": "memeId",
          "type": "bytes32"
        },
        {
          "indexed": false,
          "internalType": "uint256",
          "name": "time",
          "type": "uint256"
        },
        {
          "indexed": true,
          "internalType": "address",
          "name": "account",
          "type": "address"
        }
      ],
      "name": "MemeCreated",
      "type": "event"
    },
    {
      "anonymous": false,
      "inputs": [
        {
          "indexed": false,
          "internalType": "bytes32",
          "name": "memeId",
          "type": "bytes32"
        },
        {
          "indexed": false,
          "internalType": "uint256",
          "name": "time",
          "type": "uint256"
        },
        {
          "indexed": true,
          "internalType": "address",
          "name": "account",
          "type": "address"
        }
      ],
      "name": "MemeDeleted",
      "type": "event"
    },
    {
      "anonymous": false,
      "inputs": [
        {
          "indexed": true,
          "internalType": "address",
          "name": "from",
          "type": "address"
        },
        {
          "indexed": true,
          "internalType": "address",
          "name": "to",
          "type": "address"
        }
      ],
      "name": "PostSignerChanged",
      "type": "event"
    },
    {
      "inputs": [],
      "name": "postSigner",
      "outputs": [
        {
          "internalType": "address",
          "name": "",
          "type": "address"
        }
      ],
      "stateMutability": "view",
      "type": "function",
      "constant": true
    },
    {
      "inputs": [
        {
          "internalType": "address",
          "name": "_account",
          "type": "address"
        },
        {
          "internalType": "string",
          "name": "_memeText",
          "type": "string"
        },
        {
          "internalType": "address[]",
          "name": "_tags",
          "type": "address[]"
        },
        {
          "internalType": "bytes32",
          "name": "_parentId",
          "type": "bytes32"
        },
        {
          "internalType": "bytes32",
          "name": "_originId",
          "type": "bytes32"
        },
        {
          "internalType": "bytes32",
          "name": "_repostId",
          "type": "bytes32"
        }
      ],
      "name": "newMeme",
      "outputs": [],
      "stateMutability": "nonpayable",
      "type": "function"
    },
    {
      "inputs": [
        {
          "internalType": "address",
          "name": "_account",
          "type": "address"
        },
        {
          "internalType": "bytes32",
          "name": "_memeId",
          "type": "bytes32"
        }
      ],
      "name": "deleteMeme",
      "outputs": [],
      "stateMutability": "nonpayable",
      "type": "function"
    },
    {
      "inputs": [
        {
          "internalType": "address",
          "name": "_post",
          "type": "address"
        }
      ],
      "name": "passPostSigner",
      "outputs": [
        {
          "internalType": "bool",
          "name": "",
          "type": "bool"
        }
      ],
      "stateMutability": "nonpayable",
      "type": "function"
    }
  ],
  "bytecode": "0x60806040523480156200001157600080fd5b5060405162002aa038038062002aa0833981810160405281019062000037919062000188565b826000806101000a81548173ffffffffffffffffffffffffffffffffffffffff021916908373ffffffffffffffffffffffffffffffffffffffff16021790555081600160006101000a81548173ffffffffffffffffffffffffffffffffffffffff021916908373ffffffffffffffffffffffffffffffffffffffff16021790555080600260006101000a81548173ffffffffffffffffffffffffffffffffffffffff021916908373ffffffffffffffffffffffffffffffffffffffff16021790555033600460006101000a81548173ffffffffffffffffffffffffffffffffffffffff021916908373ffffffffffffffffffffffffffffffffffffffff160217905550505050620002a7565b600081519050620001548162000259565b92915050565b6000815190506200016b8162000273565b92915050565b60008151905062000182816200028d565b92915050565b600080600060608486031215620001a457620001a362000254565b5b6000620001b4868287016200015a565b9350506020620001c78682870162000143565b9250506040620001da8682870162000171565b9150509250925092565b6000620001f18262000234565b9050919050565b60006200020582620001e4565b9050919050565b60006200021982620001e4565b9050919050565b60006200022d82620001e4565b9050919050565b600073ffffffffffffffffffffffffffffffffffffffff82169050919050565b600080fd5b6200026481620001f8565b81146200027057600080fd5b50565b6200027e816200020c565b81146200028a57600080fd5b50565b620002988162000220565b8114620002a457600080fd5b50565b6127e980620002b76000396000f3fe608060405234801561001057600080fd5b506004361061004c5760003560e01c8063648c59eb146100515780637527e6241461006d5780638c98876f14610089578063a6838c7b146100a7575b600080fd5b61006b60048036038101906100669190611b63565b6100d7565b005b61008760048036038101906100829190611ba3565b610466565b005b61009161108b565b60405161009e919061210e565b60405180910390f35b6100c160048036038101906100bc9190611b09565b6110b1565b6040516100ce9190612182565b60405180910390f35b3373ffffffffffffffffffffffffffffffffffffffff16600460009054906101000a900473ffffffffffffffffffffffffffffffffffffffff1673ffffffffffffffffffffffffffffffffffffffff1614610167576040517f08c379a000000000000000000000000000000000000000000000000000000000815260040161015e9061228a565b60405180910390fd5b6000600160009054906101000a900473ffffffffffffffffffffffffffffffffffffffff1673ffffffffffffffffffffffffffffffffffffffff16637071af84836040518263ffffffff1660e01b81526004016101c4919061219d565b60206040518083038186803b1580156101dc57600080fd5b505afa1580156101f0573d6000803e3d6000fd5b505050506040513d601f19601f820116820180604052508101906102149190611cb1565b90506000600160009054906101000a900473ffffffffffffffffffffffffffffffffffffffff1673ffffffffffffffffffffffffffffffffffffffff1663fae60664836040518263ffffffff1660e01b8152600401610273919061219d565b60206040518083038186803b15801561028b57600080fd5b505afa15801561029f573d6000803e3d6000fd5b505050506040513d601f19601f820116820180604052508101906102c39190611cde565b1115610384576103838282600160009054906101000a900473ffffffffffffffffffffffffffffffffffffffff1673ffffffffffffffffffffffffffffffffffffffff1663d4b8df22866040518263ffffffff1660e01b8152600401610329919061219d565b60006040518083038186803b15801561034157600080fd5b505afa158015610355573d6000803e3d6000fd5b505050506040513d6000823e3d601f19601f8201168201806040525081019061037e9190611c68565b611209565b5b600160009054906101000a900473ffffffffffffffffffffffffffffffffffffffff1673ffffffffffffffffffffffffffffffffffffffff1663aaf837c5836040518263ffffffff1660e01b81526004016103df919061219d565b600060405180830381600087803b1580156103f957600080fd5b505af115801561040d573d6000803e3d6000fd5b505050508273ffffffffffffffffffffffffffffffffffffffff167f31a29f3d549b51b33c10acca465864df60975bf964406b8289c210ecea130faa8342604051610459929190612241565b60405180910390a2505050565b600460009054906101000a900473ffffffffffffffffffffffffffffffffffffffff1673ffffffffffffffffffffffffffffffffffffffff163373ffffffffffffffffffffffffffffffffffffffff16146104f6576040517f08c379a00000000000000000000000000000000000000000000000000000000081526004016104ed9061226a565b60405180910390fd5b600160009054906101000a900473ffffffffffffffffffffffffffffffffffffffff1673ffffffffffffffffffffffffffffffffffffffff1663f8f3d0376040518163ffffffff1660e01b8152600401600060405180830381600087803b15801561056057600080fd5b505af1158015610574573d6000803e3d6000fd5b505050506000600160009054906101000a900473ffffffffffffffffffffffffffffffffffffffff1673ffffffffffffffffffffffffffffffffffffffff16637b2124d26040518163ffffffff1660e01b815260040160206040518083038186803b1580156105e257600080fd5b505afa1580156105f6573d6000803e3d6000fd5b505050506040513d601f19601f8201168201806040525081019061061a9190611cde565b60405160200161062a91906120f3565b604051602081830303815290604052805190602001209050600354841415610650578093505b60035483141561065e578092505b600160009054906101000a900473ffffffffffffffffffffffffffffffffffffffff1673ffffffffffffffffffffffffffffffffffffffff1663ddf60c9382604051806101e001604052808581526020014281526020018a815260200160008152602001600067ffffffffffffffff8111156106dd576106dc612628565b5b60405190808252806020026020018201604052801561070b5781602001602082028036833780820191505090505b508152602001600067ffffffffffffffff81111561072c5761072b612628565b5b60405190808252806020026020018201604052801561075a5781602001602082028036833780820191505090505b508152602001600067ffffffffffffffff81111561077b5761077a612628565b5b6040519080825280602002602001820160405280156107a95781602001602082028036833780820191505090505b508152602001600067ffffffffffffffff8111156107ca576107c9612628565b5b6040519080825280602002602001820160405280156107f85781602001602082028036833780820191505090505b508152602001868152602001898152602001600067ffffffffffffffff81111561082557610824612628565b5b6040519080825280602002602001820160405280156108535781602001602082028036833780820191505090505b5081526020018881526020018781526020018b73ffffffffffffffffffffffffffffffffffffffff168152602001600115158152506040518363ffffffff1660e01b81526004016108a5929190612211565b600060405180830381600087803b1580156108bf57600080fd5b505af11580156108d3573d6000803e3d6000fd5b505050508381141580156108e657508284145b80156109c857508673ffffffffffffffffffffffffffffffffffffffff16600160009054906101000a900473ffffffffffffffffffffffffffffffffffffffff1673ffffffffffffffffffffffffffffffffffffffff1663691d1c28866040518263ffffffff1660e01b815260040161095f919061219d565b60206040518083038186803b15801561097757600080fd5b505afa15801561098b573d6000803e3d6000fd5b505050506040513d601f19601f820116820180604052508101906109af9190611b36565b73ffffffffffffffffffffffffffffffffffffffff1614155b15610b135760008054906101000a900473ffffffffffffffffffffffffffffffffffffffff1673ffffffffffffffffffffffffffffffffffffffff1663bc83419588600160009054906101000a900473ffffffffffffffffffffffffffffffffffffffff1673ffffffffffffffffffffffffffffffffffffffff1663691d1c28886040518263ffffffff1660e01b8152600401610a65919061219d565b60206040518083038186803b158015610a7d57600080fd5b505afa158015610a91573d6000803e3d6000fd5b505050506040513d601f19601f82011682018060405250810190610ab59190611b36565b6040518363ffffffff1660e01b8152600401610ad2929190612129565b600060405180830381600087803b158015610aec57600080fd5b505af1158015610b00573d6000803e3d6000fd5b50505050610b0e818561137b565b610e84565b838114158015610b235750828414155b8015610c0557508673ffffffffffffffffffffffffffffffffffffffff16600160009054906101000a900473ffffffffffffffffffffffffffffffffffffffff1673ffffffffffffffffffffffffffffffffffffffff1663691d1c28856040518263ffffffff1660e01b8152600401610b9c919061219d565b60206040518083038186803b158015610bb457600080fd5b505afa158015610bc8573d6000803e3d6000fd5b505050506040513d601f19601f82011682018060405250810190610bec9190611b36565b73ffffffffffffffffffffffffffffffffffffffff1614155b15610e835760008054906101000a900473ffffffffffffffffffffffffffffffffffffffff1673ffffffffffffffffffffffffffffffffffffffff1663bc83419588600160009054906101000a900473ffffffffffffffffffffffffffffffffffffffff1673ffffffffffffffffffffffffffffffffffffffff1663691d1c28876040518263ffffffff1660e01b8152600401610ca2919061219d565b60206040518083038186803b158015610cba57600080fd5b505afa158015610cce573d6000803e3d6000fd5b505050506040513d601f19601f82011682018060405250810190610cf29190611b36565b6040518363ffffffff1660e01b8152600401610d0f929190612129565b600060405180830381600087803b158015610d2957600080fd5b505af1158015610d3d573d6000803e3d6000fd5b5050505060008054906101000a900473ffffffffffffffffffffffffffffffffffffffff1673ffffffffffffffffffffffffffffffffffffffff1663e981dc8f88600160009054906101000a900473ffffffffffffffffffffffffffffffffffffffff1673ffffffffffffffffffffffffffffffffffffffff1663691d1c28876040518263ffffffff1660e01b8152600401610dd9919061219d565b60206040518083038186803b158015610df157600080fd5b505afa158015610e05573d6000803e3d6000fd5b505050506040513d601f19601f82011682018060405250810190610e299190611b36565b6040518363ffffffff1660e01b8152600401610e46929190612129565b600060405180830381600087803b158015610e6057600080fd5b505af1158015610e74573d6000803e3d6000fd5b50505050610e82818561137b565b5b5b60005b8551811015610f9857858181518110610ea357610ea26125f9565b5b602002602001015173ffffffffffffffffffffffffffffffffffffffff168873ffffffffffffffffffffffffffffffffffffffff1614610f855760008054906101000a900473ffffffffffffffffffffffffffffffffffffffff1673ffffffffffffffffffffffffffffffffffffffff16632cc67a7c89888481518110610f2d57610f2c6125f9565b5b60200260200101516040518363ffffffff1660e01b8152600401610f52929190612129565b600060405180830381600087803b158015610f6c57600080fd5b505af1158015610f80573d6000803e3d6000fd5b505050505b8080610f9090612577565b915050610e87565b50610fa387826115aa565b600260009054906101000a900473ffffffffffffffffffffffffffffffffffffffff1673ffffffffffffffffffffffffffffffffffffffff1663e07dbb1082896040518363ffffffff1660e01b81526004016110009291906121b8565b600060405180830381600087803b15801561101a57600080fd5b505af115801561102e573d6000803e3d6000fd5b505050508673ffffffffffffffffffffffffffffffffffffffff167f1838922b4eb20492c478bbdc44a1f4e1cb49bc4702a0af8f4448a412bb5769e4824260405161107a929190612241565b60405180910390a250505050505050565b600460009054906101000a900473ffffffffffffffffffffffffffffffffffffffff1681565b6000600460009054906101000a900473ffffffffffffffffffffffffffffffffffffffff1673ffffffffffffffffffffffffffffffffffffffff163373ffffffffffffffffffffffffffffffffffffffff1614611143576040517f08c379a000000000000000000000000000000000000000000000000000000000815260040161113a906122aa565b60405180910390fd5b81600460006101000a81548173ffffffffffffffffffffffffffffffffffffffff021916908373ffffffffffffffffffffffffffffffffffffffff160217905550600460009054906101000a900473ffffffffffffffffffffffffffffffffffffffff1673ffffffffffffffffffffffffffffffffffffffff163373ffffffffffffffffffffffffffffffffffffffff167f76ce921e20c471c95deae34d20d53706ec4378ecab394e517f73aef912ae6cdd60405160405180910390a360019050919050565b600081519050600060018261121e919061247e565b67ffffffffffffffff81111561123757611236612628565b5b6040519080825280602002602001820160405280156112655781602001602082028036833780820191505090505b50905060018211156112e557600080600090505b838110156112d65786858281518110611295576112946125f9565b5b60200260200101511480156112b657506001846112b2919061247e565b8114155b156112c3578091506112d6565b80806112ce90612577565b915050611279565b506112e184826117cc565b9150505b600160009054906101000a900473ffffffffffffffffffffffffffffffffffffffff1673ffffffffffffffffffffffffffffffffffffffff1663bacd910c85836040518363ffffffff1660e01b81526004016113429291906121e1565b600060405180830381600087803b15801561135c57600080fd5b505af1158015611370573d6000803e3d6000fd5b505050505050505050565b6000600160009054906101000a900473ffffffffffffffffffffffffffffffffffffffff1673ffffffffffffffffffffffffffffffffffffffff1663d4b8df22846040518263ffffffff1660e01b81526004016113d8919061219d565b60006040518083038186803b1580156113f057600080fd5b505afa158015611404573d6000803e3d6000fd5b505050506040513d6000823e3d601f19601f8201168201806040525081019061142d9190611c68565b905060008151905060006001826114449190612428565b67ffffffffffffffff81111561145d5761145c612628565b5b60405190808252806020026020018201604052801561148b5781602001602082028036833780820191505090505b50905060005b828110156114e6578381815181106114ac576114ab6125f9565b5b60200260200101518282815181106114c7576114c66125f9565b5b60200260200101818152505080806114de90612577565b915050611491565b508481600183516114f7919061247e565b81518110611508576115076125f9565b5b602002602001018181525050600160009054906101000a900473ffffffffffffffffffffffffffffffffffffffff1673ffffffffffffffffffffffffffffffffffffffff1663bacd910c85836040518363ffffffff1660e01b81526004016115719291906121e1565b600060405180830381600087803b15801561158b57600080fd5b505af115801561159f573d6000803e3d6000fd5b505050505050505050565b6000600260009054906101000a900473ffffffffffffffffffffffffffffffffffffffff1673ffffffffffffffffffffffffffffffffffffffff16634caf9d0b846040518263ffffffff1660e01b8152600401611607919061210e565b60006040518083038186803b15801561161f57600080fd5b505afa158015611633573d6000803e3d6000fd5b505050506040513d6000823e3d601f19601f8201168201806040525081019061165c9190611c68565b905060008151905060006001826116739190612428565b67ffffffffffffffff81111561168c5761168b612628565b5b6040519080825280602002602001820160405280156116ba5781602001602082028036833780820191505090505b50905060005b82811015611715578381815181106116db576116da6125f9565b5b60200260200101518282815181106116f6576116f56125f9565b5b602002602001018181525050808061170d90612577565b9150506116c0565b508381838151811061172a576117296125f9565b5b602002602001018181525050600260009054906101000a900473ffffffffffffffffffffffffffffffffffffffff1673ffffffffffffffffffffffffffffffffffffffff1663bb58f85d86836040518363ffffffff1660e01b8152600401611793929190612152565b600060405180830381600087803b1580156117ad57600080fd5b505af11580156117c1573d6000803e3d6000fd5b505050505050505050565b60606000600184516117de919061247e565b67ffffffffffffffff8111156117f7576117f6612628565b5b6040519080825280602002602001820160405280156118255781602001602082028036833780820191505090505b50905060005b8381101561188057848181518110611846576118456125f9565b5b6020026020010151828281518110611861576118606125f9565b5b602002602001018181525050808061187890612577565b91505061182b565b5060008390505b81518110156118e9578460018261189e9190612428565b815181106118af576118ae6125f9565b5b60200260200101518282815181106118ca576118c96125f9565b5b60200260200101818152505080806118e190612577565b915050611887565b508091505092915050565b6000611907611902846122ef565b6122ca565b9050808382526020820190508285602086028201111561192a5761192961265c565b5b60005b8581101561195a57816119408882611a16565b84526020840193506020830192505060018101905061192d565b5050509392505050565b60006119776119728461231b565b6122ca565b9050808382526020820190508285602086028201111561199a5761199961265c565b5b60005b858110156119ca57816119b08882611ab1565b84526020840193506020830192505060018101905061199d565b5050509392505050565b60006119e76119e284612347565b6122ca565b905082815260208101848484011115611a0357611a02612661565b5b611a0e848285612504565b509392505050565b600081359050611a258161276e565b92915050565b600081519050611a3a8161276e565b92915050565b600082601f830112611a5557611a54612657565b5b8135611a658482602086016118f4565b91505092915050565b600082601f830112611a8357611a82612657565b5b8151611a93848260208601611964565b91505092915050565b600081359050611aab81612785565b92915050565b600081519050611ac081612785565b92915050565b600082601f830112611adb57611ada612657565b5b8135611aeb8482602086016119d4565b91505092915050565b600081519050611b038161279c565b92915050565b600060208284031215611b1f57611b1e61266b565b5b6000611b2d84828501611a16565b91505092915050565b600060208284031215611b4c57611b4b61266b565b5b6000611b5a84828501611a2b565b91505092915050565b60008060408385031215611b7a57611b7961266b565b5b6000611b8885828601611a16565b9250506020611b9985828601611a9c565b9150509250929050565b60008060008060008060c08789031215611bc057611bbf61266b565b5b6000611bce89828a01611a16565b965050602087013567ffffffffffffffff811115611bef57611bee612666565b5b611bfb89828a01611ac6565b955050604087013567ffffffffffffffff811115611c1c57611c1b612666565b5b611c2889828a01611a40565b9450506060611c3989828a01611a9c565b9350506080611c4a89828a01611a9c565b92505060a0611c5b89828a01611a9c565b9150509295509295509295565b600060208284031215611c7e57611c7d61266b565b5b600082015167ffffffffffffffff811115611c9c57611c9b612666565b5b611ca884828501611a6e565b91505092915050565b600060208284031215611cc757611cc661266b565b5b6000611cd584828501611ab1565b91505092915050565b600060208284031215611cf457611cf361266b565b5b6000611d0284828501611af4565b91505092915050565b6000611d178383611d3b565b60208301905092915050565b6000611d2f8383611e91565b60208301905092915050565b611d44816124b2565b82525050565b611d53816124b2565b82525050565b6000611d6482612398565b611d6e81856123d3565b9350611d7983612378565b8060005b83811015611daa578151611d918882611d0b565b9750611d9c836123b9565b925050600181019050611d7d565b5085935050505092915050565b6000611dc2826123a3565b611dcc81856123e4565b9350611dd783612388565b8060005b83811015611e08578151611def8882611d23565b9750611dfa836123c6565b925050600181019050611ddb565b5085935050505092915050565b6000611e20826123a3565b611e2a81856123f5565b9350611e3583612388565b8060005b83811015611e66578151611e4d8882611d23565b9750611e58836123c6565b925050600181019050611e39565b5085935050505092915050565b611e7c816124c4565b82525050565b611e8b816124c4565b82525050565b611e9a816124d0565b82525050565b611ea9816124d0565b82525050565b6000611eba826123ae565b611ec48185612406565b9350611ed4818560208601612513565b611edd81612670565b840191505092915050565b6000611ef5602b83612417565b9150611f0082612681565b604082019050919050565b6000611f18602283612417565b9150611f23826126d0565b604082019050919050565b6000611f3b602e83612417565b9150611f468261271f565b604082019050919050565b60006101e083016000830151611f6a6000860182611e91565b506020830151611f7d60208601826120be565b5060408301518482036040860152611f958282611eaf565b9150506060830151611faa60608601826120be565b5060808301518482036080860152611fc28282611d59565b91505060a083015184820360a0860152611fdc8282611d59565b91505060c083015184820360c0860152611ff68282611db7565b91505060e083015184820360e08601526120108282611db7565b915050610100830151612027610100860182611e91565b506101208301518482036101208601526120418282611d59565b91505061014083015184820361014086015261205d8282611db7565b915050610160830151612074610160860182611e91565b50610180830151612089610180860182611e91565b506101a083015161209e6101a0860182611d3b565b506101c08301516120b36101c0860182611e73565b508091505092915050565b6120c7816124fa565b82525050565b6120d6816124fa565b82525050565b6120ed6120e8826124fa565b6125c0565b82525050565b60006120ff82846120dc565b60208201915081905092915050565b60006020820190506121236000830184611d4a565b92915050565b600060408201905061213e6000830185611d4a565b61214b6020830184611d4a565b9392505050565b60006040820190506121676000830185611d4a565b81810360208301526121798184611e15565b90509392505050565b60006020820190506121976000830184611e82565b92915050565b60006020820190506121b26000830184611ea0565b92915050565b60006040820190506121cd6000830185611ea0565b6121da6020830184611d4a565b9392505050565b60006040820190506121f66000830185611ea0565b81810360208301526122088184611e15565b90509392505050565b60006040820190506122266000830185611ea0565b81810360208301526122388184611f51565b90509392505050565b60006040820190506122566000830185611ea0565b61226360208301846120cd565b9392505050565b6000602082019050818103600083015261228381611ee8565b9050919050565b600060208201905081810360008301526122a381611f0b565b9050919050565b600060208201905081810360008301526122c381611f2e565b9050919050565b60006122d46122e5565b90506122e08282612546565b919050565b6000604051905090565b600067ffffffffffffffff82111561230a57612309612628565b5b602082029050602081019050919050565b600067ffffffffffffffff82111561233657612335612628565b5b602082029050602081019050919050565b600067ffffffffffffffff82111561236257612361612628565b5b61236b82612670565b9050602081019050919050565b6000819050602082019050919050565b6000819050602082019050919050565b600081519050919050565b600081519050919050565b600081519050919050565b6000602082019050919050565b6000602082019050919050565b600082825260208201905092915050565b600082825260208201905092915050565b600082825260208201905092915050565b600082825260208201905092915050565b600082825260208201905092915050565b6000612433826124fa565b915061243e836124fa565b9250827fffffffffffffffffffffffffffffffffffffffffffffffffffffffffffffffff03821115612473576124726125ca565b5b828201905092915050565b6000612489826124fa565b9150612494836124fa565b9250828210156124a7576124a66125ca565b5b828203905092915050565b60006124bd826124da565b9050919050565b60008115159050919050565b6000819050919050565b600073ffffffffffffffffffffffffffffffffffffffff82169050919050565b6000819050919050565b82818337600083830152505050565b60005b83811015612531578082015181840152602081019050612516565b83811115612540576000848401525b50505050565b61254f82612670565b810181811067ffffffffffffffff8211171561256e5761256d612628565b5b80604052505050565b6000612582826124fa565b91507fffffffffffffffffffffffffffffffffffffffffffffffffffffffffffffffff8214156125b5576125b46125ca565b5b600182019050919050565b6000819050919050565b7f4e487b7100000000000000000000000000000000000000000000000000000000600052601160045260246000fd5b7f4e487b7100000000000000000000000000000000000000000000000000000000600052603260045260246000fd5b7f4e487b7100000000000000000000000000000000000000000000000000000000600052604160045260246000fd5b600080fd5b600080fd5b600080fd5b600080fd5b600080fd5b6000601f19601f8301169050919050565b7f4572726f723a206d73672e73656e646572206d75737420626520696e7465726660008201527f616365287369676e657229000000000000000000000000000000000000000000602082015250565b7f4572726f723a206f6e6c79207369676e65722063616e2064656c657465206d6560008201527f6d65000000000000000000000000000000000000000000000000000000000000602082015250565b7f4572726f723a206f6e6c79206465706c6f7965722063616e207061737320706f60008201527f7374207369676e657220726f6c65000000000000000000000000000000000000602082015250565b612777816124b2565b811461278257600080fd5b50565b61278e816124d0565b811461279957600080fd5b50565b6127a5816124fa565b81146127b057600080fd5b5056fea264697066735822122012de2c2bced022350b3963f481d521c5cfe0e31b3a0268c6329e36e574605a3e64736f6c63430008070033",
  "immutableReferences": {},
  "source": "// SPDX-License-Identifier: MIT\n\npragma solidity >=0.8.0 <0.9.0;\n\nimport \"./UME.sol\";\nimport \"./MemeStorage.sol\";\nimport \"./UserStorage.sol\";\n\ncontract MemeFactory {\n  // public variables\n  UME private umeToken;\n  MemeStorage private memeStorage;\n  UserStorage private userStorage;\n  bytes32 zeroBytes;\n\n  address public postSigner;\n/*\n  // Meme structure\n  struct Meme {\n    bytes32 id; // number in all of timeline\n    uint time; // time of post\n    string text; // test of Meme\n    uint boost; // boost value\n    address[] likers; // list of addresses of likers\n    address[] unlikers; // list of addresses that have unliked\n    bytes32[] reposts; // list of addresses that have reposted\n    bytes32[] quotePosts; // list of addresses that have quotePosted\n    bytes32 repostId;// repost id\n    address[] tags; // list of id's of tagged\n    bytes32[] responses; // collection of id's of responses\n    bytes32 parentId; // memeId of parent (can be self)\n    bytes32 originId; // memeId of origin (can be self)\n    address author; // address of author\n    bool isVisible; // is visible\n  }\n*/\n  event PostSignerChanged(\n    address indexed from,\n    address indexed to);\n  event MemeCreated(\n    bytes32 memeId,\n    uint time,\n    address indexed account);\n  event MemeDeleted(\n    bytes32 memeId,\n    uint time,\n    address indexed account);\n\n  constructor(\n    UME _umeToken,\n    MemeStorage _memeStorage,\n    UserStorage _userStorage\n  ) public {\n    umeToken = _umeToken;\n    memeStorage = _memeStorage;\n    userStorage = _userStorage;\n\n    postSigner = msg.sender;\n  }\n\n  // posting meme functions\n  function newMeme(\n    address _account,\n    string memory _memeText,\n    address[] memory _tags,\n    bytes32 _parentId,\n    bytes32 _originId,\n    bytes32 _repostId\n  ) public {\n    require(\n      msg.sender==postSigner,\n      'Error: msg.sender must be interface(signer)');\n    // increment meme id\n    memeStorage.increaseMemeCount();\n    bytes32 _memeId = keccak256(abi.encodePacked(memeStorage.memeCount()));\n    // set parent & origin id's to memeId if\n    if (_parentId == zeroBytes) {\n      _parentId = _memeId;\n    }\n    if (_originId == zeroBytes) {\n      _originId = _memeId;\n    }\n    // map memeId to new meme\n    memeStorage.setMeme(_memeId, MemeStorage.Meme(\n      _memeId, // meme id\n      block.timestamp, // meme time\n      _memeText, // meme text\n      0, // boost value\n      new address[](0), // likers\n      new address[](0), // unlikers\n      new bytes32[](0), // reposts\n      new bytes32[](0), // quotePosts\n      _repostId, // repost id\n      _tags, // tagged\n      new bytes32[](0), // response array\n      _parentId, // parent\n      _originId, // origin\n      _account, // author\n      true // isVisible\n    ));\n    // if responding to a single post, then mint respond token\n    if(_memeId!=_parentId && _parentId==_originId && memeStorage.getAuthor(_parentId)!=_account) {\n      umeToken.mintRespond(_account, memeStorage.getAuthor(_parentId));\n      _addResponse(_memeId, _parentId);\n    } // if responding to a thread, mint respond token for parent, curate token for original\n    else if(_memeId!=_parentId && _parentId!=_originId && memeStorage.getAuthor(_originId)!=_account) {\n      umeToken.mintRespond(_account, memeStorage.getAuthor(_originId));\n      umeToken.mintCurate(_account, memeStorage.getAuthor(_originId));\n      _addResponse(_memeId, _parentId);\n    }\n    // mint tags\n    for(uint i = 0; i < _tags.length; i++) {\n      if(_account!=_tags[i]){\n        umeToken.mintTag(_account, _tags[i]);\n      }\n    }\n    _addPostToUser(_account, _memeId);\n    userStorage.setUsersByMeme(_memeId, _account);\n    emit MemeCreated(_memeId, block.timestamp, _account);\n  }\n  function deleteMeme(\n    address _account,\n    bytes32 _memeId\n  ) public {\n    require(\n      postSigner==msg.sender,\n      'Error: only signer can delete meme');\n    // create empty Meme instance\n    bytes32 _parentId = memeStorage.getParentId(_memeId);\n    if(memeStorage.getResponseCount(_parentId)>0)\n      _deleteResponse(_memeId, _parentId, memeStorage.getResponses(_memeId));\n    memeStorage.deleteMeme(_memeId);\n    emit MemeDeleted(_memeId, block.timestamp, _account);\n  }\n\n  function _addResponse(\n    bytes32 _memeId,\n    bytes32 _parentId\n  ) private {\n    bytes32[] memory _oldResponses = memeStorage.getResponses(_memeId);\n    uint _oldResponseCount = _oldResponses.length;\n    bytes32[] memory _newResponses = new bytes32[](_oldResponseCount+1);\n    for(uint i = 0; i < _oldResponseCount; i++)\n      _newResponses[i] = _oldResponses[i];\n    _newResponses[_newResponses.length-1] = _memeId;\n    memeStorage.setResponses(_parentId, _newResponses);\n  }\n\n  function _deleteResponse(\n    bytes32 _memeId,\n    bytes32 _parentId,\n    bytes32[] memory _oldResponses\n  ) private {\n    // delete liked index, moving all successive elements\n    uint _oldResponseCount = _oldResponses.length;\n    bytes32[] memory _newResponses = new bytes32[](_oldResponseCount-1);\n    if(_oldResponseCount > 1) {\n      uint _index;\n      for(uint i = 0; i < _oldResponseCount; i++) {\n        if (_oldResponses[i]==_memeId && i!=_oldResponseCount-1) {\n          _index = i;\n          break;\n        }\n      }\n      _newResponses = _deleteBytes32(_oldResponses, _index);\n    }\n    memeStorage.setResponses(_parentId, _newResponses);\n  }\n  function _addPostToUser(\n    address _account,\n    bytes32 _memeId\n  ) private {\n     // create memory array with length one greater than _user.posts length\n     bytes32[] memory _oldPosts = userStorage.getPosts(_account);\n     uint _oldPostCount = _oldPosts.length;\n     bytes32[] memory _newPosts = new bytes32[](_oldPostCount+1);\n     for(uint i = 0; i < _oldPostCount; i++)\n       _newPosts[i] = _oldPosts[i];\n     _newPosts[_oldPostCount] = _memeId;\n     userStorage.setPosts(_account, _newPosts);\n  }\n  function _deletePostFromUser(\n    address _account,\n    bytes32 _memeId\n  ) private {\n     bytes32[] memory _oldPosts = userStorage.getPosts(_account);\n     uint _oldPostCount = _oldPosts.length;\n     bytes32[] memory _newPosts = new bytes32[](_oldPostCount-1);\n     uint _index;\n     for(uint i = 0; i < _oldPosts.length; i++) {\n       if(_oldPosts[i]==_memeId) {\n         _index = i;\n         break;\n       }\n     }\n     _newPosts = _deleteBytes32(_oldPosts, _index);\n     userStorage.setPosts(_account, _newPosts);\n     // clears mapping of deleted meme, reroutes to 0x0 address instead of deleter\n     userStorage.setUsersByMeme(_memeId, address(0x0));\n  }\n\n  // helper functions\n  function _deleteBytes32(\n    bytes32[] memory array,\n    uint index\n  ) private pure returns(bytes32[] memory) {\n    bytes32[] memory _array = new bytes32[](array.length-1);\n    for(uint i = 0; i < index; i++)\n      _array[i] = array[i];\n    for(uint i = index; i < _array.length; i++)\n      _array[i] = array[i+1];\n    return _array;\n  }\n\n\n  // set signer roles\n  function passPostSigner(address _post) public returns (bool) {\n    require(\n      msg.sender == postSigner,\n      'Error: only deployer can pass post signer role');\n\n    postSigner = _post;\n    emit PostSignerChanged(msg.sender, postSigner);\n    return true;\n  }\n}\n",
  "sourcePath": "/Users/jaiq/Documents/000 BLOCKCHAIN/ETH/uMe/src/contracts/MemeFactory.sol",
  "compiler": {
    "name": "solc",
    "version": "0.8.7+commit.e28d00a7.Emscripten.clang"
  },
  "schemaVersion": "3.4.3",
  "updatedAt": "2021-08-26T00:43:06.310Z",
  "networkType": "ethereum",
  "devdoc": {
    "kind": "dev",
    "methods": {},
    "version": 1
  },
  "userdoc": {
    "kind": "user",
    "methods": {},
    "version": 1
  }
}