{
  "contractName": "MemeFactory",
  "abi": [
    {
      "inputs": [
        {
          "internalType": "contract UME",
          "name": "_umeToken",
          "type": "address"
        },
        {
          "internalType": "contract MemeStorage",
          "name": "_memeStorage",
          "type": "address"
        },
        {
          "internalType": "contract UserStorage",
          "name": "_userStorage",
          "type": "address"
        }
      ],
      "stateMutability": "nonpayable",
      "type": "constructor"
    },
    {
      "anonymous": false,
      "inputs": [
        {
          "indexed": false,
          "internalType": "bytes32",
          "name": "memeId",
          "type": "bytes32"
        },
        {
          "indexed": false,
          "internalType": "uint256",
          "name": "time",
          "type": "uint256"
        },
        {
          "indexed": true,
          "internalType": "address",
          "name": "account",
          "type": "address"
        }
      ],
      "name": "MemeCreated",
      "type": "event"
    },
    {
      "anonymous": false,
      "inputs": [
        {
          "indexed": false,
          "internalType": "bytes32",
          "name": "memeId",
          "type": "bytes32"
        },
        {
          "indexed": false,
          "internalType": "uint256",
          "name": "time",
          "type": "uint256"
        },
        {
          "indexed": true,
          "internalType": "address",
          "name": "account",
          "type": "address"
        }
      ],
      "name": "MemeDeleted",
      "type": "event"
    },
    {
      "anonymous": false,
      "inputs": [
        {
          "indexed": true,
          "internalType": "address",
          "name": "from",
          "type": "address"
        },
        {
          "indexed": true,
          "internalType": "address",
          "name": "to",
          "type": "address"
        }
      ],
      "name": "PostSignerChanged",
      "type": "event"
    },
    {
      "anonymous": false,
      "inputs": [
        {
          "indexed": false,
          "internalType": "address",
          "name": "from",
          "type": "address"
        },
        {
          "indexed": false,
          "internalType": "address",
          "name": "to",
          "type": "address"
        }
      ],
      "name": "Tagged",
      "type": "event"
    },
    {
      "inputs": [],
      "name": "postSigner",
      "outputs": [
        {
          "internalType": "address",
          "name": "",
          "type": "address"
        }
      ],
      "stateMutability": "view",
      "type": "function"
    },
    {
      "inputs": [
        {
          "internalType": "address",
          "name": "_account",
          "type": "address"
        },
        {
          "internalType": "string",
          "name": "_memeText",
          "type": "string"
        },
        {
          "internalType": "address[]",
          "name": "_tags",
          "type": "address[]"
        },
        {
          "internalType": "bytes32",
          "name": "_parentId",
          "type": "bytes32"
        },
        {
          "internalType": "bytes32",
          "name": "_originId",
          "type": "bytes32"
        },
        {
          "internalType": "bytes32",
          "name": "_repostId",
          "type": "bytes32"
        }
      ],
      "name": "newMeme",
      "outputs": [],
      "stateMutability": "nonpayable",
      "type": "function"
    },
    {
      "inputs": [
        {
          "internalType": "bytes32",
          "name": "_memeId",
          "type": "bytes32"
        }
      ],
      "name": "deleteMeme",
      "outputs": [],
      "stateMutability": "nonpayable",
      "type": "function"
    },
    {
      "inputs": [
        {
          "internalType": "bytes",
          "name": "source",
          "type": "bytes"
        }
      ],
      "name": "_bytesToBytes32",
      "outputs": [
        {
          "internalType": "bytes32",
          "name": "result",
          "type": "bytes32"
        }
      ],
      "stateMutability": "pure",
      "type": "function"
    },
    {
      "inputs": [
        {
          "internalType": "address",
          "name": "_post",
          "type": "address"
        }
      ],
      "name": "passPostSigner",
      "outputs": [
        {
          "internalType": "bool",
          "name": "",
          "type": "bool"
        }
      ],
      "stateMutability": "nonpayable",
      "type": "function"
    }
  ],
  "bytecode": "0x60806040523480156200001157600080fd5b50604051620032f9380380620032f983398181016040528101906200003791906200024b565b826000806101000a81548173ffffffffffffffffffffffffffffffffffffffff021916908373ffffffffffffffffffffffffffffffffffffffff16021790555081600160006101000a81548173ffffffffffffffffffffffffffffffffffffffff021916908373ffffffffffffffffffffffffffffffffffffffff16021790555080600260006101000a81548173ffffffffffffffffffffffffffffffffffffffff021916908373ffffffffffffffffffffffffffffffffffffffff16021790555033600460006101000a81548173ffffffffffffffffffffffffffffffffffffffff021916908373ffffffffffffffffffffffffffffffffffffffff160217905550505050620002a7565b600080fd5b600073ffffffffffffffffffffffffffffffffffffffff82169050919050565b6000620001758262000148565b9050919050565b6000620001898262000168565b9050919050565b6200019b816200017c565b8114620001a757600080fd5b50565b600081519050620001bb8162000190565b92915050565b6000620001ce8262000168565b9050919050565b620001e081620001c1565b8114620001ec57600080fd5b50565b6000815190506200020081620001d5565b92915050565b6000620002138262000168565b9050919050565b620002258162000206565b81146200023157600080fd5b50565b60008151905062000245816200021a565b92915050565b60008060006060848603121562000267576200026662000143565b5b60006200027786828701620001aa565b93505060206200028a86828701620001ef565b92505060406200029d8682870162000234565b9150509250925092565b61304280620002b76000396000f3fe608060405234801561001057600080fd5b50600436106100575760003560e01c80631867b9371461005c5780637527e6241461008c5780638c98876f146100a8578063a6838c7b146100c6578063aaf837c5146100f6575b600080fd5b610076600480360381019061007191906120b7565b610112565b6040516100839190612119565b60405180910390f35b6100a660048036038101906100a19190612327565b610135565b005b6100b0611344565b6040516100bd91906123fb565b60405180910390f35b6100e060048036038101906100db9190612416565b61136a565b6040516100ed919061245e565b60405180910390f35b610110600480360381019061010b9190612479565b6114c2565b005b60008082511415610128576000801b9050610130565b602082015190505b919050565b600460009054906101000a900473ffffffffffffffffffffffffffffffffffffffff1673ffffffffffffffffffffffffffffffffffffffff163373ffffffffffffffffffffffffffffffffffffffff16146101c5576040517f08c379a00000000000000000000000000000000000000000000000000000000081526004016101bc90612529565b60405180910390fd5b600160009054906101000a900473ffffffffffffffffffffffffffffffffffffffff1673ffffffffffffffffffffffffffffffffffffffff1663f8f3d0376040518163ffffffff1660e01b8152600401600060405180830381600087803b15801561022f57600080fd5b505af1158015610243573d6000803e3d6000fd5b505050506000600160009054906101000a900473ffffffffffffffffffffffffffffffffffffffff1673ffffffffffffffffffffffffffffffffffffffff16637b2124d26040518163ffffffff1660e01b815260040160206040518083038186803b1580156102b157600080fd5b505afa1580156102c5573d6000803e3d6000fd5b505050506040513d601f19601f820116820180604052508101906102e9919061257f565b6040516020016102f991906125cd565b60405160208183030381529060405280519060200120905060035484141561031f578093505b60035483141561032d578092505b600160009054906101000a900473ffffffffffffffffffffffffffffffffffffffff1673ffffffffffffffffffffffffffffffffffffffff1663ddf60c9382604051806101e001604052808581526020014281526020018a815260200160008152602001600067ffffffffffffffff8111156103ac576103ab611f8c565b5b6040519080825280602002602001820160405280156103da5781602001602082028036833780820191505090505b508152602001600067ffffffffffffffff8111156103fb576103fa611f8c565b5b6040519080825280602002602001820160405280156104295781602001602082028036833780820191505090505b508152602001600067ffffffffffffffff81111561044a57610449611f8c565b5b6040519080825280602002602001820160405280156104785781602001602082028036833780820191505090505b508152602001600067ffffffffffffffff81111561049957610498611f8c565b5b6040519080825280602002602001820160405280156104c75781602001602082028036833780820191505090505b508152602001868152602001898152602001600067ffffffffffffffff8111156104f4576104f3611f8c565b5b6040519080825280602002602001820160405280156105225781602001602082028036833780820191505090505b5081526020018881526020018781526020018b73ffffffffffffffffffffffffffffffffffffffff168152602001600115158152506040518363ffffffff1660e01b8152600401610574929190612977565b600060405180830381600087803b15801561058e57600080fd5b505af11580156105a2573d6000803e3d6000fd5b505050508381141580156105b557508284145b1561086e578673ffffffffffffffffffffffffffffffffffffffff16600160009054906101000a900473ffffffffffffffffffffffffffffffffffffffff1673ffffffffffffffffffffffffffffffffffffffff1663691d1c28866040518263ffffffff1660e01b815260040161062c9190612119565b60206040518083038186803b15801561064457600080fd5b505afa158015610658573d6000803e3d6000fd5b505050506040513d601f19601f8201168201806040525081019061067c91906129bc565b73ffffffffffffffffffffffffffffffffffffffff16146107cf5760008054906101000a900473ffffffffffffffffffffffffffffffffffffffff1673ffffffffffffffffffffffffffffffffffffffff1663bc83419588600160009054906101000a900473ffffffffffffffffffffffffffffffffffffffff1673ffffffffffffffffffffffffffffffffffffffff1663691d1c28886040518263ffffffff1660e01b815260040161072f9190612119565b60206040518083038186803b15801561074757600080fd5b505afa15801561075b573d6000803e3d6000fd5b505050506040513d601f19601f8201168201806040525081019061077f91906129bc565b6040518363ffffffff1660e01b815260040161079c9291906129e9565b600060405180830381600087803b1580156107b657600080fd5b505af11580156107ca573d6000803e3d6000fd5b505050505b6107d981856118f1565b600160009054906101000a900473ffffffffffffffffffffffffffffffffffffffff1673ffffffffffffffffffffffffffffffffffffffff166370d2c46b8560046040518363ffffffff1660e01b8152600401610837929190612a57565b600060405180830381600087803b15801561085157600080fd5b505af1158015610865573d6000803e3d6000fd5b50505050610dd9565b83811415801561087e5750828414155b15610dd8578673ffffffffffffffffffffffffffffffffffffffff16600160009054906101000a900473ffffffffffffffffffffffffffffffffffffffff1673ffffffffffffffffffffffffffffffffffffffff1663691d1c28866040518263ffffffff1660e01b81526004016108f59190612119565b60206040518083038186803b15801561090d57600080fd5b505afa158015610921573d6000803e3d6000fd5b505050506040513d601f19601f8201168201806040525081019061094591906129bc565b73ffffffffffffffffffffffffffffffffffffffff1614610a985760008054906101000a900473ffffffffffffffffffffffffffffffffffffffff1673ffffffffffffffffffffffffffffffffffffffff1663bc83419588600160009054906101000a900473ffffffffffffffffffffffffffffffffffffffff1673ffffffffffffffffffffffffffffffffffffffff1663691d1c28886040518263ffffffff1660e01b81526004016109f89190612119565b60206040518083038186803b158015610a1057600080fd5b505afa158015610a24573d6000803e3d6000fd5b505050506040513d601f19601f82011682018060405250810190610a4891906129bc565b6040518363ffffffff1660e01b8152600401610a659291906129e9565b600060405180830381600087803b158015610a7f57600080fd5b505af1158015610a93573d6000803e3d6000fd5b505050505b600160009054906101000a900473ffffffffffffffffffffffffffffffffffffffff1673ffffffffffffffffffffffffffffffffffffffff166370d2c46b8560046040518363ffffffff1660e01b8152600401610af6929190612a57565b600060405180830381600087803b158015610b1057600080fd5b505af1158015610b24573d6000803e3d6000fd5b505050508673ffffffffffffffffffffffffffffffffffffffff16600160009054906101000a900473ffffffffffffffffffffffffffffffffffffffff1673ffffffffffffffffffffffffffffffffffffffff1663691d1c28856040518263ffffffff1660e01b8152600401610b9a9190612119565b60206040518083038186803b158015610bb257600080fd5b505afa158015610bc6573d6000803e3d6000fd5b505050506040513d601f19601f82011682018060405250810190610bea91906129bc565b73ffffffffffffffffffffffffffffffffffffffff1614610d3d5760008054906101000a900473ffffffffffffffffffffffffffffffffffffffff1673ffffffffffffffffffffffffffffffffffffffff1663e981dc8f88600160009054906101000a900473ffffffffffffffffffffffffffffffffffffffff1673ffffffffffffffffffffffffffffffffffffffff1663691d1c28876040518263ffffffff1660e01b8152600401610c9d9190612119565b60206040518083038186803b158015610cb557600080fd5b505afa158015610cc9573d6000803e3d6000fd5b505050506040513d601f19601f82011682018060405250810190610ced91906129bc565b6040518363ffffffff1660e01b8152600401610d0a9291906129e9565b600060405180830381600087803b158015610d2457600080fd5b505af1158015610d38573d6000803e3d6000fd5b505050505b610d4781856118f1565b600160009054906101000a900473ffffffffffffffffffffffffffffffffffffffff1673ffffffffffffffffffffffffffffffffffffffff166370d2c46b8460046040518363ffffffff1660e01b8152600401610da5929190612a57565b600060405180830381600087803b158015610dbf57600080fd5b505af1158015610dd3573d6000803e3d6000fd5b505050505b5b60005b8551811015610f9557858181518110610df857610df7612a80565b5b602002602001015173ffffffffffffffffffffffffffffffffffffffff168873ffffffffffffffffffffffffffffffffffffffff1614158015610e825750600073ffffffffffffffffffffffffffffffffffffffff16868281518110610e6157610e60612a80565b5b602002602001015173ffffffffffffffffffffffffffffffffffffffff1614155b15610f825760008054906101000a900473ffffffffffffffffffffffffffffffffffffffff1673ffffffffffffffffffffffffffffffffffffffff16632cc67a7c89888481518110610ed757610ed6612a80565b5b60200260200101516040518363ffffffff1660e01b8152600401610efc9291906129e9565b600060405180830381600087803b158015610f1657600080fd5b505af1158015610f2a573d6000803e3d6000fd5b505050507f069de1c7afdaba4b7727994f755c1584584ca12fdedef1eded797865d094c0e288878381518110610f6357610f62612a80565b5b6020026020010151604051610f799291906129e9565b60405180910390a15b8080610f8d90612ade565b915050610ddc565b506003548214611252576000865114156110ff576000600160009054906101000a900473ffffffffffffffffffffffffffffffffffffffff1673ffffffffffffffffffffffffffffffffffffffff166372d9fe5d846040518263ffffffff1660e01b81526004016110069190612119565b60006040518083038186803b15801561101e57600080fd5b505afa158015611032573d6000803e3d6000fd5b505050506040513d6000823e3d601f19601f8201168201806040525081019061105b9190612bff565b905061106982888584611b20565b600160009054906101000a900473ffffffffffffffffffffffffffffffffffffffff1673ffffffffffffffffffffffffffffffffffffffff166370d2c46b8360046040518363ffffffff1660e01b81526004016110c7929190612a57565b600060405180830381600087803b1580156110e157600080fd5b505af11580156110f5573d6000803e3d6000fd5b5050505050611251565b6000600160009054906101000a900473ffffffffffffffffffffffffffffffffffffffff1673ffffffffffffffffffffffffffffffffffffffff166369171f5c846040518263ffffffff1660e01b815260040161115c9190612119565b60006040518083038186803b15801561117457600080fd5b505afa158015611188573d6000803e3d6000fd5b505050506040513d6000823e3d601f19601f820116820180604052508101906111b19190612bff565b90506111bf82888584611b20565b600160009054906101000a900473ffffffffffffffffffffffffffffffffffffffff1673ffffffffffffffffffffffffffffffffffffffff166370d2c46b8360046040518363ffffffff1660e01b815260040161121d929190612a57565b600060405180830381600087803b15801561123757600080fd5b505af115801561124b573d6000803e3d6000fd5b50505050505b5b61125c8782611d3b565b600260009054906101000a900473ffffffffffffffffffffffffffffffffffffffff1673ffffffffffffffffffffffffffffffffffffffff1663e07dbb1082896040518363ffffffff1660e01b81526004016112b9929190612c48565b600060405180830381600087803b1580156112d357600080fd5b505af11580156112e7573d6000803e3d6000fd5b505050508673ffffffffffffffffffffffffffffffffffffffff167f1838922b4eb20492c478bbdc44a1f4e1cb49bc4702a0af8f4448a412bb5769e48242604051611333929190612c80565b60405180910390a250505050505050565b600460009054906101000a900473ffffffffffffffffffffffffffffffffffffffff1681565b6000600460009054906101000a900473ffffffffffffffffffffffffffffffffffffffff1673ffffffffffffffffffffffffffffffffffffffff163373ffffffffffffffffffffffffffffffffffffffff16146113fc576040517f08c379a00000000000000000000000000000000000000000000000000000000081526004016113f390612d1b565b60405180910390fd5b81600460006101000a81548173ffffffffffffffffffffffffffffffffffffffff021916908373ffffffffffffffffffffffffffffffffffffffff160217905550600460009054906101000a900473ffffffffffffffffffffffffffffffffffffffff1673ffffffffffffffffffffffffffffffffffffffff163373ffffffffffffffffffffffffffffffffffffffff167f76ce921e20c471c95deae34d20d53706ec4378ecab394e517f73aef912ae6cdd60405160405180910390a360019050919050565b3373ffffffffffffffffffffffffffffffffffffffff16600460009054906101000a900473ffffffffffffffffffffffffffffffffffffffff1673ffffffffffffffffffffffffffffffffffffffff1614611552576040517f08c379a000000000000000000000000000000000000000000000000000000000815260040161154990612dad565b60405180910390fd5b6000600160009054906101000a900473ffffffffffffffffffffffffffffffffffffffff1673ffffffffffffffffffffffffffffffffffffffff16637071af84836040518263ffffffff1660e01b81526004016115af9190612119565b60206040518083038186803b1580156115c757600080fd5b505afa1580156115db573d6000803e3d6000fd5b505050506040513d601f19601f820116820180604052508101906115ff9190612dcd565b90506000600160009054906101000a900473ffffffffffffffffffffffffffffffffffffffff1673ffffffffffffffffffffffffffffffffffffffff1663e2975f09846040518263ffffffff1660e01b815260040161165e9190612119565b60206040518083038186803b15801561167657600080fd5b505afa15801561168a573d6000803e3d6000fd5b505050506040513d601f19601f820116820180604052508101906116ae9190612dcd565b90506000600160009054906101000a900473ffffffffffffffffffffffffffffffffffffffff1673ffffffffffffffffffffffffffffffffffffffff1663f64458bd836040518263ffffffff1660e01b815260040161170d9190612119565b60006040518083038186803b15801561172557600080fd5b505afa158015611739573d6000803e3d6000fd5b505050506040513d6000823e3d601f19601f820116820180604052508101906117629190612e6a565b9050600160009054906101000a900473ffffffffffffffffffffffffffffffffffffffff1673ffffffffffffffffffffffffffffffffffffffff1663691d1c28856040518263ffffffff1660e01b81526004016117bf9190612119565b60206040518083038186803b1580156117d757600080fd5b505afa1580156117eb573d6000803e3d6000fd5b505050506040513d601f19601f8201168201806040525081019061180f91906129bc565b73ffffffffffffffffffffffffffffffffffffffff167f31a29f3d549b51b33c10acca465864df60975bf964406b8289c210ecea130faa8542604051611856929190612c80565b60405180910390a2600160009054906101000a900473ffffffffffffffffffffffffffffffffffffffff1673ffffffffffffffffffffffffffffffffffffffff1663aaf837c5856040518263ffffffff1660e01b81526004016118b99190612119565b600060405180830381600087803b1580156118d357600080fd5b505af11580156118e7573d6000803e3d6000fd5b5050505050505050565b6000600160009054906101000a900473ffffffffffffffffffffffffffffffffffffffff1673ffffffffffffffffffffffffffffffffffffffff1663d4b8df22836040518263ffffffff1660e01b815260040161194e9190612119565b60006040518083038186803b15801561196657600080fd5b505afa15801561197a573d6000803e3d6000fd5b505050506040513d6000823e3d601f19601f820116820180604052508101906119a39190612bff565b905060008151905060006001826119ba9190612eb3565b67ffffffffffffffff8111156119d3576119d2611f8c565b5b604051908082528060200260200182016040528015611a015781602001602082028036833780820191505090505b50905060005b82811015611a5c57838181518110611a2257611a21612a80565b5b6020026020010151828281518110611a3d57611a3c612a80565b5b6020026020010181815250508080611a5490612ade565b915050611a07565b50848160018351611a6d9190612f09565b81518110611a7e57611a7d612a80565b5b602002602001018181525050600160009054906101000a900473ffffffffffffffffffffffffffffffffffffffff1673ffffffffffffffffffffffffffffffffffffffff1663bacd910c85836040518363ffffffff1660e01b8152600401611ae7929190612fac565b600060405180830381600087803b158015611b0157600080fd5b505af1158015611b15573d6000803e3d6000fd5b505050505050505050565b6000815190506000600182611b359190612eb3565b67ffffffffffffffff811115611b4e57611b4d611f8c565b5b604051908082528060200260200182016040528015611b7c5781602001602082028036833780820191505090505b50905060005b82811015611bd757838181518110611b9d57611b9c612a80565b5b6020026020010151828281518110611bb857611bb7612a80565b5b6020026020010181815250508080611bcf90612ade565b915050611b82565b50858160018351611be89190612f09565b81518110611bf957611bf8612a80565b5b602002602001018181525050600085511415611ca357600160009054906101000a900473ffffffffffffffffffffffffffffffffffffffff1673ffffffffffffffffffffffffffffffffffffffff166350de13f985836040518363ffffffff1660e01b8152600401611c6c929190612fac565b600060405180830381600087803b158015611c8657600080fd5b505af1158015611c9a573d6000803e3d6000fd5b50505050611d33565b600160009054906101000a900473ffffffffffffffffffffffffffffffffffffffff1673ffffffffffffffffffffffffffffffffffffffff1663bd0a4e9e85836040518363ffffffff1660e01b8152600401611d00929190612fac565b600060405180830381600087803b158015611d1a57600080fd5b505af1158015611d2e573d6000803e3d6000fd5b505050505b505050505050565b6000600260009054906101000a900473ffffffffffffffffffffffffffffffffffffffff1673ffffffffffffffffffffffffffffffffffffffff16634caf9d0b846040518263ffffffff1660e01b8152600401611d9891906123fb565b60006040518083038186803b158015611db057600080fd5b505afa158015611dc4573d6000803e3d6000fd5b505050506040513d6000823e3d601f19601f82011682018060405250810190611ded9190612bff565b90506000815190506000600182611e049190612eb3565b67ffffffffffffffff811115611e1d57611e1c611f8c565b5b604051908082528060200260200182016040528015611e4b5781602001602082028036833780820191505090505b50905060005b82811015611ea657838181518110611e6c57611e6b612a80565b5b6020026020010151828281518110611e8757611e86612a80565b5b6020026020010181815250508080611e9e90612ade565b915050611e51565b5083818381518110611ebb57611eba612a80565b5b602002602001018181525050600260009054906101000a900473ffffffffffffffffffffffffffffffffffffffff1673ffffffffffffffffffffffffffffffffffffffff1663bb58f85d86836040518363ffffffff1660e01b8152600401611f24929190612fdc565b600060405180830381600087803b158015611f3e57600080fd5b505af1158015611f52573d6000803e3d6000fd5b505050505050505050565b6000604051905090565b600080fd5b600080fd5b600080fd5b600080fd5b6000601f19601f8301169050919050565b7f4e487b7100000000000000000000000000000000000000000000000000000000600052604160045260246000fd5b611fc482611f7b565b810181811067ffffffffffffffff82111715611fe357611fe2611f8c565b5b80604052505050565b6000611ff6611f5d565b90506120028282611fbb565b919050565b600067ffffffffffffffff82111561202257612021611f8c565b5b61202b82611f7b565b9050602081019050919050565b82818337600083830152505050565b600061205a61205584612007565b611fec565b90508281526020810184848401111561207657612075611f76565b5b612081848285612038565b509392505050565b600082601f83011261209e5761209d611f71565b5b81356120ae848260208601612047565b91505092915050565b6000602082840312156120cd576120cc611f67565b5b600082013567ffffffffffffffff8111156120eb576120ea611f6c565b5b6120f784828501612089565b91505092915050565b6000819050919050565b61211381612100565b82525050565b600060208201905061212e600083018461210a565b92915050565b600073ffffffffffffffffffffffffffffffffffffffff82169050919050565b600061215f82612134565b9050919050565b61216f81612154565b811461217a57600080fd5b50565b60008135905061218c81612166565b92915050565b600067ffffffffffffffff8211156121ad576121ac611f8c565b5b6121b682611f7b565b9050602081019050919050565b60006121d66121d184612192565b611fec565b9050828152602081018484840111156121f2576121f1611f76565b5b6121fd848285612038565b509392505050565b600082601f83011261221a57612219611f71565b5b813561222a8482602086016121c3565b91505092915050565b600067ffffffffffffffff82111561224e5761224d611f8c565b5b602082029050602081019050919050565b600080fd5b600061227761227284612233565b611fec565b9050808382526020820190506020840283018581111561229a5761229961225f565b5b835b818110156122c357806122af888261217d565b84526020840193505060208101905061229c565b5050509392505050565b600082601f8301126122e2576122e1611f71565b5b81356122f2848260208601612264565b91505092915050565b61230481612100565b811461230f57600080fd5b50565b600081359050612321816122fb565b92915050565b60008060008060008060c0878903121561234457612343611f67565b5b600061235289828a0161217d565b965050602087013567ffffffffffffffff81111561237357612372611f6c565b5b61237f89828a01612205565b955050604087013567ffffffffffffffff8111156123a05761239f611f6c565b5b6123ac89828a016122cd565b94505060606123bd89828a01612312565b93505060806123ce89828a01612312565b92505060a06123df89828a01612312565b9150509295509295509295565b6123f581612154565b82525050565b600060208201905061241060008301846123ec565b92915050565b60006020828403121561242c5761242b611f67565b5b600061243a8482850161217d565b91505092915050565b60008115159050919050565b61245881612443565b82525050565b6000602082019050612473600083018461244f565b92915050565b60006020828403121561248f5761248e611f67565b5b600061249d84828501612312565b91505092915050565b600082825260208201905092915050565b7f4572726f723a206d73672e73656e646572206d75737420626520696e7465726660008201527f616365287369676e657229000000000000000000000000000000000000000000602082015250565b6000612513602b836124a6565b915061251e826124b7565b604082019050919050565b6000602082019050818103600083015261254281612506565b9050919050565b6000819050919050565b61255c81612549565b811461256757600080fd5b50565b60008151905061257981612553565b92915050565b60006020828403121561259557612594611f67565b5b60006125a38482850161256a565b91505092915050565b6000819050919050565b6125c76125c282612549565b6125ac565b82525050565b60006125d982846125b6565b60208201915081905092915050565b6125f181612100565b82525050565b61260081612549565b82525050565b600081519050919050565b600082825260208201905092915050565b60005b83811015612640578082015181840152602081019050612625565b8381111561264f576000848401525b50505050565b600061266082612606565b61266a8185612611565b935061267a818560208601612622565b61268381611f7b565b840191505092915050565b600081519050919050565b600082825260208201905092915050565b6000819050602082019050919050565b6126c381612154565b82525050565b60006126d583836126ba565b60208301905092915050565b6000602082019050919050565b60006126f98261268e565b6127038185612699565b935061270e836126aa565b8060005b8381101561273f57815161272688826126c9565b9750612731836126e1565b925050600181019050612712565b5085935050505092915050565b600081519050919050565b600082825260208201905092915050565b6000819050602082019050919050565b600061278483836125e8565b60208301905092915050565b6000602082019050919050565b60006127a88261274c565b6127b28185612757565b93506127bd83612768565b8060005b838110156127ee5781516127d58882612778565b97506127e083612790565b9250506001810190506127c1565b5085935050505092915050565b61280481612443565b82525050565b60006101e08301600083015161282360008601826125e8565b50602083015161283660208601826125f7565b506040830151848203604086015261284e8282612655565b915050606083015161286360608601826125f7565b506080830151848203608086015261287b82826126ee565b91505060a083015184820360a086015261289582826126ee565b91505060c083015184820360c08601526128af828261279d565b91505060e083015184820360e08601526128c9828261279d565b9150506101008301516128e06101008601826125e8565b506101208301518482036101208601526128fa82826126ee565b915050610140830151848203610140860152612916828261279d565b91505061016083015161292d6101608601826125e8565b506101808301516129426101808601826125e8565b506101a08301516129576101a08601826126ba565b506101c083015161296c6101c08601826127fb565b508091505092915050565b600060408201905061298c600083018561210a565b818103602083015261299e818461280a565b90509392505050565b6000815190506129b681612166565b92915050565b6000602082840312156129d2576129d1611f67565b5b60006129e0848285016129a7565b91505092915050565b60006040820190506129fe60008301856123ec565b612a0b60208301846123ec565b9392505050565b6000819050919050565b6000819050919050565b6000612a41612a3c612a3784612a12565b612a1c565b612549565b9050919050565b612a5181612a26565b82525050565b6000604082019050612a6c600083018561210a565b612a796020830184612a48565b9392505050565b7f4e487b7100000000000000000000000000000000000000000000000000000000600052603260045260246000fd5b7f4e487b7100000000000000000000000000000000000000000000000000000000600052601160045260246000fd5b6000612ae982612549565b91507fffffffffffffffffffffffffffffffffffffffffffffffffffffffffffffffff821415612b1c57612b1b612aaf565b5b600182019050919050565b600067ffffffffffffffff821115612b4257612b41611f8c565b5b602082029050602081019050919050565b600081519050612b62816122fb565b92915050565b6000612b7b612b7684612b27565b611fec565b90508083825260208201905060208402830185811115612b9e57612b9d61225f565b5b835b81811015612bc75780612bb38882612b53565b845260208401935050602081019050612ba0565b5050509392505050565b600082601f830112612be657612be5611f71565b5b8151612bf6848260208601612b68565b91505092915050565b600060208284031215612c1557612c14611f67565b5b600082015167ffffffffffffffff811115612c3357612c32611f6c565b5b612c3f84828501612bd1565b91505092915050565b6000604082019050612c5d600083018561210a565b612c6a60208301846123ec565b9392505050565b612c7a81612549565b82525050565b6000604082019050612c95600083018561210a565b612ca26020830184612c71565b9392505050565b7f4572726f723a206f6e6c79206465706c6f7965722063616e207061737320706f60008201527f7374207369676e657220726f6c65000000000000000000000000000000000000602082015250565b6000612d05602e836124a6565b9150612d1082612ca9565b604082019050919050565b60006020820190508181036000830152612d3481612cf8565b9050919050565b7f4572726f723a206f6e6c79207369676e65722063616e2064656c657465206d6560008201527f6d65000000000000000000000000000000000000000000000000000000000000602082015250565b6000612d976022836124a6565b9150612da282612d3b565b604082019050919050565b60006020820190508181036000830152612dc681612d8a565b9050919050565b600060208284031215612de357612de2611f67565b5b6000612df184828501612b53565b91505092915050565b6000612e0d612e0884612192565b611fec565b905082815260208101848484011115612e2957612e28611f76565b5b612e34848285612622565b509392505050565b600082601f830112612e5157612e50611f71565b5b8151612e61848260208601612dfa565b91505092915050565b600060208284031215612e8057612e7f611f67565b5b600082015167ffffffffffffffff811115612e9e57612e9d611f6c565b5b612eaa84828501612e3c565b91505092915050565b6000612ebe82612549565b9150612ec983612549565b9250827fffffffffffffffffffffffffffffffffffffffffffffffffffffffffffffffff03821115612efe57612efd612aaf565b5b828201905092915050565b6000612f1482612549565b9150612f1f83612549565b925082821015612f3257612f31612aaf565b5b828203905092915050565b600082825260208201905092915050565b6000612f598261274c565b612f638185612f3d565b9350612f6e83612768565b8060005b83811015612f9f578151612f868882612778565b9750612f9183612790565b925050600181019050612f72565b5085935050505092915050565b6000604082019050612fc1600083018561210a565b8181036020830152612fd38184612f4e565b90509392505050565b6000604082019050612ff160008301856123ec565b81810360208301526130038184612f4e565b9050939250505056fea2646970667358221220d1fced6cbad870b5348695d49aa61072645ce99ac645dd8ffd7f66a2682ec6b364736f6c63430008090033",
  "immutableReferences": {},
  "source": "// SPDX-License-Identifier: MIT\n\npragma solidity >=0.8.0 <0.9.0;\n\nimport \"./UME.sol\";\nimport \"./MemeStorage.sol\";\nimport \"./UserStorage.sol\";\n\ncontract MemeFactory {\n  // public variables\n  UME private umeToken;\n  MemeStorage private memeStorage;\n  UserStorage private userStorage;\n  bytes32 zeroBytes;\n\n  address public postSigner;\n/*\n  // Meme structure\n  struct Meme {\n    bytes32 id; // number in all of timeline\n    uint time; // time of post\n    string text; // test of Meme\n    uint boost; // boost value\n    address[] likers; // list of addresses of likers\n    address[] unlikers; // list of addresses that have unliked\n    bytes32[] reposts; // list of addresses that have reposted\n    bytes32[] quotePosts; // list of addresses that have quotePosted\n    bytes32 repostId;// repost id\n    address[] tags; // list of id's of tagged\n    bytes32[] responses; // collection of id's of responses\n    bytes32 parentId; // memeId of parent (can be self)\n    bytes32 originId; // memeId of origin (can be self)\n    address author; // address of author\n    bool isVisible; // is visible\n  }\n*/\n  event PostSignerChanged(\n    address indexed from,\n    address indexed to);\n  event MemeCreated(\n    bytes32 memeId,\n    uint time,\n    address indexed account);\n  event MemeDeleted(\n    bytes32 memeId,\n    uint time,\n    address indexed account);\n  event Tagged(\n    address from,\n    address to);\n\n  constructor(\n    UME _umeToken,\n    MemeStorage _memeStorage,\n    UserStorage _userStorage\n  ) public {\n    umeToken = _umeToken;\n    memeStorage = _memeStorage;\n    userStorage = _userStorage;\n\n    postSigner = msg.sender;\n  }\n\n  // posting meme functions\n  function newMeme(\n    address _account,\n    string memory _memeText,\n    address[] memory _tags,\n    bytes32 _parentId,\n    bytes32 _originId,\n    bytes32 _repostId\n  ) public {\n    require(\n      msg.sender==postSigner,\n      'Error: msg.sender must be interface(signer)');\n    // increment meme id\n    memeStorage.increaseMemeCount();\n    bytes32 _memeId = keccak256(abi.encodePacked(memeStorage.memeCount()));\n    // set parent & origin id's to memeId if\n    if (_parentId == zeroBytes) {\n      _parentId = _memeId;\n    }\n    if (_originId == zeroBytes) {\n      _originId = _memeId;\n    }\n    // map memeId to new meme\n    memeStorage.setMeme(_memeId, MemeStorage.Meme(\n      _memeId, // meme id\n      block.timestamp, // meme time\n      _memeText, // meme text\n      0, // boost value\n      new address[](0), // likers\n      new address[](0), // unlikers\n      new bytes32[](0), // reposts\n      new bytes32[](0), // quotePosts\n      _repostId, // repost id\n      _tags, // tagged\n      new bytes32[](0), // response array\n      _parentId, // parent\n      _originId, // origin\n      _account, // author\n      true // isVisible\n    ));\n    // if responding to a single post, then mint respond token\n    if(_memeId!=_parentId && _parentId==_originId) {\n      if(memeStorage.getAuthor(_parentId)!=_account)\n        umeToken.mintRespond(_account, memeStorage.getAuthor(_parentId));\n        _addResponse(_memeId, _parentId);\n        memeStorage.addBoost(_parentId, 4);\n    } // if responding to a thread, mint respond token for parent, curate token for original\n    else if(_memeId!=_parentId && _parentId!=_originId) {\n      if(memeStorage.getAuthor(_parentId)!=_account)\n        umeToken.mintRespond(_account, memeStorage.getAuthor(_parentId));\n        memeStorage.addBoost(_parentId, 4);\n      if(memeStorage.getAuthor(_originId)!=_account)\n        umeToken.mintCurate(_account, memeStorage.getAuthor(_originId));\n        _addResponse(_memeId, _parentId);\n        memeStorage.addBoost(_originId, 4);\n    }\n    // mint tags\n    for(uint i = 0; i < _tags.length; i++) {\n      if(_account!=_tags[i] && _tags[i]!=address(0x0)){\n        umeToken.mintTag(_account, _tags[i]);\n        emit Tagged(_account, _tags[i]);\n      }\n    }\n    if(_repostId!=zeroBytes) {\n      if(bytes(_memeText).length==0) {\n        bytes32[] memory _oldReposts = memeStorage.getReposts(_repostId);\n        _addRepost(_memeId, _memeText, _repostId, _oldReposts);\n        memeStorage.addBoost(_memeId, 4);\n      } else {\n        bytes32[] memory _oldReposts = memeStorage.getQuotePosts(_repostId);\n        _addRepost(_memeId, _memeText, _repostId, _oldReposts);\n        memeStorage.addBoost(_memeId, 4);\n      }\n    }\n    _addPostToUser(_account, _memeId);\n    userStorage.setUsersByMeme(_memeId, _account);\n    emit MemeCreated(_memeId, block.timestamp, _account);\n  }\n  function deleteMeme(\n    bytes32 _memeId\n  ) public {\n    require(\n      postSigner==msg.sender,\n      'Error: only signer can delete meme');\n    // create empty Meme instance\n    bytes32 _parentId = memeStorage.getParentId(_memeId);\n    bytes32 _repostId = memeStorage.getRepostId(_memeId);\n    string memory _repostText = memeStorage.getText(_repostId);\n    emit MemeDeleted(_memeId, block.timestamp, memeStorage.getAuthor(_memeId));\n/*\n    if(memeStorage.getResponseCount(_parentId)>0)\n      _deleteResponse(_memeId, _parentId, memeStorage.getResponses(_parentId));\n    if(memeStorage.getRepostCount(_repostId)>0) {\n      if(bytes(_repostText).length==0)\n        _deleteRepost(_memeId, _repostId, '', memeStorage.getReposts(_repostId));\n      else _deleteRepost(_memeId, _repostId, _bytesToBytes32(bytes(_repostText)), memeStorage.getQuotePosts(_repostId));\n    }\n    */\n    memeStorage.deleteMeme(_memeId);\n  }\n\n  function _addResponse(\n    bytes32 _memeId,\n    bytes32 _parentId\n  ) private {\n    bytes32[] memory _oldResponses = memeStorage.getResponses(_parentId);\n    uint _oldResponseCount = _oldResponses.length;\n    bytes32[] memory _newResponses = new bytes32[](_oldResponseCount+1);\n    for(uint i = 0; i < _oldResponseCount; i++)\n      _newResponses[i] = _oldResponses[i];\n    _newResponses[_newResponses.length-1] = _memeId;\n    memeStorage.setResponses(_parentId, _newResponses);\n  }\n/*\n  function _deleteResponse(\n    bytes32 _memeId,\n    bytes32 _parentId,\n    bytes32[] memory _oldResponses\n  ) private {\n    // delete liked index, moving all successive elements\n    uint _oldResponseCount = _oldResponses.length;\n    bytes32[] memory _newResponses = new bytes32[](_oldResponseCount-1);\n    if(_oldResponseCount > 1) {\n      uint _index;\n      for(uint i = 0; i < _oldResponseCount; i++) {\n        if (_oldResponses[i]==_memeId && i!=_oldResponseCount-1) {\n          _index = i;\n          break;\n        }\n      }\n      _newResponses = _deleteBytes32(_oldResponses, _index);\n    }\n    memeStorage.setResponses(_parentId, _newResponses);\n  }\n*/\n  function _addRepost(\n    bytes32 _memeId,\n    string memory _memeText,\n    bytes32 _repostId,\n    bytes32[] memory _oldReposts\n  ) private {\n\n    uint _oldRepostCount = _oldReposts.length;\n    bytes32[] memory _newReposts = new bytes32[](_oldRepostCount+1);\n    for(uint i = 0; i < _oldRepostCount; i++)\n      _newReposts[i] = _oldReposts[i];\n    _newReposts[_newReposts.length-1] = _memeId;\n\n    if(bytes(_memeText).length==0) memeStorage.setReposts(_repostId, _newReposts);\n    else memeStorage.setQuotePosts(_repostId, _newReposts);\n  }\n/*\n  function _deleteRepost(\n    bytes32 _memeId,\n    bytes32 _repostId,\n    bytes32 _memeText,\n    bytes32[] memory _oldReposts\n  ) private {\n    // delete liked index, moving all successive elements\n    uint _oldRepostCount = _oldReposts.length;\n    bytes32[] memory _newReposts = new bytes32[](_oldRepostCount-1);\n    if(_oldRepostCount > 1) {\n      uint _index;\n      for(uint i = 0; i < _oldRepostCount; i++) {\n        if (_oldReposts[i]==_memeId && i!=_oldRepostCount-1) {\n          _index = i;\n          break;\n        }\n      }\n      _newReposts = _deleteBytes32(_oldReposts, _index);\n    }\n    if(bytes(memeStorage.getText(_memeId)).length==0)\n      memeStorage.setReposts(_repostId, _newReposts);\n    else memeStorage.setQuotePosts(_repostId, _newReposts);\n  }\n  */\n  function _addPostToUser(\n    address _account,\n    bytes32 _memeId\n  ) private {\n     // create memory array with length one greater than _user.posts length\n     bytes32[] memory _oldPosts = userStorage.getPosts(_account);\n     uint _oldPostCount = _oldPosts.length;\n     bytes32[] memory _newPosts = new bytes32[](_oldPostCount+1);\n     for(uint i = 0; i < _oldPostCount; i++)\n       _newPosts[i] = _oldPosts[i];\n     _newPosts[_oldPostCount] = _memeId;\n     userStorage.setPosts(_account, _newPosts);\n  }\n  function _deletePostFromUser(\n    address _account,\n    bytes32 _memeId\n  ) private {\n     bytes32[] memory _oldPosts = userStorage.getPosts(_account);\n     uint _oldPostCount = _oldPosts.length;\n     bytes32[] memory _newPosts = new bytes32[](_oldPostCount-1);\n     uint _index;\n     for(uint i = 0; i < _oldPosts.length; i++) {\n       if(_oldPosts[i]==_memeId) {\n         _index = i;\n         break;\n       }\n     }\n     _newPosts = _deleteBytes32(_oldPosts, _index);\n     userStorage.setPosts(_account, _newPosts);\n     // clears mapping of deleted meme, reroutes to 0x0 address instead of deleter\n     userStorage.setUsersByMeme(_memeId, address(0x0));\n  }\n\n  // helper functions\n  function _deleteBytes32(\n    bytes32[] memory array,\n    uint index\n  ) private pure returns(bytes32[] memory) {\n    bytes32[] memory _array = new bytes32[](array.length-1);\n    for(uint i = 0; i < index; i++)\n      _array[i] = array[i];\n    for(uint i = index; i < _array.length; i++)\n      _array[i] = array[i+1];\n    return _array;\n  }\n\n  function _bytesToBytes32(bytes memory source) public pure returns(bytes32 result) {\n    if(source.length==0) return 0x0;\n    assembly {\n      result := mload(add(source, 32))\n    }\n  }\n  // set signer roles\n  function passPostSigner(address _post) public returns (bool) {\n    require(\n      msg.sender == postSigner,\n      'Error: only deployer can pass post signer role');\n\n    postSigner = _post;\n    emit PostSignerChanged(msg.sender, postSigner);\n    return true;\n  }\n}\n",
  "sourcePath": "/Users/jaiq/Documents/000 BLOCKCHAIN/ETH/uMe/src/contracts/MemeFactory.sol",
  "compiler": {
    "name": "solc",
    "version": "0.8.9+commit.e5eed63a.Emscripten.clang"
  },
  "schemaVersion": "3.4.3",
  "updatedAt": "2021-10-29T07:30:37.202Z",
  "devdoc": {
    "kind": "dev",
    "methods": {},
    "version": 1
  },
  "userdoc": {
    "kind": "user",
    "methods": {},
    "version": 1
  }
}