{
  "contractName": "MemeStorage",
  "abi": [
    {
      "inputs": [],
      "stateMutability": "nonpayable",
      "type": "constructor"
    },
    {
      "anonymous": false,
      "inputs": [
        {
          "indexed": true,
          "internalType": "address",
          "name": "from",
          "type": "address"
        },
        {
          "indexed": true,
          "internalType": "address",
          "name": "to",
          "type": "address"
        }
      ],
      "name": "FactorySignerChanged",
      "type": "event"
    },
    {
      "anonymous": false,
      "inputs": [
        {
          "indexed": true,
          "internalType": "address",
          "name": "from",
          "type": "address"
        },
        {
          "indexed": true,
          "internalType": "address",
          "name": "to",
          "type": "address"
        }
      ],
      "name": "InterfaceSignerChanged",
      "type": "event"
    },
    {
      "anonymous": false,
      "inputs": [
        {
          "indexed": true,
          "internalType": "address",
          "name": "from",
          "type": "address"
        },
        {
          "indexed": true,
          "internalType": "address",
          "name": "to",
          "type": "address"
        }
      ],
      "name": "LikeSignerChanged",
      "type": "event"
    },
    {
      "anonymous": false,
      "inputs": [
        {
          "indexed": true,
          "internalType": "address",
          "name": "from",
          "type": "address"
        },
        {
          "indexed": true,
          "internalType": "address",
          "name": "to",
          "type": "address"
        }
      ],
      "name": "PostSignerChanged",
      "type": "event"
    },
    {
      "anonymous": false,
      "inputs": [
        {
          "indexed": true,
          "internalType": "address",
          "name": "from",
          "type": "address"
        },
        {
          "indexed": true,
          "internalType": "address",
          "name": "to",
          "type": "address"
        }
      ],
      "name": "RepostSignerChanged",
      "type": "event"
    },
    {
      "inputs": [],
      "name": "factorySigner",
      "outputs": [
        {
          "internalType": "address",
          "name": "",
          "type": "address"
        }
      ],
      "stateMutability": "view",
      "type": "function",
      "constant": true
    },
    {
      "inputs": [],
      "name": "interfaceSigner",
      "outputs": [
        {
          "internalType": "address",
          "name": "",
          "type": "address"
        }
      ],
      "stateMutability": "view",
      "type": "function",
      "constant": true
    },
    {
      "inputs": [],
      "name": "likeSigner",
      "outputs": [
        {
          "internalType": "address",
          "name": "",
          "type": "address"
        }
      ],
      "stateMutability": "view",
      "type": "function",
      "constant": true
    },
    {
      "inputs": [],
      "name": "memeCount",
      "outputs": [
        {
          "internalType": "uint256",
          "name": "",
          "type": "uint256"
        }
      ],
      "stateMutability": "view",
      "type": "function",
      "constant": true
    },
    {
      "inputs": [
        {
          "internalType": "bytes32",
          "name": "",
          "type": "bytes32"
        }
      ],
      "name": "memes",
      "outputs": [
        {
          "internalType": "bytes32",
          "name": "id",
          "type": "bytes32"
        },
        {
          "internalType": "uint256",
          "name": "time",
          "type": "uint256"
        },
        {
          "internalType": "string",
          "name": "text",
          "type": "string"
        },
        {
          "internalType": "uint256",
          "name": "boost",
          "type": "uint256"
        },
        {
          "internalType": "bytes32",
          "name": "repostId",
          "type": "bytes32"
        },
        {
          "internalType": "bytes32",
          "name": "parentId",
          "type": "bytes32"
        },
        {
          "internalType": "bytes32",
          "name": "originId",
          "type": "bytes32"
        },
        {
          "internalType": "address",
          "name": "author",
          "type": "address"
        },
        {
          "internalType": "bool",
          "name": "isVisible",
          "type": "bool"
        }
      ],
      "stateMutability": "view",
      "type": "function",
      "constant": true
    },
    {
      "inputs": [],
      "name": "postSigner",
      "outputs": [
        {
          "internalType": "address",
          "name": "",
          "type": "address"
        }
      ],
      "stateMutability": "view",
      "type": "function",
      "constant": true
    },
    {
      "inputs": [
        {
          "internalType": "bytes32",
          "name": "_memeId",
          "type": "bytes32"
        },
        {
          "components": [
            {
              "internalType": "bytes32",
              "name": "id",
              "type": "bytes32"
            },
            {
              "internalType": "uint256",
              "name": "time",
              "type": "uint256"
            },
            {
              "internalType": "string",
              "name": "text",
              "type": "string"
            },
            {
              "internalType": "uint256",
              "name": "boost",
              "type": "uint256"
            },
            {
              "internalType": "address[]",
              "name": "likers",
              "type": "address[]"
            },
            {
              "internalType": "address[]",
              "name": "unlikers",
              "type": "address[]"
            },
            {
              "internalType": "bytes32[]",
              "name": "reposts",
              "type": "bytes32[]"
            },
            {
              "internalType": "bytes32[]",
              "name": "quotePosts",
              "type": "bytes32[]"
            },
            {
              "internalType": "bytes32",
              "name": "repostId",
              "type": "bytes32"
            },
            {
              "internalType": "address[]",
              "name": "tags",
              "type": "address[]"
            },
            {
              "internalType": "bytes32[]",
              "name": "responses",
              "type": "bytes32[]"
            },
            {
              "internalType": "bytes32",
              "name": "parentId",
              "type": "bytes32"
            },
            {
              "internalType": "bytes32",
              "name": "originId",
              "type": "bytes32"
            },
            {
              "internalType": "address",
              "name": "author",
              "type": "address"
            },
            {
              "internalType": "bool",
              "name": "isVisible",
              "type": "bool"
            }
          ],
          "internalType": "struct MemeStorage.Meme",
          "name": "_meme",
          "type": "tuple"
        }
      ],
      "name": "setMeme",
      "outputs": [],
      "stateMutability": "nonpayable",
      "type": "function"
    },
    {
      "inputs": [
        {
          "internalType": "bytes32",
          "name": "_memeId",
          "type": "bytes32"
        }
      ],
      "name": "deleteMeme",
      "outputs": [],
      "stateMutability": "nonpayable",
      "type": "function"
    },
    {
      "inputs": [],
      "name": "increaseMemeCount",
      "outputs": [],
      "stateMutability": "nonpayable",
      "type": "function"
    },
    {
      "inputs": [
        {
          "internalType": "bytes32",
          "name": "_memeId",
          "type": "bytes32"
        },
        {
          "internalType": "bytes32[]",
          "name": "_responses",
          "type": "bytes32[]"
        }
      ],
      "name": "setResponses",
      "outputs": [],
      "stateMutability": "nonpayable",
      "type": "function"
    },
    {
      "inputs": [
        {
          "internalType": "bytes32",
          "name": "_memeId",
          "type": "bytes32"
        },
        {
          "internalType": "address[]",
          "name": "_likers",
          "type": "address[]"
        }
      ],
      "name": "setLikers",
      "outputs": [],
      "stateMutability": "nonpayable",
      "type": "function"
    },
    {
      "inputs": [
        {
          "internalType": "bytes32",
          "name": "_memeId",
          "type": "bytes32"
        },
        {
          "internalType": "address[]",
          "name": "_unlikers",
          "type": "address[]"
        }
      ],
      "name": "setUnlikers",
      "outputs": [],
      "stateMutability": "nonpayable",
      "type": "function"
    },
    {
      "inputs": [],
      "name": "getMemeCount",
      "outputs": [
        {
          "internalType": "uint256",
          "name": "",
          "type": "uint256"
        }
      ],
      "stateMutability": "view",
      "type": "function",
      "constant": true
    },
    {
      "inputs": [
        {
          "internalType": "bytes32",
          "name": "_memeId",
          "type": "bytes32"
        }
      ],
      "name": "getLikeCount",
      "outputs": [
        {
          "internalType": "uint256",
          "name": "",
          "type": "uint256"
        }
      ],
      "stateMutability": "view",
      "type": "function",
      "constant": true
    },
    {
      "inputs": [
        {
          "internalType": "bytes32",
          "name": "_memeId",
          "type": "bytes32"
        }
      ],
      "name": "getLikers",
      "outputs": [
        {
          "internalType": "address[]",
          "name": "",
          "type": "address[]"
        }
      ],
      "stateMutability": "view",
      "type": "function",
      "constant": true
    },
    {
      "inputs": [
        {
          "internalType": "bytes32",
          "name": "_memeId",
          "type": "bytes32"
        }
      ],
      "name": "getUnlikers",
      "outputs": [
        {
          "internalType": "address[]",
          "name": "",
          "type": "address[]"
        }
      ],
      "stateMutability": "view",
      "type": "function",
      "constant": true
    },
    {
      "inputs": [
        {
          "internalType": "bytes32",
          "name": "_memeId",
          "type": "bytes32"
        }
      ],
      "name": "getRepostCount",
      "outputs": [
        {
          "internalType": "uint256",
          "name": "",
          "type": "uint256"
        }
      ],
      "stateMutability": "view",
      "type": "function",
      "constant": true
    },
    {
      "inputs": [
        {
          "internalType": "bytes32",
          "name": "_memeId",
          "type": "bytes32"
        }
      ],
      "name": "getReposts",
      "outputs": [
        {
          "internalType": "bytes32[]",
          "name": "",
          "type": "bytes32[]"
        }
      ],
      "stateMutability": "view",
      "type": "function",
      "constant": true
    },
    {
      "inputs": [
        {
          "internalType": "bytes32",
          "name": "_memeId",
          "type": "bytes32"
        }
      ],
      "name": "getQuotePostCount",
      "outputs": [
        {
          "internalType": "uint256",
          "name": "",
          "type": "uint256"
        }
      ],
      "stateMutability": "view",
      "type": "function",
      "constant": true
    },
    {
      "inputs": [
        {
          "internalType": "bytes32",
          "name": "_memeId",
          "type": "bytes32"
        }
      ],
      "name": "getQuotePosts",
      "outputs": [
        {
          "internalType": "bytes32[]",
          "name": "",
          "type": "bytes32[]"
        }
      ],
      "stateMutability": "view",
      "type": "function",
      "constant": true
    },
    {
      "inputs": [
        {
          "internalType": "bytes32",
          "name": "_memeId",
          "type": "bytes32"
        }
      ],
      "name": "getTags",
      "outputs": [
        {
          "internalType": "address[]",
          "name": "",
          "type": "address[]"
        }
      ],
      "stateMutability": "view",
      "type": "function",
      "constant": true
    },
    {
      "inputs": [
        {
          "internalType": "bytes32",
          "name": "_memeId",
          "type": "bytes32"
        }
      ],
      "name": "getResponseCount",
      "outputs": [
        {
          "internalType": "uint256",
          "name": "",
          "type": "uint256"
        }
      ],
      "stateMutability": "view",
      "type": "function",
      "constant": true
    },
    {
      "inputs": [
        {
          "internalType": "bytes32",
          "name": "_memeId",
          "type": "bytes32"
        }
      ],
      "name": "getResponses",
      "outputs": [
        {
          "internalType": "bytes32[]",
          "name": "",
          "type": "bytes32[]"
        }
      ],
      "stateMutability": "view",
      "type": "function",
      "constant": true
    },
    {
      "inputs": [
        {
          "internalType": "bytes32",
          "name": "_memeId",
          "type": "bytes32"
        }
      ],
      "name": "getParentId",
      "outputs": [
        {
          "internalType": "bytes32",
          "name": "",
          "type": "bytes32"
        }
      ],
      "stateMutability": "view",
      "type": "function",
      "constant": true
    },
    {
      "inputs": [
        {
          "internalType": "bytes32",
          "name": "_memeId",
          "type": "bytes32"
        }
      ],
      "name": "getOriginId",
      "outputs": [
        {
          "internalType": "bytes32",
          "name": "",
          "type": "bytes32"
        }
      ],
      "stateMutability": "view",
      "type": "function",
      "constant": true
    },
    {
      "inputs": [
        {
          "internalType": "bytes32",
          "name": "_memeId",
          "type": "bytes32"
        }
      ],
      "name": "getAuthor",
      "outputs": [
        {
          "internalType": "address",
          "name": "",
          "type": "address"
        }
      ],
      "stateMutability": "view",
      "type": "function",
      "constant": true
    },
    {
      "inputs": [
        {
          "internalType": "bytes32",
          "name": "_memeId",
          "type": "bytes32"
        }
      ],
      "name": "getVisibility",
      "outputs": [
        {
          "internalType": "bool",
          "name": "",
          "type": "bool"
        }
      ],
      "stateMutability": "view",
      "type": "function",
      "constant": true
    },
    {
      "inputs": [
        {
          "internalType": "address",
          "name": "_memeFactory",
          "type": "address"
        }
      ],
      "name": "passFactorySigner",
      "outputs": [
        {
          "internalType": "bool",
          "name": "",
          "type": "bool"
        }
      ],
      "stateMutability": "nonpayable",
      "type": "function"
    },
    {
      "inputs": [
        {
          "internalType": "address",
          "name": "_userInterface",
          "type": "address"
        }
      ],
      "name": "passInterfaceSigner",
      "outputs": [
        {
          "internalType": "bool",
          "name": "",
          "type": "bool"
        }
      ],
      "stateMutability": "nonpayable",
      "type": "function"
    },
    {
      "inputs": [
        {
          "internalType": "address",
          "name": "_post",
          "type": "address"
        }
      ],
      "name": "passPostSigner",
      "outputs": [
        {
          "internalType": "bool",
          "name": "",
          "type": "bool"
        }
      ],
      "stateMutability": "nonpayable",
      "type": "function"
    },
    {
      "inputs": [
        {
          "internalType": "address",
          "name": "_like",
          "type": "address"
        }
      ],
      "name": "passLikeSigner",
      "outputs": [
        {
          "internalType": "bool",
          "name": "",
          "type": "bool"
        }
      ],
      "stateMutability": "nonpayable",
      "type": "function"
    }
  ],
  "bytecode": "0x6080604052600060045534801561001557600080fd5b50336000806101000a81548173ffffffffffffffffffffffffffffffffffffffff021916908373ffffffffffffffffffffffffffffffffffffffff16021790555033600160006101000a81548173ffffffffffffffffffffffffffffffffffffffff021916908373ffffffffffffffffffffffffffffffffffffffff16021790555033600260006101000a81548173ffffffffffffffffffffffffffffffffffffffff021916908373ffffffffffffffffffffffffffffffffffffffff16021790555033600360006101000a81548173ffffffffffffffffffffffffffffffffffffffff021916908373ffffffffffffffffffffffffffffffffffffffff160217905550612a70806101286000396000f3fe608060405234801561001057600080fd5b50600436106101e55760003560e01c80639ca9dcab1161010f578063ddeeeed5116100a2578063f1e25e8511610071578063f1e25e8514610632578063f8f1be2214610662578063f8f3d03714610692578063fae606641461069c576101e5565b8063ddeeeed514610592578063ddf60c93146105ca578063e9bdf976146105e6578063edcd526a14610602576101e5565b8063bacd910c116100de578063bacd910c146104e6578063c4e172da14610502578063c627f1ee14610532578063d4b8df2214610562576101e5565b80639ca9dcab1461045e578063a6838c7b1461047c578063aaf837c5146104ac578063af5dffde146104c8576101e5565b8063691d1c28116101875780637b2124d2116101565780637b2124d2146103d4578063829a262c146103f25780638c98876f14610410578063983169381461042e576101e5565b8063691d1c28146103285780637071af84146103585780637135cc101461038857806372d9fe5d146103a4576101e5565b80634fd5d474116101c35780634fd5d4741461027a5780635713663c146102aa5780635aa64413146102da57806369171f5c146102f8576101e5565b806306e6a770146101ea57806317dcaab61461021a578063213059dd1461024a575b600080fd5b61020460048036038101906101ff9190611f04565b6106cc565b6040516102119190612322565b60405180910390f35b610234600480360381019061022f9190611f04565b610824565b6040516102419190612322565b60405180910390f35b610264600480360381019061025f9190611f31565b610978565b60405161027191906122de565b60405180910390f35b610294600480360381019061028f9190611f31565b610a1c565b6040516102a191906122de565b60405180910390f35b6102c460048036038101906102bf9190611f31565b610ac0565b6040516102d191906124ac565b60405180910390f35b6102e2610ae3565b6040516102ef91906122c3565b60405180910390f35b610312600480360381019061030d9190611f31565b610b07565b60405161031f9190612300565b60405180910390f35b610342600480360381019061033d9190611f31565b610b75565b60405161034f91906122c3565b60405180910390f35b610372600480360381019061036d9190611f31565b610bb5565b60405161037f919061233d565b60405180910390f35b6103a2600480360381019061039d9190611f5e565b610bd5565b005b6103be60048036038101906103b99190611f31565b610c94565b6040516103cb9190612300565b60405180910390f35b6103dc610d02565b6040516103e991906124ac565b60405180910390f35b6103fa610d08565b60405161040791906122c3565b60405180910390f35b610418610d2e565b60405161042591906122c3565b60405180910390f35b61044860048036038101906104439190611f31565b610d54565b60405161045591906124ac565b60405180910390f35b610466610d77565b60405161047391906124ac565b60405180910390f35b61049660048036038101906104919190611f04565b610d81565b6040516104a39190612322565b60405180910390f35b6104c660048036038101906104c19190611f31565b610ed9565b005b6104d061105b565b6040516104dd91906122c3565b60405180910390f35b61050060048036038101906104fb9190611fba565b611081565b005b61051c60048036038101906105179190611f04565b61113e565b6040516105299190612322565b60405180910390f35b61054c60048036038101906105479190611f31565b611296565b6040516105599190612322565b60405180910390f35b61057c60048036038101906105779190611f31565b6112c3565b6040516105899190612300565b60405180910390f35b6105ac60048036038101906105a79190611f31565b611331565b6040516105c199989796959493929190612358565b60405180910390f35b6105e460048036038101906105df9190612016565b611434565b005b61060060048036038101906105fb9190611f5e565b611652565b005b61061c60048036038101906106179190611f31565b611711565b60405161062991906122de565b60405180910390f35b61064c60048036038101906106479190611f31565b6117b5565b604051610659919061233d565b60405180910390f35b61067c60048036038101906106779190611f31565b6117d5565b60405161068991906124ac565b60405180910390f35b61069a6117f8565b005b6106b660048036038101906106b19190611f31565b6118a0565b6040516106c391906124ac565b60405180910390f35b6000600360009054906101000a900473ffffffffffffffffffffffffffffffffffffffff1673ffffffffffffffffffffffffffffffffffffffff163373ffffffffffffffffffffffffffffffffffffffff161461075e576040517f08c379a00000000000000000000000000000000000000000000000000000000081526004016107559061246c565b60405180910390fd5b81600360006101000a81548173ffffffffffffffffffffffffffffffffffffffff021916908373ffffffffffffffffffffffffffffffffffffffff160217905550600360009054906101000a900473ffffffffffffffffffffffffffffffffffffffff1673ffffffffffffffffffffffffffffffffffffffff163373ffffffffffffffffffffffffffffffffffffffff167f2364065f519eb2e0ac13040d65b1d1140f6677de0518b6dee6954e49f7f7a5b660405160405180910390a360019050919050565b60008060009054906101000a900473ffffffffffffffffffffffffffffffffffffffff1673ffffffffffffffffffffffffffffffffffffffff163373ffffffffffffffffffffffffffffffffffffffff16146108b5576040517f08c379a00000000000000000000000000000000000000000000000000000000081526004016108ac9061242c565b60405180910390fd5b816000806101000a81548173ffffffffffffffffffffffffffffffffffffffff021916908373ffffffffffffffffffffffffffffffffffffffff16021790555060008054906101000a900473ffffffffffffffffffffffffffffffffffffffff1673ffffffffffffffffffffffffffffffffffffffff163373ffffffffffffffffffffffffffffffffffffffff167f5f8b18be53cdf9843c4263461966fc46896a2d372d3fa87fc22f6cfed024186260405160405180910390a360019050919050565b606060056000838152602001908152602001600020600401805480602002602001604051908101604052809291908181526020018280548015610a1057602002820191906000526020600020905b8160009054906101000a900473ffffffffffffffffffffffffffffffffffffffff1673ffffffffffffffffffffffffffffffffffffffff16815260200190600101908083116109c6575b50505050509050919050565b606060056000838152602001908152602001600020600501805480602002602001604051908101604052809291908181526020018280548015610ab457602002820191906000526020600020905b8160009054906101000a900473ffffffffffffffffffffffffffffffffffffffff1673ffffffffffffffffffffffffffffffffffffffff1681526020019060010190808311610a6a575b50505050509050919050565b600060056000838152602001908152602001600020600701805490509050919050565b60008054906101000a900473ffffffffffffffffffffffffffffffffffffffff1681565b606060056000838152602001908152602001600020600701805480602002602001604051908101604052809291908181526020018280548015610b6957602002820191906000526020600020905b815481526020019060010190808311610b55575b50505050509050919050565b600060056000838152602001908152602001600020600d0160009054906101000a900473ffffffffffffffffffffffffffffffffffffffff169050919050565b600060056000838152602001908152602001600020600b01549050919050565b600360009054906101000a900473ffffffffffffffffffffffffffffffffffffffff1673ffffffffffffffffffffffffffffffffffffffff163373ffffffffffffffffffffffffffffffffffffffff1614610c65576040517f08c379a0000000000000000000000000000000000000000000000000000000008152600401610c5c9061246c565b60405180910390fd5b80600560008481526020019081526020016000206005019080519060200190610c8f9291906118c3565b505050565b606060056000838152602001908152602001600020600601805480602002602001604051908101604052809291908181526020018280548015610cf657602002820191906000526020600020905b815481526020019060010190808311610ce2575b50505050509050919050565b60045481565b600360009054906101000a900473ffffffffffffffffffffffffffffffffffffffff1681565b600260009054906101000a900473ffffffffffffffffffffffffffffffffffffffff1681565b600060056000838152602001908152602001600020600401805490509050919050565b6000600454905090565b6000600260009054906101000a900473ffffffffffffffffffffffffffffffffffffffff1673ffffffffffffffffffffffffffffffffffffffff163373ffffffffffffffffffffffffffffffffffffffff1614610e13576040517f08c379a0000000000000000000000000000000000000000000000000000000008152600401610e0a9061244c565b60405180910390fd5b81600260006101000a81548173ffffffffffffffffffffffffffffffffffffffff021916908373ffffffffffffffffffffffffffffffffffffffff160217905550600260009054906101000a900473ffffffffffffffffffffffffffffffffffffffff1673ffffffffffffffffffffffffffffffffffffffff163373ffffffffffffffffffffffffffffffffffffffff167f76ce921e20c471c95deae34d20d53706ec4378ecab394e517f73aef912ae6cdd60405160405180910390a360019050919050565b60008054906101000a900473ffffffffffffffffffffffffffffffffffffffff1673ffffffffffffffffffffffffffffffffffffffff163373ffffffffffffffffffffffffffffffffffffffff1614610f67576040517f08c379a0000000000000000000000000000000000000000000000000000000008152600401610f5e9061240c565b60405180910390fd5b600560008281526020019081526020016000206000808201600090556001820160009055600282016000610f9b919061194d565b6003820160009055600482016000610fb3919061198d565b600582016000610fc3919061198d565b600682016000610fd391906119ae565b600782016000610fe391906119ae565b6008820160009055600982016000610ffb919061198d565b600a8201600061100b91906119ae565b600b820160009055600c820160009055600d820160006101000a81549073ffffffffffffffffffffffffffffffffffffffff0219169055600d820160146101000a81549060ff0219169055505050565b600160009054906101000a900473ffffffffffffffffffffffffffffffffffffffff1681565b60008054906101000a900473ffffffffffffffffffffffffffffffffffffffff1673ffffffffffffffffffffffffffffffffffffffff163373ffffffffffffffffffffffffffffffffffffffff161461110f576040517f08c379a00000000000000000000000000000000000000000000000000000000081526004016111069061242c565b60405180910390fd5b8060056000848152602001908152602001600020600a0190805190602001906111399291906119cf565b505050565b6000600160009054906101000a900473ffffffffffffffffffffffffffffffffffffffff1673ffffffffffffffffffffffffffffffffffffffff163373ffffffffffffffffffffffffffffffffffffffff16146111d0576040517f08c379a00000000000000000000000000000000000000000000000000000000081526004016111c79061242c565b60405180910390fd5b81600160006101000a81548173ffffffffffffffffffffffffffffffffffffffff021916908373ffffffffffffffffffffffffffffffffffffffff160217905550600160009054906101000a900473ffffffffffffffffffffffffffffffffffffffff1673ffffffffffffffffffffffffffffffffffffffff163373ffffffffffffffffffffffffffffffffffffffff167fdf570d582e474b2d7915b12f6f773eb74e4bc78a660caeeccf19491c8578507b60405160405180910390a360019050919050565b600060056000838152602001908152602001600020600d0160149054906101000a900460ff169050919050565b606060056000838152602001908152602001600020600a0180548060200260200160405190810160405280929190818152602001828054801561132557602002820191906000526020600020905b815481526020019060010190808311611311575b50505050509050919050565b600560205280600052604060002060009150905080600001549080600101549080600201805461136090612697565b80601f016020809104026020016040519081016040528092919081815260200182805461138c90612697565b80156113d95780601f106113ae576101008083540402835291602001916113d9565b820191906000526020600020905b8154815290600101906020018083116113bc57829003601f168201915b50505050509080600301549080600801549080600b01549080600c01549080600d0160009054906101000a900473ffffffffffffffffffffffffffffffffffffffff169080600d0160149054906101000a900460ff16905089565b60008054906101000a900473ffffffffffffffffffffffffffffffffffffffff1673ffffffffffffffffffffffffffffffffffffffff163373ffffffffffffffffffffffffffffffffffffffff16146114c2576040517f08c379a00000000000000000000000000000000000000000000000000000000081526004016114b9906123ec565b60405180910390fd5b806005600084815260200190815260200160002060008201518160000155602082015181600101556040820151816002019080519060200190611506929190611a1c565b5060608201518160030155608082015181600401908051906020019061152d9291906118c3565b5060a082015181600501908051906020019061154a9291906118c3565b5060c08201518160060190805190602001906115679291906119cf565b5060e08201518160070190805190602001906115849291906119cf565b5061010082015181600801556101208201518160090190805190602001906115ad9291906118c3565b5061014082015181600a0190805190602001906115cb9291906119cf565b5061016082015181600b015561018082015181600c01556101a082015181600d0160006101000a81548173ffffffffffffffffffffffffffffffffffffffff021916908373ffffffffffffffffffffffffffffffffffffffff1602179055506101c082015181600d0160146101000a81548160ff0219169083151502179055509050505050565b600360009054906101000a900473ffffffffffffffffffffffffffffffffffffffff1673ffffffffffffffffffffffffffffffffffffffff163373ffffffffffffffffffffffffffffffffffffffff16146116e2576040517f08c379a00000000000000000000000000000000000000000000000000000000081526004016116d99061246c565b60405180910390fd5b8060056000848152602001908152602001600020600401908051906020019061170c9291906118c3565b505050565b6060600560008381526020019081526020016000206009018054806020026020016040519081016040528092919081815260200182805480156117a957602002820191906000526020600020905b8160009054906101000a900473ffffffffffffffffffffffffffffffffffffffff1673ffffffffffffffffffffffffffffffffffffffff168152602001906001019080831161175f575b50505050509050919050565b600060056000838152602001908152602001600020600c01549050919050565b600060056000838152602001908152602001600020600601805490509050919050565b60008054906101000a900473ffffffffffffffffffffffffffffffffffffffff1673ffffffffffffffffffffffffffffffffffffffff163373ffffffffffffffffffffffffffffffffffffffff1614611886576040517f08c379a000000000000000000000000000000000000000000000000000000000815260040161187d9061248c565b60405180910390fd5b60046000815480929190611899906126fa565b9190505550565b600060056000838152602001908152602001600020600a01805490509050919050565b82805482825590600052602060002090810192821561193c579160200282015b8281111561193b5782518260006101000a81548173ffffffffffffffffffffffffffffffffffffffff021916908373ffffffffffffffffffffffffffffffffffffffff160217905550916020019190600101906118e3565b5b5090506119499190611aa2565b5090565b50805461195990612697565b6000825580601f1061196b575061198a565b601f0160209004906000526020600020908101906119899190611aa2565b5b50565b50805460008255906000526020600020908101906119ab9190611aa2565b50565b50805460008255906000526020600020908101906119cc9190611abf565b50565b828054828255906000526020600020908101928215611a0b579160200282015b82811115611a0a5782518255916020019190600101906119ef565b5b509050611a189190611abf565b5090565b828054611a2890612697565b90600052602060002090601f016020900481019282611a4a5760008555611a91565b82601f10611a6357805160ff1916838001178555611a91565b82800160010185558215611a91579182015b82811115611a90578251825591602001919060010190611a75565b5b509050611a9e9190611aa2565b5090565b5b80821115611abb576000816000905550600101611aa3565b5090565b5b80821115611ad8576000816000905550600101611ac0565b5090565b6000611aef611aea846124ec565b6124c7565b90508083825260208201905082856020860282011115611b1257611b116127df565b5b60005b85811015611b425781611b288882611bfe565b845260208401935060208301925050600181019050611b15565b5050509392505050565b6000611b5f611b5a84612518565b6124c7565b90508083825260208201905082856020860282011115611b8257611b816127df565b5b60005b85811015611bb25781611b988882611c84565b845260208401935060208301925050600181019050611b85565b5050509392505050565b6000611bcf611bca84612544565b6124c7565b905082815260208101848484011115611beb57611bea6127e4565b5b611bf6848285612655565b509392505050565b600081359050611c0d816129de565b92915050565b600082601f830112611c2857611c276127d0565b5b8135611c38848260208601611adc565b91505092915050565b600082601f830112611c5657611c556127d0565b5b8135611c66848260208601611b4c565b91505092915050565b600081359050611c7e816129f5565b92915050565b600081359050611c9381612a0c565b92915050565b600082601f830112611cae57611cad6127d0565b5b8135611cbe848260208601611bbc565b91505092915050565b60006101e08284031215611cde57611cdd6127d5565b5b611ce96101e06124c7565b90506000611cf984828501611c84565b6000830152506020611d0d84828501611eef565b602083015250604082013567ffffffffffffffff811115611d3157611d306127da565b5b611d3d84828501611c99565b6040830152506060611d5184828501611eef565b606083015250608082013567ffffffffffffffff811115611d7557611d746127da565b5b611d8184828501611c13565b60808301525060a082013567ffffffffffffffff811115611da557611da46127da565b5b611db184828501611c13565b60a08301525060c082013567ffffffffffffffff811115611dd557611dd46127da565b5b611de184828501611c41565b60c08301525060e082013567ffffffffffffffff811115611e0557611e046127da565b5b611e1184828501611c41565b60e083015250610100611e2684828501611c84565b6101008301525061012082013567ffffffffffffffff811115611e4c57611e4b6127da565b5b611e5884828501611c13565b6101208301525061014082013567ffffffffffffffff811115611e7e57611e7d6127da565b5b611e8a84828501611c41565b61014083015250610160611ea084828501611c84565b61016083015250610180611eb684828501611c84565b610180830152506101a0611ecc84828501611bfe565b6101a0830152506101c0611ee284828501611c6f565b6101c08301525092915050565b600081359050611efe81612a23565b92915050565b600060208284031215611f1a57611f196127ee565b5b6000611f2884828501611bfe565b91505092915050565b600060208284031215611f4757611f466127ee565b5b6000611f5584828501611c84565b91505092915050565b60008060408385031215611f7557611f746127ee565b5b6000611f8385828601611c84565b925050602083013567ffffffffffffffff811115611fa457611fa36127e9565b5b611fb085828601611c13565b9150509250929050565b60008060408385031215611fd157611fd06127ee565b5b6000611fdf85828601611c84565b925050602083013567ffffffffffffffff81111561200057611fff6127e9565b5b61200c85828601611c41565b9150509250929050565b6000806040838503121561202d5761202c6127ee565b5b600061203b85828601611c84565b925050602083013567ffffffffffffffff81111561205c5761205b6127e9565b5b61206885828601611cc7565b9150509250929050565b600061207e83836120a2565b60208301905092915050565b6000612096838361218b565b60208301905092915050565b6120ab81612603565b82525050565b6120ba81612603565b82525050565b60006120cb82612595565b6120d581856125d0565b93506120e083612575565b8060005b838110156121115781516120f88882612072565b9750612103836125b6565b9250506001810190506120e4565b5085935050505092915050565b6000612129826125a0565b61213381856125e1565b935061213e83612585565b8060005b8381101561216f578151612156888261208a565b9750612161836125c3565b925050600181019050612142565b5085935050505092915050565b61218581612615565b82525050565b61219481612621565b82525050565b6121a381612621565b82525050565b60006121b4826125ab565b6121be81856125f2565b93506121ce818560208601612664565b6121d7816127f3565b840191505092915050565b60006121ef6034836125f2565b91506121fa82612804565b604082019050919050565b60006122126024836125f2565b915061221d82612853565b604082019050919050565b60006122356027836125f2565b9150612240826128a2565b604082019050919050565b60006122586024836125f2565b9150612263826128f1565b604082019050919050565b600061227b6024836125f2565b915061228682612940565b604082019050919050565b600061229e602c836125f2565b91506122a98261298f565b604082019050919050565b6122bd8161264b565b82525050565b60006020820190506122d860008301846120b1565b92915050565b600060208201905081810360008301526122f881846120c0565b905092915050565b6000602082019050818103600083015261231a818461211e565b905092915050565b6000602082019050612337600083018461217c565b92915050565b6000602082019050612352600083018461219a565b92915050565b60006101208201905061236e600083018c61219a565b61237b602083018b6122b4565b818103604083015261238d818a6121a9565b905061239c60608301896122b4565b6123a9608083018861219a565b6123b660a083018761219a565b6123c360c083018661219a565b6123d060e08301856120b1565b6123de61010083018461217c565b9a9950505050505050505050565b60006020820190508181036000830152612405816121e2565b9050919050565b6000602082019050818103600083015261242581612205565b9050919050565b6000602082019050818103600083015261244581612228565b9050919050565b600060208201905081810360008301526124658161224b565b9050919050565b600060208201905081810360008301526124858161226e565b9050919050565b600060208201905081810360008301526124a581612291565b9050919050565b60006020820190506124c160008301846122b4565b92915050565b60006124d16124e2565b90506124dd82826126c9565b919050565b6000604051905090565b600067ffffffffffffffff821115612507576125066127a1565b5b602082029050602081019050919050565b600067ffffffffffffffff821115612533576125326127a1565b5b602082029050602081019050919050565b600067ffffffffffffffff82111561255f5761255e6127a1565b5b612568826127f3565b9050602081019050919050565b6000819050602082019050919050565b6000819050602082019050919050565b600081519050919050565b600081519050919050565b600081519050919050565b6000602082019050919050565b6000602082019050919050565b600082825260208201905092915050565b600082825260208201905092915050565b600082825260208201905092915050565b600061260e8261262b565b9050919050565b60008115159050919050565b6000819050919050565b600073ffffffffffffffffffffffffffffffffffffffff82169050919050565b6000819050919050565b82818337600083830152505050565b60005b83811015612682578082015181840152602081019050612667565b83811115612691576000848401525b50505050565b600060028204905060018216806126af57607f821691505b602082108114156126c3576126c2612772565b5b50919050565b6126d2826127f3565b810181811067ffffffffffffffff821117156126f1576126f06127a1565b5b80604052505050565b60006127058261264b565b91507fffffffffffffffffffffffffffffffffffffffffffffffffffffffffffffffff82141561273857612737612743565b5b600182019050919050565b7f4e487b7100000000000000000000000000000000000000000000000000000000600052601160045260246000fd5b7f4e487b7100000000000000000000000000000000000000000000000000000000600052602260045260246000fd5b7f4e487b7100000000000000000000000000000000000000000000000000000000600052604160045260246000fd5b600080fd5b600080fd5b600080fd5b600080fd5b600080fd5b600080fd5b600080fd5b6000601f19601f8301169050919050565b7f4572726f723a206d73672e73656e646572206d757374206265206d656d65466160008201527f63746f727920746f20637265617465206d656d65000000000000000000000000602082015250565b7f4572726f723a206f6e6c7920666163746f72795369676e65722063616e20646560008201527f6c65746500000000000000000000000000000000000000000000000000000000602082015250565b7f4572726f723a206d73672e73656e646572206d75737420626520666163746f7260008201527f795369676e657200000000000000000000000000000000000000000000000000602082015250565b7f4572726f723a206d73672e73656e646572206d75737420626520706f7374536960008201527f676e657200000000000000000000000000000000000000000000000000000000602082015250565b7f4572726f723a206d73672e73656e646572206d757374206265206c696b65536960008201527f676e657200000000000000000000000000000000000000000000000000000000602082015250565b7f4572726f723a206f6e6c7920666163746f72795369676e65722063616e20696e60008201527f63726561736520436f756e740000000000000000000000000000000000000000602082015250565b6129e781612603565b81146129f257600080fd5b50565b6129fe81612615565b8114612a0957600080fd5b50565b612a1581612621565b8114612a2057600080fd5b50565b612a2c8161264b565b8114612a3757600080fd5b5056fea2646970667358221220a604127aedc2b1986d42a8476ed0e95e81e860e45d0c7f10d37bf9e98d58d2e264736f6c63430008070033",
  "immutableReferences": {},
  "source": "// SPDX-License-Identifier: MIT\n\npragma solidity >=0.8.0 <0.9.0;\n\ncontract MemeStorage {\n  address public factorySigner;\n  address public interfaceSigner;\n  address public postSigner;\n  address public likeSigner;\n\n  uint public memeCount = 0;\n  bytes32 constant zeroBytes = keccak256(abi.encodePacked(uint(0)));\n\n\n  // mapping of Memes\n  mapping(bytes32 => Meme) public memes; // memeId to meme map\n\n  // Meme structure\n  struct Meme {\n    bytes32 id; // number in all of timeline\n    uint time; // time of post\n    string text; // text of Meme\n    uint boost; // boost value\n    address[] likers; // list of addresses of likers\n    address[] unlikers; // list of addresses that have unliked\n    bytes32[] reposts; // list of ids that have reposted\n    bytes32[] quotePosts; // list of ids that have quotePosted\n    bytes32 repostId;// repost id\n    address[] tags; // list of id's of tagged\n    bytes32[] responses; // collection of id's of responses\n    bytes32 parentId; // memeId of parent (can be self)\n    bytes32 originId; // memeId of origin (can be self)\n    address author; // address of author\n    bool isVisible; // is visible\n  }\n\n  event FactorySignerChanged(address indexed from, address indexed to);\n  event InterfaceSignerChanged(address indexed from, address indexed to);\n  event PostSignerChanged(address indexed from, address indexed to);\n  event LikeSignerChanged(address indexed from, address indexed to);\n  event RepostSignerChanged(address indexed from, address indexed to);\n\n  constructor() public {\n    factorySigner = msg.sender;\n    interfaceSigner = msg.sender;\n    postSigner = msg.sender;\n    likeSigner = msg.sender;\n  }\n\n  // Factory-Specific setters\n  function setMeme(\n    bytes32 _memeId,\n    Meme memory _meme\n  ) public {\n    require(\n      msg.sender==factorySigner,\n      'Error: msg.sender must be memeFactory to create meme');\n    memes[_memeId] = _meme;\n  }\n  function deleteMeme(bytes32 _memeId) public {\n    require(\n      msg.sender==factorySigner,\n      'Error: only factorySigner can delete');\n    // create empty Meme instance\n    delete memes[_memeId];\n  }\n  function increaseMemeCount() public {\n    require(\n      msg.sender==factorySigner,\n      'Error: only factorySigner can increase Count'\n    );\n    memeCount++;\n  }\n\n  function setResponses(\n    bytes32 _memeId,\n    bytes32[] memory _responses\n  ) public {\n    require(\n      msg.sender==factorySigner,\n      'Error: msg.sender must be factorySigner');\n    memes[_memeId].responses = _responses;\n  }\n\n  function setLikers(\n    bytes32 _memeId,\n    address[] memory _likers\n  ) public {\n    require(\n      msg.sender==likeSigner,\n      'Error: msg.sender must be likeSigner');\n    memes[_memeId].likers = _likers;\n  }\n  function setUnlikers(\n    bytes32 _memeId,\n    address[] memory _unlikers\n  ) public {\n    require(\n      msg.sender==likeSigner,\n      'Error: msg.sender must be likeSigner');\n    memes[_memeId].unlikers = _unlikers;\n  }\n\n  // getter functions for Meme\n  function getMemeCount() public view returns(uint) {\n    return memeCount;\n  }\n  function getLikeCount(bytes32 _memeId) public view returns(uint) {\n    return memes[_memeId].likers.length;\n  }\n  function getLikers(bytes32 _memeId) public view returns(address[] memory) {\n    return memes[_memeId].likers;\n  }\n  function getUnlikers(bytes32 _memeId) public view returns(address[] memory) {\n    return memes[_memeId].unlikers;\n  }\n  function getRepostCount(bytes32 _memeId) public view returns(uint) {\n    return memes[_memeId].reposts.length;\n  }\n  function getReposts(bytes32 _memeId) public view returns(bytes32[] memory) {\n    return memes[_memeId].reposts;\n  }\n  function getQuotePostCount(bytes32 _memeId) public view returns(uint) {\n    return memes[_memeId].quotePosts.length;\n  }\n  function getQuotePosts(bytes32 _memeId) public view returns(bytes32[] memory) {\n    return memes[_memeId].quotePosts;\n  }\n  function getTags(bytes32 _memeId) public view returns(address[] memory) {\n    return memes[_memeId].tags;\n  }\n  function getResponseCount(bytes32 _memeId) public view returns(uint) {\n    return memes[_memeId].responses.length;\n  }\n  function getResponses(bytes32 _memeId) public view returns(bytes32[] memory) {\n    return memes[_memeId].responses;\n  }\n  function getParentId(bytes32 _memeId) public view returns(bytes32) {\n    return memes[_memeId].parentId;\n  }\n  function getOriginId(bytes32 _memeId) public view returns(bytes32) {\n    return memes[_memeId].originId;\n  }\n  function getAuthor(bytes32 _memeId) public view returns(address) {\n    return memes[_memeId].author;\n  }\n  function getVisibility(bytes32 _memeId) public view returns(bool) {\n    return memes[_memeId].isVisible;\n  }\n\n  // set caller role to User upon deployment\n  function passFactorySigner(address _memeFactory) public returns (bool) {\n    require(\n      msg.sender == factorySigner,\n      'Error: msg.sender must be factorySigner');\n\n    factorySigner = _memeFactory;\n    emit FactorySignerChanged(msg.sender, factorySigner);\n    return true;\n  }\n  function passInterfaceSigner(address _userInterface) public returns (bool) {\n    require(\n      msg.sender == interfaceSigner,\n      'Error: msg.sender must be factorySigner');\n\n    interfaceSigner = _userInterface;\n    emit InterfaceSignerChanged(msg.sender, interfaceSigner);\n    return true;\n  }\n  function passPostSigner(address _post) public returns (bool) {\n    require(\n      msg.sender == postSigner,\n      'Error: msg.sender must be postSigner');\n\n    postSigner = _post;\n    emit PostSignerChanged(msg.sender, postSigner);\n    return true;\n  }\n  function passLikeSigner(address _like) public returns (bool) {\n    require(\n      msg.sender == likeSigner,\n      'Error: msg.sender must be likeSigner');\n\n    likeSigner = _like;\n    emit LikeSignerChanged(msg.sender, likeSigner);\n    return true;\n  }\n}\n",
  "sourcePath": "/Users/jaiq/Documents/000 BLOCKCHAIN/ETH/uMe/src/contracts/MemeStorage.sol",
  "compiler": {
    "name": "solc",
    "version": "0.8.7+commit.e28d00a7.Emscripten.clang"
  },
  "schemaVersion": "3.4.3",
  "updatedAt": "2021-08-26T00:43:06.328Z",
  "networkType": "ethereum",
  "devdoc": {
    "kind": "dev",
    "methods": {},
    "version": 1
  },
  "userdoc": {
    "kind": "user",
    "methods": {},
    "version": 1
  }
}