{
  "contractName": "MemeFactory",
  "abi": [
    {
      "inputs": [
        {
          "internalType": "contract UME",
          "name": "_umeToken",
          "type": "address"
        },
        {
          "internalType": "contract MemeStorage",
          "name": "_memeStorage",
          "type": "address"
        },
        {
          "internalType": "contract UserStorage",
          "name": "_userStorage",
          "type": "address"
        }
      ],
      "stateMutability": "nonpayable",
      "type": "constructor"
    },
    {
      "anonymous": false,
      "inputs": [
        {
          "indexed": false,
          "internalType": "bytes32",
          "name": "memeId",
          "type": "bytes32"
        },
        {
          "indexed": false,
          "internalType": "uint256",
          "name": "time",
          "type": "uint256"
        },
        {
          "indexed": true,
          "internalType": "address",
          "name": "account",
          "type": "address"
        }
      ],
      "name": "MemeCreated",
      "type": "event"
    },
    {
      "anonymous": false,
      "inputs": [
        {
          "indexed": false,
          "internalType": "bytes32",
          "name": "memeId",
          "type": "bytes32"
        },
        {
          "indexed": false,
          "internalType": "uint256",
          "name": "time",
          "type": "uint256"
        },
        {
          "indexed": true,
          "internalType": "address",
          "name": "account",
          "type": "address"
        }
      ],
      "name": "MemeDeleted",
      "type": "event"
    },
    {
      "anonymous": false,
      "inputs": [
        {
          "indexed": true,
          "internalType": "address",
          "name": "from",
          "type": "address"
        },
        {
          "indexed": true,
          "internalType": "address",
          "name": "to",
          "type": "address"
        }
      ],
      "name": "PostSignerChanged",
      "type": "event"
    },
    {
      "anonymous": false,
      "inputs": [
        {
          "indexed": false,
          "internalType": "address",
          "name": "from",
          "type": "address"
        },
        {
          "indexed": false,
          "internalType": "address",
          "name": "to",
          "type": "address"
        }
      ],
      "name": "Tagged",
      "type": "event"
    },
    {
      "inputs": [],
      "name": "postSigner",
      "outputs": [
        {
          "internalType": "address",
          "name": "",
          "type": "address"
        }
      ],
      "stateMutability": "view",
      "type": "function",
      "constant": true
    },
    {
      "inputs": [
        {
          "internalType": "address",
          "name": "_account",
          "type": "address"
        },
        {
          "internalType": "string",
          "name": "_memeText",
          "type": "string"
        },
        {
          "internalType": "address[]",
          "name": "_tags",
          "type": "address[]"
        },
        {
          "internalType": "bytes32",
          "name": "_parentId",
          "type": "bytes32"
        },
        {
          "internalType": "bytes32",
          "name": "_originId",
          "type": "bytes32"
        },
        {
          "internalType": "bytes32",
          "name": "_repostId",
          "type": "bytes32"
        }
      ],
      "name": "newMeme",
      "outputs": [],
      "stateMutability": "nonpayable",
      "type": "function"
    },
    {
      "inputs": [
        {
          "internalType": "bytes32",
          "name": "_memeId",
          "type": "bytes32"
        }
      ],
      "name": "deleteMeme",
      "outputs": [],
      "stateMutability": "nonpayable",
      "type": "function"
    },
    {
      "inputs": [
        {
          "internalType": "bytes",
          "name": "source",
          "type": "bytes"
        }
      ],
      "name": "_bytesToBytes32",
      "outputs": [
        {
          "internalType": "bytes32",
          "name": "result",
          "type": "bytes32"
        }
      ],
      "stateMutability": "pure",
      "type": "function",
      "constant": true
    },
    {
      "inputs": [
        {
          "internalType": "address",
          "name": "_post",
          "type": "address"
        }
      ],
      "name": "passPostSigner",
      "outputs": [
        {
          "internalType": "bool",
          "name": "",
          "type": "bool"
        }
      ],
      "stateMutability": "nonpayable",
      "type": "function"
    }
  ],
  "bytecode": "0x60806040523480156200001157600080fd5b5060405162003c0538038062003c0583398181016040528101906200003791906200024b565b826000806101000a81548173ffffffffffffffffffffffffffffffffffffffff021916908373ffffffffffffffffffffffffffffffffffffffff16021790555081600160006101000a81548173ffffffffffffffffffffffffffffffffffffffff021916908373ffffffffffffffffffffffffffffffffffffffff16021790555080600260006101000a81548173ffffffffffffffffffffffffffffffffffffffff021916908373ffffffffffffffffffffffffffffffffffffffff16021790555033600460006101000a81548173ffffffffffffffffffffffffffffffffffffffff021916908373ffffffffffffffffffffffffffffffffffffffff160217905550505050620002a7565b600080fd5b600073ffffffffffffffffffffffffffffffffffffffff82169050919050565b6000620001758262000148565b9050919050565b6000620001898262000168565b9050919050565b6200019b816200017c565b8114620001a757600080fd5b50565b600081519050620001bb8162000190565b92915050565b6000620001ce8262000168565b9050919050565b620001e081620001c1565b8114620001ec57600080fd5b50565b6000815190506200020081620001d5565b92915050565b6000620002138262000168565b9050919050565b620002258162000206565b81146200023157600080fd5b50565b60008151905062000245816200021a565b92915050565b60008060006060848603121562000267576200026662000143565b5b60006200027786828701620001aa565b93505060206200028a86828701620001ef565b92505060406200029d8682870162000234565b9150509250925092565b61394e80620002b76000396000f3fe608060405234801561001057600080fd5b50600436106100575760003560e01c80631867b9371461005c5780637527e6241461008c5780638c98876f146100a8578063a6838c7b146100c6578063aaf837c5146100f6575b600080fd5b610076600480360381019061007191906129c3565b610112565b6040516100839190612a25565b60405180910390f35b6100a660048036038101906100a19190612c33565b610135565b005b6100b0611344565b6040516100bd9190612d07565b60405180910390f35b6100e060048036038101906100db9190612d22565b61136a565b6040516100ed9190612d6a565b60405180910390f35b610110600480360381019061010b9190612d85565b6114c2565b005b60008082511415610128576000801b9050610130565b602082015190505b919050565b600460009054906101000a900473ffffffffffffffffffffffffffffffffffffffff1673ffffffffffffffffffffffffffffffffffffffff163373ffffffffffffffffffffffffffffffffffffffff16146101c5576040517f08c379a00000000000000000000000000000000000000000000000000000000081526004016101bc90612e35565b60405180910390fd5b600160009054906101000a900473ffffffffffffffffffffffffffffffffffffffff1673ffffffffffffffffffffffffffffffffffffffff1663f8f3d0376040518163ffffffff1660e01b8152600401600060405180830381600087803b15801561022f57600080fd5b505af1158015610243573d6000803e3d6000fd5b505050506000600160009054906101000a900473ffffffffffffffffffffffffffffffffffffffff1673ffffffffffffffffffffffffffffffffffffffff16637b2124d26040518163ffffffff1660e01b815260040160206040518083038186803b1580156102b157600080fd5b505afa1580156102c5573d6000803e3d6000fd5b505050506040513d601f19601f820116820180604052508101906102e99190612e8b565b6040516020016102f99190612ed9565b60405160208183030381529060405280519060200120905060035484141561031f578093505b60035483141561032d578092505b600160009054906101000a900473ffffffffffffffffffffffffffffffffffffffff1673ffffffffffffffffffffffffffffffffffffffff1663ddf60c9382604051806101e001604052808581526020014281526020018a815260200160008152602001600067ffffffffffffffff8111156103ac576103ab612898565b5b6040519080825280602002602001820160405280156103da5781602001602082028036833780820191505090505b508152602001600067ffffffffffffffff8111156103fb576103fa612898565b5b6040519080825280602002602001820160405280156104295781602001602082028036833780820191505090505b508152602001600067ffffffffffffffff81111561044a57610449612898565b5b6040519080825280602002602001820160405280156104785781602001602082028036833780820191505090505b508152602001600067ffffffffffffffff81111561049957610498612898565b5b6040519080825280602002602001820160405280156104c75781602001602082028036833780820191505090505b508152602001868152602001898152602001600067ffffffffffffffff8111156104f4576104f3612898565b5b6040519080825280602002602001820160405280156105225781602001602082028036833780820191505090505b5081526020018881526020018781526020018b73ffffffffffffffffffffffffffffffffffffffff168152602001600115158152506040518363ffffffff1660e01b8152600401610574929190613283565b600060405180830381600087803b15801561058e57600080fd5b505af11580156105a2573d6000803e3d6000fd5b505050508381141580156105b557508284145b1561086e578673ffffffffffffffffffffffffffffffffffffffff16600160009054906101000a900473ffffffffffffffffffffffffffffffffffffffff1673ffffffffffffffffffffffffffffffffffffffff1663691d1c28866040518263ffffffff1660e01b815260040161062c9190612a25565b60206040518083038186803b15801561064457600080fd5b505afa158015610658573d6000803e3d6000fd5b505050506040513d601f19601f8201168201806040525081019061067c91906132c8565b73ffffffffffffffffffffffffffffffffffffffff16146107cf5760008054906101000a900473ffffffffffffffffffffffffffffffffffffffff1673ffffffffffffffffffffffffffffffffffffffff1663bc83419588600160009054906101000a900473ffffffffffffffffffffffffffffffffffffffff1673ffffffffffffffffffffffffffffffffffffffff1663691d1c28886040518263ffffffff1660e01b815260040161072f9190612a25565b60206040518083038186803b15801561074757600080fd5b505afa15801561075b573d6000803e3d6000fd5b505050506040513d601f19601f8201168201806040525081019061077f91906132c8565b6040518363ffffffff1660e01b815260040161079c9291906132f5565b600060405180830381600087803b1580156107b657600080fd5b505af11580156107ca573d6000803e3d6000fd5b505050505b6107d98185611ca2565b600160009054906101000a900473ffffffffffffffffffffffffffffffffffffffff1673ffffffffffffffffffffffffffffffffffffffff166370d2c46b8560046040518363ffffffff1660e01b8152600401610837929190613363565b600060405180830381600087803b15801561085157600080fd5b505af1158015610865573d6000803e3d6000fd5b50505050610dd9565b83811415801561087e5750828414155b15610dd8578673ffffffffffffffffffffffffffffffffffffffff16600160009054906101000a900473ffffffffffffffffffffffffffffffffffffffff1673ffffffffffffffffffffffffffffffffffffffff1663691d1c28866040518263ffffffff1660e01b81526004016108f59190612a25565b60206040518083038186803b15801561090d57600080fd5b505afa158015610921573d6000803e3d6000fd5b505050506040513d601f19601f8201168201806040525081019061094591906132c8565b73ffffffffffffffffffffffffffffffffffffffff1614610a985760008054906101000a900473ffffffffffffffffffffffffffffffffffffffff1673ffffffffffffffffffffffffffffffffffffffff1663bc83419588600160009054906101000a900473ffffffffffffffffffffffffffffffffffffffff1673ffffffffffffffffffffffffffffffffffffffff1663691d1c28886040518263ffffffff1660e01b81526004016109f89190612a25565b60206040518083038186803b158015610a1057600080fd5b505afa158015610a24573d6000803e3d6000fd5b505050506040513d601f19601f82011682018060405250810190610a4891906132c8565b6040518363ffffffff1660e01b8152600401610a659291906132f5565b600060405180830381600087803b158015610a7f57600080fd5b505af1158015610a93573d6000803e3d6000fd5b505050505b600160009054906101000a900473ffffffffffffffffffffffffffffffffffffffff1673ffffffffffffffffffffffffffffffffffffffff166370d2c46b8560046040518363ffffffff1660e01b8152600401610af6929190613363565b600060405180830381600087803b158015610b1057600080fd5b505af1158015610b24573d6000803e3d6000fd5b505050508673ffffffffffffffffffffffffffffffffffffffff16600160009054906101000a900473ffffffffffffffffffffffffffffffffffffffff1673ffffffffffffffffffffffffffffffffffffffff1663691d1c28856040518263ffffffff1660e01b8152600401610b9a9190612a25565b60206040518083038186803b158015610bb257600080fd5b505afa158015610bc6573d6000803e3d6000fd5b505050506040513d601f19601f82011682018060405250810190610bea91906132c8565b73ffffffffffffffffffffffffffffffffffffffff1614610d3d5760008054906101000a900473ffffffffffffffffffffffffffffffffffffffff1673ffffffffffffffffffffffffffffffffffffffff1663e981dc8f88600160009054906101000a900473ffffffffffffffffffffffffffffffffffffffff1673ffffffffffffffffffffffffffffffffffffffff1663691d1c28876040518263ffffffff1660e01b8152600401610c9d9190612a25565b60206040518083038186803b158015610cb557600080fd5b505afa158015610cc9573d6000803e3d6000fd5b505050506040513d601f19601f82011682018060405250810190610ced91906132c8565b6040518363ffffffff1660e01b8152600401610d0a9291906132f5565b600060405180830381600087803b158015610d2457600080fd5b505af1158015610d38573d6000803e3d6000fd5b505050505b610d478185611ca2565b600160009054906101000a900473ffffffffffffffffffffffffffffffffffffffff1673ffffffffffffffffffffffffffffffffffffffff166370d2c46b8460046040518363ffffffff1660e01b8152600401610da5929190613363565b600060405180830381600087803b158015610dbf57600080fd5b505af1158015610dd3573d6000803e3d6000fd5b505050505b5b60005b8551811015610f9557858181518110610df857610df761338c565b5b602002602001015173ffffffffffffffffffffffffffffffffffffffff168873ffffffffffffffffffffffffffffffffffffffff1614158015610e825750600073ffffffffffffffffffffffffffffffffffffffff16868281518110610e6157610e6061338c565b5b602002602001015173ffffffffffffffffffffffffffffffffffffffff1614155b15610f825760008054906101000a900473ffffffffffffffffffffffffffffffffffffffff1673ffffffffffffffffffffffffffffffffffffffff16632cc67a7c89888481518110610ed757610ed661338c565b5b60200260200101516040518363ffffffff1660e01b8152600401610efc9291906132f5565b600060405180830381600087803b158015610f1657600080fd5b505af1158015610f2a573d6000803e3d6000fd5b505050507f069de1c7afdaba4b7727994f755c1584584ca12fdedef1eded797865d094c0e288878381518110610f6357610f6261338c565b5b6020026020010151604051610f799291906132f5565b60405180910390a15b8080610f8d906133ea565b915050610ddc565b506003548214611252576000865114156110ff576000600160009054906101000a900473ffffffffffffffffffffffffffffffffffffffff1673ffffffffffffffffffffffffffffffffffffffff166372d9fe5d846040518263ffffffff1660e01b81526004016110069190612a25565b60006040518083038186803b15801561101e57600080fd5b505afa158015611032573d6000803e3d6000fd5b505050506040513d6000823e3d601f19601f8201168201806040525081019061105b919061350b565b905061106982888584611ed1565b600160009054906101000a900473ffffffffffffffffffffffffffffffffffffffff1673ffffffffffffffffffffffffffffffffffffffff166370d2c46b8360046040518363ffffffff1660e01b81526004016110c7929190613363565b600060405180830381600087803b1580156110e157600080fd5b505af11580156110f5573d6000803e3d6000fd5b5050505050611251565b6000600160009054906101000a900473ffffffffffffffffffffffffffffffffffffffff1673ffffffffffffffffffffffffffffffffffffffff166369171f5c846040518263ffffffff1660e01b815260040161115c9190612a25565b60006040518083038186803b15801561117457600080fd5b505afa158015611188573d6000803e3d6000fd5b505050506040513d6000823e3d601f19601f820116820180604052508101906111b1919061350b565b90506111bf82888584611ed1565b600160009054906101000a900473ffffffffffffffffffffffffffffffffffffffff1673ffffffffffffffffffffffffffffffffffffffff166370d2c46b8360046040518363ffffffff1660e01b815260040161121d929190613363565b600060405180830381600087803b15801561123757600080fd5b505af115801561124b573d6000803e3d6000fd5b50505050505b5b61125c87826120ec565b600260009054906101000a900473ffffffffffffffffffffffffffffffffffffffff1673ffffffffffffffffffffffffffffffffffffffff1663e07dbb1082896040518363ffffffff1660e01b81526004016112b9929190613554565b600060405180830381600087803b1580156112d357600080fd5b505af11580156112e7573d6000803e3d6000fd5b505050508673ffffffffffffffffffffffffffffffffffffffff167f1838922b4eb20492c478bbdc44a1f4e1cb49bc4702a0af8f4448a412bb5769e4824260405161133392919061358c565b60405180910390a250505050505050565b600460009054906101000a900473ffffffffffffffffffffffffffffffffffffffff1681565b6000600460009054906101000a900473ffffffffffffffffffffffffffffffffffffffff1673ffffffffffffffffffffffffffffffffffffffff163373ffffffffffffffffffffffffffffffffffffffff16146113fc576040517f08c379a00000000000000000000000000000000000000000000000000000000081526004016113f390613627565b60405180910390fd5b81600460006101000a81548173ffffffffffffffffffffffffffffffffffffffff021916908373ffffffffffffffffffffffffffffffffffffffff160217905550600460009054906101000a900473ffffffffffffffffffffffffffffffffffffffff1673ffffffffffffffffffffffffffffffffffffffff163373ffffffffffffffffffffffffffffffffffffffff167f76ce921e20c471c95deae34d20d53706ec4378ecab394e517f73aef912ae6cdd60405160405180910390a360019050919050565b3373ffffffffffffffffffffffffffffffffffffffff16600460009054906101000a900473ffffffffffffffffffffffffffffffffffffffff1673ffffffffffffffffffffffffffffffffffffffff1614611552576040517f08c379a0000000000000000000000000000000000000000000000000000000008152600401611549906136b9565b60405180910390fd5b6000600160009054906101000a900473ffffffffffffffffffffffffffffffffffffffff1673ffffffffffffffffffffffffffffffffffffffff16637071af84836040518263ffffffff1660e01b81526004016115af9190612a25565b60206040518083038186803b1580156115c757600080fd5b505afa1580156115db573d6000803e3d6000fd5b505050506040513d601f19601f820116820180604052508101906115ff91906136d9565b90506000600160009054906101000a900473ffffffffffffffffffffffffffffffffffffffff1673ffffffffffffffffffffffffffffffffffffffff1663e2975f09846040518263ffffffff1660e01b815260040161165e9190612a25565b60206040518083038186803b15801561167657600080fd5b505afa15801561168a573d6000803e3d6000fd5b505050506040513d601f19601f820116820180604052508101906116ae91906136d9565b90506000600160009054906101000a900473ffffffffffffffffffffffffffffffffffffffff1673ffffffffffffffffffffffffffffffffffffffff1663f64458bd836040518263ffffffff1660e01b815260040161170d9190612a25565b60006040518083038186803b15801561172557600080fd5b505afa158015611739573d6000803e3d6000fd5b505050506040513d6000823e3d601f19601f820116820180604052508101906117629190613776565b9050600160009054906101000a900473ffffffffffffffffffffffffffffffffffffffff1673ffffffffffffffffffffffffffffffffffffffff1663691d1c28856040518263ffffffff1660e01b81526004016117bf9190612a25565b60206040518083038186803b1580156117d757600080fd5b505afa1580156117eb573d6000803e3d6000fd5b505050506040513d601f19601f8201168201806040525081019061180f91906132c8565b73ffffffffffffffffffffffffffffffffffffffff167f31a29f3d549b51b33c10acca465864df60975bf964406b8289c210ecea130faa854260405161185692919061358c565b60405180910390a26000600160009054906101000a900473ffffffffffffffffffffffffffffffffffffffff1673ffffffffffffffffffffffffffffffffffffffff1663fae60664856040518263ffffffff1660e01b81526004016118bb9190612a25565b60206040518083038186803b1580156118d357600080fd5b505afa1580156118e7573d6000803e3d6000fd5b505050506040513d601f19601f8201168201806040525081019061190b9190612e8b565b11156119cc576119cb8484600160009054906101000a900473ffffffffffffffffffffffffffffffffffffffff1673ffffffffffffffffffffffffffffffffffffffff1663d4b8df22876040518263ffffffff1660e01b81526004016119719190612a25565b60006040518083038186803b15801561198957600080fd5b505afa15801561199d573d6000803e3d6000fd5b505050506040513d6000823e3d601f19601f820116820180604052508101906119c6919061350b565b61230e565b5b6000600160009054906101000a900473ffffffffffffffffffffffffffffffffffffffff1673ffffffffffffffffffffffffffffffffffffffff1663f8f1be22846040518263ffffffff1660e01b8152600401611a299190612a25565b60206040518083038186803b158015611a4157600080fd5b505afa158015611a55573d6000803e3d6000fd5b505050506040513d601f19601f82011682018060405250810190611a799190612e8b565b1115611c0f57600081511415611b4a57611b4584836000600160009054906101000a900473ffffffffffffffffffffffffffffffffffffffff1673ffffffffffffffffffffffffffffffffffffffff166372d9fe5d876040518263ffffffff1660e01b8152600401611aeb9190612a25565b60006040518083038186803b158015611b0357600080fd5b505afa158015611b17573d6000803e3d6000fd5b505050506040513d6000823e3d601f19601f82011682018060405250810190611b40919061350b565b612480565b611c0e565b611c0d8483611b5884610112565b600160009054906101000a900473ffffffffffffffffffffffffffffffffffffffff1673ffffffffffffffffffffffffffffffffffffffff166369171f5c876040518263ffffffff1660e01b8152600401611bb39190612a25565b60006040518083038186803b158015611bcb57600080fd5b505afa158015611bdf573d6000803e3d6000fd5b505050506040513d6000823e3d601f19601f82011682018060405250810190611c08919061350b565b612480565b5b5b600160009054906101000a900473ffffffffffffffffffffffffffffffffffffffff1673ffffffffffffffffffffffffffffffffffffffff1663aaf837c5856040518263ffffffff1660e01b8152600401611c6a9190612a25565b600060405180830381600087803b158015611c8457600080fd5b505af1158015611c98573d6000803e3d6000fd5b5050505050505050565b6000600160009054906101000a900473ffffffffffffffffffffffffffffffffffffffff1673ffffffffffffffffffffffffffffffffffffffff1663d4b8df22836040518263ffffffff1660e01b8152600401611cff9190612a25565b60006040518083038186803b158015611d1757600080fd5b505afa158015611d2b573d6000803e3d6000fd5b505050506040513d6000823e3d601f19601f82011682018060405250810190611d54919061350b565b90506000815190506000600182611d6b91906137bf565b67ffffffffffffffff811115611d8457611d83612898565b5b604051908082528060200260200182016040528015611db25781602001602082028036833780820191505090505b50905060005b82811015611e0d57838181518110611dd357611dd261338c565b5b6020026020010151828281518110611dee57611ded61338c565b5b6020026020010181815250508080611e05906133ea565b915050611db8565b50848160018351611e1e9190613815565b81518110611e2f57611e2e61338c565b5b602002602001018181525050600160009054906101000a900473ffffffffffffffffffffffffffffffffffffffff1673ffffffffffffffffffffffffffffffffffffffff1663bacd910c85836040518363ffffffff1660e01b8152600401611e989291906138b8565b600060405180830381600087803b158015611eb257600080fd5b505af1158015611ec6573d6000803e3d6000fd5b505050505050505050565b6000815190506000600182611ee691906137bf565b67ffffffffffffffff811115611eff57611efe612898565b5b604051908082528060200260200182016040528015611f2d5781602001602082028036833780820191505090505b50905060005b82811015611f8857838181518110611f4e57611f4d61338c565b5b6020026020010151828281518110611f6957611f6861338c565b5b6020026020010181815250508080611f80906133ea565b915050611f33565b50858160018351611f999190613815565b81518110611faa57611fa961338c565b5b60200260200101818152505060008551141561205457600160009054906101000a900473ffffffffffffffffffffffffffffffffffffffff1673ffffffffffffffffffffffffffffffffffffffff166350de13f985836040518363ffffffff1660e01b815260040161201d9291906138b8565b600060405180830381600087803b15801561203757600080fd5b505af115801561204b573d6000803e3d6000fd5b505050506120e4565b600160009054906101000a900473ffffffffffffffffffffffffffffffffffffffff1673ffffffffffffffffffffffffffffffffffffffff1663bd0a4e9e85836040518363ffffffff1660e01b81526004016120b19291906138b8565b600060405180830381600087803b1580156120cb57600080fd5b505af11580156120df573d6000803e3d6000fd5b505050505b505050505050565b6000600260009054906101000a900473ffffffffffffffffffffffffffffffffffffffff1673ffffffffffffffffffffffffffffffffffffffff16634caf9d0b846040518263ffffffff1660e01b81526004016121499190612d07565b60006040518083038186803b15801561216157600080fd5b505afa158015612175573d6000803e3d6000fd5b505050506040513d6000823e3d601f19601f8201168201806040525081019061219e919061350b565b905060008151905060006001826121b591906137bf565b67ffffffffffffffff8111156121ce576121cd612898565b5b6040519080825280602002602001820160405280156121fc5781602001602082028036833780820191505090505b50905060005b828110156122575783818151811061221d5761221c61338c565b5b60200260200101518282815181106122385761223761338c565b5b602002602001018181525050808061224f906133ea565b915050612202565b508381838151811061226c5761226b61338c565b5b602002602001018181525050600260009054906101000a900473ffffffffffffffffffffffffffffffffffffffff1673ffffffffffffffffffffffffffffffffffffffff1663bb58f85d86836040518363ffffffff1660e01b81526004016122d59291906138e8565b600060405180830381600087803b1580156122ef57600080fd5b505af1158015612303573d6000803e3d6000fd5b505050505050505050565b60008151905060006001826123239190613815565b67ffffffffffffffff81111561233c5761233b612898565b5b60405190808252806020026020018201604052801561236a5781602001602082028036833780820191505090505b50905060018211156123ea57600080600090505b838110156123db578685828151811061239a5761239961338c565b5b60200260200101511480156123bb57506001846123b79190613815565b8114155b156123c8578091506123db565b80806123d3906133ea565b91505061237e565b506123e68482612741565b9150505b600160009054906101000a900473ffffffffffffffffffffffffffffffffffffffff1673ffffffffffffffffffffffffffffffffffffffff1663bacd910c85836040518363ffffffff1660e01b81526004016124479291906138b8565b600060405180830381600087803b15801561246157600080fd5b505af1158015612475573d6000803e3d6000fd5b505050505050505050565b60008151905060006001826124959190613815565b67ffffffffffffffff8111156124ae576124ad612898565b5b6040519080825280602002602001820160405280156124dc5781602001602082028036833780820191505090505b509050600182111561255c57600080600090505b8381101561254d578785828151811061250c5761250b61338c565b5b602002602001015114801561252d57506001846125299190613815565b8114155b1561253a5780915061254d565b8080612545906133ea565b9150506124f0565b506125588482612741565b9150505b6000600160009054906101000a900473ffffffffffffffffffffffffffffffffffffffff1673ffffffffffffffffffffffffffffffffffffffff1663f64458bd886040518263ffffffff1660e01b81526004016125b99190612a25565b60006040518083038186803b1580156125d157600080fd5b505afa1580156125e5573d6000803e3d6000fd5b505050506040513d6000823e3d601f19601f8201168201806040525081019061260e9190613776565b5114156126a957600160009054906101000a900473ffffffffffffffffffffffffffffffffffffffff1673ffffffffffffffffffffffffffffffffffffffff166350de13f986836040518363ffffffff1660e01b81526004016126729291906138b8565b600060405180830381600087803b15801561268c57600080fd5b505af11580156126a0573d6000803e3d6000fd5b50505050612739565b600160009054906101000a900473ffffffffffffffffffffffffffffffffffffffff1673ffffffffffffffffffffffffffffffffffffffff1663bd0a4e9e86836040518363ffffffff1660e01b81526004016127069291906138b8565b600060405180830381600087803b15801561272057600080fd5b505af1158015612734573d6000803e3d6000fd5b505050505b505050505050565b60606000600184516127539190613815565b67ffffffffffffffff81111561276c5761276b612898565b5b60405190808252806020026020018201604052801561279a5781602001602082028036833780820191505090505b50905060005b838110156127f5578481815181106127bb576127ba61338c565b5b60200260200101518282815181106127d6576127d561338c565b5b60200260200101818152505080806127ed906133ea565b9150506127a0565b5060008390505b815181101561285e578460018261281391906137bf565b815181106128245761282361338c565b5b602002602001015182828151811061283f5761283e61338c565b5b6020026020010181815250508080612856906133ea565b9150506127fc565b508091505092915050565b6000604051905090565b600080fd5b600080fd5b600080fd5b600080fd5b6000601f19601f8301169050919050565b7f4e487b7100000000000000000000000000000000000000000000000000000000600052604160045260246000fd5b6128d082612887565b810181811067ffffffffffffffff821117156128ef576128ee612898565b5b80604052505050565b6000612902612869565b905061290e82826128c7565b919050565b600067ffffffffffffffff82111561292e5761292d612898565b5b61293782612887565b9050602081019050919050565b82818337600083830152505050565b600061296661296184612913565b6128f8565b90508281526020810184848401111561298257612981612882565b5b61298d848285612944565b509392505050565b600082601f8301126129aa576129a961287d565b5b81356129ba848260208601612953565b91505092915050565b6000602082840312156129d9576129d8612873565b5b600082013567ffffffffffffffff8111156129f7576129f6612878565b5b612a0384828501612995565b91505092915050565b6000819050919050565b612a1f81612a0c565b82525050565b6000602082019050612a3a6000830184612a16565b92915050565b600073ffffffffffffffffffffffffffffffffffffffff82169050919050565b6000612a6b82612a40565b9050919050565b612a7b81612a60565b8114612a8657600080fd5b50565b600081359050612a9881612a72565b92915050565b600067ffffffffffffffff821115612ab957612ab8612898565b5b612ac282612887565b9050602081019050919050565b6000612ae2612add84612a9e565b6128f8565b905082815260208101848484011115612afe57612afd612882565b5b612b09848285612944565b509392505050565b600082601f830112612b2657612b2561287d565b5b8135612b36848260208601612acf565b91505092915050565b600067ffffffffffffffff821115612b5a57612b59612898565b5b602082029050602081019050919050565b600080fd5b6000612b83612b7e84612b3f565b6128f8565b90508083825260208201905060208402830185811115612ba657612ba5612b6b565b5b835b81811015612bcf5780612bbb8882612a89565b845260208401935050602081019050612ba8565b5050509392505050565b600082601f830112612bee57612bed61287d565b5b8135612bfe848260208601612b70565b91505092915050565b612c1081612a0c565b8114612c1b57600080fd5b50565b600081359050612c2d81612c07565b92915050565b60008060008060008060c08789031215612c5057612c4f612873565b5b6000612c5e89828a01612a89565b965050602087013567ffffffffffffffff811115612c7f57612c7e612878565b5b612c8b89828a01612b11565b955050604087013567ffffffffffffffff811115612cac57612cab612878565b5b612cb889828a01612bd9565b9450506060612cc989828a01612c1e565b9350506080612cda89828a01612c1e565b92505060a0612ceb89828a01612c1e565b9150509295509295509295565b612d0181612a60565b82525050565b6000602082019050612d1c6000830184612cf8565b92915050565b600060208284031215612d3857612d37612873565b5b6000612d4684828501612a89565b91505092915050565b60008115159050919050565b612d6481612d4f565b82525050565b6000602082019050612d7f6000830184612d5b565b92915050565b600060208284031215612d9b57612d9a612873565b5b6000612da984828501612c1e565b91505092915050565b600082825260208201905092915050565b7f4572726f723a206d73672e73656e646572206d75737420626520696e7465726660008201527f616365287369676e657229000000000000000000000000000000000000000000602082015250565b6000612e1f602b83612db2565b9150612e2a82612dc3565b604082019050919050565b60006020820190508181036000830152612e4e81612e12565b9050919050565b6000819050919050565b612e6881612e55565b8114612e7357600080fd5b50565b600081519050612e8581612e5f565b92915050565b600060208284031215612ea157612ea0612873565b5b6000612eaf84828501612e76565b91505092915050565b6000819050919050565b612ed3612ece82612e55565b612eb8565b82525050565b6000612ee58284612ec2565b60208201915081905092915050565b612efd81612a0c565b82525050565b612f0c81612e55565b82525050565b600081519050919050565b600082825260208201905092915050565b60005b83811015612f4c578082015181840152602081019050612f31565b83811115612f5b576000848401525b50505050565b6000612f6c82612f12565b612f768185612f1d565b9350612f86818560208601612f2e565b612f8f81612887565b840191505092915050565b600081519050919050565b600082825260208201905092915050565b6000819050602082019050919050565b612fcf81612a60565b82525050565b6000612fe18383612fc6565b60208301905092915050565b6000602082019050919050565b600061300582612f9a565b61300f8185612fa5565b935061301a83612fb6565b8060005b8381101561304b5781516130328882612fd5565b975061303d83612fed565b92505060018101905061301e565b5085935050505092915050565b600081519050919050565b600082825260208201905092915050565b6000819050602082019050919050565b60006130908383612ef4565b60208301905092915050565b6000602082019050919050565b60006130b482613058565b6130be8185613063565b93506130c983613074565b8060005b838110156130fa5781516130e18882613084565b97506130ec8361309c565b9250506001810190506130cd565b5085935050505092915050565b61311081612d4f565b82525050565b60006101e08301600083015161312f6000860182612ef4565b5060208301516131426020860182612f03565b506040830151848203604086015261315a8282612f61565b915050606083015161316f6060860182612f03565b50608083015184820360808601526131878282612ffa565b91505060a083015184820360a08601526131a18282612ffa565b91505060c083015184820360c08601526131bb82826130a9565b91505060e083015184820360e08601526131d582826130a9565b9150506101008301516131ec610100860182612ef4565b506101208301518482036101208601526132068282612ffa565b91505061014083015184820361014086015261322282826130a9565b915050610160830151613239610160860182612ef4565b5061018083015161324e610180860182612ef4565b506101a08301516132636101a0860182612fc6565b506101c08301516132786101c0860182613107565b508091505092915050565b60006040820190506132986000830185612a16565b81810360208301526132aa8184613116565b90509392505050565b6000815190506132c281612a72565b92915050565b6000602082840312156132de576132dd612873565b5b60006132ec848285016132b3565b91505092915050565b600060408201905061330a6000830185612cf8565b6133176020830184612cf8565b9392505050565b6000819050919050565b6000819050919050565b600061334d6133486133438461331e565b613328565b612e55565b9050919050565b61335d81613332565b82525050565b60006040820190506133786000830185612a16565b6133856020830184613354565b9392505050565b7f4e487b7100000000000000000000000000000000000000000000000000000000600052603260045260246000fd5b7f4e487b7100000000000000000000000000000000000000000000000000000000600052601160045260246000fd5b60006133f582612e55565b91507fffffffffffffffffffffffffffffffffffffffffffffffffffffffffffffffff821415613428576134276133bb565b5b600182019050919050565b600067ffffffffffffffff82111561344e5761344d612898565b5b602082029050602081019050919050565b60008151905061346e81612c07565b92915050565b600061348761348284613433565b6128f8565b905080838252602082019050602084028301858111156134aa576134a9612b6b565b5b835b818110156134d357806134bf888261345f565b8452602084019350506020810190506134ac565b5050509392505050565b600082601f8301126134f2576134f161287d565b5b8151613502848260208601613474565b91505092915050565b60006020828403121561352157613520612873565b5b600082015167ffffffffffffffff81111561353f5761353e612878565b5b61354b848285016134dd565b91505092915050565b60006040820190506135696000830185612a16565b6135766020830184612cf8565b9392505050565b61358681612e55565b82525050565b60006040820190506135a16000830185612a16565b6135ae602083018461357d565b9392505050565b7f4572726f723a206f6e6c79206465706c6f7965722063616e207061737320706f60008201527f7374207369676e657220726f6c65000000000000000000000000000000000000602082015250565b6000613611602e83612db2565b915061361c826135b5565b604082019050919050565b6000602082019050818103600083015261364081613604565b9050919050565b7f4572726f723a206f6e6c79207369676e65722063616e2064656c657465206d6560008201527f6d65000000000000000000000000000000000000000000000000000000000000602082015250565b60006136a3602283612db2565b91506136ae82613647565b604082019050919050565b600060208201905081810360008301526136d281613696565b9050919050565b6000602082840312156136ef576136ee612873565b5b60006136fd8482850161345f565b91505092915050565b600061371961371484612a9e565b6128f8565b90508281526020810184848401111561373557613734612882565b5b613740848285612f2e565b509392505050565b600082601f83011261375d5761375c61287d565b5b815161376d848260208601613706565b91505092915050565b60006020828403121561378c5761378b612873565b5b600082015167ffffffffffffffff8111156137aa576137a9612878565b5b6137b684828501613748565b91505092915050565b60006137ca82612e55565b91506137d583612e55565b9250827fffffffffffffffffffffffffffffffffffffffffffffffffffffffffffffffff0382111561380a576138096133bb565b5b828201905092915050565b600061382082612e55565b915061382b83612e55565b92508282101561383e5761383d6133bb565b5b828203905092915050565b600082825260208201905092915050565b600061386582613058565b61386f8185613849565b935061387a83613074565b8060005b838110156138ab5781516138928882613084565b975061389d8361309c565b92505060018101905061387e565b5085935050505092915050565b60006040820190506138cd6000830185612a16565b81810360208301526138df818461385a565b90509392505050565b60006040820190506138fd6000830185612cf8565b818103602083015261390f818461385a565b9050939250505056fea2646970667358221220a0e5fc00af22863f9ae811961e089f364b960d7549f70f8e556b2f2b1f55849664736f6c63430008090033",
  "immutableReferences": {},
  "source": "// SPDX-License-Identifier: MIT\n\npragma solidity >=0.8.0 <0.9.0;\n\nimport \"./UME.sol\";\nimport \"./MemeStorage.sol\";\nimport \"./UserStorage.sol\";\n\ncontract MemeFactory {\n  // public variables\n  UME private umeToken;\n  MemeStorage private memeStorage;\n  UserStorage private userStorage;\n  bytes32 zeroBytes;\n\n  address public postSigner;\n/*\n  // Meme structure\n  struct Meme {\n    bytes32 id; // number in all of timeline\n    uint time; // time of post\n    string text; // test of Meme\n    uint boost; // boost value\n    address[] likers; // list of addresses of likers\n    address[] unlikers; // list of addresses that have unliked\n    bytes32[] reposts; // list of addresses that have reposted\n    bytes32[] quotePosts; // list of addresses that have quotePosted\n    bytes32 repostId;// repost id\n    address[] tags; // list of id's of tagged\n    bytes32[] responses; // collection of id's of responses\n    bytes32 parentId; // memeId of parent (can be self)\n    bytes32 originId; // memeId of origin (can be self)\n    address author; // address of author\n    bool isVisible; // is visible\n  }\n*/\n  event PostSignerChanged(\n    address indexed from,\n    address indexed to);\n  event MemeCreated(\n    bytes32 memeId,\n    uint time,\n    address indexed account);\n  event MemeDeleted(\n    bytes32 memeId,\n    uint time,\n    address indexed account);\n  event Tagged(\n    address from,\n    address to);\n\n  constructor(\n    UME _umeToken,\n    MemeStorage _memeStorage,\n    UserStorage _userStorage\n  ) public {\n    umeToken = _umeToken;\n    memeStorage = _memeStorage;\n    userStorage = _userStorage;\n\n    postSigner = msg.sender;\n  }\n\n  // posting meme functions\n  function newMeme(\n    address _account,\n    string memory _memeText,\n    address[] memory _tags,\n    bytes32 _parentId,\n    bytes32 _originId,\n    bytes32 _repostId\n  ) public {\n    require(\n      msg.sender==postSigner,\n      'Error: msg.sender must be interface(signer)');\n    // increment meme id\n    memeStorage.increaseMemeCount();\n    bytes32 _memeId = keccak256(abi.encodePacked(memeStorage.memeCount()));\n    // set parent & origin id's to memeId if\n    if (_parentId == zeroBytes) {\n      _parentId = _memeId;\n    }\n    if (_originId == zeroBytes) {\n      _originId = _memeId;\n    }\n    // map memeId to new meme\n    memeStorage.setMeme(_memeId, MemeStorage.Meme(\n      _memeId, // meme id\n      block.timestamp, // meme time\n      _memeText, // meme text\n      0, // boost value\n      new address[](0), // likers\n      new address[](0), // unlikers\n      new bytes32[](0), // reposts\n      new bytes32[](0), // quotePosts\n      _repostId, // repost id\n      _tags, // tagged\n      new bytes32[](0), // response array\n      _parentId, // parent\n      _originId, // origin\n      _account, // author\n      true // isVisible\n    ));\n    // if responding to a single post, then mint respond token\n    if(_memeId!=_parentId && _parentId==_originId) {\n      if(memeStorage.getAuthor(_parentId)!=_account)\n        umeToken.mintRespond(_account, memeStorage.getAuthor(_parentId));\n        _addResponse(_memeId, _parentId);\n        memeStorage.addBoost(_parentId, 4);\n    } // if responding to a thread, mint respond token for parent, curate token for original\n    else if(_memeId!=_parentId && _parentId!=_originId) {\n      if(memeStorage.getAuthor(_parentId)!=_account)\n        umeToken.mintRespond(_account, memeStorage.getAuthor(_parentId));\n        memeStorage.addBoost(_parentId, 4);\n      if(memeStorage.getAuthor(_originId)!=_account)\n        umeToken.mintCurate(_account, memeStorage.getAuthor(_originId));\n        _addResponse(_memeId, _parentId);\n        memeStorage.addBoost(_originId, 4);\n    }\n    // mint tags\n    for(uint i = 0; i < _tags.length; i++) {\n      if(_account!=_tags[i] && _tags[i]!=address(0x0)){\n        umeToken.mintTag(_account, _tags[i]);\n        emit Tagged(_account, _tags[i]);\n      }\n    }\n    if(_repostId!=zeroBytes) {\n      if(bytes(_memeText).length==0) {\n        bytes32[] memory _oldReposts = memeStorage.getReposts(_repostId);\n        _addRepost(_memeId, _memeText, _repostId, _oldReposts);\n        memeStorage.addBoost(_memeId, 4);\n      } else {\n        bytes32[] memory _oldReposts = memeStorage.getQuotePosts(_repostId);\n        _addRepost(_memeId, _memeText, _repostId, _oldReposts);\n        memeStorage.addBoost(_memeId, 4);\n      }\n    }\n    _addPostToUser(_account, _memeId);\n    userStorage.setUsersByMeme(_memeId, _account);\n    emit MemeCreated(_memeId, block.timestamp, _account);\n  }\n  function deleteMeme(\n    bytes32 _memeId\n  ) public {\n    require(\n      postSigner==msg.sender,\n      'Error: only signer can delete meme');\n    // create empty Meme instance\n    bytes32 _parentId = memeStorage.getParentId(_memeId);\n    bytes32 _repostId = memeStorage.getRepostId(_memeId);\n    string memory _repostText = memeStorage.getText(_repostId);\n    emit MemeDeleted(_memeId, block.timestamp, memeStorage.getAuthor(_memeId));\n    if(memeStorage.getResponseCount(_parentId)>0)\n      _deleteResponse(_memeId, _parentId, memeStorage.getResponses(_parentId));\n    if(memeStorage.getRepostCount(_repostId)>0) {\n      if(bytes(_repostText).length==0)\n        _deleteRepost(_memeId, _repostId, '', memeStorage.getReposts(_repostId));\n      else _deleteRepost(_memeId, _repostId, _bytesToBytes32(bytes(_repostText)), memeStorage.getQuotePosts(_repostId));\n    }\n    memeStorage.deleteMeme(_memeId);\n  }\n\n  function _addResponse(\n    bytes32 _memeId,\n    bytes32 _parentId\n  ) private {\n    bytes32[] memory _oldResponses = memeStorage.getResponses(_parentId);\n    uint _oldResponseCount = _oldResponses.length;\n    bytes32[] memory _newResponses = new bytes32[](_oldResponseCount+1);\n    for(uint i = 0; i < _oldResponseCount; i++)\n      _newResponses[i] = _oldResponses[i];\n    _newResponses[_newResponses.length-1] = _memeId;\n    memeStorage.setResponses(_parentId, _newResponses);\n  }\n\n  function _deleteResponse(\n    bytes32 _memeId,\n    bytes32 _parentId,\n    bytes32[] memory _oldResponses\n  ) private {\n    // delete liked index, moving all successive elements\n    uint _oldResponseCount = _oldResponses.length;\n    bytes32[] memory _newResponses = new bytes32[](_oldResponseCount-1);\n    if(_oldResponseCount > 1) {\n      uint _index;\n      for(uint i = 0; i < _oldResponseCount; i++) {\n        if (_oldResponses[i]==_memeId && i!=_oldResponseCount-1) {\n          _index = i;\n          break;\n        }\n      }\n      _newResponses = _deleteBytes32(_oldResponses, _index);\n    }\n    memeStorage.setResponses(_parentId, _newResponses);\n  }\n\n  function _addRepost(\n    bytes32 _memeId,\n    string memory _memeText,\n    bytes32 _repostId,\n    bytes32[] memory _oldReposts\n  ) private {\n\n    uint _oldRepostCount = _oldReposts.length;\n    bytes32[] memory _newReposts = new bytes32[](_oldRepostCount+1);\n    for(uint i = 0; i < _oldRepostCount; i++)\n      _newReposts[i] = _oldReposts[i];\n    _newReposts[_newReposts.length-1] = _memeId;\n\n    if(bytes(_memeText).length==0) memeStorage.setReposts(_repostId, _newReposts);\n    else memeStorage.setQuotePosts(_repostId, _newReposts);\n  }\n\n  function _deleteRepost(\n    bytes32 _memeId,\n    bytes32 _repostId,\n    bytes32 _memeText,\n    bytes32[] memory _oldReposts\n  ) private {\n    // delete liked index, moving all successive elements\n    uint _oldRepostCount = _oldReposts.length;\n    bytes32[] memory _newReposts = new bytes32[](_oldRepostCount-1);\n    if(_oldRepostCount > 1) {\n      uint _index;\n      for(uint i = 0; i < _oldRepostCount; i++) {\n        if (_oldReposts[i]==_memeId && i!=_oldRepostCount-1) {\n          _index = i;\n          break;\n        }\n      }\n      _newReposts = _deleteBytes32(_oldReposts, _index);\n    }\n    if(bytes(memeStorage.getText(_memeId)).length==0)\n      memeStorage.setReposts(_repostId, _newReposts);\n    else memeStorage.setQuotePosts(_repostId, _newReposts);\n  }\n  function _addPostToUser(\n    address _account,\n    bytes32 _memeId\n  ) private {\n     // create memory array with length one greater than _user.posts length\n     bytes32[] memory _oldPosts = userStorage.getPosts(_account);\n     uint _oldPostCount = _oldPosts.length;\n     bytes32[] memory _newPosts = new bytes32[](_oldPostCount+1);\n     for(uint i = 0; i < _oldPostCount; i++)\n       _newPosts[i] = _oldPosts[i];\n     _newPosts[_oldPostCount] = _memeId;\n     userStorage.setPosts(_account, _newPosts);\n  }\n  function _deletePostFromUser(\n    address _account,\n    bytes32 _memeId\n  ) private {\n     bytes32[] memory _oldPosts = userStorage.getPosts(_account);\n     uint _oldPostCount = _oldPosts.length;\n     bytes32[] memory _newPosts = new bytes32[](_oldPostCount-1);\n     uint _index;\n     for(uint i = 0; i < _oldPosts.length; i++) {\n       if(_oldPosts[i]==_memeId) {\n         _index = i;\n         break;\n       }\n     }\n     _newPosts = _deleteBytes32(_oldPosts, _index);\n     userStorage.setPosts(_account, _newPosts);\n     // clears mapping of deleted meme, reroutes to 0x0 address instead of deleter\n     userStorage.setUsersByMeme(_memeId, address(0x0));\n  }\n\n  // helper functions\n  function _deleteBytes32(\n    bytes32[] memory array,\n    uint index\n  ) private pure returns(bytes32[] memory) {\n    bytes32[] memory _array = new bytes32[](array.length-1);\n    for(uint i = 0; i < index; i++)\n      _array[i] = array[i];\n    for(uint i = index; i < _array.length; i++)\n      _array[i] = array[i+1];\n    return _array;\n  }\n\n  function _bytesToBytes32(bytes memory source) public pure returns(bytes32 result) {\n    if(source.length==0) return 0x0;\n    assembly {\n      result := mload(add(source, 32))\n    }\n  }\n  // set signer roles\n  function passPostSigner(address _post) public returns (bool) {\n    require(\n      msg.sender == postSigner,\n      'Error: only deployer can pass post signer role');\n\n    postSigner = _post;\n    emit PostSignerChanged(msg.sender, postSigner);\n    return true;\n  }\n}\n",
  "sourcePath": "/Users/jaiq/Documents/000 BLOCKCHAIN/ETH/uMe/src/contracts/MemeFactory.sol",
  "compiler": {
    "name": "solc",
    "version": "0.8.9+commit.e5eed63a.Emscripten.clang"
  },
  "schemaVersion": "3.4.3",
  "updatedAt": "2021-10-10T22:38:01.797Z",
  "networkType": "ethereum",
  "devdoc": {
    "kind": "dev",
    "methods": {},
    "version": 1
  },
  "userdoc": {
    "kind": "user",
    "methods": {},
    "version": 1
  }
}