{
  "contractName": "MemeStorage",
  "abi": [
    {
      "inputs": [],
      "stateMutability": "nonpayable",
      "type": "constructor"
    },
    {
      "anonymous": false,
      "inputs": [
        {
          "indexed": true,
          "internalType": "address",
          "name": "from",
          "type": "address"
        },
        {
          "indexed": true,
          "internalType": "address",
          "name": "to",
          "type": "address"
        }
      ],
      "name": "BoostSignerChanged",
      "type": "event"
    },
    {
      "anonymous": false,
      "inputs": [
        {
          "indexed": true,
          "internalType": "address",
          "name": "from",
          "type": "address"
        },
        {
          "indexed": true,
          "internalType": "address",
          "name": "to",
          "type": "address"
        }
      ],
      "name": "FactorySignerChanged",
      "type": "event"
    },
    {
      "anonymous": false,
      "inputs": [
        {
          "indexed": true,
          "internalType": "address",
          "name": "from",
          "type": "address"
        },
        {
          "indexed": true,
          "internalType": "address",
          "name": "to",
          "type": "address"
        }
      ],
      "name": "InterfaceSignerChanged",
      "type": "event"
    },
    {
      "anonymous": false,
      "inputs": [
        {
          "indexed": true,
          "internalType": "address",
          "name": "from",
          "type": "address"
        },
        {
          "indexed": true,
          "internalType": "address",
          "name": "to",
          "type": "address"
        }
      ],
      "name": "LikeSignerChanged",
      "type": "event"
    },
    {
      "anonymous": false,
      "inputs": [
        {
          "indexed": true,
          "internalType": "address",
          "name": "from",
          "type": "address"
        },
        {
          "indexed": true,
          "internalType": "address",
          "name": "to",
          "type": "address"
        }
      ],
      "name": "PostSignerChanged",
      "type": "event"
    },
    {
      "inputs": [],
      "name": "boostSigner",
      "outputs": [
        {
          "internalType": "address",
          "name": "",
          "type": "address"
        }
      ],
      "stateMutability": "view",
      "type": "function"
    },
    {
      "inputs": [],
      "name": "factorySigner",
      "outputs": [
        {
          "internalType": "address",
          "name": "",
          "type": "address"
        }
      ],
      "stateMutability": "view",
      "type": "function"
    },
    {
      "inputs": [
        {
          "internalType": "bytes32",
          "name": "",
          "type": "bytes32"
        },
        {
          "internalType": "address",
          "name": "",
          "type": "address"
        }
      ],
      "name": "hasLiked",
      "outputs": [
        {
          "internalType": "bool",
          "name": "",
          "type": "bool"
        }
      ],
      "stateMutability": "view",
      "type": "function"
    },
    {
      "inputs": [
        {
          "internalType": "bytes32",
          "name": "",
          "type": "bytes32"
        },
        {
          "internalType": "address",
          "name": "",
          "type": "address"
        }
      ],
      "name": "hasUnliked",
      "outputs": [
        {
          "internalType": "bool",
          "name": "",
          "type": "bool"
        }
      ],
      "stateMutability": "view",
      "type": "function"
    },
    {
      "inputs": [],
      "name": "interfaceSigner",
      "outputs": [
        {
          "internalType": "address",
          "name": "",
          "type": "address"
        }
      ],
      "stateMutability": "view",
      "type": "function"
    },
    {
      "inputs": [],
      "name": "likeSigner",
      "outputs": [
        {
          "internalType": "address",
          "name": "",
          "type": "address"
        }
      ],
      "stateMutability": "view",
      "type": "function"
    },
    {
      "inputs": [],
      "name": "memeCount",
      "outputs": [
        {
          "internalType": "uint256",
          "name": "",
          "type": "uint256"
        }
      ],
      "stateMutability": "view",
      "type": "function"
    },
    {
      "inputs": [
        {
          "internalType": "bytes32",
          "name": "",
          "type": "bytes32"
        }
      ],
      "name": "memes",
      "outputs": [
        {
          "internalType": "bytes32",
          "name": "id",
          "type": "bytes32"
        },
        {
          "internalType": "uint256",
          "name": "time",
          "type": "uint256"
        },
        {
          "internalType": "string",
          "name": "text",
          "type": "string"
        },
        {
          "internalType": "uint256",
          "name": "boosts",
          "type": "uint256"
        },
        {
          "internalType": "bytes32",
          "name": "repostId",
          "type": "bytes32"
        },
        {
          "internalType": "bytes32",
          "name": "parentId",
          "type": "bytes32"
        },
        {
          "internalType": "bytes32",
          "name": "originId",
          "type": "bytes32"
        },
        {
          "internalType": "address",
          "name": "author",
          "type": "address"
        },
        {
          "internalType": "bool",
          "name": "isVisible",
          "type": "bool"
        }
      ],
      "stateMutability": "view",
      "type": "function"
    },
    {
      "inputs": [],
      "name": "postSigner",
      "outputs": [
        {
          "internalType": "address",
          "name": "",
          "type": "address"
        }
      ],
      "stateMutability": "view",
      "type": "function"
    },
    {
      "inputs": [
        {
          "internalType": "bytes32",
          "name": "_memeId",
          "type": "bytes32"
        },
        {
          "components": [
            {
              "internalType": "bytes32",
              "name": "id",
              "type": "bytes32"
            },
            {
              "internalType": "uint256",
              "name": "time",
              "type": "uint256"
            },
            {
              "internalType": "string",
              "name": "text",
              "type": "string"
            },
            {
              "internalType": "uint256",
              "name": "boosts",
              "type": "uint256"
            },
            {
              "internalType": "address[]",
              "name": "likers",
              "type": "address[]"
            },
            {
              "internalType": "address[]",
              "name": "unlikers",
              "type": "address[]"
            },
            {
              "internalType": "bytes32[]",
              "name": "reposts",
              "type": "bytes32[]"
            },
            {
              "internalType": "bytes32[]",
              "name": "quotePosts",
              "type": "bytes32[]"
            },
            {
              "internalType": "bytes32",
              "name": "repostId",
              "type": "bytes32"
            },
            {
              "internalType": "address[]",
              "name": "tags",
              "type": "address[]"
            },
            {
              "internalType": "bytes32[]",
              "name": "responses",
              "type": "bytes32[]"
            },
            {
              "internalType": "bytes32",
              "name": "parentId",
              "type": "bytes32"
            },
            {
              "internalType": "bytes32",
              "name": "originId",
              "type": "bytes32"
            },
            {
              "internalType": "address",
              "name": "author",
              "type": "address"
            },
            {
              "internalType": "bool",
              "name": "isVisible",
              "type": "bool"
            }
          ],
          "internalType": "struct MemeStorage.Meme",
          "name": "_meme",
          "type": "tuple"
        }
      ],
      "name": "setMeme",
      "outputs": [],
      "stateMutability": "nonpayable",
      "type": "function"
    },
    {
      "inputs": [
        {
          "internalType": "bytes32",
          "name": "_memeId",
          "type": "bytes32"
        }
      ],
      "name": "deleteMeme",
      "outputs": [],
      "stateMutability": "nonpayable",
      "type": "function"
    },
    {
      "inputs": [],
      "name": "increaseMemeCount",
      "outputs": [],
      "stateMutability": "nonpayable",
      "type": "function"
    },
    {
      "inputs": [
        {
          "internalType": "bytes32",
          "name": "_memeId",
          "type": "bytes32"
        },
        {
          "internalType": "bytes32[]",
          "name": "_responses",
          "type": "bytes32[]"
        }
      ],
      "name": "setResponses",
      "outputs": [],
      "stateMutability": "nonpayable",
      "type": "function"
    },
    {
      "inputs": [
        {
          "internalType": "bytes32",
          "name": "_memeId",
          "type": "bytes32"
        },
        {
          "internalType": "bytes32[]",
          "name": "_reposts",
          "type": "bytes32[]"
        }
      ],
      "name": "setReposts",
      "outputs": [],
      "stateMutability": "nonpayable",
      "type": "function"
    },
    {
      "inputs": [
        {
          "internalType": "bytes32",
          "name": "_memeId",
          "type": "bytes32"
        },
        {
          "internalType": "bytes32[]",
          "name": "_quotePosts",
          "type": "bytes32[]"
        }
      ],
      "name": "setQuotePosts",
      "outputs": [],
      "stateMutability": "nonpayable",
      "type": "function"
    },
    {
      "inputs": [
        {
          "internalType": "bytes32",
          "name": "_memeId",
          "type": "bytes32"
        },
        {
          "internalType": "address[]",
          "name": "_likers",
          "type": "address[]"
        }
      ],
      "name": "setLikers",
      "outputs": [],
      "stateMutability": "nonpayable",
      "type": "function"
    },
    {
      "inputs": [
        {
          "internalType": "bytes32",
          "name": "_memeId",
          "type": "bytes32"
        },
        {
          "internalType": "address[]",
          "name": "_unlikers",
          "type": "address[]"
        }
      ],
      "name": "setUnlikers",
      "outputs": [],
      "stateMutability": "nonpayable",
      "type": "function"
    },
    {
      "inputs": [
        {
          "internalType": "bytes32",
          "name": "_memeId",
          "type": "bytes32"
        },
        {
          "internalType": "address",
          "name": "_account",
          "type": "address"
        }
      ],
      "name": "setHasLiked",
      "outputs": [],
      "stateMutability": "nonpayable",
      "type": "function"
    },
    {
      "inputs": [
        {
          "internalType": "bytes32",
          "name": "_memeId",
          "type": "bytes32"
        },
        {
          "internalType": "address",
          "name": "_account",
          "type": "address"
        }
      ],
      "name": "setHasUnliked",
      "outputs": [],
      "stateMutability": "nonpayable",
      "type": "function"
    },
    {
      "inputs": [
        {
          "internalType": "bytes32",
          "name": "_memeId",
          "type": "bytes32"
        },
        {
          "internalType": "uint256",
          "name": "_boosts",
          "type": "uint256"
        }
      ],
      "name": "addBoost",
      "outputs": [],
      "stateMutability": "nonpayable",
      "type": "function"
    },
    {
      "inputs": [
        {
          "internalType": "bytes32",
          "name": "_memeId",
          "type": "bytes32"
        },
        {
          "internalType": "uint256",
          "name": "_boosts",
          "type": "uint256"
        }
      ],
      "name": "subtractBoost",
      "outputs": [],
      "stateMutability": "nonpayable",
      "type": "function"
    },
    {
      "inputs": [],
      "name": "getMemeCount",
      "outputs": [
        {
          "internalType": "uint256",
          "name": "",
          "type": "uint256"
        }
      ],
      "stateMutability": "view",
      "type": "function"
    },
    {
      "inputs": [
        {
          "internalType": "bytes32",
          "name": "_memeId",
          "type": "bytes32"
        }
      ],
      "name": "getText",
      "outputs": [
        {
          "internalType": "string",
          "name": "",
          "type": "string"
        }
      ],
      "stateMutability": "view",
      "type": "function"
    },
    {
      "inputs": [
        {
          "internalType": "bytes32",
          "name": "_memeId",
          "type": "bytes32"
        }
      ],
      "name": "getLikeCount",
      "outputs": [
        {
          "internalType": "uint256",
          "name": "",
          "type": "uint256"
        }
      ],
      "stateMutability": "view",
      "type": "function"
    },
    {
      "inputs": [
        {
          "internalType": "bytes32",
          "name": "_memeId",
          "type": "bytes32"
        }
      ],
      "name": "getBoost",
      "outputs": [
        {
          "internalType": "uint256",
          "name": "",
          "type": "uint256"
        }
      ],
      "stateMutability": "view",
      "type": "function"
    },
    {
      "inputs": [
        {
          "internalType": "bytes32",
          "name": "_memeId",
          "type": "bytes32"
        }
      ],
      "name": "getLikers",
      "outputs": [
        {
          "internalType": "address[]",
          "name": "",
          "type": "address[]"
        }
      ],
      "stateMutability": "view",
      "type": "function"
    },
    {
      "inputs": [
        {
          "internalType": "bytes32",
          "name": "_memeId",
          "type": "bytes32"
        }
      ],
      "name": "getUnlikers",
      "outputs": [
        {
          "internalType": "address[]",
          "name": "",
          "type": "address[]"
        }
      ],
      "stateMutability": "view",
      "type": "function"
    },
    {
      "inputs": [
        {
          "internalType": "bytes32",
          "name": "_memeId",
          "type": "bytes32"
        }
      ],
      "name": "getRepostCount",
      "outputs": [
        {
          "internalType": "uint256",
          "name": "",
          "type": "uint256"
        }
      ],
      "stateMutability": "view",
      "type": "function"
    },
    {
      "inputs": [
        {
          "internalType": "bytes32",
          "name": "_memeId",
          "type": "bytes32"
        }
      ],
      "name": "getReposts",
      "outputs": [
        {
          "internalType": "bytes32[]",
          "name": "",
          "type": "bytes32[]"
        }
      ],
      "stateMutability": "view",
      "type": "function"
    },
    {
      "inputs": [
        {
          "internalType": "bytes32",
          "name": "_memeId",
          "type": "bytes32"
        }
      ],
      "name": "getQuotePostCount",
      "outputs": [
        {
          "internalType": "uint256",
          "name": "",
          "type": "uint256"
        }
      ],
      "stateMutability": "view",
      "type": "function"
    },
    {
      "inputs": [
        {
          "internalType": "bytes32",
          "name": "_memeId",
          "type": "bytes32"
        }
      ],
      "name": "getQuotePosts",
      "outputs": [
        {
          "internalType": "bytes32[]",
          "name": "",
          "type": "bytes32[]"
        }
      ],
      "stateMutability": "view",
      "type": "function"
    },
    {
      "inputs": [
        {
          "internalType": "bytes32",
          "name": "_memeId",
          "type": "bytes32"
        }
      ],
      "name": "getTags",
      "outputs": [
        {
          "internalType": "address[]",
          "name": "",
          "type": "address[]"
        }
      ],
      "stateMutability": "view",
      "type": "function"
    },
    {
      "inputs": [
        {
          "internalType": "bytes32",
          "name": "_memeId",
          "type": "bytes32"
        }
      ],
      "name": "getResponseCount",
      "outputs": [
        {
          "internalType": "uint256",
          "name": "",
          "type": "uint256"
        }
      ],
      "stateMutability": "view",
      "type": "function"
    },
    {
      "inputs": [
        {
          "internalType": "bytes32",
          "name": "_memeId",
          "type": "bytes32"
        }
      ],
      "name": "getResponses",
      "outputs": [
        {
          "internalType": "bytes32[]",
          "name": "",
          "type": "bytes32[]"
        }
      ],
      "stateMutability": "view",
      "type": "function"
    },
    {
      "inputs": [
        {
          "internalType": "bytes32",
          "name": "_memeId",
          "type": "bytes32"
        }
      ],
      "name": "getParentId",
      "outputs": [
        {
          "internalType": "bytes32",
          "name": "",
          "type": "bytes32"
        }
      ],
      "stateMutability": "view",
      "type": "function"
    },
    {
      "inputs": [
        {
          "internalType": "bytes32",
          "name": "_memeId",
          "type": "bytes32"
        }
      ],
      "name": "getOriginId",
      "outputs": [
        {
          "internalType": "bytes32",
          "name": "",
          "type": "bytes32"
        }
      ],
      "stateMutability": "view",
      "type": "function"
    },
    {
      "inputs": [
        {
          "internalType": "bytes32",
          "name": "_memeId",
          "type": "bytes32"
        }
      ],
      "name": "getRepostId",
      "outputs": [
        {
          "internalType": "bytes32",
          "name": "",
          "type": "bytes32"
        }
      ],
      "stateMutability": "view",
      "type": "function"
    },
    {
      "inputs": [
        {
          "internalType": "bytes32",
          "name": "_memeId",
          "type": "bytes32"
        }
      ],
      "name": "getAuthor",
      "outputs": [
        {
          "internalType": "address",
          "name": "",
          "type": "address"
        }
      ],
      "stateMutability": "view",
      "type": "function"
    },
    {
      "inputs": [
        {
          "internalType": "bytes32",
          "name": "_memeId",
          "type": "bytes32"
        }
      ],
      "name": "getVisibility",
      "outputs": [
        {
          "internalType": "bool",
          "name": "",
          "type": "bool"
        }
      ],
      "stateMutability": "view",
      "type": "function"
    },
    {
      "inputs": [],
      "name": "getEncodedIds",
      "outputs": [
        {
          "internalType": "bytes32[]",
          "name": "",
          "type": "bytes32[]"
        }
      ],
      "stateMutability": "view",
      "type": "function"
    },
    {
      "inputs": [
        {
          "internalType": "uint256",
          "name": "_memeId",
          "type": "uint256"
        }
      ],
      "name": "getEncodeId",
      "outputs": [
        {
          "internalType": "bytes32",
          "name": "",
          "type": "bytes32"
        }
      ],
      "stateMutability": "view",
      "type": "function"
    },
    {
      "inputs": [
        {
          "internalType": "uint256",
          "name": "_memeId",
          "type": "uint256"
        }
      ],
      "name": "getEncodeLikeCount",
      "outputs": [
        {
          "internalType": "uint256",
          "name": "",
          "type": "uint256"
        }
      ],
      "stateMutability": "view",
      "type": "function"
    },
    {
      "inputs": [
        {
          "internalType": "uint256",
          "name": "_memeId",
          "type": "uint256"
        }
      ],
      "name": "getEncodeLikers",
      "outputs": [
        {
          "internalType": "address[]",
          "name": "",
          "type": "address[]"
        }
      ],
      "stateMutability": "view",
      "type": "function"
    },
    {
      "inputs": [
        {
          "internalType": "uint256",
          "name": "_memeId",
          "type": "uint256"
        }
      ],
      "name": "getEncodeUnlikers",
      "outputs": [
        {
          "internalType": "address[]",
          "name": "",
          "type": "address[]"
        }
      ],
      "stateMutability": "view",
      "type": "function"
    },
    {
      "inputs": [
        {
          "internalType": "uint256",
          "name": "_memeId",
          "type": "uint256"
        }
      ],
      "name": "getEncodeRepostCount",
      "outputs": [
        {
          "internalType": "uint256",
          "name": "",
          "type": "uint256"
        }
      ],
      "stateMutability": "view",
      "type": "function"
    },
    {
      "inputs": [
        {
          "internalType": "uint256",
          "name": "_memeId",
          "type": "uint256"
        }
      ],
      "name": "getEncodeReposts",
      "outputs": [
        {
          "internalType": "bytes32[]",
          "name": "",
          "type": "bytes32[]"
        }
      ],
      "stateMutability": "view",
      "type": "function"
    },
    {
      "inputs": [
        {
          "internalType": "uint256",
          "name": "_memeId",
          "type": "uint256"
        }
      ],
      "name": "getEncodeQuotePostCount",
      "outputs": [
        {
          "internalType": "uint256",
          "name": "",
          "type": "uint256"
        }
      ],
      "stateMutability": "view",
      "type": "function"
    },
    {
      "inputs": [
        {
          "internalType": "uint256",
          "name": "_memeId",
          "type": "uint256"
        }
      ],
      "name": "getEncodeQuotePosts",
      "outputs": [
        {
          "internalType": "bytes32[]",
          "name": "",
          "type": "bytes32[]"
        }
      ],
      "stateMutability": "view",
      "type": "function"
    },
    {
      "inputs": [
        {
          "internalType": "uint256",
          "name": "_memeId",
          "type": "uint256"
        }
      ],
      "name": "getEncodeTags",
      "outputs": [
        {
          "internalType": "address[]",
          "name": "",
          "type": "address[]"
        }
      ],
      "stateMutability": "view",
      "type": "function"
    },
    {
      "inputs": [
        {
          "internalType": "uint256",
          "name": "_memeId",
          "type": "uint256"
        }
      ],
      "name": "getEncodeResponseCount",
      "outputs": [
        {
          "internalType": "uint256",
          "name": "",
          "type": "uint256"
        }
      ],
      "stateMutability": "view",
      "type": "function"
    },
    {
      "inputs": [
        {
          "internalType": "uint256",
          "name": "_memeId",
          "type": "uint256"
        }
      ],
      "name": "getEncodeResponses",
      "outputs": [
        {
          "internalType": "bytes32[]",
          "name": "",
          "type": "bytes32[]"
        }
      ],
      "stateMutability": "view",
      "type": "function"
    },
    {
      "inputs": [
        {
          "internalType": "uint256",
          "name": "_memeId",
          "type": "uint256"
        }
      ],
      "name": "getEncodeParentId",
      "outputs": [
        {
          "internalType": "bytes32",
          "name": "",
          "type": "bytes32"
        }
      ],
      "stateMutability": "view",
      "type": "function"
    },
    {
      "inputs": [
        {
          "internalType": "uint256",
          "name": "_memeId",
          "type": "uint256"
        }
      ],
      "name": "getEncodeOriginId",
      "outputs": [
        {
          "internalType": "bytes32",
          "name": "",
          "type": "bytes32"
        }
      ],
      "stateMutability": "view",
      "type": "function"
    },
    {
      "inputs": [
        {
          "internalType": "uint256",
          "name": "_memeId",
          "type": "uint256"
        }
      ],
      "name": "getEncodeAuthor",
      "outputs": [
        {
          "internalType": "address",
          "name": "",
          "type": "address"
        }
      ],
      "stateMutability": "view",
      "type": "function"
    },
    {
      "inputs": [
        {
          "internalType": "uint256",
          "name": "_memeId",
          "type": "uint256"
        }
      ],
      "name": "getEncodeVisibility",
      "outputs": [
        {
          "internalType": "bool",
          "name": "",
          "type": "bool"
        }
      ],
      "stateMutability": "view",
      "type": "function"
    },
    {
      "inputs": [
        {
          "internalType": "address",
          "name": "_memeFactory",
          "type": "address"
        }
      ],
      "name": "passFactorySigner",
      "outputs": [
        {
          "internalType": "bool",
          "name": "",
          "type": "bool"
        }
      ],
      "stateMutability": "nonpayable",
      "type": "function"
    },
    {
      "inputs": [
        {
          "internalType": "address",
          "name": "_userInterface",
          "type": "address"
        }
      ],
      "name": "passInterfaceSigner",
      "outputs": [
        {
          "internalType": "bool",
          "name": "",
          "type": "bool"
        }
      ],
      "stateMutability": "nonpayable",
      "type": "function"
    },
    {
      "inputs": [
        {
          "internalType": "address",
          "name": "_post",
          "type": "address"
        }
      ],
      "name": "passPostSigner",
      "outputs": [
        {
          "internalType": "bool",
          "name": "",
          "type": "bool"
        }
      ],
      "stateMutability": "nonpayable",
      "type": "function"
    },
    {
      "inputs": [
        {
          "internalType": "address",
          "name": "_like",
          "type": "address"
        }
      ],
      "name": "passLikeSigner",
      "outputs": [
        {
          "internalType": "bool",
          "name": "",
          "type": "bool"
        }
      ],
      "stateMutability": "nonpayable",
      "type": "function"
    },
    {
      "inputs": [
        {
          "internalType": "address",
          "name": "_boost",
          "type": "address"
        }
      ],
      "name": "passBoostSigner",
      "outputs": [
        {
          "internalType": "bool",
          "name": "",
          "type": "bool"
        }
      ],
      "stateMutability": "nonpayable",
      "type": "function"
    }
  ],
  "bytecode": "0x6080604052600060055534801561001557600080fd5b50336000806101000a81548173ffffffffffffffffffffffffffffffffffffffff021916908373ffffffffffffffffffffffffffffffffffffffff16021790555033600160006101000a81548173ffffffffffffffffffffffffffffffffffffffff021916908373ffffffffffffffffffffffffffffffffffffffff16021790555033600260006101000a81548173ffffffffffffffffffffffffffffffffffffffff021916908373ffffffffffffffffffffffffffffffffffffffff16021790555033600360006101000a81548173ffffffffffffffffffffffffffffffffffffffff021916908373ffffffffffffffffffffffffffffffffffffffff16021790555033600460006101000a81548173ffffffffffffffffffffffffffffffffffffffff021916908373ffffffffffffffffffffffffffffffffffffffff16021790555061455f806101696000396000f3fe608060405234801561001057600080fd5b50600436106103a45760003560e01c806391fe1a8f116101e9578063d092b7b31161010f578063e9bdf976116100ad578063f64458bd1161007c578063f64458bd14610cc5578063f8f1be2214610cf5578063f8f3d03714610d25578063fae6066414610d2f576103a4565b8063e9bdf97614610c19578063edcd526a14610c35578063f00c970414610c65578063f1e25e8514610c95576103a4565b8063ddf60c93116100e9578063ddf60c9314610b7f578063debf068214610b9b578063e2975f0914610bb9578063e83a8fdd14610be9576103a4565b8063d092b7b314610ae7578063d4b8df2214610b17578063ddeeeed514610b47576103a4565b8063af5dffde11610187578063bd0a4e9e11610156578063bd0a4e9e14610a3b578063c4e172da14610a57578063c627f1ee14610a87578063c6ede8bb14610ab7576103a4565b8063af5dffde146109a1578063af82e192146109bf578063b5b421e1146109ef578063bacd910c14610a1f576103a4565b806398316938116101c357806398316938146109075780639ca9dcab14610937578063a6838c7b14610955578063aaf837c514610985576103a4565b806391fe1a8f1461088b57806393d2c854146108bb57806397d397f1146108eb576103a4565b8063563f4f65116102ce57806370d2c46b1161026c578063829a262c1161023b578063829a262c146107ef57806385188f3c1461080d5780638bc4443e1461083d5780638c98876f1461086d576103a4565b806370d2c46b146107695780637135cc101461078557806372d9fe5d146107a15780637b2124d2146107d1576103a4565b80635bba8fef116102a85780635bba8fef146106bb57806369171f5c146106d9578063691d1c28146107095780637071af8414610739576103a4565b8063563f4f651461063d5780635713663c1461066d5780635aa644131461069d576103a4565b806326183717116103465780633a93c5fa116103155780633a93c5fa146105a55780634fd5d474146105c157806350de13f9146105f15780635283c4801461060d576103a4565b806326183717146104e557806326cecfcf146105155780632ecf6401146105455780633331cb3314610575576103a4565b806317dcaab61161038257806317dcaab61461042557806318a01aac146104555780631956fbc914610485578063213059dd146104b5576103a4565b806306e6a770146103a95780631268d42a146103d957806316fb584e146103f5575b600080fd5b6103c360048036038101906103be9190613392565b610d5f565b6040516103d091906133da565b60405180910390f35b6103f360048036038101906103ee919061342b565b610eb7565b005b61040f600480360381019061040a91906134a1565b610fb4565b60405161041c91906134dd565b60405180910390f35b61043f600480360381019061043a9190613392565b61101a565b60405161044c91906133da565b60405180910390f35b61046f600480360381019061046a91906134a1565b61116e565b60405161047c91906133da565b60405180910390f35b61049f600480360381019061049a91906134a1565b6111c1565b6040516104ac91906135b6565b60405180910390f35b6104cf60048036038101906104ca91906135d8565b611255565b6040516104dc91906136c3565b60405180910390f35b6104ff60048036038101906104fa91906134a1565b6112f9565b60405161050c91906135b6565b60405180910390f35b61052f600480360381019061052a91906134a1565b61138d565b60405161053c91906136f4565b60405180910390f35b61055f600480360381019061055a91906134a1565b6113d3565b60405161056c91906136f4565b60405180910390f35b61058f600480360381019061058a91906134a1565b611419565b60405161059c91906135b6565b60405180910390f35b6105bf60048036038101906105ba919061370f565b6114ad565b005b6105db60048036038101906105d691906135d8565b61156e565b6040516105e891906136c3565b60405180910390f35b61060b600480360381019061060691906138a8565b611612565b005b6106276004803603810190610622919061342b565b6116cf565b60405161063491906133da565b60405180910390f35b610657600480360381019061065291906134a1565b6116fe565b60405161066491906136c3565b60405180910390f35b610687600480360381019061068291906135d8565b6117c8565b6040516106949190613913565b60405180910390f35b6106a56117eb565b6040516106b291906134dd565b60405180910390f35b6106c361180f565b6040516106d091906134dd565b60405180910390f35b6106f360048036038101906106ee91906135d8565b611835565b60405161070091906135b6565b60405180910390f35b610723600480360381019061071e91906135d8565b6118a3565b60405161073091906134dd565b60405180910390f35b610753600480360381019061074e91906135d8565b6118e3565b60405161076091906136f4565b60405180910390f35b610783600480360381019061077e919061370f565b611903565b005b61079f600480360381019061079a91906139f1565b6119c4565b005b6107bb60048036038101906107b691906135d8565b611a83565b6040516107c891906135b6565b60405180910390f35b6107d9611af1565b6040516107e69190613913565b60405180910390f35b6107f7611af7565b60405161080491906134dd565b60405180910390f35b610827600480360381019061082291906135d8565b611b1d565b6040516108349190613913565b60405180910390f35b6108576004803603810190610852919061342b565b611b3d565b60405161086491906133da565b60405180910390f35b610875611b6c565b60405161088291906134dd565b60405180910390f35b6108a560048036038101906108a09190613392565b611b92565b6040516108b291906133da565b60405180910390f35b6108d560048036038101906108d091906134a1565b611cea565b6040516108e291906136c3565b60405180910390f35b6109056004803603810190610900919061342b565b611db4565b005b610921600480360381019061091c91906135d8565b611eb1565b60405161092e9190613913565b60405180910390f35b61093f611ed4565b60405161094c9190613913565b60405180910390f35b61096f600480360381019061096a9190613392565b611ede565b60405161097c91906133da565b60405180910390f35b61099f600480360381019061099a91906135d8565b612036565b005b6109a96124e7565b6040516109b691906134dd565b60405180910390f35b6109d960048036038101906109d491906134a1565b61250d565b6040516109e691906136f4565b60405180910390f35b610a096004803603810190610a0491906134a1565b612553565b604051610a1691906136c3565b60405180910390f35b610a396004803603810190610a3491906138a8565b61261d565b005b610a556004803603810190610a5091906138a8565b6126da565b005b610a716004803603810190610a6c9190613392565b612797565b604051610a7e91906133da565b60405180910390f35b610aa16004803603810190610a9c91906135d8565b6128ef565b604051610aae91906133da565b60405180910390f35b610ad16004803603810190610acc91906134a1565b61291c565b604051610ade9190613913565b60405180910390f35b610b016004803603810190610afc91906134a1565b612965565b604051610b0e9190613913565b60405180910390f35b610b316004803603810190610b2c91906135d8565b6129ae565b604051610b3e91906135b6565b60405180910390f35b610b616004803603810190610b5c91906135d8565b612a1c565b604051610b7699989796959493929190613ad5565b60405180910390f35b610b996004803603810190610b949190613e7c565b612b1f565b005b610ba3612d66565b604051610bb091906135b6565b60405180910390f35b610bd36004803603810190610bce91906135d8565b612dbe565b604051610be091906136f4565b60405180910390f35b610c036004803603810190610bfe91906134a1565b612dde565b604051610c109190613913565b60405180910390f35b610c336004803603810190610c2e91906139f1565b612e27565b005b610c4f6004803603810190610c4a91906135d8565b612ee6565b604051610c5c91906136c3565b60405180910390f35b610c7f6004803603810190610c7a91906134a1565b612f8a565b604051610c8c9190613913565b60405180910390f35b610caf6004803603810190610caa91906135d8565b612fd3565b604051610cbc91906136f4565b60405180910390f35b610cdf6004803603810190610cda91906135d8565b612ff3565b604051610cec9190613ed8565b60405180910390f35b610d0f6004803603810190610d0a91906135d8565b61309b565b604051610d1c9190613913565b60405180910390f35b610d2d6130be565b005b610d496004803603810190610d4491906135d8565b613166565b604051610d569190613913565b60405180910390f35b6000600360009054906101000a900473ffffffffffffffffffffffffffffffffffffffff1673ffffffffffffffffffffffffffffffffffffffff163373ffffffffffffffffffffffffffffffffffffffff1614610df1576040517f08c379a0000000000000000000000000000000000000000000000000000000008152600401610de890613f6c565b60405180910390fd5b81600360006101000a81548173ffffffffffffffffffffffffffffffffffffffff021916908373ffffffffffffffffffffffffffffffffffffffff160217905550600360009054906101000a900473ffffffffffffffffffffffffffffffffffffffff1673ffffffffffffffffffffffffffffffffffffffff163373ffffffffffffffffffffffffffffffffffffffff167f2364065f519eb2e0ac13040d65b1d1140f6677de0518b6dee6954e49f7f7a5b660405160405180910390a360019050919050565b600360009054906101000a900473ffffffffffffffffffffffffffffffffffffffff1673ffffffffffffffffffffffffffffffffffffffff163373ffffffffffffffffffffffffffffffffffffffff1614610f47576040517f08c379a0000000000000000000000000000000000000000000000000000000008152600401610f3e90613f6c565b60405180910390fd5b60016009600084815260200190815260200160002060008373ffffffffffffffffffffffffffffffffffffffff1673ffffffffffffffffffffffffffffffffffffffff16815260200190815260200160002060006101000a81548160ff0219169083151502179055505050565b60006007600083604051602001610fcb9190613fad565b604051602081830303815290604052805190602001208152602001908152602001600020600d0160009054906101000a900473ffffffffffffffffffffffffffffffffffffffff169050919050565b60008060009054906101000a900473ffffffffffffffffffffffffffffffffffffffff1673ffffffffffffffffffffffffffffffffffffffff163373ffffffffffffffffffffffffffffffffffffffff16146110ab576040517f08c379a00000000000000000000000000000000000000000000000000000000081526004016110a29061403a565b60405180910390fd5b816000806101000a81548173ffffffffffffffffffffffffffffffffffffffff021916908373ffffffffffffffffffffffffffffffffffffffff16021790555060008054906101000a900473ffffffffffffffffffffffffffffffffffffffff1673ffffffffffffffffffffffffffffffffffffffff163373ffffffffffffffffffffffffffffffffffffffff167f5f8b18be53cdf9843c4263461966fc46896a2d372d3fa87fc22f6cfed024186260405160405180910390a360019050919050565b600060076000836040516020016111859190613fad565b604051602081830303815290604052805190602001208152602001908152602001600020600d0160149054906101000a900460ff169050919050565b606060076000836040516020016111d89190613fad565b60405160208183030381529060405280519060200120815260200190815260200160002060070180548060200260200160405190810160405280929190818152602001828054801561124957602002820191906000526020600020905b815481526020019060010190808311611235575b50505050509050919050565b6060600760008381526020019081526020016000206004018054806020026020016040519081016040528092919081815260200182805480156112ed57602002820191906000526020600020905b8160009054906101000a900473ffffffffffffffffffffffffffffffffffffffff1673ffffffffffffffffffffffffffffffffffffffff16815260200190600101908083116112a3575b50505050509050919050565b606060076000836040516020016113109190613fad565b604051602081830303815290604052805190602001208152602001908152602001600020600a0180548060200260200160405190810160405280929190818152602001828054801561138157602002820191906000526020600020905b81548152602001906001019080831161136d575b50505050509050919050565b600060076000836040516020016113a49190613fad565b604051602081830303815290604052805190602001208152602001908152602001600020600b01549050919050565b600060076000836040516020016113ea9190613fad565b604051602081830303815290604052805190602001208152602001908152602001600020600c01549050919050565b606060076000836040516020016114309190613fad565b6040516020818303038152906040528051906020012081526020019081526020016000206006018054806020026020016040519081016040528092919081815260200182805480156114a157602002820191906000526020600020905b81548152602001906001019080831161148d575b50505050509050919050565b600460009054906101000a900473ffffffffffffffffffffffffffffffffffffffff1673ffffffffffffffffffffffffffffffffffffffff163373ffffffffffffffffffffffffffffffffffffffff161461153d576040517f08c379a0000000000000000000000000000000000000000000000000000000008152600401611534906140cc565b60405180910390fd5b80600760008481526020019081526020016000206003016000828254611563919061411b565b925050819055505050565b60606007600083815260200190815260200160002060050180548060200260200160405190810160405280929190818152602001828054801561160657602002820191906000526020600020905b8160009054906101000a900473ffffffffffffffffffffffffffffffffffffffff1673ffffffffffffffffffffffffffffffffffffffff16815260200190600101908083116115bc575b50505050509050919050565b60008054906101000a900473ffffffffffffffffffffffffffffffffffffffff1673ffffffffffffffffffffffffffffffffffffffff163373ffffffffffffffffffffffffffffffffffffffff16146116a0576040517f08c379a00000000000000000000000000000000000000000000000000000000081526004016116979061403a565b60405180910390fd5b806007600084815260200190815260200160002060060190805190602001906116ca929190613189565b505050565b60086020528160005260406000206020528060005260406000206000915091509054906101000a900460ff1681565b606060076000836040516020016117159190613fad565b6040516020818303038152906040528051906020012081526020019081526020016000206004018054806020026020016040519081016040528092919081815260200182805480156117bc57602002820191906000526020600020905b8160009054906101000a900473ffffffffffffffffffffffffffffffffffffffff1673ffffffffffffffffffffffffffffffffffffffff1681526020019060010190808311611772575b50505050509050919050565b600060076000838152602001908152602001600020600701805490509050919050565b60008054906101000a900473ffffffffffffffffffffffffffffffffffffffff1681565b600460009054906101000a900473ffffffffffffffffffffffffffffffffffffffff1681565b60606007600083815260200190815260200160002060070180548060200260200160405190810160405280929190818152602001828054801561189757602002820191906000526020600020905b815481526020019060010190808311611883575b50505050509050919050565b600060076000838152602001908152602001600020600d0160009054906101000a900473ffffffffffffffffffffffffffffffffffffffff169050919050565b600060076000838152602001908152602001600020600b01549050919050565b600460009054906101000a900473ffffffffffffffffffffffffffffffffffffffff1673ffffffffffffffffffffffffffffffffffffffff163373ffffffffffffffffffffffffffffffffffffffff1614611993576040517f08c379a000000000000000000000000000000000000000000000000000000000815260040161198a906141c1565b60405180910390fd5b806007600084815260200190815260200160002060030160008282546119b991906141e1565b925050819055505050565b600360009054906101000a900473ffffffffffffffffffffffffffffffffffffffff1673ffffffffffffffffffffffffffffffffffffffff163373ffffffffffffffffffffffffffffffffffffffff1614611a54576040517f08c379a0000000000000000000000000000000000000000000000000000000008152600401611a4b90613f6c565b60405180910390fd5b80600760008481526020019081526020016000206005019080519060200190611a7e9291906131d6565b505050565b606060076000838152602001908152602001600020600601805480602002602001604051908101604052809291908181526020018280548015611ae557602002820191906000526020600020905b815481526020019060010190808311611ad1575b50505050509050919050565b60055481565b600360009054906101000a900473ffffffffffffffffffffffffffffffffffffffff1681565b600060076000838152602001908152602001600020600301549050919050565b60096020528160005260406000206020528060005260406000206000915091509054906101000a900460ff1681565b600260009054906101000a900473ffffffffffffffffffffffffffffffffffffffff1681565b6000600460009054906101000a900473ffffffffffffffffffffffffffffffffffffffff1673ffffffffffffffffffffffffffffffffffffffff163373ffffffffffffffffffffffffffffffffffffffff1614611c24576040517f08c379a0000000000000000000000000000000000000000000000000000000008152600401611c1b90613f6c565b60405180910390fd5b81600460006101000a81548173ffffffffffffffffffffffffffffffffffffffff021916908373ffffffffffffffffffffffffffffffffffffffff160217905550600460009054906101000a900473ffffffffffffffffffffffffffffffffffffffff1673ffffffffffffffffffffffffffffffffffffffff163373ffffffffffffffffffffffffffffffffffffffff167f6892a8923ec61e89beaa10370e660884074b3bec292be12802599cf655bba75260405160405180910390a360019050919050565b60606007600083604051602001611d019190613fad565b604051602081830303815290604052805190602001208152602001908152602001600020600901805480602002602001604051908101604052809291908181526020018280548015611da857602002820191906000526020600020905b8160009054906101000a900473ffffffffffffffffffffffffffffffffffffffff1673ffffffffffffffffffffffffffffffffffffffff1681526020019060010190808311611d5e575b50505050509050919050565b600360009054906101000a900473ffffffffffffffffffffffffffffffffffffffff1673ffffffffffffffffffffffffffffffffffffffff163373ffffffffffffffffffffffffffffffffffffffff1614611e44576040517f08c379a0000000000000000000000000000000000000000000000000000000008152600401611e3b90613f6c565b60405180910390fd5b60016008600084815260200190815260200160002060008373ffffffffffffffffffffffffffffffffffffffff1673ffffffffffffffffffffffffffffffffffffffff16815260200190815260200160002060006101000a81548160ff0219169083151502179055505050565b600060076000838152602001908152602001600020600401805490509050919050565b6000600554905090565b6000600260009054906101000a900473ffffffffffffffffffffffffffffffffffffffff1673ffffffffffffffffffffffffffffffffffffffff163373ffffffffffffffffffffffffffffffffffffffff1614611f70576040517f08c379a0000000000000000000000000000000000000000000000000000000008152600401611f67906142a9565b60405180910390fd5b81600260006101000a81548173ffffffffffffffffffffffffffffffffffffffff021916908373ffffffffffffffffffffffffffffffffffffffff160217905550600260009054906101000a900473ffffffffffffffffffffffffffffffffffffffff1673ffffffffffffffffffffffffffffffffffffffff163373ffffffffffffffffffffffffffffffffffffffff167f76ce921e20c471c95deae34d20d53706ec4378ecab394e517f73aef912ae6cdd60405160405180910390a360019050919050565b60008054906101000a900473ffffffffffffffffffffffffffffffffffffffff1673ffffffffffffffffffffffffffffffffffffffff163373ffffffffffffffffffffffffffffffffffffffff16146120c4576040517f08c379a00000000000000000000000000000000000000000000000000000000081526004016120bb9061433b565b60405180910390fd5b6000604051806101e001604052808381526020016000815260200160405180602001604052806000815250815260200160008152602001600067ffffffffffffffff81111561211657612115613765565b5b6040519080825280602002602001820160405280156121445781602001602082028036833780820191505090505b508152602001600067ffffffffffffffff81111561216557612164613765565b5b6040519080825280602002602001820160405280156121935781602001602082028036833780820191505090505b508152602001600067ffffffffffffffff8111156121b4576121b3613765565b5b6040519080825280602002602001820160405280156121e25781602001602082028036833780820191505090505b508152602001600067ffffffffffffffff81111561220357612202613765565b5b6040519080825280602002602001820160405280156122315781602001602082028036833780820191505090505b5081526020016000801b8152602001600067ffffffffffffffff81111561225b5761225a613765565b5b6040519080825280602002602001820160405280156122895781602001602082028036833780820191505090505b50815260200160076000858152602001908152602001600020600a018054806020026020016040519081016040528092919081815260200182805480156122ef57602002820191906000526020600020905b8154815260200190600101908083116122db575b5050505050815260200160076000858152602001908152602001600020600b0154815260200160076000858152602001908152602001600020600c01548152602001600073ffffffffffffffffffffffffffffffffffffffff16815260200160001515815250905080600760008481526020019081526020016000206000820151816000015560208201518160010155604082015181600201908051906020019061239b929190613260565b506060820151816003015560808201518160040190805190602001906123c29291906131d6565b5060a08201518160050190805190602001906123df9291906131d6565b5060c08201518160060190805190602001906123fc929190613189565b5060e0820151816007019080519060200190612419929190613189565b5061010082015181600801556101208201518160090190805190602001906124429291906131d6565b5061014082015181600a019080519060200190612460929190613189565b5061016082015181600b015561018082015181600c01556101a082015181600d0160006101000a81548173ffffffffffffffffffffffffffffffffffffffff021916908373ffffffffffffffffffffffffffffffffffffffff1602179055506101c082015181600d0160146101000a81548160ff0219169083151502179055509050505050565b600160009054906101000a900473ffffffffffffffffffffffffffffffffffffffff1681565b600060076000836040516020016125249190613fad565b604051602081830303815290604052805190602001208152602001908152602001600020600001549050919050565b6060600760008360405160200161256a9190613fad565b60405160208183030381529060405280519060200120815260200190815260200160002060050180548060200260200160405190810160405280929190818152602001828054801561261157602002820191906000526020600020905b8160009054906101000a900473ffffffffffffffffffffffffffffffffffffffff1673ffffffffffffffffffffffffffffffffffffffff16815260200190600101908083116125c7575b50505050509050919050565b60008054906101000a900473ffffffffffffffffffffffffffffffffffffffff1673ffffffffffffffffffffffffffffffffffffffff163373ffffffffffffffffffffffffffffffffffffffff16146126ab576040517f08c379a00000000000000000000000000000000000000000000000000000000081526004016126a29061403a565b60405180910390fd5b8060076000848152602001908152602001600020600a0190805190602001906126d5929190613189565b505050565b60008054906101000a900473ffffffffffffffffffffffffffffffffffffffff1673ffffffffffffffffffffffffffffffffffffffff163373ffffffffffffffffffffffffffffffffffffffff1614612768576040517f08c379a000000000000000000000000000000000000000000000000000000000815260040161275f9061403a565b60405180910390fd5b80600760008481526020019081526020016000206007019080519060200190612792929190613189565b505050565b6000600160009054906101000a900473ffffffffffffffffffffffffffffffffffffffff1673ffffffffffffffffffffffffffffffffffffffff163373ffffffffffffffffffffffffffffffffffffffff1614612829576040517f08c379a00000000000000000000000000000000000000000000000000000000081526004016128209061403a565b60405180910390fd5b81600160006101000a81548173ffffffffffffffffffffffffffffffffffffffff021916908373ffffffffffffffffffffffffffffffffffffffff160217905550600160009054906101000a900473ffffffffffffffffffffffffffffffffffffffff1673ffffffffffffffffffffffffffffffffffffffff163373ffffffffffffffffffffffffffffffffffffffff167fdf570d582e474b2d7915b12f6f773eb74e4bc78a660caeeccf19491c8578507b60405160405180910390a360019050919050565b600060076000838152602001908152602001600020600d0160149054906101000a900460ff169050919050565b600060076000836040516020016129339190613fad565b604051602081830303815290604052805190602001208152602001908152602001600020600401805490509050919050565b6000600760008360405160200161297c9190613fad565b604051602081830303815290604052805190602001208152602001908152602001600020600a01805490509050919050565b606060076000838152602001908152602001600020600a01805480602002602001604051908101604052809291908181526020018280548015612a1057602002820191906000526020600020905b8154815260200190600101908083116129fc575b50505050509050919050565b6007602052806000526040600020600091509050806000015490806001015490806002018054612a4b9061438a565b80601f0160208091040260200160405190810160405280929190818152602001828054612a779061438a565b8015612ac45780601f10612a9957610100808354040283529160200191612ac4565b820191906000526020600020905b815481529060010190602001808311612aa757829003601f168201915b50505050509080600301549080600801549080600b01549080600c01549080600d0160009054906101000a900473ffffffffffffffffffffffffffffffffffffffff169080600d0160149054906101000a900460ff16905089565b60008054906101000a900473ffffffffffffffffffffffffffffffffffffffff1673ffffffffffffffffffffffffffffffffffffffff163373ffffffffffffffffffffffffffffffffffffffff1614612bad576040517f08c379a0000000000000000000000000000000000000000000000000000000008152600401612ba49061442e565b60405180910390fd5b806007600084815260200190815260200160002060008201518160000155602082015181600101556040820151816002019080519060200190612bf1929190613260565b50606082015181600301556080820151816004019080519060200190612c189291906131d6565b5060a0820151816005019080519060200190612c359291906131d6565b5060c0820151816006019080519060200190612c52929190613189565b5060e0820151816007019080519060200190612c6f929190613189565b506101008201518160080155610120820151816009019080519060200190612c989291906131d6565b5061014082015181600a019080519060200190612cb6929190613189565b5061016082015181600b015561018082015181600c01556101a082015181600d0160006101000a81548173ffffffffffffffffffffffffffffffffffffffff021916908373ffffffffffffffffffffffffffffffffffffffff1602179055506101c082015181600d0160146101000a81548160ff02191690831515021790555090505060068290806001815401808255809150506001900390600052602060002001600090919091909150555050565b60606006805480602002602001604051908101604052809291908181526020018280548015612db457602002820191906000526020600020905b815481526020019060010190808311612da0575b5050505050905090565b600060076000838152602001908152602001600020600801549050919050565b60006007600083604051602001612df59190613fad565b604051602081830303815290604052805190602001208152602001908152602001600020600701805490509050919050565b600360009054906101000a900473ffffffffffffffffffffffffffffffffffffffff1673ffffffffffffffffffffffffffffffffffffffff163373ffffffffffffffffffffffffffffffffffffffff1614612eb7576040517f08c379a0000000000000000000000000000000000000000000000000000000008152600401612eae90613f6c565b60405180910390fd5b80600760008481526020019081526020016000206004019080519060200190612ee19291906131d6565b505050565b606060076000838152602001908152602001600020600901805480602002602001604051908101604052809291908181526020018280548015612f7e57602002820191906000526020600020905b8160009054906101000a900473ffffffffffffffffffffffffffffffffffffffff1673ffffffffffffffffffffffffffffffffffffffff1681526020019060010190808311612f34575b50505050509050919050565b60006007600083604051602001612fa19190613fad565b604051602081830303815290604052805190602001208152602001908152602001600020600601805490509050919050565b600060076000838152602001908152602001600020600c01549050919050565b60606007600083815260200190815260200160002060020180546130169061438a565b80601f01602080910402602001604051908101604052809291908181526020018280546130429061438a565b801561308f5780601f106130645761010080835404028352916020019161308f565b820191906000526020600020905b81548152906001019060200180831161307257829003601f168201915b50505050509050919050565b600060076000838152602001908152602001600020600601805490509050919050565b60008054906101000a900473ffffffffffffffffffffffffffffffffffffffff1673ffffffffffffffffffffffffffffffffffffffff163373ffffffffffffffffffffffffffffffffffffffff161461314c576040517f08c379a0000000000000000000000000000000000000000000000000000000008152600401613143906144c0565b60405180910390fd5b6005600081548092919061315f906144e0565b9190505550565b600060076000838152602001908152602001600020600a01805490509050919050565b8280548282559060005260206000209081019282156131c5579160200282015b828111156131c45782518255916020019190600101906131a9565b5b5090506131d291906132e6565b5090565b82805482825590600052602060002090810192821561324f579160200282015b8281111561324e5782518260006101000a81548173ffffffffffffffffffffffffffffffffffffffff021916908373ffffffffffffffffffffffffffffffffffffffff160217905550916020019190600101906131f6565b5b50905061325c9190613303565b5090565b82805461326c9061438a565b90600052602060002090601f01602090048101928261328e57600085556132d5565b82601f106132a757805160ff19168380011785556132d5565b828001600101855582156132d5579182015b828111156132d45782518255916020019190600101906132b9565b5b5090506132e29190613303565b5090565b5b808211156132ff5760008160009055506001016132e7565b5090565b5b8082111561331c576000816000905550600101613304565b5090565b6000604051905090565b600080fd5b600080fd5b600073ffffffffffffffffffffffffffffffffffffffff82169050919050565b600061335f82613334565b9050919050565b61336f81613354565b811461337a57600080fd5b50565b60008135905061338c81613366565b92915050565b6000602082840312156133a8576133a761332a565b5b60006133b68482850161337d565b91505092915050565b60008115159050919050565b6133d4816133bf565b82525050565b60006020820190506133ef60008301846133cb565b92915050565b6000819050919050565b613408816133f5565b811461341357600080fd5b50565b600081359050613425816133ff565b92915050565b600080604083850312156134425761344161332a565b5b600061345085828601613416565b92505060206134618582860161337d565b9150509250929050565b6000819050919050565b61347e8161346b565b811461348957600080fd5b50565b60008135905061349b81613475565b92915050565b6000602082840312156134b7576134b661332a565b5b60006134c58482850161348c565b91505092915050565b6134d781613354565b82525050565b60006020820190506134f260008301846134ce565b92915050565b600081519050919050565b600082825260208201905092915050565b6000819050602082019050919050565b61352d816133f5565b82525050565b600061353f8383613524565b60208301905092915050565b6000602082019050919050565b6000613563826134f8565b61356d8185613503565b935061357883613514565b8060005b838110156135a95781516135908882613533565b975061359b8361354b565b92505060018101905061357c565b5085935050505092915050565b600060208201905081810360008301526135d08184613558565b905092915050565b6000602082840312156135ee576135ed61332a565b5b60006135fc84828501613416565b91505092915050565b600081519050919050565b600082825260208201905092915050565b6000819050602082019050919050565b61363a81613354565b82525050565b600061364c8383613631565b60208301905092915050565b6000602082019050919050565b600061367082613605565b61367a8185613610565b935061368583613621565b8060005b838110156136b657815161369d8882613640565b97506136a883613658565b925050600181019050613689565b5085935050505092915050565b600060208201905081810360008301526136dd8184613665565b905092915050565b6136ee816133f5565b82525050565b600060208201905061370960008301846136e5565b92915050565b600080604083850312156137265761372561332a565b5b600061373485828601613416565b92505060206137458582860161348c565b9150509250929050565b600080fd5b6000601f19601f8301169050919050565b7f4e487b7100000000000000000000000000000000000000000000000000000000600052604160045260246000fd5b61379d82613754565b810181811067ffffffffffffffff821117156137bc576137bb613765565b5b80604052505050565b60006137cf613320565b90506137db8282613794565b919050565b600067ffffffffffffffff8211156137fb576137fa613765565b5b602082029050602081019050919050565b600080fd5b600061382461381f846137e0565b6137c5565b905080838252602082019050602084028301858111156138475761384661380c565b5b835b81811015613870578061385c8882613416565b845260208401935050602081019050613849565b5050509392505050565b600082601f83011261388f5761388e61374f565b5b813561389f848260208601613811565b91505092915050565b600080604083850312156138bf576138be61332a565b5b60006138cd85828601613416565b925050602083013567ffffffffffffffff8111156138ee576138ed61332f565b5b6138fa8582860161387a565b9150509250929050565b61390d8161346b565b82525050565b60006020820190506139286000830184613904565b92915050565b600067ffffffffffffffff82111561394957613948613765565b5b602082029050602081019050919050565b600061396d6139688461392e565b6137c5565b905080838252602082019050602084028301858111156139905761398f61380c565b5b835b818110156139b957806139a5888261337d565b845260208401935050602081019050613992565b5050509392505050565b600082601f8301126139d8576139d761374f565b5b81356139e884826020860161395a565b91505092915050565b60008060408385031215613a0857613a0761332a565b5b6000613a1685828601613416565b925050602083013567ffffffffffffffff811115613a3757613a3661332f565b5b613a43858286016139c3565b9150509250929050565b600081519050919050565b600082825260208201905092915050565b60005b83811015613a87578082015181840152602081019050613a6c565b83811115613a96576000848401525b50505050565b6000613aa782613a4d565b613ab18185613a58565b9350613ac1818560208601613a69565b613aca81613754565b840191505092915050565b600061012082019050613aeb600083018c6136e5565b613af8602083018b613904565b8181036040830152613b0a818a613a9c565b9050613b196060830189613904565b613b2660808301886136e5565b613b3360a08301876136e5565b613b4060c08301866136e5565b613b4d60e08301856134ce565b613b5b6101008301846133cb565b9a9950505050505050505050565b600080fd5b600080fd5b600080fd5b600067ffffffffffffffff821115613b9357613b92613765565b5b613b9c82613754565b9050602081019050919050565b82818337600083830152505050565b6000613bcb613bc684613b78565b6137c5565b905082815260208101848484011115613be757613be6613b73565b5b613bf2848285613ba9565b509392505050565b600082601f830112613c0f57613c0e61374f565b5b8135613c1f848260208601613bb8565b91505092915050565b613c31816133bf565b8114613c3c57600080fd5b50565b600081359050613c4e81613c28565b92915050565b60006101e08284031215613c6b57613c6a613b69565b5b613c766101e06137c5565b90506000613c8684828501613416565b6000830152506020613c9a8482850161348c565b602083015250604082013567ffffffffffffffff811115613cbe57613cbd613b6e565b5b613cca84828501613bfa565b6040830152506060613cde8482850161348c565b606083015250608082013567ffffffffffffffff811115613d0257613d01613b6e565b5b613d0e848285016139c3565b60808301525060a082013567ffffffffffffffff811115613d3257613d31613b6e565b5b613d3e848285016139c3565b60a08301525060c082013567ffffffffffffffff811115613d6257613d61613b6e565b5b613d6e8482850161387a565b60c08301525060e082013567ffffffffffffffff811115613d9257613d91613b6e565b5b613d9e8482850161387a565b60e083015250610100613db384828501613416565b6101008301525061012082013567ffffffffffffffff811115613dd957613dd8613b6e565b5b613de5848285016139c3565b6101208301525061014082013567ffffffffffffffff811115613e0b57613e0a613b6e565b5b613e178482850161387a565b61014083015250610160613e2d84828501613416565b61016083015250610180613e4384828501613416565b610180830152506101a0613e598482850161337d565b6101a0830152506101c0613e6f84828501613c3f565b6101c08301525092915050565b60008060408385031215613e9357613e9261332a565b5b6000613ea185828601613416565b925050602083013567ffffffffffffffff811115613ec257613ec161332f565b5b613ece85828601613c54565b9150509250929050565b60006020820190508181036000830152613ef28184613a9c565b905092915050565b7f4572726f723a206d73672e73656e646572206d757374206265206c696b65536960008201527f676e657200000000000000000000000000000000000000000000000000000000602082015250565b6000613f56602483613a58565b9150613f6182613efa565b604082019050919050565b60006020820190508181036000830152613f8581613f49565b9050919050565b6000819050919050565b613fa7613fa28261346b565b613f8c565b82525050565b6000613fb98284613f96565b60208201915081905092915050565b7f4572726f723a206d73672e73656e646572206d75737420626520666163746f7260008201527f795369676e657200000000000000000000000000000000000000000000000000602082015250565b6000614024602783613a58565b915061402f82613fc8565b604082019050919050565b6000602082019050818103600083015261405381614017565b9050919050565b7f4572726f723a206d73672e73656e646572206d757374206265206c696b652c2060008201527f706f73742c206f7220626f6f7374207369676e65720000000000000000000000602082015250565b60006140b6603583613a58565b91506140c18261405a565b604082019050919050565b600060208201905081810360008301526140e5816140a9565b9050919050565b7f4e487b7100000000000000000000000000000000000000000000000000000000600052601160045260246000fd5b60006141268261346b565b91506141318361346b565b925082821015614144576141436140ec565b5b828203905092915050565b7f4572726f723a206d73672e73656e646572206d75737420626520626f6f73742060008201527f7369676e65720000000000000000000000000000000000000000000000000000602082015250565b60006141ab602683613a58565b91506141b68261414f565b604082019050919050565b600060208201905081810360008301526141da8161419e565b9050919050565b60006141ec8261346b565b91506141f78361346b565b9250827fffffffffffffffffffffffffffffffffffffffffffffffffffffffffffffffff0382111561422c5761422b6140ec565b5b828201905092915050565b7f4572726f723a206d73672e73656e646572206d75737420626520706f7374536960008201527f676e657200000000000000000000000000000000000000000000000000000000602082015250565b6000614293602483613a58565b915061429e82614237565b604082019050919050565b600060208201905081810360008301526142c281614286565b9050919050565b7f4572726f723a206f6e6c7920666163746f72795369676e65722063616e20646560008201527f6c65746500000000000000000000000000000000000000000000000000000000602082015250565b6000614325602483613a58565b9150614330826142c9565b604082019050919050565b6000602082019050818103600083015261435481614318565b9050919050565b7f4e487b7100000000000000000000000000000000000000000000000000000000600052602260045260246000fd5b600060028204905060018216806143a257607f821691505b602082108114156143b6576143b561435b565b5b50919050565b7f4572726f723a206d73672e73656e646572206d757374206265206d656d65466160008201527f63746f727920746f20637265617465206d656d65000000000000000000000000602082015250565b6000614418603483613a58565b9150614423826143bc565b604082019050919050565b600060208201905081810360008301526144478161440b565b9050919050565b7f4572726f723a206f6e6c7920666163746f72795369676e65722063616e20696e60008201527f63726561736520436f756e740000000000000000000000000000000000000000602082015250565b60006144aa602c83613a58565b91506144b58261444e565b604082019050919050565b600060208201905081810360008301526144d98161449d565b9050919050565b60006144eb8261346b565b91507fffffffffffffffffffffffffffffffffffffffffffffffffffffffffffffffff82141561451e5761451d6140ec565b5b60018201905091905056fea26469706673582212204dce1a61e0a4901ff2b1513917f63b31c4ee5949daae07816cc3d6f6fa6cb39564736f6c63430008090033",
  "immutableReferences": {},
  "source": "// SPDX-License-Identifier: MIT\n\npragma solidity >=0.8.0 <0.9.0;\n\ncontract MemeStorage {\n  address public factorySigner;\n  address public interfaceSigner;\n  address public postSigner;\n  address public likeSigner;\n  address public boostSigner;\n\n  uint public memeCount = 0;\n  bytes32[] memeIds;\n\n  // mapping of Memes\n  mapping(bytes32 => Meme) public memes; // memeId to meme map\n  mapping(bytes32 => mapping(address => bool)) public hasLiked;\n  mapping(bytes32 => mapping(address => bool)) public hasUnliked;\n\n  // Meme structure\n  struct Meme {\n    bytes32 id; // number in all of timeline\n    uint time; // time of post\n    string text; // text of Meme\n    uint boosts; // boost value\n    address[] likers; // list of addresses of likers\n    address[] unlikers; // list of addresses that have unliked\n    bytes32[] reposts; // list of ids that have reposted\n    bytes32[] quotePosts; // list of ids that have quotePosted\n    bytes32 repostId;// repost id\n    address[] tags; // list of id's of tagged\n    bytes32[] responses; // collection of id's of responses\n    bytes32 parentId; // memeId of parent (can be self)\n    bytes32 originId; // memeId of origin (can be self)\n    address author; // address of author\n    bool isVisible; // is visible\n  }\n\n  event FactorySignerChanged(\n        address indexed from,\n        address indexed to);\n  event InterfaceSignerChanged(\n        address indexed from,\n        address indexed to);\n  event PostSignerChanged(\n        address indexed from,\n        address indexed to);\n  event LikeSignerChanged(\n        address indexed from,\n        address indexed to);\n  event BoostSignerChanged(\n        address indexed from,\n        address indexed to);\n\n  constructor() public {\n    factorySigner = msg.sender;\n    interfaceSigner = msg.sender;\n    postSigner = msg.sender;\n    likeSigner = msg.sender;\n    boostSigner = msg.sender;\n  }\n\n  // Factory-Specific setters\n  function setMeme(\n            bytes32 _memeId,\n            Meme memory _meme)\n            public {\n    require(\n      msg.sender==factorySigner,\n      'Error: msg.sender must be memeFactory to create meme');\n    memes[_memeId] = _meme;\n    memeIds.push(_memeId);\n  }\n  function deleteMeme(bytes32 _memeId)\n            public {\n    require(\n      msg.sender==factorySigner,\n      'Error: only factorySigner can delete');\n    // create empty Meme instance\n    Meme memory _meme = Meme(\n      _memeId,\n      0,\n      '',\n      0,\n      new address[](0),\n      new address[](0),\n      new bytes32[](0),\n      new bytes32[](0),\n      0x0,\n      new address[](0),\n      memes[_memeId].responses,\n      memes[_memeId].parentId,\n      memes[_memeId].originId,\n      address(0x0),\n      false\n    );\n    memes[_memeId] = _meme;\n  }\n  function increaseMemeCount()\n            public {\n    require(\n      msg.sender==factorySigner,\n      'Error: only factorySigner can increase Count'\n    );\n    memeCount++;\n  }\n\n  function setResponses(\n            bytes32 _memeId,\n            bytes32[] memory _responses)\n            public {\n    require(\n      msg.sender==factorySigner,\n      'Error: msg.sender must be factorySigner');\n    memes[_memeId].responses = _responses;\n  }\n\n  function setReposts(\n            bytes32 _memeId,\n            bytes32[] memory _reposts)\n            public {\n    require(\n      msg.sender==factorySigner,\n      'Error: msg.sender must be factorySigner');\n    memes[_memeId].reposts = _reposts;\n  }\n  function setQuotePosts(\n            bytes32 _memeId,\n            bytes32[] memory _quotePosts)\n            public {\n    require(\n      msg.sender==factorySigner,\n      'Error: msg.sender must be factorySigner');\n    memes[_memeId].quotePosts = _quotePosts;\n  }\n\n  function setLikers(\n            bytes32 _memeId,\n            address[] memory _likers)\n            public {\n    require(\n      msg.sender==likeSigner,\n      'Error: msg.sender must be likeSigner');\n    memes[_memeId].likers = _likers;\n  }\n  function setUnlikers(\n            bytes32 _memeId,\n            address[] memory _unlikers)\n            public {\n    require(\n      msg.sender==likeSigner,\n      'Error: msg.sender must be likeSigner');\n    memes[_memeId].unlikers = _unlikers;\n  }\n  function setHasLiked(\n            bytes32 _memeId,\n            address _account)\n            public {\n    require(\n      msg.sender==likeSigner,\n      'Error: msg.sender must be likeSigner');\n    hasLiked[_memeId][_account] = true;\n  }\n  function setHasUnliked(\n            bytes32 _memeId,\n            address _account)\n            public {\n    require(\n      msg.sender==likeSigner,\n      'Error: msg.sender must be likeSigner');\n    hasUnliked[_memeId][_account] = true;\n  }\n\n  function addBoost(\n            bytes32 _memeId,\n            uint _boosts)\n            public {\n    require(\n      msg.sender==boostSigner,\n      'Error: msg.sender must be boost signer');\n    memes[_memeId].boosts += _boosts;\n  }\n  function subtractBoost(\n            bytes32 _memeId,\n            uint _boosts)\n            public {\n    require(\n      msg.sender==boostSigner,\n      'Error: msg.sender must be like, post, or boost signer');\n    memes[_memeId].boosts -= _boosts;\n  }\n\n  // getter functions for Meme\n  function getMemeCount()\n            public view returns(uint) {\n    return memeCount;\n  }\n\n  function getText(bytes32 _memeId)\n            public view returns(string memory) {\n    return memes[_memeId].text;\n  }\n  function getLikeCount(bytes32 _memeId)\n            public view returns(uint) {\n    return memes[_memeId].likers.length;\n  }\n  function getBoost(bytes32 _memeId)\n            public view returns(uint) {\n    return memes[_memeId].boosts;\n  }\n  function getLikers(bytes32 _memeId)\n            public view returns(address[] memory) {\n    return memes[_memeId].likers;\n  }\n  function getUnlikers(bytes32 _memeId)\n            public view returns(address[] memory) {\n    return memes[_memeId].unlikers;\n  }\n  function getRepostCount(bytes32 _memeId)\n            public view returns(uint) {\n    return memes[_memeId].reposts.length;\n  }\n  function getReposts(bytes32 _memeId)\n            public view returns(bytes32[] memory) {\n    return memes[_memeId].reposts;\n  }\n  function getQuotePostCount(bytes32 _memeId)\n            public view returns(uint) {\n    return memes[_memeId].quotePosts.length;\n  }\n  function getQuotePosts(bytes32 _memeId)\n            public view returns(bytes32[] memory) {\n    return memes[_memeId].quotePosts;\n  }\n  function getTags(bytes32 _memeId)\n            public view returns(address[] memory) {\n    return memes[_memeId].tags;\n  }\n  function getResponseCount(bytes32 _memeId)\n            public view returns(uint) {\n    return memes[_memeId].responses.length;\n  }\n  function getResponses(bytes32 _memeId)\n            public view returns(bytes32[] memory) {\n    return memes[_memeId].responses;\n  }\n  function getParentId(bytes32 _memeId)\n            public view returns(bytes32) {\n    return memes[_memeId].parentId;\n  }\n  function getOriginId(bytes32 _memeId)\n            public view returns(bytes32) {\n    return memes[_memeId].originId;\n  }\n  function getRepostId(bytes32 _memeId)\n            public view returns(bytes32) {\n    return memes[_memeId].repostId;\n  }\n  function getAuthor(bytes32 _memeId)\n            public view returns(address) {\n    return memes[_memeId].author;\n  }\n  function getVisibility(bytes32 _memeId)\n            public view returns(bool) {\n    return memes[_memeId].isVisible;\n  }\n  function getEncodedIds()\n            public view returns(bytes32[] memory) {\n    return memeIds;\n  }\n\n// encode uint for testing\n  function getEncodeId(uint _memeId)\n            public view returns(bytes32) {\n    return memes[keccak256(abi.encodePacked(_memeId))].id;\n  }\n  function getEncodeLikeCount(uint _memeId)\n            public view returns(uint) {\n    return memes[keccak256(abi.encodePacked(_memeId))].likers.length;\n  }\n  function getEncodeLikers(uint _memeId)\n            public view returns(address[] memory) {\n    return memes[keccak256(abi.encodePacked(_memeId))].likers;\n  }\n  function getEncodeUnlikers(uint _memeId)\n            public view returns(address[] memory) {\n    return memes[keccak256(abi.encodePacked(_memeId))].unlikers;\n  }\n  function getEncodeRepostCount(uint _memeId)\n            public view returns(uint) {\n    return memes[keccak256(abi.encodePacked(_memeId))].reposts.length;\n  }\n  function getEncodeReposts(uint _memeId)\n            public view returns(bytes32[] memory) {\n    return memes[keccak256(abi.encodePacked(_memeId))].reposts;\n  }\n  function getEncodeQuotePostCount(uint _memeId)\n            public view returns(uint) {\n    return memes[keccak256(abi.encodePacked(_memeId))].quotePosts.length;\n  }\n  function getEncodeQuotePosts(uint _memeId)\n            public view returns(bytes32[] memory) {\n    return memes[keccak256(abi.encodePacked(_memeId))].quotePosts;\n  }\n  function getEncodeTags(uint _memeId)\n            public view returns(address[] memory) {\n    return memes[keccak256(abi.encodePacked(_memeId))].tags;\n  }\n  function getEncodeResponseCount(uint _memeId)\n            public view returns(uint) {\n    return memes[keccak256(abi.encodePacked(_memeId))].responses.length;\n  }\n  function getEncodeResponses(uint _memeId)\n            public view returns(bytes32[] memory) {\n    return memes[keccak256(abi.encodePacked(_memeId))].responses;\n  }\n  function getEncodeParentId(uint _memeId)\n            public view returns(bytes32) {\n    return memes[keccak256(abi.encodePacked(_memeId))].parentId;\n  }\n  function getEncodeOriginId(uint _memeId)\n            public view returns(bytes32) {\n    return memes[keccak256(abi.encodePacked(_memeId))].originId;\n  }\n  function getEncodeAuthor(uint _memeId)\n            public view returns(address) {\n    return memes[keccak256(abi.encodePacked(_memeId))].author;\n  }\n  function getEncodeVisibility(uint _memeId)\n            public view returns(bool) {\n    return memes[keccak256(abi.encodePacked(_memeId))].isVisible;\n  }\n\n  // set caller role to User upon deployment\n  function passFactorySigner(address _memeFactory)\n            public returns (bool) {\n    require(\n      msg.sender == factorySigner,\n      'Error: msg.sender must be factorySigner');\n\n    factorySigner = _memeFactory;\n    emit FactorySignerChanged(msg.sender, factorySigner);\n    return true;\n  }\n  function passInterfaceSigner(address _userInterface)\n            public returns (bool) {\n    require(\n      msg.sender == interfaceSigner,\n      'Error: msg.sender must be factorySigner');\n\n    interfaceSigner = _userInterface;\n    emit InterfaceSignerChanged(msg.sender, interfaceSigner);\n    return true;\n  }\n  function passPostSigner(address _post)\n            public returns (bool) {\n    require(\n      msg.sender == postSigner,\n      'Error: msg.sender must be postSigner');\n\n    postSigner = _post;\n    emit PostSignerChanged(msg.sender, postSigner);\n    return true;\n  }\n  function passLikeSigner(address _like)\n            public returns (bool) {\n    require(\n      msg.sender == likeSigner,\n      'Error: msg.sender must be likeSigner');\n\n    likeSigner = _like;\n    emit LikeSignerChanged(msg.sender, likeSigner);\n    return true;\n  }\n  function passBoostSigner(address _boost)\n            public returns (bool) {\n    require(\n      msg.sender == boostSigner,\n      'Error: msg.sender must be likeSigner');\n\n    boostSigner = _boost;\n    emit BoostSignerChanged(msg.sender, boostSigner);\n    return true;\n  }\n}\n",
  "sourcePath": "/Users/jaiq/Documents/000 BLOCKCHAIN/ETH/uMe/src/contracts/MemeStorage.sol",
  "compiler": {
    "name": "solc",
    "version": "0.8.9+commit.e5eed63a.Emscripten.clang"
  },
  "schemaVersion": "3.4.3",
  "updatedAt": "2021-11-01T06:20:12.315Z",
  "devdoc": {
    "kind": "dev",
    "methods": {},
    "version": 1
  },
  "userdoc": {
    "kind": "user",
    "methods": {},
    "version": 1
  }
}