{
  "contractName": "Post",
  "abi": [
    {
      "inputs": [
        {
          "internalType": "contract UME",
          "name": "_umeToken",
          "type": "address"
        },
        {
          "internalType": "contract MemeFactory",
          "name": "_memeFactory",
          "type": "address"
        },
        {
          "internalType": "contract MemeStorage",
          "name": "_memeStorage",
          "type": "address"
        }
      ],
      "stateMutability": "nonpayable",
      "type": "constructor"
    },
    {
      "anonymous": false,
      "inputs": [
        {
          "indexed": true,
          "internalType": "address",
          "name": "from",
          "type": "address"
        },
        {
          "indexed": true,
          "internalType": "address",
          "name": "to",
          "type": "address"
        }
      ],
      "name": "InterfaceSignerChanged",
      "type": "event"
    },
    {
      "inputs": [
        {
          "internalType": "address",
          "name": "_account",
          "type": "address"
        },
        {
          "internalType": "string",
          "name": "_memeText",
          "type": "string"
        },
        {
          "internalType": "address[]",
          "name": "_tags",
          "type": "address[]"
        },
        {
          "internalType": "bytes32",
          "name": "_parentId",
          "type": "bytes32"
        },
        {
          "internalType": "bytes32",
          "name": "_originId",
          "type": "bytes32"
        }
      ],
      "name": "newMeme",
      "outputs": [],
      "stateMutability": "nonpayable",
      "type": "function"
    },
    {
      "inputs": [
        {
          "internalType": "address",
          "name": "_account",
          "type": "address"
        },
        {
          "internalType": "bytes32",
          "name": "_memeId",
          "type": "bytes32"
        }
      ],
      "name": "rememe",
      "outputs": [],
      "stateMutability": "nonpayable",
      "type": "function"
    },
    {
      "inputs": [
        {
          "internalType": "address",
          "name": "_account",
          "type": "address"
        },
        {
          "internalType": "string",
          "name": "_memeText",
          "type": "string"
        },
        {
          "internalType": "address[]",
          "name": "_tags",
          "type": "address[]"
        },
        {
          "internalType": "bytes32",
          "name": "_parentId",
          "type": "bytes32"
        },
        {
          "internalType": "bytes32",
          "name": "_originId",
          "type": "bytes32"
        },
        {
          "internalType": "bytes32",
          "name": "_repostId",
          "type": "bytes32"
        }
      ],
      "name": "quoteMeme",
      "outputs": [],
      "stateMutability": "nonpayable",
      "type": "function"
    },
    {
      "inputs": [
        {
          "internalType": "bytes32",
          "name": "_memeId",
          "type": "bytes32"
        }
      ],
      "name": "deleteMeme",
      "outputs": [],
      "stateMutability": "nonpayable",
      "type": "function"
    },
    {
      "inputs": [
        {
          "internalType": "address",
          "name": "_userInterface",
          "type": "address"
        }
      ],
      "name": "passInterfaceSigner",
      "outputs": [
        {
          "internalType": "bool",
          "name": "",
          "type": "bool"
        }
      ],
      "stateMutability": "nonpayable",
      "type": "function"
    }
  ],
  "bytecode": "0x60806040523480156200001157600080fd5b50604051620018c4380380620018c4833981810160405281019062000037919062000188565b826000806101000a81548173ffffffffffffffffffffffffffffffffffffffff021916908373ffffffffffffffffffffffffffffffffffffffff16021790555081600160006101000a81548173ffffffffffffffffffffffffffffffffffffffff021916908373ffffffffffffffffffffffffffffffffffffffff16021790555080600260006101000a81548173ffffffffffffffffffffffffffffffffffffffff021916908373ffffffffffffffffffffffffffffffffffffffff16021790555033600360006101000a81548173ffffffffffffffffffffffffffffffffffffffff021916908373ffffffffffffffffffffffffffffffffffffffff160217905550505050620002a7565b600081519050620001548162000259565b92915050565b6000815190506200016b8162000273565b92915050565b60008151905062000182816200028d565b92915050565b600080600060608486031215620001a457620001a362000254565b5b6000620001b48682870162000171565b9350506020620001c78682870162000143565b9250506040620001da868287016200015a565b9150509250925092565b6000620001f18262000234565b9050919050565b60006200020582620001e4565b9050919050565b60006200021982620001e4565b9050919050565b60006200022d82620001e4565b9050919050565b600073ffffffffffffffffffffffffffffffffffffffff82169050919050565b600080fd5b6200026481620001f8565b81146200027057600080fd5b50565b6200027e816200020c565b81146200028a57600080fd5b50565b620002988162000220565b8114620002a457600080fd5b50565b61160d80620002b76000396000f3fe608060405234801561001057600080fd5b50600436106100575760003560e01c8063654ea4841461005c5780636b0a493e14610078578063aaf837c514610094578063c4e172da146100b0578063d71a4855146100e0575b600080fd5b61007660048036038101906100719190610e9a565b6100fc565b005b610092600480360381019061008d9190610da7565b610440565b005b6100ae60048036038101906100a99190610f5f565b6107cb565b005b6100ca60048036038101906100c59190610d4d565b6108eb565b6040516100d79190611238565b60405180910390f35b6100fa60048036038101906100f59190610de7565b610a43565b005b600360009054906101000a900473ffffffffffffffffffffffffffffffffffffffff1673ffffffffffffffffffffffffffffffffffffffff163373ffffffffffffffffffffffffffffffffffffffff161461018c576040517f08c379a0000000000000000000000000000000000000000000000000000000008152600401610183906112ae565b60405180910390fd5b600160009054906101000a900473ffffffffffffffffffffffffffffffffffffffff1673ffffffffffffffffffffffffffffffffffffffff16637527e6248787878787876040518763ffffffff1660e01b81526004016101f19695949392919061115c565b600060405180830381600087803b15801561020b57600080fd5b505af115801561021f573d6000803e3d6000fd5b50505050600260009054906101000a900473ffffffffffffffffffffffffffffffffffffffff1673ffffffffffffffffffffffffffffffffffffffff1663691d1c28826040518263ffffffff1660e01b815260040161027e9190611253565b60206040518083038186803b15801561029657600080fd5b505afa1580156102aa573d6000803e3d6000fd5b505050506040513d601f19601f820116820180604052508101906102ce9190610d7a565b73ffffffffffffffffffffffffffffffffffffffff168673ffffffffffffffffffffffffffffffffffffffff16146104385760008054906101000a900473ffffffffffffffffffffffffffffffffffffffff1673ffffffffffffffffffffffffffffffffffffffff1663f52548d487600260009054906101000a900473ffffffffffffffffffffffffffffffffffffffff1673ffffffffffffffffffffffffffffffffffffffff1663691d1c28876040518263ffffffff1660e01b81526004016103989190611253565b60206040518083038186803b1580156103b057600080fd5b505afa1580156103c4573d6000803e3d6000fd5b505050506040513d601f19601f820116820180604052508101906103e89190610d7a565b6040518363ffffffff1660e01b8152600401610405929190611103565b600060405180830381600087803b15801561041f57600080fd5b505af1158015610433573d6000803e3d6000fd5b505050505b505050505050565b600360009054906101000a900473ffffffffffffffffffffffffffffffffffffffff1673ffffffffffffffffffffffffffffffffffffffff163373ffffffffffffffffffffffffffffffffffffffff16146104d0576040517f08c379a00000000000000000000000000000000000000000000000000000000081526004016104c7906112ae565b60405180910390fd5b600160009054906101000a900473ffffffffffffffffffffffffffffffffffffffff1673ffffffffffffffffffffffffffffffffffffffff16637527e62483600067ffffffffffffffff81111561052a57610529611460565b5b6040519080825280602002602001820160405280156105585781602001602082028036833780820191505090505b50600454600454866040518663ffffffff1660e01b81526004016105809594939291906111cb565b600060405180830381600087803b15801561059a57600080fd5b505af11580156105ae573d6000803e3d6000fd5b50505050600260009054906101000a900473ffffffffffffffffffffffffffffffffffffffff1673ffffffffffffffffffffffffffffffffffffffff1663691d1c28826040518263ffffffff1660e01b815260040161060d9190611253565b60206040518083038186803b15801561062557600080fd5b505afa158015610639573d6000803e3d6000fd5b505050506040513d601f19601f8201168201806040525081019061065d9190610d7a565b73ffffffffffffffffffffffffffffffffffffffff168273ffffffffffffffffffffffffffffffffffffffff16146107c75760008054906101000a900473ffffffffffffffffffffffffffffffffffffffff1673ffffffffffffffffffffffffffffffffffffffff1663f52548d483600260009054906101000a900473ffffffffffffffffffffffffffffffffffffffff1673ffffffffffffffffffffffffffffffffffffffff1663691d1c28856040518263ffffffff1660e01b81526004016107279190611253565b60206040518083038186803b15801561073f57600080fd5b505afa158015610753573d6000803e3d6000fd5b505050506040513d601f19601f820116820180604052508101906107779190610d7a565b6040518363ffffffff1660e01b8152600401610794929190611103565b600060405180830381600087803b1580156107ae57600080fd5b505af11580156107c2573d6000803e3d6000fd5b505050505b5050565b600360009054906101000a900473ffffffffffffffffffffffffffffffffffffffff1673ffffffffffffffffffffffffffffffffffffffff163373ffffffffffffffffffffffffffffffffffffffff161461085b576040517f08c379a00000000000000000000000000000000000000000000000000000000081526004016108529061126e565b60405180910390fd5b600260009054906101000a900473ffffffffffffffffffffffffffffffffffffffff1673ffffffffffffffffffffffffffffffffffffffff1663aaf837c5826040518263ffffffff1660e01b81526004016108b69190611253565b600060405180830381600087803b1580156108d057600080fd5b505af11580156108e4573d6000803e3d6000fd5b5050505050565b6000600360009054906101000a900473ffffffffffffffffffffffffffffffffffffffff1673ffffffffffffffffffffffffffffffffffffffff163373ffffffffffffffffffffffffffffffffffffffff161461097d576040517f08c379a00000000000000000000000000000000000000000000000000000000081526004016109749061128e565b60405180910390fd5b81600360006101000a81548173ffffffffffffffffffffffffffffffffffffffff021916908373ffffffffffffffffffffffffffffffffffffffff160217905550600360009054906101000a900473ffffffffffffffffffffffffffffffffffffffff1673ffffffffffffffffffffffffffffffffffffffff163373ffffffffffffffffffffffffffffffffffffffff167fdf570d582e474b2d7915b12f6f773eb74e4bc78a660caeeccf19491c8578507b60405160405180910390a360019050919050565b600360009054906101000a900473ffffffffffffffffffffffffffffffffffffffff1673ffffffffffffffffffffffffffffffffffffffff163373ffffffffffffffffffffffffffffffffffffffff1614610ad3576040517f08c379a0000000000000000000000000000000000000000000000000000000008152600401610aca906112ae565b60405180910390fd5b600160009054906101000a900473ffffffffffffffffffffffffffffffffffffffff1673ffffffffffffffffffffffffffffffffffffffff16637527e62486868686866004546040518763ffffffff1660e01b8152600401610b3a9695949392919061115c565b600060405180830381600087803b158015610b5457600080fd5b505af1158015610b68573d6000803e3d6000fd5b5050505060008054906101000a900473ffffffffffffffffffffffffffffffffffffffff1673ffffffffffffffffffffffffffffffffffffffff166376bd8f8c86866040518363ffffffff1660e01b8152600401610bc792919061112c565b600060405180830381600087803b158015610be157600080fd5b505af1158015610bf5573d6000803e3d6000fd5b505050505050505050565b6000610c13610c0e846112f3565b6112ce565b90508083825260208201905082856020860282011115610c3657610c35611494565b5b60005b85811015610c665781610c4c8882610cb2565b845260208401935060208301925050600181019050610c39565b5050509392505050565b6000610c83610c7e8461131f565b6112ce565b905082815260208101848484011115610c9f57610c9e611499565b5b610caa8482856113ed565b509392505050565b600081359050610cc1816115a9565b92915050565b600081519050610cd6816115a9565b92915050565b600082601f830112610cf157610cf061148f565b5b8135610d01848260208601610c00565b91505092915050565b600081359050610d19816115c0565b92915050565b600082601f830112610d3457610d3361148f565b5b8135610d44848260208601610c70565b91505092915050565b600060208284031215610d6357610d626114a3565b5b6000610d7184828501610cb2565b91505092915050565b600060208284031215610d9057610d8f6114a3565b5b6000610d9e84828501610cc7565b91505092915050565b60008060408385031215610dbe57610dbd6114a3565b5b6000610dcc85828601610cb2565b9250506020610ddd85828601610d0a565b9150509250929050565b600080600080600060a08688031215610e0357610e026114a3565b5b6000610e1188828901610cb2565b955050602086013567ffffffffffffffff811115610e3257610e3161149e565b5b610e3e88828901610d1f565b945050604086013567ffffffffffffffff811115610e5f57610e5e61149e565b5b610e6b88828901610cdc565b9350506060610e7c88828901610d0a565b9250506080610e8d88828901610d0a565b9150509295509295909350565b60008060008060008060c08789031215610eb757610eb66114a3565b5b6000610ec589828a01610cb2565b965050602087013567ffffffffffffffff811115610ee657610ee561149e565b5b610ef289828a01610d1f565b955050604087013567ffffffffffffffff811115610f1357610f1261149e565b5b610f1f89828a01610cdc565b9450506060610f3089828a01610d0a565b9350506080610f4189828a01610d0a565b92505060a0610f5289828a01610d0a565b9150509295509295509295565b600060208284031215610f7557610f746114a3565b5b6000610f8384828501610d0a565b91505092915050565b6000610f988383610fa4565b60208301905092915050565b610fad816113a5565b82525050565b610fbc816113a5565b82525050565b6000610fcd82611360565b610fd78185611383565b9350610fe283611350565b8060005b83811015611013578151610ffa8882610f8c565b975061100583611376565b925050600181019050610fe6565b5085935050505092915050565b611029816113b7565b82525050565b611038816113c3565b82525050565b60006110498261136b565b6110538185611394565b93506110638185602086016113fc565b61106c816114a8565b840191505092915050565b6000611084602c83611394565b915061108f826114b9565b604082019050919050565b60006110a7603383611394565b91506110b282611508565b604082019050919050565b60006110ca600083611394565b91506110d582611557565b600082019050919050565b60006110ed602783611394565b91506110f88261155a565b604082019050919050565b60006040820190506111186000830185610fb3565b6111256020830184610fb3565b9392505050565b60006040820190506111416000830185610fb3565b8181036020830152611153818461103e565b90509392505050565b600060c0820190506111716000830189610fb3565b8181036020830152611183818861103e565b905081810360408301526111978187610fc2565b90506111a6606083018661102f565b6111b3608083018561102f565b6111c060a083018461102f565b979650505050505050565b600060c0820190506111e06000830188610fb3565b81810360208301526111f1816110bd565b905081810360408301526112058187610fc2565b9050611214606083018661102f565b611221608083018561102f565b61122e60a083018461102f565b9695505050505050565b600060208201905061124d6000830184611020565b92915050565b6000602082019050611268600083018461102f565b92915050565b6000602082019050818103600083015261128781611077565b9050919050565b600060208201905081810360008301526112a78161109a565b9050919050565b600060208201905081810360008301526112c7816110e0565b9050919050565b60006112d86112e9565b90506112e4828261142f565b919050565b6000604051905090565b600067ffffffffffffffff82111561130e5761130d611460565b5b602082029050602081019050919050565b600067ffffffffffffffff82111561133a57611339611460565b5b611343826114a8565b9050602081019050919050565b6000819050602082019050919050565b600081519050919050565b600081519050919050565b6000602082019050919050565b600082825260208201905092915050565b600082825260208201905092915050565b60006113b0826113cd565b9050919050565b60008115159050919050565b6000819050919050565b600073ffffffffffffffffffffffffffffffffffffffff82169050919050565b82818337600083830152505050565b60005b8381101561141a5780820151818401526020810190506113ff565b83811115611429576000848401525b50505050565b611438826114a8565b810181811067ffffffffffffffff8211171561145757611456611460565b5b80604052505050565b7f4e487b7100000000000000000000000000000000000000000000000000000000600052604160045260246000fd5b600080fd5b600080fd5b600080fd5b600080fd5b600080fd5b6000601f19601f8301169050919050565b7f4572726f723a206f6e6c7920696e74657266616365207369676e65722063616e60008201527f2064656c657465206d656d650000000000000000000000000000000000000000602082015250565b7f4572726f722c206f6e6c79206465706c6f7965722063616e207061737320696e60008201527f74657266616365207369676e657220726f6c6500000000000000000000000000602082015250565b50565b7f4572726f723a20706f73746572206d757374206265206f7065726174696e672060008201527f6163636f756e7400000000000000000000000000000000000000000000000000602082015250565b6115b2816113a5565b81146115bd57600080fd5b50565b6115c9816113c3565b81146115d457600080fd5b5056fea2646970667358221220b9ec580b723fadd4592100497f3617865a53d101f324567779608b1d0eb8273164736f6c63430008070033",
  "immutableReferences": {},
  "source": "// SPDX-License-Identifier: MIT\n\npragma solidity >=0.8.0 <0.9.0;\n\nimport \"./MemeFactory.sol\";\nimport \"./MemeStorage.sol\";\nimport \"./UME.sol\";\n\ncontract Post {\n  // public variables\n  UME private umeToken;\n  MemeFactory private memeFactory;\n  MemeStorage private memeStorage;\n\n  address private interfaceSigner;\n  bytes32 zeroBytes;\n\n  event InterfaceSignerChanged(address indexed from, address indexed to);\n\n  constructor(\n    UME _umeToken,\n    MemeFactory _memeFactory,\n    MemeStorage _memeStorage\n  ) public {\n    umeToken = _umeToken;\n    memeFactory = _memeFactory;\n    memeStorage = _memeStorage;\n\n    interfaceSigner = msg.sender;\n  }\n\n  // posting meme functions\n  function newMeme(\n    address _account,\n    string memory _memeText,\n    address[] memory _tags,\n    bytes32 _parentId,\n    bytes32 _originId\n  ) public {\n    require(\n      msg.sender==interfaceSigner,\n      'Error: poster must be operating account');\n    memeFactory.newMeme(_account, _memeText, _tags, _parentId, _originId, zeroBytes);\n    umeToken.mintPost(_account, _memeText);\n  }\n\n  function rememe(\n    address _account,\n    bytes32 _memeId\n  ) public {\n    require(\n      msg.sender==interfaceSigner,\n      'Error: poster must be operating account');\n    memeFactory.newMeme(_account, '', new address[](0), zeroBytes, zeroBytes, _memeId);\n    if(_account!=memeStorage.getAuthor(_memeId))\n      umeToken.mintRepost(_account, memeStorage.getAuthor(_memeId));\n  }\n  function quoteMeme(\n    address _account,\n    string memory _memeText,\n    address[] memory _tags,\n    bytes32 _parentId,\n    bytes32 _originId,\n    bytes32 _repostId\n  ) public {\n    require(\n      msg.sender==interfaceSigner,\n      'Error: poster must be operating account');\n    memeFactory.newMeme(_account, _memeText, _tags, _parentId, _originId, _repostId);\n    if(_account!=memeStorage.getAuthor(_repostId))\n      umeToken.mintRepost(_account, memeStorage.getAuthor(_parentId));\n  }\n\n  function deleteMeme(\n    bytes32 _memeId\n  ) public {\n    require(\n      msg.sender==interfaceSigner,\n      'Error: only interface signer can delete meme');\n    memeStorage.deleteMeme(_memeId);\n  }\n\n  // set caller role to User upon deployment\n  function passInterfaceSigner(address _userInterface) public returns (bool) {\n    require(\n      msg.sender == interfaceSigner,\n      'Error, only deployer can pass interface signer role');\n    interfaceSigner = _userInterface;\n    emit InterfaceSignerChanged(msg.sender, interfaceSigner);\n    return true;\n  }\n}\n",
  "sourcePath": "/Users/jaiq/Documents/000 BLOCKCHAIN/ETH/uMe/src/contracts/Post.sol",
  "compiler": {
    "name": "solc",
    "version": "0.8.7+commit.e28d00a7.Emscripten.clang"
  },
  "schemaVersion": "3.4.3",
  "updatedAt": "2021-08-25T09:08:10.474Z",
  "networkType": "ethereum",
  "devdoc": {
    "kind": "dev",
    "methods": {},
    "version": 1
  },
  "userdoc": {
    "kind": "user",
    "methods": {},
    "version": 1
  }
}