{
  "contractName": "Post",
  "abi": [
    {
      "inputs": [
        {
          "internalType": "contract UME",
          "name": "_umeToken",
          "type": "address"
        }
      ],
      "stateMutability": "nonpayable",
      "type": "constructor"
    },
    {
      "anonymous": false,
      "inputs": [
        {
          "indexed": false,
          "internalType": "uint256",
          "name": "memeId",
          "type": "uint256"
        },
        {
          "indexed": false,
          "internalType": "uint256",
          "name": "memeTime",
          "type": "uint256"
        },
        {
          "indexed": false,
          "internalType": "string",
          "name": "memeText",
          "type": "string"
        },
        {
          "indexed": false,
          "internalType": "address",
          "name": "author",
          "type": "address"
        }
      ],
      "name": "MemeCreated",
      "type": "event"
    },
    {
      "anonymous": false,
      "inputs": [
        {
          "indexed": false,
          "internalType": "uint256",
          "name": "memeId",
          "type": "uint256"
        },
        {
          "indexed": false,
          "internalType": "uint256",
          "name": "memeTime",
          "type": "uint256"
        },
        {
          "indexed": false,
          "internalType": "string",
          "name": "memeText",
          "type": "string"
        },
        {
          "indexed": false,
          "internalType": "address",
          "name": "author",
          "type": "address"
        }
      ],
      "name": "MemeLiked",
      "type": "event"
    },
    {
      "anonymous": false,
      "inputs": [
        {
          "indexed": false,
          "internalType": "address",
          "name": "accountFrom",
          "type": "address"
        },
        {
          "indexed": false,
          "internalType": "address",
          "name": "accountTo",
          "type": "address"
        }
      ],
      "name": "PostCallerChanged",
      "type": "event"
    },
    {
      "inputs": [],
      "name": "caller",
      "outputs": [
        {
          "internalType": "address",
          "name": "",
          "type": "address"
        }
      ],
      "stateMutability": "view",
      "type": "function",
      "constant": true
    },
    {
      "inputs": [],
      "name": "memeCount",
      "outputs": [
        {
          "internalType": "uint256",
          "name": "",
          "type": "uint256"
        }
      ],
      "stateMutability": "view",
      "type": "function",
      "constant": true
    },
    {
      "inputs": [
        {
          "internalType": "uint256",
          "name": "",
          "type": "uint256"
        }
      ],
      "name": "memes",
      "outputs": [
        {
          "internalType": "uint256",
          "name": "id",
          "type": "uint256"
        },
        {
          "internalType": "uint256",
          "name": "time",
          "type": "uint256"
        },
        {
          "internalType": "string",
          "name": "text",
          "type": "string"
        },
        {
          "internalType": "uint256",
          "name": "likes",
          "type": "uint256"
        },
        {
          "internalType": "uint256",
          "name": "parentId",
          "type": "uint256"
        },
        {
          "internalType": "uint256",
          "name": "originId",
          "type": "uint256"
        },
        {
          "internalType": "address",
          "name": "author",
          "type": "address"
        },
        {
          "internalType": "bool",
          "name": "isVisible",
          "type": "bool"
        }
      ],
      "stateMutability": "view",
      "type": "function",
      "constant": true
    },
    {
      "inputs": [],
      "name": "name",
      "outputs": [
        {
          "internalType": "string",
          "name": "",
          "type": "string"
        }
      ],
      "stateMutability": "view",
      "type": "function",
      "constant": true
    },
    {
      "inputs": [
        {
          "internalType": "address",
          "name": "account",
          "type": "address"
        },
        {
          "internalType": "string",
          "name": "_memeText",
          "type": "string"
        },
        {
          "internalType": "address[]",
          "name": "_tags",
          "type": "address[]"
        },
        {
          "internalType": "uint256",
          "name": "_parentId",
          "type": "uint256"
        },
        {
          "internalType": "uint256",
          "name": "_originId",
          "type": "uint256"
        }
      ],
      "name": "newMeme",
      "outputs": [],
      "stateMutability": "nonpayable",
      "type": "function"
    },
    {
      "inputs": [
        {
          "internalType": "address",
          "name": "account",
          "type": "address"
        },
        {
          "internalType": "uint256",
          "name": "memeId",
          "type": "uint256"
        }
      ],
      "name": "deleteMeme",
      "outputs": [],
      "stateMutability": "nonpayable",
      "type": "function"
    },
    {
      "inputs": [
        {
          "internalType": "address",
          "name": "account",
          "type": "address"
        },
        {
          "internalType": "uint256",
          "name": "memeId",
          "type": "uint256"
        }
      ],
      "name": "likeMeme",
      "outputs": [],
      "stateMutability": "nonpayable",
      "type": "function"
    },
    {
      "inputs": [
        {
          "internalType": "uint256",
          "name": "memeId",
          "type": "uint256"
        }
      ],
      "name": "getLikers",
      "outputs": [
        {
          "internalType": "address[]",
          "name": "",
          "type": "address[]"
        }
      ],
      "stateMutability": "view",
      "type": "function",
      "constant": true
    },
    {
      "inputs": [
        {
          "internalType": "uint256",
          "name": "memeId",
          "type": "uint256"
        }
      ],
      "name": "getUnlikers",
      "outputs": [
        {
          "internalType": "address[]",
          "name": "",
          "type": "address[]"
        }
      ],
      "stateMutability": "view",
      "type": "function",
      "constant": true
    },
    {
      "inputs": [
        {
          "internalType": "uint256",
          "name": "memeId",
          "type": "uint256"
        }
      ],
      "name": "getTags",
      "outputs": [
        {
          "internalType": "address[]",
          "name": "",
          "type": "address[]"
        }
      ],
      "stateMutability": "view",
      "type": "function",
      "constant": true
    },
    {
      "inputs": [
        {
          "internalType": "uint256",
          "name": "memeId",
          "type": "uint256"
        }
      ],
      "name": "getResponses",
      "outputs": [
        {
          "internalType": "uint256[]",
          "name": "",
          "type": "uint256[]"
        }
      ],
      "stateMutability": "view",
      "type": "function",
      "constant": true
    },
    {
      "inputs": [
        {
          "internalType": "address",
          "name": "user",
          "type": "address"
        }
      ],
      "name": "passPostRole",
      "outputs": [
        {
          "internalType": "bool",
          "name": "",
          "type": "bool"
        }
      ],
      "stateMutability": "nonpayable",
      "type": "function"
    }
  ],
  "bytecode": "0x60806040526040518060400160405280600381526020017f754d650000000000000000000000000000000000000000000000000000000000815250600290805190602001906200005192919062000112565b5060006003553480156200006457600080fd5b506040516200366c3803806200366c83398181016040528101906200008a9190620001d9565b806000806101000a81548173ffffffffffffffffffffffffffffffffffffffff021916908373ffffffffffffffffffffffffffffffffffffffff16021790555033600160006101000a81548173ffffffffffffffffffffffffffffffffffffffff021916908373ffffffffffffffffffffffffffffffffffffffff16021790555050620002d7565b828054620001209062000253565b90600052602060002090601f01602090048101928262000144576000855562000190565b82601f106200015f57805160ff191683800117855562000190565b8280016001018555821562000190579182015b828111156200018f57825182559160200191906001019062000172565b5b5090506200019f9190620001a3565b5090565b5b80821115620001be576000816000905550600101620001a4565b5090565b600081519050620001d381620002bd565b92915050565b600060208284031215620001f257620001f1620002b8565b5b60006200020284828501620001c2565b91505092915050565b6000620002188262000233565b9050919050565b60006200022c826200020b565b9050919050565b600073ffffffffffffffffffffffffffffffffffffffff82169050919050565b600060028204905060018216806200026c57607f821691505b6020821081141562000283576200028262000289565b5b50919050565b7f4e487b7100000000000000000000000000000000000000000000000000000000600052602260045260246000fd5b600080fd5b620002c8816200021f565b8114620002d457600080fd5b50565b61338580620002e76000396000f3fe608060405234801561001057600080fd5b50600436106100b45760003560e01c806384e278b91161007157806384e278b9146101a8578063b617e9c4146101d8578063c77e786e146101f4578063d833b64614610210578063e080b78714610240578063fc9c8d3914610270576100b4565b806306fdde03146100b957806308e5c7ae146100d757806329d29cb3146100f3578063388f60641461012357806371ee2ce11461015a5780637b2124d21461018a575b600080fd5b6100c161028e565b6040516100ce9190612c2e565b60405180910390f35b6100f160048036038101906100ec919061281c565b61031c565b005b61010d6004803603810190610108919061290f565b610bb2565b60405161011a9190612bcf565b60405180910390f35b61013d6004803603810190610138919061290f565b610c56565b604051610151989796959493929190612d57565b60405180910390f35b610174600480360381019061016f919061290f565b610d53565b6040516101819190612bf1565b60405180910390f35b610192610dc1565b60405161019f9190612cf0565b60405180910390f35b6101c260048036038101906101bd919061290f565b610dc7565b6040516101cf9190612bcf565b60405180910390f35b6101f260048036038101906101ed91906128cf565b610e6b565b005b61020e600480360381019061020991906128cf565b6111e7565b005b61022a6004803603810190610225919061290f565b611527565b6040516102379190612bcf565b60405180910390f35b61025a600480360381019061025591906127ef565b6115cb565b6040516102679190612c13565b60405180910390f35b6102786116e0565b6040516102859190612b5b565b60405180910390f35b6002805461029b9061302a565b80601f01602080910402602001604051908101604052809291908181526020018280546102c79061302a565b80156103145780601f106102e957610100808354040283529160200191610314565b820191906000526020600020905b8154815290600101906020018083116102f757829003601f168201915b505050505081565b600160009054906101000a900473ffffffffffffffffffffffffffffffffffffffff1673ffffffffffffffffffffffffffffffffffffffff163373ffffffffffffffffffffffffffffffffffffffff16146103ac576040517f08c379a00000000000000000000000000000000000000000000000000000000081526004016103a390612cd0565b60405180910390fd5b600360008154809291906103bf9061308d565b919050555060008214156103d35760035491505b60008114156103e25760035490505b604051806101800160405280600354815260200142815260200185815260200160008152602001600067ffffffffffffffff81111561042457610423613163565b5b6040519080825280602002602001820160405280156104525781602001602082028036833780820191505090505b508152602001600067ffffffffffffffff81111561047357610472613163565b5b6040519080825280602002602001820160405280156104a15781602001602082028036833780820191505090505b508152602001848152602001600067ffffffffffffffff8111156104c8576104c7613163565b5b6040519080825280602002602001820160405280156104f65781602001602082028036833780820191505090505b5081526020018381526020018281526020018673ffffffffffffffffffffffffffffffffffffffff168152602001600115158152506004600060035481526020019081526020016000206000820151816000015560208201518160010155604082015181600201908051906020019061057092919061253d565b506060820151816003015560808201518160040190805190602001906105979291906125c3565b5060a08201518160050190805190602001906105b49291906125c3565b5060c08201518160060190805190602001906105d19291906125c3565b5060e08201518160070190805190602001906105ee92919061264d565b506101008201518160080155610120820151816009015561014082015181600a0160006101000a81548173ffffffffffffffffffffffffffffffffffffffff021916908373ffffffffffffffffffffffffffffffffffffffff16021790555061016082015181600a0160146101000a81548160ff021916908315150217905550905050816003541415801561068257508082145b80156106f057508473ffffffffffffffffffffffffffffffffffffffff1660046000848152602001908152602001600020600a0160009054906101000a900473ffffffffffffffffffffffffffffffffffffffff1673ffffffffffffffffffffffffffffffffffffffff1614155b156107bd5760008054906101000a900473ffffffffffffffffffffffffffffffffffffffff1673ffffffffffffffffffffffffffffffffffffffff1663bc8341958660046000868152602001908152602001600020600a0160009054906101000a900473ffffffffffffffffffffffffffffffffffffffff166040518363ffffffff1660e01b8152600401610786929190612b76565b600060405180830381600087803b1580156107a057600080fd5b505af11580156107b4573d6000803e3d6000fd5b505050506109ca565b81600354141580156107cf5750808214155b801561083d57508473ffffffffffffffffffffffffffffffffffffffff1660046000838152602001908152602001600020600a0160009054906101000a900473ffffffffffffffffffffffffffffffffffffffff1673ffffffffffffffffffffffffffffffffffffffff1614155b156109c95760008054906101000a900473ffffffffffffffffffffffffffffffffffffffff1673ffffffffffffffffffffffffffffffffffffffff1663bc8341958660046000868152602001908152602001600020600a0160009054906101000a900473ffffffffffffffffffffffffffffffffffffffff166040518363ffffffff1660e01b81526004016108d3929190612b76565b600060405180830381600087803b1580156108ed57600080fd5b505af1158015610901573d6000803e3d6000fd5b5050505060008054906101000a900473ffffffffffffffffffffffffffffffffffffffff1673ffffffffffffffffffffffffffffffffffffffff1663e981dc8f8660046000858152602001908152602001600020600a0160009054906101000a900473ffffffffffffffffffffffffffffffffffffffff166040518363ffffffff1660e01b8152600401610996929190612b76565b600060405180830381600087803b1580156109b057600080fd5b505af11580156109c4573d6000803e3d6000fd5b505050505b5b60005b8351811015610ade578381815181106109e9576109e8613134565b5b602002602001015173ffffffffffffffffffffffffffffffffffffffff168673ffffffffffffffffffffffffffffffffffffffff1614610acb5760008054906101000a900473ffffffffffffffffffffffffffffffffffffffff1673ffffffffffffffffffffffffffffffffffffffff16632cc67a7c87868481518110610a7357610a72613134565b5b60200260200101516040518363ffffffff1660e01b8152600401610a98929190612b76565b600060405180830381600087803b158015610ab257600080fd5b505af1158015610ac6573d6000803e3d6000fd5b505050505b8080610ad69061308d565b9150506109cd565b5060008054906101000a900473ffffffffffffffffffffffffffffffffffffffff1673ffffffffffffffffffffffffffffffffffffffff166376bd8f8c86866040518363ffffffff1660e01b8152600401610b3a929190612b9f565b600060405180830381600087803b158015610b5457600080fd5b505af1158015610b68573d6000803e3d6000fd5b505050507ff4b76bfc28b30086943b067f418c414661731cbca96196b1b6a44f7b0ab99db8600354428633604051610ba39493929190612d0b565b60405180910390a15050505050565b606060046000838152602001908152602001600020600601805480602002602001604051908101604052809291908181526020018280548015610c4a57602002820191906000526020600020905b8160009054906101000a900473ffffffffffffffffffffffffffffffffffffffff1673ffffffffffffffffffffffffffffffffffffffff1681526020019060010190808311610c00575b50505050509050919050565b6004602052806000526040600020600091509050806000015490806001015490806002018054610c859061302a565b80601f0160208091040260200160405190810160405280929190818152602001828054610cb19061302a565b8015610cfe5780601f10610cd357610100808354040283529160200191610cfe565b820191906000526020600020905b815481529060010190602001808311610ce157829003601f168201915b50505050509080600301549080600801549080600901549080600a0160009054906101000a900473ffffffffffffffffffffffffffffffffffffffff169080600a0160149054906101000a900460ff16905088565b606060046000838152602001908152602001600020600701805480602002602001604051908101604052809291908181526020018280548015610db557602002820191906000526020600020905b815481526020019060010190808311610da1575b50505050509050919050565b60035481565b606060046000838152602001908152602001600020600401805480602002602001604051908101604052809291908181526020018280548015610e5f57602002820191906000526020600020905b8160009054906101000a900473ffffffffffffffffffffffffffffffffffffffff1673ffffffffffffffffffffffffffffffffffffffff1681526020019060010190808311610e15575b50505050509050919050565b3373ffffffffffffffffffffffffffffffffffffffff16600160009054906101000a900473ffffffffffffffffffffffffffffffffffffffff1673ffffffffffffffffffffffffffffffffffffffff1614610efb576040517f08c379a0000000000000000000000000000000000000000000000000000000008152600401610ef290612c70565b60405180910390fd5b604051806101800160405280600081526020016000815260200160405180602001604052806000815250815260200160008152602001600067ffffffffffffffff811115610f4c57610f4b613163565b5b604051908082528060200260200182016040528015610f7a5781602001602082028036833780820191505090505b508152602001600067ffffffffffffffff811115610f9b57610f9a613163565b5b604051908082528060200260200182016040528015610fc95781602001602082028036833780820191505090505b508152602001600067ffffffffffffffff811115610fea57610fe9613163565b5b6040519080825280602002602001820160405280156110185781602001602082028036833780820191505090505b508152602001600067ffffffffffffffff81111561103957611038613163565b5b6040519080825280602002602001820160405280156110675781602001602082028036833780820191505090505b5081526020016000815260200160008152602001600073ffffffffffffffffffffffffffffffffffffffff1681526020016000151581525060046000838152602001908152602001600020600082015181600001556020820151816001015560408201518160020190805190602001906110e292919061253d565b506060820151816003015560808201518160040190805190602001906111099291906125c3565b5060a08201518160050190805190602001906111269291906125c3565b5060c08201518160060190805190602001906111439291906125c3565b5060e082015181600701908051906020019061116092919061264d565b506101008201518160080155610120820151816009015561014082015181600a0160006101000a81548173ffffffffffffffffffffffffffffffffffffffff021916908373ffffffffffffffffffffffffffffffffffffffff16021790555061016082015181600a0160146101000a81548160ff0219169083151502179055509050505050565b600160009054906101000a900473ffffffffffffffffffffffffffffffffffffffff1673ffffffffffffffffffffffffffffffffffffffff168273ffffffffffffffffffffffffffffffffffffffff1614611277576040517f08c379a000000000000000000000000000000000000000000000000000000000815260040161126e90612c50565b60405180910390fd5b6000600190506000805b600460008581526020019081526020016000206004018054905081101561134f576004600085815260200190815260200160002060040181815481106112ca576112c9613134565b5b9060005260206000200160009054906101000a900473ffffffffffffffffffffffffffffffffffffffff1673ffffffffffffffffffffffffffffffffffffffff168573ffffffffffffffffffffffffffffffffffffffff16141561133c5760009250611337858583611706565b600191505b80806113479061308d565b915050611281565b5060005b60046000858152602001908152602001600020600501805490508110156114325760046000858152602001908152602001600020600501818154811061139c5761139b613134565b5b9060005260206000200160009054906101000a900473ffffffffffffffffffffffffffffffffffffffff1673ffffffffffffffffffffffffffffffffffffffff168573ffffffffffffffffffffffffffffffffffffffff16148015611405575060001515821515145b1561141f576000925061141a85858386611d86565b611432565b808061142a9061308d565b915050611353565b506001151582151514801561144b575060001515811515145b156115215761145d8484600085611d86565b60008054906101000a900473ffffffffffffffffffffffffffffffffffffffff1673ffffffffffffffffffffffffffffffffffffffff1663d04495898560046000878152602001908152602001600020600a0160009054906101000a900473ffffffffffffffffffffffffffffffffffffffff166040518363ffffffff1660e01b81526004016114ee929190612b76565b600060405180830381600087803b15801561150857600080fd5b505af115801561151c573d6000803e3d6000fd5b505050505b50505050565b6060600460008381526020019081526020016000206005018054806020026020016040519081016040528092919081815260200182805480156115bf57602002820191906000526020600020905b8160009054906101000a900473ffffffffffffffffffffffffffffffffffffffff1673ffffffffffffffffffffffffffffffffffffffff1681526020019060010190808311611575575b50505050509050919050565b6000600160009054906101000a900473ffffffffffffffffffffffffffffffffffffffff1673ffffffffffffffffffffffffffffffffffffffff163373ffffffffffffffffffffffffffffffffffffffff161461165d576040517f08c379a000000000000000000000000000000000000000000000000000000000815260040161165490612cb0565b60405180910390fd5b81600160006101000a81548173ffffffffffffffffffffffffffffffffffffffff021916908373ffffffffffffffffffffffffffffffffffffffff1602179055507f77c92fdb2e535561a11229adeb4dc3cfa5109f59adca0bcbd4bd6a2c1b31566733836040516116cf929190612b76565b60405180910390a160019050919050565b600160009054906101000a900473ffffffffffffffffffffffffffffffffffffffff1681565b6000600460008481526020019081526020016000206004018054905011611762576040517f08c379a000000000000000000000000000000000000000000000000000000000815260040161175990612c90565b60405180910390fd5b6000600460008481526020019081526020016000206040518061018001604052908160008201548152602001600182015481526020016002820180546117a79061302a565b80601f01602080910402602001604051908101604052809291908181526020018280546117d39061302a565b80156118205780601f106117f557610100808354040283529160200191611820565b820191906000526020600020905b81548152906001019060200180831161180357829003601f168201915b5050505050815260200160038201548152602001600482018054806020026020016040519081016040528092919081815260200182805480156118b857602002820191906000526020600020905b8160009054906101000a900473ffffffffffffffffffffffffffffffffffffffff1673ffffffffffffffffffffffffffffffffffffffff168152602001906001019080831161186e575b505050505081526020016005820180548060200260200160405190810160405280929190818152602001828054801561194657602002820191906000526020600020905b8160009054906101000a900473ffffffffffffffffffffffffffffffffffffffff1673ffffffffffffffffffffffffffffffffffffffff16815260200190600101908083116118fc575b50505050508152602001600682018054806020026020016040519081016040528092919081815260200182805480156119d457602002820191906000526020600020905b8160009054906101000a900473ffffffffffffffffffffffffffffffffffffffff1673ffffffffffffffffffffffffffffffffffffffff168152602001906001019080831161198a575b5050505050815260200160078201805480602002602001604051908101604052809291908181526020018280548015611a2c57602002820191906000526020600020905b815481526020019060010190808311611a18575b505050505081526020016008820154815260200160098201548152602001600a820160009054906101000a900473ffffffffffffffffffffffffffffffffffffffff1673ffffffffffffffffffffffffffffffffffffffff1673ffffffffffffffffffffffffffffffffffffffff168152602001600a820160149054906101000a900460ff1615151515815250509050611aca8160800151836123b9565b8160800181905250806060018051809190611ae490613000565b81525050600060018260a0015151611afc9190612eec565b67ffffffffffffffff811115611b1557611b14613163565b5b604051908082528060200260200182016040528015611b435781602001602082028036833780820191505090505b50905060005b8260a0015151811015611bd5578260a001518181518110611b6d57611b6c613134565b5b6020026020010151828281518110611b8857611b87613134565b5b602002602001019073ffffffffffffffffffffffffffffffffffffffff16908173ffffffffffffffffffffffffffffffffffffffff16815250508080611bcd9061308d565b915050611b49565b50338160018351611be69190612f42565b81518110611bf757611bf6613134565b5b602002602001019073ffffffffffffffffffffffffffffffffffffffff16908173ffffffffffffffffffffffffffffffffffffffff1681525050808260a00181905250816004600086815260200190815260200160002060008201518160000155602082015181600101556040820151816002019080519060200190611c7e92919061253d565b50606082015181600301556080820151816004019080519060200190611ca59291906125c3565b5060a0820151816005019080519060200190611cc29291906125c3565b5060c0820151816006019080519060200190611cdf9291906125c3565b5060e0820151816007019080519060200190611cfc92919061264d565b506101008201518160080155610120820151816009015561014082015181600a0160006101000a81548173ffffffffffffffffffffffffffffffffffffffff021916908373ffffffffffffffffffffffffffffffffffffffff16021790555061016082015181600a0160146101000a81548160ff0219169083151502179055509050505050505050565b600060046000858152602001908152602001600020604051806101800160405290816000820154815260200160018201548152602001600282018054611dcb9061302a565b80601f0160208091040260200160405190810160405280929190818152602001828054611df79061302a565b8015611e445780601f10611e1957610100808354040283529160200191611e44565b820191906000526020600020905b815481529060010190602001808311611e2757829003601f168201915b505050505081526020016003820154815260200160048201805480602002602001604051908101604052809291908181526020018280548015611edc57602002820191906000526020600020905b8160009054906101000a900473ffffffffffffffffffffffffffffffffffffffff1673ffffffffffffffffffffffffffffffffffffffff1681526020019060010190808311611e92575b5050505050815260200160058201805480602002602001604051908101604052809291908181526020018280548015611f6a57602002820191906000526020600020905b8160009054906101000a900473ffffffffffffffffffffffffffffffffffffffff1673ffffffffffffffffffffffffffffffffffffffff1681526020019060010190808311611f20575b5050505050815260200160068201805480602002602001604051908101604052809291908181526020018280548015611ff857602002820191906000526020600020905b8160009054906101000a900473ffffffffffffffffffffffffffffffffffffffff1673ffffffffffffffffffffffffffffffffffffffff1681526020019060010190808311611fae575b505050505081526020016007820180548060200260200160405190810160405280929190818152602001828054801561205057602002820191906000526020600020905b81548152602001906001019080831161203c575b505050505081526020016008820154815260200160098201548152602001600a820160009054906101000a900473ffffffffffffffffffffffffffffffffffffffff1673ffffffffffffffffffffffffffffffffffffffff1673ffffffffffffffffffffffffffffffffffffffff168152602001600a820160149054906101000a900460ff1615151515815250509050600015158215151415612104576120fb8160a00151846123b9565b8160a001819052505b600060018260800151516121189190612eec565b67ffffffffffffffff81111561213157612130613163565b5b60405190808252806020026020018201604052801561215f5781602001602082028036833780820191505090505b50905060005b8260800151518110156121f1578260800151818151811061218957612188613134565b5b60200260200101518282815181106121a4576121a3613134565b5b602002602001019073ffffffffffffffffffffffffffffffffffffffff16908173ffffffffffffffffffffffffffffffffffffffff168152505080806121e99061308d565b915050612165565b508160600180518091906122049061308d565b815250503381600183516122189190612f42565b8151811061222957612228613134565b5b602002602001019073ffffffffffffffffffffffffffffffffffffffff16908173ffffffffffffffffffffffffffffffffffffffff16815250508082608001819052508160046000878152602001908152602001600020600082015181600001556020820151816001015560408201518160020190805190602001906122b092919061253d565b506060820151816003015560808201518160040190805190602001906122d79291906125c3565b5060a08201518160050190805190602001906122f49291906125c3565b5060c08201518160060190805190602001906123119291906125c3565b5060e082015181600701908051906020019061232e92919061264d565b506101008201518160080155610120820151816009015561014082015181600a0160006101000a81548173ffffffffffffffffffffffffffffffffffffffff021916908373ffffffffffffffffffffffffffffffffffffffff16021790555061016082015181600a0160146101000a81548160ff021916908315150217905550905050505050505050565b60606000600184516123cb9190612f42565b67ffffffffffffffff8111156123e4576123e3613163565b5b6040519080825280602002602001820160405280156124125781602001602082028036833780820191505090505b50905060005b8381101561249b5784818151811061243357612432613134565b5b602002602001015182828151811061244e5761244d613134565b5b602002602001019073ffffffffffffffffffffffffffffffffffffffff16908173ffffffffffffffffffffffffffffffffffffffff168152505080806124939061308d565b915050612418565b5060008390505b815181101561253257846001826124b99190612eec565b815181106124ca576124c9613134565b5b60200260200101518282815181106124e5576124e4613134565b5b602002602001019073ffffffffffffffffffffffffffffffffffffffff16908173ffffffffffffffffffffffffffffffffffffffff1681525050808061252a9061308d565b9150506124a2565b508091505092915050565b8280546125499061302a565b90600052602060002090601f01602090048101928261256b57600085556125b2565b82601f1061258457805160ff19168380011785556125b2565b828001600101855582156125b2579182015b828111156125b1578251825591602001919060010190612596565b5b5090506125bf919061269a565b5090565b82805482825590600052602060002090810192821561263c579160200282015b8281111561263b5782518260006101000a81548173ffffffffffffffffffffffffffffffffffffffff021916908373ffffffffffffffffffffffffffffffffffffffff160217905550916020019190600101906125e3565b5b509050612649919061269a565b5090565b828054828255906000526020600020908101928215612689579160200282015b8281111561268857825182559160200191906001019061266d565b5b509050612696919061269a565b5090565b5b808211156126b357600081600090555060010161269b565b5090565b60006126ca6126c584612e01565b612ddc565b905080838252602082019050828560208602820111156126ed576126ec613197565b5b60005b8581101561271d57816127038882612769565b8452602084019350602083019250506001810190506126f0565b5050509392505050565b600061273a61273584612e2d565b612ddc565b9050828152602081018484840111156127565761275561319c565b5b612761848285612fbe565b509392505050565b60008135905061277881613321565b92915050565b600082601f83011261279357612792613192565b5b81356127a38482602086016126b7565b91505092915050565b600082601f8301126127c1576127c0613192565b5b81356127d1848260208601612727565b91505092915050565b6000813590506127e981613338565b92915050565b600060208284031215612805576128046131a6565b5b600061281384828501612769565b91505092915050565b600080600080600060a08688031215612838576128376131a6565b5b600061284688828901612769565b955050602086013567ffffffffffffffff811115612867576128666131a1565b5b612873888289016127ac565b945050604086013567ffffffffffffffff811115612894576128936131a1565b5b6128a08882890161277e565b93505060606128b1888289016127da565b92505060806128c2888289016127da565b9150509295509295909350565b600080604083850312156128e6576128e56131a6565b5b60006128f485828601612769565b9250506020612905858286016127da565b9150509250929050565b600060208284031215612925576129246131a6565b5b6000612933848285016127da565b91505092915050565b6000612948838361296c565b60208301905092915050565b60006129608383612b3d565b60208301905092915050565b61297581612f76565b82525050565b61298481612f76565b82525050565b600061299582612e7e565b61299f8185612eb9565b93506129aa83612e5e565b8060005b838110156129db5781516129c2888261293c565b97506129cd83612e9f565b9250506001810190506129ae565b5085935050505092915050565b60006129f382612e89565b6129fd8185612eca565b9350612a0883612e6e565b8060005b83811015612a39578151612a208882612954565b9750612a2b83612eac565b925050600181019050612a0c565b5085935050505092915050565b612a4f81612f88565b82525050565b6000612a6082612e94565b612a6a8185612edb565b9350612a7a818560208601612fcd565b612a83816131ab565b840191505092915050565b6000612a9b602683612edb565b9150612aa6826131bc565b604082019050919050565b6000612abe602983612edb565b9150612ac98261320b565b604082019050919050565b6000612ae1601883612edb565b9150612aec8261325a565b602082019050919050565b6000612b04602483612edb565b9150612b0f82613283565b604082019050919050565b6000612b27602783612edb565b9150612b32826132d2565b604082019050919050565b612b4681612fb4565b82525050565b612b5581612fb4565b82525050565b6000602082019050612b70600083018461297b565b92915050565b6000604082019050612b8b600083018561297b565b612b98602083018461297b565b9392505050565b6000604082019050612bb4600083018561297b565b8181036020830152612bc68184612a55565b90509392505050565b60006020820190508181036000830152612be9818461298a565b905092915050565b60006020820190508181036000830152612c0b81846129e8565b905092915050565b6000602082019050612c286000830184612a46565b92915050565b60006020820190508181036000830152612c488184612a55565b905092915050565b60006020820190508181036000830152612c6981612a8e565b9050919050565b60006020820190508181036000830152612c8981612ab1565b9050919050565b60006020820190508181036000830152612ca981612ad4565b9050919050565b60006020820190508181036000830152612cc981612af7565b9050919050565b60006020820190508181036000830152612ce981612b1a565b9050919050565b6000602082019050612d056000830184612b4c565b92915050565b6000608082019050612d206000830187612b4c565b612d2d6020830186612b4c565b8181036040830152612d3f8185612a55565b9050612d4e606083018461297b565b95945050505050565b600061010082019050612d6d600083018b612b4c565b612d7a602083018a612b4c565b8181036040830152612d8c8189612a55565b9050612d9b6060830188612b4c565b612da86080830187612b4c565b612db560a0830186612b4c565b612dc260c083018561297b565b612dcf60e0830184612a46565b9998505050505050505050565b6000612de6612df7565b9050612df2828261305c565b919050565b6000604051905090565b600067ffffffffffffffff821115612e1c57612e1b613163565b5b602082029050602081019050919050565b600067ffffffffffffffff821115612e4857612e47613163565b5b612e51826131ab565b9050602081019050919050565b6000819050602082019050919050565b6000819050602082019050919050565b600081519050919050565b600081519050919050565b600081519050919050565b6000602082019050919050565b6000602082019050919050565b600082825260208201905092915050565b600082825260208201905092915050565b600082825260208201905092915050565b6000612ef782612fb4565b9150612f0283612fb4565b9250827fffffffffffffffffffffffffffffffffffffffffffffffffffffffffffffffff03821115612f3757612f366130d6565b5b828201905092915050565b6000612f4d82612fb4565b9150612f5883612fb4565b925082821015612f6b57612f6a6130d6565b5b828203905092915050565b6000612f8182612f94565b9050919050565b60008115159050919050565b600073ffffffffffffffffffffffffffffffffffffffff82169050919050565b6000819050919050565b82818337600083830152505050565b60005b83811015612feb578082015181840152602081019050612fd0565b83811115612ffa576000848401525b50505050565b600061300b82612fb4565b9150600082141561301f5761301e6130d6565b5b600182039050919050565b6000600282049050600182168061304257607f821691505b6020821081141561305657613055613105565b5b50919050565b613065826131ab565b810181811067ffffffffffffffff8211171561308457613083613163565b5b80604052505050565b600061309882612fb4565b91507fffffffffffffffffffffffffffffffffffffffffffffffffffffffffffffffff8214156130cb576130ca6130d6565b5b600182019050919050565b7f4e487b7100000000000000000000000000000000000000000000000000000000600052601160045260246000fd5b7f4e487b7100000000000000000000000000000000000000000000000000000000600052602260045260246000fd5b7f4e487b7100000000000000000000000000000000000000000000000000000000600052603260045260246000fd5b7f4e487b7100000000000000000000000000000000000000000000000000000000600052604160045260246000fd5b600080fd5b600080fd5b600080fd5b600080fd5b600080fd5b6000601f19601f8301169050919050565b7f4572726f723a206c696b6572206d757374206265206f7065726174696e67206160008201527f63636f756e740000000000000000000000000000000000000000000000000000602082015250565b7f4572726f723a206f6e6c79206163636f756e74206f776e65722063616e20646560008201527f6c657465206d656d650000000000000000000000000000000000000000000000602082015250565b7f4572726f722c206e6f206c696b65727320696e206d656d650000000000000000600082015250565b7f4572726f722c206f6e6c79206f776e65722063616e207061737320706f73742060008201527f726f6c6500000000000000000000000000000000000000000000000000000000602082015250565b7f4572726f723a20706f73746572206d757374206265206f7065726174696e672060008201527f6163636f756e7400000000000000000000000000000000000000000000000000602082015250565b61332a81612f76565b811461333557600080fd5b50565b61334181612fb4565b811461334c57600080fd5b5056fea2646970667358221220cf0eb7459a723a9346a229b648b8522bf4cf441d8d4b0a132b9b2352e1b8210364736f6c63430008070033",
  "immutableReferences": {},
  "source": "// SPDX-License-Identifier: MIT\n\npragma solidity >=0.8.0 <0.9.0;\n\nimport \"./UME.sol\";\n\ncontract Post {\n  // public variables\n  UME private umeToken;\n  address public caller;\n\n  string public name = \"uMe\";\n  uint public memeCount = 0;\n\n  // mapping of Memes\n  mapping(uint => Meme) public memes; // memeId to meme map\n\n  // Meme structure\n  struct Meme {\n    uint id; // number in all of timeline\n    uint time; // time of post\n    // string hash; // hash of Meme\n    string text; // test of Meme\n    uint likes; // number of likes on Meme\n    address[] likers; // list of addresses of likers\n    address[] unlikers; // list of addresses that have unliked\n    address[] tags; // list of id's of tagged\n    uint[] responses; // collection of id's of responses\n    uint parentId; // memeId of parent (can be self)\n    uint originId; // memeId of origin (can be self)\n    address author; // address of author\n    bool isVisible;\n    //bool hasLink // if Meme has link\n    //bool hasMedia; // if Meme has media\n    //string mediaHash; // address of media\n  }\n\n\n  event MemeCreated(\n    uint memeId,\n    uint memeTime,\n    // string memeHash,\n    string memeText,\n    address author\n  );\n  event MemeLiked(\n    uint memeId,\n    uint memeTime,\n    // string memeHash,\n    string memeText,\n    address author\n  );\n  event PostCallerChanged(\n    address accountFrom,\n    address accountTo\n  );\n\n  constructor(UME _umeToken) public {\n    umeToken = _umeToken;\n    caller = msg.sender;\n  }\n\n  // posting meme functions\n  function newMeme(address account, string memory _memeText, address[] memory _tags, uint _parentId, uint _originId) public {\n    //require(bytes(_memeHash).length > 0, 'Error: meme hash doesn\\'t exist');\n    //require(bytes(_memeText).length > 0, 'Error: meme text doesn\\'t exist');\n    require(msg.sender==caller, 'Error: poster must be operating account');\n    //require(msg.sender != address(0x0), 'Error: author address doesn\\'t exist');\n    // increment meme id\n    memeCount++;\n    // set parent & origin id's to memeId if\n    if (_parentId == 0) {\n      _parentId = memeCount;\n    }\n    if (_originId == 0) {\n      _originId = memeCount;\n    }\n    // map memeId to new meme (if parent & origin)\n    memes[memeCount] = Meme(\n      memeCount, // meme id\n      block.timestamp, // meme time\n      // _memeHash, // meme hash\n      _memeText, // meme text\n      0, // like count\n      new address[](0), // likers\n      new address[](0), // unlikers\n      _tags, // tagged\n      new uint[](0), // response array\n      _parentId, // parent\n      _originId, // origin\n      account, // author\n      true // isVisible\n    );\n    // if responding to a single post, then mint respond token\n    if(memeCount!=_parentId && _parentId==_originId && memes[_parentId].author!=account) {\n      umeToken.mintRespond(account, memes[_parentId].author /* , _memehash */);\n    } // if responding to a thread, mint respond token for parent, curate token for original\n    else if(memeCount!=_parentId && _parentId!=_originId && memes[_originId].author!=account) {\n      umeToken.mintRespond(account, memes[_parentId].author /* , _memehash */);\n      umeToken.mintCurate(account, memes[_originId].author /* , _memehash */);\n    }\n    // mint tags\n    for(uint i = 0; i < _tags.length; i++) {\n      if(account!=_tags[i]){\n        umeToken.mintTag(account, _tags[i] /* , _memehash */);\n      }\n    }\n    // mint post token\n    umeToken.mintPost(account /* , _memehash */, _memeText);\n    emit MemeCreated(memeCount, block.timestamp /* , _memehash */, _memeText, msg.sender);\n  }\n\n  function deleteMeme(address account, uint memeId) public {\n    require(caller==msg.sender, 'Error: only account owner can delete meme');\n    // create empty Meme instance\n    memes[memeId] = Meme(\n      0, // memeId\n      0, // time\n      '', // meme text\n      0, // like count\n      new address[](0), // likers\n      new address[](0), // unlikers\n      new address[](0), // tagged\n      new uint[](0), // response array\n      0, // parent\n      0, // origin\n      address(0x0), // author\n      false // isVisible\n    );\n  }\n\n  // like functions\n  function likeMeme(address account, uint memeId) public {\n    require(account==caller, 'Error: liker must be operating account');\n\n    bool firstLike = true;\n    bool unliked = false;\n    // remove like if already liked\n    for(uint i = 0; i < memes[memeId].likers.length; i++) {\n      if(account==memes[memeId].likers[i]) {\n        firstLike = false;\n        _unLike(account, memeId, i);\n        unliked = true;\n      }\n    } // check for double like minting\n    for(uint i = 0; i < memes[memeId].unlikers.length; i++) {\n      if(account==memes[memeId].unlikers[i] && unliked==false) {\n        firstLike = false;\n        _addLike(account, memeId, i, firstLike);\n        break;\n      }\n    }\n    if(firstLike==true && unliked==false) {\n      _addLike(account, memeId, 0, firstLike);\n      // mint like token\n      umeToken.mintLike(account, memes[memeId].author /*, memes[memeId].hash*/ );\n    }\n  }\n  // setter functions for Meme\n  function _addLike(address account, uint memeId, uint index, bool firstLike) private {\n    // fetch meme from blockchain\n    Meme memory _meme = memes[memeId];\n\n    if(firstLike==false) {\n      _meme.unlikers = _deleteAddress(_meme.unlikers, index);\n    }\n\n    // set memory to _meme.likers length plus one\n    address[] memory _likers = new address[](_meme.likers.length+1);\n\n    // populate address array with existing _meme.likers\n    for(uint i = 0; i < _meme.likers.length; i++) {\n      //require(account!=_meme.likers[i], 'Error: liker has already liked account');\n      _likers[i] = _meme.likers[i];\n    }\n    // increment meme's likes\n    _meme.likes++;\n    // set _likers value to msg.sender at last slot of array\n    _likers[_likers.length-1] = msg.sender;\n    // set likers field of _meme.likers to _likers\n    _meme.likers = _likers;\n    // set meme at memeId to _meme instance\n    memes[memeId] = _meme;\n  }\n  function _unLike(address account, uint memeId, uint index) private {\n    require(memes[memeId].likers.length > 0, 'Error, no likers in meme');\n    // fetch meme from blockchain\n    Meme memory _meme = memes[memeId];\n\n    // delete liked index, moving all successive elements\n    _meme.likers = _deleteAddress(_meme.likers, index);\n    // decrement meme's likes\n    _meme.likes--;\n    // set memory to _meme.unlikers length plus one\n    address[] memory _unlikers = new address[](_meme.unlikers.length+1);\n    // populate address array with existing _meme.unlikers\n    for(uint i = 0; i < _meme.unlikers.length; i++) {\n      _unlikers[i] = _meme.unlikers[i];\n    }\n    // set _unlikers value to msg.sender at last slot of array\n    _unlikers[_unlikers.length-1] = msg.sender;\n    // set unlikers field of _meme.likers to _unlikers\n    _meme.unlikers = _unlikers;\n    // set meme at memeId to _meme instance\n    memes[memeId] = _meme;\n  }\n\n  // getter functions for Meme\n  function getLikers(uint memeId) public view returns(address[] memory) {\n    return memes[memeId].likers;\n  }\n  function getUnlikers(uint memeId) public view returns(address[] memory) {\n    return memes[memeId].unlikers;\n  }\n  function getTags(uint memeId) public view returns(address[] memory) {\n    return memes[memeId].tags;\n  }\n  function getResponses(uint memeId) public view returns(uint[] memory) {\n    return memes[memeId].responses;\n  }\n  // helper functions\n  function _deleteAddress(address[] memory array, uint index) private returns(address[] memory) {\n    address[] memory _array = new address[](array.length-1);\n    for(uint i = 0; i < index; i++) {\n      _array[i] = array[i];\n    }\n    for(uint i = index; i < _array.length; i++) {\n      _array[i] = array[i+1];\n    }\n    return _array;\n  }\n\n  // set caller role to User upon deployment\n  function passPostRole(address user) public returns (bool) {\n    require(msg.sender == caller, 'Error, only owner can pass post role');\n\n    caller = user;\n    emit PostCallerChanged(msg.sender, user);\n    return true;\n  }\n}\n",
  "sourcePath": "/Users/jaiq/Documents/000 BLOCKCHAIN/ETH/uMe/src/contracts/Post.sol",
  "compiler": {
    "name": "solc",
    "version": "0.8.7+commit.e28d00a7.Emscripten.clang"
  },
  "schemaVersion": "3.4.3",
  "updatedAt": "2021-08-22T07:48:18.495Z",
  "networkType": "ethereum",
  "devdoc": {
    "kind": "dev",
    "methods": {},
    "version": 1
  },
  "userdoc": {
    "kind": "user",
    "methods": {},
    "version": 1
  }
}