{
  "contractName": "Post",
  "abi": [
    {
      "inputs": [
        {
          "internalType": "contract UME",
          "name": "_umeToken",
          "type": "address"
        }
      ],
      "stateMutability": "nonpayable",
      "type": "constructor"
    },
    {
      "anonymous": false,
      "inputs": [
        {
          "indexed": false,
          "internalType": "uint256",
          "name": "memeId",
          "type": "uint256"
        },
        {
          "indexed": false,
          "internalType": "uint256",
          "name": "memeTime",
          "type": "uint256"
        },
        {
          "indexed": false,
          "internalType": "string",
          "name": "memeText",
          "type": "string"
        },
        {
          "indexed": false,
          "internalType": "address",
          "name": "author",
          "type": "address"
        }
      ],
      "name": "MemeCreated",
      "type": "event"
    },
    {
      "anonymous": false,
      "inputs": [
        {
          "indexed": false,
          "internalType": "uint256",
          "name": "memeId",
          "type": "uint256"
        },
        {
          "indexed": false,
          "internalType": "uint256",
          "name": "memeTime",
          "type": "uint256"
        },
        {
          "indexed": false,
          "internalType": "string",
          "name": "memeText",
          "type": "string"
        },
        {
          "indexed": false,
          "internalType": "address",
          "name": "author",
          "type": "address"
        }
      ],
      "name": "MemeLiked",
      "type": "event"
    },
    {
      "anonymous": false,
      "inputs": [
        {
          "indexed": false,
          "internalType": "address",
          "name": "accountFrom",
          "type": "address"
        },
        {
          "indexed": false,
          "internalType": "address",
          "name": "accountTo",
          "type": "address"
        }
      ],
      "name": "PostCallerChanged",
      "type": "event"
    },
    {
      "inputs": [],
      "name": "caller",
      "outputs": [
        {
          "internalType": "address",
          "name": "",
          "type": "address"
        }
      ],
      "stateMutability": "view",
      "type": "function"
    },
    {
      "inputs": [],
      "name": "memeCount",
      "outputs": [
        {
          "internalType": "uint256",
          "name": "",
          "type": "uint256"
        }
      ],
      "stateMutability": "view",
      "type": "function"
    },
    {
      "inputs": [
        {
          "internalType": "uint256",
          "name": "",
          "type": "uint256"
        }
      ],
      "name": "memes",
      "outputs": [
        {
          "internalType": "uint256",
          "name": "id",
          "type": "uint256"
        },
        {
          "internalType": "uint256",
          "name": "time",
          "type": "uint256"
        },
        {
          "internalType": "string",
          "name": "text",
          "type": "string"
        },
        {
          "internalType": "uint256",
          "name": "boost",
          "type": "uint256"
        },
        {
          "internalType": "uint256",
          "name": "likes",
          "type": "uint256"
        },
        {
          "internalType": "uint256",
          "name": "repostId",
          "type": "uint256"
        },
        {
          "internalType": "uint256",
          "name": "parentId",
          "type": "uint256"
        },
        {
          "internalType": "uint256",
          "name": "originId",
          "type": "uint256"
        },
        {
          "internalType": "address",
          "name": "author",
          "type": "address"
        },
        {
          "internalType": "bool",
          "name": "isVisible",
          "type": "bool"
        },
        {
          "internalType": "bool",
          "name": "isRepost",
          "type": "bool"
        }
      ],
      "stateMutability": "view",
      "type": "function"
    },
    {
      "inputs": [],
      "name": "name",
      "outputs": [
        {
          "internalType": "string",
          "name": "",
          "type": "string"
        }
      ],
      "stateMutability": "view",
      "type": "function"
    },
    {
      "inputs": [
        {
          "internalType": "address",
          "name": "account",
          "type": "address"
        },
        {
          "internalType": "string",
          "name": "_memeText",
          "type": "string"
        },
        {
          "internalType": "address[]",
          "name": "_tags",
          "type": "address[]"
        },
        {
          "internalType": "uint256",
          "name": "_parentId",
          "type": "uint256"
        },
        {
          "internalType": "uint256",
          "name": "_originId",
          "type": "uint256"
        }
      ],
      "name": "newMeme",
      "outputs": [],
      "stateMutability": "nonpayable",
      "type": "function"
    },
    {
      "inputs": [
        {
          "internalType": "address",
          "name": "account",
          "type": "address"
        },
        {
          "internalType": "uint256",
          "name": "memeId",
          "type": "uint256"
        }
      ],
      "name": "repost",
      "outputs": [],
      "stateMutability": "nonpayable",
      "type": "function"
    },
    {
      "inputs": [
        {
          "internalType": "address",
          "name": "account",
          "type": "address"
        },
        {
          "internalType": "string",
          "name": "_memeText",
          "type": "string"
        },
        {
          "internalType": "address[]",
          "name": "_tags",
          "type": "address[]"
        },
        {
          "internalType": "uint256",
          "name": "_parentId",
          "type": "uint256"
        },
        {
          "internalType": "uint256",
          "name": "_originId",
          "type": "uint256"
        },
        {
          "internalType": "uint256",
          "name": "memeId",
          "type": "uint256"
        }
      ],
      "name": "quotePost",
      "outputs": [],
      "stateMutability": "nonpayable",
      "type": "function"
    },
    {
      "inputs": [
        {
          "internalType": "address",
          "name": "account",
          "type": "address"
        },
        {
          "internalType": "uint256",
          "name": "memeId",
          "type": "uint256"
        }
      ],
      "name": "deleteMeme",
      "outputs": [],
      "stateMutability": "nonpayable",
      "type": "function"
    },
    {
      "inputs": [
        {
          "internalType": "address",
          "name": "account",
          "type": "address"
        },
        {
          "internalType": "uint256",
          "name": "memeId",
          "type": "uint256"
        }
      ],
      "name": "likeMeme",
      "outputs": [],
      "stateMutability": "nonpayable",
      "type": "function"
    },
    {
      "inputs": [
        {
          "internalType": "uint256",
          "name": "memeId",
          "type": "uint256"
        }
      ],
      "name": "getLikers",
      "outputs": [
        {
          "internalType": "address[]",
          "name": "",
          "type": "address[]"
        }
      ],
      "stateMutability": "view",
      "type": "function"
    },
    {
      "inputs": [
        {
          "internalType": "uint256",
          "name": "memeId",
          "type": "uint256"
        }
      ],
      "name": "getUnlikers",
      "outputs": [
        {
          "internalType": "address[]",
          "name": "",
          "type": "address[]"
        }
      ],
      "stateMutability": "view",
      "type": "function"
    },
    {
      "inputs": [
        {
          "internalType": "uint256",
          "name": "memeId",
          "type": "uint256"
        }
      ],
      "name": "getTags",
      "outputs": [
        {
          "internalType": "address[]",
          "name": "",
          "type": "address[]"
        }
      ],
      "stateMutability": "view",
      "type": "function"
    },
    {
      "inputs": [
        {
          "internalType": "uint256",
          "name": "memeId",
          "type": "uint256"
        }
      ],
      "name": "getResponses",
      "outputs": [
        {
          "internalType": "uint256[]",
          "name": "",
          "type": "uint256[]"
        }
      ],
      "stateMutability": "view",
      "type": "function"
    },
    {
      "inputs": [
        {
          "internalType": "address",
          "name": "user",
          "type": "address"
        }
      ],
      "name": "passPostRole",
      "outputs": [
        {
          "internalType": "bool",
          "name": "",
          "type": "bool"
        }
      ],
      "stateMutability": "nonpayable",
      "type": "function"
    }
  ],
  "bytecode": "0x60806040526040518060400160405280600381526020017f754d650000000000000000000000000000000000000000000000000000000000815250600290805190602001906200005192919062000112565b5060006003553480156200006457600080fd5b50604051620058f0380380620058f083398181016040528101906200008a9190620001d9565b806000806101000a81548173ffffffffffffffffffffffffffffffffffffffff021916908373ffffffffffffffffffffffffffffffffffffffff16021790555033600160006101000a81548173ffffffffffffffffffffffffffffffffffffffff021916908373ffffffffffffffffffffffffffffffffffffffff16021790555050620002d7565b828054620001209062000253565b90600052602060002090601f01602090048101928262000144576000855562000190565b82601f106200015f57805160ff191683800117855562000190565b8280016001018555821562000190579182015b828111156200018f57825182559160200191906001019062000172565b5b5090506200019f9190620001a3565b5090565b5b80821115620001be576000816000905550600101620001a4565b5090565b600081519050620001d381620002bd565b92915050565b600060208284031215620001f257620001f1620002b8565b5b60006200020284828501620001c2565b91505092915050565b6000620002188262000233565b9050919050565b60006200022c826200020b565b9050919050565b600073ffffffffffffffffffffffffffffffffffffffff82169050919050565b600060028204905060018216806200026c57607f821691505b6020821081141562000283576200028262000289565b5b50919050565b7f4e487b7100000000000000000000000000000000000000000000000000000000600052602260045260246000fd5b600080fd5b620002c8816200021f565b8114620002d457600080fd5b50565b61560980620002e76000396000f3fe608060405234801561001057600080fd5b50600436106100ea5760003560e01c806384e278b91161008c578063c77e786e11610066578063c77e786e14610265578063d833b64614610281578063e080b787146102b1578063fc9c8d39146102e1576100ea565b806384e278b9146101fd578063a4bc6ad01461022d578063b617e9c414610249576100ea565b8063388f6064116100c8578063388f60641461015957806371ee2ce1146101935780637b2124d2146101c35780637c5830e4146101e1576100ea565b806306fdde03146100ef57806308e5c7ae1461010d57806329d29cb314610129575b600080fd5b6100f76102ff565b6040516101049190614da3565b60405180910390f35b61012760048036038101906101229190614886565b61038d565b005b610143600480360381019061013e9190614a3e565b610d5d565b6040516101509190614d44565b60405180910390f35b610173600480360381019061016e9190614a3e565b610e01565b60405161018a9b9a99989796959493929190614eec565b60405180910390f35b6101ad60048036038101906101a89190614a3e565b610f1d565b6040516101ba9190614d66565b60405180910390f35b6101cb610f8b565b6040516101d89190614e85565b60405180910390f35b6101fb60048036038101906101f69190614939565b610f91565b005b61021760048036038101906102129190614a3e565b611961565b6040516102249190614d44565b60405180910390f35b610247600480360381019061024291906149fe565b611a05565b005b610263600480360381019061025e91906149fe565b61244c565b005b61027f600480360381019061027a91906149fe565b6128ef565b005b61029b60048036038101906102969190614a3e565b612c2f565b6040516102a89190614d44565b60405180910390f35b6102cb60048036038101906102c69190614859565b612cd3565b6040516102d89190614d88565b60405180910390f35b6102e9612de8565b6040516102f69190614cd0565b60405180910390f35b6002805461030c90615236565b80601f016020809104026020016040519081016040528092919081815260200182805461033890615236565b80156103855780601f1061035a57610100808354040283529160200191610385565b820191906000526020600020905b81548152906001019060200180831161036857829003601f168201915b505050505081565b600160009054906101000a900473ffffffffffffffffffffffffffffffffffffffff1673ffffffffffffffffffffffffffffffffffffffff163373ffffffffffffffffffffffffffffffffffffffff161461041d576040517f08c379a000000000000000000000000000000000000000000000000000000000815260040161041490614e65565b60405180910390fd5b6003600081548092919061043090615299565b919050555060008214156104445760035491505b60008114156104535760035490505b60405180610220016040528060035481526020014281526020018581526020016000815260200160008152602001600067ffffffffffffffff81111561049c5761049b61536f565b5b6040519080825280602002602001820160405280156104ca5781602001602082028036833780820191505090505b508152602001600067ffffffffffffffff8111156104eb576104ea61536f565b5b6040519080825280602002602001820160405280156105195781602001602082028036833780820191505090505b508152602001600067ffffffffffffffff81111561053a5761053961536f565b5b6040519080825280602002602001820160405280156105685781602001602082028036833780820191505090505b508152602001600067ffffffffffffffff8111156105895761058861536f565b5b6040519080825280602002602001820160405280156105b75781602001602082028036833780820191505090505b50815260200160008152602001848152602001600067ffffffffffffffff8111156105e5576105e461536f565b5b6040519080825280602002602001820160405280156106135781602001602082028036833780820191505090505b5081526020018381526020018281526020018673ffffffffffffffffffffffffffffffffffffffff16815260200160011515815260200160001515815250600460006003548152602001908152602001600020600082015181600001556020820151816001015560408201518160020190805190602001906106969291906145a7565b50606082015181600301556080820151816004015560a08201518160050190805190602001906106c792919061462d565b5060c08201518160060190805190602001906106e492919061462d565b5060e08201518160070190805190602001906107019291906146b7565b5061010082015181600801908051906020019061071f9291906146b7565b50610120820151816009015561014082015181600a01908051906020019061074892919061462d565b5061016082015181600b0190805190602001906107669291906146b7565b5061018082015181600c01556101a082015181600d01556101c082015181600e0160006101000a81548173ffffffffffffffffffffffffffffffffffffffff021916908373ffffffffffffffffffffffffffffffffffffffff1602179055506101e082015181600e0160146101000a81548160ff02191690831515021790555061020082015181600e0160156101000a81548160ff021916908315150217905550905050816003541415801561081b57508082145b801561088957508473ffffffffffffffffffffffffffffffffffffffff1660046000848152602001908152602001600020600e0160009054906101000a900473ffffffffffffffffffffffffffffffffffffffff1673ffffffffffffffffffffffffffffffffffffffff1614155b1561095f5760008054906101000a900473ffffffffffffffffffffffffffffffffffffffff1673ffffffffffffffffffffffffffffffffffffffff1663bc8341958660046000868152602001908152602001600020600e0160009054906101000a900473ffffffffffffffffffffffffffffffffffffffff166040518363ffffffff1660e01b815260040161091f929190614ceb565b600060405180830381600087803b15801561093957600080fd5b505af115801561094d573d6000803e3d6000fd5b5050505061095a82612e0e565b610b75565b81600354141580156109715750808214155b80156109df57508473ffffffffffffffffffffffffffffffffffffffff1660046000838152602001908152602001600020600e0160009054906101000a900473ffffffffffffffffffffffffffffffffffffffff1673ffffffffffffffffffffffffffffffffffffffff1614155b15610b745760008054906101000a900473ffffffffffffffffffffffffffffffffffffffff1673ffffffffffffffffffffffffffffffffffffffff1663bc8341958660046000868152602001908152602001600020600e0160009054906101000a900473ffffffffffffffffffffffffffffffffffffffff166040518363ffffffff1660e01b8152600401610a75929190614ceb565b600060405180830381600087803b158015610a8f57600080fd5b505af1158015610aa3573d6000803e3d6000fd5b5050505060008054906101000a900473ffffffffffffffffffffffffffffffffffffffff1673ffffffffffffffffffffffffffffffffffffffff1663e981dc8f8660046000858152602001908152602001600020600e0160009054906101000a900473ffffffffffffffffffffffffffffffffffffffff166040518363ffffffff1660e01b8152600401610b38929190614ceb565b600060405180830381600087803b158015610b5257600080fd5b505af1158015610b66573d6000803e3d6000fd5b50505050610b7382612e0e565b5b5b60005b8351811015610c8957838181518110610b9457610b93615340565b5b602002602001015173ffffffffffffffffffffffffffffffffffffffff168673ffffffffffffffffffffffffffffffffffffffff1614610c765760008054906101000a900473ffffffffffffffffffffffffffffffffffffffff1673ffffffffffffffffffffffffffffffffffffffff16632cc67a7c87868481518110610c1e57610c1d615340565b5b60200260200101516040518363ffffffff1660e01b8152600401610c43929190614ceb565b600060405180830381600087803b158015610c5d57600080fd5b505af1158015610c71573d6000803e3d6000fd5b505050505b8080610c8190615299565b915050610b78565b5060008054906101000a900473ffffffffffffffffffffffffffffffffffffffff1673ffffffffffffffffffffffffffffffffffffffff166376bd8f8c86866040518363ffffffff1660e01b8152600401610ce5929190614d14565b600060405180830381600087803b158015610cff57600080fd5b505af1158015610d13573d6000803e3d6000fd5b505050507ff4b76bfc28b30086943b067f418c414661731cbca96196b1b6a44f7b0ab99db8600354428688604051610d4e9493929190614ea0565b60405180910390a15050505050565b606060046000838152602001908152602001600020600a01805480602002602001604051908101604052809291908181526020018280548015610df557602002820191906000526020600020905b8160009054906101000a900473ffffffffffffffffffffffffffffffffffffffff1673ffffffffffffffffffffffffffffffffffffffff1681526020019060010190808311610dab575b50505050509050919050565b6004602052806000526040600020600091509050806000015490806001015490806002018054610e3090615236565b80601f0160208091040260200160405190810160405280929190818152602001828054610e5c90615236565b8015610ea95780601f10610e7e57610100808354040283529160200191610ea9565b820191906000526020600020905b815481529060010190602001808311610e8c57829003601f168201915b50505050509080600301549080600401549080600901549080600c01549080600d01549080600e0160009054906101000a900473ffffffffffffffffffffffffffffffffffffffff169080600e0160149054906101000a900460ff169080600e0160159054906101000a900460ff1690508b565b606060046000838152602001908152602001600020600b01805480602002602001604051908101604052809291908181526020018280548015610f7f57602002820191906000526020600020905b815481526020019060010190808311610f6b575b50505050509050919050565b60035481565b600160009054906101000a900473ffffffffffffffffffffffffffffffffffffffff1673ffffffffffffffffffffffffffffffffffffffff163373ffffffffffffffffffffffffffffffffffffffff1614611021576040517f08c379a000000000000000000000000000000000000000000000000000000000815260040161101890614e65565b60405180910390fd5b6003600081548092919061103490615299565b919050555060008314156110485760035492505b60008214156110575760035491505b60405180610220016040528060035481526020014281526020018681526020016000815260200160008152602001600067ffffffffffffffff8111156110a05761109f61536f565b5b6040519080825280602002602001820160405280156110ce5781602001602082028036833780820191505090505b508152602001600067ffffffffffffffff8111156110ef576110ee61536f565b5b60405190808252806020026020018201604052801561111d5781602001602082028036833780820191505090505b508152602001600067ffffffffffffffff81111561113e5761113d61536f565b5b60405190808252806020026020018201604052801561116c5781602001602082028036833780820191505090505b508152602001600067ffffffffffffffff81111561118d5761118c61536f565b5b6040519080825280602002602001820160405280156111bb5781602001602082028036833780820191505090505b508152602001828152602001858152602001600067ffffffffffffffff8111156111e8576111e761536f565b5b6040519080825280602002602001820160405280156112165781602001602082028036833780820191505090505b5081526020018481526020018381526020018773ffffffffffffffffffffffffffffffffffffffff16815260200160011515815260200160011515815250600460006003548152602001908152602001600020600082015181600001556020820151816001015560408201518160020190805190602001906112999291906145a7565b50606082015181600301556080820151816004015560a08201518160050190805190602001906112ca92919061462d565b5060c08201518160060190805190602001906112e792919061462d565b5060e08201518160070190805190602001906113049291906146b7565b506101008201518160080190805190602001906113229291906146b7565b50610120820151816009015561014082015181600a01908051906020019061134b92919061462d565b5061016082015181600b0190805190602001906113699291906146b7565b5061018082015181600c01556101a082015181600d01556101c082015181600e0160006101000a81548173ffffffffffffffffffffffffffffffffffffffff021916908373ffffffffffffffffffffffffffffffffffffffff1602179055506101e082015181600e0160146101000a81548160ff02191690831515021790555061020082015181600e0160156101000a81548160ff021916908315150217905550905050826003541415801561141e57508183145b801561148c57508573ffffffffffffffffffffffffffffffffffffffff1660046000858152602001908152602001600020600e0160009054906101000a900473ffffffffffffffffffffffffffffffffffffffff1673ffffffffffffffffffffffffffffffffffffffff1614155b156115625760008054906101000a900473ffffffffffffffffffffffffffffffffffffffff1673ffffffffffffffffffffffffffffffffffffffff1663bc8341958760046000878152602001908152602001600020600e0160009054906101000a900473ffffffffffffffffffffffffffffffffffffffff166040518363ffffffff1660e01b8152600401611522929190614ceb565b600060405180830381600087803b15801561153c57600080fd5b505af1158015611550573d6000803e3d6000fd5b5050505061155d83612e0e565b611778565b82600354141580156115745750818314155b80156115e257508573ffffffffffffffffffffffffffffffffffffffff1660046000848152602001908152602001600020600e0160009054906101000a900473ffffffffffffffffffffffffffffffffffffffff1673ffffffffffffffffffffffffffffffffffffffff1614155b156117775760008054906101000a900473ffffffffffffffffffffffffffffffffffffffff1673ffffffffffffffffffffffffffffffffffffffff1663bc8341958760046000878152602001908152602001600020600e0160009054906101000a900473ffffffffffffffffffffffffffffffffffffffff166040518363ffffffff1660e01b8152600401611678929190614ceb565b600060405180830381600087803b15801561169257600080fd5b505af11580156116a6573d6000803e3d6000fd5b5050505060008054906101000a900473ffffffffffffffffffffffffffffffffffffffff1673ffffffffffffffffffffffffffffffffffffffff1663e981dc8f8760046000868152602001908152602001600020600e0160009054906101000a900473ffffffffffffffffffffffffffffffffffffffff166040518363ffffffff1660e01b815260040161173b929190614ceb565b600060405180830381600087803b15801561175557600080fd5b505af1158015611769573d6000803e3d6000fd5b5050505061177683612e0e565b5b5b60005b845181101561188c5784818151811061179757611796615340565b5b602002602001015173ffffffffffffffffffffffffffffffffffffffff168773ffffffffffffffffffffffffffffffffffffffff16146118795760008054906101000a900473ffffffffffffffffffffffffffffffffffffffff1673ffffffffffffffffffffffffffffffffffffffff16632cc67a7c8887848151811061182157611820615340565b5b60200260200101516040518363ffffffff1660e01b8152600401611846929190614ceb565b600060405180830381600087803b15801561186057600080fd5b505af1158015611874573d6000803e3d6000fd5b505050505b808061188490615299565b91505061177b565b5060008054906101000a900473ffffffffffffffffffffffffffffffffffffffff1673ffffffffffffffffffffffffffffffffffffffff166376bd8f8c87876040518363ffffffff1660e01b81526004016118e8929190614d14565b600060405180830381600087803b15801561190257600080fd5b505af1158015611916573d6000803e3d6000fd5b505050507ff4b76bfc28b30086943b067f418c414661731cbca96196b1b6a44f7b0ab99db86003544287896040516119519493929190614ea0565b60405180910390a1505050505050565b6060600460008381526020019081526020016000206005018054806020026020016040519081016040528092919081815260200182805480156119f957602002820191906000526020600020905b8160009054906101000a900473ffffffffffffffffffffffffffffffffffffffff1673ffffffffffffffffffffffffffffffffffffffff16815260200190600101908083116119af575b50505050509050919050565b3373ffffffffffffffffffffffffffffffffffffffff16600160009054906101000a900473ffffffffffffffffffffffffffffffffffffffff1673ffffffffffffffffffffffffffffffffffffffff1614611a95576040517f08c379a0000000000000000000000000000000000000000000000000000000008152600401611a8c90614dc5565b60405180910390fd5b60036000815480929190611aa890615299565b919050555060405180610220016040528060035481526020014281526020016040518060200160405280600081525081526020016000815260200160008152602001600067ffffffffffffffff811115611b0557611b0461536f565b5b604051908082528060200260200182016040528015611b335781602001602082028036833780820191505090505b508152602001600067ffffffffffffffff811115611b5457611b5361536f565b5b604051908082528060200260200182016040528015611b825781602001602082028036833780820191505090505b508152602001600067ffffffffffffffff811115611ba357611ba261536f565b5b604051908082528060200260200182016040528015611bd15781602001602082028036833780820191505090505b508152602001600067ffffffffffffffff811115611bf257611bf161536f565b5b604051908082528060200260200182016040528015611c205781602001602082028036833780820191505090505b50815260200182815260200160046000848152602001908152602001600020600a01805480602002602001604051908101604052809291908181526020018280548015611cc257602002820191906000526020600020905b8160009054906101000a900473ffffffffffffffffffffffffffffffffffffffff1673ffffffffffffffffffffffffffffffffffffffff1681526020019060010190808311611c78575b50505050508152602001600067ffffffffffffffff811115611ce757611ce661536f565b5b604051908082528060200260200182016040528015611d155781602001602082028036833780820191505090505b50815260200160008152602001600081526020018373ffffffffffffffffffffffffffffffffffffffff1681526020016001151581526020016001151581525060046000600354815260200190815260200160002060008201518160000155602082015181600101556040820151816002019080519060200190611d9a9291906145a7565b50606082015181600301556080820151816004015560a0820151816005019080519060200190611dcb92919061462d565b5060c0820151816006019080519060200190611de892919061462d565b5060e0820151816007019080519060200190611e059291906146b7565b50610100820151816008019080519060200190611e239291906146b7565b50610120820151816009015561014082015181600a019080519060200190611e4c92919061462d565b5061016082015181600b019080519060200190611e6a9291906146b7565b5061018082015181600c01556101a082015181600d01556101c082015181600e0160006101000a81548173ffffffffffffffffffffffffffffffffffffffff021916908373ffffffffffffffffffffffffffffffffffffffff1602179055506101e082015181600e0160146101000a81548160ff02191690831515021790555061020082015181600e0160156101000a81548160ff021916908315150217905550905050600060046000838152602001908152602001600020604051806102200160405290816000820154815260200160018201548152602001600282018054611f5390615236565b80601f0160208091040260200160405190810160405280929190818152602001828054611f7f90615236565b8015611fcc5780601f10611fa157610100808354040283529160200191611fcc565b820191906000526020600020905b815481529060010190602001808311611faf57829003601f168201915b5050505050815260200160038201548152602001600482015481526020016005820180548060200260200160405190810160405280929190818152602001828054801561206e57602002820191906000526020600020905b8160009054906101000a900473ffffffffffffffffffffffffffffffffffffffff1673ffffffffffffffffffffffffffffffffffffffff1681526020019060010190808311612024575b50505050508152602001600682018054806020026020016040519081016040528092919081815260200182805480156120fc57602002820191906000526020600020905b8160009054906101000a900473ffffffffffffffffffffffffffffffffffffffff1673ffffffffffffffffffffffffffffffffffffffff16815260200190600101908083116120b2575b505050505081526020016007820180548060200260200160405190810160405280929190818152602001828054801561215457602002820191906000526020600020905b815481526020019060010190808311612140575b50505050508152602001600882018054806020026020016040519081016040528092919081815260200182805480156121ac57602002820191906000526020600020905b815481526020019060010190808311612198575b5050505050815260200160098201548152602001600a820180548060200260200160405190810160405280929190818152602001828054801561224457602002820191906000526020600020905b8160009054906101000a900473ffffffffffffffffffffffffffffffffffffffff1673ffffffffffffffffffffffffffffffffffffffff16815260200190600101908083116121fa575b50505050508152602001600b820180548060200260200160405190810160405280929190818152602001828054801561229c57602002820191906000526020600020905b815481526020019060010190808311612288575b50505050508152602001600c8201548152602001600d8201548152602001600e820160009054906101000a900473ffffffffffffffffffffffffffffffffffffffff1673ffffffffffffffffffffffffffffffffffffffff1673ffffffffffffffffffffffffffffffffffffffff168152602001600e820160149054906101000a900460ff16151515158152602001600e820160159054906101000a900460ff161515151581525050905060008054906101000a900473ffffffffffffffffffffffffffffffffffffffff1673ffffffffffffffffffffffffffffffffffffffff1663f52548d48460046000868152602001908152602001600020600e0160009054906101000a900473ffffffffffffffffffffffffffffffffffffffff166040518363ffffffff1660e01b81526004016123d8929190614ceb565b600060405180830381600087803b1580156123f257600080fd5b505af1158015612406573d6000803e3d6000fd5b505050507ff4b76bfc28b30086943b067f418c414661731cbca96196b1b6a44f7b0ab99db8600354428560405161243f93929190614f9e565b60405180910390a1505050565b3373ffffffffffffffffffffffffffffffffffffffff16600160009054906101000a900473ffffffffffffffffffffffffffffffffffffffff1673ffffffffffffffffffffffffffffffffffffffff16146124dc576040517f08c379a00000000000000000000000000000000000000000000000000000000081526004016124d390614e05565b60405180910390fd5b604051806102200160405280828152602001600081526020016040518060200160405280600081525081526020016000815260200160008152602001600067ffffffffffffffff8111156125335761253261536f565b5b6040519080825280602002602001820160405280156125615781602001602082028036833780820191505090505b508152602001600067ffffffffffffffff8111156125825761258161536f565b5b6040519080825280602002602001820160405280156125b05781602001602082028036833780820191505090505b508152602001600067ffffffffffffffff8111156125d1576125d061536f565b5b6040519080825280602002602001820160405280156125ff5781602001602082028036833780820191505090505b508152602001600067ffffffffffffffff8111156126205761261f61536f565b5b60405190808252806020026020018201604052801561264e5781602001602082028036833780820191505090505b50815260200160008152602001600067ffffffffffffffff8111156126765761267561536f565b5b6040519080825280602002602001820160405280156126a45781602001602082028036833780820191505090505b508152602001600067ffffffffffffffff8111156126c5576126c461536f565b5b6040519080825280602002602001820160405280156126f35781602001602082028036833780820191505090505b5081526020016000815260200160008152602001600073ffffffffffffffffffffffffffffffffffffffff1681526020016000151581526020016000151581525060046000838152602001908152602001600020600082015181600001556020820151816001015560408201518160020190805190602001906127779291906145a7565b50606082015181600301556080820151816004015560a08201518160050190805190602001906127a892919061462d565b5060c08201518160060190805190602001906127c592919061462d565b5060e08201518160070190805190602001906127e29291906146b7565b506101008201518160080190805190602001906128009291906146b7565b50610120820151816009015561014082015181600a01908051906020019061282992919061462d565b5061016082015181600b0190805190602001906128479291906146b7565b5061018082015181600c01556101a082015181600d01556101c082015181600e0160006101000a81548173ffffffffffffffffffffffffffffffffffffffff021916908373ffffffffffffffffffffffffffffffffffffffff1602179055506101e082015181600e0160146101000a81548160ff02191690831515021790555061020082015181600e0160156101000a81548160ff0219169083151502179055509050505050565b600160009054906101000a900473ffffffffffffffffffffffffffffffffffffffff1673ffffffffffffffffffffffffffffffffffffffff163373ffffffffffffffffffffffffffffffffffffffff161461297f576040517f08c379a000000000000000000000000000000000000000000000000000000000815260040161297690614de5565b60405180910390fd5b6000600190506000805b6004600085815260200190815260200160002060050180549050811015612a57576004600085815260200190815260200160002060050181815481106129d2576129d1615340565b5b9060005260206000200160009054906101000a900473ffffffffffffffffffffffffffffffffffffffff1673ffffffffffffffffffffffffffffffffffffffff168573ffffffffffffffffffffffffffffffffffffffff161415612a445760009250612a3f8585836134cc565b600191505b8080612a4f90615299565b915050612989565b5060005b6004600085815260200190815260200160002060060180549050811015612b3a57600460008581526020019081526020016000206006018181548110612aa457612aa3615340565b5b9060005260206000200160009054906101000a900473ffffffffffffffffffffffffffffffffffffffff1673ffffffffffffffffffffffffffffffffffffffff168573ffffffffffffffffffffffffffffffffffffffff16148015612b0d575060001515821515145b15612b275760009250612b2285858386613c9e565b612b3a565b8080612b3290615299565b915050612a5b565b5060011515821515148015612b53575060001515811515145b15612c2957612b658484600085613c9e565b60008054906101000a900473ffffffffffffffffffffffffffffffffffffffff1673ffffffffffffffffffffffffffffffffffffffff1663d04495898560046000878152602001908152602001600020600e0160009054906101000a900473ffffffffffffffffffffffffffffffffffffffff166040518363ffffffff1660e01b8152600401612bf6929190614ceb565b600060405180830381600087803b158015612c1057600080fd5b505af1158015612c24573d6000803e3d6000fd5b505050505b50505050565b606060046000838152602001908152602001600020600601805480602002602001604051908101604052809291908181526020018280548015612cc757602002820191906000526020600020905b8160009054906101000a900473ffffffffffffffffffffffffffffffffffffffff1673ffffffffffffffffffffffffffffffffffffffff1681526020019060010190808311612c7d575b50505050509050919050565b6000600160009054906101000a900473ffffffffffffffffffffffffffffffffffffffff1673ffffffffffffffffffffffffffffffffffffffff163373ffffffffffffffffffffffffffffffffffffffff1614612d65576040517f08c379a0000000000000000000000000000000000000000000000000000000008152600401612d5c90614e45565b60405180910390fd5b81600160006101000a81548173ffffffffffffffffffffffffffffffffffffffff021916908373ffffffffffffffffffffffffffffffffffffffff1602179055507f77c92fdb2e535561a11229adeb4dc3cfa5109f59adca0bcbd4bd6a2c1b3156673383604051612dd7929190614ceb565b60405180910390a160019050919050565b600160009054906101000a900473ffffffffffffffffffffffffffffffffffffffff1681565b600060046000838152602001908152602001600020604051806102200160405290816000820154815260200160018201548152602001600282018054612e5390615236565b80601f0160208091040260200160405190810160405280929190818152602001828054612e7f90615236565b8015612ecc5780601f10612ea157610100808354040283529160200191612ecc565b820191906000526020600020905b815481529060010190602001808311612eaf57829003601f168201915b50505050508152602001600382015481526020016004820154815260200160058201805480602002602001604051908101604052809291908181526020018280548015612f6e57602002820191906000526020600020905b8160009054906101000a900473ffffffffffffffffffffffffffffffffffffffff1673ffffffffffffffffffffffffffffffffffffffff1681526020019060010190808311612f24575b5050505050815260200160068201805480602002602001604051908101604052809291908181526020018280548015612ffc57602002820191906000526020600020905b8160009054906101000a900473ffffffffffffffffffffffffffffffffffffffff1673ffffffffffffffffffffffffffffffffffffffff1681526020019060010190808311612fb2575b505050505081526020016007820180548060200260200160405190810160405280929190818152602001828054801561305457602002820191906000526020600020905b815481526020019060010190808311613040575b50505050508152602001600882018054806020026020016040519081016040528092919081815260200182805480156130ac57602002820191906000526020600020905b815481526020019060010190808311613098575b5050505050815260200160098201548152602001600a820180548060200260200160405190810160405280929190818152602001828054801561314457602002820191906000526020600020905b8160009054906101000a900473ffffffffffffffffffffffffffffffffffffffff1673ffffffffffffffffffffffffffffffffffffffff16815260200190600101908083116130fa575b50505050508152602001600b820180548060200260200160405190810160405280929190818152602001828054801561319c57602002820191906000526020600020905b815481526020019060010190808311613188575b50505050508152602001600c8201548152602001600d8201548152602001600e820160009054906101000a900473ffffffffffffffffffffffffffffffffffffffff1673ffffffffffffffffffffffffffffffffffffffff1673ffffffffffffffffffffffffffffffffffffffff168152602001600e820160149054906101000a900460ff16151515158152602001600e820160159054906101000a900460ff1615151515815250509050600060018261016001515161325c91906150f8565b67ffffffffffffffff8111156132755761327461536f565b5b6040519080825280602002602001820160405280156132a35781602001602082028036833780820191505090505b50905060005b81518110156133045782610160015181815181106132ca576132c9615340565b5b60200260200101518282815181106132e5576132e4615340565b5b60200260200101818152505080806132fc90615299565b9150506132a9565b50808261016001819052508160046000858152602001908152602001600020600082015181600001556020820151816001015560408201518160020190805190602001906133539291906145a7565b50606082015181600301556080820151816004015560a082015181600501908051906020019061338492919061462d565b5060c08201518160060190805190602001906133a192919061462d565b5060e08201518160070190805190602001906133be9291906146b7565b506101008201518160080190805190602001906133dc9291906146b7565b50610120820151816009015561014082015181600a01908051906020019061340592919061462d565b5061016082015181600b0190805190602001906134239291906146b7565b5061018082015181600c01556101a082015181600d01556101c082015181600e0160006101000a81548173ffffffffffffffffffffffffffffffffffffffff021916908373ffffffffffffffffffffffffffffffffffffffff1602179055506101e082015181600e0160146101000a81548160ff02191690831515021790555061020082015181600e0160156101000a81548160ff021916908315150217905550905050505050565b6000600460008481526020019081526020016000206005018054905011613528576040517f08c379a000000000000000000000000000000000000000000000000000000000815260040161351f90614e25565b60405180910390fd5b60006004600084815260200190815260200160002060405180610220016040529081600082015481526020016001820154815260200160028201805461356d90615236565b80601f016020809104026020016040519081016040528092919081815260200182805461359990615236565b80156135e65780601f106135bb576101008083540402835291602001916135e6565b820191906000526020600020905b8154815290600101906020018083116135c957829003601f168201915b5050505050815260200160038201548152602001600482015481526020016005820180548060200260200160405190810160405280929190818152602001828054801561368857602002820191906000526020600020905b8160009054906101000a900473ffffffffffffffffffffffffffffffffffffffff1673ffffffffffffffffffffffffffffffffffffffff168152602001906001019080831161363e575b505050505081526020016006820180548060200260200160405190810160405280929190818152602001828054801561371657602002820191906000526020600020905b8160009054906101000a900473ffffffffffffffffffffffffffffffffffffffff1673ffffffffffffffffffffffffffffffffffffffff16815260200190600101908083116136cc575b505050505081526020016007820180548060200260200160405190810160405280929190818152602001828054801561376e57602002820191906000526020600020905b81548152602001906001019080831161375a575b50505050508152602001600882018054806020026020016040519081016040528092919081815260200182805480156137c657602002820191906000526020600020905b8154815260200190600101908083116137b2575b5050505050815260200160098201548152602001600a820180548060200260200160405190810160405280929190818152602001828054801561385e57602002820191906000526020600020905b8160009054906101000a900473ffffffffffffffffffffffffffffffffffffffff1673ffffffffffffffffffffffffffffffffffffffff1681526020019060010190808311613814575b50505050508152602001600b82018054806020026020016040519081016040528092919081815260200182805480156138b657602002820191906000526020600020905b8154815260200190600101908083116138a2575b50505050508152602001600c8201548152602001600d8201548152602001600e820160009054906101000a900473ffffffffffffffffffffffffffffffffffffffff1673ffffffffffffffffffffffffffffffffffffffff1673ffffffffffffffffffffffffffffffffffffffff168152602001600e820160149054906101000a900460ff16151515158152602001600e820160159054906101000a900460ff161515151581525050905061396f8160a0015183614423565b8160a001819052508060800180518091906139899061520c565b81525050600060018260c00151516139a191906150f8565b67ffffffffffffffff8111156139ba576139b961536f565b5b6040519080825280602002602001820160405280156139e85781602001602082028036833780820191505090505b50905060005b8260c0015151811015613a7a578260c001518181518110613a1257613a11615340565b5b6020026020010151828281518110613a2d57613a2c615340565b5b602002602001019073ffffffffffffffffffffffffffffffffffffffff16908173ffffffffffffffffffffffffffffffffffffffff16815250508080613a7290615299565b9150506139ee565b50848160018351613a8b919061514e565b81518110613a9c57613a9b615340565b5b602002602001019073ffffffffffffffffffffffffffffffffffffffff16908173ffffffffffffffffffffffffffffffffffffffff1681525050808260c00181905250816004600086815260200190815260200160002060008201518160000155602082015181600101556040820151816002019080519060200190613b239291906145a7565b50606082015181600301556080820151816004015560a0820151816005019080519060200190613b5492919061462d565b5060c0820151816006019080519060200190613b7192919061462d565b5060e0820151816007019080519060200190613b8e9291906146b7565b50610100820151816008019080519060200190613bac9291906146b7565b50610120820151816009015561014082015181600a019080519060200190613bd592919061462d565b5061016082015181600b019080519060200190613bf39291906146b7565b5061018082015181600c01556101a082015181600d01556101c082015181600e0160006101000a81548173ffffffffffffffffffffffffffffffffffffffff021916908373ffffffffffffffffffffffffffffffffffffffff1602179055506101e082015181600e0160146101000a81548160ff02191690831515021790555061020082015181600e0160156101000a81548160ff0219169083151502179055509050505050505050565b600060046000858152602001908152602001600020604051806102200160405290816000820154815260200160018201548152602001600282018054613ce390615236565b80601f0160208091040260200160405190810160405280929190818152602001828054613d0f90615236565b8015613d5c5780601f10613d3157610100808354040283529160200191613d5c565b820191906000526020600020905b815481529060010190602001808311613d3f57829003601f168201915b50505050508152602001600382015481526020016004820154815260200160058201805480602002602001604051908101604052809291908181526020018280548015613dfe57602002820191906000526020600020905b8160009054906101000a900473ffffffffffffffffffffffffffffffffffffffff1673ffffffffffffffffffffffffffffffffffffffff1681526020019060010190808311613db4575b5050505050815260200160068201805480602002602001604051908101604052809291908181526020018280548015613e8c57602002820191906000526020600020905b8160009054906101000a900473ffffffffffffffffffffffffffffffffffffffff1673ffffffffffffffffffffffffffffffffffffffff1681526020019060010190808311613e42575b5050505050815260200160078201805480602002602001604051908101604052809291908181526020018280548015613ee457602002820191906000526020600020905b815481526020019060010190808311613ed0575b5050505050815260200160088201805480602002602001604051908101604052809291908181526020018280548015613f3c57602002820191906000526020600020905b815481526020019060010190808311613f28575b5050505050815260200160098201548152602001600a8201805480602002602001604051908101604052809291908181526020018280548015613fd457602002820191906000526020600020905b8160009054906101000a900473ffffffffffffffffffffffffffffffffffffffff1673ffffffffffffffffffffffffffffffffffffffff1681526020019060010190808311613f8a575b50505050508152602001600b820180548060200260200160405190810160405280929190818152602001828054801561402c57602002820191906000526020600020905b815481526020019060010190808311614018575b50505050508152602001600c8201548152602001600d8201548152602001600e820160009054906101000a900473ffffffffffffffffffffffffffffffffffffffff1673ffffffffffffffffffffffffffffffffffffffff1673ffffffffffffffffffffffffffffffffffffffff168152602001600e820160149054906101000a900460ff16151515158152602001600e820160159054906101000a900460ff16151515158152505090506000151582151514156140fb576140f28160c0015184614423565b8160c001819052505b600060018260a001515161410f91906150f8565b67ffffffffffffffff8111156141285761412761536f565b5b6040519080825280602002602001820160405280156141565781602001602082028036833780820191505090505b50905060005b8260a00151518110156141e8578260a0015181815181106141805761417f615340565b5b602002602001015182828151811061419b5761419a615340565b5b602002602001019073ffffffffffffffffffffffffffffffffffffffff16908173ffffffffffffffffffffffffffffffffffffffff168152505080806141e090615299565b91505061415c565b508160800180518091906141fb90615299565b8152505085816001835161420f919061514e565b815181106142205761421f615340565b5b602002602001019073ffffffffffffffffffffffffffffffffffffffff16908173ffffffffffffffffffffffffffffffffffffffff1681525050808260a001819052508160046000878152602001908152602001600020600082015181600001556020820151816001015560408201518160020190805190602001906142a79291906145a7565b50606082015181600301556080820151816004015560a08201518160050190805190602001906142d892919061462d565b5060c08201518160060190805190602001906142f592919061462d565b5060e08201518160070190805190602001906143129291906146b7565b506101008201518160080190805190602001906143309291906146b7565b50610120820151816009015561014082015181600a01908051906020019061435992919061462d565b5061016082015181600b0190805190602001906143779291906146b7565b5061018082015181600c01556101a082015181600d01556101c082015181600e0160006101000a81548173ffffffffffffffffffffffffffffffffffffffff021916908373ffffffffffffffffffffffffffffffffffffffff1602179055506101e082015181600e0160146101000a81548160ff02191690831515021790555061020082015181600e0160156101000a81548160ff021916908315150217905550905050505050505050565b6060600060018451614435919061514e565b67ffffffffffffffff81111561444e5761444d61536f565b5b60405190808252806020026020018201604052801561447c5781602001602082028036833780820191505090505b50905060005b838110156145055784818151811061449d5761449c615340565b5b60200260200101518282815181106144b8576144b7615340565b5b602002602001019073ffffffffffffffffffffffffffffffffffffffff16908173ffffffffffffffffffffffffffffffffffffffff168152505080806144fd90615299565b915050614482565b5060008390505b815181101561459c578460018261452391906150f8565b8151811061453457614533615340565b5b602002602001015182828151811061454f5761454e615340565b5b602002602001019073ffffffffffffffffffffffffffffffffffffffff16908173ffffffffffffffffffffffffffffffffffffffff1681525050808061459490615299565b91505061450c565b508091505092915050565b8280546145b390615236565b90600052602060002090601f0160209004810192826145d5576000855561461c565b82601f106145ee57805160ff191683800117855561461c565b8280016001018555821561461c579182015b8281111561461b578251825591602001919060010190614600565b5b5090506146299190614704565b5090565b8280548282559060005260206000209081019282156146a6579160200282015b828111156146a55782518260006101000a81548173ffffffffffffffffffffffffffffffffffffffff021916908373ffffffffffffffffffffffffffffffffffffffff1602179055509160200191906001019061464d565b5b5090506146b39190614704565b5090565b8280548282559060005260206000209081019282156146f3579160200282015b828111156146f25782518255916020019190600101906146d7565b5b5090506147009190614704565b5090565b5b8082111561471d576000816000905550600101614705565b5090565b600061473461472f8461500d565b614fe8565b90508083825260208201905082856020860282011115614757576147566153a3565b5b60005b85811015614787578161476d88826147d3565b84526020840193506020830192505060018101905061475a565b5050509392505050565b60006147a461479f84615039565b614fe8565b9050828152602081018484840111156147c0576147bf6153a8565b5b6147cb8482856151ca565b509392505050565b6000813590506147e2816155a5565b92915050565b600082601f8301126147fd576147fc61539e565b5b813561480d848260208601614721565b91505092915050565b600082601f83011261482b5761482a61539e565b5b813561483b848260208601614791565b91505092915050565b600081359050614853816155bc565b92915050565b60006020828403121561486f5761486e6153b2565b5b600061487d848285016147d3565b91505092915050565b600080600080600060a086880312156148a2576148a16153b2565b5b60006148b0888289016147d3565b955050602086013567ffffffffffffffff8111156148d1576148d06153ad565b5b6148dd88828901614816565b945050604086013567ffffffffffffffff8111156148fe576148fd6153ad565b5b61490a888289016147e8565b935050606061491b88828901614844565b925050608061492c88828901614844565b9150509295509295909350565b60008060008060008060c08789031215614956576149556153b2565b5b600061496489828a016147d3565b965050602087013567ffffffffffffffff811115614985576149846153ad565b5b61499189828a01614816565b955050604087013567ffffffffffffffff8111156149b2576149b16153ad565b5b6149be89828a016147e8565b94505060606149cf89828a01614844565b93505060806149e089828a01614844565b92505060a06149f189828a01614844565b9150509295509295509295565b60008060408385031215614a1557614a146153b2565b5b6000614a23858286016147d3565b9250506020614a3485828601614844565b9150509250929050565b600060208284031215614a5457614a536153b2565b5b6000614a6284828501614844565b91505092915050565b6000614a778383614a9b565b60208301905092915050565b6000614a8f8383614cb2565b60208301905092915050565b614aa481615182565b82525050565b614ab381615182565b82525050565b6000614ac48261508a565b614ace81856150c5565b9350614ad98361506a565b8060005b83811015614b0a578151614af18882614a6b565b9750614afc836150ab565b925050600181019050614add565b5085935050505092915050565b6000614b2282615095565b614b2c81856150d6565b9350614b378361507a565b8060005b83811015614b68578151614b4f8882614a83565b9750614b5a836150b8565b925050600181019050614b3b565b5085935050505092915050565b614b7e81615194565b82525050565b6000614b8f826150a0565b614b9981856150e7565b9350614ba98185602086016151d9565b614bb2816153b7565b840191505092915050565b6000614bca602b836150e7565b9150614bd5826153c8565b604082019050919050565b6000614bed6026836150e7565b9150614bf882615417565b604082019050919050565b6000614c106029836150e7565b9150614c1b82615466565b604082019050919050565b6000614c336018836150e7565b9150614c3e826154b5565b602082019050919050565b6000614c566024836150e7565b9150614c61826154de565b604082019050919050565b6000614c796006836150e7565b9150614c848261552d565b602082019050919050565b6000614c9c6027836150e7565b9150614ca782615556565b604082019050919050565b614cbb816151c0565b82525050565b614cca816151c0565b82525050565b6000602082019050614ce56000830184614aaa565b92915050565b6000604082019050614d006000830185614aaa565b614d0d6020830184614aaa565b9392505050565b6000604082019050614d296000830185614aaa565b8181036020830152614d3b8184614b84565b90509392505050565b60006020820190508181036000830152614d5e8184614ab9565b905092915050565b60006020820190508181036000830152614d808184614b17565b905092915050565b6000602082019050614d9d6000830184614b75565b92915050565b60006020820190508181036000830152614dbd8184614b84565b905092915050565b60006020820190508181036000830152614dde81614bbd565b9050919050565b60006020820190508181036000830152614dfe81614be0565b9050919050565b60006020820190508181036000830152614e1e81614c03565b9050919050565b60006020820190508181036000830152614e3e81614c26565b9050919050565b60006020820190508181036000830152614e5e81614c49565b9050919050565b60006020820190508181036000830152614e7e81614c8f565b9050919050565b6000602082019050614e9a6000830184614cc1565b92915050565b6000608082019050614eb56000830187614cc1565b614ec26020830186614cc1565b8181036040830152614ed48185614b84565b9050614ee36060830184614aaa565b95945050505050565b600061016082019050614f02600083018e614cc1565b614f0f602083018d614cc1565b8181036040830152614f21818c614b84565b9050614f30606083018b614cc1565b614f3d608083018a614cc1565b614f4a60a0830189614cc1565b614f5760c0830188614cc1565b614f6460e0830187614cc1565b614f72610100830186614aaa565b614f80610120830185614b75565b614f8e610140830184614b75565b9c9b505050505050505050505050565b6000608082019050614fb36000830186614cc1565b614fc06020830185614cc1565b8181036040830152614fd181614c6c565b9050614fe06060830184614aaa565b949350505050565b6000614ff2615003565b9050614ffe8282615268565b919050565b6000604051905090565b600067ffffffffffffffff8211156150285761502761536f565b5b602082029050602081019050919050565b600067ffffffffffffffff8211156150545761505361536f565b5b61505d826153b7565b9050602081019050919050565b6000819050602082019050919050565b6000819050602082019050919050565b600081519050919050565b600081519050919050565b600081519050919050565b6000602082019050919050565b6000602082019050919050565b600082825260208201905092915050565b600082825260208201905092915050565b600082825260208201905092915050565b6000615103826151c0565b915061510e836151c0565b9250827fffffffffffffffffffffffffffffffffffffffffffffffffffffffffffffffff03821115615143576151426152e2565b5b828201905092915050565b6000615159826151c0565b9150615164836151c0565b925082821015615177576151766152e2565b5b828203905092915050565b600061518d826151a0565b9050919050565b60008115159050919050565b600073ffffffffffffffffffffffffffffffffffffffff82169050919050565b6000819050919050565b82818337600083830152505050565b60005b838110156151f75780820151818401526020810190506151dc565b83811115615206576000848401525b50505050565b6000615217826151c0565b9150600082141561522b5761522a6152e2565b5b600182039050919050565b6000600282049050600182168061524e57607f821691505b6020821081141561526257615261615311565b5b50919050565b615271826153b7565b810181811067ffffffffffffffff821117156152905761528f61536f565b5b80604052505050565b60006152a4826151c0565b91507fffffffffffffffffffffffffffffffffffffffffffffffffffffffffffffffff8214156152d7576152d66152e2565b5b600182019050919050565b7f4e487b7100000000000000000000000000000000000000000000000000000000600052601160045260246000fd5b7f4e487b7100000000000000000000000000000000000000000000000000000000600052602260045260246000fd5b7f4e487b7100000000000000000000000000000000000000000000000000000000600052603260045260246000fd5b7f4e487b7100000000000000000000000000000000000000000000000000000000600052604160045260246000fd5b600080fd5b600080fd5b600080fd5b600080fd5b600080fd5b6000601f19601f8301169050919050565b7f4572726f723a206f6e6c79206163636f756e74206f776e65722063616e20726560008201527f706f73742061206d656d65000000000000000000000000000000000000000000602082015250565b7f4572726f723a206c696b6572206d757374206265206f7065726174696e67206160008201527f63636f756e740000000000000000000000000000000000000000000000000000602082015250565b7f4572726f723a206f6e6c79206163636f756e74206f776e65722063616e20646560008201527f6c657465206d656d650000000000000000000000000000000000000000000000602082015250565b7f4572726f722c206e6f206c696b65727320696e206d656d650000000000000000600082015250565b7f4572726f722c206f6e6c79206f776e65722063616e207061737320706f73742060008201527f726f6c6500000000000000000000000000000000000000000000000000000000602082015250565b7f5265706f73740000000000000000000000000000000000000000000000000000600082015250565b7f4572726f723a20706f73746572206d757374206265206f7065726174696e672060008201527f6163636f756e7400000000000000000000000000000000000000000000000000602082015250565b6155ae81615182565b81146155b957600080fd5b50565b6155c5816151c0565b81146155d057600080fd5b5056fea264697066735822122008f01342cb964e9d5110df1e1ce5ca02dd79baf5dd255b31a2cd37367bc6a39864736f6c63430008070033",
  "immutableReferences": {},
  "source": "// SPDX-License-Identifier: MIT\n\npragma solidity >=0.8.0 <0.9.0;\n\nimport \"./UME.sol\";\n\ncontract Post {\n  // public variables\n  UME private umeToken;\n  address public caller;\n\n  string public name = \"uMe\";\n  uint public memeCount = 0;\n\n  // mapping of Memes\n  mapping(uint => Meme) public memes; // memeId to meme map\n\n  // Meme structure\n  struct Meme {\n    uint id; // number in all of timeline\n    uint time; // time of post\n    // string hash; // hash of Meme\n    string text; // test of Meme\n    uint boost; // boost value\n    uint likes; // number of likes on Meme\n    address[] likers; // list of addresses of likers\n    address[] unlikers; // list of addresses that have unliked\n    //uint repostCount; // number of reposts\n    uint[] reposters; // list of addresses that have reposted\n    //uint quoteCount; // number of quotePosts\n    uint[] quotePosters; // list of addresses that have quotePosted\n    uint repostId;// repost id\n    address[] tags; // list of id's of tagged\n    uint[] responses; // collection of id's of responses\n    uint parentId; // memeId of parent (can be self)\n    uint originId; // memeId of origin (can be self)\n    address author; // address of author\n    bool isVisible; // is visible\n    bool isRepost; // is repost\n    //bool hasLink // if Meme has link\n    //bool hasMedia; // if Meme has media\n    //string mediaHash; // address of media\n  }\n\n\n  event MemeCreated(\n    uint memeId,\n    uint memeTime,\n    // string memeHash,\n    string memeText,\n    address author\n  );\n  event MemeLiked(\n    uint memeId,\n    uint memeTime,\n    // string memeHash,\n    string memeText,\n    address author\n  );\n  event PostCallerChanged(\n    address accountFrom,\n    address accountTo\n  );\n\n  constructor(UME _umeToken) public {\n    umeToken = _umeToken;\n    caller = msg.sender;\n  }\n\n  // posting meme functions\n  function newMeme(address account, string memory _memeText, address[] memory _tags, uint _parentId, uint _originId) public {\n    //require(bytes(_memeHash).length > 0, 'Error: meme hash doesn\\'t exist');\n    //require(bytes(_memeText).length > 0, 'Error: meme text doesn\\'t exist');\n    require(msg.sender==caller, 'Error: poster must be operating account');\n    //require(msg.sender != address(0x0), 'Error: author address doesn\\'t exist');\n    // increment meme id\n    memeCount++;\n    // set parent & origin id's to memeId if\n    if (_parentId == 0) {\n      _parentId = memeCount;\n    }\n    if (_originId == 0) {\n      _originId = memeCount;\n    }\n    // map memeId to new meme (if parent & origin)\n    memes[memeCount] = Meme(\n      memeCount, // meme id\n      block.timestamp, // meme time\n      // _memeHash, // meme hash\n      _memeText, // meme text\n      0, // boost value\n      0, // like count\n      new address[](0), // likers\n      new address[](0), // unlikers\n      //0, // repost count\n      new uint[](0), // reposts\n      //0, // quotePost count\n      new uint[](0), // quotePosts\n      0, // repost id\n      _tags, // tagged\n      new uint[](0), // response array\n      _parentId, // parent\n      _originId, // origin\n      account, // author\n      true, // isVisible\n      false // isRepost\n    );\n    // if responding to a single post, then mint respond token\n    if(memeCount!=_parentId && _parentId==_originId && memes[_parentId].author!=account) {\n      umeToken.mintRespond(account, memes[_parentId].author /* , _memehash */);\n      _addResponse(_parentId);\n    } // if responding to a thread, mint respond token for parent, curate token for original\n    else if(memeCount!=_parentId && _parentId!=_originId && memes[_originId].author!=account) {\n      umeToken.mintRespond(account, memes[_parentId].author /* , _memehash */);\n      umeToken.mintCurate(account, memes[_originId].author /* , _memehash */);\n      _addResponse(_parentId);\n    }\n    // mint tags\n    for(uint i = 0; i < _tags.length; i++) {\n      if(account!=_tags[i]){\n        umeToken.mintTag(account, _tags[i] /* , _memehash */);\n      }\n    }\n    // mint post token\n    umeToken.mintPost(account /* , _memehash */, _memeText);\n    emit MemeCreated(memeCount, block.timestamp /* , _memehash */, _memeText, account);\n  }\n  function repost(address account, uint memeId) public {\n    require(caller==msg.sender, 'Error: only account owner can repost a meme');\n    // increment memeCount;\n    memeCount++;\n    // map memeId to new meme (if parent & origin)\n    memes[memeCount] = Meme(\n      memeCount, // meme id\n      block.timestamp, // meme time\n      // _memeHash, // meme hash\n      '', // meme text\n      0, // boost value\n      0, // like count\n      new address[](0), // likers\n      new address[](0), // unlikers\n      //0, // repost count\n      new uint[](0), // reposts\n      //0, // quotePost count\n      new uint[](0), // quotePosts\n      memeId, // repost id\n      memes[memeId].tags, // tagged\n      new uint[](0), // response array\n      0, // parent\n      0, // origin\n      account, // author\n      true, // isVisible\n      true // is Repost\n    );\n    Meme memory _repostedMeme = memes[memeId];\n    umeToken.mintRepost(account, memes[memeId].author);\n    emit MemeCreated(memeCount, block.timestamp, 'Repost', account);\n  }\n  function quotePost(address account, string memory _memeText, address[] memory _tags, uint _parentId, uint _originId, uint memeId) public {\n    //require(bytes(_memeHash).length > 0, 'Error: meme hash doesn\\'t exist');\n    //require(bytes(_memeText).length > 0, 'Error: meme text doesn\\'t exist');\n    require(msg.sender==caller, 'Error: poster must be operating account');\n    //require(msg.sender != address(0x0), 'Error: author address doesn\\'t exist');\n    // increment meme id\n    memeCount++;\n    // set parent & origin id's to memeId if\n    if (_parentId == 0) {\n      _parentId = memeCount;\n    }\n    if (_originId == 0) {\n      _originId = memeCount;\n    }\n    // map memeId to new meme (if parent & origin)\n    memes[memeCount] = Meme(\n      memeCount, // meme id\n      block.timestamp, // meme time\n      // _memeHash, // meme hash\n      _memeText, // meme text\n      0, // boost value\n      0, // like count\n      new address[](0), // likers\n      new address[](0), // unlikers\n      //0, // repost count\n      new uint[](0), // reposts\n      //0, // quotePost count\n      new uint[](0), // quotePosts\n      memeId, // repost id\n      _tags, // tagged\n      new uint[](0), // response array\n      _parentId, // parent\n      _originId, // origin\n      account, // author\n      true, // isVisible\n      true // isRepost\n    );\n    // if responding to a single post, then mint respond token\n    if(memeCount!=_parentId && _parentId==_originId && memes[_parentId].author!=account) {\n      umeToken.mintRespond(account, memes[_parentId].author);\n      _addResponse(_parentId);\n    } // if responding to a thread, mint respond token for parent, curate token for original\n    else if(memeCount!=_parentId && _parentId!=_originId && memes[_originId].author!=account) {\n      umeToken.mintRespond(account, memes[_parentId].author);\n      umeToken.mintCurate(account, memes[_originId].author);\n      _addResponse(_parentId);\n    }\n    // mint tags\n    for(uint i = 0; i < _tags.length; i++) {\n      if(account!=_tags[i]){\n        umeToken.mintTag(account, _tags[i]);\n      }\n    }\n    // mint post token\n    umeToken.mintPost(account, _memeText);\n    emit MemeCreated(memeCount, block.timestamp, _memeText, account);\n  }\n\n  function deleteMeme(address account, uint memeId) public {\n    require(caller==msg.sender, 'Error: only account owner can delete meme');\n    // create empty Meme instance\n    memes[memeId] = Meme(\n      memeId, // memeId\n      0, // time\n      '', // meme text\n      0, // boost value\n      0, // like count\n      new address[](0), // likers\n      new address[](0), // unlikers\n      //0, // repost count\n      new uint[](0), // reposts\n      //0, // quotepost count\n      new uint[](0), // quote posts\n      0, // repost address\n      new address[](0), // tagged\n      new uint[](0), // response array\n      0, // parent\n      0, // origin\n      address(0x0), // author\n      false, // isVisible\n      false // isRepost\n    );\n  }\n\n  // like functions\n  function likeMeme(address account, uint memeId) public {\n    require(msg.sender==caller, 'Error: liker must be operating account');\n\n    bool firstLike = true;\n    bool unliked = false;\n    // remove like if already liked\n    for(uint i = 0; i < memes[memeId].likers.length; i++) {\n      if(account==memes[memeId].likers[i]) {\n        firstLike = false;\n        _unLike(account, memeId, i);\n        unliked = true;\n      }\n    } // check for double like minting\n    for(uint i = 0; i < memes[memeId].unlikers.length; i++) {\n      if(account==memes[memeId].unlikers[i] && unliked==false) {\n        firstLike = false;\n        _addLike(account, memeId, i, firstLike);\n        break;\n      }\n    }\n    if(firstLike==true && unliked==false) {\n      _addLike(account, memeId, 0, firstLike);\n      // mint like token\n      umeToken.mintLike(account, memes[memeId].author /*, memes[memeId].hash*/ );\n    }\n  }\n  // setter functions for Meme\n  function _addLike(address account, uint memeId, uint index, bool firstLike) private {\n    // fetch meme from blockchain\n    Meme memory _meme = memes[memeId];\n\n    if(firstLike==false) {\n      _meme.unlikers = _deleteAddress(_meme.unlikers, index);\n    }\n\n    // set memory to _meme.likers length plus one\n    address[] memory _likers = new address[](_meme.likers.length+1);\n\n    // populate address array with existing _meme.likers\n    for(uint i = 0; i < _meme.likers.length; i++) {\n      //require(account!=_meme.likers[i], 'Error: liker has already liked account');\n      _likers[i] = _meme.likers[i];\n    }\n    // increment meme's likes\n    _meme.likes++;\n    // set _likers value to msg.sender at last slot of array\n    _likers[_likers.length-1] = account;\n    // set likers field of _meme.likers to _likers\n    _meme.likers = _likers;\n    // set meme at memeId to _meme instance\n    memes[memeId] = _meme;\n  }\n  function _unLike(address account, uint memeId, uint index) private {\n    require(memes[memeId].likers.length > 0, 'Error, no likers in meme');\n    // fetch meme from blockchain\n    Meme memory _meme = memes[memeId];\n\n    // delete liked index, moving all successive elements\n    _meme.likers = _deleteAddress(_meme.likers, index);\n    // decrement meme's likes\n    _meme.likes--;\n    // set memory to _meme.unlikers length plus one\n    address[] memory _unlikers = new address[](_meme.unlikers.length+1);\n    // populate address array with existing _meme.unlikers\n    for(uint i = 0; i < _meme.unlikers.length; i++) {\n      _unlikers[i] = _meme.unlikers[i];\n    }\n    // set _unlikers value to msg.sender at last slot of array\n    _unlikers[_unlikers.length-1] = account;\n    // set unlikers field of _meme.likers to _unlikers\n    _meme.unlikers = _unlikers;\n    // set meme at memeId to _meme instance\n    memes[memeId] = _meme;\n  }\n\n  function _addResponse(uint _parentId) private {\n      Meme memory _parentMeme = memes[_parentId];\n      uint[] memory _responses = new uint[](_parentMeme.responses.length+1);\n      for(uint i = 0; i < _responses.length; i++) {\n        _responses[i] = _parentMeme.responses[i];\n      }\n      _parentMeme.responses = _responses;\n      memes[_parentId] = _parentMeme;\n  }\n  // getter functions for Meme\n  function getLikers(uint memeId) public view returns(address[] memory) {\n    return memes[memeId].likers;\n  }\n  function getUnlikers(uint memeId) public view returns(address[] memory) {\n    return memes[memeId].unlikers;\n  }\n  function getTags(uint memeId) public view returns(address[] memory) {\n    return memes[memeId].tags;\n  }\n  function getResponses(uint memeId) public view returns(uint[] memory) {\n    return memes[memeId].responses;\n  }\n  // helper functions\n  function _deleteAddress(address[] memory array, uint index) private returns(address[] memory) {\n    address[] memory _array = new address[](array.length-1);\n    for(uint i = 0; i < index; i++) {\n      _array[i] = array[i];\n    }\n    for(uint i = index; i < _array.length; i++) {\n      _array[i] = array[i+1];\n    }\n    return _array;\n  }\n\n  // set caller role to User upon deployment\n  function passPostRole(address user) public returns (bool) {\n    require(msg.sender == caller, 'Error, only owner can pass post role');\n\n    caller = user;\n    emit PostCallerChanged(msg.sender, user);\n    return true;\n  }\n}\n",
  "sourcePath": "/Users/jaiq/Documents/000 BLOCKCHAIN/ETH/uMe/src/contracts/Post.sol",
  "compiler": {
    "name": "solc",
    "version": "0.8.7+commit.e28d00a7.Emscripten.clang"
  },
  "schemaVersion": "3.4.3",
  "updatedAt": "2021-08-23T01:46:40.706Z",
  "devdoc": {
    "kind": "dev",
    "methods": {},
    "version": 1
  },
  "userdoc": {
    "kind": "user",
    "methods": {},
    "version": 1
  }
}