{
  "contractName": "Post",
  "abi": [
    {
      "inputs": [
        {
          "internalType": "contract UME",
          "name": "_umeToken",
          "type": "address"
        },
        {
          "internalType": "contract MemeFactory",
          "name": "_memeFactory",
          "type": "address"
        },
        {
          "internalType": "contract MemeStorage",
          "name": "_memeStorage",
          "type": "address"
        }
      ],
      "stateMutability": "nonpayable",
      "type": "constructor"
    },
    {
      "anonymous": false,
      "inputs": [
        {
          "indexed": true,
          "internalType": "address",
          "name": "from",
          "type": "address"
        },
        {
          "indexed": true,
          "internalType": "address",
          "name": "to",
          "type": "address"
        }
      ],
      "name": "InterfaceSignerChanged",
      "type": "event"
    },
    {
      "inputs": [],
      "name": "interfaceSigner",
      "outputs": [
        {
          "internalType": "address",
          "name": "",
          "type": "address"
        }
      ],
      "stateMutability": "view",
      "type": "function",
      "constant": true
    },
    {
      "inputs": [
        {
          "internalType": "address",
          "name": "_account",
          "type": "address"
        },
        {
          "internalType": "string",
          "name": "_memeText",
          "type": "string"
        },
        {
          "internalType": "address[]",
          "name": "_tags",
          "type": "address[]"
        },
        {
          "internalType": "bytes32",
          "name": "_parentId",
          "type": "bytes32"
        },
        {
          "internalType": "bytes32",
          "name": "_originId",
          "type": "bytes32"
        }
      ],
      "name": "newMeme",
      "outputs": [],
      "stateMutability": "nonpayable",
      "type": "function"
    },
    {
      "inputs": [
        {
          "internalType": "address",
          "name": "_account",
          "type": "address"
        },
        {
          "internalType": "bytes32",
          "name": "_memeId",
          "type": "bytes32"
        }
      ],
      "name": "rememe",
      "outputs": [],
      "stateMutability": "nonpayable",
      "type": "function"
    },
    {
      "inputs": [
        {
          "internalType": "address",
          "name": "_account",
          "type": "address"
        },
        {
          "internalType": "string",
          "name": "_memeText",
          "type": "string"
        },
        {
          "internalType": "address[]",
          "name": "_tags",
          "type": "address[]"
        },
        {
          "internalType": "bytes32",
          "name": "_parentId",
          "type": "bytes32"
        },
        {
          "internalType": "bytes32",
          "name": "_originId",
          "type": "bytes32"
        },
        {
          "internalType": "bytes32",
          "name": "_repostId",
          "type": "bytes32"
        }
      ],
      "name": "quoteMeme",
      "outputs": [],
      "stateMutability": "nonpayable",
      "type": "function"
    },
    {
      "inputs": [
        {
          "internalType": "bytes32",
          "name": "_memeId",
          "type": "bytes32"
        }
      ],
      "name": "deleteMeme",
      "outputs": [],
      "stateMutability": "nonpayable",
      "type": "function"
    },
    {
      "inputs": [
        {
          "internalType": "address",
          "name": "_userInterface",
          "type": "address"
        }
      ],
      "name": "passInterfaceSigner",
      "outputs": [
        {
          "internalType": "bool",
          "name": "",
          "type": "bool"
        }
      ],
      "stateMutability": "nonpayable",
      "type": "function"
    }
  ],
  "bytecode": "0x60806040523480156200001157600080fd5b506040516200192e3803806200192e833981810160405281019062000037919062000188565b826000806101000a81548173ffffffffffffffffffffffffffffffffffffffff021916908373ffffffffffffffffffffffffffffffffffffffff16021790555081600160006101000a81548173ffffffffffffffffffffffffffffffffffffffff021916908373ffffffffffffffffffffffffffffffffffffffff16021790555080600260006101000a81548173ffffffffffffffffffffffffffffffffffffffff021916908373ffffffffffffffffffffffffffffffffffffffff16021790555033600360006101000a81548173ffffffffffffffffffffffffffffffffffffffff021916908373ffffffffffffffffffffffffffffffffffffffff160217905550505050620002a7565b600081519050620001548162000259565b92915050565b6000815190506200016b8162000273565b92915050565b60008151905062000182816200028d565b92915050565b600080600060608486031215620001a457620001a362000254565b5b6000620001b48682870162000171565b9350506020620001c78682870162000143565b9250506040620001da868287016200015a565b9150509250925092565b6000620001f18262000234565b9050919050565b60006200020582620001e4565b9050919050565b60006200021982620001e4565b9050919050565b60006200022d82620001e4565b9050919050565b600073ffffffffffffffffffffffffffffffffffffffff82169050919050565b600080fd5b6200026481620001f8565b81146200027057600080fd5b50565b6200027e816200020c565b81146200028a57600080fd5b50565b620002988162000220565b8114620002a457600080fd5b50565b61167780620002b76000396000f3fe608060405234801561001057600080fd5b50600436106100625760003560e01c8063654ea484146100675780636b0a493e14610083578063aaf837c51461009f578063af5dffde146100bb578063c4e172da146100d9578063d71a485514610109575b600080fd5b610081600480360381019061007c9190610ee9565b610125565b005b61009d60048036038101906100989190610df6565b610469565b005b6100b960048036038101906100b49190610fae565b6107f4565b005b6100c3610914565b6040516100d09190611152565b60405180910390f35b6100f360048036038101906100ee9190610d9c565b61093a565b60405161010091906112a2565b60405180910390f35b610123600480360381019061011e9190610e36565b610a92565b005b600360009054906101000a900473ffffffffffffffffffffffffffffffffffffffff1673ffffffffffffffffffffffffffffffffffffffff163373ffffffffffffffffffffffffffffffffffffffff16146101b5576040517f08c379a00000000000000000000000000000000000000000000000000000000081526004016101ac90611318565b60405180910390fd5b600160009054906101000a900473ffffffffffffffffffffffffffffffffffffffff1673ffffffffffffffffffffffffffffffffffffffff16637527e6248787878787876040518763ffffffff1660e01b815260040161021a969594939291906111c6565b600060405180830381600087803b15801561023457600080fd5b505af1158015610248573d6000803e3d6000fd5b50505050600260009054906101000a900473ffffffffffffffffffffffffffffffffffffffff1673ffffffffffffffffffffffffffffffffffffffff1663691d1c28826040518263ffffffff1660e01b81526004016102a791906112bd565b60206040518083038186803b1580156102bf57600080fd5b505afa1580156102d3573d6000803e3d6000fd5b505050506040513d601f19601f820116820180604052508101906102f79190610dc9565b73ffffffffffffffffffffffffffffffffffffffff168673ffffffffffffffffffffffffffffffffffffffff16146104615760008054906101000a900473ffffffffffffffffffffffffffffffffffffffff1673ffffffffffffffffffffffffffffffffffffffff1663f52548d487600260009054906101000a900473ffffffffffffffffffffffffffffffffffffffff1673ffffffffffffffffffffffffffffffffffffffff1663691d1c28876040518263ffffffff1660e01b81526004016103c191906112bd565b60206040518083038186803b1580156103d957600080fd5b505afa1580156103ed573d6000803e3d6000fd5b505050506040513d601f19601f820116820180604052508101906104119190610dc9565b6040518363ffffffff1660e01b815260040161042e92919061116d565b600060405180830381600087803b15801561044857600080fd5b505af115801561045c573d6000803e3d6000fd5b505050505b505050505050565b600360009054906101000a900473ffffffffffffffffffffffffffffffffffffffff1673ffffffffffffffffffffffffffffffffffffffff163373ffffffffffffffffffffffffffffffffffffffff16146104f9576040517f08c379a00000000000000000000000000000000000000000000000000000000081526004016104f090611318565b60405180910390fd5b600160009054906101000a900473ffffffffffffffffffffffffffffffffffffffff1673ffffffffffffffffffffffffffffffffffffffff16637527e62483600067ffffffffffffffff811115610553576105526114ca565b5b6040519080825280602002602001820160405280156105815781602001602082028036833780820191505090505b50600454600454866040518663ffffffff1660e01b81526004016105a9959493929190611235565b600060405180830381600087803b1580156105c357600080fd5b505af11580156105d7573d6000803e3d6000fd5b50505050600260009054906101000a900473ffffffffffffffffffffffffffffffffffffffff1673ffffffffffffffffffffffffffffffffffffffff1663691d1c28826040518263ffffffff1660e01b815260040161063691906112bd565b60206040518083038186803b15801561064e57600080fd5b505afa158015610662573d6000803e3d6000fd5b505050506040513d601f19601f820116820180604052508101906106869190610dc9565b73ffffffffffffffffffffffffffffffffffffffff168273ffffffffffffffffffffffffffffffffffffffff16146107f05760008054906101000a900473ffffffffffffffffffffffffffffffffffffffff1673ffffffffffffffffffffffffffffffffffffffff1663f52548d483600260009054906101000a900473ffffffffffffffffffffffffffffffffffffffff1673ffffffffffffffffffffffffffffffffffffffff1663691d1c28856040518263ffffffff1660e01b815260040161075091906112bd565b60206040518083038186803b15801561076857600080fd5b505afa15801561077c573d6000803e3d6000fd5b505050506040513d601f19601f820116820180604052508101906107a09190610dc9565b6040518363ffffffff1660e01b81526004016107bd92919061116d565b600060405180830381600087803b1580156107d757600080fd5b505af11580156107eb573d6000803e3d6000fd5b505050505b5050565b600360009054906101000a900473ffffffffffffffffffffffffffffffffffffffff1673ffffffffffffffffffffffffffffffffffffffff163373ffffffffffffffffffffffffffffffffffffffff1614610884576040517f08c379a000000000000000000000000000000000000000000000000000000000815260040161087b906112d8565b60405180910390fd5b600260009054906101000a900473ffffffffffffffffffffffffffffffffffffffff1673ffffffffffffffffffffffffffffffffffffffff1663aaf837c5826040518263ffffffff1660e01b81526004016108df91906112bd565b600060405180830381600087803b1580156108f957600080fd5b505af115801561090d573d6000803e3d6000fd5b5050505050565b600360009054906101000a900473ffffffffffffffffffffffffffffffffffffffff1681565b6000600360009054906101000a900473ffffffffffffffffffffffffffffffffffffffff1673ffffffffffffffffffffffffffffffffffffffff163373ffffffffffffffffffffffffffffffffffffffff16146109cc576040517f08c379a00000000000000000000000000000000000000000000000000000000081526004016109c3906112f8565b60405180910390fd5b81600360006101000a81548173ffffffffffffffffffffffffffffffffffffffff021916908373ffffffffffffffffffffffffffffffffffffffff160217905550600360009054906101000a900473ffffffffffffffffffffffffffffffffffffffff1673ffffffffffffffffffffffffffffffffffffffff163373ffffffffffffffffffffffffffffffffffffffff167fdf570d582e474b2d7915b12f6f773eb74e4bc78a660caeeccf19491c8578507b60405160405180910390a360019050919050565b600360009054906101000a900473ffffffffffffffffffffffffffffffffffffffff1673ffffffffffffffffffffffffffffffffffffffff163373ffffffffffffffffffffffffffffffffffffffff1614610b22576040517f08c379a0000000000000000000000000000000000000000000000000000000008152600401610b1990611318565b60405180910390fd5b600160009054906101000a900473ffffffffffffffffffffffffffffffffffffffff1673ffffffffffffffffffffffffffffffffffffffff16637527e62486868686866004546040518763ffffffff1660e01b8152600401610b89969594939291906111c6565b600060405180830381600087803b158015610ba357600080fd5b505af1158015610bb7573d6000803e3d6000fd5b5050505060008054906101000a900473ffffffffffffffffffffffffffffffffffffffff1673ffffffffffffffffffffffffffffffffffffffff166376bd8f8c86866040518363ffffffff1660e01b8152600401610c16929190611196565b600060405180830381600087803b158015610c3057600080fd5b505af1158015610c44573d6000803e3d6000fd5b505050505050505050565b6000610c62610c5d8461135d565b611338565b90508083825260208201905082856020860282011115610c8557610c846114fe565b5b60005b85811015610cb55781610c9b8882610d01565b845260208401935060208301925050600181019050610c88565b5050509392505050565b6000610cd2610ccd84611389565b611338565b905082815260208101848484011115610cee57610ced611503565b5b610cf9848285611457565b509392505050565b600081359050610d1081611613565b92915050565b600081519050610d2581611613565b92915050565b600082601f830112610d4057610d3f6114f9565b5b8135610d50848260208601610c4f565b91505092915050565b600081359050610d688161162a565b92915050565b600082601f830112610d8357610d826114f9565b5b8135610d93848260208601610cbf565b91505092915050565b600060208284031215610db257610db161150d565b5b6000610dc084828501610d01565b91505092915050565b600060208284031215610ddf57610dde61150d565b5b6000610ded84828501610d16565b91505092915050565b60008060408385031215610e0d57610e0c61150d565b5b6000610e1b85828601610d01565b9250506020610e2c85828601610d59565b9150509250929050565b600080600080600060a08688031215610e5257610e5161150d565b5b6000610e6088828901610d01565b955050602086013567ffffffffffffffff811115610e8157610e80611508565b5b610e8d88828901610d6e565b945050604086013567ffffffffffffffff811115610eae57610ead611508565b5b610eba88828901610d2b565b9350506060610ecb88828901610d59565b9250506080610edc88828901610d59565b9150509295509295909350565b60008060008060008060c08789031215610f0657610f0561150d565b5b6000610f1489828a01610d01565b965050602087013567ffffffffffffffff811115610f3557610f34611508565b5b610f4189828a01610d6e565b955050604087013567ffffffffffffffff811115610f6257610f61611508565b5b610f6e89828a01610d2b565b9450506060610f7f89828a01610d59565b9350506080610f9089828a01610d59565b92505060a0610fa189828a01610d59565b9150509295509295509295565b600060208284031215610fc457610fc361150d565b5b6000610fd284828501610d59565b91505092915050565b6000610fe78383610ff3565b60208301905092915050565b610ffc8161140f565b82525050565b61100b8161140f565b82525050565b600061101c826113ca565b61102681856113ed565b9350611031836113ba565b8060005b838110156110625781516110498882610fdb565b9750611054836113e0565b925050600181019050611035565b5085935050505092915050565b61107881611421565b82525050565b6110878161142d565b82525050565b6000611098826113d5565b6110a281856113fe565b93506110b2818560208601611466565b6110bb81611512565b840191505092915050565b60006110d3602c836113fe565b91506110de82611523565b604082019050919050565b60006110f66033836113fe565b915061110182611572565b604082019050919050565b60006111196000836113fe565b9150611124826115c1565b600082019050919050565b600061113c6027836113fe565b9150611147826115c4565b604082019050919050565b60006020820190506111676000830184611002565b92915050565b60006040820190506111826000830185611002565b61118f6020830184611002565b9392505050565b60006040820190506111ab6000830185611002565b81810360208301526111bd818461108d565b90509392505050565b600060c0820190506111db6000830189611002565b81810360208301526111ed818861108d565b905081810360408301526112018187611011565b9050611210606083018661107e565b61121d608083018561107e565b61122a60a083018461107e565b979650505050505050565b600060c08201905061124a6000830188611002565b818103602083015261125b8161110c565b9050818103604083015261126f8187611011565b905061127e606083018661107e565b61128b608083018561107e565b61129860a083018461107e565b9695505050505050565b60006020820190506112b7600083018461106f565b92915050565b60006020820190506112d2600083018461107e565b92915050565b600060208201905081810360008301526112f1816110c6565b9050919050565b60006020820190508181036000830152611311816110e9565b9050919050565b600060208201905081810360008301526113318161112f565b9050919050565b6000611342611353565b905061134e8282611499565b919050565b6000604051905090565b600067ffffffffffffffff821115611378576113776114ca565b5b602082029050602081019050919050565b600067ffffffffffffffff8211156113a4576113a36114ca565b5b6113ad82611512565b9050602081019050919050565b6000819050602082019050919050565b600081519050919050565b600081519050919050565b6000602082019050919050565b600082825260208201905092915050565b600082825260208201905092915050565b600061141a82611437565b9050919050565b60008115159050919050565b6000819050919050565b600073ffffffffffffffffffffffffffffffffffffffff82169050919050565b82818337600083830152505050565b60005b83811015611484578082015181840152602081019050611469565b83811115611493576000848401525b50505050565b6114a282611512565b810181811067ffffffffffffffff821117156114c1576114c06114ca565b5b80604052505050565b7f4e487b7100000000000000000000000000000000000000000000000000000000600052604160045260246000fd5b600080fd5b600080fd5b600080fd5b600080fd5b600080fd5b6000601f19601f8301169050919050565b7f4572726f723a206f6e6c7920696e74657266616365207369676e65722063616e60008201527f2064656c657465206d656d650000000000000000000000000000000000000000602082015250565b7f4572726f722c206f6e6c79206465706c6f7965722063616e207061737320696e60008201527f74657266616365207369676e657220726f6c6500000000000000000000000000602082015250565b50565b7f4572726f723a20706f73746572206d757374206265206f7065726174696e672060008201527f6163636f756e7400000000000000000000000000000000000000000000000000602082015250565b61161c8161140f565b811461162757600080fd5b50565b6116338161142d565b811461163e57600080fd5b5056fea2646970667358221220ef352589759b8d42e8c8b404602f29c17e337e4aa505515c9b113e3b3496d9bd64736f6c63430008070033",
  "immutableReferences": {},
  "source": "// SPDX-License-Identifier: MIT\n\npragma solidity >=0.8.0 <0.9.0;\n\nimport \"./MemeFactory.sol\";\nimport \"./MemeStorage.sol\";\nimport \"./UME.sol\";\n\ncontract Post {\n  // public variables\n  UME private umeToken;\n  MemeFactory private memeFactory;\n  MemeStorage private memeStorage;\n\n  address public interfaceSigner;\n  bytes32 zeroBytes;\n\n  event InterfaceSignerChanged(address indexed from, address indexed to);\n\n  constructor(\n    UME _umeToken,\n    MemeFactory _memeFactory,\n    MemeStorage _memeStorage\n  ) public {\n    umeToken = _umeToken;\n    memeFactory = _memeFactory;\n    memeStorage = _memeStorage;\n\n    interfaceSigner = msg.sender;\n  }\n\n  // posting meme functions\n  function newMeme(\n    address _account,\n    string memory _memeText,\n    address[] memory _tags,\n    bytes32 _parentId,\n    bytes32 _originId\n  ) public {\n    require(\n      msg.sender==interfaceSigner,\n      'Error: poster must be operating account');\n    memeFactory.newMeme(_account, _memeText, _tags, _parentId, _originId, zeroBytes);\n    umeToken.mintPost(_account, _memeText);\n  }\n\n  function rememe(\n    address _account,\n    bytes32 _memeId\n  ) public {\n    require(\n      msg.sender==interfaceSigner,\n      'Error: poster must be operating account');\n    memeFactory.newMeme(_account, '', new address[](0), zeroBytes, zeroBytes, _memeId);\n    if(_account!=memeStorage.getAuthor(_memeId))\n      umeToken.mintRepost(_account, memeStorage.getAuthor(_memeId));\n  }\n  function quoteMeme(\n    address _account,\n    string memory _memeText,\n    address[] memory _tags,\n    bytes32 _parentId,\n    bytes32 _originId,\n    bytes32 _repostId\n  ) public {\n    require(\n      msg.sender==interfaceSigner,\n      'Error: poster must be operating account');\n    memeFactory.newMeme(_account, _memeText, _tags, _parentId, _originId, _repostId);\n    if(_account!=memeStorage.getAuthor(_repostId))\n      umeToken.mintRepost(_account, memeStorage.getAuthor(_parentId));\n  }\n\n  function deleteMeme(\n    bytes32 _memeId\n  ) public {\n    require(\n      msg.sender==interfaceSigner,\n      'Error: only interface signer can delete meme');\n    memeStorage.deleteMeme(_memeId);\n  }\n\n  // set caller role to User upon deployment\n  function passInterfaceSigner(address _userInterface) public returns (bool) {\n    require(\n      msg.sender == interfaceSigner,\n      'Error, only deployer can pass interface signer role');\n    interfaceSigner = _userInterface;\n    emit InterfaceSignerChanged(msg.sender, interfaceSigner);\n    return true;\n  }\n}\n",
  "sourcePath": "/Users/jaiq/Documents/000 BLOCKCHAIN/ETH/uMe/src/contracts/Post.sol",
  "compiler": {
    "name": "solc",
    "version": "0.8.7+commit.e28d00a7.Emscripten.clang"
  },
  "schemaVersion": "3.4.3",
  "updatedAt": "2021-08-26T00:43:06.278Z",
  "networkType": "ethereum",
  "devdoc": {
    "kind": "dev",
    "methods": {},
    "version": 1
  },
  "userdoc": {
    "kind": "user",
    "methods": {},
    "version": 1
  }
}