{
  "contractName": "Post",
  "abi": [
    {
      "inputs": [
        {
          "internalType": "contract UME",
          "name": "_umeToken",
          "type": "address"
        },
        {
          "internalType": "contract MemeFactory",
          "name": "_memeFactory",
          "type": "address"
        },
        {
          "internalType": "contract MemeStorage",
          "name": "_memeStorage",
          "type": "address"
        }
      ],
      "stateMutability": "nonpayable",
      "type": "constructor"
    },
    {
      "anonymous": false,
      "inputs": [
        {
          "indexed": true,
          "internalType": "address",
          "name": "from",
          "type": "address"
        },
        {
          "indexed": true,
          "internalType": "address",
          "name": "to",
          "type": "address"
        }
      ],
      "name": "InterfaceSignerChanged",
      "type": "event"
    },
    {
      "inputs": [],
      "name": "interfaceSigner",
      "outputs": [
        {
          "internalType": "address",
          "name": "",
          "type": "address"
        }
      ],
      "stateMutability": "view",
      "type": "function"
    },
    {
      "inputs": [
        {
          "internalType": "address",
          "name": "_account",
          "type": "address"
        },
        {
          "internalType": "string",
          "name": "_memeText",
          "type": "string"
        },
        {
          "internalType": "address[]",
          "name": "_tags",
          "type": "address[]"
        },
        {
          "internalType": "bytes32",
          "name": "_parentId",
          "type": "bytes32"
        },
        {
          "internalType": "bytes32",
          "name": "_originId",
          "type": "bytes32"
        }
      ],
      "name": "newMeme",
      "outputs": [],
      "stateMutability": "nonpayable",
      "type": "function"
    },
    {
      "inputs": [
        {
          "internalType": "address",
          "name": "_account",
          "type": "address"
        },
        {
          "internalType": "bytes32",
          "name": "_repostId",
          "type": "bytes32"
        }
      ],
      "name": "rememe",
      "outputs": [],
      "stateMutability": "nonpayable",
      "type": "function"
    },
    {
      "inputs": [
        {
          "internalType": "address",
          "name": "_account",
          "type": "address"
        },
        {
          "internalType": "string",
          "name": "_memeText",
          "type": "string"
        },
        {
          "internalType": "address[]",
          "name": "_tags",
          "type": "address[]"
        },
        {
          "internalType": "bytes32",
          "name": "_parentId",
          "type": "bytes32"
        },
        {
          "internalType": "bytes32",
          "name": "_originId",
          "type": "bytes32"
        },
        {
          "internalType": "bytes32",
          "name": "_repostId",
          "type": "bytes32"
        }
      ],
      "name": "quoteMeme",
      "outputs": [],
      "stateMutability": "nonpayable",
      "type": "function"
    },
    {
      "inputs": [
        {
          "internalType": "address",
          "name": "_account",
          "type": "address"
        },
        {
          "internalType": "bytes32",
          "name": "_memeId",
          "type": "bytes32"
        }
      ],
      "name": "deleteMeme",
      "outputs": [],
      "stateMutability": "nonpayable",
      "type": "function"
    },
    {
      "inputs": [
        {
          "internalType": "address",
          "name": "_userInterface",
          "type": "address"
        }
      ],
      "name": "passInterfaceSigner",
      "outputs": [
        {
          "internalType": "bool",
          "name": "",
          "type": "bool"
        }
      ],
      "stateMutability": "nonpayable",
      "type": "function"
    }
  ],
  "bytecode": "0x60806040523480156200001157600080fd5b50604051620019263803806200192683398181016040528101906200003791906200024b565b826000806101000a81548173ffffffffffffffffffffffffffffffffffffffff021916908373ffffffffffffffffffffffffffffffffffffffff16021790555081600160006101000a81548173ffffffffffffffffffffffffffffffffffffffff021916908373ffffffffffffffffffffffffffffffffffffffff16021790555080600260006101000a81548173ffffffffffffffffffffffffffffffffffffffff021916908373ffffffffffffffffffffffffffffffffffffffff16021790555033600360006101000a81548173ffffffffffffffffffffffffffffffffffffffff021916908373ffffffffffffffffffffffffffffffffffffffff160217905550505050620002a7565b600080fd5b600073ffffffffffffffffffffffffffffffffffffffff82169050919050565b6000620001758262000148565b9050919050565b6000620001898262000168565b9050919050565b6200019b816200017c565b8114620001a757600080fd5b50565b600081519050620001bb8162000190565b92915050565b6000620001ce8262000168565b9050919050565b620001e081620001c1565b8114620001ec57600080fd5b50565b6000815190506200020081620001d5565b92915050565b6000620002138262000168565b9050919050565b620002258162000206565b81146200023157600080fd5b50565b60008151905062000245816200021a565b92915050565b60008060006060848603121562000267576200026662000143565b5b60006200027786828701620001aa565b93505060206200028a86828701620001ef565b92505060406200029d8682870162000234565b9150509250925092565b61166f80620002b76000396000f3fe608060405234801561001057600080fd5b50600436106100625760003560e01c8063648c59eb14610067578063654ea484146100835780636b0a493e1461009f578063af5dffde146100bb578063c4e172da146100d9578063d71a485514610109575b600080fd5b610081600480360381019061007c9190610cfa565b610125565b005b61009d60048036038101906100989190610f48565b610248565b005b6100b960048036038101906100b49190610cfa565b61058c565b005b6100c3610917565b6040516100d0919061101c565b60405180910390f35b6100f360048036038101906100ee9190611037565b61093d565b604051610100919061107f565b60405180910390f35b610123600480360381019061011e919061109a565b610a95565b005b600360009054906101000a900473ffffffffffffffffffffffffffffffffffffffff1673ffffffffffffffffffffffffffffffffffffffff163373ffffffffffffffffffffffffffffffffffffffff16146101b5576040517f08c379a00000000000000000000000000000000000000000000000000000000081526004016101ac906111d0565b60405180910390fd5b600160009054906101000a900473ffffffffffffffffffffffffffffffffffffffff1673ffffffffffffffffffffffffffffffffffffffff1663648c59eb83836040518363ffffffff1660e01b81526004016102129291906111ff565b600060405180830381600087803b15801561022c57600080fd5b505af1158015610240573d6000803e3d6000fd5b505050505050565b600360009054906101000a900473ffffffffffffffffffffffffffffffffffffffff1673ffffffffffffffffffffffffffffffffffffffff163373ffffffffffffffffffffffffffffffffffffffff16146102d8576040517f08c379a00000000000000000000000000000000000000000000000000000000081526004016102cf9061129a565b60405180910390fd5b600160009054906101000a900473ffffffffffffffffffffffffffffffffffffffff1673ffffffffffffffffffffffffffffffffffffffff16637527e6248787878787876040518763ffffffff1660e01b815260040161033d969594939291906113ef565b600060405180830381600087803b15801561035757600080fd5b505af115801561036b573d6000803e3d6000fd5b50505050600260009054906101000a900473ffffffffffffffffffffffffffffffffffffffff1673ffffffffffffffffffffffffffffffffffffffff1663691d1c28826040518263ffffffff1660e01b81526004016103ca919061145e565b60206040518083038186803b1580156103e257600080fd5b505afa1580156103f6573d6000803e3d6000fd5b505050506040513d601f19601f8201168201806040525081019061041a919061148e565b73ffffffffffffffffffffffffffffffffffffffff168673ffffffffffffffffffffffffffffffffffffffff16146105845760008054906101000a900473ffffffffffffffffffffffffffffffffffffffff1673ffffffffffffffffffffffffffffffffffffffff1663f52548d487600260009054906101000a900473ffffffffffffffffffffffffffffffffffffffff1673ffffffffffffffffffffffffffffffffffffffff1663691d1c28856040518263ffffffff1660e01b81526004016104e4919061145e565b60206040518083038186803b1580156104fc57600080fd5b505afa158015610510573d6000803e3d6000fd5b505050506040513d601f19601f82011682018060405250810190610534919061148e565b6040518363ffffffff1660e01b81526004016105519291906114bb565b600060405180830381600087803b15801561056b57600080fd5b505af115801561057f573d6000803e3d6000fd5b505050505b505050505050565b600360009054906101000a900473ffffffffffffffffffffffffffffffffffffffff1673ffffffffffffffffffffffffffffffffffffffff163373ffffffffffffffffffffffffffffffffffffffff161461061c576040517f08c379a00000000000000000000000000000000000000000000000000000000081526004016106139061129a565b60405180910390fd5b600160009054906101000a900473ffffffffffffffffffffffffffffffffffffffff1673ffffffffffffffffffffffffffffffffffffffff16637527e62483600067ffffffffffffffff81111561067657610675610d55565b5b6040519080825280602002602001820160405280156106a45781602001602082028036833780820191505090505b50600454600454866040518663ffffffff1660e01b81526004016106cc95949392919061150a565b600060405180830381600087803b1580156106e657600080fd5b505af11580156106fa573d6000803e3d6000fd5b50505050600260009054906101000a900473ffffffffffffffffffffffffffffffffffffffff1673ffffffffffffffffffffffffffffffffffffffff1663691d1c28826040518263ffffffff1660e01b8152600401610759919061145e565b60206040518083038186803b15801561077157600080fd5b505afa158015610785573d6000803e3d6000fd5b505050506040513d601f19601f820116820180604052508101906107a9919061148e565b73ffffffffffffffffffffffffffffffffffffffff168273ffffffffffffffffffffffffffffffffffffffff16146109135760008054906101000a900473ffffffffffffffffffffffffffffffffffffffff1673ffffffffffffffffffffffffffffffffffffffff1663f52548d483600260009054906101000a900473ffffffffffffffffffffffffffffffffffffffff1673ffffffffffffffffffffffffffffffffffffffff1663691d1c28856040518263ffffffff1660e01b8152600401610873919061145e565b60206040518083038186803b15801561088b57600080fd5b505afa15801561089f573d6000803e3d6000fd5b505050506040513d601f19601f820116820180604052508101906108c3919061148e565b6040518363ffffffff1660e01b81526004016108e09291906114bb565b600060405180830381600087803b1580156108fa57600080fd5b505af115801561090e573d6000803e3d6000fd5b505050505b5050565b600360009054906101000a900473ffffffffffffffffffffffffffffffffffffffff1681565b6000600360009054906101000a900473ffffffffffffffffffffffffffffffffffffffff1673ffffffffffffffffffffffffffffffffffffffff163373ffffffffffffffffffffffffffffffffffffffff16146109cf576040517f08c379a00000000000000000000000000000000000000000000000000000000081526004016109c6906115e9565b60405180910390fd5b81600360006101000a81548173ffffffffffffffffffffffffffffffffffffffff021916908373ffffffffffffffffffffffffffffffffffffffff160217905550600360009054906101000a900473ffffffffffffffffffffffffffffffffffffffff1673ffffffffffffffffffffffffffffffffffffffff163373ffffffffffffffffffffffffffffffffffffffff167fdf570d582e474b2d7915b12f6f773eb74e4bc78a660caeeccf19491c8578507b60405160405180910390a360019050919050565b600360009054906101000a900473ffffffffffffffffffffffffffffffffffffffff1673ffffffffffffffffffffffffffffffffffffffff163373ffffffffffffffffffffffffffffffffffffffff1614610b25576040517f08c379a0000000000000000000000000000000000000000000000000000000008152600401610b1c9061129a565b60405180910390fd5b600160009054906101000a900473ffffffffffffffffffffffffffffffffffffffff1673ffffffffffffffffffffffffffffffffffffffff16637527e62486868686866004546040518763ffffffff1660e01b8152600401610b8c969594939291906113ef565b600060405180830381600087803b158015610ba657600080fd5b505af1158015610bba573d6000803e3d6000fd5b5050505060008054906101000a900473ffffffffffffffffffffffffffffffffffffffff1673ffffffffffffffffffffffffffffffffffffffff166376bd8f8c86866040518363ffffffff1660e01b8152600401610c19929190611609565b600060405180830381600087803b158015610c3357600080fd5b505af1158015610c47573d6000803e3d6000fd5b505050505050505050565b6000604051905090565b600080fd5b600080fd5b600073ffffffffffffffffffffffffffffffffffffffff82169050919050565b6000610c9182610c66565b9050919050565b610ca181610c86565b8114610cac57600080fd5b50565b600081359050610cbe81610c98565b92915050565b6000819050919050565b610cd781610cc4565b8114610ce257600080fd5b50565b600081359050610cf481610cce565b92915050565b60008060408385031215610d1157610d10610c5c565b5b6000610d1f85828601610caf565b9250506020610d3085828601610ce5565b9150509250929050565b600080fd5b600080fd5b6000601f19601f8301169050919050565b7f4e487b7100000000000000000000000000000000000000000000000000000000600052604160045260246000fd5b610d8d82610d44565b810181811067ffffffffffffffff82111715610dac57610dab610d55565b5b80604052505050565b6000610dbf610c52565b9050610dcb8282610d84565b919050565b600067ffffffffffffffff821115610deb57610dea610d55565b5b610df482610d44565b9050602081019050919050565b82818337600083830152505050565b6000610e23610e1e84610dd0565b610db5565b905082815260208101848484011115610e3f57610e3e610d3f565b5b610e4a848285610e01565b509392505050565b600082601f830112610e6757610e66610d3a565b5b8135610e77848260208601610e10565b91505092915050565b600067ffffffffffffffff821115610e9b57610e9a610d55565b5b602082029050602081019050919050565b600080fd5b6000610ec4610ebf84610e80565b610db5565b90508083825260208201905060208402830185811115610ee757610ee6610eac565b5b835b81811015610f105780610efc8882610caf565b845260208401935050602081019050610ee9565b5050509392505050565b600082601f830112610f2f57610f2e610d3a565b5b8135610f3f848260208601610eb1565b91505092915050565b60008060008060008060c08789031215610f6557610f64610c5c565b5b6000610f7389828a01610caf565b965050602087013567ffffffffffffffff811115610f9457610f93610c61565b5b610fa089828a01610e52565b955050604087013567ffffffffffffffff811115610fc157610fc0610c61565b5b610fcd89828a01610f1a565b9450506060610fde89828a01610ce5565b9350506080610fef89828a01610ce5565b92505060a061100089828a01610ce5565b9150509295509295509295565b61101681610c86565b82525050565b6000602082019050611031600083018461100d565b92915050565b60006020828403121561104d5761104c610c5c565b5b600061105b84828501610caf565b91505092915050565b60008115159050919050565b61107981611064565b82525050565b60006020820190506110946000830184611070565b92915050565b600080600080600060a086880312156110b6576110b5610c5c565b5b60006110c488828901610caf565b955050602086013567ffffffffffffffff8111156110e5576110e4610c61565b5b6110f188828901610e52565b945050604086013567ffffffffffffffff81111561111257611111610c61565b5b61111e88828901610f1a565b935050606061112f88828901610ce5565b925050608061114088828901610ce5565b9150509295509295909350565b600082825260208201905092915050565b7f4572726f723a206f6e6c7920696e74657266616365207369676e65722063616e60008201527f2064656c657465206d656d650000000000000000000000000000000000000000602082015250565b60006111ba602c8361114d565b91506111c58261115e565b604082019050919050565b600060208201905081810360008301526111e9816111ad565b9050919050565b6111f981610cc4565b82525050565b6000604082019050611214600083018561100d565b61122160208301846111f0565b9392505050565b7f4572726f723a20706f73746572206d757374206265206f7065726174696e672060008201527f6163636f756e7400000000000000000000000000000000000000000000000000602082015250565b600061128460278361114d565b915061128f82611228565b604082019050919050565b600060208201905081810360008301526112b381611277565b9050919050565b600081519050919050565b60005b838110156112e35780820151818401526020810190506112c8565b838111156112f2576000848401525b50505050565b6000611303826112ba565b61130d818561114d565b935061131d8185602086016112c5565b61132681610d44565b840191505092915050565b600081519050919050565b600082825260208201905092915050565b6000819050602082019050919050565b61136681610c86565b82525050565b6000611378838361135d565b60208301905092915050565b6000602082019050919050565b600061139c82611331565b6113a6818561133c565b93506113b18361134d565b8060005b838110156113e25781516113c9888261136c565b97506113d483611384565b9250506001810190506113b5565b5085935050505092915050565b600060c082019050611404600083018961100d565b818103602083015261141681886112f8565b9050818103604083015261142a8187611391565b905061143960608301866111f0565b61144660808301856111f0565b61145360a08301846111f0565b979650505050505050565b600060208201905061147360008301846111f0565b92915050565b60008151905061148881610c98565b92915050565b6000602082840312156114a4576114a3610c5c565b5b60006114b284828501611479565b91505092915050565b60006040820190506114d0600083018561100d565b6114dd602083018461100d565b9392505050565b50565b60006114f460008361114d565b91506114ff826114e4565b600082019050919050565b600060c08201905061151f600083018861100d565b8181036020830152611530816114e7565b905081810360408301526115448187611391565b905061155360608301866111f0565b61156060808301856111f0565b61156d60a08301846111f0565b9695505050505050565b7f4572726f722c206f6e6c79206465706c6f7965722063616e207061737320696e60008201527f74657266616365207369676e657220726f6c6500000000000000000000000000602082015250565b60006115d360338361114d565b91506115de82611577565b604082019050919050565b60006020820190508181036000830152611602816115c6565b9050919050565b600060408201905061161e600083018561100d565b818103602083015261163081846112f8565b9050939250505056fea26469706673582212209f471037b53eea5b9b5ed94d6b5bcc8b9e78944a685a2b6455c3703b1ad0227864736f6c63430008090033",
  "immutableReferences": {},
  "source": "// SPDX-License-Identifier: MIT\n\npragma solidity >=0.8.0 <0.9.0;\n\nimport \"./MemeFactory.sol\";\nimport \"./MemeStorage.sol\";\nimport \"./UME.sol\";\n\ncontract Post {\n  // public variables\n  UME private umeToken;\n  MemeFactory private memeFactory;\n  MemeStorage private memeStorage;\n\n  address public interfaceSigner;\n  bytes32 zeroBytes;\n\n  event InterfaceSignerChanged(address indexed from, address indexed to);\n\n  constructor(UME _umeToken,\n              MemeFactory _memeFactory,\n              MemeStorage _memeStorage)\n              public {\n    umeToken = _umeToken;\n    memeFactory = _memeFactory;\n    memeStorage = _memeStorage;\n\n    interfaceSigner = msg.sender;\n  }\n\n  // posting meme functions\n  function newMeme(\n            address _account,\n            string memory _memeText,\n            address[] memory _tags,\n            bytes32 _parentId,\n            bytes32 _originId)\n            public {\n    require(\n      msg.sender==interfaceSigner,\n      'Error: poster must be operating account');\n    memeFactory.newMeme(_account, _memeText, _tags, _parentId, _originId, zeroBytes);\n    umeToken.mintPost(_account, _memeText);\n  }\n\n  function rememe(\n            address _account,\n            bytes32 _repostId)\n            public {\n    require(\n      msg.sender==interfaceSigner,\n      'Error: poster must be operating account');\n    memeFactory.newMeme(_account, '', new address[](0), zeroBytes, zeroBytes, _repostId);\n    if(_account!=memeStorage.getAuthor(_repostId)) {\n      umeToken.mintRepost(_account, memeStorage.getAuthor(_repostId));\n    }\n  }\n  function quoteMeme(\n            address _account,\n            string memory _memeText,\n            address[] memory _tags,\n            bytes32 _parentId,\n            bytes32 _originId,\n            bytes32 _repostId)\n            public {\n    require(\n      msg.sender==interfaceSigner,\n      'Error: poster must be operating account');\n    memeFactory.newMeme(_account, _memeText, _tags, _parentId, _originId, _repostId);\n    if(_account!=memeStorage.getAuthor(_repostId)) {\n      umeToken.mintRepost(_account, memeStorage.getAuthor(_repostId));\n    }\n  }\n\n  function deleteMeme(address _account, bytes32 _memeId)\n            public {\n    require(\n      msg.sender==interfaceSigner,\n      'Error: only interface signer can delete meme');\n    memeFactory.deleteMeme(_account, _memeId);\n  }\n\n  // set caller role to User upon deployment\n  function passInterfaceSigner(address _userInterface)\n            public returns (bool) {\n    require(\n      msg.sender == interfaceSigner,\n      'Error, only deployer can pass interface signer role');\n    interfaceSigner = _userInterface;\n    emit InterfaceSignerChanged(msg.sender, interfaceSigner);\n    return true;\n  }\n}\n",
  "sourcePath": "/Users/jaiq/Documents/000 BLOCKCHAIN/ETH/uMe/src/contracts/Post.sol",
  "compiler": {
    "name": "solc",
    "version": "0.8.9+commit.e5eed63a.Emscripten.clang"
  },
  "schemaVersion": "3.4.3",
  "updatedAt": "2021-11-02T05:26:54.476Z",
  "devdoc": {
    "kind": "dev",
    "methods": {},
    "version": 1
  },
  "userdoc": {
    "kind": "user",
    "methods": {},
    "version": 1
  }
}