{
  "contractName": "Post",
  "abi": [
    {
      "inputs": [
        {
          "internalType": "contract UME",
          "name": "_umeToken",
          "type": "address"
        },
        {
          "internalType": "contract MemeFactory",
          "name": "_memeFactory",
          "type": "address"
        },
        {
          "internalType": "contract MemeStorage",
          "name": "_memeStorage",
          "type": "address"
        }
      ],
      "stateMutability": "nonpayable",
      "type": "constructor"
    },
    {
      "anonymous": false,
      "inputs": [
        {
          "indexed": true,
          "internalType": "address",
          "name": "from",
          "type": "address"
        },
        {
          "indexed": true,
          "internalType": "address",
          "name": "to",
          "type": "address"
        }
      ],
      "name": "InterfaceSignerChanged",
      "type": "event"
    },
    {
      "inputs": [],
      "name": "interfaceSigner",
      "outputs": [
        {
          "internalType": "address",
          "name": "",
          "type": "address"
        }
      ],
      "stateMutability": "view",
      "type": "function"
    },
    {
      "inputs": [
        {
          "internalType": "address",
          "name": "_account",
          "type": "address"
        },
        {
          "internalType": "string",
          "name": "_memeText",
          "type": "string"
        },
        {
          "internalType": "address[]",
          "name": "_tags",
          "type": "address[]"
        },
        {
          "internalType": "bytes32",
          "name": "_parentId",
          "type": "bytes32"
        },
        {
          "internalType": "bytes32",
          "name": "_originId",
          "type": "bytes32"
        }
      ],
      "name": "newMeme",
      "outputs": [],
      "stateMutability": "nonpayable",
      "type": "function"
    },
    {
      "inputs": [
        {
          "internalType": "address",
          "name": "_account",
          "type": "address"
        },
        {
          "internalType": "bytes32",
          "name": "_repostId",
          "type": "bytes32"
        }
      ],
      "name": "rememe",
      "outputs": [],
      "stateMutability": "nonpayable",
      "type": "function"
    },
    {
      "inputs": [
        {
          "internalType": "address",
          "name": "_account",
          "type": "address"
        },
        {
          "internalType": "string",
          "name": "_memeText",
          "type": "string"
        },
        {
          "internalType": "address[]",
          "name": "_tags",
          "type": "address[]"
        },
        {
          "internalType": "bytes32",
          "name": "_parentId",
          "type": "bytes32"
        },
        {
          "internalType": "bytes32",
          "name": "_originId",
          "type": "bytes32"
        },
        {
          "internalType": "bytes32",
          "name": "_repostId",
          "type": "bytes32"
        }
      ],
      "name": "quoteMeme",
      "outputs": [],
      "stateMutability": "nonpayable",
      "type": "function"
    },
    {
      "inputs": [
        {
          "internalType": "address",
          "name": "_account",
          "type": "address"
        },
        {
          "internalType": "bytes32",
          "name": "_memeId",
          "type": "bytes32"
        }
      ],
      "name": "deleteMeme",
      "outputs": [],
      "stateMutability": "nonpayable",
      "type": "function"
    },
    {
      "inputs": [
        {
          "internalType": "address",
          "name": "_userInterface",
          "type": "address"
        }
      ],
      "name": "passInterfaceSigner",
      "outputs": [
        {
          "internalType": "bool",
          "name": "",
          "type": "bool"
        }
      ],
      "stateMutability": "nonpayable",
      "type": "function"
    }
  ],
  "bytecode": "0x60806040523480156200001157600080fd5b5060405162001ba338038062001ba383398181016040528101906200003791906200024b565b826000806101000a81548173ffffffffffffffffffffffffffffffffffffffff021916908373ffffffffffffffffffffffffffffffffffffffff16021790555081600160006101000a81548173ffffffffffffffffffffffffffffffffffffffff021916908373ffffffffffffffffffffffffffffffffffffffff16021790555080600260006101000a81548173ffffffffffffffffffffffffffffffffffffffff021916908373ffffffffffffffffffffffffffffffffffffffff16021790555033600360006101000a81548173ffffffffffffffffffffffffffffffffffffffff021916908373ffffffffffffffffffffffffffffffffffffffff160217905550505050620002a7565b600080fd5b600073ffffffffffffffffffffffffffffffffffffffff82169050919050565b6000620001758262000148565b9050919050565b6000620001898262000168565b9050919050565b6200019b816200017c565b8114620001a757600080fd5b50565b600081519050620001bb8162000190565b92915050565b6000620001ce8262000168565b9050919050565b620001e081620001c1565b8114620001ec57600080fd5b50565b6000815190506200020081620001d5565b92915050565b6000620002138262000168565b9050919050565b620002258162000206565b81146200023157600080fd5b50565b60008151905062000245816200021a565b92915050565b60008060006060848603121562000267576200026662000143565b5b60006200027786828701620001aa565b93505060206200028a86828701620001ef565b92505060406200029d8682870162000234565b9150509250925092565b6118ec80620002b76000396000f3fe608060405234801561001057600080fd5b50600436106100625760003560e01c8063648c59eb14610067578063654ea484146100835780636b0a493e1461009f578063af5dffde146100bb578063c4e172da146100d9578063d71a485514610109575b600080fd5b610081600480360381019061007c9190610e82565b610125565b005b61009d600480360381019061009891906110d0565b6103d0565b005b6100b960048036038101906100b49190610e82565b610714565b005b6100c3610a9f565b6040516100d091906111a4565b60405180910390f35b6100f360048036038101906100ee91906111bf565b610ac5565b6040516101009190611207565b60405180910390f35b610123600480360381019061011e9190611222565b610c1d565b005b600360009054906101000a900473ffffffffffffffffffffffffffffffffffffffff1673ffffffffffffffffffffffffffffffffffffffff163373ffffffffffffffffffffffffffffffffffffffff16146101b5576040517f08c379a00000000000000000000000000000000000000000000000000000000081526004016101ac90611358565b60405180910390fd5b60008054906101000a900473ffffffffffffffffffffffffffffffffffffffff1673ffffffffffffffffffffffffffffffffffffffff166306d29bfc6040518163ffffffff1660e01b815260040160206040518083038186803b15801561021b57600080fd5b505afa15801561022f573d6000803e3d6000fd5b505050506040513d601f19601f8201168201806040525081019061025391906113ae565b60008054906101000a900473ffffffffffffffffffffffffffffffffffffffff1673ffffffffffffffffffffffffffffffffffffffff166370a08231336040518263ffffffff1660e01b81526004016102ac91906111a4565b60206040518083038186803b1580156102c457600080fd5b505afa1580156102d8573d6000803e3d6000fd5b505050506040513d601f19601f820116820180604052508101906102fc91906113ae565b101561033d576040517f08c379a00000000000000000000000000000000000000000000000000000000081526004016103349061144d565b60405180910390fd5b600160009054906101000a900473ffffffffffffffffffffffffffffffffffffffff1673ffffffffffffffffffffffffffffffffffffffff1663648c59eb83836040518363ffffffff1660e01b815260040161039a92919061147c565b600060405180830381600087803b1580156103b457600080fd5b505af11580156103c8573d6000803e3d6000fd5b505050505050565b600360009054906101000a900473ffffffffffffffffffffffffffffffffffffffff1673ffffffffffffffffffffffffffffffffffffffff163373ffffffffffffffffffffffffffffffffffffffff1614610460576040517f08c379a000000000000000000000000000000000000000000000000000000000815260040161045790611517565b60405180910390fd5b600160009054906101000a900473ffffffffffffffffffffffffffffffffffffffff1673ffffffffffffffffffffffffffffffffffffffff16637527e6248787878787876040518763ffffffff1660e01b81526004016104c59695949392919061166c565b600060405180830381600087803b1580156104df57600080fd5b505af11580156104f3573d6000803e3d6000fd5b50505050600260009054906101000a900473ffffffffffffffffffffffffffffffffffffffff1673ffffffffffffffffffffffffffffffffffffffff1663691d1c28826040518263ffffffff1660e01b815260040161055291906116db565b60206040518083038186803b15801561056a57600080fd5b505afa15801561057e573d6000803e3d6000fd5b505050506040513d601f19601f820116820180604052508101906105a2919061170b565b73ffffffffffffffffffffffffffffffffffffffff168673ffffffffffffffffffffffffffffffffffffffff161461070c5760008054906101000a900473ffffffffffffffffffffffffffffffffffffffff1673ffffffffffffffffffffffffffffffffffffffff1663f52548d487600260009054906101000a900473ffffffffffffffffffffffffffffffffffffffff1673ffffffffffffffffffffffffffffffffffffffff1663691d1c28856040518263ffffffff1660e01b815260040161066c91906116db565b60206040518083038186803b15801561068457600080fd5b505afa158015610698573d6000803e3d6000fd5b505050506040513d601f19601f820116820180604052508101906106bc919061170b565b6040518363ffffffff1660e01b81526004016106d9929190611738565b600060405180830381600087803b1580156106f357600080fd5b505af1158015610707573d6000803e3d6000fd5b505050505b505050505050565b600360009054906101000a900473ffffffffffffffffffffffffffffffffffffffff1673ffffffffffffffffffffffffffffffffffffffff163373ffffffffffffffffffffffffffffffffffffffff16146107a4576040517f08c379a000000000000000000000000000000000000000000000000000000000815260040161079b90611517565b60405180910390fd5b600160009054906101000a900473ffffffffffffffffffffffffffffffffffffffff1673ffffffffffffffffffffffffffffffffffffffff16637527e62483600067ffffffffffffffff8111156107fe576107fd610edd565b5b60405190808252806020026020018201604052801561082c5781602001602082028036833780820191505090505b50600454600454866040518663ffffffff1660e01b8152600401610854959493929190611787565b600060405180830381600087803b15801561086e57600080fd5b505af1158015610882573d6000803e3d6000fd5b50505050600260009054906101000a900473ffffffffffffffffffffffffffffffffffffffff1673ffffffffffffffffffffffffffffffffffffffff1663691d1c28826040518263ffffffff1660e01b81526004016108e191906116db565b60206040518083038186803b1580156108f957600080fd5b505afa15801561090d573d6000803e3d6000fd5b505050506040513d601f19601f82011682018060405250810190610931919061170b565b73ffffffffffffffffffffffffffffffffffffffff168273ffffffffffffffffffffffffffffffffffffffff1614610a9b5760008054906101000a900473ffffffffffffffffffffffffffffffffffffffff1673ffffffffffffffffffffffffffffffffffffffff1663f52548d483600260009054906101000a900473ffffffffffffffffffffffffffffffffffffffff1673ffffffffffffffffffffffffffffffffffffffff1663691d1c28856040518263ffffffff1660e01b81526004016109fb91906116db565b60206040518083038186803b158015610a1357600080fd5b505afa158015610a27573d6000803e3d6000fd5b505050506040513d601f19601f82011682018060405250810190610a4b919061170b565b6040518363ffffffff1660e01b8152600401610a68929190611738565b600060405180830381600087803b158015610a8257600080fd5b505af1158015610a96573d6000803e3d6000fd5b505050505b5050565b600360009054906101000a900473ffffffffffffffffffffffffffffffffffffffff1681565b6000600360009054906101000a900473ffffffffffffffffffffffffffffffffffffffff1673ffffffffffffffffffffffffffffffffffffffff163373ffffffffffffffffffffffffffffffffffffffff1614610b57576040517f08c379a0000000000000000000000000000000000000000000000000000000008152600401610b4e90611866565b60405180910390fd5b81600360006101000a81548173ffffffffffffffffffffffffffffffffffffffff021916908373ffffffffffffffffffffffffffffffffffffffff160217905550600360009054906101000a900473ffffffffffffffffffffffffffffffffffffffff1673ffffffffffffffffffffffffffffffffffffffff163373ffffffffffffffffffffffffffffffffffffffff167fdf570d582e474b2d7915b12f6f773eb74e4bc78a660caeeccf19491c8578507b60405160405180910390a360019050919050565b600360009054906101000a900473ffffffffffffffffffffffffffffffffffffffff1673ffffffffffffffffffffffffffffffffffffffff163373ffffffffffffffffffffffffffffffffffffffff1614610cad576040517f08c379a0000000000000000000000000000000000000000000000000000000008152600401610ca490611517565b60405180910390fd5b600160009054906101000a900473ffffffffffffffffffffffffffffffffffffffff1673ffffffffffffffffffffffffffffffffffffffff16637527e62486868686866004546040518763ffffffff1660e01b8152600401610d149695949392919061166c565b600060405180830381600087803b158015610d2e57600080fd5b505af1158015610d42573d6000803e3d6000fd5b5050505060008054906101000a900473ffffffffffffffffffffffffffffffffffffffff1673ffffffffffffffffffffffffffffffffffffffff166376bd8f8c86866040518363ffffffff1660e01b8152600401610da1929190611886565b600060405180830381600087803b158015610dbb57600080fd5b505af1158015610dcf573d6000803e3d6000fd5b505050505050505050565b6000604051905090565b600080fd5b600080fd5b600073ffffffffffffffffffffffffffffffffffffffff82169050919050565b6000610e1982610dee565b9050919050565b610e2981610e0e565b8114610e3457600080fd5b50565b600081359050610e4681610e20565b92915050565b6000819050919050565b610e5f81610e4c565b8114610e6a57600080fd5b50565b600081359050610e7c81610e56565b92915050565b60008060408385031215610e9957610e98610de4565b5b6000610ea785828601610e37565b9250506020610eb885828601610e6d565b9150509250929050565b600080fd5b600080fd5b6000601f19601f8301169050919050565b7f4e487b7100000000000000000000000000000000000000000000000000000000600052604160045260246000fd5b610f1582610ecc565b810181811067ffffffffffffffff82111715610f3457610f33610edd565b5b80604052505050565b6000610f47610dda565b9050610f538282610f0c565b919050565b600067ffffffffffffffff821115610f7357610f72610edd565b5b610f7c82610ecc565b9050602081019050919050565b82818337600083830152505050565b6000610fab610fa684610f58565b610f3d565b905082815260208101848484011115610fc757610fc6610ec7565b5b610fd2848285610f89565b509392505050565b600082601f830112610fef57610fee610ec2565b5b8135610fff848260208601610f98565b91505092915050565b600067ffffffffffffffff82111561102357611022610edd565b5b602082029050602081019050919050565b600080fd5b600061104c61104784611008565b610f3d565b9050808382526020820190506020840283018581111561106f5761106e611034565b5b835b8181101561109857806110848882610e37565b845260208401935050602081019050611071565b5050509392505050565b600082601f8301126110b7576110b6610ec2565b5b81356110c7848260208601611039565b91505092915050565b60008060008060008060c087890312156110ed576110ec610de4565b5b60006110fb89828a01610e37565b965050602087013567ffffffffffffffff81111561111c5761111b610de9565b5b61112889828a01610fda565b955050604087013567ffffffffffffffff81111561114957611148610de9565b5b61115589828a016110a2565b945050606061116689828a01610e6d565b935050608061117789828a01610e6d565b92505060a061118889828a01610e6d565b9150509295509295509295565b61119e81610e0e565b82525050565b60006020820190506111b96000830184611195565b92915050565b6000602082840312156111d5576111d4610de4565b5b60006111e384828501610e37565b91505092915050565b60008115159050919050565b611201816111ec565b82525050565b600060208201905061121c60008301846111f8565b92915050565b600080600080600060a0868803121561123e5761123d610de4565b5b600061124c88828901610e37565b955050602086013567ffffffffffffffff81111561126d5761126c610de9565b5b61127988828901610fda565b945050604086013567ffffffffffffffff81111561129a57611299610de9565b5b6112a6888289016110a2565b93505060606112b788828901610e6d565b92505060806112c888828901610e6d565b9150509295509295909350565b600082825260208201905092915050565b7f4572726f723a206f6e6c7920696e74657266616365207369676e65722063616e60008201527f2064656c657465206d656d650000000000000000000000000000000000000000602082015250565b6000611342602c836112d5565b915061134d826112e6565b604082019050919050565b6000602082019050818103600083015261137181611335565b9050919050565b6000819050919050565b61138b81611378565b811461139657600080fd5b50565b6000815190506113a881611382565b92915050565b6000602082840312156113c4576113c3610de4565b5b60006113d284828501611399565b91505092915050565b7f4572726f723a206e6f7420656e6f75676820554d4520746f2064656c6574652060008201527f6d656d6500000000000000000000000000000000000000000000000000000000602082015250565b60006114376024836112d5565b9150611442826113db565b604082019050919050565b600060208201905081810360008301526114668161142a565b9050919050565b61147681610e4c565b82525050565b60006040820190506114916000830185611195565b61149e602083018461146d565b9392505050565b7f4572726f723a20706f73746572206d757374206265206f7065726174696e672060008201527f6163636f756e7400000000000000000000000000000000000000000000000000602082015250565b60006115016027836112d5565b915061150c826114a5565b604082019050919050565b60006020820190508181036000830152611530816114f4565b9050919050565b600081519050919050565b60005b83811015611560578082015181840152602081019050611545565b8381111561156f576000848401525b50505050565b600061158082611537565b61158a81856112d5565b935061159a818560208601611542565b6115a381610ecc565b840191505092915050565b600081519050919050565b600082825260208201905092915050565b6000819050602082019050919050565b6115e381610e0e565b82525050565b60006115f583836115da565b60208301905092915050565b6000602082019050919050565b6000611619826115ae565b61162381856115b9565b935061162e836115ca565b8060005b8381101561165f57815161164688826115e9565b975061165183611601565b925050600181019050611632565b5085935050505092915050565b600060c0820190506116816000830189611195565b81810360208301526116938188611575565b905081810360408301526116a7818761160e565b90506116b6606083018661146d565b6116c3608083018561146d565b6116d060a083018461146d565b979650505050505050565b60006020820190506116f0600083018461146d565b92915050565b60008151905061170581610e20565b92915050565b60006020828403121561172157611720610de4565b5b600061172f848285016116f6565b91505092915050565b600060408201905061174d6000830185611195565b61175a6020830184611195565b9392505050565b50565b60006117716000836112d5565b915061177c82611761565b600082019050919050565b600060c08201905061179c6000830188611195565b81810360208301526117ad81611764565b905081810360408301526117c1818761160e565b90506117d0606083018661146d565b6117dd608083018561146d565b6117ea60a083018461146d565b9695505050505050565b7f4572726f722c206f6e6c79206465706c6f7965722063616e207061737320696e60008201527f74657266616365207369676e657220726f6c6500000000000000000000000000602082015250565b60006118506033836112d5565b915061185b826117f4565b604082019050919050565b6000602082019050818103600083015261187f81611843565b9050919050565b600060408201905061189b6000830185611195565b81810360208301526118ad8184611575565b9050939250505056fea264697066735822122060191c2117d52246061c42e0994fd54afb33b5f2c87a1784f9729925e32f08dc64736f6c63430008090033",
  "immutableReferences": {},
  "source": "// SPDX-License-Identifier: MIT\n\npragma solidity >=0.8.0 <0.9.0;\n\nimport \"./MemeFactory.sol\";\nimport \"./MemeStorage.sol\";\nimport \"./UME.sol\";\n\ncontract Post {\n  // public variables\n  UME private umeToken;\n  MemeFactory private memeFactory;\n  MemeStorage private memeStorage;\n\n  address public interfaceSigner;\n  bytes32 zeroBytes;\n\n  event InterfaceSignerChanged(address indexed from, address indexed to);\n\n  constructor(UME _umeToken,\n              MemeFactory _memeFactory,\n              MemeStorage _memeStorage)\n              public {\n    umeToken = _umeToken;\n    memeFactory = _memeFactory;\n    memeStorage = _memeStorage;\n\n    interfaceSigner = msg.sender;\n  }\n\n  // posting meme functions\n  function newMeme(\n            address _account,\n            string memory _memeText,\n            address[] memory _tags,\n            bytes32 _parentId,\n            bytes32 _originId)\n            public {\n    require(\n      msg.sender==interfaceSigner,\n      'Error: poster must be operating account');\n    memeFactory.newMeme(_account, _memeText, _tags, _parentId, _originId, zeroBytes);\n    umeToken.mintPost(_account, _memeText);\n  }\n\n  function rememe(\n            address _account,\n            bytes32 _repostId)\n            public {\n    require(\n      msg.sender==interfaceSigner,\n      'Error: poster must be operating account');\n    memeFactory.newMeme(_account, '', new address[](0), zeroBytes, zeroBytes, _repostId);\n    if(_account!=memeStorage.getAuthor(_repostId)) {\n      umeToken.mintRepost(_account, memeStorage.getAuthor(_repostId));\n    }\n  }\n  function quoteMeme(\n            address _account,\n            string memory _memeText,\n            address[] memory _tags,\n            bytes32 _parentId,\n            bytes32 _originId,\n            bytes32 _repostId)\n            public {\n    require(\n      msg.sender==interfaceSigner,\n      'Error: poster must be operating account');\n    memeFactory.newMeme(_account, _memeText, _tags, _parentId, _originId, _repostId);\n    if(_account!=memeStorage.getAuthor(_repostId)) {\n      umeToken.mintRepost(_account, memeStorage.getAuthor(_repostId));\n    }\n  }\n\n  function deleteMeme(address _account, bytes32 _memeId)\n            public {\n    require(\n      msg.sender==interfaceSigner,\n      'Error: only interface signer can delete meme');\n    require(\n      umeToken.balanceOf(msg.sender)>=umeToken.postValue(),\n      'Error: not enough UME to delete meme');\n    memeFactory.deleteMeme(_account, _memeId);\n  }\n\n  // set caller role to User upon deployment\n  function passInterfaceSigner(address _userInterface)\n            public returns (bool) {\n    require(\n      msg.sender == interfaceSigner,\n      'Error, only deployer can pass interface signer role');\n    interfaceSigner = _userInterface;\n    emit InterfaceSignerChanged(msg.sender, interfaceSigner);\n    return true;\n  }\n}\n",
  "sourcePath": "/Users/jaiq/Documents/000 BLOCKCHAIN/ETH/uMe/src/contracts/Post.sol",
  "compiler": {
    "name": "solc",
    "version": "0.8.9+commit.e5eed63a.Emscripten.clang"
  },
  "schemaVersion": "3.4.3",
  "updatedAt": "2021-11-01T06:47:09.173Z",
  "devdoc": {
    "kind": "dev",
    "methods": {},
    "version": 1
  },
  "userdoc": {
    "kind": "user",
    "methods": {},
    "version": 1
  }
}