{
  "contractName": "Post",
  "abi": [
    {
      "inputs": [
        {
          "internalType": "contract UME",
          "name": "_umeToken",
          "type": "address"
        },
        {
          "internalType": "contract MemeFactory",
          "name": "_memeFactory",
          "type": "address"
        },
        {
          "internalType": "contract MemeStorage",
          "name": "_memeStorage",
          "type": "address"
        }
      ],
      "stateMutability": "nonpayable",
      "type": "constructor"
    },
    {
      "anonymous": false,
      "inputs": [
        {
          "indexed": true,
          "internalType": "address",
          "name": "from",
          "type": "address"
        },
        {
          "indexed": true,
          "internalType": "address",
          "name": "to",
          "type": "address"
        }
      ],
      "name": "InterfaceSignerChanged",
      "type": "event"
    },
    {
      "inputs": [],
      "name": "interfaceSigner",
      "outputs": [
        {
          "internalType": "address",
          "name": "",
          "type": "address"
        }
      ],
      "stateMutability": "view",
      "type": "function"
    },
    {
      "inputs": [
        {
          "internalType": "address",
          "name": "_account",
          "type": "address"
        },
        {
          "internalType": "string",
          "name": "_memeText",
          "type": "string"
        },
        {
          "internalType": "address[]",
          "name": "_tags",
          "type": "address[]"
        },
        {
          "internalType": "bytes32",
          "name": "_parentId",
          "type": "bytes32"
        },
        {
          "internalType": "bytes32",
          "name": "_originId",
          "type": "bytes32"
        }
      ],
      "name": "newMeme",
      "outputs": [],
      "stateMutability": "nonpayable",
      "type": "function"
    },
    {
      "inputs": [
        {
          "internalType": "address",
          "name": "_account",
          "type": "address"
        },
        {
          "internalType": "bytes32",
          "name": "_repostId",
          "type": "bytes32"
        }
      ],
      "name": "rememe",
      "outputs": [],
      "stateMutability": "nonpayable",
      "type": "function"
    },
    {
      "inputs": [
        {
          "internalType": "address",
          "name": "_account",
          "type": "address"
        },
        {
          "internalType": "string",
          "name": "_memeText",
          "type": "string"
        },
        {
          "internalType": "address[]",
          "name": "_tags",
          "type": "address[]"
        },
        {
          "internalType": "bytes32",
          "name": "_parentId",
          "type": "bytes32"
        },
        {
          "internalType": "bytes32",
          "name": "_originId",
          "type": "bytes32"
        },
        {
          "internalType": "bytes32",
          "name": "_repostId",
          "type": "bytes32"
        }
      ],
      "name": "quoteMeme",
      "outputs": [],
      "stateMutability": "nonpayable",
      "type": "function"
    },
    {
      "inputs": [
        {
          "internalType": "bytes32",
          "name": "_memeId",
          "type": "bytes32"
        }
      ],
      "name": "deleteMeme",
      "outputs": [],
      "stateMutability": "nonpayable",
      "type": "function"
    },
    {
      "inputs": [
        {
          "internalType": "address",
          "name": "_userInterface",
          "type": "address"
        }
      ],
      "name": "passInterfaceSigner",
      "outputs": [
        {
          "internalType": "bool",
          "name": "",
          "type": "bool"
        }
      ],
      "stateMutability": "nonpayable",
      "type": "function"
    }
  ],
  "bytecode": "0x60806040523480156200001157600080fd5b5060405162001abf38038062001abf83398181016040528101906200003791906200024b565b826000806101000a81548173ffffffffffffffffffffffffffffffffffffffff021916908373ffffffffffffffffffffffffffffffffffffffff16021790555081600160006101000a81548173ffffffffffffffffffffffffffffffffffffffff021916908373ffffffffffffffffffffffffffffffffffffffff16021790555080600260006101000a81548173ffffffffffffffffffffffffffffffffffffffff021916908373ffffffffffffffffffffffffffffffffffffffff16021790555033600360006101000a81548173ffffffffffffffffffffffffffffffffffffffff021916908373ffffffffffffffffffffffffffffffffffffffff160217905550505050620002a7565b600080fd5b600073ffffffffffffffffffffffffffffffffffffffff82169050919050565b6000620001758262000148565b9050919050565b6000620001898262000168565b9050919050565b6200019b816200017c565b8114620001a757600080fd5b50565b600081519050620001bb8162000190565b92915050565b6000620001ce8262000168565b9050919050565b620001e081620001c1565b8114620001ec57600080fd5b50565b6000815190506200020081620001d5565b92915050565b6000620002138262000168565b9050919050565b620002258162000206565b81146200023157600080fd5b50565b60008151905062000245816200021a565b92915050565b60008060006060848603121562000267576200026662000143565b5b60006200027786828701620001aa565b93505060206200028a86828701620001ef565b92505060406200029d8682870162000234565b9150509250925092565b61180880620002b76000396000f3fe608060405234801561001057600080fd5b50600436106100625760003560e01c8063654ea484146100675780636b0a493e14610083578063aaf837c51461009f578063af5dffde146100bb578063c4e172da146100d9578063d71a485514610109575b600080fd5b610081600480360381019061007c9190611025565b610125565b005b61009d600480360381019061009891906110ea565b6104f9565b005b6100b960048036038101906100b4919061112a565b610914565b005b6100c3610a34565b6040516100d09190611166565b60405180910390f35b6100f360048036038101906100ee9190611181565b610a5a565b60405161010091906111c9565b60405180910390f35b610123600480360381019061011e91906111e4565b610bb2565b005b600360009054906101000a900473ffffffffffffffffffffffffffffffffffffffff1673ffffffffffffffffffffffffffffffffffffffff163373ffffffffffffffffffffffffffffffffffffffff16146101b5576040517f08c379a00000000000000000000000000000000000000000000000000000000081526004016101ac9061131a565b60405180910390fd5b600160009054906101000a900473ffffffffffffffffffffffffffffffffffffffff1673ffffffffffffffffffffffffffffffffffffffff16637527e6248787878787876040518763ffffffff1660e01b815260040161021a9695949392919061147e565b600060405180830381600087803b15801561023457600080fd5b505af1158015610248573d6000803e3d6000fd5b50505050600260009054906101000a900473ffffffffffffffffffffffffffffffffffffffff1673ffffffffffffffffffffffffffffffffffffffff1663691d1c28826040518263ffffffff1660e01b81526004016102a791906114ed565b60206040518083038186803b1580156102bf57600080fd5b505afa1580156102d3573d6000803e3d6000fd5b505050506040513d601f19601f820116820180604052508101906102f7919061151d565b73ffffffffffffffffffffffffffffffffffffffff168673ffffffffffffffffffffffffffffffffffffffff16146104f15760008054906101000a900473ffffffffffffffffffffffffffffffffffffffff1673ffffffffffffffffffffffffffffffffffffffff1663f52548d487600260009054906101000a900473ffffffffffffffffffffffffffffffffffffffff1673ffffffffffffffffffffffffffffffffffffffff1663691d1c28856040518263ffffffff1660e01b81526004016103c191906114ed565b60206040518083038186803b1580156103d957600080fd5b505afa1580156103ed573d6000803e3d6000fd5b505050506040513d601f19601f82011682018060405250810190610411919061151d565b6040518363ffffffff1660e01b815260040161042e92919061154a565b600060405180830381600087803b15801561044857600080fd5b505af115801561045c573d6000803e3d6000fd5b50505050600260009054906101000a900473ffffffffffffffffffffffffffffffffffffffff1673ffffffffffffffffffffffffffffffffffffffff166370d2c46b8260086040518363ffffffff1660e01b81526004016104be9291906115c2565b600060405180830381600087803b1580156104d857600080fd5b505af11580156104ec573d6000803e3d6000fd5b505050505b505050505050565b600360009054906101000a900473ffffffffffffffffffffffffffffffffffffffff1673ffffffffffffffffffffffffffffffffffffffff163373ffffffffffffffffffffffffffffffffffffffff1614610589576040517f08c379a00000000000000000000000000000000000000000000000000000000081526004016105809061131a565b60405180910390fd5b600160009054906101000a900473ffffffffffffffffffffffffffffffffffffffff1673ffffffffffffffffffffffffffffffffffffffff16637527e62483600067ffffffffffffffff8111156105e3576105e2610dfc565b5b6040519080825280602002602001820160405280156106115781602001602082028036833780820191505090505b50600454600454866040518663ffffffff1660e01b8152600401610639959493929190611611565b600060405180830381600087803b15801561065357600080fd5b505af1158015610667573d6000803e3d6000fd5b50505050600260009054906101000a900473ffffffffffffffffffffffffffffffffffffffff1673ffffffffffffffffffffffffffffffffffffffff1663691d1c28826040518263ffffffff1660e01b81526004016106c691906114ed565b60206040518083038186803b1580156106de57600080fd5b505afa1580156106f2573d6000803e3d6000fd5b505050506040513d601f19601f82011682018060405250810190610716919061151d565b73ffffffffffffffffffffffffffffffffffffffff168273ffffffffffffffffffffffffffffffffffffffff16146109105760008054906101000a900473ffffffffffffffffffffffffffffffffffffffff1673ffffffffffffffffffffffffffffffffffffffff1663f52548d483600260009054906101000a900473ffffffffffffffffffffffffffffffffffffffff1673ffffffffffffffffffffffffffffffffffffffff1663691d1c28856040518263ffffffff1660e01b81526004016107e091906114ed565b60206040518083038186803b1580156107f857600080fd5b505afa15801561080c573d6000803e3d6000fd5b505050506040513d601f19601f82011682018060405250810190610830919061151d565b6040518363ffffffff1660e01b815260040161084d92919061154a565b600060405180830381600087803b15801561086757600080fd5b505af115801561087b573d6000803e3d6000fd5b50505050600260009054906101000a900473ffffffffffffffffffffffffffffffffffffffff1673ffffffffffffffffffffffffffffffffffffffff166370d2c46b8260086040518363ffffffff1660e01b81526004016108dd9291906115c2565b600060405180830381600087803b1580156108f757600080fd5b505af115801561090b573d6000803e3d6000fd5b505050505b5050565b600360009054906101000a900473ffffffffffffffffffffffffffffffffffffffff1673ffffffffffffffffffffffffffffffffffffffff163373ffffffffffffffffffffffffffffffffffffffff16146109a4576040517f08c379a000000000000000000000000000000000000000000000000000000000815260040161099b906116f0565b60405180910390fd5b600160009054906101000a900473ffffffffffffffffffffffffffffffffffffffff1673ffffffffffffffffffffffffffffffffffffffff1663aaf837c5826040518263ffffffff1660e01b81526004016109ff91906114ed565b600060405180830381600087803b158015610a1957600080fd5b505af1158015610a2d573d6000803e3d6000fd5b5050505050565b600360009054906101000a900473ffffffffffffffffffffffffffffffffffffffff1681565b6000600360009054906101000a900473ffffffffffffffffffffffffffffffffffffffff1673ffffffffffffffffffffffffffffffffffffffff163373ffffffffffffffffffffffffffffffffffffffff1614610aec576040517f08c379a0000000000000000000000000000000000000000000000000000000008152600401610ae390611782565b60405180910390fd5b81600360006101000a81548173ffffffffffffffffffffffffffffffffffffffff021916908373ffffffffffffffffffffffffffffffffffffffff160217905550600360009054906101000a900473ffffffffffffffffffffffffffffffffffffffff1673ffffffffffffffffffffffffffffffffffffffff163373ffffffffffffffffffffffffffffffffffffffff167fdf570d582e474b2d7915b12f6f773eb74e4bc78a660caeeccf19491c8578507b60405160405180910390a360019050919050565b600360009054906101000a900473ffffffffffffffffffffffffffffffffffffffff1673ffffffffffffffffffffffffffffffffffffffff163373ffffffffffffffffffffffffffffffffffffffff1614610c42576040517f08c379a0000000000000000000000000000000000000000000000000000000008152600401610c399061131a565b60405180910390fd5b600160009054906101000a900473ffffffffffffffffffffffffffffffffffffffff1673ffffffffffffffffffffffffffffffffffffffff16637527e62486868686866004546040518763ffffffff1660e01b8152600401610ca99695949392919061147e565b600060405180830381600087803b158015610cc357600080fd5b505af1158015610cd7573d6000803e3d6000fd5b5050505060008054906101000a900473ffffffffffffffffffffffffffffffffffffffff1673ffffffffffffffffffffffffffffffffffffffff166376bd8f8c86866040518363ffffffff1660e01b8152600401610d369291906117a2565b600060405180830381600087803b158015610d5057600080fd5b505af1158015610d64573d6000803e3d6000fd5b505050505050505050565b6000604051905090565b600080fd5b600080fd5b600073ffffffffffffffffffffffffffffffffffffffff82169050919050565b6000610dae82610d83565b9050919050565b610dbe81610da3565b8114610dc957600080fd5b50565b600081359050610ddb81610db5565b92915050565b600080fd5b600080fd5b6000601f19601f8301169050919050565b7f4e487b7100000000000000000000000000000000000000000000000000000000600052604160045260246000fd5b610e3482610deb565b810181811067ffffffffffffffff82111715610e5357610e52610dfc565b5b80604052505050565b6000610e66610d6f565b9050610e728282610e2b565b919050565b600067ffffffffffffffff821115610e9257610e91610dfc565b5b610e9b82610deb565b9050602081019050919050565b82818337600083830152505050565b6000610eca610ec584610e77565b610e5c565b905082815260208101848484011115610ee657610ee5610de6565b5b610ef1848285610ea8565b509392505050565b600082601f830112610f0e57610f0d610de1565b5b8135610f1e848260208601610eb7565b91505092915050565b600067ffffffffffffffff821115610f4257610f41610dfc565b5b602082029050602081019050919050565b600080fd5b6000610f6b610f6684610f27565b610e5c565b90508083825260208201905060208402830185811115610f8e57610f8d610f53565b5b835b81811015610fb75780610fa38882610dcc565b845260208401935050602081019050610f90565b5050509392505050565b600082601f830112610fd657610fd5610de1565b5b8135610fe6848260208601610f58565b91505092915050565b6000819050919050565b61100281610fef565b811461100d57600080fd5b50565b60008135905061101f81610ff9565b92915050565b60008060008060008060c0878903121561104257611041610d79565b5b600061105089828a01610dcc565b965050602087013567ffffffffffffffff81111561107157611070610d7e565b5b61107d89828a01610ef9565b955050604087013567ffffffffffffffff81111561109e5761109d610d7e565b5b6110aa89828a01610fc1565b94505060606110bb89828a01611010565b93505060806110cc89828a01611010565b92505060a06110dd89828a01611010565b9150509295509295509295565b6000806040838503121561110157611100610d79565b5b600061110f85828601610dcc565b925050602061112085828601611010565b9150509250929050565b6000602082840312156111405761113f610d79565b5b600061114e84828501611010565b91505092915050565b61116081610da3565b82525050565b600060208201905061117b6000830184611157565b92915050565b60006020828403121561119757611196610d79565b5b60006111a584828501610dcc565b91505092915050565b60008115159050919050565b6111c3816111ae565b82525050565b60006020820190506111de60008301846111ba565b92915050565b600080600080600060a08688031215611200576111ff610d79565b5b600061120e88828901610dcc565b955050602086013567ffffffffffffffff81111561122f5761122e610d7e565b5b61123b88828901610ef9565b945050604086013567ffffffffffffffff81111561125c5761125b610d7e565b5b61126888828901610fc1565b935050606061127988828901611010565b925050608061128a88828901611010565b9150509295509295909350565b600082825260208201905092915050565b7f4572726f723a20706f73746572206d757374206265206f7065726174696e672060008201527f6163636f756e7400000000000000000000000000000000000000000000000000602082015250565b6000611304602783611297565b915061130f826112a8565b604082019050919050565b60006020820190508181036000830152611333816112f7565b9050919050565b600081519050919050565b60005b83811015611363578082015181840152602081019050611348565b83811115611372576000848401525b50505050565b60006113838261133a565b61138d8185611297565b935061139d818560208601611345565b6113a681610deb565b840191505092915050565b600081519050919050565b600082825260208201905092915050565b6000819050602082019050919050565b6113e681610da3565b82525050565b60006113f883836113dd565b60208301905092915050565b6000602082019050919050565b600061141c826113b1565b61142681856113bc565b9350611431836113cd565b8060005b8381101561146257815161144988826113ec565b975061145483611404565b925050600181019050611435565b5085935050505092915050565b61147881610fef565b82525050565b600060c0820190506114936000830189611157565b81810360208301526114a58188611378565b905081810360408301526114b98187611411565b90506114c8606083018661146f565b6114d5608083018561146f565b6114e260a083018461146f565b979650505050505050565b6000602082019050611502600083018461146f565b92915050565b60008151905061151781610db5565b92915050565b60006020828403121561153357611532610d79565b5b600061154184828501611508565b91505092915050565b600060408201905061155f6000830185611157565b61156c6020830184611157565b9392505050565b6000819050919050565b6000819050919050565b6000819050919050565b60006115ac6115a76115a284611573565b611587565b61157d565b9050919050565b6115bc81611591565b82525050565b60006040820190506115d7600083018561146f565b6115e460208301846115b3565b9392505050565b50565b60006115fb600083611297565b9150611606826115eb565b600082019050919050565b600060c0820190506116266000830188611157565b8181036020830152611637816115ee565b9050818103604083015261164b8187611411565b905061165a606083018661146f565b611667608083018561146f565b61167460a083018461146f565b9695505050505050565b7f4572726f723a206f6e6c7920696e74657266616365207369676e65722063616e60008201527f2064656c657465206d656d650000000000000000000000000000000000000000602082015250565b60006116da602c83611297565b91506116e58261167e565b604082019050919050565b60006020820190508181036000830152611709816116cd565b9050919050565b7f4572726f722c206f6e6c79206465706c6f7965722063616e207061737320696e60008201527f74657266616365207369676e657220726f6c6500000000000000000000000000602082015250565b600061176c603383611297565b915061177782611710565b604082019050919050565b6000602082019050818103600083015261179b8161175f565b9050919050565b60006040820190506117b76000830185611157565b81810360208301526117c98184611378565b9050939250505056fea2646970667358221220280bc7b5963b06b1f2478821c0f04c6b40ed30edd34253e6ae6ccd2d2afb50f464736f6c63430008090033",
  "immutableReferences": {},
  "source": "// SPDX-License-Identifier: MIT\n\npragma solidity >=0.8.0 <0.9.0;\n\nimport \"./MemeFactory.sol\";\nimport \"./MemeStorage.sol\";\nimport \"./UME.sol\";\n\ncontract Post {\n  // public variables\n  UME private umeToken;\n  MemeFactory private memeFactory;\n  MemeStorage private memeStorage;\n\n  address public interfaceSigner;\n  bytes32 zeroBytes;\n\n  event InterfaceSignerChanged(address indexed from, address indexed to);\n\n  constructor(\n    UME _umeToken,\n    MemeFactory _memeFactory,\n    MemeStorage _memeStorage\n  ) public {\n    umeToken = _umeToken;\n    memeFactory = _memeFactory;\n    memeStorage = _memeStorage;\n\n    interfaceSigner = msg.sender;\n  }\n\n  // posting meme functions\n  function newMeme(\n    address _account,\n    string memory _memeText,\n    address[] memory _tags,\n    bytes32 _parentId,\n    bytes32 _originId\n  ) public {\n    require(\n      msg.sender==interfaceSigner,\n      'Error: poster must be operating account');\n    memeFactory.newMeme(_account, _memeText, _tags, _parentId, _originId, zeroBytes);\n    umeToken.mintPost(_account, _memeText);\n  }\n\n  function rememe(\n    address _account,\n    bytes32 _repostId\n  ) public {\n    require(\n      msg.sender==interfaceSigner,\n      'Error: poster must be operating account');\n    memeFactory.newMeme(_account, '', new address[](0), zeroBytes, zeroBytes, _repostId);\n    if(_account!=memeStorage.getAuthor(_repostId)) {\n      umeToken.mintRepost(_account, memeStorage.getAuthor(_repostId));\n      memeStorage.addBoost(_repostId, 8);\n    }\n  }\n  function quoteMeme(\n    address _account,\n    string memory _memeText,\n    address[] memory _tags,\n    bytes32 _parentId,\n    bytes32 _originId,\n    bytes32 _repostId\n  ) public {\n    require(\n      msg.sender==interfaceSigner,\n      'Error: poster must be operating account');\n    memeFactory.newMeme(_account, _memeText, _tags, _parentId, _originId, _repostId);\n    if(_account!=memeStorage.getAuthor(_repostId)) {\n      umeToken.mintRepost(_account, memeStorage.getAuthor(_repostId));\n      memeStorage.addBoost(_repostId, 8);\n    }\n  }\n\n  function deleteMeme(\n    bytes32 _memeId\n  ) public {\n    require(\n      msg.sender==interfaceSigner,\n      'Error: only interface signer can delete meme');\n    memeFactory.deleteMeme(_memeId);\n  }\n\n  // set caller role to User upon deployment\n  function passInterfaceSigner(address _userInterface) public returns (bool) {\n    require(\n      msg.sender == interfaceSigner,\n      'Error, only deployer can pass interface signer role');\n    interfaceSigner = _userInterface;\n    emit InterfaceSignerChanged(msg.sender, interfaceSigner);\n    return true;\n  }\n}\n",
  "sourcePath": "/Users/jaiq/Documents/000 BLOCKCHAIN/ETH/uMe/src/contracts/Post.sol",
  "compiler": {
    "name": "solc",
    "version": "0.8.9+commit.e5eed63a.Emscripten.clang"
  },
  "schemaVersion": "3.4.3",
  "updatedAt": "2021-10-29T07:30:37.231Z",
  "devdoc": {
    "kind": "dev",
    "methods": {},
    "version": 1
  },
  "userdoc": {
    "kind": "user",
    "methods": {},
    "version": 1
  }
}