{
  "contractName": "Timeline",
  "abi": [
    {
      "inputs": [
        {
          "internalType": "contract UME",
          "name": "_umeToken",
          "type": "address"
        }
      ],
      "stateMutability": "nonpayable",
      "type": "constructor"
    },
    {
      "anonymous": false,
      "inputs": [
        {
          "indexed": false,
          "internalType": "uint256",
          "name": "memeId",
          "type": "uint256"
        },
        {
          "indexed": false,
          "internalType": "uint256",
          "name": "memeTime",
          "type": "uint256"
        },
        {
          "indexed": false,
          "internalType": "string",
          "name": "memeHash",
          "type": "string"
        },
        {
          "indexed": false,
          "internalType": "string",
          "name": "memeText",
          "type": "string"
        },
        {
          "indexed": false,
          "internalType": "address",
          "name": "author",
          "type": "address"
        }
      ],
      "name": "MemeCreated",
      "type": "event"
    },
    {
      "anonymous": false,
      "inputs": [
        {
          "indexed": false,
          "internalType": "uint256",
          "name": "memeId",
          "type": "uint256"
        },
        {
          "indexed": false,
          "internalType": "uint256",
          "name": "memeTime",
          "type": "uint256"
        },
        {
          "indexed": false,
          "internalType": "string",
          "name": "memeHash",
          "type": "string"
        },
        {
          "indexed": false,
          "internalType": "string",
          "name": "memeText",
          "type": "string"
        },
        {
          "indexed": false,
          "internalType": "address",
          "name": "author",
          "type": "address"
        }
      ],
      "name": "MemeLiked",
      "type": "event"
    },
    {
      "inputs": [],
      "name": "memeCount",
      "outputs": [
        {
          "internalType": "uint256",
          "name": "",
          "type": "uint256"
        }
      ],
      "stateMutability": "view",
      "type": "function",
      "constant": true
    },
    {
      "inputs": [
        {
          "internalType": "uint256",
          "name": "",
          "type": "uint256"
        }
      ],
      "name": "memes",
      "outputs": [
        {
          "internalType": "uint256",
          "name": "id",
          "type": "uint256"
        },
        {
          "internalType": "uint256",
          "name": "time",
          "type": "uint256"
        },
        {
          "internalType": "string",
          "name": "hash",
          "type": "string"
        },
        {
          "internalType": "string",
          "name": "text",
          "type": "string"
        },
        {
          "internalType": "uint256",
          "name": "likes",
          "type": "uint256"
        },
        {
          "internalType": "uint256",
          "name": "parentId",
          "type": "uint256"
        },
        {
          "internalType": "uint256",
          "name": "originId",
          "type": "uint256"
        },
        {
          "internalType": "address",
          "name": "author",
          "type": "address"
        }
      ],
      "stateMutability": "view",
      "type": "function",
      "constant": true
    },
    {
      "inputs": [],
      "name": "name",
      "outputs": [
        {
          "internalType": "string",
          "name": "",
          "type": "string"
        }
      ],
      "stateMutability": "view",
      "type": "function",
      "constant": true
    },
    {
      "inputs": [
        {
          "internalType": "uint256",
          "name": "",
          "type": "uint256"
        }
      ],
      "name": "users",
      "outputs": [
        {
          "internalType": "address",
          "name": "",
          "type": "address"
        }
      ],
      "stateMutability": "view",
      "type": "function",
      "constant": true
    },
    {
      "inputs": [
        {
          "internalType": "address",
          "name": "account",
          "type": "address"
        },
        {
          "internalType": "string",
          "name": "_memeHash",
          "type": "string"
        },
        {
          "internalType": "string",
          "name": "_memeText",
          "type": "string"
        },
        {
          "internalType": "address[]",
          "name": "_tags",
          "type": "address[]"
        },
        {
          "internalType": "uint256",
          "name": "_parentId",
          "type": "uint256"
        },
        {
          "internalType": "uint256",
          "name": "_originId",
          "type": "uint256"
        }
      ],
      "name": "newMeme",
      "outputs": [],
      "stateMutability": "nonpayable",
      "type": "function"
    },
    {
      "inputs": [
        {
          "internalType": "address",
          "name": "account",
          "type": "address"
        },
        {
          "internalType": "uint256",
          "name": "memeId",
          "type": "uint256"
        }
      ],
      "name": "likeMeme",
      "outputs": [],
      "stateMutability": "nonpayable",
      "type": "function"
    }
  ],
  "bytecode": "0x60806040526040518060400160405280600381526020017f754d6500000000000000000000000000000000000000000000000000000000008152506001908051906020019062000051929190620000d1565b5060006002553480156200006457600080fd5b50604051620021403803806200214083398181016040528101906200008a919062000198565b806000806101000a81548173ffffffffffffffffffffffffffffffffffffffff021916908373ffffffffffffffffffffffffffffffffffffffff1602179055505062000296565b828054620000df9062000212565b90600052602060002090601f0160209004810192826200010357600085556200014f565b82601f106200011e57805160ff19168380011785556200014f565b828001600101855582156200014f579182015b828111156200014e57825182559160200191906001019062000131565b5b5090506200015e919062000162565b5090565b5b808211156200017d57600081600090555060010162000163565b5090565b60008151905062000192816200027c565b92915050565b600060208284031215620001b157620001b062000277565b5b6000620001c18482850162000181565b91505092915050565b6000620001d782620001f2565b9050919050565b6000620001eb82620001ca565b9050919050565b600073ffffffffffffffffffffffffffffffffffffffff82169050919050565b600060028204905060018216806200022b57607f821691505b6020821081141562000242576200024162000248565b5b50919050565b7f4e487b7100000000000000000000000000000000000000000000000000000000600052602260045260246000fd5b600080fd5b6200028781620001de565b81146200029357600080fd5b50565b611e9a80620002a66000396000f3fe608060405234801561001057600080fd5b50600436106100625760003560e01c806306fdde0314610067578063365b98b214610085578063388f6064146100b55780637b2124d2146100ec5780639611dae61461010a578063c77e786e14610126575b600080fd5b61006f610142565b60405161007c9190611743565b60405180910390f35b61009f600480360381019061009a919061144b565b6101d0565b6040516100ac9190611667565b60405180910390f35b6100cf60048036038101906100ca919061144b565b610203565b6040516100e39897969594939291906118e1565b60405180910390f35b6100f461037b565b6040516101019190611865565b60405180910390f35b610124600480360381019061011f919061132a565b610381565b005b610140600480360381019061013b919061140b565b610bf5565b005b6001805461014f90611a9e565b80601f016020809104026020016040519081016040528092919081815260200182805461017b90611a9e565b80156101c85780601f1061019d576101008083540402835291602001916101c8565b820191906000526020600020905b8154815290600101906020018083116101ab57829003601f168201915b505050505081565b60046020528060005260406000206000915054906101000a900473ffffffffffffffffffffffffffffffffffffffff1681565b600360205280600052604060002060009150905080600001549080600101549080600201805461023290611a9e565b80601f016020809104026020016040519081016040528092919081815260200182805461025e90611a9e565b80156102ab5780601f10610280576101008083540402835291602001916102ab565b820191906000526020600020905b81548152906001019060200180831161028e57829003601f168201915b5050505050908060030180546102c090611a9e565b80601f01602080910402602001604051908101604052809291908181526020018280546102ec90611a9e565b80156103395780601f1061030e57610100808354040283529160200191610339565b820191906000526020600020905b81548152906001019060200180831161031c57829003601f168201915b50505050509080600401549080600801549080600901549080600a0160009054906101000a900473ffffffffffffffffffffffffffffffffffffffff16905088565b60025481565b60008551116103c5576040517f08c379a00000000000000000000000000000000000000000000000000000000081526004016103bc90611805565b60405180910390fd5b6000845111610409576040517f08c379a000000000000000000000000000000000000000000000000000000000815260040161040090611825565b60405180910390fd5b8573ffffffffffffffffffffffffffffffffffffffff163373ffffffffffffffffffffffffffffffffffffffff1614610477576040517f08c379a000000000000000000000000000000000000000000000000000000000815260040161046e90611845565b60405180910390fd5b600073ffffffffffffffffffffffffffffffffffffffff163373ffffffffffffffffffffffffffffffffffffffff1614156104e7576040517f08c379a00000000000000000000000000000000000000000000000000000000081526004016104de906117c5565b60405180910390fd5b600260008154809291906104fa90611b01565b9190505550600082141561050e5760025491505b600081141561051c57600090505b3360046000600254815260200190815260200160002060006101000a81548173ffffffffffffffffffffffffffffffffffffffff021916908373ffffffffffffffffffffffffffffffffffffffff160217905550604051806101600160405280600254815260200142815260200186815260200185815260200160008152602001600067ffffffffffffffff8111156105b8576105b7611bd7565b5b6040519080825280602002602001820160405280156105e65781602001602082028036833780820191505090505b508152602001848152602001600067ffffffffffffffff81111561060d5761060c611bd7565b5b60405190808252806020026020018201604052801561063b5781602001602082028036833780820191505090505b5081526020018381526020018281526020013373ffffffffffffffffffffffffffffffffffffffff16815250600360006002548152602001908152602001600020600082015181600001556020820151816001015560408201518160020190805190602001906106ac929190611078565b5060608201518160030190805190602001906106c9929190611078565b506080820151816004015560a08201518160050190805190602001906106f09291906110fe565b5060c082015181600601908051906020019061070d9291906110fe565b5060e082015181600701908051906020019061072a929190611188565b506101008201518160080155610120820151816009015561014082015181600a0160006101000a81548173ffffffffffffffffffffffffffffffffffffffff021916908373ffffffffffffffffffffffffffffffffffffffff160217905550905050816002541415801561079d57508082145b156108695760008054906101000a900473ffffffffffffffffffffffffffffffffffffffff1673ffffffffffffffffffffffffffffffffffffffff1663aa78f03a876004600086815260200190815260200160002060009054906101000a900473ffffffffffffffffffffffffffffffffffffffff16886040518463ffffffff1660e01b815260040161083293929190611682565b600060405180830381600087803b15801561084c57600080fd5b505af1158015610860573d6000803e3d6000fd5b50505050610a06565b816002541415801561087b5750808214155b15610a055760008054906101000a900473ffffffffffffffffffffffffffffffffffffffff1673ffffffffffffffffffffffffffffffffffffffff1663aa78f03a876004600086815260200190815260200160002060009054906101000a900473ffffffffffffffffffffffffffffffffffffffff16886040518463ffffffff1660e01b815260040161091093929190611682565b600060405180830381600087803b15801561092a57600080fd5b505af115801561093e573d6000803e3d6000fd5b5050505060008054906101000a900473ffffffffffffffffffffffffffffffffffffffff1673ffffffffffffffffffffffffffffffffffffffff16634b027fd9876004600085815260200190815260200160002060009054906101000a900473ffffffffffffffffffffffffffffffffffffffff16886040518463ffffffff1660e01b81526004016109d293929190611682565b600060405180830381600087803b1580156109ec57600080fd5b505af1158015610a00573d6000803e3d6000fd5b505050505b5b60008054906101000a900473ffffffffffffffffffffffffffffffffffffffff1673ffffffffffffffffffffffffffffffffffffffff1663639bee548787876040518463ffffffff1660e01b8152600401610a63939291906116fe565b600060405180830381600087803b158015610a7d57600080fd5b505af1158015610a91573d6000803e3d6000fd5b5050505060005b8351811015610bab57838181518110610ab457610ab3611ba8565b5b602002602001015173ffffffffffffffffffffffffffffffffffffffff168773ffffffffffffffffffffffffffffffffffffffff1614610b985760008054906101000a900473ffffffffffffffffffffffffffffffffffffffff1673ffffffffffffffffffffffffffffffffffffffff1663a272624a88868481518110610b3e57610b3d611ba8565b5b6020026020010151896040518463ffffffff1660e01b8152600401610b6593929190611682565b600060405180830381600087803b158015610b7f57600080fd5b505af1158015610b93573d6000803e3d6000fd5b505050505b8080610ba390611b01565b915050610a98565b507f3ee879e5072fac281fced94163a24d92830f9695a78d619ea116269a9396202e60025442878733604051610be5959493929190611880565b60405180910390a1505050505050565b6004600082815260200190815260200160002060009054906101000a900473ffffffffffffffffffffffffffffffffffffffff1673ffffffffffffffffffffffffffffffffffffffff168273ffffffffffffffffffffffffffffffffffffffff161415610c97576040517f08c379a0000000000000000000000000000000000000000000000000000000008152600401610c8e90611785565b60405180910390fd5b3373ffffffffffffffffffffffffffffffffffffffff168273ffffffffffffffffffffffffffffffffffffffff1614610d05576040517f08c379a0000000000000000000000000000000000000000000000000000000008152600401610cfc906117a5565b60405180910390fd5b600073ffffffffffffffffffffffffffffffffffffffff166004600083815260200190815260200160002060009054906101000a900473ffffffffffffffffffffffffffffffffffffffff1673ffffffffffffffffffffffffffffffffffffffff161415610da8576040517f08c379a0000000000000000000000000000000000000000000000000000000008152600401610d9f906117e5565b60405180910390fd5b600060036000838152602001908152602001600020600101541415610e02576040517f08c379a0000000000000000000000000000000000000000000000000000000008152600401610df9906117e5565b60405180910390fd5b60005b6003600083815260200190815260200160002060050180549050811015610ef957600360008381526020019081526020016000206005018181548110610e4e57610e4d611ba8565b5b9060005260206000200160009054906101000a900473ffffffffffffffffffffffffffffffffffffffff1673ffffffffffffffffffffffffffffffffffffffff168373ffffffffffffffffffffffffffffffffffffffff1614610ee6576040517f08c379a0000000000000000000000000000000000000000000000000000000008152600401610edd90611765565b60405180910390fd5b8080610ef190611b01565b915050610e05565b50600360008281526020019081526020016000206004016000815480929190610f2190611b01565b919050555060036000828152602001908152602001600020600501339080600181540180825580915050600190039060005260206000200160009091909190916101000a81548173ffffffffffffffffffffffffffffffffffffffff021916908373ffffffffffffffffffffffffffffffffffffffff16021790555060008054906101000a900473ffffffffffffffffffffffffffffffffffffffff1673ffffffffffffffffffffffffffffffffffffffff1663e96428a7336004600085815260200190815260200160002060009054906101000a900473ffffffffffffffffffffffffffffffffffffffff16600360008681526020019081526020016000206002016040518463ffffffff1660e01b8152600401611042939291906116c0565b600060405180830381600087803b15801561105c57600080fd5b505af1158015611070573d6000803e3d6000fd5b505050505050565b82805461108490611a9e565b90600052602060002090601f0160209004810192826110a657600085556110ed565b82601f106110bf57805160ff19168380011785556110ed565b828001600101855582156110ed579182015b828111156110ec5782518255916020019190600101906110d1565b5b5090506110fa91906111d5565b5090565b828054828255906000526020600020908101928215611177579160200282015b828111156111765782518260006101000a81548173ffffffffffffffffffffffffffffffffffffffff021916908373ffffffffffffffffffffffffffffffffffffffff1602179055509160200191906001019061111e565b5b50905061118491906111d5565b5090565b8280548282559060005260206000209081019282156111c4579160200282015b828111156111c35782518255916020019190600101906111a8565b5b5090506111d191906111d5565b5090565b5b808211156111ee5760008160009055506001016111d6565b5090565b600061120561120084611992565b61196d565b9050808382526020820190508285602086028201111561122857611227611c0b565b5b60005b85811015611258578161123e88826112a4565b84526020840193506020830192505060018101905061122b565b5050509392505050565b6000611275611270846119be565b61196d565b90508281526020810184848401111561129157611290611c10565b5b61129c848285611a5c565b509392505050565b6000813590506112b381611e36565b92915050565b600082601f8301126112ce576112cd611c06565b5b81356112de8482602086016111f2565b91505092915050565b600082601f8301126112fc576112fb611c06565b5b813561130c848260208601611262565b91505092915050565b60008135905061132481611e4d565b92915050565b60008060008060008060c0878903121561134757611346611c1a565b5b600061135589828a016112a4565b965050602087013567ffffffffffffffff81111561137657611375611c15565b5b61138289828a016112e7565b955050604087013567ffffffffffffffff8111156113a3576113a2611c15565b5b6113af89828a016112e7565b945050606087013567ffffffffffffffff8111156113d0576113cf611c15565b5b6113dc89828a016112b9565b93505060806113ed89828a01611315565b92505060a06113fe89828a01611315565b9150509295509295509295565b6000806040838503121561142257611421611c1a565b5b6000611430858286016112a4565b925050602061144185828601611315565b9150509250929050565b60006020828403121561146157611460611c1a565b5b600061146f84828501611315565b91505092915050565b61148181611a20565b82525050565b600061149282611a04565b61149c8185611a0f565b93506114ac818560208601611a6b565b6114b581611c1f565b840191505092915050565b600081546114cd81611a9e565b6114d78186611a0f565b945060018216600081146114f2576001811461150457611537565b60ff1983168652602086019350611537565b61150d856119ef565b60005b8381101561152f57815481890152600182019150602081019050611510565b808801955050505b50505092915050565b600061154d602683611a0f565b915061155882611c30565b604082019050919050565b6000611570602183611a0f565b915061157b82611c7f565b604082019050919050565b6000611593602683611a0f565b915061159e82611cce565b604082019050919050565b60006115b6602383611a0f565b91506115c182611d1d565b604082019050919050565b60006115d9601683611a0f565b91506115e482611d6c565b602082019050919050565b60006115fc601e83611a0f565b915061160782611d95565b602082019050919050565b600061161f601e83611a0f565b915061162a82611dbe565b602082019050919050565b6000611642602783611a0f565b915061164d82611de7565b604082019050919050565b61166181611a52565b82525050565b600060208201905061167c6000830184611478565b92915050565b60006060820190506116976000830186611478565b6116a46020830185611478565b81810360408301526116b68184611487565b9050949350505050565b60006060820190506116d56000830186611478565b6116e26020830185611478565b81810360408301526116f481846114c0565b9050949350505050565b60006060820190506117136000830186611478565b81810360208301526117258185611487565b905081810360408301526117398184611487565b9050949350505050565b6000602082019050818103600083015261175d8184611487565b905092915050565b6000602082019050818103600083015261177e81611540565b9050919050565b6000602082019050818103600083015261179e81611563565b9050919050565b600060208201905081810360008301526117be81611586565b9050919050565b600060208201905081810360008301526117de816115a9565b9050919050565b600060208201905081810360008301526117fe816115cc565b9050919050565b6000602082019050818103600083015261181e816115ef565b9050919050565b6000602082019050818103600083015261183e81611612565b9050919050565b6000602082019050818103600083015261185e81611635565b9050919050565b600060208201905061187a6000830184611658565b92915050565b600060a0820190506118956000830188611658565b6118a26020830187611658565b81810360408301526118b48186611487565b905081810360608301526118c88185611487565b90506118d76080830184611478565b9695505050505050565b6000610100820190506118f7600083018b611658565b611904602083018a611658565b81810360408301526119168189611487565b9050818103606083015261192a8188611487565b90506119396080830187611658565b61194660a0830186611658565b61195360c0830185611658565b61196060e0830184611478565b9998505050505050505050565b6000611977611988565b90506119838282611ad0565b919050565b6000604051905090565b600067ffffffffffffffff8211156119ad576119ac611bd7565b5b602082029050602081019050919050565b600067ffffffffffffffff8211156119d9576119d8611bd7565b5b6119e282611c1f565b9050602081019050919050565b60008190508160005260206000209050919050565b600081519050919050565b600082825260208201905092915050565b6000611a2b82611a32565b9050919050565b600073ffffffffffffffffffffffffffffffffffffffff82169050919050565b6000819050919050565b82818337600083830152505050565b60005b83811015611a89578082015181840152602081019050611a6e565b83811115611a98576000848401525b50505050565b60006002820490506001821680611ab657607f821691505b60208210811415611aca57611ac9611b79565b5b50919050565b611ad982611c1f565b810181811067ffffffffffffffff82111715611af857611af7611bd7565b5b80604052505050565b6000611b0c82611a52565b91507fffffffffffffffffffffffffffffffffffffffffffffffffffffffffffffffff821415611b3f57611b3e611b4a565b5b600182019050919050565b7f4e487b7100000000000000000000000000000000000000000000000000000000600052601160045260246000fd5b7f4e487b7100000000000000000000000000000000000000000000000000000000600052602260045260246000fd5b7f4e487b7100000000000000000000000000000000000000000000000000000000600052603260045260246000fd5b7f4e487b7100000000000000000000000000000000000000000000000000000000600052604160045260246000fd5b600080fd5b600080fd5b600080fd5b600080fd5b600080fd5b6000601f19601f8301169050919050565b7f4572726f723a206c696b65722068617320616c7265616479206c696b6564206160008201527f63636f756e740000000000000000000000000000000000000000000000000000602082015250565b7f4572726f723a2063616e6e6f74206c696b65206f6e652773206f776e206d656d60008201527f6500000000000000000000000000000000000000000000000000000000000000602082015250565b7f4572726f723a206c696b6572206d757374206265206f7065726174696e67206160008201527f63636f756e740000000000000000000000000000000000000000000000000000602082015250565b7f4572726f723a20617574686f72206164647265737320646f65736e277420657860008201527f6973740000000000000000000000000000000000000000000000000000000000602082015250565b7f4572726f723a204d656d65206d75737420657869737400000000000000000000600082015250565b7f4572726f723a206d656d65206861736820646f65736e27742065786973740000600082015250565b7f4572726f723a206d656d65207465787420646f65736e27742065786973740000600082015250565b7f4572726f723a20706f73746572206d757374206265206f7065726174696e672060008201527f6163636f756e7400000000000000000000000000000000000000000000000000602082015250565b611e3f81611a20565b8114611e4a57600080fd5b50565b611e5681611a52565b8114611e6157600080fd5b5056fea2646970667358221220e475b53d8d60abf02970401433627bf55b4091034fea398f9cfcff22b4dec21064736f6c63430008070033",
  "immutableReferences": {},
  "source": "// SPDX-License-Identifier: MIT\n\npragma solidity >=0.8.0 <0.9.0;\n\nimport \"./UME.sol\";\n\ncontract Timeline {\n  // public variables\n  UME private umeToken;\n  // app name\n  string public name = \"uMe\";\n  uint public memeCount = 0;\n\n\n  // mapping of Memes\n  mapping(uint => Meme) public memes; // memeId to meme map\n  /*\n  mapping(uint => uint) public memeCreation; // memeId to meme creation time\n  mapping(uint => string) public memeHashes; // memeId to memeHash\n  mapping(uint => string) public memeTexts; // memeId to memeText\n  mapping(uint => uint) public memeLikes; // memeId to like count\n  mapping(uint => uint[]) public memeLikers; // memeId to likers\n  mapping(uint => uint[]) public memeTags; // memeId to tagged, input needs to be parsed before\n  mapping(uint => uint[]) public memeResponses; // memeId to response id's\n  */\n  mapping(uint => address) public users; // memeId to user addresses\n\n  // Meme structure\n  struct Meme {\n    uint id; // number in all of timeline\n    uint time; // time of post\n    string hash; // hash of Meme\n    string text; // test of Meme\n    uint likes; // number of likes on Meme\n    address[] likers; // list of addresses of likers\n    address[] tags; // list of id's of tagged\n    uint[] responses; // collection of id's of responses\n    uint parentId; // memeId of parent (can be self)\n    uint originId; // memeId of origin (can be self)\n    address author; // address of author\n    //bool hasLink // if Meme has link\n    //bool hasMedia; // if Meme has media\n    //string mediaHash; // address of media\n  }\n\n  event MemeCreated(\n    uint memeId,\n    uint memeTime,\n    string memeHash,\n    string memeText,\n    address author\n  );\n  event MemeLiked(\n    uint memeId,\n    uint memeTime,\n    string memeHash,\n    string memeText,\n    address author\n  );\n\n/*\n  struct Engagements {\n  // engagements to mint from\n    uint amtPosted;\n    uint amtLiked;\n    uint amtTagged;\n    uint amtFollowed;\n    uint amtResponded;\n    uint amtCurated;\n    uint amtJuried;\n  }\n*/\n  constructor(UME _umeToken) public {\n    umeToken = _umeToken;\n  }\n\n  function newMeme(address account, string memory _memeHash, string memory _memeText, address[] memory _tags, uint _parentId, uint _originId) public {\n    require(bytes(_memeHash).length > 0, 'Error: meme hash doesn\\'t exist');\n    require(bytes(_memeText).length > 0, 'Error: meme text doesn\\'t exist');\n    require(msg.sender==account, 'Error: poster must be operating account');\n    require(msg.sender != address(0x0), 'Error: author address doesn\\'t exist');\n\n    memeCount++; // increment meme id\n    if (_parentId == 0) {\n      _parentId = memeCount;\n    }\n    if (_originId == 0) {\n      _originId = 0;\n    }\n    //memeTime[memeCount] = block.timestamp; // set creation time\n    //memeHashes[memeCount] = _memeHash; // set meme hash\n    //memeTexts[memeCount] = _memeText; // set meme text\n    //memeLikes[memeCount] = 0;\n    //memeLikers[memeCount] = []; // set likers to default\n    //memeTagged[memeCount] = tags; // set tagged to tags\n    //memeResponses[memeCount] = []; // set responses to default\n\n    users[memeCount] = msg.sender; // set meme to user address\n    // map memeId to meme (if parent & origin)\n    memes[memeCount] = Meme(\n      memeCount, // meme id\n      block.timestamp, // meme time\n      _memeHash, // meme hash\n      _memeText, // meme text\n      0, // like count\n      new address[](0), // likers\n      _tags, // tagged\n      new uint[](0), // response array\n      _parentId, // parent\n      _originId, // origin\n      msg.sender // author\n    );\n    // if responding to a single post, then mint respond token\n    if(memeCount!=_parentId && _parentId==_originId) {\n      umeToken.mintRespond(account, users[_parentId], _memeHash);\n    } // if responding to a thread, mint respond token for parent, curate token for original\n    else if(memeCount!=_parentId && _parentId!=_originId) {\n      umeToken.mintRespond(account, users[_parentId], _memeHash);\n      umeToken.mintCurate(account, users[_originId], _memeHash);\n    }\n    // mint post token\n    umeToken.mintPost(account, _memeHash, _memeText);\n\n    // mint tags\n    for(uint i = 0; i < _tags.length; i++) {\n      if(account!=_tags[i]){\n        umeToken.mintTag(account, _tags[i], _memeHash);\n      }\n    }\n\n    emit MemeCreated(memeCount, block.timestamp, _memeHash, _memeText, msg.sender);\n  }\n\n  function likeMeme(address account, uint memeId) public {\n    require(account!=users[memeId], 'Error: cannot like one\\'s own meme');\n    require(account==msg.sender, 'Error: liker must be operating account');\n    require(users[memeId]!=address(0x0), 'Error: Meme must exist');\n    require(memes[memeId].time!=0, 'Error: Meme must exist');\n    // check if account has already liked meme\n    for(uint i = 0; i < memes[memeId].likers.length; i++) {\n      require(account==memes[memeId].likers[i], 'Error: liker has already liked account');\n    }\n    // fetch meme from blockchain\n\n    //Meme memory _meme = memes[memeId];\n    //if(_meme.likes==0) {\n      //_meme.likers = new address[](0);\n    //}\n/*\n    Meme memory _meme = Meme(\n      memes[memeId].id, // meme id\n      memes[memeId].time, // meme time\n      memes[memeId].hash, // meme hash\n      memes[memeId].text, // meme text\n      memes[memeId].likes, // like count\n      new address[](0), // likers\n      memes[memeId].tags, // tagged\n      memes[memeId].responses, // response array\n      memes[memeId].parentId, // parent\n      memes[memeId].originId, // origin\n      memes[memeId].author// author\n    );\n*/\n    // increment like count of particular image\n    //likeCount[memeId]++;\n    //memeLikers[memeId].push(msg.sender);\n    memes[memeId].likes++;\n    memes[memeId].likers.push(msg.sender);\n    //memes[memeId] = _meme;\n\n    // mint like token\n    umeToken.mintLike(msg.sender, users[memeId], memes[memeId].hash);\n  }\n}\n",
  "sourcePath": "/Users/jaiq/Documents/000 BLOCKCHAIN/ETH/uMe/src/contracts/Timeline.sol",
  "compiler": {
    "name": "solc",
    "version": "0.8.7+commit.e28d00a7.Emscripten.clang"
  },
  "schemaVersion": "3.4.3",
  "updatedAt": "2021-08-20T06:00:14.952Z",
  "networkType": "ethereum",
  "devdoc": {
    "kind": "dev",
    "methods": {},
    "version": 1
  },
  "userdoc": {
    "kind": "user",
    "methods": {},
    "version": 1
  }
}