{
  "contractName": "Timeline",
  "abi": [
    {
      "inputs": [
        {
          "internalType": "contract UME",
          "name": "_umeToken",
          "type": "address"
        }
      ],
      "stateMutability": "nonpayable",
      "type": "constructor"
    },
    {
      "anonymous": false,
      "inputs": [
        {
          "indexed": false,
          "internalType": "uint256",
          "name": "memeId",
          "type": "uint256"
        },
        {
          "indexed": false,
          "internalType": "uint256",
          "name": "memeTime",
          "type": "uint256"
        },
        {
          "indexed": false,
          "internalType": "string",
          "name": "memeHash",
          "type": "string"
        },
        {
          "indexed": false,
          "internalType": "string",
          "name": "memeText",
          "type": "string"
        },
        {
          "indexed": false,
          "internalType": "address",
          "name": "author",
          "type": "address"
        }
      ],
      "name": "MemeCreated",
      "type": "event"
    },
    {
      "anonymous": false,
      "inputs": [
        {
          "indexed": false,
          "internalType": "uint256",
          "name": "memeId",
          "type": "uint256"
        },
        {
          "indexed": false,
          "internalType": "uint256",
          "name": "memeTime",
          "type": "uint256"
        },
        {
          "indexed": false,
          "internalType": "string",
          "name": "memeHash",
          "type": "string"
        },
        {
          "indexed": false,
          "internalType": "string",
          "name": "memeText",
          "type": "string"
        },
        {
          "indexed": false,
          "internalType": "address",
          "name": "author",
          "type": "address"
        }
      ],
      "name": "MemeLiked",
      "type": "event"
    },
    {
      "inputs": [],
      "name": "memeCount",
      "outputs": [
        {
          "internalType": "uint256",
          "name": "",
          "type": "uint256"
        }
      ],
      "stateMutability": "view",
      "type": "function",
      "constant": true
    },
    {
      "inputs": [
        {
          "internalType": "uint256",
          "name": "",
          "type": "uint256"
        }
      ],
      "name": "memes",
      "outputs": [
        {
          "internalType": "uint256",
          "name": "id",
          "type": "uint256"
        },
        {
          "internalType": "uint256",
          "name": "time",
          "type": "uint256"
        },
        {
          "internalType": "string",
          "name": "hash",
          "type": "string"
        },
        {
          "internalType": "string",
          "name": "text",
          "type": "string"
        },
        {
          "internalType": "uint256",
          "name": "likes",
          "type": "uint256"
        },
        {
          "internalType": "uint256",
          "name": "parentId",
          "type": "uint256"
        },
        {
          "internalType": "uint256",
          "name": "originId",
          "type": "uint256"
        },
        {
          "internalType": "address",
          "name": "author",
          "type": "address"
        }
      ],
      "stateMutability": "view",
      "type": "function",
      "constant": true
    },
    {
      "inputs": [],
      "name": "name",
      "outputs": [
        {
          "internalType": "string",
          "name": "",
          "type": "string"
        }
      ],
      "stateMutability": "view",
      "type": "function",
      "constant": true
    },
    {
      "inputs": [
        {
          "internalType": "uint256",
          "name": "",
          "type": "uint256"
        }
      ],
      "name": "users",
      "outputs": [
        {
          "internalType": "address",
          "name": "",
          "type": "address"
        }
      ],
      "stateMutability": "view",
      "type": "function",
      "constant": true
    },
    {
      "inputs": [
        {
          "internalType": "address",
          "name": "account",
          "type": "address"
        },
        {
          "internalType": "string",
          "name": "_memeHash",
          "type": "string"
        },
        {
          "internalType": "string",
          "name": "_memeText",
          "type": "string"
        },
        {
          "internalType": "uint256[]",
          "name": "_tags",
          "type": "uint256[]"
        },
        {
          "internalType": "uint256",
          "name": "_parentId",
          "type": "uint256"
        },
        {
          "internalType": "uint256",
          "name": "_originId",
          "type": "uint256"
        }
      ],
      "name": "newMeme",
      "outputs": [],
      "stateMutability": "nonpayable",
      "type": "function"
    },
    {
      "inputs": [
        {
          "internalType": "address",
          "name": "account",
          "type": "address"
        },
        {
          "internalType": "uint256",
          "name": "memeId",
          "type": "uint256"
        }
      ],
      "name": "likeMeme",
      "outputs": [],
      "stateMutability": "nonpayable",
      "type": "function"
    }
  ],
  "bytecode": "0x60806040526040518060400160405280600381526020017f754d6500000000000000000000000000000000000000000000000000000000008152506001908051906020019062000051929190620000d1565b5060006002553480156200006457600080fd5b5060405162001e7238038062001e7283398181016040528101906200008a919062000198565b806000806101000a81548173ffffffffffffffffffffffffffffffffffffffff021916908373ffffffffffffffffffffffffffffffffffffffff1602179055505062000296565b828054620000df9062000212565b90600052602060002090601f0160209004810192826200010357600085556200014f565b82601f106200011e57805160ff19168380011785556200014f565b828001600101855582156200014f579182015b828111156200014e57825182559160200191906001019062000131565b5b5090506200015e919062000162565b5090565b5b808211156200017d57600081600090555060010162000163565b5090565b60008151905062000192816200027c565b92915050565b600060208284031215620001b157620001b062000277565b5b6000620001c18482850162000181565b91505092915050565b6000620001d782620001f2565b9050919050565b6000620001eb82620001ca565b9050919050565b600073ffffffffffffffffffffffffffffffffffffffff82169050919050565b600060028204905060018216806200022b57607f821691505b6020821081141562000242576200024162000248565b5b50919050565b7f4e487b7100000000000000000000000000000000000000000000000000000000600052602260045260246000fd5b600080fd5b6200028781620001de565b81146200029357600080fd5b50565b611bcc80620002a66000396000f3fe608060405234801561001057600080fd5b50600436106100625760003560e01c806306fdde0314610067578063365b98b214610085578063388f6064146100b55780637b2124d2146100ec5780639de5fbb51461010a578063c77e786e14610126575b600080fd5b61006f610142565b60405161007c9190611513565b60405180910390f35b61009f600480360381019061009a919061123e565b6101d0565b6040516100ac9190611437565b60405180910390f35b6100cf60048036038101906100ca919061123e565b610203565b6040516100e3989796959493929190611691565b60405180910390f35b6100f461037b565b6040516101019190611615565b60405180910390f35b610124600480360381019061011f919061111d565b610381565b005b610140600480360381019061013b91906111fe565b610ae1565b005b6001805461014f9061184e565b80601f016020809104026020016040519081016040528092919081815260200182805461017b9061184e565b80156101c85780601f1061019d576101008083540402835291602001916101c8565b820191906000526020600020905b8154815290600101906020018083116101ab57829003601f168201915b505050505081565b60046020528060005260406000206000915054906101000a900473ffffffffffffffffffffffffffffffffffffffff1681565b60036020528060005260406000206000915090508060000154908060010154908060020180546102329061184e565b80601f016020809104026020016040519081016040528092919081815260200182805461025e9061184e565b80156102ab5780601f10610280576101008083540402835291602001916102ab565b820191906000526020600020905b81548152906001019060200180831161028e57829003601f168201915b5050505050908060030180546102c09061184e565b80601f01602080910402602001604051908101604052809291908181526020018280546102ec9061184e565b80156103395780601f1061030e57610100808354040283529160200191610339565b820191906000526020600020905b81548152906001019060200180831161031c57829003601f168201915b50505050509080600401549080600801549080600901549080600a0160009054906101000a900473ffffffffffffffffffffffffffffffffffffffff16905088565b60025481565b60008551116103c5576040517f08c379a00000000000000000000000000000000000000000000000000000000081526004016103bc906115b5565b60405180910390fd5b6000845111610409576040517f08c379a0000000000000000000000000000000000000000000000000000000008152600401610400906115d5565b60405180910390fd5b8573ffffffffffffffffffffffffffffffffffffffff163373ffffffffffffffffffffffffffffffffffffffff1614610477576040517f08c379a000000000000000000000000000000000000000000000000000000000815260040161046e906115f5565b60405180910390fd5b600073ffffffffffffffffffffffffffffffffffffffff163373ffffffffffffffffffffffffffffffffffffffff1614156104e7576040517f08c379a00000000000000000000000000000000000000000000000000000000081526004016104de90611575565b60405180910390fd5b600260008154809291906104fa906118b1565b91905055503360046000600254815260200190815260200160002060006101000a81548173ffffffffffffffffffffffffffffffffffffffff021916908373ffffffffffffffffffffffffffffffffffffffff160217905550604051806101600160405280600254815260200142815260200186815260200185815260200160008152602001600067ffffffffffffffff81111561059b5761059a611958565b5b6040519080825280602002602001820160405280156105c95781602001602082028036833780820191505090505b508152602001848152602001600067ffffffffffffffff8111156105f0576105ef611958565b5b60405190808252806020026020018201604052801561061e5781602001602082028036833780820191505090505b5081526020018381526020018281526020013373ffffffffffffffffffffffffffffffffffffffff168152506003600060025481526020019081526020016000206000820151816000015560208201518160010155604082015181600201908051906020019061068f929190610e6b565b5060608201518160030190805190602001906106ac929190610e6b565b506080820151816004015560a08201518160050190805190602001906106d3929190610ef1565b5060c08201518160060190805190602001906106f0929190610f7b565b5060e082015181600701908051906020019061070d929190610f7b565b506101008201518160080155610120820151816009015561014082015181600a0160006101000a81548173ffffffffffffffffffffffffffffffffffffffff021916908373ffffffffffffffffffffffffffffffffffffffff160217905550905050816002541415801561078057508082145b1561084c5760008054906101000a900473ffffffffffffffffffffffffffffffffffffffff1673ffffffffffffffffffffffffffffffffffffffff1663aa78f03a876004600086815260200190815260200160002060009054906101000a900473ffffffffffffffffffffffffffffffffffffffff16886040518463ffffffff1660e01b815260040161081593929190611452565b600060405180830381600087803b15801561082f57600080fd5b505af1158015610843573d6000803e3d6000fd5b505050506109e9565b816002541415801561085e5750808214155b156109e85760008054906101000a900473ffffffffffffffffffffffffffffffffffffffff1673ffffffffffffffffffffffffffffffffffffffff1663aa78f03a876004600086815260200190815260200160002060009054906101000a900473ffffffffffffffffffffffffffffffffffffffff16886040518463ffffffff1660e01b81526004016108f393929190611452565b600060405180830381600087803b15801561090d57600080fd5b505af1158015610921573d6000803e3d6000fd5b5050505060008054906101000a900473ffffffffffffffffffffffffffffffffffffffff1673ffffffffffffffffffffffffffffffffffffffff16634b027fd9876004600085815260200190815260200160002060009054906101000a900473ffffffffffffffffffffffffffffffffffffffff16886040518463ffffffff1660e01b81526004016109b593929190611452565b600060405180830381600087803b1580156109cf57600080fd5b505af11580156109e3573d6000803e3d6000fd5b505050505b5b60008054906101000a900473ffffffffffffffffffffffffffffffffffffffff1673ffffffffffffffffffffffffffffffffffffffff1663639bee548787876040518463ffffffff1660e01b8152600401610a46939291906114ce565b600060405180830381600087803b158015610a6057600080fd5b505af1158015610a74573d6000803e3d6000fd5b5050505060005b8351811015610a97578080610a8f906118b1565b915050610a7b565b507f3ee879e5072fac281fced94163a24d92830f9695a78d619ea116269a9396202e60025442878733604051610ad1959493929190611630565b60405180910390a1505050505050565b6004600082815260200190815260200160002060009054906101000a900473ffffffffffffffffffffffffffffffffffffffff1673ffffffffffffffffffffffffffffffffffffffff168273ffffffffffffffffffffffffffffffffffffffff161415610b83576040517f08c379a0000000000000000000000000000000000000000000000000000000008152600401610b7a90611535565b60405180910390fd5b3373ffffffffffffffffffffffffffffffffffffffff168273ffffffffffffffffffffffffffffffffffffffff1614610bf1576040517f08c379a0000000000000000000000000000000000000000000000000000000008152600401610be890611555565b60405180910390fd5b600073ffffffffffffffffffffffffffffffffffffffff166004600083815260200190815260200160002060009054906101000a900473ffffffffffffffffffffffffffffffffffffffff1673ffffffffffffffffffffffffffffffffffffffff161415610c94576040517f08c379a0000000000000000000000000000000000000000000000000000000008152600401610c8b90611595565b60405180910390fd5b6000600360008381526020019081526020016000206001015414610ced576040517f08c379a0000000000000000000000000000000000000000000000000000000008152600401610ce490611595565b60405180910390fd5b600360008281526020019081526020016000206004016000815480929190610d14906118b1565b919050555060036000828152602001908152602001600020600501339080600181540180825580915050600190039060005260206000200160009091909190916101000a81548173ffffffffffffffffffffffffffffffffffffffff021916908373ffffffffffffffffffffffffffffffffffffffff16021790555060008054906101000a900473ffffffffffffffffffffffffffffffffffffffff1673ffffffffffffffffffffffffffffffffffffffff1663e96428a7336004600085815260200190815260200160002060009054906101000a900473ffffffffffffffffffffffffffffffffffffffff16600360008681526020019081526020016000206002016040518463ffffffff1660e01b8152600401610e3593929190611490565b600060405180830381600087803b158015610e4f57600080fd5b505af1158015610e63573d6000803e3d6000fd5b505050505050565b828054610e779061184e565b90600052602060002090601f016020900481019282610e995760008555610ee0565b82601f10610eb257805160ff1916838001178555610ee0565b82800160010185558215610ee0579182015b82811115610edf578251825591602001919060010190610ec4565b5b509050610eed9190610fc8565b5090565b828054828255906000526020600020908101928215610f6a579160200282015b82811115610f695782518260006101000a81548173ffffffffffffffffffffffffffffffffffffffff021916908373ffffffffffffffffffffffffffffffffffffffff16021790555091602001919060010190610f11565b5b509050610f779190610fc8565b5090565b828054828255906000526020600020908101928215610fb7579160200282015b82811115610fb6578251825591602001919060010190610f9b565b5b509050610fc49190610fc8565b5090565b5b80821115610fe1576000816000905550600101610fc9565b5090565b6000610ff8610ff384611742565b61171d565b9050808382526020820190508285602086028201111561101b5761101a61198c565b5b60005b8581101561104b57816110318882611108565b84526020840193506020830192505060018101905061101e565b5050509392505050565b60006110686110638461176e565b61171d565b90508281526020810184848401111561108457611083611991565b5b61108f84828561180c565b509392505050565b6000813590506110a681611b68565b92915050565b600082601f8301126110c1576110c0611987565b5b81356110d1848260208601610fe5565b91505092915050565b600082601f8301126110ef576110ee611987565b5b81356110ff848260208601611055565b91505092915050565b60008135905061111781611b7f565b92915050565b60008060008060008060c0878903121561113a5761113961199b565b5b600061114889828a01611097565b965050602087013567ffffffffffffffff81111561116957611168611996565b5b61117589828a016110da565b955050604087013567ffffffffffffffff81111561119657611195611996565b5b6111a289828a016110da565b945050606087013567ffffffffffffffff8111156111c3576111c2611996565b5b6111cf89828a016110ac565b93505060806111e089828a01611108565b92505060a06111f189828a01611108565b9150509295509295509295565b600080604083850312156112155761121461199b565b5b600061122385828601611097565b925050602061123485828601611108565b9150509250929050565b6000602082840312156112545761125361199b565b5b600061126284828501611108565b91505092915050565b611274816117d0565b82525050565b6000611285826117b4565b61128f81856117bf565b935061129f81856020860161181b565b6112a8816119a0565b840191505092915050565b600081546112c08161184e565b6112ca81866117bf565b945060018216600081146112e557600181146112f75761132a565b60ff198316865260208601935061132a565b6113008561179f565b60005b8381101561132257815481890152600182019150602081019050611303565b808801955050505b50505092915050565b60006113406021836117bf565b915061134b826119b1565b604082019050919050565b60006113636026836117bf565b915061136e82611a00565b604082019050919050565b60006113866023836117bf565b915061139182611a4f565b604082019050919050565b60006113a96016836117bf565b91506113b482611a9e565b602082019050919050565b60006113cc601e836117bf565b91506113d782611ac7565b602082019050919050565b60006113ef601e836117bf565b91506113fa82611af0565b602082019050919050565b60006114126027836117bf565b915061141d82611b19565b604082019050919050565b61143181611802565b82525050565b600060208201905061144c600083018461126b565b92915050565b6000606082019050611467600083018661126b565b611474602083018561126b565b8181036040830152611486818461127a565b9050949350505050565b60006060820190506114a5600083018661126b565b6114b2602083018561126b565b81810360408301526114c481846112b3565b9050949350505050565b60006060820190506114e3600083018661126b565b81810360208301526114f5818561127a565b90508181036040830152611509818461127a565b9050949350505050565b6000602082019050818103600083015261152d818461127a565b905092915050565b6000602082019050818103600083015261154e81611333565b9050919050565b6000602082019050818103600083015261156e81611356565b9050919050565b6000602082019050818103600083015261158e81611379565b9050919050565b600060208201905081810360008301526115ae8161139c565b9050919050565b600060208201905081810360008301526115ce816113bf565b9050919050565b600060208201905081810360008301526115ee816113e2565b9050919050565b6000602082019050818103600083015261160e81611405565b9050919050565b600060208201905061162a6000830184611428565b92915050565b600060a0820190506116456000830188611428565b6116526020830187611428565b8181036040830152611664818661127a565b90508181036060830152611678818561127a565b9050611687608083018461126b565b9695505050505050565b6000610100820190506116a7600083018b611428565b6116b4602083018a611428565b81810360408301526116c6818961127a565b905081810360608301526116da818861127a565b90506116e96080830187611428565b6116f660a0830186611428565b61170360c0830185611428565b61171060e083018461126b565b9998505050505050505050565b6000611727611738565b90506117338282611880565b919050565b6000604051905090565b600067ffffffffffffffff82111561175d5761175c611958565b5b602082029050602081019050919050565b600067ffffffffffffffff82111561178957611788611958565b5b611792826119a0565b9050602081019050919050565b60008190508160005260206000209050919050565b600081519050919050565b600082825260208201905092915050565b60006117db826117e2565b9050919050565b600073ffffffffffffffffffffffffffffffffffffffff82169050919050565b6000819050919050565b82818337600083830152505050565b60005b8381101561183957808201518184015260208101905061181e565b83811115611848576000848401525b50505050565b6000600282049050600182168061186657607f821691505b6020821081141561187a57611879611929565b5b50919050565b611889826119a0565b810181811067ffffffffffffffff821117156118a8576118a7611958565b5b80604052505050565b60006118bc82611802565b91507fffffffffffffffffffffffffffffffffffffffffffffffffffffffffffffffff8214156118ef576118ee6118fa565b5b600182019050919050565b7f4e487b7100000000000000000000000000000000000000000000000000000000600052601160045260246000fd5b7f4e487b7100000000000000000000000000000000000000000000000000000000600052602260045260246000fd5b7f4e487b7100000000000000000000000000000000000000000000000000000000600052604160045260246000fd5b600080fd5b600080fd5b600080fd5b600080fd5b600080fd5b6000601f19601f8301169050919050565b7f4572726f723a2063616e6e6f74206c696b65206f6e652773206f776e206d656d60008201527f6500000000000000000000000000000000000000000000000000000000000000602082015250565b7f4572726f723a206c696b6572206d757374206265206f7065726174696e67206160008201527f63636f756e740000000000000000000000000000000000000000000000000000602082015250565b7f4572726f723a20617574686f72206164647265737320646f65736e277420657860008201527f6973740000000000000000000000000000000000000000000000000000000000602082015250565b7f4572726f723a204d656d65206d75737420657869737400000000000000000000600082015250565b7f4572726f723a206d656d65206861736820646f65736e27742065786973740000600082015250565b7f4572726f723a206d656d65207465787420646f65736e27742065786973740000600082015250565b7f4572726f723a20706f73746572206d757374206265206f7065726174696e672060008201527f6163636f756e7400000000000000000000000000000000000000000000000000602082015250565b611b71816117d0565b8114611b7c57600080fd5b50565b611b8881611802565b8114611b9357600080fd5b5056fea2646970667358221220386b558a1c9fce1fb63abbd6df50bee804824e55735b4210b4a0ec7d4b6d1bf564736f6c63430008070033",
  "immutableReferences": {},
  "source": "// SPDX-License-Identifier: MIT\n\npragma solidity >=0.8.0 <0.9.0;\n\nimport \"./UME.sol\";\n\ncontract Timeline {\n  // public variables\n  UME private umeToken;\n  // app name\n  string public name = \"uMe\";\n  uint public memeCount = 0;\n\n\n  // mapping of Memes\n  mapping(uint => Meme) public memes; // memeId to meme map\n  /*\n  mapping(uint => uint) public memeCreation; // memeId to meme creation time\n  mapping(uint => string) public memeHashes; // memeId to memeHash\n  mapping(uint => string) public memeTexts; // memeId to memeText\n  mapping(uint => uint) public memeLikes; // memeId to like count\n  mapping(uint => uint[]) public memeLikers; // memeId to likers\n  mapping(uint => uint[]) public memeTags; // memeId to tagged, input needs to be parsed before\n  mapping(uint => uint[]) public memeResponses; // memeId to response id's\n  */\n  mapping(uint => address) public users; // memeId to user addresses\n\n  // Meme structure\n  struct Meme {\n    uint id; // number in all of timeline\n    uint time; // time of post\n    string hash; // hash of Meme\n    string text; // test of Meme\n    uint likes; // number of likes on Meme\n    address[] likers; // list of addresses of likers\n    uint[] tags; // list of id's of tagged\n    uint[] responses; // collection of id's of responses\n    uint parentId; // memeId of parent (can be self)\n    uint originId; // memeId of origin (can be self)\n    address author; // address of author\n    //bool hasLink // if Meme has link\n    //bool hasMedia; // if Meme has media\n    //string mediaHash; // address of media\n  }\n\n  event MemeCreated(\n    uint memeId,\n    uint memeTime,\n    string memeHash,\n    string memeText,\n    address author\n  );\n  event MemeLiked(\n    uint memeId,\n    uint memeTime,\n    string memeHash,\n    string memeText,\n    address author\n  );\n\n/*\n  struct Engagements {\n  // engagements to mint from\n    uint amtPosted;\n    uint amtLiked;\n    uint amtTagged;\n    uint amtFollowed;\n    uint amtResponded;\n    uint amtCurated;\n    uint amtJuried;\n  }\n*/\n  constructor(UME _umeToken) public {\n    umeToken = _umeToken;\n  }\n\n  function newMeme(address account, string memory _memeHash, string memory _memeText, uint[] memory _tags, uint _parentId, uint _originId) public {\n    require(bytes(_memeHash).length > 0, 'Error: meme hash doesn\\'t exist');\n    require(bytes(_memeText).length > 0, 'Error: meme text doesn\\'t exist');\n    require(msg.sender==account, 'Error: poster must be operating account');\n    require(msg.sender != address(0x0), 'Error: author address doesn\\'t exist');\n\n    memeCount++; // increment meme id\n\n    //memeTime[memeCount] = block.timestamp; // set creation time\n    //memeHashes[memeCount] = _memeHash; // set meme hash\n    //memeTexts[memeCount] = _memeText; // set meme text\n    //memeLikes[memeCount] = 0;\n    //memeLikers[memeCount] = []; // set likers to default\n    //memeTagged[memeCount] = tags; // set tagged to tags\n    //memeResponses[memeCount] = []; // set responses to default\n\n    users[memeCount] = msg.sender; // set meme to user address\n    // map memeId to meme (if parent & origin)\n    memes[memeCount] = Meme(\n      memeCount, // meme id\n      block.timestamp, // meme time\n      _memeHash, // meme hash\n      _memeText, // meme text\n      0, // like count\n      new address[](0), // likers\n      _tags, // tagged\n      new uint[](0), // response array\n      _parentId, // parent\n      _originId, // origin\n      msg.sender // author\n    );\n    // if responding to a single post, then mint respond token\n    if(memeCount!=_parentId && _parentId==_originId) {\n      umeToken.mintRespond(account, users[_parentId], _memeHash);\n    } // if responding to a thread, mint respond token for parent, curate token for original\n    else if(memeCount!=_parentId && _parentId!=_originId) {\n      umeToken.mintRespond(account, users[_parentId], _memeHash);\n      umeToken.mintCurate(account, users[_originId], _memeHash);\n    }\n    // mint post token\n    umeToken.mintPost(account, _memeHash, _memeText);\n\n    // mint tags\n    for(uint i = 0; i < _tags.length; i++) {\n      //umeToken.mintTag(account, users[_tags[i]], _memeHash);\n    }\n\n    emit MemeCreated(memeCount, block.timestamp, _memeHash, _memeText, msg.sender);\n  }\n\n  function likeMeme(address account, uint memeId) public {\n    require(account!=users[memeId], 'Error: cannot like one\\'s own meme');\n    require(account==msg.sender, 'Error: liker must be operating account');\n    require(users[memeId]!=address(0x0), 'Error: Meme must exist');\n    require(memes[memeId].time==0, 'Error: Meme must exist');\n    // fetch meme from blockchain\n    //Meme memory _meme = memes[memeId];\n    //if(_meme.likes==0) {\n      //_meme.likers = new address[](0);\n    //}\n/*\n    Meme memory _meme = Meme(\n      memes[memeId].id, // meme id\n      memes[memeId].time, // meme time\n      memes[memeId].hash, // meme hash\n      memes[memeId].text, // meme text\n      memes[memeId].likes, // like count\n      new address[](0), // likers\n      memes[memeId].tags, // tagged\n      memes[memeId].responses, // response array\n      memes[memeId].parentId, // parent\n      memes[memeId].originId, // origin\n      memes[memeId].author// author\n    );\n*/\n    // increment like count of particular image\n    //likeCount[memeId]++;\n    //memeLikers[memeId].push(msg.sender);\n    memes[memeId].likes++;\n    memes[memeId].likers.push(msg.sender);\n    //memes[memeId] = _meme;\n\n    // mint like token\n    umeToken.mintLike(msg.sender, users[memeId], memes[memeId].hash);\n  }\n}\n",
  "sourcePath": "/Users/jaiq/Documents/000 BLOCKCHAIN/ETH/uMe/src/contracts/Timeline.sol",
  "compiler": {
    "name": "solc",
    "version": "0.8.7+commit.e28d00a7.Emscripten.clang"
  },
  "schemaVersion": "3.4.3",
  "updatedAt": "2021-08-19T06:42:14.751Z",
  "networkType": "ethereum",
  "devdoc": {
    "kind": "dev",
    "methods": {},
    "version": 1
  },
  "userdoc": {
    "kind": "user",
    "methods": {},
    "version": 1
  }
}