{
  "contractName": "Timeline",
  "abi": [
    {
      "inputs": [
        {
          "internalType": "contract UME",
          "name": "_umeToken",
          "type": "address"
        }
      ],
      "stateMutability": "nonpayable",
      "type": "constructor"
    },
    {
      "anonymous": false,
      "inputs": [
        {
          "indexed": false,
          "internalType": "uint256",
          "name": "memeId",
          "type": "uint256"
        },
        {
          "indexed": false,
          "internalType": "uint256",
          "name": "memeTime",
          "type": "uint256"
        },
        {
          "indexed": false,
          "internalType": "string",
          "name": "memeHash",
          "type": "string"
        },
        {
          "indexed": false,
          "internalType": "string",
          "name": "memeText",
          "type": "string"
        },
        {
          "indexed": false,
          "internalType": "address",
          "name": "author",
          "type": "address"
        }
      ],
      "name": "MemeCreated",
      "type": "event"
    },
    {
      "anonymous": false,
      "inputs": [
        {
          "indexed": false,
          "internalType": "uint256",
          "name": "memeId",
          "type": "uint256"
        },
        {
          "indexed": false,
          "internalType": "uint256",
          "name": "memeTime",
          "type": "uint256"
        },
        {
          "indexed": false,
          "internalType": "string",
          "name": "memeHash",
          "type": "string"
        },
        {
          "indexed": false,
          "internalType": "string",
          "name": "memeText",
          "type": "string"
        },
        {
          "indexed": false,
          "internalType": "address",
          "name": "author",
          "type": "address"
        }
      ],
      "name": "MemeLiked",
      "type": "event"
    },
    {
      "inputs": [],
      "name": "memeCount",
      "outputs": [
        {
          "internalType": "uint256",
          "name": "",
          "type": "uint256"
        }
      ],
      "stateMutability": "view",
      "type": "function",
      "constant": true
    },
    {
      "inputs": [
        {
          "internalType": "uint256",
          "name": "",
          "type": "uint256"
        }
      ],
      "name": "memes",
      "outputs": [
        {
          "internalType": "uint256",
          "name": "id",
          "type": "uint256"
        },
        {
          "internalType": "uint256",
          "name": "time",
          "type": "uint256"
        },
        {
          "internalType": "string",
          "name": "hash",
          "type": "string"
        },
        {
          "internalType": "string",
          "name": "text",
          "type": "string"
        },
        {
          "internalType": "uint256",
          "name": "likes",
          "type": "uint256"
        },
        {
          "internalType": "uint256",
          "name": "parentId",
          "type": "uint256"
        },
        {
          "internalType": "uint256",
          "name": "originId",
          "type": "uint256"
        },
        {
          "internalType": "address",
          "name": "author",
          "type": "address"
        }
      ],
      "stateMutability": "view",
      "type": "function",
      "constant": true
    },
    {
      "inputs": [],
      "name": "name",
      "outputs": [
        {
          "internalType": "string",
          "name": "",
          "type": "string"
        }
      ],
      "stateMutability": "view",
      "type": "function",
      "constant": true
    },
    {
      "inputs": [
        {
          "internalType": "uint256",
          "name": "",
          "type": "uint256"
        }
      ],
      "name": "users",
      "outputs": [
        {
          "internalType": "address",
          "name": "",
          "type": "address"
        }
      ],
      "stateMutability": "view",
      "type": "function",
      "constant": true
    },
    {
      "inputs": [
        {
          "internalType": "address",
          "name": "account",
          "type": "address"
        },
        {
          "internalType": "string",
          "name": "_memeHash",
          "type": "string"
        },
        {
          "internalType": "string",
          "name": "_memeText",
          "type": "string"
        },
        {
          "internalType": "address[]",
          "name": "_tags",
          "type": "address[]"
        },
        {
          "internalType": "uint256",
          "name": "_parentId",
          "type": "uint256"
        },
        {
          "internalType": "uint256",
          "name": "_originId",
          "type": "uint256"
        }
      ],
      "name": "newMeme",
      "outputs": [],
      "stateMutability": "nonpayable",
      "type": "function"
    },
    {
      "inputs": [
        {
          "internalType": "address",
          "name": "account",
          "type": "address"
        },
        {
          "internalType": "uint256",
          "name": "memeId",
          "type": "uint256"
        }
      ],
      "name": "likeMeme",
      "outputs": [],
      "stateMutability": "nonpayable",
      "type": "function"
    }
  ],
  "bytecode": "0x60806040526040518060400160405280600381526020017f754d6500000000000000000000000000000000000000000000000000000000008152506001908051906020019062000051929190620000d1565b5060006002553480156200006457600080fd5b5060405162001fb538038062001fb583398181016040528101906200008a919062000198565b806000806101000a81548173ffffffffffffffffffffffffffffffffffffffff021916908373ffffffffffffffffffffffffffffffffffffffff1602179055505062000296565b828054620000df9062000212565b90600052602060002090601f0160209004810192826200010357600085556200014f565b82601f106200011e57805160ff19168380011785556200014f565b828001600101855582156200014f579182015b828111156200014e57825182559160200191906001019062000131565b5b5090506200015e919062000162565b5090565b5b808211156200017d57600081600090555060010162000163565b5090565b60008151905062000192816200027c565b92915050565b600060208284031215620001b157620001b062000277565b5b6000620001c18482850162000181565b91505092915050565b6000620001d782620001f2565b9050919050565b6000620001eb82620001ca565b9050919050565b600073ffffffffffffffffffffffffffffffffffffffff82169050919050565b600060028204905060018216806200022b57607f821691505b6020821081141562000242576200024162000248565b5b50919050565b7f4e487b7100000000000000000000000000000000000000000000000000000000600052602260045260246000fd5b600080fd5b6200028781620001de565b81146200029357600080fd5b50565b611d0f80620002a66000396000f3fe608060405234801561001057600080fd5b50600436106100625760003560e01c806306fdde0314610067578063365b98b214610085578063388f6064146100b55780637b2124d2146100ec5780639611dae61461010a578063c77e786e14610126575b600080fd5b61006f610142565b60405161007c9190611627565b60405180910390f35b61009f600480360381019061009a9190611352565b6101d0565b6040516100ac919061154b565b60405180910390f35b6100cf60048036038101906100ca9190611352565b610203565b6040516100e39897969594939291906117a5565b60405180910390f35b6100f461037b565b6040516101019190611729565b60405180910390f35b610124600480360381019061011f9190611231565b610381565b005b610140600480360381019061013b9190611312565b610bf5565b005b6001805461014f90611962565b80601f016020809104026020016040519081016040528092919081815260200182805461017b90611962565b80156101c85780601f1061019d576101008083540402835291602001916101c8565b820191906000526020600020905b8154815290600101906020018083116101ab57829003601f168201915b505050505081565b60046020528060005260406000206000915054906101000a900473ffffffffffffffffffffffffffffffffffffffff1681565b600360205280600052604060002060009150905080600001549080600101549080600201805461023290611962565b80601f016020809104026020016040519081016040528092919081815260200182805461025e90611962565b80156102ab5780601f10610280576101008083540402835291602001916102ab565b820191906000526020600020905b81548152906001019060200180831161028e57829003601f168201915b5050505050908060030180546102c090611962565b80601f01602080910402602001604051908101604052809291908181526020018280546102ec90611962565b80156103395780601f1061030e57610100808354040283529160200191610339565b820191906000526020600020905b81548152906001019060200180831161031c57829003601f168201915b50505050509080600401549080600801549080600901549080600a0160009054906101000a900473ffffffffffffffffffffffffffffffffffffffff16905088565b60025481565b60008551116103c5576040517f08c379a00000000000000000000000000000000000000000000000000000000081526004016103bc906116c9565b60405180910390fd5b6000845111610409576040517f08c379a0000000000000000000000000000000000000000000000000000000008152600401610400906116e9565b60405180910390fd5b8573ffffffffffffffffffffffffffffffffffffffff163373ffffffffffffffffffffffffffffffffffffffff1614610477576040517f08c379a000000000000000000000000000000000000000000000000000000000815260040161046e90611709565b60405180910390fd5b600073ffffffffffffffffffffffffffffffffffffffff163373ffffffffffffffffffffffffffffffffffffffff1614156104e7576040517f08c379a00000000000000000000000000000000000000000000000000000000081526004016104de90611689565b60405180910390fd5b600260008154809291906104fa906119c5565b9190505550600082141561050e5760025491505b600081141561051c57600090505b3360046000600254815260200190815260200160002060006101000a81548173ffffffffffffffffffffffffffffffffffffffff021916908373ffffffffffffffffffffffffffffffffffffffff160217905550604051806101600160405280600254815260200142815260200186815260200185815260200160008152602001600067ffffffffffffffff8111156105b8576105b7611a9b565b5b6040519080825280602002602001820160405280156105e65781602001602082028036833780820191505090505b508152602001848152602001600067ffffffffffffffff81111561060d5761060c611a9b565b5b60405190808252806020026020018201604052801561063b5781602001602082028036833780820191505090505b5081526020018381526020018281526020013373ffffffffffffffffffffffffffffffffffffffff16815250600360006002548152602001908152602001600020600082015181600001556020820151816001015560408201518160020190805190602001906106ac929190610f7f565b5060608201518160030190805190602001906106c9929190610f7f565b506080820151816004015560a08201518160050190805190602001906106f0929190611005565b5060c082015181600601908051906020019061070d929190611005565b5060e082015181600701908051906020019061072a92919061108f565b506101008201518160080155610120820151816009015561014082015181600a0160006101000a81548173ffffffffffffffffffffffffffffffffffffffff021916908373ffffffffffffffffffffffffffffffffffffffff160217905550905050816002541415801561079d57508082145b156108695760008054906101000a900473ffffffffffffffffffffffffffffffffffffffff1673ffffffffffffffffffffffffffffffffffffffff1663aa78f03a876004600086815260200190815260200160002060009054906101000a900473ffffffffffffffffffffffffffffffffffffffff16886040518463ffffffff1660e01b815260040161083293929190611566565b600060405180830381600087803b15801561084c57600080fd5b505af1158015610860573d6000803e3d6000fd5b50505050610a06565b816002541415801561087b5750808214155b15610a055760008054906101000a900473ffffffffffffffffffffffffffffffffffffffff1673ffffffffffffffffffffffffffffffffffffffff1663aa78f03a876004600086815260200190815260200160002060009054906101000a900473ffffffffffffffffffffffffffffffffffffffff16886040518463ffffffff1660e01b815260040161091093929190611566565b600060405180830381600087803b15801561092a57600080fd5b505af115801561093e573d6000803e3d6000fd5b5050505060008054906101000a900473ffffffffffffffffffffffffffffffffffffffff1673ffffffffffffffffffffffffffffffffffffffff16634b027fd9876004600085815260200190815260200160002060009054906101000a900473ffffffffffffffffffffffffffffffffffffffff16886040518463ffffffff1660e01b81526004016109d293929190611566565b600060405180830381600087803b1580156109ec57600080fd5b505af1158015610a00573d6000803e3d6000fd5b505050505b5b60008054906101000a900473ffffffffffffffffffffffffffffffffffffffff1673ffffffffffffffffffffffffffffffffffffffff1663639bee548787876040518463ffffffff1660e01b8152600401610a63939291906115e2565b600060405180830381600087803b158015610a7d57600080fd5b505af1158015610a91573d6000803e3d6000fd5b5050505060005b8351811015610bab57838181518110610ab457610ab3611a6c565b5b602002602001015173ffffffffffffffffffffffffffffffffffffffff168773ffffffffffffffffffffffffffffffffffffffff1614610b985760008054906101000a900473ffffffffffffffffffffffffffffffffffffffff1673ffffffffffffffffffffffffffffffffffffffff1663a272624a88868481518110610b3e57610b3d611a6c565b5b6020026020010151896040518463ffffffff1660e01b8152600401610b6593929190611566565b600060405180830381600087803b158015610b7f57600080fd5b505af1158015610b93573d6000803e3d6000fd5b505050505b8080610ba3906119c5565b915050610a98565b507f3ee879e5072fac281fced94163a24d92830f9695a78d619ea116269a9396202e60025442878733604051610be5959493929190611744565b60405180910390a1505050505050565b6004600082815260200190815260200160002060009054906101000a900473ffffffffffffffffffffffffffffffffffffffff1673ffffffffffffffffffffffffffffffffffffffff168273ffffffffffffffffffffffffffffffffffffffff161415610c97576040517f08c379a0000000000000000000000000000000000000000000000000000000008152600401610c8e90611649565b60405180910390fd5b3373ffffffffffffffffffffffffffffffffffffffff168273ffffffffffffffffffffffffffffffffffffffff1614610d05576040517f08c379a0000000000000000000000000000000000000000000000000000000008152600401610cfc90611669565b60405180910390fd5b600073ffffffffffffffffffffffffffffffffffffffff166004600083815260200190815260200160002060009054906101000a900473ffffffffffffffffffffffffffffffffffffffff1673ffffffffffffffffffffffffffffffffffffffff161415610da8576040517f08c379a0000000000000000000000000000000000000000000000000000000008152600401610d9f906116a9565b60405180910390fd5b6000600360008381526020019081526020016000206001015414610e01576040517f08c379a0000000000000000000000000000000000000000000000000000000008152600401610df8906116a9565b60405180910390fd5b600360008281526020019081526020016000206004016000815480929190610e28906119c5565b919050555060036000828152602001908152602001600020600501339080600181540180825580915050600190039060005260206000200160009091909190916101000a81548173ffffffffffffffffffffffffffffffffffffffff021916908373ffffffffffffffffffffffffffffffffffffffff16021790555060008054906101000a900473ffffffffffffffffffffffffffffffffffffffff1673ffffffffffffffffffffffffffffffffffffffff1663e96428a7336004600085815260200190815260200160002060009054906101000a900473ffffffffffffffffffffffffffffffffffffffff16600360008681526020019081526020016000206002016040518463ffffffff1660e01b8152600401610f49939291906115a4565b600060405180830381600087803b158015610f6357600080fd5b505af1158015610f77573d6000803e3d6000fd5b505050505050565b828054610f8b90611962565b90600052602060002090601f016020900481019282610fad5760008555610ff4565b82601f10610fc657805160ff1916838001178555610ff4565b82800160010185558215610ff4579182015b82811115610ff3578251825591602001919060010190610fd8565b5b50905061100191906110dc565b5090565b82805482825590600052602060002090810192821561107e579160200282015b8281111561107d5782518260006101000a81548173ffffffffffffffffffffffffffffffffffffffff021916908373ffffffffffffffffffffffffffffffffffffffff16021790555091602001919060010190611025565b5b50905061108b91906110dc565b5090565b8280548282559060005260206000209081019282156110cb579160200282015b828111156110ca5782518255916020019190600101906110af565b5b5090506110d891906110dc565b5090565b5b808211156110f55760008160009055506001016110dd565b5090565b600061110c61110784611856565b611831565b9050808382526020820190508285602086028201111561112f5761112e611acf565b5b60005b8581101561115f578161114588826111ab565b845260208401935060208301925050600181019050611132565b5050509392505050565b600061117c61117784611882565b611831565b90508281526020810184848401111561119857611197611ad4565b5b6111a3848285611920565b509392505050565b6000813590506111ba81611cab565b92915050565b600082601f8301126111d5576111d4611aca565b5b81356111e58482602086016110f9565b91505092915050565b600082601f83011261120357611202611aca565b5b8135611213848260208601611169565b91505092915050565b60008135905061122b81611cc2565b92915050565b60008060008060008060c0878903121561124e5761124d611ade565b5b600061125c89828a016111ab565b965050602087013567ffffffffffffffff81111561127d5761127c611ad9565b5b61128989828a016111ee565b955050604087013567ffffffffffffffff8111156112aa576112a9611ad9565b5b6112b689828a016111ee565b945050606087013567ffffffffffffffff8111156112d7576112d6611ad9565b5b6112e389828a016111c0565b93505060806112f489828a0161121c565b92505060a061130589828a0161121c565b9150509295509295509295565b6000806040838503121561132957611328611ade565b5b6000611337858286016111ab565b92505060206113488582860161121c565b9150509250929050565b60006020828403121561136857611367611ade565b5b60006113768482850161121c565b91505092915050565b611388816118e4565b82525050565b6000611399826118c8565b6113a381856118d3565b93506113b381856020860161192f565b6113bc81611ae3565b840191505092915050565b600081546113d481611962565b6113de81866118d3565b945060018216600081146113f9576001811461140b5761143e565b60ff198316865260208601935061143e565b611414856118b3565b60005b8381101561143657815481890152600182019150602081019050611417565b808801955050505b50505092915050565b60006114546021836118d3565b915061145f82611af4565b604082019050919050565b60006114776026836118d3565b915061148282611b43565b604082019050919050565b600061149a6023836118d3565b91506114a582611b92565b604082019050919050565b60006114bd6016836118d3565b91506114c882611be1565b602082019050919050565b60006114e0601e836118d3565b91506114eb82611c0a565b602082019050919050565b6000611503601e836118d3565b915061150e82611c33565b602082019050919050565b60006115266027836118d3565b915061153182611c5c565b604082019050919050565b61154581611916565b82525050565b6000602082019050611560600083018461137f565b92915050565b600060608201905061157b600083018661137f565b611588602083018561137f565b818103604083015261159a818461138e565b9050949350505050565b60006060820190506115b9600083018661137f565b6115c6602083018561137f565b81810360408301526115d881846113c7565b9050949350505050565b60006060820190506115f7600083018661137f565b8181036020830152611609818561138e565b9050818103604083015261161d818461138e565b9050949350505050565b60006020820190508181036000830152611641818461138e565b905092915050565b6000602082019050818103600083015261166281611447565b9050919050565b600060208201905081810360008301526116828161146a565b9050919050565b600060208201905081810360008301526116a28161148d565b9050919050565b600060208201905081810360008301526116c2816114b0565b9050919050565b600060208201905081810360008301526116e2816114d3565b9050919050565b60006020820190508181036000830152611702816114f6565b9050919050565b6000602082019050818103600083015261172281611519565b9050919050565b600060208201905061173e600083018461153c565b92915050565b600060a082019050611759600083018861153c565b611766602083018761153c565b8181036040830152611778818661138e565b9050818103606083015261178c818561138e565b905061179b608083018461137f565b9695505050505050565b6000610100820190506117bb600083018b61153c565b6117c8602083018a61153c565b81810360408301526117da818961138e565b905081810360608301526117ee818861138e565b90506117fd608083018761153c565b61180a60a083018661153c565b61181760c083018561153c565b61182460e083018461137f565b9998505050505050505050565b600061183b61184c565b90506118478282611994565b919050565b6000604051905090565b600067ffffffffffffffff82111561187157611870611a9b565b5b602082029050602081019050919050565b600067ffffffffffffffff82111561189d5761189c611a9b565b5b6118a682611ae3565b9050602081019050919050565b60008190508160005260206000209050919050565b600081519050919050565b600082825260208201905092915050565b60006118ef826118f6565b9050919050565b600073ffffffffffffffffffffffffffffffffffffffff82169050919050565b6000819050919050565b82818337600083830152505050565b60005b8381101561194d578082015181840152602081019050611932565b8381111561195c576000848401525b50505050565b6000600282049050600182168061197a57607f821691505b6020821081141561198e5761198d611a3d565b5b50919050565b61199d82611ae3565b810181811067ffffffffffffffff821117156119bc576119bb611a9b565b5b80604052505050565b60006119d082611916565b91507fffffffffffffffffffffffffffffffffffffffffffffffffffffffffffffffff821415611a0357611a02611a0e565b5b600182019050919050565b7f4e487b7100000000000000000000000000000000000000000000000000000000600052601160045260246000fd5b7f4e487b7100000000000000000000000000000000000000000000000000000000600052602260045260246000fd5b7f4e487b7100000000000000000000000000000000000000000000000000000000600052603260045260246000fd5b7f4e487b7100000000000000000000000000000000000000000000000000000000600052604160045260246000fd5b600080fd5b600080fd5b600080fd5b600080fd5b600080fd5b6000601f19601f8301169050919050565b7f4572726f723a2063616e6e6f74206c696b65206f6e652773206f776e206d656d60008201527f6500000000000000000000000000000000000000000000000000000000000000602082015250565b7f4572726f723a206c696b6572206d757374206265206f7065726174696e67206160008201527f63636f756e740000000000000000000000000000000000000000000000000000602082015250565b7f4572726f723a20617574686f72206164647265737320646f65736e277420657860008201527f6973740000000000000000000000000000000000000000000000000000000000602082015250565b7f4572726f723a204d656d65206d75737420657869737400000000000000000000600082015250565b7f4572726f723a206d656d65206861736820646f65736e27742065786973740000600082015250565b7f4572726f723a206d656d65207465787420646f65736e27742065786973740000600082015250565b7f4572726f723a20706f73746572206d757374206265206f7065726174696e672060008201527f6163636f756e7400000000000000000000000000000000000000000000000000602082015250565b611cb4816118e4565b8114611cbf57600080fd5b50565b611ccb81611916565b8114611cd657600080fd5b5056fea2646970667358221220a0e3e82419a915870684cc6f7574d279e17bed15e6307423fd6fb948151ff81264736f6c63430008070033",
  "immutableReferences": {},
  "source": "// SPDX-License-Identifier: MIT\n\npragma solidity >=0.8.0 <0.9.0;\n\nimport \"./UME.sol\";\n\ncontract Timeline {\n  // public variables\n  UME private umeToken;\n  // app name\n  string public name = \"uMe\";\n  uint public memeCount = 0;\n\n\n  // mapping of Memes\n  mapping(uint => Meme) public memes; // memeId to meme map\n  /*\n  mapping(uint => uint) public memeCreation; // memeId to meme creation time\n  mapping(uint => string) public memeHashes; // memeId to memeHash\n  mapping(uint => string) public memeTexts; // memeId to memeText\n  mapping(uint => uint) public memeLikes; // memeId to like count\n  mapping(uint => uint[]) public memeLikers; // memeId to likers\n  mapping(uint => uint[]) public memeTags; // memeId to tagged, input needs to be parsed before\n  mapping(uint => uint[]) public memeResponses; // memeId to response id's\n  */\n  mapping(uint => address) public users; // memeId to user addresses\n\n  // Meme structure\n  struct Meme {\n    uint id; // number in all of timeline\n    uint time; // time of post\n    string hash; // hash of Meme\n    string text; // test of Meme\n    uint likes; // number of likes on Meme\n    address[] likers; // list of addresses of likers\n    address[] tags; // list of id's of tagged\n    uint[] responses; // collection of id's of responses\n    uint parentId; // memeId of parent (can be self)\n    uint originId; // memeId of origin (can be self)\n    address author; // address of author\n    //bool hasLink // if Meme has link\n    //bool hasMedia; // if Meme has media\n    //string mediaHash; // address of media\n  }\n\n  event MemeCreated(\n    uint memeId,\n    uint memeTime,\n    string memeHash,\n    string memeText,\n    address author\n  );\n  event MemeLiked(\n    uint memeId,\n    uint memeTime,\n    string memeHash,\n    string memeText,\n    address author\n  );\n\n/*\n  struct Engagements {\n  // engagements to mint from\n    uint amtPosted;\n    uint amtLiked;\n    uint amtTagged;\n    uint amtFollowed;\n    uint amtResponded;\n    uint amtCurated;\n    uint amtJuried;\n  }\n*/\n  constructor(UME _umeToken) public {\n    umeToken = _umeToken;\n  }\n\n  function newMeme(address account, string memory _memeHash, string memory _memeText, address[] memory _tags, uint _parentId, uint _originId) public {\n    require(bytes(_memeHash).length > 0, 'Error: meme hash doesn\\'t exist');\n    require(bytes(_memeText).length > 0, 'Error: meme text doesn\\'t exist');\n    require(msg.sender==account, 'Error: poster must be operating account');\n    require(msg.sender != address(0x0), 'Error: author address doesn\\'t exist');\n\n    memeCount++; // increment meme id\n    if (_parentId == 0) {\n      _parentId = memeCount;\n    }\n    if (_originId == 0) {\n      _originId = 0;\n    }\n    //memeTime[memeCount] = block.timestamp; // set creation time\n    //memeHashes[memeCount] = _memeHash; // set meme hash\n    //memeTexts[memeCount] = _memeText; // set meme text\n    //memeLikes[memeCount] = 0;\n    //memeLikers[memeCount] = []; // set likers to default\n    //memeTagged[memeCount] = tags; // set tagged to tags\n    //memeResponses[memeCount] = []; // set responses to default\n\n    users[memeCount] = msg.sender; // set meme to user address\n    // map memeId to meme (if parent & origin)\n    memes[memeCount] = Meme(\n      memeCount, // meme id\n      block.timestamp, // meme time\n      _memeHash, // meme hash\n      _memeText, // meme text\n      0, // like count\n      new address[](0), // likers\n      _tags, // tagged\n      new uint[](0), // response array\n      _parentId, // parent\n      _originId, // origin\n      msg.sender // author\n    );\n    // if responding to a single post, then mint respond token\n    if(memeCount!=_parentId && _parentId==_originId) {\n      umeToken.mintRespond(account, users[_parentId], _memeHash);\n    } // if responding to a thread, mint respond token for parent, curate token for original\n    else if(memeCount!=_parentId && _parentId!=_originId) {\n      umeToken.mintRespond(account, users[_parentId], _memeHash);\n      umeToken.mintCurate(account, users[_originId], _memeHash);\n    }\n    // mint post token\n    umeToken.mintPost(account, _memeHash, _memeText);\n\n    // mint tags\n    for(uint i = 0; i < _tags.length; i++) {\n      if(account!=_tags[i]){\n        umeToken.mintTag(account, _tags[i], _memeHash);\n      }\n    }\n\n    emit MemeCreated(memeCount, block.timestamp, _memeHash, _memeText, msg.sender);\n  }\n\n  function likeMeme(address account, uint memeId) public {\n    require(account!=users[memeId], 'Error: cannot like one\\'s own meme');\n    require(account==msg.sender, 'Error: liker must be operating account');\n    require(users[memeId]!=address(0x0), 'Error: Meme must exist');\n    require(memes[memeId].time==0, 'Error: Meme must exist');\n    // fetch meme from blockchain\n    //Meme memory _meme = memes[memeId];\n    //if(_meme.likes==0) {\n      //_meme.likers = new address[](0);\n    //}\n/*\n    Meme memory _meme = Meme(\n      memes[memeId].id, // meme id\n      memes[memeId].time, // meme time\n      memes[memeId].hash, // meme hash\n      memes[memeId].text, // meme text\n      memes[memeId].likes, // like count\n      new address[](0), // likers\n      memes[memeId].tags, // tagged\n      memes[memeId].responses, // response array\n      memes[memeId].parentId, // parent\n      memes[memeId].originId, // origin\n      memes[memeId].author// author\n    );\n*/\n    // increment like count of particular image\n    //likeCount[memeId]++;\n    //memeLikers[memeId].push(msg.sender);\n    memes[memeId].likes++;\n    memes[memeId].likers.push(msg.sender);\n    //memes[memeId] = _meme;\n\n    // mint like token\n    umeToken.mintLike(msg.sender, users[memeId], memes[memeId].hash);\n  }\n}\n",
  "sourcePath": "/Users/jaiq/Documents/000 BLOCKCHAIN/ETH/uMe/src/contracts/Timeline.sol",
  "compiler": {
    "name": "solc",
    "version": "0.8.7+commit.e28d00a7.Emscripten.clang"
  },
  "schemaVersion": "3.4.3",
  "updatedAt": "2021-08-20T03:41:51.588Z",
  "networkType": "ethereum",
  "devdoc": {
    "kind": "dev",
    "methods": {},
    "version": 1
  },
  "userdoc": {
    "kind": "user",
    "methods": {},
    "version": 1
  }
}