{
  "contractName": "Timeline",
  "abi": [
    {
      "inputs": [
        {
          "internalType": "contract ME",
          "name": "_meToken",
          "type": "address"
        }
      ],
      "stateMutability": "nonpayable",
      "type": "constructor"
    },
    {
      "anonymous": false,
      "inputs": [
        {
          "indexed": false,
          "internalType": "uint256",
          "name": "memeId",
          "type": "uint256"
        },
        {
          "indexed": false,
          "internalType": "uint256",
          "name": "memeTime",
          "type": "uint256"
        },
        {
          "indexed": false,
          "internalType": "string",
          "name": "memeHash",
          "type": "string"
        },
        {
          "indexed": false,
          "internalType": "string",
          "name": "memeText",
          "type": "string"
        },
        {
          "indexed": false,
          "internalType": "address",
          "name": "author",
          "type": "address"
        }
      ],
      "name": "MemeCreated",
      "type": "event"
    },
    {
      "anonymous": false,
      "inputs": [
        {
          "indexed": false,
          "internalType": "uint256",
          "name": "memeId",
          "type": "uint256"
        },
        {
          "indexed": false,
          "internalType": "uint256",
          "name": "memeTime",
          "type": "uint256"
        },
        {
          "indexed": false,
          "internalType": "string",
          "name": "memeHash",
          "type": "string"
        },
        {
          "indexed": false,
          "internalType": "string",
          "name": "memeText",
          "type": "string"
        },
        {
          "indexed": false,
          "internalType": "address",
          "name": "author",
          "type": "address"
        }
      ],
      "name": "MemeLiked",
      "type": "event"
    },
    {
      "inputs": [],
      "name": "memeCount",
      "outputs": [
        {
          "internalType": "uint256",
          "name": "",
          "type": "uint256"
        }
      ],
      "stateMutability": "view",
      "type": "function"
    },
    {
      "inputs": [
        {
          "internalType": "uint256",
          "name": "",
          "type": "uint256"
        }
      ],
      "name": "memes",
      "outputs": [
        {
          "internalType": "uint256",
          "name": "memeId",
          "type": "uint256"
        },
        {
          "internalType": "uint256",
          "name": "memeTime",
          "type": "uint256"
        },
        {
          "internalType": "string",
          "name": "memeHash",
          "type": "string"
        },
        {
          "internalType": "string",
          "name": "memeText",
          "type": "string"
        },
        {
          "internalType": "uint256",
          "name": "likeCount",
          "type": "uint256"
        },
        {
          "internalType": "address",
          "name": "author",
          "type": "address"
        }
      ],
      "stateMutability": "view",
      "type": "function"
    },
    {
      "inputs": [],
      "name": "name",
      "outputs": [
        {
          "internalType": "string",
          "name": "",
          "type": "string"
        }
      ],
      "stateMutability": "view",
      "type": "function"
    },
    {
      "inputs": [
        {
          "internalType": "string",
          "name": "_memeHash",
          "type": "string"
        },
        {
          "internalType": "string",
          "name": "_memeText",
          "type": "string"
        }
      ],
      "name": "newMeme",
      "outputs": [],
      "stateMutability": "nonpayable",
      "type": "function"
    }
  ],
  "bytecode": "0x60806040526040518060400160405280600381526020017f754d6500000000000000000000000000000000000000000000000000000000008152506001908051906020019062000051929190620000d1565b5060006002553480156200006457600080fd5b5060405162000fe038038062000fe083398181016040528101906200008a919062000198565b806000806101000a81548173ffffffffffffffffffffffffffffffffffffffff021916908373ffffffffffffffffffffffffffffffffffffffff1602179055505062000296565b828054620000df9062000212565b90600052602060002090601f0160209004810192826200010357600085556200014f565b82601f106200011e57805160ff19168380011785556200014f565b828001600101855582156200014f579182015b828111156200014e57825182559160200191906001019062000131565b5b5090506200015e919062000162565b5090565b5b808211156200017d57600081600090555060010162000163565b5090565b60008151905062000192816200027c565b92915050565b600060208284031215620001b157620001b062000277565b5b6000620001c18482850162000181565b91505092915050565b6000620001d782620001f2565b9050919050565b6000620001eb82620001ca565b9050919050565b600073ffffffffffffffffffffffffffffffffffffffff82169050919050565b600060028204905060018216806200022b57607f821691505b6020821081141562000242576200024162000248565b5b50919050565b7f4e487b7100000000000000000000000000000000000000000000000000000000600052602260045260246000fd5b600080fd5b6200028781620001de565b81146200029357600080fd5b50565b610d3a80620002a66000396000f3fe608060405234801561001057600080fd5b506004361061004c5760003560e01c806306fdde0314610051578063388f60641461006f5780637b2124d2146100a4578063d45313a1146100c2575b600080fd5b6100596100de565b6040516100669190610891565b60405180910390f35b6100896004803603810190610084919061075f565b61016c565b60405161009b9695949392919061098f565b60405180910390f35b6100ac6102d8565b6040516100b99190610913565b60405180910390f35b6100dc60048036038101906100d791906106e7565b6102de565b005b600180546100eb90610aee565b80601f016020809104026020016040519081016040528092919081815260200182805461011790610aee565b80156101645780601f1061013957610100808354040283529160200191610164565b820191906000526020600020905b81548152906001019060200180831161014757829003601f168201915b505050505081565b600360205280600052604060002060009150905080600001549080600101549080600201805461019b90610aee565b80601f01602080910402602001604051908101604052809291908181526020018280546101c790610aee565b80156102145780601f106101e957610100808354040283529160200191610214565b820191906000526020600020905b8154815290600101906020018083116101f757829003601f168201915b50505050509080600301805461022990610aee565b80601f016020809104026020016040519081016040528092919081815260200182805461025590610aee565b80156102a25780601f10610277576101008083540402835291602001916102a2565b820191906000526020600020905b81548152906001019060200180831161028557829003601f168201915b5050505050908060040154908060050160009054906101000a900473ffffffffffffffffffffffffffffffffffffffff16905086565b60025481565b6000825111610322576040517f08c379a0000000000000000000000000000000000000000000000000000000008152600401610319906108d3565b60405180910390fd5b6000815111610366576040517f08c379a000000000000000000000000000000000000000000000000000000000815260040161035d906108f3565b60405180910390fd5b600073ffffffffffffffffffffffffffffffffffffffff163373ffffffffffffffffffffffffffffffffffffffff1614156103d6576040517f08c379a00000000000000000000000000000000000000000000000000000000081526004016103cd906108b3565b60405180910390fd5b600260008154809291906103e990610b51565b91905055506040518060c001604052806002548152602001428152602001838152602001828152602001600081526020013373ffffffffffffffffffffffffffffffffffffffff16815250600360006002548152602001908152602001600020600082015181600001556020820151816001015560408201518160020190805190602001906104799291906105bf565b5060608201518160030190805190602001906104969291906105bf565b506080820151816004015560a08201518160050160006101000a81548173ffffffffffffffffffffffffffffffffffffffff021916908373ffffffffffffffffffffffffffffffffffffffff16021790555090505060008054906101000a900473ffffffffffffffffffffffffffffffffffffffff1673ffffffffffffffffffffffffffffffffffffffff1663639bee543384846040518463ffffffff1660e01b81526004016105489392919061084c565b600060405180830381600087803b15801561056257600080fd5b505af1158015610576573d6000803e3d6000fd5b505050507f3ee879e5072fac281fced94163a24d92830f9695a78d619ea116269a9396202e600254428484336040516105b395949392919061092e565b60405180910390a15050565b8280546105cb90610aee565b90600052602060002090601f0160209004810192826105ed5760008555610634565b82601f1061060657805160ff1916838001178555610634565b82800160010185558215610634579182015b82811115610633578251825591602001919060010190610618565b5b5090506106419190610645565b5090565b5b8082111561065e576000816000905550600101610646565b5090565b600061067561067084610a23565b6109fe565b90508281526020810184848401111561069157610690610c2c565b5b61069c848285610aac565b509392505050565b600082601f8301126106b9576106b8610c27565b5b81356106c9848260208601610662565b91505092915050565b6000813590506106e181610ced565b92915050565b600080604083850312156106fe576106fd610c36565b5b600083013567ffffffffffffffff81111561071c5761071b610c31565b5b610728858286016106a4565b925050602083013567ffffffffffffffff81111561074957610748610c31565b5b610755858286016106a4565b9150509250929050565b60006020828403121561077557610774610c36565b5b6000610783848285016106d2565b91505092915050565b61079581610a70565b82525050565b60006107a682610a54565b6107b08185610a5f565b93506107c0818560208601610abb565b6107c981610c3b565b840191505092915050565b60006107e1602383610a5f565b91506107ec82610c4c565b604082019050919050565b6000610804601e83610a5f565b915061080f82610c9b565b602082019050919050565b6000610827601e83610a5f565b915061083282610cc4565b602082019050919050565b61084681610aa2565b82525050565b6000606082019050610861600083018661078c565b8181036020830152610873818561079b565b90508181036040830152610887818461079b565b9050949350505050565b600060208201905081810360008301526108ab818461079b565b905092915050565b600060208201905081810360008301526108cc816107d4565b9050919050565b600060208201905081810360008301526108ec816107f7565b9050919050565b6000602082019050818103600083015261090c8161081a565b9050919050565b6000602082019050610928600083018461083d565b92915050565b600060a082019050610943600083018861083d565b610950602083018761083d565b8181036040830152610962818661079b565b90508181036060830152610976818561079b565b9050610985608083018461078c565b9695505050505050565b600060c0820190506109a4600083018961083d565b6109b1602083018861083d565b81810360408301526109c3818761079b565b905081810360608301526109d7818661079b565b90506109e6608083018561083d565b6109f360a083018461078c565b979650505050505050565b6000610a08610a19565b9050610a148282610b20565b919050565b6000604051905090565b600067ffffffffffffffff821115610a3e57610a3d610bf8565b5b610a4782610c3b565b9050602081019050919050565b600081519050919050565b600082825260208201905092915050565b6000610a7b82610a82565b9050919050565b600073ffffffffffffffffffffffffffffffffffffffff82169050919050565b6000819050919050565b82818337600083830152505050565b60005b83811015610ad9578082015181840152602081019050610abe565b83811115610ae8576000848401525b50505050565b60006002820490506001821680610b0657607f821691505b60208210811415610b1a57610b19610bc9565b5b50919050565b610b2982610c3b565b810181811067ffffffffffffffff82111715610b4857610b47610bf8565b5b80604052505050565b6000610b5c82610aa2565b91507fffffffffffffffffffffffffffffffffffffffffffffffffffffffffffffffff821415610b8f57610b8e610b9a565b5b600182019050919050565b7f4e487b7100000000000000000000000000000000000000000000000000000000600052601160045260246000fd5b7f4e487b7100000000000000000000000000000000000000000000000000000000600052602260045260246000fd5b7f4e487b7100000000000000000000000000000000000000000000000000000000600052604160045260246000fd5b600080fd5b600080fd5b600080fd5b600080fd5b6000601f19601f8301169050919050565b7f4572726f723a20617574686f72206164647265737320646f65736e277420657860008201527f6973740000000000000000000000000000000000000000000000000000000000602082015250565b7f4572726f723a206d656d65206861736820646f65736e27742065786973740000600082015250565b7f4572726f723a206d656d65207465787420646f65736e27742065786973740000600082015250565b610cf681610aa2565b8114610d0157600080fd5b5056fea26469706673582212208f413f7545fb6e5680a31996acd7175444b3e5dcb338bc1580edfe076455d96664736f6c63430008070033",
  "immutableReferences": {},
  "source": "// SPDX-License-Identifier: MIT\n\npragma solidity >=0.8.0 <0.9.0;\n\nimport \"./ME.sol\";\nimport \"./UME.sol\";\n\ncontract Timeline {\n  // public variables\n  ME private meToken;\n  string public name = \"uMe\";\n  uint public memeCount = 0;\n\n  struct Meme {\n    uint memeId; // number in all of timeline\n    uint memeTime; // time of post\n    string memeHash; // hash of Meme\n    string memeText; // test of Meme\n    //bool hasLink // if Meme has link\n    //bool hasMedia; // if Meme has media\n    //string mediaHash; // address of media\n    uint likeCount; // number of likes on Meme\n    //address[] likers; // list of addresses of likers\n    //address[] tags; // list of addresses of tagged\n    //bool isChild; // if meme is child of a previous meme\n    //string parentHash; // hash of direct parent in thread\n    //string originHash; // hash of originator of thread\n    address author; // address of author\n  }\n\n  event MemeCreated(\n    uint memeId,\n    uint memeTime,\n    string memeHash,\n    string memeText,\n    address author\n  );\n  event MemeLiked(\n    uint memeId,\n    uint memeTime,\n    string memeHash,\n    string memeText,\n    address author\n  );\n\n  // mapping of ERC1155 (ME)'s values\n  mapping(uint => Meme) public memes;\n/*\n  struct Engagements {\n  // engagements to mint from\n    uint amtPosted;\n    uint amtLiked;\n    uint amtTagged;\n    uint amtFollowed;\n    uint amtResponded;\n    uint amtCurated;\n    uint amtJuried;\n  }\n*/\n  constructor(ME _meToken) public {\n    meToken = _meToken;\n  }\n\n  function newMeme(string memory _memeHash, string memory _memeText) public {\n    require(bytes(_memeHash).length > 0, 'Error: meme hash doesn\\'t exist');\n    require(bytes(_memeText).length > 0, 'Error: meme text doesn\\'t exist');\n    require(msg.sender != address(0x0), 'Error: author address doesn\\'t exist');\n\n    // increment meme id\n    memeCount++;\n    memes[memeCount] = Meme(memeCount, block.timestamp, _memeHash, _memeText, 0, msg.sender);\n\n    // mint post token\n    meToken.mintPost(msg.sender, _memeHash, _memeText);\n\n    // create token event\n    emit MemeCreated(memeCount, block.timestamp, _memeHash, _memeText, msg.sender);\n  }\n\n\n/*\n  function redeemMe(Me _me) public {\n    require(isTallied[msg.sender]==false, 'Error: ME has already been redeemed');\n    //assign ERC1155 token deployed to contract as variable\n    me = _me;\n    //extract values of each value in ERC1155 token\n    engagementsOf[msg.sender] = Engagements(\n      me.balanceOf(msg.sender, 1),\n      me.balanceOf(msg.sender, 2),\n      me.balanceOf(msg.sender, 3),\n      me.balanceOf(msg.sender, 4),\n      me.balanceOf(msg.sender, 5),\n      me.balanceOf(msg.sender, 6),\n      me.balanceOf(msg.sender, 7)\n    );\n    //me.balanceOf(msg.sender,\n    // updates redeem time to msg.sender\n    redeemStart[msg.sender] += block.timestamp;\n    // set Redeemed to true\n    isTallied[msg.sender] = true;\n    safe\n    // mint UME\n    emit RedeemMe(msg.sender, block.timestamp, umeAmt);\n  }\n*/\n/*\n  function mint(address account, uint256 amount) public {\n    require(msg.sender==minter, 'Error: msg.sender is not minter');\n    require(isTallied==true, 'Error: hasn\\'t redeemed');\n    _mint(account, amount);\n  }\n  */\n}\n",
  "sourcePath": "/Users/jaiq/Documents/000 BLOCKCHAIN/ETH/uMe/src/contracts/Timeline.sol",
  "compiler": {
    "name": "solc",
    "version": "0.8.7+commit.e28d00a7.Emscripten.clang"
  },
  "schemaVersion": "3.4.3",
  "updatedAt": "2021-08-18T22:52:53.023Z",
  "devdoc": {
    "kind": "dev",
    "methods": {},
    "version": 1
  },
  "userdoc": {
    "kind": "user",
    "methods": {},
    "version": 1
  }
}