{
  "contractName": "Timeline",
  "abi": [
    {
      "inputs": [
        {
          "internalType": "contract UME",
          "name": "_umeToken",
          "type": "address"
        }
      ],
      "stateMutability": "nonpayable",
      "type": "constructor"
    },
    {
      "anonymous": false,
      "inputs": [
        {
          "indexed": false,
          "internalType": "uint256",
          "name": "memeId",
          "type": "uint256"
        },
        {
          "indexed": false,
          "internalType": "uint256",
          "name": "memeTime",
          "type": "uint256"
        },
        {
          "indexed": false,
          "internalType": "string",
          "name": "memeHash",
          "type": "string"
        },
        {
          "indexed": false,
          "internalType": "string",
          "name": "memeText",
          "type": "string"
        },
        {
          "indexed": false,
          "internalType": "address",
          "name": "author",
          "type": "address"
        }
      ],
      "name": "MemeCreated",
      "type": "event"
    },
    {
      "anonymous": false,
      "inputs": [
        {
          "indexed": false,
          "internalType": "uint256",
          "name": "memeId",
          "type": "uint256"
        },
        {
          "indexed": false,
          "internalType": "uint256",
          "name": "memeTime",
          "type": "uint256"
        },
        {
          "indexed": false,
          "internalType": "string",
          "name": "memeHash",
          "type": "string"
        },
        {
          "indexed": false,
          "internalType": "string",
          "name": "memeText",
          "type": "string"
        },
        {
          "indexed": false,
          "internalType": "address",
          "name": "author",
          "type": "address"
        }
      ],
      "name": "MemeLiked",
      "type": "event"
    },
    {
      "inputs": [],
      "name": "memeCount",
      "outputs": [
        {
          "internalType": "uint256",
          "name": "",
          "type": "uint256"
        }
      ],
      "stateMutability": "view",
      "type": "function",
      "constant": true
    },
    {
      "inputs": [
        {
          "internalType": "uint256",
          "name": "",
          "type": "uint256"
        },
        {
          "internalType": "uint256",
          "name": "",
          "type": "uint256"
        }
      ],
      "name": "memeLikers",
      "outputs": [
        {
          "internalType": "address",
          "name": "",
          "type": "address"
        }
      ],
      "stateMutability": "view",
      "type": "function",
      "constant": true
    },
    {
      "inputs": [
        {
          "internalType": "uint256",
          "name": "",
          "type": "uint256"
        }
      ],
      "name": "memes",
      "outputs": [
        {
          "internalType": "uint256",
          "name": "id",
          "type": "uint256"
        },
        {
          "internalType": "uint256",
          "name": "time",
          "type": "uint256"
        },
        {
          "internalType": "string",
          "name": "hash",
          "type": "string"
        },
        {
          "internalType": "string",
          "name": "text",
          "type": "string"
        },
        {
          "internalType": "uint256",
          "name": "likes",
          "type": "uint256"
        },
        {
          "internalType": "uint256",
          "name": "parentId",
          "type": "uint256"
        },
        {
          "internalType": "uint256",
          "name": "originId",
          "type": "uint256"
        },
        {
          "internalType": "address",
          "name": "author",
          "type": "address"
        }
      ],
      "stateMutability": "view",
      "type": "function",
      "constant": true
    },
    {
      "inputs": [],
      "name": "name",
      "outputs": [
        {
          "internalType": "string",
          "name": "",
          "type": "string"
        }
      ],
      "stateMutability": "view",
      "type": "function",
      "constant": true
    },
    {
      "inputs": [
        {
          "internalType": "uint256",
          "name": "",
          "type": "uint256"
        }
      ],
      "name": "users",
      "outputs": [
        {
          "internalType": "address",
          "name": "",
          "type": "address"
        }
      ],
      "stateMutability": "view",
      "type": "function",
      "constant": true
    },
    {
      "inputs": [
        {
          "internalType": "address",
          "name": "account",
          "type": "address"
        },
        {
          "internalType": "string",
          "name": "_memeHash",
          "type": "string"
        },
        {
          "internalType": "string",
          "name": "_memeText",
          "type": "string"
        },
        {
          "internalType": "address[]",
          "name": "_tags",
          "type": "address[]"
        },
        {
          "internalType": "uint256",
          "name": "_parentId",
          "type": "uint256"
        },
        {
          "internalType": "uint256",
          "name": "_originId",
          "type": "uint256"
        }
      ],
      "name": "newMeme",
      "outputs": [],
      "stateMutability": "nonpayable",
      "type": "function"
    },
    {
      "inputs": [
        {
          "internalType": "address",
          "name": "account",
          "type": "address"
        },
        {
          "internalType": "uint256",
          "name": "memeId",
          "type": "uint256"
        }
      ],
      "name": "likeMeme",
      "outputs": [],
      "stateMutability": "nonpayable",
      "type": "function"
    }
  ],
  "bytecode": "0x60806040526040518060400160405280600381526020017f754d6500000000000000000000000000000000000000000000000000000000008152506001908051906020019062000051929190620000d1565b5060006002553480156200006457600080fd5b50604051620025823803806200258283398181016040528101906200008a919062000198565b806000806101000a81548173ffffffffffffffffffffffffffffffffffffffff021916908373ffffffffffffffffffffffffffffffffffffffff1602179055505062000296565b828054620000df9062000212565b90600052602060002090601f0160209004810192826200010357600085556200014f565b82601f106200011e57805160ff19168380011785556200014f565b828001600101855582156200014f579182015b828111156200014e57825182559160200191906001019062000131565b5b5090506200015e919062000162565b5090565b5b808211156200017d57600081600090555060010162000163565b5090565b60008151905062000192816200027c565b92915050565b600060208284031215620001b157620001b062000277565b5b6000620001c18482850162000181565b91505092915050565b6000620001d782620001f2565b9050919050565b6000620001eb82620001ca565b9050919050565b600073ffffffffffffffffffffffffffffffffffffffff82169050919050565b600060028204905060018216806200022b57607f821691505b6020821081141562000242576200024162000248565b5b50919050565b7f4e487b7100000000000000000000000000000000000000000000000000000000600052602260045260246000fd5b600080fd5b6200028781620001de565b81146200029357600080fd5b50565b6122dc80620002a66000396000f3fe608060405234801561001057600080fd5b506004361061007d5760003560e01c80637b2124d21161005b5780637b2124d2146101075780639611dae614610125578063c77e786e14610141578063f148cffc1461015d5761007d565b806306fdde0314610082578063365b98b2146100a0578063388f6064146100d0575b600080fd5b61008a61018d565b6040516100979190611b08565b60405180910390f35b6100ba60048036038101906100b59190611848565b61021b565b6040516100c79190611a6a565b60405180910390f35b6100ea60048036038101906100e59190611848565b61024e565b6040516100fe989796959493929190611ce6565b60405180910390f35b61010f6103c6565b60405161011c9190611c6a565b60405180910390f35b61013f600480360381019061013a9190611727565b6103cc565b005b61015b60048036038101906101569190611808565b610bd3565b005b61017760048036038101906101729190611875565b611427565b6040516101849190611a6a565b60405180910390f35b6001805461019a90611e8e565b80601f01602080910402602001604051908101604052809291908181526020018280546101c690611e8e565b80156102135780601f106101e857610100808354040283529160200191610213565b820191906000526020600020905b8154815290600101906020018083116101f657829003601f168201915b505050505081565b60056020528060005260406000206000915054906101000a900473ffffffffffffffffffffffffffffffffffffffff1681565b600360205280600052604060002060009150905080600001549080600101549080600201805461027d90611e8e565b80601f01602080910402602001604051908101604052809291908181526020018280546102a990611e8e565b80156102f65780601f106102cb576101008083540402835291602001916102f6565b820191906000526020600020905b8154815290600101906020018083116102d957829003601f168201915b50505050509080600301805461030b90611e8e565b80601f016020809104026020016040519081016040528092919081815260200182805461033790611e8e565b80156103845780601f1061035957610100808354040283529160200191610384565b820191906000526020600020905b81548152906001019060200180831161036757829003601f168201915b5050505050908060040154908060070154908060080154908060090160009054906101000a900473ffffffffffffffffffffffffffffffffffffffff16905088565b60025481565b6000855111610410576040517f08c379a000000000000000000000000000000000000000000000000000000000815260040161040790611bea565b60405180910390fd5b6000845111610454576040517f08c379a000000000000000000000000000000000000000000000000000000000815260040161044b90611c0a565b60405180910390fd5b8573ffffffffffffffffffffffffffffffffffffffff163373ffffffffffffffffffffffffffffffffffffffff16146104c2576040517f08c379a00000000000000000000000000000000000000000000000000000000081526004016104b990611c2a565b60405180910390fd5b600073ffffffffffffffffffffffffffffffffffffffff163373ffffffffffffffffffffffffffffffffffffffff161415610532576040517f08c379a000000000000000000000000000000000000000000000000000000000815260040161052990611bca565b60405180910390fd5b6002600081548092919061054590611ef1565b919050555060008214156105595760025491505b600081141561056757600090505b3360056000600254815260200190815260200160002060006101000a81548173ffffffffffffffffffffffffffffffffffffffff021916908373ffffffffffffffffffffffffffffffffffffffff160217905550604051806101400160405280600254815260200142815260200186815260200185815260200160008152602001848152602001600067ffffffffffffffff81111561060957610608611fc7565b5b6040519080825280602002602001820160405280156106375781602001602082028036833780820191505090505b5081526020018381526020018281526020013373ffffffffffffffffffffffffffffffffffffffff16815250600360006002548152602001908152602001600020600082015181600001556020820151816001015560408201518160020190805190602001906106a8929190611475565b5060608201518160030190805190602001906106c5929190611475565b506080820151816004015560a08201518160050190805190602001906106ec9291906114fb565b5060c0820151816006019080519060200190610709929190611585565b5060e0820151816007015561010082015181600801556101208201518160090160006101000a81548173ffffffffffffffffffffffffffffffffffffffff021916908373ffffffffffffffffffffffffffffffffffffffff160217905550905050816002541415801561077b57508082145b156108475760008054906101000a900473ffffffffffffffffffffffffffffffffffffffff1673ffffffffffffffffffffffffffffffffffffffff1663aa78f03a876005600086815260200190815260200160002060009054906101000a900473ffffffffffffffffffffffffffffffffffffffff16886040518463ffffffff1660e01b815260040161081093929190611a85565b600060405180830381600087803b15801561082a57600080fd5b505af115801561083e573d6000803e3d6000fd5b505050506109e4565b81600254141580156108595750808214155b156109e35760008054906101000a900473ffffffffffffffffffffffffffffffffffffffff1673ffffffffffffffffffffffffffffffffffffffff1663aa78f03a876005600086815260200190815260200160002060009054906101000a900473ffffffffffffffffffffffffffffffffffffffff16886040518463ffffffff1660e01b81526004016108ee93929190611a85565b600060405180830381600087803b15801561090857600080fd5b505af115801561091c573d6000803e3d6000fd5b5050505060008054906101000a900473ffffffffffffffffffffffffffffffffffffffff1673ffffffffffffffffffffffffffffffffffffffff16634b027fd9876005600085815260200190815260200160002060009054906101000a900473ffffffffffffffffffffffffffffffffffffffff16886040518463ffffffff1660e01b81526004016109b093929190611a85565b600060405180830381600087803b1580156109ca57600080fd5b505af11580156109de573d6000803e3d6000fd5b505050505b5b60008054906101000a900473ffffffffffffffffffffffffffffffffffffffff1673ffffffffffffffffffffffffffffffffffffffff1663639bee548787876040518463ffffffff1660e01b8152600401610a4193929190611ac3565b600060405180830381600087803b158015610a5b57600080fd5b505af1158015610a6f573d6000803e3d6000fd5b5050505060005b8351811015610b8957838181518110610a9257610a91611f98565b5b602002602001015173ffffffffffffffffffffffffffffffffffffffff168773ffffffffffffffffffffffffffffffffffffffff1614610b765760008054906101000a900473ffffffffffffffffffffffffffffffffffffffff1673ffffffffffffffffffffffffffffffffffffffff1663a272624a88868481518110610b1c57610b1b611f98565b5b6020026020010151896040518463ffffffff1660e01b8152600401610b4393929190611a85565b600060405180830381600087803b158015610b5d57600080fd5b505af1158015610b71573d6000803e3d6000fd5b505050505b8080610b8190611ef1565b915050610a76565b507f3ee879e5072fac281fced94163a24d92830f9695a78d619ea116269a9396202e60025442878733604051610bc3959493929190611c85565b60405180910390a1505050505050565b6005600082815260200190815260200160002060009054906101000a900473ffffffffffffffffffffffffffffffffffffffff1673ffffffffffffffffffffffffffffffffffffffff168273ffffffffffffffffffffffffffffffffffffffff161415610c75576040517f08c379a0000000000000000000000000000000000000000000000000000000008152600401610c6c90611b4a565b60405180910390fd5b3373ffffffffffffffffffffffffffffffffffffffff168273ffffffffffffffffffffffffffffffffffffffff1614610ce3576040517f08c379a0000000000000000000000000000000000000000000000000000000008152600401610cda90611b6a565b60405180910390fd5b600073ffffffffffffffffffffffffffffffffffffffff166005600083815260200190815260200160002060009054906101000a900473ffffffffffffffffffffffffffffffffffffffff1673ffffffffffffffffffffffffffffffffffffffff161415610d86576040517f08c379a0000000000000000000000000000000000000000000000000000000008152600401610d7d90611baa565b60405180910390fd5b600060036000838152602001908152602001600020600101541415610de0576040517f08c379a0000000000000000000000000000000000000000000000000000000008152600401610dd790611c4a565b60405180910390fd5b600060025411610e25576040517f08c379a0000000000000000000000000000000000000000000000000000000008152600401610e1c90611b8a565b60405180910390fd5b60005b6004600083815260200190815260200160002080549050811015610f1657600460008381526020019081526020016000208181548110610e6b57610e6a611f98565b5b9060005260206000200160009054906101000a900473ffffffffffffffffffffffffffffffffffffffff1673ffffffffffffffffffffffffffffffffffffffff168373ffffffffffffffffffffffffffffffffffffffff1614610f03576040517f08c379a0000000000000000000000000000000000000000000000000000000008152600401610efa90611b2a565b60405180910390fd5b8080610f0e90611ef1565b915050610e28565b50600060036000838152602001908152602001600020604051806101400160405290816000820154815260200160018201548152602001600282018054610f5c90611e8e565b80601f0160208091040260200160405190810160405280929190818152602001828054610f8890611e8e565b8015610fd55780601f10610faa57610100808354040283529160200191610fd5565b820191906000526020600020905b815481529060010190602001808311610fb857829003601f168201915b50505050508152602001600382018054610fee90611e8e565b80601f016020809104026020016040519081016040528092919081815260200182805461101a90611e8e565b80156110675780601f1061103c57610100808354040283529160200191611067565b820191906000526020600020905b81548152906001019060200180831161104a57829003601f168201915b5050505050815260200160048201548152602001600582018054806020026020016040519081016040528092919081815260200182805480156110ff57602002820191906000526020600020905b8160009054906101000a900473ffffffffffffffffffffffffffffffffffffffff1673ffffffffffffffffffffffffffffffffffffffff16815260200190600101908083116110b5575b505050505081526020016006820180548060200260200160405190810160405280929190818152602001828054801561115757602002820191906000526020600020905b815481526020019060010190808311611143575b5050505050815260200160078201548152602001600882015481526020016009820160009054906101000a900473ffffffffffffffffffffffffffffffffffffffff1673ffffffffffffffffffffffffffffffffffffffff1673ffffffffffffffffffffffffffffffffffffffff1681525050905060046000838152602001908152602001600020339080600181540180825580915050600190039060005260206000200160009091909190916101000a81548173ffffffffffffffffffffffffffffffffffffffff021916908373ffffffffffffffffffffffffffffffffffffffff16021790555080608001805180919061125290611ef1565b8152505080600360008481526020019081526020016000206000820151816000015560208201518160010155604082015181600201908051906020019061129a929190611475565b5060608201518160030190805190602001906112b7929190611475565b506080820151816004015560a08201518160050190805190602001906112de9291906114fb565b5060c08201518160060190805190602001906112fb929190611585565b5060e0820151816007015561010082015181600801556101208201518160090160006101000a81548173ffffffffffffffffffffffffffffffffffffffff021916908373ffffffffffffffffffffffffffffffffffffffff16021790555090505060008054906101000a900473ffffffffffffffffffffffffffffffffffffffff1673ffffffffffffffffffffffffffffffffffffffff1663e96428a7336005600086815260200190815260200160002060009054906101000a900473ffffffffffffffffffffffffffffffffffffffff1684604001516040518463ffffffff1660e01b81526004016113f093929190611a85565b600060405180830381600087803b15801561140a57600080fd5b505af115801561141e573d6000803e3d6000fd5b50505050505050565b6004602052816000526040600020818154811061144357600080fd5b906000526020600020016000915091509054906101000a900473ffffffffffffffffffffffffffffffffffffffff1681565b82805461148190611e8e565b90600052602060002090601f0160209004810192826114a357600085556114ea565b82601f106114bc57805160ff19168380011785556114ea565b828001600101855582156114ea579182015b828111156114e95782518255916020019190600101906114ce565b5b5090506114f791906115d2565b5090565b828054828255906000526020600020908101928215611574579160200282015b828111156115735782518260006101000a81548173ffffffffffffffffffffffffffffffffffffffff021916908373ffffffffffffffffffffffffffffffffffffffff1602179055509160200191906001019061151b565b5b50905061158191906115d2565b5090565b8280548282559060005260206000209081019282156115c1579160200282015b828111156115c05782518255916020019190600101906115a5565b5b5090506115ce91906115d2565b5090565b5b808211156115eb5760008160009055506001016115d3565b5090565b60006116026115fd84611d97565b611d72565b9050808382526020820190508285602086028201111561162557611624611ffb565b5b60005b85811015611655578161163b88826116a1565b845260208401935060208301925050600181019050611628565b5050509392505050565b600061167261166d84611dc3565b611d72565b90508281526020810184848401111561168e5761168d612000565b5b611699848285611e4c565b509392505050565b6000813590506116b081612278565b92915050565b600082601f8301126116cb576116ca611ff6565b5b81356116db8482602086016115ef565b91505092915050565b600082601f8301126116f9576116f8611ff6565b5b813561170984826020860161165f565b91505092915050565b6000813590506117218161228f565b92915050565b60008060008060008060c087890312156117445761174361200a565b5b600061175289828a016116a1565b965050602087013567ffffffffffffffff81111561177357611772612005565b5b61177f89828a016116e4565b955050604087013567ffffffffffffffff8111156117a05761179f612005565b5b6117ac89828a016116e4565b945050606087013567ffffffffffffffff8111156117cd576117cc612005565b5b6117d989828a016116b6565b93505060806117ea89828a01611712565b92505060a06117fb89828a01611712565b9150509295509295509295565b6000806040838503121561181f5761181e61200a565b5b600061182d858286016116a1565b925050602061183e85828601611712565b9150509250929050565b60006020828403121561185e5761185d61200a565b5b600061186c84828501611712565b91505092915050565b6000806040838503121561188c5761188b61200a565b5b600061189a85828601611712565b92505060206118ab85828601611712565b9150509250929050565b6118be81611e10565b82525050565b60006118cf82611df4565b6118d98185611dff565b93506118e9818560208601611e5b565b6118f28161200f565b840191505092915050565b600061190a602683611dff565b915061191582612020565b604082019050919050565b600061192d602183611dff565b91506119388261206f565b604082019050919050565b6000611950602683611dff565b915061195b826120be565b604082019050919050565b6000611973601783611dff565b915061197e8261210d565b602082019050919050565b6000611996601783611dff565b91506119a182612136565b602082019050919050565b60006119b9602383611dff565b91506119c48261215f565b604082019050919050565b60006119dc601e83611dff565b91506119e7826121ae565b602082019050919050565b60006119ff601e83611dff565b9150611a0a826121d7565b602082019050919050565b6000611a22602783611dff565b9150611a2d82612200565b604082019050919050565b6000611a45601783611dff565b9150611a508261224f565b602082019050919050565b611a6481611e42565b82525050565b6000602082019050611a7f60008301846118b5565b92915050565b6000606082019050611a9a60008301866118b5565b611aa760208301856118b5565b8181036040830152611ab981846118c4565b9050949350505050565b6000606082019050611ad860008301866118b5565b8181036020830152611aea81856118c4565b90508181036040830152611afe81846118c4565b9050949350505050565b60006020820190508181036000830152611b2281846118c4565b905092915050565b60006020820190508181036000830152611b43816118fd565b9050919050565b60006020820190508181036000830152611b6381611920565b9050919050565b60006020820190508181036000830152611b8381611943565b9050919050565b60006020820190508181036000830152611ba381611966565b9050919050565b60006020820190508181036000830152611bc381611989565b9050919050565b60006020820190508181036000830152611be3816119ac565b9050919050565b60006020820190508181036000830152611c03816119cf565b9050919050565b60006020820190508181036000830152611c23816119f2565b9050919050565b60006020820190508181036000830152611c4381611a15565b9050919050565b60006020820190508181036000830152611c6381611a38565b9050919050565b6000602082019050611c7f6000830184611a5b565b92915050565b600060a082019050611c9a6000830188611a5b565b611ca76020830187611a5b565b8181036040830152611cb981866118c4565b90508181036060830152611ccd81856118c4565b9050611cdc60808301846118b5565b9695505050505050565b600061010082019050611cfc600083018b611a5b565b611d09602083018a611a5b565b8181036040830152611d1b81896118c4565b90508181036060830152611d2f81886118c4565b9050611d3e6080830187611a5b565b611d4b60a0830186611a5b565b611d5860c0830185611a5b565b611d6560e08301846118b5565b9998505050505050505050565b6000611d7c611d8d565b9050611d888282611ec0565b919050565b6000604051905090565b600067ffffffffffffffff821115611db257611db1611fc7565b5b602082029050602081019050919050565b600067ffffffffffffffff821115611dde57611ddd611fc7565b5b611de78261200f565b9050602081019050919050565b600081519050919050565b600082825260208201905092915050565b6000611e1b82611e22565b9050919050565b600073ffffffffffffffffffffffffffffffffffffffff82169050919050565b6000819050919050565b82818337600083830152505050565b60005b83811015611e79578082015181840152602081019050611e5e565b83811115611e88576000848401525b50505050565b60006002820490506001821680611ea657607f821691505b60208210811415611eba57611eb9611f69565b5b50919050565b611ec98261200f565b810181811067ffffffffffffffff82111715611ee857611ee7611fc7565b5b80604052505050565b6000611efc82611e42565b91507fffffffffffffffffffffffffffffffffffffffffffffffffffffffffffffffff821415611f2f57611f2e611f3a565b5b600182019050919050565b7f4e487b7100000000000000000000000000000000000000000000000000000000600052601160045260246000fd5b7f4e487b7100000000000000000000000000000000000000000000000000000000600052602260045260246000fd5b7f4e487b7100000000000000000000000000000000000000000000000000000000600052603260045260246000fd5b7f4e487b7100000000000000000000000000000000000000000000000000000000600052604160045260246000fd5b600080fd5b600080fd5b600080fd5b600080fd5b600080fd5b6000601f19601f8301169050919050565b7f4572726f723a206c696b65722068617320616c7265616479206c696b6564206160008201527f63636f756e740000000000000000000000000000000000000000000000000000602082015250565b7f4572726f723a2063616e6e6f74206c696b65206f6e652773206f776e206d656d60008201527f6500000000000000000000000000000000000000000000000000000000000000602082015250565b7f4572726f723a206c696b6572206d757374206265206f7065726174696e67206160008201527f63636f756e740000000000000000000000000000000000000000000000000000602082015250565b7f4572726f723a204d656d65206d75737420657869737433000000000000000000600082015250565b7f4572726f723a204d656d65206d75737420657869737431000000000000000000600082015250565b7f4572726f723a20617574686f72206164647265737320646f65736e277420657860008201527f6973740000000000000000000000000000000000000000000000000000000000602082015250565b7f4572726f723a206d656d65206861736820646f65736e27742065786973740000600082015250565b7f4572726f723a206d656d65207465787420646f65736e27742065786973740000600082015250565b7f4572726f723a20706f73746572206d757374206265206f7065726174696e672060008201527f6163636f756e7400000000000000000000000000000000000000000000000000602082015250565b7f4572726f723a204d656d65206d75737420657869737432000000000000000000600082015250565b61228181611e10565b811461228c57600080fd5b50565b61229881611e42565b81146122a357600080fd5b5056fea2646970667358221220eb28a497c74610d2353c1153f750d3a6a88d76110f53b6aecf98c60f0352237b64736f6c63430008070033",
  "immutableReferences": {},
  "source": "// SPDX-License-Identifier: MIT\n\npragma solidity >=0.8.0 <0.9.0;\n\nimport \"./UME.sol\";\n\ncontract Timeline {\n  // public variables\n  UME private umeToken;\n  // app name\n  string public name = \"uMe\";\n  uint public memeCount = 0;\n\n\n  // mapping of Memes\n  mapping(uint => Meme) public memes; // memeId to meme map\n  /*\n  mapping(uint => uint) public memeCreation; // memeId to meme creation time\n  mapping(uint => string) public memeHashes; // memeId to memeHash\n  mapping(uint => string) public memeTexts; // memeId to memeText\n  mapping(uint => uint) public memeLikes; // memeId to like count\n  */\n  mapping(uint => address[]) public memeLikers; // memeId to likers\n  /*\n  mapping(uint => uint[]) public memeTags; // memeId to tagged, input needs to be parsed before\n  mapping(uint => uint[]) public memeResponses; // memeId to response id's\n  */\n  mapping(uint => address) public users; // memeId to user addresses\n\n  // Meme structure\n  struct Meme {\n    uint id; // number in all of timeline\n    uint time; // time of post\n    string hash; // hash of Meme\n    string text; // test of Meme\n    uint likes; // number of likes on Meme\n    //address[] likers; // list of addresses of likers\n    address[] tags; // list of id's of tagged\n    uint[] responses; // collection of id's of responses\n    uint parentId; // memeId of parent (can be self)\n    uint originId; // memeId of origin (can be self)\n    address author; // address of author\n    //bool hasLink // if Meme has link\n    //bool hasMedia; // if Meme has media\n    //string mediaHash; // address of media\n  }\n\n  event MemeCreated(\n    uint memeId,\n    uint memeTime,\n    string memeHash,\n    string memeText,\n    address author\n  );\n  event MemeLiked(\n    uint memeId,\n    uint memeTime,\n    string memeHash,\n    string memeText,\n    address author\n  );\n\n/*\n  struct Engagements {\n  // engagements to mint from\n    uint amtPosted;\n    uint amtLiked;\n    uint amtTagged;\n    uint amtFollowed;\n    uint amtResponded;\n    uint amtCurated;\n    uint amtJuried;\n  }\n*/\n  constructor(UME _umeToken) public {\n    umeToken = _umeToken;\n  }\n\n  function newMeme(address account, string memory _memeHash, string memory _memeText, address[] memory _tags, uint _parentId, uint _originId) public {\n    require(bytes(_memeHash).length > 0, 'Error: meme hash doesn\\'t exist');\n    require(bytes(_memeText).length > 0, 'Error: meme text doesn\\'t exist');\n    require(msg.sender==account, 'Error: poster must be operating account');\n    require(msg.sender != address(0x0), 'Error: author address doesn\\'t exist');\n\n    memeCount++; // increment meme id\n    if (_parentId == 0) {\n      _parentId = memeCount;\n    }\n    if (_originId == 0) {\n      _originId = 0;\n    }\n    //memeTime[memeCount] = block.timestamp; // set creation time\n    //memeHashes[memeCount] = _memeHash; // set meme hash\n    //memeTexts[memeCount] = _memeText; // set meme text\n    //memeLikes[memeCount] = 0;\n    //memeLikers[memeCount] = []; // set likers to default\n    //memeTagged[memeCount] = tags; // set tagged to tags\n    //memeResponses[memeCount] = []; // set responses to default\n\n    users[memeCount] = msg.sender; // set meme to user address\n    // map memeId to meme (if parent & origin)\n    memes[memeCount] = Meme(\n      memeCount, // meme id\n      block.timestamp, // meme time\n      _memeHash, // meme hash\n      _memeText, // meme text\n      0, // like count\n      // new address[](0), // likers\n      _tags, // tagged\n      new uint[](0), // response array\n      _parentId, // parent\n      _originId, // origin\n      msg.sender // author\n    );\n    // if responding to a single post, then mint respond token\n    if(memeCount!=_parentId && _parentId==_originId) {\n      umeToken.mintRespond(account, users[_parentId], _memeHash);\n    } // if responding to a thread, mint respond token for parent, curate token for original\n    else if(memeCount!=_parentId && _parentId!=_originId) {\n      umeToken.mintRespond(account, users[_parentId], _memeHash);\n      umeToken.mintCurate(account, users[_originId], _memeHash);\n    }\n    // mint post token\n    umeToken.mintPost(account, _memeHash, _memeText);\n\n    // mint tags\n    for(uint i = 0; i < _tags.length; i++) {\n      if(account!=_tags[i]){\n        umeToken.mintTag(account, _tags[i], _memeHash);\n      }\n    }\n\n    emit MemeCreated(memeCount, block.timestamp, _memeHash, _memeText, msg.sender);\n  }\n\n  function likeMeme(address account, uint memeId) public {\n    require(account!=users[memeId], 'Error: cannot like one\\'s own meme');\n    require(account==msg.sender, 'Error: liker must be operating account');\n    require(users[memeId]!=address(0x0), 'Error: Meme must exist1');\n    require(memes[memeId].time!=0, 'Error: Meme must exist2');\n    require(memeCount > 0, 'Error: Meme must exist3');\n\n\n    // set memory to _meme.likers length plus one\n    //address[] memory _likers = new address[](_meme.likers.length+1);\n\n    // check if account has already liked meme\n    for(uint i = 0; i < memeLikers[memeId].length; i++) {\n      require(account==memeLikers[memeId][i], 'Error: liker has already liked account');\n      //_likers[i] = _meme.likers[i];\n    }\n\n    // fetch meme from blockchain\n    Meme memory _meme = memes[memeId];\n\n    // populate address array with existing _meme.likers\n    //for(uint i = 0; i < _meme.likers.length; i++) {\n    //}\n    //if(_meme.likes==0) {\n      //_meme.likers = new address[](0);\n    //}\n/*\n    Meme memory _meme = Meme(\n      memes[memeId].id, // meme id\n      memes[memeId].time, // meme time\n      memes[memeId].hash, // meme hash\n      memes[memeId].text, // meme text\n      memes[memeId].likes, // like count\n      new address[](0), // likers\n      memes[memeId].tags, // tagged\n      memes[memeId].responses, // response array\n      memes[memeId].parentId, // parent\n      memes[memeId].originId, // origin\n      memes[memeId].author// author\n    );\n*/\n    // increment like count of particular image\n    //likeCount[memeId]++;\n    memeLikers[memeId].push(msg.sender);\n    _meme.likes++;\n    //_likers[_meme.likers.length-1] = msg.sender;\n    //_meme.likers = _likers;\n    memes[memeId] = _meme;\n\n    // mint like token\n    umeToken.mintLike(msg.sender, users[memeId], _meme.hash);\n  }\n}\n",
  "sourcePath": "/Users/jaiq/Documents/000 BLOCKCHAIN/ETH/uMe/src/contracts/Timeline.sol",
  "compiler": {
    "name": "solc",
    "version": "0.8.7+commit.e28d00a7.Emscripten.clang"
  },
  "schemaVersion": "3.4.3",
  "updatedAt": "2021-08-20T19:57:48.981Z",
  "networkType": "ethereum",
  "devdoc": {
    "kind": "dev",
    "methods": {},
    "version": 1
  },
  "userdoc": {
    "kind": "user",
    "methods": {},
    "version": 1
  }
}