{
  "contractName": "UME",
  "abi": [
    {
      "inputs": [],
      "stateMutability": "payable",
      "type": "constructor"
    },
    {
      "anonymous": false,
      "inputs": [
        {
          "indexed": true,
          "internalType": "address",
          "name": "owner",
          "type": "address"
        },
        {
          "indexed": true,
          "internalType": "address",
          "name": "spender",
          "type": "address"
        },
        {
          "indexed": false,
          "internalType": "uint256",
          "name": "value",
          "type": "uint256"
        }
      ],
      "name": "Approval",
      "type": "event"
    },
    {
      "anonymous": false,
      "inputs": [
        {
          "indexed": true,
          "internalType": "address",
          "name": "from",
          "type": "address"
        },
        {
          "indexed": true,
          "internalType": "address",
          "name": "to",
          "type": "address"
        }
      ],
      "name": "BoostSignerChanged",
      "type": "event"
    },
    {
      "anonymous": false,
      "inputs": [
        {
          "indexed": true,
          "internalType": "address",
          "name": "from",
          "type": "address"
        },
        {
          "indexed": true,
          "internalType": "address",
          "name": "to",
          "type": "address"
        }
      ],
      "name": "FollowSignerChanged",
      "type": "event"
    },
    {
      "anonymous": false,
      "inputs": [
        {
          "indexed": true,
          "internalType": "address",
          "name": "from",
          "type": "address"
        },
        {
          "indexed": true,
          "internalType": "address",
          "name": "to",
          "type": "address"
        }
      ],
      "name": "LikeSignerChanged",
      "type": "event"
    },
    {
      "anonymous": false,
      "inputs": [
        {
          "indexed": true,
          "internalType": "address",
          "name": "from",
          "type": "address"
        },
        {
          "indexed": true,
          "internalType": "address",
          "name": "to",
          "type": "address"
        }
      ],
      "name": "MemeFactorySignerChanged",
      "type": "event"
    },
    {
      "anonymous": false,
      "inputs": [
        {
          "indexed": true,
          "internalType": "address",
          "name": "account",
          "type": "address"
        },
        {
          "indexed": false,
          "internalType": "uint256",
          "name": "time",
          "type": "uint256"
        },
        {
          "indexed": false,
          "internalType": "uint256",
          "name": "amount",
          "type": "uint256"
        },
        {
          "indexed": false,
          "internalType": "string",
          "name": "flag",
          "type": "string"
        }
      ],
      "name": "Minted",
      "type": "event"
    },
    {
      "anonymous": false,
      "inputs": [
        {
          "indexed": true,
          "internalType": "address",
          "name": "from",
          "type": "address"
        },
        {
          "indexed": true,
          "internalType": "address",
          "name": "to",
          "type": "address"
        }
      ],
      "name": "PostSignerChanged",
      "type": "event"
    },
    {
      "anonymous": false,
      "inputs": [
        {
          "indexed": true,
          "internalType": "address",
          "name": "from",
          "type": "address"
        },
        {
          "indexed": true,
          "internalType": "address",
          "name": "to",
          "type": "address"
        },
        {
          "indexed": false,
          "internalType": "uint256",
          "name": "value",
          "type": "uint256"
        }
      ],
      "name": "Transfer",
      "type": "event"
    },
    {
      "anonymous": false,
      "inputs": [
        {
          "indexed": true,
          "internalType": "address",
          "name": "from",
          "type": "address"
        },
        {
          "indexed": true,
          "internalType": "address",
          "name": "to",
          "type": "address"
        }
      ],
      "name": "ValueSignerChanged",
      "type": "event"
    },
    {
      "inputs": [
        {
          "internalType": "address",
          "name": "owner",
          "type": "address"
        },
        {
          "internalType": "address",
          "name": "spender",
          "type": "address"
        }
      ],
      "name": "allowance",
      "outputs": [
        {
          "internalType": "uint256",
          "name": "",
          "type": "uint256"
        }
      ],
      "stateMutability": "view",
      "type": "function"
    },
    {
      "inputs": [
        {
          "internalType": "address",
          "name": "spender",
          "type": "address"
        },
        {
          "internalType": "uint256",
          "name": "amount",
          "type": "uint256"
        }
      ],
      "name": "approve",
      "outputs": [
        {
          "internalType": "bool",
          "name": "",
          "type": "bool"
        }
      ],
      "stateMutability": "nonpayable",
      "type": "function"
    },
    {
      "inputs": [
        {
          "internalType": "address",
          "name": "account",
          "type": "address"
        }
      ],
      "name": "balanceOf",
      "outputs": [
        {
          "internalType": "uint256",
          "name": "",
          "type": "uint256"
        }
      ],
      "stateMutability": "view",
      "type": "function"
    },
    {
      "inputs": [],
      "name": "boostSigner",
      "outputs": [
        {
          "internalType": "address",
          "name": "",
          "type": "address"
        }
      ],
      "stateMutability": "view",
      "type": "function"
    },
    {
      "inputs": [],
      "name": "curateFromValue",
      "outputs": [
        {
          "internalType": "uint256",
          "name": "",
          "type": "uint256"
        }
      ],
      "stateMutability": "view",
      "type": "function"
    },
    {
      "inputs": [],
      "name": "curateToValue",
      "outputs": [
        {
          "internalType": "uint256",
          "name": "",
          "type": "uint256"
        }
      ],
      "stateMutability": "view",
      "type": "function"
    },
    {
      "inputs": [],
      "name": "decimals",
      "outputs": [
        {
          "internalType": "uint8",
          "name": "",
          "type": "uint8"
        }
      ],
      "stateMutability": "view",
      "type": "function"
    },
    {
      "inputs": [
        {
          "internalType": "address",
          "name": "spender",
          "type": "address"
        },
        {
          "internalType": "uint256",
          "name": "subtractedValue",
          "type": "uint256"
        }
      ],
      "name": "decreaseAllowance",
      "outputs": [
        {
          "internalType": "bool",
          "name": "",
          "type": "bool"
        }
      ],
      "stateMutability": "nonpayable",
      "type": "function"
    },
    {
      "inputs": [],
      "name": "followFromValue",
      "outputs": [
        {
          "internalType": "uint256",
          "name": "",
          "type": "uint256"
        }
      ],
      "stateMutability": "view",
      "type": "function"
    },
    {
      "inputs": [],
      "name": "followSigner",
      "outputs": [
        {
          "internalType": "address",
          "name": "",
          "type": "address"
        }
      ],
      "stateMutability": "view",
      "type": "function"
    },
    {
      "inputs": [],
      "name": "followToValue",
      "outputs": [
        {
          "internalType": "uint256",
          "name": "",
          "type": "uint256"
        }
      ],
      "stateMutability": "view",
      "type": "function"
    },
    {
      "inputs": [
        {
          "internalType": "address",
          "name": "spender",
          "type": "address"
        },
        {
          "internalType": "uint256",
          "name": "addedValue",
          "type": "uint256"
        }
      ],
      "name": "increaseAllowance",
      "outputs": [
        {
          "internalType": "bool",
          "name": "",
          "type": "bool"
        }
      ],
      "stateMutability": "nonpayable",
      "type": "function"
    },
    {
      "inputs": [],
      "name": "likeFromValue",
      "outputs": [
        {
          "internalType": "uint256",
          "name": "",
          "type": "uint256"
        }
      ],
      "stateMutability": "view",
      "type": "function"
    },
    {
      "inputs": [],
      "name": "likeSigner",
      "outputs": [
        {
          "internalType": "address",
          "name": "",
          "type": "address"
        }
      ],
      "stateMutability": "view",
      "type": "function"
    },
    {
      "inputs": [],
      "name": "likeToValue",
      "outputs": [
        {
          "internalType": "uint256",
          "name": "",
          "type": "uint256"
        }
      ],
      "stateMutability": "view",
      "type": "function"
    },
    {
      "inputs": [],
      "name": "memeFactorySigner",
      "outputs": [
        {
          "internalType": "address",
          "name": "",
          "type": "address"
        }
      ],
      "stateMutability": "view",
      "type": "function"
    },
    {
      "inputs": [],
      "name": "name",
      "outputs": [
        {
          "internalType": "string",
          "name": "",
          "type": "string"
        }
      ],
      "stateMutability": "view",
      "type": "function"
    },
    {
      "inputs": [],
      "name": "postSigner",
      "outputs": [
        {
          "internalType": "address",
          "name": "",
          "type": "address"
        }
      ],
      "stateMutability": "view",
      "type": "function"
    },
    {
      "inputs": [],
      "name": "postValue",
      "outputs": [
        {
          "internalType": "uint256",
          "name": "",
          "type": "uint256"
        }
      ],
      "stateMutability": "view",
      "type": "function"
    },
    {
      "inputs": [],
      "name": "repostFromValue",
      "outputs": [
        {
          "internalType": "uint256",
          "name": "",
          "type": "uint256"
        }
      ],
      "stateMutability": "view",
      "type": "function"
    },
    {
      "inputs": [],
      "name": "repostToValue",
      "outputs": [
        {
          "internalType": "uint256",
          "name": "",
          "type": "uint256"
        }
      ],
      "stateMutability": "view",
      "type": "function"
    },
    {
      "inputs": [],
      "name": "respondFromValue",
      "outputs": [
        {
          "internalType": "uint256",
          "name": "",
          "type": "uint256"
        }
      ],
      "stateMutability": "view",
      "type": "function"
    },
    {
      "inputs": [],
      "name": "respondToValue",
      "outputs": [
        {
          "internalType": "uint256",
          "name": "",
          "type": "uint256"
        }
      ],
      "stateMutability": "view",
      "type": "function"
    },
    {
      "inputs": [],
      "name": "symbol",
      "outputs": [
        {
          "internalType": "string",
          "name": "",
          "type": "string"
        }
      ],
      "stateMutability": "view",
      "type": "function"
    },
    {
      "inputs": [],
      "name": "tagFromValue",
      "outputs": [
        {
          "internalType": "uint256",
          "name": "",
          "type": "uint256"
        }
      ],
      "stateMutability": "view",
      "type": "function"
    },
    {
      "inputs": [],
      "name": "tagToValue",
      "outputs": [
        {
          "internalType": "uint256",
          "name": "",
          "type": "uint256"
        }
      ],
      "stateMutability": "view",
      "type": "function"
    },
    {
      "inputs": [],
      "name": "totalSupply",
      "outputs": [
        {
          "internalType": "uint256",
          "name": "",
          "type": "uint256"
        }
      ],
      "stateMutability": "view",
      "type": "function"
    },
    {
      "inputs": [
        {
          "internalType": "address",
          "name": "recipient",
          "type": "address"
        },
        {
          "internalType": "uint256",
          "name": "amount",
          "type": "uint256"
        }
      ],
      "name": "transfer",
      "outputs": [
        {
          "internalType": "bool",
          "name": "",
          "type": "bool"
        }
      ],
      "stateMutability": "nonpayable",
      "type": "function"
    },
    {
      "inputs": [
        {
          "internalType": "address",
          "name": "sender",
          "type": "address"
        },
        {
          "internalType": "address",
          "name": "recipient",
          "type": "address"
        },
        {
          "internalType": "uint256",
          "name": "amount",
          "type": "uint256"
        }
      ],
      "name": "transferFrom",
      "outputs": [
        {
          "internalType": "bool",
          "name": "",
          "type": "bool"
        }
      ],
      "stateMutability": "nonpayable",
      "type": "function"
    },
    {
      "inputs": [],
      "name": "valueSigner",
      "outputs": [
        {
          "internalType": "address",
          "name": "",
          "type": "address"
        }
      ],
      "stateMutability": "view",
      "type": "function"
    },
    {
      "inputs": [
        {
          "internalType": "address",
          "name": "_account",
          "type": "address"
        },
        {
          "internalType": "string",
          "name": "_postText",
          "type": "string"
        }
      ],
      "name": "mintPost",
      "outputs": [],
      "stateMutability": "nonpayable",
      "type": "function"
    },
    {
      "inputs": [
        {
          "internalType": "address",
          "name": "_from",
          "type": "address"
        },
        {
          "internalType": "address",
          "name": "_to",
          "type": "address"
        }
      ],
      "name": "mintLike",
      "outputs": [],
      "stateMutability": "nonpayable",
      "type": "function"
    },
    {
      "inputs": [
        {
          "internalType": "address",
          "name": "_from",
          "type": "address"
        },
        {
          "internalType": "address",
          "name": "_to",
          "type": "address"
        }
      ],
      "name": "mintTag",
      "outputs": [],
      "stateMutability": "nonpayable",
      "type": "function"
    },
    {
      "inputs": [
        {
          "internalType": "address",
          "name": "_from",
          "type": "address"
        },
        {
          "internalType": "address",
          "name": "_to",
          "type": "address"
        }
      ],
      "name": "mintFollow",
      "outputs": [],
      "stateMutability": "nonpayable",
      "type": "function"
    },
    {
      "inputs": [
        {
          "internalType": "address",
          "name": "_from",
          "type": "address"
        },
        {
          "internalType": "address",
          "name": "_to",
          "type": "address"
        }
      ],
      "name": "mintRespond",
      "outputs": [],
      "stateMutability": "nonpayable",
      "type": "function"
    },
    {
      "inputs": [
        {
          "internalType": "address",
          "name": "_from",
          "type": "address"
        },
        {
          "internalType": "address",
          "name": "_to",
          "type": "address"
        }
      ],
      "name": "mintCurate",
      "outputs": [],
      "stateMutability": "nonpayable",
      "type": "function"
    },
    {
      "inputs": [
        {
          "internalType": "address",
          "name": "_from",
          "type": "address"
        },
        {
          "internalType": "address",
          "name": "_to",
          "type": "address"
        }
      ],
      "name": "mintRepost",
      "outputs": [],
      "stateMutability": "nonpayable",
      "type": "function"
    },
    {
      "inputs": [
        {
          "internalType": "address",
          "name": "_account",
          "type": "address"
        },
        {
          "internalType": "uint256",
          "name": "_amount",
          "type": "uint256"
        }
      ],
      "name": "burn",
      "outputs": [],
      "stateMutability": "nonpayable",
      "type": "function"
    },
    {
      "inputs": [
        {
          "internalType": "uint256",
          "name": "_value",
          "type": "uint256"
        }
      ],
      "name": "setPostValue",
      "outputs": [],
      "stateMutability": "nonpayable",
      "type": "function"
    },
    {
      "inputs": [
        {
          "internalType": "uint256",
          "name": "_value",
          "type": "uint256"
        }
      ],
      "name": "setLikeFromValue",
      "outputs": [],
      "stateMutability": "nonpayable",
      "type": "function"
    },
    {
      "inputs": [
        {
          "internalType": "uint256",
          "name": "_value",
          "type": "uint256"
        }
      ],
      "name": "setLikeToValue",
      "outputs": [],
      "stateMutability": "nonpayable",
      "type": "function"
    },
    {
      "inputs": [
        {
          "internalType": "uint256",
          "name": "_value",
          "type": "uint256"
        }
      ],
      "name": "setTagFromValue",
      "outputs": [],
      "stateMutability": "nonpayable",
      "type": "function"
    },
    {
      "inputs": [
        {
          "internalType": "uint256",
          "name": "_value",
          "type": "uint256"
        }
      ],
      "name": "setTagToValue",
      "outputs": [],
      "stateMutability": "nonpayable",
      "type": "function"
    },
    {
      "inputs": [
        {
          "internalType": "uint256",
          "name": "_value",
          "type": "uint256"
        }
      ],
      "name": "setFollowFromValue",
      "outputs": [],
      "stateMutability": "nonpayable",
      "type": "function"
    },
    {
      "inputs": [
        {
          "internalType": "uint256",
          "name": "_value",
          "type": "uint256"
        }
      ],
      "name": "setFollowToValue",
      "outputs": [],
      "stateMutability": "nonpayable",
      "type": "function"
    },
    {
      "inputs": [
        {
          "internalType": "uint256",
          "name": "_value",
          "type": "uint256"
        }
      ],
      "name": "setRespondFromValue",
      "outputs": [],
      "stateMutability": "nonpayable",
      "type": "function"
    },
    {
      "inputs": [
        {
          "internalType": "uint256",
          "name": "_value",
          "type": "uint256"
        }
      ],
      "name": "setRespondToValue",
      "outputs": [],
      "stateMutability": "nonpayable",
      "type": "function"
    },
    {
      "inputs": [
        {
          "internalType": "uint256",
          "name": "_value",
          "type": "uint256"
        }
      ],
      "name": "setCurateFromValue",
      "outputs": [],
      "stateMutability": "nonpayable",
      "type": "function"
    },
    {
      "inputs": [
        {
          "internalType": "uint256",
          "name": "_value",
          "type": "uint256"
        }
      ],
      "name": "setCurateToValue",
      "outputs": [],
      "stateMutability": "nonpayable",
      "type": "function"
    },
    {
      "inputs": [
        {
          "internalType": "uint256",
          "name": "_value",
          "type": "uint256"
        }
      ],
      "name": "setRepostFromValue",
      "outputs": [],
      "stateMutability": "nonpayable",
      "type": "function"
    },
    {
      "inputs": [
        {
          "internalType": "uint256",
          "name": "_value",
          "type": "uint256"
        }
      ],
      "name": "setRepostToValue",
      "outputs": [],
      "stateMutability": "nonpayable",
      "type": "function"
    },
    {
      "inputs": [
        {
          "internalType": "address",
          "name": "_post",
          "type": "address"
        }
      ],
      "name": "passPostSignerRole",
      "outputs": [
        {
          "internalType": "bool",
          "name": "",
          "type": "bool"
        }
      ],
      "stateMutability": "nonpayable",
      "type": "function"
    },
    {
      "inputs": [
        {
          "internalType": "address",
          "name": "_memeFactory",
          "type": "address"
        }
      ],
      "name": "passMemeFactorySignerRole",
      "outputs": [
        {
          "internalType": "bool",
          "name": "",
          "type": "bool"
        }
      ],
      "stateMutability": "nonpayable",
      "type": "function"
    },
    {
      "inputs": [
        {
          "internalType": "address",
          "name": "_like",
          "type": "address"
        }
      ],
      "name": "passLikeSignerRole",
      "outputs": [
        {
          "internalType": "bool",
          "name": "",
          "type": "bool"
        }
      ],
      "stateMutability": "nonpayable",
      "type": "function"
    },
    {
      "inputs": [
        {
          "internalType": "address",
          "name": "_follow",
          "type": "address"
        }
      ],
      "name": "passFollowSignerRole",
      "outputs": [
        {
          "internalType": "bool",
          "name": "",
          "type": "bool"
        }
      ],
      "stateMutability": "nonpayable",
      "type": "function"
    },
    {
      "inputs": [
        {
          "internalType": "address",
          "name": "_boost",
          "type": "address"
        }
      ],
      "name": "passBoostSignerRole",
      "outputs": [
        {
          "internalType": "bool",
          "name": "",
          "type": "bool"
        }
      ],
      "stateMutability": "nonpayable",
      "type": "function"
    },
    {
      "inputs": [
        {
          "internalType": "address",
          "name": "_value",
          "type": "address"
        }
      ],
      "name": "passValueSignerRole",
      "outputs": [
        {
          "internalType": "bool",
          "name": "",
          "type": "bool"
        }
      ],
      "stateMutability": "nonpayable",
      "type": "function"
    }
  ],
  "bytecode": "0x6080604052676f05b59d3b200000600555671bc16d674ec80000600655674563918244f40000600755670de0b6b3a76400006008556729a2241af62c0000600955670de0b6b3a7640000600a556753444835ec580000600b55671bc16d674ec80000600c55673782dace9d900000600d55671bc16d674ec80000600e55673782dace9d900000600f55674563918244f400006010556753444835ec5800006011556040518060400160405280600981526020017f754d6520746f6b656e00000000000000000000000000000000000000000000008152506040518060400160405280600381526020017f554d450000000000000000000000000000000000000000000000000000000000815250816003908051906020019062000124929190620002cc565b5080600490805190602001906200013d929190620002cc565b50505033601360006101000a81548173ffffffffffffffffffffffffffffffffffffffff021916908373ffffffffffffffffffffffffffffffffffffffff16021790555033601260006101000a81548173ffffffffffffffffffffffffffffffffffffffff021916908373ffffffffffffffffffffffffffffffffffffffff16021790555033601460006101000a81548173ffffffffffffffffffffffffffffffffffffffff021916908373ffffffffffffffffffffffffffffffffffffffff16021790555033601560006101000a81548173ffffffffffffffffffffffffffffffffffffffff021916908373ffffffffffffffffffffffffffffffffffffffff16021790555033601660006101000a81548173ffffffffffffffffffffffffffffffffffffffff021916908373ffffffffffffffffffffffffffffffffffffffff16021790555033601760006101000a81548173ffffffffffffffffffffffffffffffffffffffff021916908373ffffffffffffffffffffffffffffffffffffffff160217905550620003e1565b828054620002da90620003ab565b90600052602060002090601f016020900481019282620002fe57600085556200034a565b82601f106200031957805160ff19168380011785556200034a565b828001600101855582156200034a579182015b82811115620003495782518255916020019190600101906200032c565b5b5090506200035991906200035d565b5090565b5b80821115620003785760008160009055506001016200035e565b5090565b7f4e487b7100000000000000000000000000000000000000000000000000000000600052602260045260246000fd5b60006002820490506001821680620003c457607f821691505b60208210811415620003db57620003da6200037c565b5b50919050565b61495480620003f16000396000f3fe608060405234801561001057600080fd5b50600436106103835760003560e01c80638c98876f116101de578063bc8341951161010f578063d12269c6116100ad578063e100173e1161007c578063e100173e14610a84578063e981dc8f14610aa0578063f03952e014610abc578063f52548d414610ada57610383565b8063d12269c614610a00578063d583233314610a1c578063dbd9bc2e14610a38578063dd62ed3e14610a5457610383565b8063c72e41f6116100e9578063c72e41f614610978578063c7cb678d14610996578063c9875744146109b4578063d0449589146109e457610383565b8063bc8341951461090e578063c11f710b1461092a578063c66f1e341461095a57610383565b8063a457c2d71161017c578063ae32711511610156578063ae32711514610896578063b3bcef9f146108b4578063b85bba34146108d2578063b8e3bfb8146108f057610383565b8063a457c2d71461081a578063a9059cbb1461084a578063ad5282b51461087a57610383565b80639b3fc21a116101b85780639b3fc21a146107a85780639d3c0d16146107c45780639dc29fac146107e0578063a3e390c0146107fc57610383565b80638c98876f1461074e578063957cdee01461076c57806395d89b411461078a57610383565b8063351d3a7c116102b85780635d67597511610256578063829a262c11610230578063829a262c146106d657806385771add146106f457806386b2214614610712578063883170ea1461073057610383565b80635d6759751461066e57806370a082311461068a57806376bd8f8c146106ba57610383565b80633d165083116102925780633d165083146105d4578063533035621461060457806357a2bb29146106205780635bba8fef1461065057610383565b8063351d3a7c1461056c57806339509351146105885780633b626cba146105b857610383565b8063211f03951161032557806327dc278f116102ff57806327dc278f146104f85780632cc67a7c146105165780632d599ba514610532578063313ce5671461054e57610383565b8063211f03951461047a57806322087e881461049857806323b872dd146104c857610383565b806310bfd5f41161036157806310bfd5f4146103f457806314c5174f1461042457806318160ddd146104405780631d851eb91461045e57610383565b806306d29bfc1461038857806306fdde03146103a6578063095ea7b3146103c4575b600080fd5b610390610af6565b60405161039d91906132bb565b60405180910390f35b6103ae610afc565b6040516103bb919061336f565b60405180910390f35b6103de60048036038101906103d9919061342f565b610b8e565b6040516103eb919061348a565b60405180910390f35b61040e600480360381019061040991906134a5565b610bac565b60405161041b919061348a565b60405180910390f35b61043e600480360381019061043991906134d2565b610d04565b005b610448610d9e565b60405161045591906132bb565b60405180910390f35b610478600480360381019061047391906134d2565b610da8565b005b610482610e42565b60405161048f91906132bb565b60405180910390f35b6104b260048036038101906104ad91906134a5565b610e48565b6040516104bf919061348a565b60405180910390f35b6104e260048036038101906104dd91906134ff565b610fa0565b6040516104ef919061348a565b60405180910390f35b610500611098565b60405161050d91906132bb565b60405180910390f35b610530600480360381019061052b9190613552565b61109e565b005b61054c60048036038101906105479190613552565b6111ee565b005b61055661133e565b60405161056391906135ae565b60405180910390f35b610586600480360381019061058191906134d2565b611347565b005b6105a2600480360381019061059d919061342f565b6113e1565b6040516105af919061348a565b60405180910390f35b6105d260048036038101906105cd91906134d2565b61148d565b005b6105ee60048036038101906105e991906134a5565b611527565b6040516105fb919061348a565b60405180910390f35b61061e600480360381019061061991906134d2565b61167f565b005b61063a600480360381019061063591906134a5565b611719565b604051610647919061348a565b60405180910390f35b610658611871565b60405161066591906135d8565b60405180910390f35b610688600480360381019061068391906134d2565b611897565b005b6106a4600480360381019061069f91906134a5565b611931565b6040516106b191906132bb565b60405180910390f35b6106d460048036038101906106cf9190613728565b611979565b005b6106de611a6b565b6040516106eb91906135d8565b60405180910390f35b6106fc611a91565b60405161070991906132bb565b60405180910390f35b61071a611a97565b60405161072791906135d8565b60405180910390f35b610738611abd565b60405161074591906132bb565b60405180910390f35b610756611ac3565b60405161076391906135d8565b60405180910390f35b610774611ae9565b60405161078191906132bb565b60405180910390f35b610792611aef565b60405161079f919061336f565b60405180910390f35b6107c260048036038101906107bd91906134d2565b611b81565b005b6107de60048036038101906107d991906134d2565b611c1b565b005b6107fa60048036038101906107f5919061342f565b611cb5565b005b610804611dab565b60405161081191906132bb565b60405180910390f35b610834600480360381019061082f919061342f565b611db1565b604051610841919061348a565b60405180910390f35b610864600480360381019061085f919061342f565b611e9c565b604051610871919061348a565b60405180910390f35b610894600480360381019061088f91906134d2565b611eba565b005b61089e611f54565b6040516108ab91906132bb565b60405180910390f35b6108bc611f5a565b6040516108c991906132bb565b60405180910390f35b6108da611f60565b6040516108e791906135d8565b60405180910390f35b6108f8611f86565b60405161090591906135d8565b60405180910390f35b61092860048036038101906109239190613552565b611fac565b005b610944600480360381019061093f91906134a5565b612131565b604051610951919061348a565b60405180910390f35b610962612289565b60405161096f91906132bb565b60405180910390f35b61098061228f565b60405161098d91906132bb565b60405180910390f35b61099e612295565b6040516109ab91906132bb565b60405180910390f35b6109ce60048036038101906109c991906134a5565b61229b565b6040516109db919061348a565b60405180910390f35b6109fe60048036038101906109f99190613552565b6123f3565b005b610a1a6004803603810190610a1591906134d2565b612543565b005b610a366004803603810190610a3191906134d2565b6125dd565b005b610a526004803603810190610a4d91906134d2565b612677565b005b610a6e6004803603810190610a699190613552565b612711565b604051610a7b91906132bb565b60405180910390f35b610a9e6004803603810190610a9991906134d2565b612798565b005b610aba6004803603810190610ab59190613552565b612832565b005b610ac46129b7565b604051610ad191906132bb565b60405180910390f35b610af46004803603810190610aef9190613552565b6129bd565b005b60055481565b606060038054610b0b906137b3565b80601f0160208091040260200160405190810160405280929190818152602001828054610b37906137b3565b8015610b845780601f10610b5957610100808354040283529160200191610b84565b820191906000526020600020905b815481529060010190602001808311610b6757829003601f168201915b5050505050905090565b6000610ba2610b9b612b0d565b8484612b15565b6001905092915050565b6000601660009054906101000a900473ffffffffffffffffffffffffffffffffffffffff1673ffffffffffffffffffffffffffffffffffffffff163373ffffffffffffffffffffffffffffffffffffffff1614610c3e576040517f08c379a0000000000000000000000000000000000000000000000000000000008152600401610c3590613857565b60405180910390fd5b81601660006101000a81548173ffffffffffffffffffffffffffffffffffffffff021916908373ffffffffffffffffffffffffffffffffffffffff160217905550601660009054906101000a900473ffffffffffffffffffffffffffffffffffffffff1673ffffffffffffffffffffffffffffffffffffffff163373ffffffffffffffffffffffffffffffffffffffff167f6892a8923ec61e89beaa10370e660884074b3bec292be12802599cf655bba75260405160405180910390a360019050919050565b601760009054906101000a900473ffffffffffffffffffffffffffffffffffffffff1673ffffffffffffffffffffffffffffffffffffffff163373ffffffffffffffffffffffffffffffffffffffff1614610d94576040517f08c379a0000000000000000000000000000000000000000000000000000000008152600401610d8b906138e9565b60405180910390fd5b80600c8190555050565b6000600254905090565b601760009054906101000a900473ffffffffffffffffffffffffffffffffffffffff1673ffffffffffffffffffffffffffffffffffffffff163373ffffffffffffffffffffffffffffffffffffffff1614610e38576040517f08c379a0000000000000000000000000000000000000000000000000000000008152600401610e2f906138e9565b60405180910390fd5b80600a8190555050565b60085481565b6000601360009054906101000a900473ffffffffffffffffffffffffffffffffffffffff1673ffffffffffffffffffffffffffffffffffffffff163373ffffffffffffffffffffffffffffffffffffffff1614610eda576040517f08c379a0000000000000000000000000000000000000000000000000000000008152600401610ed19061397b565b60405180910390fd5b81601360006101000a81548173ffffffffffffffffffffffffffffffffffffffff021916908373ffffffffffffffffffffffffffffffffffffffff160217905550601360009054906101000a900473ffffffffffffffffffffffffffffffffffffffff1673ffffffffffffffffffffffffffffffffffffffff163373ffffffffffffffffffffffffffffffffffffffff167f76ce921e20c471c95deae34d20d53706ec4378ecab394e517f73aef912ae6cdd60405160405180910390a360019050919050565b6000610fad848484612ce0565b6000600160008673ffffffffffffffffffffffffffffffffffffffff1673ffffffffffffffffffffffffffffffffffffffff1681526020019081526020016000206000610ff8612b0d565b73ffffffffffffffffffffffffffffffffffffffff1673ffffffffffffffffffffffffffffffffffffffff16815260200190815260200160002054905082811015611078576040517f08c379a000000000000000000000000000000000000000000000000000000000815260040161106f90613a0d565b60405180910390fd5b61108c85611084612b0d565b858403612b15565b60019150509392505050565b600a5481565b3373ffffffffffffffffffffffffffffffffffffffff16601260009054906101000a900473ffffffffffffffffffffffffffffffffffffffff1673ffffffffffffffffffffffffffffffffffffffff161461112e576040517f08c379a000000000000000000000000000000000000000000000000000000000815260040161112590613a9f565b60405180910390fd5b61113a82600954612f61565b8173ffffffffffffffffffffffffffffffffffffffff167ff2cb5e52049d127ad1c335f1cc25f2fdbc911bec1beb2611f4c1e8b1c274d4b442600954604051611184929190613b0b565b60405180910390a261119881600854612f61565b8073ffffffffffffffffffffffffffffffffffffffff167ff2cb5e52049d127ad1c335f1cc25f2fdbc911bec1beb2611f4c1e8b1c274d4b4426008546040516111e2929190613b0b565b60405180910390a25050565b3373ffffffffffffffffffffffffffffffffffffffff16601560009054906101000a900473ffffffffffffffffffffffffffffffffffffffff1673ffffffffffffffffffffffffffffffffffffffff161461127e576040517f08c379a000000000000000000000000000000000000000000000000000000000815260040161127590613b93565b60405180910390fd5b61128a82600a54612f61565b8173ffffffffffffffffffffffffffffffffffffffff167ff2cb5e52049d127ad1c335f1cc25f2fdbc911bec1beb2611f4c1e8b1c274d4b442600a546040516112d4929190613bff565b60405180910390a26112e881600b54612f61565b8073ffffffffffffffffffffffffffffffffffffffff167ff2cb5e52049d127ad1c335f1cc25f2fdbc911bec1beb2611f4c1e8b1c274d4b442600b54604051611332929190613bff565b60405180910390a25050565b60006012905090565b601760009054906101000a900473ffffffffffffffffffffffffffffffffffffffff1673ffffffffffffffffffffffffffffffffffffffff163373ffffffffffffffffffffffffffffffffffffffff16146113d7576040517f08c379a00000000000000000000000000000000000000000000000000000000081526004016113ce906138e9565b60405180910390fd5b80600e8190555050565b60006114836113ee612b0d565b8484600160006113fc612b0d565b73ffffffffffffffffffffffffffffffffffffffff1673ffffffffffffffffffffffffffffffffffffffff16815260200190815260200160002060008873ffffffffffffffffffffffffffffffffffffffff1673ffffffffffffffffffffffffffffffffffffffff1681526020019081526020016000205461147e9190613c6a565b612b15565b6001905092915050565b601760009054906101000a900473ffffffffffffffffffffffffffffffffffffffff1673ffffffffffffffffffffffffffffffffffffffff163373ffffffffffffffffffffffffffffffffffffffff161461151d576040517f08c379a0000000000000000000000000000000000000000000000000000000008152600401611514906138e9565b60405180910390fd5b8060088190555050565b6000601260009054906101000a900473ffffffffffffffffffffffffffffffffffffffff1673ffffffffffffffffffffffffffffffffffffffff163373ffffffffffffffffffffffffffffffffffffffff16146115b9576040517f08c379a00000000000000000000000000000000000000000000000000000000081526004016115b090613d32565b60405180910390fd5b81601260006101000a81548173ffffffffffffffffffffffffffffffffffffffff021916908373ffffffffffffffffffffffffffffffffffffffff160217905550601260009054906101000a900473ffffffffffffffffffffffffffffffffffffffff1673ffffffffffffffffffffffffffffffffffffffff163373ffffffffffffffffffffffffffffffffffffffff167f76ce921e20c471c95deae34d20d53706ec4378ecab394e517f73aef912ae6cdd60405160405180910390a360019050919050565b601760009054906101000a900473ffffffffffffffffffffffffffffffffffffffff1673ffffffffffffffffffffffffffffffffffffffff163373ffffffffffffffffffffffffffffffffffffffff161461170f576040517f08c379a0000000000000000000000000000000000000000000000000000000008152600401611706906138e9565b60405180910390fd5b80600f8190555050565b6000601560009054906101000a900473ffffffffffffffffffffffffffffffffffffffff1673ffffffffffffffffffffffffffffffffffffffff163373ffffffffffffffffffffffffffffffffffffffff16146117ab576040517f08c379a00000000000000000000000000000000000000000000000000000000081526004016117a290613dc4565b60405180910390fd5b81601560006101000a81548173ffffffffffffffffffffffffffffffffffffffff021916908373ffffffffffffffffffffffffffffffffffffffff160217905550601560009054906101000a900473ffffffffffffffffffffffffffffffffffffffff1673ffffffffffffffffffffffffffffffffffffffff163373ffffffffffffffffffffffffffffffffffffffff167f317b209d0dca6ddb6667f7c47d488a9708cc0e7befa4cde41a104b125a1d9ef660405160405180910390a360019050919050565b601660009054906101000a900473ffffffffffffffffffffffffffffffffffffffff1681565b601760009054906101000a900473ffffffffffffffffffffffffffffffffffffffff1673ffffffffffffffffffffffffffffffffffffffff163373ffffffffffffffffffffffffffffffffffffffff1614611927576040517f08c379a000000000000000000000000000000000000000000000000000000000815260040161191e906138e9565b60405180910390fd5b80600b8190555050565b60008060008373ffffffffffffffffffffffffffffffffffffffff1673ffffffffffffffffffffffffffffffffffffffff168152602001908152602001600020549050919050565b3373ffffffffffffffffffffffffffffffffffffffff16601360009054906101000a900473ffffffffffffffffffffffffffffffffffffffff1673ffffffffffffffffffffffffffffffffffffffff1614611a09576040517f08c379a0000000000000000000000000000000000000000000000000000000008152600401611a0090613e56565b60405180910390fd5b611a1582600554612f61565b8173ffffffffffffffffffffffffffffffffffffffff167ff2cb5e52049d127ad1c335f1cc25f2fdbc911bec1beb2611f4c1e8b1c274d4b442600554604051611a5f929190613ec2565b60405180910390a25050565b601460009054906101000a900473ffffffffffffffffffffffffffffffffffffffff1681565b600b5481565b601260009054906101000a900473ffffffffffffffffffffffffffffffffffffffff1681565b60115481565b601360009054906101000a900473ffffffffffffffffffffffffffffffffffffffff1681565b600f5481565b606060048054611afe906137b3565b80601f0160208091040260200160405190810160405280929190818152602001828054611b2a906137b3565b8015611b775780601f10611b4c57610100808354040283529160200191611b77565b820191906000526020600020905b815481529060010190602001808311611b5a57829003601f168201915b5050505050905090565b601760009054906101000a900473ffffffffffffffffffffffffffffffffffffffff1673ffffffffffffffffffffffffffffffffffffffff163373ffffffffffffffffffffffffffffffffffffffff1614611c11576040517f08c379a0000000000000000000000000000000000000000000000000000000008152600401611c08906138e9565b60405180910390fd5b8060068190555050565b601760009054906101000a900473ffffffffffffffffffffffffffffffffffffffff1673ffffffffffffffffffffffffffffffffffffffff163373ffffffffffffffffffffffffffffffffffffffff1614611cab576040517f08c379a0000000000000000000000000000000000000000000000000000000008152600401611ca2906138e9565b60405180910390fd5b8060118190555050565b601460009054906101000a900473ffffffffffffffffffffffffffffffffffffffff1673ffffffffffffffffffffffffffffffffffffffff163373ffffffffffffffffffffffffffffffffffffffff161480611d5e5750601660009054906101000a900473ffffffffffffffffffffffffffffffffffffffff1673ffffffffffffffffffffffffffffffffffffffff163373ffffffffffffffffffffffffffffffffffffffff16145b611d9d576040517f08c379a0000000000000000000000000000000000000000000000000000000008152600401611d9490613f70565b60405180910390fd5b611da782826130c1565b5050565b60095481565b60008060016000611dc0612b0d565b73ffffffffffffffffffffffffffffffffffffffff1673ffffffffffffffffffffffffffffffffffffffff16815260200190815260200160002060008573ffffffffffffffffffffffffffffffffffffffff1673ffffffffffffffffffffffffffffffffffffffff16815260200190815260200160002054905082811015611e7d576040517f08c379a0000000000000000000000000000000000000000000000000000000008152600401611e7490614002565b60405180910390fd5b611e91611e88612b0d565b85858403612b15565b600191505092915050565b6000611eb0611ea9612b0d565b8484612ce0565b6001905092915050565b601760009054906101000a900473ffffffffffffffffffffffffffffffffffffffff1673ffffffffffffffffffffffffffffffffffffffff163373ffffffffffffffffffffffffffffffffffffffff1614611f4a576040517f08c379a0000000000000000000000000000000000000000000000000000000008152600401611f41906138e9565b60405180910390fd5b8060078190555050565b60105481565b600d5481565b601760009054906101000a900473ffffffffffffffffffffffffffffffffffffffff1681565b601560009054906101000a900473ffffffffffffffffffffffffffffffffffffffff1681565b3373ffffffffffffffffffffffffffffffffffffffff16601260009054906101000a900473ffffffffffffffffffffffffffffffffffffffff1673ffffffffffffffffffffffffffffffffffffffff161461203c576040517f08c379a000000000000000000000000000000000000000000000000000000000815260040161203390613b93565b60405180910390fd5b61204882600c54612f61565b8173ffffffffffffffffffffffffffffffffffffffff167ff2cb5e52049d127ad1c335f1cc25f2fdbc911bec1beb2611f4c1e8b1c274d4b442600c5460405161209292919061406e565b60405180910390a2600073ffffffffffffffffffffffffffffffffffffffff168173ffffffffffffffffffffffffffffffffffffffff16146120db576120da81600d54612f61565b5b8073ffffffffffffffffffffffffffffffffffffffff167ff2cb5e52049d127ad1c335f1cc25f2fdbc911bec1beb2611f4c1e8b1c274d4b442600d546040516121259291906140f6565b60405180910390a25050565b6000601460009054906101000a900473ffffffffffffffffffffffffffffffffffffffff1673ffffffffffffffffffffffffffffffffffffffff163373ffffffffffffffffffffffffffffffffffffffff16146121c3576040517f08c379a00000000000000000000000000000000000000000000000000000000081526004016121ba906141a4565b60405180910390fd5b81601460006101000a81548173ffffffffffffffffffffffffffffffffffffffff021916908373ffffffffffffffffffffffffffffffffffffffff160217905550601460009054906101000a900473ffffffffffffffffffffffffffffffffffffffff1673ffffffffffffffffffffffffffffffffffffffff163373ffffffffffffffffffffffffffffffffffffffff167f76ce921e20c471c95deae34d20d53706ec4378ecab394e517f73aef912ae6cdd60405160405180910390a360019050919050565b600c5481565b60065481565b60075481565b6000601760009054906101000a900473ffffffffffffffffffffffffffffffffffffffff1673ffffffffffffffffffffffffffffffffffffffff163373ffffffffffffffffffffffffffffffffffffffff161461232d576040517f08c379a000000000000000000000000000000000000000000000000000000000815260040161232490614236565b60405180910390fd5b81601760006101000a81548173ffffffffffffffffffffffffffffffffffffffff021916908373ffffffffffffffffffffffffffffffffffffffff160217905550601760009054906101000a900473ffffffffffffffffffffffffffffffffffffffff1673ffffffffffffffffffffffffffffffffffffffff163373ffffffffffffffffffffffffffffffffffffffff167f6892a8923ec61e89beaa10370e660884074b3bec292be12802599cf655bba75260405160405180910390a360019050919050565b3373ffffffffffffffffffffffffffffffffffffffff16601460009054906101000a900473ffffffffffffffffffffffffffffffffffffffff1673ffffffffffffffffffffffffffffffffffffffff1614612483576040517f08c379a000000000000000000000000000000000000000000000000000000000815260040161247a906142c8565b60405180910390fd5b61248f82600754612f61565b8173ffffffffffffffffffffffffffffffffffffffff167ff2cb5e52049d127ad1c335f1cc25f2fdbc911bec1beb2611f4c1e8b1c274d4b4426006546040516124d9929190614334565b60405180910390a26124ed81600754612f61565b8073ffffffffffffffffffffffffffffffffffffffff167ff2cb5e52049d127ad1c335f1cc25f2fdbc911bec1beb2611f4c1e8b1c274d4b442600754604051612537929190614334565b60405180910390a25050565b601760009054906101000a900473ffffffffffffffffffffffffffffffffffffffff1673ffffffffffffffffffffffffffffffffffffffff163373ffffffffffffffffffffffffffffffffffffffff16146125d3576040517f08c379a00000000000000000000000000000000000000000000000000000000081526004016125ca906138e9565b60405180910390fd5b8060098190555050565b601760009054906101000a900473ffffffffffffffffffffffffffffffffffffffff1673ffffffffffffffffffffffffffffffffffffffff163373ffffffffffffffffffffffffffffffffffffffff161461266d576040517f08c379a0000000000000000000000000000000000000000000000000000000008152600401612664906138e9565b60405180910390fd5b8060058190555050565b601760009054906101000a900473ffffffffffffffffffffffffffffffffffffffff1673ffffffffffffffffffffffffffffffffffffffff163373ffffffffffffffffffffffffffffffffffffffff1614612707576040517f08c379a00000000000000000000000000000000000000000000000000000000081526004016126fe906138e9565b60405180910390fd5b8060108190555050565b6000600160008473ffffffffffffffffffffffffffffffffffffffff1673ffffffffffffffffffffffffffffffffffffffff16815260200190815260200160002060008373ffffffffffffffffffffffffffffffffffffffff1673ffffffffffffffffffffffffffffffffffffffff16815260200190815260200160002054905092915050565b601760009054906101000a900473ffffffffffffffffffffffffffffffffffffffff1673ffffffffffffffffffffffffffffffffffffffff163373ffffffffffffffffffffffffffffffffffffffff1614612828576040517f08c379a000000000000000000000000000000000000000000000000000000000815260040161281f906138e9565b60405180910390fd5b80600d8190555050565b3373ffffffffffffffffffffffffffffffffffffffff16601260009054906101000a900473ffffffffffffffffffffffffffffffffffffffff1673ffffffffffffffffffffffffffffffffffffffff16146128c2576040517f08c379a00000000000000000000000000000000000000000000000000000000081526004016128b990613b93565b60405180910390fd5b6128ce82600f54612f61565b8173ffffffffffffffffffffffffffffffffffffffff167ff2cb5e52049d127ad1c335f1cc25f2fdbc911bec1beb2611f4c1e8b1c274d4b442600e546040516129189291906143bc565b60405180910390a2600073ffffffffffffffffffffffffffffffffffffffff168173ffffffffffffffffffffffffffffffffffffffff16146129615761296081600f54612f61565b5b8073ffffffffffffffffffffffffffffffffffffffff167ff2cb5e52049d127ad1c335f1cc25f2fdbc911bec1beb2611f4c1e8b1c274d4b442600f546040516129ab9291906143bc565b60405180910390a25050565b600e5481565b3373ffffffffffffffffffffffffffffffffffffffff16601360009054906101000a900473ffffffffffffffffffffffffffffffffffffffff1673ffffffffffffffffffffffffffffffffffffffff1614612a4d576040517f08c379a0000000000000000000000000000000000000000000000000000000008152600401612a4490613b93565b60405180910390fd5b612a5982601054612f61565b8173ffffffffffffffffffffffffffffffffffffffff167ff2cb5e52049d127ad1c335f1cc25f2fdbc911bec1beb2611f4c1e8b1c274d4b442601054604051612aa3929190614444565b60405180910390a2612ab781601154612f61565b8173ffffffffffffffffffffffffffffffffffffffff167ff2cb5e52049d127ad1c335f1cc25f2fdbc911bec1beb2611f4c1e8b1c274d4b442601154604051612b01929190614444565b60405180910390a25050565b600033905090565b600073ffffffffffffffffffffffffffffffffffffffff168373ffffffffffffffffffffffffffffffffffffffff161415612b85576040517f08c379a0000000000000000000000000000000000000000000000000000000008152600401612b7c906144f2565b60405180910390fd5b600073ffffffffffffffffffffffffffffffffffffffff168273ffffffffffffffffffffffffffffffffffffffff161415612bf5576040517f08c379a0000000000000000000000000000000000000000000000000000000008152600401612bec90614584565b60405180910390fd5b80600160008573ffffffffffffffffffffffffffffffffffffffff1673ffffffffffffffffffffffffffffffffffffffff16815260200190815260200160002060008473ffffffffffffffffffffffffffffffffffffffff1673ffffffffffffffffffffffffffffffffffffffff168152602001908152602001600020819055508173ffffffffffffffffffffffffffffffffffffffff168373ffffffffffffffffffffffffffffffffffffffff167f8c5be1e5ebec7d5bd14f71427d1e84f3dd0314c0f7b2291e5b200ac8c7c3b92583604051612cd391906132bb565b60405180910390a3505050565b600073ffffffffffffffffffffffffffffffffffffffff168373ffffffffffffffffffffffffffffffffffffffff161415612d50576040517f08c379a0000000000000000000000000000000000000000000000000000000008152600401612d4790614616565b60405180910390fd5b600073ffffffffffffffffffffffffffffffffffffffff168273ffffffffffffffffffffffffffffffffffffffff161415612dc0576040517f08c379a0000000000000000000000000000000000000000000000000000000008152600401612db7906146a8565b60405180910390fd5b612dcb838383613298565b60008060008573ffffffffffffffffffffffffffffffffffffffff1673ffffffffffffffffffffffffffffffffffffffff16815260200190815260200160002054905081811015612e51576040517f08c379a0000000000000000000000000000000000000000000000000000000008152600401612e489061473a565b60405180910390fd5b8181036000808673ffffffffffffffffffffffffffffffffffffffff1673ffffffffffffffffffffffffffffffffffffffff16815260200190815260200160002081905550816000808573ffffffffffffffffffffffffffffffffffffffff1673ffffffffffffffffffffffffffffffffffffffff1681526020019081526020016000206000828254612ee49190613c6a565b925050819055508273ffffffffffffffffffffffffffffffffffffffff168473ffffffffffffffffffffffffffffffffffffffff167fddf252ad1be2c89b69c2b068fc378daa952ba7f163c4a11628f55a4df523b3ef84604051612f4891906132bb565b60405180910390a3612f5b84848461329d565b50505050565b600073ffffffffffffffffffffffffffffffffffffffff168273ffffffffffffffffffffffffffffffffffffffff161415612fd1576040517f08c379a0000000000000000000000000000000000000000000000000000000008152600401612fc8906147a6565b60405180910390fd5b612fdd60008383613298565b8060026000828254612fef9190613c6a565b92505081905550806000808473ffffffffffffffffffffffffffffffffffffffff1673ffffffffffffffffffffffffffffffffffffffff16815260200190815260200160002060008282546130449190613c6a565b925050819055508173ffffffffffffffffffffffffffffffffffffffff16600073ffffffffffffffffffffffffffffffffffffffff167fddf252ad1be2c89b69c2b068fc378daa952ba7f163c4a11628f55a4df523b3ef836040516130a991906132bb565b60405180910390a36130bd6000838361329d565b5050565b600073ffffffffffffffffffffffffffffffffffffffff168273ffffffffffffffffffffffffffffffffffffffff161415613131576040517f08c379a000000000000000000000000000000000000000000000000000000000815260040161312890614838565b60405180910390fd5b61313d82600083613298565b60008060008473ffffffffffffffffffffffffffffffffffffffff1673ffffffffffffffffffffffffffffffffffffffff168152602001908152602001600020549050818110156131c3576040517f08c379a00000000000000000000000000000000000000000000000000000000081526004016131ba906148ca565b60405180910390fd5b8181036000808573ffffffffffffffffffffffffffffffffffffffff1673ffffffffffffffffffffffffffffffffffffffff16815260200190815260200160002081905550816002600082825461321a91906148ea565b92505081905550600073ffffffffffffffffffffffffffffffffffffffff168373ffffffffffffffffffffffffffffffffffffffff167fddf252ad1be2c89b69c2b068fc378daa952ba7f163c4a11628f55a4df523b3ef8460405161327f91906132bb565b60405180910390a36132938360008461329d565b505050565b505050565b505050565b6000819050919050565b6132b5816132a2565b82525050565b60006020820190506132d060008301846132ac565b92915050565b600081519050919050565b600082825260208201905092915050565b60005b838110156133105780820151818401526020810190506132f5565b8381111561331f576000848401525b50505050565b6000601f19601f8301169050919050565b6000613341826132d6565b61334b81856132e1565b935061335b8185602086016132f2565b61336481613325565b840191505092915050565b600060208201905081810360008301526133898184613336565b905092915050565b6000604051905090565b600080fd5b600080fd5b600073ffffffffffffffffffffffffffffffffffffffff82169050919050565b60006133d0826133a5565b9050919050565b6133e0816133c5565b81146133eb57600080fd5b50565b6000813590506133fd816133d7565b92915050565b61340c816132a2565b811461341757600080fd5b50565b60008135905061342981613403565b92915050565b600080604083850312156134465761344561339b565b5b6000613454858286016133ee565b92505060206134658582860161341a565b9150509250929050565b60008115159050919050565b6134848161346f565b82525050565b600060208201905061349f600083018461347b565b92915050565b6000602082840312156134bb576134ba61339b565b5b60006134c9848285016133ee565b91505092915050565b6000602082840312156134e8576134e761339b565b5b60006134f68482850161341a565b91505092915050565b6000806000606084860312156135185761351761339b565b5b6000613526868287016133ee565b9350506020613537868287016133ee565b92505060406135488682870161341a565b9150509250925092565b600080604083850312156135695761356861339b565b5b6000613577858286016133ee565b9250506020613588858286016133ee565b9150509250929050565b600060ff82169050919050565b6135a881613592565b82525050565b60006020820190506135c3600083018461359f565b92915050565b6135d2816133c5565b82525050565b60006020820190506135ed60008301846135c9565b92915050565b600080fd5b600080fd5b7f4e487b7100000000000000000000000000000000000000000000000000000000600052604160045260246000fd5b61363582613325565b810181811067ffffffffffffffff82111715613654576136536135fd565b5b80604052505050565b6000613667613391565b9050613673828261362c565b919050565b600067ffffffffffffffff821115613693576136926135fd565b5b61369c82613325565b9050602081019050919050565b82818337600083830152505050565b60006136cb6136c684613678565b61365d565b9050828152602081018484840111156136e7576136e66135f8565b5b6136f28482856136a9565b509392505050565b600082601f83011261370f5761370e6135f3565b5b813561371f8482602086016136b8565b91505092915050565b6000806040838503121561373f5761373e61339b565b5b600061374d858286016133ee565b925050602083013567ffffffffffffffff81111561376e5761376d6133a0565b5b61377a858286016136fa565b9150509250929050565b7f4e487b7100000000000000000000000000000000000000000000000000000000600052602260045260246000fd5b600060028204905060018216806137cb57607f821691505b602082108114156137df576137de613784565b5b50919050565b7f4572726f723a206f6e6c79206465706c6f7965722063616e207061737320626f60008201527f6f7374207369676e657220726f6c650000000000000000000000000000000000602082015250565b6000613841602f836132e1565b915061384c826137e5565b604082019050919050565b6000602082019050818103600083015261387081613834565b9050919050565b7f4572726f723a2076616c7565206d757374206265206368616e6765642062792060008201527f7369676e65720000000000000000000000000000000000000000000000000000602082015250565b60006138d36026836132e1565b91506138de82613877565b604082019050919050565b60006020820190508181036000830152613902816138c6565b9050919050565b7f4572726f722c206f6e6c79206465706c6f7965722063616e207061737320706f60008201527f737427732063616c6c657220726f6c6500000000000000000000000000000000602082015250565b60006139656030836132e1565b915061397082613909565b604082019050919050565b6000602082019050818103600083015261399481613958565b9050919050565b7f45524332303a207472616e7366657220616d6f756e742065786365656473206160008201527f6c6c6f77616e6365000000000000000000000000000000000000000000000000602082015250565b60006139f76028836132e1565b9150613a028261399b565b604082019050919050565b60006020820190508181036000830152613a26816139ea565b9050919050565b7f4572726f723a2077726f6e67206163636f756e742063616c6c696e672074616760008201527f206d696e74000000000000000000000000000000000000000000000000000000602082015250565b6000613a896025836132e1565b9150613a9482613a2d565b604082019050919050565b60006020820190508181036000830152613ab881613a7c565b9050919050565b7f5441470000000000000000000000000000000000000000000000000000000000600082015250565b6000613af56003836132e1565b9150613b0082613abf565b602082019050919050565b6000606082019050613b2060008301856132ac565b613b2d60208301846132ac565b8181036040830152613b3e81613ae8565b90509392505050565b7f4572726f723a2077726f6e67206163636f756e74000000000000000000000000600082015250565b6000613b7d6014836132e1565b9150613b8882613b47565b602082019050919050565b60006020820190508181036000830152613bac81613b70565b9050919050565b7f464f4c4c4f570000000000000000000000000000000000000000000000000000600082015250565b6000613be96006836132e1565b9150613bf482613bb3565b602082019050919050565b6000606082019050613c1460008301856132ac565b613c2160208301846132ac565b8181036040830152613c3281613bdc565b90509392505050565b7f4e487b7100000000000000000000000000000000000000000000000000000000600052601160045260246000fd5b6000613c75826132a2565b9150613c80836132a2565b9250827fffffffffffffffffffffffffffffffffffffffffffffffffffffffffffffffff03821115613cb557613cb4613c3b565b5b828201905092915050565b7f4572726f722c206f6e6c79206465706c6f7965722063616e2070617373206d6560008201527f6d65466163746f72792063616c6c657220726f6c650000000000000000000000602082015250565b6000613d1c6035836132e1565b9150613d2782613cc0565b604082019050919050565b60006020820190508181036000830152613d4b81613d0f565b9050919050565b7f4572726f723a206f6e6c79206465706c6f7965722063616e207061737320666f60008201527f6c6c6f77206d696e746572207369676e657220726f6c65000000000000000000602082015250565b6000613dae6037836132e1565b9150613db982613d52565b604082019050919050565b60006020820190508181036000830152613ddd81613da1565b9050919050565b7f4572726f723a2077726f6e67206163636f756e742063616c6c696e6720706f7360008201527f74206d696e740000000000000000000000000000000000000000000000000000602082015250565b6000613e406026836132e1565b9150613e4b82613de4565b604082019050919050565b60006020820190508181036000830152613e6f81613e33565b9050919050565b7f504f535400000000000000000000000000000000000000000000000000000000600082015250565b6000613eac6004836132e1565b9150613eb782613e76565b602082019050919050565b6000606082019050613ed760008301856132ac565b613ee460208301846132ac565b8181036040830152613ef581613e9f565b90509392505050565b7f4572726f723a206275726e6572206d7573742062652076616c6964207369676e60008201527f6572000000000000000000000000000000000000000000000000000000000000602082015250565b6000613f5a6022836132e1565b9150613f6582613efe565b604082019050919050565b60006020820190508181036000830152613f8981613f4d565b9050919050565b7f45524332303a2064656372656173656420616c6c6f77616e63652062656c6f7760008201527f207a65726f000000000000000000000000000000000000000000000000000000602082015250565b6000613fec6025836132e1565b9150613ff782613f90565b604082019050919050565b6000602082019050818103600083015261401b81613fdf565b9050919050565b7f524553504f4e442046524f4d0000000000000000000000000000000000000000600082015250565b6000614058600c836132e1565b915061406382614022565b602082019050919050565b600060608201905061408360008301856132ac565b61409060208301846132ac565b81810360408301526140a18161404b565b90509392505050565b7f524553504f4e4420544f00000000000000000000000000000000000000000000600082015250565b60006140e0600a836132e1565b91506140eb826140aa565b602082019050919050565b600060608201905061410b60008301856132ac565b61411860208301846132ac565b8181036040830152614129816140d3565b90509392505050565b7f4572726f723a206f6e6c79206465706c6f7965722063616e2070617373206c6960008201527f6b65206d696e746572207369676e65722063616c6c657220726f6c6500000000602082015250565b600061418e603c836132e1565b915061419982614132565b604082019050919050565b600060208201905081810360008301526141bd81614181565b9050919050565b7f4572726f723a206f6e6c79206465706c6f7965722063616e207061737320766160008201527f6c7565207369676e657220726f6c650000000000000000000000000000000000602082015250565b6000614220602f836132e1565b915061422b826141c4565b604082019050919050565b6000602082019050818103600083015261424f81614213565b9050919050565b7f4572726f723a2077726f6e67206163636f756e742063616c6c696e67206c696b60008201527f65206d696e740000000000000000000000000000000000000000000000000000602082015250565b60006142b26026836132e1565b91506142bd82614256565b604082019050919050565b600060208201905081810360008301526142e1816142a5565b9050919050565b7f4c494b4500000000000000000000000000000000000000000000000000000000600082015250565b600061431e6004836132e1565b9150614329826142e8565b602082019050919050565b600060608201905061434960008301856132ac565b61435660208301846132ac565b818103604083015261436781614311565b90509392505050565b7f4355524154450000000000000000000000000000000000000000000000000000600082015250565b60006143a66006836132e1565b91506143b182614370565b602082019050919050565b60006060820190506143d160008301856132ac565b6143de60208301846132ac565b81810360408301526143ef81614399565b90509392505050565b7f5245504f53540000000000000000000000000000000000000000000000000000600082015250565b600061442e6006836132e1565b9150614439826143f8565b602082019050919050565b600060608201905061445960008301856132ac565b61446660208301846132ac565b818103604083015261447781614421565b90509392505050565b7f45524332303a20617070726f76652066726f6d20746865207a65726f2061646460008201527f7265737300000000000000000000000000000000000000000000000000000000602082015250565b60006144dc6024836132e1565b91506144e782614480565b604082019050919050565b6000602082019050818103600083015261450b816144cf565b9050919050565b7f45524332303a20617070726f766520746f20746865207a65726f20616464726560008201527f7373000000000000000000000000000000000000000000000000000000000000602082015250565b600061456e6022836132e1565b915061457982614512565b604082019050919050565b6000602082019050818103600083015261459d81614561565b9050919050565b7f45524332303a207472616e736665722066726f6d20746865207a65726f20616460008201527f6472657373000000000000000000000000000000000000000000000000000000602082015250565b60006146006025836132e1565b915061460b826145a4565b604082019050919050565b6000602082019050818103600083015261462f816145f3565b9050919050565b7f45524332303a207472616e7366657220746f20746865207a65726f206164647260008201527f6573730000000000000000000000000000000000000000000000000000000000602082015250565b60006146926023836132e1565b915061469d82614636565b604082019050919050565b600060208201905081810360008301526146c181614685565b9050919050565b7f45524332303a207472616e7366657220616d6f756e742065786365656473206260008201527f616c616e63650000000000000000000000000000000000000000000000000000602082015250565b60006147246026836132e1565b915061472f826146c8565b604082019050919050565b6000602082019050818103600083015261475381614717565b9050919050565b7f45524332303a206d696e7420746f20746865207a65726f206164647265737300600082015250565b6000614790601f836132e1565b915061479b8261475a565b602082019050919050565b600060208201905081810360008301526147bf81614783565b9050919050565b7f45524332303a206275726e2066726f6d20746865207a65726f2061646472657360008201527f7300000000000000000000000000000000000000000000000000000000000000602082015250565b60006148226021836132e1565b915061482d826147c6565b604082019050919050565b6000602082019050818103600083015261485181614815565b9050919050565b7f45524332303a206275726e20616d6f756e7420657863656564732062616c616e60008201527f6365000000000000000000000000000000000000000000000000000000000000602082015250565b60006148b46022836132e1565b91506148bf82614858565b604082019050919050565b600060208201905081810360008301526148e3816148a7565b9050919050565b60006148f5826132a2565b9150614900836132a2565b92508282101561491357614912613c3b565b5b82820390509291505056fea264697066735822122093f5d1e18c9cfb929e27b98d261ee04c2f97a56294a97bb1716a05947aa6184264736f6c63430008090033",
  "immutableReferences": {},
  "source": "// SPDX-License-Identifier: MIT\n\npragma solidity >=0.8.0 <0.9.0;\n\nimport \"@openzeppelin/contracts/token/ERC20/ERC20.sol\";\n\ncontract UME is ERC20 {\n\n  // minting values\n  uint public postValue = 8e18;\n  uint public likeFromValue = 2e18;\n  uint public likeToValue = 5e18;\n  uint public tagToValue = 1e18;\n  uint public tagFromValue = 3e18;\n  uint public followFromValue = 1e18;\n  uint public followToValue = 6e18;\n  uint public respondFromValue = 2e18;\n  uint public respondToValue = 4e18;\n  uint public curateFromValue = 2e18;\n  uint public curateToValue = 4e18;\n  uint public repostFromValue = 5e18;\n  uint public repostToValue = 6e18;\n\n  // signer's address\n  address public memeFactorySigner;\n  address public postSigner;\n  address public likeSigner;\n  address public followSigner;\n  address public boostSigner;\n  address public valueSigner;\n\n  // Signer role changes\n  event PostSignerChanged(\n        address indexed from,\n        address indexed to);\n  event MemeFactorySignerChanged(\n        address indexed from,\n        address indexed to);\n  event LikeSignerChanged(\n        address indexed from,\n        address indexed to);\n  event FollowSignerChanged(\n        address indexed from,\n        address indexed to);\n  event BoostSignerChanged(\n        address indexed from,\n        address indexed to);\n  event ValueSignerChanged(\n        address indexed from,\n        address indexed to);\n  event Minted(\n        address indexed account,\n        uint time,\n        uint256 amount,\n        string flag);\n\n  constructor()\n    public payable ERC20(\"uMe token\", \"UME\") {\n    // assign signer roles\n    postSigner = msg.sender;\n    memeFactorySigner = msg.sender;\n    likeSigner = msg.sender;\n    followSigner = msg.sender;\n    boostSigner = msg.sender;\n    valueSigner = msg.sender;\n  }\n\n  function mintPost(\n            address _account,\n            string memory _postText)\n            public {\n    // make sure minter is same as sender\n    require(\n      postSigner==msg.sender,\n      'Error: wrong account calling post mint');\n    _mint(address(_account), postValue);\n    // set event for minted Posted UME tokens\n    emit Minted(_account, block.timestamp, postValue, 'POST');\n  }\n  function mintLike(\n            address _from,\n            address _to)\n            public { // 2:5 Liker:Liked\n    require(\n      likeSigner==msg.sender,\n      'Error: wrong account calling like mint');\n    // mint a LIKE token for liker\n    _mint(address(_from), likeToValue);\n    // set event for LIKE token FROM\n    emit Minted(_from, block.timestamp, likeFromValue, 'LIKE');\n    // mint LIKE tokens for likee\n    _mint(address(_to), likeToValue);\n    // set event for LIKE token TO\n    emit Minted(_to, block.timestamp, likeToValue, 'LIKE');\n  }\n  function mintTag(\n            address _from,\n            address _to)\n            public { // 1:3 Tagger:Tagged\n    require(\n      memeFactorySigner==msg.sender,\n      'Error: wrong account calling tag mint');\n    // mint a TAG token for tagger\n    _mint(_from, tagFromValue);\n    // set event for TAG token FROM\n    emit Minted(_from, block.timestamp, tagFromValue, 'TAG');\n    // mint TAG tokens for taggee\n    _mint(_to, tagToValue);\n    // set event for TAG token TO\n    emit Minted(_to, block.timestamp, tagToValue, 'TAG');\n  }\n  function mintFollow(\n            address _from,\n            address _to)\n            public { // 1:3 Follower:Followed\n    require(\n      followSigner==msg.sender,\n      'Error: wrong account');\n    // mint a FOLLOW token for follower\n    _mint(_from, followFromValue);\n    // set event for FOLLOW token FROM\n    emit Minted(_from, block.timestamp, followFromValue, 'FOLLOW');\n    // mint FOLLOW tokens for followed\n    _mint(_to, followToValue);\n    // set event for FOLLOW token TO\n    emit Minted(_to, block.timestamp, followToValue, 'FOLLOW');\n  }\n  function mintRespond(\n            address _from,\n            address _to)\n            public { // 2:4 Responder:Responded\n    require(\n      memeFactorySigner==msg.sender,\n      'Error: wrong account');\n    // mint a RESPOND token for responder\n    _mint(_from, respondFromValue);\n    // set event for RESPOND token FROM\n    emit Minted(_from, block.timestamp, respondFromValue, 'RESPOND FROM');\n    // mint RESPOND tokens for responded\n    if(_to!=address(0x0)) {\n      _mint(_to, respondToValue);\n    }\n    // set event for RESPOND token TO\n    emit Minted(_to, block.timestamp, respondToValue, 'RESPOND TO');\n  }\n  function mintCurate(\n            address _from,\n            address _to)\n            public { // 2:4 Responder:Responded\n    require(\n      memeFactorySigner==msg.sender,\n      'Error: wrong account');\n    // mint a CURATE token for curatee\n    _mint(_from, curateToValue);\n    // set event for CURATE token FROM\n    emit Minted(_from, block.timestamp, curateFromValue, 'CURATE');\n    // mint CURATE tokens for curator\n    if(_to!=address(0x0)) {\n      _mint(_to, curateToValue);\n    }\n    // set event for CURATE token TO\n    emit Minted(_to, block.timestamp, curateToValue, 'CURATE');\n  }\n  function mintRepost(\n            address _from,\n            address _to)\n            public {\n    require(\n      postSigner==msg.sender,\n      'Error: wrong account');\n    //mint REPOST token for reposter\n    _mint(_from, repostFromValue);\n    // set event for REPOST from\n    emit Minted(_from, block.timestamp, repostFromValue, 'REPOST');\n    // mint REPOST token for original poster\n    _mint(_to, repostToValue);\n    // set event for REPOST to\n    emit Minted(_from, block.timestamp, repostToValue, 'REPOST');\n  }\n  /*\n  function mintJury(\n    address account,\n    bool consensusReached\n  ) public { // 4 Juror token if no consensus reached, 24 if consensus reached\n    require(\n      followSigner==msg.sender,\n      'Error: wrong account, needs to be signer');\n    require(\n    minter!=account,\n    'Error: \"we\" cannot mint');\n    //require(\n    bytes(_postHash).length > 0,\n    'Error: no post exists');\n    if(consensusReached==true){\n      // mint 10 JURY token for juror\n      _mint(account, 24);\n      // set event for JURY token consensus reached\n      emit Minted(account, block.timestamp, 'JURY');\n    } else if(consensusReached==false){\n      // mint a JURY token for juror\n      _mint(account, 4);\n      // set event for JURY no consensus reached\n      emit Minted(account, block.timestamp, 'JURY');\n    }\n  }\n*/\n  function burn(\n            address _account,\n            uint _amount)\n            public {\n    require(\n      msg.sender==likeSigner ||\n      msg.sender==boostSigner,\n      'Error: burner must be valid signer');\n    _burn(_account, _amount);\n  }\n\n  function setPostValue(uint256 _value)\n            public {\n    require(\n      msg.sender==valueSigner,\n      'Error: value must be changed by signer');\n    postValue = _value;\n  }\n  function setLikeFromValue(uint256 _value)\n            public {\n    require(\n      msg.sender==valueSigner,\n      'Error: value must be changed by signer');\n    likeFromValue = _value;\n  }\n  function setLikeToValue(uint256 _value)\n            public {\n    require(\n      msg.sender==valueSigner,\n      'Error: value must be changed by signer');\n    likeToValue = _value;\n  }\n  function setTagFromValue(uint256 _value)\n            public {\n    require(\n      msg.sender==valueSigner,\n      'Error: value must be changed by signer');\n    tagFromValue = _value;\n  }\n  function setTagToValue(uint256 _value)\n            public {\n    require(\n      msg.sender==valueSigner,\n      'Error: value must be changed by signer');\n    tagToValue = _value;\n  }\n  function setFollowFromValue(uint256 _value)\n            public {\n    require(\n      msg.sender==valueSigner,\n      'Error: value must be changed by signer');\n    followFromValue = _value;\n  }\n  function setFollowToValue(uint256 _value)\n            public {\n    require(\n      msg.sender==valueSigner,\n      'Error: value must be changed by signer');\n    followToValue = _value;\n  }\n  function setRespondFromValue(uint256 _value)\n            public {\n    require(\n      msg.sender==valueSigner,\n      'Error: value must be changed by signer');\n    respondFromValue = _value;\n  }\n  function setRespondToValue(uint256 _value)\n            public {\n    require(\n      msg.sender==valueSigner,\n      'Error: value must be changed by signer');\n    respondToValue = _value;\n  }\n  function setCurateFromValue(uint256 _value)\n            public {\n    require(\n      msg.sender==valueSigner,\n      'Error: value must be changed by signer');\n    curateFromValue = _value;\n  }\n  function setCurateToValue(uint256 _value)\n            public {\n    require(\n      msg.sender==valueSigner,\n      'Error: value must be changed by signer');\n    curateToValue = _value;\n  }\n  function setRepostFromValue(uint256 _value)\n            public {\n    require(\n      msg.sender==valueSigner,\n      'Error: value must be changed by signer');\n    repostFromValue = _value;\n  }\n  function setRepostToValue(uint256 _value)\n            public {\n    require(\n      msg.sender==valueSigner,\n      'Error: value must be changed by signer');\n    repostToValue = _value;\n  }\n\n  function passPostSignerRole(address _post)\n            public returns (bool) {\n    require(\n      msg.sender==postSigner,\n      'Error, only deployer can pass post\\'s caller role');\n    postSigner = _post;\n    emit PostSignerChanged(msg.sender, postSigner);\n    return true;\n  }\n  function passMemeFactorySignerRole(address _memeFactory)\n            public returns (bool) {\n    require(\n      msg.sender==memeFactorySigner,\n      'Error, only deployer can pass memeFactory caller role');\n    memeFactorySigner= _memeFactory;\n    emit PostSignerChanged(msg.sender, memeFactorySigner);\n    return true;\n  }\n  function passLikeSignerRole(address _like)\n            public returns (bool) {\n    require(\n      msg.sender==likeSigner,\n      'Error: only deployer can pass like minter signer caller role');\n    likeSigner = _like;\n    emit PostSignerChanged(msg.sender, likeSigner);\n    return true;\n  }\n  function passFollowSignerRole(address _follow)\n            public returns (bool) {\n    require(\n      msg.sender==followSigner,\n      'Error: only deployer can pass follow minter signer role');\n    followSigner = _follow;\n    emit FollowSignerChanged(msg.sender, followSigner);\n    return true;\n  }\n  function passBoostSignerRole(address _boost)\n            public returns (bool) {\n    require(\n      msg.sender==boostSigner,\n      'Error: only deployer can pass boost signer role');\n    boostSigner = _boost;\n    emit BoostSignerChanged(msg.sender, boostSigner);\n    return true;\n  }\n  function passValueSignerRole(address _value)\n            public returns (bool) {\n    require(\n      msg.sender==valueSigner,\n      'Error: only deployer can pass value signer role');\n    valueSigner = _value;\n    emit BoostSignerChanged(msg.sender, valueSigner);\n    return true;\n  }\n}\n",
  "sourcePath": "/Users/jaiq/Documents/000 BLOCKCHAIN/ETH/uMe/src/contracts/UME.sol",
  "compiler": {
    "name": "solc",
    "version": "0.8.9+commit.e5eed63a.Emscripten.clang"
  },
  "schemaVersion": "3.4.3",
  "updatedAt": "2021-11-01T06:47:09.205Z",
  "devdoc": {
    "kind": "dev",
    "methods": {
      "allowance(address,address)": {
        "details": "See {IERC20-allowance}."
      },
      "approve(address,uint256)": {
        "details": "See {IERC20-approve}. Requirements: - `spender` cannot be the zero address."
      },
      "balanceOf(address)": {
        "details": "See {IERC20-balanceOf}."
      },
      "decimals()": {
        "details": "Returns the number of decimals used to get its user representation. For example, if `decimals` equals `2`, a balance of `505` tokens should be displayed to a user as `5.05` (`505 / 10 ** 2`). Tokens usually opt for a value of 18, imitating the relationship between Ether and Wei. This is the value {ERC20} uses, unless this function is overridden; NOTE: This information is only used for _display_ purposes: it in no way affects any of the arithmetic of the contract, including {IERC20-balanceOf} and {IERC20-transfer}."
      },
      "decreaseAllowance(address,uint256)": {
        "details": "Atomically decreases the allowance granted to `spender` by the caller. This is an alternative to {approve} that can be used as a mitigation for problems described in {IERC20-approve}. Emits an {Approval} event indicating the updated allowance. Requirements: - `spender` cannot be the zero address. - `spender` must have allowance for the caller of at least `subtractedValue`."
      },
      "increaseAllowance(address,uint256)": {
        "details": "Atomically increases the allowance granted to `spender` by the caller. This is an alternative to {approve} that can be used as a mitigation for problems described in {IERC20-approve}. Emits an {Approval} event indicating the updated allowance. Requirements: - `spender` cannot be the zero address."
      },
      "name()": {
        "details": "Returns the name of the token."
      },
      "symbol()": {
        "details": "Returns the symbol of the token, usually a shorter version of the name."
      },
      "totalSupply()": {
        "details": "See {IERC20-totalSupply}."
      },
      "transfer(address,uint256)": {
        "details": "See {IERC20-transfer}. Requirements: - `recipient` cannot be the zero address. - the caller must have a balance of at least `amount`."
      },
      "transferFrom(address,address,uint256)": {
        "details": "See {IERC20-transferFrom}. Emits an {Approval} event indicating the updated allowance. This is not required by the EIP. See the note at the beginning of {ERC20}. Requirements: - `sender` and `recipient` cannot be the zero address. - `sender` must have a balance of at least `amount`. - the caller must have allowance for ``sender``'s tokens of at least `amount`."
      }
    },
    "version": 1
  },
  "userdoc": {
    "kind": "user",
    "methods": {},
    "version": 1
  }
}