{
  "contractName": "UME",
  "abi": [
    {
      "inputs": [],
      "stateMutability": "payable",
      "type": "constructor"
    },
    {
      "anonymous": false,
      "inputs": [
        {
          "indexed": true,
          "internalType": "address",
          "name": "owner",
          "type": "address"
        },
        {
          "indexed": true,
          "internalType": "address",
          "name": "spender",
          "type": "address"
        },
        {
          "indexed": false,
          "internalType": "uint256",
          "name": "value",
          "type": "uint256"
        }
      ],
      "name": "Approval",
      "type": "event"
    },
    {
      "anonymous": false,
      "inputs": [
        {
          "indexed": true,
          "internalType": "address",
          "name": "account",
          "type": "address"
        },
        {
          "indexed": false,
          "internalType": "uint256",
          "name": "time",
          "type": "uint256"
        },
        {
          "indexed": false,
          "internalType": "string",
          "name": "flag",
          "type": "string"
        }
      ],
      "name": "Minted",
      "type": "event"
    },
    {
      "anonymous": false,
      "inputs": [
        {
          "indexed": true,
          "internalType": "address",
          "name": "accountFrom",
          "type": "address"
        },
        {
          "indexed": true,
          "internalType": "address",
          "name": "accountTo",
          "type": "address"
        }
      ],
      "name": "MinterChanged",
      "type": "event"
    },
    {
      "anonymous": false,
      "inputs": [
        {
          "indexed": true,
          "internalType": "address",
          "name": "accountFrom",
          "type": "address"
        },
        {
          "indexed": true,
          "internalType": "address",
          "name": "accountTo",
          "type": "address"
        }
      ],
      "name": "PostCallerChanged",
      "type": "event"
    },
    {
      "anonymous": false,
      "inputs": [
        {
          "indexed": true,
          "internalType": "address",
          "name": "from",
          "type": "address"
        },
        {
          "indexed": true,
          "internalType": "address",
          "name": "to",
          "type": "address"
        },
        {
          "indexed": false,
          "internalType": "uint256",
          "name": "value",
          "type": "uint256"
        }
      ],
      "name": "Transfer",
      "type": "event"
    },
    {
      "anonymous": false,
      "inputs": [
        {
          "indexed": true,
          "internalType": "address",
          "name": "accountFrom",
          "type": "address"
        },
        {
          "indexed": true,
          "internalType": "address",
          "name": "accountTo",
          "type": "address"
        }
      ],
      "name": "UserCallerChanged",
      "type": "event"
    },
    {
      "inputs": [
        {
          "internalType": "address",
          "name": "owner",
          "type": "address"
        },
        {
          "internalType": "address",
          "name": "spender",
          "type": "address"
        }
      ],
      "name": "allowance",
      "outputs": [
        {
          "internalType": "uint256",
          "name": "",
          "type": "uint256"
        }
      ],
      "stateMutability": "view",
      "type": "function"
    },
    {
      "inputs": [
        {
          "internalType": "address",
          "name": "spender",
          "type": "address"
        },
        {
          "internalType": "uint256",
          "name": "amount",
          "type": "uint256"
        }
      ],
      "name": "approve",
      "outputs": [
        {
          "internalType": "bool",
          "name": "",
          "type": "bool"
        }
      ],
      "stateMutability": "nonpayable",
      "type": "function"
    },
    {
      "inputs": [
        {
          "internalType": "address",
          "name": "account",
          "type": "address"
        }
      ],
      "name": "balanceOf",
      "outputs": [
        {
          "internalType": "uint256",
          "name": "",
          "type": "uint256"
        }
      ],
      "stateMutability": "view",
      "type": "function"
    },
    {
      "inputs": [],
      "name": "decimals",
      "outputs": [
        {
          "internalType": "uint8",
          "name": "",
          "type": "uint8"
        }
      ],
      "stateMutability": "view",
      "type": "function"
    },
    {
      "inputs": [
        {
          "internalType": "address",
          "name": "spender",
          "type": "address"
        },
        {
          "internalType": "uint256",
          "name": "subtractedValue",
          "type": "uint256"
        }
      ],
      "name": "decreaseAllowance",
      "outputs": [
        {
          "internalType": "bool",
          "name": "",
          "type": "bool"
        }
      ],
      "stateMutability": "nonpayable",
      "type": "function"
    },
    {
      "inputs": [
        {
          "internalType": "address",
          "name": "spender",
          "type": "address"
        },
        {
          "internalType": "uint256",
          "name": "addedValue",
          "type": "uint256"
        }
      ],
      "name": "increaseAllowance",
      "outputs": [
        {
          "internalType": "bool",
          "name": "",
          "type": "bool"
        }
      ],
      "stateMutability": "nonpayable",
      "type": "function"
    },
    {
      "inputs": [],
      "name": "minter",
      "outputs": [
        {
          "internalType": "address",
          "name": "",
          "type": "address"
        }
      ],
      "stateMutability": "view",
      "type": "function"
    },
    {
      "inputs": [],
      "name": "name",
      "outputs": [
        {
          "internalType": "string",
          "name": "",
          "type": "string"
        }
      ],
      "stateMutability": "view",
      "type": "function"
    },
    {
      "inputs": [],
      "name": "postCaller",
      "outputs": [
        {
          "internalType": "address",
          "name": "",
          "type": "address"
        }
      ],
      "stateMutability": "view",
      "type": "function"
    },
    {
      "inputs": [],
      "name": "symbol",
      "outputs": [
        {
          "internalType": "string",
          "name": "",
          "type": "string"
        }
      ],
      "stateMutability": "view",
      "type": "function"
    },
    {
      "inputs": [],
      "name": "totalSupply",
      "outputs": [
        {
          "internalType": "uint256",
          "name": "",
          "type": "uint256"
        }
      ],
      "stateMutability": "view",
      "type": "function"
    },
    {
      "inputs": [
        {
          "internalType": "address",
          "name": "recipient",
          "type": "address"
        },
        {
          "internalType": "uint256",
          "name": "amount",
          "type": "uint256"
        }
      ],
      "name": "transfer",
      "outputs": [
        {
          "internalType": "bool",
          "name": "",
          "type": "bool"
        }
      ],
      "stateMutability": "nonpayable",
      "type": "function"
    },
    {
      "inputs": [
        {
          "internalType": "address",
          "name": "sender",
          "type": "address"
        },
        {
          "internalType": "address",
          "name": "recipient",
          "type": "address"
        },
        {
          "internalType": "uint256",
          "name": "amount",
          "type": "uint256"
        }
      ],
      "name": "transferFrom",
      "outputs": [
        {
          "internalType": "bool",
          "name": "",
          "type": "bool"
        }
      ],
      "stateMutability": "nonpayable",
      "type": "function"
    },
    {
      "inputs": [],
      "name": "userCaller",
      "outputs": [
        {
          "internalType": "address",
          "name": "",
          "type": "address"
        }
      ],
      "stateMutability": "view",
      "type": "function"
    },
    {
      "inputs": [
        {
          "internalType": "address",
          "name": "account",
          "type": "address"
        },
        {
          "internalType": "string",
          "name": "_postText",
          "type": "string"
        }
      ],
      "name": "mintPost",
      "outputs": [],
      "stateMutability": "nonpayable",
      "type": "function"
    },
    {
      "inputs": [
        {
          "internalType": "address",
          "name": "accountFrom",
          "type": "address"
        },
        {
          "internalType": "address",
          "name": "accountTo",
          "type": "address"
        }
      ],
      "name": "mintLike",
      "outputs": [],
      "stateMutability": "nonpayable",
      "type": "function"
    },
    {
      "inputs": [
        {
          "internalType": "address",
          "name": "accountFrom",
          "type": "address"
        },
        {
          "internalType": "address",
          "name": "accountTo",
          "type": "address"
        }
      ],
      "name": "mintTag",
      "outputs": [],
      "stateMutability": "nonpayable",
      "type": "function"
    },
    {
      "inputs": [
        {
          "internalType": "address",
          "name": "accountFrom",
          "type": "address"
        },
        {
          "internalType": "address",
          "name": "accountTo",
          "type": "address"
        }
      ],
      "name": "mintFollow",
      "outputs": [],
      "stateMutability": "nonpayable",
      "type": "function"
    },
    {
      "inputs": [
        {
          "internalType": "address",
          "name": "accountFrom",
          "type": "address"
        },
        {
          "internalType": "address",
          "name": "accountTo",
          "type": "address"
        }
      ],
      "name": "mintRespond",
      "outputs": [],
      "stateMutability": "nonpayable",
      "type": "function"
    },
    {
      "inputs": [
        {
          "internalType": "address",
          "name": "accountFrom",
          "type": "address"
        },
        {
          "internalType": "address",
          "name": "accountTo",
          "type": "address"
        }
      ],
      "name": "mintCurate",
      "outputs": [],
      "stateMutability": "nonpayable",
      "type": "function"
    },
    {
      "inputs": [
        {
          "internalType": "address",
          "name": "accountFrom",
          "type": "address"
        },
        {
          "internalType": "address",
          "name": "accountTo",
          "type": "address"
        }
      ],
      "name": "mintRepost",
      "outputs": [],
      "stateMutability": "nonpayable",
      "type": "function"
    },
    {
      "inputs": [
        {
          "internalType": "address",
          "name": "account",
          "type": "address"
        },
        {
          "internalType": "bool",
          "name": "consensusReached",
          "type": "bool"
        }
      ],
      "name": "mintJury",
      "outputs": [],
      "stateMutability": "nonpayable",
      "type": "function"
    },
    {
      "inputs": [
        {
          "internalType": "address",
          "name": "we",
          "type": "address"
        }
      ],
      "name": "passMinterRole",
      "outputs": [
        {
          "internalType": "bool",
          "name": "",
          "type": "bool"
        }
      ],
      "stateMutability": "nonpayable",
      "type": "function"
    },
    {
      "inputs": [
        {
          "internalType": "address",
          "name": "post",
          "type": "address"
        }
      ],
      "name": "passPostCallerRole",
      "outputs": [
        {
          "internalType": "bool",
          "name": "",
          "type": "bool"
        }
      ],
      "stateMutability": "nonpayable",
      "type": "function"
    },
    {
      "inputs": [
        {
          "internalType": "address",
          "name": "user",
          "type": "address"
        }
      ],
      "name": "passUserCallerRole",
      "outputs": [
        {
          "internalType": "bool",
          "name": "",
          "type": "bool"
        }
      ],
      "stateMutability": "nonpayable",
      "type": "function"
    }
  ],
  "bytecode": "0x60806040526040518060400160405280600981526020017f754d6520746f6b656e00000000000000000000000000000000000000000000008152506040518060400160405280600381526020017f554d4500000000000000000000000000000000000000000000000000000000008152508160039080519060200190620000889291906200016d565b508060049080519060200190620000a19291906200016d565b50505033600560006101000a81548173ffffffffffffffffffffffffffffffffffffffff021916908373ffffffffffffffffffffffffffffffffffffffff16021790555033600660006101000a81548173ffffffffffffffffffffffffffffffffffffffff021916908373ffffffffffffffffffffffffffffffffffffffff16021790555033600760006101000a81548173ffffffffffffffffffffffffffffffffffffffff021916908373ffffffffffffffffffffffffffffffffffffffff16021790555062000282565b8280546200017b906200021d565b90600052602060002090601f0160209004810192826200019f5760008555620001eb565b82601f10620001ba57805160ff1916838001178555620001eb565b82800160010185558215620001eb579182015b82811115620001ea578251825591602001919060010190620001cd565b5b509050620001fa9190620001fe565b5090565b5b8082111562000219576000816000905550600101620001ff565b5090565b600060028204905060018216806200023657607f821691505b602082108114156200024d576200024c62000253565b5b50919050565b7f4e487b7100000000000000000000000000000000000000000000000000000000600052602260045260246000fd5b6137cf80620002926000396000f3fe608060405234801561001057600080fd5b50600436106101735760003560e01c8063805fd74b116100de578063bc83419511610097578063dd62ed3e11610071578063dd62ed3e14610486578063e981dc8f146104b6578063f52548d4146104d2578063fa090d81146104ee57610173565b8063bc8341951461041e578063d04495891461043a578063d7fc5b151461045657610173565b8063805fd74b146103345780638d3f79221461035257806395d89b41146103705780639d69d33f1461038e578063a457c2d7146103be578063a9059cbb146103ee57610173565b80632d599ba5116101305780632d599ba51461024e578063313ce5671461026a5780633950935114610288578063504bff93146102b857806370a08231146102e857806376bd8f8c1461031857610173565b806306fdde03146101785780630754617214610196578063095ea7b3146101b457806318160ddd146101e457806323b872dd146102025780632cc67a7c14610232575b600080fd5b61018061050a565b60405161018d9190612afe565b60405180910390f35b61019e61059c565b6040516101ab9190612ac8565b60405180910390f35b6101ce60048036038101906101c99190612685565b6105c2565b6040516101db9190612ae3565b60405180910390f35b6101ec6105e0565b6040516101f99190612d40565b60405180910390f35b61021c60048036038101906102179190612596565b6105ea565b6040516102299190612ae3565b60405180910390f35b61024c60048036038101906102479190612556565b6106e2565b005b61026860048036038101906102639190612556565b610928565b005b610272610b6e565b60405161027f9190612ef9565b60405180910390f35b6102a2600480360381019061029d9190612685565b610b77565b6040516102af9190612ae3565b60405180910390f35b6102d260048036038101906102cd9190612529565b610c23565b6040516102df9190612ae3565b60405180910390f35b61030260048036038101906102fd9190612529565b610d59565b60405161030f9190612d40565b60405180910390f35b610332600480360381019061032d9190612629565b610da1565b005b61033c610ed2565b6040516103499190612ac8565b60405180910390f35b61035a610ef8565b6040516103679190612ac8565b60405180910390f35b610378610f1e565b6040516103859190612afe565b60405180910390f35b6103a860048036038101906103a39190612529565b610fb0565b6040516103b59190612ae3565b60405180910390f35b6103d860048036038101906103d39190612685565b6110e6565b6040516103e59190612ae3565b60405180910390f35b61040860048036038101906104039190612685565b6111d1565b6040516104159190612ae3565b60405180910390f35b61043860048036038101906104339190612556565b6111ef565b005b610454600480360381019061044f9190612556565b611435565b005b610470600480360381019061046b9190612529565b61167b565b60405161047d9190612ae3565b60405180910390f35b6104a0600480360381019061049b9190612556565b6117b1565b6040516104ad9190612d40565b60405180910390f35b6104d060048036038101906104cb9190612556565b611838565b005b6104ec60048036038101906104e79190612556565b611a7e565b005b610508600480360381019061050391906125e9565b611cc4565b005b60606003805461051990613073565b80601f016020809104026020016040519081016040528092919081815260200182805461054590613073565b80156105925780601f1061056757610100808354040283529160200191610592565b820191906000526020600020905b81548152906001019060200180831161057557829003601f168201915b5050505050905090565b600560009054906101000a900473ffffffffffffffffffffffffffffffffffffffff1681565b60006105d66105cf611ebc565b8484611ec4565b6001905092915050565b6000600254905090565b60006105f784848461208f565b6000600160008673ffffffffffffffffffffffffffffffffffffffff1673ffffffffffffffffffffffffffffffffffffffff1681526020019081526020016000206000610642611ebc565b73ffffffffffffffffffffffffffffffffffffffff1673ffffffffffffffffffffffffffffffffffffffff168152602001908152602001600020549050828110156106c2576040517f08c379a00000000000000000000000000000000000000000000000000000000081526004016106b990612bc0565b60405180910390fd5b6106d6856106ce611ebc565b858403611ec4565b60019150509392505050565b3373ffffffffffffffffffffffffffffffffffffffff16600660009054906101000a900473ffffffffffffffffffffffffffffffffffffffff1673ffffffffffffffffffffffffffffffffffffffff1614610772576040517f08c379a000000000000000000000000000000000000000000000000000000000815260040161076990612be0565b60405180910390fd5b8173ffffffffffffffffffffffffffffffffffffffff16600560009054906101000a900473ffffffffffffffffffffffffffffffffffffffff1673ffffffffffffffffffffffffffffffffffffffff161415610803576040517f08c379a00000000000000000000000000000000000000000000000000000000081526004016107fa90612b60565b60405180910390fd5b8073ffffffffffffffffffffffffffffffffffffffff168273ffffffffffffffffffffffffffffffffffffffff161415610872576040517f08c379a000000000000000000000000000000000000000000000000000000000815260040161086990612c00565b60405180910390fd5b61087d826001612310565b8173ffffffffffffffffffffffffffffffffffffffff167fe7cd4ce7f2a465edc730269a1305e8a48bad821e8fb7e152ec413829c01a53c4426040516108c39190612db7565b60405180910390a26108d6816003612310565b8073ffffffffffffffffffffffffffffffffffffffff167fe7cd4ce7f2a465edc730269a1305e8a48bad821e8fb7e152ec413829c01a53c44260405161091c9190612db7565b60405180910390a25050565b3373ffffffffffffffffffffffffffffffffffffffff16600760009054906101000a900473ffffffffffffffffffffffffffffffffffffffff1673ffffffffffffffffffffffffffffffffffffffff16146109b8576040517f08c379a00000000000000000000000000000000000000000000000000000000081526004016109af90612be0565b60405180910390fd5b8173ffffffffffffffffffffffffffffffffffffffff16600560009054906101000a900473ffffffffffffffffffffffffffffffffffffffff1673ffffffffffffffffffffffffffffffffffffffff161415610a49576040517f08c379a0000000000000000000000000000000000000000000000000000000008152600401610a4090612b60565b60405180910390fd5b8073ffffffffffffffffffffffffffffffffffffffff168273ffffffffffffffffffffffffffffffffffffffff161415610ab8576040517f08c379a0000000000000000000000000000000000000000000000000000000008152600401610aaf90612c00565b60405180910390fd5b610ac3826001612310565b8173ffffffffffffffffffffffffffffffffffffffff167fe7cd4ce7f2a465edc730269a1305e8a48bad821e8fb7e152ec413829c01a53c442604051610b099190612ecb565b60405180910390a2610b1c816006612310565b8073ffffffffffffffffffffffffffffffffffffffff167fe7cd4ce7f2a465edc730269a1305e8a48bad821e8fb7e152ec413829c01a53c442604051610b629190612ecb565b60405180910390a25050565b60006012905090565b6000610c19610b84611ebc565b848460016000610b92611ebc565b73ffffffffffffffffffffffffffffffffffffffff1673ffffffffffffffffffffffffffffffffffffffff16815260200190815260200160002060008873ffffffffffffffffffffffffffffffffffffffff1673ffffffffffffffffffffffffffffffffffffffff16815260200190815260200160002054610c149190612f86565b611ec4565b6001905092915050565b6000600660009054906101000a900473ffffffffffffffffffffffffffffffffffffffff1673ffffffffffffffffffffffffffffffffffffffff163373ffffffffffffffffffffffffffffffffffffffff1614610cb5576040517f08c379a0000000000000000000000000000000000000000000000000000000008152600401610cac90612ce0565b60405180910390fd5b81600660006101000a81548173ffffffffffffffffffffffffffffffffffffffff021916908373ffffffffffffffffffffffffffffffffffffffff1602179055508173ffffffffffffffffffffffffffffffffffffffff163373ffffffffffffffffffffffffffffffffffffffff167f77c92fdb2e535561a11229adeb4dc3cfa5109f59adca0bcbd4bd6a2c1b31566760405160405180910390a360019050919050565b60008060008373ffffffffffffffffffffffffffffffffffffffff1673ffffffffffffffffffffffffffffffffffffffff168152602001908152602001600020549050919050565b3373ffffffffffffffffffffffffffffffffffffffff16600660009054906101000a900473ffffffffffffffffffffffffffffffffffffffff1673ffffffffffffffffffffffffffffffffffffffff1614610e31576040517f08c379a0000000000000000000000000000000000000000000000000000000008152600401610e2890612c20565b60405180910390fd5b6000815111610e75576040517f08c379a0000000000000000000000000000000000000000000000000000000008152600401610e6c90612ba0565b60405180910390fd5b610e80826008612310565b8173ffffffffffffffffffffffffffffffffffffffff167fe7cd4ce7f2a465edc730269a1305e8a48bad821e8fb7e152ec413829c01a53c442604051610ec69190612d89565b60405180910390a25050565b600660009054906101000a900473ffffffffffffffffffffffffffffffffffffffff1681565b600760009054906101000a900473ffffffffffffffffffffffffffffffffffffffff1681565b606060048054610f2d90613073565b80601f0160208091040260200160405190810160405280929190818152602001828054610f5990613073565b8015610fa65780601f10610f7b57610100808354040283529160200191610fa6565b820191906000526020600020905b815481529060010190602001808311610f8957829003601f168201915b5050505050905090565b6000600760009054906101000a900473ffffffffffffffffffffffffffffffffffffffff1673ffffffffffffffffffffffffffffffffffffffff163373ffffffffffffffffffffffffffffffffffffffff1614611042576040517f08c379a000000000000000000000000000000000000000000000000000000000815260040161103990612ca0565b60405180910390fd5b81600760006101000a81548173ffffffffffffffffffffffffffffffffffffffff021916908373ffffffffffffffffffffffffffffffffffffffff1602179055508173ffffffffffffffffffffffffffffffffffffffff163373ffffffffffffffffffffffffffffffffffffffff167f67cbc9cf819d3b5fc6ade73e6b686537ab2c1a0271603e14e8a54d6d233fb45d60405160405180910390a360019050919050565b600080600160006110f5611ebc565b73ffffffffffffffffffffffffffffffffffffffff1673ffffffffffffffffffffffffffffffffffffffff16815260200190815260200160002060008573ffffffffffffffffffffffffffffffffffffffff1673ffffffffffffffffffffffffffffffffffffffff168152602001908152602001600020549050828110156111b2576040517f08c379a00000000000000000000000000000000000000000000000000000000081526004016111a990612d00565b60405180910390fd5b6111c66111bd611ebc565b85858403611ec4565b600191505092915050565b60006111e56111de611ebc565b848461208f565b6001905092915050565b3373ffffffffffffffffffffffffffffffffffffffff16600660009054906101000a900473ffffffffffffffffffffffffffffffffffffffff1673ffffffffffffffffffffffffffffffffffffffff161461127f576040517f08c379a000000000000000000000000000000000000000000000000000000000815260040161127690612be0565b60405180910390fd5b8173ffffffffffffffffffffffffffffffffffffffff16600560009054906101000a900473ffffffffffffffffffffffffffffffffffffffff1673ffffffffffffffffffffffffffffffffffffffff161415611310576040517f08c379a000000000000000000000000000000000000000000000000000000000815260040161130790612b60565b60405180910390fd5b8073ffffffffffffffffffffffffffffffffffffffff168273ffffffffffffffffffffffffffffffffffffffff16141561137f576040517f08c379a000000000000000000000000000000000000000000000000000000000815260040161137690612c00565b60405180910390fd5b61138a826002612310565b8173ffffffffffffffffffffffffffffffffffffffff167fe7cd4ce7f2a465edc730269a1305e8a48bad821e8fb7e152ec413829c01a53c4426040516113d09190612e13565b60405180910390a26113e3816004612310565b8073ffffffffffffffffffffffffffffffffffffffff167fe7cd4ce7f2a465edc730269a1305e8a48bad821e8fb7e152ec413829c01a53c4426040516114299190612de5565b60405180910390a25050565b3373ffffffffffffffffffffffffffffffffffffffff16600660009054906101000a900473ffffffffffffffffffffffffffffffffffffffff1673ffffffffffffffffffffffffffffffffffffffff16146114c5576040517f08c379a00000000000000000000000000000000000000000000000000000000081526004016114bc90612c20565b60405180910390fd5b8073ffffffffffffffffffffffffffffffffffffffff168273ffffffffffffffffffffffffffffffffffffffff161415611534576040517f08c379a000000000000000000000000000000000000000000000000000000000815260040161152b90612c00565b60405180910390fd5b8173ffffffffffffffffffffffffffffffffffffffff16600560009054906101000a900473ffffffffffffffffffffffffffffffffffffffff1673ffffffffffffffffffffffffffffffffffffffff1614156115c5576040517f08c379a00000000000000000000000000000000000000000000000000000000081526004016115bc90612b60565b60405180910390fd5b6115d0826002612310565b8173ffffffffffffffffffffffffffffffffffffffff167fe7cd4ce7f2a465edc730269a1305e8a48bad821e8fb7e152ec413829c01a53c4426040516116169190612d5b565b60405180910390a2611629816005612310565b8073ffffffffffffffffffffffffffffffffffffffff167fe7cd4ce7f2a465edc730269a1305e8a48bad821e8fb7e152ec413829c01a53c44260405161166f9190612d5b565b60405180910390a25050565b6000600560009054906101000a900473ffffffffffffffffffffffffffffffffffffffff1673ffffffffffffffffffffffffffffffffffffffff163373ffffffffffffffffffffffffffffffffffffffff161461170d576040517f08c379a000000000000000000000000000000000000000000000000000000000815260040161170490612cc0565b60405180910390fd5b81600560006101000a81548173ffffffffffffffffffffffffffffffffffffffff021916908373ffffffffffffffffffffffffffffffffffffffff1602179055508173ffffffffffffffffffffffffffffffffffffffff163373ffffffffffffffffffffffffffffffffffffffff167f3b0007eb941cf645526cbb3a4fdaecda9d28ce4843167d9263b536a1f1edc0f660405160405180910390a360019050919050565b6000600160008473ffffffffffffffffffffffffffffffffffffffff1673ffffffffffffffffffffffffffffffffffffffff16815260200190815260200160002060008373ffffffffffffffffffffffffffffffffffffffff1673ffffffffffffffffffffffffffffffffffffffff16815260200190815260200160002054905092915050565b3373ffffffffffffffffffffffffffffffffffffffff16600660009054906101000a900473ffffffffffffffffffffffffffffffffffffffff1673ffffffffffffffffffffffffffffffffffffffff16146118c8576040517f08c379a00000000000000000000000000000000000000000000000000000000081526004016118bf90612be0565b60405180910390fd5b8173ffffffffffffffffffffffffffffffffffffffff16600560009054906101000a900473ffffffffffffffffffffffffffffffffffffffff1673ffffffffffffffffffffffffffffffffffffffff161415611959576040517f08c379a000000000000000000000000000000000000000000000000000000000815260040161195090612c60565b60405180910390fd5b8073ffffffffffffffffffffffffffffffffffffffff168273ffffffffffffffffffffffffffffffffffffffff1614156119c8576040517f08c379a00000000000000000000000000000000000000000000000000000000081526004016119bf90612c00565b60405180910390fd5b6119d3826002612310565b8173ffffffffffffffffffffffffffffffffffffffff167fe7cd4ce7f2a465edc730269a1305e8a48bad821e8fb7e152ec413829c01a53c442604051611a199190612e6f565b60405180910390a2611a2c816004612310565b8073ffffffffffffffffffffffffffffffffffffffff167fe7cd4ce7f2a465edc730269a1305e8a48bad821e8fb7e152ec413829c01a53c442604051611a729190612e6f565b60405180910390a25050565b3373ffffffffffffffffffffffffffffffffffffffff16600660009054906101000a900473ffffffffffffffffffffffffffffffffffffffff1673ffffffffffffffffffffffffffffffffffffffff1614611b0e576040517f08c379a0000000000000000000000000000000000000000000000000000000008152600401611b0590612be0565b60405180910390fd5b8173ffffffffffffffffffffffffffffffffffffffff16600560009054906101000a900473ffffffffffffffffffffffffffffffffffffffff1673ffffffffffffffffffffffffffffffffffffffff161415611b9f576040517f08c379a0000000000000000000000000000000000000000000000000000000008152600401611b9690612c60565b60405180910390fd5b8073ffffffffffffffffffffffffffffffffffffffff168273ffffffffffffffffffffffffffffffffffffffff161415611c0e576040517f08c379a0000000000000000000000000000000000000000000000000000000008152600401611c0590612c00565b60405180910390fd5b611c19826005612310565b8173ffffffffffffffffffffffffffffffffffffffff167fe7cd4ce7f2a465edc730269a1305e8a48bad821e8fb7e152ec413829c01a53c442604051611c5f9190612e41565b60405180910390a2611c72816006612310565b8173ffffffffffffffffffffffffffffffffffffffff167fe7cd4ce7f2a465edc730269a1305e8a48bad821e8fb7e152ec413829c01a53c442604051611cb89190612e41565b60405180910390a25050565b3373ffffffffffffffffffffffffffffffffffffffff16600760009054906101000a900473ffffffffffffffffffffffffffffffffffffffff1673ffffffffffffffffffffffffffffffffffffffff1614611d54576040517f08c379a0000000000000000000000000000000000000000000000000000000008152600401611d4b90612be0565b60405180910390fd5b8173ffffffffffffffffffffffffffffffffffffffff16600560009054906101000a900473ffffffffffffffffffffffffffffffffffffffff1673ffffffffffffffffffffffffffffffffffffffff161415611de5576040517f08c379a0000000000000000000000000000000000000000000000000000000008152600401611ddc90612c60565b60405180910390fd5b600115158115151415611e5057611dfd826018612310565b8173ffffffffffffffffffffffffffffffffffffffff167fe7cd4ce7f2a465edc730269a1305e8a48bad821e8fb7e152ec413829c01a53c442604051611e439190612e9d565b60405180910390a2611eb8565b600015158115151415611eb757611e68826004612310565b8173ffffffffffffffffffffffffffffffffffffffff167fe7cd4ce7f2a465edc730269a1305e8a48bad821e8fb7e152ec413829c01a53c442604051611eae9190612e9d565b60405180910390a25b5b5050565b600033905090565b600073ffffffffffffffffffffffffffffffffffffffff168373ffffffffffffffffffffffffffffffffffffffff161415611f34576040517f08c379a0000000000000000000000000000000000000000000000000000000008152600401611f2b90612c80565b60405180910390fd5b600073ffffffffffffffffffffffffffffffffffffffff168273ffffffffffffffffffffffffffffffffffffffff161415611fa4576040517f08c379a0000000000000000000000000000000000000000000000000000000008152600401611f9b90612b40565b60405180910390fd5b80600160008573ffffffffffffffffffffffffffffffffffffffff1673ffffffffffffffffffffffffffffffffffffffff16815260200190815260200160002060008473ffffffffffffffffffffffffffffffffffffffff1673ffffffffffffffffffffffffffffffffffffffff168152602001908152602001600020819055508173ffffffffffffffffffffffffffffffffffffffff168373ffffffffffffffffffffffffffffffffffffffff167f8c5be1e5ebec7d5bd14f71427d1e84f3dd0314c0f7b2291e5b200ac8c7c3b925836040516120829190612d40565b60405180910390a3505050565b600073ffffffffffffffffffffffffffffffffffffffff168373ffffffffffffffffffffffffffffffffffffffff1614156120ff576040517f08c379a00000000000000000000000000000000000000000000000000000000081526004016120f690612c40565b60405180910390fd5b600073ffffffffffffffffffffffffffffffffffffffff168273ffffffffffffffffffffffffffffffffffffffff16141561216f576040517f08c379a000000000000000000000000000000000000000000000000000000000815260040161216690612b20565b60405180910390fd5b61217a838383612470565b60008060008573ffffffffffffffffffffffffffffffffffffffff1673ffffffffffffffffffffffffffffffffffffffff16815260200190815260200160002054905081811015612200576040517f08c379a00000000000000000000000000000000000000000000000000000000081526004016121f790612b80565b60405180910390fd5b8181036000808673ffffffffffffffffffffffffffffffffffffffff1673ffffffffffffffffffffffffffffffffffffffff16815260200190815260200160002081905550816000808573ffffffffffffffffffffffffffffffffffffffff1673ffffffffffffffffffffffffffffffffffffffff16815260200190815260200160002060008282546122939190612f86565b925050819055508273ffffffffffffffffffffffffffffffffffffffff168473ffffffffffffffffffffffffffffffffffffffff167fddf252ad1be2c89b69c2b068fc378daa952ba7f163c4a11628f55a4df523b3ef846040516122f79190612d40565b60405180910390a361230a848484612475565b50505050565b600073ffffffffffffffffffffffffffffffffffffffff168273ffffffffffffffffffffffffffffffffffffffff161415612380576040517f08c379a000000000000000000000000000000000000000000000000000000000815260040161237790612d20565b60405180910390fd5b61238c60008383612470565b806002600082825461239e9190612f86565b92505081905550806000808473ffffffffffffffffffffffffffffffffffffffff1673ffffffffffffffffffffffffffffffffffffffff16815260200190815260200160002060008282546123f39190612f86565b925050819055508173ffffffffffffffffffffffffffffffffffffffff16600073ffffffffffffffffffffffffffffffffffffffff167fddf252ad1be2c89b69c2b068fc378daa952ba7f163c4a11628f55a4df523b3ef836040516124589190612d40565b60405180910390a361246c60008383612475565b5050565b505050565b505050565b600061248d61248884612f39565b612f14565b9050828152602081018484840111156124a9576124a8613168565b5b6124b4848285613031565b509392505050565b6000813590506124cb81613754565b92915050565b6000813590506124e08161376b565b92915050565b600082601f8301126124fb576124fa613163565b5b813561250b84826020860161247a565b91505092915050565b60008135905061252381613782565b92915050565b60006020828403121561253f5761253e613172565b5b600061254d848285016124bc565b91505092915050565b6000806040838503121561256d5761256c613172565b5b600061257b858286016124bc565b925050602061258c858286016124bc565b9150509250929050565b6000806000606084860312156125af576125ae613172565b5b60006125bd868287016124bc565b93505060206125ce868287016124bc565b92505060406125df86828701612514565b9150509250925092565b60008060408385031215612600576125ff613172565b5b600061260e858286016124bc565b925050602061261f858286016124d1565b9150509250929050565b600080604083850312156126405761263f613172565b5b600061264e858286016124bc565b925050602083013567ffffffffffffffff81111561266f5761266e61316d565b5b61267b858286016124e6565b9150509250929050565b6000806040838503121561269c5761269b613172565b5b60006126aa858286016124bc565b92505060206126bb85828601612514565b9150509250929050565b6126ce81612fdc565b82525050565b6126dd81612fee565b82525050565b60006126ee82612f6a565b6126f88185612f75565b9350612708818560208601613040565b61271181613177565b840191505092915050565b6000612729602383612f75565b915061273482613188565b604082019050919050565b600061274c600483612f75565b9150612757826131d7565b602082019050919050565b600061276f602283612f75565b915061277a82613200565b604082019050919050565b6000612792601c83612f75565b915061279d8261324f565b602082019050919050565b60006127b5600483612f75565b91506127c082613278565b602082019050919050565b60006127d8600383612f75565b91506127e3826132a1565b602082019050919050565b60006127fb602683612f75565b9150612806826132ca565b604082019050919050565b600061281e600a83612f75565b915061282982613319565b602082019050919050565b6000612841600c83612f75565b915061284c82613342565b602082019050919050565b6000612864600683612f75565b915061286f8261336b565b602082019050919050565b6000612887601683612f75565b915061289282613394565b602082019050919050565b60006128aa600683612f75565b91506128b5826133bd565b602082019050919050565b60006128cd602883612f75565b91506128d8826133e6565b604082019050919050565b60006128f0600483612f75565b91506128fb82613435565b602082019050919050565b6000612913601483612f75565b915061291e8261345e565b602082019050919050565b6000612936601383612f75565b915061294182613487565b602082019050919050565b6000612959602183612f75565b9150612964826134b0565b604082019050919050565b600061297c602583612f75565b9150612987826134ff565b604082019050919050565b600061299f601783612f75565b91506129aa8261354e565b602082019050919050565b60006129c2602483612f75565b91506129cd82613577565b604082019050919050565b60006129e5600683612f75565b91506129f0826135c6565b602082019050919050565b6000612a08602d83612f75565b9150612a13826135ef565b604082019050919050565b6000612a2b602d83612f75565b9150612a368261363e565b604082019050919050565b6000612a4e602d83612f75565b9150612a598261368d565b604082019050919050565b6000612a71602583612f75565b9150612a7c826136dc565b604082019050919050565b6000612a94601f83612f75565b9150612a9f8261372b565b602082019050919050565b612ab38161301a565b82525050565b612ac281613024565b82525050565b6000602082019050612add60008301846126c5565b92915050565b6000602082019050612af860008301846126d4565b92915050565b60006020820190508181036000830152612b1881846126e3565b905092915050565b60006020820190508181036000830152612b398161271c565b9050919050565b60006020820190508181036000830152612b5981612762565b9050919050565b60006020820190508181036000830152612b7981612785565b9050919050565b60006020820190508181036000830152612b99816127ee565b9050919050565b60006020820190508181036000830152612bb98161287a565b9050919050565b60006020820190508181036000830152612bd9816128c0565b9050919050565b60006020820190508181036000830152612bf981612906565b9050919050565b60006020820190508181036000830152612c1981612929565b9050919050565b60006020820190508181036000830152612c398161294c565b9050919050565b60006020820190508181036000830152612c598161296f565b9050919050565b60006020820190508181036000830152612c7981612992565b9050919050565b60006020820190508181036000830152612c99816129b5565b9050919050565b60006020820190508181036000830152612cb9816129fb565b9050919050565b60006020820190508181036000830152612cd981612a1e565b9050919050565b60006020820190508181036000830152612cf981612a41565b9050919050565b60006020820190508181036000830152612d1981612a64565b9050919050565b60006020820190508181036000830152612d3981612a87565b9050919050565b6000602082019050612d556000830184612aaa565b92915050565b6000604082019050612d706000830184612aaa565b8181036020830152612d818161273f565b905092915050565b6000604082019050612d9e6000830184612aaa565b8181036020830152612daf816127a8565b905092915050565b6000604082019050612dcc6000830184612aaa565b8181036020830152612ddd816127cb565b905092915050565b6000604082019050612dfa6000830184612aaa565b8181036020830152612e0b81612811565b905092915050565b6000604082019050612e286000830184612aaa565b8181036020830152612e3981612834565b905092915050565b6000604082019050612e566000830184612aaa565b8181036020830152612e6781612857565b905092915050565b6000604082019050612e846000830184612aaa565b8181036020830152612e958161289d565b905092915050565b6000604082019050612eb26000830184612aaa565b8181036020830152612ec3816128e3565b905092915050565b6000604082019050612ee06000830184612aaa565b8181036020830152612ef1816129d8565b905092915050565b6000602082019050612f0e6000830184612ab9565b92915050565b6000612f1e612f2f565b9050612f2a82826130a5565b919050565b6000604051905090565b600067ffffffffffffffff821115612f5457612f53613134565b5b612f5d82613177565b9050602081019050919050565b600081519050919050565b600082825260208201905092915050565b6000612f918261301a565b9150612f9c8361301a565b9250827fffffffffffffffffffffffffffffffffffffffffffffffffffffffffffffffff03821115612fd157612fd06130d6565b5b828201905092915050565b6000612fe782612ffa565b9050919050565b60008115159050919050565b600073ffffffffffffffffffffffffffffffffffffffff82169050919050565b6000819050919050565b600060ff82169050919050565b82818337600083830152505050565b60005b8381101561305e578082015181840152602081019050613043565b8381111561306d576000848401525b50505050565b6000600282049050600182168061308b57607f821691505b6020821081141561309f5761309e613105565b5b50919050565b6130ae82613177565b810181811067ffffffffffffffff821117156130cd576130cc613134565b5b80604052505050565b7f4e487b7100000000000000000000000000000000000000000000000000000000600052601160045260246000fd5b7f4e487b7100000000000000000000000000000000000000000000000000000000600052602260045260246000fd5b7f4e487b7100000000000000000000000000000000000000000000000000000000600052604160045260246000fd5b600080fd5b600080fd5b600080fd5b600080fd5b6000601f19601f8301169050919050565b7f45524332303a207472616e7366657220746f20746865207a65726f206164647260008201527f6573730000000000000000000000000000000000000000000000000000000000602082015250565b7f4c494b4500000000000000000000000000000000000000000000000000000000600082015250565b7f45524332303a20617070726f766520746f20746865207a65726f20616464726560008201527f7373000000000000000000000000000000000000000000000000000000000000602082015250565b7f4572726f723a20227765222063616e6e6f742063616c6c206d696e7400000000600082015250565b7f504f535400000000000000000000000000000000000000000000000000000000600082015250565b7f5441470000000000000000000000000000000000000000000000000000000000600082015250565b7f45524332303a207472616e7366657220616d6f756e742065786365656473206260008201527f616c616e63650000000000000000000000000000000000000000000000000000602082015250565b7f524553504f4e4420544f00000000000000000000000000000000000000000000600082015250565b7f524553504f4e442046524f4d0000000000000000000000000000000000000000600082015250565b7f5245504f53540000000000000000000000000000000000000000000000000000600082015250565b7f4572726f723a206e6f207465787420696e20706f737400000000000000000000600082015250565b7f4355524154450000000000000000000000000000000000000000000000000000600082015250565b7f45524332303a207472616e7366657220616d6f756e742065786365656473206160008201527f6c6c6f77616e6365000000000000000000000000000000000000000000000000602082015250565b7f4a55525900000000000000000000000000000000000000000000000000000000600082015250565b7f4572726f723a2077726f6e67206163636f756e74000000000000000000000000600082015250565b7f4572726f723a2073616d65206163636f756e7400000000000000000000000000600082015250565b7f4572726f723a2077726f6e67206163636f756e742063616c6c696e67206d696e60008201527f7400000000000000000000000000000000000000000000000000000000000000602082015250565b7f45524332303a207472616e736665722066726f6d20746865207a65726f20616460008201527f6472657373000000000000000000000000000000000000000000000000000000602082015250565b7f4572726f723a20227765222063616e6e6f74206d696e74000000000000000000600082015250565b7f45524332303a20617070726f76652066726f6d20746865207a65726f2061646460008201527f7265737300000000000000000000000000000000000000000000000000000000602082015250565b7f464f4c4c4f570000000000000000000000000000000000000000000000000000600082015250565b7f4572726f722c206f6e6c79206f776e65722063616e207061737320757365722760008201527f732063616c6c657220726f6c6500000000000000000000000000000000000000602082015250565b7f4572726f722c206f6e6c79206f776e65722063616e206368616e67652070617360008201527f73206d696e74657220726f6c6500000000000000000000000000000000000000602082015250565b7f4572726f722c206f6e6c79206f776e65722063616e207061737320706f73742760008201527f732063616c6c657220726f6c6500000000000000000000000000000000000000602082015250565b7f45524332303a2064656372656173656420616c6c6f77616e63652062656c6f7760008201527f207a65726f000000000000000000000000000000000000000000000000000000602082015250565b7f45524332303a206d696e7420746f20746865207a65726f206164647265737300600082015250565b61375d81612fdc565b811461376857600080fd5b50565b61377481612fee565b811461377f57600080fd5b50565b61378b8161301a565b811461379657600080fd5b5056fea2646970667358221220c994994caa326dfe0df0baba512ce905a75e5c0293998bfefc2dc3f9c3f15d9964736f6c63430008070033",
  "immutableReferences": {},
  "source": "// SPDX-License-Identifier: MIT\n\npragma solidity >=0.8.0 <0.9.0;\n\nimport \"@openzeppelin/contracts/token/ERC20/ERC20.sol\";\n\ncontract UME is ERC20 {\n\n  // minter's address\n  address public minter;\n  address public postCaller;\n  address public userCaller;\n\n  // minter role has changed to We\n  event MinterChanged(address indexed accountFrom, address indexed accountTo);\n  event PostCallerChanged(address indexed accountFrom, address indexed accountTo);\n  event UserCallerChanged(address indexed accountFrom, address indexed accountTo);\n  // minting events\n  event Minted(address indexed account, uint time /*, string postHash */, string flag);\n\n  constructor() public payable ERC20(\"uMe token\", \"UME\") {\n    // assign minter & caller roles\n    minter = msg.sender;\n    postCaller = msg.sender;\n    userCaller = msg.sender;\n  }\n\n  function mintPost(address account /* , string memory _postHash */ , string memory _postText) public {\n    // make sure minter is same as sender\n    require(postCaller==msg.sender, 'Error: wrong account calling mint');\n    //require(minter!=account, 'Error: \"we\" cannot call mint');\n    //require(bytes(_postHash).length > 0, 'Error: no post exists'); // check if post hash exists\n    require(bytes(_postText).length > 0, 'Error: no text in post'); // check if there's text in post\n    // mint UME token for Posted\n    _mint(address(account), 8);\n    // set event for minted Posted UME tokens\n    emit Minted(account, block.timestamp /*, _postHash  */ , 'POST');\n  }\n  function mintLike(address accountFrom, address accountTo /* , string memory _postHash */ ) public { // 2:5 Liker:Liked\n    require(postCaller==msg.sender, 'Error: wrong account calling mint');\n    require(accountFrom!=accountTo, 'Error: same account');\n    require(minter!=accountFrom, 'Error: \"we\" cannot call mint');\n    //require(bytes(_postHash).length > 0, 'Error: no post exists');\n    // mint a LIKE token for liker\n    _mint(address(accountFrom), 2);\n    // set event for LIKE token FROM\n    emit Minted(accountFrom, block.timestamp /*, _postHash  */ , 'LIKE');\n    // mint LIKE tokens for likee\n    _mint(address(accountTo), 5);\n    // set event for LIKE token TO\n    emit Minted(accountTo, block.timestamp /*, _postHash  */ , 'LIKE');\n  }\n  function mintTag(address accountFrom, address accountTo /* , string memory _postHash */ ) public { // 1:3 Tagger:Tagged\n    require(postCaller==msg.sender, 'Error: wrong account');\n    require(minter!=accountFrom, 'Error: \"we\" cannot call mint');\n    require(accountFrom!=accountTo, 'Error: same account');\n    //require(bytes(_postHash).length > 0, 'Error: no post exists');\n    // mint a TAG token for tagger\n    _mint(accountFrom, 1);\n    // set event for TAG token FROM\n    emit Minted(accountFrom, block.timestamp /*, _postHash  */ , 'TAG');\n    // mint TAG tokens for taggee\n    _mint(accountTo, 3);\n    // set event for TAG token TO\n    emit Minted(accountTo, block.timestamp /*, _postHash  */ , 'TAG');\n  }\n  function mintFollow(address accountFrom, address accountTo) public { // 1:3 Follower:Followed\n    require(userCaller==msg.sender, 'Error: wrong account');\n    require(minter!=accountFrom, 'Error: \"we\" cannot call mint');\n    require(accountFrom!=accountTo, 'Error: same account'); // doesn't mint tokens if tagged oneself\n    // mint a FOLLOW token for follower\n    _mint(accountFrom, 1);\n    // set event for FOLLOW token FROM\n    emit Minted(accountFrom, block.timestamp, 'FOLLOW');\n    // mint FOLLOW tokens for followed\n    _mint(accountTo, 6);\n    // set event for FOLLOW token TO\n    emit Minted(accountTo, block.timestamp,'FOLLOW');\n  }\n  function mintRespond(address accountFrom, address accountTo /* , string memory _postHash */ ) public { // 2:4 Responder:Responded\n    require(postCaller==msg.sender, 'Error: wrong account');\n    require(minter!=accountFrom, 'Error: \"we\" cannot call mint');\n    require(accountFrom!=accountTo, 'Error: same account');\n    //require(bytes(_postHash).length > 0, 'Error: no post exists');\n    // mint a RESPOND token for responder\n    _mint(accountFrom, 2);\n    // set event for RESPOND token FROM\n    emit Minted(accountFrom, block.timestamp /*, _postHash  */ , 'RESPOND FROM');\n    // mint RESPOND tokens for responded\n    _mint(accountTo, 4);\n    // set event for RESPOND token TO\n    emit Minted(accountTo, block.timestamp /*, _postHash  */ , 'RESPOND TO');\n  }\n  function mintCurate(address accountFrom, address accountTo /* , string memory _postHash */ ) public { // 2:4 Responder:Responded\n    require(postCaller==msg.sender, 'Error: wrong account');\n    require(minter!=accountFrom, 'Error: \"we\" cannot mint');\n    require(accountFrom!=accountTo, 'Error: same account'); // doesn't mint tokens if tagged oneself\n    //require(bytes(_postHash).length > 0, 'Error: no post exists');\n    // mint a CURATE token for curatee\n    _mint(accountFrom, 2);\n    // set event for CURATE token FROM\n    emit Minted(accountFrom, block.timestamp /*, _postHash  */ , 'CURATE');\n    // mint CURATE tokens for curator\n    _mint(accountTo, 4);\n    // set event for CURATE token TO\n    emit Minted(accountTo, block.timestamp /*, _postHash  */ , 'CURATE');\n  }\n  function mintRepost(address accountFrom, address accountTo) public {\n    require(postCaller==msg.sender, 'Error: wrong account');\n    require(minter!=accountFrom, 'Error: \"we\" cannot mint');\n    require(accountFrom!=accountTo, 'Error: same account');\n    //mint REPOST token for reposter\n    _mint(accountFrom, 5);\n    // set event for REPOST from\n    emit Minted(accountFrom, block.timestamp, 'REPOST');\n    // mint REPOST token for original poster\n    _mint(accountTo, 6);\n    // set event for REPOST to\n    emit Minted(accountFrom, block.timestamp, 'REPOST');\n  }\n  function mintJury(address account /* , string memory _postHash */ , bool consensusReached) public { // 4 Juror token if no consensus reached, 24 if consensus reached\n    require(userCaller==msg.sender, 'Error: wrong account');\n    require(minter!=account, 'Error: \"we\" cannot mint');\n    //require(bytes(_postHash).length > 0, 'Error: no post exists');\n    if(consensusReached==true){\n      // mint 10 JURY token for juror\n      _mint(account, 24);\n      // set event for JURY token consensus reached\n      emit Minted(account, block.timestamp /*, _postHash  */ , 'JURY');\n    } else if(consensusReached==false){\n      // mint a JURY token for juror\n      _mint(account, 4);\n      // set event for JURY no consensus reached\n      emit Minted(account, block.timestamp /*, _postHash  */ , 'JURY');\n    }\n  }\n\n  function passMinterRole(address we) public returns (bool) {\n    require(msg.sender == minter, 'Error, only owner can change pass minter role');\n    minter = we;\n\n    emit MinterChanged(msg.sender, we);\n    return true;\n  }\n  function passPostCallerRole(address post) public returns (bool) {\n    require(msg.sender == postCaller, 'Error, only owner can pass post\\'s caller role');\n\n    postCaller = post;\n    emit PostCallerChanged(msg.sender, post);\n    return true;\n  }\n  function passUserCallerRole(address user) public returns (bool) {\n    require(msg.sender == userCaller, 'Error, only owner can pass user\\'s caller role');\n\n    userCaller = user;\n    emit UserCallerChanged(msg.sender, user);\n    return true;\n  }\n}\n",
  "sourcePath": "/Users/jaiq/Documents/000 BLOCKCHAIN/ETH/uMe/src/contracts/UME.sol",
  "compiler": {
    "name": "solc",
    "version": "0.8.7+commit.e28d00a7.Emscripten.clang"
  },
  "schemaVersion": "3.4.3",
  "updatedAt": "2021-08-23T01:46:40.730Z",
  "devdoc": {
    "kind": "dev",
    "methods": {
      "allowance(address,address)": {
        "details": "See {IERC20-allowance}."
      },
      "approve(address,uint256)": {
        "details": "See {IERC20-approve}. Requirements: - `spender` cannot be the zero address."
      },
      "balanceOf(address)": {
        "details": "See {IERC20-balanceOf}."
      },
      "decimals()": {
        "details": "Returns the number of decimals used to get its user representation. For example, if `decimals` equals `2`, a balance of `505` tokens should be displayed to a user as `5.05` (`505 / 10 ** 2`). Tokens usually opt for a value of 18, imitating the relationship between Ether and Wei. This is the value {ERC20} uses, unless this function is overridden; NOTE: This information is only used for _display_ purposes: it in no way affects any of the arithmetic of the contract, including {IERC20-balanceOf} and {IERC20-transfer}."
      },
      "decreaseAllowance(address,uint256)": {
        "details": "Atomically decreases the allowance granted to `spender` by the caller. This is an alternative to {approve} that can be used as a mitigation for problems described in {IERC20-approve}. Emits an {Approval} event indicating the updated allowance. Requirements: - `spender` cannot be the zero address. - `spender` must have allowance for the caller of at least `subtractedValue`."
      },
      "increaseAllowance(address,uint256)": {
        "details": "Atomically increases the allowance granted to `spender` by the caller. This is an alternative to {approve} that can be used as a mitigation for problems described in {IERC20-approve}. Emits an {Approval} event indicating the updated allowance. Requirements: - `spender` cannot be the zero address."
      },
      "name()": {
        "details": "Returns the name of the token."
      },
      "symbol()": {
        "details": "Returns the symbol of the token, usually a shorter version of the name."
      },
      "totalSupply()": {
        "details": "See {IERC20-totalSupply}."
      },
      "transfer(address,uint256)": {
        "details": "See {IERC20-transfer}. Requirements: - `recipient` cannot be the zero address. - the caller must have a balance of at least `amount`."
      },
      "transferFrom(address,address,uint256)": {
        "details": "See {IERC20-transferFrom}. Emits an {Approval} event indicating the updated allowance. This is not required by the EIP. See the note at the beginning of {ERC20}. Requirements: - `sender` and `recipient` cannot be the zero address. - `sender` must have a balance of at least `amount`. - the caller must have allowance for ``sender``'s tokens of at least `amount`."
      }
    },
    "version": 1
  },
  "userdoc": {
    "kind": "user",
    "methods": {},
    "version": 1
  }
}