{
  "contractName": "UME",
  "abi": [
    {
      "inputs": [],
      "stateMutability": "payable",
      "type": "constructor"
    },
    {
      "anonymous": false,
      "inputs": [
        {
          "indexed": true,
          "internalType": "address",
          "name": "owner",
          "type": "address"
        },
        {
          "indexed": true,
          "internalType": "address",
          "name": "spender",
          "type": "address"
        },
        {
          "indexed": false,
          "internalType": "uint256",
          "name": "value",
          "type": "uint256"
        }
      ],
      "name": "Approval",
      "type": "event"
    },
    {
      "anonymous": false,
      "inputs": [
        {
          "indexed": false,
          "internalType": "address",
          "name": "account",
          "type": "address"
        },
        {
          "indexed": false,
          "internalType": "uint256",
          "name": "time",
          "type": "uint256"
        },
        {
          "indexed": false,
          "internalType": "string",
          "name": "postHash",
          "type": "string"
        },
        {
          "indexed": false,
          "internalType": "string",
          "name": "originHash",
          "type": "string"
        },
        {
          "indexed": false,
          "internalType": "string",
          "name": "flag",
          "type": "string"
        }
      ],
      "name": "MintCurate",
      "type": "event"
    },
    {
      "anonymous": false,
      "inputs": [
        {
          "indexed": false,
          "internalType": "address",
          "name": "account",
          "type": "address"
        },
        {
          "indexed": false,
          "internalType": "uint256",
          "name": "time",
          "type": "uint256"
        },
        {
          "indexed": false,
          "internalType": "string",
          "name": "flag",
          "type": "string"
        }
      ],
      "name": "MintFollow",
      "type": "event"
    },
    {
      "anonymous": false,
      "inputs": [
        {
          "indexed": false,
          "internalType": "address",
          "name": "account",
          "type": "address"
        },
        {
          "indexed": false,
          "internalType": "uint256",
          "name": "time",
          "type": "uint256"
        },
        {
          "indexed": false,
          "internalType": "string",
          "name": "postHash",
          "type": "string"
        },
        {
          "indexed": false,
          "internalType": "string",
          "name": "flag",
          "type": "string"
        }
      ],
      "name": "MintJury",
      "type": "event"
    },
    {
      "anonymous": false,
      "inputs": [
        {
          "indexed": false,
          "internalType": "address",
          "name": "account",
          "type": "address"
        },
        {
          "indexed": false,
          "internalType": "uint256",
          "name": "time",
          "type": "uint256"
        },
        {
          "indexed": false,
          "internalType": "string",
          "name": "postHash",
          "type": "string"
        },
        {
          "indexed": false,
          "internalType": "string",
          "name": "flag",
          "type": "string"
        }
      ],
      "name": "MintLike",
      "type": "event"
    },
    {
      "anonymous": false,
      "inputs": [
        {
          "indexed": false,
          "internalType": "address",
          "name": "account",
          "type": "address"
        },
        {
          "indexed": false,
          "internalType": "uint256",
          "name": "time",
          "type": "uint256"
        },
        {
          "indexed": false,
          "internalType": "string",
          "name": "postHash",
          "type": "string"
        },
        {
          "indexed": false,
          "internalType": "string",
          "name": "flag",
          "type": "string"
        }
      ],
      "name": "MintPost",
      "type": "event"
    },
    {
      "anonymous": false,
      "inputs": [
        {
          "indexed": false,
          "internalType": "address",
          "name": "account",
          "type": "address"
        },
        {
          "indexed": false,
          "internalType": "uint256",
          "name": "time",
          "type": "uint256"
        },
        {
          "indexed": false,
          "internalType": "string",
          "name": "postHash",
          "type": "string"
        },
        {
          "indexed": false,
          "internalType": "string",
          "name": "originHash",
          "type": "string"
        },
        {
          "indexed": false,
          "internalType": "string",
          "name": "flag",
          "type": "string"
        }
      ],
      "name": "MintRespond",
      "type": "event"
    },
    {
      "anonymous": false,
      "inputs": [
        {
          "indexed": false,
          "internalType": "address",
          "name": "account",
          "type": "address"
        },
        {
          "indexed": false,
          "internalType": "uint256",
          "name": "time",
          "type": "uint256"
        },
        {
          "indexed": false,
          "internalType": "string",
          "name": "postHash",
          "type": "string"
        },
        {
          "indexed": false,
          "internalType": "string",
          "name": "flag",
          "type": "string"
        }
      ],
      "name": "MintTag",
      "type": "event"
    },
    {
      "anonymous": false,
      "inputs": [
        {
          "indexed": false,
          "internalType": "address",
          "name": "accountFrom",
          "type": "address"
        },
        {
          "indexed": false,
          "internalType": "address",
          "name": "accountTo",
          "type": "address"
        }
      ],
      "name": "MinterChanged",
      "type": "event"
    },
    {
      "anonymous": false,
      "inputs": [
        {
          "indexed": true,
          "internalType": "address",
          "name": "from",
          "type": "address"
        },
        {
          "indexed": true,
          "internalType": "address",
          "name": "to",
          "type": "address"
        },
        {
          "indexed": false,
          "internalType": "uint256",
          "name": "value",
          "type": "uint256"
        }
      ],
      "name": "Transfer",
      "type": "event"
    },
    {
      "inputs": [
        {
          "internalType": "address",
          "name": "owner",
          "type": "address"
        },
        {
          "internalType": "address",
          "name": "spender",
          "type": "address"
        }
      ],
      "name": "allowance",
      "outputs": [
        {
          "internalType": "uint256",
          "name": "",
          "type": "uint256"
        }
      ],
      "stateMutability": "view",
      "type": "function"
    },
    {
      "inputs": [
        {
          "internalType": "address",
          "name": "spender",
          "type": "address"
        },
        {
          "internalType": "uint256",
          "name": "amount",
          "type": "uint256"
        }
      ],
      "name": "approve",
      "outputs": [
        {
          "internalType": "bool",
          "name": "",
          "type": "bool"
        }
      ],
      "stateMutability": "nonpayable",
      "type": "function"
    },
    {
      "inputs": [
        {
          "internalType": "address",
          "name": "account",
          "type": "address"
        }
      ],
      "name": "balanceOf",
      "outputs": [
        {
          "internalType": "uint256",
          "name": "",
          "type": "uint256"
        }
      ],
      "stateMutability": "view",
      "type": "function"
    },
    {
      "inputs": [],
      "name": "decimals",
      "outputs": [
        {
          "internalType": "uint8",
          "name": "",
          "type": "uint8"
        }
      ],
      "stateMutability": "view",
      "type": "function"
    },
    {
      "inputs": [
        {
          "internalType": "address",
          "name": "spender",
          "type": "address"
        },
        {
          "internalType": "uint256",
          "name": "subtractedValue",
          "type": "uint256"
        }
      ],
      "name": "decreaseAllowance",
      "outputs": [
        {
          "internalType": "bool",
          "name": "",
          "type": "bool"
        }
      ],
      "stateMutability": "nonpayable",
      "type": "function"
    },
    {
      "inputs": [
        {
          "internalType": "address",
          "name": "spender",
          "type": "address"
        },
        {
          "internalType": "uint256",
          "name": "addedValue",
          "type": "uint256"
        }
      ],
      "name": "increaseAllowance",
      "outputs": [
        {
          "internalType": "bool",
          "name": "",
          "type": "bool"
        }
      ],
      "stateMutability": "nonpayable",
      "type": "function"
    },
    {
      "inputs": [],
      "name": "minter",
      "outputs": [
        {
          "internalType": "address",
          "name": "",
          "type": "address"
        }
      ],
      "stateMutability": "view",
      "type": "function"
    },
    {
      "inputs": [],
      "name": "name",
      "outputs": [
        {
          "internalType": "string",
          "name": "",
          "type": "string"
        }
      ],
      "stateMutability": "view",
      "type": "function"
    },
    {
      "inputs": [],
      "name": "symbol",
      "outputs": [
        {
          "internalType": "string",
          "name": "",
          "type": "string"
        }
      ],
      "stateMutability": "view",
      "type": "function"
    },
    {
      "inputs": [],
      "name": "totalSupply",
      "outputs": [
        {
          "internalType": "uint256",
          "name": "",
          "type": "uint256"
        }
      ],
      "stateMutability": "view",
      "type": "function"
    },
    {
      "inputs": [
        {
          "internalType": "address",
          "name": "recipient",
          "type": "address"
        },
        {
          "internalType": "uint256",
          "name": "amount",
          "type": "uint256"
        }
      ],
      "name": "transfer",
      "outputs": [
        {
          "internalType": "bool",
          "name": "",
          "type": "bool"
        }
      ],
      "stateMutability": "nonpayable",
      "type": "function"
    },
    {
      "inputs": [
        {
          "internalType": "address",
          "name": "sender",
          "type": "address"
        },
        {
          "internalType": "address",
          "name": "recipient",
          "type": "address"
        },
        {
          "internalType": "uint256",
          "name": "amount",
          "type": "uint256"
        }
      ],
      "name": "transferFrom",
      "outputs": [
        {
          "internalType": "bool",
          "name": "",
          "type": "bool"
        }
      ],
      "stateMutability": "nonpayable",
      "type": "function"
    },
    {
      "inputs": [
        {
          "internalType": "address",
          "name": "account",
          "type": "address"
        },
        {
          "internalType": "string",
          "name": "_postHash",
          "type": "string"
        },
        {
          "internalType": "string",
          "name": "_postText",
          "type": "string"
        }
      ],
      "name": "mintPost",
      "outputs": [],
      "stateMutability": "nonpayable",
      "type": "function"
    },
    {
      "inputs": [
        {
          "internalType": "address",
          "name": "accountFrom",
          "type": "address"
        },
        {
          "internalType": "address",
          "name": "accountTo",
          "type": "address"
        },
        {
          "internalType": "string",
          "name": "_postHash",
          "type": "string"
        }
      ],
      "name": "mintLike",
      "outputs": [],
      "stateMutability": "nonpayable",
      "type": "function"
    },
    {
      "inputs": [
        {
          "internalType": "address",
          "name": "accountFrom",
          "type": "address"
        },
        {
          "internalType": "address",
          "name": "accountTo",
          "type": "address"
        },
        {
          "internalType": "string",
          "name": "_postHash",
          "type": "string"
        }
      ],
      "name": "mintTag",
      "outputs": [],
      "stateMutability": "nonpayable",
      "type": "function"
    },
    {
      "inputs": [
        {
          "internalType": "address",
          "name": "accountFrom",
          "type": "address"
        },
        {
          "internalType": "address",
          "name": "accountTo",
          "type": "address"
        }
      ],
      "name": "mintFollow",
      "outputs": [],
      "stateMutability": "nonpayable",
      "type": "function"
    },
    {
      "inputs": [
        {
          "internalType": "address",
          "name": "accountFrom",
          "type": "address"
        },
        {
          "internalType": "address",
          "name": "accountTo",
          "type": "address"
        },
        {
          "internalType": "string",
          "name": "_postHash",
          "type": "string"
        },
        {
          "internalType": "string",
          "name": "_originHash",
          "type": "string"
        }
      ],
      "name": "mintRespond",
      "outputs": [],
      "stateMutability": "nonpayable",
      "type": "function"
    },
    {
      "inputs": [
        {
          "internalType": "address",
          "name": "accountFrom",
          "type": "address"
        },
        {
          "internalType": "address",
          "name": "accountTo",
          "type": "address"
        },
        {
          "internalType": "string",
          "name": "_postHash",
          "type": "string"
        },
        {
          "internalType": "string",
          "name": "_originHash",
          "type": "string"
        }
      ],
      "name": "mintCurate",
      "outputs": [],
      "stateMutability": "nonpayable",
      "type": "function"
    },
    {
      "inputs": [
        {
          "internalType": "address",
          "name": "account",
          "type": "address"
        },
        {
          "internalType": "string",
          "name": "_postHash",
          "type": "string"
        },
        {
          "internalType": "bool",
          "name": "consensusReached",
          "type": "bool"
        }
      ],
      "name": "mintJury",
      "outputs": [],
      "stateMutability": "nonpayable",
      "type": "function"
    },
    {
      "inputs": [
        {
          "internalType": "address",
          "name": "we",
          "type": "address"
        }
      ],
      "name": "passMinterRole",
      "outputs": [
        {
          "internalType": "bool",
          "name": "",
          "type": "bool"
        }
      ],
      "stateMutability": "nonpayable",
      "type": "function"
    }
  ],
  "bytecode": "0x60806040526040518060400160405280600981526020017f754d6520746f6b656e00000000000000000000000000000000000000000000008152506040518060400160405280600381526020017f554d450000000000000000000000000000000000000000000000000000000000815250816003908051906020019062000088929190620000eb565b508060049080519060200190620000a1929190620000eb565b50505033600560006101000a81548173ffffffffffffffffffffffffffffffffffffffff021916908373ffffffffffffffffffffffffffffffffffffffff16021790555062000200565b828054620000f9906200019b565b90600052602060002090601f0160209004810192826200011d576000855562000169565b82601f106200013857805160ff191683800117855562000169565b8280016001018555821562000169579182015b82811115620001685782518255916020019190600101906200014b565b5b5090506200017891906200017c565b5090565b5b80821115620001975760008160009055506001016200017d565b5090565b60006002820490506001821680620001b457607f821691505b60208210811415620001cb57620001ca620001d1565b5b50919050565b7f4e487b7100000000000000000000000000000000000000000000000000000000600052602260045260246000fd5b612ff680620002106000396000f3fe608060405234801561001057600080fd5b506004361061012c5760003560e01c8063639bee54116100ad578063a457c2d711610071578063a457c2d71461032f578063a9059cbb1461035f578063d7fc5b151461038f578063dd62ed3e146103bf578063e96428a7146103ef5761012c565b8063639bee541461028d57806370a08231146102a957806393a38557146102d957806395d89b41146102f5578063a272624a146103135761012c565b806323b872dd116100f457806323b872dd146101d75780632d599ba514610207578063313ce567146102235780633481c8bd14610241578063395093511461025d5761012c565b806306fdde0314610131578063075461721461014f578063095ea7b31461016d578063121421501461019d57806318160ddd146101b9575b600080fd5b61013961040b565b60405161014691906126d1565b60405180910390f35b61015761049d565b6040516101649190612426565b60405180910390f35b610187600480360381019061018291906120b5565b6104c3565b60405161019491906126b6565b60405180910390f35b6101b760048036038101906101b29190611fbb565b6104e1565b005b6101c16106d6565b6040516101ce9190612893565b60405180910390f35b6101f160048036038101906101ec9190611f68565b6106e0565b6040516101fe91906126b6565b60405180910390f35b610221600480360381019061021c9190611e1a565b6107d8565b005b61022b6109d2565b60405161023891906128ae565b60405180910390f35b61025b60048036038101906102569190611ec9565b6109db565b005b610277600480360381019061027291906120b5565b610c23565b60405161028491906126b6565b60405180910390f35b6102a760048036038101906102a2919061202a565b610ccf565b005b6102c360048036038101906102be9190611ded565b610ea1565b6040516102d09190612893565b60405180910390f35b6102f360048036038101906102ee9190611ec9565b610ee9565b005b6102fd6110c2565b60405161030a91906126d1565b60405180910390f35b61032d60048036038101906103289190611e5a565b611154565b005b610349600480360381019061034491906120b5565b611397565b60405161035691906126b6565b60405180910390f35b610379600480360381019061037491906120b5565b611482565b60405161038691906126b6565b60405180910390f35b6103a960048036038101906103a49190611ded565b6114a0565b6040516103b691906126b6565b60405180910390f35b6103d960048036038101906103d49190611e1a565b611525565b6040516103e69190612893565b60405180910390f35b61040960048036038101906104049190611e5a565b6115ac565b005b60606003805461041a90612a28565b80601f016020809104026020016040519081016040528092919081815260200182805461044690612a28565b80156104935780601f1061046857610100808354040283529160200191610493565b820191906000526020600020905b81548152906001019060200180831161047657829003601f168201915b5050505050905090565b600560009054906101000a900473ffffffffffffffffffffffffffffffffffffffff1681565b60006104d76104d0611780565b8484611788565b6001905092915050565b3373ffffffffffffffffffffffffffffffffffffffff168373ffffffffffffffffffffffffffffffffffffffff161461054f576040517f08c379a0000000000000000000000000000000000000000000000000000000008152600401610546906127b3565b60405180910390fd5b3373ffffffffffffffffffffffffffffffffffffffff16600560009054906101000a900473ffffffffffffffffffffffffffffffffffffffff1673ffffffffffffffffffffffffffffffffffffffff1614156105e0576040517f08c379a00000000000000000000000000000000000000000000000000000000081526004016105d790612813565b60405180910390fd5b6000825111610624576040517f08c379a000000000000000000000000000000000000000000000000000000000815260040161061b90612773565b60405180910390fd5b60011515811515141561067c5761063c836018611953565b7f0306a481f2c308645d4008d28f13bbceda62e1342d33458fe1628c5567950e7e83428460405161066f93929190612629565b60405180910390a16106d1565b6000151581151514156106d057610694836004611953565b7f0306a481f2c308645d4008d28f13bbceda62e1342d33458fe1628c5567950e7e8342846040516106c793929190612629565b60405180910390a15b5b505050565b6000600254905090565b60006106ed848484611ab3565b6000600160008673ffffffffffffffffffffffffffffffffffffffff1673ffffffffffffffffffffffffffffffffffffffff1681526020019081526020016000206000610738611780565b73ffffffffffffffffffffffffffffffffffffffff1673ffffffffffffffffffffffffffffffffffffffff168152602001908152602001600020549050828110156107b8576040517f08c379a00000000000000000000000000000000000000000000000000000000081526004016107af90612793565b60405180910390fd5b6107cc856107c4611780565b858403611788565b60019150509392505050565b3373ffffffffffffffffffffffffffffffffffffffff168273ffffffffffffffffffffffffffffffffffffffff1614610846576040517f08c379a000000000000000000000000000000000000000000000000000000000815260040161083d906127b3565b60405180910390fd5b3373ffffffffffffffffffffffffffffffffffffffff16600560009054906101000a900473ffffffffffffffffffffffffffffffffffffffff1673ffffffffffffffffffffffffffffffffffffffff1614156108d7576040517f08c379a00000000000000000000000000000000000000000000000000000000081526004016108ce90612813565b60405180910390fd5b8073ffffffffffffffffffffffffffffffffffffffff168273ffffffffffffffffffffffffffffffffffffffff161415610946576040517f08c379a000000000000000000000000000000000000000000000000000000000815260040161093d906127d3565b60405180910390fd5b610951826001611953565b7f7c0ea55d543d8df5c1c6da46c4ceee0edd5b4562fe559d836e7ee76a1ea51b8f824260405161098292919061267a565b60405180910390a1610995816006611953565b7f7c0ea55d543d8df5c1c6da46c4ceee0edd5b4562fe559d836e7ee76a1ea51b8f81426040516109c692919061267a565b60405180910390a15050565b60006012905090565b3373ffffffffffffffffffffffffffffffffffffffff168473ffffffffffffffffffffffffffffffffffffffff1614610a49576040517f08c379a0000000000000000000000000000000000000000000000000000000008152600401610a40906127b3565b60405180910390fd5b3373ffffffffffffffffffffffffffffffffffffffff16600560009054906101000a900473ffffffffffffffffffffffffffffffffffffffff1673ffffffffffffffffffffffffffffffffffffffff161415610ada576040517f08c379a0000000000000000000000000000000000000000000000000000000008152600401610ad190612813565b60405180910390fd5b8273ffffffffffffffffffffffffffffffffffffffff168473ffffffffffffffffffffffffffffffffffffffff161415610b49576040517f08c379a0000000000000000000000000000000000000000000000000000000008152600401610b40906127d3565b60405180910390fd5b6000825111610b8d576040517f08c379a0000000000000000000000000000000000000000000000000000000008152600401610b8490612773565b60405180910390fd5b610b98846004611953565b7fdf16c7727dddd52f4a45f8692d13c46a72c2860177ef05e6691937aca746f60984428484604051610bcd94939291906124d0565b60405180910390a1610be0836001611953565b7fdf16c7727dddd52f4a45f8692d13c46a72c2860177ef05e6691937aca746f60983428484604051610c1594939291906124d0565b60405180910390a150505050565b6000610cc5610c30611780565b848460016000610c3e611780565b73ffffffffffffffffffffffffffffffffffffffff1673ffffffffffffffffffffffffffffffffffffffff16815260200190815260200160002060008873ffffffffffffffffffffffffffffffffffffffff1673ffffffffffffffffffffffffffffffffffffffff16815260200190815260200160002054610cc0919061293b565b611788565b6001905092915050565b3373ffffffffffffffffffffffffffffffffffffffff168373ffffffffffffffffffffffffffffffffffffffff1614610d3d576040517f08c379a0000000000000000000000000000000000000000000000000000000008152600401610d34906127b3565b60405180910390fd5b3373ffffffffffffffffffffffffffffffffffffffff16600560009054906101000a900473ffffffffffffffffffffffffffffffffffffffff1673ffffffffffffffffffffffffffffffffffffffff161415610dce576040517f08c379a0000000000000000000000000000000000000000000000000000000008152600401610dc590612813565b60405180910390fd5b6000825111610e12576040517f08c379a0000000000000000000000000000000000000000000000000000000008152600401610e0990612773565b60405180910390fd5b6000815111610e56576040517f08c379a0000000000000000000000000000000000000000000000000000000008152600401610e4d90612753565b60405180910390fd5b610e61836008611953565b7f54c85948e744c9b2fba45fe89b12b6f58d06829b2f18b2a030dea31ddf0af66a834284604051610e9493929190612587565b60405180910390a1505050565b60008060008373ffffffffffffffffffffffffffffffffffffffff1673ffffffffffffffffffffffffffffffffffffffff168152602001908152602001600020549050919050565b3373ffffffffffffffffffffffffffffffffffffffff168473ffffffffffffffffffffffffffffffffffffffff1614610f57576040517f08c379a0000000000000000000000000000000000000000000000000000000008152600401610f4e906127b3565b60405180910390fd5b3373ffffffffffffffffffffffffffffffffffffffff16600560009054906101000a900473ffffffffffffffffffffffffffffffffffffffff1673ffffffffffffffffffffffffffffffffffffffff161415610fe8576040517f08c379a0000000000000000000000000000000000000000000000000000000008152600401610fdf90612813565b60405180910390fd5b600082511161102c576040517f08c379a000000000000000000000000000000000000000000000000000000000815260040161102390612773565b60405180910390fd5b611037846008611953565b7f247139e6ee6a02cb872fbd88b581282caca51f5b56a9b45e9eec75facb37ccb58442848460405161106c949392919061246a565b60405180910390a161107f836002611953565b7f247139e6ee6a02cb872fbd88b581282caca51f5b56a9b45e9eec75facb37ccb5834284846040516110b4949392919061246a565b60405180910390a150505050565b6060600480546110d190612a28565b80601f01602080910402602001604051908101604052809291908181526020018280546110fd90612a28565b801561114a5780601f1061111f5761010080835404028352916020019161114a565b820191906000526020600020905b81548152906001019060200180831161112d57829003601f168201915b5050505050905090565b3373ffffffffffffffffffffffffffffffffffffffff168373ffffffffffffffffffffffffffffffffffffffff16146111c2576040517f08c379a00000000000000000000000000000000000000000000000000000000081526004016111b9906127b3565b60405180910390fd5b3373ffffffffffffffffffffffffffffffffffffffff16600560009054906101000a900473ffffffffffffffffffffffffffffffffffffffff1673ffffffffffffffffffffffffffffffffffffffff161415611253576040517f08c379a000000000000000000000000000000000000000000000000000000000815260040161124a90612813565b60405180910390fd5b8173ffffffffffffffffffffffffffffffffffffffff168373ffffffffffffffffffffffffffffffffffffffff1614156112c2576040517f08c379a00000000000000000000000000000000000000000000000000000000081526004016112b9906127d3565b60405180910390fd5b6000815111611306576040517f08c379a00000000000000000000000000000000000000000000000000000000081526004016112fd90612773565b60405180910390fd5b611311836001611953565b7f6a3c06376bdba0c0fc95f541783fee611189813f61ccebf2a22a8c75df6f9e1e834283604051611344939291906125d8565b60405180910390a1611357826002611953565b7f6a3c06376bdba0c0fc95f541783fee611189813f61ccebf2a22a8c75df6f9e1e82428360405161138a939291906125d8565b60405180910390a1505050565b600080600160006113a6611780565b73ffffffffffffffffffffffffffffffffffffffff1673ffffffffffffffffffffffffffffffffffffffff16815260200190815260200160002060008573ffffffffffffffffffffffffffffffffffffffff1673ffffffffffffffffffffffffffffffffffffffff16815260200190815260200160002054905082811015611463576040517f08c379a000000000000000000000000000000000000000000000000000000000815260040161145a90612853565b60405180910390fd5b61147761146e611780565b85858403611788565b600191505092915050565b600061149661148f611780565b8484611ab3565b6001905092915050565b600081600560006101000a81548173ffffffffffffffffffffffffffffffffffffffff021916908373ffffffffffffffffffffffffffffffffffffffff1602179055507f3b0007eb941cf645526cbb3a4fdaecda9d28ce4843167d9263b536a1f1edc0f63383604051611514929190612441565b60405180910390a160019050919050565b6000600160008473ffffffffffffffffffffffffffffffffffffffff1673ffffffffffffffffffffffffffffffffffffffff16815260200190815260200160002060008373ffffffffffffffffffffffffffffffffffffffff1673ffffffffffffffffffffffffffffffffffffffff16815260200190815260200160002054905092915050565b3373ffffffffffffffffffffffffffffffffffffffff168373ffffffffffffffffffffffffffffffffffffffff161461161a576040517f08c379a0000000000000000000000000000000000000000000000000000000008152600401611611906127b3565b60405180910390fd5b3373ffffffffffffffffffffffffffffffffffffffff16600560009054906101000a900473ffffffffffffffffffffffffffffffffffffffff1673ffffffffffffffffffffffffffffffffffffffff1614156116ab576040517f08c379a00000000000000000000000000000000000000000000000000000000081526004016116a290612813565b60405180910390fd5b60008151116116ef576040517f08c379a00000000000000000000000000000000000000000000000000000000081526004016116e690612773565b60405180910390fd5b6116fa836002611953565b7fa25af56307a83a51e552d38b19fe083dcae3f30a8fa1f0cc90e44243a429523d83428360405161172d93929190612536565b60405180910390a1611740826004611953565b7fa25af56307a83a51e552d38b19fe083dcae3f30a8fa1f0cc90e44243a429523d82428360405161177393929190612536565b60405180910390a1505050565b600033905090565b600073ffffffffffffffffffffffffffffffffffffffff168373ffffffffffffffffffffffffffffffffffffffff1614156117f8576040517f08c379a00000000000000000000000000000000000000000000000000000000081526004016117ef90612833565b60405180910390fd5b600073ffffffffffffffffffffffffffffffffffffffff168273ffffffffffffffffffffffffffffffffffffffff161415611868576040517f08c379a000000000000000000000000000000000000000000000000000000000815260040161185f90612713565b60405180910390fd5b80600160008573ffffffffffffffffffffffffffffffffffffffff1673ffffffffffffffffffffffffffffffffffffffff16815260200190815260200160002060008473ffffffffffffffffffffffffffffffffffffffff1673ffffffffffffffffffffffffffffffffffffffff168152602001908152602001600020819055508173ffffffffffffffffffffffffffffffffffffffff168373ffffffffffffffffffffffffffffffffffffffff167f8c5be1e5ebec7d5bd14f71427d1e84f3dd0314c0f7b2291e5b200ac8c7c3b925836040516119469190612893565b60405180910390a3505050565b600073ffffffffffffffffffffffffffffffffffffffff168273ffffffffffffffffffffffffffffffffffffffff1614156119c3576040517f08c379a00000000000000000000000000000000000000000000000000000000081526004016119ba90612873565b60405180910390fd5b6119cf60008383611d34565b80600260008282546119e1919061293b565b92505081905550806000808473ffffffffffffffffffffffffffffffffffffffff1673ffffffffffffffffffffffffffffffffffffffff1681526020019081526020016000206000828254611a36919061293b565b925050819055508173ffffffffffffffffffffffffffffffffffffffff16600073ffffffffffffffffffffffffffffffffffffffff167fddf252ad1be2c89b69c2b068fc378daa952ba7f163c4a11628f55a4df523b3ef83604051611a9b9190612893565b60405180910390a3611aaf60008383611d39565b5050565b600073ffffffffffffffffffffffffffffffffffffffff168373ffffffffffffffffffffffffffffffffffffffff161415611b23576040517f08c379a0000000000000000000000000000000000000000000000000000000008152600401611b1a906127f3565b60405180910390fd5b600073ffffffffffffffffffffffffffffffffffffffff168273ffffffffffffffffffffffffffffffffffffffff161415611b93576040517f08c379a0000000000000000000000000000000000000000000000000000000008152600401611b8a906126f3565b60405180910390fd5b611b9e838383611d34565b60008060008573ffffffffffffffffffffffffffffffffffffffff1673ffffffffffffffffffffffffffffffffffffffff16815260200190815260200160002054905081811015611c24576040517f08c379a0000000000000000000000000000000000000000000000000000000008152600401611c1b90612733565b60405180910390fd5b8181036000808673ffffffffffffffffffffffffffffffffffffffff1673ffffffffffffffffffffffffffffffffffffffff16815260200190815260200160002081905550816000808573ffffffffffffffffffffffffffffffffffffffff1673ffffffffffffffffffffffffffffffffffffffff1681526020019081526020016000206000828254611cb7919061293b565b925050819055508273ffffffffffffffffffffffffffffffffffffffff168473ffffffffffffffffffffffffffffffffffffffff167fddf252ad1be2c89b69c2b068fc378daa952ba7f163c4a11628f55a4df523b3ef84604051611d1b9190612893565b60405180910390a3611d2e848484611d39565b50505050565b505050565b505050565b6000611d51611d4c846128ee565b6128c9565b905082815260208101848484011115611d6d57611d6c612b1d565b5b611d788482856129e6565b509392505050565b600081359050611d8f81612f7b565b92915050565b600081359050611da481612f92565b92915050565b600082601f830112611dbf57611dbe612b18565b5b8135611dcf848260208601611d3e565b91505092915050565b600081359050611de781612fa9565b92915050565b600060208284031215611e0357611e02612b27565b5b6000611e1184828501611d80565b91505092915050565b60008060408385031215611e3157611e30612b27565b5b6000611e3f85828601611d80565b9250506020611e5085828601611d80565b9150509250929050565b600080600060608486031215611e7357611e72612b27565b5b6000611e8186828701611d80565b9350506020611e9286828701611d80565b925050604084013567ffffffffffffffff811115611eb357611eb2612b22565b5b611ebf86828701611daa565b9150509250925092565b60008060008060808587031215611ee357611ee2612b27565b5b6000611ef187828801611d80565b9450506020611f0287828801611d80565b935050604085013567ffffffffffffffff811115611f2357611f22612b22565b5b611f2f87828801611daa565b925050606085013567ffffffffffffffff811115611f5057611f4f612b22565b5b611f5c87828801611daa565b91505092959194509250565b600080600060608486031215611f8157611f80612b27565b5b6000611f8f86828701611d80565b9350506020611fa086828701611d80565b9250506040611fb186828701611dd8565b9150509250925092565b600080600060608486031215611fd457611fd3612b27565b5b6000611fe286828701611d80565b935050602084013567ffffffffffffffff81111561200357612002612b22565b5b61200f86828701611daa565b925050604061202086828701611d95565b9150509250925092565b60008060006060848603121561204357612042612b27565b5b600061205186828701611d80565b935050602084013567ffffffffffffffff81111561207257612071612b22565b5b61207e86828701611daa565b925050604084013567ffffffffffffffff81111561209f5761209e612b22565b5b6120ab86828701611daa565b9150509250925092565b600080604083850312156120cc576120cb612b27565b5b60006120da85828601611d80565b92505060206120eb85828601611dd8565b9150509250929050565b6120fe81612991565b82525050565b61210d816129a3565b82525050565b600061211e8261291f565b612128818561292a565b93506121388185602086016129f5565b61214181612b2c565b840191505092915050565b600061215960238361292a565b915061216482612b3d565b604082019050919050565b600061217c60078361292a565b915061218782612b8c565b602082019050919050565b600061219f60048361292a565b91506121aa82612bb5565b602082019050919050565b60006121c260228361292a565b91506121cd82612bde565b604082019050919050565b60006121e560048361292a565b91506121f082612c2d565b602082019050919050565b600061220860038361292a565b915061221382612c56565b602082019050919050565b600061222b60268361292a565b915061223682612c7f565b604082019050919050565b600061224e60168361292a565b915061225982612cce565b602082019050919050565b600061227160068361292a565b915061227c82612cf7565b602082019050919050565b600061229460158361292a565b915061229f82612d20565b602082019050919050565b60006122b760288361292a565b91506122c282612d49565b604082019050919050565b60006122da60048361292a565b91506122e582612d98565b602082019050919050565b60006122fd60148361292a565b915061230882612dc1565b602082019050919050565b600061232060138361292a565b915061232b82612dea565b602082019050919050565b600061234360258361292a565b915061234e82612e13565b604082019050919050565b600061236660178361292a565b915061237182612e62565b602082019050919050565b600061238960248361292a565b915061239482612e8b565b604082019050919050565b60006123ac60068361292a565b91506123b782612eda565b602082019050919050565b60006123cf60258361292a565b91506123da82612f03565b604082019050919050565b60006123f2601f8361292a565b91506123fd82612f52565b602082019050919050565b612411816129cf565b82525050565b612420816129d9565b82525050565b600060208201905061243b60008301846120f5565b92915050565b600060408201905061245660008301856120f5565b61246360208301846120f5565b9392505050565b600060a08201905061247f60008301876120f5565b61248c6020830186612408565b818103604083015261249e8185612113565b905081810360608301526124b28184612113565b905081810360808301526124c58161216f565b905095945050505050565b600060a0820190506124e560008301876120f5565b6124f26020830186612408565b81810360408301526125048185612113565b905081810360608301526125188184612113565b9050818103608083015261252b81612264565b905095945050505050565b600060808201905061254b60008301866120f5565b6125586020830185612408565b818103604083015261256a8184612113565b9050818103606083015261257d81612192565b9050949350505050565b600060808201905061259c60008301866120f5565b6125a96020830185612408565b81810360408301526125bb8184612113565b905081810360608301526125ce816121d8565b9050949350505050565b60006080820190506125ed60008301866120f5565b6125fa6020830185612408565b818103604083015261260c8184612113565b9050818103606083015261261f816121fb565b9050949350505050565b600060808201905061263e60008301866120f5565b61264b6020830185612408565b818103604083015261265d8184612113565b90508181036060830152612670816122cd565b9050949350505050565b600060608201905061268f60008301856120f5565b61269c6020830184612408565b81810360408301526126ad8161239f565b90509392505050565b60006020820190506126cb6000830184612104565b92915050565b600060208201905081810360008301526126eb8184612113565b905092915050565b6000602082019050818103600083015261270c8161214c565b9050919050565b6000602082019050818103600083015261272c816121b5565b9050919050565b6000602082019050818103600083015261274c8161221e565b9050919050565b6000602082019050818103600083015261276c81612241565b9050919050565b6000602082019050818103600083015261278c81612287565b9050919050565b600060208201905081810360008301526127ac816122aa565b9050919050565b600060208201905081810360008301526127cc816122f0565b9050919050565b600060208201905081810360008301526127ec81612313565b9050919050565b6000602082019050818103600083015261280c81612336565b9050919050565b6000602082019050818103600083015261282c81612359565b9050919050565b6000602082019050818103600083015261284c8161237c565b9050919050565b6000602082019050818103600083015261286c816123c2565b9050919050565b6000602082019050818103600083015261288c816123e5565b9050919050565b60006020820190506128a86000830184612408565b92915050565b60006020820190506128c36000830184612417565b92915050565b60006128d36128e4565b90506128df8282612a5a565b919050565b6000604051905090565b600067ffffffffffffffff82111561290957612908612ae9565b5b61291282612b2c565b9050602081019050919050565b600081519050919050565b600082825260208201905092915050565b6000612946826129cf565b9150612951836129cf565b9250827fffffffffffffffffffffffffffffffffffffffffffffffffffffffffffffffff0382111561298657612985612a8b565b5b828201905092915050565b600061299c826129af565b9050919050565b60008115159050919050565b600073ffffffffffffffffffffffffffffffffffffffff82169050919050565b6000819050919050565b600060ff82169050919050565b82818337600083830152505050565b60005b83811015612a135780820151818401526020810190506129f8565b83811115612a22576000848401525b50505050565b60006002820490506001821680612a4057607f821691505b60208210811415612a5457612a53612aba565b5b50919050565b612a6382612b2c565b810181811067ffffffffffffffff82111715612a8257612a81612ae9565b5b80604052505050565b7f4e487b7100000000000000000000000000000000000000000000000000000000600052601160045260246000fd5b7f4e487b7100000000000000000000000000000000000000000000000000000000600052602260045260246000fd5b7f4e487b7100000000000000000000000000000000000000000000000000000000600052604160045260246000fd5b600080fd5b600080fd5b600080fd5b600080fd5b6000601f19601f8301169050919050565b7f45524332303a207472616e7366657220746f20746865207a65726f206164647260008201527f6573730000000000000000000000000000000000000000000000000000000000602082015250565b7f524553504f4e4400000000000000000000000000000000000000000000000000600082015250565b7f4c494b4500000000000000000000000000000000000000000000000000000000600082015250565b7f45524332303a20617070726f766520746f20746865207a65726f20616464726560008201527f7373000000000000000000000000000000000000000000000000000000000000602082015250565b7f504f535400000000000000000000000000000000000000000000000000000000600082015250565b7f5441470000000000000000000000000000000000000000000000000000000000600082015250565b7f45524332303a207472616e7366657220616d6f756e742065786365656473206260008201527f616c616e63650000000000000000000000000000000000000000000000000000602082015250565b7f4572726f723a206e6f207465787420696e20706f737400000000000000000000600082015250565b7f4355524154450000000000000000000000000000000000000000000000000000600082015250565b7f4572726f723a206e6f20706f7374206578697374730000000000000000000000600082015250565b7f45524332303a207472616e7366657220616d6f756e742065786365656473206160008201527f6c6c6f77616e6365000000000000000000000000000000000000000000000000602082015250565b7f4a55525900000000000000000000000000000000000000000000000000000000600082015250565b7f4572726f723a2077726f6e67206163636f756e74000000000000000000000000600082015250565b7f4572726f723a2073616d65206163636f756e7400000000000000000000000000600082015250565b7f45524332303a207472616e736665722066726f6d20746865207a65726f20616460008201527f6472657373000000000000000000000000000000000000000000000000000000602082015250565b7f4572726f723a20227765222063616e6e6f74206d696e74000000000000000000600082015250565b7f45524332303a20617070726f76652066726f6d20746865207a65726f2061646460008201527f7265737300000000000000000000000000000000000000000000000000000000602082015250565b7f464f4c4c4f570000000000000000000000000000000000000000000000000000600082015250565b7f45524332303a2064656372656173656420616c6c6f77616e63652062656c6f7760008201527f207a65726f000000000000000000000000000000000000000000000000000000602082015250565b7f45524332303a206d696e7420746f20746865207a65726f206164647265737300600082015250565b612f8481612991565b8114612f8f57600080fd5b50565b612f9b816129a3565b8114612fa657600080fd5b50565b612fb2816129cf565b8114612fbd57600080fd5b5056fea26469706673582212206b69dd23ac9f20e3c2c1c3d7eb340955c0b931d754b6c8517a138ebd5312453f64736f6c63430008070033",
  "immutableReferences": {},
  "source": "// SPDX-License-Identifier: MIT\n\npragma solidity >=0.8.0 <0.9.0;\n\nimport \"@openzeppelin/contracts/token/ERC20/ERC20.sol\";\n\ncontract UME is ERC20 {\n\n  // minter's address\n  address public minter;\n\n  event MinterChanged(address accountFrom, address accountTo);\n  event MintPost(address account, uint time, string postHash, string flag);\n  event MintLike(address account, uint time, string postHash, string flag);\n  event MintTag(address account, uint time, string postHash, string flag);\n  event MintFollow(address account, uint time, string flag);\n  event MintRespond(address account, uint time, string postHash, string originHash, string flag);\n  event MintCurate(address account, uint time, string postHash, string originHash, string flag);\n  event MintJury(address account, uint time, string postHash, string flag);\n\n  constructor() public payable ERC20(\"uMe token\", \"UME\") {\n    // assign bank minter role\n    minter = msg.sender;\n  }\n\n  function mintPost(address account, string memory _postHash, string memory _postText) public {\n    // make sure minter is same as sender, which they would be if they've set up a ME token\n    require(account==msg.sender, 'Error: wrong account');\n    require(minter!=msg.sender, 'Error: \"we\" cannot mint');\n    require(bytes(_postHash).length > 0, 'Error: no post exists'); // check if post hash exists\n    require(bytes(_postText).length > 0, 'Error: no text in post'); // check if there's text in post\n    // mint UME token for Posted\n    _mint(address(account), 8);\n    // set event for minted Posted UME tokens\n    emit MintPost(account, block.timestamp, _postHash, 'POST');\n  }\n  function mintLike(address accountFrom, address accountTo, string memory _postHash) public { // 1:3 Liker:Liked\n    require(accountFrom==msg.sender, 'Error: wrong account');\n    require(minter!=msg.sender, 'Error: \"we\" cannot mint');\n    require(bytes(_postHash).length > 0, 'Error: no post exists');\n    // mint a LIKE token for liker\n    _mint(address(accountFrom), 2);\n    // set event for LIKE token FROM\n    emit MintLike(accountFrom, block.timestamp, _postHash, 'LIKE');\n    // mint LIKE tokens for likee\n    _mint(address(accountTo), 4);\n    // set event for LIKE token TO\n    emit MintLike(accountTo, block.timestamp, _postHash, 'LIKE');\n  }\n  function mintTag(address accountFrom, address accountTo, string memory _postHash) public { // 1:3 Tagger:Tagged\n    require(accountFrom==msg.sender, 'Error: wrong account');\n    require(minter!=msg.sender, 'Error: \"we\" cannot mint');\n    require(accountFrom!=accountTo, 'Error: same account');\n    require(bytes(_postHash).length > 0, 'Error: no post exists');\n    // mint a TAG token for tagger\n    _mint(address(accountFrom), 1);\n    // set event for TAG token FROM\n    emit MintTag(accountFrom, block.timestamp, _postHash, 'TAG');\n    // mint TAG tokens for taggee\n    _mint(address(accountTo), 2);\n    // set event for TAG token TO\n    emit MintTag(accountTo, block.timestamp, _postHash, 'TAG');\n  }\n  function mintFollow(address accountFrom, address accountTo) public { // 1:3 Follower:Followed\n    require(accountFrom==msg.sender, 'Error: wrong account');\n    require(minter!=msg.sender, 'Error: \"we\" cannot mint');\n    require(accountFrom!=accountTo, 'Error: same account'); // doesn't mint tokens if tagged oneself\n    // mint a FOLLOW token for follower\n    _mint(accountFrom, 1);\n    // set event for FOLLOW token FROM\n    emit MintFollow(accountFrom, block.timestamp, 'FOLLOW');\n    // mint FOLLOW tokens for followed\n    _mint(accountTo, 6);\n    // set event for FOLLOW token TO\n    emit MintFollow(accountTo, block.timestamp, 'FOLLOW');\n  }\n  function mintRespond(address accountFrom, address accountTo, string memory _postHash, string memory _originHash) public { // 2:1 Responder:Responded\n    require(accountFrom==msg.sender, 'Error: wrong account');\n    require(minter!=msg.sender, 'Error: \"we\" cannot mint');\n    //require(minter==msg.sender, 'Error: wrong account '); // makes sure accounts exist\n    require(bytes(_postHash).length > 0, 'Error: no post exists');\n    // mint a RESPOND token for responder\n    _mint(accountFrom, 8);\n    // set event for RESPOND token FROM\n    emit MintRespond(accountFrom, block.timestamp, _postHash, _originHash, 'RESPOND');\n    // mint RESPOND tokens for responded\n    _mint(accountTo, 2);\n    // set event for RESPOND token TO\n    emit MintRespond(accountTo, block.timestamp, _postHash, _originHash, 'RESPOND');\n  }\n  function mintCurate(address accountFrom, address accountTo, string memory _postHash, string memory _originHash) public { // 4:1 Responder:Responded\n    require(accountFrom==msg.sender, 'Error: wrong account');\n    require(minter!=msg.sender, 'Error: \"we\" cannot mint');\n    require(accountFrom!=accountTo, 'Error: same account'); // doesn't mint tokens if tagged oneself\n    require(bytes(_postHash).length > 0, 'Error: no post exists');\n    // mint a CURATE token for curatee\n    _mint(accountFrom, 4);\n    // set event for CURATE token FROM\n    emit MintCurate(accountFrom, block.timestamp, _postHash, _originHash, 'CURATE');\n    // mint CURATE tokens for curator\n    _mint(accountTo, 1);\n    // set event for CURATE token TO\n    emit MintCurate(accountTo, block.timestamp, _postHash, _originHash, 'CURATE');\n  }\n\n  function mintJury(address account, string memory _postHash, bool consensusReached) public { // 4 Juror token if no consensus reached, 24 if consensus reached\n    require(account==msg.sender, 'Error: wrong account');\n    require(minter!=msg.sender, 'Error: \"we\" cannot mint');\n    require(bytes(_postHash).length > 0, 'Error: no post exists');\n    if(consensusReached==true){\n      // mint 10 JURY token for juror\n      _mint(account, 24);\n      // set event for JURY token consensus reached\n      emit MintJury(account, block.timestamp, _postHash, 'JURY');\n    } else if(consensusReached==false){\n      // mint a JURY token for juror\n      _mint(account, 4);\n      // set event for JURY no consensus reached\n      emit MintJury(account, block.timestamp, _postHash, 'JURY');\n    }\n  }\n\n  //misread\n  function passMinterRole(address we) public returns (bool) {\n    //require(msg.sender == minter, 'Error, only owner can change pass minter role');\n    minter = we;\n\n    emit MinterChanged(msg.sender, we);\n    return true;\n  }\n}\n",
  "sourcePath": "/Users/jaiq/Documents/000 BLOCKCHAIN/ETH/uMe/src/contracts/UME.sol",
  "compiler": {
    "name": "solc",
    "version": "0.8.7+commit.e28d00a7.Emscripten.clang"
  },
  "schemaVersion": "3.4.3",
  "updatedAt": "2021-08-18T22:52:53.031Z",
  "devdoc": {
    "kind": "dev",
    "methods": {
      "allowance(address,address)": {
        "details": "See {IERC20-allowance}."
      },
      "approve(address,uint256)": {
        "details": "See {IERC20-approve}. Requirements: - `spender` cannot be the zero address."
      },
      "balanceOf(address)": {
        "details": "See {IERC20-balanceOf}."
      },
      "decimals()": {
        "details": "Returns the number of decimals used to get its user representation. For example, if `decimals` equals `2`, a balance of `505` tokens should be displayed to a user as `5.05` (`505 / 10 ** 2`). Tokens usually opt for a value of 18, imitating the relationship between Ether and Wei. This is the value {ERC20} uses, unless this function is overridden; NOTE: This information is only used for _display_ purposes: it in no way affects any of the arithmetic of the contract, including {IERC20-balanceOf} and {IERC20-transfer}."
      },
      "decreaseAllowance(address,uint256)": {
        "details": "Atomically decreases the allowance granted to `spender` by the caller. This is an alternative to {approve} that can be used as a mitigation for problems described in {IERC20-approve}. Emits an {Approval} event indicating the updated allowance. Requirements: - `spender` cannot be the zero address. - `spender` must have allowance for the caller of at least `subtractedValue`."
      },
      "increaseAllowance(address,uint256)": {
        "details": "Atomically increases the allowance granted to `spender` by the caller. This is an alternative to {approve} that can be used as a mitigation for problems described in {IERC20-approve}. Emits an {Approval} event indicating the updated allowance. Requirements: - `spender` cannot be the zero address."
      },
      "name()": {
        "details": "Returns the name of the token."
      },
      "symbol()": {
        "details": "Returns the symbol of the token, usually a shorter version of the name."
      },
      "totalSupply()": {
        "details": "See {IERC20-totalSupply}."
      },
      "transfer(address,uint256)": {
        "details": "See {IERC20-transfer}. Requirements: - `recipient` cannot be the zero address. - the caller must have a balance of at least `amount`."
      },
      "transferFrom(address,address,uint256)": {
        "details": "See {IERC20-transferFrom}. Emits an {Approval} event indicating the updated allowance. This is not required by the EIP. See the note at the beginning of {ERC20}. Requirements: - `sender` and `recipient` cannot be the zero address. - `sender` must have a balance of at least `amount`. - the caller must have allowance for ``sender``'s tokens of at least `amount`."
      }
    },
    "version": 1
  },
  "userdoc": {
    "kind": "user",
    "methods": {},
    "version": 1
  }
}