{
  "contractName": "UME",
  "abi": [
    {
      "inputs": [],
      "stateMutability": "payable",
      "type": "constructor",
      "payable": true
    },
    {
      "anonymous": false,
      "inputs": [
        {
          "indexed": true,
          "internalType": "address",
          "name": "owner",
          "type": "address"
        },
        {
          "indexed": true,
          "internalType": "address",
          "name": "spender",
          "type": "address"
        },
        {
          "indexed": false,
          "internalType": "uint256",
          "name": "value",
          "type": "uint256"
        }
      ],
      "name": "Approval",
      "type": "event"
    },
    {
      "anonymous": false,
      "inputs": [
        {
          "indexed": true,
          "internalType": "address",
          "name": "account",
          "type": "address"
        },
        {
          "indexed": false,
          "internalType": "uint256",
          "name": "time",
          "type": "uint256"
        },
        {
          "indexed": false,
          "internalType": "string",
          "name": "postHash",
          "type": "string"
        },
        {
          "indexed": false,
          "internalType": "string",
          "name": "flag",
          "type": "string"
        }
      ],
      "name": "Minted",
      "type": "event"
    },
    {
      "anonymous": false,
      "inputs": [
        {
          "indexed": true,
          "internalType": "address",
          "name": "accountFrom",
          "type": "address"
        },
        {
          "indexed": true,
          "internalType": "address",
          "name": "accountTo",
          "type": "address"
        }
      ],
      "name": "MinterChanged",
      "type": "event"
    },
    {
      "anonymous": false,
      "inputs": [
        {
          "indexed": true,
          "internalType": "address",
          "name": "from",
          "type": "address"
        },
        {
          "indexed": true,
          "internalType": "address",
          "name": "to",
          "type": "address"
        },
        {
          "indexed": false,
          "internalType": "uint256",
          "name": "value",
          "type": "uint256"
        }
      ],
      "name": "Transfer",
      "type": "event"
    },
    {
      "inputs": [
        {
          "internalType": "address",
          "name": "owner",
          "type": "address"
        },
        {
          "internalType": "address",
          "name": "spender",
          "type": "address"
        }
      ],
      "name": "allowance",
      "outputs": [
        {
          "internalType": "uint256",
          "name": "",
          "type": "uint256"
        }
      ],
      "stateMutability": "view",
      "type": "function",
      "constant": true
    },
    {
      "inputs": [
        {
          "internalType": "address",
          "name": "spender",
          "type": "address"
        },
        {
          "internalType": "uint256",
          "name": "amount",
          "type": "uint256"
        }
      ],
      "name": "approve",
      "outputs": [
        {
          "internalType": "bool",
          "name": "",
          "type": "bool"
        }
      ],
      "stateMutability": "nonpayable",
      "type": "function"
    },
    {
      "inputs": [
        {
          "internalType": "address",
          "name": "account",
          "type": "address"
        }
      ],
      "name": "balanceOf",
      "outputs": [
        {
          "internalType": "uint256",
          "name": "",
          "type": "uint256"
        }
      ],
      "stateMutability": "view",
      "type": "function",
      "constant": true
    },
    {
      "inputs": [],
      "name": "decimals",
      "outputs": [
        {
          "internalType": "uint8",
          "name": "",
          "type": "uint8"
        }
      ],
      "stateMutability": "view",
      "type": "function",
      "constant": true
    },
    {
      "inputs": [
        {
          "internalType": "address",
          "name": "spender",
          "type": "address"
        },
        {
          "internalType": "uint256",
          "name": "subtractedValue",
          "type": "uint256"
        }
      ],
      "name": "decreaseAllowance",
      "outputs": [
        {
          "internalType": "bool",
          "name": "",
          "type": "bool"
        }
      ],
      "stateMutability": "nonpayable",
      "type": "function"
    },
    {
      "inputs": [
        {
          "internalType": "address",
          "name": "spender",
          "type": "address"
        },
        {
          "internalType": "uint256",
          "name": "addedValue",
          "type": "uint256"
        }
      ],
      "name": "increaseAllowance",
      "outputs": [
        {
          "internalType": "bool",
          "name": "",
          "type": "bool"
        }
      ],
      "stateMutability": "nonpayable",
      "type": "function"
    },
    {
      "inputs": [],
      "name": "minter",
      "outputs": [
        {
          "internalType": "address",
          "name": "",
          "type": "address"
        }
      ],
      "stateMutability": "view",
      "type": "function",
      "constant": true
    },
    {
      "inputs": [],
      "name": "name",
      "outputs": [
        {
          "internalType": "string",
          "name": "",
          "type": "string"
        }
      ],
      "stateMutability": "view",
      "type": "function",
      "constant": true
    },
    {
      "inputs": [],
      "name": "symbol",
      "outputs": [
        {
          "internalType": "string",
          "name": "",
          "type": "string"
        }
      ],
      "stateMutability": "view",
      "type": "function",
      "constant": true
    },
    {
      "inputs": [],
      "name": "totalSupply",
      "outputs": [
        {
          "internalType": "uint256",
          "name": "",
          "type": "uint256"
        }
      ],
      "stateMutability": "view",
      "type": "function",
      "constant": true
    },
    {
      "inputs": [
        {
          "internalType": "address",
          "name": "recipient",
          "type": "address"
        },
        {
          "internalType": "uint256",
          "name": "amount",
          "type": "uint256"
        }
      ],
      "name": "transfer",
      "outputs": [
        {
          "internalType": "bool",
          "name": "",
          "type": "bool"
        }
      ],
      "stateMutability": "nonpayable",
      "type": "function"
    },
    {
      "inputs": [
        {
          "internalType": "address",
          "name": "sender",
          "type": "address"
        },
        {
          "internalType": "address",
          "name": "recipient",
          "type": "address"
        },
        {
          "internalType": "uint256",
          "name": "amount",
          "type": "uint256"
        }
      ],
      "name": "transferFrom",
      "outputs": [
        {
          "internalType": "bool",
          "name": "",
          "type": "bool"
        }
      ],
      "stateMutability": "nonpayable",
      "type": "function"
    },
    {
      "inputs": [
        {
          "internalType": "address",
          "name": "account",
          "type": "address"
        },
        {
          "internalType": "string",
          "name": "_postHash",
          "type": "string"
        },
        {
          "internalType": "string",
          "name": "_postText",
          "type": "string"
        }
      ],
      "name": "mintPost",
      "outputs": [],
      "stateMutability": "nonpayable",
      "type": "function"
    },
    {
      "inputs": [
        {
          "internalType": "address",
          "name": "accountFrom",
          "type": "address"
        },
        {
          "internalType": "address",
          "name": "accountTo",
          "type": "address"
        },
        {
          "internalType": "string",
          "name": "_postHash",
          "type": "string"
        }
      ],
      "name": "mintLike",
      "outputs": [],
      "stateMutability": "nonpayable",
      "type": "function"
    },
    {
      "inputs": [
        {
          "internalType": "address",
          "name": "accountFrom",
          "type": "address"
        },
        {
          "internalType": "address",
          "name": "accountTo",
          "type": "address"
        },
        {
          "internalType": "string",
          "name": "_postHash",
          "type": "string"
        }
      ],
      "name": "mintTag",
      "outputs": [],
      "stateMutability": "nonpayable",
      "type": "function"
    },
    {
      "inputs": [
        {
          "internalType": "address",
          "name": "accountFrom",
          "type": "address"
        },
        {
          "internalType": "address",
          "name": "accountTo",
          "type": "address"
        }
      ],
      "name": "mintFollow",
      "outputs": [],
      "stateMutability": "nonpayable",
      "type": "function"
    },
    {
      "inputs": [
        {
          "internalType": "address",
          "name": "accountFrom",
          "type": "address"
        },
        {
          "internalType": "address",
          "name": "accountTo",
          "type": "address"
        },
        {
          "internalType": "string",
          "name": "_postHash",
          "type": "string"
        }
      ],
      "name": "mintRespond",
      "outputs": [],
      "stateMutability": "nonpayable",
      "type": "function"
    },
    {
      "inputs": [
        {
          "internalType": "address",
          "name": "accountFrom",
          "type": "address"
        },
        {
          "internalType": "address",
          "name": "accountTo",
          "type": "address"
        },
        {
          "internalType": "string",
          "name": "_postHash",
          "type": "string"
        }
      ],
      "name": "mintCurate",
      "outputs": [],
      "stateMutability": "nonpayable",
      "type": "function"
    },
    {
      "inputs": [
        {
          "internalType": "address",
          "name": "account",
          "type": "address"
        },
        {
          "internalType": "string",
          "name": "_postHash",
          "type": "string"
        },
        {
          "internalType": "bool",
          "name": "consensusReached",
          "type": "bool"
        }
      ],
      "name": "mintJury",
      "outputs": [],
      "stateMutability": "nonpayable",
      "type": "function"
    },
    {
      "inputs": [
        {
          "internalType": "address",
          "name": "we",
          "type": "address"
        }
      ],
      "name": "passMinterRole",
      "outputs": [
        {
          "internalType": "bool",
          "name": "",
          "type": "bool"
        }
      ],
      "stateMutability": "nonpayable",
      "type": "function"
    }
  ],
  "bytecode": "0x60806040526040518060400160405280600981526020017f754d6520746f6b656e00000000000000000000000000000000000000000000008152506040518060400160405280600381526020017f554d450000000000000000000000000000000000000000000000000000000000815250816003908051906020019062000088929190620000eb565b508060049080519060200190620000a1929190620000eb565b50505033600560006101000a81548173ffffffffffffffffffffffffffffffffffffffff021916908373ffffffffffffffffffffffffffffffffffffffff16021790555062000200565b828054620000f9906200019b565b90600052602060002090601f0160209004810192826200011d576000855562000169565b82601f106200013857805160ff191683800117855562000169565b8280016001018555821562000169579182015b82811115620001685782518255916020019190600101906200014b565b5b5090506200017891906200017c565b5090565b5b80821115620001975760008160009055506001016200017d565b5090565b60006002820490506001821680620001b457607f821691505b60208210811415620001cb57620001ca620001d1565b5b50919050565b7f4e487b7100000000000000000000000000000000000000000000000000000000600052602260045260246000fd5b61316c80620002106000396000f3fe608060405234801561001057600080fd5b506004361061012c5760003560e01c8063639bee54116100ad578063a9059cbb11610071578063a9059cbb14610343578063aa78f03a14610373578063d7fc5b151461038f578063dd62ed3e146103bf578063e96428a7146103ef5761012c565b8063639bee541461028d57806370a08231146102a957806395d89b41146102d9578063a272624a146102f7578063a457c2d7146103135761012c565b806323b872dd116100f457806323b872dd146101d75780632d599ba514610207578063313ce5671461022357806339509351146102415780634b027fd9146102715761012c565b806306fdde0314610131578063075461721461014f578063095ea7b31461016d578063121421501461019d57806318160ddd146101b9575b600080fd5b61013961040b565b6040516101469190612570565b60405180910390f35b61015761049d565b604051610164919061253a565b60405180910390f35b61018760048036038101906101829190612160565b6104c3565b6040516101949190612555565b60405180910390f35b6101b760048036038101906101b29190612066565b6104e1565b005b6101c1610700565b6040516101ce9190612752565b60405180910390f35b6101f160048036038101906101ec9190612013565b61070a565b6040516101fe9190612555565b60405180910390f35b610221600480360381019061021c9190611f64565b610802565b005b61022b610a26565b6040516102389190612983565b60405180910390f35b61025b60048036038101906102569190612160565b610a2f565b6040516102689190612555565b60405180910390f35b61028b60048036038101906102869190611fa4565b610adb565b005b6102a760048036038101906102a291906120d5565b610d48565b005b6102c360048036038101906102be9190611f37565b610ec1565b6040516102d09190612752565b60405180910390f35b6102e1610f09565b6040516102ee9190612570565b60405180910390f35b610311600480360381019061030c9190611fa4565b610f9b565b005b61032d60048036038101906103289190612160565b611208565b60405161033a9190612555565b60405180910390f35b61035d60048036038101906103589190612160565b6112f3565b60405161036a9190612555565b60405180910390f35b61038d60048036038101906103889190611fa4565b611311565b005b6103a960048036038101906103a49190611f37565b61150f565b6040516103b69190612555565b60405180910390f35b6103d960048036038101906103d49190611f64565b611645565b6040516103e69190612752565b60405180910390f35b61040960048036038101906104049190611fa4565b6116cc565b005b60606003805461041a90612afd565b80601f016020809104026020016040519081016040528092919081815260200182805461044690612afd565b80156104935780601f1061046857610100808354040283529160200191610493565b820191906000526020600020905b81548152906001019060200180831161047657829003601f168201915b5050505050905090565b600560009054906101000a900473ffffffffffffffffffffffffffffffffffffffff1681565b60006104d76104d06118ca565b84846118d2565b6001905092915050565b3373ffffffffffffffffffffffffffffffffffffffff168373ffffffffffffffffffffffffffffffffffffffff161461054f576040517f08c379a000000000000000000000000000000000000000000000000000000000815260040161054690612652565b60405180910390fd5b3373ffffffffffffffffffffffffffffffffffffffff16600560009054906101000a900473ffffffffffffffffffffffffffffffffffffffff1673ffffffffffffffffffffffffffffffffffffffff1614156105e0576040517f08c379a00000000000000000000000000000000000000000000000000000000081526004016105d7906126b2565b60405180910390fd5b6000825111610624576040517f08c379a000000000000000000000000000000000000000000000000000000000815260040161061b90612612565b60405180910390fd5b6001151581151514156106915761063c836018611a9d565b8273ffffffffffffffffffffffffffffffffffffffff167fe2406cfd356cfbe4e42d452bde96d27f48c423e5f02b5d78695893308399519d42846040516106849291906128ff565b60405180910390a26106fb565b6000151581151514156106fa576106a9836004611a9d565b8273ffffffffffffffffffffffffffffffffffffffff167fe2406cfd356cfbe4e42d452bde96d27f48c423e5f02b5d78695893308399519d42846040516106f19291906128ff565b60405180910390a25b5b505050565b6000600254905090565b6000610717848484611bfd565b6000600160008673ffffffffffffffffffffffffffffffffffffffff1673ffffffffffffffffffffffffffffffffffffffff16815260200190815260200160002060006107626118ca565b73ffffffffffffffffffffffffffffffffffffffff1673ffffffffffffffffffffffffffffffffffffffff168152602001908152602001600020549050828110156107e2576040517f08c379a00000000000000000000000000000000000000000000000000000000081526004016107d990612632565b60405180910390fd5b6107f6856107ee6118ca565b8584036118d2565b60019150509392505050565b3373ffffffffffffffffffffffffffffffffffffffff168273ffffffffffffffffffffffffffffffffffffffff1614610870576040517f08c379a000000000000000000000000000000000000000000000000000000000815260040161086790612652565b60405180910390fd5b3373ffffffffffffffffffffffffffffffffffffffff16600560009054906101000a900473ffffffffffffffffffffffffffffffffffffffff1673ffffffffffffffffffffffffffffffffffffffff161415610901576040517f08c379a00000000000000000000000000000000000000000000000000000000081526004016108f8906126b2565b60405180910390fd5b8073ffffffffffffffffffffffffffffffffffffffff168273ffffffffffffffffffffffffffffffffffffffff161415610970576040517f08c379a000000000000000000000000000000000000000000000000000000000815260040161096790612672565b60405180910390fd5b61097b826001611a9d565b8173ffffffffffffffffffffffffffffffffffffffff167fe2406cfd356cfbe4e42d452bde96d27f48c423e5f02b5d78695893308399519d426040516109c19190612942565b60405180910390a26109d4816006611a9d565b8073ffffffffffffffffffffffffffffffffffffffff167fe2406cfd356cfbe4e42d452bde96d27f48c423e5f02b5d78695893308399519d42604051610a1a9190612942565b60405180910390a25050565b60006012905090565b6000610ad1610a3c6118ca565b848460016000610a4a6118ca565b73ffffffffffffffffffffffffffffffffffffffff1673ffffffffffffffffffffffffffffffffffffffff16815260200190815260200160002060008873ffffffffffffffffffffffffffffffffffffffff1673ffffffffffffffffffffffffffffffffffffffff16815260200190815260200160002054610acc9190612a10565b6118d2565b6001905092915050565b3373ffffffffffffffffffffffffffffffffffffffff168373ffffffffffffffffffffffffffffffffffffffff1614610b49576040517f08c379a0000000000000000000000000000000000000000000000000000000008152600401610b4090612652565b60405180910390fd5b3373ffffffffffffffffffffffffffffffffffffffff16600560009054906101000a900473ffffffffffffffffffffffffffffffffffffffff1673ffffffffffffffffffffffffffffffffffffffff161415610bda576040517f08c379a0000000000000000000000000000000000000000000000000000000008152600401610bd1906126b2565b60405180910390fd5b8173ffffffffffffffffffffffffffffffffffffffff168373ffffffffffffffffffffffffffffffffffffffff161415610c49576040517f08c379a0000000000000000000000000000000000000000000000000000000008152600401610c4090612672565b60405180910390fd5b6000815111610c8d576040517f08c379a0000000000000000000000000000000000000000000000000000000008152600401610c8490612612565b60405180910390fd5b610c98836002611a9d565b8273ffffffffffffffffffffffffffffffffffffffff167fe2406cfd356cfbe4e42d452bde96d27f48c423e5f02b5d78695893308399519d4283604051610ce09291906128bc565b60405180910390a2610cf3826004611a9d565b8173ffffffffffffffffffffffffffffffffffffffff167fe2406cfd356cfbe4e42d452bde96d27f48c423e5f02b5d78695893308399519d4283604051610d3b9291906128bc565b60405180910390a2505050565b3373ffffffffffffffffffffffffffffffffffffffff16600560009054906101000a900473ffffffffffffffffffffffffffffffffffffffff1673ffffffffffffffffffffffffffffffffffffffff161415610dd9576040517f08c379a0000000000000000000000000000000000000000000000000000000008152600401610dd0906126b2565b60405180910390fd5b6000825111610e1d576040517f08c379a0000000000000000000000000000000000000000000000000000000008152600401610e1490612612565b60405180910390fd5b6000815111610e61576040517f08c379a0000000000000000000000000000000000000000000000000000000008152600401610e58906125f2565b60405180910390fd5b610e6c836008611a9d565b8273ffffffffffffffffffffffffffffffffffffffff167fe2406cfd356cfbe4e42d452bde96d27f48c423e5f02b5d78695893308399519d4284604051610eb49291906127b0565b60405180910390a2505050565b60008060008373ffffffffffffffffffffffffffffffffffffffff1673ffffffffffffffffffffffffffffffffffffffff168152602001908152602001600020549050919050565b606060048054610f1890612afd565b80601f0160208091040260200160405190810160405280929190818152602001828054610f4490612afd565b8015610f915780601f10610f6657610100808354040283529160200191610f91565b820191906000526020600020905b815481529060010190602001808311610f7457829003601f168201915b5050505050905090565b3373ffffffffffffffffffffffffffffffffffffffff168373ffffffffffffffffffffffffffffffffffffffff1614611009576040517f08c379a000000000000000000000000000000000000000000000000000000000815260040161100090612652565b60405180910390fd5b3373ffffffffffffffffffffffffffffffffffffffff16600560009054906101000a900473ffffffffffffffffffffffffffffffffffffffff1673ffffffffffffffffffffffffffffffffffffffff16141561109a576040517f08c379a0000000000000000000000000000000000000000000000000000000008152600401611091906126b2565b60405180910390fd5b8173ffffffffffffffffffffffffffffffffffffffff168373ffffffffffffffffffffffffffffffffffffffff161415611109576040517f08c379a000000000000000000000000000000000000000000000000000000000815260040161110090612672565b60405180910390fd5b600081511161114d576040517f08c379a000000000000000000000000000000000000000000000000000000000815260040161114490612612565b60405180910390fd5b611158836001611a9d565b8273ffffffffffffffffffffffffffffffffffffffff167fe2406cfd356cfbe4e42d452bde96d27f48c423e5f02b5d78695893308399519d42836040516111a09291906127f3565b60405180910390a26111b3826002611a9d565b8173ffffffffffffffffffffffffffffffffffffffff167fe2406cfd356cfbe4e42d452bde96d27f48c423e5f02b5d78695893308399519d42836040516111fb9291906127f3565b60405180910390a2505050565b600080600160006112176118ca565b73ffffffffffffffffffffffffffffffffffffffff1673ffffffffffffffffffffffffffffffffffffffff16815260200190815260200160002060008573ffffffffffffffffffffffffffffffffffffffff1673ffffffffffffffffffffffffffffffffffffffff168152602001908152602001600020549050828110156112d4576040517f08c379a00000000000000000000000000000000000000000000000000000000081526004016112cb90612712565b60405180910390fd5b6112e86112df6118ca565b858584036118d2565b600191505092915050565b60006113076113006118ca565b8484611bfd565b6001905092915050565b3373ffffffffffffffffffffffffffffffffffffffff168373ffffffffffffffffffffffffffffffffffffffff161461137f576040517f08c379a000000000000000000000000000000000000000000000000000000000815260040161137690612652565b60405180910390fd5b3373ffffffffffffffffffffffffffffffffffffffff16600560009054906101000a900473ffffffffffffffffffffffffffffffffffffffff1673ffffffffffffffffffffffffffffffffffffffff161415611410576040517f08c379a0000000000000000000000000000000000000000000000000000000008152600401611407906126b2565b60405180910390fd5b6000815111611454576040517f08c379a000000000000000000000000000000000000000000000000000000000815260040161144b90612612565b60405180910390fd5b61145f836002611a9d565b8273ffffffffffffffffffffffffffffffffffffffff167fe2406cfd356cfbe4e42d452bde96d27f48c423e5f02b5d78695893308399519d42836040516114a7929190612879565b60405180910390a26114ba826004611a9d565b8173ffffffffffffffffffffffffffffffffffffffff167fe2406cfd356cfbe4e42d452bde96d27f48c423e5f02b5d78695893308399519d4283604051611502929190612836565b60405180910390a2505050565b6000600560009054906101000a900473ffffffffffffffffffffffffffffffffffffffff1673ffffffffffffffffffffffffffffffffffffffff163373ffffffffffffffffffffffffffffffffffffffff16146115a1576040517f08c379a0000000000000000000000000000000000000000000000000000000008152600401611598906126f2565b60405180910390fd5b81600560006101000a81548173ffffffffffffffffffffffffffffffffffffffff021916908373ffffffffffffffffffffffffffffffffffffffff1602179055508173ffffffffffffffffffffffffffffffffffffffff163373ffffffffffffffffffffffffffffffffffffffff167f3b0007eb941cf645526cbb3a4fdaecda9d28ce4843167d9263b536a1f1edc0f660405160405180910390a360019050919050565b6000600160008473ffffffffffffffffffffffffffffffffffffffff1673ffffffffffffffffffffffffffffffffffffffff16815260200190815260200160002060008373ffffffffffffffffffffffffffffffffffffffff1673ffffffffffffffffffffffffffffffffffffffff16815260200190815260200160002054905092915050565b3373ffffffffffffffffffffffffffffffffffffffff168373ffffffffffffffffffffffffffffffffffffffff161461173a576040517f08c379a000000000000000000000000000000000000000000000000000000000815260040161173190612652565b60405180910390fd5b3373ffffffffffffffffffffffffffffffffffffffff16600560009054906101000a900473ffffffffffffffffffffffffffffffffffffffff1673ffffffffffffffffffffffffffffffffffffffff1614156117cb576040517f08c379a00000000000000000000000000000000000000000000000000000000081526004016117c2906126b2565b60405180910390fd5b600081511161180f576040517f08c379a000000000000000000000000000000000000000000000000000000000815260040161180690612612565b60405180910390fd5b61181a836002611a9d565b8273ffffffffffffffffffffffffffffffffffffffff167fe2406cfd356cfbe4e42d452bde96d27f48c423e5f02b5d78695893308399519d428360405161186292919061276d565b60405180910390a2611875826004611a9d565b8173ffffffffffffffffffffffffffffffffffffffff167fe2406cfd356cfbe4e42d452bde96d27f48c423e5f02b5d78695893308399519d42836040516118bd92919061276d565b60405180910390a2505050565b600033905090565b600073ffffffffffffffffffffffffffffffffffffffff168373ffffffffffffffffffffffffffffffffffffffff161415611942576040517f08c379a0000000000000000000000000000000000000000000000000000000008152600401611939906126d2565b60405180910390fd5b600073ffffffffffffffffffffffffffffffffffffffff168273ffffffffffffffffffffffffffffffffffffffff1614156119b2576040517f08c379a00000000000000000000000000000000000000000000000000000000081526004016119a9906125b2565b60405180910390fd5b80600160008573ffffffffffffffffffffffffffffffffffffffff1673ffffffffffffffffffffffffffffffffffffffff16815260200190815260200160002060008473ffffffffffffffffffffffffffffffffffffffff1673ffffffffffffffffffffffffffffffffffffffff168152602001908152602001600020819055508173ffffffffffffffffffffffffffffffffffffffff168373ffffffffffffffffffffffffffffffffffffffff167f8c5be1e5ebec7d5bd14f71427d1e84f3dd0314c0f7b2291e5b200ac8c7c3b92583604051611a909190612752565b60405180910390a3505050565b600073ffffffffffffffffffffffffffffffffffffffff168273ffffffffffffffffffffffffffffffffffffffff161415611b0d576040517f08c379a0000000000000000000000000000000000000000000000000000000008152600401611b0490612732565b60405180910390fd5b611b1960008383611e7e565b8060026000828254611b2b9190612a10565b92505081905550806000808473ffffffffffffffffffffffffffffffffffffffff1673ffffffffffffffffffffffffffffffffffffffff1681526020019081526020016000206000828254611b809190612a10565b925050819055508173ffffffffffffffffffffffffffffffffffffffff16600073ffffffffffffffffffffffffffffffffffffffff167fddf252ad1be2c89b69c2b068fc378daa952ba7f163c4a11628f55a4df523b3ef83604051611be59190612752565b60405180910390a3611bf960008383611e83565b5050565b600073ffffffffffffffffffffffffffffffffffffffff168373ffffffffffffffffffffffffffffffffffffffff161415611c6d576040517f08c379a0000000000000000000000000000000000000000000000000000000008152600401611c6490612692565b60405180910390fd5b600073ffffffffffffffffffffffffffffffffffffffff168273ffffffffffffffffffffffffffffffffffffffff161415611cdd576040517f08c379a0000000000000000000000000000000000000000000000000000000008152600401611cd490612592565b60405180910390fd5b611ce8838383611e7e565b60008060008573ffffffffffffffffffffffffffffffffffffffff1673ffffffffffffffffffffffffffffffffffffffff16815260200190815260200160002054905081811015611d6e576040517f08c379a0000000000000000000000000000000000000000000000000000000008152600401611d65906125d2565b60405180910390fd5b8181036000808673ffffffffffffffffffffffffffffffffffffffff1673ffffffffffffffffffffffffffffffffffffffff16815260200190815260200160002081905550816000808573ffffffffffffffffffffffffffffffffffffffff1673ffffffffffffffffffffffffffffffffffffffff1681526020019081526020016000206000828254611e019190612a10565b925050819055508273ffffffffffffffffffffffffffffffffffffffff168473ffffffffffffffffffffffffffffffffffffffff167fddf252ad1be2c89b69c2b068fc378daa952ba7f163c4a11628f55a4df523b3ef84604051611e659190612752565b60405180910390a3611e78848484611e83565b50505050565b505050565b505050565b6000611e9b611e96846129c3565b61299e565b905082815260208101848484011115611eb757611eb6612bf2565b5b611ec2848285612abb565b509392505050565b600081359050611ed9816130f1565b92915050565b600081359050611eee81613108565b92915050565b600082601f830112611f0957611f08612bed565b5b8135611f19848260208601611e88565b91505092915050565b600081359050611f318161311f565b92915050565b600060208284031215611f4d57611f4c612bfc565b5b6000611f5b84828501611eca565b91505092915050565b60008060408385031215611f7b57611f7a612bfc565b5b6000611f8985828601611eca565b9250506020611f9a85828601611eca565b9150509250929050565b600080600060608486031215611fbd57611fbc612bfc565b5b6000611fcb86828701611eca565b9350506020611fdc86828701611eca565b925050604084013567ffffffffffffffff811115611ffd57611ffc612bf7565b5b61200986828701611ef4565b9150509250925092565b60008060006060848603121561202c5761202b612bfc565b5b600061203a86828701611eca565b935050602061204b86828701611eca565b925050604061205c86828701611f22565b9150509250925092565b60008060006060848603121561207f5761207e612bfc565b5b600061208d86828701611eca565b935050602084013567ffffffffffffffff8111156120ae576120ad612bf7565b5b6120ba86828701611ef4565b92505060406120cb86828701611edf565b9150509250925092565b6000806000606084860312156120ee576120ed612bfc565b5b60006120fc86828701611eca565b935050602084013567ffffffffffffffff81111561211d5761211c612bf7565b5b61212986828701611ef4565b925050604084013567ffffffffffffffff81111561214a57612149612bf7565b5b61215686828701611ef4565b9150509250925092565b6000806040838503121561217757612176612bfc565b5b600061218585828601611eca565b925050602061219685828601611f22565b9150509250929050565b6121a981612a66565b82525050565b6121b881612a78565b82525050565b60006121c9826129f4565b6121d381856129ff565b93506121e3818560208601612aca565b6121ec81612c01565b840191505092915050565b60006122046023836129ff565b915061220f82612c12565b604082019050919050565b60006122276004836129ff565b915061223282612c61565b602082019050919050565b600061224a6022836129ff565b915061225582612c8a565b604082019050919050565b600061226d6004836129ff565b915061227882612cd9565b602082019050919050565b60006122906003836129ff565b915061229b82612d02565b602082019050919050565b60006122b36026836129ff565b91506122be82612d2b565b604082019050919050565b60006122d6600a836129ff565b91506122e182612d7a565b602082019050919050565b60006122f9600c836129ff565b915061230482612da3565b602082019050919050565b600061231c6016836129ff565b915061232782612dcc565b602082019050919050565b600061233f6006836129ff565b915061234a82612df5565b602082019050919050565b60006123626003836129ff565b915061236d82612e1e565b602082019050919050565b60006123856015836129ff565b915061239082612e47565b602082019050919050565b60006123a86028836129ff565b91506123b382612e70565b604082019050919050565b60006123cb6004836129ff565b91506123d682612ebf565b602082019050919050565b60006123ee6014836129ff565b91506123f982612ee8565b602082019050919050565b60006124116013836129ff565b915061241c82612f11565b602082019050919050565b60006124346025836129ff565b915061243f82612f3a565b604082019050919050565b60006124576017836129ff565b915061246282612f89565b602082019050919050565b600061247a6024836129ff565b915061248582612fb2565b604082019050919050565b600061249d6006836129ff565b91506124a882613001565b602082019050919050565b60006124c0602d836129ff565b91506124cb8261302a565b604082019050919050565b60006124e36025836129ff565b91506124ee82613079565b604082019050919050565b6000612506601f836129ff565b9150612511826130c8565b602082019050919050565b61252581612aa4565b82525050565b61253481612aae565b82525050565b600060208201905061254f60008301846121a0565b92915050565b600060208201905061256a60008301846121af565b92915050565b6000602082019050818103600083015261258a81846121be565b905092915050565b600060208201905081810360008301526125ab816121f7565b9050919050565b600060208201905081810360008301526125cb8161223d565b9050919050565b600060208201905081810360008301526125eb816122a6565b9050919050565b6000602082019050818103600083015261260b8161230f565b9050919050565b6000602082019050818103600083015261262b81612378565b9050919050565b6000602082019050818103600083015261264b8161239b565b9050919050565b6000602082019050818103600083015261266b816123e1565b9050919050565b6000602082019050818103600083015261268b81612404565b9050919050565b600060208201905081810360008301526126ab81612427565b9050919050565b600060208201905081810360008301526126cb8161244a565b9050919050565b600060208201905081810360008301526126eb8161246d565b9050919050565b6000602082019050818103600083015261270b816124b3565b9050919050565b6000602082019050818103600083015261272b816124d6565b9050919050565b6000602082019050818103600083015261274b816124f9565b9050919050565b6000602082019050612767600083018461251c565b92915050565b6000606082019050612782600083018561251c565b818103602083015261279481846121be565b905081810360408301526127a78161221a565b90509392505050565b60006060820190506127c5600083018561251c565b81810360208301526127d781846121be565b905081810360408301526127ea81612260565b90509392505050565b6000606082019050612808600083018561251c565b818103602083015261281a81846121be565b9050818103604083015261282d81612283565b90509392505050565b600060608201905061284b600083018561251c565b818103602083015261285d81846121be565b90508181036040830152612870816122c9565b90509392505050565b600060608201905061288e600083018561251c565b81810360208301526128a081846121be565b905081810360408301526128b3816122ec565b90509392505050565b60006060820190506128d1600083018561251c565b81810360208301526128e381846121be565b905081810360408301526128f681612332565b90509392505050565b6000606082019050612914600083018561251c565b818103602083015261292681846121be565b90508181036040830152612939816123be565b90509392505050565b6000606082019050612957600083018461251c565b818103602083015261296881612355565b9050818103604083015261297b81612490565b905092915050565b6000602082019050612998600083018461252b565b92915050565b60006129a86129b9565b90506129b48282612b2f565b919050565b6000604051905090565b600067ffffffffffffffff8211156129de576129dd612bbe565b5b6129e782612c01565b9050602081019050919050565b600081519050919050565b600082825260208201905092915050565b6000612a1b82612aa4565b9150612a2683612aa4565b9250827fffffffffffffffffffffffffffffffffffffffffffffffffffffffffffffffff03821115612a5b57612a5a612b60565b5b828201905092915050565b6000612a7182612a84565b9050919050565b60008115159050919050565b600073ffffffffffffffffffffffffffffffffffffffff82169050919050565b6000819050919050565b600060ff82169050919050565b82818337600083830152505050565b60005b83811015612ae8578082015181840152602081019050612acd565b83811115612af7576000848401525b50505050565b60006002820490506001821680612b1557607f821691505b60208210811415612b2957612b28612b8f565b5b50919050565b612b3882612c01565b810181811067ffffffffffffffff82111715612b5757612b56612bbe565b5b80604052505050565b7f4e487b7100000000000000000000000000000000000000000000000000000000600052601160045260246000fd5b7f4e487b7100000000000000000000000000000000000000000000000000000000600052602260045260246000fd5b7f4e487b7100000000000000000000000000000000000000000000000000000000600052604160045260246000fd5b600080fd5b600080fd5b600080fd5b600080fd5b6000601f19601f8301169050919050565b7f45524332303a207472616e7366657220746f20746865207a65726f206164647260008201527f6573730000000000000000000000000000000000000000000000000000000000602082015250565b7f4c494b4500000000000000000000000000000000000000000000000000000000600082015250565b7f45524332303a20617070726f766520746f20746865207a65726f20616464726560008201527f7373000000000000000000000000000000000000000000000000000000000000602082015250565b7f504f535400000000000000000000000000000000000000000000000000000000600082015250565b7f5441470000000000000000000000000000000000000000000000000000000000600082015250565b7f45524332303a207472616e7366657220616d6f756e742065786365656473206260008201527f616c616e63650000000000000000000000000000000000000000000000000000602082015250565b7f524553504f4e4420544f00000000000000000000000000000000000000000000600082015250565b7f524553504f4e442046524f4d0000000000000000000000000000000000000000600082015250565b7f4572726f723a206e6f207465787420696e20706f737400000000000000000000600082015250565b7f4355524154450000000000000000000000000000000000000000000000000000600082015250565b7f3078300000000000000000000000000000000000000000000000000000000000600082015250565b7f4572726f723a206e6f20706f7374206578697374730000000000000000000000600082015250565b7f45524332303a207472616e7366657220616d6f756e742065786365656473206160008201527f6c6c6f77616e6365000000000000000000000000000000000000000000000000602082015250565b7f4a55525900000000000000000000000000000000000000000000000000000000600082015250565b7f4572726f723a2077726f6e67206163636f756e74000000000000000000000000600082015250565b7f4572726f723a2073616d65206163636f756e7400000000000000000000000000600082015250565b7f45524332303a207472616e736665722066726f6d20746865207a65726f20616460008201527f6472657373000000000000000000000000000000000000000000000000000000602082015250565b7f4572726f723a20227765222063616e6e6f74206d696e74000000000000000000600082015250565b7f45524332303a20617070726f76652066726f6d20746865207a65726f2061646460008201527f7265737300000000000000000000000000000000000000000000000000000000602082015250565b7f464f4c4c4f570000000000000000000000000000000000000000000000000000600082015250565b7f4572726f722c206f6e6c79206f776e65722063616e206368616e67652070617360008201527f73206d696e74657220726f6c6500000000000000000000000000000000000000602082015250565b7f45524332303a2064656372656173656420616c6c6f77616e63652062656c6f7760008201527f207a65726f000000000000000000000000000000000000000000000000000000602082015250565b7f45524332303a206d696e7420746f20746865207a65726f206164647265737300600082015250565b6130fa81612a66565b811461310557600080fd5b50565b61311181612a78565b811461311c57600080fd5b50565b61312881612aa4565b811461313357600080fd5b5056fea264697066735822122021473c47c1bcda7216f3d29808c857068737d0f33f6bd91f6e4f66d95c4b25e964736f6c63430008070033",
  "immutableReferences": {},
  "source": "// SPDX-License-Identifier: MIT\n\npragma solidity >=0.8.0 <0.9.0;\n\nimport \"@openzeppelin/contracts/token/ERC20/ERC20.sol\";\n\ncontract UME is ERC20 {\n\n  // minter's address\n  address public minter;\n\n  // minter role has changed to We\n  event MinterChanged(address indexed accountFrom, address indexed accountTo);\n  // minting events\n  event Minted(address indexed account, uint time, string postHash, string flag);\n\n  constructor() public payable ERC20(\"uMe token\", \"UME\") {\n    // assign bank minter role\n    minter = msg.sender;\n  }\n\n  function mintPost(address account, string memory _postHash, string memory _postText) public {\n    // make sure minter is same as sender\n    //require(account==msg.sender, 'Error: wrong account');\n    require(minter!=msg.sender, 'Error: \"we\" cannot mint');\n    require(bytes(_postHash).length > 0, 'Error: no post exists'); // check if post hash exists\n    require(bytes(_postText).length > 0, 'Error: no text in post'); // check if there's text in post\n    // mint UME token for Posted\n    _mint(address(account), 8);\n    // set event for minted Posted UME tokens\n    emit Minted(account, block.timestamp, _postHash, 'POST');\n  }\n  function mintLike(address accountFrom, address accountTo, string memory _postHash) public { // 1:3 Liker:Liked\n    require(accountFrom==msg.sender, 'Error: wrong account');\n    require(minter!=msg.sender, 'Error: \"we\" cannot mint');\n    require(bytes(_postHash).length > 0, 'Error: no post exists');\n    // mint a LIKE token for liker\n    _mint(address(accountFrom), 2);\n    // set event for LIKE token FROM\n    emit Minted(accountFrom, block.timestamp, _postHash, 'LIKE');\n    // mint LIKE tokens for likee\n    _mint(address(accountTo), 4);\n    // set event for LIKE token TO\n    emit Minted(accountTo, block.timestamp, _postHash, 'LIKE');\n  }\n  function mintTag(address accountFrom, address accountTo, string memory _postHash) public { // 1:3 Tagger:Tagged\n    require(accountFrom==msg.sender, 'Error: wrong account');\n    require(minter!=msg.sender, 'Error: \"we\" cannot mint');\n    require(accountFrom!=accountTo, 'Error: same account');\n    require(bytes(_postHash).length > 0, 'Error: no post exists');\n    // mint a TAG token for tagger\n    _mint(address(accountFrom), 1);\n    // set event for TAG token FROM\n    emit Minted(accountFrom, block.timestamp, _postHash, 'TAG');\n    // mint TAG tokens for taggee\n    _mint(address(accountTo), 2);\n    // set event for TAG token TO\n    emit Minted(accountTo, block.timestamp, _postHash, 'TAG');\n  }\n  function mintFollow(address accountFrom, address accountTo) public { // 1:3 Follower:Followed\n    require(accountFrom==msg.sender, 'Error: wrong account');\n    require(minter!=msg.sender, 'Error: \"we\" cannot mint');\n    require(accountFrom!=accountTo, 'Error: same account'); // doesn't mint tokens if tagged oneself\n    // mint a FOLLOW token for follower\n    _mint(accountFrom, 1);\n    // set event for FOLLOW token FROM\n    emit Minted(accountFrom, block.timestamp, '0x0', 'FOLLOW');\n    // mint FOLLOW tokens for followed\n    _mint(accountTo, 6);\n    // set event for FOLLOW token TO\n    emit Minted(accountTo, block.timestamp, '0x0','FOLLOW');\n  }\n  function mintRespond(address accountFrom, address accountTo, string memory _postHash) public { // 2:4 Responder:Responded\n    require(accountFrom==msg.sender, 'Error: wrong account');\n    require(minter!=msg.sender, 'Error: \"we\" cannot mint');\n    //require(minter==msg.sender, 'Error: wrong account '); // makes sure accounts exist\n    require(bytes(_postHash).length > 0, 'Error: no post exists');\n    // mint a RESPOND token for responder\n    _mint(accountFrom, 2);\n    // set event for RESPOND token FROM\n    emit Minted(accountFrom, block.timestamp, _postHash, 'RESPOND FROM');\n    // mint RESPOND tokens for responded\n    _mint(accountTo, 4);\n    // set event for RESPOND token TO\n    emit Minted(accountTo, block.timestamp, _postHash, 'RESPOND TO');\n  }\n  function mintCurate(address accountFrom, address accountTo, string memory _postHash) public { // 2:4 Responder:Responded\n    require(accountFrom==msg.sender, 'Error: wrong account');\n    require(minter!=msg.sender, 'Error: \"we\" cannot mint');\n    require(accountFrom!=accountTo, 'Error: same account'); // doesn't mint tokens if tagged oneself\n    require(bytes(_postHash).length > 0, 'Error: no post exists');\n    // mint a CURATE token for curatee\n    _mint(accountFrom, 2);\n    // set event for CURATE token FROM\n    emit Minted(accountFrom, block.timestamp, _postHash, 'CURATE');\n    // mint CURATE tokens for curator\n    _mint(accountTo, 4);\n    // set event for CURATE token TO\n    emit Minted(accountTo, block.timestamp, _postHash, 'CURATE');\n  }\n\n  function mintJury(address account, string memory _postHash, bool consensusReached) public { // 4 Juror token if no consensus reached, 24 if consensus reached\n    require(account==msg.sender, 'Error: wrong account');\n    require(minter!=msg.sender, 'Error: \"we\" cannot mint');\n    require(bytes(_postHash).length > 0, 'Error: no post exists');\n    if(consensusReached==true){\n      // mint 10 JURY token for juror\n      _mint(account, 24);\n      // set event for JURY token consensus reached\n      emit Minted(account, block.timestamp, _postHash, 'JURY');\n    } else if(consensusReached==false){\n      // mint a JURY token for juror\n      _mint(account, 4);\n      // set event for JURY no consensus reached\n      emit Minted(account, block.timestamp, _postHash, 'JURY');\n    }\n  }\n\n  //misread\n  function passMinterRole(address we) public returns (bool) {\n    require(msg.sender == minter, 'Error, only owner can change pass minter role');\n    minter = we;\n\n    emit MinterChanged(msg.sender, we);\n    return true;\n  }\n}\n",
  "sourcePath": "/Users/jaiq/Documents/000 BLOCKCHAIN/ETH/uMe/src/contracts/UME.sol",
  "compiler": {
    "name": "solc",
    "version": "0.8.7+commit.e28d00a7.Emscripten.clang"
  },
  "schemaVersion": "3.4.3",
  "updatedAt": "2021-08-19T06:42:14.769Z",
  "networkType": "ethereum",
  "devdoc": {
    "kind": "dev",
    "methods": {
      "allowance(address,address)": {
        "details": "See {IERC20-allowance}."
      },
      "approve(address,uint256)": {
        "details": "See {IERC20-approve}. Requirements: - `spender` cannot be the zero address."
      },
      "balanceOf(address)": {
        "details": "See {IERC20-balanceOf}."
      },
      "decimals()": {
        "details": "Returns the number of decimals used to get its user representation. For example, if `decimals` equals `2`, a balance of `505` tokens should be displayed to a user as `5.05` (`505 / 10 ** 2`). Tokens usually opt for a value of 18, imitating the relationship between Ether and Wei. This is the value {ERC20} uses, unless this function is overridden; NOTE: This information is only used for _display_ purposes: it in no way affects any of the arithmetic of the contract, including {IERC20-balanceOf} and {IERC20-transfer}."
      },
      "decreaseAllowance(address,uint256)": {
        "details": "Atomically decreases the allowance granted to `spender` by the caller. This is an alternative to {approve} that can be used as a mitigation for problems described in {IERC20-approve}. Emits an {Approval} event indicating the updated allowance. Requirements: - `spender` cannot be the zero address. - `spender` must have allowance for the caller of at least `subtractedValue`."
      },
      "increaseAllowance(address,uint256)": {
        "details": "Atomically increases the allowance granted to `spender` by the caller. This is an alternative to {approve} that can be used as a mitigation for problems described in {IERC20-approve}. Emits an {Approval} event indicating the updated allowance. Requirements: - `spender` cannot be the zero address."
      },
      "name()": {
        "details": "Returns the name of the token."
      },
      "symbol()": {
        "details": "Returns the symbol of the token, usually a shorter version of the name."
      },
      "totalSupply()": {
        "details": "See {IERC20-totalSupply}."
      },
      "transfer(address,uint256)": {
        "details": "See {IERC20-transfer}. Requirements: - `recipient` cannot be the zero address. - the caller must have a balance of at least `amount`."
      },
      "transferFrom(address,address,uint256)": {
        "details": "See {IERC20-transferFrom}. Emits an {Approval} event indicating the updated allowance. This is not required by the EIP. See the note at the beginning of {ERC20}. Requirements: - `sender` and `recipient` cannot be the zero address. - `sender` must have a balance of at least `amount`. - the caller must have allowance for ``sender``'s tokens of at least `amount`."
      }
    },
    "version": 1
  },
  "userdoc": {
    "kind": "user",
    "methods": {},
    "version": 1
  }
}