{
  "contractName": "UME",
  "abi": [
    {
      "inputs": [],
      "stateMutability": "payable",
      "type": "constructor",
      "payable": true
    },
    {
      "anonymous": false,
      "inputs": [
        {
          "indexed": true,
          "internalType": "address",
          "name": "owner",
          "type": "address"
        },
        {
          "indexed": true,
          "internalType": "address",
          "name": "spender",
          "type": "address"
        },
        {
          "indexed": false,
          "internalType": "uint256",
          "name": "value",
          "type": "uint256"
        }
      ],
      "name": "Approval",
      "type": "event"
    },
    {
      "anonymous": false,
      "inputs": [
        {
          "indexed": true,
          "internalType": "address",
          "name": "from",
          "type": "address"
        },
        {
          "indexed": true,
          "internalType": "address",
          "name": "to",
          "type": "address"
        }
      ],
      "name": "FollowSignerChanged",
      "type": "event"
    },
    {
      "anonymous": false,
      "inputs": [
        {
          "indexed": true,
          "internalType": "address",
          "name": "from",
          "type": "address"
        },
        {
          "indexed": true,
          "internalType": "address",
          "name": "to",
          "type": "address"
        }
      ],
      "name": "LikeSignerChanged",
      "type": "event"
    },
    {
      "anonymous": false,
      "inputs": [
        {
          "indexed": true,
          "internalType": "address",
          "name": "from",
          "type": "address"
        },
        {
          "indexed": true,
          "internalType": "address",
          "name": "to",
          "type": "address"
        }
      ],
      "name": "MemeFactorySignerChanged",
      "type": "event"
    },
    {
      "anonymous": false,
      "inputs": [
        {
          "indexed": true,
          "internalType": "address",
          "name": "account",
          "type": "address"
        },
        {
          "indexed": false,
          "internalType": "uint256",
          "name": "time",
          "type": "uint256"
        },
        {
          "indexed": false,
          "internalType": "string",
          "name": "flag",
          "type": "string"
        }
      ],
      "name": "Minted",
      "type": "event"
    },
    {
      "anonymous": false,
      "inputs": [
        {
          "indexed": true,
          "internalType": "address",
          "name": "from",
          "type": "address"
        },
        {
          "indexed": true,
          "internalType": "address",
          "name": "to",
          "type": "address"
        }
      ],
      "name": "MinterChanged",
      "type": "event"
    },
    {
      "anonymous": false,
      "inputs": [
        {
          "indexed": true,
          "internalType": "address",
          "name": "from",
          "type": "address"
        },
        {
          "indexed": true,
          "internalType": "address",
          "name": "to",
          "type": "address"
        }
      ],
      "name": "PostSignerChanged",
      "type": "event"
    },
    {
      "anonymous": false,
      "inputs": [
        {
          "indexed": true,
          "internalType": "address",
          "name": "from",
          "type": "address"
        },
        {
          "indexed": true,
          "internalType": "address",
          "name": "to",
          "type": "address"
        },
        {
          "indexed": false,
          "internalType": "uint256",
          "name": "value",
          "type": "uint256"
        }
      ],
      "name": "Transfer",
      "type": "event"
    },
    {
      "inputs": [
        {
          "internalType": "address",
          "name": "owner",
          "type": "address"
        },
        {
          "internalType": "address",
          "name": "spender",
          "type": "address"
        }
      ],
      "name": "allowance",
      "outputs": [
        {
          "internalType": "uint256",
          "name": "",
          "type": "uint256"
        }
      ],
      "stateMutability": "view",
      "type": "function",
      "constant": true
    },
    {
      "inputs": [
        {
          "internalType": "address",
          "name": "spender",
          "type": "address"
        },
        {
          "internalType": "uint256",
          "name": "amount",
          "type": "uint256"
        }
      ],
      "name": "approve",
      "outputs": [
        {
          "internalType": "bool",
          "name": "",
          "type": "bool"
        }
      ],
      "stateMutability": "nonpayable",
      "type": "function"
    },
    {
      "inputs": [
        {
          "internalType": "address",
          "name": "account",
          "type": "address"
        }
      ],
      "name": "balanceOf",
      "outputs": [
        {
          "internalType": "uint256",
          "name": "",
          "type": "uint256"
        }
      ],
      "stateMutability": "view",
      "type": "function",
      "constant": true
    },
    {
      "inputs": [],
      "name": "boostSigner",
      "outputs": [
        {
          "internalType": "address",
          "name": "",
          "type": "address"
        }
      ],
      "stateMutability": "view",
      "type": "function",
      "constant": true
    },
    {
      "inputs": [],
      "name": "decimals",
      "outputs": [
        {
          "internalType": "uint8",
          "name": "",
          "type": "uint8"
        }
      ],
      "stateMutability": "view",
      "type": "function",
      "constant": true
    },
    {
      "inputs": [
        {
          "internalType": "address",
          "name": "spender",
          "type": "address"
        },
        {
          "internalType": "uint256",
          "name": "subtractedValue",
          "type": "uint256"
        }
      ],
      "name": "decreaseAllowance",
      "outputs": [
        {
          "internalType": "bool",
          "name": "",
          "type": "bool"
        }
      ],
      "stateMutability": "nonpayable",
      "type": "function"
    },
    {
      "inputs": [],
      "name": "followSigner",
      "outputs": [
        {
          "internalType": "address",
          "name": "",
          "type": "address"
        }
      ],
      "stateMutability": "view",
      "type": "function",
      "constant": true
    },
    {
      "inputs": [
        {
          "internalType": "address",
          "name": "spender",
          "type": "address"
        },
        {
          "internalType": "uint256",
          "name": "addedValue",
          "type": "uint256"
        }
      ],
      "name": "increaseAllowance",
      "outputs": [
        {
          "internalType": "bool",
          "name": "",
          "type": "bool"
        }
      ],
      "stateMutability": "nonpayable",
      "type": "function"
    },
    {
      "inputs": [],
      "name": "likeSigner",
      "outputs": [
        {
          "internalType": "address",
          "name": "",
          "type": "address"
        }
      ],
      "stateMutability": "view",
      "type": "function",
      "constant": true
    },
    {
      "inputs": [],
      "name": "memeFactorySigner",
      "outputs": [
        {
          "internalType": "address",
          "name": "",
          "type": "address"
        }
      ],
      "stateMutability": "view",
      "type": "function",
      "constant": true
    },
    {
      "inputs": [],
      "name": "minter",
      "outputs": [
        {
          "internalType": "address",
          "name": "",
          "type": "address"
        }
      ],
      "stateMutability": "view",
      "type": "function",
      "constant": true
    },
    {
      "inputs": [],
      "name": "name",
      "outputs": [
        {
          "internalType": "string",
          "name": "",
          "type": "string"
        }
      ],
      "stateMutability": "view",
      "type": "function",
      "constant": true
    },
    {
      "inputs": [],
      "name": "postSigner",
      "outputs": [
        {
          "internalType": "address",
          "name": "",
          "type": "address"
        }
      ],
      "stateMutability": "view",
      "type": "function",
      "constant": true
    },
    {
      "inputs": [],
      "name": "symbol",
      "outputs": [
        {
          "internalType": "string",
          "name": "",
          "type": "string"
        }
      ],
      "stateMutability": "view",
      "type": "function",
      "constant": true
    },
    {
      "inputs": [],
      "name": "totalSupply",
      "outputs": [
        {
          "internalType": "uint256",
          "name": "",
          "type": "uint256"
        }
      ],
      "stateMutability": "view",
      "type": "function",
      "constant": true
    },
    {
      "inputs": [
        {
          "internalType": "address",
          "name": "recipient",
          "type": "address"
        },
        {
          "internalType": "uint256",
          "name": "amount",
          "type": "uint256"
        }
      ],
      "name": "transfer",
      "outputs": [
        {
          "internalType": "bool",
          "name": "",
          "type": "bool"
        }
      ],
      "stateMutability": "nonpayable",
      "type": "function"
    },
    {
      "inputs": [
        {
          "internalType": "address",
          "name": "sender",
          "type": "address"
        },
        {
          "internalType": "address",
          "name": "recipient",
          "type": "address"
        },
        {
          "internalType": "uint256",
          "name": "amount",
          "type": "uint256"
        }
      ],
      "name": "transferFrom",
      "outputs": [
        {
          "internalType": "bool",
          "name": "",
          "type": "bool"
        }
      ],
      "stateMutability": "nonpayable",
      "type": "function"
    },
    {
      "inputs": [
        {
          "internalType": "address",
          "name": "_account",
          "type": "address"
        },
        {
          "internalType": "string",
          "name": "_postText",
          "type": "string"
        }
      ],
      "name": "mintPost",
      "outputs": [],
      "stateMutability": "nonpayable",
      "type": "function"
    },
    {
      "inputs": [
        {
          "internalType": "address",
          "name": "_from",
          "type": "address"
        },
        {
          "internalType": "address",
          "name": "_to",
          "type": "address"
        }
      ],
      "name": "mintLike",
      "outputs": [],
      "stateMutability": "nonpayable",
      "type": "function"
    },
    {
      "inputs": [
        {
          "internalType": "address",
          "name": "_from",
          "type": "address"
        },
        {
          "internalType": "address",
          "name": "_to",
          "type": "address"
        }
      ],
      "name": "mintTag",
      "outputs": [],
      "stateMutability": "nonpayable",
      "type": "function"
    },
    {
      "inputs": [
        {
          "internalType": "address",
          "name": "_from",
          "type": "address"
        },
        {
          "internalType": "address",
          "name": "_to",
          "type": "address"
        }
      ],
      "name": "mintFollow",
      "outputs": [],
      "stateMutability": "nonpayable",
      "type": "function"
    },
    {
      "inputs": [
        {
          "internalType": "address",
          "name": "_from",
          "type": "address"
        },
        {
          "internalType": "address",
          "name": "_to",
          "type": "address"
        }
      ],
      "name": "mintRespond",
      "outputs": [],
      "stateMutability": "nonpayable",
      "type": "function"
    },
    {
      "inputs": [
        {
          "internalType": "address",
          "name": "_from",
          "type": "address"
        },
        {
          "internalType": "address",
          "name": "_to",
          "type": "address"
        }
      ],
      "name": "mintCurate",
      "outputs": [],
      "stateMutability": "nonpayable",
      "type": "function"
    },
    {
      "inputs": [
        {
          "internalType": "address",
          "name": "_from",
          "type": "address"
        },
        {
          "internalType": "address",
          "name": "_to",
          "type": "address"
        }
      ],
      "name": "mintRepost",
      "outputs": [],
      "stateMutability": "nonpayable",
      "type": "function"
    },
    {
      "inputs": [
        {
          "internalType": "address",
          "name": "_account",
          "type": "address"
        },
        {
          "internalType": "uint256",
          "name": "_amount",
          "type": "uint256"
        }
      ],
      "name": "burn",
      "outputs": [],
      "stateMutability": "nonpayable",
      "type": "function"
    },
    {
      "inputs": [
        {
          "internalType": "address",
          "name": "_we",
          "type": "address"
        }
      ],
      "name": "passMinterRole",
      "outputs": [
        {
          "internalType": "bool",
          "name": "",
          "type": "bool"
        }
      ],
      "stateMutability": "nonpayable",
      "type": "function"
    },
    {
      "inputs": [
        {
          "internalType": "address",
          "name": "_post",
          "type": "address"
        }
      ],
      "name": "passPostSignerRole",
      "outputs": [
        {
          "internalType": "bool",
          "name": "",
          "type": "bool"
        }
      ],
      "stateMutability": "nonpayable",
      "type": "function"
    },
    {
      "inputs": [
        {
          "internalType": "address",
          "name": "_memeFactory",
          "type": "address"
        }
      ],
      "name": "passMemeFactorySignerRole",
      "outputs": [
        {
          "internalType": "bool",
          "name": "",
          "type": "bool"
        }
      ],
      "stateMutability": "nonpayable",
      "type": "function"
    },
    {
      "inputs": [
        {
          "internalType": "address",
          "name": "_like",
          "type": "address"
        }
      ],
      "name": "passLikeSignerRole",
      "outputs": [
        {
          "internalType": "bool",
          "name": "",
          "type": "bool"
        }
      ],
      "stateMutability": "nonpayable",
      "type": "function"
    },
    {
      "inputs": [
        {
          "internalType": "address",
          "name": "_follow",
          "type": "address"
        }
      ],
      "name": "passFollowSignerRole",
      "outputs": [
        {
          "internalType": "bool",
          "name": "",
          "type": "bool"
        }
      ],
      "stateMutability": "nonpayable",
      "type": "function"
    },
    {
      "inputs": [
        {
          "internalType": "address",
          "name": "_boost",
          "type": "address"
        }
      ],
      "name": "passBoostSignerRole",
      "outputs": [
        {
          "internalType": "bool",
          "name": "",
          "type": "bool"
        }
      ],
      "stateMutability": "nonpayable",
      "type": "function"
    }
  ],
  "bytecode": "0x60806040526040518060400160405280600981526020017f754d6520746f6b656e00000000000000000000000000000000000000000000008152506040518060400160405280600381526020017f554d45000000000000000000000000000000000000000000000000000000000081525081600390805190602001906200008892919062000230565b508060049080519060200190620000a192919062000230565b50505033600560006101000a81548173ffffffffffffffffffffffffffffffffffffffff021916908373ffffffffffffffffffffffffffffffffffffffff16021790555033600760006101000a81548173ffffffffffffffffffffffffffffffffffffffff021916908373ffffffffffffffffffffffffffffffffffffffff16021790555033600660006101000a81548173ffffffffffffffffffffffffffffffffffffffff021916908373ffffffffffffffffffffffffffffffffffffffff16021790555033600860006101000a81548173ffffffffffffffffffffffffffffffffffffffff021916908373ffffffffffffffffffffffffffffffffffffffff16021790555033600960006101000a81548173ffffffffffffffffffffffffffffffffffffffff021916908373ffffffffffffffffffffffffffffffffffffffff16021790555033600a60006101000a81548173ffffffffffffffffffffffffffffffffffffffff021916908373ffffffffffffffffffffffffffffffffffffffff16021790555062000345565b8280546200023e90620002e0565b90600052602060002090601f016020900481019282620002625760008555620002ae565b82601f106200027d57805160ff1916838001178555620002ae565b82800160010185558215620002ae579182015b82811115620002ad57825182559160200191906001019062000290565b5b509050620002bd9190620002c1565b5090565b5b80821115620002dc576000816000905550600101620002c2565b5090565b60006002820490506001821680620002f957607f821691505b6020821081141562000310576200030f62000316565b5b50919050565b7f4e487b7100000000000000000000000000000000000000000000000000000000600052602260045260246000fd5b6139e080620003556000396000f3fe608060405234801561001057600080fd5b50600436106101e55760003560e01c806376bd8f8c1161010f578063b8e3bfb8116100a2578063d7fc5b1511610071578063d7fc5b15146105ce578063dd62ed3e146105fe578063e981dc8f1461062e578063f52548d41461064a576101e5565b8063b8e3bfb814610548578063bc83419514610566578063c11f710b14610582578063d0449589146105b2576101e5565b806395d89b41116100de57806395d89b41146104ae5780639dc29fac146104cc578063a457c2d7146104e8578063a9059cbb14610518576101e5565b806376bd8f8c14610438578063829a262c1461045457806386b22146146104725780638c98876f14610490576101e5565b80632cc67a7c116101875780633d165083116101565780633d1650831461038a57806357a2bb29146103ba5780635bba8fef146103ea57806370a0823114610408576101e5565b80632cc67a7c146103045780632d599ba514610320578063313ce5671461033c578063395093511461035a576101e5565b806310bfd5f4116101c357806310bfd5f41461025657806318160ddd1461028657806322087e88146102a457806323b872dd146102d4576101e5565b806306fdde03146101ea5780630754617214610208578063095ea7b314610226575b600080fd5b6101f2610666565b6040516101ff9190612b64565b60405180910390f35b6102106106f8565b60405161021d9190612b2e565b60405180910390f35b610240600480360381019061023b91906126a5565b61071e565b60405161024d9190612b49565b60405180910390f35b610270600480360381019061026b9190612589565b61073c565b60405161027d9190612b49565b60405180910390f35b61028e610894565b60405161029b9190612e06565b60405180910390f35b6102be60048036038101906102b99190612589565b61089e565b6040516102cb9190612b49565b60405180910390f35b6102ee60048036038101906102e991906125f6565b6109f6565b6040516102fb9190612b49565b60405180910390f35b61031e600480360381019061031991906125b6565b610aee565b005b61033a600480360381019061033591906125b6565b610c34565b005b610344610d7a565b6040516103519190612f91565b60405180910390f35b610374600480360381019061036f91906126a5565b610d83565b6040516103819190612b49565b60405180910390f35b6103a4600480360381019061039f9190612589565b610e2f565b6040516103b19190612b49565b60405180910390f35b6103d460048036038101906103cf9190612589565b610f87565b6040516103e19190612b49565b60405180910390f35b6103f26110df565b6040516103ff9190612b2e565b60405180910390f35b610422600480360381019061041d9190612589565b611105565b60405161042f9190612e06565b60405180910390f35b610452600480360381019061044d9190612649565b61114d565b005b61045c61123a565b6040516104699190612b2e565b60405180910390f35b61047a611260565b6040516104879190612b2e565b60405180910390f35b610498611286565b6040516104a59190612b2e565b60405180910390f35b6104b66112ac565b6040516104c39190612b64565b60405180910390f35b6104e660048036038101906104e191906126a5565b61133e565b005b61050260048036038101906104fd91906126a5565b6113dc565b60405161050f9190612b49565b60405180910390f35b610532600480360381019061052d91906126a5565b6114c7565b60405161053f9190612b49565b60405180910390f35b6105506114e5565b60405161055d9190612b2e565b60405180910390f35b610580600480360381019061057b91906125b6565b61150b565b005b61059c60048036038101906105979190612589565b611651565b6040516105a99190612b49565b60405180910390f35b6105cc60048036038101906105c791906125b6565b6117a9565b005b6105e860048036038101906105e39190612589565b6118ef565b6040516105f59190612b49565b60405180910390f35b610618600480360381019061061391906125b6565b611a47565b6040516106259190612e06565b60405180910390f35b610648600480360381019061064391906125b6565b611ace565b005b610664600480360381019061065f91906125b6565b611c14565b005b6060600380546106759061313f565b80601f01602080910402602001604051908101604052809291908181526020018280546106a19061313f565b80156106ee5780601f106106c3576101008083540402835291602001916106ee565b820191906000526020600020905b8154815290600101906020018083116106d157829003601f168201915b5050505050905090565b600560009054906101000a900473ffffffffffffffffffffffffffffffffffffffff1681565b600061073261072b611d5a565b8484611d62565b6001905092915050565b6000600a60009054906101000a900473ffffffffffffffffffffffffffffffffffffffff1673ffffffffffffffffffffffffffffffffffffffff163373ffffffffffffffffffffffffffffffffffffffff16146107ce576040517f08c379a00000000000000000000000000000000000000000000000000000000081526004016107c590612d86565b60405180910390fd5b81600a60006101000a81548173ffffffffffffffffffffffffffffffffffffffff021916908373ffffffffffffffffffffffffffffffffffffffff160217905550600a60009054906101000a900473ffffffffffffffffffffffffffffffffffffffff1673ffffffffffffffffffffffffffffffffffffffff163373ffffffffffffffffffffffffffffffffffffffff167f317b209d0dca6ddb6667f7c47d488a9708cc0e7befa4cde41a104b125a1d9ef660405160405180910390a360019050919050565b6000600254905090565b6000600760009054906101000a900473ffffffffffffffffffffffffffffffffffffffff1673ffffffffffffffffffffffffffffffffffffffff163373ffffffffffffffffffffffffffffffffffffffff1614610930576040517f08c379a000000000000000000000000000000000000000000000000000000000815260040161092790612bc6565b60405180910390fd5b81600760006101000a81548173ffffffffffffffffffffffffffffffffffffffff021916908373ffffffffffffffffffffffffffffffffffffffff160217905550600760009054906101000a900473ffffffffffffffffffffffffffffffffffffffff1673ffffffffffffffffffffffffffffffffffffffff163373ffffffffffffffffffffffffffffffffffffffff167f76ce921e20c471c95deae34d20d53706ec4378ecab394e517f73aef912ae6cdd60405160405180910390a360019050919050565b6000610a03848484611f2d565b6000600160008673ffffffffffffffffffffffffffffffffffffffff1673ffffffffffffffffffffffffffffffffffffffff1681526020019081526020016000206000610a4e611d5a565b73ffffffffffffffffffffffffffffffffffffffff1673ffffffffffffffffffffffffffffffffffffffff16815260200190815260200160002054905082811015610ace576040517f08c379a0000000000000000000000000000000000000000000000000000000008152600401610ac590612ca6565b60405180910390fd5b610ae285610ada611d5a565b858403611d62565b60019150509392505050565b3373ffffffffffffffffffffffffffffffffffffffff16600660009054906101000a900473ffffffffffffffffffffffffffffffffffffffff1673ffffffffffffffffffffffffffffffffffffffff1614610b7e576040517f08c379a0000000000000000000000000000000000000000000000000000000008152600401610b7590612cc6565b60405180910390fd5b610b898260016121ae565b8173ffffffffffffffffffffffffffffffffffffffff167fe7cd4ce7f2a465edc730269a1305e8a48bad821e8fb7e152ec413829c01a53c442604051610bcf9190612e7d565b60405180910390a2610be28160036121ae565b8073ffffffffffffffffffffffffffffffffffffffff167fe7cd4ce7f2a465edc730269a1305e8a48bad821e8fb7e152ec413829c01a53c442604051610c289190612e7d565b60405180910390a25050565b3373ffffffffffffffffffffffffffffffffffffffff16600960009054906101000a900473ffffffffffffffffffffffffffffffffffffffff1673ffffffffffffffffffffffffffffffffffffffff1614610cc4576040517f08c379a0000000000000000000000000000000000000000000000000000000008152600401610cbb90612cc6565b60405180910390fd5b610ccf8260016121ae565b8173ffffffffffffffffffffffffffffffffffffffff167fe7cd4ce7f2a465edc730269a1305e8a48bad821e8fb7e152ec413829c01a53c442604051610d159190612f63565b60405180910390a2610d288160066121ae565b8073ffffffffffffffffffffffffffffffffffffffff167fe7cd4ce7f2a465edc730269a1305e8a48bad821e8fb7e152ec413829c01a53c442604051610d6e9190612f63565b60405180910390a25050565b60006012905090565b6000610e25610d90611d5a565b848460016000610d9e611d5a565b73ffffffffffffffffffffffffffffffffffffffff1673ffffffffffffffffffffffffffffffffffffffff16815260200190815260200160002060008873ffffffffffffffffffffffffffffffffffffffff1673ffffffffffffffffffffffffffffffffffffffff16815260200190815260200160002054610e20919061301e565b611d62565b6001905092915050565b6000600660009054906101000a900473ffffffffffffffffffffffffffffffffffffffff1673ffffffffffffffffffffffffffffffffffffffff163373ffffffffffffffffffffffffffffffffffffffff1614610ec1576040517f08c379a0000000000000000000000000000000000000000000000000000000008152600401610eb890612d06565b60405180910390fd5b81600660006101000a81548173ffffffffffffffffffffffffffffffffffffffff021916908373ffffffffffffffffffffffffffffffffffffffff160217905550600660009054906101000a900473ffffffffffffffffffffffffffffffffffffffff1673ffffffffffffffffffffffffffffffffffffffff163373ffffffffffffffffffffffffffffffffffffffff167f76ce921e20c471c95deae34d20d53706ec4378ecab394e517f73aef912ae6cdd60405160405180910390a360019050919050565b6000600960009054906101000a900473ffffffffffffffffffffffffffffffffffffffff1673ffffffffffffffffffffffffffffffffffffffff163373ffffffffffffffffffffffffffffffffffffffff1614611019576040517f08c379a000000000000000000000000000000000000000000000000000000000815260040161101090612c86565b60405180910390fd5b81600960006101000a81548173ffffffffffffffffffffffffffffffffffffffff021916908373ffffffffffffffffffffffffffffffffffffffff160217905550600960009054906101000a900473ffffffffffffffffffffffffffffffffffffffff1673ffffffffffffffffffffffffffffffffffffffff163373ffffffffffffffffffffffffffffffffffffffff167f317b209d0dca6ddb6667f7c47d488a9708cc0e7befa4cde41a104b125a1d9ef660405160405180910390a360019050919050565b600a60009054906101000a900473ffffffffffffffffffffffffffffffffffffffff1681565b60008060008373ffffffffffffffffffffffffffffffffffffffff1673ffffffffffffffffffffffffffffffffffffffff168152602001908152602001600020549050919050565b3373ffffffffffffffffffffffffffffffffffffffff16600760009054906101000a900473ffffffffffffffffffffffffffffffffffffffff1673ffffffffffffffffffffffffffffffffffffffff16146111dd576040517f08c379a00000000000000000000000000000000000000000000000000000000081526004016111d490612c66565b60405180910390fd5b6111e88260086121ae565b8173ffffffffffffffffffffffffffffffffffffffff167fe7cd4ce7f2a465edc730269a1305e8a48bad821e8fb7e152ec413829c01a53c44260405161122e9190612e4f565b60405180910390a25050565b600860009054906101000a900473ffffffffffffffffffffffffffffffffffffffff1681565b600660009054906101000a900473ffffffffffffffffffffffffffffffffffffffff1681565b600760009054906101000a900473ffffffffffffffffffffffffffffffffffffffff1681565b6060600480546112bb9061313f565b80601f01602080910402602001604051908101604052809291908181526020018280546112e79061313f565b80156113345780601f1061130957610100808354040283529160200191611334565b820191906000526020600020905b81548152906001019060200180831161131757829003601f168201915b5050505050905090565b600a60009054906101000a900473ffffffffffffffffffffffffffffffffffffffff1673ffffffffffffffffffffffffffffffffffffffff163373ffffffffffffffffffffffffffffffffffffffff16146113ce576040517f08c379a00000000000000000000000000000000000000000000000000000000081526004016113c590612de6565b60405180910390fd5b6113d8828261230e565b5050565b600080600160006113eb611d5a565b73ffffffffffffffffffffffffffffffffffffffff1673ffffffffffffffffffffffffffffffffffffffff16815260200190815260200160002060008573ffffffffffffffffffffffffffffffffffffffff1673ffffffffffffffffffffffffffffffffffffffff168152602001908152602001600020549050828110156114a8576040517f08c379a000000000000000000000000000000000000000000000000000000000815260040161149f90612da6565b60405180910390fd5b6114bc6114b3611d5a565b85858403611d62565b600191505092915050565b60006114db6114d4611d5a565b8484611f2d565b6001905092915050565b600960009054906101000a900473ffffffffffffffffffffffffffffffffffffffff1681565b3373ffffffffffffffffffffffffffffffffffffffff16600660009054906101000a900473ffffffffffffffffffffffffffffffffffffffff1673ffffffffffffffffffffffffffffffffffffffff161461159b576040517f08c379a000000000000000000000000000000000000000000000000000000000815260040161159290612cc6565b60405180910390fd5b6115a68260026121ae565b8173ffffffffffffffffffffffffffffffffffffffff167fe7cd4ce7f2a465edc730269a1305e8a48bad821e8fb7e152ec413829c01a53c4426040516115ec9190612ed9565b60405180910390a26115ff8160046121ae565b8073ffffffffffffffffffffffffffffffffffffffff167fe7cd4ce7f2a465edc730269a1305e8a48bad821e8fb7e152ec413829c01a53c4426040516116459190612eab565b60405180910390a25050565b6000600860009054906101000a900473ffffffffffffffffffffffffffffffffffffffff1673ffffffffffffffffffffffffffffffffffffffff163373ffffffffffffffffffffffffffffffffffffffff16146116e3576040517f08c379a00000000000000000000000000000000000000000000000000000000081526004016116da90612c46565b60405180910390fd5b81600860006101000a81548173ffffffffffffffffffffffffffffffffffffffff021916908373ffffffffffffffffffffffffffffffffffffffff160217905550600860009054906101000a900473ffffffffffffffffffffffffffffffffffffffff1673ffffffffffffffffffffffffffffffffffffffff163373ffffffffffffffffffffffffffffffffffffffff167f76ce921e20c471c95deae34d20d53706ec4378ecab394e517f73aef912ae6cdd60405160405180910390a360019050919050565b3373ffffffffffffffffffffffffffffffffffffffff16600860009054906101000a900473ffffffffffffffffffffffffffffffffffffffff1673ffffffffffffffffffffffffffffffffffffffff1614611839576040517f08c379a000000000000000000000000000000000000000000000000000000000815260040161183090612d26565b60405180910390fd5b6118448260026121ae565b8173ffffffffffffffffffffffffffffffffffffffff167fe7cd4ce7f2a465edc730269a1305e8a48bad821e8fb7e152ec413829c01a53c44260405161188a9190612e21565b60405180910390a261189d8160056121ae565b8073ffffffffffffffffffffffffffffffffffffffff167fe7cd4ce7f2a465edc730269a1305e8a48bad821e8fb7e152ec413829c01a53c4426040516118e39190612e21565b60405180910390a25050565b6000600560009054906101000a900473ffffffffffffffffffffffffffffffffffffffff1673ffffffffffffffffffffffffffffffffffffffff163373ffffffffffffffffffffffffffffffffffffffff1614611981576040517f08c379a000000000000000000000000000000000000000000000000000000000815260040161197890612c26565b60405180910390fd5b81600560006101000a81548173ffffffffffffffffffffffffffffffffffffffff021916908373ffffffffffffffffffffffffffffffffffffffff160217905550600560009054906101000a900473ffffffffffffffffffffffffffffffffffffffff1673ffffffffffffffffffffffffffffffffffffffff163373ffffffffffffffffffffffffffffffffffffffff167f3b0007eb941cf645526cbb3a4fdaecda9d28ce4843167d9263b536a1f1edc0f660405160405180910390a360019050919050565b6000600160008473ffffffffffffffffffffffffffffffffffffffff1673ffffffffffffffffffffffffffffffffffffffff16815260200190815260200160002060008373ffffffffffffffffffffffffffffffffffffffff1673ffffffffffffffffffffffffffffffffffffffff16815260200190815260200160002054905092915050565b3373ffffffffffffffffffffffffffffffffffffffff16600660009054906101000a900473ffffffffffffffffffffffffffffffffffffffff1673ffffffffffffffffffffffffffffffffffffffff1614611b5e576040517f08c379a0000000000000000000000000000000000000000000000000000000008152600401611b5590612cc6565b60405180910390fd5b611b698260026121ae565b8173ffffffffffffffffffffffffffffffffffffffff167fe7cd4ce7f2a465edc730269a1305e8a48bad821e8fb7e152ec413829c01a53c442604051611baf9190612f35565b60405180910390a2611bc28160046121ae565b8073ffffffffffffffffffffffffffffffffffffffff167fe7cd4ce7f2a465edc730269a1305e8a48bad821e8fb7e152ec413829c01a53c442604051611c089190612f35565b60405180910390a25050565b3373ffffffffffffffffffffffffffffffffffffffff16600760009054906101000a900473ffffffffffffffffffffffffffffffffffffffff1673ffffffffffffffffffffffffffffffffffffffff1614611ca4576040517f08c379a0000000000000000000000000000000000000000000000000000000008152600401611c9b90612cc6565b60405180910390fd5b611caf8260056121ae565b8173ffffffffffffffffffffffffffffffffffffffff167fe7cd4ce7f2a465edc730269a1305e8a48bad821e8fb7e152ec413829c01a53c442604051611cf59190612f07565b60405180910390a2611d088160066121ae565b8173ffffffffffffffffffffffffffffffffffffffff167fe7cd4ce7f2a465edc730269a1305e8a48bad821e8fb7e152ec413829c01a53c442604051611d4e9190612f07565b60405180910390a25050565b600033905090565b600073ffffffffffffffffffffffffffffffffffffffff168373ffffffffffffffffffffffffffffffffffffffff161415611dd2576040517f08c379a0000000000000000000000000000000000000000000000000000000008152600401611dc990612d66565b60405180910390fd5b600073ffffffffffffffffffffffffffffffffffffffff168273ffffffffffffffffffffffffffffffffffffffff161415611e42576040517f08c379a0000000000000000000000000000000000000000000000000000000008152600401611e3990612be6565b60405180910390fd5b80600160008573ffffffffffffffffffffffffffffffffffffffff1673ffffffffffffffffffffffffffffffffffffffff16815260200190815260200160002060008473ffffffffffffffffffffffffffffffffffffffff1673ffffffffffffffffffffffffffffffffffffffff168152602001908152602001600020819055508173ffffffffffffffffffffffffffffffffffffffff168373ffffffffffffffffffffffffffffffffffffffff167f8c5be1e5ebec7d5bd14f71427d1e84f3dd0314c0f7b2291e5b200ac8c7c3b92583604051611f209190612e06565b60405180910390a3505050565b600073ffffffffffffffffffffffffffffffffffffffff168373ffffffffffffffffffffffffffffffffffffffff161415611f9d576040517f08c379a0000000000000000000000000000000000000000000000000000000008152600401611f9490612d46565b60405180910390fd5b600073ffffffffffffffffffffffffffffffffffffffff168273ffffffffffffffffffffffffffffffffffffffff16141561200d576040517f08c379a000000000000000000000000000000000000000000000000000000000815260040161200490612b86565b60405180910390fd5b6120188383836124e5565b60008060008573ffffffffffffffffffffffffffffffffffffffff1673ffffffffffffffffffffffffffffffffffffffff1681526020019081526020016000205490508181101561209e576040517f08c379a000000000000000000000000000000000000000000000000000000000815260040161209590612c06565b60405180910390fd5b8181036000808673ffffffffffffffffffffffffffffffffffffffff1673ffffffffffffffffffffffffffffffffffffffff16815260200190815260200160002081905550816000808573ffffffffffffffffffffffffffffffffffffffff1673ffffffffffffffffffffffffffffffffffffffff1681526020019081526020016000206000828254612131919061301e565b925050819055508273ffffffffffffffffffffffffffffffffffffffff168473ffffffffffffffffffffffffffffffffffffffff167fddf252ad1be2c89b69c2b068fc378daa952ba7f163c4a11628f55a4df523b3ef846040516121959190612e06565b60405180910390a36121a88484846124ea565b50505050565b600073ffffffffffffffffffffffffffffffffffffffff168273ffffffffffffffffffffffffffffffffffffffff16141561221e576040517f08c379a000000000000000000000000000000000000000000000000000000000815260040161221590612dc6565b60405180910390fd5b61222a600083836124e5565b806002600082825461223c919061301e565b92505081905550806000808473ffffffffffffffffffffffffffffffffffffffff1673ffffffffffffffffffffffffffffffffffffffff1681526020019081526020016000206000828254612291919061301e565b925050819055508173ffffffffffffffffffffffffffffffffffffffff16600073ffffffffffffffffffffffffffffffffffffffff167fddf252ad1be2c89b69c2b068fc378daa952ba7f163c4a11628f55a4df523b3ef836040516122f69190612e06565b60405180910390a361230a600083836124ea565b5050565b600073ffffffffffffffffffffffffffffffffffffffff168273ffffffffffffffffffffffffffffffffffffffff16141561237e576040517f08c379a000000000000000000000000000000000000000000000000000000000815260040161237590612ce6565b60405180910390fd5b61238a826000836124e5565b60008060008473ffffffffffffffffffffffffffffffffffffffff1673ffffffffffffffffffffffffffffffffffffffff16815260200190815260200160002054905081811015612410576040517f08c379a000000000000000000000000000000000000000000000000000000000815260040161240790612ba6565b60405180910390fd5b8181036000808573ffffffffffffffffffffffffffffffffffffffff1673ffffffffffffffffffffffffffffffffffffffff1681526020019081526020016000208190555081600260008282546124679190613074565b92505081905550600073ffffffffffffffffffffffffffffffffffffffff168373ffffffffffffffffffffffffffffffffffffffff167fddf252ad1be2c89b69c2b068fc378daa952ba7f163c4a11628f55a4df523b3ef846040516124cc9190612e06565b60405180910390a36124e0836000846124ea565b505050565b505050565b505050565b60006125026124fd84612fd1565b612fac565b90508281526020810184848401111561251e5761251d613234565b5b6125298482856130fd565b509392505050565b6000813590506125408161397c565b92915050565b600082601f83011261255b5761255a61322f565b5b813561256b8482602086016124ef565b91505092915050565b60008135905061258381613993565b92915050565b60006020828403121561259f5761259e61323e565b5b60006125ad84828501612531565b91505092915050565b600080604083850312156125cd576125cc61323e565b5b60006125db85828601612531565b92505060206125ec85828601612531565b9150509250929050565b60008060006060848603121561260f5761260e61323e565b5b600061261d86828701612531565b935050602061262e86828701612531565b925050604061263f86828701612574565b9150509250925092565b600080604083850312156126605761265f61323e565b5b600061266e85828601612531565b925050602083013567ffffffffffffffff81111561268f5761268e613239565b5b61269b85828601612546565b9150509250929050565b600080604083850312156126bc576126bb61323e565b5b60006126ca85828601612531565b92505060206126db85828601612574565b9150509250929050565b6126ee816130a8565b82525050565b6126fd816130ba565b82525050565b600061270e82613002565b612718818561300d565b935061272881856020860161310c565b61273181613243565b840191505092915050565b600061274960238361300d565b915061275482613254565b604082019050919050565b600061276c60228361300d565b9150612777826132a3565b604082019050919050565b600061278f60048361300d565b915061279a826132f2565b602082019050919050565b60006127b260308361300d565b91506127bd8261331b565b604082019050919050565b60006127d560228361300d565b91506127e08261336a565b604082019050919050565b60006127f860048361300d565b9150612803826133b9565b602082019050919050565b600061281b60038361300d565b9150612826826133e2565b602082019050919050565b600061283e60268361300d565b91506128498261340b565b604082019050919050565b6000612861600a8361300d565b915061286c8261345a565b602082019050919050565b600061288460308361300d565b915061288f82613483565b604082019050919050565b60006128a7603c8361300d565b91506128b2826134d2565b604082019050919050565b60006128ca600c8361300d565b91506128d582613521565b602082019050919050565b60006128ed60068361300d565b91506128f88261354a565b602082019050919050565b600061291060068361300d565b915061291b82613573565b602082019050919050565b600061293360228361300d565b915061293e8261359c565b604082019050919050565b600061295660378361300d565b9150612961826135eb565b604082019050919050565b600061297960288361300d565b91506129848261363a565b604082019050919050565b600061299c60148361300d565b91506129a782613689565b602082019050919050565b60006129bf60218361300d565b91506129ca826136b2565b604082019050919050565b60006129e260358361300d565b91506129ed82613701565b604082019050919050565b6000612a0560218361300d565b9150612a1082613750565b604082019050919050565b6000612a2860258361300d565b9150612a338261379f565b604082019050919050565b6000612a4b60248361300d565b9150612a56826137ee565b604082019050919050565b6000612a6e60068361300d565b9150612a798261383d565b602082019050919050565b6000612a91602f8361300d565b9150612a9c82613866565b604082019050919050565b6000612ab460258361300d565b9150612abf826138b5565b604082019050919050565b6000612ad7601f8361300d565b9150612ae282613904565b602082019050919050565b6000612afa60228361300d565b9150612b058261392d565b604082019050919050565b612b19816130e6565b82525050565b612b28816130f0565b82525050565b6000602082019050612b4360008301846126e5565b92915050565b6000602082019050612b5e60008301846126f4565b92915050565b60006020820190508181036000830152612b7e8184612703565b905092915050565b60006020820190508181036000830152612b9f8161273c565b9050919050565b60006020820190508181036000830152612bbf8161275f565b9050919050565b60006020820190508181036000830152612bdf816127a5565b9050919050565b60006020820190508181036000830152612bff816127c8565b9050919050565b60006020820190508181036000830152612c1f81612831565b9050919050565b60006020820190508181036000830152612c3f81612877565b9050919050565b60006020820190508181036000830152612c5f8161289a565b9050919050565b60006020820190508181036000830152612c7f81612926565b9050919050565b60006020820190508181036000830152612c9f81612949565b9050919050565b60006020820190508181036000830152612cbf8161296c565b9050919050565b60006020820190508181036000830152612cdf8161298f565b9050919050565b60006020820190508181036000830152612cff816129b2565b9050919050565b60006020820190508181036000830152612d1f816129d5565b9050919050565b60006020820190508181036000830152612d3f816129f8565b9050919050565b60006020820190508181036000830152612d5f81612a1b565b9050919050565b60006020820190508181036000830152612d7f81612a3e565b9050919050565b60006020820190508181036000830152612d9f81612a84565b9050919050565b60006020820190508181036000830152612dbf81612aa7565b9050919050565b60006020820190508181036000830152612ddf81612aca565b9050919050565b60006020820190508181036000830152612dff81612aed565b9050919050565b6000602082019050612e1b6000830184612b10565b92915050565b6000604082019050612e366000830184612b10565b8181036020830152612e4781612782565b905092915050565b6000604082019050612e646000830184612b10565b8181036020830152612e75816127eb565b905092915050565b6000604082019050612e926000830184612b10565b8181036020830152612ea38161280e565b905092915050565b6000604082019050612ec06000830184612b10565b8181036020830152612ed181612854565b905092915050565b6000604082019050612eee6000830184612b10565b8181036020830152612eff816128bd565b905092915050565b6000604082019050612f1c6000830184612b10565b8181036020830152612f2d816128e0565b905092915050565b6000604082019050612f4a6000830184612b10565b8181036020830152612f5b81612903565b905092915050565b6000604082019050612f786000830184612b10565b8181036020830152612f8981612a61565b905092915050565b6000602082019050612fa66000830184612b1f565b92915050565b6000612fb6612fc7565b9050612fc28282613171565b919050565b6000604051905090565b600067ffffffffffffffff821115612fec57612feb613200565b5b612ff582613243565b9050602081019050919050565b600081519050919050565b600082825260208201905092915050565b6000613029826130e6565b9150613034836130e6565b9250827fffffffffffffffffffffffffffffffffffffffffffffffffffffffffffffffff03821115613069576130686131a2565b5b828201905092915050565b600061307f826130e6565b915061308a836130e6565b92508282101561309d5761309c6131a2565b5b828203905092915050565b60006130b3826130c6565b9050919050565b60008115159050919050565b600073ffffffffffffffffffffffffffffffffffffffff82169050919050565b6000819050919050565b600060ff82169050919050565b82818337600083830152505050565b60005b8381101561312a57808201518184015260208101905061310f565b83811115613139576000848401525b50505050565b6000600282049050600182168061315757607f821691505b6020821081141561316b5761316a6131d1565b5b50919050565b61317a82613243565b810181811067ffffffffffffffff8211171561319957613198613200565b5b80604052505050565b7f4e487b7100000000000000000000000000000000000000000000000000000000600052601160045260246000fd5b7f4e487b7100000000000000000000000000000000000000000000000000000000600052602260045260246000fd5b7f4e487b7100000000000000000000000000000000000000000000000000000000600052604160045260246000fd5b600080fd5b600080fd5b600080fd5b600080fd5b6000601f19601f8301169050919050565b7f45524332303a207472616e7366657220746f20746865207a65726f206164647260008201527f6573730000000000000000000000000000000000000000000000000000000000602082015250565b7f45524332303a206275726e20616d6f756e7420657863656564732062616c616e60008201527f6365000000000000000000000000000000000000000000000000000000000000602082015250565b7f4c494b4500000000000000000000000000000000000000000000000000000000600082015250565b7f4572726f722c206f6e6c79206465706c6f7965722063616e207061737320706f60008201527f737427732063616c6c657220726f6c6500000000000000000000000000000000602082015250565b7f45524332303a20617070726f766520746f20746865207a65726f20616464726560008201527f7373000000000000000000000000000000000000000000000000000000000000602082015250565b7f504f535400000000000000000000000000000000000000000000000000000000600082015250565b7f5441470000000000000000000000000000000000000000000000000000000000600082015250565b7f45524332303a207472616e7366657220616d6f756e742065786365656473206260008201527f616c616e63650000000000000000000000000000000000000000000000000000602082015250565b7f524553504f4e4420544f00000000000000000000000000000000000000000000600082015250565b7f4572726f723a206f6e6c79206465706c6f7965722063616e206368616e67652060008201527f70617373206d696e74657220726f6c6500000000000000000000000000000000602082015250565b7f4572726f723a206f6e6c79206465706c6f7965722063616e2070617373206c6960008201527f6b65206d696e746572207369676e65722063616c6c657220726f6c6500000000602082015250565b7f524553504f4e442046524f4d0000000000000000000000000000000000000000600082015250565b7f5245504f53540000000000000000000000000000000000000000000000000000600082015250565b7f4355524154450000000000000000000000000000000000000000000000000000600082015250565b7f4572726f723a2077726f6e67205f6163636f756e742063616c6c696e67206d6960008201527f6e74000000000000000000000000000000000000000000000000000000000000602082015250565b7f4572726f723a206f6e6c79206465706c6f7965722063616e207061737320666f60008201527f6c6c6f77206d696e746572207369676e657220726f6c65000000000000000000602082015250565b7f45524332303a207472616e7366657220616d6f756e742065786365656473206160008201527f6c6c6f77616e6365000000000000000000000000000000000000000000000000602082015250565b7f4572726f723a2077726f6e67206163636f756e74000000000000000000000000600082015250565b7f45524332303a206275726e2066726f6d20746865207a65726f2061646472657360008201527f7300000000000000000000000000000000000000000000000000000000000000602082015250565b7f4572726f722c206f6e6c79206465706c6f7965722063616e2070617373206d6560008201527f6d65466163746f72792063616c6c657220726f6c650000000000000000000000602082015250565b7f4572726f723a2077726f6e67206163636f756e742063616c6c696e67206d696e60008201527f7400000000000000000000000000000000000000000000000000000000000000602082015250565b7f45524332303a207472616e736665722066726f6d20746865207a65726f20616460008201527f6472657373000000000000000000000000000000000000000000000000000000602082015250565b7f45524332303a20617070726f76652066726f6d20746865207a65726f2061646460008201527f7265737300000000000000000000000000000000000000000000000000000000602082015250565b7f464f4c4c4f570000000000000000000000000000000000000000000000000000600082015250565b7f4572726f723a206f6e6c79206465706c6f7965722063616e207061737320626f60008201527f6f7374207369676e657220726f6c650000000000000000000000000000000000602082015250565b7f45524332303a2064656372656173656420616c6c6f77616e63652062656c6f7760008201527f207a65726f000000000000000000000000000000000000000000000000000000602082015250565b7f45524332303a206d696e7420746f20746865207a65726f206164647265737300600082015250565b7f4572726f723a206275726e6572206d75737420626520626f6f73742d7369676e60008201527f6572000000000000000000000000000000000000000000000000000000000000602082015250565b613985816130a8565b811461399057600080fd5b50565b61399c816130e6565b81146139a757600080fd5b5056fea2646970667358221220551d6cb57aa78c1625b2eb2362d84e3ee31b1f01b610b39505a5ea46391ece6964736f6c63430008070033",
  "immutableReferences": {},
  "source": "// SPDX-License-Identifier: MIT\n\npragma solidity >=0.8.0 <0.9.0;\n\nimport \"@openzeppelin/contracts/token/ERC20/ERC20.sol\";\n\ncontract UME is ERC20 {\n\n  // minter's address\n  address public minter;\n  address public memeFactorySigner;\n  address public postSigner;\n  address public likeSigner;\n  address public followSigner;\n  address public boostSigner;\n\n  // minter role has changed to We\n  event MinterChanged(address indexed from, address indexed to);\n  event PostSignerChanged(address indexed from, address indexed to);\n  event MemeFactorySignerChanged(address indexed from, address indexed to);\n  event LikeSignerChanged(address indexed from, address indexed to);\n  event FollowSignerChanged(address indexed from, address indexed to);\n  // minting events\n  event Minted(address indexed account, uint time, string flag);\n\n  constructor() public payable ERC20(\"uMe token\", \"UME\") {\n    // assign minter & caller roles\n    minter = msg.sender;\n    postSigner = msg.sender;\n    memeFactorySigner = msg.sender;\n    likeSigner = msg.sender;\n    followSigner = msg.sender;\n    boostSigner = msg.sender;\n  }\n\n  function mintPost(\n    address _account,\n    string memory _postText\n  ) public {\n    // make sure minter is same as sender\n    require(\n      postSigner==msg.sender,\n      'Error: wrong _account calling mint');\n    //require(minter!=_account, 'Error: \"we\" cannot call mint');\n    //require(bytes(_postHash).length > 0, 'Error: no post exists'); // check if post hash exists\n//    require(\n//      bytes(_postText).length > 0,\n//      'Error: no text in post'); // check if there's text in post\n    // mint UME token for Posted\n    _mint(address(_account), 8);\n    // set event for minted Posted UME tokens\n    emit Minted(_account, block.timestamp /*, _postHash  */ , 'POST');\n  }\n  function mintLike(\n    address _from,\n    address _to\n  ) public { // 2:5 Liker:Liked\n    require(\n      likeSigner==msg.sender,\n      'Error: wrong account calling mint');\n//    require(\n//      _from!=_to,\n//      'Error: same account');\n//    require(\n//      minter!=_from,\n//      'Error: \"we\" cannot call mint');\n    //require(bytes(_postHash).length > 0, 'Error: no post exists');\n    // mint a LIKE token for liker\n    _mint(address(_from), 2);\n    // set event for LIKE token FROM\n    emit Minted(_from, block.timestamp /*, _postHash  */ , 'LIKE');\n    // mint LIKE tokens for likee\n    _mint(address(_to), 5);\n    // set event for LIKE token TO\n    emit Minted(_to, block.timestamp /*, _postHash  */ , 'LIKE');\n  }\n  function mintTag(\n    address _from,\n    address _to\n  ) public { // 1:3 Tagger:Tagged\n    require(\n      memeFactorySigner==msg.sender,\n      'Error: wrong account');\n//    require(\n//      minter!=_from,\n//      'Error: \"we\" cannot call mint');\n//    require(\n//      _from!=_to,\n//      'Error: same account');\n    // mint a TAG token for tagger\n    _mint(_from, 1);\n    // set event for TAG token FROM\n    emit Minted(_from, block.timestamp /*, _postHash  */ , 'TAG');\n    // mint TAG tokens for taggee\n    _mint(_to, 3);\n    // set event for TAG token TO\n    emit Minted(_to, block.timestamp /*, _postHash  */ , 'TAG');\n  }\n  function mintFollow(\n    address _from,\n    address _to\n  ) public { // 1:3 Follower:Followed\n    require(\n      followSigner==msg.sender,\n      'Error: wrong account');\n//    require(\n//      minter!=_from,\n//      'Error: \"we\" cannot call mint');\n//    require(\n//      _from!=_to,\n//      'Error: same account'); // doesn't mint tokens if tagged oneself\n    // mint a FOLLOW token for follower\n    _mint(_from, 1);\n    // set event for FOLLOW token FROM\n    emit Minted(_from, block.timestamp, 'FOLLOW');\n    // mint FOLLOW tokens for followed\n    _mint(_to, 6);\n    // set event for FOLLOW token TO\n    emit Minted(_to, block.timestamp,'FOLLOW');\n  }\n  function mintRespond(\n    address _from,\n    address _to\n  ) public { // 2:4 Responder:Responded\n    require(\n      memeFactorySigner==msg.sender,\n      'Error: wrong account');\n//    require(\n//      minter!=_from,\n//      'Error: \"we\" cannot call mint');\n//    require(\n//      _from!=_to,\n//      'Error: same account');\n    // mint a RESPOND token for responder\n    _mint(_from, 2);\n    // set event for RESPOND token FROM\n    emit Minted(_from, block.timestamp, 'RESPOND FROM');\n    // mint RESPOND tokens for responded\n    _mint(_to, 4);\n    // set event for RESPOND token TO\n    emit Minted(_to, block.timestamp, 'RESPOND TO');\n  }\n  function mintCurate(\n    address _from,\n    address _to\n  ) public { // 2:4 Responder:Responded\n    require(\n      memeFactorySigner==msg.sender,\n      'Error: wrong account');\n//    require(\n//      minter!=_from,\n//      'Error: \"we\" cannot mint');\n//    require(\n//      _from!=_to,\n//      'Error: same account'); // doesn't mint tokens if tagged oneself\n    //require(bytes(_postHash).length > 0, 'Error: no post exists');\n    // mint a CURATE token for curatee\n    _mint(_from, 2);\n    // set event for CURATE token FROM\n    emit Minted(_from, block.timestamp, 'CURATE');\n    // mint CURATE tokens for curator\n    _mint(_to, 4);\n    // set event for CURATE token TO\n    emit Minted(_to, block.timestamp, 'CURATE');\n  }\n  function mintRepost(\n    address _from,\n    address _to\n  ) public {\n    require(\n      postSigner==msg.sender,\n      'Error: wrong account');\n//    require(\n//      minter!=_from,\n//      'Error: \"we\" cannot mint');\n//    require(_from!=_to, 'Error: same account');\n    //mint REPOST token for reposter\n    _mint(_from, 5);\n    // set event for REPOST from\n    emit Minted(_from, block.timestamp, 'REPOST');\n    // mint REPOST token for original poster\n    _mint(_to, 6);\n    // set event for REPOST to\n    emit Minted(_from, block.timestamp, 'REPOST');\n  }\n  /*\n  function mintJury(\n    address account,\n    bool consensusReached\n  ) public { // 4 Juror token if no consensus reached, 24 if consensus reached\n    require(\n      followSigner==msg.sender,\n      'Error: wrong account, needs to be signer');\n    require(\n    minter!=account,\n    'Error: \"we\" cannot mint');\n    //require(\n    bytes(_postHash).length > 0,\n    'Error: no post exists');\n    if(consensusReached==true){\n      // mint 10 JURY token for juror\n      _mint(account, 24);\n      // set event for JURY token consensus reached\n      emit Minted(account, block.timestamp, 'JURY');\n    } else if(consensusReached==false){\n      // mint a JURY token for juror\n      _mint(account, 4);\n      // set event for JURY no consensus reached\n      emit Minted(account, block.timestamp, 'JURY');\n    }\n  }\n*/\n  function burn(address _account, uint _amount) public {\n    require(\n      msg.sender==boostSigner,\n      'Error: burner must be boost-signer');\n//    require(\n//      minter!=_account,\n//      'Error: \"we\" cannot call burn');\n    _burn(_account, _amount);\n  }\n  function passMinterRole(address _we) public returns (bool) {\n    require(\n      msg.sender==minter,\n      'Error: only deployer can change pass minter role');\n    minter = _we;\n\n    emit MinterChanged(msg.sender, minter);\n    return true;\n  }\n  function passPostSignerRole(address _post) public returns (bool) {\n    require(\n      msg.sender==postSigner,\n      'Error, only deployer can pass post\\'s caller role');\n    postSigner = _post;\n    emit PostSignerChanged(msg.sender, postSigner);\n    return true;\n  }\n  function passMemeFactorySignerRole(address _memeFactory) public returns (bool) {\n    require(\n      msg.sender==memeFactorySigner,\n      'Error, only deployer can pass memeFactory caller role');\n    memeFactorySigner= _memeFactory;\n    emit PostSignerChanged(msg.sender, memeFactorySigner);\n    return true;\n  }\n  function passLikeSignerRole(address _like) public returns (bool) {\n    require(\n      msg.sender==likeSigner,\n      'Error: only deployer can pass like minter signer caller role');\n    likeSigner = _like;\n    emit PostSignerChanged(msg.sender, likeSigner);\n    return true;\n  }\n  function passFollowSignerRole(address _follow) public returns (bool) {\n    require(\n      msg.sender==followSigner,\n      'Error: only deployer can pass follow minter signer role');\n    followSigner = _follow;\n    emit FollowSignerChanged(msg.sender, followSigner);\n    return true;\n  }\n  function passBoostSignerRole(address _boost) public returns (bool) {\n    require(\n      msg.sender==boostSigner,\n      'Error: only deployer can pass boost signer role');\n    boostSigner = _boost;\n    emit FollowSignerChanged(msg.sender, boostSigner);\n    return true;\n  }\n}\n",
  "sourcePath": "/Users/jaiq/Documents/000 BLOCKCHAIN/ETH/uMe/src/contracts/UME.sol",
  "compiler": {
    "name": "solc",
    "version": "0.8.7+commit.e28d00a7.Emscripten.clang"
  },
  "schemaVersion": "3.4.3",
  "updatedAt": "2021-10-06T00:40:47.077Z",
  "networkType": "ethereum",
  "devdoc": {
    "kind": "dev",
    "methods": {
      "allowance(address,address)": {
        "details": "See {IERC20-allowance}."
      },
      "approve(address,uint256)": {
        "details": "See {IERC20-approve}. Requirements: - `spender` cannot be the zero address."
      },
      "balanceOf(address)": {
        "details": "See {IERC20-balanceOf}."
      },
      "decimals()": {
        "details": "Returns the number of decimals used to get its user representation. For example, if `decimals` equals `2`, a balance of `505` tokens should be displayed to a user as `5.05` (`505 / 10 ** 2`). Tokens usually opt for a value of 18, imitating the relationship between Ether and Wei. This is the value {ERC20} uses, unless this function is overridden; NOTE: This information is only used for _display_ purposes: it in no way affects any of the arithmetic of the contract, including {IERC20-balanceOf} and {IERC20-transfer}."
      },
      "decreaseAllowance(address,uint256)": {
        "details": "Atomically decreases the allowance granted to `spender` by the caller. This is an alternative to {approve} that can be used as a mitigation for problems described in {IERC20-approve}. Emits an {Approval} event indicating the updated allowance. Requirements: - `spender` cannot be the zero address. - `spender` must have allowance for the caller of at least `subtractedValue`."
      },
      "increaseAllowance(address,uint256)": {
        "details": "Atomically increases the allowance granted to `spender` by the caller. This is an alternative to {approve} that can be used as a mitigation for problems described in {IERC20-approve}. Emits an {Approval} event indicating the updated allowance. Requirements: - `spender` cannot be the zero address."
      },
      "name()": {
        "details": "Returns the name of the token."
      },
      "symbol()": {
        "details": "Returns the symbol of the token, usually a shorter version of the name."
      },
      "totalSupply()": {
        "details": "See {IERC20-totalSupply}."
      },
      "transfer(address,uint256)": {
        "details": "See {IERC20-transfer}. Requirements: - `recipient` cannot be the zero address. - the caller must have a balance of at least `amount`."
      },
      "transferFrom(address,address,uint256)": {
        "details": "See {IERC20-transferFrom}. Emits an {Approval} event indicating the updated allowance. This is not required by the EIP. See the note at the beginning of {ERC20}. Requirements: - `sender` and `recipient` cannot be the zero address. - `sender` must have a balance of at least `amount`. - the caller must have allowance for ``sender``'s tokens of at least `amount`."
      }
    },
    "version": 1
  },
  "userdoc": {
    "kind": "user",
    "methods": {},
    "version": 1
  }
}