{
  "contractName": "UME",
  "abi": [
    {
      "inputs": [],
      "stateMutability": "payable",
      "type": "constructor",
      "payable": true
    },
    {
      "anonymous": false,
      "inputs": [
        {
          "indexed": true,
          "internalType": "address",
          "name": "owner",
          "type": "address"
        },
        {
          "indexed": true,
          "internalType": "address",
          "name": "spender",
          "type": "address"
        },
        {
          "indexed": false,
          "internalType": "uint256",
          "name": "value",
          "type": "uint256"
        }
      ],
      "name": "Approval",
      "type": "event"
    },
    {
      "anonymous": false,
      "inputs": [
        {
          "indexed": true,
          "internalType": "address",
          "name": "from",
          "type": "address"
        },
        {
          "indexed": true,
          "internalType": "address",
          "name": "to",
          "type": "address"
        }
      ],
      "name": "BoostSignerChanged",
      "type": "event"
    },
    {
      "anonymous": false,
      "inputs": [
        {
          "indexed": true,
          "internalType": "address",
          "name": "from",
          "type": "address"
        },
        {
          "indexed": true,
          "internalType": "address",
          "name": "to",
          "type": "address"
        }
      ],
      "name": "FollowSignerChanged",
      "type": "event"
    },
    {
      "anonymous": false,
      "inputs": [
        {
          "indexed": true,
          "internalType": "address",
          "name": "from",
          "type": "address"
        },
        {
          "indexed": true,
          "internalType": "address",
          "name": "to",
          "type": "address"
        }
      ],
      "name": "LikeSignerChanged",
      "type": "event"
    },
    {
      "anonymous": false,
      "inputs": [
        {
          "indexed": true,
          "internalType": "address",
          "name": "from",
          "type": "address"
        },
        {
          "indexed": true,
          "internalType": "address",
          "name": "to",
          "type": "address"
        }
      ],
      "name": "MemeFactorySignerChanged",
      "type": "event"
    },
    {
      "anonymous": false,
      "inputs": [
        {
          "indexed": true,
          "internalType": "address",
          "name": "account",
          "type": "address"
        },
        {
          "indexed": false,
          "internalType": "uint256",
          "name": "time",
          "type": "uint256"
        },
        {
          "indexed": false,
          "internalType": "uint256",
          "name": "amount",
          "type": "uint256"
        },
        {
          "indexed": false,
          "internalType": "string",
          "name": "flag",
          "type": "string"
        }
      ],
      "name": "Minted",
      "type": "event"
    },
    {
      "anonymous": false,
      "inputs": [
        {
          "indexed": true,
          "internalType": "address",
          "name": "from",
          "type": "address"
        },
        {
          "indexed": true,
          "internalType": "address",
          "name": "to",
          "type": "address"
        }
      ],
      "name": "PostSignerChanged",
      "type": "event"
    },
    {
      "anonymous": false,
      "inputs": [
        {
          "indexed": true,
          "internalType": "address",
          "name": "from",
          "type": "address"
        },
        {
          "indexed": true,
          "internalType": "address",
          "name": "to",
          "type": "address"
        },
        {
          "indexed": false,
          "internalType": "uint256",
          "name": "value",
          "type": "uint256"
        }
      ],
      "name": "Transfer",
      "type": "event"
    },
    {
      "anonymous": false,
      "inputs": [
        {
          "indexed": true,
          "internalType": "address",
          "name": "from",
          "type": "address"
        },
        {
          "indexed": true,
          "internalType": "address",
          "name": "to",
          "type": "address"
        }
      ],
      "name": "ValueSignerChanged",
      "type": "event"
    },
    {
      "inputs": [
        {
          "internalType": "address",
          "name": "owner",
          "type": "address"
        },
        {
          "internalType": "address",
          "name": "spender",
          "type": "address"
        }
      ],
      "name": "allowance",
      "outputs": [
        {
          "internalType": "uint256",
          "name": "",
          "type": "uint256"
        }
      ],
      "stateMutability": "view",
      "type": "function",
      "constant": true
    },
    {
      "inputs": [
        {
          "internalType": "address",
          "name": "spender",
          "type": "address"
        },
        {
          "internalType": "uint256",
          "name": "amount",
          "type": "uint256"
        }
      ],
      "name": "approve",
      "outputs": [
        {
          "internalType": "bool",
          "name": "",
          "type": "bool"
        }
      ],
      "stateMutability": "nonpayable",
      "type": "function"
    },
    {
      "inputs": [
        {
          "internalType": "address",
          "name": "account",
          "type": "address"
        }
      ],
      "name": "balanceOf",
      "outputs": [
        {
          "internalType": "uint256",
          "name": "",
          "type": "uint256"
        }
      ],
      "stateMutability": "view",
      "type": "function",
      "constant": true
    },
    {
      "inputs": [],
      "name": "boostSigner",
      "outputs": [
        {
          "internalType": "address",
          "name": "",
          "type": "address"
        }
      ],
      "stateMutability": "view",
      "type": "function",
      "constant": true
    },
    {
      "inputs": [],
      "name": "curateFromValue",
      "outputs": [
        {
          "internalType": "uint256",
          "name": "",
          "type": "uint256"
        }
      ],
      "stateMutability": "view",
      "type": "function",
      "constant": true
    },
    {
      "inputs": [],
      "name": "curateToValue",
      "outputs": [
        {
          "internalType": "uint256",
          "name": "",
          "type": "uint256"
        }
      ],
      "stateMutability": "view",
      "type": "function",
      "constant": true
    },
    {
      "inputs": [],
      "name": "decimals",
      "outputs": [
        {
          "internalType": "uint8",
          "name": "",
          "type": "uint8"
        }
      ],
      "stateMutability": "view",
      "type": "function",
      "constant": true
    },
    {
      "inputs": [
        {
          "internalType": "address",
          "name": "spender",
          "type": "address"
        },
        {
          "internalType": "uint256",
          "name": "subtractedValue",
          "type": "uint256"
        }
      ],
      "name": "decreaseAllowance",
      "outputs": [
        {
          "internalType": "bool",
          "name": "",
          "type": "bool"
        }
      ],
      "stateMutability": "nonpayable",
      "type": "function"
    },
    {
      "inputs": [],
      "name": "followFromValue",
      "outputs": [
        {
          "internalType": "uint256",
          "name": "",
          "type": "uint256"
        }
      ],
      "stateMutability": "view",
      "type": "function",
      "constant": true
    },
    {
      "inputs": [],
      "name": "followSigner",
      "outputs": [
        {
          "internalType": "address",
          "name": "",
          "type": "address"
        }
      ],
      "stateMutability": "view",
      "type": "function",
      "constant": true
    },
    {
      "inputs": [],
      "name": "followToValue",
      "outputs": [
        {
          "internalType": "uint256",
          "name": "",
          "type": "uint256"
        }
      ],
      "stateMutability": "view",
      "type": "function",
      "constant": true
    },
    {
      "inputs": [
        {
          "internalType": "address",
          "name": "spender",
          "type": "address"
        },
        {
          "internalType": "uint256",
          "name": "addedValue",
          "type": "uint256"
        }
      ],
      "name": "increaseAllowance",
      "outputs": [
        {
          "internalType": "bool",
          "name": "",
          "type": "bool"
        }
      ],
      "stateMutability": "nonpayable",
      "type": "function"
    },
    {
      "inputs": [],
      "name": "likeFromValue",
      "outputs": [
        {
          "internalType": "uint256",
          "name": "",
          "type": "uint256"
        }
      ],
      "stateMutability": "view",
      "type": "function",
      "constant": true
    },
    {
      "inputs": [],
      "name": "likeSigner",
      "outputs": [
        {
          "internalType": "address",
          "name": "",
          "type": "address"
        }
      ],
      "stateMutability": "view",
      "type": "function",
      "constant": true
    },
    {
      "inputs": [],
      "name": "likeToValue",
      "outputs": [
        {
          "internalType": "uint256",
          "name": "",
          "type": "uint256"
        }
      ],
      "stateMutability": "view",
      "type": "function",
      "constant": true
    },
    {
      "inputs": [],
      "name": "memeFactorySigner",
      "outputs": [
        {
          "internalType": "address",
          "name": "",
          "type": "address"
        }
      ],
      "stateMutability": "view",
      "type": "function",
      "constant": true
    },
    {
      "inputs": [],
      "name": "name",
      "outputs": [
        {
          "internalType": "string",
          "name": "",
          "type": "string"
        }
      ],
      "stateMutability": "view",
      "type": "function",
      "constant": true
    },
    {
      "inputs": [],
      "name": "postSigner",
      "outputs": [
        {
          "internalType": "address",
          "name": "",
          "type": "address"
        }
      ],
      "stateMutability": "view",
      "type": "function",
      "constant": true
    },
    {
      "inputs": [],
      "name": "postValue",
      "outputs": [
        {
          "internalType": "uint256",
          "name": "",
          "type": "uint256"
        }
      ],
      "stateMutability": "view",
      "type": "function",
      "constant": true
    },
    {
      "inputs": [],
      "name": "repostFromValue",
      "outputs": [
        {
          "internalType": "uint256",
          "name": "",
          "type": "uint256"
        }
      ],
      "stateMutability": "view",
      "type": "function",
      "constant": true
    },
    {
      "inputs": [],
      "name": "repostToValue",
      "outputs": [
        {
          "internalType": "uint256",
          "name": "",
          "type": "uint256"
        }
      ],
      "stateMutability": "view",
      "type": "function",
      "constant": true
    },
    {
      "inputs": [],
      "name": "respondFromValue",
      "outputs": [
        {
          "internalType": "uint256",
          "name": "",
          "type": "uint256"
        }
      ],
      "stateMutability": "view",
      "type": "function",
      "constant": true
    },
    {
      "inputs": [],
      "name": "respondToValue",
      "outputs": [
        {
          "internalType": "uint256",
          "name": "",
          "type": "uint256"
        }
      ],
      "stateMutability": "view",
      "type": "function",
      "constant": true
    },
    {
      "inputs": [],
      "name": "symbol",
      "outputs": [
        {
          "internalType": "string",
          "name": "",
          "type": "string"
        }
      ],
      "stateMutability": "view",
      "type": "function",
      "constant": true
    },
    {
      "inputs": [],
      "name": "tagFromValue",
      "outputs": [
        {
          "internalType": "uint256",
          "name": "",
          "type": "uint256"
        }
      ],
      "stateMutability": "view",
      "type": "function",
      "constant": true
    },
    {
      "inputs": [],
      "name": "tagToValue",
      "outputs": [
        {
          "internalType": "uint256",
          "name": "",
          "type": "uint256"
        }
      ],
      "stateMutability": "view",
      "type": "function",
      "constant": true
    },
    {
      "inputs": [],
      "name": "totalSupply",
      "outputs": [
        {
          "internalType": "uint256",
          "name": "",
          "type": "uint256"
        }
      ],
      "stateMutability": "view",
      "type": "function",
      "constant": true
    },
    {
      "inputs": [
        {
          "internalType": "address",
          "name": "recipient",
          "type": "address"
        },
        {
          "internalType": "uint256",
          "name": "amount",
          "type": "uint256"
        }
      ],
      "name": "transfer",
      "outputs": [
        {
          "internalType": "bool",
          "name": "",
          "type": "bool"
        }
      ],
      "stateMutability": "nonpayable",
      "type": "function"
    },
    {
      "inputs": [
        {
          "internalType": "address",
          "name": "sender",
          "type": "address"
        },
        {
          "internalType": "address",
          "name": "recipient",
          "type": "address"
        },
        {
          "internalType": "uint256",
          "name": "amount",
          "type": "uint256"
        }
      ],
      "name": "transferFrom",
      "outputs": [
        {
          "internalType": "bool",
          "name": "",
          "type": "bool"
        }
      ],
      "stateMutability": "nonpayable",
      "type": "function"
    },
    {
      "inputs": [],
      "name": "valueSigner",
      "outputs": [
        {
          "internalType": "address",
          "name": "",
          "type": "address"
        }
      ],
      "stateMutability": "view",
      "type": "function",
      "constant": true
    },
    {
      "inputs": [
        {
          "internalType": "address",
          "name": "_account",
          "type": "address"
        },
        {
          "internalType": "string",
          "name": "_postText",
          "type": "string"
        }
      ],
      "name": "mintPost",
      "outputs": [],
      "stateMutability": "nonpayable",
      "type": "function"
    },
    {
      "inputs": [
        {
          "internalType": "address",
          "name": "_from",
          "type": "address"
        },
        {
          "internalType": "address",
          "name": "_to",
          "type": "address"
        }
      ],
      "name": "mintLike",
      "outputs": [],
      "stateMutability": "nonpayable",
      "type": "function"
    },
    {
      "inputs": [
        {
          "internalType": "address",
          "name": "_from",
          "type": "address"
        },
        {
          "internalType": "address",
          "name": "_to",
          "type": "address"
        }
      ],
      "name": "mintTag",
      "outputs": [],
      "stateMutability": "nonpayable",
      "type": "function"
    },
    {
      "inputs": [
        {
          "internalType": "address",
          "name": "_from",
          "type": "address"
        },
        {
          "internalType": "address",
          "name": "_to",
          "type": "address"
        }
      ],
      "name": "mintFollow",
      "outputs": [],
      "stateMutability": "nonpayable",
      "type": "function"
    },
    {
      "inputs": [
        {
          "internalType": "address",
          "name": "_from",
          "type": "address"
        },
        {
          "internalType": "address",
          "name": "_to",
          "type": "address"
        }
      ],
      "name": "mintRespond",
      "outputs": [],
      "stateMutability": "nonpayable",
      "type": "function"
    },
    {
      "inputs": [
        {
          "internalType": "address",
          "name": "_from",
          "type": "address"
        },
        {
          "internalType": "address",
          "name": "_to",
          "type": "address"
        }
      ],
      "name": "mintCurate",
      "outputs": [],
      "stateMutability": "nonpayable",
      "type": "function"
    },
    {
      "inputs": [
        {
          "internalType": "address",
          "name": "_from",
          "type": "address"
        },
        {
          "internalType": "address",
          "name": "_to",
          "type": "address"
        }
      ],
      "name": "mintRepost",
      "outputs": [],
      "stateMutability": "nonpayable",
      "type": "function"
    },
    {
      "inputs": [
        {
          "internalType": "address",
          "name": "_account",
          "type": "address"
        },
        {
          "internalType": "uint256",
          "name": "_amount",
          "type": "uint256"
        }
      ],
      "name": "burn",
      "outputs": [],
      "stateMutability": "nonpayable",
      "type": "function"
    },
    {
      "inputs": [
        {
          "internalType": "uint256",
          "name": "_value",
          "type": "uint256"
        }
      ],
      "name": "setPostValue",
      "outputs": [],
      "stateMutability": "nonpayable",
      "type": "function"
    },
    {
      "inputs": [
        {
          "internalType": "uint256",
          "name": "_value",
          "type": "uint256"
        }
      ],
      "name": "setLikeFromValue",
      "outputs": [],
      "stateMutability": "nonpayable",
      "type": "function"
    },
    {
      "inputs": [
        {
          "internalType": "uint256",
          "name": "_value",
          "type": "uint256"
        }
      ],
      "name": "setLikeToValue",
      "outputs": [],
      "stateMutability": "nonpayable",
      "type": "function"
    },
    {
      "inputs": [
        {
          "internalType": "uint256",
          "name": "_value",
          "type": "uint256"
        }
      ],
      "name": "setTagFromValue",
      "outputs": [],
      "stateMutability": "nonpayable",
      "type": "function"
    },
    {
      "inputs": [
        {
          "internalType": "uint256",
          "name": "_value",
          "type": "uint256"
        }
      ],
      "name": "setTagToValue",
      "outputs": [],
      "stateMutability": "nonpayable",
      "type": "function"
    },
    {
      "inputs": [
        {
          "internalType": "uint256",
          "name": "_value",
          "type": "uint256"
        }
      ],
      "name": "setFollowFromValue",
      "outputs": [],
      "stateMutability": "nonpayable",
      "type": "function"
    },
    {
      "inputs": [
        {
          "internalType": "uint256",
          "name": "_value",
          "type": "uint256"
        }
      ],
      "name": "setFollowToValue",
      "outputs": [],
      "stateMutability": "nonpayable",
      "type": "function"
    },
    {
      "inputs": [
        {
          "internalType": "uint256",
          "name": "_value",
          "type": "uint256"
        }
      ],
      "name": "setRespondFromValue",
      "outputs": [],
      "stateMutability": "nonpayable",
      "type": "function"
    },
    {
      "inputs": [
        {
          "internalType": "uint256",
          "name": "_value",
          "type": "uint256"
        }
      ],
      "name": "setRespondToValue",
      "outputs": [],
      "stateMutability": "nonpayable",
      "type": "function"
    },
    {
      "inputs": [
        {
          "internalType": "uint256",
          "name": "_value",
          "type": "uint256"
        }
      ],
      "name": "setCurateFromValue",
      "outputs": [],
      "stateMutability": "nonpayable",
      "type": "function"
    },
    {
      "inputs": [
        {
          "internalType": "uint256",
          "name": "_value",
          "type": "uint256"
        }
      ],
      "name": "setCurateToValue",
      "outputs": [],
      "stateMutability": "nonpayable",
      "type": "function"
    },
    {
      "inputs": [
        {
          "internalType": "uint256",
          "name": "_value",
          "type": "uint256"
        }
      ],
      "name": "setRepostFromValue",
      "outputs": [],
      "stateMutability": "nonpayable",
      "type": "function"
    },
    {
      "inputs": [
        {
          "internalType": "uint256",
          "name": "_value",
          "type": "uint256"
        }
      ],
      "name": "setRepostToValue",
      "outputs": [],
      "stateMutability": "nonpayable",
      "type": "function"
    },
    {
      "inputs": [
        {
          "internalType": "address",
          "name": "_post",
          "type": "address"
        }
      ],
      "name": "passPostSignerRole",
      "outputs": [
        {
          "internalType": "bool",
          "name": "",
          "type": "bool"
        }
      ],
      "stateMutability": "nonpayable",
      "type": "function"
    },
    {
      "inputs": [
        {
          "internalType": "address",
          "name": "_memeFactory",
          "type": "address"
        }
      ],
      "name": "passMemeFactorySignerRole",
      "outputs": [
        {
          "internalType": "bool",
          "name": "",
          "type": "bool"
        }
      ],
      "stateMutability": "nonpayable",
      "type": "function"
    },
    {
      "inputs": [
        {
          "internalType": "address",
          "name": "_like",
          "type": "address"
        }
      ],
      "name": "passLikeSignerRole",
      "outputs": [
        {
          "internalType": "bool",
          "name": "",
          "type": "bool"
        }
      ],
      "stateMutability": "nonpayable",
      "type": "function"
    },
    {
      "inputs": [
        {
          "internalType": "address",
          "name": "_follow",
          "type": "address"
        }
      ],
      "name": "passFollowSignerRole",
      "outputs": [
        {
          "internalType": "bool",
          "name": "",
          "type": "bool"
        }
      ],
      "stateMutability": "nonpayable",
      "type": "function"
    },
    {
      "inputs": [
        {
          "internalType": "address",
          "name": "_boost",
          "type": "address"
        }
      ],
      "name": "passBoostSignerRole",
      "outputs": [
        {
          "internalType": "bool",
          "name": "",
          "type": "bool"
        }
      ],
      "stateMutability": "nonpayable",
      "type": "function"
    },
    {
      "inputs": [
        {
          "internalType": "address",
          "name": "_value",
          "type": "address"
        }
      ],
      "name": "passValueSignerRole",
      "outputs": [
        {
          "internalType": "bool",
          "name": "",
          "type": "bool"
        }
      ],
      "stateMutability": "nonpayable",
      "type": "function"
    }
  ],
  "bytecode": "0x6080604052676f05b59d3b200000600555671bc16d674ec80000600655674563918244f40000600755670de0b6b3a76400006008556729a2241af62c0000600955670de0b6b3a7640000600a556753444835ec580000600b55671bc16d674ec80000600c55673782dace9d900000600d55671bc16d674ec80000600e55673782dace9d900000600f55674563918244f400006010556753444835ec5800006011556040518060400160405280600981526020017f754d6520746f6b656e00000000000000000000000000000000000000000000008152506040518060400160405280600381526020017f554d450000000000000000000000000000000000000000000000000000000000815250816003908051906020019062000124929190620002cc565b5080600490805190602001906200013d929190620002cc565b50505033601360006101000a81548173ffffffffffffffffffffffffffffffffffffffff021916908373ffffffffffffffffffffffffffffffffffffffff16021790555033601260006101000a81548173ffffffffffffffffffffffffffffffffffffffff021916908373ffffffffffffffffffffffffffffffffffffffff16021790555033601460006101000a81548173ffffffffffffffffffffffffffffffffffffffff021916908373ffffffffffffffffffffffffffffffffffffffff16021790555033601560006101000a81548173ffffffffffffffffffffffffffffffffffffffff021916908373ffffffffffffffffffffffffffffffffffffffff16021790555033601660006101000a81548173ffffffffffffffffffffffffffffffffffffffff021916908373ffffffffffffffffffffffffffffffffffffffff16021790555033601760006101000a81548173ffffffffffffffffffffffffffffffffffffffff021916908373ffffffffffffffffffffffffffffffffffffffff160217905550620003e1565b828054620002da90620003ab565b90600052602060002090601f016020900481019282620002fe57600085556200034a565b82601f106200031957805160ff19168380011785556200034a565b828001600101855582156200034a579182015b82811115620003495782518255916020019190600101906200032c565b5b5090506200035991906200035d565b5090565b5b80821115620003785760008160009055506001016200035e565b5090565b7f4e487b7100000000000000000000000000000000000000000000000000000000600052602260045260246000fd5b60006002820490506001821680620003c457607f821691505b60208210811415620003db57620003da6200037c565b5b50919050565b6149ac80620003f16000396000f3fe608060405234801561001057600080fd5b50600436106103835760003560e01c80638c98876f116101de578063bc8341951161010f578063d12269c6116100ad578063e100173e1161007c578063e100173e14610a84578063e981dc8f14610aa0578063f03952e014610abc578063f52548d414610ada57610383565b8063d12269c614610a00578063d583233314610a1c578063dbd9bc2e14610a38578063dd62ed3e14610a5457610383565b8063c72e41f6116100e9578063c72e41f614610978578063c7cb678d14610996578063c9875744146109b4578063d0449589146109e457610383565b8063bc8341951461090e578063c11f710b1461092a578063c66f1e341461095a57610383565b8063a457c2d71161017c578063ae32711511610156578063ae32711514610896578063b3bcef9f146108b4578063b85bba34146108d2578063b8e3bfb8146108f057610383565b8063a457c2d71461081a578063a9059cbb1461084a578063ad5282b51461087a57610383565b80639b3fc21a116101b85780639b3fc21a146107a85780639d3c0d16146107c45780639dc29fac146107e0578063a3e390c0146107fc57610383565b80638c98876f1461074e578063957cdee01461076c57806395d89b411461078a57610383565b8063351d3a7c116102b85780635d67597511610256578063829a262c11610230578063829a262c146106d657806385771add146106f457806386b2214614610712578063883170ea1461073057610383565b80635d6759751461066e57806370a082311461068a57806376bd8f8c146106ba57610383565b80633d165083116102925780633d165083146105d4578063533035621461060457806357a2bb29146106205780635bba8fef1461065057610383565b8063351d3a7c1461056c57806339509351146105885780633b626cba146105b857610383565b8063211f03951161032557806327dc278f116102ff57806327dc278f146104f85780632cc67a7c146105165780632d599ba514610532578063313ce5671461054e57610383565b8063211f03951461047a57806322087e881461049857806323b872dd146104c857610383565b806310bfd5f41161036157806310bfd5f4146103f457806314c5174f1461042457806318160ddd146104405780631d851eb91461045e57610383565b806306d29bfc1461038857806306fdde03146103a6578063095ea7b3146103c4575b600080fd5b610390610af6565b60405161039d9190613313565b60405180910390f35b6103ae610afc565b6040516103bb91906133c7565b60405180910390f35b6103de60048036038101906103d99190613487565b610b8e565b6040516103eb91906134e2565b60405180910390f35b61040e600480360381019061040991906134fd565b610bac565b60405161041b91906134e2565b60405180910390f35b61043e6004803603810190610439919061352a565b610d04565b005b610448610d9e565b6040516104559190613313565b60405180910390f35b6104786004803603810190610473919061352a565b610da8565b005b610482610e42565b60405161048f9190613313565b60405180910390f35b6104b260048036038101906104ad91906134fd565b610e48565b6040516104bf91906134e2565b60405180910390f35b6104e260048036038101906104dd9190613557565b610fa0565b6040516104ef91906134e2565b60405180910390f35b610500611098565b60405161050d9190613313565b60405180910390f35b610530600480360381019061052b91906135aa565b61109e565b005b61054c600480360381019061054791906135aa565b6111ee565b005b61055661133e565b6040516105639190613606565b60405180910390f35b6105866004803603810190610581919061352a565b611347565b005b6105a2600480360381019061059d9190613487565b6113e1565b6040516105af91906134e2565b60405180910390f35b6105d260048036038101906105cd919061352a565b61148d565b005b6105ee60048036038101906105e991906134fd565b611527565b6040516105fb91906134e2565b60405180910390f35b61061e6004803603810190610619919061352a565b61167f565b005b61063a600480360381019061063591906134fd565b611719565b60405161064791906134e2565b60405180910390f35b610658611871565b6040516106659190613630565b60405180910390f35b6106886004803603810190610683919061352a565b611897565b005b6106a4600480360381019061069f91906134fd565b611931565b6040516106b19190613313565b60405180910390f35b6106d460048036038101906106cf9190613780565b611979565b005b6106de611a6b565b6040516106eb9190613630565b60405180910390f35b6106fc611a91565b6040516107099190613313565b60405180910390f35b61071a611a97565b6040516107279190613630565b60405180910390f35b610738611abd565b6040516107459190613313565b60405180910390f35b610756611ac3565b6040516107639190613630565b60405180910390f35b610774611ae9565b6040516107819190613313565b60405180910390f35b610792611aef565b60405161079f91906133c7565b60405180910390f35b6107c260048036038101906107bd919061352a565b611b81565b005b6107de60048036038101906107d9919061352a565b611c1b565b005b6107fa60048036038101906107f59190613487565b611cb5565b005b610804611e03565b6040516108119190613313565b60405180910390f35b610834600480360381019061082f9190613487565b611e09565b60405161084191906134e2565b60405180910390f35b610864600480360381019061085f9190613487565b611ef4565b60405161087191906134e2565b60405180910390f35b610894600480360381019061088f919061352a565b611f12565b005b61089e611fac565b6040516108ab9190613313565b60405180910390f35b6108bc611fb2565b6040516108c99190613313565b60405180910390f35b6108da611fb8565b6040516108e79190613630565b60405180910390f35b6108f8611fde565b6040516109059190613630565b60405180910390f35b610928600480360381019061092391906135aa565b612004565b005b610944600480360381019061093f91906134fd565b612189565b60405161095191906134e2565b60405180910390f35b6109626122e1565b60405161096f9190613313565b60405180910390f35b6109806122e7565b60405161098d9190613313565b60405180910390f35b61099e6122ed565b6040516109ab9190613313565b60405180910390f35b6109ce60048036038101906109c991906134fd565b6122f3565b6040516109db91906134e2565b60405180910390f35b6109fe60048036038101906109f991906135aa565b61244b565b005b610a1a6004803603810190610a15919061352a565b61259b565b005b610a366004803603810190610a31919061352a565b612635565b005b610a526004803603810190610a4d919061352a565b6126cf565b005b610a6e6004803603810190610a6991906135aa565b612769565b604051610a7b9190613313565b60405180910390f35b610a9e6004803603810190610a99919061352a565b6127f0565b005b610aba6004803603810190610ab591906135aa565b61288a565b005b610ac4612a0f565b604051610ad19190613313565b60405180910390f35b610af46004803603810190610aef91906135aa565b612a15565b005b60055481565b606060038054610b0b9061380b565b80601f0160208091040260200160405190810160405280929190818152602001828054610b379061380b565b8015610b845780601f10610b5957610100808354040283529160200191610b84565b820191906000526020600020905b815481529060010190602001808311610b6757829003601f168201915b5050505050905090565b6000610ba2610b9b612b65565b8484612b6d565b6001905092915050565b6000601660009054906101000a900473ffffffffffffffffffffffffffffffffffffffff1673ffffffffffffffffffffffffffffffffffffffff163373ffffffffffffffffffffffffffffffffffffffff1614610c3e576040517f08c379a0000000000000000000000000000000000000000000000000000000008152600401610c35906138af565b60405180910390fd5b81601660006101000a81548173ffffffffffffffffffffffffffffffffffffffff021916908373ffffffffffffffffffffffffffffffffffffffff160217905550601660009054906101000a900473ffffffffffffffffffffffffffffffffffffffff1673ffffffffffffffffffffffffffffffffffffffff163373ffffffffffffffffffffffffffffffffffffffff167f6892a8923ec61e89beaa10370e660884074b3bec292be12802599cf655bba75260405160405180910390a360019050919050565b601760009054906101000a900473ffffffffffffffffffffffffffffffffffffffff1673ffffffffffffffffffffffffffffffffffffffff163373ffffffffffffffffffffffffffffffffffffffff1614610d94576040517f08c379a0000000000000000000000000000000000000000000000000000000008152600401610d8b90613941565b60405180910390fd5b80600c8190555050565b6000600254905090565b601760009054906101000a900473ffffffffffffffffffffffffffffffffffffffff1673ffffffffffffffffffffffffffffffffffffffff163373ffffffffffffffffffffffffffffffffffffffff1614610e38576040517f08c379a0000000000000000000000000000000000000000000000000000000008152600401610e2f90613941565b60405180910390fd5b80600a8190555050565b60095481565b6000601360009054906101000a900473ffffffffffffffffffffffffffffffffffffffff1673ffffffffffffffffffffffffffffffffffffffff163373ffffffffffffffffffffffffffffffffffffffff1614610eda576040517f08c379a0000000000000000000000000000000000000000000000000000000008152600401610ed1906139d3565b60405180910390fd5b81601360006101000a81548173ffffffffffffffffffffffffffffffffffffffff021916908373ffffffffffffffffffffffffffffffffffffffff160217905550601360009054906101000a900473ffffffffffffffffffffffffffffffffffffffff1673ffffffffffffffffffffffffffffffffffffffff163373ffffffffffffffffffffffffffffffffffffffff167f76ce921e20c471c95deae34d20d53706ec4378ecab394e517f73aef912ae6cdd60405160405180910390a360019050919050565b6000610fad848484612d38565b6000600160008673ffffffffffffffffffffffffffffffffffffffff1673ffffffffffffffffffffffffffffffffffffffff1681526020019081526020016000206000610ff8612b65565b73ffffffffffffffffffffffffffffffffffffffff1673ffffffffffffffffffffffffffffffffffffffff16815260200190815260200160002054905082811015611078576040517f08c379a000000000000000000000000000000000000000000000000000000000815260040161106f90613a65565b60405180910390fd5b61108c85611084612b65565b858403612b6d565b60019150509392505050565b600a5481565b3373ffffffffffffffffffffffffffffffffffffffff16601260009054906101000a900473ffffffffffffffffffffffffffffffffffffffff1673ffffffffffffffffffffffffffffffffffffffff161461112e576040517f08c379a000000000000000000000000000000000000000000000000000000000815260040161112590613af7565b60405180910390fd5b61113a82600854612fb9565b8173ffffffffffffffffffffffffffffffffffffffff167ff2cb5e52049d127ad1c335f1cc25f2fdbc911bec1beb2611f4c1e8b1c274d4b442600854604051611184929190613b63565b60405180910390a261119881600954612fb9565b8073ffffffffffffffffffffffffffffffffffffffff167ff2cb5e52049d127ad1c335f1cc25f2fdbc911bec1beb2611f4c1e8b1c274d4b4426009546040516111e2929190613b63565b60405180910390a25050565b3373ffffffffffffffffffffffffffffffffffffffff16601560009054906101000a900473ffffffffffffffffffffffffffffffffffffffff1673ffffffffffffffffffffffffffffffffffffffff161461127e576040517f08c379a000000000000000000000000000000000000000000000000000000000815260040161127590613beb565b60405180910390fd5b61128a82600a54612fb9565b8173ffffffffffffffffffffffffffffffffffffffff167ff2cb5e52049d127ad1c335f1cc25f2fdbc911bec1beb2611f4c1e8b1c274d4b442600a546040516112d4929190613c57565b60405180910390a26112e881600b54612fb9565b8073ffffffffffffffffffffffffffffffffffffffff167ff2cb5e52049d127ad1c335f1cc25f2fdbc911bec1beb2611f4c1e8b1c274d4b442600b54604051611332929190613c57565b60405180910390a25050565b60006012905090565b601760009054906101000a900473ffffffffffffffffffffffffffffffffffffffff1673ffffffffffffffffffffffffffffffffffffffff163373ffffffffffffffffffffffffffffffffffffffff16146113d7576040517f08c379a00000000000000000000000000000000000000000000000000000000081526004016113ce90613941565b60405180910390fd5b80600e8190555050565b60006114836113ee612b65565b8484600160006113fc612b65565b73ffffffffffffffffffffffffffffffffffffffff1673ffffffffffffffffffffffffffffffffffffffff16815260200190815260200160002060008873ffffffffffffffffffffffffffffffffffffffff1673ffffffffffffffffffffffffffffffffffffffff1681526020019081526020016000205461147e9190613cc2565b612b6d565b6001905092915050565b601760009054906101000a900473ffffffffffffffffffffffffffffffffffffffff1673ffffffffffffffffffffffffffffffffffffffff163373ffffffffffffffffffffffffffffffffffffffff161461151d576040517f08c379a000000000000000000000000000000000000000000000000000000000815260040161151490613941565b60405180910390fd5b8060098190555050565b6000601260009054906101000a900473ffffffffffffffffffffffffffffffffffffffff1673ffffffffffffffffffffffffffffffffffffffff163373ffffffffffffffffffffffffffffffffffffffff16146115b9576040517f08c379a00000000000000000000000000000000000000000000000000000000081526004016115b090613d8a565b60405180910390fd5b81601260006101000a81548173ffffffffffffffffffffffffffffffffffffffff021916908373ffffffffffffffffffffffffffffffffffffffff160217905550601260009054906101000a900473ffffffffffffffffffffffffffffffffffffffff1673ffffffffffffffffffffffffffffffffffffffff163373ffffffffffffffffffffffffffffffffffffffff167f76ce921e20c471c95deae34d20d53706ec4378ecab394e517f73aef912ae6cdd60405160405180910390a360019050919050565b601760009054906101000a900473ffffffffffffffffffffffffffffffffffffffff1673ffffffffffffffffffffffffffffffffffffffff163373ffffffffffffffffffffffffffffffffffffffff161461170f576040517f08c379a000000000000000000000000000000000000000000000000000000000815260040161170690613941565b60405180910390fd5b80600f8190555050565b6000601560009054906101000a900473ffffffffffffffffffffffffffffffffffffffff1673ffffffffffffffffffffffffffffffffffffffff163373ffffffffffffffffffffffffffffffffffffffff16146117ab576040517f08c379a00000000000000000000000000000000000000000000000000000000081526004016117a290613e1c565b60405180910390fd5b81601560006101000a81548173ffffffffffffffffffffffffffffffffffffffff021916908373ffffffffffffffffffffffffffffffffffffffff160217905550601560009054906101000a900473ffffffffffffffffffffffffffffffffffffffff1673ffffffffffffffffffffffffffffffffffffffff163373ffffffffffffffffffffffffffffffffffffffff167f317b209d0dca6ddb6667f7c47d488a9708cc0e7befa4cde41a104b125a1d9ef660405160405180910390a360019050919050565b601660009054906101000a900473ffffffffffffffffffffffffffffffffffffffff1681565b601760009054906101000a900473ffffffffffffffffffffffffffffffffffffffff1673ffffffffffffffffffffffffffffffffffffffff163373ffffffffffffffffffffffffffffffffffffffff1614611927576040517f08c379a000000000000000000000000000000000000000000000000000000000815260040161191e90613941565b60405180910390fd5b80600b8190555050565b60008060008373ffffffffffffffffffffffffffffffffffffffff1673ffffffffffffffffffffffffffffffffffffffff168152602001908152602001600020549050919050565b3373ffffffffffffffffffffffffffffffffffffffff16601360009054906101000a900473ffffffffffffffffffffffffffffffffffffffff1673ffffffffffffffffffffffffffffffffffffffff1614611a09576040517f08c379a0000000000000000000000000000000000000000000000000000000008152600401611a0090613eae565b60405180910390fd5b611a1582600554612fb9565b8173ffffffffffffffffffffffffffffffffffffffff167ff2cb5e52049d127ad1c335f1cc25f2fdbc911bec1beb2611f4c1e8b1c274d4b442600554604051611a5f929190613f1a565b60405180910390a25050565b601460009054906101000a900473ffffffffffffffffffffffffffffffffffffffff1681565b600b5481565b601260009054906101000a900473ffffffffffffffffffffffffffffffffffffffff1681565b60115481565b601360009054906101000a900473ffffffffffffffffffffffffffffffffffffffff1681565b600f5481565b606060048054611afe9061380b565b80601f0160208091040260200160405190810160405280929190818152602001828054611b2a9061380b565b8015611b775780601f10611b4c57610100808354040283529160200191611b77565b820191906000526020600020905b815481529060010190602001808311611b5a57829003601f168201915b5050505050905090565b601760009054906101000a900473ffffffffffffffffffffffffffffffffffffffff1673ffffffffffffffffffffffffffffffffffffffff163373ffffffffffffffffffffffffffffffffffffffff1614611c11576040517f08c379a0000000000000000000000000000000000000000000000000000000008152600401611c0890613941565b60405180910390fd5b8060068190555050565b601760009054906101000a900473ffffffffffffffffffffffffffffffffffffffff1673ffffffffffffffffffffffffffffffffffffffff163373ffffffffffffffffffffffffffffffffffffffff1614611cab576040517f08c379a0000000000000000000000000000000000000000000000000000000008152600401611ca290613941565b60405180910390fd5b8060118190555050565b601460009054906101000a900473ffffffffffffffffffffffffffffffffffffffff1673ffffffffffffffffffffffffffffffffffffffff163373ffffffffffffffffffffffffffffffffffffffff161480611d5e5750601560009054906101000a900473ffffffffffffffffffffffffffffffffffffffff1673ffffffffffffffffffffffffffffffffffffffff163373ffffffffffffffffffffffffffffffffffffffff16145b80611db65750601660009054906101000a900473ffffffffffffffffffffffffffffffffffffffff1673ffffffffffffffffffffffffffffffffffffffff163373ffffffffffffffffffffffffffffffffffffffff16145b611df5576040517f08c379a0000000000000000000000000000000000000000000000000000000008152600401611dec90613fc8565b60405180910390fd5b611dff8282613119565b5050565b60085481565b60008060016000611e18612b65565b73ffffffffffffffffffffffffffffffffffffffff1673ffffffffffffffffffffffffffffffffffffffff16815260200190815260200160002060008573ffffffffffffffffffffffffffffffffffffffff1673ffffffffffffffffffffffffffffffffffffffff16815260200190815260200160002054905082811015611ed5576040517f08c379a0000000000000000000000000000000000000000000000000000000008152600401611ecc9061405a565b60405180910390fd5b611ee9611ee0612b65565b85858403612b6d565b600191505092915050565b6000611f08611f01612b65565b8484612d38565b6001905092915050565b601760009054906101000a900473ffffffffffffffffffffffffffffffffffffffff1673ffffffffffffffffffffffffffffffffffffffff163373ffffffffffffffffffffffffffffffffffffffff1614611fa2576040517f08c379a0000000000000000000000000000000000000000000000000000000008152600401611f9990613941565b60405180910390fd5b8060078190555050565b60105481565b600d5481565b601760009054906101000a900473ffffffffffffffffffffffffffffffffffffffff1681565b601560009054906101000a900473ffffffffffffffffffffffffffffffffffffffff1681565b3373ffffffffffffffffffffffffffffffffffffffff16601260009054906101000a900473ffffffffffffffffffffffffffffffffffffffff1673ffffffffffffffffffffffffffffffffffffffff1614612094576040517f08c379a000000000000000000000000000000000000000000000000000000000815260040161208b90613beb565b60405180910390fd5b6120a082600c54612fb9565b8173ffffffffffffffffffffffffffffffffffffffff167ff2cb5e52049d127ad1c335f1cc25f2fdbc911bec1beb2611f4c1e8b1c274d4b442600c546040516120ea9291906140c6565b60405180910390a2600073ffffffffffffffffffffffffffffffffffffffff168173ffffffffffffffffffffffffffffffffffffffff16146121335761213281600d54612fb9565b5b8073ffffffffffffffffffffffffffffffffffffffff167ff2cb5e52049d127ad1c335f1cc25f2fdbc911bec1beb2611f4c1e8b1c274d4b442600d5460405161217d92919061414e565b60405180910390a25050565b6000601460009054906101000a900473ffffffffffffffffffffffffffffffffffffffff1673ffffffffffffffffffffffffffffffffffffffff163373ffffffffffffffffffffffffffffffffffffffff161461221b576040517f08c379a0000000000000000000000000000000000000000000000000000000008152600401612212906141fc565b60405180910390fd5b81601460006101000a81548173ffffffffffffffffffffffffffffffffffffffff021916908373ffffffffffffffffffffffffffffffffffffffff160217905550601460009054906101000a900473ffffffffffffffffffffffffffffffffffffffff1673ffffffffffffffffffffffffffffffffffffffff163373ffffffffffffffffffffffffffffffffffffffff167f76ce921e20c471c95deae34d20d53706ec4378ecab394e517f73aef912ae6cdd60405160405180910390a360019050919050565b600c5481565b60065481565b60075481565b6000601760009054906101000a900473ffffffffffffffffffffffffffffffffffffffff1673ffffffffffffffffffffffffffffffffffffffff163373ffffffffffffffffffffffffffffffffffffffff1614612385576040517f08c379a000000000000000000000000000000000000000000000000000000000815260040161237c9061428e565b60405180910390fd5b81601760006101000a81548173ffffffffffffffffffffffffffffffffffffffff021916908373ffffffffffffffffffffffffffffffffffffffff160217905550601760009054906101000a900473ffffffffffffffffffffffffffffffffffffffff1673ffffffffffffffffffffffffffffffffffffffff163373ffffffffffffffffffffffffffffffffffffffff167f6892a8923ec61e89beaa10370e660884074b3bec292be12802599cf655bba75260405160405180910390a360019050919050565b3373ffffffffffffffffffffffffffffffffffffffff16601460009054906101000a900473ffffffffffffffffffffffffffffffffffffffff1673ffffffffffffffffffffffffffffffffffffffff16146124db576040517f08c379a00000000000000000000000000000000000000000000000000000000081526004016124d290614320565b60405180910390fd5b6124e782600654612fb9565b8173ffffffffffffffffffffffffffffffffffffffff167ff2cb5e52049d127ad1c335f1cc25f2fdbc911bec1beb2611f4c1e8b1c274d4b44260065460405161253192919061438c565b60405180910390a261254581600754612fb9565b8073ffffffffffffffffffffffffffffffffffffffff167ff2cb5e52049d127ad1c335f1cc25f2fdbc911bec1beb2611f4c1e8b1c274d4b44260075460405161258f92919061438c565b60405180910390a25050565b601760009054906101000a900473ffffffffffffffffffffffffffffffffffffffff1673ffffffffffffffffffffffffffffffffffffffff163373ffffffffffffffffffffffffffffffffffffffff161461262b576040517f08c379a000000000000000000000000000000000000000000000000000000000815260040161262290613941565b60405180910390fd5b8060088190555050565b601760009054906101000a900473ffffffffffffffffffffffffffffffffffffffff1673ffffffffffffffffffffffffffffffffffffffff163373ffffffffffffffffffffffffffffffffffffffff16146126c5576040517f08c379a00000000000000000000000000000000000000000000000000000000081526004016126bc90613941565b60405180910390fd5b8060058190555050565b601760009054906101000a900473ffffffffffffffffffffffffffffffffffffffff1673ffffffffffffffffffffffffffffffffffffffff163373ffffffffffffffffffffffffffffffffffffffff161461275f576040517f08c379a000000000000000000000000000000000000000000000000000000000815260040161275690613941565b60405180910390fd5b8060108190555050565b6000600160008473ffffffffffffffffffffffffffffffffffffffff1673ffffffffffffffffffffffffffffffffffffffff16815260200190815260200160002060008373ffffffffffffffffffffffffffffffffffffffff1673ffffffffffffffffffffffffffffffffffffffff16815260200190815260200160002054905092915050565b601760009054906101000a900473ffffffffffffffffffffffffffffffffffffffff1673ffffffffffffffffffffffffffffffffffffffff163373ffffffffffffffffffffffffffffffffffffffff1614612880576040517f08c379a000000000000000000000000000000000000000000000000000000000815260040161287790613941565b60405180910390fd5b80600d8190555050565b3373ffffffffffffffffffffffffffffffffffffffff16601260009054906101000a900473ffffffffffffffffffffffffffffffffffffffff1673ffffffffffffffffffffffffffffffffffffffff161461291a576040517f08c379a000000000000000000000000000000000000000000000000000000000815260040161291190613beb565b60405180910390fd5b61292682600e54612fb9565b8173ffffffffffffffffffffffffffffffffffffffff167ff2cb5e52049d127ad1c335f1cc25f2fdbc911bec1beb2611f4c1e8b1c274d4b442600e54604051612970929190614414565b60405180910390a2600073ffffffffffffffffffffffffffffffffffffffff168173ffffffffffffffffffffffffffffffffffffffff16146129b9576129b881600f54612fb9565b5b8073ffffffffffffffffffffffffffffffffffffffff167ff2cb5e52049d127ad1c335f1cc25f2fdbc911bec1beb2611f4c1e8b1c274d4b442600f54604051612a03929190614414565b60405180910390a25050565b600e5481565b3373ffffffffffffffffffffffffffffffffffffffff16601360009054906101000a900473ffffffffffffffffffffffffffffffffffffffff1673ffffffffffffffffffffffffffffffffffffffff1614612aa5576040517f08c379a0000000000000000000000000000000000000000000000000000000008152600401612a9c90613beb565b60405180910390fd5b612ab182601054612fb9565b8173ffffffffffffffffffffffffffffffffffffffff167ff2cb5e52049d127ad1c335f1cc25f2fdbc911bec1beb2611f4c1e8b1c274d4b442601054604051612afb92919061449c565b60405180910390a2612b0f81601154612fb9565b8173ffffffffffffffffffffffffffffffffffffffff167ff2cb5e52049d127ad1c335f1cc25f2fdbc911bec1beb2611f4c1e8b1c274d4b442601154604051612b5992919061449c565b60405180910390a25050565b600033905090565b600073ffffffffffffffffffffffffffffffffffffffff168373ffffffffffffffffffffffffffffffffffffffff161415612bdd576040517f08c379a0000000000000000000000000000000000000000000000000000000008152600401612bd49061454a565b60405180910390fd5b600073ffffffffffffffffffffffffffffffffffffffff168273ffffffffffffffffffffffffffffffffffffffff161415612c4d576040517f08c379a0000000000000000000000000000000000000000000000000000000008152600401612c44906145dc565b60405180910390fd5b80600160008573ffffffffffffffffffffffffffffffffffffffff1673ffffffffffffffffffffffffffffffffffffffff16815260200190815260200160002060008473ffffffffffffffffffffffffffffffffffffffff1673ffffffffffffffffffffffffffffffffffffffff168152602001908152602001600020819055508173ffffffffffffffffffffffffffffffffffffffff168373ffffffffffffffffffffffffffffffffffffffff167f8c5be1e5ebec7d5bd14f71427d1e84f3dd0314c0f7b2291e5b200ac8c7c3b92583604051612d2b9190613313565b60405180910390a3505050565b600073ffffffffffffffffffffffffffffffffffffffff168373ffffffffffffffffffffffffffffffffffffffff161415612da8576040517f08c379a0000000000000000000000000000000000000000000000000000000008152600401612d9f9061466e565b60405180910390fd5b600073ffffffffffffffffffffffffffffffffffffffff168273ffffffffffffffffffffffffffffffffffffffff161415612e18576040517f08c379a0000000000000000000000000000000000000000000000000000000008152600401612e0f90614700565b60405180910390fd5b612e238383836132f0565b60008060008573ffffffffffffffffffffffffffffffffffffffff1673ffffffffffffffffffffffffffffffffffffffff16815260200190815260200160002054905081811015612ea9576040517f08c379a0000000000000000000000000000000000000000000000000000000008152600401612ea090614792565b60405180910390fd5b8181036000808673ffffffffffffffffffffffffffffffffffffffff1673ffffffffffffffffffffffffffffffffffffffff16815260200190815260200160002081905550816000808573ffffffffffffffffffffffffffffffffffffffff1673ffffffffffffffffffffffffffffffffffffffff1681526020019081526020016000206000828254612f3c9190613cc2565b925050819055508273ffffffffffffffffffffffffffffffffffffffff168473ffffffffffffffffffffffffffffffffffffffff167fddf252ad1be2c89b69c2b068fc378daa952ba7f163c4a11628f55a4df523b3ef84604051612fa09190613313565b60405180910390a3612fb38484846132f5565b50505050565b600073ffffffffffffffffffffffffffffffffffffffff168273ffffffffffffffffffffffffffffffffffffffff161415613029576040517f08c379a0000000000000000000000000000000000000000000000000000000008152600401613020906147fe565b60405180910390fd5b613035600083836132f0565b80600260008282546130479190613cc2565b92505081905550806000808473ffffffffffffffffffffffffffffffffffffffff1673ffffffffffffffffffffffffffffffffffffffff168152602001908152602001600020600082825461309c9190613cc2565b925050819055508173ffffffffffffffffffffffffffffffffffffffff16600073ffffffffffffffffffffffffffffffffffffffff167fddf252ad1be2c89b69c2b068fc378daa952ba7f163c4a11628f55a4df523b3ef836040516131019190613313565b60405180910390a3613115600083836132f5565b5050565b600073ffffffffffffffffffffffffffffffffffffffff168273ffffffffffffffffffffffffffffffffffffffff161415613189576040517f08c379a000000000000000000000000000000000000000000000000000000000815260040161318090614890565b60405180910390fd5b613195826000836132f0565b60008060008473ffffffffffffffffffffffffffffffffffffffff1673ffffffffffffffffffffffffffffffffffffffff1681526020019081526020016000205490508181101561321b576040517f08c379a000000000000000000000000000000000000000000000000000000000815260040161321290614922565b60405180910390fd5b8181036000808573ffffffffffffffffffffffffffffffffffffffff1673ffffffffffffffffffffffffffffffffffffffff1681526020019081526020016000208190555081600260008282546132729190614942565b92505081905550600073ffffffffffffffffffffffffffffffffffffffff168373ffffffffffffffffffffffffffffffffffffffff167fddf252ad1be2c89b69c2b068fc378daa952ba7f163c4a11628f55a4df523b3ef846040516132d79190613313565b60405180910390a36132eb836000846132f5565b505050565b505050565b505050565b6000819050919050565b61330d816132fa565b82525050565b60006020820190506133286000830184613304565b92915050565b600081519050919050565b600082825260208201905092915050565b60005b8381101561336857808201518184015260208101905061334d565b83811115613377576000848401525b50505050565b6000601f19601f8301169050919050565b60006133998261332e565b6133a38185613339565b93506133b381856020860161334a565b6133bc8161337d565b840191505092915050565b600060208201905081810360008301526133e1818461338e565b905092915050565b6000604051905090565b600080fd5b600080fd5b600073ffffffffffffffffffffffffffffffffffffffff82169050919050565b6000613428826133fd565b9050919050565b6134388161341d565b811461344357600080fd5b50565b6000813590506134558161342f565b92915050565b613464816132fa565b811461346f57600080fd5b50565b6000813590506134818161345b565b92915050565b6000806040838503121561349e5761349d6133f3565b5b60006134ac85828601613446565b92505060206134bd85828601613472565b9150509250929050565b60008115159050919050565b6134dc816134c7565b82525050565b60006020820190506134f760008301846134d3565b92915050565b600060208284031215613513576135126133f3565b5b600061352184828501613446565b91505092915050565b6000602082840312156135405761353f6133f3565b5b600061354e84828501613472565b91505092915050565b6000806000606084860312156135705761356f6133f3565b5b600061357e86828701613446565b935050602061358f86828701613446565b92505060406135a086828701613472565b9150509250925092565b600080604083850312156135c1576135c06133f3565b5b60006135cf85828601613446565b92505060206135e085828601613446565b9150509250929050565b600060ff82169050919050565b613600816135ea565b82525050565b600060208201905061361b60008301846135f7565b92915050565b61362a8161341d565b82525050565b60006020820190506136456000830184613621565b92915050565b600080fd5b600080fd5b7f4e487b7100000000000000000000000000000000000000000000000000000000600052604160045260246000fd5b61368d8261337d565b810181811067ffffffffffffffff821117156136ac576136ab613655565b5b80604052505050565b60006136bf6133e9565b90506136cb8282613684565b919050565b600067ffffffffffffffff8211156136eb576136ea613655565b5b6136f48261337d565b9050602081019050919050565b82818337600083830152505050565b600061372361371e846136d0565b6136b5565b90508281526020810184848401111561373f5761373e613650565b5b61374a848285613701565b509392505050565b600082601f8301126137675761376661364b565b5b8135613777848260208601613710565b91505092915050565b60008060408385031215613797576137966133f3565b5b60006137a585828601613446565b925050602083013567ffffffffffffffff8111156137c6576137c56133f8565b5b6137d285828601613752565b9150509250929050565b7f4e487b7100000000000000000000000000000000000000000000000000000000600052602260045260246000fd5b6000600282049050600182168061382357607f821691505b60208210811415613837576138366137dc565b5b50919050565b7f4572726f723a206f6e6c79206465706c6f7965722063616e207061737320626f60008201527f6f7374207369676e657220726f6c650000000000000000000000000000000000602082015250565b6000613899602f83613339565b91506138a48261383d565b604082019050919050565b600060208201905081810360008301526138c88161388c565b9050919050565b7f4572726f723a2076616c7565206d757374206265206368616e6765642062792060008201527f7369676e65720000000000000000000000000000000000000000000000000000602082015250565b600061392b602683613339565b9150613936826138cf565b604082019050919050565b6000602082019050818103600083015261395a8161391e565b9050919050565b7f4572726f722c206f6e6c79206465706c6f7965722063616e207061737320706f60008201527f737427732063616c6c657220726f6c6500000000000000000000000000000000602082015250565b60006139bd603083613339565b91506139c882613961565b604082019050919050565b600060208201905081810360008301526139ec816139b0565b9050919050565b7f45524332303a207472616e7366657220616d6f756e742065786365656473206160008201527f6c6c6f77616e6365000000000000000000000000000000000000000000000000602082015250565b6000613a4f602883613339565b9150613a5a826139f3565b604082019050919050565b60006020820190508181036000830152613a7e81613a42565b9050919050565b7f4572726f723a2077726f6e67206163636f756e742063616c6c696e672074616760008201527f206d696e74000000000000000000000000000000000000000000000000000000602082015250565b6000613ae1602583613339565b9150613aec82613a85565b604082019050919050565b60006020820190508181036000830152613b1081613ad4565b9050919050565b7f5441470000000000000000000000000000000000000000000000000000000000600082015250565b6000613b4d600383613339565b9150613b5882613b17565b602082019050919050565b6000606082019050613b786000830185613304565b613b856020830184613304565b8181036040830152613b9681613b40565b90509392505050565b7f4572726f723a2077726f6e67206163636f756e74000000000000000000000000600082015250565b6000613bd5601483613339565b9150613be082613b9f565b602082019050919050565b60006020820190508181036000830152613c0481613bc8565b9050919050565b7f464f4c4c4f570000000000000000000000000000000000000000000000000000600082015250565b6000613c41600683613339565b9150613c4c82613c0b565b602082019050919050565b6000606082019050613c6c6000830185613304565b613c796020830184613304565b8181036040830152613c8a81613c34565b90509392505050565b7f4e487b7100000000000000000000000000000000000000000000000000000000600052601160045260246000fd5b6000613ccd826132fa565b9150613cd8836132fa565b9250827fffffffffffffffffffffffffffffffffffffffffffffffffffffffffffffffff03821115613d0d57613d0c613c93565b5b828201905092915050565b7f4572726f722c206f6e6c79206465706c6f7965722063616e2070617373206d6560008201527f6d65466163746f72792063616c6c657220726f6c650000000000000000000000602082015250565b6000613d74603583613339565b9150613d7f82613d18565b604082019050919050565b60006020820190508181036000830152613da381613d67565b9050919050565b7f4572726f723a206f6e6c79206465706c6f7965722063616e207061737320666f60008201527f6c6c6f77206d696e746572207369676e657220726f6c65000000000000000000602082015250565b6000613e06603783613339565b9150613e1182613daa565b604082019050919050565b60006020820190508181036000830152613e3581613df9565b9050919050565b7f4572726f723a2077726f6e67206163636f756e742063616c6c696e6720706f7360008201527f74206d696e740000000000000000000000000000000000000000000000000000602082015250565b6000613e98602683613339565b9150613ea382613e3c565b604082019050919050565b60006020820190508181036000830152613ec781613e8b565b9050919050565b7f504f535400000000000000000000000000000000000000000000000000000000600082015250565b6000613f04600483613339565b9150613f0f82613ece565b602082019050919050565b6000606082019050613f2f6000830185613304565b613f3c6020830184613304565b8181036040830152613f4d81613ef7565b90509392505050565b7f4572726f723a206275726e6572206d7573742062652076616c6964207369676e60008201527f6572000000000000000000000000000000000000000000000000000000000000602082015250565b6000613fb2602283613339565b9150613fbd82613f56565b604082019050919050565b60006020820190508181036000830152613fe181613fa5565b9050919050565b7f45524332303a2064656372656173656420616c6c6f77616e63652062656c6f7760008201527f207a65726f000000000000000000000000000000000000000000000000000000602082015250565b6000614044602583613339565b915061404f82613fe8565b604082019050919050565b6000602082019050818103600083015261407381614037565b9050919050565b7f524553504f4e442046524f4d0000000000000000000000000000000000000000600082015250565b60006140b0600c83613339565b91506140bb8261407a565b602082019050919050565b60006060820190506140db6000830185613304565b6140e86020830184613304565b81810360408301526140f9816140a3565b90509392505050565b7f524553504f4e4420544f00000000000000000000000000000000000000000000600082015250565b6000614138600a83613339565b915061414382614102565b602082019050919050565b60006060820190506141636000830185613304565b6141706020830184613304565b81810360408301526141818161412b565b90509392505050565b7f4572726f723a206f6e6c79206465706c6f7965722063616e2070617373206c6960008201527f6b65206d696e746572207369676e65722063616c6c657220726f6c6500000000602082015250565b60006141e6603c83613339565b91506141f18261418a565b604082019050919050565b60006020820190508181036000830152614215816141d9565b9050919050565b7f4572726f723a206f6e6c79206465706c6f7965722063616e207061737320766160008201527f6c7565207369676e657220726f6c650000000000000000000000000000000000602082015250565b6000614278602f83613339565b91506142838261421c565b604082019050919050565b600060208201905081810360008301526142a78161426b565b9050919050565b7f4572726f723a2077726f6e67206163636f756e742063616c6c696e67206c696b60008201527f65206d696e740000000000000000000000000000000000000000000000000000602082015250565b600061430a602683613339565b9150614315826142ae565b604082019050919050565b60006020820190508181036000830152614339816142fd565b9050919050565b7f4c494b4500000000000000000000000000000000000000000000000000000000600082015250565b6000614376600483613339565b915061438182614340565b602082019050919050565b60006060820190506143a16000830185613304565b6143ae6020830184613304565b81810360408301526143bf81614369565b90509392505050565b7f4355524154450000000000000000000000000000000000000000000000000000600082015250565b60006143fe600683613339565b9150614409826143c8565b602082019050919050565b60006060820190506144296000830185613304565b6144366020830184613304565b8181036040830152614447816143f1565b90509392505050565b7f5245504f53540000000000000000000000000000000000000000000000000000600082015250565b6000614486600683613339565b915061449182614450565b602082019050919050565b60006060820190506144b16000830185613304565b6144be6020830184613304565b81810360408301526144cf81614479565b90509392505050565b7f45524332303a20617070726f76652066726f6d20746865207a65726f2061646460008201527f7265737300000000000000000000000000000000000000000000000000000000602082015250565b6000614534602483613339565b915061453f826144d8565b604082019050919050565b6000602082019050818103600083015261456381614527565b9050919050565b7f45524332303a20617070726f766520746f20746865207a65726f20616464726560008201527f7373000000000000000000000000000000000000000000000000000000000000602082015250565b60006145c6602283613339565b91506145d18261456a565b604082019050919050565b600060208201905081810360008301526145f5816145b9565b9050919050565b7f45524332303a207472616e736665722066726f6d20746865207a65726f20616460008201527f6472657373000000000000000000000000000000000000000000000000000000602082015250565b6000614658602583613339565b9150614663826145fc565b604082019050919050565b600060208201905081810360008301526146878161464b565b9050919050565b7f45524332303a207472616e7366657220746f20746865207a65726f206164647260008201527f6573730000000000000000000000000000000000000000000000000000000000602082015250565b60006146ea602383613339565b91506146f58261468e565b604082019050919050565b60006020820190508181036000830152614719816146dd565b9050919050565b7f45524332303a207472616e7366657220616d6f756e742065786365656473206260008201527f616c616e63650000000000000000000000000000000000000000000000000000602082015250565b600061477c602683613339565b915061478782614720565b604082019050919050565b600060208201905081810360008301526147ab8161476f565b9050919050565b7f45524332303a206d696e7420746f20746865207a65726f206164647265737300600082015250565b60006147e8601f83613339565b91506147f3826147b2565b602082019050919050565b60006020820190508181036000830152614817816147db565b9050919050565b7f45524332303a206275726e2066726f6d20746865207a65726f2061646472657360008201527f7300000000000000000000000000000000000000000000000000000000000000602082015250565b600061487a602183613339565b91506148858261481e565b604082019050919050565b600060208201905081810360008301526148a98161486d565b9050919050565b7f45524332303a206275726e20616d6f756e7420657863656564732062616c616e60008201527f6365000000000000000000000000000000000000000000000000000000000000602082015250565b600061490c602283613339565b9150614917826148b0565b604082019050919050565b6000602082019050818103600083015261493b816148ff565b9050919050565b600061494d826132fa565b9150614958836132fa565b92508282101561496b5761496a613c93565b5b82820390509291505056fea26469706673582212209b77c6a8ab73f2b288a52e5ec0afc71fd0d27eb5584ad0bfd55b8a8dc480fb7164736f6c63430008090033",
  "immutableReferences": {},
  "source": "// SPDX-License-Identifier: MIT\n\npragma solidity >=0.8.0 <0.9.0;\n\nimport \"@openzeppelin/contracts/token/ERC20/ERC20.sol\";\n\ncontract UME is ERC20 {\n\n  // minting values\n  uint public postValue = 8e18;\n  uint public likeFromValue = 2e18;\n  uint public likeToValue = 5e18;\n  uint public tagFromValue = 1e18;\n  uint public tagToValue = 3e18;\n  uint public followFromValue = 1e18;\n  uint public followToValue = 6e18;\n  uint public respondFromValue = 2e18;\n  uint public respondToValue = 4e18;\n  uint public curateFromValue = 2e18;\n  uint public curateToValue = 4e18;\n  uint public repostFromValue = 5e18;\n  uint public repostToValue = 6e18;\n\n  // signer's address\n  address public memeFactorySigner;\n  address public postSigner;\n  address public likeSigner;\n  address public followSigner;\n  address public boostSigner;\n  address public valueSigner;\n\n  // Signer role changes\n  event PostSignerChanged(\n        address indexed from,\n        address indexed to);\n  event MemeFactorySignerChanged(\n        address indexed from,\n        address indexed to);\n  event LikeSignerChanged(\n        address indexed from,\n        address indexed to);\n  event FollowSignerChanged(\n        address indexed from,\n        address indexed to);\n  event BoostSignerChanged(\n        address indexed from,\n        address indexed to);\n  event ValueSignerChanged(\n        address indexed from,\n        address indexed to);\n  event Minted(\n        address indexed account,\n        uint time,\n        uint256 amount,\n        string flag);\n\n  constructor()\n    public payable ERC20(\"uMe token\", \"UME\") {\n    // assign signer roles\n    postSigner = msg.sender;\n    memeFactorySigner = msg.sender;\n    likeSigner = msg.sender;\n    followSigner = msg.sender;\n    boostSigner = msg.sender;\n    valueSigner = msg.sender;\n  }\n\n  function mintPost(\n            address _account,\n            string memory _postText)\n            public {\n    // make sure minter is same as sender\n    require(\n      postSigner==msg.sender,\n      'Error: wrong account calling post mint');\n    _mint(address(_account), postValue);\n    // set event for minted Posted UME tokens\n    emit Minted(_account, block.timestamp, postValue, 'POST');\n  }\n  function mintLike(\n            address _from,\n            address _to)\n            public { // 2:5 Liker:Liked\n    require(\n      likeSigner==msg.sender,\n      'Error: wrong account calling like mint');\n    // mint a LIKE token for liker\n    _mint(address(_from), likeFromValue);\n    // set event for LIKE token FROM\n    emit Minted(_from, block.timestamp, likeFromValue, 'LIKE');\n    // mint LIKE tokens for likee\n    _mint(address(_to), likeToValue);\n    // set event for LIKE token TO\n    emit Minted(_to, block.timestamp, likeToValue, 'LIKE');\n  }\n  function mintTag(\n            address _from,\n            address _to)\n            public { // 1:3 Tagger:Tagged\n    require(\n      memeFactorySigner==msg.sender,\n      'Error: wrong account calling tag mint');\n    // mint a TAG token for tagger\n    _mint(_from, tagFromValue);\n    // set event for TAG token FROM\n    emit Minted(_from, block.timestamp, tagFromValue, 'TAG');\n    // mint TAG tokens for taggee\n    _mint(_to, tagToValue);\n    // set event for TAG token TO\n    emit Minted(_to, block.timestamp, tagToValue, 'TAG');\n  }\n  function mintFollow(\n            address _from,\n            address _to)\n            public { // 1:3 Follower:Followed\n    require(\n      followSigner==msg.sender,\n      'Error: wrong account');\n    // mint a FOLLOW token for follower\n    _mint(_from, followFromValue);\n    // set event for FOLLOW token FROM\n    emit Minted(_from, block.timestamp, followFromValue, 'FOLLOW');\n    // mint FOLLOW tokens for followed\n    _mint(_to, followToValue);\n    // set event for FOLLOW token TO\n    emit Minted(_to, block.timestamp, followToValue, 'FOLLOW');\n  }\n  function mintRespond(\n            address _from,\n            address _to)\n            public { // 2:4 Responder:Responded\n    require(\n      memeFactorySigner==msg.sender,\n      'Error: wrong account');\n    // mint a RESPOND token for responder\n    _mint(_from, respondFromValue);\n    // set event for RESPOND token FROM\n    emit Minted(_from, block.timestamp, respondFromValue, 'RESPOND FROM');\n    // mint RESPOND tokens for responded\n    if(_to!=address(0x0)) {\n      _mint(_to, respondToValue);\n    }\n    // set event for RESPOND token TO\n    emit Minted(_to, block.timestamp, respondToValue, 'RESPOND TO');\n  }\n  function mintCurate(\n            address _from,\n            address _to)\n            public { // 2:4 Responder:Responded\n    require(\n      memeFactorySigner==msg.sender,\n      'Error: wrong account');\n    // mint a CURATE token for curatee\n    _mint(_from, curateFromValue);\n    // set event for CURATE token FROM\n    emit Minted(_from, block.timestamp, curateFromValue, 'CURATE');\n    // mint CURATE tokens for curator\n    if(_to!=address(0x0)) {\n      _mint(_to, curateToValue);\n    }\n    // set event for CURATE token TO\n    emit Minted(_to, block.timestamp, curateToValue, 'CURATE');\n  }\n  function mintRepost(\n            address _from,\n            address _to)\n            public {\n    require(\n      postSigner==msg.sender,\n      'Error: wrong account');\n    //mint REPOST token for reposter\n    _mint(_from, repostFromValue);\n    // set event for REPOST from\n    emit Minted(_from, block.timestamp, repostFromValue, 'REPOST');\n    // mint REPOST token for original poster\n    _mint(_to, repostToValue);\n    // set event for REPOST to\n    emit Minted(_from, block.timestamp, repostToValue, 'REPOST');\n  }\n  function burn(\n            address _account,\n            uint _amount)\n            public {\n    require(\n      msg.sender==likeSigner ||\n      msg.sender==followSigner ||\n      msg.sender==boostSigner,\n      'Error: burner must be valid signer');\n    _burn(_account, _amount);\n  }\n\n  function setPostValue(uint256 _value)\n            public {\n    require(\n      msg.sender==valueSigner,\n      'Error: value must be changed by signer');\n    postValue = _value;\n  }\n  function setLikeFromValue(uint256 _value)\n            public {\n    require(\n      msg.sender==valueSigner,\n      'Error: value must be changed by signer');\n    likeFromValue = _value;\n  }\n  function setLikeToValue(uint256 _value)\n            public {\n    require(\n      msg.sender==valueSigner,\n      'Error: value must be changed by signer');\n    likeToValue = _value;\n  }\n  function setTagFromValue(uint256 _value)\n            public {\n    require(\n      msg.sender==valueSigner,\n      'Error: value must be changed by signer');\n    tagFromValue = _value;\n  }\n  function setTagToValue(uint256 _value)\n            public {\n    require(\n      msg.sender==valueSigner,\n      'Error: value must be changed by signer');\n    tagToValue = _value;\n  }\n  function setFollowFromValue(uint256 _value)\n            public {\n    require(\n      msg.sender==valueSigner,\n      'Error: value must be changed by signer');\n    followFromValue = _value;\n  }\n  function setFollowToValue(uint256 _value)\n            public {\n    require(\n      msg.sender==valueSigner,\n      'Error: value must be changed by signer');\n    followToValue = _value;\n  }\n  function setRespondFromValue(uint256 _value)\n            public {\n    require(\n      msg.sender==valueSigner,\n      'Error: value must be changed by signer');\n    respondFromValue = _value;\n  }\n  function setRespondToValue(uint256 _value)\n            public {\n    require(\n      msg.sender==valueSigner,\n      'Error: value must be changed by signer');\n    respondToValue = _value;\n  }\n  function setCurateFromValue(uint256 _value)\n            public {\n    require(\n      msg.sender==valueSigner,\n      'Error: value must be changed by signer');\n    curateFromValue = _value;\n  }\n  function setCurateToValue(uint256 _value)\n            public {\n    require(\n      msg.sender==valueSigner,\n      'Error: value must be changed by signer');\n    curateToValue = _value;\n  }\n  function setRepostFromValue(uint256 _value)\n            public {\n    require(\n      msg.sender==valueSigner,\n      'Error: value must be changed by signer');\n    repostFromValue = _value;\n  }\n  function setRepostToValue(uint256 _value)\n            public {\n    require(\n      msg.sender==valueSigner,\n      'Error: value must be changed by signer');\n    repostToValue = _value;\n  }\n\n  function passPostSignerRole(address _post)\n            public returns (bool) {\n    require(\n      msg.sender==postSigner,\n      'Error, only deployer can pass post\\'s caller role');\n    postSigner = _post;\n    emit PostSignerChanged(msg.sender, postSigner);\n    return true;\n  }\n  function passMemeFactorySignerRole(address _memeFactory)\n            public returns (bool) {\n    require(\n      msg.sender==memeFactorySigner,\n      'Error, only deployer can pass memeFactory caller role');\n    memeFactorySigner= _memeFactory;\n    emit PostSignerChanged(msg.sender, memeFactorySigner);\n    return true;\n  }\n  function passLikeSignerRole(address _like)\n            public returns (bool) {\n    require(\n      msg.sender==likeSigner,\n      'Error: only deployer can pass like minter signer caller role');\n    likeSigner = _like;\n    emit PostSignerChanged(msg.sender, likeSigner);\n    return true;\n  }\n  function passFollowSignerRole(address _follow)\n            public returns (bool) {\n    require(\n      msg.sender==followSigner,\n      'Error: only deployer can pass follow minter signer role');\n    followSigner = _follow;\n    emit FollowSignerChanged(msg.sender, followSigner);\n    return true;\n  }\n  function passBoostSignerRole(address _boost)\n            public returns (bool) {\n    require(\n      msg.sender==boostSigner,\n      'Error: only deployer can pass boost signer role');\n    boostSigner = _boost;\n    emit BoostSignerChanged(msg.sender, boostSigner);\n    return true;\n  }\n  function passValueSignerRole(address _value)\n            public returns (bool) {\n    require(\n      msg.sender==valueSigner,\n      'Error: only deployer can pass value signer role');\n    valueSigner = _value;\n    emit BoostSignerChanged(msg.sender, valueSigner);\n    return true;\n  }\n}\n",
  "sourcePath": "/Users/jaiq/Documents/000 BLOCKCHAIN/ETH/uMe/src/contracts/UME.sol",
  "compiler": {
    "name": "solc",
    "version": "0.8.9+commit.e5eed63a.Emscripten.clang"
  },
  "schemaVersion": "3.4.3",
  "updatedAt": "2021-11-02T20:15:27.976Z",
  "networkType": "ethereum",
  "devdoc": {
    "kind": "dev",
    "methods": {
      "allowance(address,address)": {
        "details": "See {IERC20-allowance}."
      },
      "approve(address,uint256)": {
        "details": "See {IERC20-approve}. Requirements: - `spender` cannot be the zero address."
      },
      "balanceOf(address)": {
        "details": "See {IERC20-balanceOf}."
      },
      "decimals()": {
        "details": "Returns the number of decimals used to get its user representation. For example, if `decimals` equals `2`, a balance of `505` tokens should be displayed to a user as `5.05` (`505 / 10 ** 2`). Tokens usually opt for a value of 18, imitating the relationship between Ether and Wei. This is the value {ERC20} uses, unless this function is overridden; NOTE: This information is only used for _display_ purposes: it in no way affects any of the arithmetic of the contract, including {IERC20-balanceOf} and {IERC20-transfer}."
      },
      "decreaseAllowance(address,uint256)": {
        "details": "Atomically decreases the allowance granted to `spender` by the caller. This is an alternative to {approve} that can be used as a mitigation for problems described in {IERC20-approve}. Emits an {Approval} event indicating the updated allowance. Requirements: - `spender` cannot be the zero address. - `spender` must have allowance for the caller of at least `subtractedValue`."
      },
      "increaseAllowance(address,uint256)": {
        "details": "Atomically increases the allowance granted to `spender` by the caller. This is an alternative to {approve} that can be used as a mitigation for problems described in {IERC20-approve}. Emits an {Approval} event indicating the updated allowance. Requirements: - `spender` cannot be the zero address."
      },
      "name()": {
        "details": "Returns the name of the token."
      },
      "symbol()": {
        "details": "Returns the symbol of the token, usually a shorter version of the name."
      },
      "totalSupply()": {
        "details": "See {IERC20-totalSupply}."
      },
      "transfer(address,uint256)": {
        "details": "See {IERC20-transfer}. Requirements: - `recipient` cannot be the zero address. - the caller must have a balance of at least `amount`."
      },
      "transferFrom(address,address,uint256)": {
        "details": "See {IERC20-transferFrom}. Emits an {Approval} event indicating the updated allowance. This is not required by the EIP. See the note at the beginning of {ERC20}. Requirements: - `sender` and `recipient` cannot be the zero address. - `sender` must have a balance of at least `amount`. - the caller must have allowance for ``sender``'s tokens of at least `amount`."
      }
    },
    "version": 1
  },
  "userdoc": {
    "kind": "user",
    "methods": {},
    "version": 1
  }
}