{
  "contractName": "UME",
  "abi": [
    {
      "inputs": [],
      "stateMutability": "payable",
      "type": "constructor",
      "payable": true
    },
    {
      "anonymous": false,
      "inputs": [
        {
          "indexed": true,
          "internalType": "address",
          "name": "owner",
          "type": "address"
        },
        {
          "indexed": true,
          "internalType": "address",
          "name": "spender",
          "type": "address"
        },
        {
          "indexed": false,
          "internalType": "uint256",
          "name": "value",
          "type": "uint256"
        }
      ],
      "name": "Approval",
      "type": "event"
    },
    {
      "anonymous": false,
      "inputs": [
        {
          "indexed": true,
          "internalType": "address",
          "name": "accountFrom",
          "type": "address"
        },
        {
          "indexed": true,
          "internalType": "address",
          "name": "accountTo",
          "type": "address"
        }
      ],
      "name": "CallerChanged",
      "type": "event"
    },
    {
      "anonymous": false,
      "inputs": [
        {
          "indexed": true,
          "internalType": "address",
          "name": "account",
          "type": "address"
        },
        {
          "indexed": false,
          "internalType": "uint256",
          "name": "time",
          "type": "uint256"
        },
        {
          "indexed": false,
          "internalType": "string",
          "name": "postHash",
          "type": "string"
        },
        {
          "indexed": false,
          "internalType": "string",
          "name": "flag",
          "type": "string"
        }
      ],
      "name": "Minted",
      "type": "event"
    },
    {
      "anonymous": false,
      "inputs": [
        {
          "indexed": true,
          "internalType": "address",
          "name": "accountFrom",
          "type": "address"
        },
        {
          "indexed": true,
          "internalType": "address",
          "name": "accountTo",
          "type": "address"
        }
      ],
      "name": "MinterChanged",
      "type": "event"
    },
    {
      "anonymous": false,
      "inputs": [
        {
          "indexed": true,
          "internalType": "address",
          "name": "from",
          "type": "address"
        },
        {
          "indexed": true,
          "internalType": "address",
          "name": "to",
          "type": "address"
        },
        {
          "indexed": false,
          "internalType": "uint256",
          "name": "value",
          "type": "uint256"
        }
      ],
      "name": "Transfer",
      "type": "event"
    },
    {
      "inputs": [
        {
          "internalType": "address",
          "name": "owner",
          "type": "address"
        },
        {
          "internalType": "address",
          "name": "spender",
          "type": "address"
        }
      ],
      "name": "allowance",
      "outputs": [
        {
          "internalType": "uint256",
          "name": "",
          "type": "uint256"
        }
      ],
      "stateMutability": "view",
      "type": "function",
      "constant": true
    },
    {
      "inputs": [
        {
          "internalType": "address",
          "name": "spender",
          "type": "address"
        },
        {
          "internalType": "uint256",
          "name": "amount",
          "type": "uint256"
        }
      ],
      "name": "approve",
      "outputs": [
        {
          "internalType": "bool",
          "name": "",
          "type": "bool"
        }
      ],
      "stateMutability": "nonpayable",
      "type": "function"
    },
    {
      "inputs": [
        {
          "internalType": "address",
          "name": "account",
          "type": "address"
        }
      ],
      "name": "balanceOf",
      "outputs": [
        {
          "internalType": "uint256",
          "name": "",
          "type": "uint256"
        }
      ],
      "stateMutability": "view",
      "type": "function",
      "constant": true
    },
    {
      "inputs": [],
      "name": "caller",
      "outputs": [
        {
          "internalType": "address",
          "name": "",
          "type": "address"
        }
      ],
      "stateMutability": "view",
      "type": "function",
      "constant": true
    },
    {
      "inputs": [],
      "name": "decimals",
      "outputs": [
        {
          "internalType": "uint8",
          "name": "",
          "type": "uint8"
        }
      ],
      "stateMutability": "view",
      "type": "function",
      "constant": true
    },
    {
      "inputs": [
        {
          "internalType": "address",
          "name": "spender",
          "type": "address"
        },
        {
          "internalType": "uint256",
          "name": "subtractedValue",
          "type": "uint256"
        }
      ],
      "name": "decreaseAllowance",
      "outputs": [
        {
          "internalType": "bool",
          "name": "",
          "type": "bool"
        }
      ],
      "stateMutability": "nonpayable",
      "type": "function"
    },
    {
      "inputs": [
        {
          "internalType": "address",
          "name": "spender",
          "type": "address"
        },
        {
          "internalType": "uint256",
          "name": "addedValue",
          "type": "uint256"
        }
      ],
      "name": "increaseAllowance",
      "outputs": [
        {
          "internalType": "bool",
          "name": "",
          "type": "bool"
        }
      ],
      "stateMutability": "nonpayable",
      "type": "function"
    },
    {
      "inputs": [],
      "name": "minter",
      "outputs": [
        {
          "internalType": "address",
          "name": "",
          "type": "address"
        }
      ],
      "stateMutability": "view",
      "type": "function",
      "constant": true
    },
    {
      "inputs": [],
      "name": "name",
      "outputs": [
        {
          "internalType": "string",
          "name": "",
          "type": "string"
        }
      ],
      "stateMutability": "view",
      "type": "function",
      "constant": true
    },
    {
      "inputs": [],
      "name": "symbol",
      "outputs": [
        {
          "internalType": "string",
          "name": "",
          "type": "string"
        }
      ],
      "stateMutability": "view",
      "type": "function",
      "constant": true
    },
    {
      "inputs": [],
      "name": "totalSupply",
      "outputs": [
        {
          "internalType": "uint256",
          "name": "",
          "type": "uint256"
        }
      ],
      "stateMutability": "view",
      "type": "function",
      "constant": true
    },
    {
      "inputs": [
        {
          "internalType": "address",
          "name": "recipient",
          "type": "address"
        },
        {
          "internalType": "uint256",
          "name": "amount",
          "type": "uint256"
        }
      ],
      "name": "transfer",
      "outputs": [
        {
          "internalType": "bool",
          "name": "",
          "type": "bool"
        }
      ],
      "stateMutability": "nonpayable",
      "type": "function"
    },
    {
      "inputs": [
        {
          "internalType": "address",
          "name": "sender",
          "type": "address"
        },
        {
          "internalType": "address",
          "name": "recipient",
          "type": "address"
        },
        {
          "internalType": "uint256",
          "name": "amount",
          "type": "uint256"
        }
      ],
      "name": "transferFrom",
      "outputs": [
        {
          "internalType": "bool",
          "name": "",
          "type": "bool"
        }
      ],
      "stateMutability": "nonpayable",
      "type": "function"
    },
    {
      "inputs": [
        {
          "internalType": "address",
          "name": "account",
          "type": "address"
        },
        {
          "internalType": "string",
          "name": "_postHash",
          "type": "string"
        },
        {
          "internalType": "string",
          "name": "_postText",
          "type": "string"
        }
      ],
      "name": "mintPost",
      "outputs": [],
      "stateMutability": "nonpayable",
      "type": "function"
    },
    {
      "inputs": [
        {
          "internalType": "address",
          "name": "accountFrom",
          "type": "address"
        },
        {
          "internalType": "address",
          "name": "accountTo",
          "type": "address"
        },
        {
          "internalType": "string",
          "name": "_postHash",
          "type": "string"
        }
      ],
      "name": "mintLike",
      "outputs": [],
      "stateMutability": "nonpayable",
      "type": "function"
    },
    {
      "inputs": [
        {
          "internalType": "address",
          "name": "accountFrom",
          "type": "address"
        },
        {
          "internalType": "address",
          "name": "accountTo",
          "type": "address"
        },
        {
          "internalType": "string",
          "name": "_postHash",
          "type": "string"
        }
      ],
      "name": "mintTag",
      "outputs": [],
      "stateMutability": "nonpayable",
      "type": "function"
    },
    {
      "inputs": [
        {
          "internalType": "address",
          "name": "accountFrom",
          "type": "address"
        },
        {
          "internalType": "address",
          "name": "accountTo",
          "type": "address"
        }
      ],
      "name": "mintFollow",
      "outputs": [],
      "stateMutability": "nonpayable",
      "type": "function"
    },
    {
      "inputs": [
        {
          "internalType": "address",
          "name": "accountFrom",
          "type": "address"
        },
        {
          "internalType": "address",
          "name": "accountTo",
          "type": "address"
        },
        {
          "internalType": "string",
          "name": "_postHash",
          "type": "string"
        }
      ],
      "name": "mintRespond",
      "outputs": [],
      "stateMutability": "nonpayable",
      "type": "function"
    },
    {
      "inputs": [
        {
          "internalType": "address",
          "name": "accountFrom",
          "type": "address"
        },
        {
          "internalType": "address",
          "name": "accountTo",
          "type": "address"
        },
        {
          "internalType": "string",
          "name": "_postHash",
          "type": "string"
        }
      ],
      "name": "mintCurate",
      "outputs": [],
      "stateMutability": "nonpayable",
      "type": "function"
    },
    {
      "inputs": [
        {
          "internalType": "address",
          "name": "account",
          "type": "address"
        },
        {
          "internalType": "string",
          "name": "_postHash",
          "type": "string"
        },
        {
          "internalType": "bool",
          "name": "consensusReached",
          "type": "bool"
        }
      ],
      "name": "mintJury",
      "outputs": [],
      "stateMutability": "nonpayable",
      "type": "function"
    },
    {
      "inputs": [
        {
          "internalType": "address",
          "name": "we",
          "type": "address"
        }
      ],
      "name": "passMinterRole",
      "outputs": [
        {
          "internalType": "bool",
          "name": "",
          "type": "bool"
        }
      ],
      "stateMutability": "nonpayable",
      "type": "function"
    },
    {
      "inputs": [
        {
          "internalType": "address",
          "name": "timeline",
          "type": "address"
        }
      ],
      "name": "passCallerRole",
      "outputs": [
        {
          "internalType": "bool",
          "name": "",
          "type": "bool"
        }
      ],
      "stateMutability": "nonpayable",
      "type": "function"
    }
  ],
  "bytecode": "0x60806040526040518060400160405280600981526020017f754d6520746f6b656e00000000000000000000000000000000000000000000008152506040518060400160405280600381526020017f554d4500000000000000000000000000000000000000000000000000000000008152508160039080519060200190620000889291906200012c565b508060049080519060200190620000a19291906200012c565b50505033600560006101000a81548173ffffffffffffffffffffffffffffffffffffffff021916908373ffffffffffffffffffffffffffffffffffffffff16021790555033600660006101000a81548173ffffffffffffffffffffffffffffffffffffffff021916908373ffffffffffffffffffffffffffffffffffffffff16021790555062000241565b8280546200013a90620001dc565b90600052602060002090601f0160209004810192826200015e5760008555620001aa565b82601f106200017957805160ff1916838001178555620001aa565b82800160010185558215620001aa579182015b82811115620001a95782518255916020019190600101906200018c565b5b509050620001b99190620001bd565b5090565b5b80821115620001d8576000816000905550600101620001be565b5090565b60006002820490506001821680620001f557607f821691505b602082108114156200020c576200020b62000212565b5b50919050565b7f4e487b7100000000000000000000000000000000000000000000000000000000600052602260045260246000fd5b6136f680620002516000396000f3fe608060405234801561001057600080fd5b50600436106101425760003560e01c806370a08231116100b8578063aa78f03a1161007c578063aa78f03a14610389578063b7b997d6146103a5578063d7fc5b15146103d5578063dd62ed3e14610405578063e96428a714610435578063fc9c8d391461045157610142565b806370a08231146102bf57806395d89b41146102ef578063a272624a1461030d578063a457c2d714610329578063a9059cbb1461035957610142565b806323b872dd1161010a57806323b872dd146101ed5780632d599ba51461021d578063313ce5671461023957806339509351146102575780634b027fd914610287578063639bee54146102a357610142565b806306fdde03146101475780630754617214610165578063095ea7b31461018357806312142150146101b357806318160ddd146101cf575b600080fd5b61014f61046f565b60405161015c91906129d3565b60405180910390f35b61016d610501565b60405161017a919061299d565b60405180910390f35b61019d6004803603810190610198919061255a565b610527565b6040516101aa91906129b8565b60405180910390f35b6101cd60048036038101906101c89190612460565b610545565b005b6101d7610786565b6040516101e49190612c15565b60405180910390f35b6102076004803603810190610202919061240d565b610790565b60405161021491906129b8565b60405180910390f35b6102376004803603810190610232919061235e565b610888565b005b610241610ace565b60405161024e9190612e46565b60405180910390f35b610271600480360381019061026c919061255a565b610ad7565b60405161027e91906129b8565b60405180910390f35b6102a1600480360381019061029c919061239e565b610b83565b005b6102bd60048036038101906102b891906124cf565b610e12565b005b6102d960048036038101906102d49190612331565b61101b565b6040516102e69190612c15565b60405180910390f35b6102f7611063565b60405161030491906129d3565b60405180910390f35b6103276004803603810190610322919061239e565b6110f5565b005b610343600480360381019061033e919061255a565b611384565b60405161035091906129b8565b60405180910390f35b610373600480360381019061036e919061255a565b61146f565b60405161038091906129b8565b60405180910390f35b6103a3600480360381019061039e919061239e565b61148d565b005b6103bf60048036038101906103ba9190612331565b61171c565b6040516103cc91906129b8565b60405180910390f35b6103ef60048036038101906103ea9190612331565b611852565b6040516103fc91906129b8565b60405180910390f35b61041f600480360381019061041a919061235e565b611988565b60405161042c9190612c15565b60405180910390f35b61044f600480360381019061044a919061239e565b611a0f565b005b610459611c9e565b604051610466919061299d565b60405180910390f35b60606003805461047e90612fc0565b80601f01602080910402602001604051908101604052809291908181526020018280546104aa90612fc0565b80156104f75780601f106104cc576101008083540402835291602001916104f7565b820191906000526020600020905b8154815290600101906020018083116104da57829003601f168201915b5050505050905090565b600560009054906101000a900473ffffffffffffffffffffffffffffffffffffffff1681565b600061053b610534611cc4565b8484611ccc565b6001905092915050565b3373ffffffffffffffffffffffffffffffffffffffff16600660009054906101000a900473ffffffffffffffffffffffffffffffffffffffff1673ffffffffffffffffffffffffffffffffffffffff16146105d5576040517f08c379a00000000000000000000000000000000000000000000000000000000081526004016105cc90612af5565b60405180910390fd5b8273ffffffffffffffffffffffffffffffffffffffff16600560009054906101000a900473ffffffffffffffffffffffffffffffffffffffff1673ffffffffffffffffffffffffffffffffffffffff161415610666576040517f08c379a000000000000000000000000000000000000000000000000000000000815260040161065d90612b75565b60405180910390fd5b60008251116106aa576040517f08c379a00000000000000000000000000000000000000000000000000000000081526004016106a190612ab5565b60405180910390fd5b600115158115151415610717576106c2836018611e97565b8273ffffffffffffffffffffffffffffffffffffffff167fe2406cfd356cfbe4e42d452bde96d27f48c423e5f02b5d78695893308399519d428460405161070a929190612dc2565b60405180910390a2610781565b6000151581151514156107805761072f836004611e97565b8273ffffffffffffffffffffffffffffffffffffffff167fe2406cfd356cfbe4e42d452bde96d27f48c423e5f02b5d78695893308399519d4284604051610777929190612dc2565b60405180910390a25b5b505050565b6000600254905090565b600061079d848484611ff7565b6000600160008673ffffffffffffffffffffffffffffffffffffffff1673ffffffffffffffffffffffffffffffffffffffff16815260200190815260200160002060006107e8611cc4565b73ffffffffffffffffffffffffffffffffffffffff1673ffffffffffffffffffffffffffffffffffffffff16815260200190815260200160002054905082811015610868576040517f08c379a000000000000000000000000000000000000000000000000000000000815260040161085f90612ad5565b60405180910390fd5b61087c85610874611cc4565b858403611ccc565b60019150509392505050565b3373ffffffffffffffffffffffffffffffffffffffff16600660009054906101000a900473ffffffffffffffffffffffffffffffffffffffff1673ffffffffffffffffffffffffffffffffffffffff1614610918576040517f08c379a000000000000000000000000000000000000000000000000000000000815260040161090f90612af5565b60405180910390fd5b8173ffffffffffffffffffffffffffffffffffffffff16600560009054906101000a900473ffffffffffffffffffffffffffffffffffffffff1673ffffffffffffffffffffffffffffffffffffffff1614156109a9576040517f08c379a00000000000000000000000000000000000000000000000000000000081526004016109a090612a35565b60405180910390fd5b8073ffffffffffffffffffffffffffffffffffffffff168273ffffffffffffffffffffffffffffffffffffffff161415610a18576040517f08c379a0000000000000000000000000000000000000000000000000000000008152600401610a0f90612b15565b60405180910390fd5b610a23826001611e97565b8173ffffffffffffffffffffffffffffffffffffffff167fe2406cfd356cfbe4e42d452bde96d27f48c423e5f02b5d78695893308399519d42604051610a699190612e05565b60405180910390a2610a7c816006611e97565b8073ffffffffffffffffffffffffffffffffffffffff167fe2406cfd356cfbe4e42d452bde96d27f48c423e5f02b5d78695893308399519d42604051610ac29190612e05565b60405180910390a25050565b60006012905090565b6000610b79610ae4611cc4565b848460016000610af2611cc4565b73ffffffffffffffffffffffffffffffffffffffff1673ffffffffffffffffffffffffffffffffffffffff16815260200190815260200160002060008873ffffffffffffffffffffffffffffffffffffffff1673ffffffffffffffffffffffffffffffffffffffff16815260200190815260200160002054610b749190612ed3565b611ccc565b6001905092915050565b3373ffffffffffffffffffffffffffffffffffffffff16600660009054906101000a900473ffffffffffffffffffffffffffffffffffffffff1673ffffffffffffffffffffffffffffffffffffffff1614610c13576040517f08c379a0000000000000000000000000000000000000000000000000000000008152600401610c0a90612af5565b60405180910390fd5b8273ffffffffffffffffffffffffffffffffffffffff16600560009054906101000a900473ffffffffffffffffffffffffffffffffffffffff1673ffffffffffffffffffffffffffffffffffffffff161415610ca4576040517f08c379a0000000000000000000000000000000000000000000000000000000008152600401610c9b90612b75565b60405180910390fd5b8173ffffffffffffffffffffffffffffffffffffffff168373ffffffffffffffffffffffffffffffffffffffff161415610d13576040517f08c379a0000000000000000000000000000000000000000000000000000000008152600401610d0a90612b15565b60405180910390fd5b6000815111610d57576040517f08c379a0000000000000000000000000000000000000000000000000000000008152600401610d4e90612ab5565b60405180910390fd5b610d62836002611e97565b8273ffffffffffffffffffffffffffffffffffffffff167fe2406cfd356cfbe4e42d452bde96d27f48c423e5f02b5d78695893308399519d4283604051610daa929190612d7f565b60405180910390a2610dbd826004611e97565b8173ffffffffffffffffffffffffffffffffffffffff167fe2406cfd356cfbe4e42d452bde96d27f48c423e5f02b5d78695893308399519d4283604051610e05929190612d7f565b60405180910390a2505050565b3373ffffffffffffffffffffffffffffffffffffffff16600660009054906101000a900473ffffffffffffffffffffffffffffffffffffffff1673ffffffffffffffffffffffffffffffffffffffff1614610ea2576040517f08c379a0000000000000000000000000000000000000000000000000000000008152600401610e9990612b35565b60405180910390fd5b8273ffffffffffffffffffffffffffffffffffffffff16600560009054906101000a900473ffffffffffffffffffffffffffffffffffffffff1673ffffffffffffffffffffffffffffffffffffffff161415610f33576040517f08c379a0000000000000000000000000000000000000000000000000000000008152600401610f2a90612a35565b60405180910390fd5b6000825111610f77576040517f08c379a0000000000000000000000000000000000000000000000000000000008152600401610f6e90612ab5565b60405180910390fd5b6000815111610fbb576040517f08c379a0000000000000000000000000000000000000000000000000000000008152600401610fb290612a95565b60405180910390fd5b610fc6836008611e97565b8273ffffffffffffffffffffffffffffffffffffffff167fe2406cfd356cfbe4e42d452bde96d27f48c423e5f02b5d78695893308399519d428460405161100e929190612c73565b60405180910390a2505050565b60008060008373ffffffffffffffffffffffffffffffffffffffff1673ffffffffffffffffffffffffffffffffffffffff168152602001908152602001600020549050919050565b60606004805461107290612fc0565b80601f016020809104026020016040519081016040528092919081815260200182805461109e90612fc0565b80156110eb5780601f106110c0576101008083540402835291602001916110eb565b820191906000526020600020905b8154815290600101906020018083116110ce57829003601f168201915b5050505050905090565b3373ffffffffffffffffffffffffffffffffffffffff16600660009054906101000a900473ffffffffffffffffffffffffffffffffffffffff1673ffffffffffffffffffffffffffffffffffffffff1614611185576040517f08c379a000000000000000000000000000000000000000000000000000000000815260040161117c90612af5565b60405180910390fd5b8273ffffffffffffffffffffffffffffffffffffffff16600560009054906101000a900473ffffffffffffffffffffffffffffffffffffffff1673ffffffffffffffffffffffffffffffffffffffff161415611216576040517f08c379a000000000000000000000000000000000000000000000000000000000815260040161120d90612a35565b60405180910390fd5b8173ffffffffffffffffffffffffffffffffffffffff168373ffffffffffffffffffffffffffffffffffffffff161415611285576040517f08c379a000000000000000000000000000000000000000000000000000000000815260040161127c90612b15565b60405180910390fd5b60008151116112c9576040517f08c379a00000000000000000000000000000000000000000000000000000000081526004016112c090612ab5565b60405180910390fd5b6112d4836001611e97565b8273ffffffffffffffffffffffffffffffffffffffff167fe2406cfd356cfbe4e42d452bde96d27f48c423e5f02b5d78695893308399519d428360405161131c929190612cb6565b60405180910390a261132f826003611e97565b8173ffffffffffffffffffffffffffffffffffffffff167fe2406cfd356cfbe4e42d452bde96d27f48c423e5f02b5d78695893308399519d4283604051611377929190612cb6565b60405180910390a2505050565b60008060016000611393611cc4565b73ffffffffffffffffffffffffffffffffffffffff1673ffffffffffffffffffffffffffffffffffffffff16815260200190815260200160002060008573ffffffffffffffffffffffffffffffffffffffff1673ffffffffffffffffffffffffffffffffffffffff16815260200190815260200160002054905082811015611450576040517f08c379a000000000000000000000000000000000000000000000000000000000815260040161144790612bd5565b60405180910390fd5b61146461145b611cc4565b85858403611ccc565b600191505092915050565b600061148361147c611cc4565b8484611ff7565b6001905092915050565b3373ffffffffffffffffffffffffffffffffffffffff16600660009054906101000a900473ffffffffffffffffffffffffffffffffffffffff1673ffffffffffffffffffffffffffffffffffffffff161461151d576040517f08c379a000000000000000000000000000000000000000000000000000000000815260040161151490612af5565b60405180910390fd5b8273ffffffffffffffffffffffffffffffffffffffff16600560009054906101000a900473ffffffffffffffffffffffffffffffffffffffff1673ffffffffffffffffffffffffffffffffffffffff1614156115ae576040517f08c379a00000000000000000000000000000000000000000000000000000000081526004016115a590612a35565b60405180910390fd5b8173ffffffffffffffffffffffffffffffffffffffff168373ffffffffffffffffffffffffffffffffffffffff16141561161d576040517f08c379a000000000000000000000000000000000000000000000000000000000815260040161161490612b15565b60405180910390fd5b6000815111611661576040517f08c379a000000000000000000000000000000000000000000000000000000000815260040161165890612ab5565b60405180910390fd5b61166c836002611e97565b8273ffffffffffffffffffffffffffffffffffffffff167fe2406cfd356cfbe4e42d452bde96d27f48c423e5f02b5d78695893308399519d42836040516116b4929190612d3c565b60405180910390a26116c7826004611e97565b8173ffffffffffffffffffffffffffffffffffffffff167fe2406cfd356cfbe4e42d452bde96d27f48c423e5f02b5d78695893308399519d428360405161170f929190612cf9565b60405180910390a2505050565b6000600660009054906101000a900473ffffffffffffffffffffffffffffffffffffffff1673ffffffffffffffffffffffffffffffffffffffff163373ffffffffffffffffffffffffffffffffffffffff16146117ae576040517f08c379a00000000000000000000000000000000000000000000000000000000081526004016117a590612a55565b60405180910390fd5b81600660006101000a81548173ffffffffffffffffffffffffffffffffffffffff021916908373ffffffffffffffffffffffffffffffffffffffff1602179055508173ffffffffffffffffffffffffffffffffffffffff163373ffffffffffffffffffffffffffffffffffffffff167f86929e0d76ab21a1298b441b0304e9afc3b782b9427e04d6f12144fb4633b4e260405160405180910390a360019050919050565b6000600560009054906101000a900473ffffffffffffffffffffffffffffffffffffffff1673ffffffffffffffffffffffffffffffffffffffff163373ffffffffffffffffffffffffffffffffffffffff16146118e4576040517f08c379a00000000000000000000000000000000000000000000000000000000081526004016118db90612bb5565b60405180910390fd5b81600560006101000a81548173ffffffffffffffffffffffffffffffffffffffff021916908373ffffffffffffffffffffffffffffffffffffffff1602179055508173ffffffffffffffffffffffffffffffffffffffff163373ffffffffffffffffffffffffffffffffffffffff167f3b0007eb941cf645526cbb3a4fdaecda9d28ce4843167d9263b536a1f1edc0f660405160405180910390a360019050919050565b6000600160008473ffffffffffffffffffffffffffffffffffffffff1673ffffffffffffffffffffffffffffffffffffffff16815260200190815260200160002060008373ffffffffffffffffffffffffffffffffffffffff1673ffffffffffffffffffffffffffffffffffffffff16815260200190815260200160002054905092915050565b3373ffffffffffffffffffffffffffffffffffffffff16600660009054906101000a900473ffffffffffffffffffffffffffffffffffffffff1673ffffffffffffffffffffffffffffffffffffffff1614611a9f576040517f08c379a0000000000000000000000000000000000000000000000000000000008152600401611a9690612b35565b60405180910390fd5b8173ffffffffffffffffffffffffffffffffffffffff168373ffffffffffffffffffffffffffffffffffffffff161415611b0e576040517f08c379a0000000000000000000000000000000000000000000000000000000008152600401611b0590612b15565b60405180910390fd5b8273ffffffffffffffffffffffffffffffffffffffff16600560009054906101000a900473ffffffffffffffffffffffffffffffffffffffff1673ffffffffffffffffffffffffffffffffffffffff161415611b9f576040517f08c379a0000000000000000000000000000000000000000000000000000000008152600401611b9690612a35565b60405180910390fd5b6000815111611be3576040517f08c379a0000000000000000000000000000000000000000000000000000000008152600401611bda90612ab5565b60405180910390fd5b611bee836002611e97565b8273ffffffffffffffffffffffffffffffffffffffff167fe2406cfd356cfbe4e42d452bde96d27f48c423e5f02b5d78695893308399519d4283604051611c36929190612c30565b60405180910390a2611c49826005611e97565b8173ffffffffffffffffffffffffffffffffffffffff167fe2406cfd356cfbe4e42d452bde96d27f48c423e5f02b5d78695893308399519d4283604051611c91929190612c30565b60405180910390a2505050565b600660009054906101000a900473ffffffffffffffffffffffffffffffffffffffff1681565b600033905090565b600073ffffffffffffffffffffffffffffffffffffffff168373ffffffffffffffffffffffffffffffffffffffff161415611d3c576040517f08c379a0000000000000000000000000000000000000000000000000000000008152600401611d3390612b95565b60405180910390fd5b600073ffffffffffffffffffffffffffffffffffffffff168273ffffffffffffffffffffffffffffffffffffffff161415611dac576040517f08c379a0000000000000000000000000000000000000000000000000000000008152600401611da390612a15565b60405180910390fd5b80600160008573ffffffffffffffffffffffffffffffffffffffff1673ffffffffffffffffffffffffffffffffffffffff16815260200190815260200160002060008473ffffffffffffffffffffffffffffffffffffffff1673ffffffffffffffffffffffffffffffffffffffff168152602001908152602001600020819055508173ffffffffffffffffffffffffffffffffffffffff168373ffffffffffffffffffffffffffffffffffffffff167f8c5be1e5ebec7d5bd14f71427d1e84f3dd0314c0f7b2291e5b200ac8c7c3b92583604051611e8a9190612c15565b60405180910390a3505050565b600073ffffffffffffffffffffffffffffffffffffffff168273ffffffffffffffffffffffffffffffffffffffff161415611f07576040517f08c379a0000000000000000000000000000000000000000000000000000000008152600401611efe90612bf5565b60405180910390fd5b611f1360008383612278565b8060026000828254611f259190612ed3565b92505081905550806000808473ffffffffffffffffffffffffffffffffffffffff1673ffffffffffffffffffffffffffffffffffffffff1681526020019081526020016000206000828254611f7a9190612ed3565b925050819055508173ffffffffffffffffffffffffffffffffffffffff16600073ffffffffffffffffffffffffffffffffffffffff167fddf252ad1be2c89b69c2b068fc378daa952ba7f163c4a11628f55a4df523b3ef83604051611fdf9190612c15565b60405180910390a3611ff36000838361227d565b5050565b600073ffffffffffffffffffffffffffffffffffffffff168373ffffffffffffffffffffffffffffffffffffffff161415612067576040517f08c379a000000000000000000000000000000000000000000000000000000000815260040161205e90612b55565b60405180910390fd5b600073ffffffffffffffffffffffffffffffffffffffff168273ffffffffffffffffffffffffffffffffffffffff1614156120d7576040517f08c379a00000000000000000000000000000000000000000000000000000000081526004016120ce906129f5565b60405180910390fd5b6120e2838383612278565b60008060008573ffffffffffffffffffffffffffffffffffffffff1673ffffffffffffffffffffffffffffffffffffffff16815260200190815260200160002054905081811015612168576040517f08c379a000000000000000000000000000000000000000000000000000000000815260040161215f90612a75565b60405180910390fd5b8181036000808673ffffffffffffffffffffffffffffffffffffffff1673ffffffffffffffffffffffffffffffffffffffff16815260200190815260200160002081905550816000808573ffffffffffffffffffffffffffffffffffffffff1673ffffffffffffffffffffffffffffffffffffffff16815260200190815260200160002060008282546121fb9190612ed3565b925050819055508273ffffffffffffffffffffffffffffffffffffffff168473ffffffffffffffffffffffffffffffffffffffff167fddf252ad1be2c89b69c2b068fc378daa952ba7f163c4a11628f55a4df523b3ef8460405161225f9190612c15565b60405180910390a361227284848461227d565b50505050565b505050565b505050565b600061229561229084612e86565b612e61565b9050828152602081018484840111156122b1576122b06130b5565b5b6122bc848285612f7e565b509392505050565b6000813590506122d38161367b565b92915050565b6000813590506122e881613692565b92915050565b600082601f830112612303576123026130b0565b5b8135612313848260208601612282565b91505092915050565b60008135905061232b816136a9565b92915050565b600060208284031215612347576123466130bf565b5b6000612355848285016122c4565b91505092915050565b60008060408385031215612375576123746130bf565b5b6000612383858286016122c4565b9250506020612394858286016122c4565b9150509250929050565b6000806000606084860312156123b7576123b66130bf565b5b60006123c5868287016122c4565b93505060206123d6868287016122c4565b925050604084013567ffffffffffffffff8111156123f7576123f66130ba565b5b612403868287016122ee565b9150509250925092565b600080600060608486031215612426576124256130bf565b5b6000612434868287016122c4565b9350506020612445868287016122c4565b92505060406124568682870161231c565b9150509250925092565b600080600060608486031215612479576124786130bf565b5b6000612487868287016122c4565b935050602084013567ffffffffffffffff8111156124a8576124a76130ba565b5b6124b4868287016122ee565b92505060406124c5868287016122d9565b9150509250925092565b6000806000606084860312156124e8576124e76130bf565b5b60006124f6868287016122c4565b935050602084013567ffffffffffffffff811115612517576125166130ba565b5b612523868287016122ee565b925050604084013567ffffffffffffffff811115612544576125436130ba565b5b612550868287016122ee565b9150509250925092565b60008060408385031215612571576125706130bf565b5b600061257f858286016122c4565b92505060206125908582860161231c565b9150509250929050565b6125a381612f29565b82525050565b6125b281612f3b565b82525050565b60006125c382612eb7565b6125cd8185612ec2565b93506125dd818560208601612f8d565b6125e6816130c4565b840191505092915050565b60006125fe602383612ec2565b9150612609826130d5565b604082019050919050565b6000612621600483612ec2565b915061262c82613124565b602082019050919050565b6000612644602283612ec2565b915061264f8261314d565b604082019050919050565b6000612667601c83612ec2565b91506126728261319c565b602082019050919050565b600061268a600483612ec2565b9150612695826131c5565b602082019050919050565b60006126ad602783612ec2565b91506126b8826131ee565b604082019050919050565b60006126d0600383612ec2565b91506126db8261323d565b602082019050919050565b60006126f3602683612ec2565b91506126fe82613266565b604082019050919050565b6000612716600a83612ec2565b9150612721826132b5565b602082019050919050565b6000612739600c83612ec2565b9150612744826132de565b602082019050919050565b600061275c601683612ec2565b915061276782613307565b602082019050919050565b600061277f600683612ec2565b915061278a82613330565b602082019050919050565b60006127a2600383612ec2565b91506127ad82613359565b602082019050919050565b60006127c5601583612ec2565b91506127d082613382565b602082019050919050565b60006127e8602883612ec2565b91506127f3826133ab565b604082019050919050565b600061280b600483612ec2565b9150612816826133fa565b602082019050919050565b600061282e601483612ec2565b915061283982613423565b602082019050919050565b6000612851601383612ec2565b915061285c8261344c565b602082019050919050565b6000612874602183612ec2565b915061287f82613475565b604082019050919050565b6000612897602583612ec2565b91506128a2826134c4565b604082019050919050565b60006128ba601783612ec2565b91506128c582613513565b602082019050919050565b60006128dd602483612ec2565b91506128e88261353c565b604082019050919050565b6000612900600683612ec2565b915061290b8261358b565b602082019050919050565b6000612923602d83612ec2565b915061292e826135b4565b604082019050919050565b6000612946602583612ec2565b915061295182613603565b604082019050919050565b6000612969601f83612ec2565b915061297482613652565b602082019050919050565b61298881612f67565b82525050565b61299781612f71565b82525050565b60006020820190506129b2600083018461259a565b92915050565b60006020820190506129cd60008301846125a9565b92915050565b600060208201905081810360008301526129ed81846125b8565b905092915050565b60006020820190508181036000830152612a0e816125f1565b9050919050565b60006020820190508181036000830152612a2e81612637565b9050919050565b60006020820190508181036000830152612a4e8161265a565b9050919050565b60006020820190508181036000830152612a6e816126a0565b9050919050565b60006020820190508181036000830152612a8e816126e6565b9050919050565b60006020820190508181036000830152612aae8161274f565b9050919050565b60006020820190508181036000830152612ace816127b8565b9050919050565b60006020820190508181036000830152612aee816127db565b9050919050565b60006020820190508181036000830152612b0e81612821565b9050919050565b60006020820190508181036000830152612b2e81612844565b9050919050565b60006020820190508181036000830152612b4e81612867565b9050919050565b60006020820190508181036000830152612b6e8161288a565b9050919050565b60006020820190508181036000830152612b8e816128ad565b9050919050565b60006020820190508181036000830152612bae816128d0565b9050919050565b60006020820190508181036000830152612bce81612916565b9050919050565b60006020820190508181036000830152612bee81612939565b9050919050565b60006020820190508181036000830152612c0e8161295c565b9050919050565b6000602082019050612c2a600083018461297f565b92915050565b6000606082019050612c45600083018561297f565b8181036020830152612c5781846125b8565b90508181036040830152612c6a81612614565b90509392505050565b6000606082019050612c88600083018561297f565b8181036020830152612c9a81846125b8565b90508181036040830152612cad8161267d565b90509392505050565b6000606082019050612ccb600083018561297f565b8181036020830152612cdd81846125b8565b90508181036040830152612cf0816126c3565b90509392505050565b6000606082019050612d0e600083018561297f565b8181036020830152612d2081846125b8565b90508181036040830152612d3381612709565b90509392505050565b6000606082019050612d51600083018561297f565b8181036020830152612d6381846125b8565b90508181036040830152612d768161272c565b90509392505050565b6000606082019050612d94600083018561297f565b8181036020830152612da681846125b8565b90508181036040830152612db981612772565b90509392505050565b6000606082019050612dd7600083018561297f565b8181036020830152612de981846125b8565b90508181036040830152612dfc816127fe565b90509392505050565b6000606082019050612e1a600083018461297f565b8181036020830152612e2b81612795565b90508181036040830152612e3e816128f3565b905092915050565b6000602082019050612e5b600083018461298e565b92915050565b6000612e6b612e7c565b9050612e778282612ff2565b919050565b6000604051905090565b600067ffffffffffffffff821115612ea157612ea0613081565b5b612eaa826130c4565b9050602081019050919050565b600081519050919050565b600082825260208201905092915050565b6000612ede82612f67565b9150612ee983612f67565b9250827fffffffffffffffffffffffffffffffffffffffffffffffffffffffffffffffff03821115612f1e57612f1d613023565b5b828201905092915050565b6000612f3482612f47565b9050919050565b60008115159050919050565b600073ffffffffffffffffffffffffffffffffffffffff82169050919050565b6000819050919050565b600060ff82169050919050565b82818337600083830152505050565b60005b83811015612fab578082015181840152602081019050612f90565b83811115612fba576000848401525b50505050565b60006002820490506001821680612fd857607f821691505b60208210811415612fec57612feb613052565b5b50919050565b612ffb826130c4565b810181811067ffffffffffffffff8211171561301a57613019613081565b5b80604052505050565b7f4e487b7100000000000000000000000000000000000000000000000000000000600052601160045260246000fd5b7f4e487b7100000000000000000000000000000000000000000000000000000000600052602260045260246000fd5b7f4e487b7100000000000000000000000000000000000000000000000000000000600052604160045260246000fd5b600080fd5b600080fd5b600080fd5b600080fd5b6000601f19601f8301169050919050565b7f45524332303a207472616e7366657220746f20746865207a65726f206164647260008201527f6573730000000000000000000000000000000000000000000000000000000000602082015250565b7f4c494b4500000000000000000000000000000000000000000000000000000000600082015250565b7f45524332303a20617070726f766520746f20746865207a65726f20616464726560008201527f7373000000000000000000000000000000000000000000000000000000000000602082015250565b7f4572726f723a20227765222063616e6e6f742063616c6c206d696e7400000000600082015250565b7f504f535400000000000000000000000000000000000000000000000000000000600082015250565b7f4572726f722c206f6e6c792063616c6c65722063616e2070617373206d696e7460008201527f657220726f6c6500000000000000000000000000000000000000000000000000602082015250565b7f5441470000000000000000000000000000000000000000000000000000000000600082015250565b7f45524332303a207472616e7366657220616d6f756e742065786365656473206260008201527f616c616e63650000000000000000000000000000000000000000000000000000602082015250565b7f524553504f4e4420544f00000000000000000000000000000000000000000000600082015250565b7f524553504f4e442046524f4d0000000000000000000000000000000000000000600082015250565b7f4572726f723a206e6f207465787420696e20706f737400000000000000000000600082015250565b7f4355524154450000000000000000000000000000000000000000000000000000600082015250565b7f3078300000000000000000000000000000000000000000000000000000000000600082015250565b7f4572726f723a206e6f20706f7374206578697374730000000000000000000000600082015250565b7f45524332303a207472616e7366657220616d6f756e742065786365656473206160008201527f6c6c6f77616e6365000000000000000000000000000000000000000000000000602082015250565b7f4a55525900000000000000000000000000000000000000000000000000000000600082015250565b7f4572726f723a2077726f6e67206163636f756e74000000000000000000000000600082015250565b7f4572726f723a2073616d65206163636f756e7400000000000000000000000000600082015250565b7f4572726f723a2077726f6e67206163636f756e742063616c6c696e67206d696e60008201527f7400000000000000000000000000000000000000000000000000000000000000602082015250565b7f45524332303a207472616e736665722066726f6d20746865207a65726f20616460008201527f6472657373000000000000000000000000000000000000000000000000000000602082015250565b7f4572726f723a20227765222063616e6e6f74206d696e74000000000000000000600082015250565b7f45524332303a20617070726f76652066726f6d20746865207a65726f2061646460008201527f7265737300000000000000000000000000000000000000000000000000000000602082015250565b7f464f4c4c4f570000000000000000000000000000000000000000000000000000600082015250565b7f4572726f722c206f6e6c79206f776e65722063616e206368616e67652070617360008201527f73206d696e74657220726f6c6500000000000000000000000000000000000000602082015250565b7f45524332303a2064656372656173656420616c6c6f77616e63652062656c6f7760008201527f207a65726f000000000000000000000000000000000000000000000000000000602082015250565b7f45524332303a206d696e7420746f20746865207a65726f206164647265737300600082015250565b61368481612f29565b811461368f57600080fd5b50565b61369b81612f3b565b81146136a657600080fd5b50565b6136b281612f67565b81146136bd57600080fd5b5056fea2646970667358221220a55f253d6eb07c169e5a1c24cfadf0c3f55b2c0c56504505fead7f3e12c0d48b64736f6c63430008070033",
  "immutableReferences": {},
  "source": "// SPDX-License-Identifier: MIT\n\npragma solidity >=0.8.0 <0.9.0;\n\nimport \"@openzeppelin/contracts/token/ERC20/ERC20.sol\";\n\ncontract UME is ERC20 {\n\n  // minter's address\n  address public minter;\n  address public caller;\n\n  // minter role has changed to We\n  event MinterChanged(address indexed accountFrom, address indexed accountTo);\n  event CallerChanged(address indexed accountFrom, address indexed accountTo);\n  // minting events\n  event Minted(address indexed account, uint time, string postHash, string flag);\n\n  constructor() public payable ERC20(\"uMe token\", \"UME\") {\n    // assign minter & caller roles\n    minter = msg.sender;\n    caller = msg.sender;\n  }\n\n  function mintPost(address account, string memory _postHash, string memory _postText) public {\n    // make sure minter is same as sender\n    require(caller==msg.sender, 'Error: wrong account calling mint');\n    require(minter!=account, 'Error: \"we\" cannot call mint');\n    require(bytes(_postHash).length > 0, 'Error: no post exists'); // check if post hash exists\n    require(bytes(_postText).length > 0, 'Error: no text in post'); // check if there's text in post\n    // mint UME token for Posted\n    _mint(address(account), 8);\n    // set event for minted Posted UME tokens\n    emit Minted(account, block.timestamp, _postHash, 'POST');\n  }\n  function mintLike(address accountFrom, address accountTo, string memory _postHash) public { // 2:5 Liker:Liked\n    require(caller==msg.sender, 'Error: wrong account calling mint');\n    require(accountFrom!=accountTo, 'Error: same account');\n    require(minter!=accountFrom, 'Error: \"we\" cannot call mint');\n    require(bytes(_postHash).length > 0, 'Error: no post exists');\n    // mint a LIKE token for liker\n    _mint(address(accountFrom), 2);\n    // set event for LIKE token FROM\n    emit Minted(accountFrom, block.timestamp, _postHash, 'LIKE');\n    // mint LIKE tokens for likee\n    _mint(address(accountTo), 5);\n    // set event for LIKE token TO\n    emit Minted(accountTo, block.timestamp, _postHash, 'LIKE');\n  }\n  function mintTag(address accountFrom, address accountTo, string memory _postHash) public { // 1:3 Tagger:Tagged\n    require(caller==msg.sender, 'Error: wrong account');\n    require(minter!=accountFrom, 'Error: \"we\" cannot call mint');\n    require(accountFrom!=accountTo, 'Error: same account');\n    require(bytes(_postHash).length > 0, 'Error: no post exists');\n    // mint a TAG token for tagger\n    _mint(accountFrom, 1);\n    // set event for TAG token FROM\n    emit Minted(accountFrom, block.timestamp, _postHash, 'TAG');\n    // mint TAG tokens for taggee\n    _mint(accountTo, 3);\n    // set event for TAG token TO\n    emit Minted(accountTo, block.timestamp, _postHash, 'TAG');\n  }\n  function mintFollow(address accountFrom, address accountTo) public { // 1:3 Follower:Followed\n    require(caller==msg.sender, 'Error: wrong account');\n    require(minter!=accountFrom, 'Error: \"we\" cannot call mint');\n    require(accountFrom!=accountTo, 'Error: same account'); // doesn't mint tokens if tagged oneself\n    // mint a FOLLOW token for follower\n    _mint(accountFrom, 1);\n    // set event for FOLLOW token FROM\n    emit Minted(accountFrom, block.timestamp, '0x0', 'FOLLOW');\n    // mint FOLLOW tokens for followed\n    _mint(accountTo, 6);\n    // set event for FOLLOW token TO\n    emit Minted(accountTo, block.timestamp, '0x0','FOLLOW');\n  }\n  function mintRespond(address accountFrom, address accountTo, string memory _postHash) public { // 2:4 Responder:Responded\n    require(caller==msg.sender, 'Error: wrong account');\n    require(minter!=accountFrom, 'Error: \"we\" cannot call mint');\n    require(accountFrom!=accountTo, 'Error: same account');\n    require(bytes(_postHash).length > 0, 'Error: no post exists');\n    // mint a RESPOND token for responder\n    _mint(accountFrom, 2);\n    // set event for RESPOND token FROM\n    emit Minted(accountFrom, block.timestamp, _postHash, 'RESPOND FROM');\n    // mint RESPOND tokens for responded\n    _mint(accountTo, 4);\n    // set event for RESPOND token TO\n    emit Minted(accountTo, block.timestamp, _postHash, 'RESPOND TO');\n  }\n  function mintCurate(address accountFrom, address accountTo, string memory _postHash) public { // 2:4 Responder:Responded\n    require(caller==msg.sender, 'Error: wrong account');\n    require(minter!=accountFrom, 'Error: \"we\" cannot mint');\n    require(accountFrom!=accountTo, 'Error: same account'); // doesn't mint tokens if tagged oneself\n    require(bytes(_postHash).length > 0, 'Error: no post exists');\n    // mint a CURATE token for curatee\n    _mint(accountFrom, 2);\n    // set event for CURATE token FROM\n    emit Minted(accountFrom, block.timestamp, _postHash, 'CURATE');\n    // mint CURATE tokens for curator\n    _mint(accountTo, 4);\n    // set event for CURATE token TO\n    emit Minted(accountTo, block.timestamp, _postHash, 'CURATE');\n  }\n\n  function mintJury(address account, string memory _postHash, bool consensusReached) public { // 4 Juror token if no consensus reached, 24 if consensus reached\n    require(caller==msg.sender, 'Error: wrong account');\n    require(minter!=account, 'Error: \"we\" cannot mint');\n    require(bytes(_postHash).length > 0, 'Error: no post exists');\n    if(consensusReached==true){\n      // mint 10 JURY token for juror\n      _mint(account, 24);\n      // set event for JURY token consensus reached\n      emit Minted(account, block.timestamp, _postHash, 'JURY');\n    } else if(consensusReached==false){\n      // mint a JURY token for juror\n      _mint(account, 4);\n      // set event for JURY no consensus reached\n      emit Minted(account, block.timestamp, _postHash, 'JURY');\n    }\n  }\n\n  function passMinterRole(address we) public returns (bool) {\n    require(msg.sender == minter, 'Error, only owner can change pass minter role');\n    minter = we;\n\n    emit MinterChanged(msg.sender, we);\n    return true;\n  }\n\n  function passCallerRole(address timeline) public returns (bool) {\n    require(msg.sender == caller, 'Error, only caller can pass minter role');\n\n    caller = timeline;\n    emit CallerChanged(msg.sender, timeline);\n    return true;\n  }\n}\n",
  "sourcePath": "/Users/jaiq/Documents/000 BLOCKCHAIN/ETH/uMe/src/contracts/UME.sol",
  "compiler": {
    "name": "solc",
    "version": "0.8.7+commit.e28d00a7.Emscripten.clang"
  },
  "schemaVersion": "3.4.3",
  "updatedAt": "2021-08-20T06:00:14.970Z",
  "networkType": "ethereum",
  "devdoc": {
    "kind": "dev",
    "methods": {
      "allowance(address,address)": {
        "details": "See {IERC20-allowance}."
      },
      "approve(address,uint256)": {
        "details": "See {IERC20-approve}. Requirements: - `spender` cannot be the zero address."
      },
      "balanceOf(address)": {
        "details": "See {IERC20-balanceOf}."
      },
      "decimals()": {
        "details": "Returns the number of decimals used to get its user representation. For example, if `decimals` equals `2`, a balance of `505` tokens should be displayed to a user as `5.05` (`505 / 10 ** 2`). Tokens usually opt for a value of 18, imitating the relationship between Ether and Wei. This is the value {ERC20} uses, unless this function is overridden; NOTE: This information is only used for _display_ purposes: it in no way affects any of the arithmetic of the contract, including {IERC20-balanceOf} and {IERC20-transfer}."
      },
      "decreaseAllowance(address,uint256)": {
        "details": "Atomically decreases the allowance granted to `spender` by the caller. This is an alternative to {approve} that can be used as a mitigation for problems described in {IERC20-approve}. Emits an {Approval} event indicating the updated allowance. Requirements: - `spender` cannot be the zero address. - `spender` must have allowance for the caller of at least `subtractedValue`."
      },
      "increaseAllowance(address,uint256)": {
        "details": "Atomically increases the allowance granted to `spender` by the caller. This is an alternative to {approve} that can be used as a mitigation for problems described in {IERC20-approve}. Emits an {Approval} event indicating the updated allowance. Requirements: - `spender` cannot be the zero address."
      },
      "name()": {
        "details": "Returns the name of the token."
      },
      "symbol()": {
        "details": "Returns the symbol of the token, usually a shorter version of the name."
      },
      "totalSupply()": {
        "details": "See {IERC20-totalSupply}."
      },
      "transfer(address,uint256)": {
        "details": "See {IERC20-transfer}. Requirements: - `recipient` cannot be the zero address. - the caller must have a balance of at least `amount`."
      },
      "transferFrom(address,address,uint256)": {
        "details": "See {IERC20-transferFrom}. Emits an {Approval} event indicating the updated allowance. This is not required by the EIP. See the note at the beginning of {ERC20}. Requirements: - `sender` and `recipient` cannot be the zero address. - `sender` must have a balance of at least `amount`. - the caller must have allowance for ``sender``'s tokens of at least `amount`."
      }
    },
    "version": 1
  },
  "userdoc": {
    "kind": "user",
    "methods": {},
    "version": 1
  }
}