{
  "contractName": "UME",
  "abi": [
    {
      "inputs": [],
      "stateMutability": "payable",
      "type": "constructor",
      "payable": true
    },
    {
      "anonymous": false,
      "inputs": [
        {
          "indexed": true,
          "internalType": "address",
          "name": "owner",
          "type": "address"
        },
        {
          "indexed": true,
          "internalType": "address",
          "name": "spender",
          "type": "address"
        },
        {
          "indexed": false,
          "internalType": "uint256",
          "name": "value",
          "type": "uint256"
        }
      ],
      "name": "Approval",
      "type": "event"
    },
    {
      "anonymous": false,
      "inputs": [
        {
          "indexed": true,
          "internalType": "address",
          "name": "from",
          "type": "address"
        },
        {
          "indexed": true,
          "internalType": "address",
          "name": "to",
          "type": "address"
        }
      ],
      "name": "FollowSignerChanged",
      "type": "event"
    },
    {
      "anonymous": false,
      "inputs": [
        {
          "indexed": true,
          "internalType": "address",
          "name": "from",
          "type": "address"
        },
        {
          "indexed": true,
          "internalType": "address",
          "name": "to",
          "type": "address"
        }
      ],
      "name": "LikeSignerChanged",
      "type": "event"
    },
    {
      "anonymous": false,
      "inputs": [
        {
          "indexed": true,
          "internalType": "address",
          "name": "account",
          "type": "address"
        },
        {
          "indexed": false,
          "internalType": "uint256",
          "name": "time",
          "type": "uint256"
        },
        {
          "indexed": false,
          "internalType": "string",
          "name": "flag",
          "type": "string"
        }
      ],
      "name": "Minted",
      "type": "event"
    },
    {
      "anonymous": false,
      "inputs": [
        {
          "indexed": true,
          "internalType": "address",
          "name": "from",
          "type": "address"
        },
        {
          "indexed": true,
          "internalType": "address",
          "name": "to",
          "type": "address"
        }
      ],
      "name": "MinterChanged",
      "type": "event"
    },
    {
      "anonymous": false,
      "inputs": [
        {
          "indexed": true,
          "internalType": "address",
          "name": "from",
          "type": "address"
        },
        {
          "indexed": true,
          "internalType": "address",
          "name": "to",
          "type": "address"
        }
      ],
      "name": "PostSignerChanged",
      "type": "event"
    },
    {
      "anonymous": false,
      "inputs": [
        {
          "indexed": true,
          "internalType": "address",
          "name": "from",
          "type": "address"
        },
        {
          "indexed": true,
          "internalType": "address",
          "name": "to",
          "type": "address"
        },
        {
          "indexed": false,
          "internalType": "uint256",
          "name": "value",
          "type": "uint256"
        }
      ],
      "name": "Transfer",
      "type": "event"
    },
    {
      "inputs": [
        {
          "internalType": "address",
          "name": "owner",
          "type": "address"
        },
        {
          "internalType": "address",
          "name": "spender",
          "type": "address"
        }
      ],
      "name": "allowance",
      "outputs": [
        {
          "internalType": "uint256",
          "name": "",
          "type": "uint256"
        }
      ],
      "stateMutability": "view",
      "type": "function",
      "constant": true
    },
    {
      "inputs": [
        {
          "internalType": "address",
          "name": "spender",
          "type": "address"
        },
        {
          "internalType": "uint256",
          "name": "amount",
          "type": "uint256"
        }
      ],
      "name": "approve",
      "outputs": [
        {
          "internalType": "bool",
          "name": "",
          "type": "bool"
        }
      ],
      "stateMutability": "nonpayable",
      "type": "function"
    },
    {
      "inputs": [
        {
          "internalType": "address",
          "name": "account",
          "type": "address"
        }
      ],
      "name": "balanceOf",
      "outputs": [
        {
          "internalType": "uint256",
          "name": "",
          "type": "uint256"
        }
      ],
      "stateMutability": "view",
      "type": "function",
      "constant": true
    },
    {
      "inputs": [],
      "name": "decimals",
      "outputs": [
        {
          "internalType": "uint8",
          "name": "",
          "type": "uint8"
        }
      ],
      "stateMutability": "view",
      "type": "function",
      "constant": true
    },
    {
      "inputs": [
        {
          "internalType": "address",
          "name": "spender",
          "type": "address"
        },
        {
          "internalType": "uint256",
          "name": "subtractedValue",
          "type": "uint256"
        }
      ],
      "name": "decreaseAllowance",
      "outputs": [
        {
          "internalType": "bool",
          "name": "",
          "type": "bool"
        }
      ],
      "stateMutability": "nonpayable",
      "type": "function"
    },
    {
      "inputs": [],
      "name": "followSigner",
      "outputs": [
        {
          "internalType": "address",
          "name": "",
          "type": "address"
        }
      ],
      "stateMutability": "view",
      "type": "function",
      "constant": true
    },
    {
      "inputs": [
        {
          "internalType": "address",
          "name": "spender",
          "type": "address"
        },
        {
          "internalType": "uint256",
          "name": "addedValue",
          "type": "uint256"
        }
      ],
      "name": "increaseAllowance",
      "outputs": [
        {
          "internalType": "bool",
          "name": "",
          "type": "bool"
        }
      ],
      "stateMutability": "nonpayable",
      "type": "function"
    },
    {
      "inputs": [],
      "name": "likeSigner",
      "outputs": [
        {
          "internalType": "address",
          "name": "",
          "type": "address"
        }
      ],
      "stateMutability": "view",
      "type": "function",
      "constant": true
    },
    {
      "inputs": [],
      "name": "minter",
      "outputs": [
        {
          "internalType": "address",
          "name": "",
          "type": "address"
        }
      ],
      "stateMutability": "view",
      "type": "function",
      "constant": true
    },
    {
      "inputs": [],
      "name": "name",
      "outputs": [
        {
          "internalType": "string",
          "name": "",
          "type": "string"
        }
      ],
      "stateMutability": "view",
      "type": "function",
      "constant": true
    },
    {
      "inputs": [],
      "name": "postSigner",
      "outputs": [
        {
          "internalType": "address",
          "name": "",
          "type": "address"
        }
      ],
      "stateMutability": "view",
      "type": "function",
      "constant": true
    },
    {
      "inputs": [],
      "name": "symbol",
      "outputs": [
        {
          "internalType": "string",
          "name": "",
          "type": "string"
        }
      ],
      "stateMutability": "view",
      "type": "function",
      "constant": true
    },
    {
      "inputs": [],
      "name": "totalSupply",
      "outputs": [
        {
          "internalType": "uint256",
          "name": "",
          "type": "uint256"
        }
      ],
      "stateMutability": "view",
      "type": "function",
      "constant": true
    },
    {
      "inputs": [
        {
          "internalType": "address",
          "name": "recipient",
          "type": "address"
        },
        {
          "internalType": "uint256",
          "name": "amount",
          "type": "uint256"
        }
      ],
      "name": "transfer",
      "outputs": [
        {
          "internalType": "bool",
          "name": "",
          "type": "bool"
        }
      ],
      "stateMutability": "nonpayable",
      "type": "function"
    },
    {
      "inputs": [
        {
          "internalType": "address",
          "name": "sender",
          "type": "address"
        },
        {
          "internalType": "address",
          "name": "recipient",
          "type": "address"
        },
        {
          "internalType": "uint256",
          "name": "amount",
          "type": "uint256"
        }
      ],
      "name": "transferFrom",
      "outputs": [
        {
          "internalType": "bool",
          "name": "",
          "type": "bool"
        }
      ],
      "stateMutability": "nonpayable",
      "type": "function"
    },
    {
      "inputs": [
        {
          "internalType": "address",
          "name": "_account",
          "type": "address"
        },
        {
          "internalType": "string",
          "name": "_postText",
          "type": "string"
        }
      ],
      "name": "mintPost",
      "outputs": [],
      "stateMutability": "nonpayable",
      "type": "function"
    },
    {
      "inputs": [
        {
          "internalType": "address",
          "name": "_from",
          "type": "address"
        },
        {
          "internalType": "address",
          "name": "_to",
          "type": "address"
        }
      ],
      "name": "mintLike",
      "outputs": [],
      "stateMutability": "nonpayable",
      "type": "function"
    },
    {
      "inputs": [
        {
          "internalType": "address",
          "name": "_from",
          "type": "address"
        },
        {
          "internalType": "address",
          "name": "_to",
          "type": "address"
        }
      ],
      "name": "mintTag",
      "outputs": [],
      "stateMutability": "nonpayable",
      "type": "function"
    },
    {
      "inputs": [
        {
          "internalType": "address",
          "name": "_from",
          "type": "address"
        },
        {
          "internalType": "address",
          "name": "_to",
          "type": "address"
        }
      ],
      "name": "mintFollow",
      "outputs": [],
      "stateMutability": "nonpayable",
      "type": "function"
    },
    {
      "inputs": [
        {
          "internalType": "address",
          "name": "_from",
          "type": "address"
        },
        {
          "internalType": "address",
          "name": "_to",
          "type": "address"
        }
      ],
      "name": "mintRespond",
      "outputs": [],
      "stateMutability": "nonpayable",
      "type": "function"
    },
    {
      "inputs": [
        {
          "internalType": "address",
          "name": "_from",
          "type": "address"
        },
        {
          "internalType": "address",
          "name": "_to",
          "type": "address"
        }
      ],
      "name": "mintCurate",
      "outputs": [],
      "stateMutability": "nonpayable",
      "type": "function"
    },
    {
      "inputs": [
        {
          "internalType": "address",
          "name": "_from",
          "type": "address"
        },
        {
          "internalType": "address",
          "name": "_to",
          "type": "address"
        }
      ],
      "name": "mintRepost",
      "outputs": [],
      "stateMutability": "nonpayable",
      "type": "function"
    },
    {
      "inputs": [
        {
          "internalType": "address",
          "name": "_we",
          "type": "address"
        }
      ],
      "name": "passMinterRole",
      "outputs": [
        {
          "internalType": "bool",
          "name": "",
          "type": "bool"
        }
      ],
      "stateMutability": "nonpayable",
      "type": "function"
    },
    {
      "inputs": [
        {
          "internalType": "address",
          "name": "_post",
          "type": "address"
        }
      ],
      "name": "passPostSignerRole",
      "outputs": [
        {
          "internalType": "bool",
          "name": "",
          "type": "bool"
        }
      ],
      "stateMutability": "nonpayable",
      "type": "function"
    },
    {
      "inputs": [
        {
          "internalType": "address",
          "name": "_like",
          "type": "address"
        }
      ],
      "name": "passLikeSignerRole",
      "outputs": [
        {
          "internalType": "bool",
          "name": "",
          "type": "bool"
        }
      ],
      "stateMutability": "nonpayable",
      "type": "function"
    },
    {
      "inputs": [
        {
          "internalType": "address",
          "name": "_follow",
          "type": "address"
        }
      ],
      "name": "passFollowSignerRole",
      "outputs": [
        {
          "internalType": "bool",
          "name": "",
          "type": "bool"
        }
      ],
      "stateMutability": "nonpayable",
      "type": "function"
    }
  ],
  "bytecode": "0x60806040526040518060400160405280600981526020017f754d6520746f6b656e00000000000000000000000000000000000000000000008152506040518060400160405280600381526020017f554d450000000000000000000000000000000000000000000000000000000000815250816003908051906020019062000088929190620001ae565b508060049080519060200190620000a1929190620001ae565b50505033600560006101000a81548173ffffffffffffffffffffffffffffffffffffffff021916908373ffffffffffffffffffffffffffffffffffffffff16021790555033600660006101000a81548173ffffffffffffffffffffffffffffffffffffffff021916908373ffffffffffffffffffffffffffffffffffffffff16021790555033600760006101000a81548173ffffffffffffffffffffffffffffffffffffffff021916908373ffffffffffffffffffffffffffffffffffffffff16021790555033600860006101000a81548173ffffffffffffffffffffffffffffffffffffffff021916908373ffffffffffffffffffffffffffffffffffffffff160217905550620002c3565b828054620001bc906200025e565b90600052602060002090601f016020900481019282620001e057600085556200022c565b82601f10620001fb57805160ff19168380011785556200022c565b828001600101855582156200022c579182015b828111156200022b5782518255916020019190600101906200020e565b5b5090506200023b91906200023f565b5090565b5b808211156200025a57600081600090555060010162000240565b5090565b600060028204905060018216806200027757607f821691505b602082108114156200028e576200028d62000294565b5b50919050565b7f4e487b7100000000000000000000000000000000000000000000000000000000600052602260045260246000fd5b61384680620002d36000396000f3fe608060405234801561001057600080fd5b506004361061018e5760003560e01c8063829a262c116100de578063bc83419511610097578063d7fc5b1511610071578063d7fc5b15146104bf578063dd62ed3e146104ef578063e981dc8f1461051f578063f52548d41461053b5761018e565b8063bc83419514610457578063c11f710b14610473578063d0449589146104a35761018e565b8063829a262c1461037f5780638c98876f1461039d57806395d89b41146103bb578063a457c2d7146103d9578063a9059cbb14610409578063b8e3bfb8146104395761018e565b80632cc67a7c1161014b578063395093511161012557806339509351146102d357806357a2bb291461030357806370a082311461033357806376bd8f8c146103635761018e565b80632cc67a7c1461027d5780632d599ba514610299578063313ce567146102b55761018e565b806306fdde031461019357806307546172146101b1578063095ea7b3146101cf57806318160ddd146101ff57806322087e881461021d57806323b872dd1461024d575b600080fd5b61019b610557565b6040516101a89190612b05565b60405180910390f35b6101b96105e9565b6040516101c69190612acf565b60405180910390f35b6101e960048036038101906101e49190612669565b61060f565b6040516101f69190612aea565b60405180910390f35b61020761062d565b6040516102149190612d87565b60405180910390f35b6102376004803603810190610232919061254d565b610637565b6040516102449190612aea565b60405180910390f35b610267600480360381019061026291906125ba565b61078f565b6040516102749190612aea565b60405180910390f35b6102976004803603810190610292919061257a565b610887565b005b6102b360048036038101906102ae919061257a565b610acd565b005b6102bd610d13565b6040516102ca9190612f12565b60405180910390f35b6102ed60048036038101906102e89190612669565b610d1c565b6040516102fa9190612aea565b60405180910390f35b61031d6004803603810190610318919061254d565b610dc8565b60405161032a9190612aea565b60405180910390f35b61034d6004803603810190610348919061254d565b610f20565b60405161035a9190612d87565b60405180910390f35b61037d6004803603810190610378919061260d565b610f68565b005b610387611099565b6040516103949190612acf565b60405180910390f35b6103a56110bf565b6040516103b29190612acf565b60405180910390f35b6103c36110e5565b6040516103d09190612b05565b60405180910390f35b6103f360048036038101906103ee9190612669565b611177565b6040516104009190612aea565b60405180910390f35b610423600480360381019061041e9190612669565b611262565b6040516104309190612aea565b60405180910390f35b610441611280565b60405161044e9190612acf565b60405180910390f35b610471600480360381019061046c919061257a565b6112a6565b005b61048d6004803603810190610488919061254d565b6114ec565b60405161049a9190612aea565b60405180910390f35b6104bd60048036038101906104b8919061257a565b611644565b005b6104d960048036038101906104d4919061254d565b61188a565b6040516104e69190612aea565b60405180910390f35b6105096004803603810190610504919061257a565b6119e2565b6040516105169190612d87565b60405180910390f35b6105396004803603810190610534919061257a565b611a69565b005b6105556004803603810190610550919061257a565b611caf565b005b6060600380546105669061308c565b80601f01602080910402602001604051908101604052809291908181526020018280546105929061308c565b80156105df5780601f106105b4576101008083540402835291602001916105df565b820191906000526020600020905b8154815290600101906020018083116105c257829003601f168201915b5050505050905090565b600560009054906101000a900473ffffffffffffffffffffffffffffffffffffffff1681565b600061062361061c611ef5565b8484611efd565b6001905092915050565b6000600254905090565b6000600660009054906101000a900473ffffffffffffffffffffffffffffffffffffffff1673ffffffffffffffffffffffffffffffffffffffff163373ffffffffffffffffffffffffffffffffffffffff16146106c9576040517f08c379a00000000000000000000000000000000000000000000000000000000081526004016106c090612b47565b60405180910390fd5b81600660006101000a81548173ffffffffffffffffffffffffffffffffffffffff021916908373ffffffffffffffffffffffffffffffffffffffff160217905550600660009054906101000a900473ffffffffffffffffffffffffffffffffffffffff1673ffffffffffffffffffffffffffffffffffffffff163373ffffffffffffffffffffffffffffffffffffffff167f76ce921e20c471c95deae34d20d53706ec4378ecab394e517f73aef912ae6cdd60405160405180910390a360019050919050565b600061079c8484846120c8565b6000600160008673ffffffffffffffffffffffffffffffffffffffff1673ffffffffffffffffffffffffffffffffffffffff16815260200190815260200160002060006107e7611ef5565b73ffffffffffffffffffffffffffffffffffffffff1673ffffffffffffffffffffffffffffffffffffffff16815260200190815260200160002054905082811015610867576040517f08c379a000000000000000000000000000000000000000000000000000000000815260040161085e90612c67565b60405180910390fd5b61087b85610873611ef5565b858403611efd565b60019150509392505050565b3373ffffffffffffffffffffffffffffffffffffffff16600660009054906101000a900473ffffffffffffffffffffffffffffffffffffffff1673ffffffffffffffffffffffffffffffffffffffff1614610917576040517f08c379a000000000000000000000000000000000000000000000000000000000815260040161090e90612c87565b60405180910390fd5b8173ffffffffffffffffffffffffffffffffffffffff16600560009054906101000a900473ffffffffffffffffffffffffffffffffffffffff1673ffffffffffffffffffffffffffffffffffffffff1614156109a8576040517f08c379a000000000000000000000000000000000000000000000000000000000815260040161099f90612b87565b60405180910390fd5b8073ffffffffffffffffffffffffffffffffffffffff168273ffffffffffffffffffffffffffffffffffffffff161415610a17576040517f08c379a0000000000000000000000000000000000000000000000000000000008152600401610a0e90612ca7565b60405180910390fd5b610a22826001612349565b8173ffffffffffffffffffffffffffffffffffffffff167fe7cd4ce7f2a465edc730269a1305e8a48bad821e8fb7e152ec413829c01a53c442604051610a689190612dfe565b60405180910390a2610a7b816003612349565b8073ffffffffffffffffffffffffffffffffffffffff167fe7cd4ce7f2a465edc730269a1305e8a48bad821e8fb7e152ec413829c01a53c442604051610ac19190612dfe565b60405180910390a25050565b3373ffffffffffffffffffffffffffffffffffffffff16600860009054906101000a900473ffffffffffffffffffffffffffffffffffffffff1673ffffffffffffffffffffffffffffffffffffffff1614610b5d576040517f08c379a0000000000000000000000000000000000000000000000000000000008152600401610b5490612c87565b60405180910390fd5b8173ffffffffffffffffffffffffffffffffffffffff16600560009054906101000a900473ffffffffffffffffffffffffffffffffffffffff1673ffffffffffffffffffffffffffffffffffffffff161415610bee576040517f08c379a0000000000000000000000000000000000000000000000000000000008152600401610be590612b87565b60405180910390fd5b8073ffffffffffffffffffffffffffffffffffffffff168273ffffffffffffffffffffffffffffffffffffffff161415610c5d576040517f08c379a0000000000000000000000000000000000000000000000000000000008152600401610c5490612ca7565b60405180910390fd5b610c68826001612349565b8173ffffffffffffffffffffffffffffffffffffffff167fe7cd4ce7f2a465edc730269a1305e8a48bad821e8fb7e152ec413829c01a53c442604051610cae9190612ee4565b60405180910390a2610cc1816006612349565b8073ffffffffffffffffffffffffffffffffffffffff167fe7cd4ce7f2a465edc730269a1305e8a48bad821e8fb7e152ec413829c01a53c442604051610d079190612ee4565b60405180910390a25050565b60006012905090565b6000610dbe610d29611ef5565b848460016000610d37611ef5565b73ffffffffffffffffffffffffffffffffffffffff1673ffffffffffffffffffffffffffffffffffffffff16815260200190815260200160002060008873ffffffffffffffffffffffffffffffffffffffff1673ffffffffffffffffffffffffffffffffffffffff16815260200190815260200160002054610db99190612f9f565b611efd565b6001905092915050565b6000600860009054906101000a900473ffffffffffffffffffffffffffffffffffffffff1673ffffffffffffffffffffffffffffffffffffffff163373ffffffffffffffffffffffffffffffffffffffff1614610e5a576040517f08c379a0000000000000000000000000000000000000000000000000000000008152600401610e5190612c47565b60405180910390fd5b81600860006101000a81548173ffffffffffffffffffffffffffffffffffffffff021916908373ffffffffffffffffffffffffffffffffffffffff160217905550600860009054906101000a900473ffffffffffffffffffffffffffffffffffffffff1673ffffffffffffffffffffffffffffffffffffffff163373ffffffffffffffffffffffffffffffffffffffff167f317b209d0dca6ddb6667f7c47d488a9708cc0e7befa4cde41a104b125a1d9ef660405160405180910390a360019050919050565b60008060008373ffffffffffffffffffffffffffffffffffffffff1673ffffffffffffffffffffffffffffffffffffffff168152602001908152602001600020549050919050565b3373ffffffffffffffffffffffffffffffffffffffff16600660009054906101000a900473ffffffffffffffffffffffffffffffffffffffff1673ffffffffffffffffffffffffffffffffffffffff1614610ff8576040517f08c379a0000000000000000000000000000000000000000000000000000000008152600401610fef90612c27565b60405180910390fd5b600081511161103c576040517f08c379a000000000000000000000000000000000000000000000000000000000815260040161103390612c07565b60405180910390fd5b611047826008612349565b8173ffffffffffffffffffffffffffffffffffffffff167fe7cd4ce7f2a465edc730269a1305e8a48bad821e8fb7e152ec413829c01a53c44260405161108d9190612dd0565b60405180910390a25050565b600760009054906101000a900473ffffffffffffffffffffffffffffffffffffffff1681565b600660009054906101000a900473ffffffffffffffffffffffffffffffffffffffff1681565b6060600480546110f49061308c565b80601f01602080910402602001604051908101604052809291908181526020018280546111209061308c565b801561116d5780601f106111425761010080835404028352916020019161116d565b820191906000526020600020905b81548152906001019060200180831161115057829003601f168201915b5050505050905090565b60008060016000611186611ef5565b73ffffffffffffffffffffffffffffffffffffffff1673ffffffffffffffffffffffffffffffffffffffff16815260200190815260200160002060008573ffffffffffffffffffffffffffffffffffffffff1673ffffffffffffffffffffffffffffffffffffffff16815260200190815260200160002054905082811015611243576040517f08c379a000000000000000000000000000000000000000000000000000000000815260040161123a90612d47565b60405180910390fd5b61125761124e611ef5565b85858403611efd565b600191505092915050565b600061127661126f611ef5565b84846120c8565b6001905092915050565b600860009054906101000a900473ffffffffffffffffffffffffffffffffffffffff1681565b3373ffffffffffffffffffffffffffffffffffffffff16600660009054906101000a900473ffffffffffffffffffffffffffffffffffffffff1673ffffffffffffffffffffffffffffffffffffffff1614611336576040517f08c379a000000000000000000000000000000000000000000000000000000000815260040161132d90612c87565b60405180910390fd5b8173ffffffffffffffffffffffffffffffffffffffff16600560009054906101000a900473ffffffffffffffffffffffffffffffffffffffff1673ffffffffffffffffffffffffffffffffffffffff1614156113c7576040517f08c379a00000000000000000000000000000000000000000000000000000000081526004016113be90612b87565b60405180910390fd5b8073ffffffffffffffffffffffffffffffffffffffff168273ffffffffffffffffffffffffffffffffffffffff161415611436576040517f08c379a000000000000000000000000000000000000000000000000000000000815260040161142d90612ca7565b60405180910390fd5b611441826002612349565b8173ffffffffffffffffffffffffffffffffffffffff167fe7cd4ce7f2a465edc730269a1305e8a48bad821e8fb7e152ec413829c01a53c4426040516114879190612e5a565b60405180910390a261149a816004612349565b8073ffffffffffffffffffffffffffffffffffffffff167fe7cd4ce7f2a465edc730269a1305e8a48bad821e8fb7e152ec413829c01a53c4426040516114e09190612e2c565b60405180910390a25050565b6000600760009054906101000a900473ffffffffffffffffffffffffffffffffffffffff1673ffffffffffffffffffffffffffffffffffffffff163373ffffffffffffffffffffffffffffffffffffffff161461157e576040517f08c379a000000000000000000000000000000000000000000000000000000000815260040161157590612be7565b60405180910390fd5b81600760006101000a81548173ffffffffffffffffffffffffffffffffffffffff021916908373ffffffffffffffffffffffffffffffffffffffff160217905550600760009054906101000a900473ffffffffffffffffffffffffffffffffffffffff1673ffffffffffffffffffffffffffffffffffffffff163373ffffffffffffffffffffffffffffffffffffffff167f76ce921e20c471c95deae34d20d53706ec4378ecab394e517f73aef912ae6cdd60405160405180910390a360019050919050565b3373ffffffffffffffffffffffffffffffffffffffff16600760009054906101000a900473ffffffffffffffffffffffffffffffffffffffff1673ffffffffffffffffffffffffffffffffffffffff16146116d4576040517f08c379a00000000000000000000000000000000000000000000000000000000081526004016116cb90612cc7565b60405180910390fd5b8073ffffffffffffffffffffffffffffffffffffffff168273ffffffffffffffffffffffffffffffffffffffff161415611743576040517f08c379a000000000000000000000000000000000000000000000000000000000815260040161173a90612ca7565b60405180910390fd5b8173ffffffffffffffffffffffffffffffffffffffff16600560009054906101000a900473ffffffffffffffffffffffffffffffffffffffff1673ffffffffffffffffffffffffffffffffffffffff1614156117d4576040517f08c379a00000000000000000000000000000000000000000000000000000000081526004016117cb90612b87565b60405180910390fd5b6117df826002612349565b8173ffffffffffffffffffffffffffffffffffffffff167fe7cd4ce7f2a465edc730269a1305e8a48bad821e8fb7e152ec413829c01a53c4426040516118259190612da2565b60405180910390a2611838816005612349565b8073ffffffffffffffffffffffffffffffffffffffff167fe7cd4ce7f2a465edc730269a1305e8a48bad821e8fb7e152ec413829c01a53c44260405161187e9190612da2565b60405180910390a25050565b6000600560009054906101000a900473ffffffffffffffffffffffffffffffffffffffff1673ffffffffffffffffffffffffffffffffffffffff163373ffffffffffffffffffffffffffffffffffffffff161461191c576040517f08c379a000000000000000000000000000000000000000000000000000000000815260040161191390612bc7565b60405180910390fd5b81600560006101000a81548173ffffffffffffffffffffffffffffffffffffffff021916908373ffffffffffffffffffffffffffffffffffffffff160217905550600560009054906101000a900473ffffffffffffffffffffffffffffffffffffffff1673ffffffffffffffffffffffffffffffffffffffff163373ffffffffffffffffffffffffffffffffffffffff167f3b0007eb941cf645526cbb3a4fdaecda9d28ce4843167d9263b536a1f1edc0f660405160405180910390a360019050919050565b6000600160008473ffffffffffffffffffffffffffffffffffffffff1673ffffffffffffffffffffffffffffffffffffffff16815260200190815260200160002060008373ffffffffffffffffffffffffffffffffffffffff1673ffffffffffffffffffffffffffffffffffffffff16815260200190815260200160002054905092915050565b3373ffffffffffffffffffffffffffffffffffffffff16600660009054906101000a900473ffffffffffffffffffffffffffffffffffffffff1673ffffffffffffffffffffffffffffffffffffffff1614611af9576040517f08c379a0000000000000000000000000000000000000000000000000000000008152600401611af090612c87565b60405180910390fd5b8173ffffffffffffffffffffffffffffffffffffffff16600560009054906101000a900473ffffffffffffffffffffffffffffffffffffffff1673ffffffffffffffffffffffffffffffffffffffff161415611b8a576040517f08c379a0000000000000000000000000000000000000000000000000000000008152600401611b8190612d07565b60405180910390fd5b8073ffffffffffffffffffffffffffffffffffffffff168273ffffffffffffffffffffffffffffffffffffffff161415611bf9576040517f08c379a0000000000000000000000000000000000000000000000000000000008152600401611bf090612ca7565b60405180910390fd5b611c04826002612349565b8173ffffffffffffffffffffffffffffffffffffffff167fe7cd4ce7f2a465edc730269a1305e8a48bad821e8fb7e152ec413829c01a53c442604051611c4a9190612eb6565b60405180910390a2611c5d816004612349565b8073ffffffffffffffffffffffffffffffffffffffff167fe7cd4ce7f2a465edc730269a1305e8a48bad821e8fb7e152ec413829c01a53c442604051611ca39190612eb6565b60405180910390a25050565b3373ffffffffffffffffffffffffffffffffffffffff16600660009054906101000a900473ffffffffffffffffffffffffffffffffffffffff1673ffffffffffffffffffffffffffffffffffffffff1614611d3f576040517f08c379a0000000000000000000000000000000000000000000000000000000008152600401611d3690612c87565b60405180910390fd5b8173ffffffffffffffffffffffffffffffffffffffff16600560009054906101000a900473ffffffffffffffffffffffffffffffffffffffff1673ffffffffffffffffffffffffffffffffffffffff161415611dd0576040517f08c379a0000000000000000000000000000000000000000000000000000000008152600401611dc790612d07565b60405180910390fd5b8073ffffffffffffffffffffffffffffffffffffffff168273ffffffffffffffffffffffffffffffffffffffff161415611e3f576040517f08c379a0000000000000000000000000000000000000000000000000000000008152600401611e3690612ca7565b60405180910390fd5b611e4a826005612349565b8173ffffffffffffffffffffffffffffffffffffffff167fe7cd4ce7f2a465edc730269a1305e8a48bad821e8fb7e152ec413829c01a53c442604051611e909190612e88565b60405180910390a2611ea3816006612349565b8173ffffffffffffffffffffffffffffffffffffffff167fe7cd4ce7f2a465edc730269a1305e8a48bad821e8fb7e152ec413829c01a53c442604051611ee99190612e88565b60405180910390a25050565b600033905090565b600073ffffffffffffffffffffffffffffffffffffffff168373ffffffffffffffffffffffffffffffffffffffff161415611f6d576040517f08c379a0000000000000000000000000000000000000000000000000000000008152600401611f6490612d27565b60405180910390fd5b600073ffffffffffffffffffffffffffffffffffffffff168273ffffffffffffffffffffffffffffffffffffffff161415611fdd576040517f08c379a0000000000000000000000000000000000000000000000000000000008152600401611fd490612b67565b60405180910390fd5b80600160008573ffffffffffffffffffffffffffffffffffffffff1673ffffffffffffffffffffffffffffffffffffffff16815260200190815260200160002060008473ffffffffffffffffffffffffffffffffffffffff1673ffffffffffffffffffffffffffffffffffffffff168152602001908152602001600020819055508173ffffffffffffffffffffffffffffffffffffffff168373ffffffffffffffffffffffffffffffffffffffff167f8c5be1e5ebec7d5bd14f71427d1e84f3dd0314c0f7b2291e5b200ac8c7c3b925836040516120bb9190612d87565b60405180910390a3505050565b600073ffffffffffffffffffffffffffffffffffffffff168373ffffffffffffffffffffffffffffffffffffffff161415612138576040517f08c379a000000000000000000000000000000000000000000000000000000000815260040161212f90612ce7565b60405180910390fd5b600073ffffffffffffffffffffffffffffffffffffffff168273ffffffffffffffffffffffffffffffffffffffff1614156121a8576040517f08c379a000000000000000000000000000000000000000000000000000000000815260040161219f90612b27565b60405180910390fd5b6121b38383836124a9565b60008060008573ffffffffffffffffffffffffffffffffffffffff1673ffffffffffffffffffffffffffffffffffffffff16815260200190815260200160002054905081811015612239576040517f08c379a000000000000000000000000000000000000000000000000000000000815260040161223090612ba7565b60405180910390fd5b8181036000808673ffffffffffffffffffffffffffffffffffffffff1673ffffffffffffffffffffffffffffffffffffffff16815260200190815260200160002081905550816000808573ffffffffffffffffffffffffffffffffffffffff1673ffffffffffffffffffffffffffffffffffffffff16815260200190815260200160002060008282546122cc9190612f9f565b925050819055508273ffffffffffffffffffffffffffffffffffffffff168473ffffffffffffffffffffffffffffffffffffffff167fddf252ad1be2c89b69c2b068fc378daa952ba7f163c4a11628f55a4df523b3ef846040516123309190612d87565b60405180910390a36123438484846124ae565b50505050565b600073ffffffffffffffffffffffffffffffffffffffff168273ffffffffffffffffffffffffffffffffffffffff1614156123b9576040517f08c379a00000000000000000000000000000000000000000000000000000000081526004016123b090612d67565b60405180910390fd5b6123c5600083836124a9565b80600260008282546123d79190612f9f565b92505081905550806000808473ffffffffffffffffffffffffffffffffffffffff1673ffffffffffffffffffffffffffffffffffffffff168152602001908152602001600020600082825461242c9190612f9f565b925050819055508173ffffffffffffffffffffffffffffffffffffffff16600073ffffffffffffffffffffffffffffffffffffffff167fddf252ad1be2c89b69c2b068fc378daa952ba7f163c4a11628f55a4df523b3ef836040516124919190612d87565b60405180910390a36124a5600083836124ae565b5050565b505050565b505050565b60006124c66124c184612f52565b612f2d565b9050828152602081018484840111156124e2576124e1613181565b5b6124ed84828561304a565b509392505050565b600081359050612504816137e2565b92915050565b600082601f83011261251f5761251e61317c565b5b813561252f8482602086016124b3565b91505092915050565b600081359050612547816137f9565b92915050565b6000602082840312156125635761256261318b565b5b6000612571848285016124f5565b91505092915050565b600080604083850312156125915761259061318b565b5b600061259f858286016124f5565b92505060206125b0858286016124f5565b9150509250929050565b6000806000606084860312156125d3576125d261318b565b5b60006125e1868287016124f5565b93505060206125f2868287016124f5565b925050604061260386828701612538565b9150509250925092565b600080604083850312156126245761262361318b565b5b6000612632858286016124f5565b925050602083013567ffffffffffffffff81111561265357612652613186565b5b61265f8582860161250a565b9150509250929050565b600080604083850312156126805761267f61318b565b5b600061268e858286016124f5565b925050602061269f85828601612538565b9150509250929050565b6126b281612ff5565b82525050565b6126c181613007565b82525050565b60006126d282612f83565b6126dc8185612f8e565b93506126ec818560208601613059565b6126f581613190565b840191505092915050565b600061270d602383612f8e565b9150612718826131a1565b604082019050919050565b6000612730600483612f8e565b915061273b826131f0565b602082019050919050565b6000612753603083612f8e565b915061275e82613219565b604082019050919050565b6000612776602283612f8e565b915061278182613268565b604082019050919050565b6000612799601c83612f8e565b91506127a4826132b7565b602082019050919050565b60006127bc600483612f8e565b91506127c7826132e0565b602082019050919050565b60006127df600383612f8e565b91506127ea82613309565b602082019050919050565b6000612802602683612f8e565b915061280d82613332565b604082019050919050565b6000612825600a83612f8e565b915061283082613381565b602082019050919050565b6000612848603083612f8e565b9150612853826133aa565b604082019050919050565b600061286b603c83612f8e565b9150612876826133f9565b604082019050919050565b600061288e600c83612f8e565b915061289982613448565b602082019050919050565b60006128b1600683612f8e565b91506128bc82613471565b602082019050919050565b60006128d4601683612f8e565b91506128df8261349a565b602082019050919050565b60006128f7600683612f8e565b9150612902826134c3565b602082019050919050565b600061291a602283612f8e565b9150612925826134ec565b604082019050919050565b600061293d603783612f8e565b91506129488261353b565b604082019050919050565b6000612960602883612f8e565b915061296b8261358a565b604082019050919050565b6000612983601483612f8e565b915061298e826135d9565b602082019050919050565b60006129a6601383612f8e565b91506129b182613602565b602082019050919050565b60006129c9602183612f8e565b91506129d48261362b565b604082019050919050565b60006129ec602583612f8e565b91506129f78261367a565b604082019050919050565b6000612a0f601783612f8e565b9150612a1a826136c9565b602082019050919050565b6000612a32602483612f8e565b9150612a3d826136f2565b604082019050919050565b6000612a55600683612f8e565b9150612a6082613741565b602082019050919050565b6000612a78602583612f8e565b9150612a838261376a565b604082019050919050565b6000612a9b601f83612f8e565b9150612aa6826137b9565b602082019050919050565b612aba81613033565b82525050565b612ac98161303d565b82525050565b6000602082019050612ae460008301846126a9565b92915050565b6000602082019050612aff60008301846126b8565b92915050565b60006020820190508181036000830152612b1f81846126c7565b905092915050565b60006020820190508181036000830152612b4081612700565b9050919050565b60006020820190508181036000830152612b6081612746565b9050919050565b60006020820190508181036000830152612b8081612769565b9050919050565b60006020820190508181036000830152612ba08161278c565b9050919050565b60006020820190508181036000830152612bc0816127f5565b9050919050565b60006020820190508181036000830152612be08161283b565b9050919050565b60006020820190508181036000830152612c008161285e565b9050919050565b60006020820190508181036000830152612c20816128c7565b9050919050565b60006020820190508181036000830152612c408161290d565b9050919050565b60006020820190508181036000830152612c6081612930565b9050919050565b60006020820190508181036000830152612c8081612953565b9050919050565b60006020820190508181036000830152612ca081612976565b9050919050565b60006020820190508181036000830152612cc081612999565b9050919050565b60006020820190508181036000830152612ce0816129bc565b9050919050565b60006020820190508181036000830152612d00816129df565b9050919050565b60006020820190508181036000830152612d2081612a02565b9050919050565b60006020820190508181036000830152612d4081612a25565b9050919050565b60006020820190508181036000830152612d6081612a6b565b9050919050565b60006020820190508181036000830152612d8081612a8e565b9050919050565b6000602082019050612d9c6000830184612ab1565b92915050565b6000604082019050612db76000830184612ab1565b8181036020830152612dc881612723565b905092915050565b6000604082019050612de56000830184612ab1565b8181036020830152612df6816127af565b905092915050565b6000604082019050612e136000830184612ab1565b8181036020830152612e24816127d2565b905092915050565b6000604082019050612e416000830184612ab1565b8181036020830152612e5281612818565b905092915050565b6000604082019050612e6f6000830184612ab1565b8181036020830152612e8081612881565b905092915050565b6000604082019050612e9d6000830184612ab1565b8181036020830152612eae816128a4565b905092915050565b6000604082019050612ecb6000830184612ab1565b8181036020830152612edc816128ea565b905092915050565b6000604082019050612ef96000830184612ab1565b8181036020830152612f0a81612a48565b905092915050565b6000602082019050612f276000830184612ac0565b92915050565b6000612f37612f48565b9050612f4382826130be565b919050565b6000604051905090565b600067ffffffffffffffff821115612f6d57612f6c61314d565b5b612f7682613190565b9050602081019050919050565b600081519050919050565b600082825260208201905092915050565b6000612faa82613033565b9150612fb583613033565b9250827fffffffffffffffffffffffffffffffffffffffffffffffffffffffffffffffff03821115612fea57612fe96130ef565b5b828201905092915050565b600061300082613013565b9050919050565b60008115159050919050565b600073ffffffffffffffffffffffffffffffffffffffff82169050919050565b6000819050919050565b600060ff82169050919050565b82818337600083830152505050565b60005b8381101561307757808201518184015260208101905061305c565b83811115613086576000848401525b50505050565b600060028204905060018216806130a457607f821691505b602082108114156130b8576130b761311e565b5b50919050565b6130c782613190565b810181811067ffffffffffffffff821117156130e6576130e561314d565b5b80604052505050565b7f4e487b7100000000000000000000000000000000000000000000000000000000600052601160045260246000fd5b7f4e487b7100000000000000000000000000000000000000000000000000000000600052602260045260246000fd5b7f4e487b7100000000000000000000000000000000000000000000000000000000600052604160045260246000fd5b600080fd5b600080fd5b600080fd5b600080fd5b6000601f19601f8301169050919050565b7f45524332303a207472616e7366657220746f20746865207a65726f206164647260008201527f6573730000000000000000000000000000000000000000000000000000000000602082015250565b7f4c494b4500000000000000000000000000000000000000000000000000000000600082015250565b7f4572726f722c206f6e6c79206465706c6f7965722063616e207061737320706f60008201527f737427732063616c6c657220726f6c6500000000000000000000000000000000602082015250565b7f45524332303a20617070726f766520746f20746865207a65726f20616464726560008201527f7373000000000000000000000000000000000000000000000000000000000000602082015250565b7f4572726f723a20227765222063616e6e6f742063616c6c206d696e7400000000600082015250565b7f504f535400000000000000000000000000000000000000000000000000000000600082015250565b7f5441470000000000000000000000000000000000000000000000000000000000600082015250565b7f45524332303a207472616e7366657220616d6f756e742065786365656473206260008201527f616c616e63650000000000000000000000000000000000000000000000000000602082015250565b7f524553504f4e4420544f00000000000000000000000000000000000000000000600082015250565b7f4572726f723a206f6e6c79206465706c6f7965722063616e206368616e67652060008201527f70617373206d696e74657220726f6c6500000000000000000000000000000000602082015250565b7f4572726f723a206f6e6c79206465706c6f7965722063616e2070617373206c6960008201527f6b65206d696e746572207369676e65722063616c6c657220726f6c6500000000602082015250565b7f524553504f4e442046524f4d0000000000000000000000000000000000000000600082015250565b7f5245504f53540000000000000000000000000000000000000000000000000000600082015250565b7f4572726f723a206e6f207465787420696e20706f737400000000000000000000600082015250565b7f4355524154450000000000000000000000000000000000000000000000000000600082015250565b7f4572726f723a2077726f6e67205f6163636f756e742063616c6c696e67206d6960008201527f6e74000000000000000000000000000000000000000000000000000000000000602082015250565b7f4572726f723a206f6e6c79206465706c6f7965722063616e207061737320666f60008201527f6c6c6f77206d696e746572207369676e657220726f6c65000000000000000000602082015250565b7f45524332303a207472616e7366657220616d6f756e742065786365656473206160008201527f6c6c6f77616e6365000000000000000000000000000000000000000000000000602082015250565b7f4572726f723a2077726f6e67206163636f756e74000000000000000000000000600082015250565b7f4572726f723a2073616d65206163636f756e7400000000000000000000000000600082015250565b7f4572726f723a2077726f6e67206163636f756e742063616c6c696e67206d696e60008201527f7400000000000000000000000000000000000000000000000000000000000000602082015250565b7f45524332303a207472616e736665722066726f6d20746865207a65726f20616460008201527f6472657373000000000000000000000000000000000000000000000000000000602082015250565b7f4572726f723a20227765222063616e6e6f74206d696e74000000000000000000600082015250565b7f45524332303a20617070726f76652066726f6d20746865207a65726f2061646460008201527f7265737300000000000000000000000000000000000000000000000000000000602082015250565b7f464f4c4c4f570000000000000000000000000000000000000000000000000000600082015250565b7f45524332303a2064656372656173656420616c6c6f77616e63652062656c6f7760008201527f207a65726f000000000000000000000000000000000000000000000000000000602082015250565b7f45524332303a206d696e7420746f20746865207a65726f206164647265737300600082015250565b6137eb81612ff5565b81146137f657600080fd5b50565b61380281613033565b811461380d57600080fd5b5056fea26469706673582212204a85db5f56dd7949456f4e5a6c736c5b62ef834ad9eb611d30a5469bab5bcec864736f6c63430008070033",
  "immutableReferences": {},
  "source": "// SPDX-License-Identifier: MIT\n\npragma solidity >=0.8.0 <0.9.0;\n\nimport \"@openzeppelin/contracts/token/ERC20/ERC20.sol\";\n\ncontract UME is ERC20 {\n\n  // minter's address\n  address public minter;\n  address public postSigner;\n  address public likeSigner;\n  address public followSigner;\n\n  // minter role has changed to We\n  event MinterChanged(address indexed from, address indexed to);\n  event PostSignerChanged(address indexed from, address indexed to);\n  event LikeSignerChanged(address indexed from, address indexed to);\n  event FollowSignerChanged(address indexed from, address indexed to);\n  // minting events\n  event Minted(address indexed account, uint time, string flag);\n\n  constructor() public payable ERC20(\"uMe token\", \"UME\") {\n    // assign minter & caller roles\n    minter = msg.sender;\n    postSigner = msg.sender;\n    likeSigner = msg.sender;\n    followSigner = msg.sender;\n  }\n\n  function mintPost(\n    address _account,\n    string memory _postText\n  ) public {\n    // make sure minter is same as sender\n    require(\n      postSigner==msg.sender,\n      'Error: wrong _account calling mint');\n    //require(minter!=_account, 'Error: \"we\" cannot call mint');\n    //require(bytes(_postHash).length > 0, 'Error: no post exists'); // check if post hash exists\n    require(\n      bytes(_postText).length > 0,\n      'Error: no text in post'); // check if there's text in post\n    // mint UME token for Posted\n    _mint(address(_account), 8);\n    // set event for minted Posted UME tokens\n    emit Minted(_account, block.timestamp /*, _postHash  */ , 'POST');\n  }\n  function mintLike(\n    address _from,\n    address _to\n  ) public { // 2:5 Liker:Liked\n    require(\n      likeSigner==msg.sender,\n      'Error: wrong account calling mint');\n    require(\n      _from!=_to,\n      'Error: same account');\n    require(\n      minter!=_from,\n      'Error: \"we\" cannot call mint');\n    //require(bytes(_postHash).length > 0, 'Error: no post exists');\n    // mint a LIKE token for liker\n    _mint(address(_from), 2);\n    // set event for LIKE token FROM\n    emit Minted(_from, block.timestamp /*, _postHash  */ , 'LIKE');\n    // mint LIKE tokens for likee\n    _mint(address(_to), 5);\n    // set event for LIKE token TO\n    emit Minted(_to, block.timestamp /*, _postHash  */ , 'LIKE');\n  }\n  function mintTag(\n    address _from,\n    address _to\n  ) public { // 1:3 Tagger:Tagged\n    require(\n      postSigner==msg.sender,\n      'Error: wrong account');\n    require(\n      minter!=_from,\n      'Error: \"we\" cannot call mint');\n    require(\n      _from!=_to,\n      'Error: same account');\n    // mint a TAG token for tagger\n    _mint(_from, 1);\n    // set event for TAG token FROM\n    emit Minted(_from, block.timestamp /*, _postHash  */ , 'TAG');\n    // mint TAG tokens for taggee\n    _mint(_to, 3);\n    // set event for TAG token TO\n    emit Minted(_to, block.timestamp /*, _postHash  */ , 'TAG');\n  }\n  function mintFollow(\n    address _from,\n    address _to\n  ) public { // 1:3 Follower:Followed\n    require(\n      followSigner==msg.sender,\n      'Error: wrong account');\n    require(\n      minter!=_from,\n      'Error: \"we\" cannot call mint');\n    require(\n      _from!=_to,\n      'Error: same account'); // doesn't mint tokens if tagged oneself\n    // mint a FOLLOW token for follower\n    _mint(_from, 1);\n    // set event for FOLLOW token FROM\n    emit Minted(_from, block.timestamp, 'FOLLOW');\n    // mint FOLLOW tokens for followed\n    _mint(_to, 6);\n    // set event for FOLLOW token TO\n    emit Minted(_to, block.timestamp,'FOLLOW');\n  }\n  function mintRespond(\n    address _from,\n    address _to\n  ) public { // 2:4 Responder:Responded\n    require(\n      postSigner==msg.sender,\n      'Error: wrong account');\n    require(\n      minter!=_from,\n      'Error: \"we\" cannot call mint');\n    require(\n      _from!=_to,\n      'Error: same account');\n    // mint a RESPOND token for responder\n    _mint(_from, 2);\n    // set event for RESPOND token FROM\n    emit Minted(_from, block.timestamp, 'RESPOND FROM');\n    // mint RESPOND tokens for responded\n    _mint(_to, 4);\n    // set event for RESPOND token TO\n    emit Minted(_to, block.timestamp, 'RESPOND TO');\n  }\n  function mintCurate(\n    address _from,\n    address _to\n  ) public { // 2:4 Responder:Responded\n    require(\n      postSigner==msg.sender,\n      'Error: wrong account');\n    require(\n      minter!=_from,\n      'Error: \"we\" cannot mint');\n    require(\n      _from!=_to,\n      'Error: same account'); // doesn't mint tokens if tagged oneself\n    //require(bytes(_postHash).length > 0, 'Error: no post exists');\n    // mint a CURATE token for curatee\n    _mint(_from, 2);\n    // set event for CURATE token FROM\n    emit Minted(_from, block.timestamp, 'CURATE');\n    // mint CURATE tokens for curator\n    _mint(_to, 4);\n    // set event for CURATE token TO\n    emit Minted(_to, block.timestamp, 'CURATE');\n  }\n  function mintRepost(\n    address _from,\n    address _to\n  ) public {\n    require(\n      postSigner==msg.sender,\n      'Error: wrong account');\n    require(\n      minter!=_from,\n      'Error: \"we\" cannot mint');\n    require(_from!=_to, 'Error: same account');\n    //mint REPOST token for reposter\n    _mint(_from, 5);\n    // set event for REPOST from\n    emit Minted(_from, block.timestamp, 'REPOST');\n    // mint REPOST token for original poster\n    _mint(_to, 6);\n    // set event for REPOST to\n    emit Minted(_from, block.timestamp, 'REPOST');\n  }\n  /*\n  function mintJury(\n    address account,\n    bool consensusReached\n  ) public { // 4 Juror token if no consensus reached, 24 if consensus reached\n    require(\n      followSigner==msg.sender,\n      'Error: wrong account, needs to be signer');\n    require(\n    minter!=account,\n    'Error: \"we\" cannot mint');\n    //require(\n    bytes(_postHash).length > 0,\n    'Error: no post exists');\n    if(consensusReached==true){\n      // mint 10 JURY token for juror\n      _mint(account, 24);\n      // set event for JURY token consensus reached\n      emit Minted(account, block.timestamp, 'JURY');\n    } else if(consensusReached==false){\n      // mint a JURY token for juror\n      _mint(account, 4);\n      // set event for JURY no consensus reached\n      emit Minted(account, block.timestamp, 'JURY');\n    }\n  }\n*/\n  function passMinterRole(address _we) public returns (bool) {\n    require(\n      msg.sender==minter,\n      'Error: only deployer can change pass minter role');\n    minter = _we;\n\n    emit MinterChanged(msg.sender, minter);\n    return true;\n  }\n  function passPostSignerRole(address _post) public returns (bool) {\n    require(\n      msg.sender==postSigner,\n      'Error, only deployer can pass post\\'s caller role');\n    postSigner = _post;\n    emit PostSignerChanged(msg.sender, postSigner);\n    return true;\n  }\n  function passLikeSignerRole(address _like) public returns (bool) {\n    require(\n      msg.sender==likeSigner,\n      'Error: only deployer can pass like minter signer caller role');\n    likeSigner = _like;\n    emit PostSignerChanged(msg.sender, likeSigner);\n    return true;\n  }\n  function passFollowSignerRole(address _follow) public returns (bool) {\n    require(\n      msg.sender==followSigner,\n      'Error: only deployer can pass follow minter signer role');\n    followSigner = _follow;\n    emit FollowSignerChanged(msg.sender, followSigner);\n    return true;\n  }\n}\n",
  "sourcePath": "/Users/jaiq/Documents/000 BLOCKCHAIN/ETH/uMe/src/contracts/UME.sol",
  "compiler": {
    "name": "solc",
    "version": "0.8.7+commit.e28d00a7.Emscripten.clang"
  },
  "schemaVersion": "3.4.3",
  "updatedAt": "2021-08-26T00:43:06.399Z",
  "networkType": "ethereum",
  "devdoc": {
    "kind": "dev",
    "methods": {
      "allowance(address,address)": {
        "details": "See {IERC20-allowance}."
      },
      "approve(address,uint256)": {
        "details": "See {IERC20-approve}. Requirements: - `spender` cannot be the zero address."
      },
      "balanceOf(address)": {
        "details": "See {IERC20-balanceOf}."
      },
      "decimals()": {
        "details": "Returns the number of decimals used to get its user representation. For example, if `decimals` equals `2`, a balance of `505` tokens should be displayed to a user as `5.05` (`505 / 10 ** 2`). Tokens usually opt for a value of 18, imitating the relationship between Ether and Wei. This is the value {ERC20} uses, unless this function is overridden; NOTE: This information is only used for _display_ purposes: it in no way affects any of the arithmetic of the contract, including {IERC20-balanceOf} and {IERC20-transfer}."
      },
      "decreaseAllowance(address,uint256)": {
        "details": "Atomically decreases the allowance granted to `spender` by the caller. This is an alternative to {approve} that can be used as a mitigation for problems described in {IERC20-approve}. Emits an {Approval} event indicating the updated allowance. Requirements: - `spender` cannot be the zero address. - `spender` must have allowance for the caller of at least `subtractedValue`."
      },
      "increaseAllowance(address,uint256)": {
        "details": "Atomically increases the allowance granted to `spender` by the caller. This is an alternative to {approve} that can be used as a mitigation for problems described in {IERC20-approve}. Emits an {Approval} event indicating the updated allowance. Requirements: - `spender` cannot be the zero address."
      },
      "name()": {
        "details": "Returns the name of the token."
      },
      "symbol()": {
        "details": "Returns the symbol of the token, usually a shorter version of the name."
      },
      "totalSupply()": {
        "details": "See {IERC20-totalSupply}."
      },
      "transfer(address,uint256)": {
        "details": "See {IERC20-transfer}. Requirements: - `recipient` cannot be the zero address. - the caller must have a balance of at least `amount`."
      },
      "transferFrom(address,address,uint256)": {
        "details": "See {IERC20-transferFrom}. Emits an {Approval} event indicating the updated allowance. This is not required by the EIP. See the note at the beginning of {ERC20}. Requirements: - `sender` and `recipient` cannot be the zero address. - `sender` must have a balance of at least `amount`. - the caller must have allowance for ``sender``'s tokens of at least `amount`."
      }
    },
    "version": 1
  },
  "userdoc": {
    "kind": "user",
    "methods": {},
    "version": 1
  }
}