{
  "contractName": "UME",
  "abi": [
    {
      "inputs": [],
      "stateMutability": "payable",
      "type": "constructor",
      "payable": true
    },
    {
      "anonymous": false,
      "inputs": [
        {
          "indexed": true,
          "internalType": "address",
          "name": "owner",
          "type": "address"
        },
        {
          "indexed": true,
          "internalType": "address",
          "name": "spender",
          "type": "address"
        },
        {
          "indexed": false,
          "internalType": "uint256",
          "name": "value",
          "type": "uint256"
        }
      ],
      "name": "Approval",
      "type": "event"
    },
    {
      "anonymous": false,
      "inputs": [
        {
          "indexed": true,
          "internalType": "address",
          "name": "from",
          "type": "address"
        },
        {
          "indexed": true,
          "internalType": "address",
          "name": "to",
          "type": "address"
        }
      ],
      "name": "BoostSignerChanged",
      "type": "event"
    },
    {
      "anonymous": false,
      "inputs": [
        {
          "indexed": true,
          "internalType": "address",
          "name": "from",
          "type": "address"
        },
        {
          "indexed": true,
          "internalType": "address",
          "name": "to",
          "type": "address"
        }
      ],
      "name": "FollowSignerChanged",
      "type": "event"
    },
    {
      "anonymous": false,
      "inputs": [
        {
          "indexed": true,
          "internalType": "address",
          "name": "from",
          "type": "address"
        },
        {
          "indexed": true,
          "internalType": "address",
          "name": "to",
          "type": "address"
        }
      ],
      "name": "LikeSignerChanged",
      "type": "event"
    },
    {
      "anonymous": false,
      "inputs": [
        {
          "indexed": true,
          "internalType": "address",
          "name": "from",
          "type": "address"
        },
        {
          "indexed": true,
          "internalType": "address",
          "name": "to",
          "type": "address"
        }
      ],
      "name": "MemeFactorySignerChanged",
      "type": "event"
    },
    {
      "anonymous": false,
      "inputs": [
        {
          "indexed": true,
          "internalType": "address",
          "name": "account",
          "type": "address"
        },
        {
          "indexed": false,
          "internalType": "uint256",
          "name": "time",
          "type": "uint256"
        },
        {
          "indexed": false,
          "internalType": "string",
          "name": "flag",
          "type": "string"
        }
      ],
      "name": "Minted",
      "type": "event"
    },
    {
      "anonymous": false,
      "inputs": [
        {
          "indexed": true,
          "internalType": "address",
          "name": "from",
          "type": "address"
        },
        {
          "indexed": true,
          "internalType": "address",
          "name": "to",
          "type": "address"
        }
      ],
      "name": "MinterChanged",
      "type": "event"
    },
    {
      "anonymous": false,
      "inputs": [
        {
          "indexed": true,
          "internalType": "address",
          "name": "from",
          "type": "address"
        },
        {
          "indexed": true,
          "internalType": "address",
          "name": "to",
          "type": "address"
        }
      ],
      "name": "PostSignerChanged",
      "type": "event"
    },
    {
      "anonymous": false,
      "inputs": [
        {
          "indexed": true,
          "internalType": "address",
          "name": "from",
          "type": "address"
        },
        {
          "indexed": true,
          "internalType": "address",
          "name": "to",
          "type": "address"
        },
        {
          "indexed": false,
          "internalType": "uint256",
          "name": "value",
          "type": "uint256"
        }
      ],
      "name": "Transfer",
      "type": "event"
    },
    {
      "inputs": [
        {
          "internalType": "address",
          "name": "owner",
          "type": "address"
        },
        {
          "internalType": "address",
          "name": "spender",
          "type": "address"
        }
      ],
      "name": "allowance",
      "outputs": [
        {
          "internalType": "uint256",
          "name": "",
          "type": "uint256"
        }
      ],
      "stateMutability": "view",
      "type": "function",
      "constant": true
    },
    {
      "inputs": [
        {
          "internalType": "address",
          "name": "spender",
          "type": "address"
        },
        {
          "internalType": "uint256",
          "name": "amount",
          "type": "uint256"
        }
      ],
      "name": "approve",
      "outputs": [
        {
          "internalType": "bool",
          "name": "",
          "type": "bool"
        }
      ],
      "stateMutability": "nonpayable",
      "type": "function"
    },
    {
      "inputs": [
        {
          "internalType": "address",
          "name": "account",
          "type": "address"
        }
      ],
      "name": "balanceOf",
      "outputs": [
        {
          "internalType": "uint256",
          "name": "",
          "type": "uint256"
        }
      ],
      "stateMutability": "view",
      "type": "function",
      "constant": true
    },
    {
      "inputs": [],
      "name": "boostSigner",
      "outputs": [
        {
          "internalType": "address",
          "name": "",
          "type": "address"
        }
      ],
      "stateMutability": "view",
      "type": "function",
      "constant": true
    },
    {
      "inputs": [],
      "name": "decimals",
      "outputs": [
        {
          "internalType": "uint8",
          "name": "",
          "type": "uint8"
        }
      ],
      "stateMutability": "view",
      "type": "function",
      "constant": true
    },
    {
      "inputs": [
        {
          "internalType": "address",
          "name": "spender",
          "type": "address"
        },
        {
          "internalType": "uint256",
          "name": "subtractedValue",
          "type": "uint256"
        }
      ],
      "name": "decreaseAllowance",
      "outputs": [
        {
          "internalType": "bool",
          "name": "",
          "type": "bool"
        }
      ],
      "stateMutability": "nonpayable",
      "type": "function"
    },
    {
      "inputs": [],
      "name": "followSigner",
      "outputs": [
        {
          "internalType": "address",
          "name": "",
          "type": "address"
        }
      ],
      "stateMutability": "view",
      "type": "function",
      "constant": true
    },
    {
      "inputs": [
        {
          "internalType": "address",
          "name": "spender",
          "type": "address"
        },
        {
          "internalType": "uint256",
          "name": "addedValue",
          "type": "uint256"
        }
      ],
      "name": "increaseAllowance",
      "outputs": [
        {
          "internalType": "bool",
          "name": "",
          "type": "bool"
        }
      ],
      "stateMutability": "nonpayable",
      "type": "function"
    },
    {
      "inputs": [],
      "name": "likeSigner",
      "outputs": [
        {
          "internalType": "address",
          "name": "",
          "type": "address"
        }
      ],
      "stateMutability": "view",
      "type": "function",
      "constant": true
    },
    {
      "inputs": [],
      "name": "memeFactorySigner",
      "outputs": [
        {
          "internalType": "address",
          "name": "",
          "type": "address"
        }
      ],
      "stateMutability": "view",
      "type": "function",
      "constant": true
    },
    {
      "inputs": [],
      "name": "minter",
      "outputs": [
        {
          "internalType": "address",
          "name": "",
          "type": "address"
        }
      ],
      "stateMutability": "view",
      "type": "function",
      "constant": true
    },
    {
      "inputs": [],
      "name": "name",
      "outputs": [
        {
          "internalType": "string",
          "name": "",
          "type": "string"
        }
      ],
      "stateMutability": "view",
      "type": "function",
      "constant": true
    },
    {
      "inputs": [],
      "name": "postSigner",
      "outputs": [
        {
          "internalType": "address",
          "name": "",
          "type": "address"
        }
      ],
      "stateMutability": "view",
      "type": "function",
      "constant": true
    },
    {
      "inputs": [],
      "name": "symbol",
      "outputs": [
        {
          "internalType": "string",
          "name": "",
          "type": "string"
        }
      ],
      "stateMutability": "view",
      "type": "function",
      "constant": true
    },
    {
      "inputs": [],
      "name": "totalSupply",
      "outputs": [
        {
          "internalType": "uint256",
          "name": "",
          "type": "uint256"
        }
      ],
      "stateMutability": "view",
      "type": "function",
      "constant": true
    },
    {
      "inputs": [
        {
          "internalType": "address",
          "name": "recipient",
          "type": "address"
        },
        {
          "internalType": "uint256",
          "name": "amount",
          "type": "uint256"
        }
      ],
      "name": "transfer",
      "outputs": [
        {
          "internalType": "bool",
          "name": "",
          "type": "bool"
        }
      ],
      "stateMutability": "nonpayable",
      "type": "function"
    },
    {
      "inputs": [
        {
          "internalType": "address",
          "name": "sender",
          "type": "address"
        },
        {
          "internalType": "address",
          "name": "recipient",
          "type": "address"
        },
        {
          "internalType": "uint256",
          "name": "amount",
          "type": "uint256"
        }
      ],
      "name": "transferFrom",
      "outputs": [
        {
          "internalType": "bool",
          "name": "",
          "type": "bool"
        }
      ],
      "stateMutability": "nonpayable",
      "type": "function"
    },
    {
      "inputs": [
        {
          "internalType": "address",
          "name": "_account",
          "type": "address"
        },
        {
          "internalType": "string",
          "name": "_postText",
          "type": "string"
        }
      ],
      "name": "mintPost",
      "outputs": [],
      "stateMutability": "nonpayable",
      "type": "function"
    },
    {
      "inputs": [
        {
          "internalType": "address",
          "name": "_from",
          "type": "address"
        },
        {
          "internalType": "address",
          "name": "_to",
          "type": "address"
        }
      ],
      "name": "mintLike",
      "outputs": [],
      "stateMutability": "nonpayable",
      "type": "function"
    },
    {
      "inputs": [
        {
          "internalType": "address",
          "name": "_from",
          "type": "address"
        },
        {
          "internalType": "address",
          "name": "_to",
          "type": "address"
        }
      ],
      "name": "mintTag",
      "outputs": [],
      "stateMutability": "nonpayable",
      "type": "function"
    },
    {
      "inputs": [
        {
          "internalType": "address",
          "name": "_from",
          "type": "address"
        },
        {
          "internalType": "address",
          "name": "_to",
          "type": "address"
        }
      ],
      "name": "mintFollow",
      "outputs": [],
      "stateMutability": "nonpayable",
      "type": "function"
    },
    {
      "inputs": [
        {
          "internalType": "address",
          "name": "_from",
          "type": "address"
        },
        {
          "internalType": "address",
          "name": "_to",
          "type": "address"
        }
      ],
      "name": "mintRespond",
      "outputs": [],
      "stateMutability": "nonpayable",
      "type": "function"
    },
    {
      "inputs": [
        {
          "internalType": "address",
          "name": "_from",
          "type": "address"
        },
        {
          "internalType": "address",
          "name": "_to",
          "type": "address"
        }
      ],
      "name": "mintCurate",
      "outputs": [],
      "stateMutability": "nonpayable",
      "type": "function"
    },
    {
      "inputs": [
        {
          "internalType": "address",
          "name": "_from",
          "type": "address"
        },
        {
          "internalType": "address",
          "name": "_to",
          "type": "address"
        }
      ],
      "name": "mintRepost",
      "outputs": [],
      "stateMutability": "nonpayable",
      "type": "function"
    },
    {
      "inputs": [
        {
          "internalType": "address",
          "name": "_account",
          "type": "address"
        },
        {
          "internalType": "uint256",
          "name": "_amount",
          "type": "uint256"
        }
      ],
      "name": "burn",
      "outputs": [],
      "stateMutability": "nonpayable",
      "type": "function"
    },
    {
      "inputs": [
        {
          "internalType": "address",
          "name": "_we",
          "type": "address"
        }
      ],
      "name": "passMinterRole",
      "outputs": [
        {
          "internalType": "bool",
          "name": "",
          "type": "bool"
        }
      ],
      "stateMutability": "nonpayable",
      "type": "function"
    },
    {
      "inputs": [
        {
          "internalType": "address",
          "name": "_post",
          "type": "address"
        }
      ],
      "name": "passPostSignerRole",
      "outputs": [
        {
          "internalType": "bool",
          "name": "",
          "type": "bool"
        }
      ],
      "stateMutability": "nonpayable",
      "type": "function"
    },
    {
      "inputs": [
        {
          "internalType": "address",
          "name": "_memeFactory",
          "type": "address"
        }
      ],
      "name": "passMemeFactorySignerRole",
      "outputs": [
        {
          "internalType": "bool",
          "name": "",
          "type": "bool"
        }
      ],
      "stateMutability": "nonpayable",
      "type": "function"
    },
    {
      "inputs": [
        {
          "internalType": "address",
          "name": "_like",
          "type": "address"
        }
      ],
      "name": "passLikeSignerRole",
      "outputs": [
        {
          "internalType": "bool",
          "name": "",
          "type": "bool"
        }
      ],
      "stateMutability": "nonpayable",
      "type": "function"
    },
    {
      "inputs": [
        {
          "internalType": "address",
          "name": "_follow",
          "type": "address"
        }
      ],
      "name": "passFollowSignerRole",
      "outputs": [
        {
          "internalType": "bool",
          "name": "",
          "type": "bool"
        }
      ],
      "stateMutability": "nonpayable",
      "type": "function"
    },
    {
      "inputs": [
        {
          "internalType": "address",
          "name": "_boost",
          "type": "address"
        }
      ],
      "name": "passBoostSignerRole",
      "outputs": [
        {
          "internalType": "bool",
          "name": "",
          "type": "bool"
        }
      ],
      "stateMutability": "nonpayable",
      "type": "function"
    }
  ],
  "bytecode": "0x60806040526040518060400160405280600981526020017f754d6520746f6b656e00000000000000000000000000000000000000000000008152506040518060400160405280600381526020017f554d45000000000000000000000000000000000000000000000000000000000081525081600390805190602001906200008892919062000230565b508060049080519060200190620000a192919062000230565b50505033600560006101000a81548173ffffffffffffffffffffffffffffffffffffffff021916908373ffffffffffffffffffffffffffffffffffffffff16021790555033600760006101000a81548173ffffffffffffffffffffffffffffffffffffffff021916908373ffffffffffffffffffffffffffffffffffffffff16021790555033600660006101000a81548173ffffffffffffffffffffffffffffffffffffffff021916908373ffffffffffffffffffffffffffffffffffffffff16021790555033600860006101000a81548173ffffffffffffffffffffffffffffffffffffffff021916908373ffffffffffffffffffffffffffffffffffffffff16021790555033600960006101000a81548173ffffffffffffffffffffffffffffffffffffffff021916908373ffffffffffffffffffffffffffffffffffffffff16021790555033600a60006101000a81548173ffffffffffffffffffffffffffffffffffffffff021916908373ffffffffffffffffffffffffffffffffffffffff16021790555062000345565b8280546200023e906200030f565b90600052602060002090601f016020900481019282620002625760008555620002ae565b82601f106200027d57805160ff1916838001178555620002ae565b82800160010185558215620002ae579182015b82811115620002ad57825182559160200191906001019062000290565b5b509050620002bd9190620002c1565b5090565b5b80821115620002dc576000816000905550600101620002c2565b5090565b7f4e487b7100000000000000000000000000000000000000000000000000000000600052602260045260246000fd5b600060028204905060018216806200032857607f821691505b602082108114156200033f576200033e620002e0565b5b50919050565b613a4a80620003556000396000f3fe608060405234801561001057600080fd5b50600436106101e55760003560e01c806376bd8f8c1161010f578063b8e3bfb8116100a2578063d7fc5b1511610071578063d7fc5b15146105ce578063dd62ed3e146105fe578063e981dc8f1461062e578063f52548d41461064a576101e5565b8063b8e3bfb814610548578063bc83419514610566578063c11f710b14610582578063d0449589146105b2576101e5565b806395d89b41116100de57806395d89b41146104ae5780639dc29fac146104cc578063a457c2d7146104e8578063a9059cbb14610518576101e5565b806376bd8f8c14610438578063829a262c1461045457806386b22146146104725780638c98876f14610490576101e5565b80632cc67a7c116101875780633d165083116101565780633d1650831461038a57806357a2bb29146103ba5780635bba8fef146103ea57806370a0823114610408576101e5565b80632cc67a7c146103045780632d599ba514610320578063313ce5671461033c578063395093511461035a576101e5565b806310bfd5f4116101c357806310bfd5f41461025657806318160ddd1461028657806322087e88146102a457806323b872dd146102d4576101e5565b806306fdde03146101ea5780630754617214610208578063095ea7b314610226575b600080fd5b6101f2610666565b6040516101ff91906125f2565b60405180910390f35b6102106106f8565b60405161021d9190612655565b60405180910390f35b610240600480360381019061023b91906126e6565b61071e565b60405161024d9190612741565b60405180910390f35b610270600480360381019061026b919061275c565b61073c565b60405161027d9190612741565b60405180910390f35b61028e610894565b60405161029b9190612798565b60405180910390f35b6102be60048036038101906102b9919061275c565b61089e565b6040516102cb9190612741565b60405180910390f35b6102ee60048036038101906102e991906127b3565b6109f6565b6040516102fb9190612741565b60405180910390f35b61031e60048036038101906103199190612806565b610aee565b005b61033a60048036038101906103359190612806565b610c34565b005b610344610d7a565b6040516103519190612862565b60405180910390f35b610374600480360381019061036f91906126e6565b610d83565b6040516103819190612741565b60405180910390f35b6103a4600480360381019061039f919061275c565b610e2f565b6040516103b19190612741565b60405180910390f35b6103d460048036038101906103cf919061275c565b610f87565b6040516103e19190612741565b60405180910390f35b6103f26110df565b6040516103ff9190612655565b60405180910390f35b610422600480360381019061041d919061275c565b611105565b60405161042f9190612798565b60405180910390f35b610452600480360381019061044d91906129b2565b61114d565b005b61045c61123a565b6040516104699190612655565b60405180910390f35b61047a611260565b6040516104879190612655565b60405180910390f35b610498611286565b6040516104a59190612655565b60405180910390f35b6104b66112ac565b6040516104c391906125f2565b60405180910390f35b6104e660048036038101906104e191906126e6565b61133e565b005b61050260048036038101906104fd91906126e6565b6113dc565b60405161050f9190612741565b60405180910390f35b610532600480360381019061052d91906126e6565b6114c7565b60405161053f9190612741565b60405180910390f35b6105506114e5565b60405161055d9190612655565b60405180910390f35b610580600480360381019061057b9190612806565b61150b565b005b61059c6004803603810190610597919061275c565b611686565b6040516105a99190612741565b60405180910390f35b6105cc60048036038101906105c79190612806565b6117de565b005b6105e860048036038101906105e3919061275c565b611924565b6040516105f59190612741565b60405180910390f35b61061860048036038101906106139190612806565b611a7c565b6040516106259190612798565b60405180910390f35b61064860048036038101906106439190612806565b611b03565b005b610664600480360381019061065f9190612806565b611c7e565b005b60606003805461067590612a3d565b80601f01602080910402602001604051908101604052809291908181526020018280546106a190612a3d565b80156106ee5780601f106106c3576101008083540402835291602001916106ee565b820191906000526020600020905b8154815290600101906020018083116106d157829003601f168201915b5050505050905090565b600560009054906101000a900473ffffffffffffffffffffffffffffffffffffffff1681565b600061073261072b611dc4565b8484611dcc565b6001905092915050565b6000600a60009054906101000a900473ffffffffffffffffffffffffffffffffffffffff1673ffffffffffffffffffffffffffffffffffffffff163373ffffffffffffffffffffffffffffffffffffffff16146107ce576040517f08c379a00000000000000000000000000000000000000000000000000000000081526004016107c590612ae1565b60405180910390fd5b81600a60006101000a81548173ffffffffffffffffffffffffffffffffffffffff021916908373ffffffffffffffffffffffffffffffffffffffff160217905550600a60009054906101000a900473ffffffffffffffffffffffffffffffffffffffff1673ffffffffffffffffffffffffffffffffffffffff163373ffffffffffffffffffffffffffffffffffffffff167f6892a8923ec61e89beaa10370e660884074b3bec292be12802599cf655bba75260405160405180910390a360019050919050565b6000600254905090565b6000600760009054906101000a900473ffffffffffffffffffffffffffffffffffffffff1673ffffffffffffffffffffffffffffffffffffffff163373ffffffffffffffffffffffffffffffffffffffff1614610930576040517f08c379a000000000000000000000000000000000000000000000000000000000815260040161092790612b73565b60405180910390fd5b81600760006101000a81548173ffffffffffffffffffffffffffffffffffffffff021916908373ffffffffffffffffffffffffffffffffffffffff160217905550600760009054906101000a900473ffffffffffffffffffffffffffffffffffffffff1673ffffffffffffffffffffffffffffffffffffffff163373ffffffffffffffffffffffffffffffffffffffff167f76ce921e20c471c95deae34d20d53706ec4378ecab394e517f73aef912ae6cdd60405160405180910390a360019050919050565b6000610a03848484611f97565b6000600160008673ffffffffffffffffffffffffffffffffffffffff1673ffffffffffffffffffffffffffffffffffffffff1681526020019081526020016000206000610a4e611dc4565b73ffffffffffffffffffffffffffffffffffffffff1673ffffffffffffffffffffffffffffffffffffffff16815260200190815260200160002054905082811015610ace576040517f08c379a0000000000000000000000000000000000000000000000000000000008152600401610ac590612c05565b60405180910390fd5b610ae285610ada611dc4565b858403611dcc565b60019150509392505050565b3373ffffffffffffffffffffffffffffffffffffffff16600660009054906101000a900473ffffffffffffffffffffffffffffffffffffffff1673ffffffffffffffffffffffffffffffffffffffff1614610b7e576040517f08c379a0000000000000000000000000000000000000000000000000000000008152600401610b7590612c71565b60405180910390fd5b610b89826001612218565b8173ffffffffffffffffffffffffffffffffffffffff167fe7cd4ce7f2a465edc730269a1305e8a48bad821e8fb7e152ec413829c01a53c442604051610bcf9190612cdd565b60405180910390a2610be2816003612218565b8073ffffffffffffffffffffffffffffffffffffffff167fe7cd4ce7f2a465edc730269a1305e8a48bad821e8fb7e152ec413829c01a53c442604051610c289190612cdd565b60405180910390a25050565b3373ffffffffffffffffffffffffffffffffffffffff16600960009054906101000a900473ffffffffffffffffffffffffffffffffffffffff1673ffffffffffffffffffffffffffffffffffffffff1614610cc4576040517f08c379a0000000000000000000000000000000000000000000000000000000008152600401610cbb90612c71565b60405180910390fd5b610ccf826001612218565b8173ffffffffffffffffffffffffffffffffffffffff167fe7cd4ce7f2a465edc730269a1305e8a48bad821e8fb7e152ec413829c01a53c442604051610d159190612d57565b60405180910390a2610d28816006612218565b8073ffffffffffffffffffffffffffffffffffffffff167fe7cd4ce7f2a465edc730269a1305e8a48bad821e8fb7e152ec413829c01a53c442604051610d6e9190612d57565b60405180910390a25050565b60006012905090565b6000610e25610d90611dc4565b848460016000610d9e611dc4565b73ffffffffffffffffffffffffffffffffffffffff1673ffffffffffffffffffffffffffffffffffffffff16815260200190815260200160002060008873ffffffffffffffffffffffffffffffffffffffff1673ffffffffffffffffffffffffffffffffffffffff16815260200190815260200160002054610e209190612db4565b611dcc565b6001905092915050565b6000600660009054906101000a900473ffffffffffffffffffffffffffffffffffffffff1673ffffffffffffffffffffffffffffffffffffffff163373ffffffffffffffffffffffffffffffffffffffff1614610ec1576040517f08c379a0000000000000000000000000000000000000000000000000000000008152600401610eb890612e7c565b60405180910390fd5b81600660006101000a81548173ffffffffffffffffffffffffffffffffffffffff021916908373ffffffffffffffffffffffffffffffffffffffff160217905550600660009054906101000a900473ffffffffffffffffffffffffffffffffffffffff1673ffffffffffffffffffffffffffffffffffffffff163373ffffffffffffffffffffffffffffffffffffffff167f76ce921e20c471c95deae34d20d53706ec4378ecab394e517f73aef912ae6cdd60405160405180910390a360019050919050565b6000600960009054906101000a900473ffffffffffffffffffffffffffffffffffffffff1673ffffffffffffffffffffffffffffffffffffffff163373ffffffffffffffffffffffffffffffffffffffff1614611019576040517f08c379a000000000000000000000000000000000000000000000000000000000815260040161101090612f0e565b60405180910390fd5b81600960006101000a81548173ffffffffffffffffffffffffffffffffffffffff021916908373ffffffffffffffffffffffffffffffffffffffff160217905550600960009054906101000a900473ffffffffffffffffffffffffffffffffffffffff1673ffffffffffffffffffffffffffffffffffffffff163373ffffffffffffffffffffffffffffffffffffffff167f317b209d0dca6ddb6667f7c47d488a9708cc0e7befa4cde41a104b125a1d9ef660405160405180910390a360019050919050565b600a60009054906101000a900473ffffffffffffffffffffffffffffffffffffffff1681565b60008060008373ffffffffffffffffffffffffffffffffffffffff1673ffffffffffffffffffffffffffffffffffffffff168152602001908152602001600020549050919050565b3373ffffffffffffffffffffffffffffffffffffffff16600760009054906101000a900473ffffffffffffffffffffffffffffffffffffffff1673ffffffffffffffffffffffffffffffffffffffff16146111dd576040517f08c379a00000000000000000000000000000000000000000000000000000000081526004016111d490612fa0565b60405180910390fd5b6111e8826008612218565b8173ffffffffffffffffffffffffffffffffffffffff167fe7cd4ce7f2a465edc730269a1305e8a48bad821e8fb7e152ec413829c01a53c44260405161122e919061300c565b60405180910390a25050565b600860009054906101000a900473ffffffffffffffffffffffffffffffffffffffff1681565b600660009054906101000a900473ffffffffffffffffffffffffffffffffffffffff1681565b600760009054906101000a900473ffffffffffffffffffffffffffffffffffffffff1681565b6060600480546112bb90612a3d565b80601f01602080910402602001604051908101604052809291908181526020018280546112e790612a3d565b80156113345780601f1061130957610100808354040283529160200191611334565b820191906000526020600020905b81548152906001019060200180831161131757829003601f168201915b5050505050905090565b600a60009054906101000a900473ffffffffffffffffffffffffffffffffffffffff1673ffffffffffffffffffffffffffffffffffffffff163373ffffffffffffffffffffffffffffffffffffffff16146113ce576040517f08c379a00000000000000000000000000000000000000000000000000000000081526004016113c5906130ac565b60405180910390fd5b6113d88282612378565b5050565b600080600160006113eb611dc4565b73ffffffffffffffffffffffffffffffffffffffff1673ffffffffffffffffffffffffffffffffffffffff16815260200190815260200160002060008573ffffffffffffffffffffffffffffffffffffffff1673ffffffffffffffffffffffffffffffffffffffff168152602001908152602001600020549050828110156114a8576040517f08c379a000000000000000000000000000000000000000000000000000000000815260040161149f9061313e565b60405180910390fd5b6114bc6114b3611dc4565b85858403611dcc565b600191505092915050565b60006114db6114d4611dc4565b8484611f97565b6001905092915050565b600960009054906101000a900473ffffffffffffffffffffffffffffffffffffffff1681565b3373ffffffffffffffffffffffffffffffffffffffff16600660009054906101000a900473ffffffffffffffffffffffffffffffffffffffff1673ffffffffffffffffffffffffffffffffffffffff161461159b576040517f08c379a000000000000000000000000000000000000000000000000000000000815260040161159290612c71565b60405180910390fd5b6115a6826002612218565b8173ffffffffffffffffffffffffffffffffffffffff167fe7cd4ce7f2a465edc730269a1305e8a48bad821e8fb7e152ec413829c01a53c4426040516115ec91906131aa565b60405180910390a2600073ffffffffffffffffffffffffffffffffffffffff168173ffffffffffffffffffffffffffffffffffffffff161461163457611633816004612218565b5b8073ffffffffffffffffffffffffffffffffffffffff167fe7cd4ce7f2a465edc730269a1305e8a48bad821e8fb7e152ec413829c01a53c44260405161167a9190613224565b60405180910390a25050565b6000600860009054906101000a900473ffffffffffffffffffffffffffffffffffffffff1673ffffffffffffffffffffffffffffffffffffffff163373ffffffffffffffffffffffffffffffffffffffff1614611718576040517f08c379a000000000000000000000000000000000000000000000000000000000815260040161170f906132c4565b60405180910390fd5b81600860006101000a81548173ffffffffffffffffffffffffffffffffffffffff021916908373ffffffffffffffffffffffffffffffffffffffff160217905550600860009054906101000a900473ffffffffffffffffffffffffffffffffffffffff1673ffffffffffffffffffffffffffffffffffffffff163373ffffffffffffffffffffffffffffffffffffffff167f76ce921e20c471c95deae34d20d53706ec4378ecab394e517f73aef912ae6cdd60405160405180910390a360019050919050565b3373ffffffffffffffffffffffffffffffffffffffff16600860009054906101000a900473ffffffffffffffffffffffffffffffffffffffff1673ffffffffffffffffffffffffffffffffffffffff161461186e576040517f08c379a000000000000000000000000000000000000000000000000000000000815260040161186590613356565b60405180910390fd5b611879826002612218565b8173ffffffffffffffffffffffffffffffffffffffff167fe7cd4ce7f2a465edc730269a1305e8a48bad821e8fb7e152ec413829c01a53c4426040516118bf91906133c2565b60405180910390a26118d2816005612218565b8073ffffffffffffffffffffffffffffffffffffffff167fe7cd4ce7f2a465edc730269a1305e8a48bad821e8fb7e152ec413829c01a53c44260405161191891906133c2565b60405180910390a25050565b6000600560009054906101000a900473ffffffffffffffffffffffffffffffffffffffff1673ffffffffffffffffffffffffffffffffffffffff163373ffffffffffffffffffffffffffffffffffffffff16146119b6576040517f08c379a00000000000000000000000000000000000000000000000000000000081526004016119ad90613462565b60405180910390fd5b81600560006101000a81548173ffffffffffffffffffffffffffffffffffffffff021916908373ffffffffffffffffffffffffffffffffffffffff160217905550600560009054906101000a900473ffffffffffffffffffffffffffffffffffffffff1673ffffffffffffffffffffffffffffffffffffffff163373ffffffffffffffffffffffffffffffffffffffff167f3b0007eb941cf645526cbb3a4fdaecda9d28ce4843167d9263b536a1f1edc0f660405160405180910390a360019050919050565b6000600160008473ffffffffffffffffffffffffffffffffffffffff1673ffffffffffffffffffffffffffffffffffffffff16815260200190815260200160002060008373ffffffffffffffffffffffffffffffffffffffff1673ffffffffffffffffffffffffffffffffffffffff16815260200190815260200160002054905092915050565b3373ffffffffffffffffffffffffffffffffffffffff16600660009054906101000a900473ffffffffffffffffffffffffffffffffffffffff1673ffffffffffffffffffffffffffffffffffffffff1614611b93576040517f08c379a0000000000000000000000000000000000000000000000000000000008152600401611b8a90612c71565b60405180910390fd5b611b9e826002612218565b8173ffffffffffffffffffffffffffffffffffffffff167fe7cd4ce7f2a465edc730269a1305e8a48bad821e8fb7e152ec413829c01a53c442604051611be491906134ce565b60405180910390a2600073ffffffffffffffffffffffffffffffffffffffff168173ffffffffffffffffffffffffffffffffffffffff1614611c2c57611c2b816004612218565b5b8073ffffffffffffffffffffffffffffffffffffffff167fe7cd4ce7f2a465edc730269a1305e8a48bad821e8fb7e152ec413829c01a53c442604051611c7291906134ce565b60405180910390a25050565b3373ffffffffffffffffffffffffffffffffffffffff16600760009054906101000a900473ffffffffffffffffffffffffffffffffffffffff1673ffffffffffffffffffffffffffffffffffffffff1614611d0e576040517f08c379a0000000000000000000000000000000000000000000000000000000008152600401611d0590612c71565b60405180910390fd5b611d19826005612218565b8173ffffffffffffffffffffffffffffffffffffffff167fe7cd4ce7f2a465edc730269a1305e8a48bad821e8fb7e152ec413829c01a53c442604051611d5f9190613548565b60405180910390a2611d72816006612218565b8173ffffffffffffffffffffffffffffffffffffffff167fe7cd4ce7f2a465edc730269a1305e8a48bad821e8fb7e152ec413829c01a53c442604051611db89190613548565b60405180910390a25050565b600033905090565b600073ffffffffffffffffffffffffffffffffffffffff168373ffffffffffffffffffffffffffffffffffffffff161415611e3c576040517f08c379a0000000000000000000000000000000000000000000000000000000008152600401611e33906135e8565b60405180910390fd5b600073ffffffffffffffffffffffffffffffffffffffff168273ffffffffffffffffffffffffffffffffffffffff161415611eac576040517f08c379a0000000000000000000000000000000000000000000000000000000008152600401611ea39061367a565b60405180910390fd5b80600160008573ffffffffffffffffffffffffffffffffffffffff1673ffffffffffffffffffffffffffffffffffffffff16815260200190815260200160002060008473ffffffffffffffffffffffffffffffffffffffff1673ffffffffffffffffffffffffffffffffffffffff168152602001908152602001600020819055508173ffffffffffffffffffffffffffffffffffffffff168373ffffffffffffffffffffffffffffffffffffffff167f8c5be1e5ebec7d5bd14f71427d1e84f3dd0314c0f7b2291e5b200ac8c7c3b92583604051611f8a9190612798565b60405180910390a3505050565b600073ffffffffffffffffffffffffffffffffffffffff168373ffffffffffffffffffffffffffffffffffffffff161415612007576040517f08c379a0000000000000000000000000000000000000000000000000000000008152600401611ffe9061370c565b60405180910390fd5b600073ffffffffffffffffffffffffffffffffffffffff168273ffffffffffffffffffffffffffffffffffffffff161415612077576040517f08c379a000000000000000000000000000000000000000000000000000000000815260040161206e9061379e565b60405180910390fd5b61208283838361254f565b60008060008573ffffffffffffffffffffffffffffffffffffffff1673ffffffffffffffffffffffffffffffffffffffff16815260200190815260200160002054905081811015612108576040517f08c379a00000000000000000000000000000000000000000000000000000000081526004016120ff90613830565b60405180910390fd5b8181036000808673ffffffffffffffffffffffffffffffffffffffff1673ffffffffffffffffffffffffffffffffffffffff16815260200190815260200160002081905550816000808573ffffffffffffffffffffffffffffffffffffffff1673ffffffffffffffffffffffffffffffffffffffff168152602001908152602001600020600082825461219b9190612db4565b925050819055508273ffffffffffffffffffffffffffffffffffffffff168473ffffffffffffffffffffffffffffffffffffffff167fddf252ad1be2c89b69c2b068fc378daa952ba7f163c4a11628f55a4df523b3ef846040516121ff9190612798565b60405180910390a3612212848484612554565b50505050565b600073ffffffffffffffffffffffffffffffffffffffff168273ffffffffffffffffffffffffffffffffffffffff161415612288576040517f08c379a000000000000000000000000000000000000000000000000000000000815260040161227f9061389c565b60405180910390fd5b6122946000838361254f565b80600260008282546122a69190612db4565b92505081905550806000808473ffffffffffffffffffffffffffffffffffffffff1673ffffffffffffffffffffffffffffffffffffffff16815260200190815260200160002060008282546122fb9190612db4565b925050819055508173ffffffffffffffffffffffffffffffffffffffff16600073ffffffffffffffffffffffffffffffffffffffff167fddf252ad1be2c89b69c2b068fc378daa952ba7f163c4a11628f55a4df523b3ef836040516123609190612798565b60405180910390a361237460008383612554565b5050565b600073ffffffffffffffffffffffffffffffffffffffff168273ffffffffffffffffffffffffffffffffffffffff1614156123e8576040517f08c379a00000000000000000000000000000000000000000000000000000000081526004016123df9061392e565b60405180910390fd5b6123f48260008361254f565b60008060008473ffffffffffffffffffffffffffffffffffffffff1673ffffffffffffffffffffffffffffffffffffffff1681526020019081526020016000205490508181101561247a576040517f08c379a0000000000000000000000000000000000000000000000000000000008152600401612471906139c0565b60405180910390fd5b8181036000808573ffffffffffffffffffffffffffffffffffffffff1673ffffffffffffffffffffffffffffffffffffffff1681526020019081526020016000208190555081600260008282546124d191906139e0565b92505081905550600073ffffffffffffffffffffffffffffffffffffffff168373ffffffffffffffffffffffffffffffffffffffff167fddf252ad1be2c89b69c2b068fc378daa952ba7f163c4a11628f55a4df523b3ef846040516125369190612798565b60405180910390a361254a83600084612554565b505050565b505050565b505050565b600081519050919050565b600082825260208201905092915050565b60005b83811015612593578082015181840152602081019050612578565b838111156125a2576000848401525b50505050565b6000601f19601f8301169050919050565b60006125c482612559565b6125ce8185612564565b93506125de818560208601612575565b6125e7816125a8565b840191505092915050565b6000602082019050818103600083015261260c81846125b9565b905092915050565b600073ffffffffffffffffffffffffffffffffffffffff82169050919050565b600061263f82612614565b9050919050565b61264f81612634565b82525050565b600060208201905061266a6000830184612646565b92915050565b6000604051905090565b600080fd5b600080fd5b61268d81612634565b811461269857600080fd5b50565b6000813590506126aa81612684565b92915050565b6000819050919050565b6126c3816126b0565b81146126ce57600080fd5b50565b6000813590506126e0816126ba565b92915050565b600080604083850312156126fd576126fc61267a565b5b600061270b8582860161269b565b925050602061271c858286016126d1565b9150509250929050565b60008115159050919050565b61273b81612726565b82525050565b60006020820190506127566000830184612732565b92915050565b6000602082840312156127725761277161267a565b5b60006127808482850161269b565b91505092915050565b612792816126b0565b82525050565b60006020820190506127ad6000830184612789565b92915050565b6000806000606084860312156127cc576127cb61267a565b5b60006127da8682870161269b565b93505060206127eb8682870161269b565b92505060406127fc868287016126d1565b9150509250925092565b6000806040838503121561281d5761281c61267a565b5b600061282b8582860161269b565b925050602061283c8582860161269b565b9150509250929050565b600060ff82169050919050565b61285c81612846565b82525050565b60006020820190506128776000830184612853565b92915050565b600080fd5b600080fd5b7f4e487b7100000000000000000000000000000000000000000000000000000000600052604160045260246000fd5b6128bf826125a8565b810181811067ffffffffffffffff821117156128de576128dd612887565b5b80604052505050565b60006128f1612670565b90506128fd82826128b6565b919050565b600067ffffffffffffffff82111561291d5761291c612887565b5b612926826125a8565b9050602081019050919050565b82818337600083830152505050565b600061295561295084612902565b6128e7565b90508281526020810184848401111561297157612970612882565b5b61297c848285612933565b509392505050565b600082601f8301126129995761299861287d565b5b81356129a9848260208601612942565b91505092915050565b600080604083850312156129c9576129c861267a565b5b60006129d78582860161269b565b925050602083013567ffffffffffffffff8111156129f8576129f761267f565b5b612a0485828601612984565b9150509250929050565b7f4e487b7100000000000000000000000000000000000000000000000000000000600052602260045260246000fd5b60006002820490506001821680612a5557607f821691505b60208210811415612a6957612a68612a0e565b5b50919050565b7f4572726f723a206f6e6c79206465706c6f7965722063616e207061737320626f60008201527f6f7374207369676e657220726f6c650000000000000000000000000000000000602082015250565b6000612acb602f83612564565b9150612ad682612a6f565b604082019050919050565b60006020820190508181036000830152612afa81612abe565b9050919050565b7f4572726f722c206f6e6c79206465706c6f7965722063616e207061737320706f60008201527f737427732063616c6c657220726f6c6500000000000000000000000000000000602082015250565b6000612b5d603083612564565b9150612b6882612b01565b604082019050919050565b60006020820190508181036000830152612b8c81612b50565b9050919050565b7f45524332303a207472616e7366657220616d6f756e742065786365656473206160008201527f6c6c6f77616e6365000000000000000000000000000000000000000000000000602082015250565b6000612bef602883612564565b9150612bfa82612b93565b604082019050919050565b60006020820190508181036000830152612c1e81612be2565b9050919050565b7f4572726f723a2077726f6e67206163636f756e74000000000000000000000000600082015250565b6000612c5b601483612564565b9150612c6682612c25565b602082019050919050565b60006020820190508181036000830152612c8a81612c4e565b9050919050565b7f5441470000000000000000000000000000000000000000000000000000000000600082015250565b6000612cc7600383612564565b9150612cd282612c91565b602082019050919050565b6000604082019050612cf26000830184612789565b8181036020830152612d0381612cba565b905092915050565b7f464f4c4c4f570000000000000000000000000000000000000000000000000000600082015250565b6000612d41600683612564565b9150612d4c82612d0b565b602082019050919050565b6000604082019050612d6c6000830184612789565b8181036020830152612d7d81612d34565b905092915050565b7f4e487b7100000000000000000000000000000000000000000000000000000000600052601160045260246000fd5b6000612dbf826126b0565b9150612dca836126b0565b9250827fffffffffffffffffffffffffffffffffffffffffffffffffffffffffffffffff03821115612dff57612dfe612d85565b5b828201905092915050565b7f4572726f722c206f6e6c79206465706c6f7965722063616e2070617373206d6560008201527f6d65466163746f72792063616c6c657220726f6c650000000000000000000000602082015250565b6000612e66603583612564565b9150612e7182612e0a565b604082019050919050565b60006020820190508181036000830152612e9581612e59565b9050919050565b7f4572726f723a206f6e6c79206465706c6f7965722063616e207061737320666f60008201527f6c6c6f77206d696e746572207369676e657220726f6c65000000000000000000602082015250565b6000612ef8603783612564565b9150612f0382612e9c565b604082019050919050565b60006020820190508181036000830152612f2781612eeb565b9050919050565b7f4572726f723a2077726f6e67205f6163636f756e742063616c6c696e67206d6960008201527f6e74000000000000000000000000000000000000000000000000000000000000602082015250565b6000612f8a602283612564565b9150612f9582612f2e565b604082019050919050565b60006020820190508181036000830152612fb981612f7d565b9050919050565b7f504f535400000000000000000000000000000000000000000000000000000000600082015250565b6000612ff6600483612564565b915061300182612fc0565b602082019050919050565b60006040820190506130216000830184612789565b818103602083015261303281612fe9565b905092915050565b7f4572726f723a206275726e6572206d75737420626520626f6f73742d7369676e60008201527f6572000000000000000000000000000000000000000000000000000000000000602082015250565b6000613096602283612564565b91506130a18261303a565b604082019050919050565b600060208201905081810360008301526130c581613089565b9050919050565b7f45524332303a2064656372656173656420616c6c6f77616e63652062656c6f7760008201527f207a65726f000000000000000000000000000000000000000000000000000000602082015250565b6000613128602583612564565b9150613133826130cc565b604082019050919050565b600060208201905081810360008301526131578161311b565b9050919050565b7f524553504f4e442046524f4d0000000000000000000000000000000000000000600082015250565b6000613194600c83612564565b915061319f8261315e565b602082019050919050565b60006040820190506131bf6000830184612789565b81810360208301526131d081613187565b905092915050565b7f524553504f4e4420544f00000000000000000000000000000000000000000000600082015250565b600061320e600a83612564565b9150613219826131d8565b602082019050919050565b60006040820190506132396000830184612789565b818103602083015261324a81613201565b905092915050565b7f4572726f723a206f6e6c79206465706c6f7965722063616e2070617373206c6960008201527f6b65206d696e746572207369676e65722063616c6c657220726f6c6500000000602082015250565b60006132ae603c83612564565b91506132b982613252565b604082019050919050565b600060208201905081810360008301526132dd816132a1565b9050919050565b7f4572726f723a2077726f6e67206163636f756e742063616c6c696e67206d696e60008201527f7400000000000000000000000000000000000000000000000000000000000000602082015250565b6000613340602183612564565b915061334b826132e4565b604082019050919050565b6000602082019050818103600083015261336f81613333565b9050919050565b7f4c494b4500000000000000000000000000000000000000000000000000000000600082015250565b60006133ac600483612564565b91506133b782613376565b602082019050919050565b60006040820190506133d76000830184612789565b81810360208301526133e88161339f565b905092915050565b7f4572726f723a206f6e6c79206465706c6f7965722063616e206368616e67652060008201527f70617373206d696e74657220726f6c6500000000000000000000000000000000602082015250565b600061344c603083612564565b9150613457826133f0565b604082019050919050565b6000602082019050818103600083015261347b8161343f565b9050919050565b7f4355524154450000000000000000000000000000000000000000000000000000600082015250565b60006134b8600683612564565b91506134c382613482565b602082019050919050565b60006040820190506134e36000830184612789565b81810360208301526134f4816134ab565b905092915050565b7f5245504f53540000000000000000000000000000000000000000000000000000600082015250565b6000613532600683612564565b915061353d826134fc565b602082019050919050565b600060408201905061355d6000830184612789565b818103602083015261356e81613525565b905092915050565b7f45524332303a20617070726f76652066726f6d20746865207a65726f2061646460008201527f7265737300000000000000000000000000000000000000000000000000000000602082015250565b60006135d2602483612564565b91506135dd82613576565b604082019050919050565b60006020820190508181036000830152613601816135c5565b9050919050565b7f45524332303a20617070726f766520746f20746865207a65726f20616464726560008201527f7373000000000000000000000000000000000000000000000000000000000000602082015250565b6000613664602283612564565b915061366f82613608565b604082019050919050565b6000602082019050818103600083015261369381613657565b9050919050565b7f45524332303a207472616e736665722066726f6d20746865207a65726f20616460008201527f6472657373000000000000000000000000000000000000000000000000000000602082015250565b60006136f6602583612564565b91506137018261369a565b604082019050919050565b60006020820190508181036000830152613725816136e9565b9050919050565b7f45524332303a207472616e7366657220746f20746865207a65726f206164647260008201527f6573730000000000000000000000000000000000000000000000000000000000602082015250565b6000613788602383612564565b91506137938261372c565b604082019050919050565b600060208201905081810360008301526137b78161377b565b9050919050565b7f45524332303a207472616e7366657220616d6f756e742065786365656473206260008201527f616c616e63650000000000000000000000000000000000000000000000000000602082015250565b600061381a602683612564565b9150613825826137be565b604082019050919050565b600060208201905081810360008301526138498161380d565b9050919050565b7f45524332303a206d696e7420746f20746865207a65726f206164647265737300600082015250565b6000613886601f83612564565b915061389182613850565b602082019050919050565b600060208201905081810360008301526138b581613879565b9050919050565b7f45524332303a206275726e2066726f6d20746865207a65726f2061646472657360008201527f7300000000000000000000000000000000000000000000000000000000000000602082015250565b6000613918602183612564565b9150613923826138bc565b604082019050919050565b600060208201905081810360008301526139478161390b565b9050919050565b7f45524332303a206275726e20616d6f756e7420657863656564732062616c616e60008201527f6365000000000000000000000000000000000000000000000000000000000000602082015250565b60006139aa602283612564565b91506139b58261394e565b604082019050919050565b600060208201905081810360008301526139d98161399d565b9050919050565b60006139eb826126b0565b91506139f6836126b0565b925082821015613a0957613a08612d85565b5b82820390509291505056fea264697066735822122092ad0b70ab8fa7c928d26b0747a90b58075fd9a5546c57b90261c3bb9e3a5bbb64736f6c63430008090033",
  "immutableReferences": {},
  "source": "// SPDX-License-Identifier: MIT\n\npragma solidity >=0.8.0 <0.9.0;\n\nimport \"@openzeppelin/contracts/token/ERC20/ERC20.sol\";\n\ncontract UME is ERC20 {\n\n  // minter's address\n  address public minter;\n  address public memeFactorySigner;\n  address public postSigner;\n  address public likeSigner;\n  address public followSigner;\n  address public boostSigner;\n\n  // minter role has changed to We\n  event MinterChanged(address indexed from, address indexed to);\n  event PostSignerChanged(address indexed from, address indexed to);\n  event MemeFactorySignerChanged(address indexed from, address indexed to);\n  event LikeSignerChanged(address indexed from, address indexed to);\n  event FollowSignerChanged(address indexed from, address indexed to);\n  event BoostSignerChanged(address indexed from, address indexed to);\n  // minting events\n  event Minted(address indexed account, uint time, string flag);\n\n  constructor() public payable ERC20(\"uMe token\", \"UME\") {\n    // assign minter & caller roles\n    minter = msg.sender;\n    postSigner = msg.sender;\n    memeFactorySigner = msg.sender;\n    likeSigner = msg.sender;\n    followSigner = msg.sender;\n    boostSigner = msg.sender;\n  }\n\n  function mintPost(\n    address _account,\n    string memory _postText\n  ) public {\n    // make sure minter is same as sender\n    require(\n      postSigner==msg.sender,\n      'Error: wrong _account calling mint');\n    //require(minter!=_account, 'Error: \"we\" cannot call mint');\n    //require(bytes(_postHash).length > 0, 'Error: no post exists'); // check if post hash exists\n//    require(\n//      bytes(_postText).length > 0,\n//      'Error: no text in post'); // check if there's text in post\n    // mint UME token for Posted\n    _mint(address(_account), 8);\n    // set event for minted Posted UME tokens\n    emit Minted(_account, block.timestamp /*, _postHash  */ , 'POST');\n  }\n  function mintLike(\n    address _from,\n    address _to\n  ) public { // 2:5 Liker:Liked\n    require(\n      likeSigner==msg.sender,\n      'Error: wrong account calling mint');\n//    require(\n//      _from!=_to,\n//      'Error: same account');\n//    require(\n//      minter!=_from,\n//      'Error: \"we\" cannot call mint');\n    //require(bytes(_postHash).length > 0, 'Error: no post exists');\n    // mint a LIKE token for liker\n    _mint(address(_from), 2);\n    // set event for LIKE token FROM\n    emit Minted(_from, block.timestamp /*, _postHash  */ , 'LIKE');\n    // mint LIKE tokens for likee\n    _mint(address(_to), 5);\n    // set event for LIKE token TO\n    emit Minted(_to, block.timestamp /*, _postHash  */ , 'LIKE');\n  }\n  function mintTag(\n    address _from,\n    address _to\n  ) public { // 1:3 Tagger:Tagged\n    require(\n      memeFactorySigner==msg.sender,\n      'Error: wrong account');\n//    require(\n//      minter!=_from,\n//      'Error: \"we\" cannot call mint');\n//    require(\n//      _from!=_to,\n//      'Error: same account');\n    // mint a TAG token for tagger\n    _mint(_from, 1);\n    // set event for TAG token FROM\n    emit Minted(_from, block.timestamp /*, _postHash  */ , 'TAG');\n    // mint TAG tokens for taggee\n    _mint(_to, 3);\n    // set event for TAG token TO\n    emit Minted(_to, block.timestamp /*, _postHash  */ , 'TAG');\n  }\n  function mintFollow(\n    address _from,\n    address _to\n  ) public { // 1:3 Follower:Followed\n    require(\n      followSigner==msg.sender,\n      'Error: wrong account');\n//    require(\n//      minter!=_from,\n//      'Error: \"we\" cannot call mint');\n//    require(\n//      _from!=_to,\n//      'Error: same account'); // doesn't mint tokens if tagged oneself\n    // mint a FOLLOW token for follower\n    _mint(_from, 1);\n    // set event for FOLLOW token FROM\n    emit Minted(_from, block.timestamp, 'FOLLOW');\n    // mint FOLLOW tokens for followed\n    _mint(_to, 6);\n    // set event for FOLLOW token TO\n    emit Minted(_to, block.timestamp,'FOLLOW');\n  }\n  function mintRespond(\n    address _from,\n    address _to\n  ) public { // 2:4 Responder:Responded\n    require(\n      memeFactorySigner==msg.sender,\n      'Error: wrong account');\n//    require(\n//      minter!=_from,\n//      'Error: \"we\" cannot call mint');\n//    require(\n//      _from!=_to,\n//      'Error: same account');\n    // mint a RESPOND token for responder\n    _mint(_from, 2);\n    // set event for RESPOND token FROM\n    emit Minted(_from, block.timestamp, 'RESPOND FROM');\n    // mint RESPOND tokens for responded\n    if(_to!=address(0x0)) {\n      _mint(_to, 4);\n    }\n    // set event for RESPOND token TO\n    emit Minted(_to, block.timestamp, 'RESPOND TO');\n  }\n  function mintCurate(\n    address _from,\n    address _to\n  ) public { // 2:4 Responder:Responded\n    require(\n      memeFactorySigner==msg.sender,\n      'Error: wrong account');\n//    require(\n//      minter!=_from,\n//      'Error: \"we\" cannot mint');\n//    require(\n//      _from!=_to,\n//      'Error: same account'); // doesn't mint tokens if tagged oneself\n    //require(bytes(_postHash).length > 0, 'Error: no post exists');\n    // mint a CURATE token for curatee\n    _mint(_from, 2);\n    // set event for CURATE token FROM\n    emit Minted(_from, block.timestamp, 'CURATE');\n    // mint CURATE tokens for curator\n    if(_to!=address(0x0)) {\n      _mint(_to, 4);\n    }\n    // set event for CURATE token TO\n    emit Minted(_to, block.timestamp, 'CURATE');\n  }\n  function mintRepost(\n    address _from,\n    address _to\n  ) public {\n    require(\n      postSigner==msg.sender,\n      'Error: wrong account');\n//    require(\n//      minter!=_from,\n//      'Error: \"we\" cannot mint');\n//    require(_from!=_to, 'Error: same account');\n    //mint REPOST token for reposter\n    _mint(_from, 5);\n    // set event for REPOST from\n    emit Minted(_from, block.timestamp, 'REPOST');\n    // mint REPOST token for original poster\n    _mint(_to, 6);\n    // set event for REPOST to\n    emit Minted(_from, block.timestamp, 'REPOST');\n  }\n  /*\n  function mintJury(\n    address account,\n    bool consensusReached\n  ) public { // 4 Juror token if no consensus reached, 24 if consensus reached\n    require(\n      followSigner==msg.sender,\n      'Error: wrong account, needs to be signer');\n    require(\n    minter!=account,\n    'Error: \"we\" cannot mint');\n    //require(\n    bytes(_postHash).length > 0,\n    'Error: no post exists');\n    if(consensusReached==true){\n      // mint 10 JURY token for juror\n      _mint(account, 24);\n      // set event for JURY token consensus reached\n      emit Minted(account, block.timestamp, 'JURY');\n    } else if(consensusReached==false){\n      // mint a JURY token for juror\n      _mint(account, 4);\n      // set event for JURY no consensus reached\n      emit Minted(account, block.timestamp, 'JURY');\n    }\n  }\n*/\n  function burn(address _account, uint _amount) public {\n    require(\n      msg.sender==boostSigner,\n      'Error: burner must be boost-signer');\n//    require(\n//      minter!=_account,\n//      'Error: \"we\" cannot call burn');\n    _burn(_account, _amount);\n  }\n  function passMinterRole(address _we) public returns (bool) {\n    require(\n      msg.sender==minter,\n      'Error: only deployer can change pass minter role');\n    minter = _we;\n\n    emit MinterChanged(msg.sender, minter);\n    return true;\n  }\n  function passPostSignerRole(address _post) public returns (bool) {\n    require(\n      msg.sender==postSigner,\n      'Error, only deployer can pass post\\'s caller role');\n    postSigner = _post;\n    emit PostSignerChanged(msg.sender, postSigner);\n    return true;\n  }\n  function passMemeFactorySignerRole(address _memeFactory) public returns (bool) {\n    require(\n      msg.sender==memeFactorySigner,\n      'Error, only deployer can pass memeFactory caller role');\n    memeFactorySigner= _memeFactory;\n    emit PostSignerChanged(msg.sender, memeFactorySigner);\n    return true;\n  }\n  function passLikeSignerRole(address _like) public returns (bool) {\n    require(\n      msg.sender==likeSigner,\n      'Error: only deployer can pass like minter signer caller role');\n    likeSigner = _like;\n    emit PostSignerChanged(msg.sender, likeSigner);\n    return true;\n  }\n  function passFollowSignerRole(address _follow) public returns (bool) {\n    require(\n      msg.sender==followSigner,\n      'Error: only deployer can pass follow minter signer role');\n    followSigner = _follow;\n    emit FollowSignerChanged(msg.sender, followSigner);\n    return true;\n  }\n  function passBoostSignerRole(address _boost) public returns (bool) {\n    require(\n      msg.sender==boostSigner,\n      'Error: only deployer can pass boost signer role');\n    boostSigner = _boost;\n    emit BoostSignerChanged(msg.sender, boostSigner);\n    return true;\n  }\n}\n",
  "sourcePath": "/Users/jaiq/Documents/000 BLOCKCHAIN/ETH/uMe/src/contracts/UME.sol",
  "compiler": {
    "name": "solc",
    "version": "0.8.9+commit.e5eed63a.Emscripten.clang"
  },
  "schemaVersion": "3.4.3",
  "updatedAt": "2021-10-29T07:30:50.367Z",
  "networkType": "ethereum",
  "devdoc": {
    "kind": "dev",
    "methods": {
      "allowance(address,address)": {
        "details": "See {IERC20-allowance}."
      },
      "approve(address,uint256)": {
        "details": "See {IERC20-approve}. Requirements: - `spender` cannot be the zero address."
      },
      "balanceOf(address)": {
        "details": "See {IERC20-balanceOf}."
      },
      "decimals()": {
        "details": "Returns the number of decimals used to get its user representation. For example, if `decimals` equals `2`, a balance of `505` tokens should be displayed to a user as `5.05` (`505 / 10 ** 2`). Tokens usually opt for a value of 18, imitating the relationship between Ether and Wei. This is the value {ERC20} uses, unless this function is overridden; NOTE: This information is only used for _display_ purposes: it in no way affects any of the arithmetic of the contract, including {IERC20-balanceOf} and {IERC20-transfer}."
      },
      "decreaseAllowance(address,uint256)": {
        "details": "Atomically decreases the allowance granted to `spender` by the caller. This is an alternative to {approve} that can be used as a mitigation for problems described in {IERC20-approve}. Emits an {Approval} event indicating the updated allowance. Requirements: - `spender` cannot be the zero address. - `spender` must have allowance for the caller of at least `subtractedValue`."
      },
      "increaseAllowance(address,uint256)": {
        "details": "Atomically increases the allowance granted to `spender` by the caller. This is an alternative to {approve} that can be used as a mitigation for problems described in {IERC20-approve}. Emits an {Approval} event indicating the updated allowance. Requirements: - `spender` cannot be the zero address."
      },
      "name()": {
        "details": "Returns the name of the token."
      },
      "symbol()": {
        "details": "Returns the symbol of the token, usually a shorter version of the name."
      },
      "totalSupply()": {
        "details": "See {IERC20-totalSupply}."
      },
      "transfer(address,uint256)": {
        "details": "See {IERC20-transfer}. Requirements: - `recipient` cannot be the zero address. - the caller must have a balance of at least `amount`."
      },
      "transferFrom(address,address,uint256)": {
        "details": "See {IERC20-transferFrom}. Emits an {Approval} event indicating the updated allowance. This is not required by the EIP. See the note at the beginning of {ERC20}. Requirements: - `sender` and `recipient` cannot be the zero address. - `sender` must have a balance of at least `amount`. - the caller must have allowance for ``sender``'s tokens of at least `amount`."
      }
    },
    "version": 1
  },
  "userdoc": {
    "kind": "user",
    "methods": {},
    "version": 1
  }
}