{
  "contractName": "UME",
  "abi": [
    {
      "inputs": [],
      "stateMutability": "payable",
      "type": "constructor",
      "payable": true
    },
    {
      "anonymous": false,
      "inputs": [
        {
          "indexed": true,
          "internalType": "address",
          "name": "owner",
          "type": "address"
        },
        {
          "indexed": true,
          "internalType": "address",
          "name": "spender",
          "type": "address"
        },
        {
          "indexed": false,
          "internalType": "uint256",
          "name": "value",
          "type": "uint256"
        }
      ],
      "name": "Approval",
      "type": "event"
    },
    {
      "anonymous": false,
      "inputs": [
        {
          "indexed": true,
          "internalType": "address",
          "name": "account",
          "type": "address"
        },
        {
          "indexed": false,
          "internalType": "uint256",
          "name": "time",
          "type": "uint256"
        },
        {
          "indexed": false,
          "internalType": "string",
          "name": "flag",
          "type": "string"
        }
      ],
      "name": "Minted",
      "type": "event"
    },
    {
      "anonymous": false,
      "inputs": [
        {
          "indexed": true,
          "internalType": "address",
          "name": "accountFrom",
          "type": "address"
        },
        {
          "indexed": true,
          "internalType": "address",
          "name": "accountTo",
          "type": "address"
        }
      ],
      "name": "MinterChanged",
      "type": "event"
    },
    {
      "anonymous": false,
      "inputs": [
        {
          "indexed": true,
          "internalType": "address",
          "name": "accountFrom",
          "type": "address"
        },
        {
          "indexed": true,
          "internalType": "address",
          "name": "accountTo",
          "type": "address"
        }
      ],
      "name": "PostCallerChanged",
      "type": "event"
    },
    {
      "anonymous": false,
      "inputs": [
        {
          "indexed": true,
          "internalType": "address",
          "name": "from",
          "type": "address"
        },
        {
          "indexed": true,
          "internalType": "address",
          "name": "to",
          "type": "address"
        },
        {
          "indexed": false,
          "internalType": "uint256",
          "name": "value",
          "type": "uint256"
        }
      ],
      "name": "Transfer",
      "type": "event"
    },
    {
      "anonymous": false,
      "inputs": [
        {
          "indexed": true,
          "internalType": "address",
          "name": "accountFrom",
          "type": "address"
        },
        {
          "indexed": true,
          "internalType": "address",
          "name": "accountTo",
          "type": "address"
        }
      ],
      "name": "UserCallerChanged",
      "type": "event"
    },
    {
      "inputs": [
        {
          "internalType": "address",
          "name": "owner",
          "type": "address"
        },
        {
          "internalType": "address",
          "name": "spender",
          "type": "address"
        }
      ],
      "name": "allowance",
      "outputs": [
        {
          "internalType": "uint256",
          "name": "",
          "type": "uint256"
        }
      ],
      "stateMutability": "view",
      "type": "function",
      "constant": true
    },
    {
      "inputs": [
        {
          "internalType": "address",
          "name": "spender",
          "type": "address"
        },
        {
          "internalType": "uint256",
          "name": "amount",
          "type": "uint256"
        }
      ],
      "name": "approve",
      "outputs": [
        {
          "internalType": "bool",
          "name": "",
          "type": "bool"
        }
      ],
      "stateMutability": "nonpayable",
      "type": "function"
    },
    {
      "inputs": [
        {
          "internalType": "address",
          "name": "account",
          "type": "address"
        }
      ],
      "name": "balanceOf",
      "outputs": [
        {
          "internalType": "uint256",
          "name": "",
          "type": "uint256"
        }
      ],
      "stateMutability": "view",
      "type": "function",
      "constant": true
    },
    {
      "inputs": [],
      "name": "decimals",
      "outputs": [
        {
          "internalType": "uint8",
          "name": "",
          "type": "uint8"
        }
      ],
      "stateMutability": "view",
      "type": "function",
      "constant": true
    },
    {
      "inputs": [
        {
          "internalType": "address",
          "name": "spender",
          "type": "address"
        },
        {
          "internalType": "uint256",
          "name": "subtractedValue",
          "type": "uint256"
        }
      ],
      "name": "decreaseAllowance",
      "outputs": [
        {
          "internalType": "bool",
          "name": "",
          "type": "bool"
        }
      ],
      "stateMutability": "nonpayable",
      "type": "function"
    },
    {
      "inputs": [
        {
          "internalType": "address",
          "name": "spender",
          "type": "address"
        },
        {
          "internalType": "uint256",
          "name": "addedValue",
          "type": "uint256"
        }
      ],
      "name": "increaseAllowance",
      "outputs": [
        {
          "internalType": "bool",
          "name": "",
          "type": "bool"
        }
      ],
      "stateMutability": "nonpayable",
      "type": "function"
    },
    {
      "inputs": [],
      "name": "minter",
      "outputs": [
        {
          "internalType": "address",
          "name": "",
          "type": "address"
        }
      ],
      "stateMutability": "view",
      "type": "function",
      "constant": true
    },
    {
      "inputs": [],
      "name": "name",
      "outputs": [
        {
          "internalType": "string",
          "name": "",
          "type": "string"
        }
      ],
      "stateMutability": "view",
      "type": "function",
      "constant": true
    },
    {
      "inputs": [],
      "name": "postCaller",
      "outputs": [
        {
          "internalType": "address",
          "name": "",
          "type": "address"
        }
      ],
      "stateMutability": "view",
      "type": "function",
      "constant": true
    },
    {
      "inputs": [],
      "name": "symbol",
      "outputs": [
        {
          "internalType": "string",
          "name": "",
          "type": "string"
        }
      ],
      "stateMutability": "view",
      "type": "function",
      "constant": true
    },
    {
      "inputs": [],
      "name": "totalSupply",
      "outputs": [
        {
          "internalType": "uint256",
          "name": "",
          "type": "uint256"
        }
      ],
      "stateMutability": "view",
      "type": "function",
      "constant": true
    },
    {
      "inputs": [
        {
          "internalType": "address",
          "name": "recipient",
          "type": "address"
        },
        {
          "internalType": "uint256",
          "name": "amount",
          "type": "uint256"
        }
      ],
      "name": "transfer",
      "outputs": [
        {
          "internalType": "bool",
          "name": "",
          "type": "bool"
        }
      ],
      "stateMutability": "nonpayable",
      "type": "function"
    },
    {
      "inputs": [
        {
          "internalType": "address",
          "name": "sender",
          "type": "address"
        },
        {
          "internalType": "address",
          "name": "recipient",
          "type": "address"
        },
        {
          "internalType": "uint256",
          "name": "amount",
          "type": "uint256"
        }
      ],
      "name": "transferFrom",
      "outputs": [
        {
          "internalType": "bool",
          "name": "",
          "type": "bool"
        }
      ],
      "stateMutability": "nonpayable",
      "type": "function"
    },
    {
      "inputs": [],
      "name": "userCaller",
      "outputs": [
        {
          "internalType": "address",
          "name": "",
          "type": "address"
        }
      ],
      "stateMutability": "view",
      "type": "function",
      "constant": true
    },
    {
      "inputs": [
        {
          "internalType": "address",
          "name": "account",
          "type": "address"
        },
        {
          "internalType": "string",
          "name": "_postText",
          "type": "string"
        }
      ],
      "name": "mintPost",
      "outputs": [],
      "stateMutability": "nonpayable",
      "type": "function"
    },
    {
      "inputs": [
        {
          "internalType": "address",
          "name": "accountFrom",
          "type": "address"
        },
        {
          "internalType": "address",
          "name": "accountTo",
          "type": "address"
        }
      ],
      "name": "mintLike",
      "outputs": [],
      "stateMutability": "nonpayable",
      "type": "function"
    },
    {
      "inputs": [
        {
          "internalType": "address",
          "name": "accountFrom",
          "type": "address"
        },
        {
          "internalType": "address",
          "name": "accountTo",
          "type": "address"
        }
      ],
      "name": "mintTag",
      "outputs": [],
      "stateMutability": "nonpayable",
      "type": "function"
    },
    {
      "inputs": [
        {
          "internalType": "address",
          "name": "accountFrom",
          "type": "address"
        },
        {
          "internalType": "address",
          "name": "accountTo",
          "type": "address"
        }
      ],
      "name": "mintFollow",
      "outputs": [],
      "stateMutability": "nonpayable",
      "type": "function"
    },
    {
      "inputs": [
        {
          "internalType": "address",
          "name": "accountFrom",
          "type": "address"
        },
        {
          "internalType": "address",
          "name": "accountTo",
          "type": "address"
        }
      ],
      "name": "mintRespond",
      "outputs": [],
      "stateMutability": "nonpayable",
      "type": "function"
    },
    {
      "inputs": [
        {
          "internalType": "address",
          "name": "accountFrom",
          "type": "address"
        },
        {
          "internalType": "address",
          "name": "accountTo",
          "type": "address"
        }
      ],
      "name": "mintCurate",
      "outputs": [],
      "stateMutability": "nonpayable",
      "type": "function"
    },
    {
      "inputs": [
        {
          "internalType": "address",
          "name": "account",
          "type": "address"
        },
        {
          "internalType": "bool",
          "name": "consensusReached",
          "type": "bool"
        }
      ],
      "name": "mintJury",
      "outputs": [],
      "stateMutability": "nonpayable",
      "type": "function"
    },
    {
      "inputs": [
        {
          "internalType": "address",
          "name": "we",
          "type": "address"
        }
      ],
      "name": "passMinterRole",
      "outputs": [
        {
          "internalType": "bool",
          "name": "",
          "type": "bool"
        }
      ],
      "stateMutability": "nonpayable",
      "type": "function"
    },
    {
      "inputs": [
        {
          "internalType": "address",
          "name": "post",
          "type": "address"
        }
      ],
      "name": "passPostCallerRole",
      "outputs": [
        {
          "internalType": "bool",
          "name": "",
          "type": "bool"
        }
      ],
      "stateMutability": "nonpayable",
      "type": "function"
    },
    {
      "inputs": [
        {
          "internalType": "address",
          "name": "user",
          "type": "address"
        }
      ],
      "name": "passUserCallerRole",
      "outputs": [
        {
          "internalType": "bool",
          "name": "",
          "type": "bool"
        }
      ],
      "stateMutability": "nonpayable",
      "type": "function"
    }
  ],
  "bytecode": "0x60806040526040518060400160405280600981526020017f754d6520746f6b656e00000000000000000000000000000000000000000000008152506040518060400160405280600381526020017f554d4500000000000000000000000000000000000000000000000000000000008152508160039080519060200190620000889291906200016d565b508060049080519060200190620000a19291906200016d565b50505033600560006101000a81548173ffffffffffffffffffffffffffffffffffffffff021916908373ffffffffffffffffffffffffffffffffffffffff16021790555033600660006101000a81548173ffffffffffffffffffffffffffffffffffffffff021916908373ffffffffffffffffffffffffffffffffffffffff16021790555033600760006101000a81548173ffffffffffffffffffffffffffffffffffffffff021916908373ffffffffffffffffffffffffffffffffffffffff16021790555062000282565b8280546200017b906200021d565b90600052602060002090601f0160209004810192826200019f5760008555620001eb565b82601f10620001ba57805160ff1916838001178555620001eb565b82800160010185558215620001eb579182015b82811115620001ea578251825591602001919060010190620001cd565b5b509050620001fa9190620001fe565b5090565b5b8082111562000219576000816000905550600101620001ff565b5090565b600060028204905060018216806200023657607f821691505b602082108114156200024d576200024c62000253565b5b50919050565b7f4e487b7100000000000000000000000000000000000000000000000000000000600052602260045260246000fd5b6134d880620002926000396000f3fe608060405234801561001057600080fd5b50600436106101585760003560e01c8063805fd74b116100c3578063bc8341951161007c578063bc83419514610403578063d04495891461041f578063d7fc5b151461043b578063dd62ed3e1461046b578063e981dc8f1461049b578063fa090d81146104b757610158565b8063805fd74b146103195780638d3f79221461033757806395d89b41146103555780639d69d33f14610373578063a457c2d7146103a3578063a9059cbb146103d357610158565b80632d599ba5116101155780632d599ba514610233578063313ce5671461024f578063395093511461026d578063504bff931461029d57806370a08231146102cd57806376bd8f8c146102fd57610158565b806306fdde031461015d578063075461721461017b578063095ea7b31461019957806318160ddd146101c957806323b872dd146101e75780632cc67a7c14610217575b600080fd5b6101656104d3565b604051610172919061285e565b60405180910390f35b610183610565565b6040516101909190612828565b60405180910390f35b6101b360048036038101906101ae9190612408565b61058b565b6040516101c09190612843565b60405180910390f35b6101d16105a9565b6040516101de9190612aa0565b60405180910390f35b61020160048036038101906101fc9190612319565b6105b3565b60405161020e9190612843565b60405180910390f35b610231600480360381019061022c91906122d9565b6106ab565b005b61024d600480360381019061024891906122d9565b6108f1565b005b610257610b37565b6040516102649190612c2b565b60405180910390f35b61028760048036038101906102829190612408565b610b40565b6040516102949190612843565b60405180910390f35b6102b760048036038101906102b291906122ac565b610bec565b6040516102c49190612843565b60405180910390f35b6102e760048036038101906102e291906122ac565b610d22565b6040516102f49190612aa0565b60405180910390f35b610317600480360381019061031291906123ac565b610d6a565b005b610321610e9b565b60405161032e9190612828565b60405180910390f35b61033f610ec1565b60405161034c9190612828565b60405180910390f35b61035d610ee7565b60405161036a919061285e565b60405180910390f35b61038d600480360381019061038891906122ac565b610f79565b60405161039a9190612843565b60405180910390f35b6103bd60048036038101906103b89190612408565b6110af565b6040516103ca9190612843565b60405180910390f35b6103ed60048036038101906103e89190612408565b61119a565b6040516103fa9190612843565b60405180910390f35b61041d600480360381019061041891906122d9565b6111b8565b005b610439600480360381019061043491906122d9565b6113fe565b005b610455600480360381019061045091906122ac565b611644565b6040516104629190612843565b60405180910390f35b610485600480360381019061048091906122d9565b61177a565b6040516104929190612aa0565b60405180910390f35b6104b560048036038101906104b091906122d9565b611801565b005b6104d160048036038101906104cc919061236c565b611a47565b005b6060600380546104e290612da5565b80601f016020809104026020016040519081016040528092919081815260200182805461050e90612da5565b801561055b5780601f106105305761010080835404028352916020019161055b565b820191906000526020600020905b81548152906001019060200180831161053e57829003601f168201915b5050505050905090565b600560009054906101000a900473ffffffffffffffffffffffffffffffffffffffff1681565b600061059f610598611c3f565b8484611c47565b6001905092915050565b6000600254905090565b60006105c0848484611e12565b6000600160008673ffffffffffffffffffffffffffffffffffffffff1673ffffffffffffffffffffffffffffffffffffffff168152602001908152602001600020600061060b611c3f565b73ffffffffffffffffffffffffffffffffffffffff1673ffffffffffffffffffffffffffffffffffffffff1681526020019081526020016000205490508281101561068b576040517f08c379a000000000000000000000000000000000000000000000000000000000815260040161068290612920565b60405180910390fd5b61069f85610697611c3f565b858403611c47565b60019150509392505050565b3373ffffffffffffffffffffffffffffffffffffffff16600660009054906101000a900473ffffffffffffffffffffffffffffffffffffffff1673ffffffffffffffffffffffffffffffffffffffff161461073b576040517f08c379a000000000000000000000000000000000000000000000000000000000815260040161073290612940565b60405180910390fd5b8173ffffffffffffffffffffffffffffffffffffffff16600560009054906101000a900473ffffffffffffffffffffffffffffffffffffffff1673ffffffffffffffffffffffffffffffffffffffff1614156107cc576040517f08c379a00000000000000000000000000000000000000000000000000000000081526004016107c3906128c0565b60405180910390fd5b8073ffffffffffffffffffffffffffffffffffffffff168273ffffffffffffffffffffffffffffffffffffffff16141561083b576040517f08c379a000000000000000000000000000000000000000000000000000000000815260040161083290612960565b60405180910390fd5b610846826001612093565b8173ffffffffffffffffffffffffffffffffffffffff167fe7cd4ce7f2a465edc730269a1305e8a48bad821e8fb7e152ec413829c01a53c44260405161088c9190612b17565b60405180910390a261089f816003612093565b8073ffffffffffffffffffffffffffffffffffffffff167fe7cd4ce7f2a465edc730269a1305e8a48bad821e8fb7e152ec413829c01a53c4426040516108e59190612b17565b60405180910390a25050565b3373ffffffffffffffffffffffffffffffffffffffff16600760009054906101000a900473ffffffffffffffffffffffffffffffffffffffff1673ffffffffffffffffffffffffffffffffffffffff1614610981576040517f08c379a000000000000000000000000000000000000000000000000000000000815260040161097890612940565b60405180910390fd5b8173ffffffffffffffffffffffffffffffffffffffff16600560009054906101000a900473ffffffffffffffffffffffffffffffffffffffff1673ffffffffffffffffffffffffffffffffffffffff161415610a12576040517f08c379a0000000000000000000000000000000000000000000000000000000008152600401610a09906128c0565b60405180910390fd5b8073ffffffffffffffffffffffffffffffffffffffff168273ffffffffffffffffffffffffffffffffffffffff161415610a81576040517f08c379a0000000000000000000000000000000000000000000000000000000008152600401610a7890612960565b60405180910390fd5b610a8c826001612093565b8173ffffffffffffffffffffffffffffffffffffffff167fe7cd4ce7f2a465edc730269a1305e8a48bad821e8fb7e152ec413829c01a53c442604051610ad29190612bfd565b60405180910390a2610ae5816006612093565b8073ffffffffffffffffffffffffffffffffffffffff167fe7cd4ce7f2a465edc730269a1305e8a48bad821e8fb7e152ec413829c01a53c442604051610b2b9190612bfd565b60405180910390a25050565b60006012905090565b6000610be2610b4d611c3f565b848460016000610b5b611c3f565b73ffffffffffffffffffffffffffffffffffffffff1673ffffffffffffffffffffffffffffffffffffffff16815260200190815260200160002060008873ffffffffffffffffffffffffffffffffffffffff1673ffffffffffffffffffffffffffffffffffffffff16815260200190815260200160002054610bdd9190612cb8565b611c47565b6001905092915050565b6000600660009054906101000a900473ffffffffffffffffffffffffffffffffffffffff1673ffffffffffffffffffffffffffffffffffffffff163373ffffffffffffffffffffffffffffffffffffffff1614610c7e576040517f08c379a0000000000000000000000000000000000000000000000000000000008152600401610c7590612a40565b60405180910390fd5b81600660006101000a81548173ffffffffffffffffffffffffffffffffffffffff021916908373ffffffffffffffffffffffffffffffffffffffff1602179055508173ffffffffffffffffffffffffffffffffffffffff163373ffffffffffffffffffffffffffffffffffffffff167f77c92fdb2e535561a11229adeb4dc3cfa5109f59adca0bcbd4bd6a2c1b31566760405160405180910390a360019050919050565b60008060008373ffffffffffffffffffffffffffffffffffffffff1673ffffffffffffffffffffffffffffffffffffffff168152602001908152602001600020549050919050565b3373ffffffffffffffffffffffffffffffffffffffff16600660009054906101000a900473ffffffffffffffffffffffffffffffffffffffff1673ffffffffffffffffffffffffffffffffffffffff1614610dfa576040517f08c379a0000000000000000000000000000000000000000000000000000000008152600401610df190612980565b60405180910390fd5b6000815111610e3e576040517f08c379a0000000000000000000000000000000000000000000000000000000008152600401610e3590612900565b60405180910390fd5b610e49826008612093565b8173ffffffffffffffffffffffffffffffffffffffff167fe7cd4ce7f2a465edc730269a1305e8a48bad821e8fb7e152ec413829c01a53c442604051610e8f9190612ae9565b60405180910390a25050565b600660009054906101000a900473ffffffffffffffffffffffffffffffffffffffff1681565b600760009054906101000a900473ffffffffffffffffffffffffffffffffffffffff1681565b606060048054610ef690612da5565b80601f0160208091040260200160405190810160405280929190818152602001828054610f2290612da5565b8015610f6f5780601f10610f4457610100808354040283529160200191610f6f565b820191906000526020600020905b815481529060010190602001808311610f5257829003601f168201915b5050505050905090565b6000600760009054906101000a900473ffffffffffffffffffffffffffffffffffffffff1673ffffffffffffffffffffffffffffffffffffffff163373ffffffffffffffffffffffffffffffffffffffff161461100b576040517f08c379a000000000000000000000000000000000000000000000000000000000815260040161100290612a00565b60405180910390fd5b81600760006101000a81548173ffffffffffffffffffffffffffffffffffffffff021916908373ffffffffffffffffffffffffffffffffffffffff1602179055508173ffffffffffffffffffffffffffffffffffffffff163373ffffffffffffffffffffffffffffffffffffffff167f67cbc9cf819d3b5fc6ade73e6b686537ab2c1a0271603e14e8a54d6d233fb45d60405160405180910390a360019050919050565b600080600160006110be611c3f565b73ffffffffffffffffffffffffffffffffffffffff1673ffffffffffffffffffffffffffffffffffffffff16815260200190815260200160002060008573ffffffffffffffffffffffffffffffffffffffff1673ffffffffffffffffffffffffffffffffffffffff1681526020019081526020016000205490508281101561117b576040517f08c379a000000000000000000000000000000000000000000000000000000000815260040161117290612a60565b60405180910390fd5b61118f611186611c3f565b85858403611c47565b600191505092915050565b60006111ae6111a7611c3f565b8484611e12565b6001905092915050565b3373ffffffffffffffffffffffffffffffffffffffff16600660009054906101000a900473ffffffffffffffffffffffffffffffffffffffff1673ffffffffffffffffffffffffffffffffffffffff1614611248576040517f08c379a000000000000000000000000000000000000000000000000000000000815260040161123f90612940565b60405180910390fd5b8173ffffffffffffffffffffffffffffffffffffffff16600560009054906101000a900473ffffffffffffffffffffffffffffffffffffffff1673ffffffffffffffffffffffffffffffffffffffff1614156112d9576040517f08c379a00000000000000000000000000000000000000000000000000000000081526004016112d0906128c0565b60405180910390fd5b8073ffffffffffffffffffffffffffffffffffffffff168273ffffffffffffffffffffffffffffffffffffffff161415611348576040517f08c379a000000000000000000000000000000000000000000000000000000000815260040161133f90612960565b60405180910390fd5b611353826002612093565b8173ffffffffffffffffffffffffffffffffffffffff167fe7cd4ce7f2a465edc730269a1305e8a48bad821e8fb7e152ec413829c01a53c4426040516113999190612b73565b60405180910390a26113ac816004612093565b8073ffffffffffffffffffffffffffffffffffffffff167fe7cd4ce7f2a465edc730269a1305e8a48bad821e8fb7e152ec413829c01a53c4426040516113f29190612b45565b60405180910390a25050565b3373ffffffffffffffffffffffffffffffffffffffff16600660009054906101000a900473ffffffffffffffffffffffffffffffffffffffff1673ffffffffffffffffffffffffffffffffffffffff161461148e576040517f08c379a000000000000000000000000000000000000000000000000000000000815260040161148590612980565b60405180910390fd5b8073ffffffffffffffffffffffffffffffffffffffff168273ffffffffffffffffffffffffffffffffffffffff1614156114fd576040517f08c379a00000000000000000000000000000000000000000000000000000000081526004016114f490612960565b60405180910390fd5b8173ffffffffffffffffffffffffffffffffffffffff16600560009054906101000a900473ffffffffffffffffffffffffffffffffffffffff1673ffffffffffffffffffffffffffffffffffffffff16141561158e576040517f08c379a0000000000000000000000000000000000000000000000000000000008152600401611585906128c0565b60405180910390fd5b611599826002612093565b8173ffffffffffffffffffffffffffffffffffffffff167fe7cd4ce7f2a465edc730269a1305e8a48bad821e8fb7e152ec413829c01a53c4426040516115df9190612abb565b60405180910390a26115f2816005612093565b8073ffffffffffffffffffffffffffffffffffffffff167fe7cd4ce7f2a465edc730269a1305e8a48bad821e8fb7e152ec413829c01a53c4426040516116389190612abb565b60405180910390a25050565b6000600560009054906101000a900473ffffffffffffffffffffffffffffffffffffffff1673ffffffffffffffffffffffffffffffffffffffff163373ffffffffffffffffffffffffffffffffffffffff16146116d6576040517f08c379a00000000000000000000000000000000000000000000000000000000081526004016116cd90612a20565b60405180910390fd5b81600560006101000a81548173ffffffffffffffffffffffffffffffffffffffff021916908373ffffffffffffffffffffffffffffffffffffffff1602179055508173ffffffffffffffffffffffffffffffffffffffff163373ffffffffffffffffffffffffffffffffffffffff167f3b0007eb941cf645526cbb3a4fdaecda9d28ce4843167d9263b536a1f1edc0f660405160405180910390a360019050919050565b6000600160008473ffffffffffffffffffffffffffffffffffffffff1673ffffffffffffffffffffffffffffffffffffffff16815260200190815260200160002060008373ffffffffffffffffffffffffffffffffffffffff1673ffffffffffffffffffffffffffffffffffffffff16815260200190815260200160002054905092915050565b3373ffffffffffffffffffffffffffffffffffffffff16600660009054906101000a900473ffffffffffffffffffffffffffffffffffffffff1673ffffffffffffffffffffffffffffffffffffffff1614611891576040517f08c379a000000000000000000000000000000000000000000000000000000000815260040161188890612940565b60405180910390fd5b8173ffffffffffffffffffffffffffffffffffffffff16600560009054906101000a900473ffffffffffffffffffffffffffffffffffffffff1673ffffffffffffffffffffffffffffffffffffffff161415611922576040517f08c379a0000000000000000000000000000000000000000000000000000000008152600401611919906129c0565b60405180910390fd5b8073ffffffffffffffffffffffffffffffffffffffff168273ffffffffffffffffffffffffffffffffffffffff161415611991576040517f08c379a000000000000000000000000000000000000000000000000000000000815260040161198890612960565b60405180910390fd5b61199c826002612093565b8173ffffffffffffffffffffffffffffffffffffffff167fe7cd4ce7f2a465edc730269a1305e8a48bad821e8fb7e152ec413829c01a53c4426040516119e29190612ba1565b60405180910390a26119f5816004612093565b8073ffffffffffffffffffffffffffffffffffffffff167fe7cd4ce7f2a465edc730269a1305e8a48bad821e8fb7e152ec413829c01a53c442604051611a3b9190612ba1565b60405180910390a25050565b3373ffffffffffffffffffffffffffffffffffffffff16600760009054906101000a900473ffffffffffffffffffffffffffffffffffffffff1673ffffffffffffffffffffffffffffffffffffffff1614611ad7576040517f08c379a0000000000000000000000000000000000000000000000000000000008152600401611ace90612940565b60405180910390fd5b8173ffffffffffffffffffffffffffffffffffffffff16600560009054906101000a900473ffffffffffffffffffffffffffffffffffffffff1673ffffffffffffffffffffffffffffffffffffffff161415611b68576040517f08c379a0000000000000000000000000000000000000000000000000000000008152600401611b5f906129c0565b60405180910390fd5b600115158115151415611bd357611b80826018612093565b8173ffffffffffffffffffffffffffffffffffffffff167fe7cd4ce7f2a465edc730269a1305e8a48bad821e8fb7e152ec413829c01a53c442604051611bc69190612bcf565b60405180910390a2611c3b565b600015158115151415611c3a57611beb826004612093565b8173ffffffffffffffffffffffffffffffffffffffff167fe7cd4ce7f2a465edc730269a1305e8a48bad821e8fb7e152ec413829c01a53c442604051611c319190612bcf565b60405180910390a25b5b5050565b600033905090565b600073ffffffffffffffffffffffffffffffffffffffff168373ffffffffffffffffffffffffffffffffffffffff161415611cb7576040517f08c379a0000000000000000000000000000000000000000000000000000000008152600401611cae906129e0565b60405180910390fd5b600073ffffffffffffffffffffffffffffffffffffffff168273ffffffffffffffffffffffffffffffffffffffff161415611d27576040517f08c379a0000000000000000000000000000000000000000000000000000000008152600401611d1e906128a0565b60405180910390fd5b80600160008573ffffffffffffffffffffffffffffffffffffffff1673ffffffffffffffffffffffffffffffffffffffff16815260200190815260200160002060008473ffffffffffffffffffffffffffffffffffffffff1673ffffffffffffffffffffffffffffffffffffffff168152602001908152602001600020819055508173ffffffffffffffffffffffffffffffffffffffff168373ffffffffffffffffffffffffffffffffffffffff167f8c5be1e5ebec7d5bd14f71427d1e84f3dd0314c0f7b2291e5b200ac8c7c3b92583604051611e059190612aa0565b60405180910390a3505050565b600073ffffffffffffffffffffffffffffffffffffffff168373ffffffffffffffffffffffffffffffffffffffff161415611e82576040517f08c379a0000000000000000000000000000000000000000000000000000000008152600401611e79906129a0565b60405180910390fd5b600073ffffffffffffffffffffffffffffffffffffffff168273ffffffffffffffffffffffffffffffffffffffff161415611ef2576040517f08c379a0000000000000000000000000000000000000000000000000000000008152600401611ee990612880565b60405180910390fd5b611efd8383836121f3565b60008060008573ffffffffffffffffffffffffffffffffffffffff1673ffffffffffffffffffffffffffffffffffffffff16815260200190815260200160002054905081811015611f83576040517f08c379a0000000000000000000000000000000000000000000000000000000008152600401611f7a906128e0565b60405180910390fd5b8181036000808673ffffffffffffffffffffffffffffffffffffffff1673ffffffffffffffffffffffffffffffffffffffff16815260200190815260200160002081905550816000808573ffffffffffffffffffffffffffffffffffffffff1673ffffffffffffffffffffffffffffffffffffffff16815260200190815260200160002060008282546120169190612cb8565b925050819055508273ffffffffffffffffffffffffffffffffffffffff168473ffffffffffffffffffffffffffffffffffffffff167fddf252ad1be2c89b69c2b068fc378daa952ba7f163c4a11628f55a4df523b3ef8460405161207a9190612aa0565b60405180910390a361208d8484846121f8565b50505050565b600073ffffffffffffffffffffffffffffffffffffffff168273ffffffffffffffffffffffffffffffffffffffff161415612103576040517f08c379a00000000000000000000000000000000000000000000000000000000081526004016120fa90612a80565b60405180910390fd5b61210f600083836121f3565b80600260008282546121219190612cb8565b92505081905550806000808473ffffffffffffffffffffffffffffffffffffffff1673ffffffffffffffffffffffffffffffffffffffff16815260200190815260200160002060008282546121769190612cb8565b925050819055508173ffffffffffffffffffffffffffffffffffffffff16600073ffffffffffffffffffffffffffffffffffffffff167fddf252ad1be2c89b69c2b068fc378daa952ba7f163c4a11628f55a4df523b3ef836040516121db9190612aa0565b60405180910390a36121ef600083836121f8565b5050565b505050565b505050565b600061221061220b84612c6b565b612c46565b90508281526020810184848401111561222c5761222b612e9a565b5b612237848285612d63565b509392505050565b60008135905061224e8161345d565b92915050565b60008135905061226381613474565b92915050565b600082601f83011261227e5761227d612e95565b5b813561228e8482602086016121fd565b91505092915050565b6000813590506122a68161348b565b92915050565b6000602082840312156122c2576122c1612ea4565b5b60006122d08482850161223f565b91505092915050565b600080604083850312156122f0576122ef612ea4565b5b60006122fe8582860161223f565b925050602061230f8582860161223f565b9150509250929050565b60008060006060848603121561233257612331612ea4565b5b60006123408682870161223f565b93505060206123518682870161223f565b925050604061236286828701612297565b9150509250925092565b6000806040838503121561238357612382612ea4565b5b60006123918582860161223f565b92505060206123a285828601612254565b9150509250929050565b600080604083850312156123c3576123c2612ea4565b5b60006123d18582860161223f565b925050602083013567ffffffffffffffff8111156123f2576123f1612e9f565b5b6123fe85828601612269565b9150509250929050565b6000806040838503121561241f5761241e612ea4565b5b600061242d8582860161223f565b925050602061243e85828601612297565b9150509250929050565b61245181612d0e565b82525050565b61246081612d20565b82525050565b600061247182612c9c565b61247b8185612ca7565b935061248b818560208601612d72565b61249481612ea9565b840191505092915050565b60006124ac602383612ca7565b91506124b782612eba565b604082019050919050565b60006124cf600483612ca7565b91506124da82612f09565b602082019050919050565b60006124f2602283612ca7565b91506124fd82612f32565b604082019050919050565b6000612515601c83612ca7565b915061252082612f81565b602082019050919050565b6000612538600483612ca7565b915061254382612faa565b602082019050919050565b600061255b600383612ca7565b915061256682612fd3565b602082019050919050565b600061257e602683612ca7565b915061258982612ffc565b604082019050919050565b60006125a1600a83612ca7565b91506125ac8261304b565b602082019050919050565b60006125c4600c83612ca7565b91506125cf82613074565b602082019050919050565b60006125e7601683612ca7565b91506125f28261309d565b602082019050919050565b600061260a600683612ca7565b9150612615826130c6565b602082019050919050565b600061262d602883612ca7565b9150612638826130ef565b604082019050919050565b6000612650600483612ca7565b915061265b8261313e565b602082019050919050565b6000612673601483612ca7565b915061267e82613167565b602082019050919050565b6000612696601383612ca7565b91506126a182613190565b602082019050919050565b60006126b9602183612ca7565b91506126c4826131b9565b604082019050919050565b60006126dc602583612ca7565b91506126e782613208565b604082019050919050565b60006126ff601783612ca7565b915061270a82613257565b602082019050919050565b6000612722602483612ca7565b915061272d82613280565b604082019050919050565b6000612745600683612ca7565b9150612750826132cf565b602082019050919050565b6000612768602d83612ca7565b9150612773826132f8565b604082019050919050565b600061278b602d83612ca7565b915061279682613347565b604082019050919050565b60006127ae602d83612ca7565b91506127b982613396565b604082019050919050565b60006127d1602583612ca7565b91506127dc826133e5565b604082019050919050565b60006127f4601f83612ca7565b91506127ff82613434565b602082019050919050565b61281381612d4c565b82525050565b61282281612d56565b82525050565b600060208201905061283d6000830184612448565b92915050565b60006020820190506128586000830184612457565b92915050565b600060208201905081810360008301526128788184612466565b905092915050565b600060208201905081810360008301526128998161249f565b9050919050565b600060208201905081810360008301526128b9816124e5565b9050919050565b600060208201905081810360008301526128d981612508565b9050919050565b600060208201905081810360008301526128f981612571565b9050919050565b60006020820190508181036000830152612919816125da565b9050919050565b6000602082019050818103600083015261293981612620565b9050919050565b6000602082019050818103600083015261295981612666565b9050919050565b6000602082019050818103600083015261297981612689565b9050919050565b60006020820190508181036000830152612999816126ac565b9050919050565b600060208201905081810360008301526129b9816126cf565b9050919050565b600060208201905081810360008301526129d9816126f2565b9050919050565b600060208201905081810360008301526129f981612715565b9050919050565b60006020820190508181036000830152612a198161275b565b9050919050565b60006020820190508181036000830152612a398161277e565b9050919050565b60006020820190508181036000830152612a59816127a1565b9050919050565b60006020820190508181036000830152612a79816127c4565b9050919050565b60006020820190508181036000830152612a99816127e7565b9050919050565b6000602082019050612ab5600083018461280a565b92915050565b6000604082019050612ad0600083018461280a565b8181036020830152612ae1816124c2565b905092915050565b6000604082019050612afe600083018461280a565b8181036020830152612b0f8161252b565b905092915050565b6000604082019050612b2c600083018461280a565b8181036020830152612b3d8161254e565b905092915050565b6000604082019050612b5a600083018461280a565b8181036020830152612b6b81612594565b905092915050565b6000604082019050612b88600083018461280a565b8181036020830152612b99816125b7565b905092915050565b6000604082019050612bb6600083018461280a565b8181036020830152612bc7816125fd565b905092915050565b6000604082019050612be4600083018461280a565b8181036020830152612bf581612643565b905092915050565b6000604082019050612c12600083018461280a565b8181036020830152612c2381612738565b905092915050565b6000602082019050612c406000830184612819565b92915050565b6000612c50612c61565b9050612c5c8282612dd7565b919050565b6000604051905090565b600067ffffffffffffffff821115612c8657612c85612e66565b5b612c8f82612ea9565b9050602081019050919050565b600081519050919050565b600082825260208201905092915050565b6000612cc382612d4c565b9150612cce83612d4c565b9250827fffffffffffffffffffffffffffffffffffffffffffffffffffffffffffffffff03821115612d0357612d02612e08565b5b828201905092915050565b6000612d1982612d2c565b9050919050565b60008115159050919050565b600073ffffffffffffffffffffffffffffffffffffffff82169050919050565b6000819050919050565b600060ff82169050919050565b82818337600083830152505050565b60005b83811015612d90578082015181840152602081019050612d75565b83811115612d9f576000848401525b50505050565b60006002820490506001821680612dbd57607f821691505b60208210811415612dd157612dd0612e37565b5b50919050565b612de082612ea9565b810181811067ffffffffffffffff82111715612dff57612dfe612e66565b5b80604052505050565b7f4e487b7100000000000000000000000000000000000000000000000000000000600052601160045260246000fd5b7f4e487b7100000000000000000000000000000000000000000000000000000000600052602260045260246000fd5b7f4e487b7100000000000000000000000000000000000000000000000000000000600052604160045260246000fd5b600080fd5b600080fd5b600080fd5b600080fd5b6000601f19601f8301169050919050565b7f45524332303a207472616e7366657220746f20746865207a65726f206164647260008201527f6573730000000000000000000000000000000000000000000000000000000000602082015250565b7f4c494b4500000000000000000000000000000000000000000000000000000000600082015250565b7f45524332303a20617070726f766520746f20746865207a65726f20616464726560008201527f7373000000000000000000000000000000000000000000000000000000000000602082015250565b7f4572726f723a20227765222063616e6e6f742063616c6c206d696e7400000000600082015250565b7f504f535400000000000000000000000000000000000000000000000000000000600082015250565b7f5441470000000000000000000000000000000000000000000000000000000000600082015250565b7f45524332303a207472616e7366657220616d6f756e742065786365656473206260008201527f616c616e63650000000000000000000000000000000000000000000000000000602082015250565b7f524553504f4e4420544f00000000000000000000000000000000000000000000600082015250565b7f524553504f4e442046524f4d0000000000000000000000000000000000000000600082015250565b7f4572726f723a206e6f207465787420696e20706f737400000000000000000000600082015250565b7f4355524154450000000000000000000000000000000000000000000000000000600082015250565b7f45524332303a207472616e7366657220616d6f756e742065786365656473206160008201527f6c6c6f77616e6365000000000000000000000000000000000000000000000000602082015250565b7f4a55525900000000000000000000000000000000000000000000000000000000600082015250565b7f4572726f723a2077726f6e67206163636f756e74000000000000000000000000600082015250565b7f4572726f723a2073616d65206163636f756e7400000000000000000000000000600082015250565b7f4572726f723a2077726f6e67206163636f756e742063616c6c696e67206d696e60008201527f7400000000000000000000000000000000000000000000000000000000000000602082015250565b7f45524332303a207472616e736665722066726f6d20746865207a65726f20616460008201527f6472657373000000000000000000000000000000000000000000000000000000602082015250565b7f4572726f723a20227765222063616e6e6f74206d696e74000000000000000000600082015250565b7f45524332303a20617070726f76652066726f6d20746865207a65726f2061646460008201527f7265737300000000000000000000000000000000000000000000000000000000602082015250565b7f464f4c4c4f570000000000000000000000000000000000000000000000000000600082015250565b7f4572726f722c206f6e6c79206f776e65722063616e207061737320757365722760008201527f732063616c6c657220726f6c6500000000000000000000000000000000000000602082015250565b7f4572726f722c206f6e6c79206f776e65722063616e206368616e67652070617360008201527f73206d696e74657220726f6c6500000000000000000000000000000000000000602082015250565b7f4572726f722c206f6e6c79206f776e65722063616e207061737320706f73742760008201527f732063616c6c657220726f6c6500000000000000000000000000000000000000602082015250565b7f45524332303a2064656372656173656420616c6c6f77616e63652062656c6f7760008201527f207a65726f000000000000000000000000000000000000000000000000000000602082015250565b7f45524332303a206d696e7420746f20746865207a65726f206164647265737300600082015250565b61346681612d0e565b811461347157600080fd5b50565b61347d81612d20565b811461348857600080fd5b50565b61349481612d4c565b811461349f57600080fd5b5056fea2646970667358221220e417887a954d49f85592bb11733eb829d859f11f10223a922f8e8683a68d5c7a64736f6c63430008070033",
  "immutableReferences": {},
  "source": "// SPDX-License-Identifier: MIT\n\npragma solidity >=0.8.0 <0.9.0;\n\nimport \"@openzeppelin/contracts/token/ERC20/ERC20.sol\";\n\ncontract UME is ERC20 {\n\n  // minter's address\n  address public minter;\n  address public postCaller;\n  address public userCaller;\n\n  // minter role has changed to We\n  event MinterChanged(address indexed accountFrom, address indexed accountTo);\n  event PostCallerChanged(address indexed accountFrom, address indexed accountTo);\n  event UserCallerChanged(address indexed accountFrom, address indexed accountTo);\n  // minting events\n  event Minted(address indexed account, uint time /*, string postHash */, string flag);\n\n  constructor() public payable ERC20(\"uMe token\", \"UME\") {\n    // assign minter & caller roles\n    minter = msg.sender;\n    postCaller = msg.sender;\n    userCaller = msg.sender;\n  }\n\n  function mintPost(address account /* , string memory _postHash */ , string memory _postText) public {\n    // make sure minter is same as sender\n    require(postCaller==msg.sender, 'Error: wrong account calling mint');\n    //require(minter!=account, 'Error: \"we\" cannot call mint');\n    //require(bytes(_postHash).length > 0, 'Error: no post exists'); // check if post hash exists\n    require(bytes(_postText).length > 0, 'Error: no text in post'); // check if there's text in post\n    // mint UME token for Posted\n    _mint(address(account), 8);\n    // set event for minted Posted UME tokens\n    emit Minted(account, block.timestamp /*, _postHash  */ , 'POST');\n  }\n  function mintLike(address accountFrom, address accountTo /* , string memory _postHash */ ) public { // 2:5 Liker:Liked\n    require(postCaller==msg.sender, 'Error: wrong account calling mint');\n    require(accountFrom!=accountTo, 'Error: same account');\n    require(minter!=accountFrom, 'Error: \"we\" cannot call mint');\n    //require(bytes(_postHash).length > 0, 'Error: no post exists');\n    // mint a LIKE token for liker\n    _mint(address(accountFrom), 2);\n    // set event for LIKE token FROM\n    emit Minted(accountFrom, block.timestamp /*, _postHash  */ , 'LIKE');\n    // mint LIKE tokens for likee\n    _mint(address(accountTo), 5);\n    // set event for LIKE token TO\n    emit Minted(accountTo, block.timestamp /*, _postHash  */ , 'LIKE');\n  }\n  function mintTag(address accountFrom, address accountTo /* , string memory _postHash */ ) public { // 1:3 Tagger:Tagged\n    require(postCaller==msg.sender, 'Error: wrong account');\n    require(minter!=accountFrom, 'Error: \"we\" cannot call mint');\n    require(accountFrom!=accountTo, 'Error: same account');\n    //require(bytes(_postHash).length > 0, 'Error: no post exists');\n    // mint a TAG token for tagger\n    _mint(accountFrom, 1);\n    // set event for TAG token FROM\n    emit Minted(accountFrom, block.timestamp /*, _postHash  */ , 'TAG');\n    // mint TAG tokens for taggee\n    _mint(accountTo, 3);\n    // set event for TAG token TO\n    emit Minted(accountTo, block.timestamp /*, _postHash  */ , 'TAG');\n  }\n  function mintFollow(address accountFrom, address accountTo) public { // 1:3 Follower:Followed\n    require(userCaller==msg.sender, 'Error: wrong account');\n    require(minter!=accountFrom, 'Error: \"we\" cannot call mint');\n    require(accountFrom!=accountTo, 'Error: same account'); // doesn't mint tokens if tagged oneself\n    // mint a FOLLOW token for follower\n    _mint(accountFrom, 1);\n    // set event for FOLLOW token FROM\n    emit Minted(accountFrom, block.timestamp, 'FOLLOW');\n    // mint FOLLOW tokens for followed\n    _mint(accountTo, 6);\n    // set event for FOLLOW token TO\n    emit Minted(accountTo, block.timestamp,'FOLLOW');\n  }\n  function mintRespond(address accountFrom, address accountTo /* , string memory _postHash */ ) public { // 2:4 Responder:Responded\n    require(postCaller==msg.sender, 'Error: wrong account');\n    require(minter!=accountFrom, 'Error: \"we\" cannot call mint');\n    require(accountFrom!=accountTo, 'Error: same account');\n    //require(bytes(_postHash).length > 0, 'Error: no post exists');\n    // mint a RESPOND token for responder\n    _mint(accountFrom, 2);\n    // set event for RESPOND token FROM\n    emit Minted(accountFrom, block.timestamp /*, _postHash  */ , 'RESPOND FROM');\n    // mint RESPOND tokens for responded\n    _mint(accountTo, 4);\n    // set event for RESPOND token TO\n    emit Minted(accountTo, block.timestamp /*, _postHash  */ , 'RESPOND TO');\n  }\n  function mintCurate(address accountFrom, address accountTo /* , string memory _postHash */ ) public { // 2:4 Responder:Responded\n    require(postCaller==msg.sender, 'Error: wrong account');\n    require(minter!=accountFrom, 'Error: \"we\" cannot mint');\n    require(accountFrom!=accountTo, 'Error: same account'); // doesn't mint tokens if tagged oneself\n    //require(bytes(_postHash).length > 0, 'Error: no post exists');\n    // mint a CURATE token for curatee\n    _mint(accountFrom, 2);\n    // set event for CURATE token FROM\n    emit Minted(accountFrom, block.timestamp /*, _postHash  */ , 'CURATE');\n    // mint CURATE tokens for curator\n    _mint(accountTo, 4);\n    // set event for CURATE token TO\n    emit Minted(accountTo, block.timestamp /*, _postHash  */ , 'CURATE');\n  }\n\n  function mintJury(address account /* , string memory _postHash */ , bool consensusReached) public { // 4 Juror token if no consensus reached, 24 if consensus reached\n    require(userCaller==msg.sender, 'Error: wrong account');\n    require(minter!=account, 'Error: \"we\" cannot mint');\n    //require(bytes(_postHash).length > 0, 'Error: no post exists');\n    if(consensusReached==true){\n      // mint 10 JURY token for juror\n      _mint(account, 24);\n      // set event for JURY token consensus reached\n      emit Minted(account, block.timestamp /*, _postHash  */ , 'JURY');\n    } else if(consensusReached==false){\n      // mint a JURY token for juror\n      _mint(account, 4);\n      // set event for JURY no consensus reached\n      emit Minted(account, block.timestamp /*, _postHash  */ , 'JURY');\n    }\n  }\n\n  function passMinterRole(address we) public returns (bool) {\n    require(msg.sender == minter, 'Error, only owner can change pass minter role');\n    minter = we;\n\n    emit MinterChanged(msg.sender, we);\n    return true;\n  }\n  function passPostCallerRole(address post) public returns (bool) {\n    require(msg.sender == postCaller, 'Error, only owner can pass post\\'s caller role');\n\n    postCaller = post;\n    emit PostCallerChanged(msg.sender, post);\n    return true;\n  }\n  function passUserCallerRole(address user) public returns (bool) {\n    require(msg.sender == userCaller, 'Error, only owner can pass user\\'s caller role');\n\n    userCaller = user;\n    emit UserCallerChanged(msg.sender, user);\n    return true;\n  }\n}\n",
  "sourcePath": "/Users/jaiq/Documents/000 BLOCKCHAIN/ETH/uMe/src/contracts/UME.sol",
  "compiler": {
    "name": "solc",
    "version": "0.8.7+commit.e28d00a7.Emscripten.clang"
  },
  "schemaVersion": "3.4.3",
  "updatedAt": "2021-08-22T07:48:18.518Z",
  "networkType": "ethereum",
  "devdoc": {
    "kind": "dev",
    "methods": {
      "allowance(address,address)": {
        "details": "See {IERC20-allowance}."
      },
      "approve(address,uint256)": {
        "details": "See {IERC20-approve}. Requirements: - `spender` cannot be the zero address."
      },
      "balanceOf(address)": {
        "details": "See {IERC20-balanceOf}."
      },
      "decimals()": {
        "details": "Returns the number of decimals used to get its user representation. For example, if `decimals` equals `2`, a balance of `505` tokens should be displayed to a user as `5.05` (`505 / 10 ** 2`). Tokens usually opt for a value of 18, imitating the relationship between Ether and Wei. This is the value {ERC20} uses, unless this function is overridden; NOTE: This information is only used for _display_ purposes: it in no way affects any of the arithmetic of the contract, including {IERC20-balanceOf} and {IERC20-transfer}."
      },
      "decreaseAllowance(address,uint256)": {
        "details": "Atomically decreases the allowance granted to `spender` by the caller. This is an alternative to {approve} that can be used as a mitigation for problems described in {IERC20-approve}. Emits an {Approval} event indicating the updated allowance. Requirements: - `spender` cannot be the zero address. - `spender` must have allowance for the caller of at least `subtractedValue`."
      },
      "increaseAllowance(address,uint256)": {
        "details": "Atomically increases the allowance granted to `spender` by the caller. This is an alternative to {approve} that can be used as a mitigation for problems described in {IERC20-approve}. Emits an {Approval} event indicating the updated allowance. Requirements: - `spender` cannot be the zero address."
      },
      "name()": {
        "details": "Returns the name of the token."
      },
      "symbol()": {
        "details": "Returns the symbol of the token, usually a shorter version of the name."
      },
      "totalSupply()": {
        "details": "See {IERC20-totalSupply}."
      },
      "transfer(address,uint256)": {
        "details": "See {IERC20-transfer}. Requirements: - `recipient` cannot be the zero address. - the caller must have a balance of at least `amount`."
      },
      "transferFrom(address,address,uint256)": {
        "details": "See {IERC20-transferFrom}. Emits an {Approval} event indicating the updated allowance. This is not required by the EIP. See the note at the beginning of {ERC20}. Requirements: - `sender` and `recipient` cannot be the zero address. - `sender` must have a balance of at least `amount`. - the caller must have allowance for ``sender``'s tokens of at least `amount`."
      }
    },
    "version": 1
  },
  "userdoc": {
    "kind": "user",
    "methods": {},
    "version": 1
  }
}