{
  "contractName": "UserStorage",
  "abi": [
    {
      "inputs": [],
      "stateMutability": "nonpayable",
      "type": "constructor"
    },
    {
      "anonymous": false,
      "inputs": [
        {
          "indexed": true,
          "internalType": "address",
          "name": "from",
          "type": "address"
        },
        {
          "indexed": true,
          "internalType": "address",
          "name": "to",
          "type": "address"
        }
      ],
      "name": "FactorySignerChanged",
      "type": "event"
    },
    {
      "anonymous": false,
      "inputs": [
        {
          "indexed": true,
          "internalType": "address",
          "name": "from",
          "type": "address"
        },
        {
          "indexed": true,
          "internalType": "address",
          "name": "to",
          "type": "address"
        }
      ],
      "name": "FollowSignerChanged",
      "type": "event"
    },
    {
      "anonymous": false,
      "inputs": [
        {
          "indexed": true,
          "internalType": "address",
          "name": "from",
          "type": "address"
        },
        {
          "indexed": true,
          "internalType": "address",
          "name": "to",
          "type": "address"
        }
      ],
      "name": "InterfaceSignerChanged",
      "type": "event"
    },
    {
      "anonymous": false,
      "inputs": [
        {
          "indexed": true,
          "internalType": "address",
          "name": "from",
          "type": "address"
        },
        {
          "indexed": true,
          "internalType": "address",
          "name": "to",
          "type": "address"
        }
      ],
      "name": "LikeSignerChanged",
      "type": "event"
    },
    {
      "anonymous": false,
      "inputs": [
        {
          "indexed": true,
          "internalType": "address",
          "name": "from",
          "type": "address"
        },
        {
          "indexed": true,
          "internalType": "address",
          "name": "to",
          "type": "address"
        }
      ],
      "name": "PostSignerChanged",
      "type": "event"
    },
    {
      "inputs": [],
      "name": "factorySigner",
      "outputs": [
        {
          "internalType": "address",
          "name": "",
          "type": "address"
        }
      ],
      "stateMutability": "view",
      "type": "function",
      "constant": true
    },
    {
      "inputs": [],
      "name": "followSigner",
      "outputs": [
        {
          "internalType": "address",
          "name": "",
          "type": "address"
        }
      ],
      "stateMutability": "view",
      "type": "function",
      "constant": true
    },
    {
      "inputs": [
        {
          "internalType": "address",
          "name": "",
          "type": "address"
        },
        {
          "internalType": "address",
          "name": "",
          "type": "address"
        }
      ],
      "name": "hasFollowed",
      "outputs": [
        {
          "internalType": "bool",
          "name": "",
          "type": "bool"
        }
      ],
      "stateMutability": "view",
      "type": "function",
      "constant": true
    },
    {
      "inputs": [
        {
          "internalType": "address",
          "name": "",
          "type": "address"
        },
        {
          "internalType": "address",
          "name": "",
          "type": "address"
        }
      ],
      "name": "hasUnfollowed",
      "outputs": [
        {
          "internalType": "bool",
          "name": "",
          "type": "bool"
        }
      ],
      "stateMutability": "view",
      "type": "function",
      "constant": true
    },
    {
      "inputs": [],
      "name": "interfaceSigner",
      "outputs": [
        {
          "internalType": "address",
          "name": "",
          "type": "address"
        }
      ],
      "stateMutability": "view",
      "type": "function",
      "constant": true
    },
    {
      "inputs": [],
      "name": "likeSigner",
      "outputs": [
        {
          "internalType": "address",
          "name": "",
          "type": "address"
        }
      ],
      "stateMutability": "view",
      "type": "function",
      "constant": true
    },
    {
      "inputs": [],
      "name": "memeFactorySigner",
      "outputs": [
        {
          "internalType": "address",
          "name": "",
          "type": "address"
        }
      ],
      "stateMutability": "view",
      "type": "function",
      "constant": true
    },
    {
      "inputs": [],
      "name": "userCount",
      "outputs": [
        {
          "internalType": "uint256",
          "name": "",
          "type": "uint256"
        }
      ],
      "stateMutability": "view",
      "type": "function",
      "constant": true
    },
    {
      "inputs": [
        {
          "internalType": "address",
          "name": "",
          "type": "address"
        }
      ],
      "name": "users",
      "outputs": [
        {
          "internalType": "bytes32",
          "name": "id",
          "type": "bytes32"
        },
        {
          "internalType": "bytes32",
          "name": "name",
          "type": "bytes32"
        },
        {
          "internalType": "bytes32",
          "name": "userAddr",
          "type": "bytes32"
        },
        {
          "internalType": "uint256",
          "name": "time",
          "type": "uint256"
        },
        {
          "internalType": "address",
          "name": "addr",
          "type": "address"
        },
        {
          "internalType": "string",
          "name": "bio",
          "type": "string"
        },
        {
          "internalType": "string",
          "name": "profilePic",
          "type": "string"
        }
      ],
      "stateMutability": "view",
      "type": "function",
      "constant": true
    },
    {
      "inputs": [
        {
          "internalType": "bytes32",
          "name": "",
          "type": "bytes32"
        }
      ],
      "name": "usersByMeme",
      "outputs": [
        {
          "internalType": "address",
          "name": "",
          "type": "address"
        }
      ],
      "stateMutability": "view",
      "type": "function",
      "constant": true
    },
    {
      "inputs": [
        {
          "internalType": "bytes32",
          "name": "",
          "type": "bytes32"
        }
      ],
      "name": "usersByUserAddr",
      "outputs": [
        {
          "internalType": "address",
          "name": "",
          "type": "address"
        }
      ],
      "stateMutability": "view",
      "type": "function",
      "constant": true
    },
    {
      "inputs": [
        {
          "internalType": "address",
          "name": "_account",
          "type": "address"
        },
        {
          "components": [
            {
              "internalType": "bytes32",
              "name": "id",
              "type": "bytes32"
            },
            {
              "internalType": "bytes32",
              "name": "name",
              "type": "bytes32"
            },
            {
              "internalType": "bytes32",
              "name": "userAddr",
              "type": "bytes32"
            },
            {
              "internalType": "uint256",
              "name": "time",
              "type": "uint256"
            },
            {
              "internalType": "address",
              "name": "addr",
              "type": "address"
            },
            {
              "internalType": "string",
              "name": "bio",
              "type": "string"
            },
            {
              "internalType": "string",
              "name": "profilePic",
              "type": "string"
            },
            {
              "internalType": "address[]",
              "name": "followers",
              "type": "address[]"
            },
            {
              "internalType": "address[]",
              "name": "following",
              "type": "address[]"
            },
            {
              "internalType": "address[]",
              "name": "unfollowers",
              "type": "address[]"
            },
            {
              "internalType": "address[]",
              "name": "unfollowing",
              "type": "address[]"
            },
            {
              "internalType": "bytes32[]",
              "name": "posts",
              "type": "bytes32[]"
            }
          ],
          "internalType": "struct UserStorage.User",
          "name": "_user",
          "type": "tuple"
        }
      ],
      "name": "setUser",
      "outputs": [],
      "stateMutability": "nonpayable",
      "type": "function"
    },
    {
      "inputs": [
        {
          "internalType": "bytes32",
          "name": "_userAddr",
          "type": "bytes32"
        },
        {
          "internalType": "address",
          "name": "_account",
          "type": "address"
        }
      ],
      "name": "setUsersByUserAddress",
      "outputs": [],
      "stateMutability": "nonpayable",
      "type": "function"
    },
    {
      "inputs": [
        {
          "internalType": "bytes32",
          "name": "_memeId",
          "type": "bytes32"
        },
        {
          "internalType": "address",
          "name": "_account",
          "type": "address"
        }
      ],
      "name": "setUsersByMeme",
      "outputs": [],
      "stateMutability": "nonpayable",
      "type": "function"
    },
    {
      "inputs": [
        {
          "internalType": "address",
          "name": "_account",
          "type": "address"
        }
      ],
      "name": "deleteUser",
      "outputs": [],
      "stateMutability": "nonpayable",
      "type": "function"
    },
    {
      "inputs": [],
      "name": "increaseUserCount",
      "outputs": [],
      "stateMutability": "nonpayable",
      "type": "function"
    },
    {
      "inputs": [
        {
          "internalType": "address",
          "name": "_account",
          "type": "address"
        },
        {
          "internalType": "bytes32",
          "name": "_userName",
          "type": "bytes32"
        }
      ],
      "name": "setUserName",
      "outputs": [],
      "stateMutability": "nonpayable",
      "type": "function"
    },
    {
      "inputs": [
        {
          "internalType": "address",
          "name": "_account",
          "type": "address"
        },
        {
          "internalType": "bytes32",
          "name": "_userAddress",
          "type": "bytes32"
        }
      ],
      "name": "setUserAddress",
      "outputs": [],
      "stateMutability": "nonpayable",
      "type": "function"
    },
    {
      "inputs": [
        {
          "internalType": "address",
          "name": "_account",
          "type": "address"
        },
        {
          "internalType": "string",
          "name": "_bio",
          "type": "string"
        }
      ],
      "name": "setBio",
      "outputs": [],
      "stateMutability": "nonpayable",
      "type": "function"
    },
    {
      "inputs": [
        {
          "internalType": "address",
          "name": "_account",
          "type": "address"
        },
        {
          "internalType": "string",
          "name": "_imgHash",
          "type": "string"
        }
      ],
      "name": "setProfilePic",
      "outputs": [],
      "stateMutability": "nonpayable",
      "type": "function"
    },
    {
      "inputs": [
        {
          "internalType": "address",
          "name": "_account",
          "type": "address"
        },
        {
          "internalType": "bytes32[]",
          "name": "_posts",
          "type": "bytes32[]"
        }
      ],
      "name": "setPosts",
      "outputs": [],
      "stateMutability": "nonpayable",
      "type": "function"
    },
    {
      "inputs": [
        {
          "internalType": "address",
          "name": "_account",
          "type": "address"
        },
        {
          "internalType": "address[]",
          "name": "_followers",
          "type": "address[]"
        }
      ],
      "name": "setFollowers",
      "outputs": [],
      "stateMutability": "nonpayable",
      "type": "function"
    },
    {
      "inputs": [
        {
          "internalType": "address",
          "name": "_account",
          "type": "address"
        },
        {
          "internalType": "address[]",
          "name": "_following",
          "type": "address[]"
        }
      ],
      "name": "setFollowing",
      "outputs": [],
      "stateMutability": "nonpayable",
      "type": "function"
    },
    {
      "inputs": [
        {
          "internalType": "address",
          "name": "_account",
          "type": "address"
        },
        {
          "internalType": "address[]",
          "name": "_unfollowers",
          "type": "address[]"
        }
      ],
      "name": "setUnfollowers",
      "outputs": [],
      "stateMutability": "nonpayable",
      "type": "function"
    },
    {
      "inputs": [
        {
          "internalType": "address",
          "name": "_account",
          "type": "address"
        },
        {
          "internalType": "address[]",
          "name": "_unfollowing",
          "type": "address[]"
        }
      ],
      "name": "setUnfollowing",
      "outputs": [],
      "stateMutability": "nonpayable",
      "type": "function"
    },
    {
      "inputs": [
        {
          "internalType": "address",
          "name": "_following",
          "type": "address"
        },
        {
          "internalType": "address",
          "name": "_follower",
          "type": "address"
        }
      ],
      "name": "setHasFollowed",
      "outputs": [],
      "stateMutability": "nonpayable",
      "type": "function"
    },
    {
      "inputs": [
        {
          "internalType": "address",
          "name": "_following",
          "type": "address"
        },
        {
          "internalType": "address",
          "name": "_follower",
          "type": "address"
        }
      ],
      "name": "setHasUnfollowed",
      "outputs": [],
      "stateMutability": "nonpayable",
      "type": "function"
    },
    {
      "inputs": [
        {
          "internalType": "address",
          "name": "_account",
          "type": "address"
        }
      ],
      "name": "userExists",
      "outputs": [
        {
          "internalType": "bool",
          "name": "",
          "type": "bool"
        }
      ],
      "stateMutability": "view",
      "type": "function",
      "constant": true
    },
    {
      "inputs": [
        {
          "internalType": "bytes32",
          "name": "_userAddress",
          "type": "bytes32"
        }
      ],
      "name": "userAddressExists",
      "outputs": [
        {
          "internalType": "bool",
          "name": "",
          "type": "bool"
        }
      ],
      "stateMutability": "view",
      "type": "function",
      "constant": true
    },
    {
      "inputs": [
        {
          "internalType": "address",
          "name": "_from",
          "type": "address"
        },
        {
          "internalType": "address",
          "name": "_to",
          "type": "address"
        }
      ],
      "name": "isFollowing",
      "outputs": [
        {
          "internalType": "bool",
          "name": "",
          "type": "bool"
        }
      ],
      "stateMutability": "view",
      "type": "function",
      "constant": true
    },
    {
      "inputs": [
        {
          "internalType": "address",
          "name": "_from",
          "type": "address"
        },
        {
          "internalType": "address",
          "name": "_to",
          "type": "address"
        }
      ],
      "name": "isFollower",
      "outputs": [
        {
          "internalType": "bool",
          "name": "",
          "type": "bool"
        }
      ],
      "stateMutability": "view",
      "type": "function",
      "constant": true
    },
    {
      "inputs": [
        {
          "internalType": "address",
          "name": "_account",
          "type": "address"
        }
      ],
      "name": "getUser",
      "outputs": [
        {
          "components": [
            {
              "internalType": "bytes32",
              "name": "id",
              "type": "bytes32"
            },
            {
              "internalType": "bytes32",
              "name": "name",
              "type": "bytes32"
            },
            {
              "internalType": "bytes32",
              "name": "userAddr",
              "type": "bytes32"
            },
            {
              "internalType": "uint256",
              "name": "time",
              "type": "uint256"
            },
            {
              "internalType": "address",
              "name": "addr",
              "type": "address"
            },
            {
              "internalType": "string",
              "name": "bio",
              "type": "string"
            },
            {
              "internalType": "string",
              "name": "profilePic",
              "type": "string"
            },
            {
              "internalType": "address[]",
              "name": "followers",
              "type": "address[]"
            },
            {
              "internalType": "address[]",
              "name": "following",
              "type": "address[]"
            },
            {
              "internalType": "address[]",
              "name": "unfollowers",
              "type": "address[]"
            },
            {
              "internalType": "address[]",
              "name": "unfollowing",
              "type": "address[]"
            },
            {
              "internalType": "bytes32[]",
              "name": "posts",
              "type": "bytes32[]"
            }
          ],
          "internalType": "struct UserStorage.User",
          "name": "",
          "type": "tuple"
        }
      ],
      "stateMutability": "view",
      "type": "function",
      "constant": true
    },
    {
      "inputs": [
        {
          "internalType": "address",
          "name": "_account",
          "type": "address"
        }
      ],
      "name": "getId",
      "outputs": [
        {
          "internalType": "bytes32",
          "name": "",
          "type": "bytes32"
        }
      ],
      "stateMutability": "view",
      "type": "function",
      "constant": true
    },
    {
      "inputs": [
        {
          "internalType": "address",
          "name": "_account",
          "type": "address"
        }
      ],
      "name": "getName",
      "outputs": [
        {
          "internalType": "bytes32",
          "name": "",
          "type": "bytes32"
        }
      ],
      "stateMutability": "view",
      "type": "function",
      "constant": true
    },
    {
      "inputs": [
        {
          "internalType": "address",
          "name": "_account",
          "type": "address"
        }
      ],
      "name": "getUserAddr",
      "outputs": [
        {
          "internalType": "bytes32",
          "name": "",
          "type": "bytes32"
        }
      ],
      "stateMutability": "view",
      "type": "function",
      "constant": true
    },
    {
      "inputs": [
        {
          "internalType": "address",
          "name": "_account",
          "type": "address"
        }
      ],
      "name": "getAddr",
      "outputs": [
        {
          "internalType": "address",
          "name": "",
          "type": "address"
        }
      ],
      "stateMutability": "view",
      "type": "function",
      "constant": true
    },
    {
      "inputs": [
        {
          "internalType": "address",
          "name": "_account",
          "type": "address"
        }
      ],
      "name": "getBio",
      "outputs": [
        {
          "internalType": "string",
          "name": "",
          "type": "string"
        }
      ],
      "stateMutability": "view",
      "type": "function",
      "constant": true
    },
    {
      "inputs": [
        {
          "internalType": "address",
          "name": "_account",
          "type": "address"
        }
      ],
      "name": "getTime",
      "outputs": [
        {
          "internalType": "uint256",
          "name": "",
          "type": "uint256"
        }
      ],
      "stateMutability": "view",
      "type": "function",
      "constant": true
    },
    {
      "inputs": [
        {
          "internalType": "address",
          "name": "_account",
          "type": "address"
        }
      ],
      "name": "getProfilePic",
      "outputs": [
        {
          "internalType": "string",
          "name": "",
          "type": "string"
        }
      ],
      "stateMutability": "view",
      "type": "function",
      "constant": true
    },
    {
      "inputs": [
        {
          "internalType": "address",
          "name": "_account",
          "type": "address"
        }
      ],
      "name": "getFollowerCount",
      "outputs": [
        {
          "internalType": "uint256",
          "name": "",
          "type": "uint256"
        }
      ],
      "stateMutability": "view",
      "type": "function",
      "constant": true
    },
    {
      "inputs": [
        {
          "internalType": "address",
          "name": "_account",
          "type": "address"
        }
      ],
      "name": "getFollowers",
      "outputs": [
        {
          "internalType": "address[]",
          "name": "",
          "type": "address[]"
        }
      ],
      "stateMutability": "view",
      "type": "function",
      "constant": true
    },
    {
      "inputs": [
        {
          "internalType": "address",
          "name": "_account",
          "type": "address"
        },
        {
          "internalType": "uint256",
          "name": "_index",
          "type": "uint256"
        }
      ],
      "name": "getFollowerAt",
      "outputs": [
        {
          "internalType": "address",
          "name": "",
          "type": "address"
        }
      ],
      "stateMutability": "view",
      "type": "function",
      "constant": true
    },
    {
      "inputs": [
        {
          "internalType": "address",
          "name": "_account",
          "type": "address"
        }
      ],
      "name": "getFollowingCount",
      "outputs": [
        {
          "internalType": "uint256",
          "name": "",
          "type": "uint256"
        }
      ],
      "stateMutability": "view",
      "type": "function",
      "constant": true
    },
    {
      "inputs": [
        {
          "internalType": "address",
          "name": "_account",
          "type": "address"
        }
      ],
      "name": "getFollowing",
      "outputs": [
        {
          "internalType": "address[]",
          "name": "",
          "type": "address[]"
        }
      ],
      "stateMutability": "view",
      "type": "function",
      "constant": true
    },
    {
      "inputs": [
        {
          "internalType": "address",
          "name": "_account",
          "type": "address"
        },
        {
          "internalType": "uint256",
          "name": "_index",
          "type": "uint256"
        }
      ],
      "name": "getFollowingAt",
      "outputs": [
        {
          "internalType": "address",
          "name": "",
          "type": "address"
        }
      ],
      "stateMutability": "view",
      "type": "function",
      "constant": true
    },
    {
      "inputs": [
        {
          "internalType": "address",
          "name": "_account",
          "type": "address"
        }
      ],
      "name": "getUnfollowerCount",
      "outputs": [
        {
          "internalType": "uint256",
          "name": "",
          "type": "uint256"
        }
      ],
      "stateMutability": "view",
      "type": "function",
      "constant": true
    },
    {
      "inputs": [
        {
          "internalType": "address",
          "name": "_account",
          "type": "address"
        }
      ],
      "name": "getUnfollowers",
      "outputs": [
        {
          "internalType": "address[]",
          "name": "",
          "type": "address[]"
        }
      ],
      "stateMutability": "view",
      "type": "function",
      "constant": true
    },
    {
      "inputs": [
        {
          "internalType": "address",
          "name": "_account",
          "type": "address"
        }
      ],
      "name": "getUnfollowingCount",
      "outputs": [
        {
          "internalType": "uint256",
          "name": "",
          "type": "uint256"
        }
      ],
      "stateMutability": "view",
      "type": "function",
      "constant": true
    },
    {
      "inputs": [
        {
          "internalType": "address",
          "name": "_account",
          "type": "address"
        }
      ],
      "name": "getUnfollowing",
      "outputs": [
        {
          "internalType": "address[]",
          "name": "",
          "type": "address[]"
        }
      ],
      "stateMutability": "view",
      "type": "function",
      "constant": true
    },
    {
      "inputs": [
        {
          "internalType": "address",
          "name": "_account",
          "type": "address"
        }
      ],
      "name": "getPostCount",
      "outputs": [
        {
          "internalType": "uint256",
          "name": "",
          "type": "uint256"
        }
      ],
      "stateMutability": "view",
      "type": "function",
      "constant": true
    },
    {
      "inputs": [
        {
          "internalType": "address",
          "name": "_account",
          "type": "address"
        }
      ],
      "name": "getPosts",
      "outputs": [
        {
          "internalType": "bytes32[]",
          "name": "",
          "type": "bytes32[]"
        }
      ],
      "stateMutability": "view",
      "type": "function",
      "constant": true
    },
    {
      "inputs": [
        {
          "internalType": "address",
          "name": "_userFactory",
          "type": "address"
        }
      ],
      "name": "passFactorySigner",
      "outputs": [
        {
          "internalType": "bool",
          "name": "",
          "type": "bool"
        }
      ],
      "stateMutability": "nonpayable",
      "type": "function"
    },
    {
      "inputs": [
        {
          "internalType": "address",
          "name": "_userInterface",
          "type": "address"
        }
      ],
      "name": "passInterfaceSigner",
      "outputs": [
        {
          "internalType": "bool",
          "name": "",
          "type": "bool"
        }
      ],
      "stateMutability": "nonpayable",
      "type": "function"
    },
    {
      "inputs": [
        {
          "internalType": "address",
          "name": "_memeFactory",
          "type": "address"
        }
      ],
      "name": "passMemeFactorySigner",
      "outputs": [
        {
          "internalType": "bool",
          "name": "",
          "type": "bool"
        }
      ],
      "stateMutability": "nonpayable",
      "type": "function"
    },
    {
      "inputs": [
        {
          "internalType": "address",
          "name": "_likeSigner",
          "type": "address"
        }
      ],
      "name": "passLikeSigner",
      "outputs": [
        {
          "internalType": "bool",
          "name": "",
          "type": "bool"
        }
      ],
      "stateMutability": "nonpayable",
      "type": "function"
    },
    {
      "inputs": [
        {
          "internalType": "address",
          "name": "_followSigner",
          "type": "address"
        }
      ],
      "name": "passFollowSigner",
      "outputs": [
        {
          "internalType": "bool",
          "name": "",
          "type": "bool"
        }
      ],
      "stateMutability": "nonpayable",
      "type": "function"
    }
  ],
  "bytecode": "0x6080604052600060055534801561001557600080fd5b50336000806101000a81548173ffffffffffffffffffffffffffffffffffffffff021916908373ffffffffffffffffffffffffffffffffffffffff16021790555033600160006101000a81548173ffffffffffffffffffffffffffffffffffffffff021916908373ffffffffffffffffffffffffffffffffffffffff16021790555033600260006101000a81548173ffffffffffffffffffffffffffffffffffffffff021916908373ffffffffffffffffffffffffffffffffffffffff16021790555033600360006101000a81548173ffffffffffffffffffffffffffffffffffffffff021916908373ffffffffffffffffffffffffffffffffffffffff16021790555033600460006101000a81548173ffffffffffffffffffffffffffffffffffffffff021916908373ffffffffffffffffffffffffffffffffffffffff160217905550614a9c806101696000396000f3fe608060405234801561001057600080fd5b50600436106103785760003560e01c806377dd8a03116101d3578063b4108a9411610104578063d5093b63116100a2578063e587f0dc1161007c578063e587f0dc14610b85578063e5fe947714610bb5578063e8fc954e14610be5578063fab7d53614610c1557610378565b8063d5093b6314610b09578063d8236dff14610b39578063e07dbb1014610b6957610378565b8063c2fe2022116100de578063c2fe202214610a5d578063c4e172da14610a8d578063cb04c97014610abd578063cc656d0e14610aed57610378565b8063b4108a94146109f3578063b8e3bfb814610a23578063bb58f85d14610a4157610378565b8063a07cf37111610171578063a4c7fafa1161014b578063a4c7fafa14610953578063a87430ba14610983578063ae3427e5146109b9578063af5dffde146109d557610378565b8063a07cf371146108d7578063a1c54a2114610907578063a477c0bf1461093757610378565b806386b22146116101ad57806386b2214614610829578063906ce7e51461084757806399ec3a42146108775780639b6de675146108a757610378565b806377dd8a03146107bf578063798c60bd146107ef578063829a262c1461080b57610378565b80633fd0bf17116102ad578063542fc7aa1161024b5780635c60f226116102255780635c60f226146107135780635fd4b08a1461072f57806365f68c891461075f5780636f77926b1461078f57610378565b8063542fc7aa146106a957806357c5451d146106c55780635aa64413146106f557610378565b80634b70cec4116102875780634b70cec41461060f5780634caf9d0b1461063f5780634ffda9d11461066f57806351b669211461069f57610378565b80633fd0bf17146105a7578063475a185d146105d75780634b69ae78146105f357610378565b806311e0bda71161031a57806317dcaab6116102f457806317dcaab6146104fb578063201caf8b1461052b57806320aba4da1461055b5780632ff0bc1d1461057757610378565b806311e0bda71461047f578063144ffed3146104af57806316c5eb13146104cb57610378565b80630909014b116103565780630909014b146103e75780630a568111146104035780630d8d57d61461041f5780630e666e491461044f57610378565b80630667e8051461037d57806306e6a7701461039957806307973ccf146103c9575b600080fd5b610397600480360381019061039291906138c7565b610c45565b005b6103b360048036038101906103ae9190613907565b610d20565b6040516103c0919061394f565b60405180910390f35b6103d1610e78565b6040516103de9190613983565b60405180910390f35b61040160048036038101906103fc9190613ae4565b610e7e565b005b61041d60048036038101906104189190613c08565b610f69565b005b61043960048036038101906104349190613907565b610fc4565b6040516104469190613cec565b60405180910390f35b61046960048036038101906104649190613907565b611098565b604051610476919061394f565b60405180910390f35b61049960048036038101906104949190613d0e565b611142565b6040516104a69190613d4a565b60405180910390f35b6104c960048036038101906104c49190613c08565b611175565b005b6104e560048036038101906104e09190613d0e565b6111d0565b6040516104f2919061394f565b60405180910390f35b61051560048036038101906105109190613907565b61124b565b604051610522919061394f565b60405180910390f35b61054560048036038101906105409190613907565b61139f565b604051610552919061394f565b60405180910390f35b61057560048036038101906105709190613ae4565b6114f7565b005b610591600480360381019061058c9190613907565b6115e2565b60405161059e919061394f565b60405180910390f35b6105c160048036038101906105bc9190613907565b61173a565b6040516105ce9190613cec565b60405180910390f35b6105f160048036038101906105ec9190613d65565b61180e565b005b61060d60048036038101906106089190613c08565b6118a7565b005b61062960048036038101906106249190613907565b611902565b6040516106369190613983565b60405180910390f35b61065960048036038101906106549190613907565b61194e565b6040516106669190613e63565b60405180910390f35b61068960048036038101906106849190613d65565b6119e8565b604051610696919061394f565b60405180910390f35b6106a7611a17565b005b6106c360048036038101906106be9190613c08565b611abf565b005b6106df60048036038101906106da9190613907565b611b1a565b6040516106ec9190613983565b60405180910390f35b6106fd611b69565b60405161070a9190613d4a565b60405180910390f35b61072d60048036038101906107289190613907565b611b8d565b005b61074960048036038101906107449190613907565b611d17565b6040516107569190613e94565b60405180910390f35b61077960048036038101906107749190613907565b611d63565b6040516107869190613e94565b60405180910390f35b6107a960048036038101906107a49190613907565b611daf565b6040516107b69190614163565b60405180910390f35b6107d960048036038101906107d49190613d0e565b61223b565b6040516107e69190613d4a565b60405180910390f35b61080960048036038101906108049190614185565b61226e565b005b610813612352565b6040516108209190613d4a565b60405180910390f35b610831612378565b60405161083e9190613d4a565b60405180910390f35b610861600480360381019061085c9190613d65565b61239e565b60405161086e919061394f565b60405180910390f35b610891600480360381019061088c9190613d65565b6123cd565b60405161089e919061394f565b60405180910390f35b6108c160048036038101906108bc9190613907565b6124f9565b6040516108ce9190613983565b60405180910390f35b6108f160048036038101906108ec91906141f1565b612548565b6040516108fe9190613d4a565b60405180910390f35b610921600480360381019061091c9190613907565b6125d1565b60405161092e91906142a0565b60405180910390f35b610951600480360381019061094c91906138c7565b6126a1565b005b61096d60048036038101906109689190613907565b612863565b60405161097a9190613983565b60405180910390f35b61099d60048036038101906109989190613907565b6128b2565b6040516109b097969594939291906142c2565b60405180910390f35b6109d360048036038101906109ce9190613d65565b612a24565b005b6109dd612abd565b6040516109ea9190613d4a565b60405180910390f35b610a0d6004803603810190610a089190613907565b612ae3565b604051610a1a9190613d4a565b60405180910390f35b610a2b612b4f565b604051610a389190613d4a565b60405180910390f35b610a5b6004803603810190610a569190614402565b612b75565b005b610a776004803603810190610a729190613907565b612bd0565b604051610a8491906142a0565b60405180910390f35b610aa76004803603810190610aa29190613907565b612ca0565b604051610ab4919061394f565b60405180910390f35b610ad76004803603810190610ad29190613907565b612df8565b604051610ae49190613983565b60405180910390f35b610b076004803603810190610b02919061464e565b612e47565b005b610b236004803603810190610b1e91906141f1565b6130b0565b604051610b309190613d4a565b60405180910390f35b610b536004803603810190610b4e9190613907565b613139565b604051610b6091906142a0565b60405180910390f35b610b836004803603810190610b7e9190614185565b613209565b005b610b9f6004803603810190610b9a9190613907565b6132ef565b604051610bac91906142a0565b60405180910390f35b610bcf6004803603810190610bca9190613d65565b6133bf565b604051610bdc919061394f565b60405180910390f35b610bff6004803603810190610bfa9190613907565b6134eb565b604051610c0c9190613e94565b60405180910390f35b610c2f6004803603810190610c2a9190613907565b613537565b604051610c3c9190613983565b60405180910390f35b600460009054906101000a900473ffffffffffffffffffffffffffffffffffffffff1673ffffffffffffffffffffffffffffffffffffffff163373ffffffffffffffffffffffffffffffffffffffff1614610cd5576040517f08c379a0000000000000000000000000000000000000000000000000000000008152600401610ccc9061471c565b60405180910390fd5b80600660008473ffffffffffffffffffffffffffffffffffffffff1673ffffffffffffffffffffffffffffffffffffffff168152602001908152602001600020600101819055505050565b6000600260009054906101000a900473ffffffffffffffffffffffffffffffffffffffff1673ffffffffffffffffffffffffffffffffffffffff163373ffffffffffffffffffffffffffffffffffffffff1614610db2576040517f08c379a0000000000000000000000000000000000000000000000000000000008152600401610da9906147ae565b60405180910390fd5b81600260006101000a81548173ffffffffffffffffffffffffffffffffffffffff021916908373ffffffffffffffffffffffffffffffffffffffff160217905550600260009054906101000a900473ffffffffffffffffffffffffffffffffffffffff1673ffffffffffffffffffffffffffffffffffffffff163373ffffffffffffffffffffffffffffffffffffffff167f2364065f519eb2e0ac13040d65b1d1140f6677de0518b6dee6954e49f7f7a5b660405160405180910390a360019050919050565b60055481565b600460009054906101000a900473ffffffffffffffffffffffffffffffffffffffff1673ffffffffffffffffffffffffffffffffffffffff163373ffffffffffffffffffffffffffffffffffffffff1614610f0e576040517f08c379a0000000000000000000000000000000000000000000000000000000008152600401610f059061481a565b60405180910390fd5b80600660008473ffffffffffffffffffffffffffffffffffffffff1673ffffffffffffffffffffffffffffffffffffffff1681526020019081526020016000206006019080519060200190610f64929190613586565b505050565b80600660008473ffffffffffffffffffffffffffffffffffffffff1673ffffffffffffffffffffffffffffffffffffffff168152602001908152602001600020600a019080519060200190610fbf92919061360c565b505050565b6060600660008373ffffffffffffffffffffffffffffffffffffffff1673ffffffffffffffffffffffffffffffffffffffff168152602001908152602001600020600601805461101390614869565b80601f016020809104026020016040519081016040528092919081815260200182805461103f90614869565b801561108c5780601f106110615761010080835404028352916020019161108c565b820191906000526020600020905b81548152906001019060200180831161106f57829003601f168201915b50505050509050919050565b60008073ffffffffffffffffffffffffffffffffffffffff16600660008473ffffffffffffffffffffffffffffffffffffffff1673ffffffffffffffffffffffffffffffffffffffff16815260200190815260200160002060040160009054906101000a900473ffffffffffffffffffffffffffffffffffffffff1673ffffffffffffffffffffffffffffffffffffffff1614611138576001905061113d565b600090505b919050565b60086020528060005260406000206000915054906101000a900473ffffffffffffffffffffffffffffffffffffffff1681565b80600660008473ffffffffffffffffffffffffffffffffffffffff1673ffffffffffffffffffffffffffffffffffffffff16815260200190815260200160002060080190805190602001906111cb92919061360c565b505050565b60008073ffffffffffffffffffffffffffffffffffffffff166008600084815260200190815260200160002060009054906101000a900473ffffffffffffffffffffffffffffffffffffffff1673ffffffffffffffffffffffffffffffffffffffff16146112415760019050611246565b600090505b919050565b60008060009054906101000a900473ffffffffffffffffffffffffffffffffffffffff1673ffffffffffffffffffffffffffffffffffffffff163373ffffffffffffffffffffffffffffffffffffffff16146112dc576040517f08c379a00000000000000000000000000000000000000000000000000000000081526004016112d39061490d565b60405180910390fd5b816000806101000a81548173ffffffffffffffffffffffffffffffffffffffff021916908373ffffffffffffffffffffffffffffffffffffffff16021790555060008054906101000a900473ffffffffffffffffffffffffffffffffffffffff1673ffffffffffffffffffffffffffffffffffffffff163373ffffffffffffffffffffffffffffffffffffffff167f5f8b18be53cdf9843c4263461966fc46896a2d372d3fa87fc22f6cfed024186260405160405180910390a360019050919050565b6000600160009054906101000a900473ffffffffffffffffffffffffffffffffffffffff1673ffffffffffffffffffffffffffffffffffffffff163373ffffffffffffffffffffffffffffffffffffffff1614611431576040517f08c379a00000000000000000000000000000000000000000000000000000000081526004016114289061499f565b60405180910390fd5b81600160006101000a81548173ffffffffffffffffffffffffffffffffffffffff021916908373ffffffffffffffffffffffffffffffffffffffff160217905550600160009054906101000a900473ffffffffffffffffffffffffffffffffffffffff1673ffffffffffffffffffffffffffffffffffffffff163373ffffffffffffffffffffffffffffffffffffffff167f76ce921e20c471c95deae34d20d53706ec4378ecab394e517f73aef912ae6cdd60405160405180910390a360019050919050565b600460009054906101000a900473ffffffffffffffffffffffffffffffffffffffff1673ffffffffffffffffffffffffffffffffffffffff163373ffffffffffffffffffffffffffffffffffffffff1614611587576040517f08c379a000000000000000000000000000000000000000000000000000000000815260040161157e9061481a565b60405180910390fd5b80600660008473ffffffffffffffffffffffffffffffffffffffff1673ffffffffffffffffffffffffffffffffffffffff16815260200190815260200160002060050190805190602001906115dd929190613586565b505050565b6000600360009054906101000a900473ffffffffffffffffffffffffffffffffffffffff1673ffffffffffffffffffffffffffffffffffffffff163373ffffffffffffffffffffffffffffffffffffffff1614611674576040517f08c379a000000000000000000000000000000000000000000000000000000000815260040161166b9061490d565b60405180910390fd5b81600360006101000a81548173ffffffffffffffffffffffffffffffffffffffff021916908373ffffffffffffffffffffffffffffffffffffffff160217905550600360009054906101000a900473ffffffffffffffffffffffffffffffffffffffff1673ffffffffffffffffffffffffffffffffffffffff163373ffffffffffffffffffffffffffffffffffffffff167f317b209d0dca6ddb6667f7c47d488a9708cc0e7befa4cde41a104b125a1d9ef660405160405180910390a360019050919050565b6060600660008373ffffffffffffffffffffffffffffffffffffffff1673ffffffffffffffffffffffffffffffffffffffff168152602001908152602001600020600501805461178990614869565b80601f01602080910402602001604051908101604052809291908181526020018280546117b590614869565b80156118025780601f106117d757610100808354040283529160200191611802565b820191906000526020600020905b8154815290600101906020018083116117e557829003601f168201915b50505050509050919050565b6001600a60008473ffffffffffffffffffffffffffffffffffffffff1673ffffffffffffffffffffffffffffffffffffffff16815260200190815260200160002060008373ffffffffffffffffffffffffffffffffffffffff1673ffffffffffffffffffffffffffffffffffffffff16815260200190815260200160002060006101000a81548160ff0219169083151502179055505050565b80600660008473ffffffffffffffffffffffffffffffffffffffff1673ffffffffffffffffffffffffffffffffffffffff16815260200190815260200160002060070190805190602001906118fd92919061360c565b505050565b6000600660008373ffffffffffffffffffffffffffffffffffffffff1673ffffffffffffffffffffffffffffffffffffffff168152602001908152602001600020600301549050919050565b6060600660008373ffffffffffffffffffffffffffffffffffffffff1673ffffffffffffffffffffffffffffffffffffffff168152602001908152602001600020600b018054806020026020016040519081016040528092919081815260200182805480156119dc57602002820191906000526020600020905b8154815260200190600101908083116119c8575b50505050509050919050565b600a6020528160005260406000206020528060005260406000206000915091509054906101000a900460ff1681565b60008054906101000a900473ffffffffffffffffffffffffffffffffffffffff1673ffffffffffffffffffffffffffffffffffffffff163373ffffffffffffffffffffffffffffffffffffffff1614611aa5576040517f08c379a0000000000000000000000000000000000000000000000000000000008152600401611a9c9061471c565b60405180910390fd5b60056000815480929190611ab8906149ee565b9190505550565b80600660008473ffffffffffffffffffffffffffffffffffffffff1673ffffffffffffffffffffffffffffffffffffffff1681526020019081526020016000206009019080519060200190611b1592919061360c565b505050565b6000600660008373ffffffffffffffffffffffffffffffffffffffff1673ffffffffffffffffffffffffffffffffffffffff168152602001908152602001600020600901805490509050919050565b60008054906101000a900473ffffffffffffffffffffffffffffffffffffffff1681565b60008054906101000a900473ffffffffffffffffffffffffffffffffffffffff1673ffffffffffffffffffffffffffffffffffffffff163373ffffffffffffffffffffffffffffffffffffffff1614611c1b576040517f08c379a0000000000000000000000000000000000000000000000000000000008152600401611c129061471c565b60405180910390fd5b600660008273ffffffffffffffffffffffffffffffffffffffff1673ffffffffffffffffffffffffffffffffffffffff1681526020019081526020016000206000808201600090556001820160009055600282016000905560038201600090556004820160006101000a81549073ffffffffffffffffffffffffffffffffffffffff0219169055600582016000611cb29190613696565b600682016000611cc29190613696565b600782016000611cd291906136d6565b600882016000611ce291906136d6565b600982016000611cf291906136d6565b600a82016000611d0291906136d6565b600b82016000611d1291906136f7565b505050565b6000600660008373ffffffffffffffffffffffffffffffffffffffff1673ffffffffffffffffffffffffffffffffffffffff168152602001908152602001600020600101549050919050565b6000600660008373ffffffffffffffffffffffffffffffffffffffff1673ffffffffffffffffffffffffffffffffffffffff168152602001908152602001600020600001549050919050565b611db7613718565b600660008373ffffffffffffffffffffffffffffffffffffffff1673ffffffffffffffffffffffffffffffffffffffff16815260200190815260200160002060405180610180016040529081600082015481526020016001820154815260200160028201548152602001600382015481526020016004820160009054906101000a900473ffffffffffffffffffffffffffffffffffffffff1673ffffffffffffffffffffffffffffffffffffffff1673ffffffffffffffffffffffffffffffffffffffff168152602001600582018054611e9090614869565b80601f0160208091040260200160405190810160405280929190818152602001828054611ebc90614869565b8015611f095780601f10611ede57610100808354040283529160200191611f09565b820191906000526020600020905b815481529060010190602001808311611eec57829003601f168201915b50505050508152602001600682018054611f2290614869565b80601f0160208091040260200160405190810160405280929190818152602001828054611f4e90614869565b8015611f9b5780601f10611f7057610100808354040283529160200191611f9b565b820191906000526020600020905b815481529060010190602001808311611f7e57829003601f168201915b505050505081526020016007820180548060200260200160405190810160405280929190818152602001828054801561202957602002820191906000526020600020905b8160009054906101000a900473ffffffffffffffffffffffffffffffffffffffff1673ffffffffffffffffffffffffffffffffffffffff1681526020019060010190808311611fdf575b50505050508152602001600882018054806020026020016040519081016040528092919081815260200182805480156120b757602002820191906000526020600020905b8160009054906101000a900473ffffffffffffffffffffffffffffffffffffffff1673ffffffffffffffffffffffffffffffffffffffff168152602001906001019080831161206d575b505050505081526020016009820180548060200260200160405190810160405280929190818152602001828054801561214557602002820191906000526020600020905b8160009054906101000a900473ffffffffffffffffffffffffffffffffffffffff1673ffffffffffffffffffffffffffffffffffffffff16815260200190600101908083116120fb575b50505050508152602001600a82018054806020026020016040519081016040528092919081815260200182805480156121d357602002820191906000526020600020905b8160009054906101000a900473ffffffffffffffffffffffffffffffffffffffff1673ffffffffffffffffffffffffffffffffffffffff1681526020019060010190808311612189575b50505050508152602001600b820180548060200260200160405190810160405280929190818152602001828054801561222b57602002820191906000526020600020905b815481526020019060010190808311612217575b5050505050815250509050919050565b60076020528060005260406000206000915054906101000a900473ffffffffffffffffffffffffffffffffffffffff1681565b60008054906101000a900473ffffffffffffffffffffffffffffffffffffffff1673ffffffffffffffffffffffffffffffffffffffff163373ffffffffffffffffffffffffffffffffffffffff16146122fc576040517f08c379a00000000000000000000000000000000000000000000000000000000081526004016122f39061471c565b60405180910390fd5b806008600084815260200190815260200160002060006101000a81548173ffffffffffffffffffffffffffffffffffffffff021916908373ffffffffffffffffffffffffffffffffffffffff1602179055505050565b600260009054906101000a900473ffffffffffffffffffffffffffffffffffffffff1681565b600160009054906101000a900473ffffffffffffffffffffffffffffffffffffffff1681565b60096020528160005260406000206020528060005260406000206000915091509054906101000a900460ff1681565b600080600090505b600660008473ffffffffffffffffffffffffffffffffffffffff1673ffffffffffffffffffffffffffffffffffffffff168152602001908152602001600020600801805490508110156124f157600660008473ffffffffffffffffffffffffffffffffffffffff1673ffffffffffffffffffffffffffffffffffffffff168152602001908152602001600020600801818154811061247657612475614a37565b5b9060005260206000200160009054906101000a900473ffffffffffffffffffffffffffffffffffffffff1673ffffffffffffffffffffffffffffffffffffffff168473ffffffffffffffffffffffffffffffffffffffff1614156124de5760019150506124f3565b80806124e9906149ee565b9150506123d5565b505b92915050565b6000600660008373ffffffffffffffffffffffffffffffffffffffff1673ffffffffffffffffffffffffffffffffffffffff168152602001908152602001600020600a01805490509050919050565b6000600660008473ffffffffffffffffffffffffffffffffffffffff1673ffffffffffffffffffffffffffffffffffffffff168152602001908152602001600020600801828154811061259e5761259d614a37565b5b9060005260206000200160009054906101000a900473ffffffffffffffffffffffffffffffffffffffff16905092915050565b6060600660008373ffffffffffffffffffffffffffffffffffffffff1673ffffffffffffffffffffffffffffffffffffffff16815260200190815260200160002060090180548060200260200160405190810160405280929190818152602001828054801561269557602002820191906000526020600020905b8160009054906101000a900473ffffffffffffffffffffffffffffffffffffffff1673ffffffffffffffffffffffffffffffffffffffff168152602001906001019080831161264b575b50505050509050919050565b600460009054906101000a900473ffffffffffffffffffffffffffffffffffffffff1673ffffffffffffffffffffffffffffffffffffffff163373ffffffffffffffffffffffffffffffffffffffff1614612731576040517f08c379a00000000000000000000000000000000000000000000000000000000081526004016127289061471c565b60405180910390fd5b600060086000600660008673ffffffffffffffffffffffffffffffffffffffff1673ffffffffffffffffffffffffffffffffffffffff16815260200190815260200160002060020154815260200190815260200160002060006101000a81548173ffffffffffffffffffffffffffffffffffffffff021916908373ffffffffffffffffffffffffffffffffffffffff16021790555080600660008473ffffffffffffffffffffffffffffffffffffffff1673ffffffffffffffffffffffffffffffffffffffff16815260200190815260200160002060020181905550816008600083815260200190815260200160002060006101000a81548173ffffffffffffffffffffffffffffffffffffffff021916908373ffffffffffffffffffffffffffffffffffffffff1602179055505050565b6000600660008373ffffffffffffffffffffffffffffffffffffffff1673ffffffffffffffffffffffffffffffffffffffff168152602001908152602001600020600b01805490509050919050565b60066020528060005260406000206000915090508060000154908060010154908060020154908060030154908060040160009054906101000a900473ffffffffffffffffffffffffffffffffffffffff169080600501805461291390614869565b80601f016020809104026020016040519081016040528092919081815260200182805461293f90614869565b801561298c5780601f106129615761010080835404028352916020019161298c565b820191906000526020600020905b81548152906001019060200180831161296f57829003601f168201915b5050505050908060060180546129a190614869565b80601f01602080910402602001604051908101604052809291908181526020018280546129cd90614869565b8015612a1a5780601f106129ef57610100808354040283529160200191612a1a565b820191906000526020600020905b8154815290600101906020018083116129fd57829003601f168201915b5050505050905087565b6001600960008473ffffffffffffffffffffffffffffffffffffffff1673ffffffffffffffffffffffffffffffffffffffff16815260200190815260200160002060008373ffffffffffffffffffffffffffffffffffffffff1673ffffffffffffffffffffffffffffffffffffffff16815260200190815260200160002060006101000a81548160ff0219169083151502179055505050565b600460009054906101000a900473ffffffffffffffffffffffffffffffffffffffff1681565b6000600660008373ffffffffffffffffffffffffffffffffffffffff1673ffffffffffffffffffffffffffffffffffffffff16815260200190815260200160002060040160009054906101000a900473ffffffffffffffffffffffffffffffffffffffff169050919050565b600360009054906101000a900473ffffffffffffffffffffffffffffffffffffffff1681565b80600660008473ffffffffffffffffffffffffffffffffffffffff1673ffffffffffffffffffffffffffffffffffffffff168152602001908152602001600020600b019080519060200190612bcb929190613798565b505050565b6060600660008373ffffffffffffffffffffffffffffffffffffffff1673ffffffffffffffffffffffffffffffffffffffff168152602001908152602001600020600701805480602002602001604051908101604052809291908181526020018280548015612c9457602002820191906000526020600020905b8160009054906101000a900473ffffffffffffffffffffffffffffffffffffffff1673ffffffffffffffffffffffffffffffffffffffff1681526020019060010190808311612c4a575b50505050509050919050565b6000600460009054906101000a900473ffffffffffffffffffffffffffffffffffffffff1673ffffffffffffffffffffffffffffffffffffffff163373ffffffffffffffffffffffffffffffffffffffff1614612d32576040517f08c379a0000000000000000000000000000000000000000000000000000000008152600401612d299061490d565b60405180910390fd5b81600460006101000a81548173ffffffffffffffffffffffffffffffffffffffff021916908373ffffffffffffffffffffffffffffffffffffffff160217905550600460009054906101000a900473ffffffffffffffffffffffffffffffffffffffff1673ffffffffffffffffffffffffffffffffffffffff163373ffffffffffffffffffffffffffffffffffffffff167fdf570d582e474b2d7915b12f6f773eb74e4bc78a660caeeccf19491c8578507b60405160405180910390a360019050919050565b6000600660008373ffffffffffffffffffffffffffffffffffffffff1673ffffffffffffffffffffffffffffffffffffffff168152602001908152602001600020600701805490509050919050565b60008054906101000a900473ffffffffffffffffffffffffffffffffffffffff1673ffffffffffffffffffffffffffffffffffffffff163373ffffffffffffffffffffffffffffffffffffffff1614612ed5576040517f08c379a0000000000000000000000000000000000000000000000000000000008152600401612ecc9061471c565b60405180910390fd5b80600660008473ffffffffffffffffffffffffffffffffffffffff1673ffffffffffffffffffffffffffffffffffffffff1681526020019081526020016000206000820151816000015560208201518160010155604082015181600201556060820151816003015560808201518160040160006101000a81548173ffffffffffffffffffffffffffffffffffffffff021916908373ffffffffffffffffffffffffffffffffffffffff16021790555060a0820151816005019080519060200190612fa0929190613586565b5060c0820151816006019080519060200190612fbd929190613586565b5060e0820151816007019080519060200190612fda92919061360c565b50610100820151816008019080519060200190612ff892919061360c565b5061012082015181600901908051906020019061301692919061360c565b5061014082015181600a01908051906020019061303492919061360c565b5061016082015181600b019080519060200190613052929190613798565b5090505081600860008360400151815260200190815260200160002060006101000a81548173ffffffffffffffffffffffffffffffffffffffff021916908373ffffffffffffffffffffffffffffffffffffffff1602179055505050565b6000600660008473ffffffffffffffffffffffffffffffffffffffff1673ffffffffffffffffffffffffffffffffffffffff168152602001908152602001600020600701828154811061310657613105614a37565b5b9060005260206000200160009054906101000a900473ffffffffffffffffffffffffffffffffffffffff16905092915050565b6060600660008373ffffffffffffffffffffffffffffffffffffffff1673ffffffffffffffffffffffffffffffffffffffff1681526020019081526020016000206008018054806020026020016040519081016040528092919081815260200182805480156131fd57602002820191906000526020600020905b8160009054906101000a900473ffffffffffffffffffffffffffffffffffffffff1673ffffffffffffffffffffffffffffffffffffffff16815260200190600101908083116131b3575b50505050509050919050565b600160009054906101000a900473ffffffffffffffffffffffffffffffffffffffff1673ffffffffffffffffffffffffffffffffffffffff163373ffffffffffffffffffffffffffffffffffffffff1614613299576040517f08c379a00000000000000000000000000000000000000000000000000000000081526004016132909061471c565b60405180910390fd5b806007600084815260200190815260200160002060006101000a81548173ffffffffffffffffffffffffffffffffffffffff021916908373ffffffffffffffffffffffffffffffffffffffff1602179055505050565b6060600660008373ffffffffffffffffffffffffffffffffffffffff1673ffffffffffffffffffffffffffffffffffffffff168152602001908152602001600020600a018054806020026020016040519081016040528092919081815260200182805480156133b357602002820191906000526020600020905b8160009054906101000a900473ffffffffffffffffffffffffffffffffffffffff1673ffffffffffffffffffffffffffffffffffffffff1681526020019060010190808311613369575b50505050509050919050565b600080600090505b600660008473ffffffffffffffffffffffffffffffffffffffff1673ffffffffffffffffffffffffffffffffffffffff168152602001908152602001600020600701805490508110156134e357600660008473ffffffffffffffffffffffffffffffffffffffff1673ffffffffffffffffffffffffffffffffffffffff168152602001908152602001600020600701818154811061346857613467614a37565b5b9060005260206000200160009054906101000a900473ffffffffffffffffffffffffffffffffffffffff1673ffffffffffffffffffffffffffffffffffffffff168473ffffffffffffffffffffffffffffffffffffffff1614156134d05760019150506134e5565b80806134db906149ee565b9150506133c7565b505b92915050565b6000600660008373ffffffffffffffffffffffffffffffffffffffff1673ffffffffffffffffffffffffffffffffffffffff168152602001908152602001600020600201549050919050565b6000600660008373ffffffffffffffffffffffffffffffffffffffff1673ffffffffffffffffffffffffffffffffffffffff168152602001908152602001600020600801805490509050919050565b82805461359290614869565b90600052602060002090601f0160209004810192826135b457600085556135fb565b82601f106135cd57805160ff19168380011785556135fb565b828001600101855582156135fb579182015b828111156135fa5782518255916020019190600101906135df565b5b50905061360891906137e5565b5090565b828054828255906000526020600020908101928215613685579160200282015b828111156136845782518260006101000a81548173ffffffffffffffffffffffffffffffffffffffff021916908373ffffffffffffffffffffffffffffffffffffffff1602179055509160200191906001019061362c565b5b50905061369291906137e5565b5090565b5080546136a290614869565b6000825580601f106136b457506136d3565b601f0160209004906000526020600020908101906136d291906137e5565b5b50565b50805460008255906000526020600020908101906136f491906137e5565b50565b50805460008255906000526020600020908101906137159190613802565b50565b60405180610180016040528060008019168152602001600080191681526020016000801916815260200160008152602001600073ffffffffffffffffffffffffffffffffffffffff168152602001606081526020016060815260200160608152602001606081526020016060815260200160608152602001606081525090565b8280548282559060005260206000209081019282156137d4579160200282015b828111156137d35782518255916020019190600101906137b8565b5b5090506137e19190613802565b5090565b5b808211156137fe5760008160009055506001016137e6565b5090565b5b8082111561381b576000816000905550600101613803565b5090565b6000604051905090565b600080fd5b600080fd5b600073ffffffffffffffffffffffffffffffffffffffff82169050919050565b600061385e82613833565b9050919050565b61386e81613853565b811461387957600080fd5b50565b60008135905061388b81613865565b92915050565b6000819050919050565b6138a481613891565b81146138af57600080fd5b50565b6000813590506138c18161389b565b92915050565b600080604083850312156138de576138dd613829565b5b60006138ec8582860161387c565b92505060206138fd858286016138b2565b9150509250929050565b60006020828403121561391d5761391c613829565b5b600061392b8482850161387c565b91505092915050565b60008115159050919050565b61394981613934565b82525050565b60006020820190506139646000830184613940565b92915050565b6000819050919050565b61397d8161396a565b82525050565b60006020820190506139986000830184613974565b92915050565b600080fd5b600080fd5b6000601f19601f8301169050919050565b7f4e487b7100000000000000000000000000000000000000000000000000000000600052604160045260246000fd5b6139f1826139a8565b810181811067ffffffffffffffff82111715613a1057613a0f6139b9565b5b80604052505050565b6000613a2361381f565b9050613a2f82826139e8565b919050565b600067ffffffffffffffff821115613a4f57613a4e6139b9565b5b613a58826139a8565b9050602081019050919050565b82818337600083830152505050565b6000613a87613a8284613a34565b613a19565b905082815260208101848484011115613aa357613aa26139a3565b5b613aae848285613a65565b509392505050565b600082601f830112613acb57613aca61399e565b5b8135613adb848260208601613a74565b91505092915050565b60008060408385031215613afb57613afa613829565b5b6000613b098582860161387c565b925050602083013567ffffffffffffffff811115613b2a57613b2961382e565b5b613b3685828601613ab6565b9150509250929050565b600067ffffffffffffffff821115613b5b57613b5a6139b9565b5b602082029050602081019050919050565b600080fd5b6000613b84613b7f84613b40565b613a19565b90508083825260208201905060208402830185811115613ba757613ba6613b6c565b5b835b81811015613bd05780613bbc888261387c565b845260208401935050602081019050613ba9565b5050509392505050565b600082601f830112613bef57613bee61399e565b5b8135613bff848260208601613b71565b91505092915050565b60008060408385031215613c1f57613c1e613829565b5b6000613c2d8582860161387c565b925050602083013567ffffffffffffffff811115613c4e57613c4d61382e565b5b613c5a85828601613bda565b9150509250929050565b600081519050919050565b600082825260208201905092915050565b60005b83811015613c9e578082015181840152602081019050613c83565b83811115613cad576000848401525b50505050565b6000613cbe82613c64565b613cc88185613c6f565b9350613cd8818560208601613c80565b613ce1816139a8565b840191505092915050565b60006020820190508181036000830152613d068184613cb3565b905092915050565b600060208284031215613d2457613d23613829565b5b6000613d32848285016138b2565b91505092915050565b613d4481613853565b82525050565b6000602082019050613d5f6000830184613d3b565b92915050565b60008060408385031215613d7c57613d7b613829565b5b6000613d8a8582860161387c565b9250506020613d9b8582860161387c565b9150509250929050565b600081519050919050565b600082825260208201905092915050565b6000819050602082019050919050565b613dda81613891565b82525050565b6000613dec8383613dd1565b60208301905092915050565b6000602082019050919050565b6000613e1082613da5565b613e1a8185613db0565b9350613e2583613dc1565b8060005b83811015613e56578151613e3d8882613de0565b9750613e4883613df8565b925050600181019050613e29565b5085935050505092915050565b60006020820190508181036000830152613e7d8184613e05565b905092915050565b613e8e81613891565b82525050565b6000602082019050613ea96000830184613e85565b92915050565b613eb88161396a565b82525050565b613ec781613853565b82525050565b600082825260208201905092915050565b6000613ee982613c64565b613ef38185613ecd565b9350613f03818560208601613c80565b613f0c816139a8565b840191505092915050565b600081519050919050565b600082825260208201905092915050565b6000819050602082019050919050565b6000613f4f8383613ebe565b60208301905092915050565b6000602082019050919050565b6000613f7382613f17565b613f7d8185613f22565b9350613f8883613f33565b8060005b83811015613fb9578151613fa08882613f43565b9750613fab83613f5b565b925050600181019050613f8c565b5085935050505092915050565b600082825260208201905092915050565b6000613fe282613da5565b613fec8185613fc6565b9350613ff783613dc1565b8060005b8381101561402857815161400f8882613de0565b975061401a83613df8565b925050600181019050613ffb565b5085935050505092915050565b60006101808301600083015161404e6000860182613dd1565b5060208301516140616020860182613dd1565b5060408301516140746040860182613dd1565b5060608301516140876060860182613eaf565b50608083015161409a6080860182613ebe565b5060a083015184820360a08601526140b28282613ede565b91505060c083015184820360c08601526140cc8282613ede565b91505060e083015184820360e08601526140e68282613f68565b9150506101008301518482036101008601526141028282613f68565b91505061012083015184820361012086015261411e8282613f68565b91505061014083015184820361014086015261413a8282613f68565b9150506101608301518482036101608601526141568282613fd7565b9150508091505092915050565b6000602082019050818103600083015261417d8184614035565b905092915050565b6000806040838503121561419c5761419b613829565b5b60006141aa858286016138b2565b92505060206141bb8582860161387c565b9150509250929050565b6141ce8161396a565b81146141d957600080fd5b50565b6000813590506141eb816141c5565b92915050565b6000806040838503121561420857614207613829565b5b60006142168582860161387c565b9250506020614227858286016141dc565b9150509250929050565b600082825260208201905092915050565b600061424d82613f17565b6142578185614231565b935061426283613f33565b8060005b8381101561429357815161427a8882613f43565b975061428583613f5b565b925050600181019050614266565b5085935050505092915050565b600060208201905081810360008301526142ba8184614242565b905092915050565b600060e0820190506142d7600083018a613e85565b6142e46020830189613e85565b6142f16040830188613e85565b6142fe6060830187613974565b61430b6080830186613d3b565b81810360a083015261431d8185613cb3565b905081810360c08301526143318184613cb3565b905098975050505050505050565b600067ffffffffffffffff82111561435a576143596139b9565b5b602082029050602081019050919050565b600061437e6143798461433f565b613a19565b905080838252602082019050602084028301858111156143a1576143a0613b6c565b5b835b818110156143ca57806143b688826138b2565b8452602084019350506020810190506143a3565b5050509392505050565b600082601f8301126143e9576143e861399e565b5b81356143f984826020860161436b565b91505092915050565b6000806040838503121561441957614418613829565b5b60006144278582860161387c565b925050602083013567ffffffffffffffff8111156144485761444761382e565b5b614454858286016143d4565b9150509250929050565b600080fd5b600080fd5b6000610180828403121561447f5761447e61445e565b5b61448a610180613a19565b9050600061449a848285016138b2565b60008301525060206144ae848285016138b2565b60208301525060406144c2848285016138b2565b60408301525060606144d6848285016141dc565b60608301525060806144ea8482850161387c565b60808301525060a082013567ffffffffffffffff81111561450e5761450d614463565b5b61451a84828501613ab6565b60a08301525060c082013567ffffffffffffffff81111561453e5761453d614463565b5b61454a84828501613ab6565b60c08301525060e082013567ffffffffffffffff81111561456e5761456d614463565b5b61457a84828501613bda565b60e08301525061010082013567ffffffffffffffff81111561459f5761459e614463565b5b6145ab84828501613bda565b6101008301525061012082013567ffffffffffffffff8111156145d1576145d0614463565b5b6145dd84828501613bda565b6101208301525061014082013567ffffffffffffffff81111561460357614602614463565b5b61460f84828501613bda565b6101408301525061016082013567ffffffffffffffff81111561463557614634614463565b5b614641848285016143d4565b6101608301525092915050565b6000806040838503121561466557614664613829565b5b60006146738582860161387c565b925050602083013567ffffffffffffffff8111156146945761469361382e565b5b6146a085828601614468565b9150509250929050565b7f4572726f723a207573657220666163746f7279206d757374206265207369676e60008201527f6572000000000000000000000000000000000000000000000000000000000000602082015250565b6000614706602283613c6f565b9150614711826146aa565b604082019050919050565b60006020820190508181036000830152614735816146f9565b9050919050565b7f4572726f723a206d73672e73656e646572206d757374206265206c696b65536960008201527f676e657200000000000000000000000000000000000000000000000000000000602082015250565b6000614798602483613c6f565b91506147a38261473c565b604082019050919050565b600060208201905081810360008301526147c78161478b565b9050919050565b7f4572726f722c20696e74657266616365206d757374206265207369676e657200600082015250565b6000614804601f83613c6f565b915061480f826147ce565b602082019050919050565b60006020820190508181036000830152614833816147f7565b9050919050565b7f4e487b7100000000000000000000000000000000000000000000000000000000600052602260045260246000fd5b6000600282049050600182168061488157607f821691505b602082108114156148955761489461483a565b5b50919050565b7f4572726f723a206d73672e73656e646572206d75737420626520666163746f7260008201527f795369676e657200000000000000000000000000000000000000000000000000602082015250565b60006148f7602783613c6f565b91506149028261489b565b604082019050919050565b60006020820190508181036000830152614926816148ea565b9050919050565b7f4572726f723a206d73672e73656e646572206d757374206265206d656d65466160008201527f63746f72795369676e6572000000000000000000000000000000000000000000602082015250565b6000614989602b83613c6f565b91506149948261492d565b604082019050919050565b600060208201905081810360008301526149b88161497c565b9050919050565b7f4e487b7100000000000000000000000000000000000000000000000000000000600052601160045260246000fd5b60006149f98261396a565b91507fffffffffffffffffffffffffffffffffffffffffffffffffffffffffffffffff821415614a2c57614a2b6149bf565b5b600182019050919050565b7f4e487b7100000000000000000000000000000000000000000000000000000000600052603260045260246000fdfea26469706673582212204a297e230168dd2d810d3deea3658cad3aff157a8afcf47d056e85d3b42ece7264736f6c63430008090033",
  "immutableReferences": {},
  "source": "// SPDX-License-Identifier: MIT\n\npragma solidity >=0.8.0 <0.9.0;\n\ncontract UserStorage {\n  address public factorySigner;\n  address public memeFactorySigner;\n  address public likeSigner;\n  address public followSigner;\n  address public interfaceSigner;\n\n  uint public userCount = 0;\n\n  mapping(address => User) public users; // address to Users map\n  mapping(bytes32 => address) public usersByMeme; // memeId to account addresses\n  mapping(bytes32 => address) public usersByUserAddr; // userAddr to account address\n  mapping(address => mapping(address => bool)) public hasFollowed;\n  mapping(address => mapping(address => bool)) public hasUnfollowed;\n\n\n  struct User {\n    bytes32 id; // user number in order\n    bytes32 name; // user name\n    bytes32 userAddr; // user address (@)\n    uint time; // user creation time\n    address addr; // address of user\n    string bio;\n    string profilePic;\n    address[] followers; // addresses of followers\n    address[] following; // addressses of following\n    address[] unfollowers; // addresses of followers\n    address[] unfollowing; // addressses of following\n    bytes32[] posts; // memeIds of posts\n    }\n\n  event FactorySignerChanged(\n        address indexed from,\n        address indexed to);\n  event InterfaceSignerChanged(\n        address indexed from,\n        address indexed to);\n  event PostSignerChanged(\n        address indexed from,\n        address indexed to);\n  event LikeSignerChanged(\n        address indexed from,\n        address indexed to);\n  event FollowSignerChanged(\n        address indexed from,\n        address indexed to);\n\n  constructor() public {\n    factorySigner = msg.sender;\n    memeFactorySigner = msg.sender;\n    likeSigner = msg.sender;\n    followSigner = msg.sender;\n    interfaceSigner = msg.sender;\n  }\n\n\n  // Factory-Specific setters\n  function setUser(\n            address _account,\n            User memory _user)\n            public {\n    require(\n      msg.sender==factorySigner,\n      'Error: user factory must be signer');\n    users[_account] = _user;\n    usersByUserAddr[_user.userAddr] = _account;\n  }\n  function setUsersByUserAddress(\n            bytes32 _userAddr,\n            address _account)\n            public {\n    require(\n      msg.sender==factorySigner,\n      'Error: user factory must be signer');\n    usersByUserAddr[_userAddr] = _account;\n  }\n  function setUsersByMeme(\n            bytes32 _memeId,\n            address _account)\n            public {\n    require(\n      msg.sender==memeFactorySigner,\n      'Error: user factory must be signer');\n    usersByMeme[_memeId] = _account;\n  }\n  function deleteUser(address _account)\n            public {\n    require(\n      msg.sender==factorySigner,\n      'Error: user factory must be signer');\n    delete users[_account];\n  }\n  function increaseUserCount() public {\n    require(\n      msg.sender==factorySigner,\n      'Error: user factory must be signer');\n    userCount++;\n  }\n  // Setters for interface only\n  function setUserName(\n            address _account,\n            bytes32 _userName)\n            public {\n    require(\n      msg.sender==interfaceSigner,\n      'Error: user factory must be signer');\n    users[_account].name= _userName;\n  }\n  function setUserAddress(\n            address _account,\n            bytes32 _userAddress)\n            public {\n    require(\n      msg.sender==interfaceSigner,\n      'Error: user factory must be signer');\n    // clean up old user address mapping\n    usersByUserAddr[users[_account].userAddr] = address(0x0);\n    // set new user & address mapping\n    users[_account].userAddr = _userAddress;\n    usersByUserAddr[_userAddress] = _account;\n  }\n  function setBio(\n            address _account,\n            string memory _bio)\n            public {\n    require(\n      msg.sender==interfaceSigner,\n      'Error, interface must be signer');\n    users[_account].bio = _bio;\n  }\n  function setProfilePic(\n            address _account,\n            string memory _imgHash)\n            public {\n    require(\n      msg.sender==interfaceSigner,\n      'Error, interface must be signer');\n    users[_account].profilePic = _imgHash;\n  }\n\n  // Setters for all signers\n  // set post meme\n  function setPosts(\n            address _account,\n            bytes32[] memory _posts)\n            public {\n    users[_account].posts = _posts;\n  }\n\n  // set follow\n  function setFollowers(\n            address _account,\n            address[] memory _followers)\n            public {\n    users[_account].followers = _followers;\n  }\n  function setFollowing(\n            address _account,\n            address[] memory _following)\n            public {\n    users[_account].following = _following;\n  }\n  function setUnfollowers(\n            address _account,\n            address[] memory _unfollowers)\n            public {\n    users[_account].unfollowers = _unfollowers;\n  }\n  function setUnfollowing(\n            address _account,\n            address[] memory _unfollowing)\n            public {\n    users[_account].unfollowing = _unfollowing;\n  }\n  function setHasFollowed(\n            address _following,\n            address _follower)\n            public {\n    hasFollowed[_following][_follower] = true;\n  }\n  function setHasUnfollowed(\n            address _following,\n            address _follower)\n            public {\n    hasUnfollowed[_following][_follower] = true;\n  }\n\n  // getter functions for UserStorage\n  function userExists(address _account)\n            public view returns(bool) {\n    if(users[_account].addr!=address(0x0)) {\n      return true;\n    }\n    else {\n      return false;\n    }\n  }\n  function userAddressExists(bytes32 _userAddress)\n            public view returns(bool) {\n    if(usersByUserAddr[_userAddress]!=address(0x0)) {\n      return true;\n    }\n    else {\n      return false;\n    }\n  }\n  function isFollowing(\n            address _from,\n            address _to)\n            public view returns(bool) {\n    for(uint i = 0; i < users[_to].following.length; i++) {\n      if(_from==users[_to].following[i]) {\n        return true;\n      }\n    }\n  }\n  function isFollower(\n            address _from,\n            address _to)\n            public view returns(bool) {\n    for(uint i = 0; i < users[_to].followers.length; i++) {\n      if(_from==users[_to].followers[i]) {\n        return true;\n      }\n    }\n  }\n\n\n  function getUser(address _account)\n            public view returns(User memory){\n    return users[_account];\n  }\n  function getId(address _account)\n            public view returns(bytes32) {\n    return users[_account].id;\n  }\n  function getName(address _account)\n            public view returns(bytes32) {\n    return users[_account].name;\n  }\n  function getUserAddr(address _account)\n            public view returns(bytes32) {\n    return users[_account].userAddr;\n  }\n  function getAddr(address _account)\n            public view returns(address) {\n    return users[_account].addr;\n  }\n  function getBio(address _account)\n            public view returns(string memory) {\n    return users[_account].bio;\n  }\n  function getTime(address _account)\n            public view returns(uint) {\n    return users[_account].time;\n  }\n  function getProfilePic(address _account)\n            public view returns(string memory) {\n    return users[_account].profilePic;\n  }\n  function getFollowerCount(address _account)\n            public view returns(uint) {\n    return users[_account].followers.length;\n  }\n  function getFollowers(address _account)\n            public view returns(address[] memory) {\n    return users[_account].followers;\n  }\n  function getFollowerAt(\n            address _account,\n            uint _index)\n            public view returns(address) {\n    return users[_account].followers[_index];\n  }\n  function getFollowingCount(address _account)\n            public view returns(uint) {\n    return users[_account].following.length;\n  }\n  function getFollowing(address _account)\n            public view returns(address[] memory) {\n    return users[_account].following;\n  }\n  function getFollowingAt(address _account, uint _index)\n            public view returns(address) {\n    return users[_account].following[_index];\n  }\n  function getUnfollowerCount(address _account)\n            public view returns(uint) {\n    return users[_account].unfollowers.length;\n  }\n  function getUnfollowers(address _account)\n            public view returns(address[] memory) {\n    return users[_account].unfollowers;\n  }\n  function getUnfollowingCount(address _account)\n            public view returns(uint) {\n    return users[_account].unfollowing.length;\n  }\n  function getUnfollowing(address _account)\n            public view returns(address[] memory) {\n    return users[_account].unfollowing;\n  }\n  function getPostCount(address _account)\n            public view returns (uint) {\n    return users[_account].posts.length;\n  }\n  function getPosts(address _account)\n            public view returns (bytes32[] memory) {\n    return users[_account].posts;\n  }\n\n  // pass signer roles\n  function passFactorySigner(address _userFactory)\n            public returns(bool){\n    require(\n      msg.sender==factorySigner,\n      'Error: msg.sender must be factorySigner');\n\n    factorySigner = _userFactory;\n    emit FactorySignerChanged(msg.sender, factorySigner);\n    return true;\n  }\n  function passInterfaceSigner(address _userInterface)\n            public returns(bool){\n    require(\n      msg.sender==interfaceSigner,\n      'Error: msg.sender must be factorySigner');\n\n    interfaceSigner = _userInterface;\n    emit InterfaceSignerChanged(msg.sender, interfaceSigner);\n    return true;\n  }\n  function passMemeFactorySigner(address _memeFactory)\n            public returns(bool){\n    require(\n      msg.sender==memeFactorySigner,\n      'Error: msg.sender must be memeFactorySigner');\n\n    memeFactorySigner = _memeFactory;\n    emit PostSignerChanged(msg.sender, memeFactorySigner);\n    return true;\n  }\n  function passLikeSigner(address _likeSigner)\n            public returns(bool){\n    require(\n      msg.sender==likeSigner,\n      'Error: msg.sender must be likeSigner');\n\n    likeSigner = _likeSigner;\n    emit LikeSignerChanged(msg.sender, likeSigner);\n    return true;\n  }\n  function passFollowSigner(address _followSigner)\n            public returns(bool){\n    require(\n      msg.sender==followSigner,\n      'Error: msg.sender must be factorySigner');\n\n    followSigner = _followSigner;\n    emit FollowSignerChanged(msg.sender, followSigner);\n    return true;\n  }\n}\n",
  "sourcePath": "/Users/jaiq/Documents/000 BLOCKCHAIN/ETH/uMe/src/contracts/UserStorage.sol",
  "compiler": {
    "name": "solc",
    "version": "0.8.9+commit.e5eed63a.Emscripten.clang"
  },
  "schemaVersion": "3.4.3",
  "updatedAt": "2021-11-03T10:48:21.299Z",
  "networkType": "ethereum",
  "devdoc": {
    "kind": "dev",
    "methods": {},
    "version": 1
  },
  "userdoc": {
    "kind": "user",
    "methods": {},
    "version": 1
  }
}