{
  "contractName": "UserFactory",
  "abi": [
    {
      "inputs": [
        {
          "internalType": "contract UserStorage",
          "name": "_userStorage",
          "type": "address"
        }
      ],
      "stateMutability": "nonpayable",
      "type": "constructor"
    },
    {
      "anonymous": false,
      "inputs": [
        {
          "indexed": true,
          "internalType": "address",
          "name": "account",
          "type": "address"
        },
        {
          "indexed": false,
          "internalType": "uint256",
          "name": "time",
          "type": "uint256"
        }
      ],
      "name": "DeletedUser",
      "type": "event"
    },
    {
      "anonymous": false,
      "inputs": [
        {
          "indexed": true,
          "internalType": "address",
          "name": "account",
          "type": "address"
        },
        {
          "indexed": false,
          "internalType": "bytes32",
          "name": "userName",
          "type": "bytes32"
        },
        {
          "indexed": false,
          "internalType": "bytes32",
          "name": "userAddr",
          "type": "bytes32"
        },
        {
          "indexed": false,
          "internalType": "uint256",
          "name": "time",
          "type": "uint256"
        }
      ],
      "name": "NewUser",
      "type": "event"
    },
    {
      "anonymous": false,
      "inputs": [
        {
          "indexed": true,
          "internalType": "address",
          "name": "from",
          "type": "address"
        },
        {
          "indexed": true,
          "internalType": "address",
          "name": "to",
          "type": "address"
        }
      ],
      "name": "SignerChanged",
      "type": "event"
    },
    {
      "inputs": [],
      "name": "signer",
      "outputs": [
        {
          "internalType": "address",
          "name": "",
          "type": "address"
        }
      ],
      "stateMutability": "view",
      "type": "function"
    },
    {
      "inputs": [
        {
          "internalType": "address",
          "name": "_account",
          "type": "address"
        },
        {
          "internalType": "bytes32",
          "name": "_userName",
          "type": "bytes32"
        },
        {
          "internalType": "bytes32",
          "name": "_userAddress",
          "type": "bytes32"
        }
      ],
      "name": "newUser",
      "outputs": [],
      "stateMutability": "nonpayable",
      "type": "function"
    },
    {
      "inputs": [
        {
          "internalType": "address",
          "name": "_account",
          "type": "address"
        },
        {
          "internalType": "bool",
          "name": "failSafe",
          "type": "bool"
        }
      ],
      "name": "deleteUser",
      "outputs": [],
      "stateMutability": "nonpayable",
      "type": "function"
    },
    {
      "inputs": [
        {
          "internalType": "address",
          "name": "_userInterface",
          "type": "address"
        }
      ],
      "name": "passInterfaceSigner",
      "outputs": [
        {
          "internalType": "bool",
          "name": "",
          "type": "bool"
        }
      ],
      "stateMutability": "nonpayable",
      "type": "function"
    }
  ],
  "bytecode": "0x60806040523480156200001157600080fd5b50604051620013a8380380620013a883398181016040528101906200003791906200013d565b33600160006101000a81548173ffffffffffffffffffffffffffffffffffffffff021916908373ffffffffffffffffffffffffffffffffffffffff160217905550806000806101000a81548173ffffffffffffffffffffffffffffffffffffffff021916908373ffffffffffffffffffffffffffffffffffffffff160217905550506200016f565b600080fd5b600073ffffffffffffffffffffffffffffffffffffffff82169050919050565b6000620000f182620000c4565b9050919050565b60006200010582620000e4565b9050919050565b6200011781620000f8565b81146200012357600080fd5b50565b60008151905062000137816200010c565b92915050565b600060208284031215620001565762000155620000bf565b5b6000620001668482850162000126565b91505092915050565b611229806200017f6000396000f3fe608060405234801561001057600080fd5b506004361061004c5760003560e01c806314def83614610051578063238ac9331461006d57806387bc9fad1461008b578063c4e172da146100a7575b600080fd5b61006b60048036038101906100669190610a2a565b6100d7565b005b610075610580565b6040516100829190610a8c565b60405180910390f35b6100a560048036038101906100a09190610adf565b6105a6565b005b6100c160048036038101906100bc9190610b1f565b610839565b6040516100ce9190610b5b565b60405180910390f35b600160009054906101000a900473ffffffffffffffffffffffffffffffffffffffff1673ffffffffffffffffffffffffffffffffffffffff163373ffffffffffffffffffffffffffffffffffffffff1614610167576040517f08c379a000000000000000000000000000000000000000000000000000000000815260040161015e90610bd3565b60405180910390fd5b60008054906101000a900473ffffffffffffffffffffffffffffffffffffffff1673ffffffffffffffffffffffffffffffffffffffff166351b669216040518163ffffffff1660e01b8152600401600060405180830381600087803b1580156101cf57600080fd5b505af11580156101e3573d6000803e3d6000fd5b5050505060008054906101000a900473ffffffffffffffffffffffffffffffffffffffff1673ffffffffffffffffffffffffffffffffffffffff1663cc656d0e8460405180610180016040528060008054906101000a900473ffffffffffffffffffffffffffffffffffffffff1673ffffffffffffffffffffffffffffffffffffffff166307973ccf6040518163ffffffff1660e01b815260040160206040518083038186803b15801561029657600080fd5b505afa1580156102aa573d6000803e3d6000fd5b505050506040513d601f19601f820116820180604052508101906102ce9190610c29565b6040516020016102de9190610c77565b6040516020818303038152906040528051906020012081526020018681526020018581526020014281526020018773ffffffffffffffffffffffffffffffffffffffff168152602001604051806020016040528060008152508152602001604051806020016040528060008152508152602001600067ffffffffffffffff81111561036c5761036b610c92565b5b60405190808252806020026020018201604052801561039a5781602001602082028036833780820191505090505b508152602001600067ffffffffffffffff8111156103bb576103ba610c92565b5b6040519080825280602002602001820160405280156103e95781602001602082028036833780820191505090505b508152602001600067ffffffffffffffff81111561040a57610409610c92565b5b6040519080825280602002602001820160405280156104385781602001602082028036833780820191505090505b508152602001600067ffffffffffffffff81111561045957610458610c92565b5b6040519080825280602002602001820160405280156104875781602001602082028036833780820191505090505b508152602001600067ffffffffffffffff8111156104a8576104a7610c92565b5b6040519080825280602002602001820160405280156104d65781602001602082028036833780820191505090505b508152506040518363ffffffff1660e01b81526004016104f7929190611013565b600060405180830381600087803b15801561051157600080fd5b505af1158015610525573d6000803e3d6000fd5b505050508273ffffffffffffffffffffffffffffffffffffffff167fad37dec01c6ce7809ff746e60106df4650385c4edc5e42cec69b5b2c47caebe183834260405161057393929190611061565b60405180910390a2505050565b600160009054906101000a900473ffffffffffffffffffffffffffffffffffffffff1681565b600160009054906101000a900473ffffffffffffffffffffffffffffffffffffffff1673ffffffffffffffffffffffffffffffffffffffff163373ffffffffffffffffffffffffffffffffffffffff16148015610607575060011515811515145b610646576040517f08c379a000000000000000000000000000000000000000000000000000000000815260040161063d90610bd3565b60405180910390fd5b8173ffffffffffffffffffffffffffffffffffffffff1660008054906101000a900473ffffffffffffffffffffffffffffffffffffffff1673ffffffffffffffffffffffffffffffffffffffff1663b4108a94846040518263ffffffff1660e01b81526004016106b69190610a8c565b60206040518083038186803b1580156106ce57600080fd5b505afa1580156106e2573d6000803e3d6000fd5b505050506040513d601f19601f8201168201806040525081019061070691906110ad565b73ffffffffffffffffffffffffffffffffffffffff161461075c576040517f08c379a000000000000000000000000000000000000000000000000000000000815260040161075390611126565b60405180910390fd5b60008054906101000a900473ffffffffffffffffffffffffffffffffffffffff1673ffffffffffffffffffffffffffffffffffffffff16635c60f226836040518263ffffffff1660e01b81526004016107b59190610a8c565b600060405180830381600087803b1580156107cf57600080fd5b505af11580156107e3573d6000803e3d6000fd5b505050508173ffffffffffffffffffffffffffffffffffffffff167f1a7fe41b9767c0ba9c18dced521efc73b20feb650691659c8609704e103555ca4260405161082d9190611146565b60405180910390a25050565b6000600160009054906101000a900473ffffffffffffffffffffffffffffffffffffffff1673ffffffffffffffffffffffffffffffffffffffff163373ffffffffffffffffffffffffffffffffffffffff16146108cb576040517f08c379a00000000000000000000000000000000000000000000000000000000081526004016108c2906111d3565b60405180910390fd5b81600160006101000a81548173ffffffffffffffffffffffffffffffffffffffff021916908373ffffffffffffffffffffffffffffffffffffffff160217905550600160009054906101000a900473ffffffffffffffffffffffffffffffffffffffff1673ffffffffffffffffffffffffffffffffffffffff163373ffffffffffffffffffffffffffffffffffffffff167feeb293e1f8f3a9db91ade748726387ed1352ca78f5430c5f06fe3d1e1ad5057960405160405180910390a360019050919050565b600080fd5b600073ffffffffffffffffffffffffffffffffffffffff82169050919050565b60006109c182610996565b9050919050565b6109d1816109b6565b81146109dc57600080fd5b50565b6000813590506109ee816109c8565b92915050565b6000819050919050565b610a07816109f4565b8114610a1257600080fd5b50565b600081359050610a24816109fe565b92915050565b600080600060608486031215610a4357610a42610991565b5b6000610a51868287016109df565b9350506020610a6286828701610a15565b9250506040610a7386828701610a15565b9150509250925092565b610a86816109b6565b82525050565b6000602082019050610aa16000830184610a7d565b92915050565b60008115159050919050565b610abc81610aa7565b8114610ac757600080fd5b50565b600081359050610ad981610ab3565b92915050565b60008060408385031215610af657610af5610991565b5b6000610b04858286016109df565b9250506020610b1585828601610aca565b9150509250929050565b600060208284031215610b3557610b34610991565b5b6000610b43848285016109df565b91505092915050565b610b5581610aa7565b82525050565b6000602082019050610b706000830184610b4c565b92915050565b600082825260208201905092915050565b7f4572726f723a206163636f756e74206d75737420626520696e74657266616365600082015250565b6000610bbd602083610b76565b9150610bc882610b87565b602082019050919050565b60006020820190508181036000830152610bec81610bb0565b9050919050565b6000819050919050565b610c0681610bf3565b8114610c1157600080fd5b50565b600081519050610c2381610bfd565b92915050565b600060208284031215610c3f57610c3e610991565b5b6000610c4d84828501610c14565b91505092915050565b6000819050919050565b610c71610c6c82610bf3565b610c56565b82525050565b6000610c838284610c60565b60208201915081905092915050565b7f4e487b7100000000000000000000000000000000000000000000000000000000600052604160045260246000fd5b610cca816109f4565b82525050565b610cd981610bf3565b82525050565b610ce8816109b6565b82525050565b600081519050919050565b600082825260208201905092915050565b60005b83811015610d28578082015181840152602081019050610d0d565b83811115610d37576000848401525b50505050565b6000601f19601f8301169050919050565b6000610d5982610cee565b610d638185610cf9565b9350610d73818560208601610d0a565b610d7c81610d3d565b840191505092915050565b600081519050919050565b600082825260208201905092915050565b6000819050602082019050919050565b6000610dbf8383610cdf565b60208301905092915050565b6000602082019050919050565b6000610de382610d87565b610ded8185610d92565b9350610df883610da3565b8060005b83811015610e29578151610e108882610db3565b9750610e1b83610dcb565b925050600181019050610dfc565b5085935050505092915050565b600081519050919050565b600082825260208201905092915050565b6000819050602082019050919050565b6000610e6e8383610cc1565b60208301905092915050565b6000602082019050919050565b6000610e9282610e36565b610e9c8185610e41565b9350610ea783610e52565b8060005b83811015610ed8578151610ebf8882610e62565b9750610eca83610e7a565b925050600181019050610eab565b5085935050505092915050565b600061018083016000830151610efe6000860182610cc1565b506020830151610f116020860182610cc1565b506040830151610f246040860182610cc1565b506060830151610f376060860182610cd0565b506080830151610f4a6080860182610cdf565b5060a083015184820360a0860152610f628282610d4e565b91505060c083015184820360c0860152610f7c8282610d4e565b91505060e083015184820360e0860152610f968282610dd8565b915050610100830151848203610100860152610fb28282610dd8565b915050610120830151848203610120860152610fce8282610dd8565b915050610140830151848203610140860152610fea8282610dd8565b9150506101608301518482036101608601526110068282610e87565b9150508091505092915050565b60006040820190506110286000830185610a7d565b818103602083015261103a8184610ee5565b90509392505050565b61104c816109f4565b82525050565b61105b81610bf3565b82525050565b60006060820190506110766000830186611043565b6110836020830185611043565b6110906040830184611052565b949350505050565b6000815190506110a7816109c8565b92915050565b6000602082840312156110c3576110c2610991565b5b60006110d184828501611098565b91505092915050565b7f4572726f723a206163636f756e7420646f65736e277420657869737400000000600082015250565b6000611110601c83610b76565b915061111b826110da565b602082019050919050565b6000602082019050818103600083015261113f81611103565b9050919050565b600060208201905061115b6000830184611052565b92915050565b7f4572726f723a206d73672e73656e646572206d75737420626520666163746f7260008201527f795369676e657200000000000000000000000000000000000000000000000000602082015250565b60006111bd602783610b76565b91506111c882611161565b604082019050919050565b600060208201905081810360008301526111ec816111b0565b905091905056fea2646970667358221220fb4508d13660400747826544f9e60d3080ba2bb737e91f95b9a582e9f2bc664d64736f6c63430008090033",
  "immutableReferences": {},
  "source": "// SPDX-License-Identifier: MIT\n\npragma solidity >=0.8.0 <0.9.0;\n\nimport \"./UserStorage.sol\";\n\ncontract UserFactory {\n\n  UserStorage private userStorage;\n\n  address public signer;\n\n  event NewUser(\n         address indexed account,\n         bytes32 userName,\n         bytes32 userAddr,\n         uint time);\n  event DeletedUser(\n         address indexed account,\n         uint time);\n  event SignerChanged(\n         address indexed from,\n         address indexed to);\n\n  constructor(UserStorage _userStorage)\n              public {\n    signer = msg.sender;\n    userStorage = _userStorage;\n  }\n\n  function newUser(\n            address _account,\n            bytes32 _userName,\n            bytes32 _userAddress)\n            public {\n    require(\n      msg.sender==signer,\n      'Error: account must be interface');\n    userStorage.increaseUserCount();\n    // set user to account address\n    userStorage.setUser( _account, UserStorage.User(\n      keccak256(abi.encodePacked(userStorage.userCount())), // user id hashed through keccak\n      _userName, // user name\n      _userAddress, // user address\n      block.timestamp, // user creation time\n      _account, // address of user\n      string(''), // bio\n      string(''), // profile pic\n      new address[](0), // addresses of followers\n      new address[](0), // addresses of following\n      new address[](0), // addresses of unfollowers\n      new address[](0), // addresses of unfollowing\n      new bytes32[](0) // memeIds of posts\n    ));\n    emit NewUser(_account, _userName, _userAddress, block.timestamp);\n  }\n  function deleteUser(\n            address _account,\n            bool failSafe)\n            public {\n    require(\n      msg.sender==signer && failSafe==true,\n      'Error: account must be interface');\n    require(\n      userStorage.getAddr(_account)==_account,\n      'Error: account doesn\\'t exist');\n\n    // remove followers and following here\n    userStorage.deleteUser(_account);\n    emit DeletedUser(_account, block.timestamp);\n  }\n\n  // pass signer role to interface\n  function passInterfaceSigner(address _userInterface)\n            public returns(bool) {\n    require(\n      msg.sender==signer,\n      'Error: msg.sender must be factorySigner');\n\n    signer = _userInterface;\n    emit SignerChanged(msg.sender, signer);\n    return true;\n  }\n}\n",
  "sourcePath": "/Users/jaiq/Documents/000 BLOCKCHAIN/ETH/uMe/src/contracts/UserFactory.sol",
  "compiler": {
    "name": "solc",
    "version": "0.8.9+commit.e5eed63a.Emscripten.clang"
  },
  "schemaVersion": "3.4.3",
  "updatedAt": "2021-11-01T06:47:09.234Z",
  "devdoc": {
    "kind": "dev",
    "methods": {},
    "version": 1
  },
  "userdoc": {
    "kind": "user",
    "methods": {},
    "version": 1
  }
}