{
  "contractName": "UserInterface",
  "abi": [
    {
      "inputs": [
        {
          "internalType": "contract UME",
          "name": "_umeToken",
          "type": "address"
        },
        {
          "internalType": "contract MemeStorage",
          "name": "_memeStorage",
          "type": "address"
        },
        {
          "internalType": "contract UserStorage",
          "name": "_userStorage",
          "type": "address"
        },
        {
          "internalType": "contract Post",
          "name": "_post",
          "type": "address"
        },
        {
          "internalType": "contract Like",
          "name": "_like",
          "type": "address"
        },
        {
          "internalType": "contract Follow",
          "name": "_follow",
          "type": "address"
        }
      ],
      "stateMutability": "nonpayable",
      "type": "constructor"
    },
    {
      "anonymous": false,
      "inputs": [
        {
          "indexed": true,
          "internalType": "address",
          "name": "account",
          "type": "address"
        },
        {
          "indexed": false,
          "internalType": "bytes32",
          "name": "userAddress",
          "type": "bytes32"
        }
      ],
      "name": "ChangedUserAddress",
      "type": "event"
    },
    {
      "anonymous": false,
      "inputs": [
        {
          "indexed": true,
          "internalType": "address",
          "name": "account",
          "type": "address"
        },
        {
          "indexed": false,
          "internalType": "bytes32",
          "name": "userName",
          "type": "bytes32"
        }
      ],
      "name": "ChangedUserName",
      "type": "event"
    },
    {
      "anonymous": false,
      "inputs": [
        {
          "indexed": true,
          "internalType": "address",
          "name": "account",
          "type": "address"
        },
        {
          "indexed": false,
          "internalType": "bytes32",
          "name": "userName",
          "type": "bytes32"
        },
        {
          "indexed": false,
          "internalType": "bytes32",
          "name": "userAddress",
          "type": "bytes32"
        }
      ],
      "name": "NewUser",
      "type": "event"
    },
    {
      "inputs": [
        {
          "internalType": "address",
          "name": "_account",
          "type": "address"
        },
        {
          "internalType": "bytes32",
          "name": "_userName",
          "type": "bytes32"
        },
        {
          "internalType": "bytes32",
          "name": "_userAddress",
          "type": "bytes32"
        }
      ],
      "name": "newUser",
      "outputs": [],
      "stateMutability": "nonpayable",
      "type": "function"
    },
    {
      "inputs": [
        {
          "internalType": "address",
          "name": "_account",
          "type": "address"
        },
        {
          "internalType": "bytes32",
          "name": "_userName",
          "type": "bytes32"
        }
      ],
      "name": "changeUserName",
      "outputs": [],
      "stateMutability": "nonpayable",
      "type": "function"
    },
    {
      "inputs": [
        {
          "internalType": "address",
          "name": "_account",
          "type": "address"
        },
        {
          "internalType": "bytes32",
          "name": "_userAddress",
          "type": "bytes32"
        }
      ],
      "name": "changeUserAddress",
      "outputs": [],
      "stateMutability": "nonpayable",
      "type": "function"
    },
    {
      "inputs": [
        {
          "internalType": "address",
          "name": "_account",
          "type": "address"
        },
        {
          "internalType": "string",
          "name": "_postText",
          "type": "string"
        },
        {
          "internalType": "address[]",
          "name": "_tags",
          "type": "address[]"
        },
        {
          "internalType": "bytes32",
          "name": "_parentId",
          "type": "bytes32"
        },
        {
          "internalType": "bytes32",
          "name": "_originId",
          "type": "bytes32"
        }
      ],
      "name": "newMeme",
      "outputs": [],
      "stateMutability": "nonpayable",
      "type": "function"
    },
    {
      "inputs": [
        {
          "internalType": "address",
          "name": "_account",
          "type": "address"
        },
        {
          "internalType": "bytes32",
          "name": "_memeId",
          "type": "bytes32"
        }
      ],
      "name": "rememe",
      "outputs": [],
      "stateMutability": "nonpayable",
      "type": "function"
    },
    {
      "inputs": [
        {
          "internalType": "address",
          "name": "_account",
          "type": "address"
        },
        {
          "internalType": "string",
          "name": "_postText",
          "type": "string"
        },
        {
          "internalType": "address[]",
          "name": "_tags",
          "type": "address[]"
        },
        {
          "internalType": "bytes32",
          "name": "_parentId",
          "type": "bytes32"
        },
        {
          "internalType": "bytes32",
          "name": "_originId",
          "type": "bytes32"
        },
        {
          "internalType": "bytes32",
          "name": "_memeId",
          "type": "bytes32"
        }
      ],
      "name": "quoteMeme",
      "outputs": [],
      "stateMutability": "nonpayable",
      "type": "function"
    },
    {
      "inputs": [
        {
          "internalType": "address",
          "name": "_account",
          "type": "address"
        },
        {
          "internalType": "bytes32",
          "name": "_memeId",
          "type": "bytes32"
        }
      ],
      "name": "deleteMeme",
      "outputs": [],
      "stateMutability": "nonpayable",
      "type": "function"
    },
    {
      "inputs": [
        {
          "internalType": "address",
          "name": "_account",
          "type": "address"
        },
        {
          "internalType": "bytes32",
          "name": "_memeId",
          "type": "bytes32"
        }
      ],
      "name": "likeMeme",
      "outputs": [],
      "stateMutability": "nonpayable",
      "type": "function"
    },
    {
      "inputs": [
        {
          "internalType": "address",
          "name": "_from",
          "type": "address"
        },
        {
          "internalType": "address",
          "name": "_to",
          "type": "address"
        }
      ],
      "name": "followUser",
      "outputs": [],
      "stateMutability": "nonpayable",
      "type": "function"
    }
  ],
  "bytecode": "0x60806040523480156200001157600080fd5b50604051620039f2380380620039f2833981810160405281019062000037919062000211565b856000806101000a81548173ffffffffffffffffffffffffffffffffffffffff021916908373ffffffffffffffffffffffffffffffffffffffff16021790555083600260006101000a81548173ffffffffffffffffffffffffffffffffffffffff021916908373ffffffffffffffffffffffffffffffffffffffff16021790555082600460006101000a81548173ffffffffffffffffffffffffffffffffffffffff021916908373ffffffffffffffffffffffffffffffffffffffff16021790555081600560006101000a81548173ffffffffffffffffffffffffffffffffffffffff021916908373ffffffffffffffffffffffffffffffffffffffff16021790555080600660006101000a81548173ffffffffffffffffffffffffffffffffffffffff021916908373ffffffffffffffffffffffffffffffffffffffff160217905550505050505050620003fa565b60008151905062000198816200035e565b92915050565b600081519050620001af8162000378565b92915050565b600081519050620001c68162000392565b92915050565b600081519050620001dd81620003ac565b92915050565b600081519050620001f481620003c6565b92915050565b6000815190506200020b81620003e0565b92915050565b60008060008060008060c0878903121562000231576200023062000359565b5b60006200024189828a01620001e3565b96505060206200025489828a01620001b5565b95505060406200026789828a01620001fa565b94505060606200027a89828a01620001cc565b93505060806200028d89828a016200019e565b92505060a0620002a089828a0162000187565b9150509295509295509295565b6000620002ba8262000339565b9050919050565b6000620002ce82620002ad565b9050919050565b6000620002e282620002ad565b9050919050565b6000620002f682620002ad565b9050919050565b60006200030a82620002ad565b9050919050565b60006200031e82620002ad565b9050919050565b60006200033282620002ad565b9050919050565b600073ffffffffffffffffffffffffffffffffffffffff82169050919050565b600080fd5b6200036981620002c1565b81146200037557600080fd5b50565b6200038381620002d5565b81146200038f57600080fd5b50565b6200039d81620002e9565b8114620003a957600080fd5b50565b620003b781620002fd565b8114620003c357600080fd5b50565b620003d18162000311565b8114620003dd57600080fd5b50565b620003eb8162000325565b8114620003f757600080fd5b50565b6135e8806200040a6000396000f3fe608060405234801561001057600080fd5b50600436106100935760003560e01c80636b0a493e116100665780636b0a493e14610108578063be4641e114610124578063beb377eb14610140578063cac09a291461015c578063d71a48551461017857610093565b80630c8273e61461009857806314def836146100b4578063648c59eb146100d0578063654ea484146100ec575b600080fd5b6100b260048036038101906100ad9190612126565b610194565b005b6100ce60048036038101906100c991906121a6565b6104b3565b005b6100ea60048036038101906100e59190612166565b6109a4565b005b610106600480360381019061010191906122ac565b610aa3565b005b610122600480360381019061011d9190612166565b610df8565b005b61013e60048036038101906101399190612166565b611013565b005b61015a60048036038101906101559190612166565b611429565b005b61017660048036038101906101719190612166565b6117ac565b005b610192600480360381019061018d91906121f9565b611c14565b005b3373ffffffffffffffffffffffffffffffffffffffff168273ffffffffffffffffffffffffffffffffffffffff1614610202576040517f08c379a00000000000000000000000000000000000000000000000000000000081526004016101f990612a74565b60405180910390fd5b8073ffffffffffffffffffffffffffffffffffffffff168273ffffffffffffffffffffffffffffffffffffffff161415610271576040517f08c379a000000000000000000000000000000000000000000000000000000000815260040161026890612bf4565b60405180910390fd5b6000600260009054906101000a900473ffffffffffffffffffffffffffffffffffffffff1673ffffffffffffffffffffffffffffffffffffffff1663e8fc954e846040518263ffffffff1660e01b81526004016102ce919061281c565b60206040518083038186803b1580156102e657600080fd5b505afa1580156102fa573d6000803e3d6000fd5b505050506040513d601f19601f8201168201806040525081019061031e919061239e565b50602060ff161180156103e157506000600260009054906101000a900473ffffffffffffffffffffffffffffffffffffffff1673ffffffffffffffffffffffffffffffffffffffff1663e8fc954e836040518263ffffffff1660e01b8152600401610389919061281c565b60206040518083038186803b1580156103a157600080fd5b505afa1580156103b5573d6000803e3d6000fd5b505050506040513d601f19601f820116820180604052508101906103d9919061239e565b50602060ff16115b610420576040517f08c379a000000000000000000000000000000000000000000000000000000000815260040161041790612b74565b60405180910390fd5b600660009054906101000a900473ffffffffffffffffffffffffffffffffffffffff1673ffffffffffffffffffffffffffffffffffffffff166399d147c283836040518363ffffffff1660e01b815260040161047d929190612837565b600060405180830381600087803b15801561049757600080fd5b505af11580156104ab573d6000803e3d6000fd5b505050505050565b8273ffffffffffffffffffffffffffffffffffffffff163373ffffffffffffffffffffffffffffffffffffffff1614610521576040517f08c379a000000000000000000000000000000000000000000000000000000000815260040161051890612a94565b60405180910390fd5b6001602060ff16118015610539575060208060ff1611155b610578576040517f08c379a000000000000000000000000000000000000000000000000000000000815260040161056f90612b14565b60405180910390fd5b7f40000000000000000000000000000000000000000000000000000000000000007effffffffffffffffffffffffffffffffffffffffffffffffffffffffffffff1916816000602081106105cf576105ce612e70565b5b1a60f81b7effffffffffffffffffffffffffffffffffffffffffffffffffffffffffffff191614610635576040517f08c379a000000000000000000000000000000000000000000000000000000000815260040161062c90612c34565b60405180910390fd5b6002602060ff1611801561064d575060208060ff1611155b61068c576040517f08c379a000000000000000000000000000000000000000000000000000000000815260040161068390612c74565b60405180910390fd5b8273ffffffffffffffffffffffffffffffffffffffff16600260009054906101000a900473ffffffffffffffffffffffffffffffffffffffff1673ffffffffffffffffffffffffffffffffffffffff1663b4108a94856040518263ffffffff1660e01b81526004016106fe919061281c565b60206040518083038186803b15801561071657600080fd5b505afa15801561072a573d6000803e3d6000fd5b505050506040513d601f19601f8201168201806040525081019061074e91906120f9565b73ffffffffffffffffffffffffffffffffffffffff1614156107a5576040517f08c379a000000000000000000000000000000000000000000000000000000000815260040161079c90612bb4565b60405180910390fd5b600073ffffffffffffffffffffffffffffffffffffffff16600260009054906101000a900473ffffffffffffffffffffffffffffffffffffffff1673ffffffffffffffffffffffffffffffffffffffff1663b4108a94856040518263ffffffff1660e01b8152600401610818919061281c565b60206040518083038186803b15801561083057600080fd5b505afa158015610844573d6000803e3d6000fd5b505050506040513d601f19601f8201168201806040525081019061086891906120f9565b73ffffffffffffffffffffffffffffffffffffffff16146108be576040517f08c379a00000000000000000000000000000000000000000000000000000000081526004016108b590612c14565b60405180910390fd5b600360009054906101000a900473ffffffffffffffffffffffffffffffffffffffff1673ffffffffffffffffffffffffffffffffffffffff166314def8368484846040518463ffffffff1660e01b815260040161091d93929190612889565b600060405180830381600087803b15801561093757600080fd5b505af115801561094b573d6000803e3d6000fd5b505050508273ffffffffffffffffffffffffffffffffffffffff167f5ef99684cfef8b5446d6ca2c82757ec3aa390143139c074ccfec75826341610783836040516109979291906129ab565b60405180910390a2505050565b3373ffffffffffffffffffffffffffffffffffffffff168273ffffffffffffffffffffffffffffffffffffffff1614610a12576040517f08c379a0000000000000000000000000000000000000000000000000000000008152600401610a0990612b54565b60405180910390fd5b600460009054906101000a900473ffffffffffffffffffffffffffffffffffffffff1673ffffffffffffffffffffffffffffffffffffffff1663aaf837c5826040518263ffffffff1660e01b8152600401610a6d9190612990565b600060405180830381600087803b158015610a8757600080fd5b505af1158015610a9b573d6000803e3d6000fd5b505050505050565b3373ffffffffffffffffffffffffffffffffffffffff168673ffffffffffffffffffffffffffffffffffffffff1614610b11576040517f08c379a0000000000000000000000000000000000000000000000000000000008152600401610b0890612cb4565b60405180910390fd5b6000855111610b55576040517f08c379a0000000000000000000000000000000000000000000000000000000008152600401610b4c90612c54565b60405180910390fd5b600073ffffffffffffffffffffffffffffffffffffffff16600260009054906101000a900473ffffffffffffffffffffffffffffffffffffffff1673ffffffffffffffffffffffffffffffffffffffff1663b4108a94886040518263ffffffff1660e01b8152600401610bc8919061281c565b60206040518083038186803b158015610be057600080fd5b505afa158015610bf4573d6000803e3d6000fd5b505050506040513d601f19601f82011682018060405250810190610c1891906120f9565b73ffffffffffffffffffffffffffffffffffffffff161415610c6f576040517f08c379a0000000000000000000000000000000000000000000000000000000008152600401610c6690612af4565b60405180910390fd5b600160009054906101000a900473ffffffffffffffffffffffffffffffffffffffff1673ffffffffffffffffffffffffffffffffffffffff1663c627f1ee846040518263ffffffff1660e01b8152600401610cca9190612990565b60206040518083038186803b158015610ce257600080fd5b505afa158015610cf6573d6000803e3d6000fd5b505050506040513d601f19601f82011682018060405250810190610d1a9190612371565b610d59576040517f08c379a0000000000000000000000000000000000000000000000000000000008152600401610d5090612b94565b60405180910390fd5b600460009054906101000a900473ffffffffffffffffffffffffffffffffffffffff1673ffffffffffffffffffffffffffffffffffffffff1663654ea4848787878787876040518763ffffffff1660e01b8152600401610dbe96959493929190612921565b600060405180830381600087803b158015610dd857600080fd5b505af1158015610dec573d6000803e3d6000fd5b50505050505050505050565b3373ffffffffffffffffffffffffffffffffffffffff168273ffffffffffffffffffffffffffffffffffffffff1614610e66576040517f08c379a0000000000000000000000000000000000000000000000000000000008152600401610e5d90612cb4565b60405180910390fd5b600073ffffffffffffffffffffffffffffffffffffffff16600260009054906101000a900473ffffffffffffffffffffffffffffffffffffffff1673ffffffffffffffffffffffffffffffffffffffff1663b4108a94846040518263ffffffff1660e01b8152600401610ed9919061281c565b60206040518083038186803b158015610ef157600080fd5b505afa158015610f05573d6000803e3d6000fd5b505050506040513d601f19601f82011682018060405250810190610f2991906120f9565b73ffffffffffffffffffffffffffffffffffffffff161415610f80576040517f08c379a0000000000000000000000000000000000000000000000000000000008152600401610f7790612af4565b60405180910390fd5b600460009054906101000a900473ffffffffffffffffffffffffffffffffffffffff1673ffffffffffffffffffffffffffffffffffffffff16636b0a493e83836040518363ffffffff1660e01b8152600401610fdd929190612860565b600060405180830381600087803b158015610ff757600080fd5b505af115801561100b573d6000803e3d6000fd5b505050505050565b600260009054906101000a900473ffffffffffffffffffffffffffffffffffffffff1673ffffffffffffffffffffffffffffffffffffffff1663b4108a94836040518263ffffffff1660e01b815260040161106e919061281c565b60206040518083038186803b15801561108657600080fd5b505afa15801561109a573d6000803e3d6000fd5b505050506040513d601f19601f820116820180604052508101906110be91906120f9565b73ffffffffffffffffffffffffffffffffffffffff168273ffffffffffffffffffffffffffffffffffffffff16141561112c576040517f08c379a000000000000000000000000000000000000000000000000000000000815260040161112390612a34565b60405180910390fd5b3373ffffffffffffffffffffffffffffffffffffffff168273ffffffffffffffffffffffffffffffffffffffff161461119a576040517f08c379a000000000000000000000000000000000000000000000000000000000815260040161119190612a54565b60405180910390fd5b600073ffffffffffffffffffffffffffffffffffffffff16600260009054906101000a900473ffffffffffffffffffffffffffffffffffffffff1673ffffffffffffffffffffffffffffffffffffffff1663b4108a94846040518263ffffffff1660e01b815260040161120d919061281c565b60206040518083038186803b15801561122557600080fd5b505afa158015611239573d6000803e3d6000fd5b505050506040513d601f19601f8201168201806040525081019061125d91906120f9565b73ffffffffffffffffffffffffffffffffffffffff1614156112b4576040517f08c379a00000000000000000000000000000000000000000000000000000000081526004016112ab906129d4565b60405180910390fd5b6000600160009054906101000a900473ffffffffffffffffffffffffffffffffffffffff1673ffffffffffffffffffffffffffffffffffffffff16637b2124d26040518163ffffffff1660e01b815260040160206040518083038186803b15801561131e57600080fd5b505afa158015611332573d6000803e3d6000fd5b505050506040513d601f19601f8201168201806040525081019061135691906123cb565b11611396576040517f08c379a000000000000000000000000000000000000000000000000000000000815260040161138d90612c94565b60405180910390fd5b600560009054906101000a900473ffffffffffffffffffffffffffffffffffffffff1673ffffffffffffffffffffffffffffffffffffffff1663be4641e183836040518363ffffffff1660e01b81526004016113f3929190612860565b600060405180830381600087803b15801561140d57600080fd5b505af1158015611421573d6000803e3d6000fd5b505050505050565b8173ffffffffffffffffffffffffffffffffffffffff163373ffffffffffffffffffffffffffffffffffffffff1614611497576040517f08c379a000000000000000000000000000000000000000000000000000000000815260040161148e90612bd4565b60405180910390fd5b80600260009054906101000a900473ffffffffffffffffffffffffffffffffffffffff1673ffffffffffffffffffffffffffffffffffffffff16635fd4b08a846040518263ffffffff1660e01b81526004016114f3919061281c565b60206040518083038186803b15801561150b57600080fd5b505afa15801561151f573d6000803e3d6000fd5b505050506040513d601f19601f82011682018060405250810190611543919061239e565b1415611584576040517f08c379a000000000000000000000000000000000000000000000000000000000815260040161157b90612a14565b60405180910390fd5b6001602060ff1611801561159c575060208060ff1611155b6115db576040517f08c379a00000000000000000000000000000000000000000000000000000000081526004016115d290612b14565b60405180910390fd5b6000801b600260009054906101000a900473ffffffffffffffffffffffffffffffffffffffff1673ffffffffffffffffffffffffffffffffffffffff166365f68c89846040518263ffffffff1660e01b815260040161163a919061281c565b60206040518083038186803b15801561165257600080fd5b505afa158015611666573d6000803e3d6000fd5b505050506040513d601f19601f8201168201806040525081019061168a919061239e565b14156116cb576040517f08c379a00000000000000000000000000000000000000000000000000000000081526004016116c290612ab4565b60405180910390fd5b600260009054906101000a900473ffffffffffffffffffffffffffffffffffffffff1673ffffffffffffffffffffffffffffffffffffffff16630667e80583836040518363ffffffff1660e01b8152600401611728929190612860565b600060405180830381600087803b15801561174257600080fd5b505af1158015611756573d6000803e3d6000fd5b505050508173ffffffffffffffffffffffffffffffffffffffff167f72b1cf0bc13f95f0e133d81e3f2eb157e6bb587fc674744d4a199fb022782512826040516117a09190612990565b60405180910390a25050565b8173ffffffffffffffffffffffffffffffffffffffff163373ffffffffffffffffffffffffffffffffffffffff161461181a576040517f08c379a000000000000000000000000000000000000000000000000000000000815260040161181190612bd4565b60405180910390fd5b7f40000000000000000000000000000000000000000000000000000000000000007effffffffffffffffffffffffffffffffffffffffffffffffffffffffffffff19168160006020811061187157611870612e70565b5b1a60f81b7effffffffffffffffffffffffffffffffffffffffffffffffffffffffffffff1916146118d7576040517f08c379a00000000000000000000000000000000000000000000000000000000081526004016118ce90612c34565b60405180910390fd5b6002602060ff161180156118ef575060208060ff1611155b61192e576040517f08c379a000000000000000000000000000000000000000000000000000000000815260040161192590612c74565b60405180910390fd5b80600260009054906101000a900473ffffffffffffffffffffffffffffffffffffffff1673ffffffffffffffffffffffffffffffffffffffff1663e8fc954e846040518263ffffffff1660e01b815260040161198a919061281c565b60206040518083038186803b1580156119a257600080fd5b505afa1580156119b6573d6000803e3d6000fd5b505050506040513d601f19601f820116820180604052508101906119da919061239e565b1415611a1b576040517f08c379a0000000000000000000000000000000000000000000000000000000008152600401611a1290612b34565b60405180910390fd5b8173ffffffffffffffffffffffffffffffffffffffff16600260009054906101000a900473ffffffffffffffffffffffffffffffffffffffff1673ffffffffffffffffffffffffffffffffffffffff166311e0bda7836040518263ffffffff1660e01b8152600401611a8d9190612990565b60206040518083038186803b158015611aa557600080fd5b505afa158015611ab9573d6000803e3d6000fd5b505050506040513d601f19601f82011682018060405250810190611add91906120f9565b73ffffffffffffffffffffffffffffffffffffffff1614611b33576040517f08c379a0000000000000000000000000000000000000000000000000000000008152600401611b2a90612ad4565b60405180910390fd5b600260009054906101000a900473ffffffffffffffffffffffffffffffffffffffff1673ffffffffffffffffffffffffffffffffffffffff1663a477c0bf83836040518363ffffffff1660e01b8152600401611b90929190612860565b600060405180830381600087803b158015611baa57600080fd5b505af1158015611bbe573d6000803e3d6000fd5b505050508173ffffffffffffffffffffffffffffffffffffffff167f04d371655880a064ab42f6fee28675351cb26ca88a7e5a9d6140cb0ec6ca568d82604051611c089190612990565b60405180910390a25050565b3373ffffffffffffffffffffffffffffffffffffffff168573ffffffffffffffffffffffffffffffffffffffff1614611c82576040517f08c379a0000000000000000000000000000000000000000000000000000000008152600401611c7990612cb4565b60405180910390fd5b6000845111611cc6576040517f08c379a0000000000000000000000000000000000000000000000000000000008152600401611cbd90612c54565b60405180910390fd5b600073ffffffffffffffffffffffffffffffffffffffff16600260009054906101000a900473ffffffffffffffffffffffffffffffffffffffff1673ffffffffffffffffffffffffffffffffffffffff1663b4108a94876040518263ffffffff1660e01b8152600401611d39919061281c565b60206040518083038186803b158015611d5157600080fd5b505afa158015611d65573d6000803e3d6000fd5b505050506040513d601f19601f82011682018060405250810190611d8991906120f9565b73ffffffffffffffffffffffffffffffffffffffff161415611de0576040517f08c379a0000000000000000000000000000000000000000000000000000000008152600401611dd790612af4565b60405180910390fd5b60011515600160009054906101000a900473ffffffffffffffffffffffffffffffffffffffff1673ffffffffffffffffffffffffffffffffffffffff1663c627f1ee846040518263ffffffff1660e01b8152600401611e3f9190612990565b60206040518083038186803b158015611e5757600080fd5b505afa158015611e6b573d6000803e3d6000fd5b505050506040513d601f19601f82011682018060405250810190611e8f9190612371565b151514611ed1576040517f08c379a0000000000000000000000000000000000000000000000000000000008152600401611ec8906129f4565b60405180910390fd5b600460009054906101000a900473ffffffffffffffffffffffffffffffffffffffff1673ffffffffffffffffffffffffffffffffffffffff1663d71a485586868686866040518663ffffffff1660e01b8152600401611f349594939291906128c0565b600060405180830381600087803b158015611f4e57600080fd5b505af1158015611f62573d6000803e3d6000fd5b505050505050505050565b6000611f80611f7b84612cf9565b612cd4565b90508083825260208201905082856020860282011115611fa357611fa2612ed3565b5b60005b85811015611fd35781611fb9888261201f565b845260208401935060208301925050600181019050611fa6565b5050509392505050565b6000611ff0611feb84612d25565b612cd4565b90508281526020810184848401111561200c5761200b612ed8565b5b612017848285612dfd565b509392505050565b60008135905061202e81613556565b92915050565b60008151905061204381613556565b92915050565b600082601f83011261205e5761205d612ece565b5b813561206e848260208601611f6d565b91505092915050565b6000815190506120868161356d565b92915050565b60008135905061209b81613584565b92915050565b6000815190506120b081613584565b92915050565b600082601f8301126120cb576120ca612ece565b5b81356120db848260208601611fdd565b91505092915050565b6000815190506120f38161359b565b92915050565b60006020828403121561210f5761210e612ee2565b5b600061211d84828501612034565b91505092915050565b6000806040838503121561213d5761213c612ee2565b5b600061214b8582860161201f565b925050602061215c8582860161201f565b9150509250929050565b6000806040838503121561217d5761217c612ee2565b5b600061218b8582860161201f565b925050602061219c8582860161208c565b9150509250929050565b6000806000606084860312156121bf576121be612ee2565b5b60006121cd8682870161201f565b93505060206121de8682870161208c565b92505060406121ef8682870161208c565b9150509250925092565b600080600080600060a0868803121561221557612214612ee2565b5b60006122238882890161201f565b955050602086013567ffffffffffffffff81111561224457612243612edd565b5b612250888289016120b6565b945050604086013567ffffffffffffffff81111561227157612270612edd565b5b61227d88828901612049565b935050606061228e8882890161208c565b925050608061229f8882890161208c565b9150509295509295909350565b60008060008060008060c087890312156122c9576122c8612ee2565b5b60006122d789828a0161201f565b965050602087013567ffffffffffffffff8111156122f8576122f7612edd565b5b61230489828a016120b6565b955050604087013567ffffffffffffffff81111561232557612324612edd565b5b61233189828a01612049565b945050606061234289828a0161208c565b935050608061235389828a0161208c565b92505060a061236489828a0161208c565b9150509295509295509295565b60006020828403121561238757612386612ee2565b5b600061239584828501612077565b91505092915050565b6000602082840312156123b4576123b3612ee2565b5b60006123c2848285016120a1565b91505092915050565b6000602082840312156123e1576123e0612ee2565b5b60006123ef848285016120e4565b91505092915050565b60006124048383612410565b60208301905092915050565b61241981612dab565b82525050565b61242881612dab565b82525050565b600061243982612d66565b6124438185612d89565b935061244e83612d56565b8060005b8381101561247f57815161246688826123f8565b975061247183612d7c565b925050600181019050612452565b5085935050505092915050565b61249581612dc9565b82525050565b60006124a682612d71565b6124b08185612d9a565b93506124c0818560208601612e0c565b6124c981612ee7565b840191505092915050565b60006124e1602383612d9a565b91506124ec82612ef8565b604082019050919050565b6000612504601f83612d9a565b915061250f82612f47565b602082019050919050565b6000612527602183612d9a565b915061253282612f70565b604082019050919050565b600061254a602183612d9a565b915061255582612fbf565b604082019050919050565b600061256d602683612d9a565b91506125788261300e565b604082019050919050565b6000612590602983612d9a565b915061259b8261305d565b604082019050919050565b60006125b3602683612d9a565b91506125be826130ac565b604082019050919050565b60006125d6602483612d9a565b91506125e1826130fb565b604082019050919050565b60006125f9603183612d9a565b91506126048261314a565b604082019050919050565b600061261c602083612d9a565b915061262782613199565b602082019050919050565b600061263f603183612d9a565b915061264a826131c2565b604082019050919050565b6000612662602583612d9a565b915061266d82613211565b604082019050919050565b6000612685602383612d9a565b915061269082613260565b604082019050919050565b60006126a8603483612d9a565b91506126b3826132af565b604082019050919050565b60006126cb601883612d9a565b91506126d6826132fe565b602082019050919050565b60006126ee601d83612d9a565b91506126f982613327565b602082019050919050565b6000612711602583612d9a565b915061271c82613350565b604082019050919050565b6000612734601383612d9a565b915061273f8261339f565b602082019050919050565b6000612757602283612d9a565b9150612762826133c8565b604082019050919050565b600061277a602a83612d9a565b915061278582613417565b604082019050919050565b600061279d601a83612d9a565b91506127a882613466565b602082019050919050565b60006127c0603483612d9a565b91506127cb8261348f565b604082019050919050565b60006127e3601883612d9a565b91506127ee826134de565b602082019050919050565b6000612806602183612d9a565b915061281182613507565b604082019050919050565b6000602082019050612831600083018461241f565b92915050565b600060408201905061284c600083018561241f565b612859602083018461241f565b9392505050565b6000604082019050612875600083018561241f565b612882602083018461248c565b9392505050565b600060608201905061289e600083018661241f565b6128ab602083018561248c565b6128b8604083018461248c565b949350505050565b600060a0820190506128d5600083018861241f565b81810360208301526128e7818761249b565b905081810360408301526128fb818661242e565b905061290a606083018561248c565b612917608083018461248c565b9695505050505050565b600060c082019050612936600083018961241f565b8181036020830152612948818861249b565b9050818103604083015261295c818761242e565b905061296b606083018661248c565b612978608083018561248c565b61298560a083018461248c565b979650505050505050565b60006020820190506129a5600083018461248c565b92915050565b60006040820190506129c0600083018561248c565b6129cd602083018461248c565b9392505050565b600060208201905081810360008301526129ed816124d4565b9050919050565b60006020820190508181036000830152612a0d816124f7565b9050919050565b60006020820190508181036000830152612a2d8161251a565b9050919050565b60006020820190508181036000830152612a4d8161253d565b9050919050565b60006020820190508181036000830152612a6d81612560565b9050919050565b60006020820190508181036000830152612a8d81612583565b9050919050565b60006020820190508181036000830152612aad816125a6565b9050919050565b60006020820190508181036000830152612acd816125c9565b9050919050565b60006020820190508181036000830152612aed816125ec565b9050919050565b60006020820190508181036000830152612b0d8161260f565b9050919050565b60006020820190508181036000830152612b2d81612632565b9050919050565b60006020820190508181036000830152612b4d81612655565b9050919050565b60006020820190508181036000830152612b6d81612678565b9050919050565b60006020820190508181036000830152612b8d8161269b565b9050919050565b60006020820190508181036000830152612bad816126be565b9050919050565b60006020820190508181036000830152612bcd816126e1565b9050919050565b60006020820190508181036000830152612bed81612704565b9050919050565b60006020820190508181036000830152612c0d81612727565b9050919050565b60006020820190508181036000830152612c2d8161274a565b9050919050565b60006020820190508181036000830152612c4d8161276d565b9050919050565b60006020820190508181036000830152612c6d81612790565b9050919050565b60006020820190508181036000830152612c8d816127b3565b9050919050565b60006020820190508181036000830152612cad816127d6565b9050919050565b60006020820190508181036000830152612ccd816127f9565b9050919050565b6000612cde612cef565b9050612cea8282612e3f565b919050565b6000604051905090565b600067ffffffffffffffff821115612d1457612d13612e9f565b5b602082029050602081019050919050565b600067ffffffffffffffff821115612d4057612d3f612e9f565b5b612d4982612ee7565b9050602081019050919050565b6000819050602082019050919050565b600081519050919050565b600081519050919050565b6000602082019050919050565b600082825260208201905092915050565b600082825260208201905092915050565b6000612db682612dd3565b9050919050565b60008115159050919050565b6000819050919050565b600073ffffffffffffffffffffffffffffffffffffffff82169050919050565b6000819050919050565b82818337600083830152505050565b60005b83811015612e2a578082015181840152602081019050612e0f565b83811115612e39576000848401525b50505050565b612e4882612ee7565b810181811067ffffffffffffffff82111715612e6757612e66612e9f565b5b80604052505050565b7f4e487b7100000000000000000000000000000000000000000000000000000000600052603260045260246000fd5b7f4e487b7100000000000000000000000000000000000000000000000000000000600052604160045260246000fd5b600080fd5b600080fd5b600080fd5b600080fd5b600080fd5b6000601f19601f8301169050919050565b7f4572726f723a204d656d65206c696b6564206d7573742068617665206164647260008201527f6573730000000000000000000000000000000000000000000000000000000000602082015250565b7f4572726f723a20706172656e74266f726967696e206d75737420657869737400600082015250565b7f4572726f723a206d75737420626520646966666572656e7420757365726e616d60008201527f6500000000000000000000000000000000000000000000000000000000000000602082015250565b7f4572726f723a2063616e6e6f74206c696b65206f6e652773206f776e206d656d60008201527f6500000000000000000000000000000000000000000000000000000000000000602082015250565b7f4572726f723a206c696b6572206d757374206265206f7065726174696e67206160008201527f63636f756e740000000000000000000000000000000000000000000000000000602082015250565b7f4572726f723a20666f6c6c6f776572206d757374206265206f7065726174696e60008201527f67206163636f756e740000000000000000000000000000000000000000000000602082015250565b7f4572726f723a206163636f756e74206d757374206265206163636f756e74206360008201527f726561746f720000000000000000000000000000000000000000000000000000602082015250565b7f4572726f723a206d757374206861766520616e206578697374696e672061636360008201527f6f756e7400000000000000000000000000000000000000000000000000000000602082015250565b7f4572726f723a20757365722061646472657373206d757374206578697374206160008201527f742063757272656e742061646472657373000000000000000000000000000000602082015250565b7f4572726f723a207573657220646f65736e27742068617665206163636f756e74600082015250565b7f4572726f723a20757365724e616d65206d757374206265206265747765656e2060008201527f3220262033322063686172616374657273000000000000000000000000000000602082015250565b7f4572726f723a206d75737420626520646966666572656e74207573657220616460008201527f6472657373000000000000000000000000000000000000000000000000000000602082015250565b7f4572726f723a206f6e6c79206163636f756e742063616e2064656c657465206d60008201527f656d650000000000000000000000000000000000000000000000000000000000602082015250565b7f4572726f723a20626f746820666f6c6c6f77657220616e6420666f6c6c6f776560008201527f65206d7573742068617665206163636f756e7473000000000000000000000000602082015250565b7f4572726f723a20706172656e74206d7573742065786973740000000000000000600082015250565b7f4572726f723a206163636f756e7420616c726561647920657869737473000000600082015250565b7f4572726f723a206f70657261746f72206d757374206265206163636f756e742060008201527f6f776e6572000000000000000000000000000000000000000000000000000000602082015250565b7f4572726f723a2073616d65206163636f756e7400000000000000000000000000600082015250565b7f4572726f723a2075736572206164647265737320616c7265616479206578697360008201527f7473000000000000000000000000000000000000000000000000000000000000602082015250565b7f4572726f723a20666972737420656c656d656e74206f6620737472696e67206d60008201527f7573742062652022402200000000000000000000000000000000000000000000602082015250565b7f4572726f723a206d656d65206d75737420686176652074657874000000000000600082015250565b7f4572726f723a207573657241646472657373206d75737420626520626574776560008201527f656e203220262033322063686172616374657273000000000000000000000000602082015250565b7f4572726f723a204d656d65206d75737420686176652069640000000000000000600082015250565b7f4572726f723a2077726f6e67206163636f756e742063616c6c696e6720706f7360008201527f7400000000000000000000000000000000000000000000000000000000000000602082015250565b61355f81612dab565b811461356a57600080fd5b50565b61357681612dbd565b811461358157600080fd5b50565b61358d81612dc9565b811461359857600080fd5b50565b6135a481612df3565b81146135af57600080fd5b5056fea2646970667358221220f4ab0fa07e12775134818beead5d7acfd86a90cdf8fb339b1cfb2cc8b29f208064736f6c63430008070033",
  "immutableReferences": {},
  "source": "// SPDX-License-Identifier: MIT\n\npragma solidity >=0.8.0 <0.9.0;\n\nimport \"./Follow.sol\";\nimport \"./Like.sol\";\nimport \"./MemeStorage.sol\";\nimport \"./Post.sol\";\nimport \"./UME.sol\";\nimport \"./UserFactory.sol\";\nimport \"./UserStorage.sol\";\n\ncontract UserInterface {\n\n  UME private umeToken;\n  MemeStorage private memeStorage;\n  UserStorage private userStorage;\n  UserFactory private userFactory;\n\n  Post private post;\n  Like private like;\n  Follow private follow;\n\n  struct User {\n    uint id; // user number in order\n    string name; // user name\n    string userAddr; // user address (@)\n    uint time; // user creation time\n    address addr; // address of user\n    address[] followers; // addresses of followers\n    address[] following; // addressses of following\n    uint[] posts; // memeIds of posts\n  }\n\n  event NewUser(\n    address indexed account,\n    bytes32 userName,\n    bytes32 userAddress);\n  event ChangedUserName(\n    address indexed account,\n    bytes32 userName);\n  event ChangedUserAddress(\n    address indexed account,\n    bytes32 userAddress);\n\n  constructor(\n    UME _umeToken,\n    MemeStorage _memeStorage,\n    UserStorage _userStorage,\n    Post _post,\n    Like _like,\n    Follow _follow\n  ) public {\n    umeToken = _umeToken;\n    userStorage = _userStorage;\n    post = _post;\n    like = _like;\n    follow = _follow;\n  }\n\n  function newUser(\n    address _account,\n    bytes32 _userName,\n    bytes32 _userAddress\n  ) public {\n    require(\n      msg.sender==_account,\n      'Error: account must be account creator');\n    require(\n      _userName.length>1 &&\n      _userName.length<=32,\n      'Error: userName must be between 2 & 32 characters');\n    require(\n      _userAddress[0]==bytes1('@'),\n      'Error: first element of string must be \"@\"');\n    require(\n      _userAddress.length>2 &&\n      _userAddress.length<=32,\n      'Error: userAddress must be between 2 & 32 characters');\n    require(\n      userStorage.getAddr(_account)!=_account,\n      'Error: account already exists');\n    require(\n      userStorage.getAddr(_account)==address(0x0),\n      'Error: user address already exists');\n\n    userFactory.newUser(_account, _userName, _userAddress);\n    emit NewUser(_account, _userName, _userAddress);\n  }\n  function changeUserName(\n    address _account,\n    bytes32 _userName\n  ) public {\n    require(\n      msg.sender==_account,\n      'Error: operator must be account owner');\n    require(\n      userStorage.getName(_account)!=_userName,\n      'Error: must be different username');\n    require(\n      _userName.length>1 &&\n      _userName.length<=32,\n      'Error: userName must be between 2 & 32 characters');\n    require(\n      userStorage.getId(_account)!=0,\n      'Error: must have an existing account');\n\n    userStorage.setUserName(_account, _userName);\n    emit ChangedUserName(_account, _userName);\n  }\n  function changeUserAddress(\n    address _account,\n    bytes32 _userAddress\n  ) public {\n    require(\n      msg.sender==_account,\n      'Error: operator must be account owner');\n    require(\n      _userAddress[0]==bytes1('@'),\n      'Error: first element of string must be \"@\"');\n    require(\n      _userAddress.length>2 &&\n      _userAddress.length<=32,\n      'Error: userAddress must be between 2 & 32 characters');\n    require(\n      userStorage.getUserAddr(_account)!=_userAddress,\n      'Error: must be different user address');\n    require(\n      userStorage.usersByUserAddr(_userAddress)==_account,\n      'Error: user address must exist at current address');\n\n    userStorage.setUserAddress(_account, _userAddress);\n    emit ChangedUserAddress(_account, _userAddress);\n  }\n\n  // Meme posting functionality\n  function newMeme(\n    address _account,\n    string memory _postText,\n    address[] memory _tags,\n    bytes32 _parentId,\n    bytes32 _originId\n  ) public {\n    require(\n      _account==msg.sender,\n      'Error: wrong account calling post');\n    require(\n      bytes(_postText).length > 0,\n      'Error: meme must have text');\n    require(\n      userStorage.getAddr(_account)!=address(0x0),\n      'Error: user doesn\\'t have account');\n    require(\n      memeStorage.getVisibility(_parentId)==true,\n      'Error: parent&origin must exist');\n    // post new meme\n    post.newMeme(_account, _postText, _tags, _parentId, _originId);\n  }\n  function rememe(\n    address _account,\n    bytes32 _memeId\n  ) public {\n    require(\n      _account==msg.sender,\n      'Error: wrong account calling post');\n    require(\n      userStorage.getAddr(_account)!=address(0x0),\n      'Error: user doesn\\'t have account');\n    // repost meme\n    post.rememe(_account, _memeId);\n  }\n  function quoteMeme(\n    address _account,\n    string memory _postText,\n    address[] memory _tags,\n    bytes32 _parentId,\n    bytes32 _originId,\n    bytes32 _memeId\n  ) public {\n    require(\n      _account==msg.sender,\n      'Error: wrong account calling post');\n    require(\n      bytes(_postText).length > 0,\n      'Error: meme must have text');\n    require(\n      userStorage.getAddr(_account)!=address(0x0),\n      'Error: user doesn\\'t have account');\n    require(\n      memeStorage.getVisibility(_parentId),\n      'Error: parent must exist');\n    post.quoteMeme(_account, _postText, _tags, _parentId, _originId, _memeId);\n  }\n\n  function deleteMeme(\n    address _account,\n    bytes32 _memeId\n  ) public {\n    require(\n      _account==msg.sender,\n      'Error: only account can delete meme');\n    post.deleteMeme(_memeId);\n  }\n\n\n  // like functions\n  function likeMeme(\n    address _account,\n    bytes32 _memeId\n  ) public {\n     require(\n       _account!=userStorage.getAddr(_account),\n       'Error: cannot like one\\'s own meme');\n     require(\n       _account==msg.sender,\n       'Error: liker must be operating account');\n     require(\n       userStorage.getAddr(_account)!=address(0x0),\n       'Error: Meme liked must have address');\n     require(\n       memeStorage.memeCount() > 0,\n       'Error: Meme must have id');\n\n     like.likeMeme(_account, _memeId);\n  }\n\n  function followUser(\n    address _from,\n    address _to\n  ) public {\n    require(\n      _from==msg.sender,\n      'Error: follower must be operating account');\n    require(\n      _from!=_to,\n      'Error: same account');\n    require(\n      userStorage.getUserAddr(_from).length>0 &&\n      userStorage.getUserAddr(_to).length>0,\n      'Error: both follower and followee must have accounts');\n\n    follow.follow(_from, _to);\n  }\n\n  function _deleteUints(uint[] memory array, uint index) private pure returns(uint[] memory) {\n    uint[] memory _array = new uint[](array.length-1);\n    for(uint i = 0; i < index; i++) {\n      _array[i] = array[i];\n    }\n    for(uint i = index; i < _array.length; i++) {\n      _array[i] = array[i+1];\n    }\n    return _array;\n  }\n}\n",
  "sourcePath": "/Users/jaiq/Documents/000 BLOCKCHAIN/ETH/uMe/src/contracts/UserInterface.sol",
  "compiler": {
    "name": "solc",
    "version": "0.8.7+commit.e28d00a7.Emscripten.clang"
  },
  "schemaVersion": "3.4.3",
  "updatedAt": "2021-08-25T09:08:10.559Z",
  "networkType": "ethereum",
  "devdoc": {
    "kind": "dev",
    "methods": {},
    "version": 1
  },
  "userdoc": {
    "kind": "user",
    "methods": {},
    "version": 1
  }
}