{
  "contractName": "User",
  "abi": [
    {
      "inputs": [
        {
          "internalType": "contract UME",
          "name": "_umeToken",
          "type": "address"
        },
        {
          "internalType": "contract Post",
          "name": "_post",
          "type": "address"
        }
      ],
      "stateMutability": "nonpayable",
      "type": "constructor"
    },
    {
      "anonymous": false,
      "inputs": [
        {
          "indexed": false,
          "internalType": "address",
          "name": "account",
          "type": "address"
        },
        {
          "indexed": false,
          "internalType": "string",
          "name": "userAddr",
          "type": "string"
        }
      ],
      "name": "ChangedUserAddress",
      "type": "event"
    },
    {
      "anonymous": false,
      "inputs": [
        {
          "indexed": false,
          "internalType": "address",
          "name": "account",
          "type": "address"
        },
        {
          "indexed": false,
          "internalType": "string",
          "name": "userName",
          "type": "string"
        }
      ],
      "name": "ChangedUserName",
      "type": "event"
    },
    {
      "anonymous": false,
      "inputs": [
        {
          "indexed": false,
          "internalType": "address",
          "name": "account",
          "type": "address"
        },
        {
          "indexed": false,
          "internalType": "string",
          "name": "userName",
          "type": "string"
        },
        {
          "indexed": false,
          "internalType": "string",
          "name": "userAddr",
          "type": "string"
        }
      ],
      "name": "NewUser",
      "type": "event"
    },
    {
      "inputs": [],
      "name": "name",
      "outputs": [
        {
          "internalType": "string",
          "name": "",
          "type": "string"
        }
      ],
      "stateMutability": "view",
      "type": "function"
    },
    {
      "inputs": [],
      "name": "userCount",
      "outputs": [
        {
          "internalType": "uint256",
          "name": "",
          "type": "uint256"
        }
      ],
      "stateMutability": "view",
      "type": "function"
    },
    {
      "inputs": [
        {
          "internalType": "address",
          "name": "",
          "type": "address"
        }
      ],
      "name": "users",
      "outputs": [
        {
          "internalType": "uint256",
          "name": "id",
          "type": "uint256"
        },
        {
          "internalType": "string",
          "name": "name",
          "type": "string"
        },
        {
          "internalType": "string",
          "name": "userAddr",
          "type": "string"
        },
        {
          "internalType": "uint256",
          "name": "time",
          "type": "uint256"
        },
        {
          "internalType": "address",
          "name": "addr",
          "type": "address"
        },
        {
          "internalType": "uint256",
          "name": "followerCount",
          "type": "uint256"
        },
        {
          "internalType": "uint256",
          "name": "followingCount",
          "type": "uint256"
        },
        {
          "internalType": "uint256",
          "name": "postCount",
          "type": "uint256"
        }
      ],
      "stateMutability": "view",
      "type": "function"
    },
    {
      "inputs": [
        {
          "internalType": "uint256",
          "name": "",
          "type": "uint256"
        }
      ],
      "name": "usersByMeme",
      "outputs": [
        {
          "internalType": "address",
          "name": "",
          "type": "address"
        }
      ],
      "stateMutability": "view",
      "type": "function"
    },
    {
      "inputs": [
        {
          "internalType": "string",
          "name": "",
          "type": "string"
        }
      ],
      "name": "usersByUserAddr",
      "outputs": [
        {
          "internalType": "address",
          "name": "",
          "type": "address"
        }
      ],
      "stateMutability": "view",
      "type": "function"
    },
    {
      "inputs": [
        {
          "internalType": "address",
          "name": "account",
          "type": "address"
        },
        {
          "internalType": "string",
          "name": "userName",
          "type": "string"
        },
        {
          "internalType": "string",
          "name": "userAddress",
          "type": "string"
        }
      ],
      "name": "newAccount",
      "outputs": [],
      "stateMutability": "nonpayable",
      "type": "function"
    },
    {
      "inputs": [
        {
          "internalType": "address",
          "name": "account",
          "type": "address"
        },
        {
          "internalType": "string",
          "name": "userName",
          "type": "string"
        }
      ],
      "name": "changeUserName",
      "outputs": [],
      "stateMutability": "nonpayable",
      "type": "function"
    },
    {
      "inputs": [
        {
          "internalType": "address",
          "name": "account",
          "type": "address"
        },
        {
          "internalType": "string",
          "name": "userAddress",
          "type": "string"
        }
      ],
      "name": "changeUserAddress",
      "outputs": [],
      "stateMutability": "nonpayable",
      "type": "function"
    },
    {
      "inputs": [
        {
          "internalType": "address",
          "name": "account",
          "type": "address"
        },
        {
          "internalType": "string",
          "name": "postText",
          "type": "string"
        },
        {
          "internalType": "address[]",
          "name": "tags",
          "type": "address[]"
        },
        {
          "internalType": "uint256",
          "name": "parentId",
          "type": "uint256"
        },
        {
          "internalType": "uint256",
          "name": "originId",
          "type": "uint256"
        }
      ],
      "name": "newMeme",
      "outputs": [],
      "stateMutability": "nonpayable",
      "type": "function"
    },
    {
      "inputs": [
        {
          "internalType": "address",
          "name": "account",
          "type": "address"
        },
        {
          "internalType": "uint256",
          "name": "memeId",
          "type": "uint256"
        }
      ],
      "name": "deleteMeme",
      "outputs": [],
      "stateMutability": "nonpayable",
      "type": "function"
    },
    {
      "inputs": [
        {
          "internalType": "address",
          "name": "account",
          "type": "address"
        },
        {
          "internalType": "uint256",
          "name": "memeId",
          "type": "uint256"
        }
      ],
      "name": "likeMeme",
      "outputs": [],
      "stateMutability": "nonpayable",
      "type": "function"
    },
    {
      "inputs": [
        {
          "internalType": "address",
          "name": "accountFrom",
          "type": "address"
        },
        {
          "internalType": "address",
          "name": "accountTo",
          "type": "address"
        }
      ],
      "name": "follow",
      "outputs": [],
      "stateMutability": "nonpayable",
      "type": "function"
    },
    {
      "inputs": [
        {
          "internalType": "address",
          "name": "account",
          "type": "address"
        }
      ],
      "name": "getId",
      "outputs": [
        {
          "internalType": "uint256",
          "name": "",
          "type": "uint256"
        }
      ],
      "stateMutability": "view",
      "type": "function"
    },
    {
      "inputs": [
        {
          "internalType": "address",
          "name": "account",
          "type": "address"
        }
      ],
      "name": "getName",
      "outputs": [
        {
          "internalType": "string",
          "name": "",
          "type": "string"
        }
      ],
      "stateMutability": "view",
      "type": "function"
    },
    {
      "inputs": [
        {
          "internalType": "address",
          "name": "account",
          "type": "address"
        }
      ],
      "name": "getUserAddr",
      "outputs": [
        {
          "internalType": "string",
          "name": "",
          "type": "string"
        }
      ],
      "stateMutability": "view",
      "type": "function"
    },
    {
      "inputs": [
        {
          "internalType": "address",
          "name": "account",
          "type": "address"
        }
      ],
      "name": "getFollowerCount",
      "outputs": [
        {
          "internalType": "uint256",
          "name": "",
          "type": "uint256"
        }
      ],
      "stateMutability": "view",
      "type": "function"
    },
    {
      "inputs": [
        {
          "internalType": "address",
          "name": "account",
          "type": "address"
        }
      ],
      "name": "getFollowers",
      "outputs": [
        {
          "internalType": "address[]",
          "name": "",
          "type": "address[]"
        }
      ],
      "stateMutability": "view",
      "type": "function"
    },
    {
      "inputs": [
        {
          "internalType": "address",
          "name": "account",
          "type": "address"
        }
      ],
      "name": "getFollowingCount",
      "outputs": [
        {
          "internalType": "uint256",
          "name": "",
          "type": "uint256"
        }
      ],
      "stateMutability": "view",
      "type": "function"
    },
    {
      "inputs": [
        {
          "internalType": "address",
          "name": "account",
          "type": "address"
        }
      ],
      "name": "getFollowing",
      "outputs": [
        {
          "internalType": "address[]",
          "name": "",
          "type": "address[]"
        }
      ],
      "stateMutability": "view",
      "type": "function"
    },
    {
      "inputs": [
        {
          "internalType": "address",
          "name": "account",
          "type": "address"
        }
      ],
      "name": "getPostCount",
      "outputs": [
        {
          "internalType": "uint256",
          "name": "",
          "type": "uint256"
        }
      ],
      "stateMutability": "view",
      "type": "function"
    },
    {
      "inputs": [
        {
          "internalType": "address",
          "name": "account",
          "type": "address"
        }
      ],
      "name": "getPosts",
      "outputs": [
        {
          "internalType": "uint256[]",
          "name": "",
          "type": "uint256[]"
        }
      ],
      "stateMutability": "view",
      "type": "function"
    }
  ],
  "bytecode": "0x60806040526040518060400160405280600381526020017f754d650000000000000000000000000000000000000000000000000000000000815250600290805190602001906200005192919062000113565b5060006003553480156200006457600080fd5b5060405162005c0738038062005c0783398181016040528101906200008a9190620001f1565b816000806101000a81548173ffffffffffffffffffffffffffffffffffffffff021916908373ffffffffffffffffffffffffffffffffffffffff16021790555080600160006101000a81548173ffffffffffffffffffffffffffffffffffffffff021916908373ffffffffffffffffffffffffffffffffffffffff160217905550505062000332565b828054620001219062000294565b90600052602060002090601f01602090048101928262000145576000855562000191565b82601f106200016057805160ff191683800117855562000191565b8280016001018555821562000191579182015b828111156200019057825182559160200191906001019062000173565b5b509050620001a09190620001a4565b5090565b5b80821115620001bf576000816000905550600101620001a5565b5090565b600081519050620001d481620002fe565b92915050565b600081519050620001eb8162000318565b92915050565b600080604083850312156200020b576200020a620002f9565b5b60006200021b85828601620001da565b92505060206200022e85828601620001c3565b9150509250929050565b6000620002458262000274565b9050919050565b6000620002598262000238565b9050919050565b60006200026d8262000238565b9050919050565b600073ffffffffffffffffffffffffffffffffffffffff82169050919050565b60006002820490506001821680620002ad57607f821691505b60208210811415620002c457620002c3620002ca565b5b50919050565b7f4e487b7100000000000000000000000000000000000000000000000000000000600052602260045260246000fd5b600080fd5b62000309816200024c565b81146200031557600080fd5b50565b620003238162000260565b81146200032f57600080fd5b50565b6158c580620003426000396000f3fe608060405234801561001057600080fd5b50600436106101375760003560e01c80639eaa2ad2116100b8578063c2fe20221161007c578063c2fe202214610377578063c77e786e146103a7578063cb04c970146103c3578063d8236dff146103f3578063e8fc954e14610423578063fab7d5361461045357610137565b80639eaa2ad2146102a8578063a4c7fafa146102d8578063a87430ba14610308578063aa99d3581461033f578063b617e9c41461035b57610137565b80635fd4b08a116100ff5780635fd4b08a146101e057806365f68c8914610210578063848315e914610240578063966cf5961461025c57806399d147c21461028c57610137565b806306fdde031461013c57806307973ccf1461015a57806308e5c7ae1461017857806322441e16146101945780634caf9d0b146101b0575b600080fd5b610144610483565b6040516101519190614a46565b60405180910390f35b610162610511565b60405161016f9190614d68565b60405180910390f35b610192600480360381019061018d9190614117565b610517565b005b6101ae60048036038101906101a991906140bb565b611024565b005b6101ca60048036038101906101c5919061404e565b6113c3565b6040516101d79190614a24565b60405180910390f35b6101fa60048036038101906101f5919061404e565b61145d565b6040516102079190614a46565b60405180910390f35b61022a6004803603810190610225919061404e565b611531565b6040516102379190614d68565b60405180910390f35b61025a600480360381019061025591906141ca565b61157d565b005b61027660048036038101906102719190614295565b611bfb565b60405161028391906148bf565b60405180910390f35b6102a660048036038101906102a1919061407b565b611c44565b005b6102c260048036038101906102bd91906142de565b611dc6565b6040516102cf91906148bf565b60405180910390f35b6102f260048036038101906102ed919061404e565b611df9565b6040516102ff9190614d68565b60405180910390f35b610322600480360381019061031d919061404e565b611e45565b604051610336989796959493929190614d83565b60405180910390f35b610359600480360381019061035491906140bb565b611fbd565b005b61037560048036038101906103709190614255565b612215565b005b610391600480360381019061038c919061404e565b6128b2565b60405161039e9190614a02565b60405180910390f35b6103c160048036038101906103bc9190614255565b612982565b005b6103dd60048036038101906103d8919061404e565b612caa565b6040516103ea9190614d68565b60405180910390f35b61040d6004803603810190610408919061404e565b612cf6565b60405161041a9190614a02565b60405180910390f35b61043d6004803603810190610438919061404e565b612dc6565b60405161044a9190614a46565b60405180910390f35b61046d6004803603810190610468919061404e565b612e9a565b60405161047a9190614d68565b60405180910390f35b6002805461049090615071565b80601f01602080910402602001604051908101604052809291908181526020018280546104bc90615071565b80156105095780601f106104de57610100808354040283529160200191610509565b820191906000526020600020905b8154815290600101906020018083116104ec57829003601f168201915b505050505081565b60035481565b3373ffffffffffffffffffffffffffffffffffffffff168573ffffffffffffffffffffffffffffffffffffffff1614610585576040517f08c379a000000000000000000000000000000000000000000000000000000000815260040161057c90614d28565b60405180910390fd5b60008451116105c9576040517f08c379a00000000000000000000000000000000000000000000000000000000081526004016105c090614ce8565b60405180910390fd5b600073ffffffffffffffffffffffffffffffffffffffff16600460008773ffffffffffffffffffffffffffffffffffffffff1673ffffffffffffffffffffffffffffffffffffffff16815260200190815260200160002060040160009054906101000a900473ffffffffffffffffffffffffffffffffffffffff1673ffffffffffffffffffffffffffffffffffffffff16141561069b576040517f08c379a000000000000000000000000000000000000000000000000000000000815260040161069290614bc8565b60405180910390fd5b600160009054906101000a900473ffffffffffffffffffffffffffffffffffffffff1673ffffffffffffffffffffffffffffffffffffffff16637b2124d26040518163ffffffff1660e01b815260040160206040518083038186803b15801561070357600080fd5b505afa158015610717573d6000803e3d6000fd5b505050506040513d601f19601f8201168201806040525081019061073b919061430b565b821080156107e75750600160009054906101000a900473ffffffffffffffffffffffffffffffffffffffff1673ffffffffffffffffffffffffffffffffffffffff16637b2124d26040518163ffffffff1660e01b815260040160206040518083038186803b1580156107ac57600080fd5b505afa1580156107c0573d6000803e3d6000fd5b505050506040513d601f19601f820116820180604052508101906107e4919061430b565b81105b610826576040517f08c379a000000000000000000000000000000000000000000000000000000000815260040161081d90614a88565b60405180910390fd5b600160009054906101000a900473ffffffffffffffffffffffffffffffffffffffff1673ffffffffffffffffffffffffffffffffffffffff166308e5c7ae86868686866040518663ffffffff1660e01b8152600401610889959493929190614933565b600060405180830381600087803b1580156108a357600080fd5b505af11580156108b7573d6000803e3d6000fd5b505050506000600460008773ffffffffffffffffffffffffffffffffffffffff1673ffffffffffffffffffffffffffffffffffffffff168152602001908152602001600020604051806101600160405290816000820154815260200160018201805461092290615071565b80601f016020809104026020016040519081016040528092919081815260200182805461094e90615071565b801561099b5780601f106109705761010080835404028352916020019161099b565b820191906000526020600020905b81548152906001019060200180831161097e57829003601f168201915b505050505081526020016002820180546109b490615071565b80601f01602080910402602001604051908101604052809291908181526020018280546109e090615071565b8015610a2d5780601f10610a0257610100808354040283529160200191610a2d565b820191906000526020600020905b815481529060010190602001808311610a1057829003601f168201915b50505050508152602001600382015481526020016004820160009054906101000a900473ffffffffffffffffffffffffffffffffffffffff1673ffffffffffffffffffffffffffffffffffffffff1673ffffffffffffffffffffffffffffffffffffffff1681526020016005820154815260200160068201805480602002602001604051908101604052809291908181526020018280548015610b2557602002820191906000526020600020905b8160009054906101000a900473ffffffffffffffffffffffffffffffffffffffff1673ffffffffffffffffffffffffffffffffffffffff1681526020019060010190808311610adb575b505050505081526020016007820154815260200160088201805480602002602001604051908101604052809291908181526020018280548015610bbd57602002820191906000526020600020905b8160009054906101000a900473ffffffffffffffffffffffffffffffffffffffff1673ffffffffffffffffffffffffffffffffffffffff1681526020019060010190808311610b73575b5050505050815260200160098201548152602001600a8201805480602002602001604051908101604052809291908181526020018280548015610c1f57602002820191906000526020600020905b815481526020019060010190808311610c0b575b50505050508152505090506000600182610140015151610c3f9190614f3f565b67ffffffffffffffff811115610c5857610c576151aa565b5b604051908082528060200260200182016040528015610c865781602001602082028036833780820191505090505b50905060005b82610140015151811015610cec578261014001518181518110610cb257610cb161517b565b5b6020026020010151828281518110610ccd57610ccc61517b565b5b6020026020010181815250508080610ce4906150d4565b915050610c8c565b5081610120018051809190610d00906150d4565b81525050600160009054906101000a900473ffffffffffffffffffffffffffffffffffffffff1673ffffffffffffffffffffffffffffffffffffffff16637b2124d26040518163ffffffff1660e01b815260040160206040518083038186803b158015610d6c57600080fd5b505afa158015610d80573d6000803e3d6000fd5b505050506040513d601f19601f82011682018060405250810190610da4919061430b565b8160018351610db39190614f95565b81518110610dc457610dc361517b565b5b6020026020010181815250508082610140018190525081600460008973ffffffffffffffffffffffffffffffffffffffff1673ffffffffffffffffffffffffffffffffffffffff168152602001908152602001600020600082015181600001556020820151816001019080519060200190610e40929190613d87565b506040820151816002019080519060200190610e5d929190613d87565b506060820151816003015560808201518160040160006101000a81548173ffffffffffffffffffffffffffffffffffffffff021916908373ffffffffffffffffffffffffffffffffffffffff16021790555060a0820151816005015560c0820151816006019080519060200190610ed5929190613e0d565b5060e08201518160070155610100820151816008019080519060200190610efd929190613e0d565b50610120820151816009015561014082015181600a019080519060200190610f26929190613e97565b509050508660056000600160009054906101000a900473ffffffffffffffffffffffffffffffffffffffff1673ffffffffffffffffffffffffffffffffffffffff16637b2124d26040518163ffffffff1660e01b815260040160206040518083038186803b158015610f9757600080fd5b505afa158015610fab573d6000803e3d6000fd5b505050506040513d601f19601f82011682018060405250810190610fcf919061430b565b815260200190815260200160002060006101000a81548173ffffffffffffffffffffffffffffffffffffffff021916908373ffffffffffffffffffffffffffffffffffffffff16021790555050505050505050565b8173ffffffffffffffffffffffffffffffffffffffff163373ffffffffffffffffffffffffffffffffffffffff1614611092576040517f08c379a000000000000000000000000000000000000000000000000000000000815260040161108990614c48565b60405180910390fd5b7f40000000000000000000000000000000000000000000000000000000000000007effffffffffffffffffffffffffffffffffffffffffffffffffffffffffffff1916816000815181106110e9576110e861517b565b5b602001015160f81c60f81b7effffffffffffffffffffffffffffffffffffffffffffffffffffffffffffff191614611156576040517f08c379a000000000000000000000000000000000000000000000000000000000815260040161114d90614cc8565b60405180910390fd5b806040516020016111679190614891565b60405160208183030381529060405280519060200120600460008473ffffffffffffffffffffffffffffffffffffffff1673ffffffffffffffffffffffffffffffffffffffff1681526020019081526020016000206002016040516020016111cf91906148a8565b604051602081830303815290604052805190602001201415611226576040517f08c379a000000000000000000000000000000000000000000000000000000000815260040161121d90614c08565b60405180910390fd5b8173ffffffffffffffffffffffffffffffffffffffff1660068260405161124d9190614891565b908152602001604051809103902060009054906101000a900473ffffffffffffffffffffffffffffffffffffffff1673ffffffffffffffffffffffffffffffffffffffff16146112d2576040517f08c379a00000000000000000000000000000000000000000000000000000000081526004016112c990614ba8565b60405180910390fd5b80600460008473ffffffffffffffffffffffffffffffffffffffff1673ffffffffffffffffffffffffffffffffffffffff1681526020019081526020016000206002019080519060200190611328929190613d87565b508160068260405161133a9190614891565b908152602001604051809103902060006101000a81548173ffffffffffffffffffffffffffffffffffffffff021916908373ffffffffffffffffffffffffffffffffffffffff1602179055507f30b4ff36596f5049e4a3b50425a0615ea43b8beda298a3ad5a09142dbfdde8a782826040516113b7929190614903565b60405180910390a15050565b6060600460008373ffffffffffffffffffffffffffffffffffffffff1673ffffffffffffffffffffffffffffffffffffffff168152602001908152602001600020600a0180548060200260200160405190810160405280929190818152602001828054801561145157602002820191906000526020600020905b81548152602001906001019080831161143d575b50505050509050919050565b6060600460008373ffffffffffffffffffffffffffffffffffffffff1673ffffffffffffffffffffffffffffffffffffffff16815260200190815260200160002060010180546114ac90615071565b80601f01602080910402602001604051908101604052809291908181526020018280546114d890615071565b80156115255780601f106114fa57610100808354040283529160200191611525565b820191906000526020600020905b81548152906001019060200180831161150857829003601f168201915b50505050509050919050565b6000600460008373ffffffffffffffffffffffffffffffffffffffff1673ffffffffffffffffffffffffffffffffffffffff168152602001908152602001600020600001549050919050565b8273ffffffffffffffffffffffffffffffffffffffff163373ffffffffffffffffffffffffffffffffffffffff16146115eb576040517f08c379a00000000000000000000000000000000000000000000000000000000081526004016115e290614b68565b60405180910390fd5b600082511161162f576040517f08c379a000000000000000000000000000000000000000000000000000000000815260040161162690614aa8565b60405180910390fd5b7f40000000000000000000000000000000000000000000000000000000000000007effffffffffffffffffffffffffffffffffffffffffffffffffffffffffffff1916816000815181106116865761168561517b565b5b602001015160f81c60f81b7effffffffffffffffffffffffffffffffffffffffffffffffffffffffffffff1916146116f3576040517f08c379a00000000000000000000000000000000000000000000000000000000081526004016116ea90614cc8565b60405180910390fd5b6001815111611737576040517f08c379a000000000000000000000000000000000000000000000000000000000815260040161172e90614b08565b60405180910390fd5b8273ffffffffffffffffffffffffffffffffffffffff16600460008573ffffffffffffffffffffffffffffffffffffffff1673ffffffffffffffffffffffffffffffffffffffff16815260200190815260200160002060040160009054906101000a900473ffffffffffffffffffffffffffffffffffffffff1673ffffffffffffffffffffffffffffffffffffffff161415611808576040517f08c379a00000000000000000000000000000000000000000000000000000000081526004016117ff90614c28565b60405180910390fd5b600073ffffffffffffffffffffffffffffffffffffffff166006826040516118309190614891565b908152602001604051809103902060009054906101000a900473ffffffffffffffffffffffffffffffffffffffff1673ffffffffffffffffffffffffffffffffffffffff16146118b5576040517f08c379a00000000000000000000000000000000000000000000000000000000081526004016118ac90614ca8565b60405180910390fd5b600360008154809291906118c8906150d4565b919050555060405180610160016040528060035481526020018381526020018281526020014281526020018473ffffffffffffffffffffffffffffffffffffffff16815260200160008152602001600067ffffffffffffffff811115611931576119306151aa565b5b60405190808252806020026020018201604052801561195f5781602001602082028036833780820191505090505b50815260200160008152602001600067ffffffffffffffff811115611987576119866151aa565b5b6040519080825280602002602001820160405280156119b55781602001602082028036833780820191505090505b50815260200160008152602001600067ffffffffffffffff8111156119dd576119dc6151aa565b5b604051908082528060200260200182016040528015611a0b5781602001602082028036833780820191505090505b50815250600460008573ffffffffffffffffffffffffffffffffffffffff1673ffffffffffffffffffffffffffffffffffffffff168152602001908152602001600020600082015181600001556020820151816001019080519060200190611a74929190613d87565b506040820151816002019080519060200190611a91929190613d87565b506060820151816003015560808201518160040160006101000a81548173ffffffffffffffffffffffffffffffffffffffff021916908373ffffffffffffffffffffffffffffffffffffffff16021790555060a0820151816005015560c0820151816006019080519060200190611b09929190613e0d565b5060e08201518160070155610100820151816008019080519060200190611b31929190613e0d565b50610120820151816009015561014082015181600a019080519060200190611b5a929190613e97565b5090505082600682604051611b6f9190614891565b908152602001604051809103902060006101000a81548173ffffffffffffffffffffffffffffffffffffffff021916908373ffffffffffffffffffffffffffffffffffffffff1602179055507f4ddffe5495169d350d09d432b0c9ffb9156ae79ccd81b2113fca4bbea47f1bda838383604051611bee93929190614994565b60405180910390a1505050565b6006818051602081018201805184825260208301602085012081835280955050505050506000915054906101000a900473ffffffffffffffffffffffffffffffffffffffff1681565b3373ffffffffffffffffffffffffffffffffffffffff168273ffffffffffffffffffffffffffffffffffffffff1614611cb2576040517f08c379a0000000000000000000000000000000000000000000000000000000008152600401611ca990614b48565b60405180910390fd5b8073ffffffffffffffffffffffffffffffffffffffff168273ffffffffffffffffffffffffffffffffffffffff161415611d21576040517f08c379a0000000000000000000000000000000000000000000000000000000008152600401611d1890614c88565b60405180910390fd5b611d2b8282612ee6565b611d3582826135a0565b60008054906101000a900473ffffffffffffffffffffffffffffffffffffffff1673ffffffffffffffffffffffffffffffffffffffff16632d599ba583836040518363ffffffff1660e01b8152600401611d909291906148da565b600060405180830381600087803b158015611daa57600080fd5b505af1158015611dbe573d6000803e3d6000fd5b505050505050565b60056020528060005260406000206000915054906101000a900473ffffffffffffffffffffffffffffffffffffffff1681565b6000600460008373ffffffffffffffffffffffffffffffffffffffff1673ffffffffffffffffffffffffffffffffffffffff168152602001908152602001600020600901549050919050565b6004602052806000526040600020600091509050806000015490806001018054611e6e90615071565b80601f0160208091040260200160405190810160405280929190818152602001828054611e9a90615071565b8015611ee75780601f10611ebc57610100808354040283529160200191611ee7565b820191906000526020600020905b815481529060010190602001808311611eca57829003601f168201915b505050505090806002018054611efc90615071565b80601f0160208091040260200160405190810160405280929190818152602001828054611f2890615071565b8015611f755780601f10611f4a57610100808354040283529160200191611f75565b820191906000526020600020905b815481529060010190602001808311611f5857829003601f168201915b5050505050908060030154908060040160009054906101000a900473ffffffffffffffffffffffffffffffffffffffff16908060050154908060070154908060090154905088565b8173ffffffffffffffffffffffffffffffffffffffff163373ffffffffffffffffffffffffffffffffffffffff161461202b576040517f08c379a000000000000000000000000000000000000000000000000000000000815260040161202290614c48565b60405180910390fd5b8060405160200161203c9190614891565b60405160208183030381529060405280519060200120600460008473ffffffffffffffffffffffffffffffffffffffff1673ffffffffffffffffffffffffffffffffffffffff1681526020019081526020016000206001016040516020016120a491906148a8565b6040516020818303038152906040528051906020012014156120fb576040517f08c379a00000000000000000000000000000000000000000000000000000000081526004016120f290614ac8565b60405180910390fd5b6000600460008473ffffffffffffffffffffffffffffffffffffffff1673ffffffffffffffffffffffffffffffffffffffff168152602001908152602001600020600001541415612181576040517f08c379a000000000000000000000000000000000000000000000000000000000815260040161217890614b88565b60405180910390fd5b80600460008473ffffffffffffffffffffffffffffffffffffffff1673ffffffffffffffffffffffffffffffffffffffff16815260200190815260200160002060010190805190602001906121d7929190613d87565b507f9e3e86a68f2b6e39fb9ab2c9ab72aa71b7e14e98e435a75cad60b1d734b85c8b8282604051612209929190614903565b60405180910390a15050565b3373ffffffffffffffffffffffffffffffffffffffff168273ffffffffffffffffffffffffffffffffffffffff1614612283576040517f08c379a000000000000000000000000000000000000000000000000000000000815260040161227a90614d48565b60405180910390fd5b600160009054906101000a900473ffffffffffffffffffffffffffffffffffffffff1673ffffffffffffffffffffffffffffffffffffffff1663b617e9c483836040518363ffffffff1660e01b81526004016122e09291906149d9565b600060405180830381600087803b1580156122fa57600080fd5b505af115801561230e573d6000803e3d6000fd5b505050506000600460008473ffffffffffffffffffffffffffffffffffffffff1673ffffffffffffffffffffffffffffffffffffffff168152602001908152602001600020604051806101600160405290816000820154815260200160018201805461237990615071565b80601f01602080910402602001604051908101604052809291908181526020018280546123a590615071565b80156123f25780601f106123c7576101008083540402835291602001916123f2565b820191906000526020600020905b8154815290600101906020018083116123d557829003601f168201915b5050505050815260200160028201805461240b90615071565b80601f016020809104026020016040519081016040528092919081815260200182805461243790615071565b80156124845780601f1061245957610100808354040283529160200191612484565b820191906000526020600020905b81548152906001019060200180831161246757829003601f168201915b50505050508152602001600382015481526020016004820160009054906101000a900473ffffffffffffffffffffffffffffffffffffffff1673ffffffffffffffffffffffffffffffffffffffff1673ffffffffffffffffffffffffffffffffffffffff168152602001600582015481526020016006820180548060200260200160405190810160405280929190818152602001828054801561257c57602002820191906000526020600020905b8160009054906101000a900473ffffffffffffffffffffffffffffffffffffffff1673ffffffffffffffffffffffffffffffffffffffff1681526020019060010190808311612532575b50505050508152602001600782015481526020016008820180548060200260200160405190810160405280929190818152602001828054801561261457602002820191906000526020600020905b8160009054906101000a900473ffffffffffffffffffffffffffffffffffffffff1673ffffffffffffffffffffffffffffffffffffffff16815260200190600101908083116125ca575b5050505050815260200160098201548152602001600a820180548060200260200160405190810160405280929190818152602001828054801561267657602002820191906000526020600020905b815481526020019060010190808311612662575b5050505050815250509050600080600090505b826101400151518110156126d9578383610140015182815181106126b0576126af61517b565b5b602002602001015114156126c6578091506126d9565b80806126d1906150d4565b915050612689565b50816101200180518091906126ed90615047565b8152505061270082610140015182613c5f565b82610140018190525081600460008673ffffffffffffffffffffffffffffffffffffffff1673ffffffffffffffffffffffffffffffffffffffff16815260200190815260200160002060008201518160000155602082015181600101908051906020019061276f929190613d87565b50604082015181600201908051906020019061278c929190613d87565b506060820151816003015560808201518160040160006101000a81548173ffffffffffffffffffffffffffffffffffffffff021916908373ffffffffffffffffffffffffffffffffffffffff16021790555060a0820151816005015560c0820151816006019080519060200190612804929190613e0d565b5060e0820151816007015561010082015181600801908051906020019061282c929190613e0d565b50610120820151816009015561014082015181600a019080519060200190612855929190613e97565b5090505060006005600085815260200190815260200160002060006101000a81548173ffffffffffffffffffffffffffffffffffffffff021916908373ffffffffffffffffffffffffffffffffffffffff16021790555050505050565b6060600460008373ffffffffffffffffffffffffffffffffffffffff1673ffffffffffffffffffffffffffffffffffffffff16815260200190815260200160002060060180548060200260200160405190810160405280929190818152602001828054801561297657602002820191906000526020600020905b8160009054906101000a900473ffffffffffffffffffffffffffffffffffffffff1673ffffffffffffffffffffffffffffffffffffffff168152602001906001019080831161292c575b50505050509050919050565b6005600082815260200190815260200160002060009054906101000a900473ffffffffffffffffffffffffffffffffffffffff1673ffffffffffffffffffffffffffffffffffffffff168273ffffffffffffffffffffffffffffffffffffffff161415612a24576040517f08c379a0000000000000000000000000000000000000000000000000000000008152600401612a1b90614ae8565b60405180910390fd5b3373ffffffffffffffffffffffffffffffffffffffff168273ffffffffffffffffffffffffffffffffffffffff1614612a92576040517f08c379a0000000000000000000000000000000000000000000000000000000008152600401612a8990614b28565b60405180910390fd5b600073ffffffffffffffffffffffffffffffffffffffff166005600083815260200190815260200160002060009054906101000a900473ffffffffffffffffffffffffffffffffffffffff1673ffffffffffffffffffffffffffffffffffffffff161415612b35576040517f08c379a0000000000000000000000000000000000000000000000000000000008152600401612b2c90614a68565b60405180910390fd5b6000600160009054906101000a900473ffffffffffffffffffffffffffffffffffffffff1673ffffffffffffffffffffffffffffffffffffffff16637b2124d26040518163ffffffff1660e01b815260040160206040518083038186803b158015612b9f57600080fd5b505afa158015612bb3573d6000803e3d6000fd5b505050506040513d601f19601f82011682018060405250810190612bd7919061430b565b11612c17576040517f08c379a0000000000000000000000000000000000000000000000000000000008152600401612c0e90614d08565b60405180910390fd5b600160009054906101000a900473ffffffffffffffffffffffffffffffffffffffff1673ffffffffffffffffffffffffffffffffffffffff1663c77e786e83836040518363ffffffff1660e01b8152600401612c749291906149d9565b600060405180830381600087803b158015612c8e57600080fd5b505af1158015612ca2573d6000803e3d6000fd5b505050505050565b6000600460008373ffffffffffffffffffffffffffffffffffffffff1673ffffffffffffffffffffffffffffffffffffffff168152602001908152602001600020600501549050919050565b6060600460008373ffffffffffffffffffffffffffffffffffffffff1673ffffffffffffffffffffffffffffffffffffffff168152602001908152602001600020600801805480602002602001604051908101604052809291908181526020018280548015612dba57602002820191906000526020600020905b8160009054906101000a900473ffffffffffffffffffffffffffffffffffffffff1673ffffffffffffffffffffffffffffffffffffffff1681526020019060010190808311612d70575b50505050509050919050565b6060600460008373ffffffffffffffffffffffffffffffffffffffff1673ffffffffffffffffffffffffffffffffffffffff1681526020019081526020016000206002018054612e1590615071565b80601f0160208091040260200160405190810160405280929190818152602001828054612e4190615071565b8015612e8e5780601f10612e6357610100808354040283529160200191612e8e565b820191906000526020600020905b815481529060010190602001808311612e7157829003601f168201915b50505050509050919050565b6000600460008373ffffffffffffffffffffffffffffffffffffffff1673ffffffffffffffffffffffffffffffffffffffff168152602001908152602001600020600701549050919050565b6000600460008373ffffffffffffffffffffffffffffffffffffffff1673ffffffffffffffffffffffffffffffffffffffff1681526020019081526020016000206040518061016001604052908160008201548152602001600182018054612f4d90615071565b80601f0160208091040260200160405190810160405280929190818152602001828054612f7990615071565b8015612fc65780601f10612f9b57610100808354040283529160200191612fc6565b820191906000526020600020905b815481529060010190602001808311612fa957829003601f168201915b50505050508152602001600282018054612fdf90615071565b80601f016020809104026020016040519081016040528092919081815260200182805461300b90615071565b80156130585780601f1061302d57610100808354040283529160200191613058565b820191906000526020600020905b81548152906001019060200180831161303b57829003601f168201915b50505050508152602001600382015481526020016004820160009054906101000a900473ffffffffffffffffffffffffffffffffffffffff1673ffffffffffffffffffffffffffffffffffffffff1673ffffffffffffffffffffffffffffffffffffffff168152602001600582015481526020016006820180548060200260200160405190810160405280929190818152602001828054801561315057602002820191906000526020600020905b8160009054906101000a900473ffffffffffffffffffffffffffffffffffffffff1673ffffffffffffffffffffffffffffffffffffffff1681526020019060010190808311613106575b5050505050815260200160078201548152602001600882018054806020026020016040519081016040528092919081815260200182805480156131e857602002820191906000526020600020905b8160009054906101000a900473ffffffffffffffffffffffffffffffffffffffff1673ffffffffffffffffffffffffffffffffffffffff168152602001906001019080831161319e575b5050505050815260200160098201548152602001600a820180548060200260200160405190810160405280929190818152602001828054801561324a57602002820191906000526020600020905b815481526020019060010190808311613236575b50505050508152505090508060a0018051809190613267906150d4565b81525050600060018260c001515161327f9190614f3f565b67ffffffffffffffff811115613298576132976151aa565b5b6040519080825280602002602001820160405280156132c65781602001602082028036833780820191505090505b50905060005b8260c00151518110156133e5578473ffffffffffffffffffffffffffffffffffffffff168360c0015182815181106133075761330661517b565b5b602002602001015173ffffffffffffffffffffffffffffffffffffffff161415613366576040517f08c379a000000000000000000000000000000000000000000000000000000000815260040161335d90614be8565b60405180910390fd5b8260c00151818151811061337d5761337c61517b565b5b60200260200101518282815181106133985761339761517b565b5b602002602001019073ffffffffffffffffffffffffffffffffffffffff16908173ffffffffffffffffffffffffffffffffffffffff168152505080806133dd906150d4565b9150506132cc565b508381600183516133f69190614f95565b815181106134075761340661517b565b5b602002602001019073ffffffffffffffffffffffffffffffffffffffff16908173ffffffffffffffffffffffffffffffffffffffff1681525050808260c0018190525081600460008573ffffffffffffffffffffffffffffffffffffffff1673ffffffffffffffffffffffffffffffffffffffff1681526020019081526020016000206000820151816000015560208201518160010190805190602001906134b0929190613d87565b5060408201518160020190805190602001906134cd929190613d87565b506060820151816003015560808201518160040160006101000a81548173ffffffffffffffffffffffffffffffffffffffff021916908373ffffffffffffffffffffffffffffffffffffffff16021790555060a0820151816005015560c0820151816006019080519060200190613545929190613e0d565b5060e0820151816007015561010082015181600801908051906020019061356d929190613e0d565b50610120820151816009015561014082015181600a019080519060200190613596929190613e97565b5090505050505050565b6000600460008473ffffffffffffffffffffffffffffffffffffffff1673ffffffffffffffffffffffffffffffffffffffff168152602001908152602001600020604051806101600160405290816000820154815260200160018201805461360790615071565b80601f016020809104026020016040519081016040528092919081815260200182805461363390615071565b80156136805780601f1061365557610100808354040283529160200191613680565b820191906000526020600020905b81548152906001019060200180831161366357829003601f168201915b5050505050815260200160028201805461369990615071565b80601f01602080910402602001604051908101604052809291908181526020018280546136c590615071565b80156137125780601f106136e757610100808354040283529160200191613712565b820191906000526020600020905b8154815290600101906020018083116136f557829003601f168201915b50505050508152602001600382015481526020016004820160009054906101000a900473ffffffffffffffffffffffffffffffffffffffff1673ffffffffffffffffffffffffffffffffffffffff1673ffffffffffffffffffffffffffffffffffffffff168152602001600582015481526020016006820180548060200260200160405190810160405280929190818152602001828054801561380a57602002820191906000526020600020905b8160009054906101000a900473ffffffffffffffffffffffffffffffffffffffff1673ffffffffffffffffffffffffffffffffffffffff16815260200190600101908083116137c0575b5050505050815260200160078201548152602001600882018054806020026020016040519081016040528092919081815260200182805480156138a257602002820191906000526020600020905b8160009054906101000a900473ffffffffffffffffffffffffffffffffffffffff1673ffffffffffffffffffffffffffffffffffffffff1681526020019060010190808311613858575b5050505050815260200160098201548152602001600a820180548060200260200160405190810160405280929190818152602001828054801561390457602002820191906000526020600020905b8154815260200190600101908083116138f0575b50505050508152505090508060e0018051809190613921906150d4565b81525050600060018261010001515161393a9190614f3f565b67ffffffffffffffff811115613953576139526151aa565b5b6040519080825280602002602001820160405280156139815781602001602082028036833780820191505090505b50905060005b82610100015151811015613aa3578473ffffffffffffffffffffffffffffffffffffffff1683610100015182815181106139c4576139c361517b565b5b602002602001015173ffffffffffffffffffffffffffffffffffffffff161415613a23576040517f08c379a0000000000000000000000000000000000000000000000000000000008152600401613a1a90614c68565b60405180910390fd5b8261010001518181518110613a3b57613a3a61517b565b5b6020026020010151828281518110613a5657613a5561517b565b5b602002602001019073ffffffffffffffffffffffffffffffffffffffff16908173ffffffffffffffffffffffffffffffffffffffff16815250508080613a9b906150d4565b915050613987565b50828160018351613ab49190614f95565b81518110613ac557613ac461517b565b5b602002602001019073ffffffffffffffffffffffffffffffffffffffff16908173ffffffffffffffffffffffffffffffffffffffff16815250508082610100018190525081600460008673ffffffffffffffffffffffffffffffffffffffff1673ffffffffffffffffffffffffffffffffffffffff168152602001908152602001600020600082015181600001556020820151816001019080519060200190613b6f929190613d87565b506040820151816002019080519060200190613b8c929190613d87565b506060820151816003015560808201518160040160006101000a81548173ffffffffffffffffffffffffffffffffffffffff021916908373ffffffffffffffffffffffffffffffffffffffff16021790555060a0820151816005015560c0820151816006019080519060200190613c04929190613e0d565b5060e08201518160070155610100820151816008019080519060200190613c2c929190613e0d565b50610120820151816009015561014082015181600a019080519060200190613c55929190613e97565b5090505050505050565b6060600060018451613c719190614f95565b67ffffffffffffffff811115613c8a57613c896151aa565b5b604051908082528060200260200182016040528015613cb85781602001602082028036833780820191505090505b50905060005b83811015613d1357848181518110613cd957613cd861517b565b5b6020026020010151828281518110613cf457613cf361517b565b5b6020026020010181815250508080613d0b906150d4565b915050613cbe565b5060008390505b8151811015613d7c5784600182613d319190614f3f565b81518110613d4257613d4161517b565b5b6020026020010151828281518110613d5d57613d5c61517b565b5b6020026020010181815250508080613d74906150d4565b915050613d1a565b508091505092915050565b828054613d9390615071565b90600052602060002090601f016020900481019282613db55760008555613dfc565b82601f10613dce57805160ff1916838001178555613dfc565b82800160010185558215613dfc579182015b82811115613dfb578251825591602001919060010190613de0565b5b509050613e099190613ee4565b5090565b828054828255906000526020600020908101928215613e86579160200282015b82811115613e855782518260006101000a81548173ffffffffffffffffffffffffffffffffffffffff021916908373ffffffffffffffffffffffffffffffffffffffff16021790555091602001919060010190613e2d565b5b509050613e939190613ee4565b5090565b828054828255906000526020600020908101928215613ed3579160200282015b82811115613ed2578251825591602001919060010190613eb7565b5b509050613ee09190613ee4565b5090565b5b80821115613efd576000816000905550600101613ee5565b5090565b6000613f14613f0f84614e34565b614e0f565b90508083825260208201905082856020860282011115613f3757613f366151de565b5b60005b85811015613f675781613f4d8882613fb3565b845260208401935060208301925050600181019050613f3a565b5050509392505050565b6000613f84613f7f84614e60565b614e0f565b905082815260208101848484011115613fa057613f9f6151e3565b5b613fab848285615005565b509392505050565b600081359050613fc281615861565b92915050565b600082601f830112613fdd57613fdc6151d9565b5b8135613fed848260208601613f01565b91505092915050565b600082601f83011261400b5761400a6151d9565b5b813561401b848260208601613f71565b91505092915050565b60008135905061403381615878565b92915050565b60008151905061404881615878565b92915050565b600060208284031215614064576140636151ed565b5b600061407284828501613fb3565b91505092915050565b60008060408385031215614092576140916151ed565b5b60006140a085828601613fb3565b92505060206140b185828601613fb3565b9150509250929050565b600080604083850312156140d2576140d16151ed565b5b60006140e085828601613fb3565b925050602083013567ffffffffffffffff811115614101576141006151e8565b5b61410d85828601613ff6565b9150509250929050565b600080600080600060a08688031215614133576141326151ed565b5b600061414188828901613fb3565b955050602086013567ffffffffffffffff811115614162576141616151e8565b5b61416e88828901613ff6565b945050604086013567ffffffffffffffff81111561418f5761418e6151e8565b5b61419b88828901613fc8565b93505060606141ac88828901614024565b92505060806141bd88828901614024565b9150509295509295909350565b6000806000606084860312156141e3576141e26151ed565b5b60006141f186828701613fb3565b935050602084013567ffffffffffffffff811115614212576142116151e8565b5b61421e86828701613ff6565b925050604084013567ffffffffffffffff81111561423f5761423e6151e8565b5b61424b86828701613ff6565b9150509250925092565b6000806040838503121561426c5761426b6151ed565b5b600061427a85828601613fb3565b925050602061428b85828601614024565b9150509250929050565b6000602082840312156142ab576142aa6151ed565b5b600082013567ffffffffffffffff8111156142c9576142c86151e8565b5b6142d584828501613ff6565b91505092915050565b6000602082840312156142f4576142f36151ed565b5b600061430284828501614024565b91505092915050565b600060208284031215614321576143206151ed565b5b600061432f84828501614039565b91505092915050565b60006143448383614368565b60208301905092915050565b600061435c8383614873565b60208301905092915050565b61437181614fc9565b82525050565b61438081614fc9565b82525050565b600061439182614ec6565b61439b8185614f01565b93506143a683614e91565b8060005b838110156143d75781516143be8882614338565b97506143c983614ee7565b9250506001810190506143aa565b5085935050505092915050565b60006143ef82614ed1565b6143f98185614f12565b935061440483614ea1565b8060005b8381101561443557815161441c8882614350565b975061442783614ef4565b925050600181019050614408565b5085935050505092915050565b600061444d82614edc565b6144578185614f23565b9350614467818560208601615014565b614470816151f2565b840191505092915050565b600061448682614edc565b6144908185614f34565b93506144a0818560208601615014565b80840191505092915050565b600081546144b981615071565b6144c38186614f34565b945060018216600081146144de57600181146144ef57614522565b60ff19831686528186019350614522565b6144f885614eb1565b60005b8381101561451a578154818901526001820191506020810190506144fb565b838801955050505b50505092915050565b6000614538602383614f23565b915061454382615203565b604082019050919050565b600061455b601f83614f23565b915061456682615252565b602082019050919050565b600061457e602483614f23565b91506145898261527b565b604082019050919050565b60006145a1602183614f23565b91506145ac826152ca565b604082019050919050565b60006145c4602183614f23565b91506145cf82615319565b604082019050919050565b60006145e7602783614f23565b91506145f282615368565b604082019050919050565b600061460a602683614f23565b9150614615826153b7565b604082019050919050565b600061462d602983614f23565b915061463882615406565b604082019050919050565b6000614650602683614f23565b915061465b82615455565b604082019050919050565b6000614673602483614f23565b915061467e826154a4565b604082019050919050565b6000614696603183614f23565b91506146a1826154f3565b604082019050919050565b60006146b9602083614f23565b91506146c482615542565b602082019050919050565b60006146dc602183614f23565b91506146e78261556b565b604082019050919050565b60006146ff602583614f23565b915061470a826155ba565b604082019050919050565b6000614722601d83614f23565b915061472d82615609565b602082019050919050565b6000614745602583614f23565b915061475082615632565b604082019050919050565b6000614768602083614f23565b915061477382615681565b602082019050919050565b600061478b601383614f23565b9150614796826156aa565b602082019050919050565b60006147ae602283614f23565b91506147b9826156d3565b604082019050919050565b60006147d1602a83614f23565b91506147dc82615722565b604082019050919050565b60006147f4601a83614f23565b91506147ff82615771565b602082019050919050565b6000614817601883614f23565b91506148228261579a565b602082019050919050565b600061483a602183614f23565b9150614845826157c3565b604082019050919050565b600061485d602583614f23565b915061486882615812565b604082019050919050565b61487c81614ffb565b82525050565b61488b81614ffb565b82525050565b600061489d828461447b565b915081905092915050565b60006148b482846144ac565b915081905092915050565b60006020820190506148d46000830184614377565b92915050565b60006040820190506148ef6000830185614377565b6148fc6020830184614377565b9392505050565b60006040820190506149186000830185614377565b818103602083015261492a8184614442565b90509392505050565b600060a0820190506149486000830188614377565b818103602083015261495a8187614442565b9050818103604083015261496e8186614386565b905061497d6060830185614882565b61498a6080830184614882565b9695505050505050565b60006060820190506149a96000830186614377565b81810360208301526149bb8185614442565b905081810360408301526149cf8184614442565b9050949350505050565b60006040820190506149ee6000830185614377565b6149fb6020830184614882565b9392505050565b60006020820190508181036000830152614a1c8184614386565b905092915050565b60006020820190508181036000830152614a3e81846143e4565b905092915050565b60006020820190508181036000830152614a608184614442565b905092915050565b60006020820190508181036000830152614a818161452b565b9050919050565b60006020820190508181036000830152614aa18161454e565b9050919050565b60006020820190508181036000830152614ac181614571565b9050919050565b60006020820190508181036000830152614ae181614594565b9050919050565b60006020820190508181036000830152614b01816145b7565b9050919050565b60006020820190508181036000830152614b21816145da565b9050919050565b60006020820190508181036000830152614b41816145fd565b9050919050565b60006020820190508181036000830152614b6181614620565b9050919050565b60006020820190508181036000830152614b8181614643565b9050919050565b60006020820190508181036000830152614ba181614666565b9050919050565b60006020820190508181036000830152614bc181614689565b9050919050565b60006020820190508181036000830152614be1816146ac565b9050919050565b60006020820190508181036000830152614c01816146cf565b9050919050565b60006020820190508181036000830152614c21816146f2565b9050919050565b60006020820190508181036000830152614c4181614715565b9050919050565b60006020820190508181036000830152614c6181614738565b9050919050565b60006020820190508181036000830152614c818161475b565b9050919050565b60006020820190508181036000830152614ca18161477e565b9050919050565b60006020820190508181036000830152614cc1816147a1565b9050919050565b60006020820190508181036000830152614ce1816147c4565b9050919050565b60006020820190508181036000830152614d01816147e7565b9050919050565b60006020820190508181036000830152614d218161480a565b9050919050565b60006020820190508181036000830152614d418161482d565b9050919050565b60006020820190508181036000830152614d6181614850565b9050919050565b6000602082019050614d7d6000830184614882565b92915050565b600061010082019050614d99600083018b614882565b8181036020830152614dab818a614442565b90508181036040830152614dbf8189614442565b9050614dce6060830188614882565b614ddb6080830187614377565b614de860a0830186614882565b614df560c0830185614882565b614e0260e0830184614882565b9998505050505050505050565b6000614e19614e2a565b9050614e2582826150a3565b919050565b6000604051905090565b600067ffffffffffffffff821115614e4f57614e4e6151aa565b5b602082029050602081019050919050565b600067ffffffffffffffff821115614e7b57614e7a6151aa565b5b614e84826151f2565b9050602081019050919050565b6000819050602082019050919050565b6000819050602082019050919050565b60008190508160005260206000209050919050565b600081519050919050565b600081519050919050565b600081519050919050565b6000602082019050919050565b6000602082019050919050565b600082825260208201905092915050565b600082825260208201905092915050565b600082825260208201905092915050565b600081905092915050565b6000614f4a82614ffb565b9150614f5583614ffb565b9250827fffffffffffffffffffffffffffffffffffffffffffffffffffffffffffffffff03821115614f8a57614f8961511d565b5b828201905092915050565b6000614fa082614ffb565b9150614fab83614ffb565b925082821015614fbe57614fbd61511d565b5b828203905092915050565b6000614fd482614fdb565b9050919050565b600073ffffffffffffffffffffffffffffffffffffffff82169050919050565b6000819050919050565b82818337600083830152505050565b60005b83811015615032578082015181840152602081019050615017565b83811115615041576000848401525b50505050565b600061505282614ffb565b915060008214156150665761506561511d565b5b600182039050919050565b6000600282049050600182168061508957607f821691505b6020821081141561509d5761509c61514c565b5b50919050565b6150ac826151f2565b810181811067ffffffffffffffff821117156150cb576150ca6151aa565b5b80604052505050565b60006150df82614ffb565b91507fffffffffffffffffffffffffffffffffffffffffffffffffffffffffffffffff8214156151125761511161511d565b5b600182019050919050565b7f4e487b7100000000000000000000000000000000000000000000000000000000600052601160045260246000fd5b7f4e487b7100000000000000000000000000000000000000000000000000000000600052602260045260246000fd5b7f4e487b7100000000000000000000000000000000000000000000000000000000600052603260045260246000fd5b7f4e487b7100000000000000000000000000000000000000000000000000000000600052604160045260246000fd5b600080fd5b600080fd5b600080fd5b600080fd5b600080fd5b6000601f19601f8301169050919050565b7f4572726f723a204d656d65206c696b6564206d7573742068617665206164647260008201527f6573730000000000000000000000000000000000000000000000000000000000602082015250565b7f4572726f723a20706172656e74266f726967696e206d75737420657869737400600082015250565b7f4572726f723a20757365724e616d65206d75737420686176652063686172616360008201527f7465727300000000000000000000000000000000000000000000000000000000602082015250565b7f4572726f723a206d75737420626520646966666572656e7420757365726e616d60008201527f6500000000000000000000000000000000000000000000000000000000000000602082015250565b7f4572726f723a2063616e6e6f74206c696b65206f6e652773206f776e206d656d60008201527f6500000000000000000000000000000000000000000000000000000000000000602082015250565b7f4572726f723a207573657241646472657373206d75737420686176652063686160008201527f7261637465727300000000000000000000000000000000000000000000000000602082015250565b7f4572726f723a206c696b6572206d757374206265206f7065726174696e67206160008201527f63636f756e740000000000000000000000000000000000000000000000000000602082015250565b7f4572726f723a20666f6c6c6f776572206d757374206265206f7065726174696e60008201527f67206163636f756e740000000000000000000000000000000000000000000000602082015250565b7f4572726f723a206163636f756e74206d757374206265206163636f756e74206360008201527f726561746f720000000000000000000000000000000000000000000000000000602082015250565b7f4572726f723a206d757374206861766520616e206578697374696e672061636360008201527f6f756e7400000000000000000000000000000000000000000000000000000000602082015250565b7f4572726f723a20757365722061646472657373206d757374206578697374206160008201527f742063757272656e742061646472657373000000000000000000000000000000602082015250565b7f4572726f723a207573657220646f65736e27742068617665206163636f756e74600082015250565b7f4572726f723a206163636f756e7420616c7265616479206120666f6c6c6f776560008201527f7200000000000000000000000000000000000000000000000000000000000000602082015250565b7f4572726f723a206d75737420626520646966666572656e74207573657220616460008201527f6472657373000000000000000000000000000000000000000000000000000000602082015250565b7f4572726f723a206163636f756e7420616c726561647920657869737473000000600082015250565b7f4572726f723a206f70657261746f72206d757374206265206163636f756e742060008201527f6f776e6572000000000000000000000000000000000000000000000000000000602082015250565b7f4572726f723a206163636f756e7420616c726561647920666f6c6c6f77696e67600082015250565b7f4572726f723a2073616d65206163636f756e7400000000000000000000000000600082015250565b7f4572726f723a2075736572206164647265737320616c7265616479206578697360008201527f7473000000000000000000000000000000000000000000000000000000000000602082015250565b7f4572726f723a20666972737420656c656d656e74206f6620737472696e67206d60008201527f7573742062652022402200000000000000000000000000000000000000000000602082015250565b7f4572726f723a206d656d65206d75737420686176652074657874000000000000600082015250565b7f4572726f723a204d656d65206d75737420686176652069640000000000000000600082015250565b7f4572726f723a2077726f6e67206163636f756e742063616c6c696e6720706f7360008201527f7400000000000000000000000000000000000000000000000000000000000000602082015250565b7f526571756972653a206f6e6c79206163636f756e742063616e2064656c65746560008201527f206d656d65000000000000000000000000000000000000000000000000000000602082015250565b61586a81614fc9565b811461587557600080fd5b50565b61588181614ffb565b811461588c57600080fd5b5056fea2646970667358221220f6b470335b6a3c9021c1877debcec69a6ab58bdf9f05fd454aa618343d54e74b64736f6c63430008070033",
  "immutableReferences": {},
  "source": "// SPDX-License-Identifier: MIT\n\npragma solidity >=0.8.0 <0.9.0;\n\nimport \"./UME.sol\";\nimport \"./Post.sol\";\n\ncontract User {\n\n  UME private umeToken;\n  Post private post;\n\n  string public name = \"uMe\";\n  uint public userCount = 0;\n\n  mapping(address => User) public users; // address to Users map\n  mapping(uint => address) public usersByMeme; // memeId to account addresses\n  mapping(string => address) public usersByUserAddr; // userAddr to account address\n\n  event NewUser(address account, string userName, string userAddr);\n  event ChangedUserName(address account, string userName);\n  event ChangedUserAddress(address account, string userAddr);\n\n  struct User {\n    uint id; // user number in order\n    string name; // user name\n    string userAddr; // user address (@)\n    uint time; // user creation time\n    address addr; // address of user\n    uint followerCount; // user follower count\n    address[] followers; // addresses of followers\n    uint followingCount; // user following count\n    address[] following; // addressses of following\n    uint postCount; // post count\n    uint[] posts; // memeIds of posts\n  }\n\n  constructor(UME _umeToken, Post _post) public {\n    umeToken = _umeToken;\n    post = _post;\n  }\n\n  function newAccount(address account, string memory userName, string memory userAddress) public {\n    require(msg.sender==account, 'Error: account must be account creator');\n    require(bytes(userName).length > 0, 'Error: userName must have characters');\n    require(bytes(userAddress)[0]==bytes1('@'), 'Error: first element of string must be \"@\"');\n    require(bytes(userAddress).length > 1, 'Error: userAddress must have characters');\n    require(users[account].addr!=account, 'Error: account already exists');\n    require(usersByUserAddr[userAddress]==address(0x0), 'Error: user address already exists');\n\n    userCount++;\n    // set user to account address\n    users[account] = User(\n      userCount, // user id\n      userName, // user name\n      userAddress, // user address\n      block.timestamp, // user creation time\n      account, // address of user\n      0, // follower count\n      new address[](0), // addresses of followers\n      0, // following count\n      new address[](0), // addresses of following\n      0, // post count\n      new uint[](0) // memeIds of posts\n    );\n    // set new account's user address to account address\n    usersByUserAddr[userAddress] = account;\n    emit NewUser(account, userName, userAddress);\n  }\n  function changeUserName(address account, string memory userName) public {\n    require(msg.sender==account, 'Error: operator must be account owner');\n    require(keccak256(abi.encodePacked(users[account].name))!=keccak256(abi.encodePacked(userName)), 'Error: must be different username');\n    require(users[account].id!=0, 'Error: must have an existing account');\n    users[account].name = userName;\n    emit ChangedUserName(account, userName);\n  }\n  function changeUserAddress(address account, string memory userAddress) public {\n    require(msg.sender==account, 'Error: operator must be account owner');\n    require(bytes(userAddress)[0]==bytes1('@'), 'Error: first element of string must be \"@\"');\n    require(keccak256(abi.encodePacked(users[account].userAddr))!=keccak256(abi.encodePacked(userAddress)), 'Error: must be different user address');\n    require(usersByUserAddr[userAddress]==account, 'Error: user address must exist at current address');\n    users[account].userAddr = userAddress;\n    usersByUserAddr[userAddress] = account;\n    emit ChangedUserAddress(account, userAddress);\n  }\n\n\n  function newMeme(address account, string memory postText, address[] memory tags, uint parentId, uint originId) public {\n    require(account==msg.sender, 'Error: wrong account calling post');\n    require(bytes(postText).length > 0, 'Error: meme must have text');\n    require(users[account].addr!=address(0x0), 'Error: user doesn\\'t have account');\n    require(parentId<post.memeCount() && originId<post.memeCount(), 'Error: parent&origin must exist');\n    // post new meme\n    post.newMeme(account, postText, tags, parentId, originId);\n    // set meme to user address\n    User memory _user = users[account];\n    // create memory array with length one greater than _user.posts length\n    uint[] memory _posts = new uint[](_user.posts.length+1);\n    // populate memory array\n    for(uint i = 0; i < _user.posts.length; i++) {\n      _posts[i] = _user.posts[i];\n    }\n    // increment postCount\n    _user.postCount++;\n    // insert new post in last slot of array\n    _posts[_posts.length-1] = post.memeCount();\n    // set posts of _user instance to _posts\n    _user.posts = _posts;\n    users[account] = _user;\n    usersByMeme[post.memeCount()] = account;\n  }\n  function deleteMeme(address account, uint memeId) public {\n    require(account==msg.sender, 'Require: only account can delete meme');\n    post.deleteMeme(account, memeId);\n    User memory _user = users[account];\n     uint memeIndex;\n     for(uint i = 0; i < _user.posts.length; i++) {\n       if(_user.posts[i]==memeId) {\n         memeIndex = i;\n         break;\n       }\n     }\n     _user.postCount--;\n     _user.posts = _deleteUints(_user.posts, memeIndex);\n     users[account] = _user;\n     // clears mapping of deleted meme, reroutes to 0x0 address instead of deleter\n     usersByMeme[memeId] = address(0x0);\n  }\n\n\n  // like functions\n  function likeMeme(address account, uint memeId) public {\n     require(account!=usersByMeme[memeId], 'Error: cannot like one\\'s own meme');\n     require(account==msg.sender, 'Error: liker must be operating account');\n     require(usersByMeme[memeId]!=address(0x0), 'Error: Meme liked must have address');\n     require(post.memeCount() > 0, 'Error: Meme must have id');\n\n     post.likeMeme(account, memeId);\n   }\n\n  function follow(address accountFrom, address accountTo) public {\n    require(accountFrom==msg.sender, 'Error: follower must be operating account');\n    require(accountFrom!=accountTo, 'Error: same account');\n\n    _addFollower(accountFrom, accountTo);\n    _addFollowing(accountFrom, accountTo);\n    umeToken.mintFollow(accountFrom, accountTo);\n  }\n  function _addFollower(address accountFrom, address accountTo) private {\n    User memory _userTo = users[accountTo];\n    // incrememnt _userTo instance's followerCount\n    _userTo.followerCount++;\n    // create new memory instance of an array one larger than current follower count\n    address[] memory _followers = new address[](_userTo.followers.length+1);\n    for (uint i = 0; i < _userTo.followers.length; i++) {\n      require(_userTo.followers[i]!=accountFrom, 'Error: account already a follower');\n      _followers[i] = _userTo.followers[i];\n    }\n    // set last element in new array to accountFrom\n    _followers[_followers.length-1] = accountFrom;\n    _userTo.followers = _followers;\n    // update instance to blockchain\n    users[accountTo] = _userTo;\n  }\n  function _addFollowing(address accountFrom, address accountTo) private {\n    User memory _userFrom = users[accountFrom];\n    // incrememnt _userTo instance's followerCount\n    _userFrom.followingCount++;\n    // create new memory instance of an array one larger than current follower count\n    address[] memory _following = new address[](_userFrom.following.length+1);\n    for (uint i = 0; i < _userFrom.following.length; i++) {\n      require(_userFrom.following[i]!=accountFrom, 'Error: account already following');\n      _following[i] = _userFrom.following[i];\n    }\n    // set last element in new array to accountTo\n    _following[_following.length-1] = accountTo;\n    _userFrom.following  = _following;\n    // update instance to blockchain\n    users[accountFrom] = _userFrom;\n  }\n\n  // getter functions for User\n  function getId(address account) public view returns(uint) {\n    return users[account].id;\n  }\n  function getName(address account) public view returns(string memory) {\n    return users[account].name;\n  }\n  function getUserAddr(address account) public view returns(string memory) {\n    return users[account].userAddr;\n  }\n  function getFollowerCount(address account) public view returns(uint) {\n    return users[account].followerCount;\n  }\n  function getFollowers(address account) public view returns(address[] memory) {\n    return users[account].followers;\n  }\n  function getFollowingCount(address account) public view returns(uint) {\n    return users[account].followingCount;\n  }\n  function getFollowing(address account) public view returns(address[] memory) {\n    return users[account].following;\n  }\n  function getPostCount(address account) public view returns (uint) {\n    return users[account].postCount;\n  }\n  function getPosts(address account) public view returns (uint[] memory) {\n    return users[account].posts;\n  }\n  function _deleteUints(uint[] memory array, uint index) private returns(uint[] memory) {\n    uint[] memory _array = new uint[](array.length-1);\n    for(uint i = 0; i < index; i++) {\n      _array[i] = array[i];\n    }\n    for(uint i = index; i < _array.length; i++) {\n      _array[i] = array[i+1];\n    }\n    return _array;\n  }\n}\n",
  "sourcePath": "/Users/jaiq/Documents/000 BLOCKCHAIN/ETH/uMe/src/contracts/User.sol",
  "compiler": {
    "name": "solc",
    "version": "0.8.7+commit.e28d00a7.Emscripten.clang"
  },
  "schemaVersion": "3.4.3",
  "updatedAt": "2021-08-23T01:46:40.753Z",
  "devdoc": {
    "kind": "dev",
    "methods": {},
    "version": 1
  },
  "userdoc": {
    "kind": "user",
    "methods": {},
    "version": 1
  }
}