{
  "contractName": "UserStorage",
  "abi": [
    {
      "inputs": [],
      "stateMutability": "nonpayable",
      "type": "constructor"
    },
    {
      "anonymous": false,
      "inputs": [
        {
          "indexed": true,
          "internalType": "address",
          "name": "from",
          "type": "address"
        },
        {
          "indexed": true,
          "internalType": "address",
          "name": "to",
          "type": "address"
        }
      ],
      "name": "FactorySignerChanged",
      "type": "event"
    },
    {
      "anonymous": false,
      "inputs": [
        {
          "indexed": true,
          "internalType": "address",
          "name": "from",
          "type": "address"
        },
        {
          "indexed": true,
          "internalType": "address",
          "name": "to",
          "type": "address"
        }
      ],
      "name": "FollowSignerChanged",
      "type": "event"
    },
    {
      "anonymous": false,
      "inputs": [
        {
          "indexed": true,
          "internalType": "address",
          "name": "from",
          "type": "address"
        },
        {
          "indexed": true,
          "internalType": "address",
          "name": "to",
          "type": "address"
        }
      ],
      "name": "InterfaceSignerChanged",
      "type": "event"
    },
    {
      "anonymous": false,
      "inputs": [
        {
          "indexed": true,
          "internalType": "address",
          "name": "from",
          "type": "address"
        },
        {
          "indexed": true,
          "internalType": "address",
          "name": "to",
          "type": "address"
        }
      ],
      "name": "LikeSignerChanged",
      "type": "event"
    },
    {
      "anonymous": false,
      "inputs": [
        {
          "indexed": true,
          "internalType": "address",
          "name": "from",
          "type": "address"
        },
        {
          "indexed": true,
          "internalType": "address",
          "name": "to",
          "type": "address"
        }
      ],
      "name": "PostSignerChanged",
      "type": "event"
    },
    {
      "inputs": [],
      "name": "factorySigner",
      "outputs": [
        {
          "internalType": "address",
          "name": "",
          "type": "address"
        }
      ],
      "stateMutability": "view",
      "type": "function",
      "constant": true
    },
    {
      "inputs": [],
      "name": "followSigner",
      "outputs": [
        {
          "internalType": "address",
          "name": "",
          "type": "address"
        }
      ],
      "stateMutability": "view",
      "type": "function",
      "constant": true
    },
    {
      "inputs": [],
      "name": "interfaceSigner",
      "outputs": [
        {
          "internalType": "address",
          "name": "",
          "type": "address"
        }
      ],
      "stateMutability": "view",
      "type": "function",
      "constant": true
    },
    {
      "inputs": [],
      "name": "likeSigner",
      "outputs": [
        {
          "internalType": "address",
          "name": "",
          "type": "address"
        }
      ],
      "stateMutability": "view",
      "type": "function",
      "constant": true
    },
    {
      "inputs": [],
      "name": "memeFactorySigner",
      "outputs": [
        {
          "internalType": "address",
          "name": "",
          "type": "address"
        }
      ],
      "stateMutability": "view",
      "type": "function",
      "constant": true
    },
    {
      "inputs": [],
      "name": "userCount",
      "outputs": [
        {
          "internalType": "uint256",
          "name": "",
          "type": "uint256"
        }
      ],
      "stateMutability": "view",
      "type": "function",
      "constant": true
    },
    {
      "inputs": [
        {
          "internalType": "address",
          "name": "",
          "type": "address"
        }
      ],
      "name": "users",
      "outputs": [
        {
          "internalType": "bytes32",
          "name": "id",
          "type": "bytes32"
        },
        {
          "internalType": "bytes32",
          "name": "name",
          "type": "bytes32"
        },
        {
          "internalType": "bytes32",
          "name": "userAddr",
          "type": "bytes32"
        },
        {
          "internalType": "uint256",
          "name": "time",
          "type": "uint256"
        },
        {
          "internalType": "address",
          "name": "addr",
          "type": "address"
        }
      ],
      "stateMutability": "view",
      "type": "function",
      "constant": true
    },
    {
      "inputs": [
        {
          "internalType": "bytes32",
          "name": "",
          "type": "bytes32"
        }
      ],
      "name": "usersByMeme",
      "outputs": [
        {
          "internalType": "address",
          "name": "",
          "type": "address"
        }
      ],
      "stateMutability": "view",
      "type": "function",
      "constant": true
    },
    {
      "inputs": [
        {
          "internalType": "bytes32",
          "name": "",
          "type": "bytes32"
        }
      ],
      "name": "usersByUserAddr",
      "outputs": [
        {
          "internalType": "address",
          "name": "",
          "type": "address"
        }
      ],
      "stateMutability": "view",
      "type": "function",
      "constant": true
    },
    {
      "inputs": [
        {
          "internalType": "bytes32",
          "name": "_id",
          "type": "bytes32"
        },
        {
          "internalType": "bytes32",
          "name": "_name",
          "type": "bytes32"
        },
        {
          "internalType": "bytes32",
          "name": "_userAddr",
          "type": "bytes32"
        },
        {
          "internalType": "uint256",
          "name": "_time",
          "type": "uint256"
        },
        {
          "internalType": "address",
          "name": "_addr",
          "type": "address"
        },
        {
          "internalType": "address[]",
          "name": "_followers",
          "type": "address[]"
        },
        {
          "internalType": "address[]",
          "name": "_following",
          "type": "address[]"
        },
        {
          "internalType": "bytes32[]",
          "name": "_posts",
          "type": "bytes32[]"
        }
      ],
      "name": "newUser",
      "outputs": [],
      "stateMutability": "nonpayable",
      "type": "function"
    },
    {
      "inputs": [
        {
          "internalType": "address",
          "name": "_account",
          "type": "address"
        },
        {
          "components": [
            {
              "internalType": "bytes32",
              "name": "id",
              "type": "bytes32"
            },
            {
              "internalType": "bytes32",
              "name": "name",
              "type": "bytes32"
            },
            {
              "internalType": "bytes32",
              "name": "userAddr",
              "type": "bytes32"
            },
            {
              "internalType": "uint256",
              "name": "time",
              "type": "uint256"
            },
            {
              "internalType": "address",
              "name": "addr",
              "type": "address"
            },
            {
              "internalType": "address[]",
              "name": "followers",
              "type": "address[]"
            },
            {
              "internalType": "address[]",
              "name": "following",
              "type": "address[]"
            },
            {
              "internalType": "bytes32[]",
              "name": "posts",
              "type": "bytes32[]"
            }
          ],
          "internalType": "struct UserStorage.User",
          "name": "_user",
          "type": "tuple"
        }
      ],
      "name": "setUser",
      "outputs": [],
      "stateMutability": "nonpayable",
      "type": "function"
    },
    {
      "inputs": [
        {
          "internalType": "bytes32",
          "name": "_userAddr",
          "type": "bytes32"
        },
        {
          "internalType": "address",
          "name": "_account",
          "type": "address"
        }
      ],
      "name": "setUsersByUserAddress",
      "outputs": [],
      "stateMutability": "nonpayable",
      "type": "function"
    },
    {
      "inputs": [
        {
          "internalType": "bytes32",
          "name": "_memeId",
          "type": "bytes32"
        },
        {
          "internalType": "address",
          "name": "_account",
          "type": "address"
        }
      ],
      "name": "setUsersByMeme",
      "outputs": [],
      "stateMutability": "nonpayable",
      "type": "function"
    },
    {
      "inputs": [
        {
          "internalType": "address",
          "name": "_account",
          "type": "address"
        }
      ],
      "name": "deleteUser",
      "outputs": [],
      "stateMutability": "nonpayable",
      "type": "function"
    },
    {
      "inputs": [],
      "name": "increaseUserCount",
      "outputs": [],
      "stateMutability": "nonpayable",
      "type": "function"
    },
    {
      "inputs": [
        {
          "internalType": "address",
          "name": "_account",
          "type": "address"
        },
        {
          "internalType": "bytes32",
          "name": "_userName",
          "type": "bytes32"
        }
      ],
      "name": "setUserName",
      "outputs": [],
      "stateMutability": "nonpayable",
      "type": "function"
    },
    {
      "inputs": [
        {
          "internalType": "address",
          "name": "_account",
          "type": "address"
        },
        {
          "internalType": "bytes32",
          "name": "_userAddress",
          "type": "bytes32"
        }
      ],
      "name": "setUserAddress",
      "outputs": [],
      "stateMutability": "nonpayable",
      "type": "function"
    },
    {
      "inputs": [
        {
          "internalType": "address",
          "name": "_account",
          "type": "address"
        },
        {
          "internalType": "bytes32[]",
          "name": "_posts",
          "type": "bytes32[]"
        }
      ],
      "name": "setPosts",
      "outputs": [],
      "stateMutability": "nonpayable",
      "type": "function"
    },
    {
      "inputs": [
        {
          "internalType": "address",
          "name": "_account",
          "type": "address"
        },
        {
          "internalType": "address[]",
          "name": "_followers",
          "type": "address[]"
        }
      ],
      "name": "setFollowers",
      "outputs": [],
      "stateMutability": "nonpayable",
      "type": "function"
    },
    {
      "inputs": [
        {
          "internalType": "address",
          "name": "_account",
          "type": "address"
        },
        {
          "internalType": "address[]",
          "name": "_following",
          "type": "address[]"
        }
      ],
      "name": "setFollowing",
      "outputs": [],
      "stateMutability": "nonpayable",
      "type": "function"
    },
    {
      "inputs": [],
      "name": "getUserCount",
      "outputs": [
        {
          "internalType": "uint256",
          "name": "",
          "type": "uint256"
        }
      ],
      "stateMutability": "view",
      "type": "function",
      "constant": true
    },
    {
      "inputs": [
        {
          "internalType": "address",
          "name": "_account",
          "type": "address"
        }
      ],
      "name": "getId",
      "outputs": [
        {
          "internalType": "bytes32",
          "name": "",
          "type": "bytes32"
        }
      ],
      "stateMutability": "view",
      "type": "function",
      "constant": true
    },
    {
      "inputs": [
        {
          "internalType": "address",
          "name": "_account",
          "type": "address"
        }
      ],
      "name": "getName",
      "outputs": [
        {
          "internalType": "bytes32",
          "name": "",
          "type": "bytes32"
        }
      ],
      "stateMutability": "view",
      "type": "function",
      "constant": true
    },
    {
      "inputs": [
        {
          "internalType": "address",
          "name": "_account",
          "type": "address"
        }
      ],
      "name": "getUserAddr",
      "outputs": [
        {
          "internalType": "bytes32",
          "name": "",
          "type": "bytes32"
        }
      ],
      "stateMutability": "view",
      "type": "function",
      "constant": true
    },
    {
      "inputs": [
        {
          "internalType": "address",
          "name": "_account",
          "type": "address"
        }
      ],
      "name": "getAddr",
      "outputs": [
        {
          "internalType": "address",
          "name": "",
          "type": "address"
        }
      ],
      "stateMutability": "view",
      "type": "function",
      "constant": true
    },
    {
      "inputs": [
        {
          "internalType": "address",
          "name": "_account",
          "type": "address"
        }
      ],
      "name": "getFollowerCount",
      "outputs": [
        {
          "internalType": "uint256",
          "name": "",
          "type": "uint256"
        }
      ],
      "stateMutability": "view",
      "type": "function",
      "constant": true
    },
    {
      "inputs": [
        {
          "internalType": "address",
          "name": "_account",
          "type": "address"
        }
      ],
      "name": "getFollowers",
      "outputs": [
        {
          "internalType": "address[]",
          "name": "",
          "type": "address[]"
        }
      ],
      "stateMutability": "view",
      "type": "function",
      "constant": true
    },
    {
      "inputs": [
        {
          "internalType": "address",
          "name": "_account",
          "type": "address"
        },
        {
          "internalType": "uint256",
          "name": "_index",
          "type": "uint256"
        }
      ],
      "name": "getFollowerAt",
      "outputs": [
        {
          "internalType": "address",
          "name": "",
          "type": "address"
        }
      ],
      "stateMutability": "view",
      "type": "function",
      "constant": true
    },
    {
      "inputs": [
        {
          "internalType": "address",
          "name": "_account",
          "type": "address"
        }
      ],
      "name": "getFollowingCount",
      "outputs": [
        {
          "internalType": "uint256",
          "name": "",
          "type": "uint256"
        }
      ],
      "stateMutability": "view",
      "type": "function",
      "constant": true
    },
    {
      "inputs": [
        {
          "internalType": "address",
          "name": "_account",
          "type": "address"
        }
      ],
      "name": "getFollowing",
      "outputs": [
        {
          "internalType": "address[]",
          "name": "",
          "type": "address[]"
        }
      ],
      "stateMutability": "view",
      "type": "function",
      "constant": true
    },
    {
      "inputs": [
        {
          "internalType": "address",
          "name": "_account",
          "type": "address"
        },
        {
          "internalType": "uint256",
          "name": "_index",
          "type": "uint256"
        }
      ],
      "name": "getFollowingAt",
      "outputs": [
        {
          "internalType": "address",
          "name": "",
          "type": "address"
        }
      ],
      "stateMutability": "view",
      "type": "function",
      "constant": true
    },
    {
      "inputs": [
        {
          "internalType": "address",
          "name": "_account",
          "type": "address"
        }
      ],
      "name": "getPostCount",
      "outputs": [
        {
          "internalType": "uint256",
          "name": "",
          "type": "uint256"
        }
      ],
      "stateMutability": "view",
      "type": "function",
      "constant": true
    },
    {
      "inputs": [
        {
          "internalType": "address",
          "name": "_account",
          "type": "address"
        }
      ],
      "name": "getPosts",
      "outputs": [
        {
          "internalType": "bytes32[]",
          "name": "",
          "type": "bytes32[]"
        }
      ],
      "stateMutability": "view",
      "type": "function",
      "constant": true
    },
    {
      "inputs": [
        {
          "internalType": "address",
          "name": "_userFactory",
          "type": "address"
        }
      ],
      "name": "passFactorySigner",
      "outputs": [
        {
          "internalType": "bool",
          "name": "",
          "type": "bool"
        }
      ],
      "stateMutability": "nonpayable",
      "type": "function"
    },
    {
      "inputs": [
        {
          "internalType": "address",
          "name": "_userInterface",
          "type": "address"
        }
      ],
      "name": "passInterfaceSigner",
      "outputs": [
        {
          "internalType": "bool",
          "name": "",
          "type": "bool"
        }
      ],
      "stateMutability": "nonpayable",
      "type": "function"
    },
    {
      "inputs": [
        {
          "internalType": "address",
          "name": "_memeFactory",
          "type": "address"
        }
      ],
      "name": "passMemeFactorySigner",
      "outputs": [
        {
          "internalType": "bool",
          "name": "",
          "type": "bool"
        }
      ],
      "stateMutability": "nonpayable",
      "type": "function"
    },
    {
      "inputs": [
        {
          "internalType": "address",
          "name": "_likeSigner",
          "type": "address"
        }
      ],
      "name": "passLikeSigner",
      "outputs": [
        {
          "internalType": "bool",
          "name": "",
          "type": "bool"
        }
      ],
      "stateMutability": "nonpayable",
      "type": "function"
    },
    {
      "inputs": [
        {
          "internalType": "address",
          "name": "_followSigner",
          "type": "address"
        }
      ],
      "name": "passFollowSigner",
      "outputs": [
        {
          "internalType": "bool",
          "name": "",
          "type": "bool"
        }
      ],
      "stateMutability": "nonpayable",
      "type": "function"
    }
  ],
  "bytecode": "0x6080604052600060055534801561001557600080fd5b50336000806101000a81548173ffffffffffffffffffffffffffffffffffffffff021916908373ffffffffffffffffffffffffffffffffffffffff16021790555033600160006101000a81548173ffffffffffffffffffffffffffffffffffffffff021916908373ffffffffffffffffffffffffffffffffffffffff16021790555033600260006101000a81548173ffffffffffffffffffffffffffffffffffffffff021916908373ffffffffffffffffffffffffffffffffffffffff16021790555033600360006101000a81548173ffffffffffffffffffffffffffffffffffffffff021916908373ffffffffffffffffffffffffffffffffffffffff16021790555033600460006101000a81548173ffffffffffffffffffffffffffffffffffffffff021916908373ffffffffffffffffffffffffffffffffffffffff160217905550612fb4806101696000396000f3fe608060405234801561001057600080fd5b50600436106102325760003560e01c8063829a262c11610130578063b8e3bfb8116100b8578063d5093b631161007c578063d5093b6314610713578063d8236dff14610743578063e07dbb1014610773578063e8fc954e1461078f578063fab7d536146107bf57610232565b8063b8e3bfb814610649578063bb58f85d14610667578063c2fe202214610683578063c4e172da146106b3578063cb04c970146106e357610232565b8063a4c7fafa116100ff578063a4c7fafa14610579578063a87430ba146105a9578063af5dffde146105dd578063b4108a94146105fb578063b5cb15f71461062b57610232565b8063829a262c146104f157806386b221461461050f578063a07cf3711461052d578063a477c0bf1461055d57610232565b80634b69ae78116101be5780635fd4b08a116101825780635fd4b08a1461042957806365f68c891461045957806377dd8a0314610489578063798c60bd146104b9578063817b5020146104d557610232565b80634b69ae78146103995780634caf9d0b146103b557806351b66921146103e55780635aa64413146103ef5780635c60f2261461040d57610232565b8063144ffed311610205578063144ffed3146102d157806317dcaab6146102ed578063201caf8b1461031d5780632bacead61461034d5780632ff0bc1d1461036957610232565b80630667e8051461023757806306e6a7701461025357806307973ccf1461028357806311e0bda7146102a1575b600080fd5b610251600480360381019061024c919061253b565b6107ef565b005b61026d60048036038101906102689190612456565b6108ca565b60405161027a91906129e2565b60405180910390f35b61028b610a22565b6040516102989190612b0b565b60405180910390f35b6102bb60048036038101906102b69190612617565b610a28565b6040516102c89190612983565b60405180910390f35b6102eb60048036038101906102e69190612483565b610a5b565b005b61030760048036038101906103029190612456565b610ab6565b60405161031491906129e2565b60405180910390f35b61033760048036038101906103329190612456565b610c0a565b60405161034491906129e2565b60405180910390f35b6103676004803603810190610362919061257b565b610d62565b005b610383600480360381019061037e9190612456565b610f53565b60405161039091906129e2565b60405180910390f35b6103b360048036038101906103ae9190612483565b6110ab565b005b6103cf60048036038101906103ca9190612456565b611106565b6040516103dc91906129c0565b60405180910390f35b6103ed6111a0565b005b6103f7611248565b6040516104049190612983565b60405180910390f35b61042760048036038101906104229190612456565b61126c565b005b610443600480360381019061043e9190612456565b6113b6565b60405161045091906129fd565b60405180910390f35b610473600480360381019061046e9190612456565b611402565b60405161048091906129fd565b60405180910390f35b6104a3600480360381019061049e9190612617565b61144e565b6040516104b09190612983565b60405180910390f35b6104d360048036038101906104ce9190612644565b611481565b005b6104ef60048036038101906104ea9190612684565b611565565b005b6104f9611755565b6040516105069190612983565b60405180910390f35b61051761177b565b6040516105249190612983565b60405180910390f35b610547600480360381019061054291906125d7565b6117a1565b6040516105549190612983565b60405180910390f35b6105776004803603810190610572919061253b565b61182a565b005b610593600480360381019061058e9190612456565b611957565b6040516105a09190612b0b565b60405180910390f35b6105c360048036038101906105be9190612456565b6119a6565b6040516105d4959493929190612a18565b60405180910390f35b6105e56119fc565b6040516105f29190612983565b60405180910390f35b61061560048036038101906106109190612456565b611a22565b6040516106229190612983565b60405180910390f35b610633611a8e565b6040516106409190612b0b565b60405180910390f35b610651611a98565b60405161065e9190612983565b60405180910390f35b610681600480360381019061067c91906124df565b611abe565b005b61069d60048036038101906106989190612456565b611b19565b6040516106aa919061299e565b60405180910390f35b6106cd60048036038101906106c89190612456565b611be9565b6040516106da91906129e2565b60405180910390f35b6106fd60048036038101906106f89190612456565b611d41565b60405161070a9190612b0b565b60405180910390f35b61072d600480360381019061072891906125d7565b611d90565b60405161073a9190612983565b60405180910390f35b61075d60048036038101906107589190612456565b611e19565b60405161076a919061299e565b60405180910390f35b61078d60048036038101906107889190612644565b611ee9565b005b6107a960048036038101906107a49190612456565b611fcf565b6040516107b691906129fd565b60405180910390f35b6107d960048036038101906107d49190612456565b61201b565b6040516107e69190612b0b565b60405180910390f35b600460009054906101000a900473ffffffffffffffffffffffffffffffffffffffff1673ffffffffffffffffffffffffffffffffffffffff163373ffffffffffffffffffffffffffffffffffffffff161461087f576040517f08c379a000000000000000000000000000000000000000000000000000000000815260040161087690612aeb565b60405180910390fd5b80600660008473ffffffffffffffffffffffffffffffffffffffff1673ffffffffffffffffffffffffffffffffffffffff168152602001908152602001600020600101819055505050565b6000600260009054906101000a900473ffffffffffffffffffffffffffffffffffffffff1673ffffffffffffffffffffffffffffffffffffffff163373ffffffffffffffffffffffffffffffffffffffff161461095c576040517f08c379a000000000000000000000000000000000000000000000000000000000815260040161095390612acb565b60405180910390fd5b81600260006101000a81548173ffffffffffffffffffffffffffffffffffffffff021916908373ffffffffffffffffffffffffffffffffffffffff160217905550600260009054906101000a900473ffffffffffffffffffffffffffffffffffffffff1673ffffffffffffffffffffffffffffffffffffffff163373ffffffffffffffffffffffffffffffffffffffff167f2364065f519eb2e0ac13040d65b1d1140f6677de0518b6dee6954e49f7f7a5b660405160405180910390a360019050919050565b60055481565b60086020528060005260406000206000915054906101000a900473ffffffffffffffffffffffffffffffffffffffff1681565b80600660008473ffffffffffffffffffffffffffffffffffffffff1673ffffffffffffffffffffffffffffffffffffffff1681526020019081526020016000206006019080519060200190610ab192919061206a565b505050565b60008060009054906101000a900473ffffffffffffffffffffffffffffffffffffffff1673ffffffffffffffffffffffffffffffffffffffff163373ffffffffffffffffffffffffffffffffffffffff1614610b47576040517f08c379a0000000000000000000000000000000000000000000000000000000008152600401610b3e90612a8b565b60405180910390fd5b816000806101000a81548173ffffffffffffffffffffffffffffffffffffffff021916908373ffffffffffffffffffffffffffffffffffffffff16021790555060008054906101000a900473ffffffffffffffffffffffffffffffffffffffff1673ffffffffffffffffffffffffffffffffffffffff163373ffffffffffffffffffffffffffffffffffffffff167f5f8b18be53cdf9843c4263461966fc46896a2d372d3fa87fc22f6cfed024186260405160405180910390a360019050919050565b6000600160009054906101000a900473ffffffffffffffffffffffffffffffffffffffff1673ffffffffffffffffffffffffffffffffffffffff163373ffffffffffffffffffffffffffffffffffffffff1614610c9c576040517f08c379a0000000000000000000000000000000000000000000000000000000008152600401610c9390612a6b565b60405180910390fd5b81600160006101000a81548173ffffffffffffffffffffffffffffffffffffffff021916908373ffffffffffffffffffffffffffffffffffffffff160217905550600160009054906101000a900473ffffffffffffffffffffffffffffffffffffffff1673ffffffffffffffffffffffffffffffffffffffff163373ffffffffffffffffffffffffffffffffffffffff167f76ce921e20c471c95deae34d20d53706ec4378ecab394e517f73aef912ae6cdd60405160405180910390a360019050919050565b60008054906101000a900473ffffffffffffffffffffffffffffffffffffffff1673ffffffffffffffffffffffffffffffffffffffff163373ffffffffffffffffffffffffffffffffffffffff1614610df0576040517f08c379a0000000000000000000000000000000000000000000000000000000008152600401610de790612aeb565b60405180910390fd5b80600660008473ffffffffffffffffffffffffffffffffffffffff1673ffffffffffffffffffffffffffffffffffffffff1681526020019081526020016000206000820151816000015560208201518160010155604082015181600201556060820151816003015560808201518160040160006101000a81548173ffffffffffffffffffffffffffffffffffffffff021916908373ffffffffffffffffffffffffffffffffffffffff16021790555060a0820151816005019080519060200190610ebb92919061206a565b5060c0820151816006019080519060200190610ed892919061206a565b5060e0820151816007019080519060200190610ef59291906120f4565b5090505081600860008360400151815260200190815260200160002060006101000a81548173ffffffffffffffffffffffffffffffffffffffff021916908373ffffffffffffffffffffffffffffffffffffffff1602179055505050565b6000600360009054906101000a900473ffffffffffffffffffffffffffffffffffffffff1673ffffffffffffffffffffffffffffffffffffffff163373ffffffffffffffffffffffffffffffffffffffff1614610fe5576040517f08c379a0000000000000000000000000000000000000000000000000000000008152600401610fdc90612a8b565b60405180910390fd5b81600360006101000a81548173ffffffffffffffffffffffffffffffffffffffff021916908373ffffffffffffffffffffffffffffffffffffffff160217905550600360009054906101000a900473ffffffffffffffffffffffffffffffffffffffff1673ffffffffffffffffffffffffffffffffffffffff163373ffffffffffffffffffffffffffffffffffffffff167f317b209d0dca6ddb6667f7c47d488a9708cc0e7befa4cde41a104b125a1d9ef660405160405180910390a360019050919050565b80600660008473ffffffffffffffffffffffffffffffffffffffff1673ffffffffffffffffffffffffffffffffffffffff168152602001908152602001600020600501908051906020019061110192919061206a565b505050565b6060600660008373ffffffffffffffffffffffffffffffffffffffff1673ffffffffffffffffffffffffffffffffffffffff16815260200190815260200160002060070180548060200260200160405190810160405280929190818152602001828054801561119457602002820191906000526020600020905b815481526020019060010190808311611180575b50505050509050919050565b60008054906101000a900473ffffffffffffffffffffffffffffffffffffffff1673ffffffffffffffffffffffffffffffffffffffff163373ffffffffffffffffffffffffffffffffffffffff161461122e576040517f08c379a000000000000000000000000000000000000000000000000000000000815260040161122590612aeb565b60405180910390fd5b6005600081548092919061124190612ca9565b9190505550565b60008054906101000a900473ffffffffffffffffffffffffffffffffffffffff1681565b60008054906101000a900473ffffffffffffffffffffffffffffffffffffffff1673ffffffffffffffffffffffffffffffffffffffff163373ffffffffffffffffffffffffffffffffffffffff16146112fa576040517f08c379a00000000000000000000000000000000000000000000000000000000081526004016112f190612aeb565b60405180910390fd5b600660008273ffffffffffffffffffffffffffffffffffffffff1673ffffffffffffffffffffffffffffffffffffffff1681526020019081526020016000206000808201600090556001820160009055600282016000905560038201600090556004820160006101000a81549073ffffffffffffffffffffffffffffffffffffffff02191690556005820160006113919190612141565b6006820160006113a19190612141565b6007820160006113b19190612162565b505050565b6000600660008373ffffffffffffffffffffffffffffffffffffffff1673ffffffffffffffffffffffffffffffffffffffff168152602001908152602001600020600101549050919050565b6000600660008373ffffffffffffffffffffffffffffffffffffffff1673ffffffffffffffffffffffffffffffffffffffff168152602001908152602001600020600001549050919050565b60076020528060005260406000206000915054906101000a900473ffffffffffffffffffffffffffffffffffffffff1681565b60008054906101000a900473ffffffffffffffffffffffffffffffffffffffff1673ffffffffffffffffffffffffffffffffffffffff163373ffffffffffffffffffffffffffffffffffffffff161461150f576040517f08c379a000000000000000000000000000000000000000000000000000000000815260040161150690612aeb565b60405180910390fd5b806008600084815260200190815260200160002060006101000a81548173ffffffffffffffffffffffffffffffffffffffff021916908373ffffffffffffffffffffffffffffffffffffffff1602179055505050565b60008054906101000a900473ffffffffffffffffffffffffffffffffffffffff1673ffffffffffffffffffffffffffffffffffffffff163373ffffffffffffffffffffffffffffffffffffffff16146115f3576040517f08c379a00000000000000000000000000000000000000000000000000000000081526004016115ea90612aab565b60405180910390fd5b6040518061010001604052808981526020018881526020018781526020018681526020018573ffffffffffffffffffffffffffffffffffffffff16815260200184815260200183815260200182815250600660008673ffffffffffffffffffffffffffffffffffffffff1673ffffffffffffffffffffffffffffffffffffffff1681526020019081526020016000206000820151816000015560208201518160010155604082015181600201556060820151816003015560808201518160040160006101000a81548173ffffffffffffffffffffffffffffffffffffffff021916908373ffffffffffffffffffffffffffffffffffffffff16021790555060a082015181600501908051906020019061170d92919061206a565b5060c082015181600601908051906020019061172a92919061206a565b5060e08201518160070190805190602001906117479291906120f4565b509050505050505050505050565b600260009054906101000a900473ffffffffffffffffffffffffffffffffffffffff1681565b600160009054906101000a900473ffffffffffffffffffffffffffffffffffffffff1681565b6000600660008473ffffffffffffffffffffffffffffffffffffffff1673ffffffffffffffffffffffffffffffffffffffff16815260200190815260200160002060060182815481106117f7576117f6612d21565b5b9060005260206000200160009054906101000a900473ffffffffffffffffffffffffffffffffffffffff16905092915050565b600460009054906101000a900473ffffffffffffffffffffffffffffffffffffffff1673ffffffffffffffffffffffffffffffffffffffff163373ffffffffffffffffffffffffffffffffffffffff16146118ba576040517f08c379a00000000000000000000000000000000000000000000000000000000081526004016118b190612aeb565b60405180910390fd5b80600660008473ffffffffffffffffffffffffffffffffffffffff1673ffffffffffffffffffffffffffffffffffffffff16815260200190815260200160002060020181905550816008600083815260200190815260200160002060006101000a81548173ffffffffffffffffffffffffffffffffffffffff021916908373ffffffffffffffffffffffffffffffffffffffff1602179055505050565b6000600660008373ffffffffffffffffffffffffffffffffffffffff1673ffffffffffffffffffffffffffffffffffffffff168152602001908152602001600020600701805490509050919050565b60066020528060005260406000206000915090508060000154908060010154908060020154908060030154908060040160009054906101000a900473ffffffffffffffffffffffffffffffffffffffff16905085565b600460009054906101000a900473ffffffffffffffffffffffffffffffffffffffff1681565b6000600660008373ffffffffffffffffffffffffffffffffffffffff1673ffffffffffffffffffffffffffffffffffffffff16815260200190815260200160002060040160009054906101000a900473ffffffffffffffffffffffffffffffffffffffff169050919050565b6000600554905090565b600360009054906101000a900473ffffffffffffffffffffffffffffffffffffffff1681565b80600660008473ffffffffffffffffffffffffffffffffffffffff1673ffffffffffffffffffffffffffffffffffffffff1681526020019081526020016000206007019080519060200190611b149291906120f4565b505050565b6060600660008373ffffffffffffffffffffffffffffffffffffffff1673ffffffffffffffffffffffffffffffffffffffff168152602001908152602001600020600501805480602002602001604051908101604052809291908181526020018280548015611bdd57602002820191906000526020600020905b8160009054906101000a900473ffffffffffffffffffffffffffffffffffffffff1673ffffffffffffffffffffffffffffffffffffffff1681526020019060010190808311611b93575b50505050509050919050565b6000600460009054906101000a900473ffffffffffffffffffffffffffffffffffffffff1673ffffffffffffffffffffffffffffffffffffffff163373ffffffffffffffffffffffffffffffffffffffff1614611c7b576040517f08c379a0000000000000000000000000000000000000000000000000000000008152600401611c7290612a8b565b60405180910390fd5b81600460006101000a81548173ffffffffffffffffffffffffffffffffffffffff021916908373ffffffffffffffffffffffffffffffffffffffff160217905550600460009054906101000a900473ffffffffffffffffffffffffffffffffffffffff1673ffffffffffffffffffffffffffffffffffffffff163373ffffffffffffffffffffffffffffffffffffffff167fdf570d582e474b2d7915b12f6f773eb74e4bc78a660caeeccf19491c8578507b60405160405180910390a360019050919050565b6000600660008373ffffffffffffffffffffffffffffffffffffffff1673ffffffffffffffffffffffffffffffffffffffff168152602001908152602001600020600501805490509050919050565b6000600660008473ffffffffffffffffffffffffffffffffffffffff1673ffffffffffffffffffffffffffffffffffffffff1681526020019081526020016000206005018281548110611de657611de5612d21565b5b9060005260206000200160009054906101000a900473ffffffffffffffffffffffffffffffffffffffff16905092915050565b6060600660008373ffffffffffffffffffffffffffffffffffffffff1673ffffffffffffffffffffffffffffffffffffffff168152602001908152602001600020600601805480602002602001604051908101604052809291908181526020018280548015611edd57602002820191906000526020600020905b8160009054906101000a900473ffffffffffffffffffffffffffffffffffffffff1673ffffffffffffffffffffffffffffffffffffffff1681526020019060010190808311611e93575b50505050509050919050565b600160009054906101000a900473ffffffffffffffffffffffffffffffffffffffff1673ffffffffffffffffffffffffffffffffffffffff163373ffffffffffffffffffffffffffffffffffffffff1614611f79576040517f08c379a0000000000000000000000000000000000000000000000000000000008152600401611f7090612aeb565b60405180910390fd5b806007600084815260200190815260200160002060006101000a81548173ffffffffffffffffffffffffffffffffffffffff021916908373ffffffffffffffffffffffffffffffffffffffff1602179055505050565b6000600660008373ffffffffffffffffffffffffffffffffffffffff1673ffffffffffffffffffffffffffffffffffffffff168152602001908152602001600020600201549050919050565b6000600660008373ffffffffffffffffffffffffffffffffffffffff1673ffffffffffffffffffffffffffffffffffffffff168152602001908152602001600020600601805490509050919050565b8280548282559060005260206000209081019282156120e3579160200282015b828111156120e25782518260006101000a81548173ffffffffffffffffffffffffffffffffffffffff021916908373ffffffffffffffffffffffffffffffffffffffff1602179055509160200191906001019061208a565b5b5090506120f09190612183565b5090565b828054828255906000526020600020908101928215612130579160200282015b8281111561212f578251825591602001919060010190612114565b5b50905061213d91906121a0565b5090565b508054600082559060005260206000209081019061215f9190612183565b50565b508054600082559060005260206000209081019061218091906121a0565b50565b5b8082111561219c576000816000905550600101612184565b5090565b5b808211156121b95760008160009055506001016121a1565b5090565b60006121d06121cb84612b4b565b612b26565b905080838252602082019050828560208602820111156121f3576121f2612d8e565b5b60005b858110156122235781612209888261229d565b8452602084019350602083019250506001810190506121f6565b5050509392505050565b600061224061223b84612b77565b612b26565b9050808382526020820190508285602086028201111561226357612262612d8e565b5b60005b858110156122935781612279888261230e565b845260208401935060208301925050600181019050612266565b5050509392505050565b6000813590506122ac81612f39565b92915050565b600082601f8301126122c7576122c6612d7f565b5b81356122d78482602086016121bd565b91505092915050565b600082601f8301126122f5576122f4612d7f565b5b813561230584826020860161222d565b91505092915050565b60008135905061231d81612f50565b92915050565b6000610100828403121561233a57612339612d84565b5b612345610100612b26565b905060006123558482850161230e565b60008301525060206123698482850161230e565b602083015250604061237d8482850161230e565b604083015250606061239184828501612441565b60608301525060806123a58482850161229d565b60808301525060a082013567ffffffffffffffff8111156123c9576123c8612d89565b5b6123d5848285016122b2565b60a08301525060c082013567ffffffffffffffff8111156123f9576123f8612d89565b5b612405848285016122b2565b60c08301525060e082013567ffffffffffffffff81111561242957612428612d89565b5b612435848285016122e0565b60e08301525092915050565b60008135905061245081612f67565b92915050565b60006020828403121561246c5761246b612d98565b5b600061247a8482850161229d565b91505092915050565b6000806040838503121561249a57612499612d98565b5b60006124a88582860161229d565b925050602083013567ffffffffffffffff8111156124c9576124c8612d93565b5b6124d5858286016122b2565b9150509250929050565b600080604083850312156124f6576124f5612d98565b5b60006125048582860161229d565b925050602083013567ffffffffffffffff81111561252557612524612d93565b5b612531858286016122e0565b9150509250929050565b6000806040838503121561255257612551612d98565b5b60006125608582860161229d565b92505060206125718582860161230e565b9150509250929050565b6000806040838503121561259257612591612d98565b5b60006125a08582860161229d565b925050602083013567ffffffffffffffff8111156125c1576125c0612d93565b5b6125cd85828601612323565b9150509250929050565b600080604083850312156125ee576125ed612d98565b5b60006125fc8582860161229d565b925050602061260d85828601612441565b9150509250929050565b60006020828403121561262d5761262c612d98565b5b600061263b8482850161230e565b91505092915050565b6000806040838503121561265b5761265a612d98565b5b60006126698582860161230e565b925050602061267a8582860161229d565b9150509250929050565b600080600080600080600080610100898b0312156126a5576126a4612d98565b5b60006126b38b828c0161230e565b98505060206126c48b828c0161230e565b97505060406126d58b828c0161230e565b96505060606126e68b828c01612441565b95505060806126f78b828c0161229d565b94505060a089013567ffffffffffffffff81111561271857612717612d93565b5b6127248b828c016122b2565b93505060c089013567ffffffffffffffff81111561274557612744612d93565b5b6127518b828c016122b2565b92505060e089013567ffffffffffffffff81111561277257612771612d93565b5b61277e8b828c016122e0565b9150509295985092959890939650565b600061279a83836127be565b60208301905092915050565b60006127b283836128a7565b60208301905092915050565b6127c781612c26565b82525050565b6127d681612c26565b82525050565b60006127e782612bc3565b6127f18185612bf3565b93506127fc83612ba3565b8060005b8381101561282d578151612814888261278e565b975061281f83612bd9565b925050600181019050612800565b5085935050505092915050565b600061284582612bce565b61284f8185612c04565b935061285a83612bb3565b8060005b8381101561288b57815161287288826127a6565b975061287d83612be6565b92505060018101905061285e565b5085935050505092915050565b6128a181612c38565b82525050565b6128b081612c44565b82525050565b6128bf81612c44565b82525050565b60006128d2602b83612c15565b91506128dd82612dae565b604082019050919050565b60006128f5602783612c15565b915061290082612dfd565b604082019050919050565b6000612918602883612c15565b915061292382612e4c565b604082019050919050565b600061293b602483612c15565b915061294682612e9b565b604082019050919050565b600061295e602283612c15565b915061296982612eea565b604082019050919050565b61297d81612c6e565b82525050565b600060208201905061299860008301846127cd565b92915050565b600060208201905081810360008301526129b881846127dc565b905092915050565b600060208201905081810360008301526129da818461283a565b905092915050565b60006020820190506129f76000830184612898565b92915050565b6000602082019050612a1260008301846128b6565b92915050565b600060a082019050612a2d60008301886128b6565b612a3a60208301876128b6565b612a4760408301866128b6565b612a546060830185612974565b612a6160808301846127cd565b9695505050505050565b60006020820190508181036000830152612a84816128c5565b9050919050565b60006020820190508181036000830152612aa4816128e8565b9050919050565b60006020820190508181036000830152612ac48161290b565b9050919050565b60006020820190508181036000830152612ae48161292e565b9050919050565b60006020820190508181036000830152612b0481612951565b9050919050565b6000602082019050612b206000830184612974565b92915050565b6000612b30612b41565b9050612b3c8282612c78565b919050565b6000604051905090565b600067ffffffffffffffff821115612b6657612b65612d50565b5b602082029050602081019050919050565b600067ffffffffffffffff821115612b9257612b91612d50565b5b602082029050602081019050919050565b6000819050602082019050919050565b6000819050602082019050919050565b600081519050919050565b600081519050919050565b6000602082019050919050565b6000602082019050919050565b600082825260208201905092915050565b600082825260208201905092915050565b600082825260208201905092915050565b6000612c3182612c4e565b9050919050565b60008115159050919050565b6000819050919050565b600073ffffffffffffffffffffffffffffffffffffffff82169050919050565b6000819050919050565b612c8182612d9d565b810181811067ffffffffffffffff82111715612ca057612c9f612d50565b5b80604052505050565b6000612cb482612c6e565b91507fffffffffffffffffffffffffffffffffffffffffffffffffffffffffffffffff821415612ce757612ce6612cf2565b5b600182019050919050565b7f4e487b7100000000000000000000000000000000000000000000000000000000600052601160045260246000fd5b7f4e487b7100000000000000000000000000000000000000000000000000000000600052603260045260246000fd5b7f4e487b7100000000000000000000000000000000000000000000000000000000600052604160045260246000fd5b600080fd5b600080fd5b600080fd5b600080fd5b600080fd5b600080fd5b6000601f19601f8301169050919050565b7f4572726f723a206d73672e73656e646572206d757374206265206d656d65466160008201527f63746f72795369676e6572000000000000000000000000000000000000000000602082015250565b7f4572726f723a206d73672e73656e646572206d75737420626520666163746f7260008201527f795369676e657200000000000000000000000000000000000000000000000000602082015250565b7f4572726f723a206d73672e73656e646572206d75737420626520666163746f7260008201527f79207369676e6572000000000000000000000000000000000000000000000000602082015250565b7f4572726f723a206d73672e73656e646572206d757374206265206c696b65536960008201527f676e657200000000000000000000000000000000000000000000000000000000602082015250565b7f4572726f723a207573657220666163746f7279206d757374206265207369676e60008201527f6572000000000000000000000000000000000000000000000000000000000000602082015250565b612f4281612c26565b8114612f4d57600080fd5b50565b612f5981612c44565b8114612f6457600080fd5b50565b612f7081612c6e565b8114612f7b57600080fd5b5056fea26469706673582212200581d521bcf97ce376fda49d803675c85cf01d69bcd675e2f5df41ac49eff2cd64736f6c63430008070033",
  "immutableReferences": {},
  "source": "// SPDX-License-Identifier: MIT\n\npragma solidity >=0.8.0 <0.9.0;\n\ncontract UserStorage {\n  address public factorySigner;\n  address public memeFactorySigner;\n  address public likeSigner;\n  address public followSigner;\n  address public interfaceSigner;\n\n  uint public userCount = 0;\n\n  mapping(address => User) public users; // address to Users map\n  mapping(bytes32 => address) public usersByMeme; // memeId to account addresses\n  mapping(bytes32 => address) public usersByUserAddr; // userAddr to account address\n\n  struct User {\n    bytes32 id; // user number in order\n    bytes32 name; // user name\n    bytes32 userAddr; // user address (@)\n    uint time; // user creation time\n    address addr; // address of user\n    address[] followers; // addresses of followers\n    address[] following; // addressses of following\n    bytes32[] posts; // memeIds of posts\n  }\n\n  event FactorySignerChanged(address indexed from, address indexed to);\n  event InterfaceSignerChanged(address indexed from, address indexed to);\n  event PostSignerChanged(address indexed from, address indexed to);\n  event LikeSignerChanged(address indexed from, address indexed to);\n  event FollowSignerChanged(address indexed from, address indexed to);\n\n  constructor() public {\n    factorySigner = msg.sender;\n    memeFactorySigner = msg.sender;\n    likeSigner = msg.sender;\n    followSigner = msg.sender;\n    interfaceSigner = msg.sender;\n  }\n\n\n  // Factory-Specific setters\n  function newUser(\n    bytes32 _id,\n    bytes32 _name,\n    bytes32 _userAddr,\n    uint _time,\n    address _addr,\n    address[] memory _followers,\n    address[] memory _following,\n    bytes32[] memory _posts\n  ) public {\n    require(\n      msg.sender==factorySigner,\n      'Error: msg.sender must be factory signer');\n    users[_addr] = User(\n      _id,\n      _name,\n      _userAddr,\n      _time,\n      _addr,\n      _followers,\n      _following,\n      _posts\n    );\n  }\n  function setUser(\n    address _account,\n    User memory _user\n  ) public {\n    require(\n      msg.sender==factorySigner,\n      'Error: user factory must be signer');\n    users[_account] = _user;\n    usersByUserAddr[_user.userAddr] = _account;\n  }\n  function setUsersByUserAddress(\n    bytes32 _userAddr,\n    address _account\n  ) public {\n    require(\n      msg.sender==factorySigner,\n      'Error: user factory must be signer');\n    usersByUserAddr[_userAddr] = _account;\n  }\n  function setUsersByMeme(\n    bytes32 _memeId,\n    address _account\n  ) public {\n    require(\n      msg.sender==memeFactorySigner,\n      'Error: user factory must be signer');\n    usersByMeme[_memeId] = _account;\n  }\n  function deleteUser(address _account) public {\n    require(\n      msg.sender==factorySigner,\n      'Error: user factory must be signer');\n    delete users[_account];\n  }\n  function increaseUserCount() public {\n    require(\n      msg.sender==factorySigner,\n      'Error: user factory must be signer');\n    userCount++;\n  }\n  // Setters for interface only\n  function setUserName(\n    address _account,\n    bytes32 _userName\n  ) public {\n    require(\n      msg.sender==interfaceSigner,\n      'Error: user factory must be signer');\n    users[_account].name= _userName;\n  }\n  function setUserAddress(\n    address _account,\n    bytes32 _userAddress\n  ) public {\n    require(\n      msg.sender==interfaceSigner,\n      'Error: user factory must be signer');\n    users[_account].userAddr = _userAddress;\n    usersByUserAddr[_userAddress] = _account;\n  }\n\n  // Setters for all signers\n  // set post meme\n  function setPosts(\n    address _account,\n    bytes32[] memory _posts\n  ) public {\n    users[_account].posts = _posts;\n  }\n\n  // set follow\n  function setFollowers(\n    address _account,\n    address[] memory _followers\n  ) public {\n    users[_account].followers = _followers;\n  }\n  function setFollowing(\n    address _account,\n    address[] memory _following\n  ) public {\n    users[_account].following = _following;\n  }\n\n  // getter functions for UserStorage\n  function getUserCount() public view returns(uint){\n    return userCount;\n  }\n  function getId(address _account) public view returns(bytes32) {\n    return users[_account].id;\n  }\n  function getName(address _account) public view returns(bytes32) {\n    return users[_account].name;\n  }\n  function getUserAddr(address _account) public view returns(bytes32) {\n    return users[_account].userAddr;\n  }\n  function getAddr(address _account) public view returns(address) {\n    return users[_account].addr;\n  }\n  function getFollowerCount(address _account) public view returns(uint) {\n    return users[_account].followers.length;\n  }\n  function getFollowers(address _account) public view returns(address[] memory) {\n    return users[_account].followers;\n  }\n  function getFollowerAt(address _account, uint _index) public view returns(address) {\n    return users[_account].followers[_index];\n  }\n  function getFollowingCount(address _account) public view returns(uint) {\n    return users[_account].following.length;\n  }\n  function getFollowing(address _account) public view returns(address[] memory) {\n    return users[_account].following;\n  }\n  function getFollowingAt(address _account, uint _index) public view returns(address) {\n    return users[_account].following[_index];\n  }\n  function getPostCount(address _account) public view returns (uint) {\n    return users[_account].posts.length;\n  }\n  function getPosts(address _account) public view returns (bytes32[] memory) {\n    return users[_account].posts;\n  }\n\n  // pass signer roles\n  function passFactorySigner(address _userFactory) public returns(bool){\n    require(\n      msg.sender==factorySigner,\n      'Error: msg.sender must be factorySigner');\n\n    factorySigner = _userFactory;\n    emit FactorySignerChanged(msg.sender, factorySigner);\n    return true;\n  }\n  function passInterfaceSigner(address _userInterface) public returns(bool){\n    require(\n      msg.sender==interfaceSigner,\n      'Error: msg.sender must be factorySigner');\n\n    interfaceSigner = _userInterface;\n    emit InterfaceSignerChanged(msg.sender, interfaceSigner);\n    return true;\n  }\n  function passMemeFactorySigner(address _memeFactory) public returns(bool){\n    require(\n      msg.sender==memeFactorySigner,\n      'Error: msg.sender must be memeFactorySigner');\n\n    memeFactorySigner = _memeFactory;\n    emit PostSignerChanged(msg.sender, memeFactorySigner);\n    return true;\n  }\n  function passLikeSigner(address _likeSigner) public returns(bool){\n    require(\n      msg.sender==likeSigner,\n      'Error: msg.sender must be likeSigner');\n\n    likeSigner = _likeSigner;\n    emit LikeSignerChanged(msg.sender, likeSigner);\n    return true;\n  }\n  function passFollowSigner(address _followSigner) public returns(bool){\n    require(\n      msg.sender==followSigner,\n      'Error: msg.sender must be factorySigner');\n\n    followSigner = _followSigner;\n    emit FollowSignerChanged(msg.sender, followSigner);\n    return true;\n  }\n}\n",
  "sourcePath": "/Users/jaiq/Documents/000 BLOCKCHAIN/ETH/uMe/src/contracts/UserStorage.sol",
  "compiler": {
    "name": "solc",
    "version": "0.8.7+commit.e28d00a7.Emscripten.clang"
  },
  "schemaVersion": "3.4.3",
  "updatedAt": "2021-08-26T00:43:06.380Z",
  "networkType": "ethereum",
  "devdoc": {
    "kind": "dev",
    "methods": {},
    "version": 1
  },
  "userdoc": {
    "kind": "user",
    "methods": {},
    "version": 1
  }
}