{
  "contractName": "UserInterface",
  "abi": [
    {
      "inputs": [
        {
          "internalType": "contract UME",
          "name": "_umeToken",
          "type": "address"
        },
        {
          "internalType": "contract MemeStorage",
          "name": "_memeStorage",
          "type": "address"
        },
        {
          "internalType": "contract UserStorage",
          "name": "_userStorage",
          "type": "address"
        },
        {
          "internalType": "contract UserFactory",
          "name": "_userFactory",
          "type": "address"
        },
        {
          "internalType": "contract Post",
          "name": "_post",
          "type": "address"
        },
        {
          "internalType": "contract Like",
          "name": "_like",
          "type": "address"
        },
        {
          "internalType": "contract Follow",
          "name": "_follow",
          "type": "address"
        },
        {
          "internalType": "contract Boost",
          "name": "_boost",
          "type": "address"
        }
      ],
      "stateMutability": "nonpayable",
      "type": "constructor"
    },
    {
      "anonymous": false,
      "inputs": [
        {
          "indexed": true,
          "internalType": "address",
          "name": "account",
          "type": "address"
        },
        {
          "indexed": false,
          "internalType": "bytes32",
          "name": "userAddress",
          "type": "bytes32"
        }
      ],
      "name": "ChangedUserAddress",
      "type": "event"
    },
    {
      "anonymous": false,
      "inputs": [
        {
          "indexed": true,
          "internalType": "address",
          "name": "account",
          "type": "address"
        },
        {
          "indexed": false,
          "internalType": "bytes32",
          "name": "userName",
          "type": "bytes32"
        }
      ],
      "name": "ChangedUserName",
      "type": "event"
    },
    {
      "anonymous": false,
      "inputs": [
        {
          "indexed": true,
          "internalType": "address",
          "name": "account",
          "type": "address"
        },
        {
          "indexed": false,
          "internalType": "bytes32",
          "name": "userName",
          "type": "bytes32"
        },
        {
          "indexed": false,
          "internalType": "bytes32",
          "name": "userAddress",
          "type": "bytes32"
        }
      ],
      "name": "NewUser",
      "type": "event"
    },
    {
      "inputs": [
        {
          "internalType": "address",
          "name": "_account",
          "type": "address"
        },
        {
          "internalType": "bytes",
          "name": "_userName",
          "type": "bytes"
        },
        {
          "internalType": "bytes",
          "name": "_userAddress",
          "type": "bytes"
        }
      ],
      "name": "newUser",
      "outputs": [],
      "stateMutability": "nonpayable",
      "type": "function"
    },
    {
      "inputs": [
        {
          "internalType": "address",
          "name": "_account",
          "type": "address"
        },
        {
          "internalType": "bytes",
          "name": "_userName",
          "type": "bytes"
        }
      ],
      "name": "changeUserName",
      "outputs": [],
      "stateMutability": "nonpayable",
      "type": "function"
    },
    {
      "inputs": [
        {
          "internalType": "address",
          "name": "_account",
          "type": "address"
        },
        {
          "internalType": "bytes",
          "name": "_userAddress",
          "type": "bytes"
        }
      ],
      "name": "changeUserAddress",
      "outputs": [],
      "stateMutability": "nonpayable",
      "type": "function"
    },
    {
      "inputs": [
        {
          "internalType": "address",
          "name": "_account",
          "type": "address"
        },
        {
          "internalType": "string",
          "name": "_bio",
          "type": "string"
        }
      ],
      "name": "newBio",
      "outputs": [],
      "stateMutability": "nonpayable",
      "type": "function"
    },
    {
      "inputs": [
        {
          "internalType": "address",
          "name": "_account",
          "type": "address"
        },
        {
          "internalType": "string",
          "name": "_imgHash",
          "type": "string"
        }
      ],
      "name": "newProfilePic",
      "outputs": [],
      "stateMutability": "nonpayable",
      "type": "function"
    },
    {
      "inputs": [
        {
          "internalType": "address",
          "name": "_account",
          "type": "address"
        },
        {
          "internalType": "string",
          "name": "_postText",
          "type": "string"
        },
        {
          "internalType": "address[]",
          "name": "_tags",
          "type": "address[]"
        },
        {
          "internalType": "bytes32",
          "name": "_parentId",
          "type": "bytes32"
        },
        {
          "internalType": "bytes32",
          "name": "_originId",
          "type": "bytes32"
        }
      ],
      "name": "newMeme",
      "outputs": [],
      "stateMutability": "nonpayable",
      "type": "function"
    },
    {
      "inputs": [
        {
          "internalType": "address",
          "name": "_account",
          "type": "address"
        },
        {
          "internalType": "bytes32",
          "name": "_memeId",
          "type": "bytes32"
        }
      ],
      "name": "rememe",
      "outputs": [],
      "stateMutability": "nonpayable",
      "type": "function"
    },
    {
      "inputs": [
        {
          "internalType": "address",
          "name": "_account",
          "type": "address"
        },
        {
          "internalType": "string",
          "name": "_postText",
          "type": "string"
        },
        {
          "internalType": "address[]",
          "name": "_tags",
          "type": "address[]"
        },
        {
          "internalType": "bytes32",
          "name": "_parentId",
          "type": "bytes32"
        },
        {
          "internalType": "bytes32",
          "name": "_originId",
          "type": "bytes32"
        },
        {
          "internalType": "bytes32",
          "name": "_memeId",
          "type": "bytes32"
        }
      ],
      "name": "quoteMeme",
      "outputs": [],
      "stateMutability": "nonpayable",
      "type": "function"
    },
    {
      "inputs": [
        {
          "internalType": "address",
          "name": "_account",
          "type": "address"
        },
        {
          "internalType": "bytes32",
          "name": "_memeId",
          "type": "bytes32"
        }
      ],
      "name": "deleteMeme",
      "outputs": [],
      "stateMutability": "nonpayable",
      "type": "function"
    },
    {
      "inputs": [
        {
          "internalType": "address",
          "name": "_account",
          "type": "address"
        },
        {
          "internalType": "bytes32",
          "name": "_memeId",
          "type": "bytes32"
        }
      ],
      "name": "likeMeme",
      "outputs": [],
      "stateMutability": "nonpayable",
      "type": "function"
    },
    {
      "inputs": [
        {
          "internalType": "address",
          "name": "_from",
          "type": "address"
        },
        {
          "internalType": "address",
          "name": "_to",
          "type": "address"
        }
      ],
      "name": "followUser",
      "outputs": [],
      "stateMutability": "nonpayable",
      "type": "function"
    },
    {
      "inputs": [
        {
          "internalType": "address",
          "name": "_account",
          "type": "address"
        },
        {
          "internalType": "bytes32",
          "name": "_memeId",
          "type": "bytes32"
        },
        {
          "internalType": "uint256",
          "name": "_boostNumber",
          "type": "uint256"
        }
      ],
      "name": "boostMeme",
      "outputs": [],
      "stateMutability": "nonpayable",
      "type": "function"
    },
    {
      "inputs": [
        {
          "internalType": "address",
          "name": "_account",
          "type": "address"
        },
        {
          "internalType": "bytes32",
          "name": "_memeId",
          "type": "bytes32"
        },
        {
          "internalType": "uint256",
          "name": "_boostNumber",
          "type": "uint256"
        }
      ],
      "name": "unBoostMeme",
      "outputs": [],
      "stateMutability": "nonpayable",
      "type": "function"
    },
    {
      "inputs": [
        {
          "internalType": "bytes",
          "name": "source",
          "type": "bytes"
        }
      ],
      "name": "bytesToBytes32",
      "outputs": [
        {
          "internalType": "bytes32",
          "name": "result",
          "type": "bytes32"
        }
      ],
      "stateMutability": "pure",
      "type": "function",
      "constant": true
    },
    {
      "inputs": [
        {
          "internalType": "uint256",
          "name": "num",
          "type": "uint256"
        }
      ],
      "name": "encode",
      "outputs": [
        {
          "internalType": "bytes32",
          "name": "",
          "type": "bytes32"
        }
      ],
      "stateMutability": "view",
      "type": "function",
      "constant": true
    }
  ],
  "bytecode": "0x60806040523480156200001157600080fd5b5060405162004d0e38038062004d0e833981810160405281019062000037919062000304565b876000806101000a81548173ffffffffffffffffffffffffffffffffffffffff021916908373ffffffffffffffffffffffffffffffffffffffff16021790555086600160006101000a81548173ffffffffffffffffffffffffffffffffffffffff021916908373ffffffffffffffffffffffffffffffffffffffff16021790555085600260006101000a81548173ffffffffffffffffffffffffffffffffffffffff021916908373ffffffffffffffffffffffffffffffffffffffff16021790555084600360006101000a81548173ffffffffffffffffffffffffffffffffffffffff021916908373ffffffffffffffffffffffffffffffffffffffff16021790555083600460006101000a81548173ffffffffffffffffffffffffffffffffffffffff021916908373ffffffffffffffffffffffffffffffffffffffff16021790555082600560006101000a81548173ffffffffffffffffffffffffffffffffffffffff021916908373ffffffffffffffffffffffffffffffffffffffff16021790555081600660006101000a81548173ffffffffffffffffffffffffffffffffffffffff021916908373ffffffffffffffffffffffffffffffffffffffff16021790555080600760006101000a81548173ffffffffffffffffffffffffffffffffffffffff021916908373ffffffffffffffffffffffffffffffffffffffff160217905550505050505050505062000576565b6000815190506200025d81620004a6565b92915050565b6000815190506200027481620004c0565b92915050565b6000815190506200028b81620004da565b92915050565b600081519050620002a281620004f4565b92915050565b600081519050620002b9816200050e565b92915050565b600081519050620002d08162000528565b92915050565b600081519050620002e78162000542565b92915050565b600081519050620002fe816200055c565b92915050565b600080600080600080600080610100898b031215620003285762000327620004a1565b5b6000620003388b828c01620002bf565b98505060206200034b8b828c0162000291565b97505060406200035e8b828c01620002ed565b9650506060620003718b828c01620002d6565b9550506080620003848b828c01620002a8565b94505060a0620003978b828c016200027a565b93505060c0620003aa8b828c0162000263565b92505060e0620003bd8b828c016200024c565b9150509295985092959890939650565b6000620003da8262000481565b9050919050565b6000620003ee82620003cd565b9050919050565b60006200040282620003cd565b9050919050565b60006200041682620003cd565b9050919050565b60006200042a82620003cd565b9050919050565b60006200043e82620003cd565b9050919050565b60006200045282620003cd565b9050919050565b60006200046682620003cd565b9050919050565b60006200047a82620003cd565b9050919050565b600073ffffffffffffffffffffffffffffffffffffffff82169050919050565b600080fd5b620004b181620003e1565b8114620004bd57600080fd5b50565b620004cb81620003f5565b8114620004d757600080fd5b50565b620004e58162000409565b8114620004f157600080fd5b50565b620004ff816200041d565b81146200050b57600080fd5b50565b620005198162000431565b81146200052557600080fd5b50565b620005338162000445565b81146200053f57600080fd5b50565b6200054d8162000459565b81146200055957600080fd5b50565b62000567816200046d565b81146200057357600080fd5b50565b61478880620005866000396000f3fe608060405234801561001057600080fd5b50600436106100f55760003560e01c80636b0a493e11610097578063be4641e111610066578063be4641e11461022e578063bfe370d91461024a578063d71a48551461027a578063deb21fa214610296576100f5565b80636b0a493e146101be578063861f7dff146101da5780638dfc8f50146101f6578063944583c314610212576100f5565b8063426f5178116100d3578063426f51781461014e5780635dfa90e41461016a578063648c59eb14610186578063654ea484146101a2576100f5565b80630c8273e6146100fa57806337ab42bf146101165780633c840d4214610132575b600080fd5b610114600480360381019061010f9190612d50565b6102c6565b005b610130600480360381019061012b9190612dd0565b610633565b005b61014c60048036038101906101479190612dd0565b610822565b005b61016860048036038101906101639190612f0a565b610a11565b005b610184600480360381019061017f9190612e23565b610b56565b005b6101a0600480360381019061019b9190612d90565b610fce565b005b6101bc60048036038101906101b79190613019565b6110cd565b005b6101d860048036038101906101d39190612d90565b6115d3565b005b6101f460048036038101906101ef9190612f0a565b6118df565b005b610210600480360381019061020b9190612e7f565b611a33565b005b61022c60048036038101906102279190612e23565b61201e565b005b61024860048036038101906102439190612d90565b6123aa565b005b610264600480360381019061025f9190613138565b6126df565b60405161027191906138ca565b60405180910390f35b610294600480360381019061028f9190612f66565b612702565b005b6102b060048036038101906102ab9190613181565b612ae2565b6040516102bd91906138ca565b60405180910390f35b3373ffffffffffffffffffffffffffffffffffffffff168273ffffffffffffffffffffffffffffffffffffffff1614610334576040517f08c379a000000000000000000000000000000000000000000000000000000000815260040161032b906139ce565b60405180910390fd5b8073ffffffffffffffffffffffffffffffffffffffff168273ffffffffffffffffffffffffffffffffffffffff1614156103a3576040517f08c379a000000000000000000000000000000000000000000000000000000000815260040161039a90613bce565b60405180910390fd5b600073ffffffffffffffffffffffffffffffffffffffff16600260009054906101000a900473ffffffffffffffffffffffffffffffffffffffff1673ffffffffffffffffffffffffffffffffffffffff1663b4108a94846040518263ffffffff1660e01b815260040161041691906136ef565b60206040518083038186803b15801561042e57600080fd5b505afa158015610442573d6000803e3d6000fd5b505050506040513d601f19601f820116820180604052508101906104669190612d23565b73ffffffffffffffffffffffffffffffffffffffff16141580156105615750600073ffffffffffffffffffffffffffffffffffffffff16600260009054906101000a900473ffffffffffffffffffffffffffffffffffffffff1673ffffffffffffffffffffffffffffffffffffffff1663b4108a94836040518263ffffffff1660e01b81526004016104f891906136ef565b60206040518083038186803b15801561051057600080fd5b505afa158015610524573d6000803e3d6000fd5b505050506040513d601f19601f820116820180604052508101906105489190612d23565b73ffffffffffffffffffffffffffffffffffffffff1614155b6105a0576040517f08c379a000000000000000000000000000000000000000000000000000000000815260040161059790613ace565b60405180910390fd5b600660009054906101000a900473ffffffffffffffffffffffffffffffffffffffff1673ffffffffffffffffffffffffffffffffffffffff166399d147c283836040518363ffffffff1660e01b81526004016105fd92919061370a565b600060405180830381600087803b15801561061757600080fd5b505af115801561062b573d6000803e3d6000fd5b505050505050565b3373ffffffffffffffffffffffffffffffffffffffff168373ffffffffffffffffffffffffffffffffffffffff16146106a1576040517f08c379a000000000000000000000000000000000000000000000000000000000815260040161069890613b8e565b60405180910390fd5b8060008054906101000a900473ffffffffffffffffffffffffffffffffffffffff1673ffffffffffffffffffffffffffffffffffffffff166370a08231856040518263ffffffff1660e01b81526004016106fb91906136ef565b60206040518083038186803b15801561071357600080fd5b505afa158015610727573d6000803e3d6000fd5b505050506040513d601f19601f8201168201806040525081019061074b91906131ae565b101561078c576040517f08c379a000000000000000000000000000000000000000000000000000000000815260040161078390613aee565b60405180910390fd5b600760009054906101000a900473ffffffffffffffffffffffffffffffffffffffff1673ffffffffffffffffffffffffffffffffffffffff16636da307c88484846040518463ffffffff1660e01b81526004016107eb93929190613793565b600060405180830381600087803b15801561080557600080fd5b505af1158015610819573d6000803e3d6000fd5b50505050505050565b3373ffffffffffffffffffffffffffffffffffffffff168373ffffffffffffffffffffffffffffffffffffffff1614610890576040517f08c379a000000000000000000000000000000000000000000000000000000000815260040161088790613b8e565b60405180910390fd5b8060008054906101000a900473ffffffffffffffffffffffffffffffffffffffff1673ffffffffffffffffffffffffffffffffffffffff166370a08231856040518263ffffffff1660e01b81526004016108ea91906136ef565b60206040518083038186803b15801561090257600080fd5b505afa158015610916573d6000803e3d6000fd5b505050506040513d601f19601f8201168201806040525081019061093a91906131ae565b101561097b576040517f08c379a000000000000000000000000000000000000000000000000000000000815260040161097290613aee565b60405180910390fd5b600760009054906101000a900473ffffffffffffffffffffffffffffffffffffffff1673ffffffffffffffffffffffffffffffffffffffff16635d177c1c8484846040518463ffffffff1660e01b81526004016109da93929190613793565b600060405180830381600087803b1580156109f457600080fd5b505af1158015610a08573d6000803e3d6000fd5b50505050505050565b8173ffffffffffffffffffffffffffffffffffffffff163373ffffffffffffffffffffffffffffffffffffffff1614610a7f576040517f08c379a0000000000000000000000000000000000000000000000000000000008152600401610a7690613b4e565b60405180910390fd5b6000815111610ac3576040517f08c379a0000000000000000000000000000000000000000000000000000000008152600401610aba90613b0e565b60405180910390fd5b600260009054906101000a900473ffffffffffffffffffffffffffffffffffffffff1673ffffffffffffffffffffffffffffffffffffffff16630909014b83836040518363ffffffff1660e01b8152600401610b209291906137ca565b600060405180830381600087803b158015610b3a57600080fd5b505af1158015610b4e573d6000803e3d6000fd5b505050505050565b6000610b61826126df565b90508273ffffffffffffffffffffffffffffffffffffffff163373ffffffffffffffffffffffffffffffffffffffff1614610bd1576040517f08c379a0000000000000000000000000000000000000000000000000000000008152600401610bc890613b4e565b60405180910390fd5b7f40000000000000000000000000000000000000000000000000000000000000007effffffffffffffffffffffffffffffffffffffffffffffffffffffffffffff191682600081518110610c2857610c27613e85565b5b602001015160f81c60f81b7effffffffffffffffffffffffffffffffffffffffffffffffffffffffffffff191614610c95576040517f08c379a0000000000000000000000000000000000000000000000000000000008152600401610c8c90613c0e565b60405180910390fd5b60028251118015610ca857506020825111155b610ce7576040517f08c379a0000000000000000000000000000000000000000000000000000000008152600401610cde90613c4e565b60405180910390fd5b80600260009054906101000a900473ffffffffffffffffffffffffffffffffffffffff1673ffffffffffffffffffffffffffffffffffffffff1663e8fc954e856040518263ffffffff1660e01b8152600401610d4391906136ef565b60206040518083038186803b158015610d5b57600080fd5b505afa158015610d6f573d6000803e3d6000fd5b505050506040513d601f19601f82011682018060405250810190610d93919061310b565b1415610dd4576040517f08c379a0000000000000000000000000000000000000000000000000000000008152600401610dcb90613a8e565b60405180910390fd5b8273ffffffffffffffffffffffffffffffffffffffff16600260009054906101000a900473ffffffffffffffffffffffffffffffffffffffff1673ffffffffffffffffffffffffffffffffffffffff166311e0bda7836040518263ffffffff1660e01b8152600401610e4691906138ca565b60206040518083038186803b158015610e5e57600080fd5b505afa158015610e72573d6000803e3d6000fd5b505050506040513d601f19601f82011682018060405250810190610e969190612d23565b73ffffffffffffffffffffffffffffffffffffffff1614610eec576040517f08c379a0000000000000000000000000000000000000000000000000000000008152600401610ee390613a2e565b60405180910390fd5b600260009054906101000a900473ffffffffffffffffffffffffffffffffffffffff1673ffffffffffffffffffffffffffffffffffffffff1663a477c0bf84836040518363ffffffff1660e01b8152600401610f49929190613733565b600060405180830381600087803b158015610f6357600080fd5b505af1158015610f77573d6000803e3d6000fd5b505050508273ffffffffffffffffffffffffffffffffffffffff167f04d371655880a064ab42f6fee28675351cb26ca88a7e5a9d6140cb0ec6ca568d82604051610fc191906138ca565b60405180910390a2505050565b3373ffffffffffffffffffffffffffffffffffffffff168273ffffffffffffffffffffffffffffffffffffffff161461103c576040517f08c379a000000000000000000000000000000000000000000000000000000000815260040161103390613aae565b60405180910390fd5b600460009054906101000a900473ffffffffffffffffffffffffffffffffffffffff1673ffffffffffffffffffffffffffffffffffffffff1663aaf837c5826040518263ffffffff1660e01b815260040161109791906138ca565b600060405180830381600087803b1580156110b157600080fd5b505af11580156110c5573d6000803e3d6000fd5b505050505050565b3373ffffffffffffffffffffffffffffffffffffffff168673ffffffffffffffffffffffffffffffffffffffff161461113b576040517f08c379a000000000000000000000000000000000000000000000000000000000815260040161113290613c8e565b60405180910390fd5b610200855110611180576040517f08c379a000000000000000000000000000000000000000000000000000000000815260040161117790613c6e565b60405180910390fd5b600073ffffffffffffffffffffffffffffffffffffffff16600260009054906101000a900473ffffffffffffffffffffffffffffffffffffffff1673ffffffffffffffffffffffffffffffffffffffff1663b4108a94886040518263ffffffff1660e01b81526004016111f391906136ef565b60206040518083038186803b15801561120b57600080fd5b505afa15801561121f573d6000803e3d6000fd5b505050506040513d601f19601f820116820180604052508101906112439190612d23565b73ffffffffffffffffffffffffffffffffffffffff16141561129a576040517f08c379a000000000000000000000000000000000000000000000000000000000815260040161129190613a4e565b60405180910390fd5b600854831480156112ac575060085482145b80611365575060011515600160009054906101000a900473ffffffffffffffffffffffffffffffffffffffff1673ffffffffffffffffffffffffffffffffffffffff1663c627f1ee856040518263ffffffff1660e01b815260040161131191906138ca565b60206040518083038186803b15801561132957600080fd5b505afa15801561133d573d6000803e3d6000fd5b505050506040513d601f19601f8201168201806040525081019061136191906130de565b1515145b6113a4576040517f08c379a000000000000000000000000000000000000000000000000000000000815260040161139b90613bae565b60405180910390fd5b60011515600160009054906101000a900473ffffffffffffffffffffffffffffffffffffffff1673ffffffffffffffffffffffffffffffffffffffff1663c627f1ee836040518263ffffffff1660e01b815260040161140391906138ca565b60206040518083038186803b15801561141b57600080fd5b505afa15801561142f573d6000803e3d6000fd5b505050506040513d601f19601f8201168201806040525081019061145391906130de565b151514611495576040517f08c379a000000000000000000000000000000000000000000000000000000000815260040161148c9061398e565b60405180910390fd5b60008551141561153357600460009054906101000a900473ffffffffffffffffffffffffffffffffffffffff1673ffffffffffffffffffffffffffffffffffffffff16636b0a493e87836040518363ffffffff1660e01b81526004016114fc929190613733565b600060405180830381600087803b15801561151657600080fd5b505af115801561152a573d6000803e3d6000fd5b505050506115cb565b600460009054906101000a900473ffffffffffffffffffffffffffffffffffffffff1673ffffffffffffffffffffffffffffffffffffffff1663654ea4848787878787876040518763ffffffff1660e01b81526004016115989695949392919061385b565b600060405180830381600087803b1580156115b257600080fd5b505af11580156115c6573d6000803e3d6000fd5b505050505b505050505050565b3373ffffffffffffffffffffffffffffffffffffffff168273ffffffffffffffffffffffffffffffffffffffff1614611641576040517f08c379a000000000000000000000000000000000000000000000000000000000815260040161163890613c8e565b60405180910390fd5b600073ffffffffffffffffffffffffffffffffffffffff16600260009054906101000a900473ffffffffffffffffffffffffffffffffffffffff1673ffffffffffffffffffffffffffffffffffffffff1663b4108a94846040518263ffffffff1660e01b81526004016116b491906136ef565b60206040518083038186803b1580156116cc57600080fd5b505afa1580156116e0573d6000803e3d6000fd5b505050506040513d601f19601f820116820180604052508101906117049190612d23565b73ffffffffffffffffffffffffffffffffffffffff16141561175b576040517f08c379a000000000000000000000000000000000000000000000000000000000815260040161175290613a4e565b60405180910390fd5b60011515600160009054906101000a900473ffffffffffffffffffffffffffffffffffffffff1673ffffffffffffffffffffffffffffffffffffffff1663c627f1ee836040518263ffffffff1660e01b81526004016117ba91906138ca565b60206040518083038186803b1580156117d257600080fd5b505afa1580156117e6573d6000803e3d6000fd5b505050506040513d601f19601f8201168201806040525081019061180a91906130de565b15151461184c576040517f08c379a00000000000000000000000000000000000000000000000000000000081526004016118439061394e565b60405180910390fd5b600460009054906101000a900473ffffffffffffffffffffffffffffffffffffffff1673ffffffffffffffffffffffffffffffffffffffff16636b0a493e83836040518363ffffffff1660e01b81526004016118a9929190613733565b600060405180830381600087803b1580156118c357600080fd5b505af11580156118d7573d6000803e3d6000fd5b505050505050565b8173ffffffffffffffffffffffffffffffffffffffff163373ffffffffffffffffffffffffffffffffffffffff161461194d576040517f08c379a000000000000000000000000000000000000000000000000000000000815260040161194490613b4e565b60405180910390fd5b60008151118015611961575061012c815111155b6119a0576040517f08c379a00000000000000000000000000000000000000000000000000000000081526004016119979061396e565b60405180910390fd5b600260009054906101000a900473ffffffffffffffffffffffffffffffffffffffff1673ffffffffffffffffffffffffffffffffffffffff166320aba4da83836040518363ffffffff1660e01b81526004016119fd9291906137ca565b600060405180830381600087803b158015611a1757600080fd5b505af1158015611a2b573d6000803e3d6000fd5b505050505050565b8273ffffffffffffffffffffffffffffffffffffffff163373ffffffffffffffffffffffffffffffffffffffff1614611aa1576040517f08c379a0000000000000000000000000000000000000000000000000000000008152600401611a98906139ee565b60405180910390fd5b60018251118015611ab457506020825111155b611af3576040517f08c379a0000000000000000000000000000000000000000000000000000000008152600401611aea90613a6e565b60405180910390fd5b7f40000000000000000000000000000000000000000000000000000000000000007effffffffffffffffffffffffffffffffffffffffffffffffffffffffffffff191681600081518110611b4a57611b49613e85565b5b602001015160f81c60f81b7effffffffffffffffffffffffffffffffffffffffffffffffffffffffffffff191614611bb7576040517f08c379a0000000000000000000000000000000000000000000000000000000008152600401611bae90613c0e565b60405180910390fd5b60028151118015611bca57506020815111155b611c09576040517f08c379a0000000000000000000000000000000000000000000000000000000008152600401611c0090613c4e565b60405180910390fd5b8273ffffffffffffffffffffffffffffffffffffffff16600260009054906101000a900473ffffffffffffffffffffffffffffffffffffffff1673ffffffffffffffffffffffffffffffffffffffff1663b4108a94856040518263ffffffff1660e01b8152600401611c7b91906136ef565b60206040518083038186803b158015611c9357600080fd5b505afa158015611ca7573d6000803e3d6000fd5b505050506040513d601f19601f82011682018060405250810190611ccb9190612d23565b73ffffffffffffffffffffffffffffffffffffffff16141580611dc45750600073ffffffffffffffffffffffffffffffffffffffff16600260009054906101000a900473ffffffffffffffffffffffffffffffffffffffff1673ffffffffffffffffffffffffffffffffffffffff1663b4108a94856040518263ffffffff1660e01b8152600401611d5c91906136ef565b60206040518083038186803b158015611d7457600080fd5b505afa158015611d88573d6000803e3d6000fd5b505050506040513d601f19601f82011682018060405250810190611dac9190612d23565b73ffffffffffffffffffffffffffffffffffffffff16145b611e03576040517f08c379a0000000000000000000000000000000000000000000000000000000008152600401611dfa90613b2e565b60405180910390fd5b6000611e0e826126df565b9050600073ffffffffffffffffffffffffffffffffffffffff16600260009054906101000a900473ffffffffffffffffffffffffffffffffffffffff1673ffffffffffffffffffffffffffffffffffffffff166311e0bda7836040518263ffffffff1660e01b8152600401611e8391906138ca565b60206040518083038186803b158015611e9b57600080fd5b505afa158015611eaf573d6000803e3d6000fd5b505050506040513d601f19601f82011682018060405250810190611ed39190612d23565b73ffffffffffffffffffffffffffffffffffffffff1614611f29576040517f08c379a0000000000000000000000000000000000000000000000000000000008152600401611f2090613bee565b60405180910390fd5b6000611f34846126df565b9050600360009054906101000a900473ffffffffffffffffffffffffffffffffffffffff1673ffffffffffffffffffffffffffffffffffffffff166314def8368683856040518463ffffffff1660e01b8152600401611f959392919061375c565b600060405180830381600087803b158015611faf57600080fd5b505af1158015611fc3573d6000803e3d6000fd5b505050508473ffffffffffffffffffffffffffffffffffffffff167f5ef99684cfef8b5446d6ca2c82757ec3aa390143139c074ccfec758263416107828460405161200f9291906138e5565b60405180910390a25050505050565b6000612029826126df565b90508273ffffffffffffffffffffffffffffffffffffffff163373ffffffffffffffffffffffffffffffffffffffff1614612099576040517f08c379a000000000000000000000000000000000000000000000000000000000815260040161209090613b4e565b60405180910390fd5b80600260009054906101000a900473ffffffffffffffffffffffffffffffffffffffff1673ffffffffffffffffffffffffffffffffffffffff16635fd4b08a856040518263ffffffff1660e01b81526004016120f591906136ef565b60206040518083038186803b15801561210d57600080fd5b505afa158015612121573d6000803e3d6000fd5b505050506040513d601f19601f82011682018060405250810190612145919061310b565b1415612186576040517f08c379a000000000000000000000000000000000000000000000000000000000815260040161217d9061392e565b60405180910390fd5b6001825111801561219957506020825111155b6121d8576040517f08c379a00000000000000000000000000000000000000000000000000000000081526004016121cf90613a6e565b60405180910390fd5b6000801b600260009054906101000a900473ffffffffffffffffffffffffffffffffffffffff1673ffffffffffffffffffffffffffffffffffffffff166365f68c89856040518263ffffffff1660e01b815260040161223791906136ef565b60206040518083038186803b15801561224f57600080fd5b505afa158015612263573d6000803e3d6000fd5b505050506040513d601f19601f82011682018060405250810190612287919061310b565b14156122c8576040517f08c379a00000000000000000000000000000000000000000000000000000000081526004016122bf90613a0e565b60405180910390fd5b600260009054906101000a900473ffffffffffffffffffffffffffffffffffffffff1673ffffffffffffffffffffffffffffffffffffffff16630667e80584836040518363ffffffff1660e01b8152600401612325929190613733565b600060405180830381600087803b15801561233f57600080fd5b505af1158015612353573d6000803e3d6000fd5b505050508273ffffffffffffffffffffffffffffffffffffffff167f72b1cf0bc13f95f0e133d81e3f2eb157e6bb587fc674744d4a199fb0227825128260405161239d91906138ca565b60405180910390a2505050565b3373ffffffffffffffffffffffffffffffffffffffff168273ffffffffffffffffffffffffffffffffffffffff1614612418576040517f08c379a000000000000000000000000000000000000000000000000000000000815260040161240f906139ae565b60405180910390fd5b600073ffffffffffffffffffffffffffffffffffffffff16600260009054906101000a900473ffffffffffffffffffffffffffffffffffffffff1673ffffffffffffffffffffffffffffffffffffffff1663b4108a94846040518263ffffffff1660e01b815260040161248b91906136ef565b60206040518083038186803b1580156124a357600080fd5b505afa1580156124b7573d6000803e3d6000fd5b505050506040513d601f19601f820116820180604052508101906124db9190612d23565b73ffffffffffffffffffffffffffffffffffffffff161415612532576040517f08c379a00000000000000000000000000000000000000000000000000000000081526004016125299061390e565b60405180910390fd5b600073ffffffffffffffffffffffffffffffffffffffff16600160009054906101000a900473ffffffffffffffffffffffffffffffffffffffff1673ffffffffffffffffffffffffffffffffffffffff1663691d1c28836040518263ffffffff1660e01b81526004016125a591906138ca565b60206040518083038186803b1580156125bd57600080fd5b505afa1580156125d1573d6000803e3d6000fd5b505050506040513d601f19601f820116820180604052508101906125f59190612d23565b73ffffffffffffffffffffffffffffffffffffffff16141561264c576040517f08c379a000000000000000000000000000000000000000000000000000000000815260040161264390613b6e565b60405180910390fd5b600560009054906101000a900473ffffffffffffffffffffffffffffffffffffffff1673ffffffffffffffffffffffffffffffffffffffff1663be4641e183836040518363ffffffff1660e01b81526004016126a9929190613733565b600060405180830381600087803b1580156126c357600080fd5b505af11580156126d7573d6000803e3d6000fd5b505050505050565b600080825114156126f5576000801b90506126fd565b602082015190505b919050565b3373ffffffffffffffffffffffffffffffffffffffff168573ffffffffffffffffffffffffffffffffffffffff1614612770576040517f08c379a000000000000000000000000000000000000000000000000000000000815260040161276790613c8e565b60405180910390fd5b60008451116127b4576040517f08c379a00000000000000000000000000000000000000000000000000000000081526004016127ab90613c2e565b60405180910390fd5b6102008451106127f9576040517f08c379a00000000000000000000000000000000000000000000000000000000081526004016127f090613c6e565b60405180910390fd5b600073ffffffffffffffffffffffffffffffffffffffff16600260009054906101000a900473ffffffffffffffffffffffffffffffffffffffff1673ffffffffffffffffffffffffffffffffffffffff1663b4108a94876040518263ffffffff1660e01b815260040161286c91906136ef565b60206040518083038186803b15801561288457600080fd5b505afa158015612898573d6000803e3d6000fd5b505050506040513d601f19601f820116820180604052508101906128bc9190612d23565b73ffffffffffffffffffffffffffffffffffffffff161415612913576040517f08c379a000000000000000000000000000000000000000000000000000000000815260040161290a90613a4e565b60405180910390fd5b60085482148015612925575060085481145b80612a075750600073ffffffffffffffffffffffffffffffffffffffff16600260009054906101000a900473ffffffffffffffffffffffffffffffffffffffff1673ffffffffffffffffffffffffffffffffffffffff166377dd8a03846040518263ffffffff1660e01b815260040161299e91906138ca565b60206040518083038186803b1580156129b657600080fd5b505afa1580156129ca573d6000803e3d6000fd5b505050506040513d601f19601f820116820180604052508101906129ee9190612d23565b73ffffffffffffffffffffffffffffffffffffffff1614155b612a46576040517f08c379a0000000000000000000000000000000000000000000000000000000008152600401612a3d90613bae565b60405180910390fd5b600460009054906101000a900473ffffffffffffffffffffffffffffffffffffffff1673ffffffffffffffffffffffffffffffffffffffff1663d71a485586868686866040518663ffffffff1660e01b8152600401612aa99594939291906137fa565b600060405180830381600087803b158015612ac357600080fd5b505af1158015612ad7573d6000803e3d6000fd5b505050505050505050565b600081604051602001612af591906136d4565b604051602081830303815290604052805190602001209050919050565b6000612b25612b2084613cd3565b613cae565b90508083825260208201905082856020860282011115612b4857612b47613ee8565b5b60005b85811015612b785781612b5e8882612c06565b845260208401935060208301925050600181019050612b4b565b5050509392505050565b6000612b95612b9084613cff565b613cae565b905082815260208101848484011115612bb157612bb0613eed565b5b612bbc848285613e08565b509392505050565b6000612bd7612bd284613d30565b613cae565b905082815260208101848484011115612bf357612bf2613eed565b5b612bfe848285613e08565b509392505050565b600081359050612c15816146f6565b92915050565b600081519050612c2a816146f6565b92915050565b600082601f830112612c4557612c44613ee3565b5b8135612c55848260208601612b12565b91505092915050565b600081519050612c6d8161470d565b92915050565b600081359050612c8281614724565b92915050565b600081519050612c9781614724565b92915050565b600082601f830112612cb257612cb1613ee3565b5b8135612cc2848260208601612b82565b91505092915050565b600082601f830112612ce057612cdf613ee3565b5b8135612cf0848260208601612bc4565b91505092915050565b600081359050612d088161473b565b92915050565b600081519050612d1d8161473b565b92915050565b600060208284031215612d3957612d38613ef7565b5b6000612d4784828501612c1b565b91505092915050565b60008060408385031215612d6757612d66613ef7565b5b6000612d7585828601612c06565b9250506020612d8685828601612c06565b9150509250929050565b60008060408385031215612da757612da6613ef7565b5b6000612db585828601612c06565b9250506020612dc685828601612c73565b9150509250929050565b600080600060608486031215612de957612de8613ef7565b5b6000612df786828701612c06565b9350506020612e0886828701612c73565b9250506040612e1986828701612cf9565b9150509250925092565b60008060408385031215612e3a57612e39613ef7565b5b6000612e4885828601612c06565b925050602083013567ffffffffffffffff811115612e6957612e68613ef2565b5b612e7585828601612c9d565b9150509250929050565b600080600060608486031215612e9857612e97613ef7565b5b6000612ea686828701612c06565b935050602084013567ffffffffffffffff811115612ec757612ec6613ef2565b5b612ed386828701612c9d565b925050604084013567ffffffffffffffff811115612ef457612ef3613ef2565b5b612f0086828701612c9d565b9150509250925092565b60008060408385031215612f2157612f20613ef7565b5b6000612f2f85828601612c06565b925050602083013567ffffffffffffffff811115612f5057612f4f613ef2565b5b612f5c85828601612ccb565b9150509250929050565b600080600080600060a08688031215612f8257612f81613ef7565b5b6000612f9088828901612c06565b955050602086013567ffffffffffffffff811115612fb157612fb0613ef2565b5b612fbd88828901612ccb565b945050604086013567ffffffffffffffff811115612fde57612fdd613ef2565b5b612fea88828901612c30565b9350506060612ffb88828901612c73565b925050608061300c88828901612c73565b9150509295509295909350565b60008060008060008060c0878903121561303657613035613ef7565b5b600061304489828a01612c06565b965050602087013567ffffffffffffffff81111561306557613064613ef2565b5b61307189828a01612ccb565b955050604087013567ffffffffffffffff81111561309257613091613ef2565b5b61309e89828a01612c30565b94505060606130af89828a01612c73565b93505060806130c089828a01612c73565b92505060a06130d189828a01612c73565b9150509295509295509295565b6000602082840312156130f4576130f3613ef7565b5b600061310284828501612c5e565b91505092915050565b60006020828403121561312157613120613ef7565b5b600061312f84828501612c88565b91505092915050565b60006020828403121561314e5761314d613ef7565b5b600082013567ffffffffffffffff81111561316c5761316b613ef2565b5b61317884828501612c9d565b91505092915050565b60006020828403121561319757613196613ef7565b5b60006131a584828501612cf9565b91505092915050565b6000602082840312156131c4576131c3613ef7565b5b60006131d284828501612d0e565b91505092915050565b60006131e783836131f3565b60208301905092915050565b6131fc81613db6565b82525050565b61320b81613db6565b82525050565b600061321c82613d71565b6132268185613d94565b935061323183613d61565b8060005b8381101561326257815161324988826131db565b975061325483613d87565b925050600181019050613235565b5085935050505092915050565b61327881613dd4565b82525050565b600061328982613d7c565b6132938185613da5565b93506132a3818560208601613e17565b6132ac81613efc565b840191505092915050565b60006132c4602383613da5565b91506132cf82613f0d565b604082019050919050565b60006132e7602183613da5565b91506132f282613f5c565b604082019050919050565b600061330a602283613da5565b915061331582613fab565b604082019050919050565b600061332d603583613da5565b915061333882613ffa565b604082019050919050565b6000613350601883613da5565b915061335b82614049565b602082019050919050565b6000613373602683613da5565b915061337e82614072565b604082019050919050565b6000613396602983613da5565b91506133a1826140c1565b604082019050919050565b60006133b9602683613da5565b91506133c482614110565b604082019050919050565b60006133dc602483613da5565b91506133e78261415f565b604082019050919050565b60006133ff603183613da5565b915061340a826141ae565b604082019050919050565b6000613422602083613da5565b915061342d826141fd565b602082019050919050565b6000613445603183613da5565b915061345082614226565b604082019050919050565b6000613468602583613da5565b915061347382614275565b604082019050919050565b600061348b602383613da5565b9150613496826142c4565b604082019050919050565b60006134ae603483613da5565b91506134b982614313565b604082019050919050565b60006134d1602a83613da5565b91506134dc82614362565b604082019050919050565b60006134f4601b83613da5565b91506134ff826143b1565b602082019050919050565b6000613517601d83613da5565b9150613522826143da565b602082019050919050565b600061353a602583613da5565b915061354582614403565b604082019050919050565b600061355d601683613da5565b915061356882614452565b602082019050919050565b6000613580602183613da5565b915061358b8261447b565b604082019050919050565b60006135a3603783613da5565b91506135ae826144ca565b604082019050919050565b60006135c6601383613da5565b91506135d182614519565b602082019050919050565b60006135e9602283613da5565b91506135f482614542565b604082019050919050565b600061360c602a83613da5565b915061361782614591565b604082019050919050565b600061362f601a83613da5565b915061363a826145e0565b602082019050919050565b6000613652603483613da5565b915061365d82614609565b604082019050919050565b6000613675603183613da5565b915061368082614658565b604082019050919050565b6000613698602183613da5565b91506136a3826146a7565b604082019050919050565b6136b781613dfe565b82525050565b6136ce6136c982613dfe565b613e7b565b82525050565b60006136e082846136bd565b60208201915081905092915050565b60006020820190506137046000830184613202565b92915050565b600060408201905061371f6000830185613202565b61372c6020830184613202565b9392505050565b60006040820190506137486000830185613202565b613755602083018461326f565b9392505050565b60006060820190506137716000830186613202565b61377e602083018561326f565b61378b604083018461326f565b949350505050565b60006060820190506137a86000830186613202565b6137b5602083018561326f565b6137c260408301846136ae565b949350505050565b60006040820190506137df6000830185613202565b81810360208301526137f1818461327e565b90509392505050565b600060a08201905061380f6000830188613202565b8181036020830152613821818761327e565b905081810360408301526138358186613211565b9050613844606083018561326f565b613851608083018461326f565b9695505050505050565b600060c0820190506138706000830189613202565b8181036020830152613882818861327e565b905081810360408301526138968187613211565b90506138a5606083018661326f565b6138b2608083018561326f565b6138bf60a083018461326f565b979650505050505050565b60006020820190506138df600083018461326f565b92915050565b60006040820190506138fa600083018561326f565b613907602083018461326f565b9392505050565b60006020820190508181036000830152613927816132b7565b9050919050565b60006020820190508181036000830152613947816132da565b9050919050565b60006020820190508181036000830152613967816132fd565b9050919050565b6000602082019050818103600083015261398781613320565b9050919050565b600060208201905081810360008301526139a781613343565b9050919050565b600060208201905081810360008301526139c781613366565b9050919050565b600060208201905081810360008301526139e781613389565b9050919050565b60006020820190508181036000830152613a07816133ac565b9050919050565b60006020820190508181036000830152613a27816133cf565b9050919050565b60006020820190508181036000830152613a47816133f2565b9050919050565b60006020820190508181036000830152613a6781613415565b9050919050565b60006020820190508181036000830152613a8781613438565b9050919050565b60006020820190508181036000830152613aa78161345b565b9050919050565b60006020820190508181036000830152613ac78161347e565b9050919050565b60006020820190508181036000830152613ae7816134a1565b9050919050565b60006020820190508181036000830152613b07816134c4565b9050919050565b60006020820190508181036000830152613b27816134e7565b9050919050565b60006020820190508181036000830152613b478161350a565b9050919050565b60006020820190508181036000830152613b678161352d565b9050919050565b60006020820190508181036000830152613b8781613550565b9050919050565b60006020820190508181036000830152613ba781613573565b9050919050565b60006020820190508181036000830152613bc781613596565b9050919050565b60006020820190508181036000830152613be7816135b9565b9050919050565b60006020820190508181036000830152613c07816135dc565b9050919050565b60006020820190508181036000830152613c27816135ff565b9050919050565b60006020820190508181036000830152613c4781613622565b9050919050565b60006020820190508181036000830152613c6781613645565b9050919050565b60006020820190508181036000830152613c8781613668565b9050919050565b60006020820190508181036000830152613ca78161368b565b9050919050565b6000613cb8613cc9565b9050613cc48282613e4a565b919050565b6000604051905090565b600067ffffffffffffffff821115613cee57613ced613eb4565b5b602082029050602081019050919050565b600067ffffffffffffffff821115613d1a57613d19613eb4565b5b613d2382613efc565b9050602081019050919050565b600067ffffffffffffffff821115613d4b57613d4a613eb4565b5b613d5482613efc565b9050602081019050919050565b6000819050602082019050919050565b600081519050919050565b600081519050919050565b6000602082019050919050565b600082825260208201905092915050565b600082825260208201905092915050565b6000613dc182613dde565b9050919050565b60008115159050919050565b6000819050919050565b600073ffffffffffffffffffffffffffffffffffffffff82169050919050565b6000819050919050565b82818337600083830152505050565b60005b83811015613e35578082015181840152602081019050613e1a565b83811115613e44576000848401525b50505050565b613e5382613efc565b810181811067ffffffffffffffff82111715613e7257613e71613eb4565b5b80604052505050565b6000819050919050565b7f4e487b7100000000000000000000000000000000000000000000000000000000600052603260045260246000fd5b7f4e487b7100000000000000000000000000000000000000000000000000000000600052604160045260246000fd5b600080fd5b600080fd5b600080fd5b600080fd5b600080fd5b6000601f19601f8301169050919050565b7f4572726f723a204d656d65206c696b6564206d7573742068617665206164647260008201527f6573730000000000000000000000000000000000000000000000000000000000602082015250565b7f4572726f723a206d75737420626520646966666572656e7420757365726e616d60008201527f6500000000000000000000000000000000000000000000000000000000000000602082015250565b7f4572726f723a207265706f73746564206d656d6520646f65736e27742065786960008201527f7374000000000000000000000000000000000000000000000000000000000000602082015250565b7f4572726f723a207573657241646472657373206d75737420626520626574776560008201527f656e203220262033303020636861726163746572730000000000000000000000602082015250565b7f4572726f723a207265706f7374206d7573742065786973740000000000000000600082015250565b7f4572726f723a206c696b6572206d757374206265206f7065726174696e67206160008201527f63636f756e740000000000000000000000000000000000000000000000000000602082015250565b7f4572726f723a20666f6c6c6f776572206d757374206265206f7065726174696e60008201527f67206163636f756e740000000000000000000000000000000000000000000000602082015250565b7f4572726f723a206163636f756e74206d757374206265206163636f756e74206360008201527f726561746f720000000000000000000000000000000000000000000000000000602082015250565b7f4572726f723a206d757374206861766520616e206578697374696e672061636360008201527f6f756e7400000000000000000000000000000000000000000000000000000000602082015250565b7f4572726f723a20757365722061646472657373206d757374206578697374206160008201527f742063757272656e742061646472657373000000000000000000000000000000602082015250565b7f4572726f723a207573657220646f65736e27742068617665206163636f756e74600082015250565b7f4572726f723a20757365724e616d65206d757374206265206265747765656e2060008201527f3220262033322063686172616374657273000000000000000000000000000000602082015250565b7f4572726f723a206d75737420626520646966666572656e74207573657220616460008201527f6472657373000000000000000000000000000000000000000000000000000000602082015250565b7f4572726f723a206f6e6c79206163636f756e742063616e2064656c657465206d60008201527f656d650000000000000000000000000000000000000000000000000000000000602082015250565b7f4572726f723a20626f746820666f6c6c6f77657220616e6420666f6c6c6f776560008201527f65206d7573742068617665206163636f756e7473000000000000000000000000602082015250565b7f4572726f723a20626f6f73746572206d757374206861766520746f6b656e732060008201527f696e2062616c616e636500000000000000000000000000000000000000000000602082015250565b7f4572726f723a206d757374206861766520696d61676520686173680000000000600082015250565b7f4572726f723a206163636f756e7420616c726561647920657869737473000000600082015250565b7f4572726f723a206f70657261746f72206d757374206265206163636f756e742060008201527f6f776e6572000000000000000000000000000000000000000000000000000000602082015250565b7f4572726f723a204d656d65206d75737420657869737400000000000000000000600082015250565b7f4572726f723a20626f6f73746572206d757374206265206d73672e73656e646560008201527f7200000000000000000000000000000000000000000000000000000000000000602082015250565b7f4572726f723a2065697468657220706172656e74266f726967696e206172652060008201527f7a65726f206f722074686579206d757374206578697374000000000000000000602082015250565b7f4572726f723a2073616d65206163636f756e7400000000000000000000000000600082015250565b7f4572726f723a2075736572206164647265737320616c7265616479206578697360008201527f7473000000000000000000000000000000000000000000000000000000000000602082015250565b7f4572726f723a20666972737420656c656d656e74206f6620737472696e67206d60008201527f7573742062652022402200000000000000000000000000000000000000000000602082015250565b7f4572726f723a206d656d65206d75737420686176652074657874000000000000600082015250565b7f4572726f723a207573657241646472657373206d75737420626520626574776560008201527f656e203220262033322063686172616374657273000000000000000000000000602082015250565b7f4572726f723a206d656d652074657874206d757374206265206c65737320746860008201527f616e203531322063686172616374657273000000000000000000000000000000602082015250565b7f4572726f723a2077726f6e67206163636f756e742063616c6c696e6720706f7360008201527f7400000000000000000000000000000000000000000000000000000000000000602082015250565b6146ff81613db6565b811461470a57600080fd5b50565b61471681613dc8565b811461472157600080fd5b50565b61472d81613dd4565b811461473857600080fd5b50565b61474481613dfe565b811461474f57600080fd5b5056fea2646970667358221220bf4bc9cdf1228d89681a72a11432a77b7d736063311e8cd94de4236fe40352b964736f6c63430008070033",
  "immutableReferences": {},
  "source": "// SPDX-License-Identifier: MIT\n\npragma solidity >=0.8.0 <0.9.0;\n\nimport \"./Follow.sol\";\nimport \"./Like.sol\";\nimport \"./Post.sol\";\nimport \"./Boost.sol\";\nimport \"./UME.sol\";\nimport \"./MemeStorage.sol\";\nimport \"./UserFactory.sol\";\nimport \"./UserStorage.sol\";\n\ncontract UserInterface {\n\n  UME private umeToken;\n  MemeStorage private memeStorage;\n  UserStorage private userStorage;\n  UserFactory private userFactory;\n\n  Post private post;\n  Like private like;\n  Follow private follow;\n  Boost private boost;\n\n  bytes32 zeroBytes;\n\n  /*\n  struct User {\n    uint id; // user number in order\n    string name; // user name\n    string userAddr; // user address (@)\n    uint time; // user creation time\n    address addr; // address of user\n    address[] followers; // addresses of followers\n    address[] following; // addressses of following\n    uint[] posts; // memeIds of posts\n  }\n  */\n\n  event NewUser(\n    address indexed account,\n    bytes32 userName,\n    bytes32 userAddress);\n  event ChangedUserName(\n    address indexed account,\n    bytes32 userName);\n  event ChangedUserAddress(\n    address indexed account,\n    bytes32 userAddress);\n\n  constructor(\n    UME _umeToken,\n    MemeStorage _memeStorage,\n    UserStorage _userStorage,\n    UserFactory _userFactory,\n    Post _post,\n    Like _like,\n    Follow _follow,\n    Boost _boost\n  ) public {\n    umeToken = _umeToken;\n    memeStorage = _memeStorage;\n    userStorage = _userStorage;\n    userFactory = _userFactory;\n    post = _post;\n    like = _like;\n    follow = _follow;\n    boost = _boost;\n  }\n\n  function newUser(\n    address _account,\n    bytes memory _userName,\n    bytes memory _userAddress\n  ) public {\n    require(\n      msg.sender==_account,\n      'Error: account must be account creator');\n    require(\n      _userName.length>1 &&\n      _userName.length<=32,\n      'Error: userName must be between 2 & 32 characters');\n    require(\n      _userAddress[0]==bytes1('@'),\n      'Error: first element of string must be \"@\"');\n    require(\n      _userAddress.length>2 &&\n      _userAddress.length<=32,\n      'Error: userAddress must be between 2 & 32 characters');\n    require(\n      (userStorage.getAddr(_account)!=_account || userStorage.getAddr(_account)==address(0x0)),\n      'Error: account already exists');\n    bytes32 _ua = bytesToBytes32(_userAddress);\n    require(\n      userStorage.usersByUserAddr(_ua)==address(0x0),\n      'Error: user address already exists');\n\n    bytes32 _un = bytesToBytes32(_userName);\n    userFactory.newUser(_account, _un, _ua);\n    emit NewUser(_account, _un, _ua);\n  }\n  function changeUserName(\n    address _account,\n    bytes memory _userName\n  ) public {\n    bytes32 _un = bytesToBytes32(_userName);\n    require(\n      msg.sender==_account,\n      'Error: operator must be account owner');\n    require(\n      userStorage.getName(_account)!=_un,\n      'Error: must be different username');\n    require(\n      _userName.length>1 &&\n      _userName.length<=32,\n      'Error: userName must be between 2 & 32 characters');\n    require(\n      userStorage.getId(_account)!=0,\n      'Error: must have an existing account');\n\n    userStorage.setUserName(_account, _un);\n    emit ChangedUserName(_account, _un);\n  }\n  function changeUserAddress(\n    address _account,\n    bytes memory _userAddress\n  ) public {\n    bytes32 _ua = bytesToBytes32(_userAddress);\n    require(\n      msg.sender==_account,\n      'Error: operator must be account owner');\n    require(\n      _userAddress[0]==bytes1('@'),\n      'Error: first element of string must be \"@\"');\n    require(\n      _userAddress.length>2 &&\n      _userAddress.length<=32,\n      'Error: userAddress must be between 2 & 32 characters');\n    require(\n      userStorage.getUserAddr(_account)!=_ua,\n      'Error: must be different user address');\n    require(\n      userStorage.usersByUserAddr(_ua)==_account,\n      'Error: user address must exist at current address');\n\n    userStorage.setUserAddress(_account, _ua);\n    emit ChangedUserAddress(_account, _ua);\n  }\n\n  function newBio(\n    address _account,\n    string memory _bio\n  ) public {\n    require(\n      msg.sender==_account,\n      'Error: operator must be account owner');\n    require(\n      bytes(_bio).length>0 &&\n      bytes(_bio).length<=300,\n      'Error: userAddress must be between 2 & 300 characters');\n    userStorage.setBio(_account, _bio);\n  }\n\n  function newProfilePic(\n    address _account,\n    string memory _imgHash\n  ) public {\n    require(\n      msg.sender==_account,\n      'Error: operator must be account owner');\n    require(\n      bytes(_imgHash).length>0,\n      'Error: must have image hash');\n    userStorage.setProfilePic(_account, _imgHash);\n  }\n\n\n  // Meme posting functionality\n  function newMeme(\n    address _account,\n    string memory _postText,\n    address[] memory _tags,\n    bytes32 _parentId,\n    bytes32 _originId\n  ) public {\n    require(\n      _account==msg.sender,\n      'Error: wrong account calling post');\n    require(\n      bytes(_postText).length > 0,\n      'Error: meme must have text');\n    require(\n      bytes(_postText).length < 512,\n      'Error: meme text must be less than 512 characters');\n    require(\n      userStorage.getAddr(_account)!=address(0x0),\n      'Error: user doesn\\'t have account');\n    require(\n      (_parentId==zeroBytes && _originId==zeroBytes) ||\n      userStorage.usersByMeme(_parentId)!=address(0x0),\n      'Error: either parent&origin are zero or they must exist');\n    // post new meme\n    post.newMeme(_account, _postText, _tags, _parentId, _originId);\n  }\n  function rememe(\n    address _account,\n    bytes32 _memeId\n  ) public {\n    require(\n      _account==msg.sender,\n      'Error: wrong account calling post');\n    require(\n      userStorage.getAddr(_account)!=address(0x0),\n      'Error: user doesn\\'t have account');\n    require(\n      memeStorage.getVisibility(_memeId)==true,\n      'Error: reposted meme doesn\\'t exist');\n    // repost meme\n    post.rememe(_account, _memeId);\n  }\n  function quoteMeme(\n    address _account,\n    string memory _postText,\n    address[] memory _tags,\n    bytes32 _parentId,\n    bytes32 _originId,\n    bytes32 _memeId\n  ) public {\n    require(\n      _account==msg.sender,\n      'Error: wrong account calling post');\n    require(\n      bytes(_postText).length < 512,\n      'Error: meme text must be less than 512 characters');\n    require(\n      userStorage.getAddr(_account)!=address(0x0),\n      'Error: user doesn\\'t have account');\n    require(\n      (_parentId==zeroBytes && _originId==zeroBytes) ||\n      memeStorage.getVisibility(_parentId)==true,\n      'Error: either parent&origin are zero or they must exist');\n    require(\n      memeStorage.getVisibility(_memeId)==true,\n      'Error: repost must exist');\n    if(bytes(_postText).length==0) {\n      post.rememe(_account, _memeId);\n    }\n    else {\n      post.quoteMeme(_account, _postText, _tags, _parentId, _originId, _memeId);\n    }\n  }\n\n  function deleteMeme(\n    address _account,\n    bytes32 _memeId\n  ) public {\n    require(\n      _account==msg.sender,\n      'Error: only account can delete meme');\n    post.deleteMeme(_memeId);\n  }\n\n\n  // like functions\n  function likeMeme(\n    address _account,\n    bytes32 _memeId\n  ) public {\n     require(\n       _account==msg.sender,\n       'Error: liker must be operating account');\n     require(\n       userStorage.getAddr(_account)!=address(0x0),\n       'Error: Meme liked must have address');\n     require(\n       memeStorage.getAuthor(_memeId)!=address(0x0),\n       'Error: Meme must exist');\n\n     like.likeMeme(_account, _memeId);\n  }\n\n  function followUser(\n    address _from,\n    address _to\n  ) public {\n    require(\n      _from==msg.sender,\n      'Error: follower must be operating account');\n    require(\n      _from!=_to,\n      'Error: same account');\n    require(\n      userStorage.getAddr(_from)!=address(0x0) &&\n      userStorage.getAddr(_to)!=address(0x0),\n      'Error: both follower and followee must have accounts');\n\n    follow.follow(_from, _to);\n  }\n\n  function boostMeme(\n    address _account,\n    bytes32 _memeId,\n    uint _boostNumber\n  ) public {\n    require(\n      _account==msg.sender,\n      'Error: booster must be msg.sender');\n    require(\n      umeToken.balanceOf(_account)>=_boostNumber,\n      'Error: booster must have tokens in balance');\n    boost.boostCall(_account, _memeId, _boostNumber);\n  }\n  function unBoostMeme(\n    address _account,\n    bytes32 _memeId,\n    uint _boostNumber\n  ) public {\n    require(\n      _account==msg.sender,\n      'Error: booster must be msg.sender');\n    require(\n      umeToken.balanceOf(_account)>=_boostNumber,\n      'Error: booster must have tokens in balance');\n    boost.unBoostCall(_account, _memeId, _boostNumber);\n  }\n\n  // helper functions\n  function bytesToBytes32(bytes memory source) public pure returns(bytes32 result) {\n    if(source.length==0) return 0x0;\n    assembly {\n      result := mload(add(source, 32))\n    }\n  }\n\n  function encode(uint num) public view returns(bytes32) {\n    return keccak256(abi.encodePacked(num));\n  }\n\n  function _deleteUints(uint[] memory array, uint index) private pure returns(uint[] memory) {\n    uint[] memory _array = new uint[](array.length-1);\n    for(uint i = 0; i < index; i++) {\n      _array[i] = array[i];\n    }\n    for(uint i = index; i < _array.length; i++) {\n      _array[i] = array[i+1];\n    }\n    return _array;\n  }\n}\n",
  "sourcePath": "/Users/jaiq/Documents/000 BLOCKCHAIN/ETH/uMe/src/contracts/UserInterface.sol",
  "compiler": {
    "name": "solc",
    "version": "0.8.7+commit.e28d00a7.Emscripten.clang"
  },
  "schemaVersion": "3.4.3",
  "updatedAt": "2021-09-23T23:28:14.358Z",
  "networkType": "ethereum",
  "devdoc": {
    "kind": "dev",
    "methods": {},
    "version": 1
  },
  "userdoc": {
    "kind": "user",
    "methods": {},
    "version": 1
  }
}