{
  "contractName": "UserInterface",
  "abi": [
    {
      "inputs": [
        {
          "internalType": "contract UME",
          "name": "_umeToken",
          "type": "address"
        },
        {
          "internalType": "contract MemeStorage",
          "name": "_memeStorage",
          "type": "address"
        },
        {
          "internalType": "contract UserStorage",
          "name": "_userStorage",
          "type": "address"
        },
        {
          "internalType": "contract Post",
          "name": "_post",
          "type": "address"
        },
        {
          "internalType": "contract Like",
          "name": "_like",
          "type": "address"
        },
        {
          "internalType": "contract Follow",
          "name": "_follow",
          "type": "address"
        }
      ],
      "stateMutability": "nonpayable",
      "type": "constructor"
    },
    {
      "anonymous": false,
      "inputs": [
        {
          "indexed": true,
          "internalType": "address",
          "name": "account",
          "type": "address"
        },
        {
          "indexed": false,
          "internalType": "bytes32",
          "name": "userAddress",
          "type": "bytes32"
        }
      ],
      "name": "ChangedUserAddress",
      "type": "event"
    },
    {
      "anonymous": false,
      "inputs": [
        {
          "indexed": true,
          "internalType": "address",
          "name": "account",
          "type": "address"
        },
        {
          "indexed": false,
          "internalType": "bytes32",
          "name": "userName",
          "type": "bytes32"
        }
      ],
      "name": "ChangedUserName",
      "type": "event"
    },
    {
      "anonymous": false,
      "inputs": [
        {
          "indexed": true,
          "internalType": "address",
          "name": "account",
          "type": "address"
        },
        {
          "indexed": false,
          "internalType": "bytes32",
          "name": "userName",
          "type": "bytes32"
        },
        {
          "indexed": false,
          "internalType": "bytes32",
          "name": "userAddress",
          "type": "bytes32"
        }
      ],
      "name": "NewUser",
      "type": "event"
    },
    {
      "inputs": [
        {
          "internalType": "address",
          "name": "_account",
          "type": "address"
        },
        {
          "internalType": "string",
          "name": "_userName",
          "type": "string"
        },
        {
          "internalType": "string",
          "name": "_userAddress",
          "type": "string"
        }
      ],
      "name": "newUser",
      "outputs": [],
      "stateMutability": "nonpayable",
      "type": "function"
    },
    {
      "inputs": [
        {
          "internalType": "address",
          "name": "_account",
          "type": "address"
        },
        {
          "internalType": "string",
          "name": "_userName",
          "type": "string"
        }
      ],
      "name": "changeUserName",
      "outputs": [],
      "stateMutability": "nonpayable",
      "type": "function"
    },
    {
      "inputs": [
        {
          "internalType": "address",
          "name": "_account",
          "type": "address"
        },
        {
          "internalType": "string",
          "name": "_userAddress",
          "type": "string"
        }
      ],
      "name": "changeUserAddress",
      "outputs": [],
      "stateMutability": "nonpayable",
      "type": "function"
    },
    {
      "inputs": [
        {
          "internalType": "address",
          "name": "_account",
          "type": "address"
        },
        {
          "internalType": "string",
          "name": "_postText",
          "type": "string"
        },
        {
          "internalType": "address[]",
          "name": "_tags",
          "type": "address[]"
        },
        {
          "internalType": "bytes32",
          "name": "_parentId",
          "type": "bytes32"
        },
        {
          "internalType": "bytes32",
          "name": "_originId",
          "type": "bytes32"
        }
      ],
      "name": "newMeme",
      "outputs": [],
      "stateMutability": "nonpayable",
      "type": "function"
    },
    {
      "inputs": [
        {
          "internalType": "address",
          "name": "_account",
          "type": "address"
        },
        {
          "internalType": "bytes32",
          "name": "_memeId",
          "type": "bytes32"
        }
      ],
      "name": "rememe",
      "outputs": [],
      "stateMutability": "nonpayable",
      "type": "function"
    },
    {
      "inputs": [
        {
          "internalType": "address",
          "name": "_account",
          "type": "address"
        },
        {
          "internalType": "string",
          "name": "_postText",
          "type": "string"
        },
        {
          "internalType": "address[]",
          "name": "_tags",
          "type": "address[]"
        },
        {
          "internalType": "bytes32",
          "name": "_parentId",
          "type": "bytes32"
        },
        {
          "internalType": "bytes32",
          "name": "_originId",
          "type": "bytes32"
        },
        {
          "internalType": "bytes32",
          "name": "_memeId",
          "type": "bytes32"
        }
      ],
      "name": "quoteMeme",
      "outputs": [],
      "stateMutability": "nonpayable",
      "type": "function"
    },
    {
      "inputs": [
        {
          "internalType": "address",
          "name": "_account",
          "type": "address"
        },
        {
          "internalType": "bytes32",
          "name": "_memeId",
          "type": "bytes32"
        }
      ],
      "name": "deleteMeme",
      "outputs": [],
      "stateMutability": "nonpayable",
      "type": "function"
    },
    {
      "inputs": [
        {
          "internalType": "address",
          "name": "_account",
          "type": "address"
        },
        {
          "internalType": "bytes32",
          "name": "_memeId",
          "type": "bytes32"
        }
      ],
      "name": "likeMeme",
      "outputs": [],
      "stateMutability": "nonpayable",
      "type": "function"
    },
    {
      "inputs": [
        {
          "internalType": "address",
          "name": "_from",
          "type": "address"
        },
        {
          "internalType": "address",
          "name": "_to",
          "type": "address"
        }
      ],
      "name": "followUser",
      "outputs": [],
      "stateMutability": "nonpayable",
      "type": "function"
    },
    {
      "inputs": [
        {
          "internalType": "string",
          "name": "source",
          "type": "string"
        }
      ],
      "name": "_stringToBytes32",
      "outputs": [
        {
          "internalType": "bytes32",
          "name": "result",
          "type": "bytes32"
        }
      ],
      "stateMutability": "pure",
      "type": "function",
      "constant": true
    }
  ],
  "bytecode": "0x60806040523480156200001157600080fd5b5060405162003b6638038062003b66833981810160405281019062000037919062000211565b856000806101000a81548173ffffffffffffffffffffffffffffffffffffffff021916908373ffffffffffffffffffffffffffffffffffffffff16021790555083600260006101000a81548173ffffffffffffffffffffffffffffffffffffffff021916908373ffffffffffffffffffffffffffffffffffffffff16021790555082600460006101000a81548173ffffffffffffffffffffffffffffffffffffffff021916908373ffffffffffffffffffffffffffffffffffffffff16021790555081600560006101000a81548173ffffffffffffffffffffffffffffffffffffffff021916908373ffffffffffffffffffffffffffffffffffffffff16021790555080600660006101000a81548173ffffffffffffffffffffffffffffffffffffffff021916908373ffffffffffffffffffffffffffffffffffffffff160217905550505050505050620003fa565b60008151905062000198816200035e565b92915050565b600081519050620001af8162000378565b92915050565b600081519050620001c68162000392565b92915050565b600081519050620001dd81620003ac565b92915050565b600081519050620001f481620003c6565b92915050565b6000815190506200020b81620003e0565b92915050565b60008060008060008060c0878903121562000231576200023062000359565b5b60006200024189828a01620001e3565b96505060206200025489828a01620001b5565b95505060406200026789828a01620001fa565b94505060606200027a89828a01620001cc565b93505060806200028d89828a016200019e565b92505060a0620002a089828a0162000187565b9150509295509295509295565b6000620002ba8262000339565b9050919050565b6000620002ce82620002ad565b9050919050565b6000620002e282620002ad565b9050919050565b6000620002f682620002ad565b9050919050565b60006200030a82620002ad565b9050919050565b60006200031e82620002ad565b9050919050565b60006200033282620002ad565b9050919050565b600073ffffffffffffffffffffffffffffffffffffffff82169050919050565b600080fd5b6200036981620002c1565b81146200037557600080fd5b50565b6200038381620002d5565b81146200038f57600080fd5b50565b6200039d81620002e9565b8114620003a957600080fd5b50565b620003b781620002fd565b8114620003c357600080fd5b50565b620003d18162000311565b8114620003dd57600080fd5b50565b620003eb8162000325565b8114620003f757600080fd5b50565b61375c806200040a6000396000f3fe608060405234801561001057600080fd5b506004361061009e5760003560e01c80636b0a493e116100665780636b0a493e1461012f578063aa99d3581461014b578063be4641e114610167578063bf6a8f9c14610183578063d71a4855146101b35761009e565b80630c8273e6146100a357806322441e16146100bf5780634a746d05146100db578063648c59eb146100f7578063654ea48414610113575b600080fd5b6100bd60048036038101906100b891906121bd565b6101cf565b005b6100d960048036038101906100d4919061223d565b6104ee565b005b6100f560048036038101906100f09190612411565b610966565b005b610111600480360381019061010c91906121fd565b610e70565b005b61012d6004803603810190610128919061234c565b610f6f565b005b610149600480360381019061014491906121fd565b6112c4565b005b6101656004803603810190610160919061223d565b6114df565b005b610181600480360381019061017c91906121fd565b61186b565b005b61019d600480360381019061019891906124f6565b611c81565b6040516101aa9190612b04565b60405180910390f35b6101cd60048036038101906101c89190612299565b611cab565b005b3373ffffffffffffffffffffffffffffffffffffffff168273ffffffffffffffffffffffffffffffffffffffff161461023d576040517f08c379a000000000000000000000000000000000000000000000000000000000815260040161023490612be8565b60405180910390fd5b8073ffffffffffffffffffffffffffffffffffffffff168273ffffffffffffffffffffffffffffffffffffffff1614156102ac576040517f08c379a00000000000000000000000000000000000000000000000000000000081526004016102a390612d68565b60405180910390fd5b6000600260009054906101000a900473ffffffffffffffffffffffffffffffffffffffff1673ffffffffffffffffffffffffffffffffffffffff1663e8fc954e846040518263ffffffff1660e01b81526004016103099190612990565b60206040518083038186803b15801561032157600080fd5b505afa158015610335573d6000803e3d6000fd5b505050506040513d601f19601f8201168201806040525081019061035991906124c9565b50602060ff1611801561041c57506000600260009054906101000a900473ffffffffffffffffffffffffffffffffffffffff1673ffffffffffffffffffffffffffffffffffffffff1663e8fc954e836040518263ffffffff1660e01b81526004016103c49190612990565b60206040518083038186803b1580156103dc57600080fd5b505afa1580156103f0573d6000803e3d6000fd5b505050506040513d601f19601f8201168201806040525081019061041491906124c9565b50602060ff16115b61045b576040517f08c379a000000000000000000000000000000000000000000000000000000000815260040161045290612ce8565b60405180910390fd5b600660009054906101000a900473ffffffffffffffffffffffffffffffffffffffff1673ffffffffffffffffffffffffffffffffffffffff166399d147c283836040518363ffffffff1660e01b81526004016104b89291906129ab565b600060405180830381600087803b1580156104d257600080fd5b505af11580156104e6573d6000803e3d6000fd5b505050505050565b60006104f982611c81565b90508273ffffffffffffffffffffffffffffffffffffffff163373ffffffffffffffffffffffffffffffffffffffff1614610569576040517f08c379a000000000000000000000000000000000000000000000000000000000815260040161056090612d48565b60405180910390fd5b7f40000000000000000000000000000000000000000000000000000000000000007effffffffffffffffffffffffffffffffffffffffffffffffffffffffffffff1916826000815181106105c0576105bf612fe4565b5b602001015160f81c60f81b7effffffffffffffffffffffffffffffffffffffffffffffffffffffffffffff19161461062d576040517f08c379a000000000000000000000000000000000000000000000000000000000815260040161062490612da8565b60405180910390fd5b6002825111801561064057506020825111155b61067f576040517f08c379a000000000000000000000000000000000000000000000000000000000815260040161067690612de8565b60405180910390fd5b80600260009054906101000a900473ffffffffffffffffffffffffffffffffffffffff1673ffffffffffffffffffffffffffffffffffffffff1663e8fc954e856040518263ffffffff1660e01b81526004016106db9190612990565b60206040518083038186803b1580156106f357600080fd5b505afa158015610707573d6000803e3d6000fd5b505050506040513d601f19601f8201168201806040525081019061072b91906124c9565b141561076c576040517f08c379a000000000000000000000000000000000000000000000000000000000815260040161076390612ca8565b60405180910390fd5b8273ffffffffffffffffffffffffffffffffffffffff16600260009054906101000a900473ffffffffffffffffffffffffffffffffffffffff1673ffffffffffffffffffffffffffffffffffffffff166311e0bda7836040518263ffffffff1660e01b81526004016107de9190612b04565b60206040518083038186803b1580156107f657600080fd5b505afa15801561080a573d6000803e3d6000fd5b505050506040513d601f19601f8201168201806040525081019061082e9190612190565b73ffffffffffffffffffffffffffffffffffffffff1614610884576040517f08c379a000000000000000000000000000000000000000000000000000000000815260040161087b90612c48565b60405180910390fd5b600260009054906101000a900473ffffffffffffffffffffffffffffffffffffffff1673ffffffffffffffffffffffffffffffffffffffff1663a477c0bf84836040518363ffffffff1660e01b81526004016108e19291906129d4565b600060405180830381600087803b1580156108fb57600080fd5b505af115801561090f573d6000803e3d6000fd5b505050508273ffffffffffffffffffffffffffffffffffffffff167f04d371655880a064ab42f6fee28675351cb26ca88a7e5a9d6140cb0ec6ca568d826040516109599190612b04565b60405180910390a2505050565b8273ffffffffffffffffffffffffffffffffffffffff163373ffffffffffffffffffffffffffffffffffffffff16146109d4576040517f08c379a00000000000000000000000000000000000000000000000000000000081526004016109cb90612c08565b60405180910390fd5b600182511180156109e757506020825111155b610a26576040517f08c379a0000000000000000000000000000000000000000000000000000000008152600401610a1d90612c88565b60405180910390fd5b7f40000000000000000000000000000000000000000000000000000000000000007effffffffffffffffffffffffffffffffffffffffffffffffffffffffffffff191681600081518110610a7d57610a7c612fe4565b5b602001015160f81c60f81b7effffffffffffffffffffffffffffffffffffffffffffffffffffffffffffff191614610aea576040517f08c379a0000000000000000000000000000000000000000000000000000000008152600401610ae190612da8565b60405180910390fd5b60028151118015610afd57506020815111155b610b3c576040517f08c379a0000000000000000000000000000000000000000000000000000000008152600401610b3390612de8565b60405180910390fd5b8273ffffffffffffffffffffffffffffffffffffffff16600260009054906101000a900473ffffffffffffffffffffffffffffffffffffffff1673ffffffffffffffffffffffffffffffffffffffff1663b4108a94856040518263ffffffff1660e01b8152600401610bae9190612990565b60206040518083038186803b158015610bc657600080fd5b505afa158015610bda573d6000803e3d6000fd5b505050506040513d601f19601f82011682018060405250810190610bfe9190612190565b73ffffffffffffffffffffffffffffffffffffffff161415610c55576040517f08c379a0000000000000000000000000000000000000000000000000000000008152600401610c4c90612d28565b60405180910390fd5b600073ffffffffffffffffffffffffffffffffffffffff16600260009054906101000a900473ffffffffffffffffffffffffffffffffffffffff1673ffffffffffffffffffffffffffffffffffffffff1663b4108a94856040518263ffffffff1660e01b8152600401610cc89190612990565b60206040518083038186803b158015610ce057600080fd5b505afa158015610cf4573d6000803e3d6000fd5b505050506040513d601f19601f82011682018060405250810190610d189190612190565b73ffffffffffffffffffffffffffffffffffffffff1614610d6e576040517f08c379a0000000000000000000000000000000000000000000000000000000008152600401610d6590612d88565b60405180910390fd5b6000610d7983611c81565b90506000610d8683611c81565b9050600360009054906101000a900473ffffffffffffffffffffffffffffffffffffffff1673ffffffffffffffffffffffffffffffffffffffff166314def8368684846040518463ffffffff1660e01b8152600401610de7939291906129fd565b600060405180830381600087803b158015610e0157600080fd5b505af1158015610e15573d6000803e3d6000fd5b505050508473ffffffffffffffffffffffffffffffffffffffff167f5ef99684cfef8b5446d6ca2c82757ec3aa390143139c074ccfec7582634161078383604051610e61929190612b1f565b60405180910390a25050505050565b3373ffffffffffffffffffffffffffffffffffffffff168273ffffffffffffffffffffffffffffffffffffffff1614610ede576040517f08c379a0000000000000000000000000000000000000000000000000000000008152600401610ed590612cc8565b60405180910390fd5b600460009054906101000a900473ffffffffffffffffffffffffffffffffffffffff1673ffffffffffffffffffffffffffffffffffffffff1663aaf837c5826040518263ffffffff1660e01b8152600401610f399190612b04565b600060405180830381600087803b158015610f5357600080fd5b505af1158015610f67573d6000803e3d6000fd5b505050505050565b3373ffffffffffffffffffffffffffffffffffffffff168673ffffffffffffffffffffffffffffffffffffffff1614610fdd576040517f08c379a0000000000000000000000000000000000000000000000000000000008152600401610fd490612e28565b60405180910390fd5b6000855111611021576040517f08c379a000000000000000000000000000000000000000000000000000000000815260040161101890612dc8565b60405180910390fd5b600073ffffffffffffffffffffffffffffffffffffffff16600260009054906101000a900473ffffffffffffffffffffffffffffffffffffffff1673ffffffffffffffffffffffffffffffffffffffff1663b4108a94886040518263ffffffff1660e01b81526004016110949190612990565b60206040518083038186803b1580156110ac57600080fd5b505afa1580156110c0573d6000803e3d6000fd5b505050506040513d601f19601f820116820180604052508101906110e49190612190565b73ffffffffffffffffffffffffffffffffffffffff16141561113b576040517f08c379a000000000000000000000000000000000000000000000000000000000815260040161113290612c68565b60405180910390fd5b600160009054906101000a900473ffffffffffffffffffffffffffffffffffffffff1673ffffffffffffffffffffffffffffffffffffffff1663c627f1ee846040518263ffffffff1660e01b81526004016111969190612b04565b60206040518083038186803b1580156111ae57600080fd5b505afa1580156111c2573d6000803e3d6000fd5b505050506040513d601f19601f820116820180604052508101906111e6919061249c565b611225576040517f08c379a000000000000000000000000000000000000000000000000000000000815260040161121c90612d08565b60405180910390fd5b600460009054906101000a900473ffffffffffffffffffffffffffffffffffffffff1673ffffffffffffffffffffffffffffffffffffffff1663654ea4848787878787876040518763ffffffff1660e01b815260040161128a96959493929190612a95565b600060405180830381600087803b1580156112a457600080fd5b505af11580156112b8573d6000803e3d6000fd5b50505050505050505050565b3373ffffffffffffffffffffffffffffffffffffffff168273ffffffffffffffffffffffffffffffffffffffff1614611332576040517f08c379a000000000000000000000000000000000000000000000000000000000815260040161132990612e28565b60405180910390fd5b600073ffffffffffffffffffffffffffffffffffffffff16600260009054906101000a900473ffffffffffffffffffffffffffffffffffffffff1673ffffffffffffffffffffffffffffffffffffffff1663b4108a94846040518263ffffffff1660e01b81526004016113a59190612990565b60206040518083038186803b1580156113bd57600080fd5b505afa1580156113d1573d6000803e3d6000fd5b505050506040513d601f19601f820116820180604052508101906113f59190612190565b73ffffffffffffffffffffffffffffffffffffffff16141561144c576040517f08c379a000000000000000000000000000000000000000000000000000000000815260040161144390612c68565b60405180910390fd5b600460009054906101000a900473ffffffffffffffffffffffffffffffffffffffff1673ffffffffffffffffffffffffffffffffffffffff16636b0a493e83836040518363ffffffff1660e01b81526004016114a99291906129d4565b600060405180830381600087803b1580156114c357600080fd5b505af11580156114d7573d6000803e3d6000fd5b505050505050565b60006114ea82611c81565b90508273ffffffffffffffffffffffffffffffffffffffff163373ffffffffffffffffffffffffffffffffffffffff161461155a576040517f08c379a000000000000000000000000000000000000000000000000000000000815260040161155190612d48565b60405180910390fd5b80600260009054906101000a900473ffffffffffffffffffffffffffffffffffffffff1673ffffffffffffffffffffffffffffffffffffffff16635fd4b08a856040518263ffffffff1660e01b81526004016115b69190612990565b60206040518083038186803b1580156115ce57600080fd5b505afa1580156115e2573d6000803e3d6000fd5b505050506040513d601f19601f8201168201806040525081019061160691906124c9565b1415611647576040517f08c379a000000000000000000000000000000000000000000000000000000000815260040161163e90612b88565b60405180910390fd5b6001825111801561165a57506020825111155b611699576040517f08c379a000000000000000000000000000000000000000000000000000000000815260040161169090612c88565b60405180910390fd5b6000801b600260009054906101000a900473ffffffffffffffffffffffffffffffffffffffff1673ffffffffffffffffffffffffffffffffffffffff166365f68c89856040518263ffffffff1660e01b81526004016116f89190612990565b60206040518083038186803b15801561171057600080fd5b505afa158015611724573d6000803e3d6000fd5b505050506040513d601f19601f8201168201806040525081019061174891906124c9565b1415611789576040517f08c379a000000000000000000000000000000000000000000000000000000000815260040161178090612c28565b60405180910390fd5b600260009054906101000a900473ffffffffffffffffffffffffffffffffffffffff1673ffffffffffffffffffffffffffffffffffffffff16630667e80584836040518363ffffffff1660e01b81526004016117e69291906129d4565b600060405180830381600087803b15801561180057600080fd5b505af1158015611814573d6000803e3d6000fd5b505050508273ffffffffffffffffffffffffffffffffffffffff167f72b1cf0bc13f95f0e133d81e3f2eb157e6bb587fc674744d4a199fb0227825128260405161185e9190612b04565b60405180910390a2505050565b600260009054906101000a900473ffffffffffffffffffffffffffffffffffffffff1673ffffffffffffffffffffffffffffffffffffffff1663b4108a94836040518263ffffffff1660e01b81526004016118c69190612990565b60206040518083038186803b1580156118de57600080fd5b505afa1580156118f2573d6000803e3d6000fd5b505050506040513d601f19601f820116820180604052508101906119169190612190565b73ffffffffffffffffffffffffffffffffffffffff168273ffffffffffffffffffffffffffffffffffffffff161415611984576040517f08c379a000000000000000000000000000000000000000000000000000000000815260040161197b90612ba8565b60405180910390fd5b3373ffffffffffffffffffffffffffffffffffffffff168273ffffffffffffffffffffffffffffffffffffffff16146119f2576040517f08c379a00000000000000000000000000000000000000000000000000000000081526004016119e990612bc8565b60405180910390fd5b600073ffffffffffffffffffffffffffffffffffffffff16600260009054906101000a900473ffffffffffffffffffffffffffffffffffffffff1673ffffffffffffffffffffffffffffffffffffffff1663b4108a94846040518263ffffffff1660e01b8152600401611a659190612990565b60206040518083038186803b158015611a7d57600080fd5b505afa158015611a91573d6000803e3d6000fd5b505050506040513d601f19601f82011682018060405250810190611ab59190612190565b73ffffffffffffffffffffffffffffffffffffffff161415611b0c576040517f08c379a0000000000000000000000000000000000000000000000000000000008152600401611b0390612b48565b60405180910390fd5b6000600160009054906101000a900473ffffffffffffffffffffffffffffffffffffffff1673ffffffffffffffffffffffffffffffffffffffff16637b2124d26040518163ffffffff1660e01b815260040160206040518083038186803b158015611b7657600080fd5b505afa158015611b8a573d6000803e3d6000fd5b505050506040513d601f19601f82011682018060405250810190611bae919061253f565b11611bee576040517f08c379a0000000000000000000000000000000000000000000000000000000008152600401611be590612e08565b60405180910390fd5b600560009054906101000a900473ffffffffffffffffffffffffffffffffffffffff1673ffffffffffffffffffffffffffffffffffffffff1663be4641e183836040518363ffffffff1660e01b8152600401611c4b9291906129d4565b600060405180830381600087803b158015611c6557600080fd5b505af1158015611c79573d6000803e3d6000fd5b505050505050565b600080829050600081511415611c9d576000801b915050611ca6565b60208301519150505b919050565b3373ffffffffffffffffffffffffffffffffffffffff168573ffffffffffffffffffffffffffffffffffffffff1614611d19576040517f08c379a0000000000000000000000000000000000000000000000000000000008152600401611d1090612e28565b60405180910390fd5b6000845111611d5d576040517f08c379a0000000000000000000000000000000000000000000000000000000008152600401611d5490612dc8565b60405180910390fd5b600073ffffffffffffffffffffffffffffffffffffffff16600260009054906101000a900473ffffffffffffffffffffffffffffffffffffffff1673ffffffffffffffffffffffffffffffffffffffff1663b4108a94876040518263ffffffff1660e01b8152600401611dd09190612990565b60206040518083038186803b158015611de857600080fd5b505afa158015611dfc573d6000803e3d6000fd5b505050506040513d601f19601f82011682018060405250810190611e209190612190565b73ffffffffffffffffffffffffffffffffffffffff161415611e77576040517f08c379a0000000000000000000000000000000000000000000000000000000008152600401611e6e90612c68565b60405180910390fd5b60011515600160009054906101000a900473ffffffffffffffffffffffffffffffffffffffff1673ffffffffffffffffffffffffffffffffffffffff1663c627f1ee846040518263ffffffff1660e01b8152600401611ed69190612b04565b60206040518083038186803b158015611eee57600080fd5b505afa158015611f02573d6000803e3d6000fd5b505050506040513d601f19601f82011682018060405250810190611f26919061249c565b151514611f68576040517f08c379a0000000000000000000000000000000000000000000000000000000008152600401611f5f90612b68565b60405180910390fd5b600460009054906101000a900473ffffffffffffffffffffffffffffffffffffffff1673ffffffffffffffffffffffffffffffffffffffff1663d71a485586868686866040518663ffffffff1660e01b8152600401611fcb959493929190612a34565b600060405180830381600087803b158015611fe557600080fd5b505af1158015611ff9573d6000803e3d6000fd5b505050505050505050565b600061201761201284612e6d565b612e48565b9050808382526020820190508285602086028201111561203a57612039613047565b5b60005b8581101561206a578161205088826120b6565b84526020840193506020830192505060018101905061203d565b5050509392505050565b600061208761208284612e99565b612e48565b9050828152602081018484840111156120a3576120a261304c565b5b6120ae848285612f71565b509392505050565b6000813590506120c5816136ca565b92915050565b6000815190506120da816136ca565b92915050565b600082601f8301126120f5576120f4613042565b5b8135612105848260208601612004565b91505092915050565b60008151905061211d816136e1565b92915050565b600081359050612132816136f8565b92915050565b600081519050612147816136f8565b92915050565b600082601f83011261216257612161613042565b5b8135612172848260208601612074565b91505092915050565b60008151905061218a8161370f565b92915050565b6000602082840312156121a6576121a5613056565b5b60006121b4848285016120cb565b91505092915050565b600080604083850312156121d4576121d3613056565b5b60006121e2858286016120b6565b92505060206121f3858286016120b6565b9150509250929050565b6000806040838503121561221457612213613056565b5b6000612222858286016120b6565b925050602061223385828601612123565b9150509250929050565b6000806040838503121561225457612253613056565b5b6000612262858286016120b6565b925050602083013567ffffffffffffffff81111561228357612282613051565b5b61228f8582860161214d565b9150509250929050565b600080600080600060a086880312156122b5576122b4613056565b5b60006122c3888289016120b6565b955050602086013567ffffffffffffffff8111156122e4576122e3613051565b5b6122f08882890161214d565b945050604086013567ffffffffffffffff81111561231157612310613051565b5b61231d888289016120e0565b935050606061232e88828901612123565b925050608061233f88828901612123565b9150509295509295909350565b60008060008060008060c0878903121561236957612368613056565b5b600061237789828a016120b6565b965050602087013567ffffffffffffffff81111561239857612397613051565b5b6123a489828a0161214d565b955050604087013567ffffffffffffffff8111156123c5576123c4613051565b5b6123d189828a016120e0565b94505060606123e289828a01612123565b93505060806123f389828a01612123565b92505060a061240489828a01612123565b9150509295509295509295565b60008060006060848603121561242a57612429613056565b5b6000612438868287016120b6565b935050602084013567ffffffffffffffff81111561245957612458613051565b5b6124658682870161214d565b925050604084013567ffffffffffffffff81111561248657612485613051565b5b6124928682870161214d565b9150509250925092565b6000602082840312156124b2576124b1613056565b5b60006124c08482850161210e565b91505092915050565b6000602082840312156124df576124de613056565b5b60006124ed84828501612138565b91505092915050565b60006020828403121561250c5761250b613056565b5b600082013567ffffffffffffffff81111561252a57612529613051565b5b6125368482850161214d565b91505092915050565b60006020828403121561255557612554613056565b5b60006125638482850161217b565b91505092915050565b60006125788383612584565b60208301905092915050565b61258d81612f1f565b82525050565b61259c81612f1f565b82525050565b60006125ad82612eda565b6125b78185612efd565b93506125c283612eca565b8060005b838110156125f35781516125da888261256c565b97506125e583612ef0565b9250506001810190506125c6565b5085935050505092915050565b61260981612f3d565b82525050565b600061261a82612ee5565b6126248185612f0e565b9350612634818560208601612f80565b61263d8161305b565b840191505092915050565b6000612655602383612f0e565b91506126608261306c565b604082019050919050565b6000612678601f83612f0e565b9150612683826130bb565b602082019050919050565b600061269b602183612f0e565b91506126a6826130e4565b604082019050919050565b60006126be602183612f0e565b91506126c982613133565b604082019050919050565b60006126e1602683612f0e565b91506126ec82613182565b604082019050919050565b6000612704602983612f0e565b915061270f826131d1565b604082019050919050565b6000612727602683612f0e565b915061273282613220565b604082019050919050565b600061274a602483612f0e565b91506127558261326f565b604082019050919050565b600061276d603183612f0e565b9150612778826132be565b604082019050919050565b6000612790602083612f0e565b915061279b8261330d565b602082019050919050565b60006127b3603183612f0e565b91506127be82613336565b604082019050919050565b60006127d6602583612f0e565b91506127e182613385565b604082019050919050565b60006127f9602383612f0e565b9150612804826133d4565b604082019050919050565b600061281c603483612f0e565b915061282782613423565b604082019050919050565b600061283f601883612f0e565b915061284a82613472565b602082019050919050565b6000612862601d83612f0e565b915061286d8261349b565b602082019050919050565b6000612885602583612f0e565b9150612890826134c4565b604082019050919050565b60006128a8601383612f0e565b91506128b382613513565b602082019050919050565b60006128cb602283612f0e565b91506128d68261353c565b604082019050919050565b60006128ee602a83612f0e565b91506128f98261358b565b604082019050919050565b6000612911601a83612f0e565b915061291c826135da565b602082019050919050565b6000612934603483612f0e565b915061293f82613603565b604082019050919050565b6000612957601883612f0e565b915061296282613652565b602082019050919050565b600061297a602183612f0e565b91506129858261367b565b604082019050919050565b60006020820190506129a56000830184612593565b92915050565b60006040820190506129c06000830185612593565b6129cd6020830184612593565b9392505050565b60006040820190506129e96000830185612593565b6129f66020830184612600565b9392505050565b6000606082019050612a126000830186612593565b612a1f6020830185612600565b612a2c6040830184612600565b949350505050565b600060a082019050612a496000830188612593565b8181036020830152612a5b818761260f565b90508181036040830152612a6f81866125a2565b9050612a7e6060830185612600565b612a8b6080830184612600565b9695505050505050565b600060c082019050612aaa6000830189612593565b8181036020830152612abc818861260f565b90508181036040830152612ad081876125a2565b9050612adf6060830186612600565b612aec6080830185612600565b612af960a0830184612600565b979650505050505050565b6000602082019050612b196000830184612600565b92915050565b6000604082019050612b346000830185612600565b612b416020830184612600565b9392505050565b60006020820190508181036000830152612b6181612648565b9050919050565b60006020820190508181036000830152612b818161266b565b9050919050565b60006020820190508181036000830152612ba18161268e565b9050919050565b60006020820190508181036000830152612bc1816126b1565b9050919050565b60006020820190508181036000830152612be1816126d4565b9050919050565b60006020820190508181036000830152612c01816126f7565b9050919050565b60006020820190508181036000830152612c218161271a565b9050919050565b60006020820190508181036000830152612c418161273d565b9050919050565b60006020820190508181036000830152612c6181612760565b9050919050565b60006020820190508181036000830152612c8181612783565b9050919050565b60006020820190508181036000830152612ca1816127a6565b9050919050565b60006020820190508181036000830152612cc1816127c9565b9050919050565b60006020820190508181036000830152612ce1816127ec565b9050919050565b60006020820190508181036000830152612d018161280f565b9050919050565b60006020820190508181036000830152612d2181612832565b9050919050565b60006020820190508181036000830152612d4181612855565b9050919050565b60006020820190508181036000830152612d6181612878565b9050919050565b60006020820190508181036000830152612d818161289b565b9050919050565b60006020820190508181036000830152612da1816128be565b9050919050565b60006020820190508181036000830152612dc1816128e1565b9050919050565b60006020820190508181036000830152612de181612904565b9050919050565b60006020820190508181036000830152612e0181612927565b9050919050565b60006020820190508181036000830152612e218161294a565b9050919050565b60006020820190508181036000830152612e418161296d565b9050919050565b6000612e52612e63565b9050612e5e8282612fb3565b919050565b6000604051905090565b600067ffffffffffffffff821115612e8857612e87613013565b5b602082029050602081019050919050565b600067ffffffffffffffff821115612eb457612eb3613013565b5b612ebd8261305b565b9050602081019050919050565b6000819050602082019050919050565b600081519050919050565b600081519050919050565b6000602082019050919050565b600082825260208201905092915050565b600082825260208201905092915050565b6000612f2a82612f47565b9050919050565b60008115159050919050565b6000819050919050565b600073ffffffffffffffffffffffffffffffffffffffff82169050919050565b6000819050919050565b82818337600083830152505050565b60005b83811015612f9e578082015181840152602081019050612f83565b83811115612fad576000848401525b50505050565b612fbc8261305b565b810181811067ffffffffffffffff82111715612fdb57612fda613013565b5b80604052505050565b7f4e487b7100000000000000000000000000000000000000000000000000000000600052603260045260246000fd5b7f4e487b7100000000000000000000000000000000000000000000000000000000600052604160045260246000fd5b600080fd5b600080fd5b600080fd5b600080fd5b600080fd5b6000601f19601f8301169050919050565b7f4572726f723a204d656d65206c696b6564206d7573742068617665206164647260008201527f6573730000000000000000000000000000000000000000000000000000000000602082015250565b7f4572726f723a20706172656e74266f726967696e206d75737420657869737400600082015250565b7f4572726f723a206d75737420626520646966666572656e7420757365726e616d60008201527f6500000000000000000000000000000000000000000000000000000000000000602082015250565b7f4572726f723a2063616e6e6f74206c696b65206f6e652773206f776e206d656d60008201527f6500000000000000000000000000000000000000000000000000000000000000602082015250565b7f4572726f723a206c696b6572206d757374206265206f7065726174696e67206160008201527f63636f756e740000000000000000000000000000000000000000000000000000602082015250565b7f4572726f723a20666f6c6c6f776572206d757374206265206f7065726174696e60008201527f67206163636f756e740000000000000000000000000000000000000000000000602082015250565b7f4572726f723a206163636f756e74206d757374206265206163636f756e74206360008201527f726561746f720000000000000000000000000000000000000000000000000000602082015250565b7f4572726f723a206d757374206861766520616e206578697374696e672061636360008201527f6f756e7400000000000000000000000000000000000000000000000000000000602082015250565b7f4572726f723a20757365722061646472657373206d757374206578697374206160008201527f742063757272656e742061646472657373000000000000000000000000000000602082015250565b7f4572726f723a207573657220646f65736e27742068617665206163636f756e74600082015250565b7f4572726f723a20757365724e616d65206d757374206265206265747765656e2060008201527f3220262033322063686172616374657273000000000000000000000000000000602082015250565b7f4572726f723a206d75737420626520646966666572656e74207573657220616460008201527f6472657373000000000000000000000000000000000000000000000000000000602082015250565b7f4572726f723a206f6e6c79206163636f756e742063616e2064656c657465206d60008201527f656d650000000000000000000000000000000000000000000000000000000000602082015250565b7f4572726f723a20626f746820666f6c6c6f77657220616e6420666f6c6c6f776560008201527f65206d7573742068617665206163636f756e7473000000000000000000000000602082015250565b7f4572726f723a20706172656e74206d7573742065786973740000000000000000600082015250565b7f4572726f723a206163636f756e7420616c726561647920657869737473000000600082015250565b7f4572726f723a206f70657261746f72206d757374206265206163636f756e742060008201527f6f776e6572000000000000000000000000000000000000000000000000000000602082015250565b7f4572726f723a2073616d65206163636f756e7400000000000000000000000000600082015250565b7f4572726f723a2075736572206164647265737320616c7265616479206578697360008201527f7473000000000000000000000000000000000000000000000000000000000000602082015250565b7f4572726f723a20666972737420656c656d656e74206f6620737472696e67206d60008201527f7573742062652022402200000000000000000000000000000000000000000000602082015250565b7f4572726f723a206d656d65206d75737420686176652074657874000000000000600082015250565b7f4572726f723a207573657241646472657373206d75737420626520626574776560008201527f656e203220262033322063686172616374657273000000000000000000000000602082015250565b7f4572726f723a204d656d65206d75737420686176652069640000000000000000600082015250565b7f4572726f723a2077726f6e67206163636f756e742063616c6c696e6720706f7360008201527f7400000000000000000000000000000000000000000000000000000000000000602082015250565b6136d381612f1f565b81146136de57600080fd5b50565b6136ea81612f31565b81146136f557600080fd5b50565b61370181612f3d565b811461370c57600080fd5b50565b61371881612f67565b811461372357600080fd5b5056fea2646970667358221220324b7d6eb0bd178bc70253c70f2c6c9b630c1ccd612ad1de354311c60eb92cf964736f6c63430008070033",
  "immutableReferences": {},
  "source": "// SPDX-License-Identifier: MIT\n\npragma solidity >=0.8.0 <0.9.0;\n\nimport \"./Follow.sol\";\nimport \"./Like.sol\";\nimport \"./MemeStorage.sol\";\nimport \"./Post.sol\";\nimport \"./UME.sol\";\nimport \"./UserFactory.sol\";\nimport \"./UserStorage.sol\";\n\ncontract UserInterface {\n\n  UME private umeToken;\n  MemeStorage private memeStorage;\n  UserStorage private userStorage;\n  UserFactory private userFactory;\n\n  Post private post;\n  Like private like;\n  Follow private follow;\n\n  struct User {\n    uint id; // user number in order\n    string name; // user name\n    string userAddr; // user address (@)\n    uint time; // user creation time\n    address addr; // address of user\n    address[] followers; // addresses of followers\n    address[] following; // addressses of following\n    uint[] posts; // memeIds of posts\n  }\n\n  event NewUser(\n    address indexed account,\n    bytes32 userName,\n    bytes32 userAddress);\n  event ChangedUserName(\n    address indexed account,\n    bytes32 userName);\n  event ChangedUserAddress(\n    address indexed account,\n    bytes32 userAddress);\n\n  constructor(\n    UME _umeToken,\n    MemeStorage _memeStorage,\n    UserStorage _userStorage,\n    Post _post,\n    Like _like,\n    Follow _follow\n  ) public {\n    umeToken = _umeToken;\n    userStorage = _userStorage;\n    post = _post;\n    like = _like;\n    follow = _follow;\n  }\n\n  function newUser(\n    address _account,\n    string memory _userName,\n    string memory _userAddress\n  ) public {\n    require(\n      msg.sender==_account,\n      'Error: account must be account creator');\n    require(\n      bytes(_userName).length>1 &&\n      bytes(_userName).length<=32,\n      'Error: userName must be between 2 & 32 characters');\n    require(\n      bytes(_userAddress)[0]==bytes1('@'),\n      'Error: first element of string must be \"@\"');\n    require(\n      bytes(_userAddress).length>2 &&\n      bytes(_userAddress).length<=32,\n      'Error: userAddress must be between 2 & 32 characters');\n    require(\n      userStorage.getAddr(_account)!=_account,\n      'Error: account already exists');\n    require(\n      userStorage.getAddr(_account)==address(0x0),\n      'Error: user address already exists');\n\n    bytes32 _un = _stringToBytes32(_userName);\n    bytes32 _ua = _stringToBytes32(_userAddress);\n    userFactory.newUser(_account, _un, _ua);\n    emit NewUser(_account, _un, _ua);\n  }\n  function changeUserName(\n    address _account,\n    string memory _userName\n  ) public {\n    bytes32 _un = _stringToBytes32(_userName);\n    require(\n      msg.sender==_account,\n      'Error: operator must be account owner');\n    require(\n      userStorage.getName(_account)!=_un,\n      'Error: must be different username');\n    require(\n      bytes(_userName).length>1 &&\n      bytes(_userName).length<=32,\n      'Error: userName must be between 2 & 32 characters');\n    require(\n      userStorage.getId(_account)!=0,\n      'Error: must have an existing account');\n\n    userStorage.setUserName(_account, _un);\n    emit ChangedUserName(_account, _un);\n  }\n  function changeUserAddress(\n    address _account,\n    string memory _userAddress\n  ) public {\n    bytes32 _ua = _stringToBytes32(_userAddress);\n    require(\n      msg.sender==_account,\n      'Error: operator must be account owner');\n    require(\n      bytes(_userAddress)[0]==bytes1('@'),\n      'Error: first element of string must be \"@\"');\n    require(\n      bytes(_userAddress).length>2 &&\n      bytes(_userAddress).length<=32,\n      'Error: userAddress must be between 2 & 32 characters');\n    require(\n      userStorage.getUserAddr(_account)!=_ua,\n      'Error: must be different user address');\n    require(\n      userStorage.usersByUserAddr(_ua)==_account,\n      'Error: user address must exist at current address');\n\n    userStorage.setUserAddress(_account, _ua);\n    emit ChangedUserAddress(_account, _ua);\n  }\n\n  // Meme posting functionality\n  function newMeme(\n    address _account,\n    string memory _postText,\n    address[] memory _tags,\n    bytes32 _parentId,\n    bytes32 _originId\n  ) public {\n    require(\n      _account==msg.sender,\n      'Error: wrong account calling post');\n    require(\n      bytes(_postText).length > 0,\n      'Error: meme must have text');\n    require(\n      userStorage.getAddr(_account)!=address(0x0),\n      'Error: user doesn\\'t have account');\n    require(\n      memeStorage.getVisibility(_parentId)==true,\n      'Error: parent&origin must exist');\n    // post new meme\n    post.newMeme(_account, _postText, _tags, _parentId, _originId);\n  }\n  function rememe(\n    address _account,\n    bytes32 _memeId\n  ) public {\n    require(\n      _account==msg.sender,\n      'Error: wrong account calling post');\n    require(\n      userStorage.getAddr(_account)!=address(0x0),\n      'Error: user doesn\\'t have account');\n    // repost meme\n    post.rememe(_account, _memeId);\n  }\n  function quoteMeme(\n    address _account,\n    string memory _postText,\n    address[] memory _tags,\n    bytes32 _parentId,\n    bytes32 _originId,\n    bytes32 _memeId\n  ) public {\n    require(\n      _account==msg.sender,\n      'Error: wrong account calling post');\n    require(\n      bytes(_postText).length > 0,\n      'Error: meme must have text');\n    require(\n      userStorage.getAddr(_account)!=address(0x0),\n      'Error: user doesn\\'t have account');\n    require(\n      memeStorage.getVisibility(_parentId),\n      'Error: parent must exist');\n    post.quoteMeme(_account, _postText, _tags, _parentId, _originId, _memeId);\n  }\n\n  function deleteMeme(\n    address _account,\n    bytes32 _memeId\n  ) public {\n    require(\n      _account==msg.sender,\n      'Error: only account can delete meme');\n    post.deleteMeme(_memeId);\n  }\n\n\n  // like functions\n  function likeMeme(\n    address _account,\n    bytes32 _memeId\n  ) public {\n     require(\n       _account!=userStorage.getAddr(_account),\n       'Error: cannot like one\\'s own meme');\n     require(\n       _account==msg.sender,\n       'Error: liker must be operating account');\n     require(\n       userStorage.getAddr(_account)!=address(0x0),\n       'Error: Meme liked must have address');\n     require(\n       memeStorage.memeCount() > 0,\n       'Error: Meme must have id');\n\n     like.likeMeme(_account, _memeId);\n  }\n\n  function followUser(\n    address _from,\n    address _to\n  ) public {\n    require(\n      _from==msg.sender,\n      'Error: follower must be operating account');\n    require(\n      _from!=_to,\n      'Error: same account');\n    require(\n      userStorage.getUserAddr(_from).length>0 &&\n      userStorage.getUserAddr(_to).length>0,\n      'Error: both follower and followee must have accounts');\n\n    follow.follow(_from, _to);\n  }\n  // helper functions\n  function _stringToBytes32(string memory source) public pure returns(bytes32 result) {\n    bytes memory temp = bytes(source);\n    if(temp.length==0) return 0x0;\n    assembly {\n      result := mload(add(source, 32))\n    }\n  }\n\n  function _deleteUints(uint[] memory array, uint index) private pure returns(uint[] memory) {\n    uint[] memory _array = new uint[](array.length-1);\n    for(uint i = 0; i < index; i++) {\n      _array[i] = array[i];\n    }\n    for(uint i = index; i < _array.length; i++) {\n      _array[i] = array[i+1];\n    }\n    return _array;\n  }\n}\n",
  "sourcePath": "/Users/jaiq/Documents/000 BLOCKCHAIN/ETH/uMe/src/contracts/UserInterface.sol",
  "compiler": {
    "name": "solc",
    "version": "0.8.7+commit.e28d00a7.Emscripten.clang"
  },
  "schemaVersion": "3.4.3",
  "updatedAt": "2021-08-26T00:43:06.348Z",
  "networkType": "ethereum",
  "devdoc": {
    "kind": "dev",
    "methods": {},
    "version": 1
  },
  "userdoc": {
    "kind": "user",
    "methods": {},
    "version": 1
  }
}