{
  "contractName": "UserInterface",
  "abi": [
    {
      "inputs": [
        {
          "internalType": "contract UME",
          "name": "_umeToken",
          "type": "address"
        },
        {
          "internalType": "contract MemeStorage",
          "name": "_memeStorage",
          "type": "address"
        },
        {
          "internalType": "contract UserStorage",
          "name": "_userStorage",
          "type": "address"
        },
        {
          "internalType": "contract UserFactory",
          "name": "_userFactory",
          "type": "address"
        },
        {
          "internalType": "contract Post",
          "name": "_post",
          "type": "address"
        },
        {
          "internalType": "contract Like",
          "name": "_like",
          "type": "address"
        },
        {
          "internalType": "contract Follow",
          "name": "_follow",
          "type": "address"
        },
        {
          "internalType": "contract Boost",
          "name": "_boost",
          "type": "address"
        }
      ],
      "stateMutability": "nonpayable",
      "type": "constructor"
    },
    {
      "anonymous": false,
      "inputs": [
        {
          "indexed": true,
          "internalType": "address",
          "name": "account",
          "type": "address"
        },
        {
          "indexed": false,
          "internalType": "bytes32",
          "name": "userAddress",
          "type": "bytes32"
        }
      ],
      "name": "ChangedUserAddress",
      "type": "event"
    },
    {
      "anonymous": false,
      "inputs": [
        {
          "indexed": true,
          "internalType": "address",
          "name": "account",
          "type": "address"
        },
        {
          "indexed": false,
          "internalType": "bytes32",
          "name": "userName",
          "type": "bytes32"
        }
      ],
      "name": "ChangedUserName",
      "type": "event"
    },
    {
      "anonymous": false,
      "inputs": [
        {
          "indexed": true,
          "internalType": "address",
          "name": "account",
          "type": "address"
        },
        {
          "indexed": false,
          "internalType": "bytes32",
          "name": "userName",
          "type": "bytes32"
        },
        {
          "indexed": false,
          "internalType": "bytes32",
          "name": "userAddress",
          "type": "bytes32"
        }
      ],
      "name": "NewUser",
      "type": "event"
    },
    {
      "inputs": [
        {
          "internalType": "address",
          "name": "_account",
          "type": "address"
        },
        {
          "internalType": "bytes",
          "name": "_userName",
          "type": "bytes"
        },
        {
          "internalType": "bytes",
          "name": "_userAddress",
          "type": "bytes"
        }
      ],
      "name": "newUser",
      "outputs": [],
      "stateMutability": "nonpayable",
      "type": "function"
    },
    {
      "inputs": [
        {
          "internalType": "address",
          "name": "_account",
          "type": "address"
        },
        {
          "internalType": "bytes",
          "name": "_userName",
          "type": "bytes"
        }
      ],
      "name": "changeUserName",
      "outputs": [],
      "stateMutability": "nonpayable",
      "type": "function"
    },
    {
      "inputs": [
        {
          "internalType": "address",
          "name": "_account",
          "type": "address"
        },
        {
          "internalType": "bytes",
          "name": "_userAddress",
          "type": "bytes"
        }
      ],
      "name": "changeUserAddress",
      "outputs": [],
      "stateMutability": "nonpayable",
      "type": "function"
    },
    {
      "inputs": [
        {
          "internalType": "address",
          "name": "_account",
          "type": "address"
        },
        {
          "internalType": "string",
          "name": "_bio",
          "type": "string"
        }
      ],
      "name": "newBio",
      "outputs": [],
      "stateMutability": "nonpayable",
      "type": "function"
    },
    {
      "inputs": [
        {
          "internalType": "address",
          "name": "_account",
          "type": "address"
        },
        {
          "internalType": "string",
          "name": "_imgHash",
          "type": "string"
        }
      ],
      "name": "newProfilePic",
      "outputs": [],
      "stateMutability": "nonpayable",
      "type": "function"
    },
    {
      "inputs": [
        {
          "internalType": "address",
          "name": "_account",
          "type": "address"
        },
        {
          "internalType": "string",
          "name": "_postText",
          "type": "string"
        },
        {
          "internalType": "address[]",
          "name": "_tags",
          "type": "address[]"
        },
        {
          "internalType": "bytes32",
          "name": "_parentId",
          "type": "bytes32"
        },
        {
          "internalType": "bytes32",
          "name": "_originId",
          "type": "bytes32"
        }
      ],
      "name": "newMeme",
      "outputs": [],
      "stateMutability": "nonpayable",
      "type": "function"
    },
    {
      "inputs": [
        {
          "internalType": "address",
          "name": "_account",
          "type": "address"
        },
        {
          "internalType": "bytes32",
          "name": "_memeId",
          "type": "bytes32"
        }
      ],
      "name": "rememe",
      "outputs": [],
      "stateMutability": "nonpayable",
      "type": "function"
    },
    {
      "inputs": [
        {
          "internalType": "address",
          "name": "_account",
          "type": "address"
        },
        {
          "internalType": "string",
          "name": "_postText",
          "type": "string"
        },
        {
          "internalType": "address[]",
          "name": "_tags",
          "type": "address[]"
        },
        {
          "internalType": "bytes32",
          "name": "_parentId",
          "type": "bytes32"
        },
        {
          "internalType": "bytes32",
          "name": "_originId",
          "type": "bytes32"
        },
        {
          "internalType": "bytes32",
          "name": "_memeId",
          "type": "bytes32"
        }
      ],
      "name": "quoteMeme",
      "outputs": [],
      "stateMutability": "nonpayable",
      "type": "function"
    },
    {
      "inputs": [
        {
          "internalType": "address",
          "name": "_account",
          "type": "address"
        },
        {
          "internalType": "bytes32",
          "name": "_memeId",
          "type": "bytes32"
        }
      ],
      "name": "deleteMeme",
      "outputs": [],
      "stateMutability": "nonpayable",
      "type": "function"
    },
    {
      "inputs": [
        {
          "internalType": "address",
          "name": "_account",
          "type": "address"
        },
        {
          "internalType": "bytes32",
          "name": "_memeId",
          "type": "bytes32"
        }
      ],
      "name": "likeMeme",
      "outputs": [],
      "stateMutability": "nonpayable",
      "type": "function"
    },
    {
      "inputs": [
        {
          "internalType": "address",
          "name": "_from",
          "type": "address"
        },
        {
          "internalType": "address",
          "name": "_to",
          "type": "address"
        }
      ],
      "name": "followUser",
      "outputs": [],
      "stateMutability": "nonpayable",
      "type": "function"
    },
    {
      "inputs": [
        {
          "internalType": "address",
          "name": "_account",
          "type": "address"
        },
        {
          "internalType": "bytes32",
          "name": "_memeId",
          "type": "bytes32"
        },
        {
          "internalType": "uint256",
          "name": "_boostNumber",
          "type": "uint256"
        }
      ],
      "name": "boostMeme",
      "outputs": [],
      "stateMutability": "nonpayable",
      "type": "function"
    },
    {
      "inputs": [
        {
          "internalType": "address",
          "name": "_account",
          "type": "address"
        },
        {
          "internalType": "bytes32",
          "name": "_memeId",
          "type": "bytes32"
        },
        {
          "internalType": "uint256",
          "name": "_boostNumber",
          "type": "uint256"
        }
      ],
      "name": "unBoostMeme",
      "outputs": [],
      "stateMutability": "nonpayable",
      "type": "function"
    },
    {
      "inputs": [
        {
          "internalType": "bytes",
          "name": "source",
          "type": "bytes"
        }
      ],
      "name": "bytesToBytes32",
      "outputs": [
        {
          "internalType": "bytes32",
          "name": "result",
          "type": "bytes32"
        }
      ],
      "stateMutability": "pure",
      "type": "function",
      "constant": true
    },
    {
      "inputs": [
        {
          "internalType": "uint256",
          "name": "num",
          "type": "uint256"
        }
      ],
      "name": "encode",
      "outputs": [
        {
          "internalType": "bytes32",
          "name": "",
          "type": "bytes32"
        }
      ],
      "stateMutability": "view",
      "type": "function",
      "constant": true
    }
  ],
  "bytecode": "0x60806040523480156200001157600080fd5b5060405162004d0738038062004d078339818101604052810190620000379190620004ad565b876000806101000a81548173ffffffffffffffffffffffffffffffffffffffff021916908373ffffffffffffffffffffffffffffffffffffffff16021790555086600160006101000a81548173ffffffffffffffffffffffffffffffffffffffff021916908373ffffffffffffffffffffffffffffffffffffffff16021790555085600260006101000a81548173ffffffffffffffffffffffffffffffffffffffff021916908373ffffffffffffffffffffffffffffffffffffffff16021790555084600360006101000a81548173ffffffffffffffffffffffffffffffffffffffff021916908373ffffffffffffffffffffffffffffffffffffffff16021790555083600460006101000a81548173ffffffffffffffffffffffffffffffffffffffff021916908373ffffffffffffffffffffffffffffffffffffffff16021790555082600560006101000a81548173ffffffffffffffffffffffffffffffffffffffff021916908373ffffffffffffffffffffffffffffffffffffffff16021790555081600660006101000a81548173ffffffffffffffffffffffffffffffffffffffff021916908373ffffffffffffffffffffffffffffffffffffffff16021790555080600760006101000a81548173ffffffffffffffffffffffffffffffffffffffff021916908373ffffffffffffffffffffffffffffffffffffffff160217905550505050505050505062000576565b600080fd5b600073ffffffffffffffffffffffffffffffffffffffff82169050919050565b60006200027e8262000251565b9050919050565b6000620002928262000271565b9050919050565b620002a48162000285565b8114620002b057600080fd5b50565b600081519050620002c48162000299565b92915050565b6000620002d78262000271565b9050919050565b620002e981620002ca565b8114620002f557600080fd5b50565b6000815190506200030981620002de565b92915050565b60006200031c8262000271565b9050919050565b6200032e816200030f565b81146200033a57600080fd5b50565b6000815190506200034e8162000323565b92915050565b6000620003618262000271565b9050919050565b620003738162000354565b81146200037f57600080fd5b50565b600081519050620003938162000368565b92915050565b6000620003a68262000271565b9050919050565b620003b88162000399565b8114620003c457600080fd5b50565b600081519050620003d881620003ad565b92915050565b6000620003eb8262000271565b9050919050565b620003fd81620003de565b81146200040957600080fd5b50565b6000815190506200041d81620003f2565b92915050565b6000620004308262000271565b9050919050565b620004428162000423565b81146200044e57600080fd5b50565b600081519050620004628162000437565b92915050565b6000620004758262000271565b9050919050565b620004878162000468565b81146200049357600080fd5b50565b600081519050620004a7816200047c565b92915050565b600080600080600080600080610100898b031215620004d157620004d06200024c565b5b6000620004e18b828c01620002b3565b9850506020620004f48b828c01620002f8565b9750506040620005078b828c016200033d565b96505060606200051a8b828c0162000382565b95505060806200052d8b828c01620003c7565b94505060a0620005408b828c016200040c565b93505060c0620005538b828c0162000451565b92505060e0620005668b828c0162000496565b9150509295985092959890939650565b61478180620005866000396000f3fe608060405234801561001057600080fd5b50600436106100f55760003560e01c80636b0a493e11610097578063be4641e111610066578063be4641e11461022e578063bfe370d91461024a578063d71a48551461027a578063deb21fa214610296576100f5565b80636b0a493e146101be578063861f7dff146101da5780638dfc8f50146101f6578063944583c314610212576100f5565b8063426f5178116100d3578063426f51781461014e5780635dfa90e41461016a578063648c59eb14610186578063654ea484146101a2576100f5565b80630c8273e6146100fa57806337ab42bf146101165780633c840d4214610132575b600080fd5b610114600480360381019061010f9190612b84565b6102c6565b005b610130600480360381019061012b9190612c30565b610633565b005b61014c60048036038101906101479190612c30565b610822565b005b61016860048036038101906101639190612dc9565b610a11565b005b610184600480360381019061017f9190612ec6565b610b56565b005b6101a0600480360381019061019b9190612f22565b610fce565b005b6101bc60048036038101906101b7919061302a565b6110cd565b005b6101d860048036038101906101d39190612f22565b6115d3565b005b6101f460048036038101906101ef9190612dc9565b6118df565b005b610210600480360381019061020b91906130ef565b611a33565b005b61022c60048036038101906102279190612ec6565b61201e565b005b61024860048036038101906102439190612f22565b6123aa565b005b610264600480360381019061025f919061317a565b6126df565b60405161027191906131d2565b60405180910390f35b610294600480360381019061028f91906131ed565b612702565b005b6102b060048036038101906102ab91906132a0565b612ae2565b6040516102bd91906131d2565b60405180910390f35b3373ffffffffffffffffffffffffffffffffffffffff168273ffffffffffffffffffffffffffffffffffffffff1614610334576040517f08c379a000000000000000000000000000000000000000000000000000000000815260040161032b90613350565b60405180910390fd5b8073ffffffffffffffffffffffffffffffffffffffff168273ffffffffffffffffffffffffffffffffffffffff1614156103a3576040517f08c379a000000000000000000000000000000000000000000000000000000000815260040161039a906133bc565b60405180910390fd5b600073ffffffffffffffffffffffffffffffffffffffff16600260009054906101000a900473ffffffffffffffffffffffffffffffffffffffff1673ffffffffffffffffffffffffffffffffffffffff1663b4108a94846040518263ffffffff1660e01b815260040161041691906133eb565b60206040518083038186803b15801561042e57600080fd5b505afa158015610442573d6000803e3d6000fd5b505050506040513d601f19601f82011682018060405250810190610466919061341b565b73ffffffffffffffffffffffffffffffffffffffff16141580156105615750600073ffffffffffffffffffffffffffffffffffffffff16600260009054906101000a900473ffffffffffffffffffffffffffffffffffffffff1673ffffffffffffffffffffffffffffffffffffffff1663b4108a94836040518263ffffffff1660e01b81526004016104f891906133eb565b60206040518083038186803b15801561051057600080fd5b505afa158015610524573d6000803e3d6000fd5b505050506040513d601f19601f82011682018060405250810190610548919061341b565b73ffffffffffffffffffffffffffffffffffffffff1614155b6105a0576040517f08c379a0000000000000000000000000000000000000000000000000000000008152600401610597906134ba565b60405180910390fd5b600660009054906101000a900473ffffffffffffffffffffffffffffffffffffffff1673ffffffffffffffffffffffffffffffffffffffff166399d147c283836040518363ffffffff1660e01b81526004016105fd9291906134da565b600060405180830381600087803b15801561061757600080fd5b505af115801561062b573d6000803e3d6000fd5b505050505050565b3373ffffffffffffffffffffffffffffffffffffffff168373ffffffffffffffffffffffffffffffffffffffff16146106a1576040517f08c379a000000000000000000000000000000000000000000000000000000000815260040161069890613575565b60405180910390fd5b8060008054906101000a900473ffffffffffffffffffffffffffffffffffffffff1673ffffffffffffffffffffffffffffffffffffffff166370a08231856040518263ffffffff1660e01b81526004016106fb91906133eb565b60206040518083038186803b15801561071357600080fd5b505afa158015610727573d6000803e3d6000fd5b505050506040513d601f19601f8201168201806040525081019061074b91906135aa565b101561078c576040517f08c379a000000000000000000000000000000000000000000000000000000000815260040161078390613649565b60405180910390fd5b600760009054906101000a900473ffffffffffffffffffffffffffffffffffffffff1673ffffffffffffffffffffffffffffffffffffffff16636da307c88484846040518463ffffffff1660e01b81526004016107eb93929190613678565b600060405180830381600087803b15801561080557600080fd5b505af1158015610819573d6000803e3d6000fd5b50505050505050565b3373ffffffffffffffffffffffffffffffffffffffff168373ffffffffffffffffffffffffffffffffffffffff1614610890576040517f08c379a000000000000000000000000000000000000000000000000000000000815260040161088790613575565b60405180910390fd5b8060008054906101000a900473ffffffffffffffffffffffffffffffffffffffff1673ffffffffffffffffffffffffffffffffffffffff166370a08231856040518263ffffffff1660e01b81526004016108ea91906133eb565b60206040518083038186803b15801561090257600080fd5b505afa158015610916573d6000803e3d6000fd5b505050506040513d601f19601f8201168201806040525081019061093a91906135aa565b101561097b576040517f08c379a000000000000000000000000000000000000000000000000000000000815260040161097290613649565b60405180910390fd5b600760009054906101000a900473ffffffffffffffffffffffffffffffffffffffff1673ffffffffffffffffffffffffffffffffffffffff16635d177c1c8484846040518463ffffffff1660e01b81526004016109da93929190613678565b600060405180830381600087803b1580156109f457600080fd5b505af1158015610a08573d6000803e3d6000fd5b50505050505050565b8173ffffffffffffffffffffffffffffffffffffffff163373ffffffffffffffffffffffffffffffffffffffff1614610a7f576040517f08c379a0000000000000000000000000000000000000000000000000000000008152600401610a7690613721565b60405180910390fd5b6000815111610ac3576040517f08c379a0000000000000000000000000000000000000000000000000000000008152600401610aba9061378d565b60405180910390fd5b600260009054906101000a900473ffffffffffffffffffffffffffffffffffffffff1673ffffffffffffffffffffffffffffffffffffffff16630909014b83836040518363ffffffff1660e01b8152600401610b20929190613824565b600060405180830381600087803b158015610b3a57600080fd5b505af1158015610b4e573d6000803e3d6000fd5b505050505050565b6000610b61826126df565b90508273ffffffffffffffffffffffffffffffffffffffff163373ffffffffffffffffffffffffffffffffffffffff1614610bd1576040517f08c379a0000000000000000000000000000000000000000000000000000000008152600401610bc890613721565b60405180910390fd5b7f40000000000000000000000000000000000000000000000000000000000000007effffffffffffffffffffffffffffffffffffffffffffffffffffffffffffff191682600081518110610c2857610c27613854565b5b602001015160f81c60f81b7effffffffffffffffffffffffffffffffffffffffffffffffffffffffffffff191614610c95576040517f08c379a0000000000000000000000000000000000000000000000000000000008152600401610c8c906138f5565b60405180910390fd5b60028251118015610ca857506020825111155b610ce7576040517f08c379a0000000000000000000000000000000000000000000000000000000008152600401610cde90613987565b60405180910390fd5b80600260009054906101000a900473ffffffffffffffffffffffffffffffffffffffff1673ffffffffffffffffffffffffffffffffffffffff1663e8fc954e856040518263ffffffff1660e01b8152600401610d4391906133eb565b60206040518083038186803b158015610d5b57600080fd5b505afa158015610d6f573d6000803e3d6000fd5b505050506040513d601f19601f82011682018060405250810190610d9391906139bc565b1415610dd4576040517f08c379a0000000000000000000000000000000000000000000000000000000008152600401610dcb90613a5b565b60405180910390fd5b8273ffffffffffffffffffffffffffffffffffffffff16600260009054906101000a900473ffffffffffffffffffffffffffffffffffffffff1673ffffffffffffffffffffffffffffffffffffffff166311e0bda7836040518263ffffffff1660e01b8152600401610e4691906131d2565b60206040518083038186803b158015610e5e57600080fd5b505afa158015610e72573d6000803e3d6000fd5b505050506040513d601f19601f82011682018060405250810190610e96919061341b565b73ffffffffffffffffffffffffffffffffffffffff1614610eec576040517f08c379a0000000000000000000000000000000000000000000000000000000008152600401610ee390613aed565b60405180910390fd5b600260009054906101000a900473ffffffffffffffffffffffffffffffffffffffff1673ffffffffffffffffffffffffffffffffffffffff1663a477c0bf84836040518363ffffffff1660e01b8152600401610f49929190613b0d565b600060405180830381600087803b158015610f6357600080fd5b505af1158015610f77573d6000803e3d6000fd5b505050508273ffffffffffffffffffffffffffffffffffffffff167f04d371655880a064ab42f6fee28675351cb26ca88a7e5a9d6140cb0ec6ca568d82604051610fc191906131d2565b60405180910390a2505050565b3373ffffffffffffffffffffffffffffffffffffffff168273ffffffffffffffffffffffffffffffffffffffff161461103c576040517f08c379a000000000000000000000000000000000000000000000000000000000815260040161103390613ba8565b60405180910390fd5b600460009054906101000a900473ffffffffffffffffffffffffffffffffffffffff1673ffffffffffffffffffffffffffffffffffffffff1663aaf837c5826040518263ffffffff1660e01b815260040161109791906131d2565b600060405180830381600087803b1580156110b157600080fd5b505af11580156110c5573d6000803e3d6000fd5b505050505050565b3373ffffffffffffffffffffffffffffffffffffffff168673ffffffffffffffffffffffffffffffffffffffff161461113b576040517f08c379a000000000000000000000000000000000000000000000000000000000815260040161113290613c3a565b60405180910390fd5b610200855110611180576040517f08c379a000000000000000000000000000000000000000000000000000000000815260040161117790613ccc565b60405180910390fd5b600073ffffffffffffffffffffffffffffffffffffffff16600260009054906101000a900473ffffffffffffffffffffffffffffffffffffffff1673ffffffffffffffffffffffffffffffffffffffff1663b4108a94886040518263ffffffff1660e01b81526004016111f391906133eb565b60206040518083038186803b15801561120b57600080fd5b505afa15801561121f573d6000803e3d6000fd5b505050506040513d601f19601f82011682018060405250810190611243919061341b565b73ffffffffffffffffffffffffffffffffffffffff16141561129a576040517f08c379a000000000000000000000000000000000000000000000000000000000815260040161129190613d38565b60405180910390fd5b600854831480156112ac575060085482145b80611365575060011515600160009054906101000a900473ffffffffffffffffffffffffffffffffffffffff1673ffffffffffffffffffffffffffffffffffffffff1663c627f1ee856040518263ffffffff1660e01b815260040161131191906131d2565b60206040518083038186803b15801561132957600080fd5b505afa15801561133d573d6000803e3d6000fd5b505050506040513d601f19601f820116820180604052508101906113619190613d90565b1515145b6113a4576040517f08c379a000000000000000000000000000000000000000000000000000000000815260040161139b90613e2f565b60405180910390fd5b60011515600160009054906101000a900473ffffffffffffffffffffffffffffffffffffffff1673ffffffffffffffffffffffffffffffffffffffff1663c627f1ee836040518263ffffffff1660e01b815260040161140391906131d2565b60206040518083038186803b15801561141b57600080fd5b505afa15801561142f573d6000803e3d6000fd5b505050506040513d601f19601f820116820180604052508101906114539190613d90565b151514611495576040517f08c379a000000000000000000000000000000000000000000000000000000000815260040161148c90613e9b565b60405180910390fd5b60008551141561153357600460009054906101000a900473ffffffffffffffffffffffffffffffffffffffff1673ffffffffffffffffffffffffffffffffffffffff16636b0a493e87836040518363ffffffff1660e01b81526004016114fc929190613b0d565b600060405180830381600087803b15801561151657600080fd5b505af115801561152a573d6000803e3d6000fd5b505050506115cb565b600460009054906101000a900473ffffffffffffffffffffffffffffffffffffffff1673ffffffffffffffffffffffffffffffffffffffff1663654ea4848787878787876040518763ffffffff1660e01b815260040161159896959493929190613f79565b600060405180830381600087803b1580156115b257600080fd5b505af11580156115c6573d6000803e3d6000fd5b505050505b505050505050565b3373ffffffffffffffffffffffffffffffffffffffff168273ffffffffffffffffffffffffffffffffffffffff1614611641576040517f08c379a000000000000000000000000000000000000000000000000000000000815260040161163890613c3a565b60405180910390fd5b600073ffffffffffffffffffffffffffffffffffffffff16600260009054906101000a900473ffffffffffffffffffffffffffffffffffffffff1673ffffffffffffffffffffffffffffffffffffffff1663b4108a94846040518263ffffffff1660e01b81526004016116b491906133eb565b60206040518083038186803b1580156116cc57600080fd5b505afa1580156116e0573d6000803e3d6000fd5b505050506040513d601f19601f82011682018060405250810190611704919061341b565b73ffffffffffffffffffffffffffffffffffffffff16141561175b576040517f08c379a000000000000000000000000000000000000000000000000000000000815260040161175290613d38565b60405180910390fd5b60011515600160009054906101000a900473ffffffffffffffffffffffffffffffffffffffff1673ffffffffffffffffffffffffffffffffffffffff1663c627f1ee836040518263ffffffff1660e01b81526004016117ba91906131d2565b60206040518083038186803b1580156117d257600080fd5b505afa1580156117e6573d6000803e3d6000fd5b505050506040513d601f19601f8201168201806040525081019061180a9190613d90565b15151461184c576040517f08c379a00000000000000000000000000000000000000000000000000000000081526004016118439061405a565b60405180910390fd5b600460009054906101000a900473ffffffffffffffffffffffffffffffffffffffff1673ffffffffffffffffffffffffffffffffffffffff16636b0a493e83836040518363ffffffff1660e01b81526004016118a9929190613b0d565b600060405180830381600087803b1580156118c357600080fd5b505af11580156118d7573d6000803e3d6000fd5b505050505050565b8173ffffffffffffffffffffffffffffffffffffffff163373ffffffffffffffffffffffffffffffffffffffff161461194d576040517f08c379a000000000000000000000000000000000000000000000000000000000815260040161194490613721565b60405180910390fd5b60008151118015611961575061012c815111155b6119a0576040517f08c379a0000000000000000000000000000000000000000000000000000000008152600401611997906140ec565b60405180910390fd5b600260009054906101000a900473ffffffffffffffffffffffffffffffffffffffff1673ffffffffffffffffffffffffffffffffffffffff166320aba4da83836040518363ffffffff1660e01b81526004016119fd929190613824565b600060405180830381600087803b158015611a1757600080fd5b505af1158015611a2b573d6000803e3d6000fd5b505050505050565b8273ffffffffffffffffffffffffffffffffffffffff163373ffffffffffffffffffffffffffffffffffffffff1614611aa1576040517f08c379a0000000000000000000000000000000000000000000000000000000008152600401611a989061417e565b60405180910390fd5b60018251118015611ab457506020825111155b611af3576040517f08c379a0000000000000000000000000000000000000000000000000000000008152600401611aea90614210565b60405180910390fd5b7f40000000000000000000000000000000000000000000000000000000000000007effffffffffffffffffffffffffffffffffffffffffffffffffffffffffffff191681600081518110611b4a57611b49613854565b5b602001015160f81c60f81b7effffffffffffffffffffffffffffffffffffffffffffffffffffffffffffff191614611bb7576040517f08c379a0000000000000000000000000000000000000000000000000000000008152600401611bae906138f5565b60405180910390fd5b60028151118015611bca57506020815111155b611c09576040517f08c379a0000000000000000000000000000000000000000000000000000000008152600401611c0090613987565b60405180910390fd5b8273ffffffffffffffffffffffffffffffffffffffff16600260009054906101000a900473ffffffffffffffffffffffffffffffffffffffff1673ffffffffffffffffffffffffffffffffffffffff1663b4108a94856040518263ffffffff1660e01b8152600401611c7b91906133eb565b60206040518083038186803b158015611c9357600080fd5b505afa158015611ca7573d6000803e3d6000fd5b505050506040513d601f19601f82011682018060405250810190611ccb919061341b565b73ffffffffffffffffffffffffffffffffffffffff16141580611dc45750600073ffffffffffffffffffffffffffffffffffffffff16600260009054906101000a900473ffffffffffffffffffffffffffffffffffffffff1673ffffffffffffffffffffffffffffffffffffffff1663b4108a94856040518263ffffffff1660e01b8152600401611d5c91906133eb565b60206040518083038186803b158015611d7457600080fd5b505afa158015611d88573d6000803e3d6000fd5b505050506040513d601f19601f82011682018060405250810190611dac919061341b565b73ffffffffffffffffffffffffffffffffffffffff16145b611e03576040517f08c379a0000000000000000000000000000000000000000000000000000000008152600401611dfa9061427c565b60405180910390fd5b6000611e0e826126df565b9050600073ffffffffffffffffffffffffffffffffffffffff16600260009054906101000a900473ffffffffffffffffffffffffffffffffffffffff1673ffffffffffffffffffffffffffffffffffffffff166311e0bda7836040518263ffffffff1660e01b8152600401611e8391906131d2565b60206040518083038186803b158015611e9b57600080fd5b505afa158015611eaf573d6000803e3d6000fd5b505050506040513d601f19601f82011682018060405250810190611ed3919061341b565b73ffffffffffffffffffffffffffffffffffffffff1614611f29576040517f08c379a0000000000000000000000000000000000000000000000000000000008152600401611f209061430e565b60405180910390fd5b6000611f34846126df565b9050600360009054906101000a900473ffffffffffffffffffffffffffffffffffffffff1673ffffffffffffffffffffffffffffffffffffffff166314def8368683856040518463ffffffff1660e01b8152600401611f959392919061432e565b600060405180830381600087803b158015611faf57600080fd5b505af1158015611fc3573d6000803e3d6000fd5b505050508473ffffffffffffffffffffffffffffffffffffffff167f5ef99684cfef8b5446d6ca2c82757ec3aa390143139c074ccfec758263416107828460405161200f929190614365565b60405180910390a25050505050565b6000612029826126df565b90508273ffffffffffffffffffffffffffffffffffffffff163373ffffffffffffffffffffffffffffffffffffffff1614612099576040517f08c379a000000000000000000000000000000000000000000000000000000000815260040161209090613721565b60405180910390fd5b80600260009054906101000a900473ffffffffffffffffffffffffffffffffffffffff1673ffffffffffffffffffffffffffffffffffffffff16635fd4b08a856040518263ffffffff1660e01b81526004016120f591906133eb565b60206040518083038186803b15801561210d57600080fd5b505afa158015612121573d6000803e3d6000fd5b505050506040513d601f19601f8201168201806040525081019061214591906139bc565b1415612186576040517f08c379a000000000000000000000000000000000000000000000000000000000815260040161217d90614400565b60405180910390fd5b6001825111801561219957506020825111155b6121d8576040517f08c379a00000000000000000000000000000000000000000000000000000000081526004016121cf90614210565b60405180910390fd5b6000801b600260009054906101000a900473ffffffffffffffffffffffffffffffffffffffff1673ffffffffffffffffffffffffffffffffffffffff166365f68c89856040518263ffffffff1660e01b815260040161223791906133eb565b60206040518083038186803b15801561224f57600080fd5b505afa158015612263573d6000803e3d6000fd5b505050506040513d601f19601f8201168201806040525081019061228791906139bc565b14156122c8576040517f08c379a00000000000000000000000000000000000000000000000000000000081526004016122bf90614492565b60405180910390fd5b600260009054906101000a900473ffffffffffffffffffffffffffffffffffffffff1673ffffffffffffffffffffffffffffffffffffffff16630667e80584836040518363ffffffff1660e01b8152600401612325929190613b0d565b600060405180830381600087803b15801561233f57600080fd5b505af1158015612353573d6000803e3d6000fd5b505050508273ffffffffffffffffffffffffffffffffffffffff167f72b1cf0bc13f95f0e133d81e3f2eb157e6bb587fc674744d4a199fb0227825128260405161239d91906131d2565b60405180910390a2505050565b3373ffffffffffffffffffffffffffffffffffffffff168273ffffffffffffffffffffffffffffffffffffffff1614612418576040517f08c379a000000000000000000000000000000000000000000000000000000000815260040161240f90614524565b60405180910390fd5b600073ffffffffffffffffffffffffffffffffffffffff16600260009054906101000a900473ffffffffffffffffffffffffffffffffffffffff1673ffffffffffffffffffffffffffffffffffffffff1663b4108a94846040518263ffffffff1660e01b815260040161248b91906133eb565b60206040518083038186803b1580156124a357600080fd5b505afa1580156124b7573d6000803e3d6000fd5b505050506040513d601f19601f820116820180604052508101906124db919061341b565b73ffffffffffffffffffffffffffffffffffffffff161415612532576040517f08c379a0000000000000000000000000000000000000000000000000000000008152600401612529906145b6565b60405180910390fd5b600073ffffffffffffffffffffffffffffffffffffffff16600160009054906101000a900473ffffffffffffffffffffffffffffffffffffffff1673ffffffffffffffffffffffffffffffffffffffff1663691d1c28836040518263ffffffff1660e01b81526004016125a591906131d2565b60206040518083038186803b1580156125bd57600080fd5b505afa1580156125d1573d6000803e3d6000fd5b505050506040513d601f19601f820116820180604052508101906125f5919061341b565b73ffffffffffffffffffffffffffffffffffffffff16141561264c576040517f08c379a000000000000000000000000000000000000000000000000000000000815260040161264390614622565b60405180910390fd5b600560009054906101000a900473ffffffffffffffffffffffffffffffffffffffff1673ffffffffffffffffffffffffffffffffffffffff1663be4641e183836040518363ffffffff1660e01b81526004016126a9929190613b0d565b600060405180830381600087803b1580156126c357600080fd5b505af11580156126d7573d6000803e3d6000fd5b505050505050565b600080825114156126f5576000801b90506126fd565b602082015190505b919050565b3373ffffffffffffffffffffffffffffffffffffffff168573ffffffffffffffffffffffffffffffffffffffff1614612770576040517f08c379a000000000000000000000000000000000000000000000000000000000815260040161276790613c3a565b60405180910390fd5b60008451116127b4576040517f08c379a00000000000000000000000000000000000000000000000000000000081526004016127ab9061468e565b60405180910390fd5b6102008451106127f9576040517f08c379a00000000000000000000000000000000000000000000000000000000081526004016127f090613ccc565b60405180910390fd5b600073ffffffffffffffffffffffffffffffffffffffff16600260009054906101000a900473ffffffffffffffffffffffffffffffffffffffff1673ffffffffffffffffffffffffffffffffffffffff1663b4108a94876040518263ffffffff1660e01b815260040161286c91906133eb565b60206040518083038186803b15801561288457600080fd5b505afa158015612898573d6000803e3d6000fd5b505050506040513d601f19601f820116820180604052508101906128bc919061341b565b73ffffffffffffffffffffffffffffffffffffffff161415612913576040517f08c379a000000000000000000000000000000000000000000000000000000000815260040161290a90613d38565b60405180910390fd5b60085482148015612925575060085481145b80612a075750600073ffffffffffffffffffffffffffffffffffffffff16600260009054906101000a900473ffffffffffffffffffffffffffffffffffffffff1673ffffffffffffffffffffffffffffffffffffffff166377dd8a03846040518263ffffffff1660e01b815260040161299e91906131d2565b60206040518083038186803b1580156129b657600080fd5b505afa1580156129ca573d6000803e3d6000fd5b505050506040513d601f19601f820116820180604052508101906129ee919061341b565b73ffffffffffffffffffffffffffffffffffffffff1614155b612a46576040517f08c379a0000000000000000000000000000000000000000000000000000000008152600401612a3d90613e2f565b60405180910390fd5b600460009054906101000a900473ffffffffffffffffffffffffffffffffffffffff1673ffffffffffffffffffffffffffffffffffffffff1663d71a485586868686866040518663ffffffff1660e01b8152600401612aa99594939291906146ae565b600060405180830381600087803b158015612ac357600080fd5b505af1158015612ad7573d6000803e3d6000fd5b505050505050505050565b600081604051602001612af59190614730565b604051602081830303815290604052805190602001209050919050565b6000604051905090565b600080fd5b600080fd5b600073ffffffffffffffffffffffffffffffffffffffff82169050919050565b6000612b5182612b26565b9050919050565b612b6181612b46565b8114612b6c57600080fd5b50565b600081359050612b7e81612b58565b92915050565b60008060408385031215612b9b57612b9a612b1c565b5b6000612ba985828601612b6f565b9250506020612bba85828601612b6f565b9150509250929050565b6000819050919050565b612bd781612bc4565b8114612be257600080fd5b50565b600081359050612bf481612bce565b92915050565b6000819050919050565b612c0d81612bfa565b8114612c1857600080fd5b50565b600081359050612c2a81612c04565b92915050565b600080600060608486031215612c4957612c48612b1c565b5b6000612c5786828701612b6f565b9350506020612c6886828701612be5565b9250506040612c7986828701612c1b565b9150509250925092565b600080fd5b600080fd5b6000601f19601f8301169050919050565b7f4e487b7100000000000000000000000000000000000000000000000000000000600052604160045260246000fd5b612cd682612c8d565b810181811067ffffffffffffffff82111715612cf557612cf4612c9e565b5b80604052505050565b6000612d08612b12565b9050612d148282612ccd565b919050565b600067ffffffffffffffff821115612d3457612d33612c9e565b5b612d3d82612c8d565b9050602081019050919050565b82818337600083830152505050565b6000612d6c612d6784612d19565b612cfe565b905082815260208101848484011115612d8857612d87612c88565b5b612d93848285612d4a565b509392505050565b600082601f830112612db057612daf612c83565b5b8135612dc0848260208601612d59565b91505092915050565b60008060408385031215612de057612ddf612b1c565b5b6000612dee85828601612b6f565b925050602083013567ffffffffffffffff811115612e0f57612e0e612b21565b5b612e1b85828601612d9b565b9150509250929050565b600067ffffffffffffffff821115612e4057612e3f612c9e565b5b612e4982612c8d565b9050602081019050919050565b6000612e69612e6484612e25565b612cfe565b905082815260208101848484011115612e8557612e84612c88565b5b612e90848285612d4a565b509392505050565b600082601f830112612ead57612eac612c83565b5b8135612ebd848260208601612e56565b91505092915050565b60008060408385031215612edd57612edc612b1c565b5b6000612eeb85828601612b6f565b925050602083013567ffffffffffffffff811115612f0c57612f0b612b21565b5b612f1885828601612e98565b9150509250929050565b60008060408385031215612f3957612f38612b1c565b5b6000612f4785828601612b6f565b9250506020612f5885828601612be5565b9150509250929050565b600067ffffffffffffffff821115612f7d57612f7c612c9e565b5b602082029050602081019050919050565b600080fd5b6000612fa6612fa184612f62565b612cfe565b90508083825260208201905060208402830185811115612fc957612fc8612f8e565b5b835b81811015612ff25780612fde8882612b6f565b845260208401935050602081019050612fcb565b5050509392505050565b600082601f83011261301157613010612c83565b5b8135613021848260208601612f93565b91505092915050565b60008060008060008060c0878903121561304757613046612b1c565b5b600061305589828a01612b6f565b965050602087013567ffffffffffffffff81111561307657613075612b21565b5b61308289828a01612d9b565b955050604087013567ffffffffffffffff8111156130a3576130a2612b21565b5b6130af89828a01612ffc565b94505060606130c089828a01612be5565b93505060806130d189828a01612be5565b92505060a06130e289828a01612be5565b9150509295509295509295565b60008060006060848603121561310857613107612b1c565b5b600061311686828701612b6f565b935050602084013567ffffffffffffffff81111561313757613136612b21565b5b61314386828701612e98565b925050604084013567ffffffffffffffff81111561316457613163612b21565b5b61317086828701612e98565b9150509250925092565b6000602082840312156131905761318f612b1c565b5b600082013567ffffffffffffffff8111156131ae576131ad612b21565b5b6131ba84828501612e98565b91505092915050565b6131cc81612bc4565b82525050565b60006020820190506131e760008301846131c3565b92915050565b600080600080600060a0868803121561320957613208612b1c565b5b600061321788828901612b6f565b955050602086013567ffffffffffffffff81111561323857613237612b21565b5b61324488828901612d9b565b945050604086013567ffffffffffffffff81111561326557613264612b21565b5b61327188828901612ffc565b935050606061328288828901612be5565b925050608061329388828901612be5565b9150509295509295909350565b6000602082840312156132b6576132b5612b1c565b5b60006132c484828501612c1b565b91505092915050565b600082825260208201905092915050565b7f4572726f723a20666f6c6c6f776572206d757374206265206f7065726174696e60008201527f67206163636f756e740000000000000000000000000000000000000000000000602082015250565b600061333a6029836132cd565b9150613345826132de565b604082019050919050565b600060208201905081810360008301526133698161332d565b9050919050565b7f4572726f723a2073616d65206163636f756e7400000000000000000000000000600082015250565b60006133a66013836132cd565b91506133b182613370565b602082019050919050565b600060208201905081810360008301526133d581613399565b9050919050565b6133e581612b46565b82525050565b600060208201905061340060008301846133dc565b92915050565b60008151905061341581612b58565b92915050565b60006020828403121561343157613430612b1c565b5b600061343f84828501613406565b91505092915050565b7f4572726f723a20626f746820666f6c6c6f77657220616e6420666f6c6c6f776560008201527f65206d7573742068617665206163636f756e7473000000000000000000000000602082015250565b60006134a46034836132cd565b91506134af82613448565b604082019050919050565b600060208201905081810360008301526134d381613497565b9050919050565b60006040820190506134ef60008301856133dc565b6134fc60208301846133dc565b9392505050565b7f4572726f723a20626f6f73746572206d757374206265206d73672e73656e646560008201527f7200000000000000000000000000000000000000000000000000000000000000602082015250565b600061355f6021836132cd565b915061356a82613503565b604082019050919050565b6000602082019050818103600083015261358e81613552565b9050919050565b6000815190506135a481612c04565b92915050565b6000602082840312156135c0576135bf612b1c565b5b60006135ce84828501613595565b91505092915050565b7f4572726f723a20626f6f73746572206d757374206861766520746f6b656e732060008201527f696e2062616c616e636500000000000000000000000000000000000000000000602082015250565b6000613633602a836132cd565b915061363e826135d7565b604082019050919050565b6000602082019050818103600083015261366281613626565b9050919050565b61367281612bfa565b82525050565b600060608201905061368d60008301866133dc565b61369a60208301856131c3565b6136a76040830184613669565b949350505050565b7f4572726f723a206f70657261746f72206d757374206265206163636f756e742060008201527f6f776e6572000000000000000000000000000000000000000000000000000000602082015250565b600061370b6025836132cd565b9150613716826136af565b604082019050919050565b6000602082019050818103600083015261373a816136fe565b9050919050565b7f4572726f723a206d757374206861766520696d61676520686173680000000000600082015250565b6000613777601b836132cd565b915061378282613741565b602082019050919050565b600060208201905081810360008301526137a68161376a565b9050919050565b600081519050919050565b60005b838110156137d65780820151818401526020810190506137bb565b838111156137e5576000848401525b50505050565b60006137f6826137ad565b61380081856132cd565b93506138108185602086016137b8565b61381981612c8d565b840191505092915050565b600060408201905061383960008301856133dc565b818103602083015261384b81846137eb565b90509392505050565b7f4e487b7100000000000000000000000000000000000000000000000000000000600052603260045260246000fd5b7f4572726f723a20666972737420656c656d656e74206f6620737472696e67206d60008201527f7573742062652022402200000000000000000000000000000000000000000000602082015250565b60006138df602a836132cd565b91506138ea82613883565b604082019050919050565b6000602082019050818103600083015261390e816138d2565b9050919050565b7f4572726f723a207573657241646472657373206d75737420626520626574776560008201527f656e203220262033322063686172616374657273000000000000000000000000602082015250565b60006139716034836132cd565b915061397c82613915565b604082019050919050565b600060208201905081810360008301526139a081613964565b9050919050565b6000815190506139b681612bce565b92915050565b6000602082840312156139d2576139d1612b1c565b5b60006139e0848285016139a7565b91505092915050565b7f4572726f723a206d75737420626520646966666572656e74207573657220616460008201527f6472657373000000000000000000000000000000000000000000000000000000602082015250565b6000613a456025836132cd565b9150613a50826139e9565b604082019050919050565b60006020820190508181036000830152613a7481613a38565b9050919050565b7f4572726f723a20757365722061646472657373206d757374206578697374206160008201527f742063757272656e742061646472657373000000000000000000000000000000602082015250565b6000613ad76031836132cd565b9150613ae282613a7b565b604082019050919050565b60006020820190508181036000830152613b0681613aca565b9050919050565b6000604082019050613b2260008301856133dc565b613b2f60208301846131c3565b9392505050565b7f4572726f723a206f6e6c79206163636f756e742063616e2064656c657465206d60008201527f656d650000000000000000000000000000000000000000000000000000000000602082015250565b6000613b926023836132cd565b9150613b9d82613b36565b604082019050919050565b60006020820190508181036000830152613bc181613b85565b9050919050565b7f4572726f723a2077726f6e67206163636f756e742063616c6c696e6720706f7360008201527f7400000000000000000000000000000000000000000000000000000000000000602082015250565b6000613c246021836132cd565b9150613c2f82613bc8565b604082019050919050565b60006020820190508181036000830152613c5381613c17565b9050919050565b7f4572726f723a206d656d652074657874206d757374206265206c65737320746860008201527f616e203531322063686172616374657273000000000000000000000000000000602082015250565b6000613cb66031836132cd565b9150613cc182613c5a565b604082019050919050565b60006020820190508181036000830152613ce581613ca9565b9050919050565b7f4572726f723a207573657220646f65736e27742068617665206163636f756e74600082015250565b6000613d226020836132cd565b9150613d2d82613cec565b602082019050919050565b60006020820190508181036000830152613d5181613d15565b9050919050565b60008115159050919050565b613d6d81613d58565b8114613d7857600080fd5b50565b600081519050613d8a81613d64565b92915050565b600060208284031215613da657613da5612b1c565b5b6000613db484828501613d7b565b91505092915050565b7f4572726f723a2065697468657220706172656e74266f726967696e206172652060008201527f7a65726f206f722074686579206d757374206578697374000000000000000000602082015250565b6000613e196037836132cd565b9150613e2482613dbd565b604082019050919050565b60006020820190508181036000830152613e4881613e0c565b9050919050565b7f4572726f723a207265706f7374206d7573742065786973740000000000000000600082015250565b6000613e856018836132cd565b9150613e9082613e4f565b602082019050919050565b60006020820190508181036000830152613eb481613e78565b9050919050565b600081519050919050565b600082825260208201905092915050565b6000819050602082019050919050565b613ef081612b46565b82525050565b6000613f028383613ee7565b60208301905092915050565b6000602082019050919050565b6000613f2682613ebb565b613f308185613ec6565b9350613f3b83613ed7565b8060005b83811015613f6c578151613f538882613ef6565b9750613f5e83613f0e565b925050600181019050613f3f565b5085935050505092915050565b600060c082019050613f8e60008301896133dc565b8181036020830152613fa081886137eb565b90508181036040830152613fb48187613f1b565b9050613fc360608301866131c3565b613fd060808301856131c3565b613fdd60a08301846131c3565b979650505050505050565b7f4572726f723a207265706f73746564206d656d6520646f65736e27742065786960008201527f7374000000000000000000000000000000000000000000000000000000000000602082015250565b60006140446022836132cd565b915061404f82613fe8565b604082019050919050565b6000602082019050818103600083015261407381614037565b9050919050565b7f4572726f723a207573657241646472657373206d75737420626520626574776560008201527f656e203220262033303020636861726163746572730000000000000000000000602082015250565b60006140d66035836132cd565b91506140e18261407a565b604082019050919050565b60006020820190508181036000830152614105816140c9565b9050919050565b7f4572726f723a206163636f756e74206d757374206265206163636f756e74206360008201527f726561746f720000000000000000000000000000000000000000000000000000602082015250565b60006141686026836132cd565b91506141738261410c565b604082019050919050565b600060208201905081810360008301526141978161415b565b9050919050565b7f4572726f723a20757365724e616d65206d757374206265206265747765656e2060008201527f3220262033322063686172616374657273000000000000000000000000000000602082015250565b60006141fa6031836132cd565b91506142058261419e565b604082019050919050565b60006020820190508181036000830152614229816141ed565b9050919050565b7f4572726f723a206163636f756e7420616c726561647920657869737473000000600082015250565b6000614266601d836132cd565b915061427182614230565b602082019050919050565b6000602082019050818103600083015261429581614259565b9050919050565b7f4572726f723a2075736572206164647265737320616c7265616479206578697360008201527f7473000000000000000000000000000000000000000000000000000000000000602082015250565b60006142f86022836132cd565b91506143038261429c565b604082019050919050565b60006020820190508181036000830152614327816142eb565b9050919050565b600060608201905061434360008301866133dc565b61435060208301856131c3565b61435d60408301846131c3565b949350505050565b600060408201905061437a60008301856131c3565b61438760208301846131c3565b9392505050565b7f4572726f723a206d75737420626520646966666572656e7420757365726e616d60008201527f6500000000000000000000000000000000000000000000000000000000000000602082015250565b60006143ea6021836132cd565b91506143f58261438e565b604082019050919050565b60006020820190508181036000830152614419816143dd565b9050919050565b7f4572726f723a206d757374206861766520616e206578697374696e672061636360008201527f6f756e7400000000000000000000000000000000000000000000000000000000602082015250565b600061447c6024836132cd565b915061448782614420565b604082019050919050565b600060208201905081810360008301526144ab8161446f565b9050919050565b7f4572726f723a206c696b6572206d757374206265206f7065726174696e67206160008201527f63636f756e740000000000000000000000000000000000000000000000000000602082015250565b600061450e6026836132cd565b9150614519826144b2565b604082019050919050565b6000602082019050818103600083015261453d81614501565b9050919050565b7f4572726f723a204d656d65206c696b6564206d7573742068617665206164647260008201527f6573730000000000000000000000000000000000000000000000000000000000602082015250565b60006145a06023836132cd565b91506145ab82614544565b604082019050919050565b600060208201905081810360008301526145cf81614593565b9050919050565b7f4572726f723a204d656d65206d75737420657869737400000000000000000000600082015250565b600061460c6016836132cd565b9150614617826145d6565b602082019050919050565b6000602082019050818103600083015261463b816145ff565b9050919050565b7f4572726f723a206d656d65206d75737420686176652074657874000000000000600082015250565b6000614678601a836132cd565b915061468382614642565b602082019050919050565b600060208201905081810360008301526146a78161466b565b9050919050565b600060a0820190506146c360008301886133dc565b81810360208301526146d581876137eb565b905081810360408301526146e98186613f1b565b90506146f860608301856131c3565b61470560808301846131c3565b9695505050505050565b6000819050919050565b61472a61472582612bfa565b61470f565b82525050565b600061473c8284614719565b6020820191508190509291505056fea2646970667358221220cb7067d5be1eb004157f56299c812b1f55eee4ce45585ded6c6902d337381a0864736f6c63430008090033",
  "immutableReferences": {},
  "source": "// SPDX-License-Identifier: MIT\n\npragma solidity >=0.8.0 <0.9.0;\n\nimport \"./Follow.sol\";\nimport \"./Like.sol\";\nimport \"./Post.sol\";\nimport \"./Boost.sol\";\nimport \"./UME.sol\";\nimport \"./MemeStorage.sol\";\nimport \"./UserFactory.sol\";\nimport \"./UserStorage.sol\";\n\ncontract UserInterface {\n\n  UME private umeToken;\n  MemeStorage private memeStorage;\n  UserStorage private userStorage;\n  UserFactory private userFactory;\n\n  Post private post;\n  Like private like;\n  Follow private follow;\n  Boost private boost;\n\n  bytes32 zeroBytes;\n\n  /*\n  struct User {\n    uint id; // user number in order\n    string name; // user name\n    string userAddr; // user address (@)\n    uint time; // user creation time\n    address addr; // address of user\n    address[] followers; // addresses of followers\n    address[] following; // addressses of following\n    uint[] posts; // memeIds of posts\n  }\n  */\n\n  event NewUser(\n    address indexed account,\n    bytes32 userName,\n    bytes32 userAddress);\n  event ChangedUserName(\n    address indexed account,\n    bytes32 userName);\n  event ChangedUserAddress(\n    address indexed account,\n    bytes32 userAddress);\n\n  constructor(\n    UME _umeToken,\n    MemeStorage _memeStorage,\n    UserStorage _userStorage,\n    UserFactory _userFactory,\n    Post _post,\n    Like _like,\n    Follow _follow,\n    Boost _boost\n  ) public {\n    umeToken = _umeToken;\n    memeStorage = _memeStorage;\n    userStorage = _userStorage;\n    userFactory = _userFactory;\n    post = _post;\n    like = _like;\n    follow = _follow;\n    boost = _boost;\n  }\n\n  function newUser(\n    address _account,\n    bytes memory _userName,\n    bytes memory _userAddress\n  ) public {\n    require(\n      msg.sender==_account,\n      'Error: account must be account creator');\n    require(\n      _userName.length>1 &&\n      _userName.length<=32,\n      'Error: userName must be between 2 & 32 characters');\n    require(\n      _userAddress[0]==bytes1('@'),\n      'Error: first element of string must be \"@\"');\n    require(\n      _userAddress.length>2 &&\n      _userAddress.length<=32,\n      'Error: userAddress must be between 2 & 32 characters');\n    require(\n      (userStorage.getAddr(_account)!=_account || userStorage.getAddr(_account)==address(0x0)),\n      'Error: account already exists');\n    bytes32 _ua = bytesToBytes32(_userAddress);\n    require(\n      userStorage.usersByUserAddr(_ua)==address(0x0),\n      'Error: user address already exists');\n\n    bytes32 _un = bytesToBytes32(_userName);\n    userFactory.newUser(_account, _un, _ua);\n    emit NewUser(_account, _un, _ua);\n  }\n  function changeUserName(\n    address _account,\n    bytes memory _userName\n  ) public {\n    bytes32 _un = bytesToBytes32(_userName);\n    require(\n      msg.sender==_account,\n      'Error: operator must be account owner');\n    require(\n      userStorage.getName(_account)!=_un,\n      'Error: must be different username');\n    require(\n      _userName.length>1 &&\n      _userName.length<=32,\n      'Error: userName must be between 2 & 32 characters');\n    require(\n      userStorage.getId(_account)!=0,\n      'Error: must have an existing account');\n\n    userStorage.setUserName(_account, _un);\n    emit ChangedUserName(_account, _un);\n  }\n  function changeUserAddress(\n    address _account,\n    bytes memory _userAddress\n  ) public {\n    bytes32 _ua = bytesToBytes32(_userAddress);\n    require(\n      msg.sender==_account,\n      'Error: operator must be account owner');\n    require(\n      _userAddress[0]==bytes1('@'),\n      'Error: first element of string must be \"@\"');\n    require(\n      _userAddress.length>2 &&\n      _userAddress.length<=32,\n      'Error: userAddress must be between 2 & 32 characters');\n    require(\n      userStorage.getUserAddr(_account)!=_ua,\n      'Error: must be different user address');\n    require(\n      userStorage.usersByUserAddr(_ua)==_account,\n      'Error: user address must exist at current address');\n\n    userStorage.setUserAddress(_account, _ua);\n    emit ChangedUserAddress(_account, _ua);\n  }\n\n  function newBio(\n    address _account,\n    string memory _bio\n  ) public {\n    require(\n      msg.sender==_account,\n      'Error: operator must be account owner');\n    require(\n      bytes(_bio).length>0 &&\n      bytes(_bio).length<=300,\n      'Error: userAddress must be between 2 & 300 characters');\n    userStorage.setBio(_account, _bio);\n  }\n\n  function newProfilePic(\n    address _account,\n    string memory _imgHash\n  ) public {\n    require(\n      msg.sender==_account,\n      'Error: operator must be account owner');\n    require(\n      bytes(_imgHash).length>0,\n      'Error: must have image hash');\n    userStorage.setProfilePic(_account, _imgHash);\n  }\n\n\n  // Meme posting functionality\n  function newMeme(\n    address _account,\n    string memory _postText,\n    address[] memory _tags,\n    bytes32 _parentId,\n    bytes32 _originId\n  ) public {\n    require(\n      _account==msg.sender,\n      'Error: wrong account calling post');\n    require(\n      bytes(_postText).length > 0,\n      'Error: meme must have text');\n    require(\n      bytes(_postText).length < 512,\n      'Error: meme text must be less than 512 characters');\n    require(\n      userStorage.getAddr(_account)!=address(0x0),\n      'Error: user doesn\\'t have account');\n    require(\n      (_parentId==zeroBytes && _originId==zeroBytes) ||\n      userStorage.usersByMeme(_parentId)!=address(0x0),\n      'Error: either parent&origin are zero or they must exist');\n    // post new meme\n    post.newMeme(_account, _postText, _tags, _parentId, _originId);\n  }\n  function rememe(\n    address _account,\n    bytes32 _memeId\n  ) public {\n    require(\n      _account==msg.sender,\n      'Error: wrong account calling post');\n    require(\n      userStorage.getAddr(_account)!=address(0x0),\n      'Error: user doesn\\'t have account');\n    require(\n      memeStorage.getVisibility(_memeId)==true,\n      'Error: reposted meme doesn\\'t exist');\n    // repost meme\n    post.rememe(_account, _memeId);\n  }\n  function quoteMeme(\n    address _account,\n    string memory _postText,\n    address[] memory _tags,\n    bytes32 _parentId,\n    bytes32 _originId,\n    bytes32 _memeId\n  ) public {\n    require(\n      _account==msg.sender,\n      'Error: wrong account calling post');\n    require(\n      bytes(_postText).length < 512,\n      'Error: meme text must be less than 512 characters');\n    require(\n      userStorage.getAddr(_account)!=address(0x0),\n      'Error: user doesn\\'t have account');\n    require(\n      (_parentId==zeroBytes && _originId==zeroBytes) ||\n      memeStorage.getVisibility(_parentId)==true,\n      'Error: either parent&origin are zero or they must exist');\n    require(\n      memeStorage.getVisibility(_memeId)==true,\n      'Error: repost must exist');\n    if(bytes(_postText).length==0) {\n      post.rememe(_account, _memeId);\n    }\n    else {\n      post.quoteMeme(_account, _postText, _tags, _parentId, _originId, _memeId);\n    }\n  }\n\n  function deleteMeme(\n    address _account,\n    bytes32 _memeId\n  ) public {\n    require(\n      _account==msg.sender,\n      'Error: only account can delete meme');\n    post.deleteMeme(_memeId);\n  }\n\n\n  // like functions\n  function likeMeme(\n    address _account,\n    bytes32 _memeId\n  ) public {\n     require(\n       _account==msg.sender,\n       'Error: liker must be operating account');\n     require(\n       userStorage.getAddr(_account)!=address(0x0),\n       'Error: Meme liked must have address');\n     require(\n       memeStorage.getAuthor(_memeId)!=address(0x0),\n       'Error: Meme must exist');\n\n     like.likeMeme(_account, _memeId);\n  }\n\n  function followUser(\n    address _from,\n    address _to\n  ) public {\n    require(\n      _from==msg.sender,\n      'Error: follower must be operating account');\n    require(\n      _from!=_to,\n      'Error: same account');\n    require(\n      userStorage.getAddr(_from)!=address(0x0) &&\n      userStorage.getAddr(_to)!=address(0x0),\n      'Error: both follower and followee must have accounts');\n\n    follow.follow(_from, _to);\n  }\n\n  function boostMeme(\n    address _account,\n    bytes32 _memeId,\n    uint _boostNumber\n  ) public {\n    require(\n      _account==msg.sender,\n      'Error: booster must be msg.sender');\n    require(\n      umeToken.balanceOf(_account)>=_boostNumber,\n      'Error: booster must have tokens in balance');\n    boost.boostCall(_account, _memeId, _boostNumber);\n  }\n  function unBoostMeme(\n    address _account,\n    bytes32 _memeId,\n    uint _boostNumber\n  ) public {\n    require(\n      _account==msg.sender,\n      'Error: booster must be msg.sender');\n    require(\n      umeToken.balanceOf(_account)>=_boostNumber,\n      'Error: booster must have tokens in balance');\n    boost.unBoostCall(_account, _memeId, _boostNumber);\n  }\n\n  // helper functions\n  function bytesToBytes32(bytes memory source) public pure returns(bytes32 result) {\n    if(source.length==0) return 0x0;\n    assembly {\n      result := mload(add(source, 32))\n    }\n  }\n\n  function encode(uint num) public view returns(bytes32) {\n    return keccak256(abi.encodePacked(num));\n  }\n\n  function _deleteUints(uint[] memory array, uint index) private pure returns(uint[] memory) {\n    uint[] memory _array = new uint[](array.length-1);\n    for(uint i = 0; i < index; i++) {\n      _array[i] = array[i];\n    }\n    for(uint i = index; i < _array.length; i++) {\n      _array[i] = array[i+1];\n    }\n    return _array;\n  }\n}\n",
  "sourcePath": "/Users/jaiq/Documents/000 BLOCKCHAIN/ETH/uMe/src/contracts/UserInterface.sol",
  "compiler": {
    "name": "solc",
    "version": "0.8.9+commit.e5eed63a.Emscripten.clang"
  },
  "schemaVersion": "3.4.3",
  "updatedAt": "2021-10-06T00:40:47.012Z",
  "networkType": "ethereum",
  "devdoc": {
    "kind": "dev",
    "methods": {},
    "version": 1
  },
  "userdoc": {
    "kind": "user",
    "methods": {},
    "version": 1
  }
}