{
  "contractName": "UserInterface",
  "abi": [
    {
      "inputs": [
        {
          "internalType": "contract UME",
          "name": "_umeToken",
          "type": "address"
        },
        {
          "internalType": "contract MemeStorage",
          "name": "_memeStorage",
          "type": "address"
        },
        {
          "internalType": "contract UserStorage",
          "name": "_userStorage",
          "type": "address"
        },
        {
          "internalType": "contract UserFactory",
          "name": "_userFactory",
          "type": "address"
        },
        {
          "internalType": "contract Post",
          "name": "_post",
          "type": "address"
        },
        {
          "internalType": "contract Like",
          "name": "_like",
          "type": "address"
        },
        {
          "internalType": "contract Follow",
          "name": "_follow",
          "type": "address"
        },
        {
          "internalType": "contract Boost",
          "name": "_boost",
          "type": "address"
        }
      ],
      "stateMutability": "nonpayable",
      "type": "constructor"
    },
    {
      "anonymous": false,
      "inputs": [
        {
          "indexed": true,
          "internalType": "address",
          "name": "account",
          "type": "address"
        },
        {
          "indexed": false,
          "internalType": "bytes32",
          "name": "userAddress",
          "type": "bytes32"
        }
      ],
      "name": "ChangedUserAddress",
      "type": "event"
    },
    {
      "anonymous": false,
      "inputs": [
        {
          "indexed": true,
          "internalType": "address",
          "name": "account",
          "type": "address"
        },
        {
          "indexed": false,
          "internalType": "bytes32",
          "name": "userName",
          "type": "bytes32"
        }
      ],
      "name": "ChangedUserName",
      "type": "event"
    },
    {
      "anonymous": false,
      "inputs": [
        {
          "indexed": true,
          "internalType": "address",
          "name": "account",
          "type": "address"
        },
        {
          "indexed": false,
          "internalType": "bytes32",
          "name": "userName",
          "type": "bytes32"
        },
        {
          "indexed": false,
          "internalType": "bytes32",
          "name": "userAddress",
          "type": "bytes32"
        }
      ],
      "name": "NewUser",
      "type": "event"
    },
    {
      "inputs": [
        {
          "internalType": "address",
          "name": "_account",
          "type": "address"
        },
        {
          "internalType": "bytes",
          "name": "_userName",
          "type": "bytes"
        },
        {
          "internalType": "bytes",
          "name": "_userAddress",
          "type": "bytes"
        }
      ],
      "name": "newUser",
      "outputs": [],
      "stateMutability": "nonpayable",
      "type": "function"
    },
    {
      "inputs": [
        {
          "internalType": "address",
          "name": "_account",
          "type": "address"
        },
        {
          "internalType": "bytes",
          "name": "_userName",
          "type": "bytes"
        }
      ],
      "name": "changeUserName",
      "outputs": [],
      "stateMutability": "nonpayable",
      "type": "function"
    },
    {
      "inputs": [
        {
          "internalType": "address",
          "name": "_account",
          "type": "address"
        },
        {
          "internalType": "bytes",
          "name": "_userAddress",
          "type": "bytes"
        }
      ],
      "name": "changeUserAddress",
      "outputs": [],
      "stateMutability": "nonpayable",
      "type": "function"
    },
    {
      "inputs": [
        {
          "internalType": "address",
          "name": "_account",
          "type": "address"
        },
        {
          "internalType": "string",
          "name": "_postText",
          "type": "string"
        },
        {
          "internalType": "address[]",
          "name": "_tags",
          "type": "address[]"
        },
        {
          "internalType": "bytes32",
          "name": "_parentId",
          "type": "bytes32"
        },
        {
          "internalType": "bytes32",
          "name": "_originId",
          "type": "bytes32"
        }
      ],
      "name": "newMeme",
      "outputs": [],
      "stateMutability": "nonpayable",
      "type": "function"
    },
    {
      "inputs": [
        {
          "internalType": "address",
          "name": "_account",
          "type": "address"
        },
        {
          "internalType": "bytes32",
          "name": "_memeId",
          "type": "bytes32"
        }
      ],
      "name": "rememe",
      "outputs": [],
      "stateMutability": "nonpayable",
      "type": "function"
    },
    {
      "inputs": [
        {
          "internalType": "address",
          "name": "_account",
          "type": "address"
        },
        {
          "internalType": "string",
          "name": "_postText",
          "type": "string"
        },
        {
          "internalType": "address[]",
          "name": "_tags",
          "type": "address[]"
        },
        {
          "internalType": "bytes32",
          "name": "_parentId",
          "type": "bytes32"
        },
        {
          "internalType": "bytes32",
          "name": "_originId",
          "type": "bytes32"
        },
        {
          "internalType": "bytes32",
          "name": "_memeId",
          "type": "bytes32"
        }
      ],
      "name": "quoteMeme",
      "outputs": [],
      "stateMutability": "nonpayable",
      "type": "function"
    },
    {
      "inputs": [
        {
          "internalType": "address",
          "name": "_account",
          "type": "address"
        },
        {
          "internalType": "bytes32",
          "name": "_memeId",
          "type": "bytes32"
        }
      ],
      "name": "deleteMeme",
      "outputs": [],
      "stateMutability": "nonpayable",
      "type": "function"
    },
    {
      "inputs": [
        {
          "internalType": "address",
          "name": "_account",
          "type": "address"
        },
        {
          "internalType": "bytes32",
          "name": "_memeId",
          "type": "bytes32"
        }
      ],
      "name": "likeMeme",
      "outputs": [],
      "stateMutability": "nonpayable",
      "type": "function"
    },
    {
      "inputs": [
        {
          "internalType": "address",
          "name": "_from",
          "type": "address"
        },
        {
          "internalType": "address",
          "name": "_to",
          "type": "address"
        }
      ],
      "name": "followUser",
      "outputs": [],
      "stateMutability": "nonpayable",
      "type": "function"
    },
    {
      "inputs": [
        {
          "internalType": "address",
          "name": "_account",
          "type": "address"
        },
        {
          "internalType": "bytes32",
          "name": "_memeId",
          "type": "bytes32"
        },
        {
          "internalType": "uint256",
          "name": "_boostNumber",
          "type": "uint256"
        }
      ],
      "name": "boostMeme",
      "outputs": [],
      "stateMutability": "nonpayable",
      "type": "function"
    },
    {
      "inputs": [
        {
          "internalType": "address",
          "name": "_account",
          "type": "address"
        },
        {
          "internalType": "bytes32",
          "name": "_memeId",
          "type": "bytes32"
        },
        {
          "internalType": "uint256",
          "name": "_boostNumber",
          "type": "uint256"
        }
      ],
      "name": "unBoostMeme",
      "outputs": [],
      "stateMutability": "nonpayable",
      "type": "function"
    },
    {
      "inputs": [
        {
          "internalType": "bytes",
          "name": "source",
          "type": "bytes"
        }
      ],
      "name": "_bytesToBytes32",
      "outputs": [
        {
          "internalType": "bytes32",
          "name": "result",
          "type": "bytes32"
        }
      ],
      "stateMutability": "pure",
      "type": "function",
      "constant": true
    },
    {
      "inputs": [
        {
          "internalType": "uint256",
          "name": "num",
          "type": "uint256"
        }
      ],
      "name": "encode",
      "outputs": [
        {
          "internalType": "bytes32",
          "name": "",
          "type": "bytes32"
        }
      ],
      "stateMutability": "pure",
      "type": "function",
      "constant": true
    }
  ],
  "bytecode": "0x60806040523480156200001157600080fd5b506040516200463538038062004635833981810160405281019062000037919062000304565b876000806101000a81548173ffffffffffffffffffffffffffffffffffffffff021916908373ffffffffffffffffffffffffffffffffffffffff16021790555086600160006101000a81548173ffffffffffffffffffffffffffffffffffffffff021916908373ffffffffffffffffffffffffffffffffffffffff16021790555085600260006101000a81548173ffffffffffffffffffffffffffffffffffffffff021916908373ffffffffffffffffffffffffffffffffffffffff16021790555084600360006101000a81548173ffffffffffffffffffffffffffffffffffffffff021916908373ffffffffffffffffffffffffffffffffffffffff16021790555083600460006101000a81548173ffffffffffffffffffffffffffffffffffffffff021916908373ffffffffffffffffffffffffffffffffffffffff16021790555082600560006101000a81548173ffffffffffffffffffffffffffffffffffffffff021916908373ffffffffffffffffffffffffffffffffffffffff16021790555081600660006101000a81548173ffffffffffffffffffffffffffffffffffffffff021916908373ffffffffffffffffffffffffffffffffffffffff16021790555080600760006101000a81548173ffffffffffffffffffffffffffffffffffffffff021916908373ffffffffffffffffffffffffffffffffffffffff160217905550505050505050505062000576565b6000815190506200025d81620004a6565b92915050565b6000815190506200027481620004c0565b92915050565b6000815190506200028b81620004da565b92915050565b600081519050620002a281620004f4565b92915050565b600081519050620002b9816200050e565b92915050565b600081519050620002d08162000528565b92915050565b600081519050620002e78162000542565b92915050565b600081519050620002fe816200055c565b92915050565b600080600080600080600080610100898b031215620003285762000327620004a1565b5b6000620003388b828c01620002bf565b98505060206200034b8b828c0162000291565b97505060406200035e8b828c01620002ed565b9650506060620003718b828c01620002d6565b9550506080620003848b828c01620002a8565b94505060a0620003978b828c016200027a565b93505060c0620003aa8b828c0162000263565b92505060e0620003bd8b828c016200024c565b9150509295985092959890939650565b6000620003da8262000481565b9050919050565b6000620003ee82620003cd565b9050919050565b60006200040282620003cd565b9050919050565b60006200041682620003cd565b9050919050565b60006200042a82620003cd565b9050919050565b60006200043e82620003cd565b9050919050565b60006200045282620003cd565b9050919050565b60006200046682620003cd565b9050919050565b60006200047a82620003cd565b9050919050565b600073ffffffffffffffffffffffffffffffffffffffff82169050919050565b600080fd5b620004b181620003e1565b8114620004bd57600080fd5b50565b620004cb81620003f5565b8114620004d757600080fd5b50565b620004e58162000409565b8114620004f157600080fd5b50565b620004ff816200041d565b81146200050b57600080fd5b50565b620005198162000431565b81146200052557600080fd5b50565b620005338162000445565b81146200053f57600080fd5b50565b6200054d8162000459565b81146200055957600080fd5b50565b62000567816200046d565b81146200057357600080fd5b50565b6140af80620005866000396000f3fe608060405234801561001057600080fd5b50600436106100cf5760003560e01c8063654ea4841161008c578063944583c311610066578063944583c3146101e4578063be4641e114610200578063d71a48551461021c578063deb21fa214610238576100cf565b8063654ea484146101905780636b0a493e146101ac5780638dfc8f50146101c8576100cf565b80630c8273e6146100d45780631867b937146100f057806337ab42bf146101205780633c840d421461013c5780635dfa90e414610158578063648c59eb14610174575b600080fd5b6100ee60048036038101906100e99190612893565b610268565b005b61010a60048036038101906101059190612c1f565b6105d5565b6040516101179190613318565b60405180910390f35b61013a60048036038101906101359190612913565b6105f8565b005b61015660048036038101906101519190612913565b6107e7565b005b610172600480360381019061016d9190612966565b6109d6565b005b61018e600480360381019061018991906128d3565b610e4e565b005b6101aa60048036038101906101a59190612b00565b610f4d565b005b6101c660048036038101906101c191906128d3565b6113b3565b005b6101e260048036038101906101dd91906129c2565b6116bf565b005b6101fe60048036038101906101f99190612966565b611bc9565b005b61021a600480360381019061021591906128d3565b611f55565b005b61023660048036038101906102319190612a4d565b61228a565b005b610252600480360381019061024d9190612c68565b612625565b60405161025f9190613318565b60405180910390f35b3373ffffffffffffffffffffffffffffffffffffffff168273ffffffffffffffffffffffffffffffffffffffff16146102d6576040517f08c379a00000000000000000000000000000000000000000000000000000000081526004016102cd906133fc565b60405180910390fd5b8073ffffffffffffffffffffffffffffffffffffffff168273ffffffffffffffffffffffffffffffffffffffff161415610345576040517f08c379a000000000000000000000000000000000000000000000000000000000815260040161033c906135dc565b60405180910390fd5b600073ffffffffffffffffffffffffffffffffffffffff16600260009054906101000a900473ffffffffffffffffffffffffffffffffffffffff1673ffffffffffffffffffffffffffffffffffffffff1663b4108a94846040518263ffffffff1660e01b81526004016103b8919061316d565b60206040518083038186803b1580156103d057600080fd5b505afa1580156103e4573d6000803e3d6000fd5b505050506040513d601f19601f820116820180604052508101906104089190612866565b73ffffffffffffffffffffffffffffffffffffffff16141580156105035750600073ffffffffffffffffffffffffffffffffffffffff16600260009054906101000a900473ffffffffffffffffffffffffffffffffffffffff1673ffffffffffffffffffffffffffffffffffffffff1663b4108a94836040518263ffffffff1660e01b815260040161049a919061316d565b60206040518083038186803b1580156104b257600080fd5b505afa1580156104c6573d6000803e3d6000fd5b505050506040513d601f19601f820116820180604052508101906104ea9190612866565b73ffffffffffffffffffffffffffffffffffffffff1614155b610542576040517f08c379a0000000000000000000000000000000000000000000000000000000008152600401610539906134fc565b60405180910390fd5b600660009054906101000a900473ffffffffffffffffffffffffffffffffffffffff1673ffffffffffffffffffffffffffffffffffffffff166399d147c283836040518363ffffffff1660e01b815260040161059f929190613188565b600060405180830381600087803b1580156105b957600080fd5b505af11580156105cd573d6000803e3d6000fd5b505050505050565b600080825114156105eb576000801b90506105f3565b602082015190505b919050565b3373ffffffffffffffffffffffffffffffffffffffff168373ffffffffffffffffffffffffffffffffffffffff1614610666576040517f08c379a000000000000000000000000000000000000000000000000000000000815260040161065d9061359c565b60405180910390fd5b8060008054906101000a900473ffffffffffffffffffffffffffffffffffffffff1673ffffffffffffffffffffffffffffffffffffffff166370a08231856040518263ffffffff1660e01b81526004016106c0919061316d565b60206040518083038186803b1580156106d857600080fd5b505afa1580156106ec573d6000803e3d6000fd5b505050506040513d601f19601f820116820180604052508101906107109190612c95565b1015610751576040517f08c379a00000000000000000000000000000000000000000000000000000000081526004016107489061351c565b60405180910390fd5b600760009054906101000a900473ffffffffffffffffffffffffffffffffffffffff1673ffffffffffffffffffffffffffffffffffffffff16636da307c88484846040518463ffffffff1660e01b81526004016107b093929190613211565b600060405180830381600087803b1580156107ca57600080fd5b505af11580156107de573d6000803e3d6000fd5b50505050505050565b3373ffffffffffffffffffffffffffffffffffffffff168373ffffffffffffffffffffffffffffffffffffffff1614610855576040517f08c379a000000000000000000000000000000000000000000000000000000000815260040161084c9061359c565b60405180910390fd5b8060008054906101000a900473ffffffffffffffffffffffffffffffffffffffff1673ffffffffffffffffffffffffffffffffffffffff166370a08231856040518263ffffffff1660e01b81526004016108af919061316d565b60206040518083038186803b1580156108c757600080fd5b505afa1580156108db573d6000803e3d6000fd5b505050506040513d601f19601f820116820180604052508101906108ff9190612c95565b1015610940576040517f08c379a00000000000000000000000000000000000000000000000000000000081526004016109379061351c565b60405180910390fd5b600760009054906101000a900473ffffffffffffffffffffffffffffffffffffffff1673ffffffffffffffffffffffffffffffffffffffff16635d177c1c8484846040518463ffffffff1660e01b815260040161099f93929190613211565b600060405180830381600087803b1580156109b957600080fd5b505af11580156109cd573d6000803e3d6000fd5b50505050505050565b60006109e1826105d5565b90508273ffffffffffffffffffffffffffffffffffffffff163373ffffffffffffffffffffffffffffffffffffffff1614610a51576040517f08c379a0000000000000000000000000000000000000000000000000000000008152600401610a489061355c565b60405180910390fd5b7f40000000000000000000000000000000000000000000000000000000000000007effffffffffffffffffffffffffffffffffffffffffffffffffffffffffffff191682600081518110610aa857610aa7613873565b5b602001015160f81c60f81b7effffffffffffffffffffffffffffffffffffffffffffffffffffffffffffff191614610b15576040517f08c379a0000000000000000000000000000000000000000000000000000000008152600401610b0c9061361c565b60405180910390fd5b60028251118015610b2857506020825111155b610b67576040517f08c379a0000000000000000000000000000000000000000000000000000000008152600401610b5e9061365c565b60405180910390fd5b80600260009054906101000a900473ffffffffffffffffffffffffffffffffffffffff1673ffffffffffffffffffffffffffffffffffffffff1663e8fc954e856040518263ffffffff1660e01b8152600401610bc3919061316d565b60206040518083038186803b158015610bdb57600080fd5b505afa158015610bef573d6000803e3d6000fd5b505050506040513d601f19601f82011682018060405250810190610c139190612bf2565b1415610c54576040517f08c379a0000000000000000000000000000000000000000000000000000000008152600401610c4b906134bc565b60405180910390fd5b8273ffffffffffffffffffffffffffffffffffffffff16600260009054906101000a900473ffffffffffffffffffffffffffffffffffffffff1673ffffffffffffffffffffffffffffffffffffffff166311e0bda7836040518263ffffffff1660e01b8152600401610cc69190613318565b60206040518083038186803b158015610cde57600080fd5b505afa158015610cf2573d6000803e3d6000fd5b505050506040513d601f19601f82011682018060405250810190610d169190612866565b73ffffffffffffffffffffffffffffffffffffffff1614610d6c576040517f08c379a0000000000000000000000000000000000000000000000000000000008152600401610d639061345c565b60405180910390fd5b600260009054906101000a900473ffffffffffffffffffffffffffffffffffffffff1673ffffffffffffffffffffffffffffffffffffffff1663a477c0bf84836040518363ffffffff1660e01b8152600401610dc99291906131b1565b600060405180830381600087803b158015610de357600080fd5b505af1158015610df7573d6000803e3d6000fd5b505050508273ffffffffffffffffffffffffffffffffffffffff167f04d371655880a064ab42f6fee28675351cb26ca88a7e5a9d6140cb0ec6ca568d82604051610e419190613318565b60405180910390a2505050565b3373ffffffffffffffffffffffffffffffffffffffff168273ffffffffffffffffffffffffffffffffffffffff1614610ebc576040517f08c379a0000000000000000000000000000000000000000000000000000000008152600401610eb3906134dc565b60405180910390fd5b600460009054906101000a900473ffffffffffffffffffffffffffffffffffffffff1673ffffffffffffffffffffffffffffffffffffffff1663aaf837c5826040518263ffffffff1660e01b8152600401610f179190613318565b600060405180830381600087803b158015610f3157600080fd5b505af1158015610f45573d6000803e3d6000fd5b505050505050565b3373ffffffffffffffffffffffffffffffffffffffff168673ffffffffffffffffffffffffffffffffffffffff1614610fbb576040517f08c379a0000000000000000000000000000000000000000000000000000000008152600401610fb29061367c565b60405180910390fd5b6000855111610fff576040517f08c379a0000000000000000000000000000000000000000000000000000000008152600401610ff69061363c565b60405180910390fd5b600073ffffffffffffffffffffffffffffffffffffffff16600260009054906101000a900473ffffffffffffffffffffffffffffffffffffffff1673ffffffffffffffffffffffffffffffffffffffff1663b4108a94886040518263ffffffff1660e01b8152600401611072919061316d565b60206040518083038186803b15801561108a57600080fd5b505afa15801561109e573d6000803e3d6000fd5b505050506040513d601f19601f820116820180604052508101906110c29190612866565b73ffffffffffffffffffffffffffffffffffffffff161415611119576040517f08c379a00000000000000000000000000000000000000000000000000000000081526004016111109061347c565b60405180910390fd5b6008548314801561112b575060085482145b806111e4575060011515600160009054906101000a900473ffffffffffffffffffffffffffffffffffffffff1673ffffffffffffffffffffffffffffffffffffffff1663c627f1ee856040518263ffffffff1660e01b81526004016111909190613318565b60206040518083038186803b1580156111a857600080fd5b505afa1580156111bc573d6000803e3d6000fd5b505050506040513d601f19601f820116820180604052508101906111e09190612bc5565b1515145b611223576040517f08c379a000000000000000000000000000000000000000000000000000000000815260040161121a906135bc565b60405180910390fd5b60011515600160009054906101000a900473ffffffffffffffffffffffffffffffffffffffff1673ffffffffffffffffffffffffffffffffffffffff1663c627f1ee836040518263ffffffff1660e01b81526004016112829190613318565b60206040518083038186803b15801561129a57600080fd5b505afa1580156112ae573d6000803e3d6000fd5b505050506040513d601f19601f820116820180604052508101906112d29190612bc5565b151514611314576040517f08c379a000000000000000000000000000000000000000000000000000000000815260040161130b906133bc565b60405180910390fd5b600460009054906101000a900473ffffffffffffffffffffffffffffffffffffffff1673ffffffffffffffffffffffffffffffffffffffff1663654ea4848787878787876040518763ffffffff1660e01b8152600401611379969594939291906132a9565b600060405180830381600087803b15801561139357600080fd5b505af11580156113a7573d6000803e3d6000fd5b50505050505050505050565b3373ffffffffffffffffffffffffffffffffffffffff168273ffffffffffffffffffffffffffffffffffffffff1614611421576040517f08c379a00000000000000000000000000000000000000000000000000000000081526004016114189061367c565b60405180910390fd5b600073ffffffffffffffffffffffffffffffffffffffff16600260009054906101000a900473ffffffffffffffffffffffffffffffffffffffff1673ffffffffffffffffffffffffffffffffffffffff1663b4108a94846040518263ffffffff1660e01b8152600401611494919061316d565b60206040518083038186803b1580156114ac57600080fd5b505afa1580156114c0573d6000803e3d6000fd5b505050506040513d601f19601f820116820180604052508101906114e49190612866565b73ffffffffffffffffffffffffffffffffffffffff16141561153b576040517f08c379a00000000000000000000000000000000000000000000000000000000081526004016115329061347c565b60405180910390fd5b60011515600160009054906101000a900473ffffffffffffffffffffffffffffffffffffffff1673ffffffffffffffffffffffffffffffffffffffff1663c627f1ee836040518263ffffffff1660e01b815260040161159a9190613318565b60206040518083038186803b1580156115b257600080fd5b505afa1580156115c6573d6000803e3d6000fd5b505050506040513d601f19601f820116820180604052508101906115ea9190612bc5565b15151461162c576040517f08c379a00000000000000000000000000000000000000000000000000000000081526004016116239061339c565b60405180910390fd5b600460009054906101000a900473ffffffffffffffffffffffffffffffffffffffff1673ffffffffffffffffffffffffffffffffffffffff16636b0a493e83836040518363ffffffff1660e01b81526004016116899291906131b1565b600060405180830381600087803b1580156116a357600080fd5b505af11580156116b7573d6000803e3d6000fd5b505050505050565b8273ffffffffffffffffffffffffffffffffffffffff163373ffffffffffffffffffffffffffffffffffffffff161461172d576040517f08c379a00000000000000000000000000000000000000000000000000000000081526004016117249061341c565b60405180910390fd5b6001825111801561174057506020825111155b61177f576040517f08c379a00000000000000000000000000000000000000000000000000000000081526004016117769061349c565b60405180910390fd5b7f40000000000000000000000000000000000000000000000000000000000000007effffffffffffffffffffffffffffffffffffffffffffffffffffffffffffff1916816000815181106117d6576117d5613873565b5b602001015160f81c60f81b7effffffffffffffffffffffffffffffffffffffffffffffffffffffffffffff191614611843576040517f08c379a000000000000000000000000000000000000000000000000000000000815260040161183a9061361c565b60405180910390fd5b6002815111801561185657506020815111155b611895576040517f08c379a000000000000000000000000000000000000000000000000000000000815260040161188c9061365c565b60405180910390fd5b8273ffffffffffffffffffffffffffffffffffffffff16600260009054906101000a900473ffffffffffffffffffffffffffffffffffffffff1673ffffffffffffffffffffffffffffffffffffffff1663b4108a94856040518263ffffffff1660e01b8152600401611907919061316d565b60206040518083038186803b15801561191f57600080fd5b505afa158015611933573d6000803e3d6000fd5b505050506040513d601f19601f820116820180604052508101906119579190612866565b73ffffffffffffffffffffffffffffffffffffffff1614156119ae576040517f08c379a00000000000000000000000000000000000000000000000000000000081526004016119a59061353c565b60405180910390fd5b600073ffffffffffffffffffffffffffffffffffffffff16600260009054906101000a900473ffffffffffffffffffffffffffffffffffffffff1673ffffffffffffffffffffffffffffffffffffffff1663b4108a94856040518263ffffffff1660e01b8152600401611a21919061316d565b60206040518083038186803b158015611a3957600080fd5b505afa158015611a4d573d6000803e3d6000fd5b505050506040513d601f19601f82011682018060405250810190611a719190612866565b73ffffffffffffffffffffffffffffffffffffffff1614611ac7576040517f08c379a0000000000000000000000000000000000000000000000000000000008152600401611abe906135fc565b60405180910390fd5b6000611ad2836105d5565b90506000611adf836105d5565b9050600360009054906101000a900473ffffffffffffffffffffffffffffffffffffffff1673ffffffffffffffffffffffffffffffffffffffff166314def8368684846040518463ffffffff1660e01b8152600401611b40939291906131da565b600060405180830381600087803b158015611b5a57600080fd5b505af1158015611b6e573d6000803e3d6000fd5b505050508473ffffffffffffffffffffffffffffffffffffffff167f5ef99684cfef8b5446d6ca2c82757ec3aa390143139c074ccfec7582634161078383604051611bba929190613333565b60405180910390a25050505050565b6000611bd4826105d5565b90508273ffffffffffffffffffffffffffffffffffffffff163373ffffffffffffffffffffffffffffffffffffffff1614611c44576040517f08c379a0000000000000000000000000000000000000000000000000000000008152600401611c3b9061355c565b60405180910390fd5b80600260009054906101000a900473ffffffffffffffffffffffffffffffffffffffff1673ffffffffffffffffffffffffffffffffffffffff16635fd4b08a856040518263ffffffff1660e01b8152600401611ca0919061316d565b60206040518083038186803b158015611cb857600080fd5b505afa158015611ccc573d6000803e3d6000fd5b505050506040513d601f19601f82011682018060405250810190611cf09190612bf2565b1415611d31576040517f08c379a0000000000000000000000000000000000000000000000000000000008152600401611d289061337c565b60405180910390fd5b60018251118015611d4457506020825111155b611d83576040517f08c379a0000000000000000000000000000000000000000000000000000000008152600401611d7a9061349c565b60405180910390fd5b6000801b600260009054906101000a900473ffffffffffffffffffffffffffffffffffffffff1673ffffffffffffffffffffffffffffffffffffffff166365f68c89856040518263ffffffff1660e01b8152600401611de2919061316d565b60206040518083038186803b158015611dfa57600080fd5b505afa158015611e0e573d6000803e3d6000fd5b505050506040513d601f19601f82011682018060405250810190611e329190612bf2565b1415611e73576040517f08c379a0000000000000000000000000000000000000000000000000000000008152600401611e6a9061343c565b60405180910390fd5b600260009054906101000a900473ffffffffffffffffffffffffffffffffffffffff1673ffffffffffffffffffffffffffffffffffffffff16630667e80584836040518363ffffffff1660e01b8152600401611ed09291906131b1565b600060405180830381600087803b158015611eea57600080fd5b505af1158015611efe573d6000803e3d6000fd5b505050508273ffffffffffffffffffffffffffffffffffffffff167f72b1cf0bc13f95f0e133d81e3f2eb157e6bb587fc674744d4a199fb02278251282604051611f489190613318565b60405180910390a2505050565b3373ffffffffffffffffffffffffffffffffffffffff168273ffffffffffffffffffffffffffffffffffffffff1614611fc3576040517f08c379a0000000000000000000000000000000000000000000000000000000008152600401611fba906133dc565b60405180910390fd5b600073ffffffffffffffffffffffffffffffffffffffff16600260009054906101000a900473ffffffffffffffffffffffffffffffffffffffff1673ffffffffffffffffffffffffffffffffffffffff1663b4108a94846040518263ffffffff1660e01b8152600401612036919061316d565b60206040518083038186803b15801561204e57600080fd5b505afa158015612062573d6000803e3d6000fd5b505050506040513d601f19601f820116820180604052508101906120869190612866565b73ffffffffffffffffffffffffffffffffffffffff1614156120dd576040517f08c379a00000000000000000000000000000000000000000000000000000000081526004016120d49061335c565b60405180910390fd5b600073ffffffffffffffffffffffffffffffffffffffff16600160009054906101000a900473ffffffffffffffffffffffffffffffffffffffff1673ffffffffffffffffffffffffffffffffffffffff1663691d1c28836040518263ffffffff1660e01b81526004016121509190613318565b60206040518083038186803b15801561216857600080fd5b505afa15801561217c573d6000803e3d6000fd5b505050506040513d601f19601f820116820180604052508101906121a09190612866565b73ffffffffffffffffffffffffffffffffffffffff1614156121f7576040517f08c379a00000000000000000000000000000000000000000000000000000000081526004016121ee9061357c565b60405180910390fd5b600560009054906101000a900473ffffffffffffffffffffffffffffffffffffffff1673ffffffffffffffffffffffffffffffffffffffff1663be4641e183836040518363ffffffff1660e01b81526004016122549291906131b1565b600060405180830381600087803b15801561226e57600080fd5b505af1158015612282573d6000803e3d6000fd5b505050505050565b3373ffffffffffffffffffffffffffffffffffffffff168573ffffffffffffffffffffffffffffffffffffffff16146122f8576040517f08c379a00000000000000000000000000000000000000000000000000000000081526004016122ef9061367c565b60405180910390fd5b600084511161233c576040517f08c379a00000000000000000000000000000000000000000000000000000000081526004016123339061363c565b60405180910390fd5b600073ffffffffffffffffffffffffffffffffffffffff16600260009054906101000a900473ffffffffffffffffffffffffffffffffffffffff1673ffffffffffffffffffffffffffffffffffffffff1663b4108a94876040518263ffffffff1660e01b81526004016123af919061316d565b60206040518083038186803b1580156123c757600080fd5b505afa1580156123db573d6000803e3d6000fd5b505050506040513d601f19601f820116820180604052508101906123ff9190612866565b73ffffffffffffffffffffffffffffffffffffffff161415612456576040517f08c379a000000000000000000000000000000000000000000000000000000000815260040161244d9061347c565b60405180910390fd5b60085482148015612468575060085481145b8061254a5750600073ffffffffffffffffffffffffffffffffffffffff16600260009054906101000a900473ffffffffffffffffffffffffffffffffffffffff1673ffffffffffffffffffffffffffffffffffffffff166377dd8a03846040518263ffffffff1660e01b81526004016124e19190613318565b60206040518083038186803b1580156124f957600080fd5b505afa15801561250d573d6000803e3d6000fd5b505050506040513d601f19601f820116820180604052508101906125319190612866565b73ffffffffffffffffffffffffffffffffffffffff1614155b612589576040517f08c379a0000000000000000000000000000000000000000000000000000000008152600401612580906135bc565b60405180910390fd5b600460009054906101000a900473ffffffffffffffffffffffffffffffffffffffff1673ffffffffffffffffffffffffffffffffffffffff1663d71a485586868686866040518663ffffffff1660e01b81526004016125ec959493929190613248565b600060405180830381600087803b15801561260657600080fd5b505af115801561261a573d6000803e3d6000fd5b505050505050505050565b6000816040516020016126389190613152565b604051602081830303815290604052805190602001209050919050565b6000612668612663846136c1565b61369c565b9050808382526020820190508285602086028201111561268b5761268a6138d6565b5b60005b858110156126bb57816126a18882612749565b84526020840193506020830192505060018101905061268e565b5050509392505050565b60006126d86126d3846136ed565b61369c565b9050828152602081018484840111156126f4576126f36138db565b5b6126ff8482856137f6565b509392505050565b600061271a6127158461371e565b61369c565b905082815260208101848484011115612736576127356138db565b5b6127418482856137f6565b509392505050565b6000813590506127588161401d565b92915050565b60008151905061276d8161401d565b92915050565b600082601f830112612788576127876138d1565b5b8135612798848260208601612655565b91505092915050565b6000815190506127b081614034565b92915050565b6000813590506127c58161404b565b92915050565b6000815190506127da8161404b565b92915050565b600082601f8301126127f5576127f46138d1565b5b81356128058482602086016126c5565b91505092915050565b600082601f830112612823576128226138d1565b5b8135612833848260208601612707565b91505092915050565b60008135905061284b81614062565b92915050565b60008151905061286081614062565b92915050565b60006020828403121561287c5761287b6138e5565b5b600061288a8482850161275e565b91505092915050565b600080604083850312156128aa576128a96138e5565b5b60006128b885828601612749565b92505060206128c985828601612749565b9150509250929050565b600080604083850312156128ea576128e96138e5565b5b60006128f885828601612749565b9250506020612909858286016127b6565b9150509250929050565b60008060006060848603121561292c5761292b6138e5565b5b600061293a86828701612749565b935050602061294b868287016127b6565b925050604061295c8682870161283c565b9150509250925092565b6000806040838503121561297d5761297c6138e5565b5b600061298b85828601612749565b925050602083013567ffffffffffffffff8111156129ac576129ab6138e0565b5b6129b8858286016127e0565b9150509250929050565b6000806000606084860312156129db576129da6138e5565b5b60006129e986828701612749565b935050602084013567ffffffffffffffff811115612a0a57612a096138e0565b5b612a16868287016127e0565b925050604084013567ffffffffffffffff811115612a3757612a366138e0565b5b612a43868287016127e0565b9150509250925092565b600080600080600060a08688031215612a6957612a686138e5565b5b6000612a7788828901612749565b955050602086013567ffffffffffffffff811115612a9857612a976138e0565b5b612aa48882890161280e565b945050604086013567ffffffffffffffff811115612ac557612ac46138e0565b5b612ad188828901612773565b9350506060612ae2888289016127b6565b9250506080612af3888289016127b6565b9150509295509295909350565b60008060008060008060c08789031215612b1d57612b1c6138e5565b5b6000612b2b89828a01612749565b965050602087013567ffffffffffffffff811115612b4c57612b4b6138e0565b5b612b5889828a0161280e565b955050604087013567ffffffffffffffff811115612b7957612b786138e0565b5b612b8589828a01612773565b9450506060612b9689828a016127b6565b9350506080612ba789828a016127b6565b92505060a0612bb889828a016127b6565b9150509295509295509295565b600060208284031215612bdb57612bda6138e5565b5b6000612be9848285016127a1565b91505092915050565b600060208284031215612c0857612c076138e5565b5b6000612c16848285016127cb565b91505092915050565b600060208284031215612c3557612c346138e5565b5b600082013567ffffffffffffffff811115612c5357612c526138e0565b5b612c5f848285016127e0565b91505092915050565b600060208284031215612c7e57612c7d6138e5565b5b6000612c8c8482850161283c565b91505092915050565b600060208284031215612cab57612caa6138e5565b5b6000612cb984828501612851565b91505092915050565b6000612cce8383612cda565b60208301905092915050565b612ce3816137a4565b82525050565b612cf2816137a4565b82525050565b6000612d038261375f565b612d0d8185613782565b9350612d188361374f565b8060005b83811015612d49578151612d308882612cc2565b9750612d3b83613775565b925050600181019050612d1c565b5085935050505092915050565b612d5f816137c2565b82525050565b6000612d708261376a565b612d7a8185613793565b9350612d8a818560208601613805565b612d93816138ea565b840191505092915050565b6000612dab602383613793565b9150612db6826138fb565b604082019050919050565b6000612dce602183613793565b9150612dd98261394a565b604082019050919050565b6000612df1602283613793565b9150612dfc82613999565b604082019050919050565b6000612e14601883613793565b9150612e1f826139e8565b602082019050919050565b6000612e37602683613793565b9150612e4282613a11565b604082019050919050565b6000612e5a602983613793565b9150612e6582613a60565b604082019050919050565b6000612e7d602683613793565b9150612e8882613aaf565b604082019050919050565b6000612ea0602483613793565b9150612eab82613afe565b604082019050919050565b6000612ec3603183613793565b9150612ece82613b4d565b604082019050919050565b6000612ee6602083613793565b9150612ef182613b9c565b602082019050919050565b6000612f09603183613793565b9150612f1482613bc5565b604082019050919050565b6000612f2c602583613793565b9150612f3782613c14565b604082019050919050565b6000612f4f602383613793565b9150612f5a82613c63565b604082019050919050565b6000612f72603483613793565b9150612f7d82613cb2565b604082019050919050565b6000612f95602a83613793565b9150612fa082613d01565b604082019050919050565b6000612fb8601d83613793565b9150612fc382613d50565b602082019050919050565b6000612fdb602583613793565b9150612fe682613d79565b604082019050919050565b6000612ffe601683613793565b915061300982613dc8565b602082019050919050565b6000613021602183613793565b915061302c82613df1565b604082019050919050565b6000613044603783613793565b915061304f82613e40565b604082019050919050565b6000613067601383613793565b915061307282613e8f565b602082019050919050565b600061308a602283613793565b915061309582613eb8565b604082019050919050565b60006130ad602a83613793565b91506130b882613f07565b604082019050919050565b60006130d0601a83613793565b91506130db82613f56565b602082019050919050565b60006130f3603483613793565b91506130fe82613f7f565b604082019050919050565b6000613116602183613793565b915061312182613fce565b604082019050919050565b613135816137ec565b82525050565b61314c613147826137ec565b613869565b82525050565b600061315e828461313b565b60208201915081905092915050565b60006020820190506131826000830184612ce9565b92915050565b600060408201905061319d6000830185612ce9565b6131aa6020830184612ce9565b9392505050565b60006040820190506131c66000830185612ce9565b6131d36020830184612d56565b9392505050565b60006060820190506131ef6000830186612ce9565b6131fc6020830185612d56565b6132096040830184612d56565b949350505050565b60006060820190506132266000830186612ce9565b6132336020830185612d56565b613240604083018461312c565b949350505050565b600060a08201905061325d6000830188612ce9565b818103602083015261326f8187612d65565b905081810360408301526132838186612cf8565b90506132926060830185612d56565b61329f6080830184612d56565b9695505050505050565b600060c0820190506132be6000830189612ce9565b81810360208301526132d08188612d65565b905081810360408301526132e48187612cf8565b90506132f36060830186612d56565b6133006080830185612d56565b61330d60a0830184612d56565b979650505050505050565b600060208201905061332d6000830184612d56565b92915050565b60006040820190506133486000830185612d56565b6133556020830184612d56565b9392505050565b6000602082019050818103600083015261337581612d9e565b9050919050565b6000602082019050818103600083015261339581612dc1565b9050919050565b600060208201905081810360008301526133b581612de4565b9050919050565b600060208201905081810360008301526133d581612e07565b9050919050565b600060208201905081810360008301526133f581612e2a565b9050919050565b6000602082019050818103600083015261341581612e4d565b9050919050565b6000602082019050818103600083015261343581612e70565b9050919050565b6000602082019050818103600083015261345581612e93565b9050919050565b6000602082019050818103600083015261347581612eb6565b9050919050565b6000602082019050818103600083015261349581612ed9565b9050919050565b600060208201905081810360008301526134b581612efc565b9050919050565b600060208201905081810360008301526134d581612f1f565b9050919050565b600060208201905081810360008301526134f581612f42565b9050919050565b6000602082019050818103600083015261351581612f65565b9050919050565b6000602082019050818103600083015261353581612f88565b9050919050565b6000602082019050818103600083015261355581612fab565b9050919050565b6000602082019050818103600083015261357581612fce565b9050919050565b6000602082019050818103600083015261359581612ff1565b9050919050565b600060208201905081810360008301526135b581613014565b9050919050565b600060208201905081810360008301526135d581613037565b9050919050565b600060208201905081810360008301526135f58161305a565b9050919050565b600060208201905081810360008301526136158161307d565b9050919050565b60006020820190508181036000830152613635816130a0565b9050919050565b60006020820190508181036000830152613655816130c3565b9050919050565b60006020820190508181036000830152613675816130e6565b9050919050565b6000602082019050818103600083015261369581613109565b9050919050565b60006136a66136b7565b90506136b28282613838565b919050565b6000604051905090565b600067ffffffffffffffff8211156136dc576136db6138a2565b5b602082029050602081019050919050565b600067ffffffffffffffff821115613708576137076138a2565b5b613711826138ea565b9050602081019050919050565b600067ffffffffffffffff821115613739576137386138a2565b5b613742826138ea565b9050602081019050919050565b6000819050602082019050919050565b600081519050919050565b600081519050919050565b6000602082019050919050565b600082825260208201905092915050565b600082825260208201905092915050565b60006137af826137cc565b9050919050565b60008115159050919050565b6000819050919050565b600073ffffffffffffffffffffffffffffffffffffffff82169050919050565b6000819050919050565b82818337600083830152505050565b60005b83811015613823578082015181840152602081019050613808565b83811115613832576000848401525b50505050565b613841826138ea565b810181811067ffffffffffffffff821117156138605761385f6138a2565b5b80604052505050565b6000819050919050565b7f4e487b7100000000000000000000000000000000000000000000000000000000600052603260045260246000fd5b7f4e487b7100000000000000000000000000000000000000000000000000000000600052604160045260246000fd5b600080fd5b600080fd5b600080fd5b600080fd5b600080fd5b6000601f19601f8301169050919050565b7f4572726f723a204d656d65206c696b6564206d7573742068617665206164647260008201527f6573730000000000000000000000000000000000000000000000000000000000602082015250565b7f4572726f723a206d75737420626520646966666572656e7420757365726e616d60008201527f6500000000000000000000000000000000000000000000000000000000000000602082015250565b7f4572726f723a207265706f73746564206d656d6520646f65736e27742065786960008201527f7374000000000000000000000000000000000000000000000000000000000000602082015250565b7f4572726f723a207265706f7374206d7573742065786973740000000000000000600082015250565b7f4572726f723a206c696b6572206d757374206265206f7065726174696e67206160008201527f63636f756e740000000000000000000000000000000000000000000000000000602082015250565b7f4572726f723a20666f6c6c6f776572206d757374206265206f7065726174696e60008201527f67206163636f756e740000000000000000000000000000000000000000000000602082015250565b7f4572726f723a206163636f756e74206d757374206265206163636f756e74206360008201527f726561746f720000000000000000000000000000000000000000000000000000602082015250565b7f4572726f723a206d757374206861766520616e206578697374696e672061636360008201527f6f756e7400000000000000000000000000000000000000000000000000000000602082015250565b7f4572726f723a20757365722061646472657373206d757374206578697374206160008201527f742063757272656e742061646472657373000000000000000000000000000000602082015250565b7f4572726f723a207573657220646f65736e27742068617665206163636f756e74600082015250565b7f4572726f723a20757365724e616d65206d757374206265206265747765656e2060008201527f3220262033322063686172616374657273000000000000000000000000000000602082015250565b7f4572726f723a206d75737420626520646966666572656e74207573657220616460008201527f6472657373000000000000000000000000000000000000000000000000000000602082015250565b7f4572726f723a206f6e6c79206163636f756e742063616e2064656c657465206d60008201527f656d650000000000000000000000000000000000000000000000000000000000602082015250565b7f4572726f723a20626f746820666f6c6c6f77657220616e6420666f6c6c6f776560008201527f65206d7573742068617665206163636f756e7473000000000000000000000000602082015250565b7f4572726f723a20626f6f73746572206d757374206861766520746f6b656e732060008201527f696e2062616c616e636500000000000000000000000000000000000000000000602082015250565b7f4572726f723a206163636f756e7420616c726561647920657869737473000000600082015250565b7f4572726f723a206f70657261746f72206d757374206265206163636f756e742060008201527f6f776e6572000000000000000000000000000000000000000000000000000000602082015250565b7f4572726f723a204d656d65206d75737420657869737400000000000000000000600082015250565b7f4572726f723a20626f6f73746572206d757374206265206d73672e73656e646560008201527f7200000000000000000000000000000000000000000000000000000000000000602082015250565b7f4572726f723a2065697468657220706172656e74266f726967696e206172652060008201527f7a65726f206f722074686579206d757374206578697374000000000000000000602082015250565b7f4572726f723a2073616d65206163636f756e7400000000000000000000000000600082015250565b7f4572726f723a2075736572206164647265737320616c7265616479206578697360008201527f7473000000000000000000000000000000000000000000000000000000000000602082015250565b7f4572726f723a20666972737420656c656d656e74206f6620737472696e67206d60008201527f7573742062652022402200000000000000000000000000000000000000000000602082015250565b7f4572726f723a206d656d65206d75737420686176652074657874000000000000600082015250565b7f4572726f723a207573657241646472657373206d75737420626520626574776560008201527f656e203220262033322063686172616374657273000000000000000000000000602082015250565b7f4572726f723a2077726f6e67206163636f756e742063616c6c696e6720706f7360008201527f7400000000000000000000000000000000000000000000000000000000000000602082015250565b614026816137a4565b811461403157600080fd5b50565b61403d816137b6565b811461404857600080fd5b50565b614054816137c2565b811461405f57600080fd5b50565b61406b816137ec565b811461407657600080fd5b5056fea2646970667358221220d13c25273852791b7d22825b3f02f7fc1d2bb4784c9a9eee39fa7b9ffa6ee38164736f6c63430008070033",
  "immutableReferences": {},
  "source": "// SPDX-License-Identifier: MIT\n\npragma solidity >=0.8.0 <0.9.0;\n\nimport \"./Follow.sol\";\nimport \"./Like.sol\";\nimport \"./Post.sol\";\nimport \"./Boost.sol\";\nimport \"./UME.sol\";\nimport \"./MemeStorage.sol\";\nimport \"./UserFactory.sol\";\nimport \"./UserStorage.sol\";\n\ncontract UserInterface {\n\n  UME private umeToken;\n  MemeStorage private memeStorage;\n  UserStorage private userStorage;\n  UserFactory private userFactory;\n\n  Post private post;\n  Like private like;\n  Follow private follow;\n  Boost private boost;\n\n  bytes32 zeroBytes;\n\n  struct User {\n    uint id; // user number in order\n    string name; // user name\n    string userAddr; // user address (@)\n    uint time; // user creation time\n    address addr; // address of user\n    address[] followers; // addresses of followers\n    address[] following; // addressses of following\n    uint[] posts; // memeIds of posts\n  }\n\n  event NewUser(\n    address indexed account,\n    bytes32 userName,\n    bytes32 userAddress);\n  event ChangedUserName(\n    address indexed account,\n    bytes32 userName);\n  event ChangedUserAddress(\n    address indexed account,\n    bytes32 userAddress);\n\n  constructor(\n    UME _umeToken,\n    MemeStorage _memeStorage,\n    UserStorage _userStorage,\n    UserFactory _userFactory,\n    Post _post,\n    Like _like,\n    Follow _follow,\n    Boost _boost\n  ) public {\n    umeToken = _umeToken;\n    memeStorage = _memeStorage;\n    userStorage = _userStorage;\n    userFactory = _userFactory;\n    post = _post;\n    like = _like;\n    follow = _follow;\n    boost = _boost;\n  }\n\n  function newUser(\n    address _account,\n    bytes memory _userName,\n    bytes memory _userAddress\n  ) public {\n    require(\n      msg.sender==_account,\n      'Error: account must be account creator');\n    require(\n      _userName.length>1 &&\n      _userName.length<=32,\n      'Error: userName must be between 2 & 32 characters');\n    require(\n      _userAddress[0]==bytes1('@'),\n      'Error: first element of string must be \"@\"');\n    require(\n      _userAddress.length>2 &&\n      _userAddress.length<=32,\n      'Error: userAddress must be between 2 & 32 characters');\n    require(\n      userStorage.getAddr(_account)!=_account,\n      'Error: account already exists');\n    require(\n      userStorage.getAddr(_account)==address(0x0),\n      'Error: user address already exists');\n\n    bytes32 _un = _bytesToBytes32(_userName);\n    bytes32 _ua = _bytesToBytes32(_userAddress);\n    userFactory.newUser(_account, _un, _ua);\n    emit NewUser(_account, _un, _ua);\n  }\n  function changeUserName(\n    address _account,\n    bytes memory _userName\n  ) public {\n    bytes32 _un = _bytesToBytes32(_userName);\n    require(\n      msg.sender==_account,\n      'Error: operator must be account owner');\n    require(\n      userStorage.getName(_account)!=_un,\n      'Error: must be different username');\n    require(\n      _userName.length>1 &&\n      _userName.length<=32,\n      'Error: userName must be between 2 & 32 characters');\n    require(\n      userStorage.getId(_account)!=0,\n      'Error: must have an existing account');\n\n    userStorage.setUserName(_account, _un);\n    emit ChangedUserName(_account, _un);\n  }\n  function changeUserAddress(\n    address _account,\n    bytes memory _userAddress\n  ) public {\n    bytes32 _ua = _bytesToBytes32(_userAddress);\n    require(\n      msg.sender==_account,\n      'Error: operator must be account owner');\n    require(\n      _userAddress[0]==bytes1('@'),\n      'Error: first element of string must be \"@\"');\n    require(\n      _userAddress.length>2 &&\n      _userAddress.length<=32,\n      'Error: userAddress must be between 2 & 32 characters');\n    require(\n      userStorage.getUserAddr(_account)!=_ua,\n      'Error: must be different user address');\n    require(\n      userStorage.usersByUserAddr(_ua)==_account,\n      'Error: user address must exist at current address');\n\n    userStorage.setUserAddress(_account, _ua);\n    emit ChangedUserAddress(_account, _ua);\n  }\n\n  // Meme posting functionality\n  function newMeme(\n    address _account,\n    string memory _postText,\n    address[] memory _tags,\n    bytes32 _parentId,\n    bytes32 _originId\n  ) public {\n    require(\n      _account==msg.sender,\n      'Error: wrong account calling post');\n    require(\n      bytes(_postText).length > 0,\n      'Error: meme must have text');\n    require(\n      userStorage.getAddr(_account)!=address(0x0),\n      'Error: user doesn\\'t have account');\n    require(\n      (_parentId==zeroBytes && _originId==zeroBytes) ||\n      userStorage.usersByMeme(_parentId)!=address(0x0),\n      'Error: either parent&origin are zero or they must exist');\n    // post new meme\n    post.newMeme(_account, _postText, _tags, _parentId, _originId);\n  }\n  function rememe(\n    address _account,\n    bytes32 _memeId\n  ) public {\n    require(\n      _account==msg.sender,\n      'Error: wrong account calling post');\n    require(\n      userStorage.getAddr(_account)!=address(0x0),\n      'Error: user doesn\\'t have account');\n    require(\n      memeStorage.getVisibility(_memeId)==true,\n      'Error: reposted meme doesn\\'t exist');\n    // repost meme\n    post.rememe(_account, _memeId);\n  }\n  function quoteMeme(\n    address _account,\n    string memory _postText,\n    address[] memory _tags,\n    bytes32 _parentId,\n    bytes32 _originId,\n    bytes32 _memeId\n  ) public {\n    require(\n      _account==msg.sender,\n      'Error: wrong account calling post');\n    require(\n      bytes(_postText).length > 0,\n      'Error: meme must have text');\n    require(\n      userStorage.getAddr(_account)!=address(0x0),\n      'Error: user doesn\\'t have account');\n    require(\n      (_parentId==zeroBytes && _originId==zeroBytes) ||\n      memeStorage.getVisibility(_parentId)==true,\n      'Error: either parent&origin are zero or they must exist');\n    require(\n      memeStorage.getVisibility(_memeId)==true,\n      'Error: repost must exist');\n    post.quoteMeme(_account, _postText, _tags, _parentId, _originId, _memeId);\n  }\n\n  function deleteMeme(\n    address _account,\n    bytes32 _memeId\n  ) public {\n    require(\n      _account==msg.sender,\n      'Error: only account can delete meme');\n    post.deleteMeme(_memeId);\n  }\n\n\n  // like functions\n  function likeMeme(\n    address _account,\n    bytes32 _memeId\n  ) public {\n     require(\n       _account==msg.sender,\n       'Error: liker must be operating account');\n     require(\n       userStorage.getAddr(_account)!=address(0x0),\n       'Error: Meme liked must have address');\n     require(\n       memeStorage.getAuthor(_memeId)!=address(0x0),\n       'Error: Meme must exist');\n\n     like.likeMeme(_account, _memeId);\n  }\n\n  function followUser(\n    address _from,\n    address _to\n  ) public {\n    require(\n      _from==msg.sender,\n      'Error: follower must be operating account');\n    require(\n      _from!=_to,\n      'Error: same account');\n    require(\n      userStorage.getAddr(_from)!=address(0x0) &&\n      userStorage.getAddr(_to)!=address(0x0),\n      'Error: both follower and followee must have accounts');\n\n    follow.follow(_from, _to);\n  }\n\n  function boostMeme(\n    address _account,\n    bytes32 _memeId,\n    uint _boostNumber\n  ) public {\n    require(\n      _account==msg.sender,\n      'Error: booster must be msg.sender');\n    require(\n      umeToken.balanceOf(_account)>=_boostNumber,\n      'Error: booster must have tokens in balance');\n    boost.boostCall(_account, _memeId, _boostNumber);\n  }\n  function unBoostMeme(\n    address _account,\n    bytes32 _memeId,\n    uint _boostNumber\n  ) public {\n    require(\n      _account==msg.sender,\n      'Error: booster must be msg.sender');\n    require(\n      umeToken.balanceOf(_account)>=_boostNumber,\n      'Error: booster must have tokens in balance');\n    boost.unBoostCall(_account, _memeId, _boostNumber);\n  }\n\n  // helper functions\n  function _bytesToBytes32(bytes memory source) public pure returns(bytes32 result) {\n    if(source.length==0) return 0x0;\n    assembly {\n      result := mload(add(source, 32))\n    }\n  }\n\n  function encode(uint num) public pure returns(bytes32) {\n    return keccak256(abi.encodePacked(num));\n  }\n\n  function _deleteUints(uint[] memory array, uint index) private pure returns(uint[] memory) {\n    uint[] memory _array = new uint[](array.length-1);\n    for(uint i = 0; i < index; i++) {\n      _array[i] = array[i];\n    }\n    for(uint i = index; i < _array.length; i++) {\n      _array[i] = array[i+1];\n    }\n    return _array;\n  }\n}\n",
  "sourcePath": "/Users/jaiq/Documents/000 BLOCKCHAIN/ETH/uMe/src/contracts/UserInterface.sol",
  "compiler": {
    "name": "solc",
    "version": "0.8.7+commit.e28d00a7.Emscripten.clang"
  },
  "schemaVersion": "3.4.3",
  "updatedAt": "2021-08-28T21:23:59.688Z",
  "networkType": "ethereum",
  "devdoc": {
    "kind": "dev",
    "methods": {},
    "version": 1
  },
  "userdoc": {
    "kind": "user",
    "methods": {},
    "version": 1
  }
}