{
  "contractName": "UserStorage",
  "abi": [
    {
      "inputs": [],
      "stateMutability": "nonpayable",
      "type": "constructor"
    },
    {
      "anonymous": false,
      "inputs": [
        {
          "indexed": true,
          "internalType": "address",
          "name": "from",
          "type": "address"
        },
        {
          "indexed": true,
          "internalType": "address",
          "name": "to",
          "type": "address"
        }
      ],
      "name": "FactorySignerChanged",
      "type": "event"
    },
    {
      "anonymous": false,
      "inputs": [
        {
          "indexed": true,
          "internalType": "address",
          "name": "from",
          "type": "address"
        },
        {
          "indexed": true,
          "internalType": "address",
          "name": "to",
          "type": "address"
        }
      ],
      "name": "FollowSignerChanged",
      "type": "event"
    },
    {
      "anonymous": false,
      "inputs": [
        {
          "indexed": true,
          "internalType": "address",
          "name": "from",
          "type": "address"
        },
        {
          "indexed": true,
          "internalType": "address",
          "name": "to",
          "type": "address"
        }
      ],
      "name": "InterfaceSignerChanged",
      "type": "event"
    },
    {
      "anonymous": false,
      "inputs": [
        {
          "indexed": true,
          "internalType": "address",
          "name": "from",
          "type": "address"
        },
        {
          "indexed": true,
          "internalType": "address",
          "name": "to",
          "type": "address"
        }
      ],
      "name": "LikeSignerChanged",
      "type": "event"
    },
    {
      "anonymous": false,
      "inputs": [
        {
          "indexed": true,
          "internalType": "address",
          "name": "from",
          "type": "address"
        },
        {
          "indexed": true,
          "internalType": "address",
          "name": "to",
          "type": "address"
        }
      ],
      "name": "PostSignerChanged",
      "type": "event"
    },
    {
      "inputs": [],
      "name": "factorySigner",
      "outputs": [
        {
          "internalType": "address",
          "name": "",
          "type": "address"
        }
      ],
      "stateMutability": "view",
      "type": "function",
      "constant": true
    },
    {
      "inputs": [],
      "name": "followSigner",
      "outputs": [
        {
          "internalType": "address",
          "name": "",
          "type": "address"
        }
      ],
      "stateMutability": "view",
      "type": "function",
      "constant": true
    },
    {
      "inputs": [],
      "name": "interfaceSigner",
      "outputs": [
        {
          "internalType": "address",
          "name": "",
          "type": "address"
        }
      ],
      "stateMutability": "view",
      "type": "function",
      "constant": true
    },
    {
      "inputs": [],
      "name": "likeSigner",
      "outputs": [
        {
          "internalType": "address",
          "name": "",
          "type": "address"
        }
      ],
      "stateMutability": "view",
      "type": "function",
      "constant": true
    },
    {
      "inputs": [],
      "name": "memeFactorySigner",
      "outputs": [
        {
          "internalType": "address",
          "name": "",
          "type": "address"
        }
      ],
      "stateMutability": "view",
      "type": "function",
      "constant": true
    },
    {
      "inputs": [],
      "name": "userCount",
      "outputs": [
        {
          "internalType": "uint256",
          "name": "",
          "type": "uint256"
        }
      ],
      "stateMutability": "view",
      "type": "function",
      "constant": true
    },
    {
      "inputs": [
        {
          "internalType": "address",
          "name": "",
          "type": "address"
        }
      ],
      "name": "users",
      "outputs": [
        {
          "internalType": "bytes32",
          "name": "id",
          "type": "bytes32"
        },
        {
          "internalType": "bytes32",
          "name": "name",
          "type": "bytes32"
        },
        {
          "internalType": "bytes32",
          "name": "userAddr",
          "type": "bytes32"
        },
        {
          "internalType": "uint256",
          "name": "time",
          "type": "uint256"
        },
        {
          "internalType": "address",
          "name": "addr",
          "type": "address"
        },
        {
          "internalType": "string",
          "name": "bio",
          "type": "string"
        },
        {
          "internalType": "string",
          "name": "profilePic",
          "type": "string"
        }
      ],
      "stateMutability": "view",
      "type": "function",
      "constant": true
    },
    {
      "inputs": [
        {
          "internalType": "bytes32",
          "name": "",
          "type": "bytes32"
        }
      ],
      "name": "usersByMeme",
      "outputs": [
        {
          "internalType": "address",
          "name": "",
          "type": "address"
        }
      ],
      "stateMutability": "view",
      "type": "function",
      "constant": true
    },
    {
      "inputs": [
        {
          "internalType": "bytes32",
          "name": "",
          "type": "bytes32"
        }
      ],
      "name": "usersByUserAddr",
      "outputs": [
        {
          "internalType": "address",
          "name": "",
          "type": "address"
        }
      ],
      "stateMutability": "view",
      "type": "function",
      "constant": true
    },
    {
      "inputs": [
        {
          "internalType": "address",
          "name": "_account",
          "type": "address"
        },
        {
          "components": [
            {
              "internalType": "bytes32",
              "name": "id",
              "type": "bytes32"
            },
            {
              "internalType": "bytes32",
              "name": "name",
              "type": "bytes32"
            },
            {
              "internalType": "bytes32",
              "name": "userAddr",
              "type": "bytes32"
            },
            {
              "internalType": "uint256",
              "name": "time",
              "type": "uint256"
            },
            {
              "internalType": "address",
              "name": "addr",
              "type": "address"
            },
            {
              "internalType": "string",
              "name": "bio",
              "type": "string"
            },
            {
              "internalType": "string",
              "name": "profilePic",
              "type": "string"
            },
            {
              "internalType": "address[]",
              "name": "followers",
              "type": "address[]"
            },
            {
              "internalType": "address[]",
              "name": "following",
              "type": "address[]"
            },
            {
              "internalType": "address[]",
              "name": "unfollowers",
              "type": "address[]"
            },
            {
              "internalType": "address[]",
              "name": "unfollowing",
              "type": "address[]"
            },
            {
              "internalType": "bytes32[]",
              "name": "posts",
              "type": "bytes32[]"
            }
          ],
          "internalType": "struct UserStorage.User",
          "name": "_user",
          "type": "tuple"
        }
      ],
      "name": "setUser",
      "outputs": [],
      "stateMutability": "nonpayable",
      "type": "function"
    },
    {
      "inputs": [
        {
          "internalType": "bytes32",
          "name": "_userAddr",
          "type": "bytes32"
        },
        {
          "internalType": "address",
          "name": "_account",
          "type": "address"
        }
      ],
      "name": "setUsersByUserAddress",
      "outputs": [],
      "stateMutability": "nonpayable",
      "type": "function"
    },
    {
      "inputs": [
        {
          "internalType": "bytes32",
          "name": "_memeId",
          "type": "bytes32"
        },
        {
          "internalType": "address",
          "name": "_account",
          "type": "address"
        }
      ],
      "name": "setUsersByMeme",
      "outputs": [],
      "stateMutability": "nonpayable",
      "type": "function"
    },
    {
      "inputs": [
        {
          "internalType": "address",
          "name": "_account",
          "type": "address"
        }
      ],
      "name": "deleteUser",
      "outputs": [],
      "stateMutability": "nonpayable",
      "type": "function"
    },
    {
      "inputs": [],
      "name": "increaseUserCount",
      "outputs": [],
      "stateMutability": "nonpayable",
      "type": "function"
    },
    {
      "inputs": [
        {
          "internalType": "address",
          "name": "_account",
          "type": "address"
        },
        {
          "internalType": "bytes32",
          "name": "_userName",
          "type": "bytes32"
        }
      ],
      "name": "setUserName",
      "outputs": [],
      "stateMutability": "nonpayable",
      "type": "function"
    },
    {
      "inputs": [
        {
          "internalType": "address",
          "name": "_account",
          "type": "address"
        },
        {
          "internalType": "bytes32",
          "name": "_userAddress",
          "type": "bytes32"
        }
      ],
      "name": "setUserAddress",
      "outputs": [],
      "stateMutability": "nonpayable",
      "type": "function"
    },
    {
      "inputs": [
        {
          "internalType": "address",
          "name": "_account",
          "type": "address"
        },
        {
          "internalType": "string",
          "name": "_bio",
          "type": "string"
        }
      ],
      "name": "setBio",
      "outputs": [],
      "stateMutability": "nonpayable",
      "type": "function"
    },
    {
      "inputs": [
        {
          "internalType": "address",
          "name": "_account",
          "type": "address"
        },
        {
          "internalType": "string",
          "name": "_imgHash",
          "type": "string"
        }
      ],
      "name": "setProfilePic",
      "outputs": [],
      "stateMutability": "nonpayable",
      "type": "function"
    },
    {
      "inputs": [
        {
          "internalType": "address",
          "name": "_account",
          "type": "address"
        },
        {
          "internalType": "bytes32[]",
          "name": "_posts",
          "type": "bytes32[]"
        }
      ],
      "name": "setPosts",
      "outputs": [],
      "stateMutability": "nonpayable",
      "type": "function"
    },
    {
      "inputs": [
        {
          "internalType": "address",
          "name": "_account",
          "type": "address"
        },
        {
          "internalType": "address[]",
          "name": "_followers",
          "type": "address[]"
        }
      ],
      "name": "setFollowers",
      "outputs": [],
      "stateMutability": "nonpayable",
      "type": "function"
    },
    {
      "inputs": [
        {
          "internalType": "address",
          "name": "_account",
          "type": "address"
        },
        {
          "internalType": "address[]",
          "name": "_following",
          "type": "address[]"
        }
      ],
      "name": "setFollowing",
      "outputs": [],
      "stateMutability": "nonpayable",
      "type": "function"
    },
    {
      "inputs": [
        {
          "internalType": "address",
          "name": "_account",
          "type": "address"
        },
        {
          "internalType": "address[]",
          "name": "_unfollowers",
          "type": "address[]"
        }
      ],
      "name": "setUnfollowers",
      "outputs": [],
      "stateMutability": "nonpayable",
      "type": "function"
    },
    {
      "inputs": [
        {
          "internalType": "address",
          "name": "_account",
          "type": "address"
        },
        {
          "internalType": "address[]",
          "name": "_unfollowing",
          "type": "address[]"
        }
      ],
      "name": "setUnfollowing",
      "outputs": [],
      "stateMutability": "nonpayable",
      "type": "function"
    },
    {
      "inputs": [
        {
          "internalType": "address",
          "name": "_account",
          "type": "address"
        }
      ],
      "name": "userExists",
      "outputs": [
        {
          "internalType": "bool",
          "name": "",
          "type": "bool"
        }
      ],
      "stateMutability": "view",
      "type": "function",
      "constant": true
    },
    {
      "inputs": [
        {
          "internalType": "bytes32",
          "name": "_userAddress",
          "type": "bytes32"
        }
      ],
      "name": "userAddressExists",
      "outputs": [
        {
          "internalType": "bool",
          "name": "",
          "type": "bool"
        }
      ],
      "stateMutability": "view",
      "type": "function",
      "constant": true
    },
    {
      "inputs": [
        {
          "internalType": "address",
          "name": "_from",
          "type": "address"
        },
        {
          "internalType": "address",
          "name": "_to",
          "type": "address"
        }
      ],
      "name": "isFollowing",
      "outputs": [
        {
          "internalType": "bool",
          "name": "",
          "type": "bool"
        }
      ],
      "stateMutability": "view",
      "type": "function",
      "constant": true
    },
    {
      "inputs": [
        {
          "internalType": "address",
          "name": "_from",
          "type": "address"
        },
        {
          "internalType": "address",
          "name": "_to",
          "type": "address"
        }
      ],
      "name": "isFollower",
      "outputs": [
        {
          "internalType": "bool",
          "name": "",
          "type": "bool"
        }
      ],
      "stateMutability": "view",
      "type": "function",
      "constant": true
    },
    {
      "inputs": [
        {
          "internalType": "address",
          "name": "_account",
          "type": "address"
        }
      ],
      "name": "getUser",
      "outputs": [
        {
          "components": [
            {
              "internalType": "bytes32",
              "name": "id",
              "type": "bytes32"
            },
            {
              "internalType": "bytes32",
              "name": "name",
              "type": "bytes32"
            },
            {
              "internalType": "bytes32",
              "name": "userAddr",
              "type": "bytes32"
            },
            {
              "internalType": "uint256",
              "name": "time",
              "type": "uint256"
            },
            {
              "internalType": "address",
              "name": "addr",
              "type": "address"
            },
            {
              "internalType": "string",
              "name": "bio",
              "type": "string"
            },
            {
              "internalType": "string",
              "name": "profilePic",
              "type": "string"
            },
            {
              "internalType": "address[]",
              "name": "followers",
              "type": "address[]"
            },
            {
              "internalType": "address[]",
              "name": "following",
              "type": "address[]"
            },
            {
              "internalType": "address[]",
              "name": "unfollowers",
              "type": "address[]"
            },
            {
              "internalType": "address[]",
              "name": "unfollowing",
              "type": "address[]"
            },
            {
              "internalType": "bytes32[]",
              "name": "posts",
              "type": "bytes32[]"
            }
          ],
          "internalType": "struct UserStorage.User",
          "name": "",
          "type": "tuple"
        }
      ],
      "stateMutability": "view",
      "type": "function",
      "constant": true
    },
    {
      "inputs": [
        {
          "internalType": "address",
          "name": "_account",
          "type": "address"
        }
      ],
      "name": "getId",
      "outputs": [
        {
          "internalType": "bytes32",
          "name": "",
          "type": "bytes32"
        }
      ],
      "stateMutability": "view",
      "type": "function",
      "constant": true
    },
    {
      "inputs": [
        {
          "internalType": "address",
          "name": "_account",
          "type": "address"
        }
      ],
      "name": "getName",
      "outputs": [
        {
          "internalType": "bytes32",
          "name": "",
          "type": "bytes32"
        }
      ],
      "stateMutability": "view",
      "type": "function",
      "constant": true
    },
    {
      "inputs": [
        {
          "internalType": "address",
          "name": "_account",
          "type": "address"
        }
      ],
      "name": "getUserAddr",
      "outputs": [
        {
          "internalType": "bytes32",
          "name": "",
          "type": "bytes32"
        }
      ],
      "stateMutability": "view",
      "type": "function",
      "constant": true
    },
    {
      "inputs": [
        {
          "internalType": "address",
          "name": "_account",
          "type": "address"
        }
      ],
      "name": "getAddr",
      "outputs": [
        {
          "internalType": "address",
          "name": "",
          "type": "address"
        }
      ],
      "stateMutability": "view",
      "type": "function",
      "constant": true
    },
    {
      "inputs": [
        {
          "internalType": "address",
          "name": "_account",
          "type": "address"
        }
      ],
      "name": "getBio",
      "outputs": [
        {
          "internalType": "string",
          "name": "",
          "type": "string"
        }
      ],
      "stateMutability": "view",
      "type": "function",
      "constant": true
    },
    {
      "inputs": [
        {
          "internalType": "address",
          "name": "_account",
          "type": "address"
        }
      ],
      "name": "getTime",
      "outputs": [
        {
          "internalType": "uint256",
          "name": "",
          "type": "uint256"
        }
      ],
      "stateMutability": "view",
      "type": "function",
      "constant": true
    },
    {
      "inputs": [
        {
          "internalType": "address",
          "name": "_account",
          "type": "address"
        }
      ],
      "name": "getProfilePic",
      "outputs": [
        {
          "internalType": "string",
          "name": "",
          "type": "string"
        }
      ],
      "stateMutability": "view",
      "type": "function",
      "constant": true
    },
    {
      "inputs": [
        {
          "internalType": "address",
          "name": "_account",
          "type": "address"
        }
      ],
      "name": "getFollowerCount",
      "outputs": [
        {
          "internalType": "uint256",
          "name": "",
          "type": "uint256"
        }
      ],
      "stateMutability": "view",
      "type": "function",
      "constant": true
    },
    {
      "inputs": [
        {
          "internalType": "address",
          "name": "_account",
          "type": "address"
        }
      ],
      "name": "getFollowers",
      "outputs": [
        {
          "internalType": "address[]",
          "name": "",
          "type": "address[]"
        }
      ],
      "stateMutability": "view",
      "type": "function",
      "constant": true
    },
    {
      "inputs": [
        {
          "internalType": "address",
          "name": "_account",
          "type": "address"
        },
        {
          "internalType": "uint256",
          "name": "_index",
          "type": "uint256"
        }
      ],
      "name": "getFollowerAt",
      "outputs": [
        {
          "internalType": "address",
          "name": "",
          "type": "address"
        }
      ],
      "stateMutability": "view",
      "type": "function",
      "constant": true
    },
    {
      "inputs": [
        {
          "internalType": "address",
          "name": "_account",
          "type": "address"
        }
      ],
      "name": "getFollowingCount",
      "outputs": [
        {
          "internalType": "uint256",
          "name": "",
          "type": "uint256"
        }
      ],
      "stateMutability": "view",
      "type": "function",
      "constant": true
    },
    {
      "inputs": [
        {
          "internalType": "address",
          "name": "_account",
          "type": "address"
        }
      ],
      "name": "getFollowing",
      "outputs": [
        {
          "internalType": "address[]",
          "name": "",
          "type": "address[]"
        }
      ],
      "stateMutability": "view",
      "type": "function",
      "constant": true
    },
    {
      "inputs": [
        {
          "internalType": "address",
          "name": "_account",
          "type": "address"
        },
        {
          "internalType": "uint256",
          "name": "_index",
          "type": "uint256"
        }
      ],
      "name": "getFollowingAt",
      "outputs": [
        {
          "internalType": "address",
          "name": "",
          "type": "address"
        }
      ],
      "stateMutability": "view",
      "type": "function",
      "constant": true
    },
    {
      "inputs": [
        {
          "internalType": "address",
          "name": "_account",
          "type": "address"
        }
      ],
      "name": "getUnfollowerCount",
      "outputs": [
        {
          "internalType": "uint256",
          "name": "",
          "type": "uint256"
        }
      ],
      "stateMutability": "view",
      "type": "function",
      "constant": true
    },
    {
      "inputs": [
        {
          "internalType": "address",
          "name": "_account",
          "type": "address"
        }
      ],
      "name": "getUnfollowers",
      "outputs": [
        {
          "internalType": "address[]",
          "name": "",
          "type": "address[]"
        }
      ],
      "stateMutability": "view",
      "type": "function",
      "constant": true
    },
    {
      "inputs": [
        {
          "internalType": "address",
          "name": "_account",
          "type": "address"
        }
      ],
      "name": "getUnfollowingCount",
      "outputs": [
        {
          "internalType": "uint256",
          "name": "",
          "type": "uint256"
        }
      ],
      "stateMutability": "view",
      "type": "function",
      "constant": true
    },
    {
      "inputs": [
        {
          "internalType": "address",
          "name": "_account",
          "type": "address"
        }
      ],
      "name": "getUnfollowing",
      "outputs": [
        {
          "internalType": "address[]",
          "name": "",
          "type": "address[]"
        }
      ],
      "stateMutability": "view",
      "type": "function",
      "constant": true
    },
    {
      "inputs": [
        {
          "internalType": "address",
          "name": "_account",
          "type": "address"
        }
      ],
      "name": "getPostCount",
      "outputs": [
        {
          "internalType": "uint256",
          "name": "",
          "type": "uint256"
        }
      ],
      "stateMutability": "view",
      "type": "function",
      "constant": true
    },
    {
      "inputs": [
        {
          "internalType": "address",
          "name": "_account",
          "type": "address"
        }
      ],
      "name": "getPosts",
      "outputs": [
        {
          "internalType": "bytes32[]",
          "name": "",
          "type": "bytes32[]"
        }
      ],
      "stateMutability": "view",
      "type": "function",
      "constant": true
    },
    {
      "inputs": [
        {
          "internalType": "address",
          "name": "_userFactory",
          "type": "address"
        }
      ],
      "name": "passFactorySigner",
      "outputs": [
        {
          "internalType": "bool",
          "name": "",
          "type": "bool"
        }
      ],
      "stateMutability": "nonpayable",
      "type": "function"
    },
    {
      "inputs": [
        {
          "internalType": "address",
          "name": "_userInterface",
          "type": "address"
        }
      ],
      "name": "passInterfaceSigner",
      "outputs": [
        {
          "internalType": "bool",
          "name": "",
          "type": "bool"
        }
      ],
      "stateMutability": "nonpayable",
      "type": "function"
    },
    {
      "inputs": [
        {
          "internalType": "address",
          "name": "_memeFactory",
          "type": "address"
        }
      ],
      "name": "passMemeFactorySigner",
      "outputs": [
        {
          "internalType": "bool",
          "name": "",
          "type": "bool"
        }
      ],
      "stateMutability": "nonpayable",
      "type": "function"
    },
    {
      "inputs": [
        {
          "internalType": "address",
          "name": "_likeSigner",
          "type": "address"
        }
      ],
      "name": "passLikeSigner",
      "outputs": [
        {
          "internalType": "bool",
          "name": "",
          "type": "bool"
        }
      ],
      "stateMutability": "nonpayable",
      "type": "function"
    },
    {
      "inputs": [
        {
          "internalType": "address",
          "name": "_followSigner",
          "type": "address"
        }
      ],
      "name": "passFollowSigner",
      "outputs": [
        {
          "internalType": "bool",
          "name": "",
          "type": "bool"
        }
      ],
      "stateMutability": "nonpayable",
      "type": "function"
    }
  ],
  "bytecode": "0x6080604052600060055534801561001557600080fd5b50336000806101000a81548173ffffffffffffffffffffffffffffffffffffffff021916908373ffffffffffffffffffffffffffffffffffffffff16021790555033600160006101000a81548173ffffffffffffffffffffffffffffffffffffffff021916908373ffffffffffffffffffffffffffffffffffffffff16021790555033600260006101000a81548173ffffffffffffffffffffffffffffffffffffffff021916908373ffffffffffffffffffffffffffffffffffffffff16021790555033600360006101000a81548173ffffffffffffffffffffffffffffffffffffffff021916908373ffffffffffffffffffffffffffffffffffffffff16021790555033600460006101000a81548173ffffffffffffffffffffffffffffffffffffffff021916908373ffffffffffffffffffffffffffffffffffffffff160217905550614773806101696000396000f3fe608060405234801561001057600080fd5b506004361061030c5760003560e01c806377dd8a031161019d578063b8e3bfb8116100e9578063d5093b63116100a2578063e587f0dc1161007c578063e587f0dc14610a81578063e5fe947714610ab1578063e8fc954e14610ae1578063fab7d53614610b115761030c565b8063d5093b6314610a05578063d8236dff14610a35578063e07dbb1014610a655761030c565b8063b8e3bfb81461091f578063bb58f85d1461093d578063c2fe202214610959578063c4e172da14610989578063cb04c970146109b9578063cc656d0e146109e95761030c565b8063a07cf37111610156578063a4c7fafa11610130578063a4c7fafa1461086b578063a87430ba1461089b578063af5dffde146108d1578063b4108a94146108ef5761030c565b8063a07cf371146107ef578063a1c54a211461081f578063a477c0bf1461084f5761030c565b806377dd8a0314610707578063798c60bd14610737578063829a262c1461075357806386b221461461077157806399ec3a421461078f5780639b6de675146107bf5761030c565b80632ff0bc1d1161025c578063542fc7aa116102155780635c60f226116101ef5780635c60f2261461065b5780635fd4b08a1461067757806365f68c89146106a75780636f77926b146106d75761030c565b8063542fc7aa146105f157806357c5451d1461060d5780635aa644131461063d5761030c565b80632ff0bc1d1461050b5780633fd0bf171461053b5780634b69ae781461056b5780634b70cec4146105875780634caf9d0b146105b757806351b66921146105e75761030c565b80630e666e49116102c957806316c5eb13116102a357806316c5eb131461045f57806317dcaab61461048f578063201caf8b146104bf57806320aba4da146104ef5761030c565b80630e666e49146103e357806311e0bda714610413578063144ffed3146104435761030c565b80630667e8051461031157806306e6a7701461032d57806307973ccf1461035d5780630909014b1461037b5780630a568111146103975780630d8d57d6146103b3575b600080fd5b61032b6004803603810190610326919061359e565b610b41565b005b610347600480360381019061034291906135de565b610c1c565b6040516103549190613626565b60405180910390f35b610365610d74565b604051610372919061365a565b60405180910390f35b610395600480360381019061039091906137bb565b610d7a565b005b6103b160048036038101906103ac91906138df565b610e65565b005b6103cd60048036038101906103c891906135de565b610ec0565b6040516103da91906139c3565b60405180910390f35b6103fd60048036038101906103f891906135de565b610f94565b60405161040a9190613626565b60405180910390f35b61042d600480360381019061042891906139e5565b61103e565b60405161043a9190613a21565b60405180910390f35b61045d600480360381019061045891906138df565b611071565b005b610479600480360381019061047491906139e5565b6110cc565b6040516104869190613626565b60405180910390f35b6104a960048036038101906104a491906135de565b611147565b6040516104b69190613626565b60405180910390f35b6104d960048036038101906104d491906135de565b61129b565b6040516104e69190613626565b60405180910390f35b610509600480360381019061050491906137bb565b6113f3565b005b610525600480360381019061052091906135de565b6114de565b6040516105329190613626565b60405180910390f35b610555600480360381019061055091906135de565b611636565b60405161056291906139c3565b60405180910390f35b610585600480360381019061058091906138df565b61170a565b005b6105a1600480360381019061059c91906135de565b611765565b6040516105ae919061365a565b60405180910390f35b6105d160048036038101906105cc91906135de565b6117b1565b6040516105de9190613afa565b60405180910390f35b6105ef61184b565b005b61060b600480360381019061060691906138df565b6118f3565b005b610627600480360381019061062291906135de565b61194e565b604051610634919061365a565b60405180910390f35b61064561199d565b6040516106529190613a21565b60405180910390f35b610675600480360381019061067091906135de565b6119c1565b005b610691600480360381019061068c91906135de565b611b4b565b60405161069e9190613b2b565b60405180910390f35b6106c160048036038101906106bc91906135de565b611b97565b6040516106ce9190613b2b565b60405180910390f35b6106f160048036038101906106ec91906135de565b611be3565b6040516106fe9190613dfa565b60405180910390f35b610721600480360381019061071c91906139e5565b61206f565b60405161072e9190613a21565b60405180910390f35b610751600480360381019061074c9190613e1c565b6120a2565b005b61075b612186565b6040516107689190613a21565b60405180910390f35b6107796121ac565b6040516107869190613a21565b60405180910390f35b6107a960048036038101906107a49190613e5c565b6121d2565b6040516107b69190613626565b60405180910390f35b6107d960048036038101906107d491906135de565b6122fe565b6040516107e6919061365a565b60405180910390f35b61080960048036038101906108049190613ec8565b61234d565b6040516108169190613a21565b60405180910390f35b610839600480360381019061083491906135de565b6123d6565b6040516108469190613f77565b60405180910390f35b6108696004803603810190610864919061359e565b6124a6565b005b610885600480360381019061088091906135de565b6125d3565b604051610892919061365a565b60405180910390f35b6108b560048036038101906108b091906135de565b612622565b6040516108c89796959493929190613f99565b60405180910390f35b6108d9612794565b6040516108e69190613a21565b60405180910390f35b610909600480360381019061090491906135de565b6127ba565b6040516109169190613a21565b60405180910390f35b610927612826565b6040516109349190613a21565b60405180910390f35b610957600480360381019061095291906140d9565b61284c565b005b610973600480360381019061096e91906135de565b6128a7565b6040516109809190613f77565b60405180910390f35b6109a3600480360381019061099e91906135de565b612977565b6040516109b09190613626565b60405180910390f35b6109d360048036038101906109ce91906135de565b612acf565b6040516109e0919061365a565b60405180910390f35b610a0360048036038101906109fe9190614325565b612b1e565b005b610a1f6004803603810190610a1a9190613ec8565b612d87565b604051610a2c9190613a21565b60405180910390f35b610a4f6004803603810190610a4a91906135de565b612e10565b604051610a5c9190613f77565b60405180910390f35b610a7f6004803603810190610a7a9190613e1c565b612ee0565b005b610a9b6004803603810190610a9691906135de565b612fc6565b604051610aa89190613f77565b60405180910390f35b610acb6004803603810190610ac69190613e5c565b613096565b604051610ad89190613626565b60405180910390f35b610afb6004803603810190610af691906135de565b6131c2565b604051610b089190613b2b565b60405180910390f35b610b2b6004803603810190610b2691906135de565b61320e565b604051610b38919061365a565b60405180910390f35b600460009054906101000a900473ffffffffffffffffffffffffffffffffffffffff1673ffffffffffffffffffffffffffffffffffffffff163373ffffffffffffffffffffffffffffffffffffffff1614610bd1576040517f08c379a0000000000000000000000000000000000000000000000000000000008152600401610bc8906143f3565b60405180910390fd5b80600660008473ffffffffffffffffffffffffffffffffffffffff1673ffffffffffffffffffffffffffffffffffffffff168152602001908152602001600020600101819055505050565b6000600260009054906101000a900473ffffffffffffffffffffffffffffffffffffffff1673ffffffffffffffffffffffffffffffffffffffff163373ffffffffffffffffffffffffffffffffffffffff1614610cae576040517f08c379a0000000000000000000000000000000000000000000000000000000008152600401610ca590614485565b60405180910390fd5b81600260006101000a81548173ffffffffffffffffffffffffffffffffffffffff021916908373ffffffffffffffffffffffffffffffffffffffff160217905550600260009054906101000a900473ffffffffffffffffffffffffffffffffffffffff1673ffffffffffffffffffffffffffffffffffffffff163373ffffffffffffffffffffffffffffffffffffffff167f2364065f519eb2e0ac13040d65b1d1140f6677de0518b6dee6954e49f7f7a5b660405160405180910390a360019050919050565b60055481565b600460009054906101000a900473ffffffffffffffffffffffffffffffffffffffff1673ffffffffffffffffffffffffffffffffffffffff163373ffffffffffffffffffffffffffffffffffffffff1614610e0a576040517f08c379a0000000000000000000000000000000000000000000000000000000008152600401610e01906144f1565b60405180910390fd5b80600660008473ffffffffffffffffffffffffffffffffffffffff1673ffffffffffffffffffffffffffffffffffffffff1681526020019081526020016000206006019080519060200190610e6092919061325d565b505050565b80600660008473ffffffffffffffffffffffffffffffffffffffff1673ffffffffffffffffffffffffffffffffffffffff168152602001908152602001600020600a019080519060200190610ebb9291906132e3565b505050565b6060600660008373ffffffffffffffffffffffffffffffffffffffff1673ffffffffffffffffffffffffffffffffffffffff1681526020019081526020016000206006018054610f0f90614540565b80601f0160208091040260200160405190810160405280929190818152602001828054610f3b90614540565b8015610f885780601f10610f5d57610100808354040283529160200191610f88565b820191906000526020600020905b815481529060010190602001808311610f6b57829003601f168201915b50505050509050919050565b60008073ffffffffffffffffffffffffffffffffffffffff16600660008473ffffffffffffffffffffffffffffffffffffffff1673ffffffffffffffffffffffffffffffffffffffff16815260200190815260200160002060040160009054906101000a900473ffffffffffffffffffffffffffffffffffffffff1673ffffffffffffffffffffffffffffffffffffffff16146110345760019050611039565b600090505b919050565b60086020528060005260406000206000915054906101000a900473ffffffffffffffffffffffffffffffffffffffff1681565b80600660008473ffffffffffffffffffffffffffffffffffffffff1673ffffffffffffffffffffffffffffffffffffffff16815260200190815260200160002060080190805190602001906110c79291906132e3565b505050565b60008073ffffffffffffffffffffffffffffffffffffffff166008600084815260200190815260200160002060009054906101000a900473ffffffffffffffffffffffffffffffffffffffff1673ffffffffffffffffffffffffffffffffffffffff161461113d5760019050611142565b600090505b919050565b60008060009054906101000a900473ffffffffffffffffffffffffffffffffffffffff1673ffffffffffffffffffffffffffffffffffffffff163373ffffffffffffffffffffffffffffffffffffffff16146111d8576040517f08c379a00000000000000000000000000000000000000000000000000000000081526004016111cf906145e4565b60405180910390fd5b816000806101000a81548173ffffffffffffffffffffffffffffffffffffffff021916908373ffffffffffffffffffffffffffffffffffffffff16021790555060008054906101000a900473ffffffffffffffffffffffffffffffffffffffff1673ffffffffffffffffffffffffffffffffffffffff163373ffffffffffffffffffffffffffffffffffffffff167f5f8b18be53cdf9843c4263461966fc46896a2d372d3fa87fc22f6cfed024186260405160405180910390a360019050919050565b6000600160009054906101000a900473ffffffffffffffffffffffffffffffffffffffff1673ffffffffffffffffffffffffffffffffffffffff163373ffffffffffffffffffffffffffffffffffffffff161461132d576040517f08c379a000000000000000000000000000000000000000000000000000000000815260040161132490614676565b60405180910390fd5b81600160006101000a81548173ffffffffffffffffffffffffffffffffffffffff021916908373ffffffffffffffffffffffffffffffffffffffff160217905550600160009054906101000a900473ffffffffffffffffffffffffffffffffffffffff1673ffffffffffffffffffffffffffffffffffffffff163373ffffffffffffffffffffffffffffffffffffffff167f76ce921e20c471c95deae34d20d53706ec4378ecab394e517f73aef912ae6cdd60405160405180910390a360019050919050565b600460009054906101000a900473ffffffffffffffffffffffffffffffffffffffff1673ffffffffffffffffffffffffffffffffffffffff163373ffffffffffffffffffffffffffffffffffffffff1614611483576040517f08c379a000000000000000000000000000000000000000000000000000000000815260040161147a906144f1565b60405180910390fd5b80600660008473ffffffffffffffffffffffffffffffffffffffff1673ffffffffffffffffffffffffffffffffffffffff16815260200190815260200160002060050190805190602001906114d992919061325d565b505050565b6000600360009054906101000a900473ffffffffffffffffffffffffffffffffffffffff1673ffffffffffffffffffffffffffffffffffffffff163373ffffffffffffffffffffffffffffffffffffffff1614611570576040517f08c379a0000000000000000000000000000000000000000000000000000000008152600401611567906145e4565b60405180910390fd5b81600360006101000a81548173ffffffffffffffffffffffffffffffffffffffff021916908373ffffffffffffffffffffffffffffffffffffffff160217905550600360009054906101000a900473ffffffffffffffffffffffffffffffffffffffff1673ffffffffffffffffffffffffffffffffffffffff163373ffffffffffffffffffffffffffffffffffffffff167f317b209d0dca6ddb6667f7c47d488a9708cc0e7befa4cde41a104b125a1d9ef660405160405180910390a360019050919050565b6060600660008373ffffffffffffffffffffffffffffffffffffffff1673ffffffffffffffffffffffffffffffffffffffff168152602001908152602001600020600501805461168590614540565b80601f01602080910402602001604051908101604052809291908181526020018280546116b190614540565b80156116fe5780601f106116d3576101008083540402835291602001916116fe565b820191906000526020600020905b8154815290600101906020018083116116e157829003601f168201915b50505050509050919050565b80600660008473ffffffffffffffffffffffffffffffffffffffff1673ffffffffffffffffffffffffffffffffffffffff16815260200190815260200160002060070190805190602001906117609291906132e3565b505050565b6000600660008373ffffffffffffffffffffffffffffffffffffffff1673ffffffffffffffffffffffffffffffffffffffff168152602001908152602001600020600301549050919050565b6060600660008373ffffffffffffffffffffffffffffffffffffffff1673ffffffffffffffffffffffffffffffffffffffff168152602001908152602001600020600b0180548060200260200160405190810160405280929190818152602001828054801561183f57602002820191906000526020600020905b81548152602001906001019080831161182b575b50505050509050919050565b60008054906101000a900473ffffffffffffffffffffffffffffffffffffffff1673ffffffffffffffffffffffffffffffffffffffff163373ffffffffffffffffffffffffffffffffffffffff16146118d9576040517f08c379a00000000000000000000000000000000000000000000000000000000081526004016118d0906143f3565b60405180910390fd5b600560008154809291906118ec906146c5565b9190505550565b80600660008473ffffffffffffffffffffffffffffffffffffffff1673ffffffffffffffffffffffffffffffffffffffff16815260200190815260200160002060090190805190602001906119499291906132e3565b505050565b6000600660008373ffffffffffffffffffffffffffffffffffffffff1673ffffffffffffffffffffffffffffffffffffffff168152602001908152602001600020600901805490509050919050565b60008054906101000a900473ffffffffffffffffffffffffffffffffffffffff1681565b60008054906101000a900473ffffffffffffffffffffffffffffffffffffffff1673ffffffffffffffffffffffffffffffffffffffff163373ffffffffffffffffffffffffffffffffffffffff1614611a4f576040517f08c379a0000000000000000000000000000000000000000000000000000000008152600401611a46906143f3565b60405180910390fd5b600660008273ffffffffffffffffffffffffffffffffffffffff1673ffffffffffffffffffffffffffffffffffffffff1681526020019081526020016000206000808201600090556001820160009055600282016000905560038201600090556004820160006101000a81549073ffffffffffffffffffffffffffffffffffffffff0219169055600582016000611ae6919061336d565b600682016000611af6919061336d565b600782016000611b0691906133ad565b600882016000611b1691906133ad565b600982016000611b2691906133ad565b600a82016000611b3691906133ad565b600b82016000611b4691906133ce565b505050565b6000600660008373ffffffffffffffffffffffffffffffffffffffff1673ffffffffffffffffffffffffffffffffffffffff168152602001908152602001600020600101549050919050565b6000600660008373ffffffffffffffffffffffffffffffffffffffff1673ffffffffffffffffffffffffffffffffffffffff168152602001908152602001600020600001549050919050565b611beb6133ef565b600660008373ffffffffffffffffffffffffffffffffffffffff1673ffffffffffffffffffffffffffffffffffffffff16815260200190815260200160002060405180610180016040529081600082015481526020016001820154815260200160028201548152602001600382015481526020016004820160009054906101000a900473ffffffffffffffffffffffffffffffffffffffff1673ffffffffffffffffffffffffffffffffffffffff1673ffffffffffffffffffffffffffffffffffffffff168152602001600582018054611cc490614540565b80601f0160208091040260200160405190810160405280929190818152602001828054611cf090614540565b8015611d3d5780601f10611d1257610100808354040283529160200191611d3d565b820191906000526020600020905b815481529060010190602001808311611d2057829003601f168201915b50505050508152602001600682018054611d5690614540565b80601f0160208091040260200160405190810160405280929190818152602001828054611d8290614540565b8015611dcf5780601f10611da457610100808354040283529160200191611dcf565b820191906000526020600020905b815481529060010190602001808311611db257829003601f168201915b5050505050815260200160078201805480602002602001604051908101604052809291908181526020018280548015611e5d57602002820191906000526020600020905b8160009054906101000a900473ffffffffffffffffffffffffffffffffffffffff1673ffffffffffffffffffffffffffffffffffffffff1681526020019060010190808311611e13575b5050505050815260200160088201805480602002602001604051908101604052809291908181526020018280548015611eeb57602002820191906000526020600020905b8160009054906101000a900473ffffffffffffffffffffffffffffffffffffffff1673ffffffffffffffffffffffffffffffffffffffff1681526020019060010190808311611ea1575b5050505050815260200160098201805480602002602001604051908101604052809291908181526020018280548015611f7957602002820191906000526020600020905b8160009054906101000a900473ffffffffffffffffffffffffffffffffffffffff1673ffffffffffffffffffffffffffffffffffffffff1681526020019060010190808311611f2f575b50505050508152602001600a820180548060200260200160405190810160405280929190818152602001828054801561200757602002820191906000526020600020905b8160009054906101000a900473ffffffffffffffffffffffffffffffffffffffff1673ffffffffffffffffffffffffffffffffffffffff1681526020019060010190808311611fbd575b50505050508152602001600b820180548060200260200160405190810160405280929190818152602001828054801561205f57602002820191906000526020600020905b81548152602001906001019080831161204b575b5050505050815250509050919050565b60076020528060005260406000206000915054906101000a900473ffffffffffffffffffffffffffffffffffffffff1681565b60008054906101000a900473ffffffffffffffffffffffffffffffffffffffff1673ffffffffffffffffffffffffffffffffffffffff163373ffffffffffffffffffffffffffffffffffffffff1614612130576040517f08c379a0000000000000000000000000000000000000000000000000000000008152600401612127906143f3565b60405180910390fd5b806008600084815260200190815260200160002060006101000a81548173ffffffffffffffffffffffffffffffffffffffff021916908373ffffffffffffffffffffffffffffffffffffffff1602179055505050565b600260009054906101000a900473ffffffffffffffffffffffffffffffffffffffff1681565b600160009054906101000a900473ffffffffffffffffffffffffffffffffffffffff1681565b600080600090505b600660008473ffffffffffffffffffffffffffffffffffffffff1673ffffffffffffffffffffffffffffffffffffffff168152602001908152602001600020600801805490508110156122f657600660008473ffffffffffffffffffffffffffffffffffffffff1673ffffffffffffffffffffffffffffffffffffffff168152602001908152602001600020600801818154811061227b5761227a61470e565b5b9060005260206000200160009054906101000a900473ffffffffffffffffffffffffffffffffffffffff1673ffffffffffffffffffffffffffffffffffffffff168473ffffffffffffffffffffffffffffffffffffffff1614156122e35760019150506122f8565b80806122ee906146c5565b9150506121da565b505b92915050565b6000600660008373ffffffffffffffffffffffffffffffffffffffff1673ffffffffffffffffffffffffffffffffffffffff168152602001908152602001600020600a01805490509050919050565b6000600660008473ffffffffffffffffffffffffffffffffffffffff1673ffffffffffffffffffffffffffffffffffffffff16815260200190815260200160002060080182815481106123a3576123a261470e565b5b9060005260206000200160009054906101000a900473ffffffffffffffffffffffffffffffffffffffff16905092915050565b6060600660008373ffffffffffffffffffffffffffffffffffffffff1673ffffffffffffffffffffffffffffffffffffffff16815260200190815260200160002060090180548060200260200160405190810160405280929190818152602001828054801561249a57602002820191906000526020600020905b8160009054906101000a900473ffffffffffffffffffffffffffffffffffffffff1673ffffffffffffffffffffffffffffffffffffffff1681526020019060010190808311612450575b50505050509050919050565b600460009054906101000a900473ffffffffffffffffffffffffffffffffffffffff1673ffffffffffffffffffffffffffffffffffffffff163373ffffffffffffffffffffffffffffffffffffffff1614612536576040517f08c379a000000000000000000000000000000000000000000000000000000000815260040161252d906143f3565b60405180910390fd5b80600660008473ffffffffffffffffffffffffffffffffffffffff1673ffffffffffffffffffffffffffffffffffffffff16815260200190815260200160002060020181905550816008600083815260200190815260200160002060006101000a81548173ffffffffffffffffffffffffffffffffffffffff021916908373ffffffffffffffffffffffffffffffffffffffff1602179055505050565b6000600660008373ffffffffffffffffffffffffffffffffffffffff1673ffffffffffffffffffffffffffffffffffffffff168152602001908152602001600020600b01805490509050919050565b60066020528060005260406000206000915090508060000154908060010154908060020154908060030154908060040160009054906101000a900473ffffffffffffffffffffffffffffffffffffffff169080600501805461268390614540565b80601f01602080910402602001604051908101604052809291908181526020018280546126af90614540565b80156126fc5780601f106126d1576101008083540402835291602001916126fc565b820191906000526020600020905b8154815290600101906020018083116126df57829003601f168201915b50505050509080600601805461271190614540565b80601f016020809104026020016040519081016040528092919081815260200182805461273d90614540565b801561278a5780601f1061275f5761010080835404028352916020019161278a565b820191906000526020600020905b81548152906001019060200180831161276d57829003601f168201915b5050505050905087565b600460009054906101000a900473ffffffffffffffffffffffffffffffffffffffff1681565b6000600660008373ffffffffffffffffffffffffffffffffffffffff1673ffffffffffffffffffffffffffffffffffffffff16815260200190815260200160002060040160009054906101000a900473ffffffffffffffffffffffffffffffffffffffff169050919050565b600360009054906101000a900473ffffffffffffffffffffffffffffffffffffffff1681565b80600660008473ffffffffffffffffffffffffffffffffffffffff1673ffffffffffffffffffffffffffffffffffffffff168152602001908152602001600020600b0190805190602001906128a292919061346f565b505050565b6060600660008373ffffffffffffffffffffffffffffffffffffffff1673ffffffffffffffffffffffffffffffffffffffff16815260200190815260200160002060070180548060200260200160405190810160405280929190818152602001828054801561296b57602002820191906000526020600020905b8160009054906101000a900473ffffffffffffffffffffffffffffffffffffffff1673ffffffffffffffffffffffffffffffffffffffff1681526020019060010190808311612921575b50505050509050919050565b6000600460009054906101000a900473ffffffffffffffffffffffffffffffffffffffff1673ffffffffffffffffffffffffffffffffffffffff163373ffffffffffffffffffffffffffffffffffffffff1614612a09576040517f08c379a0000000000000000000000000000000000000000000000000000000008152600401612a00906145e4565b60405180910390fd5b81600460006101000a81548173ffffffffffffffffffffffffffffffffffffffff021916908373ffffffffffffffffffffffffffffffffffffffff160217905550600460009054906101000a900473ffffffffffffffffffffffffffffffffffffffff1673ffffffffffffffffffffffffffffffffffffffff163373ffffffffffffffffffffffffffffffffffffffff167fdf570d582e474b2d7915b12f6f773eb74e4bc78a660caeeccf19491c8578507b60405160405180910390a360019050919050565b6000600660008373ffffffffffffffffffffffffffffffffffffffff1673ffffffffffffffffffffffffffffffffffffffff168152602001908152602001600020600701805490509050919050565b60008054906101000a900473ffffffffffffffffffffffffffffffffffffffff1673ffffffffffffffffffffffffffffffffffffffff163373ffffffffffffffffffffffffffffffffffffffff1614612bac576040517f08c379a0000000000000000000000000000000000000000000000000000000008152600401612ba3906143f3565b60405180910390fd5b80600660008473ffffffffffffffffffffffffffffffffffffffff1673ffffffffffffffffffffffffffffffffffffffff1681526020019081526020016000206000820151816000015560208201518160010155604082015181600201556060820151816003015560808201518160040160006101000a81548173ffffffffffffffffffffffffffffffffffffffff021916908373ffffffffffffffffffffffffffffffffffffffff16021790555060a0820151816005019080519060200190612c7792919061325d565b5060c0820151816006019080519060200190612c9492919061325d565b5060e0820151816007019080519060200190612cb19291906132e3565b50610100820151816008019080519060200190612ccf9291906132e3565b50610120820151816009019080519060200190612ced9291906132e3565b5061014082015181600a019080519060200190612d0b9291906132e3565b5061016082015181600b019080519060200190612d2992919061346f565b5090505081600860008360400151815260200190815260200160002060006101000a81548173ffffffffffffffffffffffffffffffffffffffff021916908373ffffffffffffffffffffffffffffffffffffffff1602179055505050565b6000600660008473ffffffffffffffffffffffffffffffffffffffff1673ffffffffffffffffffffffffffffffffffffffff1681526020019081526020016000206007018281548110612ddd57612ddc61470e565b5b9060005260206000200160009054906101000a900473ffffffffffffffffffffffffffffffffffffffff16905092915050565b6060600660008373ffffffffffffffffffffffffffffffffffffffff1673ffffffffffffffffffffffffffffffffffffffff168152602001908152602001600020600801805480602002602001604051908101604052809291908181526020018280548015612ed457602002820191906000526020600020905b8160009054906101000a900473ffffffffffffffffffffffffffffffffffffffff1673ffffffffffffffffffffffffffffffffffffffff1681526020019060010190808311612e8a575b50505050509050919050565b600160009054906101000a900473ffffffffffffffffffffffffffffffffffffffff1673ffffffffffffffffffffffffffffffffffffffff163373ffffffffffffffffffffffffffffffffffffffff1614612f70576040517f08c379a0000000000000000000000000000000000000000000000000000000008152600401612f67906143f3565b60405180910390fd5b806007600084815260200190815260200160002060006101000a81548173ffffffffffffffffffffffffffffffffffffffff021916908373ffffffffffffffffffffffffffffffffffffffff1602179055505050565b6060600660008373ffffffffffffffffffffffffffffffffffffffff1673ffffffffffffffffffffffffffffffffffffffff168152602001908152602001600020600a0180548060200260200160405190810160405280929190818152602001828054801561308a57602002820191906000526020600020905b8160009054906101000a900473ffffffffffffffffffffffffffffffffffffffff1673ffffffffffffffffffffffffffffffffffffffff1681526020019060010190808311613040575b50505050509050919050565b600080600090505b600660008473ffffffffffffffffffffffffffffffffffffffff1673ffffffffffffffffffffffffffffffffffffffff168152602001908152602001600020600701805490508110156131ba57600660008473ffffffffffffffffffffffffffffffffffffffff1673ffffffffffffffffffffffffffffffffffffffff168152602001908152602001600020600701818154811061313f5761313e61470e565b5b9060005260206000200160009054906101000a900473ffffffffffffffffffffffffffffffffffffffff1673ffffffffffffffffffffffffffffffffffffffff168473ffffffffffffffffffffffffffffffffffffffff1614156131a75760019150506131bc565b80806131b2906146c5565b91505061309e565b505b92915050565b6000600660008373ffffffffffffffffffffffffffffffffffffffff1673ffffffffffffffffffffffffffffffffffffffff168152602001908152602001600020600201549050919050565b6000600660008373ffffffffffffffffffffffffffffffffffffffff1673ffffffffffffffffffffffffffffffffffffffff168152602001908152602001600020600801805490509050919050565b82805461326990614540565b90600052602060002090601f01602090048101928261328b57600085556132d2565b82601f106132a457805160ff19168380011785556132d2565b828001600101855582156132d2579182015b828111156132d15782518255916020019190600101906132b6565b5b5090506132df91906134bc565b5090565b82805482825590600052602060002090810192821561335c579160200282015b8281111561335b5782518260006101000a81548173ffffffffffffffffffffffffffffffffffffffff021916908373ffffffffffffffffffffffffffffffffffffffff16021790555091602001919060010190613303565b5b50905061336991906134bc565b5090565b50805461337990614540565b6000825580601f1061338b57506133aa565b601f0160209004906000526020600020908101906133a991906134bc565b5b50565b50805460008255906000526020600020908101906133cb91906134bc565b50565b50805460008255906000526020600020908101906133ec91906134d9565b50565b60405180610180016040528060008019168152602001600080191681526020016000801916815260200160008152602001600073ffffffffffffffffffffffffffffffffffffffff168152602001606081526020016060815260200160608152602001606081526020016060815260200160608152602001606081525090565b8280548282559060005260206000209081019282156134ab579160200282015b828111156134aa57825182559160200191906001019061348f565b5b5090506134b891906134d9565b5090565b5b808211156134d55760008160009055506001016134bd565b5090565b5b808211156134f25760008160009055506001016134da565b5090565b6000604051905090565b600080fd5b600080fd5b600073ffffffffffffffffffffffffffffffffffffffff82169050919050565b60006135358261350a565b9050919050565b6135458161352a565b811461355057600080fd5b50565b6000813590506135628161353c565b92915050565b6000819050919050565b61357b81613568565b811461358657600080fd5b50565b60008135905061359881613572565b92915050565b600080604083850312156135b5576135b4613500565b5b60006135c385828601613553565b92505060206135d485828601613589565b9150509250929050565b6000602082840312156135f4576135f3613500565b5b600061360284828501613553565b91505092915050565b60008115159050919050565b6136208161360b565b82525050565b600060208201905061363b6000830184613617565b92915050565b6000819050919050565b61365481613641565b82525050565b600060208201905061366f600083018461364b565b92915050565b600080fd5b600080fd5b6000601f19601f8301169050919050565b7f4e487b7100000000000000000000000000000000000000000000000000000000600052604160045260246000fd5b6136c88261367f565b810181811067ffffffffffffffff821117156136e7576136e6613690565b5b80604052505050565b60006136fa6134f6565b905061370682826136bf565b919050565b600067ffffffffffffffff82111561372657613725613690565b5b61372f8261367f565b9050602081019050919050565b82818337600083830152505050565b600061375e6137598461370b565b6136f0565b90508281526020810184848401111561377a5761377961367a565b5b61378584828561373c565b509392505050565b600082601f8301126137a2576137a1613675565b5b81356137b284826020860161374b565b91505092915050565b600080604083850312156137d2576137d1613500565b5b60006137e085828601613553565b925050602083013567ffffffffffffffff81111561380157613800613505565b5b61380d8582860161378d565b9150509250929050565b600067ffffffffffffffff82111561383257613831613690565b5b602082029050602081019050919050565b600080fd5b600061385b61385684613817565b6136f0565b9050808382526020820190506020840283018581111561387e5761387d613843565b5b835b818110156138a757806138938882613553565b845260208401935050602081019050613880565b5050509392505050565b600082601f8301126138c6576138c5613675565b5b81356138d6848260208601613848565b91505092915050565b600080604083850312156138f6576138f5613500565b5b600061390485828601613553565b925050602083013567ffffffffffffffff81111561392557613924613505565b5b613931858286016138b1565b9150509250929050565b600081519050919050565b600082825260208201905092915050565b60005b8381101561397557808201518184015260208101905061395a565b83811115613984576000848401525b50505050565b60006139958261393b565b61399f8185613946565b93506139af818560208601613957565b6139b88161367f565b840191505092915050565b600060208201905081810360008301526139dd818461398a565b905092915050565b6000602082840312156139fb576139fa613500565b5b6000613a0984828501613589565b91505092915050565b613a1b8161352a565b82525050565b6000602082019050613a366000830184613a12565b92915050565b600081519050919050565b600082825260208201905092915050565b6000819050602082019050919050565b613a7181613568565b82525050565b6000613a838383613a68565b60208301905092915050565b6000602082019050919050565b6000613aa782613a3c565b613ab18185613a47565b9350613abc83613a58565b8060005b83811015613aed578151613ad48882613a77565b9750613adf83613a8f565b925050600181019050613ac0565b5085935050505092915050565b60006020820190508181036000830152613b148184613a9c565b905092915050565b613b2581613568565b82525050565b6000602082019050613b406000830184613b1c565b92915050565b613b4f81613641565b82525050565b613b5e8161352a565b82525050565b600082825260208201905092915050565b6000613b808261393b565b613b8a8185613b64565b9350613b9a818560208601613957565b613ba38161367f565b840191505092915050565b600081519050919050565b600082825260208201905092915050565b6000819050602082019050919050565b6000613be68383613b55565b60208301905092915050565b6000602082019050919050565b6000613c0a82613bae565b613c148185613bb9565b9350613c1f83613bca565b8060005b83811015613c50578151613c378882613bda565b9750613c4283613bf2565b925050600181019050613c23565b5085935050505092915050565b600082825260208201905092915050565b6000613c7982613a3c565b613c838185613c5d565b9350613c8e83613a58565b8060005b83811015613cbf578151613ca68882613a77565b9750613cb183613a8f565b925050600181019050613c92565b5085935050505092915050565b600061018083016000830151613ce56000860182613a68565b506020830151613cf86020860182613a68565b506040830151613d0b6040860182613a68565b506060830151613d1e6060860182613b46565b506080830151613d316080860182613b55565b5060a083015184820360a0860152613d498282613b75565b91505060c083015184820360c0860152613d638282613b75565b91505060e083015184820360e0860152613d7d8282613bff565b915050610100830151848203610100860152613d998282613bff565b915050610120830151848203610120860152613db58282613bff565b915050610140830151848203610140860152613dd18282613bff565b915050610160830151848203610160860152613ded8282613c6e565b9150508091505092915050565b60006020820190508181036000830152613e148184613ccc565b905092915050565b60008060408385031215613e3357613e32613500565b5b6000613e4185828601613589565b9250506020613e5285828601613553565b9150509250929050565b60008060408385031215613e7357613e72613500565b5b6000613e8185828601613553565b9250506020613e9285828601613553565b9150509250929050565b613ea581613641565b8114613eb057600080fd5b50565b600081359050613ec281613e9c565b92915050565b60008060408385031215613edf57613ede613500565b5b6000613eed85828601613553565b9250506020613efe85828601613eb3565b9150509250929050565b600082825260208201905092915050565b6000613f2482613bae565b613f2e8185613f08565b9350613f3983613bca565b8060005b83811015613f6a578151613f518882613bda565b9750613f5c83613bf2565b925050600181019050613f3d565b5085935050505092915050565b60006020820190508181036000830152613f918184613f19565b905092915050565b600060e082019050613fae600083018a613b1c565b613fbb6020830189613b1c565b613fc86040830188613b1c565b613fd5606083018761364b565b613fe26080830186613a12565b81810360a0830152613ff4818561398a565b905081810360c0830152614008818461398a565b905098975050505050505050565b600067ffffffffffffffff82111561403157614030613690565b5b602082029050602081019050919050565b600061405561405084614016565b6136f0565b9050808382526020820190506020840283018581111561407857614077613843565b5b835b818110156140a1578061408d8882613589565b84526020840193505060208101905061407a565b5050509392505050565b600082601f8301126140c0576140bf613675565b5b81356140d0848260208601614042565b91505092915050565b600080604083850312156140f0576140ef613500565b5b60006140fe85828601613553565b925050602083013567ffffffffffffffff81111561411f5761411e613505565b5b61412b858286016140ab565b9150509250929050565b600080fd5b600080fd5b6000610180828403121561415657614155614135565b5b6141616101806136f0565b9050600061417184828501613589565b600083015250602061418584828501613589565b602083015250604061419984828501613589565b60408301525060606141ad84828501613eb3565b60608301525060806141c184828501613553565b60808301525060a082013567ffffffffffffffff8111156141e5576141e461413a565b5b6141f18482850161378d565b60a08301525060c082013567ffffffffffffffff8111156142155761421461413a565b5b6142218482850161378d565b60c08301525060e082013567ffffffffffffffff8111156142455761424461413a565b5b614251848285016138b1565b60e08301525061010082013567ffffffffffffffff8111156142765761427561413a565b5b614282848285016138b1565b6101008301525061012082013567ffffffffffffffff8111156142a8576142a761413a565b5b6142b4848285016138b1565b6101208301525061014082013567ffffffffffffffff8111156142da576142d961413a565b5b6142e6848285016138b1565b6101408301525061016082013567ffffffffffffffff81111561430c5761430b61413a565b5b614318848285016140ab565b6101608301525092915050565b6000806040838503121561433c5761433b613500565b5b600061434a85828601613553565b925050602083013567ffffffffffffffff81111561436b5761436a613505565b5b6143778582860161413f565b9150509250929050565b7f4572726f723a207573657220666163746f7279206d757374206265207369676e60008201527f6572000000000000000000000000000000000000000000000000000000000000602082015250565b60006143dd602283613946565b91506143e882614381565b604082019050919050565b6000602082019050818103600083015261440c816143d0565b9050919050565b7f4572726f723a206d73672e73656e646572206d757374206265206c696b65536960008201527f676e657200000000000000000000000000000000000000000000000000000000602082015250565b600061446f602483613946565b915061447a82614413565b604082019050919050565b6000602082019050818103600083015261449e81614462565b9050919050565b7f4572726f722c20696e74657266616365206d757374206265207369676e657200600082015250565b60006144db601f83613946565b91506144e6826144a5565b602082019050919050565b6000602082019050818103600083015261450a816144ce565b9050919050565b7f4e487b7100000000000000000000000000000000000000000000000000000000600052602260045260246000fd5b6000600282049050600182168061455857607f821691505b6020821081141561456c5761456b614511565b5b50919050565b7f4572726f723a206d73672e73656e646572206d75737420626520666163746f7260008201527f795369676e657200000000000000000000000000000000000000000000000000602082015250565b60006145ce602783613946565b91506145d982614572565b604082019050919050565b600060208201905081810360008301526145fd816145c1565b9050919050565b7f4572726f723a206d73672e73656e646572206d757374206265206d656d65466160008201527f63746f72795369676e6572000000000000000000000000000000000000000000602082015250565b6000614660602b83613946565b915061466b82614604565b604082019050919050565b6000602082019050818103600083015261468f81614653565b9050919050565b7f4e487b7100000000000000000000000000000000000000000000000000000000600052601160045260246000fd5b60006146d082613641565b91507fffffffffffffffffffffffffffffffffffffffffffffffffffffffffffffffff82141561470357614702614696565b5b600182019050919050565b7f4e487b7100000000000000000000000000000000000000000000000000000000600052603260045260246000fdfea264697066735822122060facc7a30baadc03c149bee9893f63a50078c8885fc22ea6917e181282239ee64736f6c63430008090033",
  "immutableReferences": {},
  "source": "// SPDX-License-Identifier: MIT\n\npragma solidity >=0.8.0 <0.9.0;\n\ncontract UserStorage {\n  address public factorySigner;\n  address public memeFactorySigner;\n  address public likeSigner;\n  address public followSigner;\n  address public interfaceSigner;\n\n  uint public userCount = 0;\n\n  mapping(address => User) public users; // address to Users map\n  mapping(bytes32 => address) public usersByMeme; // memeId to account addresses\n  mapping(bytes32 => address) public usersByUserAddr; // userAddr to account address\n\n  struct User {\n    bytes32 id; // user number in order\n    bytes32 name; // user name\n    bytes32 userAddr; // user address (@)\n    uint time; // user creation time\n    address addr; // address of user\n    string bio;\n    string profilePic;\n    address[] followers; // addresses of followers\n    address[] following; // addressses of following\n    address[] unfollowers; // addresses of followers\n    address[] unfollowing; // addressses of following\n    bytes32[] posts; // memeIds of posts\n  }\n\n  event FactorySignerChanged(address indexed from, address indexed to);\n  event InterfaceSignerChanged(address indexed from, address indexed to);\n  event PostSignerChanged(address indexed from, address indexed to);\n  event LikeSignerChanged(address indexed from, address indexed to);\n  event FollowSignerChanged(address indexed from, address indexed to);\n\n  constructor() public {\n    factorySigner = msg.sender;\n    memeFactorySigner = msg.sender;\n    likeSigner = msg.sender;\n    followSigner = msg.sender;\n    interfaceSigner = msg.sender;\n  }\n\n\n  // Factory-Specific setters\n  function setUser(\n    address _account,\n    User memory _user\n  ) public {\n    require(\n      msg.sender==factorySigner,\n      'Error: user factory must be signer');\n    users[_account] = _user;\n    usersByUserAddr[_user.userAddr] = _account;\n  }\n  function setUsersByUserAddress(\n    bytes32 _userAddr,\n    address _account\n  ) public {\n    require(\n      msg.sender==factorySigner,\n      'Error: user factory must be signer');\n    usersByUserAddr[_userAddr] = _account;\n  }\n  function setUsersByMeme(\n    bytes32 _memeId,\n    address _account\n  ) public {\n    require(\n      msg.sender==memeFactorySigner,\n      'Error: user factory must be signer');\n    usersByMeme[_memeId] = _account;\n  }\n  function deleteUser(address _account) public {\n    require(\n      msg.sender==factorySigner,\n      'Error: user factory must be signer');\n    delete users[_account];\n  }\n  function increaseUserCount() public {\n    require(\n      msg.sender==factorySigner,\n      'Error: user factory must be signer');\n    userCount++;\n  }\n  // Setters for interface only\n  function setUserName(\n    address _account,\n    bytes32 _userName\n  ) public {\n    require(\n      msg.sender==interfaceSigner,\n      'Error: user factory must be signer');\n    users[_account].name= _userName;\n  }\n  function setUserAddress(\n    address _account,\n    bytes32 _userAddress\n  ) public {\n    require(\n      msg.sender==interfaceSigner,\n      'Error: user factory must be signer');\n    users[_account].userAddr = _userAddress;\n    usersByUserAddr[_userAddress] = _account;\n  }\n  function setBio(\n    address _account,\n    string memory _bio\n  ) public {\n    require(\n      msg.sender==interfaceSigner,\n      'Error, interface must be signer');\n    users[_account].bio = _bio;\n  }\n  function setProfilePic(\n    address _account,\n    string memory _imgHash\n  ) public {\n    require(\n      msg.sender==interfaceSigner,\n      'Error, interface must be signer');\n    users[_account].profilePic = _imgHash;\n  }\n\n  // Setters for all signers\n  // set post meme\n  function setPosts(\n    address _account,\n    bytes32[] memory _posts\n  ) public {\n    users[_account].posts = _posts;\n  }\n\n  // set follow\n  function setFollowers(\n    address _account,\n    address[] memory _followers\n  ) public {\n    users[_account].followers = _followers;\n  }\n  function setFollowing(\n    address _account,\n    address[] memory _following\n  ) public {\n    users[_account].following = _following;\n  }\n  function setUnfollowers(\n    address _account,\n    address[] memory _unfollowers\n  ) public {\n    users[_account].unfollowers = _unfollowers;\n  }\n  function setUnfollowing(\n    address _account,\n    address[] memory _unfollowing\n  ) public {\n    users[_account].unfollowing = _unfollowing;\n  }\n\n  // getter functions for UserStorage\n  function userExists(address _account) public view returns(bool) {\n    if(users[_account].addr!=address(0x0)) {\n      return true;\n    }\n    else {\n      return false;\n    }\n  }\n  function userAddressExists(bytes32 _userAddress) public view returns(bool) {\n    if(usersByUserAddr[_userAddress]!=address(0x0)) {\n      return true;\n    }\n    else {\n      return false;\n    }\n  }\n  function isFollowing(\n    address _from,\n    address _to\n  ) public view returns(bool) {\n    for(uint i = 0; i < users[_to].following.length; i++) {\n      if(_from==users[_to].following[i]) {\n        return true;\n      }\n    }\n  }\n  function isFollower(\n    address _from,\n    address _to\n  ) public view returns(bool) {\n    for(uint i = 0; i < users[_to].followers.length; i++) {\n      if(_from==users[_to].followers[i]) {\n        return true;\n      }\n    }\n  }\n\n\n  function getUser(address _account) public view returns(User memory){\n    return users[_account];\n  }\n  function getId(address _account) public view returns(bytes32) {\n    return users[_account].id;\n  }\n  function getName(address _account) public view returns(bytes32) {\n    return users[_account].name;\n  }\n  function getUserAddr(address _account) public view returns(bytes32) {\n    return users[_account].userAddr;\n  }\n  function getAddr(address _account) public view returns(address) {\n    return users[_account].addr;\n  }\n  function getBio(address _account) public view returns(string memory) {\n    return users[_account].bio;\n  }\n  function getTime(address _account) public view returns(uint) {\n    return users[_account].time;\n  }\n  function getProfilePic(address _account) public view returns(string memory) {\n    return users[_account].profilePic;\n  }\n  function getFollowerCount(address _account) public view returns(uint) {\n    return users[_account].followers.length;\n  }\n  function getFollowers(address _account) public view returns(address[] memory) {\n    return users[_account].followers;\n  }\n  function getFollowerAt(address _account, uint _index) public view returns(address) {\n    return users[_account].followers[_index];\n  }\n  function getFollowingCount(address _account) public view returns(uint) {\n    return users[_account].following.length;\n  }\n  function getFollowing(address _account) public view returns(address[] memory) {\n    return users[_account].following;\n  }\n  function getFollowingAt(address _account, uint _index) public view returns(address) {\n    return users[_account].following[_index];\n  }\n  function getUnfollowerCount(address _account) public view returns(uint) {\n    return users[_account].unfollowers.length;\n  }\n  function getUnfollowers(address _account) public view returns(address[] memory) {\n    return users[_account].unfollowers;\n  }\n  function getUnfollowingCount(address _account) public view returns(uint) {\n    return users[_account].unfollowing.length;\n  }\n  function getUnfollowing(address _account) public view returns(address[] memory) {\n    return users[_account].unfollowing;\n  }\n  function getPostCount(address _account) public view returns (uint) {\n    return users[_account].posts.length;\n  }\n  function getPosts(address _account) public view returns (bytes32[] memory) {\n    return users[_account].posts;\n  }\n\n  // pass signer roles\n  function passFactorySigner(address _userFactory) public returns(bool){\n    require(\n      msg.sender==factorySigner,\n      'Error: msg.sender must be factorySigner');\n\n    factorySigner = _userFactory;\n    emit FactorySignerChanged(msg.sender, factorySigner);\n    return true;\n  }\n  function passInterfaceSigner(address _userInterface) public returns(bool){\n    require(\n      msg.sender==interfaceSigner,\n      'Error: msg.sender must be factorySigner');\n\n    interfaceSigner = _userInterface;\n    emit InterfaceSignerChanged(msg.sender, interfaceSigner);\n    return true;\n  }\n  function passMemeFactorySigner(address _memeFactory) public returns(bool){\n    require(\n      msg.sender==memeFactorySigner,\n      'Error: msg.sender must be memeFactorySigner');\n\n    memeFactorySigner = _memeFactory;\n    emit PostSignerChanged(msg.sender, memeFactorySigner);\n    return true;\n  }\n  function passLikeSigner(address _likeSigner) public returns(bool){\n    require(\n      msg.sender==likeSigner,\n      'Error: msg.sender must be likeSigner');\n\n    likeSigner = _likeSigner;\n    emit LikeSignerChanged(msg.sender, likeSigner);\n    return true;\n  }\n  function passFollowSigner(address _followSigner) public returns(bool){\n    require(\n      msg.sender==followSigner,\n      'Error: msg.sender must be factorySigner');\n\n    followSigner = _followSigner;\n    emit FollowSignerChanged(msg.sender, followSigner);\n    return true;\n  }\n}\n",
  "sourcePath": "/Users/jaiq/Documents/000 BLOCKCHAIN/ETH/uMe/src/contracts/UserStorage.sol",
  "compiler": {
    "name": "solc",
    "version": "0.8.9+commit.e5eed63a.Emscripten.clang"
  },
  "schemaVersion": "3.4.3",
  "updatedAt": "2021-10-06T00:40:47.052Z",
  "networkType": "ethereum",
  "devdoc": {
    "kind": "dev",
    "methods": {},
    "version": 1
  },
  "userdoc": {
    "kind": "user",
    "methods": {},
    "version": 1
  }
}