{
  "contractName": "UserStorage",
  "abi": [
    {
      "inputs": [],
      "stateMutability": "nonpayable",
      "type": "constructor"
    },
    {
      "anonymous": false,
      "inputs": [
        {
          "indexed": true,
          "internalType": "address",
          "name": "from",
          "type": "address"
        },
        {
          "indexed": true,
          "internalType": "address",
          "name": "to",
          "type": "address"
        }
      ],
      "name": "FactorySignerChanged",
      "type": "event"
    },
    {
      "anonymous": false,
      "inputs": [
        {
          "indexed": true,
          "internalType": "address",
          "name": "from",
          "type": "address"
        },
        {
          "indexed": true,
          "internalType": "address",
          "name": "to",
          "type": "address"
        }
      ],
      "name": "FollowSignerChanged",
      "type": "event"
    },
    {
      "anonymous": false,
      "inputs": [
        {
          "indexed": true,
          "internalType": "address",
          "name": "from",
          "type": "address"
        },
        {
          "indexed": true,
          "internalType": "address",
          "name": "to",
          "type": "address"
        }
      ],
      "name": "InterfaceSignerChanged",
      "type": "event"
    },
    {
      "anonymous": false,
      "inputs": [
        {
          "indexed": true,
          "internalType": "address",
          "name": "from",
          "type": "address"
        },
        {
          "indexed": true,
          "internalType": "address",
          "name": "to",
          "type": "address"
        }
      ],
      "name": "LikeSignerChanged",
      "type": "event"
    },
    {
      "anonymous": false,
      "inputs": [
        {
          "indexed": true,
          "internalType": "address",
          "name": "from",
          "type": "address"
        },
        {
          "indexed": true,
          "internalType": "address",
          "name": "to",
          "type": "address"
        }
      ],
      "name": "PostSignerChanged",
      "type": "event"
    },
    {
      "inputs": [],
      "name": "factorySigner",
      "outputs": [
        {
          "internalType": "address",
          "name": "",
          "type": "address"
        }
      ],
      "stateMutability": "view",
      "type": "function",
      "constant": true
    },
    {
      "inputs": [],
      "name": "followSigner",
      "outputs": [
        {
          "internalType": "address",
          "name": "",
          "type": "address"
        }
      ],
      "stateMutability": "view",
      "type": "function",
      "constant": true
    },
    {
      "inputs": [],
      "name": "interfaceSigner",
      "outputs": [
        {
          "internalType": "address",
          "name": "",
          "type": "address"
        }
      ],
      "stateMutability": "view",
      "type": "function",
      "constant": true
    },
    {
      "inputs": [],
      "name": "likeSigner",
      "outputs": [
        {
          "internalType": "address",
          "name": "",
          "type": "address"
        }
      ],
      "stateMutability": "view",
      "type": "function",
      "constant": true
    },
    {
      "inputs": [],
      "name": "memeFactorySigner",
      "outputs": [
        {
          "internalType": "address",
          "name": "",
          "type": "address"
        }
      ],
      "stateMutability": "view",
      "type": "function",
      "constant": true
    },
    {
      "inputs": [],
      "name": "userCount",
      "outputs": [
        {
          "internalType": "uint256",
          "name": "",
          "type": "uint256"
        }
      ],
      "stateMutability": "view",
      "type": "function",
      "constant": true
    },
    {
      "inputs": [
        {
          "internalType": "address",
          "name": "",
          "type": "address"
        }
      ],
      "name": "users",
      "outputs": [
        {
          "internalType": "bytes32",
          "name": "id",
          "type": "bytes32"
        },
        {
          "internalType": "bytes32",
          "name": "name",
          "type": "bytes32"
        },
        {
          "internalType": "bytes32",
          "name": "userAddr",
          "type": "bytes32"
        },
        {
          "internalType": "uint256",
          "name": "time",
          "type": "uint256"
        },
        {
          "internalType": "address",
          "name": "addr",
          "type": "address"
        }
      ],
      "stateMutability": "view",
      "type": "function",
      "constant": true
    },
    {
      "inputs": [
        {
          "internalType": "bytes32",
          "name": "",
          "type": "bytes32"
        }
      ],
      "name": "usersByMeme",
      "outputs": [
        {
          "internalType": "address",
          "name": "",
          "type": "address"
        }
      ],
      "stateMutability": "view",
      "type": "function",
      "constant": true
    },
    {
      "inputs": [
        {
          "internalType": "bytes32",
          "name": "",
          "type": "bytes32"
        }
      ],
      "name": "usersByUserAddr",
      "outputs": [
        {
          "internalType": "address",
          "name": "",
          "type": "address"
        }
      ],
      "stateMutability": "view",
      "type": "function",
      "constant": true
    },
    {
      "inputs": [
        {
          "internalType": "address",
          "name": "_account",
          "type": "address"
        },
        {
          "components": [
            {
              "internalType": "bytes32",
              "name": "id",
              "type": "bytes32"
            },
            {
              "internalType": "bytes32",
              "name": "name",
              "type": "bytes32"
            },
            {
              "internalType": "bytes32",
              "name": "userAddr",
              "type": "bytes32"
            },
            {
              "internalType": "uint256",
              "name": "time",
              "type": "uint256"
            },
            {
              "internalType": "address",
              "name": "addr",
              "type": "address"
            },
            {
              "internalType": "address[]",
              "name": "followers",
              "type": "address[]"
            },
            {
              "internalType": "address[]",
              "name": "following",
              "type": "address[]"
            },
            {
              "internalType": "address[]",
              "name": "unfollowers",
              "type": "address[]"
            },
            {
              "internalType": "address[]",
              "name": "unfollowing",
              "type": "address[]"
            },
            {
              "internalType": "bytes32[]",
              "name": "posts",
              "type": "bytes32[]"
            }
          ],
          "internalType": "struct UserStorage.User",
          "name": "_user",
          "type": "tuple"
        }
      ],
      "name": "setUser",
      "outputs": [],
      "stateMutability": "nonpayable",
      "type": "function"
    },
    {
      "inputs": [
        {
          "internalType": "bytes32",
          "name": "_userAddr",
          "type": "bytes32"
        },
        {
          "internalType": "address",
          "name": "_account",
          "type": "address"
        }
      ],
      "name": "setUsersByUserAddress",
      "outputs": [],
      "stateMutability": "nonpayable",
      "type": "function"
    },
    {
      "inputs": [
        {
          "internalType": "bytes32",
          "name": "_memeId",
          "type": "bytes32"
        },
        {
          "internalType": "address",
          "name": "_account",
          "type": "address"
        }
      ],
      "name": "setUsersByMeme",
      "outputs": [],
      "stateMutability": "nonpayable",
      "type": "function"
    },
    {
      "inputs": [
        {
          "internalType": "address",
          "name": "_account",
          "type": "address"
        }
      ],
      "name": "deleteUser",
      "outputs": [],
      "stateMutability": "nonpayable",
      "type": "function"
    },
    {
      "inputs": [],
      "name": "increaseUserCount",
      "outputs": [],
      "stateMutability": "nonpayable",
      "type": "function"
    },
    {
      "inputs": [
        {
          "internalType": "address",
          "name": "_account",
          "type": "address"
        },
        {
          "internalType": "bytes32",
          "name": "_userName",
          "type": "bytes32"
        }
      ],
      "name": "setUserName",
      "outputs": [],
      "stateMutability": "nonpayable",
      "type": "function"
    },
    {
      "inputs": [
        {
          "internalType": "address",
          "name": "_account",
          "type": "address"
        },
        {
          "internalType": "bytes32",
          "name": "_userAddress",
          "type": "bytes32"
        }
      ],
      "name": "setUserAddress",
      "outputs": [],
      "stateMutability": "nonpayable",
      "type": "function"
    },
    {
      "inputs": [
        {
          "internalType": "address",
          "name": "_account",
          "type": "address"
        },
        {
          "internalType": "bytes32[]",
          "name": "_posts",
          "type": "bytes32[]"
        }
      ],
      "name": "setPosts",
      "outputs": [],
      "stateMutability": "nonpayable",
      "type": "function"
    },
    {
      "inputs": [
        {
          "internalType": "address",
          "name": "_account",
          "type": "address"
        },
        {
          "internalType": "address[]",
          "name": "_followers",
          "type": "address[]"
        }
      ],
      "name": "setFollowers",
      "outputs": [],
      "stateMutability": "nonpayable",
      "type": "function"
    },
    {
      "inputs": [
        {
          "internalType": "address",
          "name": "_account",
          "type": "address"
        },
        {
          "internalType": "address[]",
          "name": "_following",
          "type": "address[]"
        }
      ],
      "name": "setFollowing",
      "outputs": [],
      "stateMutability": "nonpayable",
      "type": "function"
    },
    {
      "inputs": [
        {
          "internalType": "address",
          "name": "_account",
          "type": "address"
        },
        {
          "internalType": "address[]",
          "name": "_unfollowers",
          "type": "address[]"
        }
      ],
      "name": "setUnfollowers",
      "outputs": [],
      "stateMutability": "nonpayable",
      "type": "function"
    },
    {
      "inputs": [
        {
          "internalType": "address",
          "name": "_account",
          "type": "address"
        },
        {
          "internalType": "address[]",
          "name": "_unfollowing",
          "type": "address[]"
        }
      ],
      "name": "setUnfollowing",
      "outputs": [],
      "stateMutability": "nonpayable",
      "type": "function"
    },
    {
      "inputs": [
        {
          "internalType": "address",
          "name": "_account",
          "type": "address"
        }
      ],
      "name": "userExists",
      "outputs": [
        {
          "internalType": "bool",
          "name": "",
          "type": "bool"
        }
      ],
      "stateMutability": "view",
      "type": "function",
      "constant": true
    },
    {
      "inputs": [
        {
          "internalType": "bytes32",
          "name": "_userAddress",
          "type": "bytes32"
        }
      ],
      "name": "userAddressExists",
      "outputs": [
        {
          "internalType": "bool",
          "name": "",
          "type": "bool"
        }
      ],
      "stateMutability": "view",
      "type": "function",
      "constant": true
    },
    {
      "inputs": [
        {
          "internalType": "address",
          "name": "_account",
          "type": "address"
        }
      ],
      "name": "getUser",
      "outputs": [
        {
          "components": [
            {
              "internalType": "bytes32",
              "name": "id",
              "type": "bytes32"
            },
            {
              "internalType": "bytes32",
              "name": "name",
              "type": "bytes32"
            },
            {
              "internalType": "bytes32",
              "name": "userAddr",
              "type": "bytes32"
            },
            {
              "internalType": "uint256",
              "name": "time",
              "type": "uint256"
            },
            {
              "internalType": "address",
              "name": "addr",
              "type": "address"
            },
            {
              "internalType": "address[]",
              "name": "followers",
              "type": "address[]"
            },
            {
              "internalType": "address[]",
              "name": "following",
              "type": "address[]"
            },
            {
              "internalType": "address[]",
              "name": "unfollowers",
              "type": "address[]"
            },
            {
              "internalType": "address[]",
              "name": "unfollowing",
              "type": "address[]"
            },
            {
              "internalType": "bytes32[]",
              "name": "posts",
              "type": "bytes32[]"
            }
          ],
          "internalType": "struct UserStorage.User",
          "name": "",
          "type": "tuple"
        }
      ],
      "stateMutability": "view",
      "type": "function",
      "constant": true
    },
    {
      "inputs": [
        {
          "internalType": "address",
          "name": "_account",
          "type": "address"
        }
      ],
      "name": "getId",
      "outputs": [
        {
          "internalType": "bytes32",
          "name": "",
          "type": "bytes32"
        }
      ],
      "stateMutability": "view",
      "type": "function",
      "constant": true
    },
    {
      "inputs": [
        {
          "internalType": "address",
          "name": "_account",
          "type": "address"
        }
      ],
      "name": "getName",
      "outputs": [
        {
          "internalType": "bytes32",
          "name": "",
          "type": "bytes32"
        }
      ],
      "stateMutability": "view",
      "type": "function",
      "constant": true
    },
    {
      "inputs": [
        {
          "internalType": "address",
          "name": "_account",
          "type": "address"
        }
      ],
      "name": "getUserAddr",
      "outputs": [
        {
          "internalType": "bytes32",
          "name": "",
          "type": "bytes32"
        }
      ],
      "stateMutability": "view",
      "type": "function",
      "constant": true
    },
    {
      "inputs": [
        {
          "internalType": "address",
          "name": "_account",
          "type": "address"
        }
      ],
      "name": "getAddr",
      "outputs": [
        {
          "internalType": "address",
          "name": "",
          "type": "address"
        }
      ],
      "stateMutability": "view",
      "type": "function",
      "constant": true
    },
    {
      "inputs": [
        {
          "internalType": "address",
          "name": "_account",
          "type": "address"
        }
      ],
      "name": "getFollowerCount",
      "outputs": [
        {
          "internalType": "uint256",
          "name": "",
          "type": "uint256"
        }
      ],
      "stateMutability": "view",
      "type": "function",
      "constant": true
    },
    {
      "inputs": [
        {
          "internalType": "address",
          "name": "_account",
          "type": "address"
        }
      ],
      "name": "getFollowers",
      "outputs": [
        {
          "internalType": "address[]",
          "name": "",
          "type": "address[]"
        }
      ],
      "stateMutability": "view",
      "type": "function",
      "constant": true
    },
    {
      "inputs": [
        {
          "internalType": "address",
          "name": "_account",
          "type": "address"
        },
        {
          "internalType": "uint256",
          "name": "_index",
          "type": "uint256"
        }
      ],
      "name": "getFollowerAt",
      "outputs": [
        {
          "internalType": "address",
          "name": "",
          "type": "address"
        }
      ],
      "stateMutability": "view",
      "type": "function",
      "constant": true
    },
    {
      "inputs": [
        {
          "internalType": "address",
          "name": "_account",
          "type": "address"
        }
      ],
      "name": "getFollowingCount",
      "outputs": [
        {
          "internalType": "uint256",
          "name": "",
          "type": "uint256"
        }
      ],
      "stateMutability": "view",
      "type": "function",
      "constant": true
    },
    {
      "inputs": [
        {
          "internalType": "address",
          "name": "_account",
          "type": "address"
        }
      ],
      "name": "getFollowing",
      "outputs": [
        {
          "internalType": "address[]",
          "name": "",
          "type": "address[]"
        }
      ],
      "stateMutability": "view",
      "type": "function",
      "constant": true
    },
    {
      "inputs": [
        {
          "internalType": "address",
          "name": "_account",
          "type": "address"
        },
        {
          "internalType": "uint256",
          "name": "_index",
          "type": "uint256"
        }
      ],
      "name": "getFollowingAt",
      "outputs": [
        {
          "internalType": "address",
          "name": "",
          "type": "address"
        }
      ],
      "stateMutability": "view",
      "type": "function",
      "constant": true
    },
    {
      "inputs": [
        {
          "internalType": "address",
          "name": "_account",
          "type": "address"
        }
      ],
      "name": "getUnfollowerCount",
      "outputs": [
        {
          "internalType": "uint256",
          "name": "",
          "type": "uint256"
        }
      ],
      "stateMutability": "view",
      "type": "function",
      "constant": true
    },
    {
      "inputs": [
        {
          "internalType": "address",
          "name": "_account",
          "type": "address"
        }
      ],
      "name": "getUnfollowers",
      "outputs": [
        {
          "internalType": "address[]",
          "name": "",
          "type": "address[]"
        }
      ],
      "stateMutability": "view",
      "type": "function",
      "constant": true
    },
    {
      "inputs": [
        {
          "internalType": "address",
          "name": "_account",
          "type": "address"
        }
      ],
      "name": "getUnfollowingCount",
      "outputs": [
        {
          "internalType": "uint256",
          "name": "",
          "type": "uint256"
        }
      ],
      "stateMutability": "view",
      "type": "function",
      "constant": true
    },
    {
      "inputs": [
        {
          "internalType": "address",
          "name": "_account",
          "type": "address"
        }
      ],
      "name": "getUnfollowing",
      "outputs": [
        {
          "internalType": "address[]",
          "name": "",
          "type": "address[]"
        }
      ],
      "stateMutability": "view",
      "type": "function",
      "constant": true
    },
    {
      "inputs": [
        {
          "internalType": "address",
          "name": "_account",
          "type": "address"
        }
      ],
      "name": "getPostCount",
      "outputs": [
        {
          "internalType": "uint256",
          "name": "",
          "type": "uint256"
        }
      ],
      "stateMutability": "view",
      "type": "function",
      "constant": true
    },
    {
      "inputs": [
        {
          "internalType": "address",
          "name": "_account",
          "type": "address"
        }
      ],
      "name": "getPosts",
      "outputs": [
        {
          "internalType": "bytes32[]",
          "name": "",
          "type": "bytes32[]"
        }
      ],
      "stateMutability": "view",
      "type": "function",
      "constant": true
    },
    {
      "inputs": [
        {
          "internalType": "address",
          "name": "_userFactory",
          "type": "address"
        }
      ],
      "name": "passFactorySigner",
      "outputs": [
        {
          "internalType": "bool",
          "name": "",
          "type": "bool"
        }
      ],
      "stateMutability": "nonpayable",
      "type": "function"
    },
    {
      "inputs": [
        {
          "internalType": "address",
          "name": "_userInterface",
          "type": "address"
        }
      ],
      "name": "passInterfaceSigner",
      "outputs": [
        {
          "internalType": "bool",
          "name": "",
          "type": "bool"
        }
      ],
      "stateMutability": "nonpayable",
      "type": "function"
    },
    {
      "inputs": [
        {
          "internalType": "address",
          "name": "_memeFactory",
          "type": "address"
        }
      ],
      "name": "passMemeFactorySigner",
      "outputs": [
        {
          "internalType": "bool",
          "name": "",
          "type": "bool"
        }
      ],
      "stateMutability": "nonpayable",
      "type": "function"
    },
    {
      "inputs": [
        {
          "internalType": "address",
          "name": "_likeSigner",
          "type": "address"
        }
      ],
      "name": "passLikeSigner",
      "outputs": [
        {
          "internalType": "bool",
          "name": "",
          "type": "bool"
        }
      ],
      "stateMutability": "nonpayable",
      "type": "function"
    },
    {
      "inputs": [
        {
          "internalType": "address",
          "name": "_followSigner",
          "type": "address"
        }
      ],
      "name": "passFollowSigner",
      "outputs": [
        {
          "internalType": "bool",
          "name": "",
          "type": "bool"
        }
      ],
      "stateMutability": "nonpayable",
      "type": "function"
    }
  ],
  "bytecode": "0x6080604052600060055534801561001557600080fd5b50336000806101000a81548173ffffffffffffffffffffffffffffffffffffffff021916908373ffffffffffffffffffffffffffffffffffffffff16021790555033600160006101000a81548173ffffffffffffffffffffffffffffffffffffffff021916908373ffffffffffffffffffffffffffffffffffffffff16021790555033600260006101000a81548173ffffffffffffffffffffffffffffffffffffffff021916908373ffffffffffffffffffffffffffffffffffffffff16021790555033600360006101000a81548173ffffffffffffffffffffffffffffffffffffffff021916908373ffffffffffffffffffffffffffffffffffffffff16021790555033600460006101000a81548173ffffffffffffffffffffffffffffffffffffffff021916908373ffffffffffffffffffffffffffffffffffffffff160217905550613871806101696000396000f3fe608060405234801561001057600080fd5b506004361061027f5760003560e01c8063798c60bd1161015c578063b4108a94116100ce578063d5093b6311610087578063d5093b631461087e578063d8236dff146108ae578063e07dbb10146108de578063e587f0dc146108fa578063e8fc954e1461092a578063fab7d5361461095a5761027f565b8063b4108a9414610784578063b8e3bfb8146107b4578063bb58f85d146107d2578063c2fe2022146107ee578063c4e172da1461081e578063cb04c9701461084e5761027f565b8063a1c54a2111610120578063a1c54a211461069a578063a42b9ba4146106ca578063a477c0bf146106e6578063a4c7fafa14610702578063a87430ba14610732578063af5dffde146107665761027f565b8063798c60bd146105e2578063829a262c146105fe57806386b221461461061c5780639b6de6751461063a578063a07cf3711461066a5761027f565b80634b69ae78116101f55780635aa64413116101b95780635aa64413146104e85780635c60f226146105065780635fd4b08a1461052257806365f68c89146105525780636f77926b1461058257806377dd8a03146105b25761027f565b80634b69ae78146104465780634caf9d0b1461046257806351b6692114610492578063542fc7aa1461049c57806357c5451d146104b85761027f565b806311e0bda71161024757806311e0bda71461033a578063144ffed31461036a57806316c5eb131461038657806317dcaab6146103b6578063201caf8b146103e65780632ff0bc1d146104165761027f565b80630667e8051461028457806306e6a770146102a057806307973ccf146102d05780630a568111146102ee5780630e666e491461030a575b600080fd5b61029e60048036038101906102999190612d8f565b61098a565b005b6102ba60048036038101906102b59190612caa565b610a65565b6040516102c791906132ca565b60405180910390f35b6102d8610bbd565b6040516102e591906133f5565b60405180910390f35b61030860048036038101906103039190612cd7565b610bc3565b005b610324600480360381019061031f9190612caa565b610c1e565b60405161033191906132ca565b60405180910390f35b610354600480360381019061034f9190612e6b565b610cc8565b604051610361919061326b565b60405180910390f35b610384600480360381019061037f9190612cd7565b610cfb565b005b6103a0600480360381019061039b9190612e6b565b610d56565b6040516103ad91906132ca565b60405180910390f35b6103d060048036038101906103cb9190612caa565b610dd1565b6040516103dd91906132ca565b60405180910390f35b61040060048036038101906103fb9190612caa565b610f25565b60405161040d91906132ca565b60405180910390f35b610430600480360381019061042b9190612caa565b61107d565b60405161043d91906132ca565b60405180910390f35b610460600480360381019061045b9190612cd7565b6111d5565b005b61047c60048036038101906104779190612caa565b611230565b60405161048991906132a8565b60405180910390f35b61049a6112ca565b005b6104b660048036038101906104b19190612cd7565b611372565b005b6104d260048036038101906104cd9190612caa565b6113cd565b6040516104df91906133f5565b60405180910390f35b6104f061141c565b6040516104fd919061326b565b60405180910390f35b610520600480360381019061051b9190612caa565b611440565b005b61053c60048036038101906105379190612caa565b6115aa565b60405161054991906132e5565b60405180910390f35b61056c60048036038101906105679190612caa565b6115f6565b60405161057991906132e5565b60405180910390f35b61059c60048036038101906105979190612caa565b611642565b6040516105a991906133d3565b60405180910390f35b6105cc60048036038101906105c79190612e6b565b6119aa565b6040516105d9919061326b565b60405180910390f35b6105fc60048036038101906105f79190612e98565b6119dd565b005b610606611ac1565b604051610613919061326b565b60405180910390f35b610624611ae7565b604051610631919061326b565b60405180910390f35b610654600480360381019061064f9190612caa565b611b0d565b60405161066191906133f5565b60405180910390f35b610684600480360381019061067f9190612e2b565b611b5c565b604051610691919061326b565b60405180910390f35b6106b460048036038101906106af9190612caa565b611be5565b6040516106c19190613286565b60405180910390f35b6106e460048036038101906106df9190612dcf565b611cb5565b005b61070060048036038101906106fb9190612d8f565b611ee2565b005b61071c60048036038101906107179190612caa565b61200f565b60405161072991906133f5565b60405180910390f35b61074c60048036038101906107479190612caa565b61205e565b60405161075d959493929190613300565b60405180910390f35b61076e6120b4565b60405161077b919061326b565b60405180910390f35b61079e60048036038101906107999190612caa565b6120da565b6040516107ab919061326b565b60405180910390f35b6107bc612146565b6040516107c9919061326b565b60405180910390f35b6107ec60048036038101906107e79190612d33565b61216c565b005b61080860048036038101906108039190612caa565b6121c7565b6040516108159190613286565b60405180910390f35b61083860048036038101906108339190612caa565b612297565b60405161084591906132ca565b60405180910390f35b61086860048036038101906108639190612caa565b6123ef565b60405161087591906133f5565b60405180910390f35b61089860048036038101906108939190612e2b565b61243e565b6040516108a5919061326b565b60405180910390f35b6108c860048036038101906108c39190612caa565b6124c7565b6040516108d59190613286565b60405180910390f35b6108f860048036038101906108f39190612e98565b612597565b005b610914600480360381019061090f9190612caa565b61267d565b6040516109219190613286565b60405180910390f35b610944600480360381019061093f9190612caa565b61274d565b60405161095191906132e5565b60405180910390f35b610974600480360381019061096f9190612caa565b612799565b60405161098191906133f5565b60405180910390f35b600460009054906101000a900473ffffffffffffffffffffffffffffffffffffffff1673ffffffffffffffffffffffffffffffffffffffff163373ffffffffffffffffffffffffffffffffffffffff1614610a1a576040517f08c379a0000000000000000000000000000000000000000000000000000000008152600401610a11906133b3565b60405180910390fd5b80600660008473ffffffffffffffffffffffffffffffffffffffff1673ffffffffffffffffffffffffffffffffffffffff168152602001908152602001600020600101819055505050565b6000600260009054906101000a900473ffffffffffffffffffffffffffffffffffffffff1673ffffffffffffffffffffffffffffffffffffffff163373ffffffffffffffffffffffffffffffffffffffff1614610af7576040517f08c379a0000000000000000000000000000000000000000000000000000000008152600401610aee90613393565b60405180910390fd5b81600260006101000a81548173ffffffffffffffffffffffffffffffffffffffff021916908373ffffffffffffffffffffffffffffffffffffffff160217905550600260009054906101000a900473ffffffffffffffffffffffffffffffffffffffff1673ffffffffffffffffffffffffffffffffffffffff163373ffffffffffffffffffffffffffffffffffffffff167f2364065f519eb2e0ac13040d65b1d1140f6677de0518b6dee6954e49f7f7a5b660405160405180910390a360019050919050565b60055481565b80600660008473ffffffffffffffffffffffffffffffffffffffff1673ffffffffffffffffffffffffffffffffffffffff1681526020019081526020016000206008019080519060200190610c199291906127e8565b505050565b60008073ffffffffffffffffffffffffffffffffffffffff16600660008473ffffffffffffffffffffffffffffffffffffffff1673ffffffffffffffffffffffffffffffffffffffff16815260200190815260200160002060040160009054906101000a900473ffffffffffffffffffffffffffffffffffffffff1673ffffffffffffffffffffffffffffffffffffffff1614610cbe5760019050610cc3565b600090505b919050565b60086020528060005260406000206000915054906101000a900473ffffffffffffffffffffffffffffffffffffffff1681565b80600660008473ffffffffffffffffffffffffffffffffffffffff1673ffffffffffffffffffffffffffffffffffffffff1681526020019081526020016000206006019080519060200190610d519291906127e8565b505050565b60008073ffffffffffffffffffffffffffffffffffffffff166008600084815260200190815260200160002060009054906101000a900473ffffffffffffffffffffffffffffffffffffffff1673ffffffffffffffffffffffffffffffffffffffff1614610dc75760019050610dcc565b600090505b919050565b60008060009054906101000a900473ffffffffffffffffffffffffffffffffffffffff1673ffffffffffffffffffffffffffffffffffffffff163373ffffffffffffffffffffffffffffffffffffffff1614610e62576040517f08c379a0000000000000000000000000000000000000000000000000000000008152600401610e5990613373565b60405180910390fd5b816000806101000a81548173ffffffffffffffffffffffffffffffffffffffff021916908373ffffffffffffffffffffffffffffffffffffffff16021790555060008054906101000a900473ffffffffffffffffffffffffffffffffffffffff1673ffffffffffffffffffffffffffffffffffffffff163373ffffffffffffffffffffffffffffffffffffffff167f5f8b18be53cdf9843c4263461966fc46896a2d372d3fa87fc22f6cfed024186260405160405180910390a360019050919050565b6000600160009054906101000a900473ffffffffffffffffffffffffffffffffffffffff1673ffffffffffffffffffffffffffffffffffffffff163373ffffffffffffffffffffffffffffffffffffffff1614610fb7576040517f08c379a0000000000000000000000000000000000000000000000000000000008152600401610fae90613353565b60405180910390fd5b81600160006101000a81548173ffffffffffffffffffffffffffffffffffffffff021916908373ffffffffffffffffffffffffffffffffffffffff160217905550600160009054906101000a900473ffffffffffffffffffffffffffffffffffffffff1673ffffffffffffffffffffffffffffffffffffffff163373ffffffffffffffffffffffffffffffffffffffff167f76ce921e20c471c95deae34d20d53706ec4378ecab394e517f73aef912ae6cdd60405160405180910390a360019050919050565b6000600360009054906101000a900473ffffffffffffffffffffffffffffffffffffffff1673ffffffffffffffffffffffffffffffffffffffff163373ffffffffffffffffffffffffffffffffffffffff161461110f576040517f08c379a000000000000000000000000000000000000000000000000000000000815260040161110690613373565b60405180910390fd5b81600360006101000a81548173ffffffffffffffffffffffffffffffffffffffff021916908373ffffffffffffffffffffffffffffffffffffffff160217905550600360009054906101000a900473ffffffffffffffffffffffffffffffffffffffff1673ffffffffffffffffffffffffffffffffffffffff163373ffffffffffffffffffffffffffffffffffffffff167f317b209d0dca6ddb6667f7c47d488a9708cc0e7befa4cde41a104b125a1d9ef660405160405180910390a360019050919050565b80600660008473ffffffffffffffffffffffffffffffffffffffff1673ffffffffffffffffffffffffffffffffffffffff168152602001908152602001600020600501908051906020019061122b9291906127e8565b505050565b6060600660008373ffffffffffffffffffffffffffffffffffffffff1673ffffffffffffffffffffffffffffffffffffffff1681526020019081526020016000206009018054806020026020016040519081016040528092919081815260200182805480156112be57602002820191906000526020600020905b8154815260200190600101908083116112aa575b50505050509050919050565b60008054906101000a900473ffffffffffffffffffffffffffffffffffffffff1673ffffffffffffffffffffffffffffffffffffffff163373ffffffffffffffffffffffffffffffffffffffff1614611358576040517f08c379a000000000000000000000000000000000000000000000000000000000815260040161134f906133b3565b60405180910390fd5b6005600081548092919061136b906135b5565b9190505550565b80600660008473ffffffffffffffffffffffffffffffffffffffff1673ffffffffffffffffffffffffffffffffffffffff16815260200190815260200160002060070190805190602001906113c89291906127e8565b505050565b6000600660008373ffffffffffffffffffffffffffffffffffffffff1673ffffffffffffffffffffffffffffffffffffffff168152602001908152602001600020600701805490509050919050565b60008054906101000a900473ffffffffffffffffffffffffffffffffffffffff1681565b60008054906101000a900473ffffffffffffffffffffffffffffffffffffffff1673ffffffffffffffffffffffffffffffffffffffff163373ffffffffffffffffffffffffffffffffffffffff16146114ce576040517f08c379a00000000000000000000000000000000000000000000000000000000081526004016114c5906133b3565b60405180910390fd5b600660008273ffffffffffffffffffffffffffffffffffffffff1673ffffffffffffffffffffffffffffffffffffffff1681526020019081526020016000206000808201600090556001820160009055600282016000905560038201600090556004820160006101000a81549073ffffffffffffffffffffffffffffffffffffffff02191690556005820160006115659190612872565b6006820160006115759190612872565b6007820160006115859190612872565b6008820160006115959190612872565b6009820160006115a59190612893565b505050565b6000600660008373ffffffffffffffffffffffffffffffffffffffff1673ffffffffffffffffffffffffffffffffffffffff168152602001908152602001600020600101549050919050565b6000600660008373ffffffffffffffffffffffffffffffffffffffff1673ffffffffffffffffffffffffffffffffffffffff168152602001908152602001600020600001549050919050565b61164a6128b4565b600660008373ffffffffffffffffffffffffffffffffffffffff1673ffffffffffffffffffffffffffffffffffffffff16815260200190815260200160002060405180610140016040529081600082015481526020016001820154815260200160028201548152602001600382015481526020016004820160009054906101000a900473ffffffffffffffffffffffffffffffffffffffff1673ffffffffffffffffffffffffffffffffffffffff1673ffffffffffffffffffffffffffffffffffffffff1681526020016005820180548060200260200160405190810160405280929190818152602001828054801561179857602002820191906000526020600020905b8160009054906101000a900473ffffffffffffffffffffffffffffffffffffffff1673ffffffffffffffffffffffffffffffffffffffff168152602001906001019080831161174e575b505050505081526020016006820180548060200260200160405190810160405280929190818152602001828054801561182657602002820191906000526020600020905b8160009054906101000a900473ffffffffffffffffffffffffffffffffffffffff1673ffffffffffffffffffffffffffffffffffffffff16815260200190600101908083116117dc575b50505050508152602001600782018054806020026020016040519081016040528092919081815260200182805480156118b457602002820191906000526020600020905b8160009054906101000a900473ffffffffffffffffffffffffffffffffffffffff1673ffffffffffffffffffffffffffffffffffffffff168152602001906001019080831161186a575b505050505081526020016008820180548060200260200160405190810160405280929190818152602001828054801561194257602002820191906000526020600020905b8160009054906101000a900473ffffffffffffffffffffffffffffffffffffffff1673ffffffffffffffffffffffffffffffffffffffff16815260200190600101908083116118f8575b505050505081526020016009820180548060200260200160405190810160405280929190818152602001828054801561199a57602002820191906000526020600020905b815481526020019060010190808311611986575b5050505050815250509050919050565b60076020528060005260406000206000915054906101000a900473ffffffffffffffffffffffffffffffffffffffff1681565b60008054906101000a900473ffffffffffffffffffffffffffffffffffffffff1673ffffffffffffffffffffffffffffffffffffffff163373ffffffffffffffffffffffffffffffffffffffff1614611a6b576040517f08c379a0000000000000000000000000000000000000000000000000000000008152600401611a62906133b3565b60405180910390fd5b806008600084815260200190815260200160002060006101000a81548173ffffffffffffffffffffffffffffffffffffffff021916908373ffffffffffffffffffffffffffffffffffffffff1602179055505050565b600260009054906101000a900473ffffffffffffffffffffffffffffffffffffffff1681565b600160009054906101000a900473ffffffffffffffffffffffffffffffffffffffff1681565b6000600660008373ffffffffffffffffffffffffffffffffffffffff1673ffffffffffffffffffffffffffffffffffffffff168152602001908152602001600020600801805490509050919050565b6000600660008473ffffffffffffffffffffffffffffffffffffffff1673ffffffffffffffffffffffffffffffffffffffff1681526020019081526020016000206006018281548110611bb257611bb161362d565b5b9060005260206000200160009054906101000a900473ffffffffffffffffffffffffffffffffffffffff16905092915050565b6060600660008373ffffffffffffffffffffffffffffffffffffffff1673ffffffffffffffffffffffffffffffffffffffff168152602001908152602001600020600701805480602002602001604051908101604052809291908181526020018280548015611ca957602002820191906000526020600020905b8160009054906101000a900473ffffffffffffffffffffffffffffffffffffffff1673ffffffffffffffffffffffffffffffffffffffff1681526020019060010190808311611c5f575b50505050509050919050565b60008054906101000a900473ffffffffffffffffffffffffffffffffffffffff1673ffffffffffffffffffffffffffffffffffffffff163373ffffffffffffffffffffffffffffffffffffffff1614611d43576040517f08c379a0000000000000000000000000000000000000000000000000000000008152600401611d3a906133b3565b60405180910390fd5b80600660008473ffffffffffffffffffffffffffffffffffffffff1673ffffffffffffffffffffffffffffffffffffffff1681526020019081526020016000206000820151816000015560208201518160010155604082015181600201556060820151816003015560808201518160040160006101000a81548173ffffffffffffffffffffffffffffffffffffffff021916908373ffffffffffffffffffffffffffffffffffffffff16021790555060a0820151816005019080519060200190611e0e9291906127e8565b5060c0820151816006019080519060200190611e2b9291906127e8565b5060e0820151816007019080519060200190611e489291906127e8565b50610100820151816008019080519060200190611e669291906127e8565b50610120820151816009019080519060200190611e84929190612926565b5090505081600860008360400151815260200190815260200160002060006101000a81548173ffffffffffffffffffffffffffffffffffffffff021916908373ffffffffffffffffffffffffffffffffffffffff1602179055505050565b600460009054906101000a900473ffffffffffffffffffffffffffffffffffffffff1673ffffffffffffffffffffffffffffffffffffffff163373ffffffffffffffffffffffffffffffffffffffff1614611f72576040517f08c379a0000000000000000000000000000000000000000000000000000000008152600401611f69906133b3565b60405180910390fd5b80600660008473ffffffffffffffffffffffffffffffffffffffff1673ffffffffffffffffffffffffffffffffffffffff16815260200190815260200160002060020181905550816008600083815260200190815260200160002060006101000a81548173ffffffffffffffffffffffffffffffffffffffff021916908373ffffffffffffffffffffffffffffffffffffffff1602179055505050565b6000600660008373ffffffffffffffffffffffffffffffffffffffff1673ffffffffffffffffffffffffffffffffffffffff168152602001908152602001600020600901805490509050919050565b60066020528060005260406000206000915090508060000154908060010154908060020154908060030154908060040160009054906101000a900473ffffffffffffffffffffffffffffffffffffffff16905085565b600460009054906101000a900473ffffffffffffffffffffffffffffffffffffffff1681565b6000600660008373ffffffffffffffffffffffffffffffffffffffff1673ffffffffffffffffffffffffffffffffffffffff16815260200190815260200160002060040160009054906101000a900473ffffffffffffffffffffffffffffffffffffffff169050919050565b600360009054906101000a900473ffffffffffffffffffffffffffffffffffffffff1681565b80600660008473ffffffffffffffffffffffffffffffffffffffff1673ffffffffffffffffffffffffffffffffffffffff16815260200190815260200160002060090190805190602001906121c2929190612926565b505050565b6060600660008373ffffffffffffffffffffffffffffffffffffffff1673ffffffffffffffffffffffffffffffffffffffff16815260200190815260200160002060050180548060200260200160405190810160405280929190818152602001828054801561228b57602002820191906000526020600020905b8160009054906101000a900473ffffffffffffffffffffffffffffffffffffffff1673ffffffffffffffffffffffffffffffffffffffff1681526020019060010190808311612241575b50505050509050919050565b6000600460009054906101000a900473ffffffffffffffffffffffffffffffffffffffff1673ffffffffffffffffffffffffffffffffffffffff163373ffffffffffffffffffffffffffffffffffffffff1614612329576040517f08c379a000000000000000000000000000000000000000000000000000000000815260040161232090613373565b60405180910390fd5b81600460006101000a81548173ffffffffffffffffffffffffffffffffffffffff021916908373ffffffffffffffffffffffffffffffffffffffff160217905550600460009054906101000a900473ffffffffffffffffffffffffffffffffffffffff1673ffffffffffffffffffffffffffffffffffffffff163373ffffffffffffffffffffffffffffffffffffffff167fdf570d582e474b2d7915b12f6f773eb74e4bc78a660caeeccf19491c8578507b60405160405180910390a360019050919050565b6000600660008373ffffffffffffffffffffffffffffffffffffffff1673ffffffffffffffffffffffffffffffffffffffff168152602001908152602001600020600501805490509050919050565b6000600660008473ffffffffffffffffffffffffffffffffffffffff1673ffffffffffffffffffffffffffffffffffffffff16815260200190815260200160002060050182815481106124945761249361362d565b5b9060005260206000200160009054906101000a900473ffffffffffffffffffffffffffffffffffffffff16905092915050565b6060600660008373ffffffffffffffffffffffffffffffffffffffff1673ffffffffffffffffffffffffffffffffffffffff16815260200190815260200160002060060180548060200260200160405190810160405280929190818152602001828054801561258b57602002820191906000526020600020905b8160009054906101000a900473ffffffffffffffffffffffffffffffffffffffff1673ffffffffffffffffffffffffffffffffffffffff1681526020019060010190808311612541575b50505050509050919050565b600160009054906101000a900473ffffffffffffffffffffffffffffffffffffffff1673ffffffffffffffffffffffffffffffffffffffff163373ffffffffffffffffffffffffffffffffffffffff1614612627576040517f08c379a000000000000000000000000000000000000000000000000000000000815260040161261e906133b3565b60405180910390fd5b806007600084815260200190815260200160002060006101000a81548173ffffffffffffffffffffffffffffffffffffffff021916908373ffffffffffffffffffffffffffffffffffffffff1602179055505050565b6060600660008373ffffffffffffffffffffffffffffffffffffffff1673ffffffffffffffffffffffffffffffffffffffff16815260200190815260200160002060080180548060200260200160405190810160405280929190818152602001828054801561274157602002820191906000526020600020905b8160009054906101000a900473ffffffffffffffffffffffffffffffffffffffff1673ffffffffffffffffffffffffffffffffffffffff16815260200190600101908083116126f7575b50505050509050919050565b6000600660008373ffffffffffffffffffffffffffffffffffffffff1673ffffffffffffffffffffffffffffffffffffffff168152602001908152602001600020600201549050919050565b6000600660008373ffffffffffffffffffffffffffffffffffffffff1673ffffffffffffffffffffffffffffffffffffffff168152602001908152602001600020600601805490509050919050565b828054828255906000526020600020908101928215612861579160200282015b828111156128605782518260006101000a81548173ffffffffffffffffffffffffffffffffffffffff021916908373ffffffffffffffffffffffffffffffffffffffff16021790555091602001919060010190612808565b5b50905061286e9190612973565b5090565b50805460008255906000526020600020908101906128909190612973565b50565b50805460008255906000526020600020908101906128b19190612990565b50565b60405180610140016040528060008019168152602001600080191681526020016000801916815260200160008152602001600073ffffffffffffffffffffffffffffffffffffffff16815260200160608152602001606081526020016060815260200160608152602001606081525090565b828054828255906000526020600020908101928215612962579160200282015b82811115612961578251825591602001919060010190612946565b5b50905061296f9190612990565b5090565b5b8082111561298c576000816000905550600101612974565b5090565b5b808211156129a9576000816000905550600101612991565b5090565b60006129c06129bb84613435565b613410565b905080838252602082019050828560208602820111156129e3576129e261369a565b5b60005b85811015612a1357816129f98882612a8d565b8452602084019350602083019250506001810190506129e6565b5050509392505050565b6000612a30612a2b84613461565b613410565b90508083825260208201905082856020860282011115612a5357612a5261369a565b5b60005b85811015612a835781612a698882612afe565b845260208401935060208301925050600181019050612a56565b5050509392505050565b600081359050612a9c816137f6565b92915050565b600082601f830112612ab757612ab661368b565b5b8135612ac78482602086016129ad565b91505092915050565b600082601f830112612ae557612ae461368b565b5b8135612af5848260208601612a1d565b91505092915050565b600081359050612b0d8161380d565b92915050565b60006101408284031215612b2a57612b29613690565b5b612b35610140613410565b90506000612b4584828501612afe565b6000830152506020612b5984828501612afe565b6020830152506040612b6d84828501612afe565b6040830152506060612b8184828501612c95565b6060830152506080612b9584828501612a8d565b60808301525060a082013567ffffffffffffffff811115612bb957612bb8613695565b5b612bc584828501612aa2565b60a08301525060c082013567ffffffffffffffff811115612be957612be8613695565b5b612bf584828501612aa2565b60c08301525060e082013567ffffffffffffffff811115612c1957612c18613695565b5b612c2584828501612aa2565b60e08301525061010082013567ffffffffffffffff811115612c4a57612c49613695565b5b612c5684828501612aa2565b6101008301525061012082013567ffffffffffffffff811115612c7c57612c7b613695565b5b612c8884828501612ad0565b6101208301525092915050565b600081359050612ca481613824565b92915050565b600060208284031215612cc057612cbf6136a4565b5b6000612cce84828501612a8d565b91505092915050565b60008060408385031215612cee57612ced6136a4565b5b6000612cfc85828601612a8d565b925050602083013567ffffffffffffffff811115612d1d57612d1c61369f565b5b612d2985828601612aa2565b9150509250929050565b60008060408385031215612d4a57612d496136a4565b5b6000612d5885828601612a8d565b925050602083013567ffffffffffffffff811115612d7957612d7861369f565b5b612d8585828601612ad0565b9150509250929050565b60008060408385031215612da657612da56136a4565b5b6000612db485828601612a8d565b9250506020612dc585828601612afe565b9150509250929050565b60008060408385031215612de657612de56136a4565b5b6000612df485828601612a8d565b925050602083013567ffffffffffffffff811115612e1557612e1461369f565b5b612e2185828601612b13565b9150509250929050565b60008060408385031215612e4257612e416136a4565b5b6000612e5085828601612a8d565b9250506020612e6185828601612c95565b9150509250929050565b600060208284031215612e8157612e806136a4565b5b6000612e8f84828501612afe565b91505092915050565b60008060408385031215612eaf57612eae6136a4565b5b6000612ebd85828601612afe565b9250506020612ece85828601612a8d565b9150509250929050565b6000612ee48383612f08565b60208301905092915050565b6000612efc83836130ad565b60208301905092915050565b612f1181613532565b82525050565b612f2081613532565b82525050565b6000612f31826134ad565b612f3b81856134dd565b9350612f468361348d565b8060005b83811015612f77578151612f5e8882612ed8565b9750612f69836134c3565b925050600181019050612f4a565b5085935050505092915050565b6000612f8f826134ad565b612f9981856134ee565b9350612fa48361348d565b8060005b83811015612fd5578151612fbc8882612ed8565b9750612fc7836134c3565b925050600181019050612fa8565b5085935050505092915050565b6000612fed826134b8565b612ff781856134ff565b93506130028361349d565b8060005b8381101561303357815161301a8882612ef0565b9750613025836134d0565b925050600181019050613006565b5085935050505092915050565b600061304b826134b8565b6130558185613510565b93506130608361349d565b8060005b838110156130915781516130788882612ef0565b9750613083836134d0565b925050600181019050613064565b5085935050505092915050565b6130a781613544565b82525050565b6130b681613550565b82525050565b6130c581613550565b82525050565b60006130d8602b83613521565b91506130e3826136ba565b604082019050919050565b60006130fb602783613521565b915061310682613709565b604082019050919050565b600061311e602483613521565b915061312982613758565b604082019050919050565b6000613141602283613521565b915061314c826137a7565b604082019050919050565b60006101408301600083015161317060008601826130ad565b50602083015161318360208601826130ad565b50604083015161319660408601826130ad565b5060608301516131a9606086018261324d565b5060808301516131bc6080860182612f08565b5060a083015184820360a08601526131d48282612f26565b91505060c083015184820360c08601526131ee8282612f26565b91505060e083015184820360e08601526132088282612f26565b9150506101008301518482036101008601526132248282612f26565b9150506101208301518482036101208601526132408282612fe2565b9150508091505092915050565b6132568161357a565b82525050565b6132658161357a565b82525050565b60006020820190506132806000830184612f17565b92915050565b600060208201905081810360008301526132a08184612f84565b905092915050565b600060208201905081810360008301526132c28184613040565b905092915050565b60006020820190506132df600083018461309e565b92915050565b60006020820190506132fa60008301846130bc565b92915050565b600060a08201905061331560008301886130bc565b61332260208301876130bc565b61332f60408301866130bc565b61333c606083018561325c565b6133496080830184612f17565b9695505050505050565b6000602082019050818103600083015261336c816130cb565b9050919050565b6000602082019050818103600083015261338c816130ee565b9050919050565b600060208201905081810360008301526133ac81613111565b9050919050565b600060208201905081810360008301526133cc81613134565b9050919050565b600060208201905081810360008301526133ed8184613157565b905092915050565b600060208201905061340a600083018461325c565b92915050565b600061341a61342b565b90506134268282613584565b919050565b6000604051905090565b600067ffffffffffffffff8211156134505761344f61365c565b5b602082029050602081019050919050565b600067ffffffffffffffff82111561347c5761347b61365c565b5b602082029050602081019050919050565b6000819050602082019050919050565b6000819050602082019050919050565b600081519050919050565b600081519050919050565b6000602082019050919050565b6000602082019050919050565b600082825260208201905092915050565b600082825260208201905092915050565b600082825260208201905092915050565b600082825260208201905092915050565b600082825260208201905092915050565b600061353d8261355a565b9050919050565b60008115159050919050565b6000819050919050565b600073ffffffffffffffffffffffffffffffffffffffff82169050919050565b6000819050919050565b61358d826136a9565b810181811067ffffffffffffffff821117156135ac576135ab61365c565b5b80604052505050565b60006135c08261357a565b91507fffffffffffffffffffffffffffffffffffffffffffffffffffffffffffffffff8214156135f3576135f26135fe565b5b600182019050919050565b7f4e487b7100000000000000000000000000000000000000000000000000000000600052601160045260246000fd5b7f4e487b7100000000000000000000000000000000000000000000000000000000600052603260045260246000fd5b7f4e487b7100000000000000000000000000000000000000000000000000000000600052604160045260246000fd5b600080fd5b600080fd5b600080fd5b600080fd5b600080fd5b600080fd5b6000601f19601f8301169050919050565b7f4572726f723a206d73672e73656e646572206d757374206265206d656d65466160008201527f63746f72795369676e6572000000000000000000000000000000000000000000602082015250565b7f4572726f723a206d73672e73656e646572206d75737420626520666163746f7260008201527f795369676e657200000000000000000000000000000000000000000000000000602082015250565b7f4572726f723a206d73672e73656e646572206d757374206265206c696b65536960008201527f676e657200000000000000000000000000000000000000000000000000000000602082015250565b7f4572726f723a207573657220666163746f7279206d757374206265207369676e60008201527f6572000000000000000000000000000000000000000000000000000000000000602082015250565b6137ff81613532565b811461380a57600080fd5b50565b61381681613550565b811461382157600080fd5b50565b61382d8161357a565b811461383857600080fd5b5056fea2646970667358221220877a14c0c75f3a964176ab9d8b29d7f0c0781c527fecd2d5e12b3734f43ca0e864736f6c63430008070033",
  "immutableReferences": {},
  "source": "// SPDX-License-Identifier: MIT\n\npragma solidity >=0.8.0 <0.9.0;\n\ncontract UserStorage {\n  address public factorySigner;\n  address public memeFactorySigner;\n  address public likeSigner;\n  address public followSigner;\n  address public interfaceSigner;\n\n  uint public userCount = 0;\n\n  mapping(address => User) public users; // address to Users map\n  mapping(bytes32 => address) public usersByMeme; // memeId to account addresses\n  mapping(bytes32 => address) public usersByUserAddr; // userAddr to account address\n\n  struct User {\n    bytes32 id; // user number in order\n    bytes32 name; // user name\n    bytes32 userAddr; // user address (@)\n    uint time; // user creation time\n    address addr; // address of user\n    address[] followers; // addresses of followers\n    address[] following; // addressses of following\n    address[] unfollowers; // addresses of followers\n    address[] unfollowing; // addressses of following\n    bytes32[] posts; // memeIds of posts\n  }\n\n  event FactorySignerChanged(address indexed from, address indexed to);\n  event InterfaceSignerChanged(address indexed from, address indexed to);\n  event PostSignerChanged(address indexed from, address indexed to);\n  event LikeSignerChanged(address indexed from, address indexed to);\n  event FollowSignerChanged(address indexed from, address indexed to);\n\n  constructor() public {\n    factorySigner = msg.sender;\n    memeFactorySigner = msg.sender;\n    likeSigner = msg.sender;\n    followSigner = msg.sender;\n    interfaceSigner = msg.sender;\n  }\n\n\n  // Factory-Specific setters\n  function setUser(\n    address _account,\n    User memory _user\n  ) public {\n    require(\n      msg.sender==factorySigner,\n      'Error: user factory must be signer');\n    users[_account] = _user;\n    usersByUserAddr[_user.userAddr] = _account;\n  }\n  function setUsersByUserAddress(\n    bytes32 _userAddr,\n    address _account\n  ) public {\n    require(\n      msg.sender==factorySigner,\n      'Error: user factory must be signer');\n    usersByUserAddr[_userAddr] = _account;\n  }\n  function setUsersByMeme(\n    bytes32 _memeId,\n    address _account\n  ) public {\n    require(\n      msg.sender==memeFactorySigner,\n      'Error: user factory must be signer');\n    usersByMeme[_memeId] = _account;\n  }\n  function deleteUser(address _account) public {\n    require(\n      msg.sender==factorySigner,\n      'Error: user factory must be signer');\n    delete users[_account];\n  }\n  function increaseUserCount() public {\n    require(\n      msg.sender==factorySigner,\n      'Error: user factory must be signer');\n    userCount++;\n  }\n  // Setters for interface only\n  function setUserName(\n    address _account,\n    bytes32 _userName\n  ) public {\n    require(\n      msg.sender==interfaceSigner,\n      'Error: user factory must be signer');\n    users[_account].name= _userName;\n  }\n  function setUserAddress(\n    address _account,\n    bytes32 _userAddress\n  ) public {\n    require(\n      msg.sender==interfaceSigner,\n      'Error: user factory must be signer');\n    users[_account].userAddr = _userAddress;\n    usersByUserAddr[_userAddress] = _account;\n  }\n\n  // Setters for all signers\n  // set post meme\n  function setPosts(\n    address _account,\n    bytes32[] memory _posts\n  ) public {\n    users[_account].posts = _posts;\n  }\n\n  // set follow\n  function setFollowers(\n    address _account,\n    address[] memory _followers\n  ) public {\n    users[_account].followers = _followers;\n  }\n  function setFollowing(\n    address _account,\n    address[] memory _following\n  ) public {\n    users[_account].following = _following;\n  }\n  function setUnfollowers(\n    address _account,\n    address[] memory _unfollowers\n  ) public {\n    users[_account].unfollowers = _unfollowers;\n  }\n  function setUnfollowing(\n    address _account,\n    address[] memory _unfollowing\n  ) public {\n    users[_account].unfollowing = _unfollowing;\n  }\n\n  // getter functions for UserStorage\n  function userExists(address _account) public view returns(bool) {\n    if(users[_account].addr!=address(0x0)) {\n      return true;\n    }\n    else {\n      return false;\n    }\n  }\n  function userAddressExists(bytes32 _userAddress) public view returns(bool) {\n    if(usersByUserAddr[_userAddress]!=address(0x0)) {\n      return true;\n    }\n    else {\n      return false;\n    }\n  }\n  function getUser(address _account) public view returns(User memory){\n    return users[_account];\n  }\n  function getId(address _account) public view returns(bytes32) {\n    return users[_account].id;\n  }\n  function getName(address _account) public view returns(bytes32) {\n    return users[_account].name;\n  }\n  function getUserAddr(address _account) public view returns(bytes32) {\n    return users[_account].userAddr;\n  }\n  function getAddr(address _account) public view returns(address) {\n    return users[_account].addr;\n  }\n  function getFollowerCount(address _account) public view returns(uint) {\n    return users[_account].followers.length;\n  }\n  function getFollowers(address _account) public view returns(address[] memory) {\n    return users[_account].followers;\n  }\n  function getFollowerAt(address _account, uint _index) public view returns(address) {\n    return users[_account].followers[_index];\n  }\n  function getFollowingCount(address _account) public view returns(uint) {\n    return users[_account].following.length;\n  }\n  function getFollowing(address _account) public view returns(address[] memory) {\n    return users[_account].following;\n  }\n  function getFollowingAt(address _account, uint _index) public view returns(address) {\n    return users[_account].following[_index];\n  }\n  function getUnfollowerCount(address _account) public view returns(uint) {\n    return users[_account].unfollowers.length;\n  }\n  function getUnfollowers(address _account) public view returns(address[] memory) {\n    return users[_account].unfollowers;\n  }\n  function getUnfollowingCount(address _account) public view returns(uint) {\n    return users[_account].unfollowing.length;\n  }\n  function getUnfollowing(address _account) public view returns(address[] memory) {\n    return users[_account].unfollowing;\n  }\n  function getPostCount(address _account) public view returns (uint) {\n    return users[_account].posts.length;\n  }\n  function getPosts(address _account) public view returns (bytes32[] memory) {\n    return users[_account].posts;\n  }\n\n  // pass signer roles\n  function passFactorySigner(address _userFactory) public returns(bool){\n    require(\n      msg.sender==factorySigner,\n      'Error: msg.sender must be factorySigner');\n\n    factorySigner = _userFactory;\n    emit FactorySignerChanged(msg.sender, factorySigner);\n    return true;\n  }\n  function passInterfaceSigner(address _userInterface) public returns(bool){\n    require(\n      msg.sender==interfaceSigner,\n      'Error: msg.sender must be factorySigner');\n\n    interfaceSigner = _userInterface;\n    emit InterfaceSignerChanged(msg.sender, interfaceSigner);\n    return true;\n  }\n  function passMemeFactorySigner(address _memeFactory) public returns(bool){\n    require(\n      msg.sender==memeFactorySigner,\n      'Error: msg.sender must be memeFactorySigner');\n\n    memeFactorySigner = _memeFactory;\n    emit PostSignerChanged(msg.sender, memeFactorySigner);\n    return true;\n  }\n  function passLikeSigner(address _likeSigner) public returns(bool){\n    require(\n      msg.sender==likeSigner,\n      'Error: msg.sender must be likeSigner');\n\n    likeSigner = _likeSigner;\n    emit LikeSignerChanged(msg.sender, likeSigner);\n    return true;\n  }\n  function passFollowSigner(address _followSigner) public returns(bool){\n    require(\n      msg.sender==followSigner,\n      'Error: msg.sender must be factorySigner');\n\n    followSigner = _followSigner;\n    emit FollowSignerChanged(msg.sender, followSigner);\n    return true;\n  }\n}\n",
  "sourcePath": "/Users/jaiq/Documents/000 BLOCKCHAIN/ETH/uMe/src/contracts/UserStorage.sol",
  "compiler": {
    "name": "solc",
    "version": "0.8.7+commit.e28d00a7.Emscripten.clang"
  },
  "schemaVersion": "3.4.3",
  "updatedAt": "2021-09-10T20:22:07.949Z",
  "networkType": "ethereum",
  "devdoc": {
    "kind": "dev",
    "methods": {},
    "version": 1
  },
  "userdoc": {
    "kind": "user",
    "methods": {},
    "version": 1
  }
}