{
  "contractName": "UserFactory",
  "abi": [
    {
      "inputs": [
        {
          "internalType": "contract UserStorage",
          "name": "_userStorage",
          "type": "address"
        }
      ],
      "stateMutability": "nonpayable",
      "type": "constructor"
    },
    {
      "anonymous": false,
      "inputs": [
        {
          "indexed": true,
          "internalType": "address",
          "name": "account",
          "type": "address"
        },
        {
          "indexed": false,
          "internalType": "uint256",
          "name": "time",
          "type": "uint256"
        }
      ],
      "name": "DeletedUser",
      "type": "event"
    },
    {
      "anonymous": false,
      "inputs": [
        {
          "indexed": true,
          "internalType": "address",
          "name": "account",
          "type": "address"
        },
        {
          "indexed": false,
          "internalType": "bytes32",
          "name": "userName",
          "type": "bytes32"
        },
        {
          "indexed": false,
          "internalType": "bytes32",
          "name": "userAddr",
          "type": "bytes32"
        },
        {
          "indexed": false,
          "internalType": "uint256",
          "name": "time",
          "type": "uint256"
        }
      ],
      "name": "NewUser",
      "type": "event"
    },
    {
      "anonymous": false,
      "inputs": [
        {
          "indexed": true,
          "internalType": "address",
          "name": "from",
          "type": "address"
        },
        {
          "indexed": true,
          "internalType": "address",
          "name": "to",
          "type": "address"
        }
      ],
      "name": "SignerChanged",
      "type": "event"
    },
    {
      "inputs": [],
      "name": "signer",
      "outputs": [
        {
          "internalType": "address",
          "name": "",
          "type": "address"
        }
      ],
      "stateMutability": "view",
      "type": "function",
      "constant": true
    },
    {
      "inputs": [
        {
          "internalType": "address",
          "name": "_account",
          "type": "address"
        },
        {
          "internalType": "bytes32",
          "name": "_userName",
          "type": "bytes32"
        },
        {
          "internalType": "bytes32",
          "name": "_userAddress",
          "type": "bytes32"
        },
        {
          "internalType": "string",
          "name": "_imgHash",
          "type": "string"
        }
      ],
      "name": "newUser",
      "outputs": [],
      "stateMutability": "nonpayable",
      "type": "function"
    },
    {
      "inputs": [
        {
          "internalType": "address",
          "name": "_account",
          "type": "address"
        },
        {
          "internalType": "bool",
          "name": "failSafe",
          "type": "bool"
        }
      ],
      "name": "deleteUser",
      "outputs": [],
      "stateMutability": "nonpayable",
      "type": "function"
    },
    {
      "inputs": [
        {
          "internalType": "address",
          "name": "_userInterface",
          "type": "address"
        }
      ],
      "name": "passInterfaceSigner",
      "outputs": [
        {
          "internalType": "bool",
          "name": "",
          "type": "bool"
        }
      ],
      "stateMutability": "nonpayable",
      "type": "function"
    }
  ],
  "bytecode": "0x60806040523480156200001157600080fd5b50604051620014df380380620014df83398181016040528101906200003791906200013d565b33600160006101000a81548173ffffffffffffffffffffffffffffffffffffffff021916908373ffffffffffffffffffffffffffffffffffffffff160217905550806000806101000a81548173ffffffffffffffffffffffffffffffffffffffff021916908373ffffffffffffffffffffffffffffffffffffffff160217905550506200016f565b600080fd5b600073ffffffffffffffffffffffffffffffffffffffff82169050919050565b6000620000f182620000c4565b9050919050565b60006200010582620000e4565b9050919050565b6200011781620000f8565b81146200012357600080fd5b50565b60008151905062000137816200010c565b92915050565b600060208284031215620001565762000155620000bf565b5b6000620001668482850162000126565b91505092915050565b611360806200017f6000396000f3fe608060405234801561001057600080fd5b506004361061004c5760003560e01c8063238ac93314610051578063347558c71461006f57806387bc9fad1461008b578063c4e172da146100a7575b600080fd5b6100596100d7565b60405161006691906109c4565b60405180910390f35b61008960048036038101906100849190610b9b565b6100fd565b005b6100a560048036038101906100a09190610c56565b610598565b005b6100c160048036038101906100bc9190610c96565b61082b565b6040516100ce9190610cd2565b60405180910390f35b600160009054906101000a900473ffffffffffffffffffffffffffffffffffffffff1681565b600160009054906101000a900473ffffffffffffffffffffffffffffffffffffffff1673ffffffffffffffffffffffffffffffffffffffff163373ffffffffffffffffffffffffffffffffffffffff161461018d576040517f08c379a000000000000000000000000000000000000000000000000000000000815260040161018490610d4a565b60405180910390fd5b60008054906101000a900473ffffffffffffffffffffffffffffffffffffffff1673ffffffffffffffffffffffffffffffffffffffff166351b669216040518163ffffffff1660e01b8152600401600060405180830381600087803b1580156101f557600080fd5b505af1158015610209573d6000803e3d6000fd5b5050505060008054906101000a900473ffffffffffffffffffffffffffffffffffffffff1673ffffffffffffffffffffffffffffffffffffffff1663cc656d0e8560405180610180016040528060008054906101000a900473ffffffffffffffffffffffffffffffffffffffff1673ffffffffffffffffffffffffffffffffffffffff166307973ccf6040518163ffffffff1660e01b815260040160206040518083038186803b1580156102bc57600080fd5b505afa1580156102d0573d6000803e3d6000fd5b505050506040513d601f19601f820116820180604052508101906102f49190610da0565b6040516020016103049190610dee565b6040516020818303038152906040528051906020012081526020018781526020018681526020014281526020018873ffffffffffffffffffffffffffffffffffffffff168152602001604051806020016040528060008152508152602001858152602001600067ffffffffffffffff81111561038357610382610a70565b5b6040519080825280602002602001820160405280156103b15781602001602082028036833780820191505090505b508152602001600067ffffffffffffffff8111156103d2576103d1610a70565b5b6040519080825280602002602001820160405280156104005781602001602082028036833780820191505090505b508152602001600067ffffffffffffffff81111561042157610420610a70565b5b60405190808252806020026020018201604052801561044f5781602001602082028036833780820191505090505b508152602001600067ffffffffffffffff8111156104705761046f610a70565b5b60405190808252806020026020018201604052801561049e5781602001602082028036833780820191505090505b508152602001600067ffffffffffffffff8111156104bf576104be610a70565b5b6040519080825280602002602001820160405280156104ed5781602001602082028036833780820191505090505b508152506040518363ffffffff1660e01b815260040161050e92919061114a565b600060405180830381600087803b15801561052857600080fd5b505af115801561053c573d6000803e3d6000fd5b505050508373ffffffffffffffffffffffffffffffffffffffff167fad37dec01c6ce7809ff746e60106df4650385c4edc5e42cec69b5b2c47caebe184844260405161058a93929190611198565b60405180910390a250505050565b600160009054906101000a900473ffffffffffffffffffffffffffffffffffffffff1673ffffffffffffffffffffffffffffffffffffffff163373ffffffffffffffffffffffffffffffffffffffff161480156105f9575060011515811515145b610638576040517f08c379a000000000000000000000000000000000000000000000000000000000815260040161062f90610d4a565b60405180910390fd5b8173ffffffffffffffffffffffffffffffffffffffff1660008054906101000a900473ffffffffffffffffffffffffffffffffffffffff1673ffffffffffffffffffffffffffffffffffffffff1663b4108a94846040518263ffffffff1660e01b81526004016106a891906109c4565b60206040518083038186803b1580156106c057600080fd5b505afa1580156106d4573d6000803e3d6000fd5b505050506040513d601f19601f820116820180604052508101906106f891906111e4565b73ffffffffffffffffffffffffffffffffffffffff161461074e576040517f08c379a00000000000000000000000000000000000000000000000000000000081526004016107459061125d565b60405180910390fd5b60008054906101000a900473ffffffffffffffffffffffffffffffffffffffff1673ffffffffffffffffffffffffffffffffffffffff16635c60f226836040518263ffffffff1660e01b81526004016107a791906109c4565b600060405180830381600087803b1580156107c157600080fd5b505af11580156107d5573d6000803e3d6000fd5b505050508173ffffffffffffffffffffffffffffffffffffffff167f1a7fe41b9767c0ba9c18dced521efc73b20feb650691659c8609704e103555ca4260405161081f919061127d565b60405180910390a25050565b6000600160009054906101000a900473ffffffffffffffffffffffffffffffffffffffff1673ffffffffffffffffffffffffffffffffffffffff163373ffffffffffffffffffffffffffffffffffffffff16146108bd576040517f08c379a00000000000000000000000000000000000000000000000000000000081526004016108b49061130a565b60405180910390fd5b81600160006101000a81548173ffffffffffffffffffffffffffffffffffffffff021916908373ffffffffffffffffffffffffffffffffffffffff160217905550600160009054906101000a900473ffffffffffffffffffffffffffffffffffffffff1673ffffffffffffffffffffffffffffffffffffffff163373ffffffffffffffffffffffffffffffffffffffff167feeb293e1f8f3a9db91ade748726387ed1352ca78f5430c5f06fe3d1e1ad5057960405160405180910390a360019050919050565b600073ffffffffffffffffffffffffffffffffffffffff82169050919050565b60006109ae82610983565b9050919050565b6109be816109a3565b82525050565b60006020820190506109d960008301846109b5565b92915050565b6000604051905090565b600080fd5b600080fd5b6109fc816109a3565b8114610a0757600080fd5b50565b600081359050610a19816109f3565b92915050565b6000819050919050565b610a3281610a1f565b8114610a3d57600080fd5b50565b600081359050610a4f81610a29565b92915050565b600080fd5b600080fd5b6000601f19601f8301169050919050565b7f4e487b7100000000000000000000000000000000000000000000000000000000600052604160045260246000fd5b610aa882610a5f565b810181811067ffffffffffffffff82111715610ac757610ac6610a70565b5b80604052505050565b6000610ada6109df565b9050610ae68282610a9f565b919050565b600067ffffffffffffffff821115610b0657610b05610a70565b5b610b0f82610a5f565b9050602081019050919050565b82818337600083830152505050565b6000610b3e610b3984610aeb565b610ad0565b905082815260208101848484011115610b5a57610b59610a5a565b5b610b65848285610b1c565b509392505050565b600082601f830112610b8257610b81610a55565b5b8135610b92848260208601610b2b565b91505092915050565b60008060008060808587031215610bb557610bb46109e9565b5b6000610bc387828801610a0a565b9450506020610bd487828801610a40565b9350506040610be587828801610a40565b925050606085013567ffffffffffffffff811115610c0657610c056109ee565b5b610c1287828801610b6d565b91505092959194509250565b60008115159050919050565b610c3381610c1e565b8114610c3e57600080fd5b50565b600081359050610c5081610c2a565b92915050565b60008060408385031215610c6d57610c6c6109e9565b5b6000610c7b85828601610a0a565b9250506020610c8c85828601610c41565b9150509250929050565b600060208284031215610cac57610cab6109e9565b5b6000610cba84828501610a0a565b91505092915050565b610ccc81610c1e565b82525050565b6000602082019050610ce76000830184610cc3565b92915050565b600082825260208201905092915050565b7f4572726f723a206163636f756e74206d75737420626520696e74657266616365600082015250565b6000610d34602083610ced565b9150610d3f82610cfe565b602082019050919050565b60006020820190508181036000830152610d6381610d27565b9050919050565b6000819050919050565b610d7d81610d6a565b8114610d8857600080fd5b50565b600081519050610d9a81610d74565b92915050565b600060208284031215610db657610db56109e9565b5b6000610dc484828501610d8b565b91505092915050565b6000819050919050565b610de8610de382610d6a565b610dcd565b82525050565b6000610dfa8284610dd7565b60208201915081905092915050565b610e1281610a1f565b82525050565b610e2181610d6a565b82525050565b610e30816109a3565b82525050565b600081519050919050565b600082825260208201905092915050565b60005b83811015610e70578082015181840152602081019050610e55565b83811115610e7f576000848401525b50505050565b6000610e9082610e36565b610e9a8185610e41565b9350610eaa818560208601610e52565b610eb381610a5f565b840191505092915050565b600081519050919050565b600082825260208201905092915050565b6000819050602082019050919050565b6000610ef68383610e27565b60208301905092915050565b6000602082019050919050565b6000610f1a82610ebe565b610f248185610ec9565b9350610f2f83610eda565b8060005b83811015610f60578151610f478882610eea565b9750610f5283610f02565b925050600181019050610f33565b5085935050505092915050565b600081519050919050565b600082825260208201905092915050565b6000819050602082019050919050565b6000610fa58383610e09565b60208301905092915050565b6000602082019050919050565b6000610fc982610f6d565b610fd38185610f78565b9350610fde83610f89565b8060005b8381101561100f578151610ff68882610f99565b975061100183610fb1565b925050600181019050610fe2565b5085935050505092915050565b6000610180830160008301516110356000860182610e09565b5060208301516110486020860182610e09565b50604083015161105b6040860182610e09565b50606083015161106e6060860182610e18565b5060808301516110816080860182610e27565b5060a083015184820360a08601526110998282610e85565b91505060c083015184820360c08601526110b38282610e85565b91505060e083015184820360e08601526110cd8282610f0f565b9150506101008301518482036101008601526110e98282610f0f565b9150506101208301518482036101208601526111058282610f0f565b9150506101408301518482036101408601526111218282610f0f565b91505061016083015184820361016086015261113d8282610fbe565b9150508091505092915050565b600060408201905061115f60008301856109b5565b8181036020830152611171818461101c565b90509392505050565b61118381610a1f565b82525050565b61119281610d6a565b82525050565b60006060820190506111ad600083018661117a565b6111ba602083018561117a565b6111c76040830184611189565b949350505050565b6000815190506111de816109f3565b92915050565b6000602082840312156111fa576111f96109e9565b5b6000611208848285016111cf565b91505092915050565b7f4572726f723a206163636f756e7420646f65736e277420657869737400000000600082015250565b6000611247601c83610ced565b915061125282611211565b602082019050919050565b600060208201905081810360008301526112768161123a565b9050919050565b60006020820190506112926000830184611189565b92915050565b7f4572726f723a206d73672e73656e646572206d75737420626520666163746f7260008201527f795369676e657200000000000000000000000000000000000000000000000000602082015250565b60006112f4602783610ced565b91506112ff82611298565b604082019050919050565b60006020820190508181036000830152611323816112e7565b905091905056fea26469706673582212202b85d78545b6b05bc31a81a4d879d59896f2bec17ab95f0d6439be9144a26ae864736f6c63430008090033",
  "immutableReferences": {},
  "source": "// SPDX-License-Identifier: MIT\n\npragma solidity >=0.8.0 <0.9.0;\n\nimport \"./UserStorage.sol\";\n\ncontract UserFactory {\n\n  UserStorage private userStorage;\n\n  address public signer;\n\n  event NewUser(\n         address indexed account,\n         bytes32 userName,\n         bytes32 userAddr,\n         uint time);\n  event DeletedUser(\n         address indexed account,\n         uint time);\n  event SignerChanged(\n         address indexed from,\n         address indexed to);\n\n  constructor(UserStorage _userStorage)\n              public {\n    signer = msg.sender;\n    userStorage = _userStorage;\n  }\n\n  function newUser(\n            address _account,\n            bytes32 _userName,\n            bytes32 _userAddress,\n            string memory _imgHash)\n            public {\n    require(\n      msg.sender==signer,\n      'Error: account must be interface');\n    userStorage.increaseUserCount();\n    // set user to account address\n    userStorage.setUser( _account, UserStorage.User(\n      keccak256(abi.encodePacked(userStorage.userCount())), // user id hashed through keccak\n      _userName, // user name\n      _userAddress, // user address\n      block.timestamp, // user creation time\n      _account, // address of user\n      string(''), // bio\n      _imgHash, // profile pic\n      new address[](0), // addresses of followers\n      new address[](0), // addresses of following\n      new address[](0), // addresses of unfollowers\n      new address[](0), // addresses of unfollowing\n      new bytes32[](0) // memeIds of posts\n    ));\n    emit NewUser(_account, _userName, _userAddress, block.timestamp);\n  }\n  function deleteUser(\n            address _account,\n            bool failSafe)\n            public {\n    require(\n      msg.sender==signer && failSafe==true,\n      'Error: account must be interface');\n    require(\n      userStorage.getAddr(_account)==_account,\n      'Error: account doesn\\'t exist');\n\n    // remove followers and following here\n    userStorage.deleteUser(_account);\n    emit DeletedUser(_account, block.timestamp);\n  }\n\n  // pass signer role to interface\n  function passInterfaceSigner(address _userInterface)\n            public returns(bool) {\n    require(\n      msg.sender==signer,\n      'Error: msg.sender must be factorySigner');\n\n    signer = _userInterface;\n    emit SignerChanged(msg.sender, signer);\n    return true;\n  }\n}\n",
  "sourcePath": "/Users/jaiq/Documents/000 BLOCKCHAIN/ETH/uMe/src/contracts/UserFactory.sol",
  "compiler": {
    "name": "solc",
    "version": "0.8.9+commit.e5eed63a.Emscripten.clang"
  },
  "schemaVersion": "3.4.3",
  "updatedAt": "2021-11-03T10:48:21.282Z",
  "networkType": "ethereum",
  "devdoc": {
    "kind": "dev",
    "methods": {},
    "version": 1
  },
  "userdoc": {
    "kind": "user",
    "methods": {},
    "version": 1
  }
}