{
  "contractName": "UserStorage",
  "abi": [
    {
      "inputs": [],
      "stateMutability": "nonpayable",
      "type": "constructor"
    },
    {
      "anonymous": false,
      "inputs": [
        {
          "indexed": true,
          "internalType": "address",
          "name": "from",
          "type": "address"
        },
        {
          "indexed": true,
          "internalType": "address",
          "name": "to",
          "type": "address"
        }
      ],
      "name": "FactorySignerChanged",
      "type": "event"
    },
    {
      "anonymous": false,
      "inputs": [
        {
          "indexed": true,
          "internalType": "address",
          "name": "from",
          "type": "address"
        },
        {
          "indexed": true,
          "internalType": "address",
          "name": "to",
          "type": "address"
        }
      ],
      "name": "FollowSignerChanged",
      "type": "event"
    },
    {
      "anonymous": false,
      "inputs": [
        {
          "indexed": true,
          "internalType": "address",
          "name": "from",
          "type": "address"
        },
        {
          "indexed": true,
          "internalType": "address",
          "name": "to",
          "type": "address"
        }
      ],
      "name": "InterfaceSignerChanged",
      "type": "event"
    },
    {
      "anonymous": false,
      "inputs": [
        {
          "indexed": true,
          "internalType": "address",
          "name": "from",
          "type": "address"
        },
        {
          "indexed": true,
          "internalType": "address",
          "name": "to",
          "type": "address"
        }
      ],
      "name": "LikeSignerChanged",
      "type": "event"
    },
    {
      "anonymous": false,
      "inputs": [
        {
          "indexed": true,
          "internalType": "address",
          "name": "from",
          "type": "address"
        },
        {
          "indexed": true,
          "internalType": "address",
          "name": "to",
          "type": "address"
        }
      ],
      "name": "PostSignerChanged",
      "type": "event"
    },
    {
      "inputs": [],
      "name": "factorySigner",
      "outputs": [
        {
          "internalType": "address",
          "name": "",
          "type": "address"
        }
      ],
      "stateMutability": "view",
      "type": "function",
      "constant": true
    },
    {
      "inputs": [],
      "name": "followSigner",
      "outputs": [
        {
          "internalType": "address",
          "name": "",
          "type": "address"
        }
      ],
      "stateMutability": "view",
      "type": "function",
      "constant": true
    },
    {
      "inputs": [],
      "name": "interfaceSigner",
      "outputs": [
        {
          "internalType": "address",
          "name": "",
          "type": "address"
        }
      ],
      "stateMutability": "view",
      "type": "function",
      "constant": true
    },
    {
      "inputs": [],
      "name": "likeSigner",
      "outputs": [
        {
          "internalType": "address",
          "name": "",
          "type": "address"
        }
      ],
      "stateMutability": "view",
      "type": "function",
      "constant": true
    },
    {
      "inputs": [],
      "name": "memeFactorySigner",
      "outputs": [
        {
          "internalType": "address",
          "name": "",
          "type": "address"
        }
      ],
      "stateMutability": "view",
      "type": "function",
      "constant": true
    },
    {
      "inputs": [],
      "name": "userCount",
      "outputs": [
        {
          "internalType": "uint256",
          "name": "",
          "type": "uint256"
        }
      ],
      "stateMutability": "view",
      "type": "function",
      "constant": true
    },
    {
      "inputs": [
        {
          "internalType": "address",
          "name": "",
          "type": "address"
        }
      ],
      "name": "users",
      "outputs": [
        {
          "internalType": "bytes32",
          "name": "id",
          "type": "bytes32"
        },
        {
          "internalType": "bytes32",
          "name": "name",
          "type": "bytes32"
        },
        {
          "internalType": "bytes32",
          "name": "userAddr",
          "type": "bytes32"
        },
        {
          "internalType": "uint256",
          "name": "time",
          "type": "uint256"
        },
        {
          "internalType": "address",
          "name": "addr",
          "type": "address"
        }
      ],
      "stateMutability": "view",
      "type": "function",
      "constant": true
    },
    {
      "inputs": [
        {
          "internalType": "bytes32",
          "name": "",
          "type": "bytes32"
        }
      ],
      "name": "usersByMeme",
      "outputs": [
        {
          "internalType": "address",
          "name": "",
          "type": "address"
        }
      ],
      "stateMutability": "view",
      "type": "function",
      "constant": true
    },
    {
      "inputs": [
        {
          "internalType": "bytes32",
          "name": "",
          "type": "bytes32"
        }
      ],
      "name": "usersByUserAddr",
      "outputs": [
        {
          "internalType": "address",
          "name": "",
          "type": "address"
        }
      ],
      "stateMutability": "view",
      "type": "function",
      "constant": true
    },
    {
      "inputs": [
        {
          "internalType": "address",
          "name": "_account",
          "type": "address"
        },
        {
          "components": [
            {
              "internalType": "bytes32",
              "name": "id",
              "type": "bytes32"
            },
            {
              "internalType": "bytes32",
              "name": "name",
              "type": "bytes32"
            },
            {
              "internalType": "bytes32",
              "name": "userAddr",
              "type": "bytes32"
            },
            {
              "internalType": "uint256",
              "name": "time",
              "type": "uint256"
            },
            {
              "internalType": "address",
              "name": "addr",
              "type": "address"
            },
            {
              "internalType": "address[]",
              "name": "followers",
              "type": "address[]"
            },
            {
              "internalType": "address[]",
              "name": "following",
              "type": "address[]"
            },
            {
              "internalType": "address[]",
              "name": "unfollowers",
              "type": "address[]"
            },
            {
              "internalType": "address[]",
              "name": "unfollowing",
              "type": "address[]"
            },
            {
              "internalType": "bytes32[]",
              "name": "posts",
              "type": "bytes32[]"
            }
          ],
          "internalType": "struct UserStorage.User",
          "name": "_user",
          "type": "tuple"
        }
      ],
      "name": "setUser",
      "outputs": [],
      "stateMutability": "nonpayable",
      "type": "function"
    },
    {
      "inputs": [
        {
          "internalType": "bytes32",
          "name": "_userAddr",
          "type": "bytes32"
        },
        {
          "internalType": "address",
          "name": "_account",
          "type": "address"
        }
      ],
      "name": "setUsersByUserAddress",
      "outputs": [],
      "stateMutability": "nonpayable",
      "type": "function"
    },
    {
      "inputs": [
        {
          "internalType": "bytes32",
          "name": "_memeId",
          "type": "bytes32"
        },
        {
          "internalType": "address",
          "name": "_account",
          "type": "address"
        }
      ],
      "name": "setUsersByMeme",
      "outputs": [],
      "stateMutability": "nonpayable",
      "type": "function"
    },
    {
      "inputs": [
        {
          "internalType": "address",
          "name": "_account",
          "type": "address"
        }
      ],
      "name": "deleteUser",
      "outputs": [],
      "stateMutability": "nonpayable",
      "type": "function"
    },
    {
      "inputs": [],
      "name": "increaseUserCount",
      "outputs": [],
      "stateMutability": "nonpayable",
      "type": "function"
    },
    {
      "inputs": [
        {
          "internalType": "address",
          "name": "_account",
          "type": "address"
        },
        {
          "internalType": "bytes32",
          "name": "_userName",
          "type": "bytes32"
        }
      ],
      "name": "setUserName",
      "outputs": [],
      "stateMutability": "nonpayable",
      "type": "function"
    },
    {
      "inputs": [
        {
          "internalType": "address",
          "name": "_account",
          "type": "address"
        },
        {
          "internalType": "bytes32",
          "name": "_userAddress",
          "type": "bytes32"
        }
      ],
      "name": "setUserAddress",
      "outputs": [],
      "stateMutability": "nonpayable",
      "type": "function"
    },
    {
      "inputs": [
        {
          "internalType": "address",
          "name": "_account",
          "type": "address"
        },
        {
          "internalType": "bytes32[]",
          "name": "_posts",
          "type": "bytes32[]"
        }
      ],
      "name": "setPosts",
      "outputs": [],
      "stateMutability": "nonpayable",
      "type": "function"
    },
    {
      "inputs": [
        {
          "internalType": "address",
          "name": "_account",
          "type": "address"
        },
        {
          "internalType": "address[]",
          "name": "_followers",
          "type": "address[]"
        }
      ],
      "name": "setFollowers",
      "outputs": [],
      "stateMutability": "nonpayable",
      "type": "function"
    },
    {
      "inputs": [
        {
          "internalType": "address",
          "name": "_account",
          "type": "address"
        },
        {
          "internalType": "address[]",
          "name": "_following",
          "type": "address[]"
        }
      ],
      "name": "setFollowing",
      "outputs": [],
      "stateMutability": "nonpayable",
      "type": "function"
    },
    {
      "inputs": [
        {
          "internalType": "address",
          "name": "_account",
          "type": "address"
        },
        {
          "internalType": "address[]",
          "name": "_unfollowers",
          "type": "address[]"
        }
      ],
      "name": "setUnfollowers",
      "outputs": [],
      "stateMutability": "nonpayable",
      "type": "function"
    },
    {
      "inputs": [
        {
          "internalType": "address",
          "name": "_account",
          "type": "address"
        },
        {
          "internalType": "address[]",
          "name": "_unfollowing",
          "type": "address[]"
        }
      ],
      "name": "setUnfollowing",
      "outputs": [],
      "stateMutability": "nonpayable",
      "type": "function"
    },
    {
      "inputs": [
        {
          "internalType": "address",
          "name": "_account",
          "type": "address"
        }
      ],
      "name": "userExists",
      "outputs": [
        {
          "internalType": "bool",
          "name": "",
          "type": "bool"
        }
      ],
      "stateMutability": "view",
      "type": "function",
      "constant": true
    },
    {
      "inputs": [
        {
          "internalType": "address",
          "name": "_account",
          "type": "address"
        }
      ],
      "name": "getUser",
      "outputs": [
        {
          "components": [
            {
              "internalType": "bytes32",
              "name": "id",
              "type": "bytes32"
            },
            {
              "internalType": "bytes32",
              "name": "name",
              "type": "bytes32"
            },
            {
              "internalType": "bytes32",
              "name": "userAddr",
              "type": "bytes32"
            },
            {
              "internalType": "uint256",
              "name": "time",
              "type": "uint256"
            },
            {
              "internalType": "address",
              "name": "addr",
              "type": "address"
            },
            {
              "internalType": "address[]",
              "name": "followers",
              "type": "address[]"
            },
            {
              "internalType": "address[]",
              "name": "following",
              "type": "address[]"
            },
            {
              "internalType": "address[]",
              "name": "unfollowers",
              "type": "address[]"
            },
            {
              "internalType": "address[]",
              "name": "unfollowing",
              "type": "address[]"
            },
            {
              "internalType": "bytes32[]",
              "name": "posts",
              "type": "bytes32[]"
            }
          ],
          "internalType": "struct UserStorage.User",
          "name": "",
          "type": "tuple"
        }
      ],
      "stateMutability": "view",
      "type": "function",
      "constant": true
    },
    {
      "inputs": [
        {
          "internalType": "address",
          "name": "_account",
          "type": "address"
        }
      ],
      "name": "getId",
      "outputs": [
        {
          "internalType": "bytes32",
          "name": "",
          "type": "bytes32"
        }
      ],
      "stateMutability": "view",
      "type": "function",
      "constant": true
    },
    {
      "inputs": [
        {
          "internalType": "address",
          "name": "_account",
          "type": "address"
        }
      ],
      "name": "getName",
      "outputs": [
        {
          "internalType": "bytes32",
          "name": "",
          "type": "bytes32"
        }
      ],
      "stateMutability": "view",
      "type": "function",
      "constant": true
    },
    {
      "inputs": [
        {
          "internalType": "address",
          "name": "_account",
          "type": "address"
        }
      ],
      "name": "getUserAddr",
      "outputs": [
        {
          "internalType": "bytes32",
          "name": "",
          "type": "bytes32"
        }
      ],
      "stateMutability": "view",
      "type": "function",
      "constant": true
    },
    {
      "inputs": [
        {
          "internalType": "address",
          "name": "_account",
          "type": "address"
        }
      ],
      "name": "getAddr",
      "outputs": [
        {
          "internalType": "address",
          "name": "",
          "type": "address"
        }
      ],
      "stateMutability": "view",
      "type": "function",
      "constant": true
    },
    {
      "inputs": [
        {
          "internalType": "address",
          "name": "_account",
          "type": "address"
        }
      ],
      "name": "getFollowerCount",
      "outputs": [
        {
          "internalType": "uint256",
          "name": "",
          "type": "uint256"
        }
      ],
      "stateMutability": "view",
      "type": "function",
      "constant": true
    },
    {
      "inputs": [
        {
          "internalType": "address",
          "name": "_account",
          "type": "address"
        }
      ],
      "name": "getFollowers",
      "outputs": [
        {
          "internalType": "address[]",
          "name": "",
          "type": "address[]"
        }
      ],
      "stateMutability": "view",
      "type": "function",
      "constant": true
    },
    {
      "inputs": [
        {
          "internalType": "address",
          "name": "_account",
          "type": "address"
        },
        {
          "internalType": "uint256",
          "name": "_index",
          "type": "uint256"
        }
      ],
      "name": "getFollowerAt",
      "outputs": [
        {
          "internalType": "address",
          "name": "",
          "type": "address"
        }
      ],
      "stateMutability": "view",
      "type": "function",
      "constant": true
    },
    {
      "inputs": [
        {
          "internalType": "address",
          "name": "_account",
          "type": "address"
        }
      ],
      "name": "getFollowingCount",
      "outputs": [
        {
          "internalType": "uint256",
          "name": "",
          "type": "uint256"
        }
      ],
      "stateMutability": "view",
      "type": "function",
      "constant": true
    },
    {
      "inputs": [
        {
          "internalType": "address",
          "name": "_account",
          "type": "address"
        }
      ],
      "name": "getFollowing",
      "outputs": [
        {
          "internalType": "address[]",
          "name": "",
          "type": "address[]"
        }
      ],
      "stateMutability": "view",
      "type": "function",
      "constant": true
    },
    {
      "inputs": [
        {
          "internalType": "address",
          "name": "_account",
          "type": "address"
        },
        {
          "internalType": "uint256",
          "name": "_index",
          "type": "uint256"
        }
      ],
      "name": "getFollowingAt",
      "outputs": [
        {
          "internalType": "address",
          "name": "",
          "type": "address"
        }
      ],
      "stateMutability": "view",
      "type": "function",
      "constant": true
    },
    {
      "inputs": [
        {
          "internalType": "address",
          "name": "_account",
          "type": "address"
        }
      ],
      "name": "getUnfollowerCount",
      "outputs": [
        {
          "internalType": "uint256",
          "name": "",
          "type": "uint256"
        }
      ],
      "stateMutability": "view",
      "type": "function",
      "constant": true
    },
    {
      "inputs": [
        {
          "internalType": "address",
          "name": "_account",
          "type": "address"
        }
      ],
      "name": "getUnfollowers",
      "outputs": [
        {
          "internalType": "address[]",
          "name": "",
          "type": "address[]"
        }
      ],
      "stateMutability": "view",
      "type": "function",
      "constant": true
    },
    {
      "inputs": [
        {
          "internalType": "address",
          "name": "_account",
          "type": "address"
        }
      ],
      "name": "getUnfollowingCount",
      "outputs": [
        {
          "internalType": "uint256",
          "name": "",
          "type": "uint256"
        }
      ],
      "stateMutability": "view",
      "type": "function",
      "constant": true
    },
    {
      "inputs": [
        {
          "internalType": "address",
          "name": "_account",
          "type": "address"
        }
      ],
      "name": "getUnfollowing",
      "outputs": [
        {
          "internalType": "address[]",
          "name": "",
          "type": "address[]"
        }
      ],
      "stateMutability": "view",
      "type": "function",
      "constant": true
    },
    {
      "inputs": [
        {
          "internalType": "address",
          "name": "_account",
          "type": "address"
        }
      ],
      "name": "getPostCount",
      "outputs": [
        {
          "internalType": "uint256",
          "name": "",
          "type": "uint256"
        }
      ],
      "stateMutability": "view",
      "type": "function",
      "constant": true
    },
    {
      "inputs": [
        {
          "internalType": "address",
          "name": "_account",
          "type": "address"
        }
      ],
      "name": "getPosts",
      "outputs": [
        {
          "internalType": "bytes32[]",
          "name": "",
          "type": "bytes32[]"
        }
      ],
      "stateMutability": "view",
      "type": "function",
      "constant": true
    },
    {
      "inputs": [
        {
          "internalType": "address",
          "name": "_userFactory",
          "type": "address"
        }
      ],
      "name": "passFactorySigner",
      "outputs": [
        {
          "internalType": "bool",
          "name": "",
          "type": "bool"
        }
      ],
      "stateMutability": "nonpayable",
      "type": "function"
    },
    {
      "inputs": [
        {
          "internalType": "address",
          "name": "_userInterface",
          "type": "address"
        }
      ],
      "name": "passInterfaceSigner",
      "outputs": [
        {
          "internalType": "bool",
          "name": "",
          "type": "bool"
        }
      ],
      "stateMutability": "nonpayable",
      "type": "function"
    },
    {
      "inputs": [
        {
          "internalType": "address",
          "name": "_memeFactory",
          "type": "address"
        }
      ],
      "name": "passMemeFactorySigner",
      "outputs": [
        {
          "internalType": "bool",
          "name": "",
          "type": "bool"
        }
      ],
      "stateMutability": "nonpayable",
      "type": "function"
    },
    {
      "inputs": [
        {
          "internalType": "address",
          "name": "_likeSigner",
          "type": "address"
        }
      ],
      "name": "passLikeSigner",
      "outputs": [
        {
          "internalType": "bool",
          "name": "",
          "type": "bool"
        }
      ],
      "stateMutability": "nonpayable",
      "type": "function"
    },
    {
      "inputs": [
        {
          "internalType": "address",
          "name": "_followSigner",
          "type": "address"
        }
      ],
      "name": "passFollowSigner",
      "outputs": [
        {
          "internalType": "bool",
          "name": "",
          "type": "bool"
        }
      ],
      "stateMutability": "nonpayable",
      "type": "function"
    }
  ],
  "bytecode": "0x6080604052600060055534801561001557600080fd5b50336000806101000a81548173ffffffffffffffffffffffffffffffffffffffff021916908373ffffffffffffffffffffffffffffffffffffffff16021790555033600160006101000a81548173ffffffffffffffffffffffffffffffffffffffff021916908373ffffffffffffffffffffffffffffffffffffffff16021790555033600260006101000a81548173ffffffffffffffffffffffffffffffffffffffff021916908373ffffffffffffffffffffffffffffffffffffffff16021790555033600360006101000a81548173ffffffffffffffffffffffffffffffffffffffff021916908373ffffffffffffffffffffffffffffffffffffffff16021790555033600460006101000a81548173ffffffffffffffffffffffffffffffffffffffff021916908373ffffffffffffffffffffffffffffffffffffffff1602179055506137bb806101696000396000f3fe608060405234801561001057600080fd5b50600436106102745760003560e01c8063829a262c11610151578063b8e3bfb8116100c3578063d5093b6311610087578063d5093b6314610843578063d8236dff14610873578063e07dbb10146108a3578063e587f0dc146108bf578063e8fc954e146108ef578063fab7d5361461091f57610274565b8063b8e3bfb814610779578063bb58f85d14610797578063c2fe2022146107b3578063c4e172da146107e3578063cb04c9701461081357610274565b8063a42b9ba411610115578063a42b9ba41461068f578063a477c0bf146106ab578063a4c7fafa146106c7578063a87430ba146106f7578063af5dffde1461072b578063b4108a941461074957610274565b8063829a262c146105c357806386b22146146105e15780639b6de675146105ff578063a07cf3711461062f578063a1c54a211461065f57610274565b80634caf9d0b116101ea5780635c60f226116101ae5780635c60f226146104cb5780635fd4b08a146104e757806365f68c89146105175780636f77926b1461054757806377dd8a0314610577578063798c60bd146105a757610274565b80634caf9d0b1461042757806351b6692114610457578063542fc7aa1461046157806357c5451d1461047d5780635aa64413146104ad57610274565b806311e0bda71161023c57806311e0bda71461032f578063144ffed31461035f57806317dcaab61461037b578063201caf8b146103ab5780632ff0bc1d146103db5780634b69ae781461040b57610274565b80630667e8051461027957806306e6a7701461029557806307973ccf146102c55780630a568111146102e35780630e666e49146102ff575b600080fd5b610293600480360381019061028e9190612cd9565b61094f565b005b6102af60048036038101906102aa9190612bf4565b610a2a565b6040516102bc9190613214565b60405180910390f35b6102cd610b82565b6040516102da919061333f565b60405180910390f35b6102fd60048036038101906102f89190612c21565b610b88565b005b61031960048036038101906103149190612bf4565b610be3565b6040516103269190613214565b60405180910390f35b61034960048036038101906103449190612db5565b610c8d565b60405161035691906131b5565b60405180910390f35b61037960048036038101906103749190612c21565b610cc0565b005b61039560048036038101906103909190612bf4565b610d1b565b6040516103a29190613214565b60405180910390f35b6103c560048036038101906103c09190612bf4565b610e6f565b6040516103d29190613214565b60405180910390f35b6103f560048036038101906103f09190612bf4565b610fc7565b6040516104029190613214565b60405180910390f35b61042560048036038101906104209190612c21565b61111f565b005b610441600480360381019061043c9190612bf4565b61117a565b60405161044e91906131f2565b60405180910390f35b61045f611214565b005b61047b60048036038101906104769190612c21565b6112bc565b005b61049760048036038101906104929190612bf4565b611317565b6040516104a4919061333f565b60405180910390f35b6104b5611366565b6040516104c291906131b5565b60405180910390f35b6104e560048036038101906104e09190612bf4565b61138a565b005b61050160048036038101906104fc9190612bf4565b6114f4565b60405161050e919061322f565b60405180910390f35b610531600480360381019061052c9190612bf4565b611540565b60405161053e919061322f565b60405180910390f35b610561600480360381019061055c9190612bf4565b61158c565b60405161056e919061331d565b60405180910390f35b610591600480360381019061058c9190612db5565b6118f4565b60405161059e91906131b5565b60405180910390f35b6105c160048036038101906105bc9190612de2565b611927565b005b6105cb611a0b565b6040516105d891906131b5565b60405180910390f35b6105e9611a31565b6040516105f691906131b5565b60405180910390f35b61061960048036038101906106149190612bf4565b611a57565b604051610626919061333f565b60405180910390f35b61064960048036038101906106449190612d75565b611aa6565b60405161065691906131b5565b60405180910390f35b61067960048036038101906106749190612bf4565b611b2f565b60405161068691906131d0565b60405180910390f35b6106a960048036038101906106a49190612d19565b611bff565b005b6106c560048036038101906106c09190612cd9565b611e2c565b005b6106e160048036038101906106dc9190612bf4565b611f59565b6040516106ee919061333f565b60405180910390f35b610711600480360381019061070c9190612bf4565b611fa8565b60405161072295949392919061324a565b60405180910390f35b610733611ffe565b60405161074091906131b5565b60405180910390f35b610763600480360381019061075e9190612bf4565b612024565b60405161077091906131b5565b60405180910390f35b610781612090565b60405161078e91906131b5565b60405180910390f35b6107b160048036038101906107ac9190612c7d565b6120b6565b005b6107cd60048036038101906107c89190612bf4565b612111565b6040516107da91906131d0565b60405180910390f35b6107fd60048036038101906107f89190612bf4565b6121e1565b60405161080a9190613214565b60405180910390f35b61082d60048036038101906108289190612bf4565b612339565b60405161083a919061333f565b60405180910390f35b61085d60048036038101906108589190612d75565b612388565b60405161086a91906131b5565b60405180910390f35b61088d60048036038101906108889190612bf4565b612411565b60405161089a91906131d0565b60405180910390f35b6108bd60048036038101906108b89190612de2565b6124e1565b005b6108d960048036038101906108d49190612bf4565b6125c7565b6040516108e691906131d0565b60405180910390f35b61090960048036038101906109049190612bf4565b612697565b604051610916919061322f565b60405180910390f35b61093960048036038101906109349190612bf4565b6126e3565b604051610946919061333f565b60405180910390f35b600460009054906101000a900473ffffffffffffffffffffffffffffffffffffffff1673ffffffffffffffffffffffffffffffffffffffff163373ffffffffffffffffffffffffffffffffffffffff16146109df576040517f08c379a00000000000000000000000000000000000000000000000000000000081526004016109d6906132fd565b60405180910390fd5b80600660008473ffffffffffffffffffffffffffffffffffffffff1673ffffffffffffffffffffffffffffffffffffffff168152602001908152602001600020600101819055505050565b6000600260009054906101000a900473ffffffffffffffffffffffffffffffffffffffff1673ffffffffffffffffffffffffffffffffffffffff163373ffffffffffffffffffffffffffffffffffffffff1614610abc576040517f08c379a0000000000000000000000000000000000000000000000000000000008152600401610ab3906132dd565b60405180910390fd5b81600260006101000a81548173ffffffffffffffffffffffffffffffffffffffff021916908373ffffffffffffffffffffffffffffffffffffffff160217905550600260009054906101000a900473ffffffffffffffffffffffffffffffffffffffff1673ffffffffffffffffffffffffffffffffffffffff163373ffffffffffffffffffffffffffffffffffffffff167f2364065f519eb2e0ac13040d65b1d1140f6677de0518b6dee6954e49f7f7a5b660405160405180910390a360019050919050565b60055481565b80600660008473ffffffffffffffffffffffffffffffffffffffff1673ffffffffffffffffffffffffffffffffffffffff1681526020019081526020016000206008019080519060200190610bde929190612732565b505050565b60008073ffffffffffffffffffffffffffffffffffffffff16600660008473ffffffffffffffffffffffffffffffffffffffff1673ffffffffffffffffffffffffffffffffffffffff16815260200190815260200160002060040160009054906101000a900473ffffffffffffffffffffffffffffffffffffffff1673ffffffffffffffffffffffffffffffffffffffff1614610c835760019050610c88565b600090505b919050565b60086020528060005260406000206000915054906101000a900473ffffffffffffffffffffffffffffffffffffffff1681565b80600660008473ffffffffffffffffffffffffffffffffffffffff1673ffffffffffffffffffffffffffffffffffffffff1681526020019081526020016000206006019080519060200190610d16929190612732565b505050565b60008060009054906101000a900473ffffffffffffffffffffffffffffffffffffffff1673ffffffffffffffffffffffffffffffffffffffff163373ffffffffffffffffffffffffffffffffffffffff1614610dac576040517f08c379a0000000000000000000000000000000000000000000000000000000008152600401610da3906132bd565b60405180910390fd5b816000806101000a81548173ffffffffffffffffffffffffffffffffffffffff021916908373ffffffffffffffffffffffffffffffffffffffff16021790555060008054906101000a900473ffffffffffffffffffffffffffffffffffffffff1673ffffffffffffffffffffffffffffffffffffffff163373ffffffffffffffffffffffffffffffffffffffff167f5f8b18be53cdf9843c4263461966fc46896a2d372d3fa87fc22f6cfed024186260405160405180910390a360019050919050565b6000600160009054906101000a900473ffffffffffffffffffffffffffffffffffffffff1673ffffffffffffffffffffffffffffffffffffffff163373ffffffffffffffffffffffffffffffffffffffff1614610f01576040517f08c379a0000000000000000000000000000000000000000000000000000000008152600401610ef89061329d565b60405180910390fd5b81600160006101000a81548173ffffffffffffffffffffffffffffffffffffffff021916908373ffffffffffffffffffffffffffffffffffffffff160217905550600160009054906101000a900473ffffffffffffffffffffffffffffffffffffffff1673ffffffffffffffffffffffffffffffffffffffff163373ffffffffffffffffffffffffffffffffffffffff167f76ce921e20c471c95deae34d20d53706ec4378ecab394e517f73aef912ae6cdd60405160405180910390a360019050919050565b6000600360009054906101000a900473ffffffffffffffffffffffffffffffffffffffff1673ffffffffffffffffffffffffffffffffffffffff163373ffffffffffffffffffffffffffffffffffffffff1614611059576040517f08c379a0000000000000000000000000000000000000000000000000000000008152600401611050906132bd565b60405180910390fd5b81600360006101000a81548173ffffffffffffffffffffffffffffffffffffffff021916908373ffffffffffffffffffffffffffffffffffffffff160217905550600360009054906101000a900473ffffffffffffffffffffffffffffffffffffffff1673ffffffffffffffffffffffffffffffffffffffff163373ffffffffffffffffffffffffffffffffffffffff167f317b209d0dca6ddb6667f7c47d488a9708cc0e7befa4cde41a104b125a1d9ef660405160405180910390a360019050919050565b80600660008473ffffffffffffffffffffffffffffffffffffffff1673ffffffffffffffffffffffffffffffffffffffff1681526020019081526020016000206005019080519060200190611175929190612732565b505050565b6060600660008373ffffffffffffffffffffffffffffffffffffffff1673ffffffffffffffffffffffffffffffffffffffff16815260200190815260200160002060090180548060200260200160405190810160405280929190818152602001828054801561120857602002820191906000526020600020905b8154815260200190600101908083116111f4575b50505050509050919050565b60008054906101000a900473ffffffffffffffffffffffffffffffffffffffff1673ffffffffffffffffffffffffffffffffffffffff163373ffffffffffffffffffffffffffffffffffffffff16146112a2576040517f08c379a0000000000000000000000000000000000000000000000000000000008152600401611299906132fd565b60405180910390fd5b600560008154809291906112b5906134ff565b9190505550565b80600660008473ffffffffffffffffffffffffffffffffffffffff1673ffffffffffffffffffffffffffffffffffffffff1681526020019081526020016000206007019080519060200190611312929190612732565b505050565b6000600660008373ffffffffffffffffffffffffffffffffffffffff1673ffffffffffffffffffffffffffffffffffffffff168152602001908152602001600020600701805490509050919050565b60008054906101000a900473ffffffffffffffffffffffffffffffffffffffff1681565b60008054906101000a900473ffffffffffffffffffffffffffffffffffffffff1673ffffffffffffffffffffffffffffffffffffffff163373ffffffffffffffffffffffffffffffffffffffff1614611418576040517f08c379a000000000000000000000000000000000000000000000000000000000815260040161140f906132fd565b60405180910390fd5b600660008273ffffffffffffffffffffffffffffffffffffffff1673ffffffffffffffffffffffffffffffffffffffff1681526020019081526020016000206000808201600090556001820160009055600282016000905560038201600090556004820160006101000a81549073ffffffffffffffffffffffffffffffffffffffff02191690556005820160006114af91906127bc565b6006820160006114bf91906127bc565b6007820160006114cf91906127bc565b6008820160006114df91906127bc565b6009820160006114ef91906127dd565b505050565b6000600660008373ffffffffffffffffffffffffffffffffffffffff1673ffffffffffffffffffffffffffffffffffffffff168152602001908152602001600020600101549050919050565b6000600660008373ffffffffffffffffffffffffffffffffffffffff1673ffffffffffffffffffffffffffffffffffffffff168152602001908152602001600020600001549050919050565b6115946127fe565b600660008373ffffffffffffffffffffffffffffffffffffffff1673ffffffffffffffffffffffffffffffffffffffff16815260200190815260200160002060405180610140016040529081600082015481526020016001820154815260200160028201548152602001600382015481526020016004820160009054906101000a900473ffffffffffffffffffffffffffffffffffffffff1673ffffffffffffffffffffffffffffffffffffffff1673ffffffffffffffffffffffffffffffffffffffff168152602001600582018054806020026020016040519081016040528092919081815260200182805480156116e257602002820191906000526020600020905b8160009054906101000a900473ffffffffffffffffffffffffffffffffffffffff1673ffffffffffffffffffffffffffffffffffffffff1681526020019060010190808311611698575b505050505081526020016006820180548060200260200160405190810160405280929190818152602001828054801561177057602002820191906000526020600020905b8160009054906101000a900473ffffffffffffffffffffffffffffffffffffffff1673ffffffffffffffffffffffffffffffffffffffff1681526020019060010190808311611726575b50505050508152602001600782018054806020026020016040519081016040528092919081815260200182805480156117fe57602002820191906000526020600020905b8160009054906101000a900473ffffffffffffffffffffffffffffffffffffffff1673ffffffffffffffffffffffffffffffffffffffff16815260200190600101908083116117b4575b505050505081526020016008820180548060200260200160405190810160405280929190818152602001828054801561188c57602002820191906000526020600020905b8160009054906101000a900473ffffffffffffffffffffffffffffffffffffffff1673ffffffffffffffffffffffffffffffffffffffff1681526020019060010190808311611842575b50505050508152602001600982018054806020026020016040519081016040528092919081815260200182805480156118e457602002820191906000526020600020905b8154815260200190600101908083116118d0575b5050505050815250509050919050565b60076020528060005260406000206000915054906101000a900473ffffffffffffffffffffffffffffffffffffffff1681565b60008054906101000a900473ffffffffffffffffffffffffffffffffffffffff1673ffffffffffffffffffffffffffffffffffffffff163373ffffffffffffffffffffffffffffffffffffffff16146119b5576040517f08c379a00000000000000000000000000000000000000000000000000000000081526004016119ac906132fd565b60405180910390fd5b806008600084815260200190815260200160002060006101000a81548173ffffffffffffffffffffffffffffffffffffffff021916908373ffffffffffffffffffffffffffffffffffffffff1602179055505050565b600260009054906101000a900473ffffffffffffffffffffffffffffffffffffffff1681565b600160009054906101000a900473ffffffffffffffffffffffffffffffffffffffff1681565b6000600660008373ffffffffffffffffffffffffffffffffffffffff1673ffffffffffffffffffffffffffffffffffffffff168152602001908152602001600020600801805490509050919050565b6000600660008473ffffffffffffffffffffffffffffffffffffffff1673ffffffffffffffffffffffffffffffffffffffff1681526020019081526020016000206006018281548110611afc57611afb613577565b5b9060005260206000200160009054906101000a900473ffffffffffffffffffffffffffffffffffffffff16905092915050565b6060600660008373ffffffffffffffffffffffffffffffffffffffff1673ffffffffffffffffffffffffffffffffffffffff168152602001908152602001600020600701805480602002602001604051908101604052809291908181526020018280548015611bf357602002820191906000526020600020905b8160009054906101000a900473ffffffffffffffffffffffffffffffffffffffff1673ffffffffffffffffffffffffffffffffffffffff1681526020019060010190808311611ba9575b50505050509050919050565b60008054906101000a900473ffffffffffffffffffffffffffffffffffffffff1673ffffffffffffffffffffffffffffffffffffffff163373ffffffffffffffffffffffffffffffffffffffff1614611c8d576040517f08c379a0000000000000000000000000000000000000000000000000000000008152600401611c84906132fd565b60405180910390fd5b80600660008473ffffffffffffffffffffffffffffffffffffffff1673ffffffffffffffffffffffffffffffffffffffff1681526020019081526020016000206000820151816000015560208201518160010155604082015181600201556060820151816003015560808201518160040160006101000a81548173ffffffffffffffffffffffffffffffffffffffff021916908373ffffffffffffffffffffffffffffffffffffffff16021790555060a0820151816005019080519060200190611d58929190612732565b5060c0820151816006019080519060200190611d75929190612732565b5060e0820151816007019080519060200190611d92929190612732565b50610100820151816008019080519060200190611db0929190612732565b50610120820151816009019080519060200190611dce929190612870565b5090505081600860008360400151815260200190815260200160002060006101000a81548173ffffffffffffffffffffffffffffffffffffffff021916908373ffffffffffffffffffffffffffffffffffffffff1602179055505050565b600460009054906101000a900473ffffffffffffffffffffffffffffffffffffffff1673ffffffffffffffffffffffffffffffffffffffff163373ffffffffffffffffffffffffffffffffffffffff1614611ebc576040517f08c379a0000000000000000000000000000000000000000000000000000000008152600401611eb3906132fd565b60405180910390fd5b80600660008473ffffffffffffffffffffffffffffffffffffffff1673ffffffffffffffffffffffffffffffffffffffff16815260200190815260200160002060020181905550816008600083815260200190815260200160002060006101000a81548173ffffffffffffffffffffffffffffffffffffffff021916908373ffffffffffffffffffffffffffffffffffffffff1602179055505050565b6000600660008373ffffffffffffffffffffffffffffffffffffffff1673ffffffffffffffffffffffffffffffffffffffff168152602001908152602001600020600901805490509050919050565b60066020528060005260406000206000915090508060000154908060010154908060020154908060030154908060040160009054906101000a900473ffffffffffffffffffffffffffffffffffffffff16905085565b600460009054906101000a900473ffffffffffffffffffffffffffffffffffffffff1681565b6000600660008373ffffffffffffffffffffffffffffffffffffffff1673ffffffffffffffffffffffffffffffffffffffff16815260200190815260200160002060040160009054906101000a900473ffffffffffffffffffffffffffffffffffffffff169050919050565b600360009054906101000a900473ffffffffffffffffffffffffffffffffffffffff1681565b80600660008473ffffffffffffffffffffffffffffffffffffffff1673ffffffffffffffffffffffffffffffffffffffff168152602001908152602001600020600901908051906020019061210c929190612870565b505050565b6060600660008373ffffffffffffffffffffffffffffffffffffffff1673ffffffffffffffffffffffffffffffffffffffff1681526020019081526020016000206005018054806020026020016040519081016040528092919081815260200182805480156121d557602002820191906000526020600020905b8160009054906101000a900473ffffffffffffffffffffffffffffffffffffffff1673ffffffffffffffffffffffffffffffffffffffff168152602001906001019080831161218b575b50505050509050919050565b6000600460009054906101000a900473ffffffffffffffffffffffffffffffffffffffff1673ffffffffffffffffffffffffffffffffffffffff163373ffffffffffffffffffffffffffffffffffffffff1614612273576040517f08c379a000000000000000000000000000000000000000000000000000000000815260040161226a906132bd565b60405180910390fd5b81600460006101000a81548173ffffffffffffffffffffffffffffffffffffffff021916908373ffffffffffffffffffffffffffffffffffffffff160217905550600460009054906101000a900473ffffffffffffffffffffffffffffffffffffffff1673ffffffffffffffffffffffffffffffffffffffff163373ffffffffffffffffffffffffffffffffffffffff167fdf570d582e474b2d7915b12f6f773eb74e4bc78a660caeeccf19491c8578507b60405160405180910390a360019050919050565b6000600660008373ffffffffffffffffffffffffffffffffffffffff1673ffffffffffffffffffffffffffffffffffffffff168152602001908152602001600020600501805490509050919050565b6000600660008473ffffffffffffffffffffffffffffffffffffffff1673ffffffffffffffffffffffffffffffffffffffff16815260200190815260200160002060050182815481106123de576123dd613577565b5b9060005260206000200160009054906101000a900473ffffffffffffffffffffffffffffffffffffffff16905092915050565b6060600660008373ffffffffffffffffffffffffffffffffffffffff1673ffffffffffffffffffffffffffffffffffffffff1681526020019081526020016000206006018054806020026020016040519081016040528092919081815260200182805480156124d557602002820191906000526020600020905b8160009054906101000a900473ffffffffffffffffffffffffffffffffffffffff1673ffffffffffffffffffffffffffffffffffffffff168152602001906001019080831161248b575b50505050509050919050565b600160009054906101000a900473ffffffffffffffffffffffffffffffffffffffff1673ffffffffffffffffffffffffffffffffffffffff163373ffffffffffffffffffffffffffffffffffffffff1614612571576040517f08c379a0000000000000000000000000000000000000000000000000000000008152600401612568906132fd565b60405180910390fd5b806007600084815260200190815260200160002060006101000a81548173ffffffffffffffffffffffffffffffffffffffff021916908373ffffffffffffffffffffffffffffffffffffffff1602179055505050565b6060600660008373ffffffffffffffffffffffffffffffffffffffff1673ffffffffffffffffffffffffffffffffffffffff16815260200190815260200160002060080180548060200260200160405190810160405280929190818152602001828054801561268b57602002820191906000526020600020905b8160009054906101000a900473ffffffffffffffffffffffffffffffffffffffff1673ffffffffffffffffffffffffffffffffffffffff1681526020019060010190808311612641575b50505050509050919050565b6000600660008373ffffffffffffffffffffffffffffffffffffffff1673ffffffffffffffffffffffffffffffffffffffff168152602001908152602001600020600201549050919050565b6000600660008373ffffffffffffffffffffffffffffffffffffffff1673ffffffffffffffffffffffffffffffffffffffff168152602001908152602001600020600601805490509050919050565b8280548282559060005260206000209081019282156127ab579160200282015b828111156127aa5782518260006101000a81548173ffffffffffffffffffffffffffffffffffffffff021916908373ffffffffffffffffffffffffffffffffffffffff16021790555091602001919060010190612752565b5b5090506127b891906128bd565b5090565b50805460008255906000526020600020908101906127da91906128bd565b50565b50805460008255906000526020600020908101906127fb91906128da565b50565b60405180610140016040528060008019168152602001600080191681526020016000801916815260200160008152602001600073ffffffffffffffffffffffffffffffffffffffff16815260200160608152602001606081526020016060815260200160608152602001606081525090565b8280548282559060005260206000209081019282156128ac579160200282015b828111156128ab578251825591602001919060010190612890565b5b5090506128b991906128da565b5090565b5b808211156128d65760008160009055506001016128be565b5090565b5b808211156128f35760008160009055506001016128db565b5090565b600061290a6129058461337f565b61335a565b9050808382526020820190508285602086028201111561292d5761292c6135e4565b5b60005b8581101561295d578161294388826129d7565b845260208401935060208301925050600181019050612930565b5050509392505050565b600061297a612975846133ab565b61335a565b9050808382526020820190508285602086028201111561299d5761299c6135e4565b5b60005b858110156129cd57816129b38882612a48565b8452602084019350602083019250506001810190506129a0565b5050509392505050565b6000813590506129e681613740565b92915050565b600082601f830112612a0157612a006135d5565b5b8135612a118482602086016128f7565b91505092915050565b600082601f830112612a2f57612a2e6135d5565b5b8135612a3f848260208601612967565b91505092915050565b600081359050612a5781613757565b92915050565b60006101408284031215612a7457612a736135da565b5b612a7f61014061335a565b90506000612a8f84828501612a48565b6000830152506020612aa384828501612a48565b6020830152506040612ab784828501612a48565b6040830152506060612acb84828501612bdf565b6060830152506080612adf848285016129d7565b60808301525060a082013567ffffffffffffffff811115612b0357612b026135df565b5b612b0f848285016129ec565b60a08301525060c082013567ffffffffffffffff811115612b3357612b326135df565b5b612b3f848285016129ec565b60c08301525060e082013567ffffffffffffffff811115612b6357612b626135df565b5b612b6f848285016129ec565b60e08301525061010082013567ffffffffffffffff811115612b9457612b936135df565b5b612ba0848285016129ec565b6101008301525061012082013567ffffffffffffffff811115612bc657612bc56135df565b5b612bd284828501612a1a565b6101208301525092915050565b600081359050612bee8161376e565b92915050565b600060208284031215612c0a57612c096135ee565b5b6000612c18848285016129d7565b91505092915050565b60008060408385031215612c3857612c376135ee565b5b6000612c46858286016129d7565b925050602083013567ffffffffffffffff811115612c6757612c666135e9565b5b612c73858286016129ec565b9150509250929050565b60008060408385031215612c9457612c936135ee565b5b6000612ca2858286016129d7565b925050602083013567ffffffffffffffff811115612cc357612cc26135e9565b5b612ccf85828601612a1a565b9150509250929050565b60008060408385031215612cf057612cef6135ee565b5b6000612cfe858286016129d7565b9250506020612d0f85828601612a48565b9150509250929050565b60008060408385031215612d3057612d2f6135ee565b5b6000612d3e858286016129d7565b925050602083013567ffffffffffffffff811115612d5f57612d5e6135e9565b5b612d6b85828601612a5d565b9150509250929050565b60008060408385031215612d8c57612d8b6135ee565b5b6000612d9a858286016129d7565b9250506020612dab85828601612bdf565b9150509250929050565b600060208284031215612dcb57612dca6135ee565b5b6000612dd984828501612a48565b91505092915050565b60008060408385031215612df957612df86135ee565b5b6000612e0785828601612a48565b9250506020612e18858286016129d7565b9150509250929050565b6000612e2e8383612e52565b60208301905092915050565b6000612e468383612ff7565b60208301905092915050565b612e5b8161347c565b82525050565b612e6a8161347c565b82525050565b6000612e7b826133f7565b612e858185613427565b9350612e90836133d7565b8060005b83811015612ec1578151612ea88882612e22565b9750612eb38361340d565b925050600181019050612e94565b5085935050505092915050565b6000612ed9826133f7565b612ee38185613438565b9350612eee836133d7565b8060005b83811015612f1f578151612f068882612e22565b9750612f118361340d565b925050600181019050612ef2565b5085935050505092915050565b6000612f3782613402565b612f418185613449565b9350612f4c836133e7565b8060005b83811015612f7d578151612f648882612e3a565b9750612f6f8361341a565b925050600181019050612f50565b5085935050505092915050565b6000612f9582613402565b612f9f818561345a565b9350612faa836133e7565b8060005b83811015612fdb578151612fc28882612e3a565b9750612fcd8361341a565b925050600181019050612fae565b5085935050505092915050565b612ff18161348e565b82525050565b6130008161349a565b82525050565b61300f8161349a565b82525050565b6000613022602b8361346b565b915061302d82613604565b604082019050919050565b600061304560278361346b565b915061305082613653565b604082019050919050565b600061306860248361346b565b9150613073826136a2565b604082019050919050565b600061308b60228361346b565b9150613096826136f1565b604082019050919050565b6000610140830160008301516130ba6000860182612ff7565b5060208301516130cd6020860182612ff7565b5060408301516130e06040860182612ff7565b5060608301516130f36060860182613197565b5060808301516131066080860182612e52565b5060a083015184820360a086015261311e8282612e70565b91505060c083015184820360c08601526131388282612e70565b91505060e083015184820360e08601526131528282612e70565b91505061010083015184820361010086015261316e8282612e70565b91505061012083015184820361012086015261318a8282612f2c565b9150508091505092915050565b6131a0816134c4565b82525050565b6131af816134c4565b82525050565b60006020820190506131ca6000830184612e61565b92915050565b600060208201905081810360008301526131ea8184612ece565b905092915050565b6000602082019050818103600083015261320c8184612f8a565b905092915050565b60006020820190506132296000830184612fe8565b92915050565b60006020820190506132446000830184613006565b92915050565b600060a08201905061325f6000830188613006565b61326c6020830187613006565b6132796040830186613006565b61328660608301856131a6565b6132936080830184612e61565b9695505050505050565b600060208201905081810360008301526132b681613015565b9050919050565b600060208201905081810360008301526132d681613038565b9050919050565b600060208201905081810360008301526132f68161305b565b9050919050565b600060208201905081810360008301526133168161307e565b9050919050565b6000602082019050818103600083015261333781846130a1565b905092915050565b600060208201905061335460008301846131a6565b92915050565b6000613364613375565b905061337082826134ce565b919050565b6000604051905090565b600067ffffffffffffffff82111561339a576133996135a6565b5b602082029050602081019050919050565b600067ffffffffffffffff8211156133c6576133c56135a6565b5b602082029050602081019050919050565b6000819050602082019050919050565b6000819050602082019050919050565b600081519050919050565b600081519050919050565b6000602082019050919050565b6000602082019050919050565b600082825260208201905092915050565b600082825260208201905092915050565b600082825260208201905092915050565b600082825260208201905092915050565b600082825260208201905092915050565b6000613487826134a4565b9050919050565b60008115159050919050565b6000819050919050565b600073ffffffffffffffffffffffffffffffffffffffff82169050919050565b6000819050919050565b6134d7826135f3565b810181811067ffffffffffffffff821117156134f6576134f56135a6565b5b80604052505050565b600061350a826134c4565b91507fffffffffffffffffffffffffffffffffffffffffffffffffffffffffffffffff82141561353d5761353c613548565b5b600182019050919050565b7f4e487b7100000000000000000000000000000000000000000000000000000000600052601160045260246000fd5b7f4e487b7100000000000000000000000000000000000000000000000000000000600052603260045260246000fd5b7f4e487b7100000000000000000000000000000000000000000000000000000000600052604160045260246000fd5b600080fd5b600080fd5b600080fd5b600080fd5b600080fd5b600080fd5b6000601f19601f8301169050919050565b7f4572726f723a206d73672e73656e646572206d757374206265206d656d65466160008201527f63746f72795369676e6572000000000000000000000000000000000000000000602082015250565b7f4572726f723a206d73672e73656e646572206d75737420626520666163746f7260008201527f795369676e657200000000000000000000000000000000000000000000000000602082015250565b7f4572726f723a206d73672e73656e646572206d757374206265206c696b65536960008201527f676e657200000000000000000000000000000000000000000000000000000000602082015250565b7f4572726f723a207573657220666163746f7279206d757374206265207369676e60008201527f6572000000000000000000000000000000000000000000000000000000000000602082015250565b6137498161347c565b811461375457600080fd5b50565b6137608161349a565b811461376b57600080fd5b50565b613777816134c4565b811461378257600080fd5b5056fea26469706673582212206d4d73de73fbda6018cb4d63cd34221e59e521d7962a42aa2f8aafc189c4534e64736f6c63430008070033",
  "immutableReferences": {},
  "source": "// SPDX-License-Identifier: MIT\n\npragma solidity >=0.8.0 <0.9.0;\n\ncontract UserStorage {\n  address public factorySigner;\n  address public memeFactorySigner;\n  address public likeSigner;\n  address public followSigner;\n  address public interfaceSigner;\n\n  uint public userCount = 0;\n\n  mapping(address => User) public users; // address to Users map\n  mapping(bytes32 => address) public usersByMeme; // memeId to account addresses\n  mapping(bytes32 => address) public usersByUserAddr; // userAddr to account address\n\n  struct User {\n    bytes32 id; // user number in order\n    bytes32 name; // user name\n    bytes32 userAddr; // user address (@)\n    uint time; // user creation time\n    address addr; // address of user\n    address[] followers; // addresses of followers\n    address[] following; // addressses of following\n    address[] unfollowers; // addresses of followers\n    address[] unfollowing; // addressses of following\n    bytes32[] posts; // memeIds of posts\n  }\n\n  event FactorySignerChanged(address indexed from, address indexed to);\n  event InterfaceSignerChanged(address indexed from, address indexed to);\n  event PostSignerChanged(address indexed from, address indexed to);\n  event LikeSignerChanged(address indexed from, address indexed to);\n  event FollowSignerChanged(address indexed from, address indexed to);\n\n  constructor() public {\n    factorySigner = msg.sender;\n    memeFactorySigner = msg.sender;\n    likeSigner = msg.sender;\n    followSigner = msg.sender;\n    interfaceSigner = msg.sender;\n  }\n\n\n  // Factory-Specific setters\n  function setUser(\n    address _account,\n    User memory _user\n  ) public {\n    require(\n      msg.sender==factorySigner,\n      'Error: user factory must be signer');\n    users[_account] = _user;\n    usersByUserAddr[_user.userAddr] = _account;\n  }\n  function setUsersByUserAddress(\n    bytes32 _userAddr,\n    address _account\n  ) public {\n    require(\n      msg.sender==factorySigner,\n      'Error: user factory must be signer');\n    usersByUserAddr[_userAddr] = _account;\n  }\n  function setUsersByMeme(\n    bytes32 _memeId,\n    address _account\n  ) public {\n    require(\n      msg.sender==memeFactorySigner,\n      'Error: user factory must be signer');\n    usersByMeme[_memeId] = _account;\n  }\n  function deleteUser(address _account) public {\n    require(\n      msg.sender==factorySigner,\n      'Error: user factory must be signer');\n    delete users[_account];\n  }\n  function increaseUserCount() public {\n    require(\n      msg.sender==factorySigner,\n      'Error: user factory must be signer');\n    userCount++;\n  }\n  // Setters for interface only\n  function setUserName(\n    address _account,\n    bytes32 _userName\n  ) public {\n    require(\n      msg.sender==interfaceSigner,\n      'Error: user factory must be signer');\n    users[_account].name= _userName;\n  }\n  function setUserAddress(\n    address _account,\n    bytes32 _userAddress\n  ) public {\n    require(\n      msg.sender==interfaceSigner,\n      'Error: user factory must be signer');\n    users[_account].userAddr = _userAddress;\n    usersByUserAddr[_userAddress] = _account;\n  }\n\n  // Setters for all signers\n  // set post meme\n  function setPosts(\n    address _account,\n    bytes32[] memory _posts\n  ) public {\n    users[_account].posts = _posts;\n  }\n\n  // set follow\n  function setFollowers(\n    address _account,\n    address[] memory _followers\n  ) public {\n    users[_account].followers = _followers;\n  }\n  function setFollowing(\n    address _account,\n    address[] memory _following\n  ) public {\n    users[_account].following = _following;\n  }\n  function setUnfollowers(\n    address _account,\n    address[] memory _unfollowers\n  ) public {\n    users[_account].unfollowers = _unfollowers;\n  }\n  function setUnfollowing(\n    address _account,\n    address[] memory _unfollowing\n  ) public {\n    users[_account].unfollowing = _unfollowing;\n  }\n\n  // getter functions for UserStorage\n  function userExists(address _account) public view returns(bool) {\n    if(users[_account].addr!=address(0x0)) {\n      return true;\n    }\n    else {\n      return false;\n    }\n  }\n  function getUser(address _account) public view returns(User memory){\n    return users[_account];\n  }\n  function getId(address _account) public view returns(bytes32) {\n    return users[_account].id;\n  }\n  function getName(address _account) public view returns(bytes32) {\n    return users[_account].name;\n  }\n  function getUserAddr(address _account) public view returns(bytes32) {\n    return users[_account].userAddr;\n  }\n  function getAddr(address _account) public view returns(address) {\n    return users[_account].addr;\n  }\n  function getFollowerCount(address _account) public view returns(uint) {\n    return users[_account].followers.length;\n  }\n  function getFollowers(address _account) public view returns(address[] memory) {\n    return users[_account].followers;\n  }\n  function getFollowerAt(address _account, uint _index) public view returns(address) {\n    return users[_account].followers[_index];\n  }\n  function getFollowingCount(address _account) public view returns(uint) {\n    return users[_account].following.length;\n  }\n  function getFollowing(address _account) public view returns(address[] memory) {\n    return users[_account].following;\n  }\n  function getFollowingAt(address _account, uint _index) public view returns(address) {\n    return users[_account].following[_index];\n  }\n  function getUnfollowerCount(address _account) public view returns(uint) {\n    return users[_account].unfollowers.length;\n  }\n  function getUnfollowers(address _account) public view returns(address[] memory) {\n    return users[_account].unfollowers;\n  }\n  function getUnfollowingCount(address _account) public view returns(uint) {\n    return users[_account].unfollowing.length;\n  }\n  function getUnfollowing(address _account) public view returns(address[] memory) {\n    return users[_account].unfollowing;\n  }\n  function getPostCount(address _account) public view returns (uint) {\n    return users[_account].posts.length;\n  }\n  function getPosts(address _account) public view returns (bytes32[] memory) {\n    return users[_account].posts;\n  }\n\n  // pass signer roles\n  function passFactorySigner(address _userFactory) public returns(bool){\n    require(\n      msg.sender==factorySigner,\n      'Error: msg.sender must be factorySigner');\n\n    factorySigner = _userFactory;\n    emit FactorySignerChanged(msg.sender, factorySigner);\n    return true;\n  }\n  function passInterfaceSigner(address _userInterface) public returns(bool){\n    require(\n      msg.sender==interfaceSigner,\n      'Error: msg.sender must be factorySigner');\n\n    interfaceSigner = _userInterface;\n    emit InterfaceSignerChanged(msg.sender, interfaceSigner);\n    return true;\n  }\n  function passMemeFactorySigner(address _memeFactory) public returns(bool){\n    require(\n      msg.sender==memeFactorySigner,\n      'Error: msg.sender must be memeFactorySigner');\n\n    memeFactorySigner = _memeFactory;\n    emit PostSignerChanged(msg.sender, memeFactorySigner);\n    return true;\n  }\n  function passLikeSigner(address _likeSigner) public returns(bool){\n    require(\n      msg.sender==likeSigner,\n      'Error: msg.sender must be likeSigner');\n\n    likeSigner = _likeSigner;\n    emit LikeSignerChanged(msg.sender, likeSigner);\n    return true;\n  }\n  function passFollowSigner(address _followSigner) public returns(bool){\n    require(\n      msg.sender==followSigner,\n      'Error: msg.sender must be factorySigner');\n\n    followSigner = _followSigner;\n    emit FollowSignerChanged(msg.sender, followSigner);\n    return true;\n  }\n}\n",
  "sourcePath": "/Users/jaiq/Documents/000 BLOCKCHAIN/ETH/uMe/src/contracts/UserStorage.sol",
  "compiler": {
    "name": "solc",
    "version": "0.8.7+commit.e28d00a7.Emscripten.clang"
  },
  "schemaVersion": "3.4.3",
  "updatedAt": "2021-09-04T21:19:45.333Z",
  "networkType": "ethereum",
  "devdoc": {
    "kind": "dev",
    "methods": {},
    "version": 1
  },
  "userdoc": {
    "kind": "user",
    "methods": {},
    "version": 1
  }
}