{
  "contractName": "User",
  "abi": [
    {
      "inputs": [
        {
          "internalType": "contract UME",
          "name": "_umeToken",
          "type": "address"
        },
        {
          "internalType": "contract Post",
          "name": "_post",
          "type": "address"
        }
      ],
      "stateMutability": "nonpayable",
      "type": "constructor"
    },
    {
      "inputs": [],
      "name": "name",
      "outputs": [
        {
          "internalType": "string",
          "name": "",
          "type": "string"
        }
      ],
      "stateMutability": "view",
      "type": "function",
      "constant": true
    },
    {
      "inputs": [],
      "name": "userCount",
      "outputs": [
        {
          "internalType": "uint256",
          "name": "",
          "type": "uint256"
        }
      ],
      "stateMutability": "view",
      "type": "function",
      "constant": true
    },
    {
      "inputs": [
        {
          "internalType": "address",
          "name": "",
          "type": "address"
        }
      ],
      "name": "users",
      "outputs": [
        {
          "internalType": "uint256",
          "name": "id",
          "type": "uint256"
        },
        {
          "internalType": "string",
          "name": "name",
          "type": "string"
        },
        {
          "internalType": "string",
          "name": "userAddr",
          "type": "string"
        },
        {
          "internalType": "uint256",
          "name": "time",
          "type": "uint256"
        },
        {
          "internalType": "address",
          "name": "addr",
          "type": "address"
        },
        {
          "internalType": "uint256",
          "name": "followerCount",
          "type": "uint256"
        },
        {
          "internalType": "uint256",
          "name": "followingCount",
          "type": "uint256"
        },
        {
          "internalType": "uint256",
          "name": "postCount",
          "type": "uint256"
        }
      ],
      "stateMutability": "view",
      "type": "function",
      "constant": true
    },
    {
      "inputs": [
        {
          "internalType": "uint256",
          "name": "",
          "type": "uint256"
        }
      ],
      "name": "usersByMeme",
      "outputs": [
        {
          "internalType": "address",
          "name": "",
          "type": "address"
        }
      ],
      "stateMutability": "view",
      "type": "function",
      "constant": true
    },
    {
      "inputs": [
        {
          "internalType": "address",
          "name": "account",
          "type": "address"
        },
        {
          "internalType": "string",
          "name": "userName",
          "type": "string"
        },
        {
          "internalType": "string",
          "name": "userAddress",
          "type": "string"
        }
      ],
      "name": "newAccount",
      "outputs": [],
      "stateMutability": "nonpayable",
      "type": "function"
    },
    {
      "inputs": [
        {
          "internalType": "address",
          "name": "account",
          "type": "address"
        },
        {
          "internalType": "string",
          "name": "postText",
          "type": "string"
        },
        {
          "internalType": "address[]",
          "name": "tags",
          "type": "address[]"
        },
        {
          "internalType": "uint256",
          "name": "parentId",
          "type": "uint256"
        },
        {
          "internalType": "uint256",
          "name": "originId",
          "type": "uint256"
        }
      ],
      "name": "newMeme",
      "outputs": [],
      "stateMutability": "nonpayable",
      "type": "function"
    },
    {
      "inputs": [
        {
          "internalType": "address",
          "name": "account",
          "type": "address"
        },
        {
          "internalType": "uint256",
          "name": "memeId",
          "type": "uint256"
        }
      ],
      "name": "deletePost",
      "outputs": [],
      "stateMutability": "nonpayable",
      "type": "function"
    },
    {
      "inputs": [
        {
          "internalType": "address",
          "name": "account",
          "type": "address"
        },
        {
          "internalType": "uint256",
          "name": "memeId",
          "type": "uint256"
        }
      ],
      "name": "likeMeme",
      "outputs": [],
      "stateMutability": "nonpayable",
      "type": "function"
    },
    {
      "inputs": [
        {
          "internalType": "address",
          "name": "accountFrom",
          "type": "address"
        },
        {
          "internalType": "address",
          "name": "accountTo",
          "type": "address"
        }
      ],
      "name": "follow",
      "outputs": [],
      "stateMutability": "nonpayable",
      "type": "function"
    },
    {
      "inputs": [
        {
          "internalType": "address",
          "name": "account",
          "type": "address"
        }
      ],
      "name": "getId",
      "outputs": [
        {
          "internalType": "uint256",
          "name": "",
          "type": "uint256"
        }
      ],
      "stateMutability": "view",
      "type": "function",
      "constant": true
    },
    {
      "inputs": [
        {
          "internalType": "address",
          "name": "account",
          "type": "address"
        }
      ],
      "name": "getName",
      "outputs": [
        {
          "internalType": "string",
          "name": "",
          "type": "string"
        }
      ],
      "stateMutability": "view",
      "type": "function",
      "constant": true
    },
    {
      "inputs": [
        {
          "internalType": "address",
          "name": "account",
          "type": "address"
        }
      ],
      "name": "getUserAddr",
      "outputs": [
        {
          "internalType": "string",
          "name": "",
          "type": "string"
        }
      ],
      "stateMutability": "view",
      "type": "function",
      "constant": true
    },
    {
      "inputs": [
        {
          "internalType": "address",
          "name": "account",
          "type": "address"
        }
      ],
      "name": "getFollowerCount",
      "outputs": [
        {
          "internalType": "uint256",
          "name": "",
          "type": "uint256"
        }
      ],
      "stateMutability": "view",
      "type": "function",
      "constant": true
    },
    {
      "inputs": [
        {
          "internalType": "address",
          "name": "account",
          "type": "address"
        }
      ],
      "name": "getFollowers",
      "outputs": [
        {
          "internalType": "address[]",
          "name": "",
          "type": "address[]"
        }
      ],
      "stateMutability": "view",
      "type": "function",
      "constant": true
    },
    {
      "inputs": [
        {
          "internalType": "address",
          "name": "account",
          "type": "address"
        }
      ],
      "name": "getFollowingCount",
      "outputs": [
        {
          "internalType": "uint256",
          "name": "",
          "type": "uint256"
        }
      ],
      "stateMutability": "view",
      "type": "function",
      "constant": true
    },
    {
      "inputs": [
        {
          "internalType": "address",
          "name": "account",
          "type": "address"
        }
      ],
      "name": "getFollowing",
      "outputs": [
        {
          "internalType": "address[]",
          "name": "",
          "type": "address[]"
        }
      ],
      "stateMutability": "view",
      "type": "function",
      "constant": true
    },
    {
      "inputs": [
        {
          "internalType": "address",
          "name": "account",
          "type": "address"
        }
      ],
      "name": "getPostCount",
      "outputs": [
        {
          "internalType": "uint256",
          "name": "",
          "type": "uint256"
        }
      ],
      "stateMutability": "view",
      "type": "function",
      "constant": true
    },
    {
      "inputs": [
        {
          "internalType": "address",
          "name": "account",
          "type": "address"
        }
      ],
      "name": "getPosts",
      "outputs": [
        {
          "internalType": "uint256[]",
          "name": "",
          "type": "uint256[]"
        }
      ],
      "stateMutability": "view",
      "type": "function",
      "constant": true
    }
  ],
  "bytecode": "0x60806040526040518060400160405280600381526020017f754d650000000000000000000000000000000000000000000000000000000000815250600290805190602001906200005192919062000113565b5060006003553480156200006457600080fd5b506040516200477f3803806200477f83398181016040528101906200008a9190620001f1565b816000806101000a81548173ffffffffffffffffffffffffffffffffffffffff021916908373ffffffffffffffffffffffffffffffffffffffff16021790555080600160006101000a81548173ffffffffffffffffffffffffffffffffffffffff021916908373ffffffffffffffffffffffffffffffffffffffff160217905550505062000332565b828054620001219062000294565b90600052602060002090601f01602090048101928262000145576000855562000191565b82601f106200016057805160ff191683800117855562000191565b8280016001018555821562000191579182015b828111156200019057825182559160200191906001019062000173565b5b509050620001a09190620001a4565b5090565b5b80821115620001bf576000816000905550600101620001a5565b5090565b600081519050620001d481620002fe565b92915050565b600081519050620001eb8162000318565b92915050565b600080604083850312156200020b576200020a620002f9565b5b60006200021b85828601620001da565b92505060206200022e85828601620001c3565b9150509250929050565b6000620002458262000274565b9050919050565b6000620002598262000238565b9050919050565b60006200026d8262000238565b9050919050565b600073ffffffffffffffffffffffffffffffffffffffff82169050919050565b60006002820490506001821680620002ad57607f821691505b60208210811415620002c457620002c3620002ca565b5b50919050565b7f4e487b7100000000000000000000000000000000000000000000000000000000600052602260045260246000fd5b600080fd5b62000309816200024c565b81146200031557600080fd5b50565b620003238162000260565b81146200032f57600080fd5b50565b61443d80620003426000396000f3fe608060405234801561001057600080fd5b50600436106101165760003560e01c80639eaa2ad2116100a2578063c77e786e11610071578063c77e786e1461031e578063cb04c9701461033a578063d8236dff1461036a578063e8fc954e1461039a578063fab7d536146103ca57610116565b80639eaa2ad214610257578063a4c7fafa14610287578063a87430ba146102b7578063c2fe2022146102ee57610116565b80634caf9d0b116100e95780634caf9d0b1461018f5780635fd4b08a146101bf57806365f68c89146101ef578063848315e91461021f57806399d147c21461023b57610116565b806306fdde031461011b57806307973ccf1461013957806308e5c7ae146101575780630956848d14610173575b600080fd5b6101236103fa565b6040516101309190613a31565b60405180910390f35b610141610488565b60405161014e9190613bf3565b60405180910390f35b610171600480360381019061016c919061341f565b61048e565b005b61018d6004803603810190610188919061355d565b610e10565b005b6101a960048036038101906101a491906133b2565b61145a565b6040516101b69190613a0f565b60405180910390f35b6101d960048036038101906101d491906133b2565b6114f4565b6040516101e69190613a31565b60405180910390f35b610209600480360381019061020491906133b2565b6115c8565b6040516102169190613bf3565b60405180910390f35b610239600480360381019061023491906134d2565b611614565b005b610255600480360381019061025091906133df565b6119b8565b005b610271600480360381019061026c919061359d565b611b3a565b60405161027e919061391f565b60405180910390f35b6102a1600480360381019061029c91906133b2565b611b6d565b6040516102ae9190613bf3565b60405180910390f35b6102d160048036038101906102cc91906133b2565b611bb9565b6040516102e5989796959493929190613c0e565b60405180910390f35b610308600480360381019061030391906133b2565b611d31565b60405161031591906139ed565b60405180910390f35b6103386004803603810190610333919061355d565b611e01565b005b610354600480360381019061034f91906133b2565b612129565b6040516103619190613bf3565b60405180910390f35b610384600480360381019061037f91906133b2565b612175565b60405161039191906139ed565b60405180910390f35b6103b460048036038101906103af91906133b2565b612245565b6040516103c19190613a31565b60405180910390f35b6103e460048036038101906103df91906133b2565b612319565b6040516103f19190613bf3565b60405180910390f35b6002805461040790613edc565b80601f016020809104026020016040519081016040528092919081815260200182805461043390613edc565b80156104805780601f1061045557610100808354040283529160200191610480565b820191906000526020600020905b81548152906001019060200180831161046357829003601f168201915b505050505081565b60035481565b3373ffffffffffffffffffffffffffffffffffffffff168573ffffffffffffffffffffffffffffffffffffffff16146104fc576040517f08c379a00000000000000000000000000000000000000000000000000000000081526004016104f390613bb3565b60405180910390fd5b6000845111610540576040517f08c379a000000000000000000000000000000000000000000000000000000000815260040161053790613b73565b60405180910390fd5b600073ffffffffffffffffffffffffffffffffffffffff16600460008773ffffffffffffffffffffffffffffffffffffffff1673ffffffffffffffffffffffffffffffffffffffff16815260200190815260200160002060040160009054906101000a900473ffffffffffffffffffffffffffffffffffffffff1673ffffffffffffffffffffffffffffffffffffffff161415610612576040517f08c379a000000000000000000000000000000000000000000000000000000000815260040161060990613b33565b60405180910390fd5b600160009054906101000a900473ffffffffffffffffffffffffffffffffffffffff1673ffffffffffffffffffffffffffffffffffffffff166308e5c7ae86868686866040518663ffffffff1660e01b8152600401610675959493929190613963565b600060405180830381600087803b15801561068f57600080fd5b505af11580156106a3573d6000803e3d6000fd5b505050506000600460008773ffffffffffffffffffffffffffffffffffffffff1673ffffffffffffffffffffffffffffffffffffffff168152602001908152602001600020604051806101600160405290816000820154815260200160018201805461070e90613edc565b80601f016020809104026020016040519081016040528092919081815260200182805461073a90613edc565b80156107875780601f1061075c57610100808354040283529160200191610787565b820191906000526020600020905b81548152906001019060200180831161076a57829003601f168201915b505050505081526020016002820180546107a090613edc565b80601f01602080910402602001604051908101604052809291908181526020018280546107cc90613edc565b80156108195780601f106107ee57610100808354040283529160200191610819565b820191906000526020600020905b8154815290600101906020018083116107fc57829003601f168201915b50505050508152602001600382015481526020016004820160009054906101000a900473ffffffffffffffffffffffffffffffffffffffff1673ffffffffffffffffffffffffffffffffffffffff1673ffffffffffffffffffffffffffffffffffffffff168152602001600582015481526020016006820180548060200260200160405190810160405280929190818152602001828054801561091157602002820191906000526020600020905b8160009054906101000a900473ffffffffffffffffffffffffffffffffffffffff1673ffffffffffffffffffffffffffffffffffffffff16815260200190600101908083116108c7575b5050505050815260200160078201548152602001600882018054806020026020016040519081016040528092919081815260200182805480156109a957602002820191906000526020600020905b8160009054906101000a900473ffffffffffffffffffffffffffffffffffffffff1673ffffffffffffffffffffffffffffffffffffffff168152602001906001019080831161095f575b5050505050815260200160098201548152602001600a8201805480602002602001604051908101604052809291908181526020018280548015610a0b57602002820191906000526020600020905b8154815260200190600101908083116109f7575b50505050508152505090506000600182610140015151610a2b9190613daa565b67ffffffffffffffff811115610a4457610a43614015565b5b604051908082528060200260200182016040528015610a725781602001602082028036833780820191505090505b50905060005b82610140015151811015610ad8578261014001518181518110610a9e57610a9d613fe6565b5b6020026020010151828281518110610ab957610ab8613fe6565b5b6020026020010181815250508080610ad090613f3f565b915050610a78565b5081610120018051809190610aec90613f3f565b81525050600160009054906101000a900473ffffffffffffffffffffffffffffffffffffffff1673ffffffffffffffffffffffffffffffffffffffff16637b2124d26040518163ffffffff1660e01b815260040160206040518083038186803b158015610b5857600080fd5b505afa158015610b6c573d6000803e3d6000fd5b505050506040513d601f19601f82011682018060405250810190610b9091906135ca565b8160018351610b9f9190613e00565b81518110610bb057610baf613fe6565b5b6020026020010181815250508082610140018190525081600460008973ffffffffffffffffffffffffffffffffffffffff1673ffffffffffffffffffffffffffffffffffffffff168152602001908152602001600020600082015181600001556020820151816001019080519060200190610c2c9291906130eb565b506040820151816002019080519060200190610c499291906130eb565b506060820151816003015560808201518160040160006101000a81548173ffffffffffffffffffffffffffffffffffffffff021916908373ffffffffffffffffffffffffffffffffffffffff16021790555060a0820151816005015560c0820151816006019080519060200190610cc1929190613171565b5060e08201518160070155610100820151816008019080519060200190610ce9929190613171565b50610120820151816009015561014082015181600a019080519060200190610d129291906131fb565b509050503360056000600160009054906101000a900473ffffffffffffffffffffffffffffffffffffffff1673ffffffffffffffffffffffffffffffffffffffff16637b2124d26040518163ffffffff1660e01b815260040160206040518083038186803b158015610d8357600080fd5b505afa158015610d97573d6000803e3d6000fd5b505050506040513d601f19601f82011682018060405250810190610dbb91906135ca565b815260200190815260200160002060006101000a81548173ffffffffffffffffffffffffffffffffffffffff021916908373ffffffffffffffffffffffffffffffffffffffff16021790555050505050505050565b3373ffffffffffffffffffffffffffffffffffffffff168273ffffffffffffffffffffffffffffffffffffffff1614610e7e576040517f08c379a0000000000000000000000000000000000000000000000000000000008152600401610e7590613bd3565b60405180910390fd5b600160009054906101000a900473ffffffffffffffffffffffffffffffffffffffff1673ffffffffffffffffffffffffffffffffffffffff1663b617e9c483836040518363ffffffff1660e01b8152600401610edb9291906139c4565b600060405180830381600087803b158015610ef557600080fd5b505af1158015610f09573d6000803e3d6000fd5b505050506000600460008473ffffffffffffffffffffffffffffffffffffffff1673ffffffffffffffffffffffffffffffffffffffff1681526020019081526020016000206040518061016001604052908160008201548152602001600182018054610f7490613edc565b80601f0160208091040260200160405190810160405280929190818152602001828054610fa090613edc565b8015610fed5780601f10610fc257610100808354040283529160200191610fed565b820191906000526020600020905b815481529060010190602001808311610fd057829003601f168201915b5050505050815260200160028201805461100690613edc565b80601f016020809104026020016040519081016040528092919081815260200182805461103290613edc565b801561107f5780601f106110545761010080835404028352916020019161107f565b820191906000526020600020905b81548152906001019060200180831161106257829003601f168201915b50505050508152602001600382015481526020016004820160009054906101000a900473ffffffffffffffffffffffffffffffffffffffff1673ffffffffffffffffffffffffffffffffffffffff1673ffffffffffffffffffffffffffffffffffffffff168152602001600582015481526020016006820180548060200260200160405190810160405280929190818152602001828054801561117757602002820191906000526020600020905b8160009054906101000a900473ffffffffffffffffffffffffffffffffffffffff1673ffffffffffffffffffffffffffffffffffffffff168152602001906001019080831161112d575b50505050508152602001600782015481526020016008820180548060200260200160405190810160405280929190818152602001828054801561120f57602002820191906000526020600020905b8160009054906101000a900473ffffffffffffffffffffffffffffffffffffffff1673ffffffffffffffffffffffffffffffffffffffff16815260200190600101908083116111c5575b5050505050815260200160098201548152602001600a820180548060200260200160405190810160405280929190818152602001828054801561127157602002820191906000526020600020905b81548152602001906001019080831161125d575b5050505050815250509050600080600090505b826101400151518110156112d4578383610140015182815181106112ab576112aa613fe6565b5b602002602001015114156112c1578091506112d4565b80806112cc90613f3f565b915050611284565b50816101200180518091906112e890613eb2565b815250506112fb82610140015182612365565b82610140018190525081600460008673ffffffffffffffffffffffffffffffffffffffff1673ffffffffffffffffffffffffffffffffffffffff16815260200190815260200160002060008201518160000155602082015181600101908051906020019061136a9291906130eb565b5060408201518160020190805190602001906113879291906130eb565b506060820151816003015560808201518160040160006101000a81548173ffffffffffffffffffffffffffffffffffffffff021916908373ffffffffffffffffffffffffffffffffffffffff16021790555060a0820151816005015560c08201518160060190805190602001906113ff929190613171565b5060e08201518160070155610100820151816008019080519060200190611427929190613171565b50610120820151816009015561014082015181600a0190805190602001906114509291906131fb565b5090505050505050565b6060600460008373ffffffffffffffffffffffffffffffffffffffff1673ffffffffffffffffffffffffffffffffffffffff168152602001908152602001600020600a018054806020026020016040519081016040528092919081815260200182805480156114e857602002820191906000526020600020905b8154815260200190600101908083116114d4575b50505050509050919050565b6060600460008373ffffffffffffffffffffffffffffffffffffffff1673ffffffffffffffffffffffffffffffffffffffff168152602001908152602001600020600101805461154390613edc565b80601f016020809104026020016040519081016040528092919081815260200182805461156f90613edc565b80156115bc5780601f10611591576101008083540402835291602001916115bc565b820191906000526020600020905b81548152906001019060200180831161159f57829003601f168201915b50505050509050919050565b6000600460008373ffffffffffffffffffffffffffffffffffffffff1673ffffffffffffffffffffffffffffffffffffffff168152602001908152602001600020600001549050919050565b8273ffffffffffffffffffffffffffffffffffffffff163373ffffffffffffffffffffffffffffffffffffffff1614611682576040517f08c379a000000000000000000000000000000000000000000000000000000000815260040161167990613b13565b60405180910390fd5b60008251116116c6576040517f08c379a00000000000000000000000000000000000000000000000000000000081526004016116bd90613a73565b60405180910390fd5b600081511161170a576040517f08c379a000000000000000000000000000000000000000000000000000000000815260040161170190613ab3565b60405180910390fd5b6003600081548092919061171d90613f3f565b919050555060405180610160016040528060035481526020018381526020018281526020014281526020018473ffffffffffffffffffffffffffffffffffffffff16815260200160008152602001600067ffffffffffffffff81111561178657611785614015565b5b6040519080825280602002602001820160405280156117b45781602001602082028036833780820191505090505b50815260200160008152602001600067ffffffffffffffff8111156117dc576117db614015565b5b60405190808252806020026020018201604052801561180a5781602001602082028036833780820191505090505b50815260200160008152602001600067ffffffffffffffff81111561183257611831614015565b5b6040519080825280602002602001820160405280156118605781602001602082028036833780820191505090505b50815250600460008573ffffffffffffffffffffffffffffffffffffffff1673ffffffffffffffffffffffffffffffffffffffff1681526020019081526020016000206000820151816000015560208201518160010190805190602001906118c99291906130eb565b5060408201518160020190805190602001906118e69291906130eb565b506060820151816003015560808201518160040160006101000a81548173ffffffffffffffffffffffffffffffffffffffff021916908373ffffffffffffffffffffffffffffffffffffffff16021790555060a0820151816005015560c082015181600601908051906020019061195e929190613171565b5060e08201518160070155610100820151816008019080519060200190611986929190613171565b50610120820151816009015561014082015181600a0190805190602001906119af9291906131fb565b50905050505050565b3373ffffffffffffffffffffffffffffffffffffffff168273ffffffffffffffffffffffffffffffffffffffff1614611a26576040517f08c379a0000000000000000000000000000000000000000000000000000000008152600401611a1d90613af3565b60405180910390fd5b8073ffffffffffffffffffffffffffffffffffffffff168273ffffffffffffffffffffffffffffffffffffffff161415611a95576040517f08c379a0000000000000000000000000000000000000000000000000000000008152600401611a8c90613b53565b60405180910390fd5b611a9f828261248d565b611aa98282612aba565b60008054906101000a900473ffffffffffffffffffffffffffffffffffffffff1673ffffffffffffffffffffffffffffffffffffffff16632d599ba533836040518363ffffffff1660e01b8152600401611b0492919061393a565b600060405180830381600087803b158015611b1e57600080fd5b505af1158015611b32573d6000803e3d6000fd5b505050505050565b60056020528060005260406000206000915054906101000a900473ffffffffffffffffffffffffffffffffffffffff1681565b6000600460008373ffffffffffffffffffffffffffffffffffffffff1673ffffffffffffffffffffffffffffffffffffffff168152602001908152602001600020600901549050919050565b6004602052806000526040600020600091509050806000015490806001018054611be290613edc565b80601f0160208091040260200160405190810160405280929190818152602001828054611c0e90613edc565b8015611c5b5780601f10611c3057610100808354040283529160200191611c5b565b820191906000526020600020905b815481529060010190602001808311611c3e57829003601f168201915b505050505090806002018054611c7090613edc565b80601f0160208091040260200160405190810160405280929190818152602001828054611c9c90613edc565b8015611ce95780601f10611cbe57610100808354040283529160200191611ce9565b820191906000526020600020905b815481529060010190602001808311611ccc57829003601f168201915b5050505050908060030154908060040160009054906101000a900473ffffffffffffffffffffffffffffffffffffffff16908060050154908060070154908060090154905088565b6060600460008373ffffffffffffffffffffffffffffffffffffffff1673ffffffffffffffffffffffffffffffffffffffff168152602001908152602001600020600601805480602002602001604051908101604052809291908181526020018280548015611df557602002820191906000526020600020905b8160009054906101000a900473ffffffffffffffffffffffffffffffffffffffff1673ffffffffffffffffffffffffffffffffffffffff1681526020019060010190808311611dab575b50505050509050919050565b6005600082815260200190815260200160002060009054906101000a900473ffffffffffffffffffffffffffffffffffffffff1673ffffffffffffffffffffffffffffffffffffffff168273ffffffffffffffffffffffffffffffffffffffff161415611ea3576040517f08c379a0000000000000000000000000000000000000000000000000000000008152600401611e9a90613a93565b60405180910390fd5b3373ffffffffffffffffffffffffffffffffffffffff168273ffffffffffffffffffffffffffffffffffffffff1614611f11576040517f08c379a0000000000000000000000000000000000000000000000000000000008152600401611f0890613ad3565b60405180910390fd5b600073ffffffffffffffffffffffffffffffffffffffff166005600083815260200190815260200160002060009054906101000a900473ffffffffffffffffffffffffffffffffffffffff1673ffffffffffffffffffffffffffffffffffffffff161415611fb4576040517f08c379a0000000000000000000000000000000000000000000000000000000008152600401611fab90613a53565b60405180910390fd5b6000600160009054906101000a900473ffffffffffffffffffffffffffffffffffffffff1673ffffffffffffffffffffffffffffffffffffffff16637b2124d26040518163ffffffff1660e01b815260040160206040518083038186803b15801561201e57600080fd5b505afa158015612032573d6000803e3d6000fd5b505050506040513d601f19601f8201168201806040525081019061205691906135ca565b11612096576040517f08c379a000000000000000000000000000000000000000000000000000000000815260040161208d90613b93565b60405180910390fd5b600160009054906101000a900473ffffffffffffffffffffffffffffffffffffffff1673ffffffffffffffffffffffffffffffffffffffff1663c77e786e83836040518363ffffffff1660e01b81526004016120f39291906139c4565b600060405180830381600087803b15801561210d57600080fd5b505af1158015612121573d6000803e3d6000fd5b505050505050565b6000600460008373ffffffffffffffffffffffffffffffffffffffff1673ffffffffffffffffffffffffffffffffffffffff168152602001908152602001600020600501549050919050565b6060600460008373ffffffffffffffffffffffffffffffffffffffff1673ffffffffffffffffffffffffffffffffffffffff16815260200190815260200160002060080180548060200260200160405190810160405280929190818152602001828054801561223957602002820191906000526020600020905b8160009054906101000a900473ffffffffffffffffffffffffffffffffffffffff1673ffffffffffffffffffffffffffffffffffffffff16815260200190600101908083116121ef575b50505050509050919050565b6060600460008373ffffffffffffffffffffffffffffffffffffffff1673ffffffffffffffffffffffffffffffffffffffff168152602001908152602001600020600201805461229490613edc565b80601f01602080910402602001604051908101604052809291908181526020018280546122c090613edc565b801561230d5780601f106122e25761010080835404028352916020019161230d565b820191906000526020600020905b8154815290600101906020018083116122f057829003601f168201915b50505050509050919050565b6000600460008373ffffffffffffffffffffffffffffffffffffffff1673ffffffffffffffffffffffffffffffffffffffff168152602001908152602001600020600701549050919050565b60606000600184516123779190613e00565b67ffffffffffffffff8111156123905761238f614015565b5b6040519080825280602002602001820160405280156123be5781602001602082028036833780820191505090505b50905060005b83811015612419578481815181106123df576123de613fe6565b5b60200260200101518282815181106123fa576123f9613fe6565b5b602002602001018181525050808061241190613f3f565b9150506123c4565b5060008390505b815181101561248257846001826124379190613daa565b8151811061244857612447613fe6565b5b602002602001015182828151811061246357612462613fe6565b5b602002602001018181525050808061247a90613f3f565b915050612420565b508091505092915050565b6000600460008373ffffffffffffffffffffffffffffffffffffffff1673ffffffffffffffffffffffffffffffffffffffff16815260200190815260200160002060405180610160016040529081600082015481526020016001820180546124f490613edc565b80601f016020809104026020016040519081016040528092919081815260200182805461252090613edc565b801561256d5780601f106125425761010080835404028352916020019161256d565b820191906000526020600020905b81548152906001019060200180831161255057829003601f168201915b5050505050815260200160028201805461258690613edc565b80601f01602080910402602001604051908101604052809291908181526020018280546125b290613edc565b80156125ff5780601f106125d4576101008083540402835291602001916125ff565b820191906000526020600020905b8154815290600101906020018083116125e257829003601f168201915b50505050508152602001600382015481526020016004820160009054906101000a900473ffffffffffffffffffffffffffffffffffffffff1673ffffffffffffffffffffffffffffffffffffffff1673ffffffffffffffffffffffffffffffffffffffff16815260200160058201548152602001600682018054806020026020016040519081016040528092919081815260200182805480156126f757602002820191906000526020600020905b8160009054906101000a900473ffffffffffffffffffffffffffffffffffffffff1673ffffffffffffffffffffffffffffffffffffffff16815260200190600101908083116126ad575b50505050508152602001600782015481526020016008820180548060200260200160405190810160405280929190818152602001828054801561278f57602002820191906000526020600020905b8160009054906101000a900473ffffffffffffffffffffffffffffffffffffffff1673ffffffffffffffffffffffffffffffffffffffff1681526020019060010190808311612745575b5050505050815260200160098201548152602001600a82018054806020026020016040519081016040528092919081815260200182805480156127f157602002820191906000526020600020905b8154815260200190600101908083116127dd575b50505050508152505090508060a001805180919061280e90613f3f565b81525050600060018260c00151516128269190613daa565b67ffffffffffffffff81111561283f5761283e614015565b5b60405190808252806020026020018201604052801561286d5781602001602082028036833780820191505090505b50905060005b8260c00151518110156128ff578260c00151818151811061289757612896613fe6565b5b60200260200101518282815181106128b2576128b1613fe6565b5b602002602001019073ffffffffffffffffffffffffffffffffffffffff16908173ffffffffffffffffffffffffffffffffffffffff168152505080806128f790613f3f565b915050612873565b508381600183516129109190613e00565b8151811061292157612920613fe6565b5b602002602001019073ffffffffffffffffffffffffffffffffffffffff16908173ffffffffffffffffffffffffffffffffffffffff1681525050808260c0018190525081600460008573ffffffffffffffffffffffffffffffffffffffff1673ffffffffffffffffffffffffffffffffffffffff1681526020019081526020016000206000820151816000015560208201518160010190805190602001906129ca9291906130eb565b5060408201518160020190805190602001906129e79291906130eb565b506060820151816003015560808201518160040160006101000a81548173ffffffffffffffffffffffffffffffffffffffff021916908373ffffffffffffffffffffffffffffffffffffffff16021790555060a0820151816005015560c0820151816006019080519060200190612a5f929190613171565b5060e08201518160070155610100820151816008019080519060200190612a87929190613171565b50610120820151816009015561014082015181600a019080519060200190612ab09291906131fb565b5090505050505050565b6000600460008473ffffffffffffffffffffffffffffffffffffffff1673ffffffffffffffffffffffffffffffffffffffff1681526020019081526020016000206040518061016001604052908160008201548152602001600182018054612b2190613edc565b80601f0160208091040260200160405190810160405280929190818152602001828054612b4d90613edc565b8015612b9a5780601f10612b6f57610100808354040283529160200191612b9a565b820191906000526020600020905b815481529060010190602001808311612b7d57829003601f168201915b50505050508152602001600282018054612bb390613edc565b80601f0160208091040260200160405190810160405280929190818152602001828054612bdf90613edc565b8015612c2c5780601f10612c0157610100808354040283529160200191612c2c565b820191906000526020600020905b815481529060010190602001808311612c0f57829003601f168201915b50505050508152602001600382015481526020016004820160009054906101000a900473ffffffffffffffffffffffffffffffffffffffff1673ffffffffffffffffffffffffffffffffffffffff1673ffffffffffffffffffffffffffffffffffffffff1681526020016005820154815260200160068201805480602002602001604051908101604052809291908181526020018280548015612d2457602002820191906000526020600020905b8160009054906101000a900473ffffffffffffffffffffffffffffffffffffffff1673ffffffffffffffffffffffffffffffffffffffff1681526020019060010190808311612cda575b505050505081526020016007820154815260200160088201805480602002602001604051908101604052809291908181526020018280548015612dbc57602002820191906000526020600020905b8160009054906101000a900473ffffffffffffffffffffffffffffffffffffffff1673ffffffffffffffffffffffffffffffffffffffff1681526020019060010190808311612d72575b5050505050815260200160098201548152602001600a8201805480602002602001604051908101604052809291908181526020018280548015612e1e57602002820191906000526020600020905b815481526020019060010190808311612e0a575b50505050508152505090508060e0018051809190612e3b90613f3f565b815250506000600182610100015151612e549190613daa565b67ffffffffffffffff811115612e6d57612e6c614015565b5b604051908082528060200260200182016040528015612e9b5781602001602082028036833780820191505090505b50905060005b82610100015151811015612f2f578261010001518181518110612ec757612ec6613fe6565b5b6020026020010151828281518110612ee257612ee1613fe6565b5b602002602001019073ffffffffffffffffffffffffffffffffffffffff16908173ffffffffffffffffffffffffffffffffffffffff16815250508080612f2790613f3f565b915050612ea1565b50828160018351612f409190613e00565b81518110612f5157612f50613fe6565b5b602002602001019073ffffffffffffffffffffffffffffffffffffffff16908173ffffffffffffffffffffffffffffffffffffffff16815250508082610100018190525081600460008673ffffffffffffffffffffffffffffffffffffffff1673ffffffffffffffffffffffffffffffffffffffff168152602001908152602001600020600082015181600001556020820151816001019080519060200190612ffb9291906130eb565b5060408201518160020190805190602001906130189291906130eb565b506060820151816003015560808201518160040160006101000a81548173ffffffffffffffffffffffffffffffffffffffff021916908373ffffffffffffffffffffffffffffffffffffffff16021790555060a0820151816005015560c0820151816006019080519060200190613090929190613171565b5060e082015181600701556101008201518160080190805190602001906130b8929190613171565b50610120820151816009015561014082015181600a0190805190602001906130e19291906131fb565b5090505050505050565b8280546130f790613edc565b90600052602060002090601f0160209004810192826131195760008555613160565b82601f1061313257805160ff1916838001178555613160565b82800160010185558215613160579182015b8281111561315f578251825591602001919060010190613144565b5b50905061316d9190613248565b5090565b8280548282559060005260206000209081019282156131ea579160200282015b828111156131e95782518260006101000a81548173ffffffffffffffffffffffffffffffffffffffff021916908373ffffffffffffffffffffffffffffffffffffffff16021790555091602001919060010190613191565b5b5090506131f79190613248565b5090565b828054828255906000526020600020908101928215613237579160200282015b8281111561323657825182559160200191906001019061321b565b5b5090506132449190613248565b5090565b5b80821115613261576000816000905550600101613249565b5090565b600061327861327384613cbf565b613c9a565b9050808382526020820190508285602086028201111561329b5761329a614049565b5b60005b858110156132cb57816132b18882613317565b84526020840193506020830192505060018101905061329e565b5050509392505050565b60006132e86132e384613ceb565b613c9a565b9050828152602081018484840111156133045761330361404e565b5b61330f848285613e70565b509392505050565b600081359050613326816143d9565b92915050565b600082601f83011261334157613340614044565b5b8135613351848260208601613265565b91505092915050565b600082601f83011261336f5761336e614044565b5b813561337f8482602086016132d5565b91505092915050565b600081359050613397816143f0565b92915050565b6000815190506133ac816143f0565b92915050565b6000602082840312156133c8576133c7614058565b5b60006133d684828501613317565b91505092915050565b600080604083850312156133f6576133f5614058565b5b600061340485828601613317565b925050602061341585828601613317565b9150509250929050565b600080600080600060a0868803121561343b5761343a614058565b5b600061344988828901613317565b955050602086013567ffffffffffffffff81111561346a57613469614053565b5b6134768882890161335a565b945050604086013567ffffffffffffffff81111561349757613496614053565b5b6134a38882890161332c565b93505060606134b488828901613388565b92505060806134c588828901613388565b9150509295509295909350565b6000806000606084860312156134eb576134ea614058565b5b60006134f986828701613317565b935050602084013567ffffffffffffffff81111561351a57613519614053565b5b6135268682870161335a565b925050604084013567ffffffffffffffff81111561354757613546614053565b5b6135538682870161335a565b9150509250925092565b6000806040838503121561357457613573614058565b5b600061358285828601613317565b925050602061359385828601613388565b9150509250929050565b6000602082840312156135b3576135b2614058565b5b60006135c184828501613388565b91505092915050565b6000602082840312156135e0576135df614058565b5b60006135ee8482850161339d565b91505092915050565b60006136038383613627565b60208301905092915050565b600061361b8383613901565b60208301905092915050565b61363081613e34565b82525050565b61363f81613e34565b82525050565b600061365082613d3c565b61365a8185613d77565b935061366583613d1c565b8060005b8381101561369657815161367d88826135f7565b975061368883613d5d565b925050600181019050613669565b5085935050505092915050565b60006136ae82613d47565b6136b88185613d88565b93506136c383613d2c565b8060005b838110156136f45781516136db888261360f565b97506136e683613d6a565b9250506001810190506136c7565b5085935050505092915050565b600061370c82613d52565b6137168185613d99565b9350613726818560208601613e7f565b61372f8161405d565b840191505092915050565b6000613747602383613d99565b91506137528261406e565b604082019050919050565b600061376a602483613d99565b9150613775826140bd565b604082019050919050565b600061378d602183613d99565b91506137988261410c565b604082019050919050565b60006137b0602783613d99565b91506137bb8261415b565b604082019050919050565b60006137d3602683613d99565b91506137de826141aa565b604082019050919050565b60006137f6602983613d99565b9150613801826141f9565b604082019050919050565b6000613819602683613d99565b915061382482614248565b604082019050919050565b600061383c602083613d99565b915061384782614297565b602082019050919050565b600061385f601383613d99565b915061386a826142c0565b602082019050919050565b6000613882601a83613d99565b915061388d826142e9565b602082019050919050565b60006138a5601883613d99565b91506138b082614312565b602082019050919050565b60006138c8602183613d99565b91506138d38261433b565b604082019050919050565b60006138eb602583613d99565b91506138f68261438a565b604082019050919050565b61390a81613e66565b82525050565b61391981613e66565b82525050565b60006020820190506139346000830184613636565b92915050565b600060408201905061394f6000830185613636565b61395c6020830184613636565b9392505050565b600060a0820190506139786000830188613636565b818103602083015261398a8187613701565b9050818103604083015261399e8186613645565b90506139ad6060830185613910565b6139ba6080830184613910565b9695505050505050565b60006040820190506139d96000830185613636565b6139e66020830184613910565b9392505050565b60006020820190508181036000830152613a078184613645565b905092915050565b60006020820190508181036000830152613a2981846136a3565b905092915050565b60006020820190508181036000830152613a4b8184613701565b905092915050565b60006020820190508181036000830152613a6c8161373a565b9050919050565b60006020820190508181036000830152613a8c8161375d565b9050919050565b60006020820190508181036000830152613aac81613780565b9050919050565b60006020820190508181036000830152613acc816137a3565b9050919050565b60006020820190508181036000830152613aec816137c6565b9050919050565b60006020820190508181036000830152613b0c816137e9565b9050919050565b60006020820190508181036000830152613b2c8161380c565b9050919050565b60006020820190508181036000830152613b4c8161382f565b9050919050565b60006020820190508181036000830152613b6c81613852565b9050919050565b60006020820190508181036000830152613b8c81613875565b9050919050565b60006020820190508181036000830152613bac81613898565b9050919050565b60006020820190508181036000830152613bcc816138bb565b9050919050565b60006020820190508181036000830152613bec816138de565b9050919050565b6000602082019050613c086000830184613910565b92915050565b600061010082019050613c24600083018b613910565b8181036020830152613c36818a613701565b90508181036040830152613c4a8189613701565b9050613c596060830188613910565b613c666080830187613636565b613c7360a0830186613910565b613c8060c0830185613910565b613c8d60e0830184613910565b9998505050505050505050565b6000613ca4613cb5565b9050613cb08282613f0e565b919050565b6000604051905090565b600067ffffffffffffffff821115613cda57613cd9614015565b5b602082029050602081019050919050565b600067ffffffffffffffff821115613d0657613d05614015565b5b613d0f8261405d565b9050602081019050919050565b6000819050602082019050919050565b6000819050602082019050919050565b600081519050919050565b600081519050919050565b600081519050919050565b6000602082019050919050565b6000602082019050919050565b600082825260208201905092915050565b600082825260208201905092915050565b600082825260208201905092915050565b6000613db582613e66565b9150613dc083613e66565b9250827fffffffffffffffffffffffffffffffffffffffffffffffffffffffffffffffff03821115613df557613df4613f88565b5b828201905092915050565b6000613e0b82613e66565b9150613e1683613e66565b925082821015613e2957613e28613f88565b5b828203905092915050565b6000613e3f82613e46565b9050919050565b600073ffffffffffffffffffffffffffffffffffffffff82169050919050565b6000819050919050565b82818337600083830152505050565b60005b83811015613e9d578082015181840152602081019050613e82565b83811115613eac576000848401525b50505050565b6000613ebd82613e66565b91506000821415613ed157613ed0613f88565b5b600182039050919050565b60006002820490506001821680613ef457607f821691505b60208210811415613f0857613f07613fb7565b5b50919050565b613f178261405d565b810181811067ffffffffffffffff82111715613f3657613f35614015565b5b80604052505050565b6000613f4a82613e66565b91507fffffffffffffffffffffffffffffffffffffffffffffffffffffffffffffffff821415613f7d57613f7c613f88565b5b600182019050919050565b7f4e487b7100000000000000000000000000000000000000000000000000000000600052601160045260246000fd5b7f4e487b7100000000000000000000000000000000000000000000000000000000600052602260045260246000fd5b7f4e487b7100000000000000000000000000000000000000000000000000000000600052603260045260246000fd5b7f4e487b7100000000000000000000000000000000000000000000000000000000600052604160045260246000fd5b600080fd5b600080fd5b600080fd5b600080fd5b600080fd5b6000601f19601f8301169050919050565b7f4572726f723a204d656d65206c696b6564206d7573742068617665206164647260008201527f6573730000000000000000000000000000000000000000000000000000000000602082015250565b7f4572726f723a20757365724e616d65206d75737420686176652063686172616360008201527f7465727300000000000000000000000000000000000000000000000000000000602082015250565b7f4572726f723a2063616e6e6f74206c696b65206f6e652773206f776e206d656d60008201527f6500000000000000000000000000000000000000000000000000000000000000602082015250565b7f4572726f723a207573657241646472657373206d75737420686176652063686160008201527f7261637465727300000000000000000000000000000000000000000000000000602082015250565b7f4572726f723a206c696b6572206d757374206265206f7065726174696e67206160008201527f63636f756e740000000000000000000000000000000000000000000000000000602082015250565b7f4572726f723a20666f6c6c6f776572206d757374206265206f7065726174696e60008201527f67206163636f756e740000000000000000000000000000000000000000000000602082015250565b7f4572726f723a206163636f756e74206d757374206265206163636f756e74206360008201527f726561746f720000000000000000000000000000000000000000000000000000602082015250565b7f4572726f723a207573657220646f65736e27742068617665206163636f756e74600082015250565b7f4572726f723a2073616d65206163636f756e7400000000000000000000000000600082015250565b7f4572726f723a206d656d65206d75737420686176652074657874000000000000600082015250565b7f4572726f723a204d656d65206d75737420686176652069640000000000000000600082015250565b7f4572726f723a2077726f6e67206163636f756e742063616c6c696e6720706f7360008201527f7400000000000000000000000000000000000000000000000000000000000000602082015250565b7f526571756972653a206f6e6c79206163636f756e742063616e2064656c65746560008201527f206d656d65000000000000000000000000000000000000000000000000000000602082015250565b6143e281613e34565b81146143ed57600080fd5b50565b6143f981613e66565b811461440457600080fd5b5056fea2646970667358221220320b409d6418a33cf8767bc3f8db408feff079a442bb2238250041e65bbfc19564736f6c63430008070033",
  "immutableReferences": {},
  "source": "// SPDX-License-Identifier: MIT\n\npragma solidity >=0.8.0 <0.9.0;\n\nimport \"./UME.sol\";\nimport \"./Post.sol\";\n\ncontract User {\n\n  UME private umeToken;\n  Post private post;\n\n  string public name = \"uMe\";\n  uint public userCount = 0;\n\n  mapping(address => User) public users; // address to Users map\n  mapping(uint => address) public usersByMeme; // memeId to user addresses\n\n  struct User {\n    uint id; // user number in order\n    string name; // user name\n    string userAddr; // user address (@)\n    uint time; // user creation time\n    address addr; // address of user\n    uint followerCount; // user follower count\n    address[] followers; // addresses of followers\n    uint followingCount; // user following count\n    address[] following; // addressses of following\n    uint postCount; // post count\n    uint[] posts; // memeIds of posts\n  }\n\n  constructor(UME _umeToken, Post _post) public {\n    umeToken = _umeToken;\n    post = _post;\n  }\n\n  function newAccount(address account, string memory userName, string memory userAddress) public {\n    require(msg.sender==account, 'Error: account must be account creator');\n    require(bytes(userName).length > 0, 'Error: userName must have characters');\n    require(bytes(userAddress).length > 0, 'Error: userAddress must have characters');\n    userCount++;\n    users[account] = User(\n      userCount, // user id\n      userName, // user name\n      userAddress, // user address\n      block.timestamp, // user creation time\n      account, // address of user\n      0, // follower count\n      new address[](0), // addresses of followers\n      0, // following count\n      new address[](0), // addresses of following\n      0, // post count\n      new uint[](0) // memeIds of posts\n    );\n  }\n\n  function newMeme(address account, string memory postText, address[] memory tags, uint parentId, uint originId) public {\n    require(account==msg.sender, 'Error: wrong account calling post');\n    require(bytes(postText).length > 0, 'Error: meme must have text');\n    require(users[account].addr!=address(0x0), 'Error: user doesn\\'t have account');\n    post.newMeme(account, postText, tags, parentId, originId);\n    // set meme to user address\n    User memory _user = users[account];\n     // create memory array with length one greater than _user.posts length\n     uint[] memory _posts = new uint[](_user.posts.length+1);\n     // populate memory array\n     for(uint i = 0; i < _user.posts.length; i++) {\n       _posts[i] = _user.posts[i];\n     }\n     // increment postCount\n     _user.postCount++;\n     // insert new post in last slot of array\n     _posts[_posts.length-1] = post.memeCount();\n     // set posts of _user instance to _posts\n     _user.posts = _posts;\n     users[account] = _user;\n     usersByMeme[post.memeCount()] = msg.sender;\n  }\n  function deletePost(address account, uint memeId) public {\n    require(account==msg.sender, 'Require: only account can delete meme');\n    post.deleteMeme(account, memeId);\n    User memory _user = users[account];\n     uint memeIndex;\n     for(uint i = 0; i < _user.posts.length; i++) {\n       if(_user.posts[i]==memeId) {\n         memeIndex = i;\n         break;\n       }\n     }\n     _user.postCount--;\n     _user.posts = _deleteUints(_user.posts, memeIndex);\n     users[account] = _user;\n  }\n\n\n  // like functions\n  function likeMeme(address account, uint memeId) public {\n     require(account!=usersByMeme[memeId], 'Error: cannot like one\\'s own meme');\n     require(account==msg.sender, 'Error: liker must be operating account');\n     require(usersByMeme[memeId]!=address(0x0), 'Error: Meme liked must have address');\n     require(post.memeCount() > 0, 'Error: Meme must have id');\n\n     post.likeMeme(account, memeId);\n   }\n\n  function follow(address accountFrom, address accountTo) public {\n    require(accountFrom==msg.sender, 'Error: follower must be operating account');\n    require(accountFrom!=accountTo, 'Error: same account');\n\n    _addFollower(accountFrom, accountTo);\n    _addFollowing(accountFrom, accountTo);\n\n    umeToken.mintFollow(msg.sender, accountTo);\n  }\n  function _addFollower(address accountFrom, address accountTo) private {\n    User memory _userTo = users[accountTo];\n    // incrememnt _userTo instance's followerCount\n    _userTo.followerCount++;\n    // create new memory instance of an array one larger than current follower count\n    address[] memory _followers = new address[](_userTo.followers.length+1);\n    for (uint i = 0; i < _userTo.followers.length; i++) {\n      _followers[i] = _userTo.followers[i];\n    }\n    // set last element in new array to accountFrom\n    _followers[_followers.length-1] = accountFrom;\n    _userTo.followers = _followers;\n    // update instance to blockchain\n    users[accountTo] = _userTo;\n  }\n  function _addFollowing(address accountFrom, address accountTo) private {\n    User memory _userFrom = users[accountFrom];\n    // incrememnt _userTo instance's followerCount\n    _userFrom.followingCount++;\n    // create new memory instance of an array one larger than current follower count\n    address[] memory _following = new address[](_userFrom.following.length+1);\n    for (uint i = 0; i < _userFrom.following.length; i++) {\n      _following[i] = _userFrom.following[i];\n    }\n    // set last element in new array to accountTo\n    _following[_following.length-1] = accountTo;\n    _userFrom.following  = _following;\n    // update instance to blockchain\n    users[accountFrom] = _userFrom;\n  }\n\n  // getter functions for User\n  function getId(address account) public view returns(uint) {\n    return users[account].id;\n  }\n  function getName(address account) public view returns(string memory) {\n    return users[account].name;\n  }\n  function getUserAddr(address account) public view returns(string memory) {\n    return users[account].userAddr;\n  }\n  function getFollowerCount(address account) public view returns(uint) {\n    return users[account].followerCount;\n  }\n  function getFollowers(address account) public view returns(address[] memory) {\n    return users[account].followers;\n  }\n  function getFollowingCount(address account) public view returns(uint) {\n    return users[account].followingCount;\n  }\n  function getFollowing(address account) public view returns(address[] memory) {\n    return users[account].following;\n  }\n  function getPostCount(address account) public view returns (uint) {\n    return users[account].postCount;\n  }\n  function getPosts(address account) public view returns (uint[] memory) {\n    return users[account].posts;\n  }\n  function _deleteUints(uint[] memory array, uint index) private returns(uint[] memory) {\n    uint[] memory _array = new uint[](array.length-1);\n    for(uint i = 0; i < index; i++) {\n      _array[i] = array[i];\n    }\n    for(uint i = index; i < _array.length; i++) {\n      _array[i] = array[i+1];\n    }\n    return _array;\n  }\n}\n",
  "sourcePath": "/Users/jaiq/Documents/000 BLOCKCHAIN/ETH/uMe/src/contracts/User.sol",
  "compiler": {
    "name": "solc",
    "version": "0.8.7+commit.e28d00a7.Emscripten.clang"
  },
  "schemaVersion": "3.4.3",
  "updatedAt": "2021-08-22T07:48:18.540Z",
  "networkType": "ethereum",
  "devdoc": {
    "kind": "dev",
    "methods": {},
    "version": 1
  },
  "userdoc": {
    "kind": "user",
    "methods": {},
    "version": 1
  }
}