{
  "contractName": "UserStorage",
  "abi": [
    {
      "inputs": [],
      "stateMutability": "nonpayable",
      "type": "constructor"
    },
    {
      "anonymous": false,
      "inputs": [
        {
          "indexed": true,
          "internalType": "address",
          "name": "from",
          "type": "address"
        },
        {
          "indexed": true,
          "internalType": "address",
          "name": "to",
          "type": "address"
        }
      ],
      "name": "FactorySignerChanged",
      "type": "event"
    },
    {
      "anonymous": false,
      "inputs": [
        {
          "indexed": true,
          "internalType": "address",
          "name": "from",
          "type": "address"
        },
        {
          "indexed": true,
          "internalType": "address",
          "name": "to",
          "type": "address"
        }
      ],
      "name": "FollowSignerChanged",
      "type": "event"
    },
    {
      "anonymous": false,
      "inputs": [
        {
          "indexed": true,
          "internalType": "address",
          "name": "from",
          "type": "address"
        },
        {
          "indexed": true,
          "internalType": "address",
          "name": "to",
          "type": "address"
        }
      ],
      "name": "InterfaceSignerChanged",
      "type": "event"
    },
    {
      "anonymous": false,
      "inputs": [
        {
          "indexed": true,
          "internalType": "address",
          "name": "from",
          "type": "address"
        },
        {
          "indexed": true,
          "internalType": "address",
          "name": "to",
          "type": "address"
        }
      ],
      "name": "LikeSignerChanged",
      "type": "event"
    },
    {
      "anonymous": false,
      "inputs": [
        {
          "indexed": true,
          "internalType": "address",
          "name": "from",
          "type": "address"
        },
        {
          "indexed": true,
          "internalType": "address",
          "name": "to",
          "type": "address"
        }
      ],
      "name": "PostSignerChanged",
      "type": "event"
    },
    {
      "inputs": [],
      "name": "factorySigner",
      "outputs": [
        {
          "internalType": "address",
          "name": "",
          "type": "address"
        }
      ],
      "stateMutability": "view",
      "type": "function",
      "constant": true
    },
    {
      "inputs": [],
      "name": "followSigner",
      "outputs": [
        {
          "internalType": "address",
          "name": "",
          "type": "address"
        }
      ],
      "stateMutability": "view",
      "type": "function",
      "constant": true
    },
    {
      "inputs": [],
      "name": "interfaceSigner",
      "outputs": [
        {
          "internalType": "address",
          "name": "",
          "type": "address"
        }
      ],
      "stateMutability": "view",
      "type": "function",
      "constant": true
    },
    {
      "inputs": [],
      "name": "likeSigner",
      "outputs": [
        {
          "internalType": "address",
          "name": "",
          "type": "address"
        }
      ],
      "stateMutability": "view",
      "type": "function",
      "constant": true
    },
    {
      "inputs": [],
      "name": "memeFactorySigner",
      "outputs": [
        {
          "internalType": "address",
          "name": "",
          "type": "address"
        }
      ],
      "stateMutability": "view",
      "type": "function",
      "constant": true
    },
    {
      "inputs": [],
      "name": "userCount",
      "outputs": [
        {
          "internalType": "uint256",
          "name": "",
          "type": "uint256"
        }
      ],
      "stateMutability": "view",
      "type": "function",
      "constant": true
    },
    {
      "inputs": [
        {
          "internalType": "address",
          "name": "",
          "type": "address"
        }
      ],
      "name": "users",
      "outputs": [
        {
          "internalType": "bytes32",
          "name": "id",
          "type": "bytes32"
        },
        {
          "internalType": "bytes32",
          "name": "name",
          "type": "bytes32"
        },
        {
          "internalType": "bytes32",
          "name": "userAddr",
          "type": "bytes32"
        },
        {
          "internalType": "uint256",
          "name": "time",
          "type": "uint256"
        },
        {
          "internalType": "address",
          "name": "addr",
          "type": "address"
        },
        {
          "internalType": "string",
          "name": "bio",
          "type": "string"
        },
        {
          "internalType": "string",
          "name": "profilePic",
          "type": "string"
        }
      ],
      "stateMutability": "view",
      "type": "function",
      "constant": true
    },
    {
      "inputs": [
        {
          "internalType": "bytes32",
          "name": "",
          "type": "bytes32"
        }
      ],
      "name": "usersByMeme",
      "outputs": [
        {
          "internalType": "address",
          "name": "",
          "type": "address"
        }
      ],
      "stateMutability": "view",
      "type": "function",
      "constant": true
    },
    {
      "inputs": [
        {
          "internalType": "bytes32",
          "name": "",
          "type": "bytes32"
        }
      ],
      "name": "usersByUserAddr",
      "outputs": [
        {
          "internalType": "address",
          "name": "",
          "type": "address"
        }
      ],
      "stateMutability": "view",
      "type": "function",
      "constant": true
    },
    {
      "inputs": [
        {
          "internalType": "address",
          "name": "_account",
          "type": "address"
        },
        {
          "components": [
            {
              "internalType": "bytes32",
              "name": "id",
              "type": "bytes32"
            },
            {
              "internalType": "bytes32",
              "name": "name",
              "type": "bytes32"
            },
            {
              "internalType": "bytes32",
              "name": "userAddr",
              "type": "bytes32"
            },
            {
              "internalType": "uint256",
              "name": "time",
              "type": "uint256"
            },
            {
              "internalType": "address",
              "name": "addr",
              "type": "address"
            },
            {
              "internalType": "string",
              "name": "bio",
              "type": "string"
            },
            {
              "internalType": "string",
              "name": "profilePic",
              "type": "string"
            },
            {
              "internalType": "address[]",
              "name": "followers",
              "type": "address[]"
            },
            {
              "internalType": "address[]",
              "name": "following",
              "type": "address[]"
            },
            {
              "internalType": "address[]",
              "name": "unfollowers",
              "type": "address[]"
            },
            {
              "internalType": "address[]",
              "name": "unfollowing",
              "type": "address[]"
            },
            {
              "internalType": "bytes32[]",
              "name": "posts",
              "type": "bytes32[]"
            }
          ],
          "internalType": "struct UserStorage.User",
          "name": "_user",
          "type": "tuple"
        }
      ],
      "name": "setUser",
      "outputs": [],
      "stateMutability": "nonpayable",
      "type": "function"
    },
    {
      "inputs": [
        {
          "internalType": "bytes32",
          "name": "_userAddr",
          "type": "bytes32"
        },
        {
          "internalType": "address",
          "name": "_account",
          "type": "address"
        }
      ],
      "name": "setUsersByUserAddress",
      "outputs": [],
      "stateMutability": "nonpayable",
      "type": "function"
    },
    {
      "inputs": [
        {
          "internalType": "bytes32",
          "name": "_memeId",
          "type": "bytes32"
        },
        {
          "internalType": "address",
          "name": "_account",
          "type": "address"
        }
      ],
      "name": "setUsersByMeme",
      "outputs": [],
      "stateMutability": "nonpayable",
      "type": "function"
    },
    {
      "inputs": [
        {
          "internalType": "address",
          "name": "_account",
          "type": "address"
        }
      ],
      "name": "deleteUser",
      "outputs": [],
      "stateMutability": "nonpayable",
      "type": "function"
    },
    {
      "inputs": [],
      "name": "increaseUserCount",
      "outputs": [],
      "stateMutability": "nonpayable",
      "type": "function"
    },
    {
      "inputs": [
        {
          "internalType": "address",
          "name": "_account",
          "type": "address"
        },
        {
          "internalType": "bytes32",
          "name": "_userName",
          "type": "bytes32"
        }
      ],
      "name": "setUserName",
      "outputs": [],
      "stateMutability": "nonpayable",
      "type": "function"
    },
    {
      "inputs": [
        {
          "internalType": "address",
          "name": "_account",
          "type": "address"
        },
        {
          "internalType": "bytes32",
          "name": "_userAddress",
          "type": "bytes32"
        }
      ],
      "name": "setUserAddress",
      "outputs": [],
      "stateMutability": "nonpayable",
      "type": "function"
    },
    {
      "inputs": [
        {
          "internalType": "address",
          "name": "_account",
          "type": "address"
        },
        {
          "internalType": "string",
          "name": "_bio",
          "type": "string"
        }
      ],
      "name": "setBio",
      "outputs": [],
      "stateMutability": "nonpayable",
      "type": "function"
    },
    {
      "inputs": [
        {
          "internalType": "address",
          "name": "_account",
          "type": "address"
        },
        {
          "internalType": "string",
          "name": "_imgHash",
          "type": "string"
        }
      ],
      "name": "setProfilePic",
      "outputs": [],
      "stateMutability": "nonpayable",
      "type": "function"
    },
    {
      "inputs": [
        {
          "internalType": "address",
          "name": "_account",
          "type": "address"
        },
        {
          "internalType": "bytes32[]",
          "name": "_posts",
          "type": "bytes32[]"
        }
      ],
      "name": "setPosts",
      "outputs": [],
      "stateMutability": "nonpayable",
      "type": "function"
    },
    {
      "inputs": [
        {
          "internalType": "address",
          "name": "_account",
          "type": "address"
        },
        {
          "internalType": "address[]",
          "name": "_followers",
          "type": "address[]"
        }
      ],
      "name": "setFollowers",
      "outputs": [],
      "stateMutability": "nonpayable",
      "type": "function"
    },
    {
      "inputs": [
        {
          "internalType": "address",
          "name": "_account",
          "type": "address"
        },
        {
          "internalType": "address[]",
          "name": "_following",
          "type": "address[]"
        }
      ],
      "name": "setFollowing",
      "outputs": [],
      "stateMutability": "nonpayable",
      "type": "function"
    },
    {
      "inputs": [
        {
          "internalType": "address",
          "name": "_account",
          "type": "address"
        },
        {
          "internalType": "address[]",
          "name": "_unfollowers",
          "type": "address[]"
        }
      ],
      "name": "setUnfollowers",
      "outputs": [],
      "stateMutability": "nonpayable",
      "type": "function"
    },
    {
      "inputs": [
        {
          "internalType": "address",
          "name": "_account",
          "type": "address"
        },
        {
          "internalType": "address[]",
          "name": "_unfollowing",
          "type": "address[]"
        }
      ],
      "name": "setUnfollowing",
      "outputs": [],
      "stateMutability": "nonpayable",
      "type": "function"
    },
    {
      "inputs": [
        {
          "internalType": "address",
          "name": "_account",
          "type": "address"
        }
      ],
      "name": "userExists",
      "outputs": [
        {
          "internalType": "bool",
          "name": "",
          "type": "bool"
        }
      ],
      "stateMutability": "view",
      "type": "function",
      "constant": true
    },
    {
      "inputs": [
        {
          "internalType": "bytes32",
          "name": "_userAddress",
          "type": "bytes32"
        }
      ],
      "name": "userAddressExists",
      "outputs": [
        {
          "internalType": "bool",
          "name": "",
          "type": "bool"
        }
      ],
      "stateMutability": "view",
      "type": "function",
      "constant": true
    },
    {
      "inputs": [
        {
          "internalType": "address",
          "name": "_account",
          "type": "address"
        }
      ],
      "name": "getUser",
      "outputs": [
        {
          "components": [
            {
              "internalType": "bytes32",
              "name": "id",
              "type": "bytes32"
            },
            {
              "internalType": "bytes32",
              "name": "name",
              "type": "bytes32"
            },
            {
              "internalType": "bytes32",
              "name": "userAddr",
              "type": "bytes32"
            },
            {
              "internalType": "uint256",
              "name": "time",
              "type": "uint256"
            },
            {
              "internalType": "address",
              "name": "addr",
              "type": "address"
            },
            {
              "internalType": "string",
              "name": "bio",
              "type": "string"
            },
            {
              "internalType": "string",
              "name": "profilePic",
              "type": "string"
            },
            {
              "internalType": "address[]",
              "name": "followers",
              "type": "address[]"
            },
            {
              "internalType": "address[]",
              "name": "following",
              "type": "address[]"
            },
            {
              "internalType": "address[]",
              "name": "unfollowers",
              "type": "address[]"
            },
            {
              "internalType": "address[]",
              "name": "unfollowing",
              "type": "address[]"
            },
            {
              "internalType": "bytes32[]",
              "name": "posts",
              "type": "bytes32[]"
            }
          ],
          "internalType": "struct UserStorage.User",
          "name": "",
          "type": "tuple"
        }
      ],
      "stateMutability": "view",
      "type": "function",
      "constant": true
    },
    {
      "inputs": [
        {
          "internalType": "address",
          "name": "_account",
          "type": "address"
        }
      ],
      "name": "getId",
      "outputs": [
        {
          "internalType": "bytes32",
          "name": "",
          "type": "bytes32"
        }
      ],
      "stateMutability": "view",
      "type": "function",
      "constant": true
    },
    {
      "inputs": [
        {
          "internalType": "address",
          "name": "_account",
          "type": "address"
        }
      ],
      "name": "getName",
      "outputs": [
        {
          "internalType": "bytes32",
          "name": "",
          "type": "bytes32"
        }
      ],
      "stateMutability": "view",
      "type": "function",
      "constant": true
    },
    {
      "inputs": [
        {
          "internalType": "address",
          "name": "_account",
          "type": "address"
        }
      ],
      "name": "getUserAddr",
      "outputs": [
        {
          "internalType": "bytes32",
          "name": "",
          "type": "bytes32"
        }
      ],
      "stateMutability": "view",
      "type": "function",
      "constant": true
    },
    {
      "inputs": [
        {
          "internalType": "address",
          "name": "_account",
          "type": "address"
        }
      ],
      "name": "getAddr",
      "outputs": [
        {
          "internalType": "address",
          "name": "",
          "type": "address"
        }
      ],
      "stateMutability": "view",
      "type": "function",
      "constant": true
    },
    {
      "inputs": [
        {
          "internalType": "address",
          "name": "_account",
          "type": "address"
        }
      ],
      "name": "getBio",
      "outputs": [
        {
          "internalType": "string",
          "name": "",
          "type": "string"
        }
      ],
      "stateMutability": "view",
      "type": "function",
      "constant": true
    },
    {
      "inputs": [
        {
          "internalType": "address",
          "name": "_account",
          "type": "address"
        }
      ],
      "name": "getProfilePic",
      "outputs": [
        {
          "internalType": "string",
          "name": "",
          "type": "string"
        }
      ],
      "stateMutability": "view",
      "type": "function",
      "constant": true
    },
    {
      "inputs": [
        {
          "internalType": "address",
          "name": "_account",
          "type": "address"
        }
      ],
      "name": "getFollowerCount",
      "outputs": [
        {
          "internalType": "uint256",
          "name": "",
          "type": "uint256"
        }
      ],
      "stateMutability": "view",
      "type": "function",
      "constant": true
    },
    {
      "inputs": [
        {
          "internalType": "address",
          "name": "_account",
          "type": "address"
        }
      ],
      "name": "getFollowers",
      "outputs": [
        {
          "internalType": "address[]",
          "name": "",
          "type": "address[]"
        }
      ],
      "stateMutability": "view",
      "type": "function",
      "constant": true
    },
    {
      "inputs": [
        {
          "internalType": "address",
          "name": "_account",
          "type": "address"
        },
        {
          "internalType": "uint256",
          "name": "_index",
          "type": "uint256"
        }
      ],
      "name": "getFollowerAt",
      "outputs": [
        {
          "internalType": "address",
          "name": "",
          "type": "address"
        }
      ],
      "stateMutability": "view",
      "type": "function",
      "constant": true
    },
    {
      "inputs": [
        {
          "internalType": "address",
          "name": "_account",
          "type": "address"
        }
      ],
      "name": "getFollowingCount",
      "outputs": [
        {
          "internalType": "uint256",
          "name": "",
          "type": "uint256"
        }
      ],
      "stateMutability": "view",
      "type": "function",
      "constant": true
    },
    {
      "inputs": [
        {
          "internalType": "address",
          "name": "_account",
          "type": "address"
        }
      ],
      "name": "getFollowing",
      "outputs": [
        {
          "internalType": "address[]",
          "name": "",
          "type": "address[]"
        }
      ],
      "stateMutability": "view",
      "type": "function",
      "constant": true
    },
    {
      "inputs": [
        {
          "internalType": "address",
          "name": "_account",
          "type": "address"
        },
        {
          "internalType": "uint256",
          "name": "_index",
          "type": "uint256"
        }
      ],
      "name": "getFollowingAt",
      "outputs": [
        {
          "internalType": "address",
          "name": "",
          "type": "address"
        }
      ],
      "stateMutability": "view",
      "type": "function",
      "constant": true
    },
    {
      "inputs": [
        {
          "internalType": "address",
          "name": "_account",
          "type": "address"
        }
      ],
      "name": "getUnfollowerCount",
      "outputs": [
        {
          "internalType": "uint256",
          "name": "",
          "type": "uint256"
        }
      ],
      "stateMutability": "view",
      "type": "function",
      "constant": true
    },
    {
      "inputs": [
        {
          "internalType": "address",
          "name": "_account",
          "type": "address"
        }
      ],
      "name": "getUnfollowers",
      "outputs": [
        {
          "internalType": "address[]",
          "name": "",
          "type": "address[]"
        }
      ],
      "stateMutability": "view",
      "type": "function",
      "constant": true
    },
    {
      "inputs": [
        {
          "internalType": "address",
          "name": "_account",
          "type": "address"
        }
      ],
      "name": "getUnfollowingCount",
      "outputs": [
        {
          "internalType": "uint256",
          "name": "",
          "type": "uint256"
        }
      ],
      "stateMutability": "view",
      "type": "function",
      "constant": true
    },
    {
      "inputs": [
        {
          "internalType": "address",
          "name": "_account",
          "type": "address"
        }
      ],
      "name": "getUnfollowing",
      "outputs": [
        {
          "internalType": "address[]",
          "name": "",
          "type": "address[]"
        }
      ],
      "stateMutability": "view",
      "type": "function",
      "constant": true
    },
    {
      "inputs": [
        {
          "internalType": "address",
          "name": "_account",
          "type": "address"
        }
      ],
      "name": "getPostCount",
      "outputs": [
        {
          "internalType": "uint256",
          "name": "",
          "type": "uint256"
        }
      ],
      "stateMutability": "view",
      "type": "function",
      "constant": true
    },
    {
      "inputs": [
        {
          "internalType": "address",
          "name": "_account",
          "type": "address"
        }
      ],
      "name": "getPosts",
      "outputs": [
        {
          "internalType": "bytes32[]",
          "name": "",
          "type": "bytes32[]"
        }
      ],
      "stateMutability": "view",
      "type": "function",
      "constant": true
    },
    {
      "inputs": [
        {
          "internalType": "address",
          "name": "_userFactory",
          "type": "address"
        }
      ],
      "name": "passFactorySigner",
      "outputs": [
        {
          "internalType": "bool",
          "name": "",
          "type": "bool"
        }
      ],
      "stateMutability": "nonpayable",
      "type": "function"
    },
    {
      "inputs": [
        {
          "internalType": "address",
          "name": "_userInterface",
          "type": "address"
        }
      ],
      "name": "passInterfaceSigner",
      "outputs": [
        {
          "internalType": "bool",
          "name": "",
          "type": "bool"
        }
      ],
      "stateMutability": "nonpayable",
      "type": "function"
    },
    {
      "inputs": [
        {
          "internalType": "address",
          "name": "_memeFactory",
          "type": "address"
        }
      ],
      "name": "passMemeFactorySigner",
      "outputs": [
        {
          "internalType": "bool",
          "name": "",
          "type": "bool"
        }
      ],
      "stateMutability": "nonpayable",
      "type": "function"
    },
    {
      "inputs": [
        {
          "internalType": "address",
          "name": "_likeSigner",
          "type": "address"
        }
      ],
      "name": "passLikeSigner",
      "outputs": [
        {
          "internalType": "bool",
          "name": "",
          "type": "bool"
        }
      ],
      "stateMutability": "nonpayable",
      "type": "function"
    },
    {
      "inputs": [
        {
          "internalType": "address",
          "name": "_followSigner",
          "type": "address"
        }
      ],
      "name": "passFollowSigner",
      "outputs": [
        {
          "internalType": "bool",
          "name": "",
          "type": "bool"
        }
      ],
      "stateMutability": "nonpayable",
      "type": "function"
    }
  ],
  "bytecode": "0x6080604052600060055534801561001557600080fd5b50336000806101000a81548173ffffffffffffffffffffffffffffffffffffffff021916908373ffffffffffffffffffffffffffffffffffffffff16021790555033600160006101000a81548173ffffffffffffffffffffffffffffffffffffffff021916908373ffffffffffffffffffffffffffffffffffffffff16021790555033600260006101000a81548173ffffffffffffffffffffffffffffffffffffffff021916908373ffffffffffffffffffffffffffffffffffffffff16021790555033600360006101000a81548173ffffffffffffffffffffffffffffffffffffffff021916908373ffffffffffffffffffffffffffffffffffffffff16021790555033600460006101000a81548173ffffffffffffffffffffffffffffffffffffffff021916908373ffffffffffffffffffffffffffffffffffffffff1602179055506143bc806101696000396000f3fe608060405234801561001057600080fd5b50600436106102bb5760003560e01c80636f77926b11610182578063b4108a94116100e9578063cc656d0e116100a2578063e07dbb101161007c578063e07dbb10146109b4578063e587f0dc146109d0578063e8fc954e14610a00578063fab7d53614610a30576102bb565b8063cc656d0e14610938578063d5093b6314610954578063d8236dff14610984576102bb565b8063b4108a941461083e578063b8e3bfb81461086e578063bb58f85d1461088c578063c2fe2022146108a8578063c4e172da146108d8578063cb04c97014610908576102bb565b8063a07cf3711161013b578063a07cf3711461073e578063a1c54a211461076e578063a477c0bf1461079e578063a4c7fafa146107ba578063a87430ba146107ea578063af5dffde14610820576102bb565b80636f77926b1461065657806377dd8a0314610686578063798c60bd146106b6578063829a262c146106d257806386b22146146106f05780639b6de6751461070e576102bb565b806320aba4da11610226578063542fc7aa116101df578063542fc7aa1461057057806357c5451d1461058c5780635aa64413146105bc5780635c60f226146105da5780635fd4b08a146105f657806365f68c8914610626576102bb565b806320aba4da1461049e5780632ff0bc1d146104ba5780633fd0bf17146104ea5780634b69ae781461051a5780634caf9d0b1461053657806351b6692114610566576102bb565b80630e666e49116102785780630e666e491461039257806311e0bda7146103c2578063144ffed3146103f257806316c5eb131461040e57806317dcaab61461043e578063201caf8b1461046e576102bb565b80630667e805146102c057806306e6a770146102dc57806307973ccf1461030c5780630909014b1461032a5780630a568111146103465780630d8d57d614610362575b600080fd5b6102da60048036038101906102d59190613627565b610a60565b005b6102f660048036038101906102f19190613542565b610b3b565b6040516103039190613c8b565b60405180910390f35b610314610c93565b6040516103219190613e22565b60405180910390f35b610344600480360381019061033f9190613667565b610c99565b005b610360600480360381019061035b919061356f565b610d84565b005b61037c60048036038101906103779190613542565b610ddf565b6040516103899190613d3e565b60405180910390f35b6103ac60048036038101906103a79190613542565b610eb3565b6040516103b99190613c8b565b60405180910390f35b6103dc60048036038101906103d7919061375f565b610f5d565b6040516103e99190613c2c565b60405180910390f35b61040c6004803603810190610407919061356f565b610f90565b005b6104286004803603810190610423919061375f565b610feb565b6040516104359190613c8b565b60405180910390f35b61045860048036038101906104539190613542565b611066565b6040516104659190613c8b565b60405180910390f35b61048860048036038101906104839190613542565b6111ba565b6040516104959190613c8b565b60405180910390f35b6104b860048036038101906104b39190613667565b611312565b005b6104d460048036038101906104cf9190613542565b6113fd565b6040516104e19190613c8b565b60405180910390f35b61050460048036038101906104ff9190613542565b611555565b6040516105119190613d3e565b60405180910390f35b610534600480360381019061052f919061356f565b611629565b005b610550600480360381019061054b9190613542565b611684565b60405161055d9190613c69565b60405180910390f35b61056e61171e565b005b61058a6004803603810190610585919061356f565b6117c6565b005b6105a660048036038101906105a19190613542565b611821565b6040516105b39190613e22565b60405180910390f35b6105c4611870565b6040516105d19190613c2c565b60405180910390f35b6105f460048036038101906105ef9190613542565b611894565b005b610610600480360381019061060b9190613542565b611a1e565b60405161061d9190613ca6565b60405180910390f35b610640600480360381019061063b9190613542565b611a6a565b60405161064d9190613ca6565b60405180910390f35b610670600480360381019061066b9190613542565b611ab6565b60405161067d9190613e00565b60405180910390f35b6106a0600480360381019061069b919061375f565b611f42565b6040516106ad9190613c2c565b60405180910390f35b6106d060048036038101906106cb919061378c565b611f75565b005b6106da612059565b6040516106e79190613c2c565b60405180910390f35b6106f861207f565b6040516107059190613c2c565b60405180910390f35b61072860048036038101906107239190613542565b6120a5565b6040516107359190613e22565b60405180910390f35b6107586004803603810190610753919061371f565b6120f4565b6040516107659190613c2c565b60405180910390f35b61078860048036038101906107839190613542565b61217d565b6040516107959190613c47565b60405180910390f35b6107b860048036038101906107b39190613627565b61224d565b005b6107d460048036038101906107cf9190613542565b61237a565b6040516107e19190613e22565b60405180910390f35b61080460048036038101906107ff9190613542565b6123c9565b6040516108179796959493929190613cc1565b60405180910390f35b61082861253b565b6040516108359190613c2c565b60405180910390f35b61085860048036038101906108539190613542565b612561565b6040516108659190613c2c565b60405180910390f35b6108766125cd565b6040516108839190613c2c565b60405180910390f35b6108a660048036038101906108a191906135cb565b6125f3565b005b6108c260048036038101906108bd9190613542565b61264e565b6040516108cf9190613c47565b60405180910390f35b6108f260048036038101906108ed9190613542565b61271e565b6040516108ff9190613c8b565b60405180910390f35b610922600480360381019061091d9190613542565b612876565b60405161092f9190613e22565b60405180910390f35b610952600480360381019061094d91906136c3565b6128c5565b005b61096e6004803603810190610969919061371f565b612b2e565b60405161097b9190613c2c565b60405180910390f35b61099e60048036038101906109999190613542565b612bb7565b6040516109ab9190613c47565b60405180910390f35b6109ce60048036038101906109c9919061378c565b612c87565b005b6109ea60048036038101906109e59190613542565b612d6d565b6040516109f79190613c47565b60405180910390f35b610a1a6004803603810190610a159190613542565b612e3d565b604051610a279190613ca6565b60405180910390f35b610a4a6004803603810190610a459190613542565b612e89565b604051610a579190613e22565b60405180910390f35b600460009054906101000a900473ffffffffffffffffffffffffffffffffffffffff1673ffffffffffffffffffffffffffffffffffffffff163373ffffffffffffffffffffffffffffffffffffffff1614610af0576040517f08c379a0000000000000000000000000000000000000000000000000000000008152600401610ae790613de0565b60405180910390fd5b80600660008473ffffffffffffffffffffffffffffffffffffffff1673ffffffffffffffffffffffffffffffffffffffff168152602001908152602001600020600101819055505050565b6000600260009054906101000a900473ffffffffffffffffffffffffffffffffffffffff1673ffffffffffffffffffffffffffffffffffffffff163373ffffffffffffffffffffffffffffffffffffffff1614610bcd576040517f08c379a0000000000000000000000000000000000000000000000000000000008152600401610bc490613da0565b60405180910390fd5b81600260006101000a81548173ffffffffffffffffffffffffffffffffffffffff021916908373ffffffffffffffffffffffffffffffffffffffff160217905550600260009054906101000a900473ffffffffffffffffffffffffffffffffffffffff1673ffffffffffffffffffffffffffffffffffffffff163373ffffffffffffffffffffffffffffffffffffffff167f2364065f519eb2e0ac13040d65b1d1140f6677de0518b6dee6954e49f7f7a5b660405160405180910390a360019050919050565b60055481565b600460009054906101000a900473ffffffffffffffffffffffffffffffffffffffff1673ffffffffffffffffffffffffffffffffffffffff163373ffffffffffffffffffffffffffffffffffffffff1614610d29576040517f08c379a0000000000000000000000000000000000000000000000000000000008152600401610d2090613dc0565b60405180910390fd5b80600660008473ffffffffffffffffffffffffffffffffffffffff1673ffffffffffffffffffffffffffffffffffffffff1681526020019081526020016000206006019080519060200190610d7f929190612ed8565b505050565b80600660008473ffffffffffffffffffffffffffffffffffffffff1673ffffffffffffffffffffffffffffffffffffffff168152602001908152602001600020600a019080519060200190610dda929190612f5e565b505050565b6060600660008373ffffffffffffffffffffffffffffffffffffffff1673ffffffffffffffffffffffffffffffffffffffff1681526020019081526020016000206006018054610e2e90614040565b80601f0160208091040260200160405190810160405280929190818152602001828054610e5a90614040565b8015610ea75780601f10610e7c57610100808354040283529160200191610ea7565b820191906000526020600020905b815481529060010190602001808311610e8a57829003601f168201915b50505050509050919050565b60008073ffffffffffffffffffffffffffffffffffffffff16600660008473ffffffffffffffffffffffffffffffffffffffff1673ffffffffffffffffffffffffffffffffffffffff16815260200190815260200160002060040160009054906101000a900473ffffffffffffffffffffffffffffffffffffffff1673ffffffffffffffffffffffffffffffffffffffff1614610f535760019050610f58565b600090505b919050565b60086020528060005260406000206000915054906101000a900473ffffffffffffffffffffffffffffffffffffffff1681565b80600660008473ffffffffffffffffffffffffffffffffffffffff1673ffffffffffffffffffffffffffffffffffffffff1681526020019081526020016000206008019080519060200190610fe6929190612f5e565b505050565b60008073ffffffffffffffffffffffffffffffffffffffff166008600084815260200190815260200160002060009054906101000a900473ffffffffffffffffffffffffffffffffffffffff1673ffffffffffffffffffffffffffffffffffffffff161461105c5760019050611061565b600090505b919050565b60008060009054906101000a900473ffffffffffffffffffffffffffffffffffffffff1673ffffffffffffffffffffffffffffffffffffffff163373ffffffffffffffffffffffffffffffffffffffff16146110f7576040517f08c379a00000000000000000000000000000000000000000000000000000000081526004016110ee90613d80565b60405180910390fd5b816000806101000a81548173ffffffffffffffffffffffffffffffffffffffff021916908373ffffffffffffffffffffffffffffffffffffffff16021790555060008054906101000a900473ffffffffffffffffffffffffffffffffffffffff1673ffffffffffffffffffffffffffffffffffffffff163373ffffffffffffffffffffffffffffffffffffffff167f5f8b18be53cdf9843c4263461966fc46896a2d372d3fa87fc22f6cfed024186260405160405180910390a360019050919050565b6000600160009054906101000a900473ffffffffffffffffffffffffffffffffffffffff1673ffffffffffffffffffffffffffffffffffffffff163373ffffffffffffffffffffffffffffffffffffffff161461124c576040517f08c379a000000000000000000000000000000000000000000000000000000000815260040161124390613d60565b60405180910390fd5b81600160006101000a81548173ffffffffffffffffffffffffffffffffffffffff021916908373ffffffffffffffffffffffffffffffffffffffff160217905550600160009054906101000a900473ffffffffffffffffffffffffffffffffffffffff1673ffffffffffffffffffffffffffffffffffffffff163373ffffffffffffffffffffffffffffffffffffffff167f76ce921e20c471c95deae34d20d53706ec4378ecab394e517f73aef912ae6cdd60405160405180910390a360019050919050565b600460009054906101000a900473ffffffffffffffffffffffffffffffffffffffff1673ffffffffffffffffffffffffffffffffffffffff163373ffffffffffffffffffffffffffffffffffffffff16146113a2576040517f08c379a000000000000000000000000000000000000000000000000000000000815260040161139990613dc0565b60405180910390fd5b80600660008473ffffffffffffffffffffffffffffffffffffffff1673ffffffffffffffffffffffffffffffffffffffff16815260200190815260200160002060050190805190602001906113f8929190612ed8565b505050565b6000600360009054906101000a900473ffffffffffffffffffffffffffffffffffffffff1673ffffffffffffffffffffffffffffffffffffffff163373ffffffffffffffffffffffffffffffffffffffff161461148f576040517f08c379a000000000000000000000000000000000000000000000000000000000815260040161148690613d80565b60405180910390fd5b81600360006101000a81548173ffffffffffffffffffffffffffffffffffffffff021916908373ffffffffffffffffffffffffffffffffffffffff160217905550600360009054906101000a900473ffffffffffffffffffffffffffffffffffffffff1673ffffffffffffffffffffffffffffffffffffffff163373ffffffffffffffffffffffffffffffffffffffff167f317b209d0dca6ddb6667f7c47d488a9708cc0e7befa4cde41a104b125a1d9ef660405160405180910390a360019050919050565b6060600660008373ffffffffffffffffffffffffffffffffffffffff1673ffffffffffffffffffffffffffffffffffffffff16815260200190815260200160002060050180546115a490614040565b80601f01602080910402602001604051908101604052809291908181526020018280546115d090614040565b801561161d5780601f106115f25761010080835404028352916020019161161d565b820191906000526020600020905b81548152906001019060200180831161160057829003601f168201915b50505050509050919050565b80600660008473ffffffffffffffffffffffffffffffffffffffff1673ffffffffffffffffffffffffffffffffffffffff168152602001908152602001600020600701908051906020019061167f929190612f5e565b505050565b6060600660008373ffffffffffffffffffffffffffffffffffffffff1673ffffffffffffffffffffffffffffffffffffffff168152602001908152602001600020600b0180548060200260200160405190810160405280929190818152602001828054801561171257602002820191906000526020600020905b8154815260200190600101908083116116fe575b50505050509050919050565b60008054906101000a900473ffffffffffffffffffffffffffffffffffffffff1673ffffffffffffffffffffffffffffffffffffffff163373ffffffffffffffffffffffffffffffffffffffff16146117ac576040517f08c379a00000000000000000000000000000000000000000000000000000000081526004016117a390613de0565b60405180910390fd5b600560008154809291906117bf906140a3565b9190505550565b80600660008473ffffffffffffffffffffffffffffffffffffffff1673ffffffffffffffffffffffffffffffffffffffff168152602001908152602001600020600901908051906020019061181c929190612f5e565b505050565b6000600660008373ffffffffffffffffffffffffffffffffffffffff1673ffffffffffffffffffffffffffffffffffffffff168152602001908152602001600020600901805490509050919050565b60008054906101000a900473ffffffffffffffffffffffffffffffffffffffff1681565b60008054906101000a900473ffffffffffffffffffffffffffffffffffffffff1673ffffffffffffffffffffffffffffffffffffffff163373ffffffffffffffffffffffffffffffffffffffff1614611922576040517f08c379a000000000000000000000000000000000000000000000000000000000815260040161191990613de0565b60405180910390fd5b600660008273ffffffffffffffffffffffffffffffffffffffff1673ffffffffffffffffffffffffffffffffffffffff1681526020019081526020016000206000808201600090556001820160009055600282016000905560038201600090556004820160006101000a81549073ffffffffffffffffffffffffffffffffffffffff02191690556005820160006119b99190612fe8565b6006820160006119c99190612fe8565b6007820160006119d99190613028565b6008820160006119e99190613028565b6009820160006119f99190613028565b600a82016000611a099190613028565b600b82016000611a199190613049565b505050565b6000600660008373ffffffffffffffffffffffffffffffffffffffff1673ffffffffffffffffffffffffffffffffffffffff168152602001908152602001600020600101549050919050565b6000600660008373ffffffffffffffffffffffffffffffffffffffff1673ffffffffffffffffffffffffffffffffffffffff168152602001908152602001600020600001549050919050565b611abe61306a565b600660008373ffffffffffffffffffffffffffffffffffffffff1673ffffffffffffffffffffffffffffffffffffffff16815260200190815260200160002060405180610180016040529081600082015481526020016001820154815260200160028201548152602001600382015481526020016004820160009054906101000a900473ffffffffffffffffffffffffffffffffffffffff1673ffffffffffffffffffffffffffffffffffffffff1673ffffffffffffffffffffffffffffffffffffffff168152602001600582018054611b9790614040565b80601f0160208091040260200160405190810160405280929190818152602001828054611bc390614040565b8015611c105780601f10611be557610100808354040283529160200191611c10565b820191906000526020600020905b815481529060010190602001808311611bf357829003601f168201915b50505050508152602001600682018054611c2990614040565b80601f0160208091040260200160405190810160405280929190818152602001828054611c5590614040565b8015611ca25780601f10611c7757610100808354040283529160200191611ca2565b820191906000526020600020905b815481529060010190602001808311611c8557829003601f168201915b5050505050815260200160078201805480602002602001604051908101604052809291908181526020018280548015611d3057602002820191906000526020600020905b8160009054906101000a900473ffffffffffffffffffffffffffffffffffffffff1673ffffffffffffffffffffffffffffffffffffffff1681526020019060010190808311611ce6575b5050505050815260200160088201805480602002602001604051908101604052809291908181526020018280548015611dbe57602002820191906000526020600020905b8160009054906101000a900473ffffffffffffffffffffffffffffffffffffffff1673ffffffffffffffffffffffffffffffffffffffff1681526020019060010190808311611d74575b5050505050815260200160098201805480602002602001604051908101604052809291908181526020018280548015611e4c57602002820191906000526020600020905b8160009054906101000a900473ffffffffffffffffffffffffffffffffffffffff1673ffffffffffffffffffffffffffffffffffffffff1681526020019060010190808311611e02575b50505050508152602001600a8201805480602002602001604051908101604052809291908181526020018280548015611eda57602002820191906000526020600020905b8160009054906101000a900473ffffffffffffffffffffffffffffffffffffffff1673ffffffffffffffffffffffffffffffffffffffff1681526020019060010190808311611e90575b50505050508152602001600b8201805480602002602001604051908101604052809291908181526020018280548015611f3257602002820191906000526020600020905b815481526020019060010190808311611f1e575b5050505050815250509050919050565b60076020528060005260406000206000915054906101000a900473ffffffffffffffffffffffffffffffffffffffff1681565b60008054906101000a900473ffffffffffffffffffffffffffffffffffffffff1673ffffffffffffffffffffffffffffffffffffffff163373ffffffffffffffffffffffffffffffffffffffff1614612003576040517f08c379a0000000000000000000000000000000000000000000000000000000008152600401611ffa90613de0565b60405180910390fd5b806008600084815260200190815260200160002060006101000a81548173ffffffffffffffffffffffffffffffffffffffff021916908373ffffffffffffffffffffffffffffffffffffffff1602179055505050565b600260009054906101000a900473ffffffffffffffffffffffffffffffffffffffff1681565b600160009054906101000a900473ffffffffffffffffffffffffffffffffffffffff1681565b6000600660008373ffffffffffffffffffffffffffffffffffffffff1673ffffffffffffffffffffffffffffffffffffffff168152602001908152602001600020600a01805490509050919050565b6000600660008473ffffffffffffffffffffffffffffffffffffffff1673ffffffffffffffffffffffffffffffffffffffff168152602001908152602001600020600801828154811061214a5761214961414a565b5b9060005260206000200160009054906101000a900473ffffffffffffffffffffffffffffffffffffffff16905092915050565b6060600660008373ffffffffffffffffffffffffffffffffffffffff1673ffffffffffffffffffffffffffffffffffffffff16815260200190815260200160002060090180548060200260200160405190810160405280929190818152602001828054801561224157602002820191906000526020600020905b8160009054906101000a900473ffffffffffffffffffffffffffffffffffffffff1673ffffffffffffffffffffffffffffffffffffffff16815260200190600101908083116121f7575b50505050509050919050565b600460009054906101000a900473ffffffffffffffffffffffffffffffffffffffff1673ffffffffffffffffffffffffffffffffffffffff163373ffffffffffffffffffffffffffffffffffffffff16146122dd576040517f08c379a00000000000000000000000000000000000000000000000000000000081526004016122d490613de0565b60405180910390fd5b80600660008473ffffffffffffffffffffffffffffffffffffffff1673ffffffffffffffffffffffffffffffffffffffff16815260200190815260200160002060020181905550816008600083815260200190815260200160002060006101000a81548173ffffffffffffffffffffffffffffffffffffffff021916908373ffffffffffffffffffffffffffffffffffffffff1602179055505050565b6000600660008373ffffffffffffffffffffffffffffffffffffffff1673ffffffffffffffffffffffffffffffffffffffff168152602001908152602001600020600b01805490509050919050565b60066020528060005260406000206000915090508060000154908060010154908060020154908060030154908060040160009054906101000a900473ffffffffffffffffffffffffffffffffffffffff169080600501805461242a90614040565b80601f016020809104026020016040519081016040528092919081815260200182805461245690614040565b80156124a35780601f10612478576101008083540402835291602001916124a3565b820191906000526020600020905b81548152906001019060200180831161248657829003601f168201915b5050505050908060060180546124b890614040565b80601f01602080910402602001604051908101604052809291908181526020018280546124e490614040565b80156125315780601f1061250657610100808354040283529160200191612531565b820191906000526020600020905b81548152906001019060200180831161251457829003601f168201915b5050505050905087565b600460009054906101000a900473ffffffffffffffffffffffffffffffffffffffff1681565b6000600660008373ffffffffffffffffffffffffffffffffffffffff1673ffffffffffffffffffffffffffffffffffffffff16815260200190815260200160002060040160009054906101000a900473ffffffffffffffffffffffffffffffffffffffff169050919050565b600360009054906101000a900473ffffffffffffffffffffffffffffffffffffffff1681565b80600660008473ffffffffffffffffffffffffffffffffffffffff1673ffffffffffffffffffffffffffffffffffffffff168152602001908152602001600020600b0190805190602001906126499291906130ea565b505050565b6060600660008373ffffffffffffffffffffffffffffffffffffffff1673ffffffffffffffffffffffffffffffffffffffff16815260200190815260200160002060070180548060200260200160405190810160405280929190818152602001828054801561271257602002820191906000526020600020905b8160009054906101000a900473ffffffffffffffffffffffffffffffffffffffff1673ffffffffffffffffffffffffffffffffffffffff16815260200190600101908083116126c8575b50505050509050919050565b6000600460009054906101000a900473ffffffffffffffffffffffffffffffffffffffff1673ffffffffffffffffffffffffffffffffffffffff163373ffffffffffffffffffffffffffffffffffffffff16146127b0576040517f08c379a00000000000000000000000000000000000000000000000000000000081526004016127a790613d80565b60405180910390fd5b81600460006101000a81548173ffffffffffffffffffffffffffffffffffffffff021916908373ffffffffffffffffffffffffffffffffffffffff160217905550600460009054906101000a900473ffffffffffffffffffffffffffffffffffffffff1673ffffffffffffffffffffffffffffffffffffffff163373ffffffffffffffffffffffffffffffffffffffff167fdf570d582e474b2d7915b12f6f773eb74e4bc78a660caeeccf19491c8578507b60405160405180910390a360019050919050565b6000600660008373ffffffffffffffffffffffffffffffffffffffff1673ffffffffffffffffffffffffffffffffffffffff168152602001908152602001600020600701805490509050919050565b60008054906101000a900473ffffffffffffffffffffffffffffffffffffffff1673ffffffffffffffffffffffffffffffffffffffff163373ffffffffffffffffffffffffffffffffffffffff1614612953576040517f08c379a000000000000000000000000000000000000000000000000000000000815260040161294a90613de0565b60405180910390fd5b80600660008473ffffffffffffffffffffffffffffffffffffffff1673ffffffffffffffffffffffffffffffffffffffff1681526020019081526020016000206000820151816000015560208201518160010155604082015181600201556060820151816003015560808201518160040160006101000a81548173ffffffffffffffffffffffffffffffffffffffff021916908373ffffffffffffffffffffffffffffffffffffffff16021790555060a0820151816005019080519060200190612a1e929190612ed8565b5060c0820151816006019080519060200190612a3b929190612ed8565b5060e0820151816007019080519060200190612a58929190612f5e565b50610100820151816008019080519060200190612a76929190612f5e565b50610120820151816009019080519060200190612a94929190612f5e565b5061014082015181600a019080519060200190612ab2929190612f5e565b5061016082015181600b019080519060200190612ad09291906130ea565b5090505081600860008360400151815260200190815260200160002060006101000a81548173ffffffffffffffffffffffffffffffffffffffff021916908373ffffffffffffffffffffffffffffffffffffffff1602179055505050565b6000600660008473ffffffffffffffffffffffffffffffffffffffff1673ffffffffffffffffffffffffffffffffffffffff1681526020019081526020016000206007018281548110612b8457612b8361414a565b5b9060005260206000200160009054906101000a900473ffffffffffffffffffffffffffffffffffffffff16905092915050565b6060600660008373ffffffffffffffffffffffffffffffffffffffff1673ffffffffffffffffffffffffffffffffffffffff168152602001908152602001600020600801805480602002602001604051908101604052809291908181526020018280548015612c7b57602002820191906000526020600020905b8160009054906101000a900473ffffffffffffffffffffffffffffffffffffffff1673ffffffffffffffffffffffffffffffffffffffff1681526020019060010190808311612c31575b50505050509050919050565b600160009054906101000a900473ffffffffffffffffffffffffffffffffffffffff1673ffffffffffffffffffffffffffffffffffffffff163373ffffffffffffffffffffffffffffffffffffffff1614612d17576040517f08c379a0000000000000000000000000000000000000000000000000000000008152600401612d0e90613de0565b60405180910390fd5b806007600084815260200190815260200160002060006101000a81548173ffffffffffffffffffffffffffffffffffffffff021916908373ffffffffffffffffffffffffffffffffffffffff1602179055505050565b6060600660008373ffffffffffffffffffffffffffffffffffffffff1673ffffffffffffffffffffffffffffffffffffffff168152602001908152602001600020600a01805480602002602001604051908101604052809291908181526020018280548015612e3157602002820191906000526020600020905b8160009054906101000a900473ffffffffffffffffffffffffffffffffffffffff1673ffffffffffffffffffffffffffffffffffffffff1681526020019060010190808311612de7575b50505050509050919050565b6000600660008373ffffffffffffffffffffffffffffffffffffffff1673ffffffffffffffffffffffffffffffffffffffff168152602001908152602001600020600201549050919050565b6000600660008373ffffffffffffffffffffffffffffffffffffffff1673ffffffffffffffffffffffffffffffffffffffff168152602001908152602001600020600801805490509050919050565b828054612ee490614040565b90600052602060002090601f016020900481019282612f065760008555612f4d565b82601f10612f1f57805160ff1916838001178555612f4d565b82800160010185558215612f4d579182015b82811115612f4c578251825591602001919060010190612f31565b5b509050612f5a9190613137565b5090565b828054828255906000526020600020908101928215612fd7579160200282015b82811115612fd65782518260006101000a81548173ffffffffffffffffffffffffffffffffffffffff021916908373ffffffffffffffffffffffffffffffffffffffff16021790555091602001919060010190612f7e565b5b509050612fe49190613137565b5090565b508054612ff490614040565b6000825580601f106130065750613025565b601f0160209004906000526020600020908101906130249190613137565b5b50565b50805460008255906000526020600020908101906130469190613137565b50565b50805460008255906000526020600020908101906130679190613154565b50565b60405180610180016040528060008019168152602001600080191681526020016000801916815260200160008152602001600073ffffffffffffffffffffffffffffffffffffffff168152602001606081526020016060815260200160608152602001606081526020016060815260200160608152602001606081525090565b828054828255906000526020600020908101928215613126579160200282015b8281111561312557825182559160200191906001019061310a565b5b5090506131339190613154565b5090565b5b80821115613150576000816000905550600101613138565b5090565b5b8082111561316d576000816000905550600101613155565b5090565b600061318461317f84613e62565b613e3d565b905080838252602082019050828560208602820111156131a7576131a66141b7565b5b60005b858110156131d757816131bd8882613293565b8452602084019350602083019250506001810190506131aa565b5050509392505050565b60006131f46131ef84613e8e565b613e3d565b90508083825260208201905082856020860282011115613217576132166141b7565b5b60005b85811015613247578161322d8882613304565b84526020840193506020830192505060018101905061321a565b5050509392505050565b600061326461325f84613eba565b613e3d565b9050828152602081018484840111156132805761327f6141bc565b5b61328b848285613ffe565b509392505050565b6000813590506132a281614341565b92915050565b600082601f8301126132bd576132bc6141a8565b5b81356132cd848260208601613171565b91505092915050565b600082601f8301126132eb576132ea6141a8565b5b81356132fb8482602086016131e1565b91505092915050565b60008135905061331381614358565b92915050565b600082601f83011261332e5761332d6141a8565b5b813561333e848260208601613251565b91505092915050565b6000610180828403121561335e5761335d6141ad565b5b613369610180613e3d565b9050600061337984828501613304565b600083015250602061338d84828501613304565b60208301525060406133a184828501613304565b60408301525060606133b58482850161352d565b60608301525060806133c984828501613293565b60808301525060a082013567ffffffffffffffff8111156133ed576133ec6141b2565b5b6133f984828501613319565b60a08301525060c082013567ffffffffffffffff81111561341d5761341c6141b2565b5b61342984828501613319565b60c08301525060e082013567ffffffffffffffff81111561344d5761344c6141b2565b5b613459848285016132a8565b60e08301525061010082013567ffffffffffffffff81111561347e5761347d6141b2565b5b61348a848285016132a8565b6101008301525061012082013567ffffffffffffffff8111156134b0576134af6141b2565b5b6134bc848285016132a8565b6101208301525061014082013567ffffffffffffffff8111156134e2576134e16141b2565b5b6134ee848285016132a8565b6101408301525061016082013567ffffffffffffffff811115613514576135136141b2565b5b613520848285016132d6565b6101608301525092915050565b60008135905061353c8161436f565b92915050565b600060208284031215613558576135576141c6565b5b600061356684828501613293565b91505092915050565b60008060408385031215613586576135856141c6565b5b600061359485828601613293565b925050602083013567ffffffffffffffff8111156135b5576135b46141c1565b5b6135c1858286016132a8565b9150509250929050565b600080604083850312156135e2576135e16141c6565b5b60006135f085828601613293565b925050602083013567ffffffffffffffff811115613611576136106141c1565b5b61361d858286016132d6565b9150509250929050565b6000806040838503121561363e5761363d6141c6565b5b600061364c85828601613293565b925050602061365d85828601613304565b9150509250929050565b6000806040838503121561367e5761367d6141c6565b5b600061368c85828601613293565b925050602083013567ffffffffffffffff8111156136ad576136ac6141c1565b5b6136b985828601613319565b9150509250929050565b600080604083850312156136da576136d96141c6565b5b60006136e885828601613293565b925050602083013567ffffffffffffffff811115613709576137086141c1565b5b61371585828601613347565b9150509250929050565b60008060408385031215613736576137356141c6565b5b600061374485828601613293565b92505060206137558582860161352d565b9150509250929050565b600060208284031215613775576137746141c6565b5b600061378384828501613304565b91505092915050565b600080604083850312156137a3576137a26141c6565b5b60006137b185828601613304565b92505060206137c285828601613293565b9150509250929050565b60006137d883836137fc565b60208301905092915050565b60006137f083836139a1565b60208301905092915050565b61380581613fac565b82525050565b61381481613fac565b82525050565b600061382582613f0b565b61382f8185613f46565b935061383a83613eeb565b8060005b8381101561386b57815161385288826137cc565b975061385d83613f2c565b92505060018101905061383e565b5085935050505092915050565b600061388382613f0b565b61388d8185613f57565b935061389883613eeb565b8060005b838110156138c95781516138b088826137cc565b97506138bb83613f2c565b92505060018101905061389c565b5085935050505092915050565b60006138e182613f16565b6138eb8185613f68565b93506138f683613efb565b8060005b8381101561392757815161390e88826137e4565b975061391983613f39565b9250506001810190506138fa565b5085935050505092915050565b600061393f82613f16565b6139498185613f79565b935061395483613efb565b8060005b8381101561398557815161396c88826137e4565b975061397783613f39565b925050600181019050613958565b5085935050505092915050565b61399b81613fbe565b82525050565b6139aa81613fca565b82525050565b6139b981613fca565b82525050565b60006139ca82613f21565b6139d48185613f8a565b93506139e481856020860161400d565b6139ed816141cb565b840191505092915050565b6000613a0382613f21565b613a0d8185613f9b565b9350613a1d81856020860161400d565b613a26816141cb565b840191505092915050565b6000613a3e602b83613f9b565b9150613a49826141dc565b604082019050919050565b6000613a61602783613f9b565b9150613a6c8261422b565b604082019050919050565b6000613a84602483613f9b565b9150613a8f8261427a565b604082019050919050565b6000613aa7601f83613f9b565b9150613ab2826142c9565b602082019050919050565b6000613aca602283613f9b565b9150613ad5826142f2565b604082019050919050565b600061018083016000830151613af960008601826139a1565b506020830151613b0c60208601826139a1565b506040830151613b1f60408601826139a1565b506060830151613b326060860182613c0e565b506080830151613b4560808601826137fc565b5060a083015184820360a0860152613b5d82826139bf565b91505060c083015184820360c0860152613b7782826139bf565b91505060e083015184820360e0860152613b91828261381a565b915050610100830151848203610100860152613bad828261381a565b915050610120830151848203610120860152613bc9828261381a565b915050610140830151848203610140860152613be5828261381a565b915050610160830151848203610160860152613c0182826138d6565b9150508091505092915050565b613c1781613ff4565b82525050565b613c2681613ff4565b82525050565b6000602082019050613c41600083018461380b565b92915050565b60006020820190508181036000830152613c618184613878565b905092915050565b60006020820190508181036000830152613c838184613934565b905092915050565b6000602082019050613ca06000830184613992565b92915050565b6000602082019050613cbb60008301846139b0565b92915050565b600060e082019050613cd6600083018a6139b0565b613ce360208301896139b0565b613cf060408301886139b0565b613cfd6060830187613c1d565b613d0a608083018661380b565b81810360a0830152613d1c81856139f8565b905081810360c0830152613d3081846139f8565b905098975050505050505050565b60006020820190508181036000830152613d5881846139f8565b905092915050565b60006020820190508181036000830152613d7981613a31565b9050919050565b60006020820190508181036000830152613d9981613a54565b9050919050565b60006020820190508181036000830152613db981613a77565b9050919050565b60006020820190508181036000830152613dd981613a9a565b9050919050565b60006020820190508181036000830152613df981613abd565b9050919050565b60006020820190508181036000830152613e1a8184613ae0565b905092915050565b6000602082019050613e376000830184613c1d565b92915050565b6000613e47613e58565b9050613e538282614072565b919050565b6000604051905090565b600067ffffffffffffffff821115613e7d57613e7c614179565b5b602082029050602081019050919050565b600067ffffffffffffffff821115613ea957613ea8614179565b5b602082029050602081019050919050565b600067ffffffffffffffff821115613ed557613ed4614179565b5b613ede826141cb565b9050602081019050919050565b6000819050602082019050919050565b6000819050602082019050919050565b600081519050919050565b600081519050919050565b600081519050919050565b6000602082019050919050565b6000602082019050919050565b600082825260208201905092915050565b600082825260208201905092915050565b600082825260208201905092915050565b600082825260208201905092915050565b600082825260208201905092915050565b600082825260208201905092915050565b6000613fb782613fd4565b9050919050565b60008115159050919050565b6000819050919050565b600073ffffffffffffffffffffffffffffffffffffffff82169050919050565b6000819050919050565b82818337600083830152505050565b60005b8381101561402b578082015181840152602081019050614010565b8381111561403a576000848401525b50505050565b6000600282049050600182168061405857607f821691505b6020821081141561406c5761406b61411b565b5b50919050565b61407b826141cb565b810181811067ffffffffffffffff8211171561409a57614099614179565b5b80604052505050565b60006140ae82613ff4565b91507fffffffffffffffffffffffffffffffffffffffffffffffffffffffffffffffff8214156140e1576140e06140ec565b5b600182019050919050565b7f4e487b7100000000000000000000000000000000000000000000000000000000600052601160045260246000fd5b7f4e487b7100000000000000000000000000000000000000000000000000000000600052602260045260246000fd5b7f4e487b7100000000000000000000000000000000000000000000000000000000600052603260045260246000fd5b7f4e487b7100000000000000000000000000000000000000000000000000000000600052604160045260246000fd5b600080fd5b600080fd5b600080fd5b600080fd5b600080fd5b600080fd5b600080fd5b6000601f19601f8301169050919050565b7f4572726f723a206d73672e73656e646572206d757374206265206d656d65466160008201527f63746f72795369676e6572000000000000000000000000000000000000000000602082015250565b7f4572726f723a206d73672e73656e646572206d75737420626520666163746f7260008201527f795369676e657200000000000000000000000000000000000000000000000000602082015250565b7f4572726f723a206d73672e73656e646572206d757374206265206c696b65536960008201527f676e657200000000000000000000000000000000000000000000000000000000602082015250565b7f4572726f722c20696e74657266616365206d757374206265207369676e657200600082015250565b7f4572726f723a207573657220666163746f7279206d757374206265207369676e60008201527f6572000000000000000000000000000000000000000000000000000000000000602082015250565b61434a81613fac565b811461435557600080fd5b50565b61436181613fca565b811461436c57600080fd5b50565b61437881613ff4565b811461438357600080fd5b5056fea2646970667358221220309c951594251b3f046eac474ac68800bdfeee1c28d46fc2289f3313502de4d964736f6c63430008070033",
  "immutableReferences": {},
  "source": "// SPDX-License-Identifier: MIT\n\npragma solidity >=0.8.0 <0.9.0;\n\ncontract UserStorage {\n  address public factorySigner;\n  address public memeFactorySigner;\n  address public likeSigner;\n  address public followSigner;\n  address public interfaceSigner;\n\n  uint public userCount = 0;\n\n  mapping(address => User) public users; // address to Users map\n  mapping(bytes32 => address) public usersByMeme; // memeId to account addresses\n  mapping(bytes32 => address) public usersByUserAddr; // userAddr to account address\n\n  struct User {\n    bytes32 id; // user number in order\n    bytes32 name; // user name\n    bytes32 userAddr; // user address (@)\n    uint time; // user creation time\n    address addr; // address of user\n    string bio;\n    string profilePic;\n    address[] followers; // addresses of followers\n    address[] following; // addressses of following\n    address[] unfollowers; // addresses of followers\n    address[] unfollowing; // addressses of following\n    bytes32[] posts; // memeIds of posts\n  }\n\n  event FactorySignerChanged(address indexed from, address indexed to);\n  event InterfaceSignerChanged(address indexed from, address indexed to);\n  event PostSignerChanged(address indexed from, address indexed to);\n  event LikeSignerChanged(address indexed from, address indexed to);\n  event FollowSignerChanged(address indexed from, address indexed to);\n\n  constructor() public {\n    factorySigner = msg.sender;\n    memeFactorySigner = msg.sender;\n    likeSigner = msg.sender;\n    followSigner = msg.sender;\n    interfaceSigner = msg.sender;\n  }\n\n\n  // Factory-Specific setters\n  function setUser(\n    address _account,\n    User memory _user\n  ) public {\n    require(\n      msg.sender==factorySigner,\n      'Error: user factory must be signer');\n    users[_account] = _user;\n    usersByUserAddr[_user.userAddr] = _account;\n  }\n  function setUsersByUserAddress(\n    bytes32 _userAddr,\n    address _account\n  ) public {\n    require(\n      msg.sender==factorySigner,\n      'Error: user factory must be signer');\n    usersByUserAddr[_userAddr] = _account;\n  }\n  function setUsersByMeme(\n    bytes32 _memeId,\n    address _account\n  ) public {\n    require(\n      msg.sender==memeFactorySigner,\n      'Error: user factory must be signer');\n    usersByMeme[_memeId] = _account;\n  }\n  function deleteUser(address _account) public {\n    require(\n      msg.sender==factorySigner,\n      'Error: user factory must be signer');\n    delete users[_account];\n  }\n  function increaseUserCount() public {\n    require(\n      msg.sender==factorySigner,\n      'Error: user factory must be signer');\n    userCount++;\n  }\n  // Setters for interface only\n  function setUserName(\n    address _account,\n    bytes32 _userName\n  ) public {\n    require(\n      msg.sender==interfaceSigner,\n      'Error: user factory must be signer');\n    users[_account].name= _userName;\n  }\n  function setUserAddress(\n    address _account,\n    bytes32 _userAddress\n  ) public {\n    require(\n      msg.sender==interfaceSigner,\n      'Error: user factory must be signer');\n    users[_account].userAddr = _userAddress;\n    usersByUserAddr[_userAddress] = _account;\n  }\n  function setBio(\n    address _account,\n    string memory _bio\n  ) public {\n    require(\n      msg.sender==interfaceSigner,\n      'Error, interface must be signer');\n    users[_account].bio = _bio;\n  }\n  function setProfilePic(\n    address _account,\n    string memory _imgHash\n  ) public {\n    require(\n      msg.sender==interfaceSigner,\n      'Error, interface must be signer');\n    users[_account].profilePic = _imgHash;\n  }\n\n  // Setters for all signers\n  // set post meme\n  function setPosts(\n    address _account,\n    bytes32[] memory _posts\n  ) public {\n    users[_account].posts = _posts;\n  }\n\n  // set follow\n  function setFollowers(\n    address _account,\n    address[] memory _followers\n  ) public {\n    users[_account].followers = _followers;\n  }\n  function setFollowing(\n    address _account,\n    address[] memory _following\n  ) public {\n    users[_account].following = _following;\n  }\n  function setUnfollowers(\n    address _account,\n    address[] memory _unfollowers\n  ) public {\n    users[_account].unfollowers = _unfollowers;\n  }\n  function setUnfollowing(\n    address _account,\n    address[] memory _unfollowing\n  ) public {\n    users[_account].unfollowing = _unfollowing;\n  }\n\n  // getter functions for UserStorage\n  function userExists(address _account) public view returns(bool) {\n    if(users[_account].addr!=address(0x0)) {\n      return true;\n    }\n    else {\n      return false;\n    }\n  }\n  function userAddressExists(bytes32 _userAddress) public view returns(bool) {\n    if(usersByUserAddr[_userAddress]!=address(0x0)) {\n      return true;\n    }\n    else {\n      return false;\n    }\n  }\n  function getUser(address _account) public view returns(User memory){\n    return users[_account];\n  }\n  function getId(address _account) public view returns(bytes32) {\n    return users[_account].id;\n  }\n  function getName(address _account) public view returns(bytes32) {\n    return users[_account].name;\n  }\n  function getUserAddr(address _account) public view returns(bytes32) {\n    return users[_account].userAddr;\n  }\n  function getAddr(address _account) public view returns(address) {\n    return users[_account].addr;\n  }\n  function getBio(address _account) public view returns(string memory) {\n    return users[_account].bio;\n  }\n  function getProfilePic(address _account) public view returns(string memory) {\n    return users[_account].profilePic;\n  }\n  function getFollowerCount(address _account) public view returns(uint) {\n    return users[_account].followers.length;\n  }\n  function getFollowers(address _account) public view returns(address[] memory) {\n    return users[_account].followers;\n  }\n  function getFollowerAt(address _account, uint _index) public view returns(address) {\n    return users[_account].followers[_index];\n  }\n  function getFollowingCount(address _account) public view returns(uint) {\n    return users[_account].following.length;\n  }\n  function getFollowing(address _account) public view returns(address[] memory) {\n    return users[_account].following;\n  }\n  function getFollowingAt(address _account, uint _index) public view returns(address) {\n    return users[_account].following[_index];\n  }\n  function getUnfollowerCount(address _account) public view returns(uint) {\n    return users[_account].unfollowers.length;\n  }\n  function getUnfollowers(address _account) public view returns(address[] memory) {\n    return users[_account].unfollowers;\n  }\n  function getUnfollowingCount(address _account) public view returns(uint) {\n    return users[_account].unfollowing.length;\n  }\n  function getUnfollowing(address _account) public view returns(address[] memory) {\n    return users[_account].unfollowing;\n  }\n  function getPostCount(address _account) public view returns (uint) {\n    return users[_account].posts.length;\n  }\n  function getPosts(address _account) public view returns (bytes32[] memory) {\n    return users[_account].posts;\n  }\n\n  // pass signer roles\n  function passFactorySigner(address _userFactory) public returns(bool){\n    require(\n      msg.sender==factorySigner,\n      'Error: msg.sender must be factorySigner');\n\n    factorySigner = _userFactory;\n    emit FactorySignerChanged(msg.sender, factorySigner);\n    return true;\n  }\n  function passInterfaceSigner(address _userInterface) public returns(bool){\n    require(\n      msg.sender==interfaceSigner,\n      'Error: msg.sender must be factorySigner');\n\n    interfaceSigner = _userInterface;\n    emit InterfaceSignerChanged(msg.sender, interfaceSigner);\n    return true;\n  }\n  function passMemeFactorySigner(address _memeFactory) public returns(bool){\n    require(\n      msg.sender==memeFactorySigner,\n      'Error: msg.sender must be memeFactorySigner');\n\n    memeFactorySigner = _memeFactory;\n    emit PostSignerChanged(msg.sender, memeFactorySigner);\n    return true;\n  }\n  function passLikeSigner(address _likeSigner) public returns(bool){\n    require(\n      msg.sender==likeSigner,\n      'Error: msg.sender must be likeSigner');\n\n    likeSigner = _likeSigner;\n    emit LikeSignerChanged(msg.sender, likeSigner);\n    return true;\n  }\n  function passFollowSigner(address _followSigner) public returns(bool){\n    require(\n      msg.sender==followSigner,\n      'Error: msg.sender must be factorySigner');\n\n    followSigner = _followSigner;\n    emit FollowSignerChanged(msg.sender, followSigner);\n    return true;\n  }\n}\n",
  "sourcePath": "/Users/jaiq/Documents/000 BLOCKCHAIN/ETH/uMe/src/contracts/UserStorage.sol",
  "compiler": {
    "name": "solc",
    "version": "0.8.7+commit.e28d00a7.Emscripten.clang"
  },
  "schemaVersion": "3.4.3",
  "updatedAt": "2021-09-23T23:28:14.417Z",
  "networkType": "ethereum",
  "devdoc": {
    "kind": "dev",
    "methods": {},
    "version": 1
  },
  "userdoc": {
    "kind": "user",
    "methods": {},
    "version": 1
  }
}