{
  "contractName": "UserFactory",
  "abi": [
    {
      "inputs": [
        {
          "internalType": "contract UserStorage",
          "name": "_userStorage",
          "type": "address"
        }
      ],
      "stateMutability": "nonpayable",
      "type": "constructor"
    },
    {
      "anonymous": false,
      "inputs": [
        {
          "indexed": false,
          "internalType": "bytes32",
          "name": "id",
          "type": "bytes32"
        },
        {
          "indexed": false,
          "internalType": "uint256",
          "name": "time",
          "type": "uint256"
        }
      ],
      "name": "DeletedUser",
      "type": "event"
    },
    {
      "anonymous": false,
      "inputs": [
        {
          "indexed": false,
          "internalType": "address",
          "name": "account",
          "type": "address"
        },
        {
          "indexed": false,
          "internalType": "bytes32",
          "name": "userName",
          "type": "bytes32"
        },
        {
          "indexed": false,
          "internalType": "bytes32",
          "name": "userAddr",
          "type": "bytes32"
        },
        {
          "indexed": false,
          "internalType": "uint256",
          "name": "time",
          "type": "uint256"
        }
      ],
      "name": "NewUser",
      "type": "event"
    },
    {
      "anonymous": false,
      "inputs": [
        {
          "indexed": false,
          "internalType": "address",
          "name": "from",
          "type": "address"
        },
        {
          "indexed": false,
          "internalType": "address",
          "name": "to",
          "type": "address"
        }
      ],
      "name": "SignerChanged",
      "type": "event"
    },
    {
      "inputs": [
        {
          "internalType": "address",
          "name": "_account",
          "type": "address"
        },
        {
          "internalType": "bytes32",
          "name": "_userName",
          "type": "bytes32"
        },
        {
          "internalType": "bytes32",
          "name": "_userAddress",
          "type": "bytes32"
        }
      ],
      "name": "newUser",
      "outputs": [],
      "stateMutability": "nonpayable",
      "type": "function"
    },
    {
      "inputs": [
        {
          "internalType": "address",
          "name": "_account",
          "type": "address"
        },
        {
          "internalType": "bool",
          "name": "failSafe",
          "type": "bool"
        }
      ],
      "name": "deleteUser",
      "outputs": [],
      "stateMutability": "nonpayable",
      "type": "function"
    },
    {
      "inputs": [
        {
          "internalType": "address",
          "name": "_userInterface",
          "type": "address"
        }
      ],
      "name": "passInterfaceSigner",
      "outputs": [
        {
          "internalType": "bool",
          "name": "",
          "type": "bool"
        }
      ],
      "stateMutability": "nonpayable",
      "type": "function"
    }
  ],
  "bytecode": "0x60806040523480156200001157600080fd5b5060405162001273380380620012738339818101604052810190620000379190620000d6565b33600160006101000a81548173ffffffffffffffffffffffffffffffffffffffff021916908373ffffffffffffffffffffffffffffffffffffffff160217905550806000806101000a81548173ffffffffffffffffffffffffffffffffffffffff021916908373ffffffffffffffffffffffffffffffffffffffff160217905550506200016f565b600081519050620000d08162000155565b92915050565b600060208284031215620000ef57620000ee62000150565b5b6000620000ff84828501620000bf565b91505092915050565b6000620001158262000130565b9050919050565b6000620001298262000108565b9050919050565b600073ffffffffffffffffffffffffffffffffffffffff82169050919050565b600080fd5b62000160816200011c565b81146200016c57600080fd5b50565b6110f4806200017f6000396000f3fe608060405234801561001057600080fd5b50600436106100415760003560e01c806314def8361461004657806387bc9fad14610062578063c4e172da1461007e575b600080fd5b610060600480360381019061005b91906109f6565b6100ae565b005b61007c600480360381019061007791906109b6565b61047a565b005b6100986004803603810190610093919061095c565b6107a7565b6040516100a59190610e0a565b60405180910390f35b600160009054906101000a900473ffffffffffffffffffffffffffffffffffffffff1673ffffffffffffffffffffffffffffffffffffffff168373ffffffffffffffffffffffffffffffffffffffff161461013e576040517f08c379a000000000000000000000000000000000000000000000000000000000815260040161013590610e8e565b60405180910390fd5b60008054906101000a900473ffffffffffffffffffffffffffffffffffffffff1673ffffffffffffffffffffffffffffffffffffffff166351b669216040518163ffffffff1660e01b8152600401600060405180830381600087803b1580156101a657600080fd5b505af11580156101ba573d6000803e3d6000fd5b5050505060008054906101000a900473ffffffffffffffffffffffffffffffffffffffff1673ffffffffffffffffffffffffffffffffffffffff16632bacead68460405180610100016040528060008054906101000a900473ffffffffffffffffffffffffffffffffffffffff1673ffffffffffffffffffffffffffffffffffffffff1663b5cb15f76040518163ffffffff1660e01b815260040160206040518083038186803b15801561026d57600080fd5b505afa158015610281573d6000803e3d6000fd5b505050506040513d601f19601f820116820180604052508101906102a59190610a76565b6040516020016102b59190610d36565b6040516020818303038152906040528051906020012081526020018681526020018581526020014281526020018773ffffffffffffffffffffffffffffffffffffffff168152602001600067ffffffffffffffff81111561031957610318610f8d565b5b6040519080825280602002602001820160405280156103475781602001602082028036833780820191505090505b508152602001600067ffffffffffffffff81111561036857610367610f8d565b5b6040519080825280602002602001820160405280156103965781602001602082028036833780820191505090505b508152602001600067ffffffffffffffff8111156103b7576103b6610f8d565b5b6040519080825280602002602001820160405280156103e55781602001602082028036833780820191505090505b508152506040518363ffffffff1660e01b8152600401610406929190610dda565b600060405180830381600087803b15801561042057600080fd5b505af1158015610434573d6000803e3d6000fd5b505050507fad37dec01c6ce7809ff746e60106df4650385c4edc5e42cec69b5b2c47caebe18383834260405161046d9493929190610d95565b60405180910390a1505050565b600160009054906101000a900473ffffffffffffffffffffffffffffffffffffffff1673ffffffffffffffffffffffffffffffffffffffff168273ffffffffffffffffffffffffffffffffffffffff161480156104db575060011515811515145b61051a576040517f08c379a000000000000000000000000000000000000000000000000000000000815260040161051190610e8e565b60405180910390fd5b8173ffffffffffffffffffffffffffffffffffffffff1660008054906101000a900473ffffffffffffffffffffffffffffffffffffffff1673ffffffffffffffffffffffffffffffffffffffff1663b4108a94846040518263ffffffff1660e01b815260040161058a9190610d51565b60206040518083038186803b1580156105a257600080fd5b505afa1580156105b6573d6000803e3d6000fd5b505050506040513d601f19601f820116820180604052508101906105da9190610989565b73ffffffffffffffffffffffffffffffffffffffff1614610630576040517f08c379a000000000000000000000000000000000000000000000000000000000815260040161062790610e4e565b60405180910390fd5b60008060009054906101000a900473ffffffffffffffffffffffffffffffffffffffff1673ffffffffffffffffffffffffffffffffffffffff166365f68c89846040518263ffffffff1660e01b815260040161068c9190610d51565b60206040518083038186803b1580156106a457600080fd5b505afa1580156106b8573d6000803e3d6000fd5b505050506040513d601f19601f820116820180604052508101906106dc9190610a49565b905060008054906101000a900473ffffffffffffffffffffffffffffffffffffffff1673ffffffffffffffffffffffffffffffffffffffff16635c60f226846040518263ffffffff1660e01b81526004016107379190610d51565b600060405180830381600087803b15801561075157600080fd5b505af1158015610765573d6000803e3d6000fd5b505050507f082d74e9bfc019b84d1e99edda9f9a5ffb700aca14f5288ced7dd8771b9cc655814260405161079a929190610e25565b60405180910390a1505050565b6000600160009054906101000a900473ffffffffffffffffffffffffffffffffffffffff1673ffffffffffffffffffffffffffffffffffffffff163373ffffffffffffffffffffffffffffffffffffffff1614610839576040517f08c379a000000000000000000000000000000000000000000000000000000000815260040161083090610e6e565b60405180910390fd5b81600160006101000a81548173ffffffffffffffffffffffffffffffffffffffff021916908373ffffffffffffffffffffffffffffffffffffffff1602179055507feeb293e1f8f3a9db91ade748726387ed1352ca78f5430c5f06fe3d1e1ad5057933600160009054906101000a900473ffffffffffffffffffffffffffffffffffffffff166040516108cd929190610d6c565b60405180910390a160019050919050565b6000813590506108ed81611062565b92915050565b60008151905061090281611062565b92915050565b60008135905061091781611079565b92915050565b60008135905061092c81611090565b92915050565b60008151905061094181611090565b92915050565b600081519050610956816110a7565b92915050565b60006020828403121561097257610971610fbc565b5b6000610980848285016108de565b91505092915050565b60006020828403121561099f5761099e610fbc565b5b60006109ad848285016108f3565b91505092915050565b600080604083850312156109cd576109cc610fbc565b5b60006109db858286016108de565b92505060206109ec85828601610908565b9150509250929050565b600080600060608486031215610a0f57610a0e610fbc565b5b6000610a1d868287016108de565b9350506020610a2e8682870161091d565b9250506040610a3f8682870161091d565b9150509250925092565b600060208284031215610a5f57610a5e610fbc565b5b6000610a6d84828501610932565b91505092915050565b600060208284031215610a8c57610a8b610fbc565b5b6000610a9a84828501610947565b91505092915050565b6000610aaf8383610ad3565b60208301905092915050565b6000610ac78383610bbc565b60208301905092915050565b610adc81610f31565b82525050565b610aeb81610f31565b82525050565b6000610afc82610ece565b610b068185610efe565b9350610b1183610eae565b8060005b83811015610b42578151610b298882610aa3565b9750610b3483610ee4565b925050600181019050610b15565b5085935050505092915050565b6000610b5a82610ed9565b610b648185610f0f565b9350610b6f83610ebe565b8060005b83811015610ba0578151610b878882610abb565b9750610b9283610ef1565b925050600181019050610b73565b5085935050505092915050565b610bb681610f43565b82525050565b610bc581610f4f565b82525050565b610bd481610f4f565b82525050565b6000610be7601c83610f20565b9150610bf282610fc1565b602082019050919050565b6000610c0a602783610f20565b9150610c1582610fea565b604082019050919050565b6000610c2d602083610f20565b9150610c3882611039565b602082019050919050565b600061010083016000830151610c5c6000860182610bbc565b506020830151610c6f6020860182610bbc565b506040830151610c826040860182610bbc565b506060830151610c956060860182610d01565b506080830151610ca86080860182610ad3565b5060a083015184820360a0860152610cc08282610af1565b91505060c083015184820360c0860152610cda8282610af1565b91505060e083015184820360e0860152610cf48282610b4f565b9150508091505092915050565b610d0a81610f79565b82525050565b610d1981610f79565b82525050565b610d30610d2b82610f79565b610f83565b82525050565b6000610d428284610d1f565b60208201915081905092915050565b6000602082019050610d666000830184610ae2565b92915050565b6000604082019050610d816000830185610ae2565b610d8e6020830184610ae2565b9392505050565b6000608082019050610daa6000830187610ae2565b610db76020830186610bcb565b610dc46040830185610bcb565b610dd16060830184610d10565b95945050505050565b6000604082019050610def6000830185610ae2565b8181036020830152610e018184610c43565b90509392505050565b6000602082019050610e1f6000830184610bad565b92915050565b6000604082019050610e3a6000830185610bcb565b610e476020830184610d10565b9392505050565b60006020820190508181036000830152610e6781610bda565b9050919050565b60006020820190508181036000830152610e8781610bfd565b9050919050565b60006020820190508181036000830152610ea781610c20565b9050919050565b6000819050602082019050919050565b6000819050602082019050919050565b600081519050919050565b600081519050919050565b6000602082019050919050565b6000602082019050919050565b600082825260208201905092915050565b600082825260208201905092915050565b600082825260208201905092915050565b6000610f3c82610f59565b9050919050565b60008115159050919050565b6000819050919050565b600073ffffffffffffffffffffffffffffffffffffffff82169050919050565b6000819050919050565b6000819050919050565b7f4e487b7100000000000000000000000000000000000000000000000000000000600052604160045260246000fd5b600080fd5b7f4572726f723a206163636f756e7420646f65736e277420657869737400000000600082015250565b7f4572726f723a206d73672e73656e646572206d75737420626520666163746f7260008201527f795369676e657200000000000000000000000000000000000000000000000000602082015250565b7f4572726f723a206163636f756e74206d75737420626520696e74657266616365600082015250565b61106b81610f31565b811461107657600080fd5b50565b61108281610f43565b811461108d57600080fd5b50565b61109981610f4f565b81146110a457600080fd5b50565b6110b081610f79565b81146110bb57600080fd5b5056fea26469706673582212208ecd2239935e0da26853ee6b7507f1006e1c1ac00f83489a255bd9f65582020b64736f6c63430008070033",
  "immutableReferences": {},
  "source": "// SPDX-License-Identifier: MIT\n\npragma solidity >=0.8.0 <0.9.0;\n\nimport \"./UserStorage.sol\";\n\ncontract UserFactory {\n\n  UserStorage private userStorage;\n\n  address private signer;\n\n  event NewUser(address account, bytes32 userName, bytes32 userAddr, uint time);\n  event DeletedUser(bytes32 id, uint time);\n  event SignerChanged(address from, address to);\n/*\n  struct User {\n    bytes32 id; // user number in order\n    bytes32 name; // user name\n    bytes32 userAddr; // user address (@)\n    uint time; // user creation time\n    address addr; // address of user\n    address[] followers; // addresses of followers\n    address[] following; // addressses of following\n    uint[] posts; // memeIds of posts\n  }\n*/\n  constructor(UserStorage _userStorage) public {\n    signer = msg.sender;\n    userStorage = _userStorage;\n  }\n\n  function newUser(\n    address _account,\n    bytes32 _userName,\n    bytes32 _userAddress\n  ) public {\n    require(\n      _account==signer,\n      'Error: account must be interface');\n    userStorage.increaseUserCount();\n    // set user to account address\n    userStorage.setUser(_account, UserStorage.User(\n      keccak256(abi.encodePacked(userStorage.getUserCount())), // user id hashed through keccak\n      _userName, // user name\n      _userAddress, // user address\n      block.timestamp, // user creation time\n      _account, // address of user\n      new address[](0), // addresses of followers\n      new address[](0), // addresses of following\n      new bytes32[](0) // memeIds of posts\n    ));\n    emit NewUser(_account, _userName, _userAddress, block.timestamp);\n  }\n  function deleteUser(\n    address _account,\n    bool failSafe\n  ) public {\n    require(\n      _account==signer && failSafe==true,\n      'Error: account must be interface');\n    require(\n      userStorage.getAddr(_account)==_account,\n      'Error: account doesn\\'t exist');\n\n    bytes32 _deletedUser = userStorage.getId(_account);\n    // remove followers and following here\n    userStorage.deleteUser(_account);\n    emit DeletedUser(_deletedUser, block.timestamp);\n  }\n\n  // pass signer role to interface\n  function passInterfaceSigner(address _userInterface) public returns(bool) {\n    require(\n      msg.sender==signer,\n      'Error: msg.sender must be factorySigner');\n\n    signer = _userInterface;\n    emit SignerChanged(msg.sender, signer);\n    return true;\n  }\n}\n",
  "sourcePath": "/Users/jaiq/Documents/000 BLOCKCHAIN/ETH/uMe/src/contracts/UserFactory.sol",
  "compiler": {
    "name": "solc",
    "version": "0.8.7+commit.e28d00a7.Emscripten.clang"
  },
  "schemaVersion": "3.4.3",
  "updatedAt": "2021-08-25T09:08:10.572Z",
  "networkType": "ethereum",
  "devdoc": {
    "kind": "dev",
    "methods": {},
    "version": 1
  },
  "userdoc": {
    "kind": "user",
    "methods": {},
    "version": 1
  }
}