{
  "contractName": "UserFactory",
  "abi": [
    {
      "inputs": [
        {
          "internalType": "contract UserStorage",
          "name": "_userStorage",
          "type": "address"
        }
      ],
      "stateMutability": "nonpayable",
      "type": "constructor"
    },
    {
      "anonymous": false,
      "inputs": [
        {
          "indexed": false,
          "internalType": "bytes32",
          "name": "id",
          "type": "bytes32"
        },
        {
          "indexed": false,
          "internalType": "uint256",
          "name": "time",
          "type": "uint256"
        }
      ],
      "name": "DeletedUser",
      "type": "event"
    },
    {
      "anonymous": false,
      "inputs": [
        {
          "indexed": false,
          "internalType": "address",
          "name": "account",
          "type": "address"
        },
        {
          "indexed": false,
          "internalType": "bytes32",
          "name": "userName",
          "type": "bytes32"
        },
        {
          "indexed": false,
          "internalType": "bytes32",
          "name": "userAddr",
          "type": "bytes32"
        },
        {
          "indexed": false,
          "internalType": "uint256",
          "name": "time",
          "type": "uint256"
        }
      ],
      "name": "NewUser",
      "type": "event"
    },
    {
      "anonymous": false,
      "inputs": [
        {
          "indexed": false,
          "internalType": "address",
          "name": "from",
          "type": "address"
        },
        {
          "indexed": false,
          "internalType": "address",
          "name": "to",
          "type": "address"
        }
      ],
      "name": "SignerChanged",
      "type": "event"
    },
    {
      "inputs": [],
      "name": "signer",
      "outputs": [
        {
          "internalType": "address",
          "name": "",
          "type": "address"
        }
      ],
      "stateMutability": "view",
      "type": "function",
      "constant": true
    },
    {
      "inputs": [
        {
          "internalType": "address",
          "name": "_account",
          "type": "address"
        },
        {
          "internalType": "bytes32",
          "name": "_userName",
          "type": "bytes32"
        },
        {
          "internalType": "bytes32",
          "name": "_userAddress",
          "type": "bytes32"
        }
      ],
      "name": "newUser",
      "outputs": [],
      "stateMutability": "nonpayable",
      "type": "function"
    },
    {
      "inputs": [
        {
          "internalType": "address",
          "name": "_account",
          "type": "address"
        },
        {
          "internalType": "bool",
          "name": "failSafe",
          "type": "bool"
        }
      ],
      "name": "deleteUser",
      "outputs": [],
      "stateMutability": "nonpayable",
      "type": "function"
    },
    {
      "inputs": [
        {
          "internalType": "address",
          "name": "_userInterface",
          "type": "address"
        }
      ],
      "name": "passInterfaceSigner",
      "outputs": [
        {
          "internalType": "bool",
          "name": "",
          "type": "bool"
        }
      ],
      "stateMutability": "nonpayable",
      "type": "function"
    }
  ],
  "bytecode": "0x60806040523480156200001157600080fd5b5060405162001398380380620013988339818101604052810190620000379190620000d6565b33600160006101000a81548173ffffffffffffffffffffffffffffffffffffffff021916908373ffffffffffffffffffffffffffffffffffffffff160217905550806000806101000a81548173ffffffffffffffffffffffffffffffffffffffff021916908373ffffffffffffffffffffffffffffffffffffffff160217905550506200016f565b600081519050620000d08162000155565b92915050565b600060208284031215620000ef57620000ee62000150565b5b6000620000ff84828501620000bf565b91505092915050565b6000620001158262000130565b9050919050565b6000620001298262000108565b9050919050565b600073ffffffffffffffffffffffffffffffffffffffff82169050919050565b600080fd5b62000160816200011c565b81146200016c57600080fd5b50565b611219806200017f6000396000f3fe608060405234801561001057600080fd5b506004361061004c5760003560e01c806314def83614610051578063238ac9331461006d57806387bc9fad1461008b578063c4e172da146100a7575b600080fd5b61006b60048036038101906100669190610ae3565b6100d7565b005b610075610541565b6040516100829190610e76565b60405180910390f35b6100a560048036038101906100a09190610aa3565b610567565b005b6100c160048036038101906100bc9190610a49565b610894565b6040516100ce9190610f2f565b60405180910390f35b600160009054906101000a900473ffffffffffffffffffffffffffffffffffffffff1673ffffffffffffffffffffffffffffffffffffffff163373ffffffffffffffffffffffffffffffffffffffff1614610167576040517f08c379a000000000000000000000000000000000000000000000000000000000815260040161015e90610fb3565b60405180910390fd5b60008054906101000a900473ffffffffffffffffffffffffffffffffffffffff1673ffffffffffffffffffffffffffffffffffffffff166351b669216040518163ffffffff1660e01b8152600401600060405180830381600087803b1580156101cf57600080fd5b505af11580156101e3573d6000803e3d6000fd5b5050505060008054906101000a900473ffffffffffffffffffffffffffffffffffffffff1673ffffffffffffffffffffffffffffffffffffffff1663a42b9ba48460405180610140016040528060008054906101000a900473ffffffffffffffffffffffffffffffffffffffff1673ffffffffffffffffffffffffffffffffffffffff166307973ccf6040518163ffffffff1660e01b815260040160206040518083038186803b15801561029657600080fd5b505afa1580156102aa573d6000803e3d6000fd5b505050506040513d601f19601f820116820180604052508101906102ce9190610b63565b6040516020016102de9190610e5b565b6040516020818303038152906040528051906020012081526020018681526020018581526020014281526020018773ffffffffffffffffffffffffffffffffffffffff168152602001600067ffffffffffffffff811115610342576103416110b2565b5b6040519080825280602002602001820160405280156103705781602001602082028036833780820191505090505b508152602001600067ffffffffffffffff811115610391576103906110b2565b5b6040519080825280602002602001820160405280156103bf5781602001602082028036833780820191505090505b508152602001600067ffffffffffffffff8111156103e0576103df6110b2565b5b60405190808252806020026020018201604052801561040e5781602001602082028036833780820191505090505b508152602001600067ffffffffffffffff81111561042f5761042e6110b2565b5b60405190808252806020026020018201604052801561045d5781602001602082028036833780820191505090505b508152602001600067ffffffffffffffff81111561047e5761047d6110b2565b5b6040519080825280602002602001820160405280156104ac5781602001602082028036833780820191505090505b508152506040518363ffffffff1660e01b81526004016104cd929190610eff565b600060405180830381600087803b1580156104e757600080fd5b505af11580156104fb573d6000803e3d6000fd5b505050507fad37dec01c6ce7809ff746e60106df4650385c4edc5e42cec69b5b2c47caebe1838383426040516105349493929190610eba565b60405180910390a1505050565b600160009054906101000a900473ffffffffffffffffffffffffffffffffffffffff1681565b600160009054906101000a900473ffffffffffffffffffffffffffffffffffffffff1673ffffffffffffffffffffffffffffffffffffffff163373ffffffffffffffffffffffffffffffffffffffff161480156105c8575060011515811515145b610607576040517f08c379a00000000000000000000000000000000000000000000000000000000081526004016105fe90610fb3565b60405180910390fd5b8173ffffffffffffffffffffffffffffffffffffffff1660008054906101000a900473ffffffffffffffffffffffffffffffffffffffff1673ffffffffffffffffffffffffffffffffffffffff1663b4108a94846040518263ffffffff1660e01b81526004016106779190610e76565b60206040518083038186803b15801561068f57600080fd5b505afa1580156106a3573d6000803e3d6000fd5b505050506040513d601f19601f820116820180604052508101906106c79190610a76565b73ffffffffffffffffffffffffffffffffffffffff161461071d576040517f08c379a000000000000000000000000000000000000000000000000000000000815260040161071490610f73565b60405180910390fd5b60008060009054906101000a900473ffffffffffffffffffffffffffffffffffffffff1673ffffffffffffffffffffffffffffffffffffffff166365f68c89846040518263ffffffff1660e01b81526004016107799190610e76565b60206040518083038186803b15801561079157600080fd5b505afa1580156107a5573d6000803e3d6000fd5b505050506040513d601f19601f820116820180604052508101906107c99190610b36565b905060008054906101000a900473ffffffffffffffffffffffffffffffffffffffff1673ffffffffffffffffffffffffffffffffffffffff16635c60f226846040518263ffffffff1660e01b81526004016108249190610e76565b600060405180830381600087803b15801561083e57600080fd5b505af1158015610852573d6000803e3d6000fd5b505050507f082d74e9bfc019b84d1e99edda9f9a5ffb700aca14f5288ced7dd8771b9cc6558142604051610887929190610f4a565b60405180910390a1505050565b6000600160009054906101000a900473ffffffffffffffffffffffffffffffffffffffff1673ffffffffffffffffffffffffffffffffffffffff163373ffffffffffffffffffffffffffffffffffffffff1614610926576040517f08c379a000000000000000000000000000000000000000000000000000000000815260040161091d90610f93565b60405180910390fd5b81600160006101000a81548173ffffffffffffffffffffffffffffffffffffffff021916908373ffffffffffffffffffffffffffffffffffffffff1602179055507feeb293e1f8f3a9db91ade748726387ed1352ca78f5430c5f06fe3d1e1ad5057933600160009054906101000a900473ffffffffffffffffffffffffffffffffffffffff166040516109ba929190610e91565b60405180910390a160019050919050565b6000813590506109da81611187565b92915050565b6000815190506109ef81611187565b92915050565b600081359050610a048161119e565b92915050565b600081359050610a19816111b5565b92915050565b600081519050610a2e816111b5565b92915050565b600081519050610a43816111cc565b92915050565b600060208284031215610a5f57610a5e6110e1565b5b6000610a6d848285016109cb565b91505092915050565b600060208284031215610a8c57610a8b6110e1565b5b6000610a9a848285016109e0565b91505092915050565b60008060408385031215610aba57610ab96110e1565b5b6000610ac8858286016109cb565b9250506020610ad9858286016109f5565b9150509250929050565b600080600060608486031215610afc57610afb6110e1565b5b6000610b0a868287016109cb565b9350506020610b1b86828701610a0a565b9250506040610b2c86828701610a0a565b9150509250925092565b600060208284031215610b4c57610b4b6110e1565b5b6000610b5a84828501610a1f565b91505092915050565b600060208284031215610b7957610b786110e1565b5b6000610b8784828501610a34565b91505092915050565b6000610b9c8383610bc0565b60208301905092915050565b6000610bb48383610ca9565b60208301905092915050565b610bc981611056565b82525050565b610bd881611056565b82525050565b6000610be982610ff3565b610bf38185611023565b9350610bfe83610fd3565b8060005b83811015610c2f578151610c168882610b90565b9750610c2183611009565b925050600181019050610c02565b5085935050505092915050565b6000610c4782610ffe565b610c518185611034565b9350610c5c83610fe3565b8060005b83811015610c8d578151610c748882610ba8565b9750610c7f83611016565b925050600181019050610c60565b5085935050505092915050565b610ca381611068565b82525050565b610cb281611074565b82525050565b610cc181611074565b82525050565b6000610cd4601c83611045565b9150610cdf826110e6565b602082019050919050565b6000610cf7602783611045565b9150610d028261110f565b604082019050919050565b6000610d1a602083611045565b9150610d258261115e565b602082019050919050565b600061014083016000830151610d496000860182610ca9565b506020830151610d5c6020860182610ca9565b506040830151610d6f6040860182610ca9565b506060830151610d826060860182610e26565b506080830151610d956080860182610bc0565b5060a083015184820360a0860152610dad8282610bde565b91505060c083015184820360c0860152610dc78282610bde565b91505060e083015184820360e0860152610de18282610bde565b915050610100830151848203610100860152610dfd8282610bde565b915050610120830151848203610120860152610e198282610c3c565b9150508091505092915050565b610e2f8161109e565b82525050565b610e3e8161109e565b82525050565b610e55610e508261109e565b6110a8565b82525050565b6000610e678284610e44565b60208201915081905092915050565b6000602082019050610e8b6000830184610bcf565b92915050565b6000604082019050610ea66000830185610bcf565b610eb36020830184610bcf565b9392505050565b6000608082019050610ecf6000830187610bcf565b610edc6020830186610cb8565b610ee96040830185610cb8565b610ef66060830184610e35565b95945050505050565b6000604082019050610f146000830185610bcf565b8181036020830152610f268184610d30565b90509392505050565b6000602082019050610f446000830184610c9a565b92915050565b6000604082019050610f5f6000830185610cb8565b610f6c6020830184610e35565b9392505050565b60006020820190508181036000830152610f8c81610cc7565b9050919050565b60006020820190508181036000830152610fac81610cea565b9050919050565b60006020820190508181036000830152610fcc81610d0d565b9050919050565b6000819050602082019050919050565b6000819050602082019050919050565b600081519050919050565b600081519050919050565b6000602082019050919050565b6000602082019050919050565b600082825260208201905092915050565b600082825260208201905092915050565b600082825260208201905092915050565b60006110618261107e565b9050919050565b60008115159050919050565b6000819050919050565b600073ffffffffffffffffffffffffffffffffffffffff82169050919050565b6000819050919050565b6000819050919050565b7f4e487b7100000000000000000000000000000000000000000000000000000000600052604160045260246000fd5b600080fd5b7f4572726f723a206163636f756e7420646f65736e277420657869737400000000600082015250565b7f4572726f723a206d73672e73656e646572206d75737420626520666163746f7260008201527f795369676e657200000000000000000000000000000000000000000000000000602082015250565b7f4572726f723a206163636f756e74206d75737420626520696e74657266616365600082015250565b61119081611056565b811461119b57600080fd5b50565b6111a781611068565b81146111b257600080fd5b50565b6111be81611074565b81146111c957600080fd5b50565b6111d58161109e565b81146111e057600080fd5b5056fea26469706673582212205e854c5fb11a786107b63c383bc03335a9f7f3d624597ac1ddba0b39bd3c407564736f6c63430008070033",
  "immutableReferences": {},
  "source": "// SPDX-License-Identifier: MIT\n\npragma solidity >=0.8.0 <0.9.0;\n\nimport \"./UserStorage.sol\";\n\ncontract UserFactory {\n\n  UserStorage private userStorage;\n\n  address public signer;\n\n  event NewUser(address account, bytes32 userName, bytes32 userAddr, uint time);\n  event DeletedUser(bytes32 id, uint time);\n  event SignerChanged(address from, address to);\n/*\n  struct User {\n    bytes32 id; // user number in order\n    bytes32 name; // user name\n    bytes32 userAddr; // user address (@)\n    uint time; // user creation time\n    address addr; // address of user\n    address[] followers; // addresses of followers\n    address[] following; // addressses of following\n    uint[] posts; // memeIds of posts\n  }\n*/\n  constructor(UserStorage _userStorage) public {\n    signer = msg.sender;\n    userStorage = _userStorage;\n  }\n\n  function newUser(\n    address _account,\n    bytes32 _userName,\n    bytes32 _userAddress\n  ) public {\n    require(\n      msg.sender==signer,\n      'Error: account must be interface');\n    userStorage.increaseUserCount();\n    // set user to account address\n    userStorage.setUser( _account, UserStorage.User(\n      keccak256(abi.encodePacked(userStorage.userCount())), // user id hashed through keccak\n      _userName, // user name\n      _userAddress, // user address\n      block.timestamp, // user creation time\n      _account, // address of user\n      new address[](0), // addresses of followers\n      new address[](0), // addresses of following\n      new address[](0), // addresses of unfollowers\n      new address[](0), // addresses of unfollowing\n      new bytes32[](0) // memeIds of posts\n    ));\n    emit NewUser(_account, _userName, _userAddress, block.timestamp);\n  }\n  function deleteUser(\n    address _account,\n    bool failSafe\n  ) public {\n    require(\n      msg.sender==signer && failSafe==true,\n      'Error: account must be interface');\n    require(\n      userStorage.getAddr(_account)==_account,\n      'Error: account doesn\\'t exist');\n\n    bytes32 _deletedUser = userStorage.getId(_account);\n    // remove followers and following here\n    userStorage.deleteUser(_account);\n    emit DeletedUser(_deletedUser, block.timestamp);\n  }\n\n  // pass signer role to interface\n  function passInterfaceSigner(address _userInterface) public returns(bool) {\n    require(\n      msg.sender==signer,\n      'Error: msg.sender must be factorySigner');\n\n    signer = _userInterface;\n    emit SignerChanged(msg.sender, signer);\n    return true;\n  }\n}\n",
  "sourcePath": "/Users/jaiq/Documents/000 BLOCKCHAIN/ETH/uMe/src/contracts/UserFactory.sol",
  "compiler": {
    "name": "solc",
    "version": "0.8.7+commit.e28d00a7.Emscripten.clang"
  },
  "schemaVersion": "3.4.3",
  "updatedAt": "2021-08-28T21:23:59.710Z",
  "networkType": "ethereum",
  "devdoc": {
    "kind": "dev",
    "methods": {},
    "version": 1
  },
  "userdoc": {
    "kind": "user",
    "methods": {},
    "version": 1
  }
}