{
  "contractName": "UserInterface",
  "abi": [
    {
      "inputs": [
        {
          "internalType": "contract UME",
          "name": "_umeToken",
          "type": "address"
        },
        {
          "internalType": "contract MemeStorage",
          "name": "_memeStorage",
          "type": "address"
        },
        {
          "internalType": "contract UserStorage",
          "name": "_userStorage",
          "type": "address"
        },
        {
          "internalType": "contract UserFactory",
          "name": "_userFactory",
          "type": "address"
        },
        {
          "internalType": "contract Post",
          "name": "_post",
          "type": "address"
        },
        {
          "internalType": "contract Like",
          "name": "_like",
          "type": "address"
        },
        {
          "internalType": "contract Follow",
          "name": "_follow",
          "type": "address"
        },
        {
          "internalType": "contract Boost",
          "name": "_boost",
          "type": "address"
        }
      ],
      "stateMutability": "nonpayable",
      "type": "constructor"
    },
    {
      "anonymous": false,
      "inputs": [
        {
          "indexed": true,
          "internalType": "address",
          "name": "account",
          "type": "address"
        },
        {
          "indexed": false,
          "internalType": "bytes32",
          "name": "userAddress",
          "type": "bytes32"
        }
      ],
      "name": "ChangedUserAddress",
      "type": "event"
    },
    {
      "anonymous": false,
      "inputs": [
        {
          "indexed": true,
          "internalType": "address",
          "name": "account",
          "type": "address"
        },
        {
          "indexed": false,
          "internalType": "bytes32",
          "name": "userName",
          "type": "bytes32"
        }
      ],
      "name": "ChangedUserName",
      "type": "event"
    },
    {
      "anonymous": false,
      "inputs": [
        {
          "indexed": true,
          "internalType": "address",
          "name": "account",
          "type": "address"
        },
        {
          "indexed": false,
          "internalType": "bytes32",
          "name": "userName",
          "type": "bytes32"
        },
        {
          "indexed": false,
          "internalType": "bytes32",
          "name": "userAddress",
          "type": "bytes32"
        }
      ],
      "name": "NewUser",
      "type": "event"
    },
    {
      "inputs": [
        {
          "internalType": "address",
          "name": "_account",
          "type": "address"
        },
        {
          "internalType": "bytes",
          "name": "_userName",
          "type": "bytes"
        },
        {
          "internalType": "bytes",
          "name": "_userAddress",
          "type": "bytes"
        },
        {
          "internalType": "string",
          "name": "_imgHash",
          "type": "string"
        }
      ],
      "name": "newUser",
      "outputs": [],
      "stateMutability": "nonpayable",
      "type": "function"
    },
    {
      "inputs": [
        {
          "internalType": "address",
          "name": "_account",
          "type": "address"
        },
        {
          "internalType": "bytes",
          "name": "_userName",
          "type": "bytes"
        }
      ],
      "name": "changeUserName",
      "outputs": [],
      "stateMutability": "nonpayable",
      "type": "function"
    },
    {
      "inputs": [
        {
          "internalType": "address",
          "name": "_account",
          "type": "address"
        },
        {
          "internalType": "bytes",
          "name": "_userAddress",
          "type": "bytes"
        }
      ],
      "name": "changeUserAddress",
      "outputs": [],
      "stateMutability": "nonpayable",
      "type": "function"
    },
    {
      "inputs": [
        {
          "internalType": "address",
          "name": "_account",
          "type": "address"
        },
        {
          "internalType": "string",
          "name": "_bio",
          "type": "string"
        }
      ],
      "name": "newBio",
      "outputs": [],
      "stateMutability": "nonpayable",
      "type": "function"
    },
    {
      "inputs": [
        {
          "internalType": "address",
          "name": "_account",
          "type": "address"
        },
        {
          "internalType": "string",
          "name": "_imgHash",
          "type": "string"
        }
      ],
      "name": "newProfilePic",
      "outputs": [],
      "stateMutability": "nonpayable",
      "type": "function"
    },
    {
      "inputs": [
        {
          "internalType": "address",
          "name": "_account",
          "type": "address"
        },
        {
          "internalType": "string",
          "name": "_postText",
          "type": "string"
        },
        {
          "internalType": "address[]",
          "name": "_tags",
          "type": "address[]"
        },
        {
          "internalType": "bytes32",
          "name": "_parentId",
          "type": "bytes32"
        },
        {
          "internalType": "bytes32",
          "name": "_originId",
          "type": "bytes32"
        }
      ],
      "name": "newMeme",
      "outputs": [],
      "stateMutability": "nonpayable",
      "type": "function"
    },
    {
      "inputs": [
        {
          "internalType": "address",
          "name": "_account",
          "type": "address"
        },
        {
          "internalType": "bytes32",
          "name": "_memeId",
          "type": "bytes32"
        }
      ],
      "name": "rememe",
      "outputs": [],
      "stateMutability": "nonpayable",
      "type": "function"
    },
    {
      "inputs": [
        {
          "internalType": "address",
          "name": "_account",
          "type": "address"
        },
        {
          "internalType": "string",
          "name": "_postText",
          "type": "string"
        },
        {
          "internalType": "address[]",
          "name": "_tags",
          "type": "address[]"
        },
        {
          "internalType": "bytes32",
          "name": "_parentId",
          "type": "bytes32"
        },
        {
          "internalType": "bytes32",
          "name": "_originId",
          "type": "bytes32"
        },
        {
          "internalType": "bytes32",
          "name": "_memeId",
          "type": "bytes32"
        }
      ],
      "name": "quoteMeme",
      "outputs": [],
      "stateMutability": "nonpayable",
      "type": "function"
    },
    {
      "inputs": [
        {
          "internalType": "address",
          "name": "_account",
          "type": "address"
        },
        {
          "internalType": "bytes32",
          "name": "_memeId",
          "type": "bytes32"
        }
      ],
      "name": "deleteMeme",
      "outputs": [],
      "stateMutability": "nonpayable",
      "type": "function"
    },
    {
      "inputs": [
        {
          "internalType": "address",
          "name": "_account",
          "type": "address"
        },
        {
          "internalType": "bytes32",
          "name": "_memeId",
          "type": "bytes32"
        }
      ],
      "name": "likeMeme",
      "outputs": [],
      "stateMutability": "nonpayable",
      "type": "function"
    },
    {
      "inputs": [
        {
          "internalType": "address",
          "name": "_from",
          "type": "address"
        },
        {
          "internalType": "address",
          "name": "_to",
          "type": "address"
        }
      ],
      "name": "followUser",
      "outputs": [],
      "stateMutability": "nonpayable",
      "type": "function"
    },
    {
      "inputs": [
        {
          "internalType": "address",
          "name": "_account",
          "type": "address"
        },
        {
          "internalType": "bytes32",
          "name": "_memeId",
          "type": "bytes32"
        },
        {
          "internalType": "uint256",
          "name": "_boostNumber",
          "type": "uint256"
        }
      ],
      "name": "boostMeme",
      "outputs": [],
      "stateMutability": "nonpayable",
      "type": "function"
    },
    {
      "inputs": [
        {
          "internalType": "address",
          "name": "_account",
          "type": "address"
        },
        {
          "internalType": "bytes32",
          "name": "_memeId",
          "type": "bytes32"
        },
        {
          "internalType": "uint256",
          "name": "_boostNumber",
          "type": "uint256"
        }
      ],
      "name": "unBoostMeme",
      "outputs": [],
      "stateMutability": "nonpayable",
      "type": "function"
    },
    {
      "inputs": [
        {
          "internalType": "bytes",
          "name": "source",
          "type": "bytes"
        }
      ],
      "name": "bytesToBytes32",
      "outputs": [
        {
          "internalType": "bytes32",
          "name": "result",
          "type": "bytes32"
        }
      ],
      "stateMutability": "pure",
      "type": "function",
      "constant": true
    },
    {
      "inputs": [
        {
          "internalType": "uint256",
          "name": "num",
          "type": "uint256"
        }
      ],
      "name": "encode",
      "outputs": [
        {
          "internalType": "bytes32",
          "name": "",
          "type": "bytes32"
        }
      ],
      "stateMutability": "view",
      "type": "function",
      "constant": true
    }
  ],
  "bytecode": "0x60806040523480156200001157600080fd5b506040516200501b3803806200501b8339818101604052810190620000379190620004ad565b876000806101000a81548173ffffffffffffffffffffffffffffffffffffffff021916908373ffffffffffffffffffffffffffffffffffffffff16021790555086600160006101000a81548173ffffffffffffffffffffffffffffffffffffffff021916908373ffffffffffffffffffffffffffffffffffffffff16021790555085600260006101000a81548173ffffffffffffffffffffffffffffffffffffffff021916908373ffffffffffffffffffffffffffffffffffffffff16021790555084600360006101000a81548173ffffffffffffffffffffffffffffffffffffffff021916908373ffffffffffffffffffffffffffffffffffffffff16021790555083600460006101000a81548173ffffffffffffffffffffffffffffffffffffffff021916908373ffffffffffffffffffffffffffffffffffffffff16021790555082600560006101000a81548173ffffffffffffffffffffffffffffffffffffffff021916908373ffffffffffffffffffffffffffffffffffffffff16021790555081600660006101000a81548173ffffffffffffffffffffffffffffffffffffffff021916908373ffffffffffffffffffffffffffffffffffffffff16021790555080600760006101000a81548173ffffffffffffffffffffffffffffffffffffffff021916908373ffffffffffffffffffffffffffffffffffffffff160217905550505050505050505062000576565b600080fd5b600073ffffffffffffffffffffffffffffffffffffffff82169050919050565b60006200027e8262000251565b9050919050565b6000620002928262000271565b9050919050565b620002a48162000285565b8114620002b057600080fd5b50565b600081519050620002c48162000299565b92915050565b6000620002d78262000271565b9050919050565b620002e981620002ca565b8114620002f557600080fd5b50565b6000815190506200030981620002de565b92915050565b60006200031c8262000271565b9050919050565b6200032e816200030f565b81146200033a57600080fd5b50565b6000815190506200034e8162000323565b92915050565b6000620003618262000271565b9050919050565b620003738162000354565b81146200037f57600080fd5b50565b600081519050620003938162000368565b92915050565b6000620003a68262000271565b9050919050565b620003b88162000399565b8114620003c457600080fd5b50565b600081519050620003d881620003ad565b92915050565b6000620003eb8262000271565b9050919050565b620003fd81620003de565b81146200040957600080fd5b50565b6000815190506200041d81620003f2565b92915050565b6000620004308262000271565b9050919050565b620004428162000423565b81146200044e57600080fd5b50565b600081519050620004628162000437565b92915050565b6000620004758262000271565b9050919050565b620004878162000468565b81146200049357600080fd5b50565b600081519050620004a7816200047c565b92915050565b600080600080600080600080610100898b031215620004d157620004d06200024c565b5b6000620004e18b828c01620002b3565b9850506020620004f48b828c01620002f8565b9750506040620005078b828c016200033d565b96505060606200051a8b828c0162000382565b95505060806200052d8b828c01620003c7565b94505060a0620005408b828c016200040c565b93505060c0620005538b828c0162000451565b92505060e0620005668b828c0162000496565b9150509295985092959890939650565b614a9580620005866000396000f3fe608060405234801561001057600080fd5b50600436106100f55760003560e01c80636b0a493e11610097578063bfe370d911610066578063bfe370d91461022e578063d71a48551461025e578063deb21fa21461027a578063e4f1419e146102aa576100f5565b80636b0a493e146101be578063861f7dff146101da578063944583c3146101f6578063be4641e114610212576100f5565b8063426f5178116100d3578063426f51781461014e5780635dfa90e41461016a578063648c59eb14610186578063654ea484146101a2576100f5565b80630c8273e6146100fa57806337ab42bf146101165780633c840d4214610132575b600080fd5b610114600480360381019061010f9190612d38565b6102c6565b005b610130600480360381019061012b9190612de4565b610633565b005b61014c60048036038101906101479190612de4565b610835565b005b61016860048036038101906101639190612f7d565b610a37565b005b610184600480360381019061017f919061307a565b610b7c565b005b6101a0600480360381019061019b91906130d6565b610ff5565b005b6101bc60048036038101906101b791906131de565b61127e565b005b6101d860048036038101906101d391906130d6565b611784565b005b6101f460048036038101906101ef9190612f7d565b611a90565b005b610210600480360381019061020b919061307a565b611be4565b005b61022c600480360381019061022791906130d6565b611f70565b005b610248600480360381019061024391906132a3565b6122a5565b60405161025591906132fb565b60405180910390f35b61027860048036038101906102739190613316565b6122c8565b005b610294600480360381019061028f91906133c9565b6126a8565b6040516102a191906132fb565b60405180910390f35b6102c460048036038101906102bf91906133f6565b6126d8565b005b3373ffffffffffffffffffffffffffffffffffffffff168273ffffffffffffffffffffffffffffffffffffffff1614610334576040517f08c379a000000000000000000000000000000000000000000000000000000000815260040161032b90613534565b60405180910390fd5b8073ffffffffffffffffffffffffffffffffffffffff168273ffffffffffffffffffffffffffffffffffffffff1614156103a3576040517f08c379a000000000000000000000000000000000000000000000000000000000815260040161039a906135a0565b60405180910390fd5b600073ffffffffffffffffffffffffffffffffffffffff16600260009054906101000a900473ffffffffffffffffffffffffffffffffffffffff1673ffffffffffffffffffffffffffffffffffffffff1663b4108a94846040518263ffffffff1660e01b815260040161041691906135cf565b60206040518083038186803b15801561042e57600080fd5b505afa158015610442573d6000803e3d6000fd5b505050506040513d601f19601f8201168201806040525081019061046691906135ff565b73ffffffffffffffffffffffffffffffffffffffff16141580156105615750600073ffffffffffffffffffffffffffffffffffffffff16600260009054906101000a900473ffffffffffffffffffffffffffffffffffffffff1673ffffffffffffffffffffffffffffffffffffffff1663b4108a94836040518263ffffffff1660e01b81526004016104f891906135cf565b60206040518083038186803b15801561051057600080fd5b505afa158015610524573d6000803e3d6000fd5b505050506040513d601f19601f8201168201806040525081019061054891906135ff565b73ffffffffffffffffffffffffffffffffffffffff1614155b6105a0576040517f08c379a00000000000000000000000000000000000000000000000000000000081526004016105979061369e565b60405180910390fd5b600660009054906101000a900473ffffffffffffffffffffffffffffffffffffffff1673ffffffffffffffffffffffffffffffffffffffff166399d147c283836040518363ffffffff1660e01b81526004016105fd9291906136be565b600060405180830381600087803b15801561061757600080fd5b505af115801561062b573d6000803e3d6000fd5b505050505050565b3373ffffffffffffffffffffffffffffffffffffffff168373ffffffffffffffffffffffffffffffffffffffff16146106a1576040517f08c379a000000000000000000000000000000000000000000000000000000000815260040161069890613759565b60405180910390fd5b670de0b6b3a7640000816106b591906137a8565b60008054906101000a900473ffffffffffffffffffffffffffffffffffffffff1673ffffffffffffffffffffffffffffffffffffffff166370a08231856040518263ffffffff1660e01b815260040161070e91906135cf565b60206040518083038186803b15801561072657600080fd5b505afa15801561073a573d6000803e3d6000fd5b505050506040513d601f19601f8201168201806040525081019061075e9190613817565b101561079f576040517f08c379a0000000000000000000000000000000000000000000000000000000008152600401610796906138b6565b60405180910390fd5b600760009054906101000a900473ffffffffffffffffffffffffffffffffffffffff1673ffffffffffffffffffffffffffffffffffffffff16636da307c88484846040518463ffffffff1660e01b81526004016107fe939291906138e5565b600060405180830381600087803b15801561081857600080fd5b505af115801561082c573d6000803e3d6000fd5b50505050505050565b3373ffffffffffffffffffffffffffffffffffffffff168373ffffffffffffffffffffffffffffffffffffffff16146108a3576040517f08c379a000000000000000000000000000000000000000000000000000000000815260040161089a90613759565b60405180910390fd5b670de0b6b3a7640000816108b791906137a8565b60008054906101000a900473ffffffffffffffffffffffffffffffffffffffff1673ffffffffffffffffffffffffffffffffffffffff166370a08231856040518263ffffffff1660e01b815260040161091091906135cf565b60206040518083038186803b15801561092857600080fd5b505afa15801561093c573d6000803e3d6000fd5b505050506040513d601f19601f820116820180604052508101906109609190613817565b10156109a1576040517f08c379a0000000000000000000000000000000000000000000000000000000008152600401610998906138b6565b60405180910390fd5b600760009054906101000a900473ffffffffffffffffffffffffffffffffffffffff1673ffffffffffffffffffffffffffffffffffffffff16635d177c1c8484846040518463ffffffff1660e01b8152600401610a00939291906138e5565b600060405180830381600087803b158015610a1a57600080fd5b505af1158015610a2e573d6000803e3d6000fd5b50505050505050565b8173ffffffffffffffffffffffffffffffffffffffff163373ffffffffffffffffffffffffffffffffffffffff1614610aa5576040517f08c379a0000000000000000000000000000000000000000000000000000000008152600401610a9c9061398e565b60405180910390fd5b6000815111610ae9576040517f08c379a0000000000000000000000000000000000000000000000000000000008152600401610ae0906139fa565b60405180910390fd5b600260009054906101000a900473ffffffffffffffffffffffffffffffffffffffff1673ffffffffffffffffffffffffffffffffffffffff16630909014b83836040518363ffffffff1660e01b8152600401610b46929190613a91565b600060405180830381600087803b158015610b6057600080fd5b505af1158015610b74573d6000803e3d6000fd5b505050505050565b6000610b87826122a5565b90508273ffffffffffffffffffffffffffffffffffffffff163373ffffffffffffffffffffffffffffffffffffffff1614610bf7576040517f08c379a0000000000000000000000000000000000000000000000000000000008152600401610bee9061398e565b60405180910390fd5b7f40000000000000000000000000000000000000000000000000000000000000007effffffffffffffffffffffffffffffffffffffffffffffffffffffffffffff191682600081518110610c4e57610c4d613ac1565b5b602001015160f81c60f81b7effffffffffffffffffffffffffffffffffffffffffffffffffffffffffffff191614610cbb576040517f08c379a0000000000000000000000000000000000000000000000000000000008152600401610cb290613b62565b60405180910390fd5b60028251118015610cce57506020825111155b610d0d576040517f08c379a0000000000000000000000000000000000000000000000000000000008152600401610d0490613bf4565b60405180910390fd5b80600260009054906101000a900473ffffffffffffffffffffffffffffffffffffffff1673ffffffffffffffffffffffffffffffffffffffff1663e8fc954e856040518263ffffffff1660e01b8152600401610d6991906135cf565b60206040518083038186803b158015610d8157600080fd5b505afa158015610d95573d6000803e3d6000fd5b505050506040513d601f19601f82011682018060405250810190610db99190613c29565b1415610dfa576040517f08c379a0000000000000000000000000000000000000000000000000000000008152600401610df190613cc8565b60405180910390fd5b600073ffffffffffffffffffffffffffffffffffffffff16600260009054906101000a900473ffffffffffffffffffffffffffffffffffffffff1673ffffffffffffffffffffffffffffffffffffffff166311e0bda7836040518263ffffffff1660e01b8152600401610e6d91906132fb565b60206040518083038186803b158015610e8557600080fd5b505afa158015610e99573d6000803e3d6000fd5b505050506040513d601f19601f82011682018060405250810190610ebd91906135ff565b73ffffffffffffffffffffffffffffffffffffffff1614610f13576040517f08c379a0000000000000000000000000000000000000000000000000000000008152600401610f0a90613d5a565b60405180910390fd5b600260009054906101000a900473ffffffffffffffffffffffffffffffffffffffff1673ffffffffffffffffffffffffffffffffffffffff1663a477c0bf84836040518363ffffffff1660e01b8152600401610f70929190613d7a565b600060405180830381600087803b158015610f8a57600080fd5b505af1158015610f9e573d6000803e3d6000fd5b505050508273ffffffffffffffffffffffffffffffffffffffff167f04d371655880a064ab42f6fee28675351cb26ca88a7e5a9d6140cb0ec6ca568d82604051610fe891906132fb565b60405180910390a2505050565b3373ffffffffffffffffffffffffffffffffffffffff168273ffffffffffffffffffffffffffffffffffffffff1614611063576040517f08c379a000000000000000000000000000000000000000000000000000000000815260040161105a90613e15565b60405180910390fd5b60008054906101000a900473ffffffffffffffffffffffffffffffffffffffff1673ffffffffffffffffffffffffffffffffffffffff166306d29bfc6040518163ffffffff1660e01b815260040160206040518083038186803b1580156110c957600080fd5b505afa1580156110dd573d6000803e3d6000fd5b505050506040513d601f19601f820116820180604052508101906111019190613817565b60008054906101000a900473ffffffffffffffffffffffffffffffffffffffff1673ffffffffffffffffffffffffffffffffffffffff166370a08231336040518263ffffffff1660e01b815260040161115a91906135cf565b60206040518083038186803b15801561117257600080fd5b505afa158015611186573d6000803e3d6000fd5b505050506040513d601f19601f820116820180604052508101906111aa9190613817565b10156111eb576040517f08c379a00000000000000000000000000000000000000000000000000000000081526004016111e290613ea7565b60405180910390fd5b600460009054906101000a900473ffffffffffffffffffffffffffffffffffffffff1673ffffffffffffffffffffffffffffffffffffffff1663648c59eb83836040518363ffffffff1660e01b8152600401611248929190613d7a565b600060405180830381600087803b15801561126257600080fd5b505af1158015611276573d6000803e3d6000fd5b505050505050565b3373ffffffffffffffffffffffffffffffffffffffff168673ffffffffffffffffffffffffffffffffffffffff16146112ec576040517f08c379a00000000000000000000000000000000000000000000000000000000081526004016112e390613f39565b60405180910390fd5b610200855110611331576040517f08c379a000000000000000000000000000000000000000000000000000000000815260040161132890613fcb565b60405180910390fd5b600073ffffffffffffffffffffffffffffffffffffffff16600260009054906101000a900473ffffffffffffffffffffffffffffffffffffffff1673ffffffffffffffffffffffffffffffffffffffff1663b4108a94886040518263ffffffff1660e01b81526004016113a491906135cf565b60206040518083038186803b1580156113bc57600080fd5b505afa1580156113d0573d6000803e3d6000fd5b505050506040513d601f19601f820116820180604052508101906113f491906135ff565b73ffffffffffffffffffffffffffffffffffffffff16141561144b576040517f08c379a000000000000000000000000000000000000000000000000000000000815260040161144290614037565b60405180910390fd5b6008548314801561145d575060085482145b80611516575060011515600160009054906101000a900473ffffffffffffffffffffffffffffffffffffffff1673ffffffffffffffffffffffffffffffffffffffff1663c627f1ee856040518263ffffffff1660e01b81526004016114c291906132fb565b60206040518083038186803b1580156114da57600080fd5b505afa1580156114ee573d6000803e3d6000fd5b505050506040513d601f19601f82011682018060405250810190611512919061408f565b1515145b611555576040517f08c379a000000000000000000000000000000000000000000000000000000000815260040161154c9061412e565b60405180910390fd5b60011515600160009054906101000a900473ffffffffffffffffffffffffffffffffffffffff1673ffffffffffffffffffffffffffffffffffffffff1663c627f1ee836040518263ffffffff1660e01b81526004016115b491906132fb565b60206040518083038186803b1580156115cc57600080fd5b505afa1580156115e0573d6000803e3d6000fd5b505050506040513d601f19601f82011682018060405250810190611604919061408f565b151514611646576040517f08c379a000000000000000000000000000000000000000000000000000000000815260040161163d9061419a565b60405180910390fd5b6000855114156116e457600460009054906101000a900473ffffffffffffffffffffffffffffffffffffffff1673ffffffffffffffffffffffffffffffffffffffff16636b0a493e87836040518363ffffffff1660e01b81526004016116ad929190613d7a565b600060405180830381600087803b1580156116c757600080fd5b505af11580156116db573d6000803e3d6000fd5b5050505061177c565b600460009054906101000a900473ffffffffffffffffffffffffffffffffffffffff1673ffffffffffffffffffffffffffffffffffffffff1663654ea4848787878787876040518763ffffffff1660e01b815260040161174996959493929190614278565b600060405180830381600087803b15801561176357600080fd5b505af1158015611777573d6000803e3d6000fd5b505050505b505050505050565b3373ffffffffffffffffffffffffffffffffffffffff168273ffffffffffffffffffffffffffffffffffffffff16146117f2576040517f08c379a00000000000000000000000000000000000000000000000000000000081526004016117e990613f39565b60405180910390fd5b600073ffffffffffffffffffffffffffffffffffffffff16600260009054906101000a900473ffffffffffffffffffffffffffffffffffffffff1673ffffffffffffffffffffffffffffffffffffffff1663b4108a94846040518263ffffffff1660e01b815260040161186591906135cf565b60206040518083038186803b15801561187d57600080fd5b505afa158015611891573d6000803e3d6000fd5b505050506040513d601f19601f820116820180604052508101906118b591906135ff565b73ffffffffffffffffffffffffffffffffffffffff16141561190c576040517f08c379a000000000000000000000000000000000000000000000000000000000815260040161190390614037565b60405180910390fd5b60011515600160009054906101000a900473ffffffffffffffffffffffffffffffffffffffff1673ffffffffffffffffffffffffffffffffffffffff1663c627f1ee836040518263ffffffff1660e01b815260040161196b91906132fb565b60206040518083038186803b15801561198357600080fd5b505afa158015611997573d6000803e3d6000fd5b505050506040513d601f19601f820116820180604052508101906119bb919061408f565b1515146119fd576040517f08c379a00000000000000000000000000000000000000000000000000000000081526004016119f490614359565b60405180910390fd5b600460009054906101000a900473ffffffffffffffffffffffffffffffffffffffff1673ffffffffffffffffffffffffffffffffffffffff16636b0a493e83836040518363ffffffff1660e01b8152600401611a5a929190613d7a565b600060405180830381600087803b158015611a7457600080fd5b505af1158015611a88573d6000803e3d6000fd5b505050505050565b8173ffffffffffffffffffffffffffffffffffffffff163373ffffffffffffffffffffffffffffffffffffffff1614611afe576040517f08c379a0000000000000000000000000000000000000000000000000000000008152600401611af59061398e565b60405180910390fd5b60008151118015611b12575061012c815111155b611b51576040517f08c379a0000000000000000000000000000000000000000000000000000000008152600401611b48906143eb565b60405180910390fd5b600260009054906101000a900473ffffffffffffffffffffffffffffffffffffffff1673ffffffffffffffffffffffffffffffffffffffff166320aba4da83836040518363ffffffff1660e01b8152600401611bae929190613a91565b600060405180830381600087803b158015611bc857600080fd5b505af1158015611bdc573d6000803e3d6000fd5b505050505050565b6000611bef826122a5565b90508273ffffffffffffffffffffffffffffffffffffffff163373ffffffffffffffffffffffffffffffffffffffff1614611c5f576040517f08c379a0000000000000000000000000000000000000000000000000000000008152600401611c569061398e565b60405180910390fd5b80600260009054906101000a900473ffffffffffffffffffffffffffffffffffffffff1673ffffffffffffffffffffffffffffffffffffffff16635fd4b08a856040518263ffffffff1660e01b8152600401611cbb91906135cf565b60206040518083038186803b158015611cd357600080fd5b505afa158015611ce7573d6000803e3d6000fd5b505050506040513d601f19601f82011682018060405250810190611d0b9190613c29565b1415611d4c576040517f08c379a0000000000000000000000000000000000000000000000000000000008152600401611d439061447d565b60405180910390fd5b60018251118015611d5f57506020825111155b611d9e576040517f08c379a0000000000000000000000000000000000000000000000000000000008152600401611d959061450f565b60405180910390fd5b6000801b600260009054906101000a900473ffffffffffffffffffffffffffffffffffffffff1673ffffffffffffffffffffffffffffffffffffffff166365f68c89856040518263ffffffff1660e01b8152600401611dfd91906135cf565b60206040518083038186803b158015611e1557600080fd5b505afa158015611e29573d6000803e3d6000fd5b505050506040513d601f19601f82011682018060405250810190611e4d9190613c29565b1415611e8e576040517f08c379a0000000000000000000000000000000000000000000000000000000008152600401611e85906145a1565b60405180910390fd5b600260009054906101000a900473ffffffffffffffffffffffffffffffffffffffff1673ffffffffffffffffffffffffffffffffffffffff16630667e80584836040518363ffffffff1660e01b8152600401611eeb929190613d7a565b600060405180830381600087803b158015611f0557600080fd5b505af1158015611f19573d6000803e3d6000fd5b505050508273ffffffffffffffffffffffffffffffffffffffff167f72b1cf0bc13f95f0e133d81e3f2eb157e6bb587fc674744d4a199fb02278251282604051611f6391906132fb565b60405180910390a2505050565b3373ffffffffffffffffffffffffffffffffffffffff168273ffffffffffffffffffffffffffffffffffffffff1614611fde576040517f08c379a0000000000000000000000000000000000000000000000000000000008152600401611fd590614633565b60405180910390fd5b600073ffffffffffffffffffffffffffffffffffffffff16600260009054906101000a900473ffffffffffffffffffffffffffffffffffffffff1673ffffffffffffffffffffffffffffffffffffffff1663b4108a94846040518263ffffffff1660e01b815260040161205191906135cf565b60206040518083038186803b15801561206957600080fd5b505afa15801561207d573d6000803e3d6000fd5b505050506040513d601f19601f820116820180604052508101906120a191906135ff565b73ffffffffffffffffffffffffffffffffffffffff1614156120f8576040517f08c379a00000000000000000000000000000000000000000000000000000000081526004016120ef906146c5565b60405180910390fd5b600073ffffffffffffffffffffffffffffffffffffffff16600160009054906101000a900473ffffffffffffffffffffffffffffffffffffffff1673ffffffffffffffffffffffffffffffffffffffff1663691d1c28836040518263ffffffff1660e01b815260040161216b91906132fb565b60206040518083038186803b15801561218357600080fd5b505afa158015612197573d6000803e3d6000fd5b505050506040513d601f19601f820116820180604052508101906121bb91906135ff565b73ffffffffffffffffffffffffffffffffffffffff161415612212576040517f08c379a000000000000000000000000000000000000000000000000000000000815260040161220990614731565b60405180910390fd5b600560009054906101000a900473ffffffffffffffffffffffffffffffffffffffff1673ffffffffffffffffffffffffffffffffffffffff1663be4641e183836040518363ffffffff1660e01b815260040161226f929190613d7a565b600060405180830381600087803b15801561228957600080fd5b505af115801561229d573d6000803e3d6000fd5b505050505050565b600080825114156122bb576000801b90506122c3565b602082015190505b919050565b3373ffffffffffffffffffffffffffffffffffffffff168573ffffffffffffffffffffffffffffffffffffffff1614612336576040517f08c379a000000000000000000000000000000000000000000000000000000000815260040161232d90613f39565b60405180910390fd5b600084511161237a576040517f08c379a00000000000000000000000000000000000000000000000000000000081526004016123719061479d565b60405180910390fd5b6102008451106123bf576040517f08c379a00000000000000000000000000000000000000000000000000000000081526004016123b690613fcb565b60405180910390fd5b600073ffffffffffffffffffffffffffffffffffffffff16600260009054906101000a900473ffffffffffffffffffffffffffffffffffffffff1673ffffffffffffffffffffffffffffffffffffffff1663b4108a94876040518263ffffffff1660e01b815260040161243291906135cf565b60206040518083038186803b15801561244a57600080fd5b505afa15801561245e573d6000803e3d6000fd5b505050506040513d601f19601f8201168201806040525081019061248291906135ff565b73ffffffffffffffffffffffffffffffffffffffff1614156124d9576040517f08c379a00000000000000000000000000000000000000000000000000000000081526004016124d090614037565b60405180910390fd5b600854821480156124eb575060085481145b806125cd5750600073ffffffffffffffffffffffffffffffffffffffff16600260009054906101000a900473ffffffffffffffffffffffffffffffffffffffff1673ffffffffffffffffffffffffffffffffffffffff166377dd8a03846040518263ffffffff1660e01b815260040161256491906132fb565b60206040518083038186803b15801561257c57600080fd5b505afa158015612590573d6000803e3d6000fd5b505050506040513d601f19601f820116820180604052508101906125b491906135ff565b73ffffffffffffffffffffffffffffffffffffffff1614155b61260c576040517f08c379a00000000000000000000000000000000000000000000000000000000081526004016126039061412e565b60405180910390fd5b600460009054906101000a900473ffffffffffffffffffffffffffffffffffffffff1673ffffffffffffffffffffffffffffffffffffffff1663d71a485586868686866040518663ffffffff1660e01b815260040161266f9594939291906147bd565b600060405180830381600087803b15801561268957600080fd5b505af115801561269d573d6000803e3d6000fd5b505050505050505050565b6000816040516020016126bb919061483f565b604051602081830303815290604052805190602001209050919050565b8373ffffffffffffffffffffffffffffffffffffffff163373ffffffffffffffffffffffffffffffffffffffff1614612746576040517f08c379a000000000000000000000000000000000000000000000000000000000815260040161273d906148cc565b60405180910390fd5b6001835111801561275957506020835111155b612798576040517f08c379a000000000000000000000000000000000000000000000000000000000815260040161278f9061450f565b60405180910390fd5b7f40000000000000000000000000000000000000000000000000000000000000007effffffffffffffffffffffffffffffffffffffffffffffffffffffffffffff1916826000815181106127ef576127ee613ac1565b5b602001015160f81c60f81b7effffffffffffffffffffffffffffffffffffffffffffffffffffffffffffff19161461285c576040517f08c379a000000000000000000000000000000000000000000000000000000000815260040161285390613b62565b60405180910390fd5b6002825111801561286f57506020825111155b6128ae576040517f08c379a00000000000000000000000000000000000000000000000000000000081526004016128a590613bf4565b60405180910390fd5b8373ffffffffffffffffffffffffffffffffffffffff16600260009054906101000a900473ffffffffffffffffffffffffffffffffffffffff1673ffffffffffffffffffffffffffffffffffffffff1663b4108a94866040518263ffffffff1660e01b815260040161292091906135cf565b60206040518083038186803b15801561293857600080fd5b505afa15801561294c573d6000803e3d6000fd5b505050506040513d601f19601f8201168201806040525081019061297091906135ff565b73ffffffffffffffffffffffffffffffffffffffff16141580612a695750600073ffffffffffffffffffffffffffffffffffffffff16600260009054906101000a900473ffffffffffffffffffffffffffffffffffffffff1673ffffffffffffffffffffffffffffffffffffffff1663b4108a94866040518263ffffffff1660e01b8152600401612a0191906135cf565b60206040518083038186803b158015612a1957600080fd5b505afa158015612a2d573d6000803e3d6000fd5b505050506040513d601f19601f82011682018060405250810190612a5191906135ff565b73ffffffffffffffffffffffffffffffffffffffff16145b612aa8576040517f08c379a0000000000000000000000000000000000000000000000000000000008152600401612a9f90614938565b60405180910390fd5b6000612ab3836122a5565b9050600073ffffffffffffffffffffffffffffffffffffffff16600260009054906101000a900473ffffffffffffffffffffffffffffffffffffffff1673ffffffffffffffffffffffffffffffffffffffff166311e0bda7836040518263ffffffff1660e01b8152600401612b2891906132fb565b60206040518083038186803b158015612b4057600080fd5b505afa158015612b54573d6000803e3d6000fd5b505050506040513d601f19601f82011682018060405250810190612b7891906135ff565b73ffffffffffffffffffffffffffffffffffffffff1614612bce576040517f08c379a0000000000000000000000000000000000000000000000000000000008152600401612bc5906149ca565b60405180910390fd5b6000612bd9856122a5565b9050600360009054906101000a900473ffffffffffffffffffffffffffffffffffffffff1673ffffffffffffffffffffffffffffffffffffffff1663347558c7878385876040518563ffffffff1660e01b8152600401612c3c94939291906149ea565b600060405180830381600087803b158015612c5657600080fd5b505af1158015612c6a573d6000803e3d6000fd5b505050508573ffffffffffffffffffffffffffffffffffffffff167f5ef99684cfef8b5446d6ca2c82757ec3aa390143139c074ccfec7582634161078284604051612cb6929190614a36565b60405180910390a2505050505050565b6000604051905090565b600080fd5b600080fd5b600073ffffffffffffffffffffffffffffffffffffffff82169050919050565b6000612d0582612cda565b9050919050565b612d1581612cfa565b8114612d2057600080fd5b50565b600081359050612d3281612d0c565b92915050565b60008060408385031215612d4f57612d4e612cd0565b5b6000612d5d85828601612d23565b9250506020612d6e85828601612d23565b9150509250929050565b6000819050919050565b612d8b81612d78565b8114612d9657600080fd5b50565b600081359050612da881612d82565b92915050565b6000819050919050565b612dc181612dae565b8114612dcc57600080fd5b50565b600081359050612dde81612db8565b92915050565b600080600060608486031215612dfd57612dfc612cd0565b5b6000612e0b86828701612d23565b9350506020612e1c86828701612d99565b9250506040612e2d86828701612dcf565b9150509250925092565b600080fd5b600080fd5b6000601f19601f8301169050919050565b7f4e487b7100000000000000000000000000000000000000000000000000000000600052604160045260246000fd5b612e8a82612e41565b810181811067ffffffffffffffff82111715612ea957612ea8612e52565b5b80604052505050565b6000612ebc612cc6565b9050612ec88282612e81565b919050565b600067ffffffffffffffff821115612ee857612ee7612e52565b5b612ef182612e41565b9050602081019050919050565b82818337600083830152505050565b6000612f20612f1b84612ecd565b612eb2565b905082815260208101848484011115612f3c57612f3b612e3c565b5b612f47848285612efe565b509392505050565b600082601f830112612f6457612f63612e37565b5b8135612f74848260208601612f0d565b91505092915050565b60008060408385031215612f9457612f93612cd0565b5b6000612fa285828601612d23565b925050602083013567ffffffffffffffff811115612fc357612fc2612cd5565b5b612fcf85828601612f4f565b9150509250929050565b600067ffffffffffffffff821115612ff457612ff3612e52565b5b612ffd82612e41565b9050602081019050919050565b600061301d61301884612fd9565b612eb2565b90508281526020810184848401111561303957613038612e3c565b5b613044848285612efe565b509392505050565b600082601f83011261306157613060612e37565b5b813561307184826020860161300a565b91505092915050565b6000806040838503121561309157613090612cd0565b5b600061309f85828601612d23565b925050602083013567ffffffffffffffff8111156130c0576130bf612cd5565b5b6130cc8582860161304c565b9150509250929050565b600080604083850312156130ed576130ec612cd0565b5b60006130fb85828601612d23565b925050602061310c85828601612d99565b9150509250929050565b600067ffffffffffffffff82111561313157613130612e52565b5b602082029050602081019050919050565b600080fd5b600061315a61315584613116565b612eb2565b9050808382526020820190506020840283018581111561317d5761317c613142565b5b835b818110156131a657806131928882612d23565b84526020840193505060208101905061317f565b5050509392505050565b600082601f8301126131c5576131c4612e37565b5b81356131d5848260208601613147565b91505092915050565b60008060008060008060c087890312156131fb576131fa612cd0565b5b600061320989828a01612d23565b965050602087013567ffffffffffffffff81111561322a57613229612cd5565b5b61323689828a01612f4f565b955050604087013567ffffffffffffffff81111561325757613256612cd5565b5b61326389828a016131b0565b945050606061327489828a01612d99565b935050608061328589828a01612d99565b92505060a061329689828a01612d99565b9150509295509295509295565b6000602082840312156132b9576132b8612cd0565b5b600082013567ffffffffffffffff8111156132d7576132d6612cd5565b5b6132e38482850161304c565b91505092915050565b6132f581612d78565b82525050565b600060208201905061331060008301846132ec565b92915050565b600080600080600060a0868803121561333257613331612cd0565b5b600061334088828901612d23565b955050602086013567ffffffffffffffff81111561336157613360612cd5565b5b61336d88828901612f4f565b945050604086013567ffffffffffffffff81111561338e5761338d612cd5565b5b61339a888289016131b0565b93505060606133ab88828901612d99565b92505060806133bc88828901612d99565b9150509295509295909350565b6000602082840312156133df576133de612cd0565b5b60006133ed84828501612dcf565b91505092915050565b600080600080608085870312156134105761340f612cd0565b5b600061341e87828801612d23565b945050602085013567ffffffffffffffff81111561343f5761343e612cd5565b5b61344b8782880161304c565b935050604085013567ffffffffffffffff81111561346c5761346b612cd5565b5b6134788782880161304c565b925050606085013567ffffffffffffffff81111561349957613498612cd5565b5b6134a587828801612f4f565b91505092959194509250565b600082825260208201905092915050565b7f4572726f723a20666f6c6c6f776572206d757374206265206f7065726174696e60008201527f67206163636f756e740000000000000000000000000000000000000000000000602082015250565b600061351e6029836134b1565b9150613529826134c2565b604082019050919050565b6000602082019050818103600083015261354d81613511565b9050919050565b7f4572726f723a2073616d65206163636f756e7400000000000000000000000000600082015250565b600061358a6013836134b1565b915061359582613554565b602082019050919050565b600060208201905081810360008301526135b98161357d565b9050919050565b6135c981612cfa565b82525050565b60006020820190506135e460008301846135c0565b92915050565b6000815190506135f981612d0c565b92915050565b60006020828403121561361557613614612cd0565b5b6000613623848285016135ea565b91505092915050565b7f4572726f723a20626f746820666f6c6c6f77657220616e6420666f6c6c6f776560008201527f65206d7573742068617665206163636f756e7473000000000000000000000000602082015250565b60006136886034836134b1565b91506136938261362c565b604082019050919050565b600060208201905081810360008301526136b78161367b565b9050919050565b60006040820190506136d360008301856135c0565b6136e060208301846135c0565b9392505050565b7f4572726f723a20626f6f73746572206d757374206265206d73672e73656e646560008201527f7200000000000000000000000000000000000000000000000000000000000000602082015250565b60006137436021836134b1565b915061374e826136e7565b604082019050919050565b6000602082019050818103600083015261377281613736565b9050919050565b7f4e487b7100000000000000000000000000000000000000000000000000000000600052601160045260246000fd5b60006137b382612dae565b91506137be83612dae565b9250817fffffffffffffffffffffffffffffffffffffffffffffffffffffffffffffffff04831182151516156137f7576137f6613779565b5b828202905092915050565b60008151905061381181612db8565b92915050565b60006020828403121561382d5761382c612cd0565b5b600061383b84828501613802565b91505092915050565b7f4572726f723a20626f6f73746572206d757374206861766520746f6b656e732060008201527f696e2062616c616e636500000000000000000000000000000000000000000000602082015250565b60006138a0602a836134b1565b91506138ab82613844565b604082019050919050565b600060208201905081810360008301526138cf81613893565b9050919050565b6138df81612dae565b82525050565b60006060820190506138fa60008301866135c0565b61390760208301856132ec565b61391460408301846138d6565b949350505050565b7f4572726f723a206f70657261746f72206d757374206265206163636f756e742060008201527f6f776e6572000000000000000000000000000000000000000000000000000000602082015250565b60006139786025836134b1565b91506139838261391c565b604082019050919050565b600060208201905081810360008301526139a78161396b565b9050919050565b7f4572726f723a206d757374206861766520696d61676520686173680000000000600082015250565b60006139e4601b836134b1565b91506139ef826139ae565b602082019050919050565b60006020820190508181036000830152613a13816139d7565b9050919050565b600081519050919050565b60005b83811015613a43578082015181840152602081019050613a28565b83811115613a52576000848401525b50505050565b6000613a6382613a1a565b613a6d81856134b1565b9350613a7d818560208601613a25565b613a8681612e41565b840191505092915050565b6000604082019050613aa660008301856135c0565b8181036020830152613ab88184613a58565b90509392505050565b7f4e487b7100000000000000000000000000000000000000000000000000000000600052603260045260246000fd5b7f4572726f723a20666972737420656c656d656e74206f6620737472696e67206d60008201527f7573742062652022402200000000000000000000000000000000000000000000602082015250565b6000613b4c602a836134b1565b9150613b5782613af0565b604082019050919050565b60006020820190508181036000830152613b7b81613b3f565b9050919050565b7f4572726f723a207573657241646472657373206d75737420626520626574776560008201527f656e203220262033322063686172616374657273000000000000000000000000602082015250565b6000613bde6034836134b1565b9150613be982613b82565b604082019050919050565b60006020820190508181036000830152613c0d81613bd1565b9050919050565b600081519050613c2381612d82565b92915050565b600060208284031215613c3f57613c3e612cd0565b5b6000613c4d84828501613c14565b91505092915050565b7f4572726f723a206d75737420626520646966666572656e74207573657220616460008201527f6472657373000000000000000000000000000000000000000000000000000000602082015250565b6000613cb26025836134b1565b9150613cbd82613c56565b604082019050919050565b60006020820190508181036000830152613ce181613ca5565b9050919050565b7f4572726f723a20757365722061646472657373206d75737420626520756e697160008201527f7565000000000000000000000000000000000000000000000000000000000000602082015250565b6000613d446022836134b1565b9150613d4f82613ce8565b604082019050919050565b60006020820190508181036000830152613d7381613d37565b9050919050565b6000604082019050613d8f60008301856135c0565b613d9c60208301846132ec565b9392505050565b7f4572726f723a206f6e6c79206163636f756e742063616e2064656c657465206d60008201527f656d650000000000000000000000000000000000000000000000000000000000602082015250565b6000613dff6023836134b1565b9150613e0a82613da3565b604082019050919050565b60006020820190508181036000830152613e2e81613df2565b9050919050565b7f4572726f723a206e6f7420656e6f75676820554d4520746f2064656c6574652060008201527f6d656d6500000000000000000000000000000000000000000000000000000000602082015250565b6000613e916024836134b1565b9150613e9c82613e35565b604082019050919050565b60006020820190508181036000830152613ec081613e84565b9050919050565b7f4572726f723a2077726f6e67206163636f756e742063616c6c696e6720706f7360008201527f7400000000000000000000000000000000000000000000000000000000000000602082015250565b6000613f236021836134b1565b9150613f2e82613ec7565b604082019050919050565b60006020820190508181036000830152613f5281613f16565b9050919050565b7f4572726f723a206d656d652074657874206d757374206265206c65737320746860008201527f616e203531322063686172616374657273000000000000000000000000000000602082015250565b6000613fb56031836134b1565b9150613fc082613f59565b604082019050919050565b60006020820190508181036000830152613fe481613fa8565b9050919050565b7f4572726f723a207573657220646f65736e27742068617665206163636f756e74600082015250565b60006140216020836134b1565b915061402c82613feb565b602082019050919050565b6000602082019050818103600083015261405081614014565b9050919050565b60008115159050919050565b61406c81614057565b811461407757600080fd5b50565b60008151905061408981614063565b92915050565b6000602082840312156140a5576140a4612cd0565b5b60006140b38482850161407a565b91505092915050565b7f4572726f723a2065697468657220706172656e74266f726967696e206172652060008201527f7a65726f206f722074686579206d757374206578697374000000000000000000602082015250565b60006141186037836134b1565b9150614123826140bc565b604082019050919050565b600060208201905081810360008301526141478161410b565b9050919050565b7f4572726f723a207265706f7374206d7573742065786973740000000000000000600082015250565b60006141846018836134b1565b915061418f8261414e565b602082019050919050565b600060208201905081810360008301526141b381614177565b9050919050565b600081519050919050565b600082825260208201905092915050565b6000819050602082019050919050565b6141ef81612cfa565b82525050565b600061420183836141e6565b60208301905092915050565b6000602082019050919050565b6000614225826141ba565b61422f81856141c5565b935061423a836141d6565b8060005b8381101561426b57815161425288826141f5565b975061425d8361420d565b92505060018101905061423e565b5085935050505092915050565b600060c08201905061428d60008301896135c0565b818103602083015261429f8188613a58565b905081810360408301526142b3818761421a565b90506142c260608301866132ec565b6142cf60808301856132ec565b6142dc60a08301846132ec565b979650505050505050565b7f4572726f723a207265706f73746564206d656d6520646f65736e27742065786960008201527f7374000000000000000000000000000000000000000000000000000000000000602082015250565b60006143436022836134b1565b915061434e826142e7565b604082019050919050565b6000602082019050818103600083015261437281614336565b9050919050565b7f4572726f723a207573657241646472657373206d75737420626520626574776560008201527f656e203220262033303020636861726163746572730000000000000000000000602082015250565b60006143d56035836134b1565b91506143e082614379565b604082019050919050565b60006020820190508181036000830152614404816143c8565b9050919050565b7f4572726f723a206d75737420626520646966666572656e7420757365726e616d60008201527f6500000000000000000000000000000000000000000000000000000000000000602082015250565b60006144676021836134b1565b91506144728261440b565b604082019050919050565b600060208201905081810360008301526144968161445a565b9050919050565b7f4572726f723a20757365724e616d65206d757374206265206265747765656e2060008201527f3220262033322063686172616374657273000000000000000000000000000000602082015250565b60006144f96031836134b1565b91506145048261449d565b604082019050919050565b60006020820190508181036000830152614528816144ec565b9050919050565b7f4572726f723a206d757374206861766520616e206578697374696e672061636360008201527f6f756e7400000000000000000000000000000000000000000000000000000000602082015250565b600061458b6024836134b1565b91506145968261452f565b604082019050919050565b600060208201905081810360008301526145ba8161457e565b9050919050565b7f4572726f723a206c696b6572206d757374206265206f7065726174696e67206160008201527f63636f756e740000000000000000000000000000000000000000000000000000602082015250565b600061461d6026836134b1565b9150614628826145c1565b604082019050919050565b6000602082019050818103600083015261464c81614610565b9050919050565b7f4572726f723a204d656d65206c696b6564206d7573742068617665206164647260008201527f6573730000000000000000000000000000000000000000000000000000000000602082015250565b60006146af6023836134b1565b91506146ba82614653565b604082019050919050565b600060208201905081810360008301526146de816146a2565b9050919050565b7f4572726f723a204d656d65206d75737420657869737400000000000000000000600082015250565b600061471b6016836134b1565b9150614726826146e5565b602082019050919050565b6000602082019050818103600083015261474a8161470e565b9050919050565b7f4572726f723a206d656d65206d75737420686176652074657874000000000000600082015250565b6000614787601a836134b1565b915061479282614751565b602082019050919050565b600060208201905081810360008301526147b68161477a565b9050919050565b600060a0820190506147d260008301886135c0565b81810360208301526147e48187613a58565b905081810360408301526147f8818661421a565b905061480760608301856132ec565b61481460808301846132ec565b9695505050505050565b6000819050919050565b61483961483482612dae565b61481e565b82525050565b600061484b8284614828565b60208201915081905092915050565b7f4572726f723a206163636f756e74206d757374206265206163636f756e74206360008201527f726561746f720000000000000000000000000000000000000000000000000000602082015250565b60006148b66026836134b1565b91506148c18261485a565b604082019050919050565b600060208201905081810360008301526148e5816148a9565b9050919050565b7f4572726f723a206163636f756e7420616c726561647920657869737473000000600082015250565b6000614922601d836134b1565b915061492d826148ec565b602082019050919050565b6000602082019050818103600083015261495181614915565b9050919050565b7f4572726f723a2075736572206164647265737320616c7265616479206578697360008201527f7473000000000000000000000000000000000000000000000000000000000000602082015250565b60006149b46022836134b1565b91506149bf82614958565b604082019050919050565b600060208201905081810360008301526149e3816149a7565b9050919050565b60006080820190506149ff60008301876135c0565b614a0c60208301866132ec565b614a1960408301856132ec565b8181036060830152614a2b8184613a58565b905095945050505050565b6000604082019050614a4b60008301856132ec565b614a5860208301846132ec565b939250505056fea2646970667358221220215faff3c2ad57bc9624c4b3ed20877a0b284012454bb808baba68108f1e31c764736f6c63430008090033",
  "immutableReferences": {},
  "source": "// SPDX-License-Identifier: MIT\n\npragma solidity >=0.8.0 <0.9.0;\n\nimport \"./Follow.sol\";\nimport \"./Like.sol\";\nimport \"./Post.sol\";\nimport \"./Boost.sol\";\nimport \"./UME.sol\";\nimport \"./MemeStorage.sol\";\nimport \"./UserFactory.sol\";\nimport \"./UserStorage.sol\";\n\ncontract UserInterface {\n\n  UME private umeToken;\n  MemeStorage private memeStorage;\n  UserStorage private userStorage;\n  UserFactory private userFactory;\n\n  Post private post;\n  Like private like;\n  Follow private follow;\n  Boost private boost;\n\n  bytes32 zeroBytes;\n\n  event NewUser(\n        address indexed account,\n        bytes32 userName,\n        bytes32 userAddress);\n  event ChangedUserName(\n        address indexed account,\n        bytes32 userName);\n  event ChangedUserAddress(\n        address indexed account,\n        bytes32 userAddress);\n\n  constructor(UME _umeToken,\n              MemeStorage _memeStorage,\n              UserStorage _userStorage,\n              UserFactory _userFactory,\n              Post _post,\n              Like _like,\n              Follow _follow,\n              Boost _boost)\n              public {\n    umeToken = _umeToken;\n    memeStorage = _memeStorage;\n    userStorage = _userStorage;\n    userFactory = _userFactory;\n    post = _post;\n    like = _like;\n    follow = _follow;\n    boost = _boost;\n  }\n\n  function newUser(\n            address _account,\n            bytes memory _userName,\n            bytes memory _userAddress,\n            string memory _imgHash)\n            public {\n    require(\n      msg.sender==_account,\n      'Error: account must be account creator');\n    require(\n      _userName.length>1 &&\n      _userName.length<=32,\n      'Error: userName must be between 2 & 32 characters');\n    require(\n      _userAddress[0]==bytes1('@'),\n      'Error: first element of string must be \"@\"');\n    require(\n      _userAddress.length>2 &&\n      _userAddress.length<=32,\n      'Error: userAddress must be between 2 & 32 characters');\n    require(\n      (userStorage.getAddr(_account)!=_account || userStorage.getAddr(_account)==address(0x0)),\n      'Error: account already exists');\n    bytes32 _ua = bytesToBytes32(_userAddress);\n    require(\n      userStorage.usersByUserAddr(_ua)==address(0x0),\n      'Error: user address already exists');\n\n    bytes32 _un = bytesToBytes32(_userName);\n    userFactory.newUser(_account, _un, _ua, _imgHash);\n    emit NewUser(_account, _un, _ua);\n  }\n  function changeUserName(\n            address _account,\n            bytes memory _userName)\n            public {\n    bytes32 _un = bytesToBytes32(_userName);\n    require(\n      msg.sender==_account,\n      'Error: operator must be account owner');\n    require(\n      userStorage.getName(_account)!=_un,\n      'Error: must be different username');\n    require(\n      _userName.length>1 &&\n      _userName.length<=32,\n      'Error: userName must be between 2 & 32 characters');\n    require(\n      userStorage.getId(_account)!=0,\n      'Error: must have an existing account');\n\n    userStorage.setUserName(_account, _un);\n    emit ChangedUserName(_account, _un);\n  }\n  function changeUserAddress(\n            address _account,\n            bytes memory _userAddress)\n            public {\n    bytes32 _ua = bytesToBytes32(_userAddress);\n    require(\n      msg.sender==_account,\n      'Error: operator must be account owner');\n    require(\n      _userAddress[0]==bytes1('@'),\n      'Error: first element of string must be \"@\"');\n    require(\n      _userAddress.length>2 &&\n      _userAddress.length<=32,\n      'Error: userAddress must be between 2 & 32 characters');\n    require(\n      userStorage.getUserAddr(_account)!=_ua,\n      'Error: must be different user address');\n    require(\n      userStorage.usersByUserAddr(_ua)==address(0x0),\n      'Error: user address must be unique');\n\n    userStorage.setUserAddress(_account, _ua);\n    emit ChangedUserAddress(_account, _ua);\n  }\n\n  function newBio(\n            address _account,\n            string memory _bio)\n            public {\n    require(\n      msg.sender==_account,\n      'Error: operator must be account owner');\n    require(\n      bytes(_bio).length>0 &&\n      bytes(_bio).length<=300,\n      'Error: userAddress must be between 2 & 300 characters');\n    userStorage.setBio(_account, _bio);\n  }\n\n  function newProfilePic(\n            address _account,\n            string memory _imgHash)\n            public {\n    require(\n      msg.sender==_account,\n      'Error: operator must be account owner');\n    require(\n      bytes(_imgHash).length>0,\n      'Error: must have image hash');\n    userStorage.setProfilePic(_account, _imgHash);\n  }\n\n\n  // Meme posting functionality\n  function newMeme(\n            address _account,\n            string memory _postText,\n            address[] memory _tags,\n            bytes32 _parentId,\n            bytes32 _originId)\n            public {\n    require(\n      _account==msg.sender,\n      'Error: wrong account calling post');\n    require(\n      bytes(_postText).length > 0,\n      'Error: meme must have text');\n    require(\n      bytes(_postText).length < 512,\n      'Error: meme text must be less than 512 characters');\n    require(\n      userStorage.getAddr(_account)!=address(0x0),\n      'Error: user doesn\\'t have account');\n    require(\n      (_parentId==zeroBytes && _originId==zeroBytes) ||\n      userStorage.usersByMeme(_parentId)!=address(0x0),\n      'Error: either parent&origin are zero or they must exist');\n    // post new meme\n    post.newMeme(_account, _postText, _tags, _parentId, _originId);\n  }\n  function rememe(\n            address _account,\n            bytes32 _memeId)\n            public {\n    require(\n      _account==msg.sender,\n      'Error: wrong account calling post');\n    require(\n      userStorage.getAddr(_account)!=address(0x0),\n      'Error: user doesn\\'t have account');\n    require(\n      memeStorage.getVisibility(_memeId)==true,\n      'Error: reposted meme doesn\\'t exist');\n    // repost meme\n    post.rememe(_account, _memeId);\n  }\n  function quoteMeme(\n            address _account,\n            string memory _postText,\n            address[] memory _tags,\n            bytes32 _parentId,\n            bytes32 _originId,\n            bytes32 _memeId)\n            public {\n    require(\n      _account==msg.sender,\n      'Error: wrong account calling post');\n    require(\n      bytes(_postText).length < 512,\n      'Error: meme text must be less than 512 characters');\n    require(\n      userStorage.getAddr(_account)!=address(0x0),\n      'Error: user doesn\\'t have account');\n    require(\n      (_parentId==zeroBytes && _originId==zeroBytes) ||\n      memeStorage.getVisibility(_parentId)==true,\n      'Error: either parent&origin are zero or they must exist');\n    require(\n      memeStorage.getVisibility(_memeId)==true,\n      'Error: repost must exist');\n    if(bytes(_postText).length==0) {\n      post.rememe(_account, _memeId);\n    }\n    else {\n      post.quoteMeme(_account, _postText, _tags, _parentId, _originId, _memeId);\n    }\n  }\n\n  function deleteMeme(\n            address _account,\n            bytes32 _memeId)\n            public {\n    require(\n      _account==msg.sender,\n      'Error: only account can delete meme');\n    require(\n      umeToken.balanceOf(msg.sender)>=umeToken.postValue(),\n      'Error: not enough UME to delete meme');\n    post.deleteMeme(_account, _memeId);\n  }\n\n\n  // like functions\n  function likeMeme(\n            address _account,\n            bytes32 _memeId)\n            public {\n     require(\n       _account==msg.sender,\n       'Error: liker must be operating account');\n     require(\n       userStorage.getAddr(_account)!=address(0x0),\n       'Error: Meme liked must have address');\n     require(\n       memeStorage.getAuthor(_memeId)!=address(0x0),\n       'Error: Meme must exist');\n\n     like.likeMeme(_account, _memeId);\n  }\n\n  function followUser(\n            address _from,\n            address _to)\n            public {\n    require(\n      _from==msg.sender,\n      'Error: follower must be operating account');\n    require(\n      _from!=_to,\n      'Error: same account');\n    require(\n      userStorage.getAddr(_from)!=address(0x0) &&\n      userStorage.getAddr(_to)!=address(0x0),\n      'Error: both follower and followee must have accounts');\n\n    follow.follow(_from, _to);\n  }\n\n  function boostMeme(\n            address _account,\n            bytes32 _memeId,\n            uint _boostNumber)\n            public {\n    require(\n      _account==msg.sender,\n      'Error: booster must be msg.sender');\n    require(\n      umeToken.balanceOf(_account)>=_boostNumber*1e18,\n      'Error: booster must have tokens in balance');\n    boost.boostCall(_account, _memeId, _boostNumber);\n  }\n  function unBoostMeme(\n            address _account,\n            bytes32 _memeId,\n            uint _boostNumber)\n            public {\n    require(\n      _account==msg.sender,\n      'Error: booster must be msg.sender');\n    require(\n      umeToken.balanceOf(_account)>=_boostNumber*1e18,\n      'Error: booster must have tokens in balance');\n    boost.unBoostCall(_account, _memeId, _boostNumber);\n  }\n\n  // helper functions\n  function bytesToBytes32(bytes memory source)\n            public pure returns(bytes32 result) {\n    if(source.length==0) return 0x0;\n    assembly {\n      result := mload(add(source, 32))\n    }\n  }\n\n  function encode(uint num)\n            public view returns(bytes32) {\n    return keccak256(abi.encodePacked(num));\n  }\n\n  function _deleteUints(\n            uint[] memory array,\n            uint index)\n            private pure returns(uint[] memory) {\n    uint[] memory _array = new uint[](array.length-1);\n    for(uint i = 0; i < index; i++) {\n      _array[i] = array[i];\n    }\n    for(uint i = index; i < _array.length; i++) {\n      _array[i] = array[i+1];\n    }\n    return _array;\n  }\n}\n",
  "sourcePath": "/Users/jaiq/Documents/000 BLOCKCHAIN/ETH/uMe/src/contracts/UserInterface.sol",
  "compiler": {
    "name": "solc",
    "version": "0.8.9+commit.e5eed63a.Emscripten.clang"
  },
  "schemaVersion": "3.4.3",
  "updatedAt": "2021-11-03T10:48:21.259Z",
  "networkType": "ethereum",
  "devdoc": {
    "kind": "dev",
    "methods": {},
    "version": 1
  },
  "userdoc": {
    "kind": "user",
    "methods": {},
    "version": 1
  }
}