{
  "contractName": "We",
  "abi": [
    {
      "stateMutability": "payable",
      "type": "receive",
      "payable": true
    },
    {
      "inputs": [],
      "name": "receiveEth",
      "outputs": [],
      "stateMutability": "payable",
      "type": "function",
      "payable": true
    },
    {
      "inputs": [
        {
          "internalType": "address payable",
          "name": "_to",
          "type": "address"
        },
        {
          "internalType": "uint256",
          "name": "_amount",
          "type": "uint256"
        }
      ],
      "name": "withdrawEth",
      "outputs": [],
      "stateMutability": "nonpayable",
      "type": "function"
    }
  ],
  "bytecode": "0x608060405234801561001057600080fd5b50610590806100206000396000f3fe60806040526004361061002d5760003560e01c80631b9a91a4146100415780634185f8eb1461006a5761003c565b3661003c5761003a610074565b005b600080fd5b34801561004d57600080fd5b50610068600480360381019061006391906103b5565b610163565b005b610072610074565b005b6000803373ffffffffffffffffffffffffffffffffffffffff1673ffffffffffffffffffffffffffffffffffffffff16815260200190815260200160002054346000803373ffffffffffffffffffffffffffffffffffffffff1673ffffffffffffffffffffffffffffffffffffffff168152602001908152602001600020546100fd9190610424565b101561010c5761010b61047a565b5b346000803373ffffffffffffffffffffffffffffffffffffffff1673ffffffffffffffffffffffffffffffffffffffff168152602001908152602001600020600082825461015a9190610424565b92505081905550565b6000803373ffffffffffffffffffffffffffffffffffffffff1673ffffffffffffffffffffffffffffffffffffffff168152602001908152602001600020548111156101e4576040517f08c379a00000000000000000000000000000000000000000000000000000000081526004016101db90610506565b60405180910390fd5b806000803373ffffffffffffffffffffffffffffffffffffffff1673ffffffffffffffffffffffffffffffffffffffff1681526020019081526020016000205461022e9190610526565b6000803373ffffffffffffffffffffffffffffffffffffffff1673ffffffffffffffffffffffffffffffffffffffff16815260200190815260200160002054101561027c5761027b61047a565b5b806000803373ffffffffffffffffffffffffffffffffffffffff1673ffffffffffffffffffffffffffffffffffffffff16815260200190815260200160002060008282546102ca9190610526565b925050819055508173ffffffffffffffffffffffffffffffffffffffff166108fc829081150290604051600060405180830381858888f19350505050158015610317573d6000803e3d6000fd5b505050565b600080fd5b600073ffffffffffffffffffffffffffffffffffffffff82169050919050565b600061034c82610321565b9050919050565b61035c81610341565b811461036757600080fd5b50565b60008135905061037981610353565b92915050565b6000819050919050565b6103928161037f565b811461039d57600080fd5b50565b6000813590506103af81610389565b92915050565b600080604083850312156103cc576103cb61031c565b5b60006103da8582860161036a565b92505060206103eb858286016103a0565b9150509250929050565b7f4e487b7100000000000000000000000000000000000000000000000000000000600052601160045260246000fd5b600061042f8261037f565b915061043a8361037f565b9250827fffffffffffffffffffffffffffffffffffffffffffffffffffffffffffffffff0382111561046f5761046e6103f5565b5b828201905092915050565b7f4e487b7100000000000000000000000000000000000000000000000000000000600052600160045260246000fd5b600082825260208201905092915050565b7f6e6f7420656e6f7567682066756e647300000000000000000000000000000000600082015250565b60006104f06010836104a9565b91506104fb826104ba565b602082019050919050565b6000602082019050818103600083015261051f816104e3565b9050919050565b60006105318261037f565b915061053c8361037f565b92508282101561054f5761054e6103f5565b5b82820390509291505056fea26469706673582212201cb34ad0683331308507dd0f64125c8f7a32d8d8ee29c4e03f6409dd8fa7f69464736f6c63430008090033",
  "immutableReferences": {},
  "source": "// SPDX-License-Identifier: MIT\npragma solidity >=0.6.0 <0.9.0;\n\ncontract We {\n  mapping(address => uint) balance;\n\n  function receiveEth()\n            public payable {\n    assert(balance[msg.sender] + msg.value >= balance[msg.sender]);\n    balance[msg.sender] += msg.value;\n  }\n  function withdrawEth(\n            address payable _to,\n            uint _amount)\n            public {\n    require(_amount <= balance[msg.sender], 'not enough funds');\n    assert(balance[msg.sender] >= balance[msg.sender] - _amount);\n    balance[msg.sender] -= _amount;\n    _to.transfer(_amount);\n  }\n\n  receive() external payable {\n    receiveEth();\n  }\n}\n",
  "sourcePath": "/Users/jaiq/Documents/000 BLOCKCHAIN/ETH/uMe/src/contracts/We.sol",
  "compiler": {
    "name": "solc",
    "version": "0.8.9+commit.e5eed63a.Emscripten.clang"
  },
  "schemaVersion": "3.4.3",
  "updatedAt": "2021-11-02T03:50:55.879Z",
  "networkType": "ethereum",
  "devdoc": {
    "kind": "dev",
    "methods": {},
    "version": 1
  },
  "userdoc": {
    "kind": "user",
    "methods": {},
    "version": 1
  }
}