{
  "contractName": "We",
  "abi": [
    {
      "inputs": [
        {
          "internalType": "contract ME",
          "name": "_meToken",
          "type": "address"
        },
        {
          "internalType": "contract UME",
          "name": "_umeToken",
          "type": "address"
        }
      ],
      "stateMutability": "nonpayable",
      "type": "constructor"
    },
    {
      "anonymous": false,
      "inputs": [
        {
          "indexed": false,
          "internalType": "address",
          "name": "account",
          "type": "address"
        },
        {
          "indexed": false,
          "internalType": "uint256",
          "name": "mintTime",
          "type": "uint256"
        },
        {
          "indexed": false,
          "internalType": "uint256",
          "name": "amount",
          "type": "uint256"
        }
      ],
      "name": "MintUME",
      "type": "event"
    },
    {
      "inputs": [
        {
          "internalType": "address",
          "name": "",
          "type": "address"
        }
      ],
      "name": "curateInCache",
      "outputs": [
        {
          "internalType": "uint256",
          "name": "",
          "type": "uint256"
        }
      ],
      "stateMutability": "view",
      "type": "function",
      "constant": true
    },
    {
      "inputs": [
        {
          "internalType": "address",
          "name": "",
          "type": "address"
        }
      ],
      "name": "curateRedeemed",
      "outputs": [
        {
          "internalType": "uint256",
          "name": "",
          "type": "uint256"
        }
      ],
      "stateMutability": "view",
      "type": "function",
      "constant": true
    },
    {
      "inputs": [
        {
          "internalType": "address",
          "name": "",
          "type": "address"
        }
      ],
      "name": "followInCache",
      "outputs": [
        {
          "internalType": "uint256",
          "name": "",
          "type": "uint256"
        }
      ],
      "stateMutability": "view",
      "type": "function",
      "constant": true
    },
    {
      "inputs": [
        {
          "internalType": "address",
          "name": "",
          "type": "address"
        }
      ],
      "name": "followRedeemed",
      "outputs": [
        {
          "internalType": "uint256",
          "name": "",
          "type": "uint256"
        }
      ],
      "stateMutability": "view",
      "type": "function",
      "constant": true
    },
    {
      "inputs": [
        {
          "internalType": "address",
          "name": "",
          "type": "address"
        }
      ],
      "name": "isCached",
      "outputs": [
        {
          "internalType": "bool",
          "name": "",
          "type": "bool"
        }
      ],
      "stateMutability": "view",
      "type": "function",
      "constant": true
    },
    {
      "inputs": [
        {
          "internalType": "address",
          "name": "",
          "type": "address"
        }
      ],
      "name": "isCalculated",
      "outputs": [
        {
          "internalType": "bool",
          "name": "",
          "type": "bool"
        }
      ],
      "stateMutability": "view",
      "type": "function",
      "constant": true
    },
    {
      "inputs": [
        {
          "internalType": "address",
          "name": "",
          "type": "address"
        }
      ],
      "name": "isRedeemed",
      "outputs": [
        {
          "internalType": "bool",
          "name": "",
          "type": "bool"
        }
      ],
      "stateMutability": "view",
      "type": "function",
      "constant": true
    },
    {
      "inputs": [
        {
          "internalType": "address",
          "name": "",
          "type": "address"
        }
      ],
      "name": "juryInCache",
      "outputs": [
        {
          "internalType": "uint256",
          "name": "",
          "type": "uint256"
        }
      ],
      "stateMutability": "view",
      "type": "function",
      "constant": true
    },
    {
      "inputs": [
        {
          "internalType": "address",
          "name": "",
          "type": "address"
        }
      ],
      "name": "juryRedeemed",
      "outputs": [
        {
          "internalType": "uint256",
          "name": "",
          "type": "uint256"
        }
      ],
      "stateMutability": "view",
      "type": "function",
      "constant": true
    },
    {
      "inputs": [
        {
          "internalType": "address",
          "name": "",
          "type": "address"
        }
      ],
      "name": "likeInCache",
      "outputs": [
        {
          "internalType": "uint256",
          "name": "",
          "type": "uint256"
        }
      ],
      "stateMutability": "view",
      "type": "function",
      "constant": true
    },
    {
      "inputs": [
        {
          "internalType": "address",
          "name": "",
          "type": "address"
        }
      ],
      "name": "likeRedeemed",
      "outputs": [
        {
          "internalType": "uint256",
          "name": "",
          "type": "uint256"
        }
      ],
      "stateMutability": "view",
      "type": "function",
      "constant": true
    },
    {
      "inputs": [
        {
          "internalType": "address",
          "name": "",
          "type": "address"
        }
      ],
      "name": "postInCache",
      "outputs": [
        {
          "internalType": "uint256",
          "name": "",
          "type": "uint256"
        }
      ],
      "stateMutability": "view",
      "type": "function",
      "constant": true
    },
    {
      "inputs": [
        {
          "internalType": "address",
          "name": "",
          "type": "address"
        }
      ],
      "name": "postRedeemed",
      "outputs": [
        {
          "internalType": "uint256",
          "name": "",
          "type": "uint256"
        }
      ],
      "stateMutability": "view",
      "type": "function",
      "constant": true
    },
    {
      "inputs": [
        {
          "internalType": "address",
          "name": "",
          "type": "address"
        }
      ],
      "name": "redeemStart",
      "outputs": [
        {
          "internalType": "uint256",
          "name": "",
          "type": "uint256"
        }
      ],
      "stateMutability": "view",
      "type": "function",
      "constant": true
    },
    {
      "inputs": [
        {
          "internalType": "address",
          "name": "",
          "type": "address"
        }
      ],
      "name": "respondInCache",
      "outputs": [
        {
          "internalType": "uint256",
          "name": "",
          "type": "uint256"
        }
      ],
      "stateMutability": "view",
      "type": "function",
      "constant": true
    },
    {
      "inputs": [
        {
          "internalType": "address",
          "name": "",
          "type": "address"
        }
      ],
      "name": "respondRedeemed",
      "outputs": [
        {
          "internalType": "uint256",
          "name": "",
          "type": "uint256"
        }
      ],
      "stateMutability": "view",
      "type": "function",
      "constant": true
    },
    {
      "inputs": [
        {
          "internalType": "address",
          "name": "",
          "type": "address"
        }
      ],
      "name": "tagInCache",
      "outputs": [
        {
          "internalType": "uint256",
          "name": "",
          "type": "uint256"
        }
      ],
      "stateMutability": "view",
      "type": "function",
      "constant": true
    },
    {
      "inputs": [
        {
          "internalType": "address",
          "name": "",
          "type": "address"
        }
      ],
      "name": "tagRedeemed",
      "outputs": [
        {
          "internalType": "uint256",
          "name": "",
          "type": "uint256"
        }
      ],
      "stateMutability": "view",
      "type": "function",
      "constant": true
    },
    {
      "inputs": [],
      "name": "cache",
      "outputs": [
        {
          "internalType": "bool",
          "name": "",
          "type": "bool"
        }
      ],
      "stateMutability": "nonpayable",
      "type": "function"
    },
    {
      "inputs": [],
      "name": "calculate",
      "outputs": [],
      "stateMutability": "nonpayable",
      "type": "function"
    },
    {
      "inputs": [],
      "name": "clear",
      "outputs": [],
      "stateMutability": "nonpayable",
      "type": "function"
    },
    {
      "inputs": [],
      "name": "redeem",
      "outputs": [],
      "stateMutability": "nonpayable",
      "type": "function"
    }
  ],
  "bytecode": "0x608060405260006002556040518060e00160405280600060ff168152602001600160ff168152602001600260ff168152602001600360ff168152602001600460ff168152602001600560ff168152602001600660ff1681525060039060076200006a92919062000127565b503480156200007857600080fd5b5060405162001bda38038062001bda83398181016040528101906200009e9190620001be565b816000806101000a81548173ffffffffffffffffffffffffffffffffffffffff021916908373ffffffffffffffffffffffffffffffffffffffff16021790555080600160006101000a81548173ffffffffffffffffffffffffffffffffffffffff021916908373ffffffffffffffffffffffffffffffffffffffff16021790555050506200029a565b82600781019282156200015e579160200282015b828111156200015d578251829060ff169055916020019190600101906200013b565b5b5090506200016d919062000171565b5090565b5b808211156200018c57600081600090555060010162000172565b5090565b600081519050620001a18162000266565b92915050565b600081519050620001b88162000280565b92915050565b60008060408385031215620001d857620001d762000261565b5b6000620001e88582860162000190565b9250506020620001fb85828601620001a7565b9150509250929050565b6000620002128262000241565b9050919050565b6000620002268262000205565b9050919050565b60006200023a8262000205565b9050919050565b600073ffffffffffffffffffffffffffffffffffffffff82169050919050565b600080fd5b620002718162000219565b81146200027d57600080fd5b50565b6200028b816200022d565b81146200029757600080fd5b50565b61193080620002aa6000396000f3fe608060405234801561001057600080fd5b50600436106101425760003560e01c80639776135a116100b8578063be619ee11161007c578063be619ee1146103e9578063ca33056314610419578063ca77ab6514610449578063d1f6a53114610453578063d462e18614610483578063ecc81306146104b357610142565b80639776135a1461031f57806399edc57f1461034f578063a06031d01461037f578063b564efb2146103af578063be040fb0146103df57610142565b806354fe8cac1161010a57806354fe8cac146102115780635c1704f0146102415780635c95e15d1461027157806360c7d295146102a157806368763771146102bf57806373da27d9146102ef57610142565b80632d9657b01461014757806338f51f3d146101775780633c4b50d8146101a7578063446494e0146101d757806352efea6e14610207575b600080fd5b610161600480360381019061015c91906113d3565b6104e3565b60405161016e9190611646565b60405180910390f35b610191600480360381019061018c91906113d3565b6104fb565b60405161019e919061154b565b60405180910390f35b6101c160048036038101906101bc91906113d3565b61051b565b6040516101ce9190611646565b60405180910390f35b6101f160048036038101906101ec91906113d3565b610533565b6040516101fe9190611646565b60405180910390f35b61020f61054b565b005b61022b600480360381019061022691906113d3565b6108cb565b6040516102389190611646565b60405180910390f35b61025b600480360381019061025691906113d3565b6108e3565b6040516102689190611646565b60405180910390f35b61028b600480360381019061028691906113d3565b6108fb565b6040516102989190611646565b60405180910390f35b6102a9610913565b6040516102b6919061154b565b60405180910390f35b6102d960048036038101906102d491906113d3565b610b30565b6040516102e69190611646565b60405180910390f35b610309600480360381019061030491906113d3565b610b48565b604051610316919061154b565b60405180910390f35b610339600480360381019061033491906113d3565b610b68565b6040516103469190611646565b60405180910390f35b610369600480360381019061036491906113d3565b610b80565b6040516103769190611646565b60405180910390f35b610399600480360381019061039491906113d3565b610b98565b6040516103a69190611646565b60405180910390f35b6103c960048036038101906103c491906113d3565b610bb0565b6040516103d69190611646565b60405180910390f35b6103e7610bc8565b005b61040360048036038101906103fe91906113d3565b610cbb565b6040516104109190611646565b60405180910390f35b610433600480360381019061042e91906113d3565b610cd3565b604051610440919061154b565b60405180910390f35b610451610cf3565b005b61046d600480360381019061046891906113d3565b611376565b60405161047a9190611646565b60405180910390f35b61049d600480360381019061049891906113d3565b61138e565b6040516104aa9190611646565b60405180910390f35b6104cd60048036038101906104c891906113d3565b6113a6565b6040516104da9190611646565b60405180910390f35b60126020528060005260406000206000915090505481565b60196020528060005260406000206000915054906101000a900460ff1681565b600a6020528060005260406000206000915090505481565b600e6020528060005260406000206000915090505481565b60011515601b60003373ffffffffffffffffffffffffffffffffffffffff1673ffffffffffffffffffffffffffffffffffffffff16815260200190815260200160002060009054906101000a900460ff161515146105de576040517f08c379a00000000000000000000000000000000000000000000000000000000081526004016105d590611606565b60405180910390fd5b6000601160003373ffffffffffffffffffffffffffffffffffffffff1673ffffffffffffffffffffffffffffffffffffffff168152602001908152602001600020819055506000601260003373ffffffffffffffffffffffffffffffffffffffff1673ffffffffffffffffffffffffffffffffffffffff168152602001908152602001600020819055506000601360003373ffffffffffffffffffffffffffffffffffffffff1673ffffffffffffffffffffffffffffffffffffffff168152602001908152602001600020819055506000601460003373ffffffffffffffffffffffffffffffffffffffff1673ffffffffffffffffffffffffffffffffffffffff168152602001908152602001600020819055506000601560003373ffffffffffffffffffffffffffffffffffffffff1673ffffffffffffffffffffffffffffffffffffffff168152602001908152602001600020819055506000601660003373ffffffffffffffffffffffffffffffffffffffff1673ffffffffffffffffffffffffffffffffffffffff168152602001908152602001600020819055506000601760003373ffffffffffffffffffffffffffffffffffffffff1673ffffffffffffffffffffffffffffffffffffffff168152602001908152602001600020819055506000601960003373ffffffffffffffffffffffffffffffffffffffff1673ffffffffffffffffffffffffffffffffffffffff16815260200190815260200160002060006101000a81548160ff0219169083151502179055506000601a60003373ffffffffffffffffffffffffffffffffffffffff1673ffffffffffffffffffffffffffffffffffffffff16815260200190815260200160002060006101000a81548160ff0219169083151502179055506000601b60003373ffffffffffffffffffffffffffffffffffffffff1673ffffffffffffffffffffffffffffffffffffffff16815260200190815260200160002060006101000a81548160ff021916908315150217905550565b60186020528060005260406000206000915090505481565b600b6020528060005260406000206000915090505481565b600f6020528060005260406000206000915090505481565b600060011515601a60003373ffffffffffffffffffffffffffffffffffffffff1673ffffffffffffffffffffffffffffffffffffffff16815260200190815260200160002060009054906101000a900460ff16151514156109a9576040517f08c379a00000000000000000000000000000000000000000000000000000000081526004016109a090611626565b60405180910390fd5b60011515601960003373ffffffffffffffffffffffffffffffffffffffff1673ffffffffffffffffffffffffffffffffffffffff16815260200190815260200160002060009054906101000a900460ff1615151415610a3d576040517f08c379a0000000000000000000000000000000000000000000000000000000008152600401610a3490611586565b60405180910390fd5b60011515601b60003373ffffffffffffffffffffffffffffffffffffffff1673ffffffffffffffffffffffffffffffffffffffff16815260200190815260200160002060009054906101000a900460ff1615151415610ad1576040517f08c379a0000000000000000000000000000000000000000000000000000000008152600401610ac8906115c6565b60405180910390fd5b6001601a60003373ffffffffffffffffffffffffffffffffffffffff1673ffffffffffffffffffffffffffffffffffffffff16815260200190815260200160002060006101000a81548160ff0219169083151502179055506001905090565b60166020528060005260406000206000915090505481565b601a6020528060005260406000206000915054906101000a900460ff1681565b60156020528060005260406000206000915090505481565b60176020528060005260406000206000915090505481565b60106020528060005260406000206000915090505481565b600c6020528060005260406000206000915090505481565b600160009054906101000a900473ffffffffffffffffffffffffffffffffffffffff1673ffffffffffffffffffffffffffffffffffffffff166340c10f19336002546040518363ffffffff1660e01b8152600401610c27929190611522565b600060405180830381600087803b158015610c4157600080fd5b505af1158015610c55573d6000803e3d6000fd5b505050506001601b60003373ffffffffffffffffffffffffffffffffffffffff1673ffffffffffffffffffffffffffffffffffffffff16815260200190815260200160002060006101000a81548160ff021916908315150217905550610cb961054b565b565b600d6020528060005260406000206000915090505481565b601b6020528060005260406000206000915054906101000a900460ff1681565b60011515601a60003373ffffffffffffffffffffffffffffffffffffffff1673ffffffffffffffffffffffffffffffffffffffff16815260200190815260200160002060009054906101000a900460ff16151514610d86576040517f08c379a0000000000000000000000000000000000000000000000000000000008152600401610d7d906115a6565b60405180910390fd5b6000601160003373ffffffffffffffffffffffffffffffffffffffff1673ffffffffffffffffffffffffffffffffffffffff168152602001908152602001600020541180610e1357506000601260003373ffffffffffffffffffffffffffffffffffffffff1673ffffffffffffffffffffffffffffffffffffffff16815260200190815260200160002054115b80610e5d57506000601360003373ffffffffffffffffffffffffffffffffffffffff1673ffffffffffffffffffffffffffffffffffffffff16815260200190815260200160002054115b80610ea757506000601460003373ffffffffffffffffffffffffffffffffffffffff1673ffffffffffffffffffffffffffffffffffffffff16815260200190815260200160002054115b80610ef157506000601560003373ffffffffffffffffffffffffffffffffffffffff1673ffffffffffffffffffffffffffffffffffffffff16815260200190815260200160002054115b80610f3b57506000601660003373ffffffffffffffffffffffffffffffffffffffff1673ffffffffffffffffffffffffffffffffffffffff16815260200190815260200160002054115b80610f8557506000601760003373ffffffffffffffffffffffffffffffffffffffff1673ffffffffffffffffffffffffffffffffffffffff16815260200190815260200160002054115b610fc4576040517f08c379a0000000000000000000000000000000000000000000000000000000008152600401610fbb906115e6565b60405180910390fd5b60011515601960003373ffffffffffffffffffffffffffffffffffffffff1673ffffffffffffffffffffffffffffffffffffffff16815260200190815260200160002060009054906101000a900460ff1615151415611058576040517f08c379a000000000000000000000000000000000000000000000000000000000815260040161104f90611566565b60405180910390fd5b60006002819055506001601160003373ffffffffffffffffffffffffffffffffffffffff1673ffffffffffffffffffffffffffffffffffffffff168152602001908152602001600020546110ac91906116c8565b600260008282546110bd9190611672565b925050819055506002601260003373ffffffffffffffffffffffffffffffffffffffff1673ffffffffffffffffffffffffffffffffffffffff1681526020019081526020016000205461111091906116c8565b600260008282546111219190611672565b925050819055506002601360003373ffffffffffffffffffffffffffffffffffffffff1673ffffffffffffffffffffffffffffffffffffffff1681526020019081526020016000205461117491906116c8565b600260008282546111859190611672565b925050819055506002601460003373ffffffffffffffffffffffffffffffffffffffff1673ffffffffffffffffffffffffffffffffffffffff168152602001908152602001600020546111d891906116c8565b600260008282546111e99190611672565b925050819055506002601560003373ffffffffffffffffffffffffffffffffffffffff1673ffffffffffffffffffffffffffffffffffffffff1681526020019081526020016000205461123c91906116c8565b6002600082825461124d9190611672565b925050819055506003601660003373ffffffffffffffffffffffffffffffffffffffff1673ffffffffffffffffffffffffffffffffffffffff168152602001908152602001600020546112a091906116c8565b600260008282546112b19190611672565b925050819055506005601760003373ffffffffffffffffffffffffffffffffffffffff1673ffffffffffffffffffffffffffffffffffffffff1681526020019081526020016000205461130491906116c8565b600260008282546113159190611672565b925050819055506001601960003373ffffffffffffffffffffffffffffffffffffffff1673ffffffffffffffffffffffffffffffffffffffff16815260200190815260200160002060006101000a81548160ff021916908315150217905550565b60146020528060005260406000206000915090505481565b60136020528060005260406000206000915090505481565b60116020528060005260406000206000915090505481565b6000813590506113cd816118e3565b92915050565b6000602082840312156113e9576113e8611799565b5b60006113f7848285016113be565b91505092915050565b61140981611722565b82525050565b61141881611734565b82525050565b600061142b601a83611661565b91506114368261179e565b602082019050919050565b600061144e601f83611661565b9150611459826117c7565b602082019050919050565b6000611471601783611661565b915061147c826117f0565b602082019050919050565b6000611494601e83611661565b915061149f82611819565b602082019050919050565b60006114b7601b83611661565b91506114c282611842565b602082019050919050565b60006114da602583611661565b91506114e58261186b565b604082019050919050565b60006114fd601b83611661565b9150611508826118ba565b602082019050919050565b61151c81611760565b82525050565b60006040820190506115376000830185611400565b6115446020830184611513565b9392505050565b6000602082019050611560600083018461140f565b92915050565b6000602082019050818103600083015261157f8161141e565b9050919050565b6000602082019050818103600083015261159f81611441565b9050919050565b600060208201905081810360008301526115bf81611464565b9050919050565b600060208201905081810360008301526115df81611487565b9050919050565b600060208201905081810360008301526115ff816114aa565b9050919050565b6000602082019050818103600083015261161f816114cd565b9050919050565b6000602082019050818103600083015261163f816114f0565b9050919050565b600060208201905061165b6000830184611513565b92915050565b600082825260208201905092915050565b600061167d82611760565b915061168883611760565b9250827fffffffffffffffffffffffffffffffffffffffffffffffffffffffffffffffff038211156116bd576116bc61176a565b5b828201905092915050565b60006116d382611760565b91506116de83611760565b9250817fffffffffffffffffffffffffffffffffffffffffffffffffffffffffffffffff04831182151516156117175761171661176a565b5b828202905092915050565b600061172d82611740565b9050919050565b60008115159050919050565b600073ffffffffffffffffffffffffffffffffffffffff82169050919050565b6000819050919050565b7f4e487b7100000000000000000000000000000000000000000000000000000000600052601160045260246000fd5b600080fd5b7f4572726f723a20686173206265656e2063616c63756c61746564000000000000600082015250565b7f4572726f723a20636163686520616c72656164792063616c63756c6174656400600082015250565b7f4572726f723a204d45206861736e277420636163686564000000000000000000600082015250565b7f4572726f723a20636163686520686173206265656e2072656465656d65640000600082015250565b7f4572726f723a206e6f7468696e6720746f2063616c63756c6174650000000000600082015250565b7f4572726f723a206361636865206861736e277420796574206265656e2072656460008201527f65656d6564000000000000000000000000000000000000000000000000000000602082015250565b7f4572726f723a20636163686520616c7265616479206163746976650000000000600082015250565b6118ec81611722565b81146118f757600080fd5b5056fea264697066735822122005df59c2936552ef6291f4dfafd7238060ae378793834ef97404893441a01d4564736f6c63430008070033",
  "immutableReferences": {},
  "source": "// SPDX-License-Identifier: MIT\n\npragma solidity >=0.8.0 <0.9.0;\n\nimport \"./ME.sol\";\nimport \"./UME.sol\";\n\n// smart contract for We (decentralized bank which mints UME)\ncontract We {\n  ME private meToken;\n  UME private umeToken;\n\n  uint umeToMint = 0;\n  uint256[7] meIds = [0,1,2,3,4,5,6];\n\n  mapping(address => uint) public postRedeemed;\n  mapping(address => uint) public likeRedeemed;\n  mapping(address => uint) public tagRedeemed;\n  mapping(address => uint) public followRedeemed;\n  mapping(address => uint) public respondRedeemed;\n  mapping(address => uint) public curateRedeemed;\n  mapping(address => uint) public juryRedeemed;\n\n\n  mapping(address => uint) public postInCache;\n  mapping(address => uint) public likeInCache;\n  mapping(address => uint) public tagInCache;\n  mapping(address => uint) public followInCache;\n  mapping(address => uint) public respondInCache;\n  mapping(address => uint) public curateInCache;\n  mapping(address => uint) public juryInCache;\n\n  mapping(address => uint) public redeemStart;\n  mapping(address => bool) public isCalculated;\n  mapping(address => bool) public isCached;\n  mapping(address => bool) public isRedeemed;\n\n  event MintUME(address account, uint mintTime, uint amount);\n\n  constructor(ME _meToken, UME _umeToken) public {\n    meToken = _meToken;\n    umeToken = _umeToken;\n  }\n  // cache ME\n  function cache() public returns(bool){\n    require(isCached[msg.sender]!=true, 'Error: cache already active');\n    require(isCalculated[msg.sender]!=true, 'Error: cache already calculated');\n    // reset isRedeemed\n    require(isRedeemed[msg.sender]!=true, 'Error: cache has been redeemed');\n/*\n    uint256[7] memory _meBalances;\n    for(uint8 i = 0; i < 7; i++) {\n      _meBalances[i] = meToken.balanceOf(msg.sender, i);\n    }\n\n    // track token amount in Cache\n    postInCache[msg.sender] = _meBalances[0];\n    likeInCache[msg.sender] = _meBalances[1];\n    tagInCache[msg.sender] = _meBalances[2];\n    followInCache[msg.sender] = _meBalances[3];\n    respondInCache[msg.sender] = _meBalances[4];\n    curateInCache[msg.sender] = _meBalances[5];\n    juryInCache[msg.sender] = _meBalances[6];\n\n    // approve transfer of UserData tokens\n    meToken.setApprovalForAll(address(msg.sender), true);\n    // transfer UserData tokens\n    for(uint i = 0; i < 7; i++) {\n      meToken.safeTransferFrom(address(msg.sender), address(this), i, _meBalances[i], msg.data);\n    }\n*/\n/*\n    postInCache[msg.sender] = meToken.balanceOf(msg.sender, 0);\n    likeInCache[msg.sender] = meToken.balanceOf(msg.sender, 1);\n    tagInCache[msg.sender] = meToken.balanceOf(msg.sender, 2);\n    followInCache[msg.sender] = meToken.balanceOf(msg.sender, 3);\n    respondInCache[msg.sender] = meToken.balanceOf(msg.sender, 4);\n    curateInCache[msg.sender] = meToken.balanceOf(msg.sender, 5);\n    juryInCache[msg.sender] = meToken.balanceOf(msg.sender, 6);\n*/\n\n    isCached[msg.sender] = true;\n    return true;\n  }\n  // calculate UME to mint\n  function calculate() public {\n    require(isCached[msg.sender]==true, 'Error: ME hasn\\'t cached');\n    require(postInCache[msg.sender] > 0 ||\n            likeInCache[msg.sender] > 0 ||\n            tagInCache[msg.sender] > 0 ||\n            followInCache[msg.sender] > 0 ||\n            respondInCache[msg.sender] > 0 ||\n            curateInCache[msg.sender] > 0 ||\n            juryInCache[msg.sender] > 0, 'Error: nothing to calculate');\n    require(isCalculated[msg.sender]!=true, 'Error: has been calculated');\n    // reset UME to mint\n    umeToMint = 0;\n    // POST tokens\n    umeToMint += postInCache[msg.sender] * 1;\n    umeToMint += likeInCache[msg.sender] * 2;\n    umeToMint += tagInCache[msg.sender] * 2;\n    umeToMint += followInCache[msg.sender] * 2;\n    umeToMint += respondInCache[msg.sender] * 2;\n    umeToMint += curateInCache[msg.sender] * 3;\n    umeToMint += juryInCache[msg.sender] * 5;\n    // set isCalculated to true so it can't double calculate\n    isCalculated[msg.sender] = true;\n  }\n\n  function clear() public {\n    require(isRedeemed[msg.sender]==true, 'Error: cache hasn\\'t yet been redeemed');\n    postInCache[msg.sender] = 0;\n    likeInCache[msg.sender] = 0;\n    tagInCache[msg.sender] = 0;\n    followInCache[msg.sender] = 0;\n    respondInCache[msg.sender] = 0;\n    curateInCache[msg.sender] = 0;\n    juryInCache[msg.sender] = 0;\n    // reset state\n    isCalculated[msg.sender] = false;\n    isCached[msg.sender] = false;\n    isRedeemed[msg.sender] = false;\n  }\n\n  function redeem() public {\n    // cache to get values\n\n    umeToken.mint(msg.sender, umeToMint);\n    isRedeemed[msg.sender] = true;\n    clear();\n  }\n\n}\n",
  "sourcePath": "/Users/jaiq/Documents/000 BLOCKCHAIN/ETH/uMe/src/contracts/We.sol",
  "compiler": {
    "name": "solc",
    "version": "0.8.7+commit.e28d00a7.Emscripten.clang"
  },
  "schemaVersion": "3.4.3",
  "updatedAt": "2021-08-18T08:28:21.198Z",
  "networkType": "ethereum",
  "devdoc": {
    "kind": "dev",
    "methods": {},
    "version": 1
  },
  "userdoc": {
    "kind": "user",
    "methods": {},
    "version": 1
  }
}