{
  "contractName": "We",
  "abi": [
    {
      "inputs": [
        {
          "internalType": "contract ME",
          "name": "_meToken",
          "type": "address"
        },
        {
          "internalType": "contract UME",
          "name": "_umeToken",
          "type": "address"
        }
      ],
      "stateMutability": "nonpayable",
      "type": "constructor"
    },
    {
      "anonymous": false,
      "inputs": [
        {
          "indexed": false,
          "internalType": "address",
          "name": "account",
          "type": "address"
        },
        {
          "indexed": false,
          "internalType": "uint256",
          "name": "mintTime",
          "type": "uint256"
        },
        {
          "indexed": false,
          "internalType": "uint256",
          "name": "amount",
          "type": "uint256"
        }
      ],
      "name": "MintUME",
      "type": "event"
    },
    {
      "inputs": [],
      "name": "redeem",
      "outputs": [],
      "stateMutability": "payable",
      "type": "function"
    }
  ],
  "bytecode": "0x608060405260006002556040518060e00160405280600060ff168152602001600160ff168152602001600260ff168152602001600360ff168152602001600460ff168152602001600560ff168152602001600660ff1681525060039060076200006a92919062000127565b503480156200007857600080fd5b5060405162001c0138038062001c0183398181016040528101906200009e9190620001be565b816000806101000a81548173ffffffffffffffffffffffffffffffffffffffff021916908373ffffffffffffffffffffffffffffffffffffffff16021790555080600160006101000a81548173ffffffffffffffffffffffffffffffffffffffff021916908373ffffffffffffffffffffffffffffffffffffffff16021790555050506200029a565b82600781019282156200015e579160200282015b828111156200015d578251829060ff169055916020019190600101906200013b565b5b5090506200016d919062000171565b5090565b5b808211156200018c57600081600090555060010162000172565b5090565b600081519050620001a18162000266565b92915050565b600081519050620001b88162000280565b92915050565b60008060408385031215620001d857620001d762000261565b5b6000620001e88582860162000190565b9250506020620001fb85828601620001a7565b9150509250929050565b6000620002128262000241565b9050919050565b6000620002268262000205565b9050919050565b60006200023a8262000205565b9050919050565b600073ffffffffffffffffffffffffffffffffffffffff82169050919050565b600080fd5b620002718162000219565b81146200027d57600080fd5b50565b6200028b816200022d565b81146200029757600080fd5b50565b61195780620002aa6000396000f3fe60806040526004361061001e5760003560e01c8063be040fb014610023575b600080fd5b61002b61002d565b005b610035610130565b61003d61081a565b600160009054906101000a900473ffffffffffffffffffffffffffffffffffffffff1673ffffffffffffffffffffffffffffffffffffffff166340c10f19336002546040518363ffffffff1660e01b815260040161009c929190611464565b600060405180830381600087803b1580156100b657600080fd5b505af11580156100ca573d6000803e3d6000fd5b505050506001601b60003373ffffffffffffffffffffffffffffffffffffffff1673ffffffffffffffffffffffffffffffffffffffff16815260200190815260200160002060006101000a81548160ff02191690831515021790555061012e610e9d565b565b60011515601a60003373ffffffffffffffffffffffffffffffffffffffff1673ffffffffffffffffffffffffffffffffffffffff16815260200190815260200160002060009054906101000a900460ff16151514156101c4576040517f08c379a00000000000000000000000000000000000000000000000000000000081526004016101bb90611576565b60405180910390fd5b60011515601960003373ffffffffffffffffffffffffffffffffffffffff1673ffffffffffffffffffffffffffffffffffffffff16815260200190815260200160002060009054906101000a900460ff1615151415610258576040517f08c379a000000000000000000000000000000000000000000000000000000000815260040161024f906114d6565b60405180910390fd5b60011515601b60003373ffffffffffffffffffffffffffffffffffffffff1673ffffffffffffffffffffffffffffffffffffffff16815260200190815260200160002060009054906101000a900460ff16151514156102ec576040517f08c379a00000000000000000000000000000000000000000000000000000000081526004016102e390611516565b60405180910390fd5b6102f461121d565b60005b60078160ff1610156103df5760008054906101000a900473ffffffffffffffffffffffffffffffffffffffff1673ffffffffffffffffffffffffffffffffffffffff1662fdd58e33836040518363ffffffff1660e01b815260040161035d92919061148d565b60206040518083038186803b15801561037557600080fd5b505afa158015610389573d6000803e3d6000fd5b505050506040513d601f19601f820116820180604052508101906103ad9190611254565b828260ff16600781106103c3576103c2611780565b5b60200201818152505080806103d790611727565b9150506102f7565b50806000600781106103f4576103f3611780565b5b6020020151601160003373ffffffffffffffffffffffffffffffffffffffff1673ffffffffffffffffffffffffffffffffffffffff16815260200190815260200160002081905550806001600781106104505761044f611780565b5b6020020151601260003373ffffffffffffffffffffffffffffffffffffffff1673ffffffffffffffffffffffffffffffffffffffff16815260200190815260200160002081905550806002600781106104ac576104ab611780565b5b6020020151601360003373ffffffffffffffffffffffffffffffffffffffff1673ffffffffffffffffffffffffffffffffffffffff168152602001908152602001600020819055508060036007811061050857610507611780565b5b6020020151601460003373ffffffffffffffffffffffffffffffffffffffff1673ffffffffffffffffffffffffffffffffffffffff168152602001908152602001600020819055508060046007811061056457610563611780565b5b6020020151601560003373ffffffffffffffffffffffffffffffffffffffff1673ffffffffffffffffffffffffffffffffffffffff16815260200190815260200160002081905550806005600781106105c0576105bf611780565b5b6020020151601660003373ffffffffffffffffffffffffffffffffffffffff1673ffffffffffffffffffffffffffffffffffffffff168152602001908152602001600020819055508060066007811061061c5761061b611780565b5b6020020151601760003373ffffffffffffffffffffffffffffffffffffffff1673ffffffffffffffffffffffffffffffffffffffff1681526020019081526020016000208190555060008054906101000a900473ffffffffffffffffffffffffffffffffffffffff1673ffffffffffffffffffffffffffffffffffffffff1663a22cb4653360016040518363ffffffff1660e01b81526004016106c092919061143b565b600060405180830381600087803b1580156106da57600080fd5b505af11580156106ee573d6000803e3d6000fd5b5050505060005b60078110156107be5760008054906101000a900473ffffffffffffffffffffffffffffffffffffffff1673ffffffffffffffffffffffffffffffffffffffff1663f242432a3330848686600781106107505761074f611780565b5b60200201516000366040518763ffffffff1660e01b8152600401610779969594939291906113df565b600060405180830381600087803b15801561079357600080fd5b505af11580156107a7573d6000803e3d6000fd5b5050505080806107b6906116de565b9150506106f5565b506001601a60003373ffffffffffffffffffffffffffffffffffffffff1673ffffffffffffffffffffffffffffffffffffffff16815260200190815260200160002060006101000a81548160ff02191690831515021790555050565b60011515601a60003373ffffffffffffffffffffffffffffffffffffffff1673ffffffffffffffffffffffffffffffffffffffff16815260200190815260200160002060009054906101000a900460ff161515146108ad576040517f08c379a00000000000000000000000000000000000000000000000000000000081526004016108a4906114f6565b60405180910390fd5b6000601160003373ffffffffffffffffffffffffffffffffffffffff1673ffffffffffffffffffffffffffffffffffffffff16815260200190815260200160002054118061093a57506000601260003373ffffffffffffffffffffffffffffffffffffffff1673ffffffffffffffffffffffffffffffffffffffff16815260200190815260200160002054115b8061098457506000601360003373ffffffffffffffffffffffffffffffffffffffff1673ffffffffffffffffffffffffffffffffffffffff16815260200190815260200160002054115b806109ce57506000601460003373ffffffffffffffffffffffffffffffffffffffff1673ffffffffffffffffffffffffffffffffffffffff16815260200190815260200160002054115b80610a1857506000601560003373ffffffffffffffffffffffffffffffffffffffff1673ffffffffffffffffffffffffffffffffffffffff16815260200190815260200160002054115b80610a6257506000601660003373ffffffffffffffffffffffffffffffffffffffff1673ffffffffffffffffffffffffffffffffffffffff16815260200190815260200160002054115b80610aac57506000601760003373ffffffffffffffffffffffffffffffffffffffff1673ffffffffffffffffffffffffffffffffffffffff16815260200190815260200160002054115b610aeb576040517f08c379a0000000000000000000000000000000000000000000000000000000008152600401610ae290611536565b60405180910390fd5b60011515601960003373ffffffffffffffffffffffffffffffffffffffff1673ffffffffffffffffffffffffffffffffffffffff16815260200190815260200160002060009054906101000a900460ff1615151415610b7f576040517f08c379a0000000000000000000000000000000000000000000000000000000008152600401610b76906114b6565b60405180910390fd5b60006002819055506001601160003373ffffffffffffffffffffffffffffffffffffffff1673ffffffffffffffffffffffffffffffffffffffff16815260200190815260200160002054610bd3919061160e565b60026000828254610be491906115b8565b925050819055506002601260003373ffffffffffffffffffffffffffffffffffffffff1673ffffffffffffffffffffffffffffffffffffffff16815260200190815260200160002054610c37919061160e565b60026000828254610c4891906115b8565b925050819055506002601360003373ffffffffffffffffffffffffffffffffffffffff1673ffffffffffffffffffffffffffffffffffffffff16815260200190815260200160002054610c9b919061160e565b60026000828254610cac91906115b8565b925050819055506002601460003373ffffffffffffffffffffffffffffffffffffffff1673ffffffffffffffffffffffffffffffffffffffff16815260200190815260200160002054610cff919061160e565b60026000828254610d1091906115b8565b925050819055506002601560003373ffffffffffffffffffffffffffffffffffffffff1673ffffffffffffffffffffffffffffffffffffffff16815260200190815260200160002054610d63919061160e565b60026000828254610d7491906115b8565b925050819055506003601660003373ffffffffffffffffffffffffffffffffffffffff1673ffffffffffffffffffffffffffffffffffffffff16815260200190815260200160002054610dc7919061160e565b60026000828254610dd891906115b8565b925050819055506005601760003373ffffffffffffffffffffffffffffffffffffffff1673ffffffffffffffffffffffffffffffffffffffff16815260200190815260200160002054610e2b919061160e565b60026000828254610e3c91906115b8565b925050819055506001601960003373ffffffffffffffffffffffffffffffffffffffff1673ffffffffffffffffffffffffffffffffffffffff16815260200190815260200160002060006101000a81548160ff021916908315150217905550565b60011515601b60003373ffffffffffffffffffffffffffffffffffffffff1673ffffffffffffffffffffffffffffffffffffffff16815260200190815260200160002060009054906101000a900460ff16151514610f30576040517f08c379a0000000000000000000000000000000000000000000000000000000008152600401610f2790611556565b60405180910390fd5b6000601160003373ffffffffffffffffffffffffffffffffffffffff1673ffffffffffffffffffffffffffffffffffffffff168152602001908152602001600020819055506000601260003373ffffffffffffffffffffffffffffffffffffffff1673ffffffffffffffffffffffffffffffffffffffff168152602001908152602001600020819055506000601360003373ffffffffffffffffffffffffffffffffffffffff1673ffffffffffffffffffffffffffffffffffffffff168152602001908152602001600020819055506000601460003373ffffffffffffffffffffffffffffffffffffffff1673ffffffffffffffffffffffffffffffffffffffff168152602001908152602001600020819055506000601560003373ffffffffffffffffffffffffffffffffffffffff1673ffffffffffffffffffffffffffffffffffffffff168152602001908152602001600020819055506000601660003373ffffffffffffffffffffffffffffffffffffffff1673ffffffffffffffffffffffffffffffffffffffff168152602001908152602001600020819055506000601760003373ffffffffffffffffffffffffffffffffffffffff1673ffffffffffffffffffffffffffffffffffffffff168152602001908152602001600020819055506000601960003373ffffffffffffffffffffffffffffffffffffffff1673ffffffffffffffffffffffffffffffffffffffff16815260200190815260200160002060006101000a81548160ff0219169083151502179055506000601a60003373ffffffffffffffffffffffffffffffffffffffff1673ffffffffffffffffffffffffffffffffffffffff16815260200190815260200160002060006101000a81548160ff0219169083151502179055506000601b60003373ffffffffffffffffffffffffffffffffffffffff1673ffffffffffffffffffffffffffffffffffffffff16815260200190815260200160002060006101000a81548160ff021916908315150217905550565b6040518060e00160405280600790602082028036833780820191505090505090565b60008151905061124e8161190a565b92915050565b60006020828403121561126a576112696117af565b5b60006112788482850161123f565b91505092915050565b61128a81611668565b82525050565b6112998161167a565b82525050565b60006112ab8385611596565b93506112b88385846116cf565b6112c1836117b4565b840190509392505050565b60006112d9601a836115a7565b91506112e4826117c5565b602082019050919050565b60006112fc601f836115a7565b9150611307826117ee565b602082019050919050565b600061131f6017836115a7565b915061132a82611817565b602082019050919050565b6000611342601e836115a7565b915061134d82611840565b602082019050919050565b6000611365601b836115a7565b915061137082611869565b602082019050919050565b60006113886025836115a7565b915061139382611892565b604082019050919050565b60006113ab601b836115a7565b91506113b6826118e1565b602082019050919050565b6113ca816116a6565b82525050565b6113d9816116bd565b82525050565b600060a0820190506113f46000830189611281565b6114016020830188611281565b61140e60408301876113c1565b61141b60608301866113c1565b818103608083015261142e81848661129f565b9050979650505050505050565b60006040820190506114506000830185611281565b61145d6020830184611290565b9392505050565b60006040820190506114796000830185611281565b61148660208301846113c1565b9392505050565b60006040820190506114a26000830185611281565b6114af60208301846113d0565b9392505050565b600060208201905081810360008301526114cf816112cc565b9050919050565b600060208201905081810360008301526114ef816112ef565b9050919050565b6000602082019050818103600083015261150f81611312565b9050919050565b6000602082019050818103600083015261152f81611335565b9050919050565b6000602082019050818103600083015261154f81611358565b9050919050565b6000602082019050818103600083015261156f8161137b565b9050919050565b6000602082019050818103600083015261158f8161139e565b9050919050565b600082825260208201905092915050565b600082825260208201905092915050565b60006115c3826116a6565b91506115ce836116a6565b9250827fffffffffffffffffffffffffffffffffffffffffffffffffffffffffffffffff0382111561160357611602611751565b5b828201905092915050565b6000611619826116a6565b9150611624836116a6565b9250817fffffffffffffffffffffffffffffffffffffffffffffffffffffffffffffffff048311821515161561165d5761165c611751565b5b828202905092915050565b600061167382611686565b9050919050565b60008115159050919050565b600073ffffffffffffffffffffffffffffffffffffffff82169050919050565b6000819050919050565b600060ff82169050919050565b60006116c8826116b0565b9050919050565b82818337600083830152505050565b60006116e9826116a6565b91507fffffffffffffffffffffffffffffffffffffffffffffffffffffffffffffffff82141561171c5761171b611751565b5b600182019050919050565b6000611732826116b0565b915060ff82141561174657611745611751565b5b600182019050919050565b7f4e487b7100000000000000000000000000000000000000000000000000000000600052601160045260246000fd5b7f4e487b7100000000000000000000000000000000000000000000000000000000600052603260045260246000fd5b600080fd5b6000601f19601f8301169050919050565b7f4572726f723a20686173206265656e2063616c63756c61746564000000000000600082015250565b7f4572726f723a20636163686520616c72656164792063616c63756c6174656400600082015250565b7f4572726f723a204d45206861736e277420636163686564000000000000000000600082015250565b7f4572726f723a20636163686520686173206265656e2072656465656d65640000600082015250565b7f4572726f723a206e6f7468696e6720746f2063616c63756c6174650000000000600082015250565b7f4572726f723a206361636865206861736e277420796574206265656e2072656460008201527f65656d6564000000000000000000000000000000000000000000000000000000602082015250565b7f4572726f723a20636163686520616c7265616479206163746976650000000000600082015250565b611913816116a6565b811461191e57600080fd5b5056fea2646970667358221220ff6015b3fad61ffbc263ee95274f58f7b2ddd60c64a0103d5c4096cec9a926ab64736f6c63430008070033",
  "immutableReferences": {},
  "source": "// SPDX-License-Identifier: MIT\n\npragma solidity >=0.8.0 <0.9.0;\n\nimport \"./ME.sol\";\nimport \"./UME.sol\";\n\n// smart contract for We (decentralized bank which mints UME)\ncontract We {\n  ME private meToken;\n  UME private umeToken;\n\n  uint umeToMint = 0;\n  uint256[7] meIds = [0,1,2,3,4,5,6];\n\n  mapping(address => uint) postRedeemed;\n  mapping(address => uint) likeRedeemed;\n  mapping(address => uint) tagRedeemed;\n  mapping(address => uint) followRedeemed;\n  mapping(address => uint) respondRedeemed;\n  mapping(address => uint) curateRedeemed;\n  mapping(address => uint) juryRedeemed;\n\n\n  mapping(address => uint) postInCache;\n  mapping(address => uint) likeInCache;\n  mapping(address => uint) tagInCache;\n  mapping(address => uint) followInCache;\n  mapping(address => uint) respondInCache;\n  mapping(address => uint) curateInCache;\n  mapping(address => uint) juryInCache;\n\n  mapping(address => uint) redeemStart;\n  mapping(address => bool) isCalculated;\n  mapping(address => bool) isCached;\n  mapping(address => bool) isRedeemed;\n\n  event MintUME(address account, uint mintTime, uint amount);\n\n  constructor(ME _meToken, UME _umeToken) public {\n    meToken = _meToken;\n    umeToken = _umeToken;\n  }\n  // cache ME\n  function cache() private {\n    require(isCached[msg.sender]!=true, 'Error: cache already active');\n    require(isCalculated[msg.sender]!=true, 'Error: cache already calculated');\n    // reset isRedeemed\n    require(isRedeemed[msg.sender]!=true, 'Error: cache has been redeemed');\n\n    uint256[7] memory _meBalances;\n    for(uint8 i = 0; i < 7; i++) {\n      _meBalances[i] = meToken.balanceOf(msg.sender, i);\n    }\n\n    // track token amount in Cache\n    postInCache[msg.sender] = _meBalances[0];\n    likeInCache[msg.sender] = _meBalances[1];\n    tagInCache[msg.sender] = _meBalances[2];\n    followInCache[msg.sender] = _meBalances[3];\n    respondInCache[msg.sender] = _meBalances[4];\n    curateInCache[msg.sender] = _meBalances[5];\n    juryInCache[msg.sender] = _meBalances[6];\n\n    // approve transfer of UserData tokens\n    meToken.setApprovalForAll(address(msg.sender), true);\n    // transfer UserData tokens\n    for(uint i = 0; i < 7; i++) {\n      meToken.safeTransferFrom(address(msg.sender), address(this), i, _meBalances[i], msg.data);\n    }\n\n    isCached[msg.sender] = true;\n  }\n  // calculate UME to mint\n  function calculate() private {\n    require(isCached[msg.sender]==true, 'Error: ME hasn\\'t cached');\n    require(postInCache[msg.sender] > 0 ||\n            likeInCache[msg.sender] > 0 ||\n            tagInCache[msg.sender] > 0 ||\n            followInCache[msg.sender] > 0 ||\n            respondInCache[msg.sender] > 0 ||\n            curateInCache[msg.sender] > 0 ||\n            juryInCache[msg.sender] > 0, 'Error: nothing to calculate');\n    require(isCalculated[msg.sender]!=true, 'Error: has been calculated');\n    // reset UME to mint\n    umeToMint = 0;\n    // POST tokens\n    umeToMint += postInCache[msg.sender] * 1;\n    umeToMint += likeInCache[msg.sender] * 2;\n    umeToMint += tagInCache[msg.sender] * 2;\n    umeToMint += followInCache[msg.sender] * 2;\n    umeToMint += respondInCache[msg.sender] * 2;\n    umeToMint += curateInCache[msg.sender] * 3;\n    umeToMint += juryInCache[msg.sender] * 5;\n    // set isCalculated to true so it can't double calculate\n    isCalculated[msg.sender] = true;\n  }\n\n  function clear() private {\n    require(isRedeemed[msg.sender]==true, 'Error: cache hasn\\'t yet been redeemed');\n    postInCache[msg.sender] = 0;\n    likeInCache[msg.sender] = 0;\n    tagInCache[msg.sender] = 0;\n    followInCache[msg.sender] = 0;\n    respondInCache[msg.sender] = 0;\n    curateInCache[msg.sender] = 0;\n    juryInCache[msg.sender] = 0;\n    // reset state\n    isCalculated[msg.sender] = false;\n    isCached[msg.sender] = false;\n    isRedeemed[msg.sender] = false;\n  }\n\n  function redeem() payable public {\n    // cache to get values\n    cache();\n    calculate();\n\n    umeToken.mint(msg.sender, umeToMint);\n    isRedeemed[msg.sender] = true;\n    clear();\n  }\n\n}\n",
  "sourcePath": "/Users/jaiq/Documents/000 BLOCKCHAIN/ETH/uMe/src/contracts/We.sol",
  "compiler": {
    "name": "solc",
    "version": "0.8.7+commit.e28d00a7.Emscripten.clang"
  },
  "schemaVersion": "3.4.3",
  "updatedAt": "2021-08-17T06:40:42.308Z",
  "devdoc": {
    "kind": "dev",
    "methods": {},
    "version": 1
  },
  "userdoc": {
    "kind": "user",
    "methods": {},
    "version": 1
  }
}