{
  "contractName": "We",
  "abi": [
    {
      "inputs": [
        {
          "internalType": "contract ME",
          "name": "_meToken",
          "type": "address"
        },
        {
          "internalType": "contract UME",
          "name": "_umeToken",
          "type": "address"
        }
      ],
      "stateMutability": "nonpayable",
      "type": "constructor"
    },
    {
      "anonymous": false,
      "inputs": [
        {
          "indexed": false,
          "internalType": "address",
          "name": "account",
          "type": "address"
        },
        {
          "indexed": false,
          "internalType": "uint256",
          "name": "mintTime",
          "type": "uint256"
        },
        {
          "indexed": false,
          "internalType": "uint256",
          "name": "amount",
          "type": "uint256"
        }
      ],
      "name": "MintUME",
      "type": "event"
    },
    {
      "inputs": [
        {
          "internalType": "address",
          "name": "",
          "type": "address"
        }
      ],
      "name": "curateInCache",
      "outputs": [
        {
          "internalType": "uint256",
          "name": "",
          "type": "uint256"
        }
      ],
      "stateMutability": "view",
      "type": "function"
    },
    {
      "inputs": [
        {
          "internalType": "address",
          "name": "",
          "type": "address"
        }
      ],
      "name": "curateRedeemed",
      "outputs": [
        {
          "internalType": "uint256",
          "name": "",
          "type": "uint256"
        }
      ],
      "stateMutability": "view",
      "type": "function"
    },
    {
      "inputs": [
        {
          "internalType": "address",
          "name": "",
          "type": "address"
        }
      ],
      "name": "followInCache",
      "outputs": [
        {
          "internalType": "uint256",
          "name": "",
          "type": "uint256"
        }
      ],
      "stateMutability": "view",
      "type": "function"
    },
    {
      "inputs": [
        {
          "internalType": "address",
          "name": "",
          "type": "address"
        }
      ],
      "name": "followRedeemed",
      "outputs": [
        {
          "internalType": "uint256",
          "name": "",
          "type": "uint256"
        }
      ],
      "stateMutability": "view",
      "type": "function"
    },
    {
      "inputs": [
        {
          "internalType": "address",
          "name": "",
          "type": "address"
        }
      ],
      "name": "isCached",
      "outputs": [
        {
          "internalType": "bool",
          "name": "",
          "type": "bool"
        }
      ],
      "stateMutability": "view",
      "type": "function"
    },
    {
      "inputs": [
        {
          "internalType": "address",
          "name": "",
          "type": "address"
        }
      ],
      "name": "isCalculated",
      "outputs": [
        {
          "internalType": "bool",
          "name": "",
          "type": "bool"
        }
      ],
      "stateMutability": "view",
      "type": "function"
    },
    {
      "inputs": [
        {
          "internalType": "address",
          "name": "",
          "type": "address"
        }
      ],
      "name": "isRedeemed",
      "outputs": [
        {
          "internalType": "bool",
          "name": "",
          "type": "bool"
        }
      ],
      "stateMutability": "view",
      "type": "function"
    },
    {
      "inputs": [
        {
          "internalType": "address",
          "name": "",
          "type": "address"
        }
      ],
      "name": "juryInCache",
      "outputs": [
        {
          "internalType": "uint256",
          "name": "",
          "type": "uint256"
        }
      ],
      "stateMutability": "view",
      "type": "function"
    },
    {
      "inputs": [
        {
          "internalType": "address",
          "name": "",
          "type": "address"
        }
      ],
      "name": "juryRedeemed",
      "outputs": [
        {
          "internalType": "uint256",
          "name": "",
          "type": "uint256"
        }
      ],
      "stateMutability": "view",
      "type": "function"
    },
    {
      "inputs": [
        {
          "internalType": "address",
          "name": "",
          "type": "address"
        }
      ],
      "name": "likeInCache",
      "outputs": [
        {
          "internalType": "uint256",
          "name": "",
          "type": "uint256"
        }
      ],
      "stateMutability": "view",
      "type": "function"
    },
    {
      "inputs": [
        {
          "internalType": "address",
          "name": "",
          "type": "address"
        }
      ],
      "name": "likeRedeemed",
      "outputs": [
        {
          "internalType": "uint256",
          "name": "",
          "type": "uint256"
        }
      ],
      "stateMutability": "view",
      "type": "function"
    },
    {
      "inputs": [
        {
          "internalType": "address",
          "name": "",
          "type": "address"
        }
      ],
      "name": "postInCache",
      "outputs": [
        {
          "internalType": "uint256",
          "name": "",
          "type": "uint256"
        }
      ],
      "stateMutability": "view",
      "type": "function"
    },
    {
      "inputs": [
        {
          "internalType": "address",
          "name": "",
          "type": "address"
        }
      ],
      "name": "postRedeemed",
      "outputs": [
        {
          "internalType": "uint256",
          "name": "",
          "type": "uint256"
        }
      ],
      "stateMutability": "view",
      "type": "function"
    },
    {
      "inputs": [
        {
          "internalType": "address",
          "name": "",
          "type": "address"
        }
      ],
      "name": "redeemStart",
      "outputs": [
        {
          "internalType": "uint256",
          "name": "",
          "type": "uint256"
        }
      ],
      "stateMutability": "view",
      "type": "function"
    },
    {
      "inputs": [
        {
          "internalType": "address",
          "name": "",
          "type": "address"
        }
      ],
      "name": "respondInCache",
      "outputs": [
        {
          "internalType": "uint256",
          "name": "",
          "type": "uint256"
        }
      ],
      "stateMutability": "view",
      "type": "function"
    },
    {
      "inputs": [
        {
          "internalType": "address",
          "name": "",
          "type": "address"
        }
      ],
      "name": "respondRedeemed",
      "outputs": [
        {
          "internalType": "uint256",
          "name": "",
          "type": "uint256"
        }
      ],
      "stateMutability": "view",
      "type": "function"
    },
    {
      "inputs": [
        {
          "internalType": "address",
          "name": "",
          "type": "address"
        }
      ],
      "name": "tagInCache",
      "outputs": [
        {
          "internalType": "uint256",
          "name": "",
          "type": "uint256"
        }
      ],
      "stateMutability": "view",
      "type": "function"
    },
    {
      "inputs": [
        {
          "internalType": "address",
          "name": "",
          "type": "address"
        }
      ],
      "name": "tagRedeemed",
      "outputs": [
        {
          "internalType": "uint256",
          "name": "",
          "type": "uint256"
        }
      ],
      "stateMutability": "view",
      "type": "function"
    },
    {
      "inputs": [],
      "name": "umeToMint",
      "outputs": [
        {
          "internalType": "uint256",
          "name": "",
          "type": "uint256"
        }
      ],
      "stateMutability": "view",
      "type": "function"
    },
    {
      "inputs": [],
      "name": "cache",
      "outputs": [],
      "stateMutability": "nonpayable",
      "type": "function"
    }
  ],
  "bytecode": "0x608060405260006002556040518060e00160405280600060ff168152602001600160ff168152602001600260ff168152602001600360ff168152602001600460ff168152602001600560ff168152602001600660ff1681525060039060076200006a92919062000127565b503480156200007857600080fd5b5060405162000e4338038062000e4383398181016040528101906200009e9190620001be565b816000806101000a81548173ffffffffffffffffffffffffffffffffffffffff021916908373ffffffffffffffffffffffffffffffffffffffff16021790555080600160006101000a81548173ffffffffffffffffffffffffffffffffffffffff021916908373ffffffffffffffffffffffffffffffffffffffff16021790555050506200029a565b82600781019282156200015e579160200282015b828111156200015d578251829060ff169055916020019190600101906200013b565b5b5090506200016d919062000171565b5090565b5b808211156200018c57600081600090555060010162000172565b5090565b600081519050620001a18162000266565b92915050565b600081519050620001b88162000280565b92915050565b60008060408385031215620001d857620001d762000261565b5b6000620001e88582860162000190565b9250506020620001fb85828601620001a7565b9150509250929050565b6000620002128262000241565b9050919050565b6000620002268262000205565b9050919050565b60006200023a8262000205565b9050919050565b600073ffffffffffffffffffffffffffffffffffffffff82169050919050565b600080fd5b620002718162000219565b81146200027d57600080fd5b50565b6200028b816200022d565b81146200029757600080fd5b50565b610b9980620002aa6000396000f3fe608060405234801561001057600080fd5b506004361061012c5760003560e01c806373da27d9116100ad578063be619ee111610071578063be619ee1146103c9578063ca330563146103f9578063d1f6a53114610429578063d462e18614610459578063ecc81306146104895761012c565b806373da27d9146102d95780639776135a1461030957806399edc57f14610339578063a06031d014610369578063b564efb2146103995761012c565b806354fe8cac116100f457806354fe8cac1461020f5780635c1704f01461023f5780635c95e15d1461026f57806360c7d2951461029f57806368763771146102a95761012c565b80632d9657b01461013157806338f51f3d146101615780633c4b50d814610191578063446494e0146101c15780634a37044c146101f1575b600080fd5b61014b600480360381019061014691906108a7565b6104b9565b6040516101589190610a24565b60405180910390f35b61017b600480360381019061017691906108a7565b6104d1565b6040516101889190610a09565b60405180910390f35b6101ab60048036038101906101a691906108a7565b6104f1565b6040516101b89190610a24565b60405180910390f35b6101db60048036038101906101d691906108a7565b610509565b6040516101e89190610a24565b60405180910390f35b6101f9610521565b6040516102069190610a24565b60405180910390f35b610229600480360381019061022491906108a7565b610527565b6040516102369190610a24565b60405180910390f35b610259600480360381019061025491906108a7565b61053f565b6040516102669190610a24565b60405180910390f35b610289600480360381019061028491906108a7565b610557565b6040516102969190610a24565b60405180910390f35b6102a761056f565b005b6102c360048036038101906102be91906108a7565b610765565b6040516102d09190610a24565b60405180910390f35b6102f360048036038101906102ee91906108a7565b61077d565b6040516103009190610a09565b60405180910390f35b610323600480360381019061031e91906108a7565b61079d565b6040516103309190610a24565b60405180910390f35b610353600480360381019061034e91906108a7565b6107b5565b6040516103609190610a24565b60405180910390f35b610383600480360381019061037e91906108a7565b6107cd565b6040516103909190610a24565b60405180910390f35b6103b360048036038101906103ae91906108a7565b6107e5565b6040516103c09190610a24565b60405180910390f35b6103e360048036038101906103de91906108a7565b6107fd565b6040516103f09190610a24565b60405180910390f35b610413600480360381019061040e91906108a7565b610815565b6040516104209190610a09565b60405180910390f35b610443600480360381019061043e91906108a7565b610835565b6040516104509190610a24565b60405180910390f35b610473600480360381019061046e91906108a7565b61084d565b6040516104809190610a24565b60405180910390f35b6104a3600480360381019061049e91906108a7565b610865565b6040516104b09190610a24565b60405180910390f35b60126020528060005260406000206000915090505481565b60196020528060005260406000206000915054906101000a900460ff1681565b600a6020528060005260406000206000915090505481565b600e6020528060005260406000206000915090505481565b60025481565b60186020528060005260406000206000915090505481565b600b6020528060005260406000206000915090505481565b600f6020528060005260406000206000915090505481565b60008060009054906101000a900473ffffffffffffffffffffffffffffffffffffffff1673ffffffffffffffffffffffffffffffffffffffff1663a22cb4653360016040518363ffffffff1660e01b81526004016105ce9291906109b7565b600060405180830381600087803b1580156105e857600080fd5b505af11580156105fc573d6000803e3d6000fd5b5050505060005b60078110156107615760008054906101000a900473ffffffffffffffffffffffffffffffffffffffff1673ffffffffffffffffffffffffffffffffffffffff1662fdd58e33836040518363ffffffff1660e01b81526004016106669291906109e0565b60206040518083038186803b15801561067e57600080fd5b505afa158015610692573d6000803e3d6000fd5b505050506040513d601f19601f820116820180604052508101906106b691906108d4565b915060008054906101000a900473ffffffffffffffffffffffffffffffffffffffff1673ffffffffffffffffffffffffffffffffffffffff1663f242432a333084866000366040518763ffffffff1660e01b815260040161071c9695949392919061095b565b600060405180830381600087803b15801561073657600080fd5b505af115801561074a573d6000803e3d6000fd5b50505050808061075990610aa7565b915050610603565b5050565b60166020528060005260406000206000915090505481565b601a6020528060005260406000206000915054906101000a900460ff1681565b60156020528060005260406000206000915090505481565b60176020528060005260406000206000915090505481565b60106020528060005260406000206000915090505481565b600c6020528060005260406000206000915090505481565b600d6020528060005260406000206000915090505481565b601b6020528060005260406000206000915054906101000a900460ff1681565b60146020528060005260406000206000915090505481565b60136020528060005260406000206000915090505481565b60116020528060005260406000206000915090505481565b60008135905061088c81610b35565b92915050565b6000815190506108a181610b4c565b92915050565b6000602082840312156108bd576108bc610b1f565b5b60006108cb8482850161087d565b91505092915050565b6000602082840312156108ea576108e9610b1f565b5b60006108f884828501610892565b91505092915050565b61090a81610a50565b82525050565b61091981610a62565b82525050565b600061092b8385610a3f565b9350610938838584610a98565b61094183610b24565b840190509392505050565b61095581610a8e565b82525050565b600060a0820190506109706000830189610901565b61097d6020830188610901565b61098a604083018761094c565b610997606083018661094c565b81810360808301526109aa81848661091f565b9050979650505050505050565b60006040820190506109cc6000830185610901565b6109d96020830184610910565b9392505050565b60006040820190506109f56000830185610901565b610a02602083018461094c565b9392505050565b6000602082019050610a1e6000830184610910565b92915050565b6000602082019050610a39600083018461094c565b92915050565b600082825260208201905092915050565b6000610a5b82610a6e565b9050919050565b60008115159050919050565b600073ffffffffffffffffffffffffffffffffffffffff82169050919050565b6000819050919050565b82818337600083830152505050565b6000610ab282610a8e565b91507fffffffffffffffffffffffffffffffffffffffffffffffffffffffffffffffff821415610ae557610ae4610af0565b5b600182019050919050565b7f4e487b7100000000000000000000000000000000000000000000000000000000600052601160045260246000fd5b600080fd5b6000601f19601f8301169050919050565b610b3e81610a50565b8114610b4957600080fd5b50565b610b5581610a8e565b8114610b6057600080fd5b5056fea26469706673582212200411de079ab51ccf4f1da748cbbe0912d5ede10adfba4d88424881b04d93188864736f6c63430008070033",
  "immutableReferences": {},
  "source": "// SPDX-License-Identifier: MIT\n\npragma solidity >=0.8.0 <0.9.0;\n\nimport \"./ME.sol\";\nimport \"./UME.sol\";\n\n// smart contract for We (decentralized bank which mints UME)\ncontract We {\n  ME private meToken;\n  UME private umeToken;\n\n  uint public umeToMint = 0;\n  uint256[7] meIds = [0,1,2,3,4,5,6];\n\n  mapping(address => uint) public postRedeemed;\n  mapping(address => uint) public likeRedeemed;\n  mapping(address => uint) public tagRedeemed;\n  mapping(address => uint) public followRedeemed;\n  mapping(address => uint) public respondRedeemed;\n  mapping(address => uint) public curateRedeemed;\n  mapping(address => uint) public juryRedeemed;\n\n\n  mapping(address => uint) public postInCache;\n  mapping(address => uint) public likeInCache;\n  mapping(address => uint) public tagInCache;\n  mapping(address => uint) public followInCache;\n  mapping(address => uint) public respondInCache;\n  mapping(address => uint) public curateInCache;\n  mapping(address => uint) public juryInCache;\n\n  mapping(address => uint) public redeemStart;\n  mapping(address => bool) public isCalculated;\n  mapping(address => bool) public isCached;\n  mapping(address => bool) public isRedeemed;\n\n  event MintUME(address account, uint mintTime, uint amount);\n\n  constructor(ME _meToken, UME _umeToken) public {\n    meToken = _meToken;\n    umeToken = _umeToken;\n  }\n  // cache ME\n  function cache() public {\n    //require(isCached[msg.sender]!=true, 'Error: cache already active');\n    //require(isCalculated[msg.sender]!=true, 'Error: cache already calculated');\n    // reset isRedeemed\n    //require(isRedeemed[msg.sender]!=true, 'Error: cache has been redeemed');\n/*\n    uint256[7] memory _meBalances;\n    for(uint8 i = 0; i < 7; i++) {\n      _meBalances[i] = meToken.balanceOf(msg.sender, i);\n    }\n\n    // track token amount in Cache\n    postInCache[msg.sender] = _meBalances[0];\n    likeInCache[msg.sender] = _meBalances[1];\n    tagInCache[msg.sender] = _meBalances[2];\n    followInCache[msg.sender] = _meBalances[3];\n    respondInCache[msg.sender] = _meBalances[4];\n    curateInCache[msg.sender] = _meBalances[5];\n    juryInCache[msg.sender] = _meBalances[6];\n*/\n    uint balance;\n    // approve transfer of UserData tokens\n    meToken.setApprovalForAll(address(msg.sender), true);\n    // transfer UserData tokens\n    for(uint i = 0; i < 7; i++) {\n      balance = meToken.balanceOf(msg.sender, i);\n      meToken.safeTransferFrom(address(msg.sender), address(this), i, balance, msg.data);\n    }\n/*\n    postInCache[msg.sender] = meToken.balanceOf(msg.sender, 0);\n    likeInCache[msg.sender] = meToken.balanceOf(msg.sender, 1);\n    tagInCache[msg.sender] = meToken.balanceOf(msg.sender, 2);\n    followInCache[msg.sender] = meToken.balanceOf(msg.sender, 3);\n    respondInCache[msg.sender] = meToken.balanceOf(msg.sender, 4);\n    curateInCache[msg.sender] = meToken.balanceOf(msg.sender, 5);\n    juryInCache[msg.sender] = meToken.balanceOf(msg.sender, 6);\n*/\n  }\n  /*\n  // calculate UME to mint\n  function calculate() public {\n    require(isCached[msg.sender]==true, 'Error: ME hasn\\'t cached');\n    require(postInCache[msg.sender] > 0 ||\n            likeInCache[msg.sender] > 0 ||\n            tagInCache[msg.sender] > 0 ||\n            followInCache[msg.sender] > 0 ||\n            respondInCache[msg.sender] > 0 ||\n            curateInCache[msg.sender] > 0 ||\n            juryInCache[msg.sender] > 0, 'Error: nothing to calculate');\n    require(isCalculated[msg.sender]!=true, 'Error: has been calculated');\n    // reset UME to mint\n    umeToMint = 0;\n    // POST tokens\n    umeToMint += postInCache[msg.sender] * 1;\n    umeToMint += likeInCache[msg.sender] * 2;\n    umeToMint += tagInCache[msg.sender] * 2;\n    umeToMint += followInCache[msg.sender] * 2;\n    umeToMint += respondInCache[msg.sender] * 2;\n    umeToMint += curateInCache[msg.sender] * 3;\n    umeToMint += juryInCache[msg.sender] * 5;\n    // set isCalculated to true so it can't double calculate\n    isCalculated[msg.sender] = true;\n  }\n\n  function clear() public {\n    require(isRedeemed[msg.sender]==true, 'Error: cache hasn\\'t yet been redeemed');\n    postInCache[msg.sender] = 0;\n    likeInCache[msg.sender] = 0;\n    tagInCache[msg.sender] = 0;\n    followInCache[msg.sender] = 0;\n    respondInCache[msg.sender] = 0;\n    curateInCache[msg.sender] = 0;\n    juryInCache[msg.sender] = 0;\n    // reset state\n    isCalculated[msg.sender] = false;\n    isCached[msg.sender] = false;\n    isRedeemed[msg.sender] = false;\n  }\n\n  function redeem() public {\n    // cache to get values\n\n    umeToken.mint(msg.sender, umeToMint);\n    isRedeemed[msg.sender] = true;\n    clear();\n  }\n*/\n}\n",
  "sourcePath": "/Users/jaiq/Documents/000 BLOCKCHAIN/ETH/uMe/src/contracts/We.sol",
  "compiler": {
    "name": "solc",
    "version": "0.8.7+commit.e28d00a7.Emscripten.clang"
  },
  "schemaVersion": "3.4.3",
  "updatedAt": "2021-08-18T22:52:53.042Z",
  "devdoc": {
    "kind": "dev",
    "methods": {},
    "version": 1
  },
  "userdoc": {
    "kind": "user",
    "methods": {},
    "version": 1
  }
}